{
	"RoyaltyFeeRegistry_flat.sol": {
		"RoyaltyFeeRegistry": {
			"abi": [
				{
					"inputs": [
						{
							"internalType": "uint256",
							"name": "_royaltyFeeLimit",
							"type": "uint256"
						}
					],
					"stateMutability": "nonpayable",
					"type": "constructor"
				},
				{
					"anonymous": false,
					"inputs": [
						{
							"indexed": false,
							"internalType": "uint256",
							"name": "royaltyFeeLimit",
							"type": "uint256"
						}
					],
					"name": "NewRoyaltyFeeLimit",
					"type": "event"
				},
				{
					"anonymous": false,
					"inputs": [
						{
							"indexed": true,
							"internalType": "address",
							"name": "previousOwner",
							"type": "address"
						},
						{
							"indexed": true,
							"internalType": "address",
							"name": "newOwner",
							"type": "address"
						}
					],
					"name": "OwnershipTransferred",
					"type": "event"
				},
				{
					"anonymous": false,
					"inputs": [
						{
							"indexed": true,
							"internalType": "address",
							"name": "collection",
							"type": "address"
						},
						{
							"indexed": true,
							"internalType": "address",
							"name": "setter",
							"type": "address"
						},
						{
							"indexed": true,
							"internalType": "address",
							"name": "receiver",
							"type": "address"
						},
						{
							"indexed": false,
							"internalType": "uint256",
							"name": "fee",
							"type": "uint256"
						}
					],
					"name": "RoyaltyFeeUpdate",
					"type": "event"
				},
				{
					"inputs": [],
					"name": "INTERFACE_ID_ERC1155",
					"outputs": [
						{
							"internalType": "bytes4",
							"name": "",
							"type": "bytes4"
						}
					],
					"stateMutability": "view",
					"type": "function"
				},
				{
					"inputs": [],
					"name": "INTERFACE_ID_ERC2981",
					"outputs": [
						{
							"internalType": "bytes4",
							"name": "",
							"type": "bytes4"
						}
					],
					"stateMutability": "view",
					"type": "function"
				},
				{
					"inputs": [],
					"name": "INTERFACE_ID_ERC721",
					"outputs": [
						{
							"internalType": "bytes4",
							"name": "",
							"type": "bytes4"
						}
					],
					"stateMutability": "view",
					"type": "function"
				},
				{
					"inputs": [
						{
							"internalType": "address",
							"name": "collection",
							"type": "address"
						}
					],
					"name": "checkForCollectionSetter",
					"outputs": [
						{
							"internalType": "address",
							"name": "",
							"type": "address"
						},
						{
							"internalType": "uint8",
							"name": "",
							"type": "uint8"
						}
					],
					"stateMutability": "view",
					"type": "function"
				},
				{
					"inputs": [],
					"name": "owner",
					"outputs": [
						{
							"internalType": "address",
							"name": "",
							"type": "address"
						}
					],
					"stateMutability": "view",
					"type": "function"
				},
				{
					"inputs": [],
					"name": "renounceOwnership",
					"outputs": [],
					"stateMutability": "nonpayable",
					"type": "function"
				},
				{
					"inputs": [
						{
							"internalType": "address",
							"name": "collection",
							"type": "address"
						}
					],
					"name": "royaltyFeeInfoCollection",
					"outputs": [
						{
							"internalType": "address",
							"name": "",
							"type": "address"
						},
						{
							"internalType": "address",
							"name": "",
							"type": "address"
						},
						{
							"internalType": "uint256",
							"name": "",
							"type": "uint256"
						}
					],
					"stateMutability": "view",
					"type": "function"
				},
				{
					"inputs": [],
					"name": "royaltyFeeLimit",
					"outputs": [
						{
							"internalType": "uint256",
							"name": "",
							"type": "uint256"
						}
					],
					"stateMutability": "view",
					"type": "function"
				},
				{
					"inputs": [
						{
							"internalType": "address",
							"name": "collection",
							"type": "address"
						},
						{
							"internalType": "uint256",
							"name": "amount",
							"type": "uint256"
						}
					],
					"name": "royaltyInfo",
					"outputs": [
						{
							"internalType": "address",
							"name": "",
							"type": "address"
						},
						{
							"internalType": "uint256",
							"name": "",
							"type": "uint256"
						}
					],
					"stateMutability": "view",
					"type": "function"
				},
				{
					"inputs": [
						{
							"internalType": "address",
							"name": "newOwner",
							"type": "address"
						}
					],
					"name": "transferOwnership",
					"outputs": [],
					"stateMutability": "nonpayable",
					"type": "function"
				},
				{
					"inputs": [
						{
							"internalType": "uint256",
							"name": "_royaltyFeeLimit",
							"type": "uint256"
						}
					],
					"name": "updateRoyaltyFeeLimit",
					"outputs": [],
					"stateMutability": "nonpayable",
					"type": "function"
				},
				{
					"inputs": [
						{
							"internalType": "address",
							"name": "collection",
							"type": "address"
						},
						{
							"internalType": "address",
							"name": "setter",
							"type": "address"
						},
						{
							"internalType": "address",
							"name": "receiver",
							"type": "address"
						},
						{
							"internalType": "uint256",
							"name": "fee",
							"type": "uint256"
						}
					],
					"name": "updateRoyaltyInfoForCollectionIfAdmin",
					"outputs": [],
					"stateMutability": "nonpayable",
					"type": "function"
				},
				{
					"inputs": [
						{
							"internalType": "address",
							"name": "collection",
							"type": "address"
						},
						{
							"internalType": "address",
							"name": "setter",
							"type": "address"
						},
						{
							"internalType": "address",
							"name": "receiver",
							"type": "address"
						},
						{
							"internalType": "uint256",
							"name": "fee",
							"type": "uint256"
						}
					],
					"name": "updateRoyaltyInfoForCollectionIfOwner",
					"outputs": [],
					"stateMutability": "nonpayable",
					"type": "function"
				},
				{
					"inputs": [
						{
							"internalType": "address",
							"name": "collection",
							"type": "address"
						},
						{
							"internalType": "address",
							"name": "setter",
							"type": "address"
						},
						{
							"internalType": "address",
							"name": "receiver",
							"type": "address"
						},
						{
							"internalType": "uint256",
							"name": "fee",
							"type": "uint256"
						}
					],
					"name": "updateRoyaltyInfoForCollectionIfSetter",
					"outputs": [],
					"stateMutability": "nonpayable",
					"type": "function"
				}
			],
			"devdoc": {
				"kind": "dev",
				"methods": {
					"owner()": {
						"details": "Returns the address of the current owner."
					},
					"renounceOwnership()": {
						"details": "Leaves the contract without owner. It will not be possible to call `onlyOwner` functions anymore. Can only be called by the current owner. NOTE: Renouncing ownership will leave the contract without an owner, thereby removing any functionality that is only available to the owner."
					},
					"transferOwnership(address)": {
						"details": "Transfers ownership of the contract to a new account (`newOwner`). Can only be called by the current owner."
					}
				},
				"version": 1
			},
			"evm": {
				"assembly": "    /* \"RoyaltyFeeRegistry_flat.sol\":5244:11734  contract RoyaltyFeeRegistry is IRoyaltyFeeRegistry, Ownable {... */\n  mstore(0x40, 0x80)\n    /* \"RoyaltyFeeRegistry_flat.sol\":6081:6285  constructor(uint256 _royaltyFeeLimit) {... */\n  callvalue\n  dup1\n  iszero\n  tag_1\n  jumpi\n  0x00\n  dup1\n  revert\ntag_1:\n  pop\n  mload(0x40)\n  sub(codesize, bytecodeSize)\n  dup1\n  bytecodeSize\n  dup4\n  codecopy\n  dup2\n  add\n  0x40\n  dup2\n  swap1\n  mstore\n  tag_2\n  swap2\n  tag_3\n  jump\t// in\ntag_2:\n    /* \"RoyaltyFeeRegistry_flat.sol\":2553:2585  _transferOwnership(_msgSender()) */\n  tag_7\n    /* \"RoyaltyFeeRegistry_flat.sol\":1500:1510  msg.sender */\n  caller\n    /* \"RoyaltyFeeRegistry_flat.sol\":2553:2571  _transferOwnership */\n  tag_10\n    /* \"RoyaltyFeeRegistry_flat.sol\":2553:2585  _transferOwnership(_msgSender()) */\n  jump\t// in\ntag_7:\n    /* \"RoyaltyFeeRegistry_flat.sol\":6199:6203  9500 */\n  0x251c\n    /* \"RoyaltyFeeRegistry_flat.sol\":6179:6195  _royaltyFeeLimit */\n  dup2\n    /* \"RoyaltyFeeRegistry_flat.sol\":6179:6203  _royaltyFeeLimit <= 9500 */\n  gt\n  iszero\n    /* \"RoyaltyFeeRegistry_flat.sol\":6171:6234  require(_royaltyFeeLimit <= 9500, \"Royalty fee limit too high\") */\n  tag_12\n  jumpi\n  mload(0x40)\n  shl(0xe5, 0x461bcd)\n  dup2\n  mstore\n    /* \"#utility.yul\":405:407   */\n  0x20\n    /* \"RoyaltyFeeRegistry_flat.sol\":6171:6234  require(_royaltyFeeLimit <= 9500, \"Royalty fee limit too high\") */\n  0x04\n  dup3\n  add\n    /* \"#utility.yul\":387:408   */\n  mstore\n    /* \"#utility.yul\":444:446   */\n  0x1a\n    /* \"#utility.yul\":424:442   */\n  0x24\n  dup3\n  add\n    /* \"#utility.yul\":417:447   */\n  mstore\n    /* \"#utility.yul\":483:511   */\n  0x526f79616c747920666565206c696d697420746f6f2068696768000000000000\n    /* \"#utility.yul\":463:481   */\n  0x44\n  dup3\n  add\n    /* \"#utility.yul\":456:512   */\n  mstore\n    /* \"#utility.yul\":529:547   */\n  0x64\n  add\n    /* \"RoyaltyFeeRegistry_flat.sol\":6171:6234  require(_royaltyFeeLimit <= 9500, \"Royalty fee limit too high\") */\n  mload(0x40)\n  dup1\n  swap2\n  sub\n  swap1\n  revert\ntag_12:\n    /* \"RoyaltyFeeRegistry_flat.sol\":6244:6259  royaltyFeeLimit */\n  0x01\n    /* \"RoyaltyFeeRegistry_flat.sol\":6244:6278  royaltyFeeLimit = _royaltyFeeLimit */\n  sstore\n    /* \"RoyaltyFeeRegistry_flat.sol\":5244:11734  contract RoyaltyFeeRegistry is IRoyaltyFeeRegistry, Ownable {... */\n  jump(tag_18)\n    /* \"RoyaltyFeeRegistry_flat.sol\":4050:4237  function _transferOwnership(address newOwner) internal virtual {... */\ntag_10:\n    /* \"RoyaltyFeeRegistry_flat.sol\":4123:4139  address oldOwner */\n  0x00\n    /* \"RoyaltyFeeRegistry_flat.sol\":4142:4148  _owner */\n  dup1\n  sload\n  sub(shl(0xa0, 0x01), 0x01)\n    /* \"RoyaltyFeeRegistry_flat.sol\":4158:4175  _owner = newOwner */\n  dup4\n  dup2\n  and\n  not(sub(shl(0xa0, 0x01), 0x01))\n  dup4\n  and\n  dup2\n  or\n  dup5\n  sstore\n    /* \"RoyaltyFeeRegistry_flat.sol\":4190:4230  OwnershipTransferred(oldOwner, newOwner) */\n  mload(0x40)\n    /* \"RoyaltyFeeRegistry_flat.sol\":4142:4148  _owner */\n  swap2\n  swap1\n  swap3\n  and\n  swap3\n  dup4\n  swap2\n    /* \"RoyaltyFeeRegistry_flat.sol\":4190:4230  OwnershipTransferred(oldOwner, newOwner) */\n  0x8be0079c531659141344cd1fd0a4f28419497f9722a3daafe3b4186f6b6457e0\n  swap2\n    /* \"RoyaltyFeeRegistry_flat.sol\":4123:4139  address oldOwner */\n  swap1\n    /* \"RoyaltyFeeRegistry_flat.sol\":4190:4230  OwnershipTransferred(oldOwner, newOwner) */\n  log3\n    /* \"RoyaltyFeeRegistry_flat.sol\":4113:4237  {... */\n  pop\n    /* \"RoyaltyFeeRegistry_flat.sol\":4050:4237  function _transferOwnership(address newOwner) internal virtual {... */\n  pop\n  jump\t// out\n    /* \"#utility.yul\":14:198   */\ntag_3:\n    /* \"#utility.yul\":84:90   */\n  0x00\n    /* \"#utility.yul\":137:139   */\n  0x20\n    /* \"#utility.yul\":125:134   */\n  dup3\n    /* \"#utility.yul\":116:123   */\n  dup5\n    /* \"#utility.yul\":112:135   */\n  sub\n    /* \"#utility.yul\":108:140   */\n  slt\n    /* \"#utility.yul\":105:157   */\n  iszero\n  tag_20\n  jumpi\n    /* \"#utility.yul\":153:154   */\n  0x00\n    /* \"#utility.yul\":150:151   */\n  dup1\n    /* \"#utility.yul\":143:155   */\n  revert\n    /* \"#utility.yul\":105:157   */\ntag_20:\n  pop\n    /* \"#utility.yul\":176:192   */\n  mload\n  swap2\n    /* \"#utility.yul\":14:198   */\n  swap1\n  pop\n  jump\t// out\n    /* \"#utility.yul\":203:553   */\ntag_18:\n    /* \"RoyaltyFeeRegistry_flat.sol\":5244:11734  contract RoyaltyFeeRegistry is IRoyaltyFeeRegistry, Ownable {... */\n  dataSize(sub_0)\n  dup1\n  dataOffset(sub_0)\n  0x00\n  codecopy\n  0x00\n  return\nstop\n\nsub_0: assembly {\n        /* \"RoyaltyFeeRegistry_flat.sol\":5244:11734  contract RoyaltyFeeRegistry is IRoyaltyFeeRegistry, Ownable {... */\n      mstore(0x40, 0x80)\n      callvalue\n      dup1\n      iszero\n      tag_1\n      jumpi\n      0x00\n      dup1\n      revert\n    tag_1:\n      pop\n      jumpi(tag_2, lt(calldatasize, 0x04))\n      shr(0xe0, calldataload(0x00))\n      dup1\n      0xab016670\n      gt\n      tag_17\n      jumpi\n      dup1\n      0xbc6bc0cd\n      gt\n      tag_18\n      jumpi\n      dup1\n      0xbc6bc0cd\n      eq\n      tag_13\n      jumpi\n      dup1\n      0xc54e5497\n      eq\n      tag_14\n      jumpi\n      dup1\n      0xe31ef91c\n      eq\n      tag_15\n      jumpi\n      dup1\n      0xf2fde38b\n      eq\n      tag_16\n      jumpi\n      0x00\n      dup1\n      revert\n    tag_18:\n      dup1\n      0xab016670\n      eq\n      tag_10\n      jumpi\n      dup1\n      0xb060dd86\n      eq\n      tag_11\n      jumpi\n      dup1\n      0xb9223c9d\n      eq\n      tag_12\n      jumpi\n      0x00\n      dup1\n      revert\n    tag_17:\n      dup1\n      0x3755fa80\n      gt\n      tag_19\n      jumpi\n      dup1\n      0x3755fa80\n      eq\n      tag_6\n      jumpi\n      dup1\n      0x4fb7d3f9\n      eq\n      tag_7\n      jumpi\n      dup1\n      0x715018a6\n      eq\n      tag_8\n      jumpi\n      dup1\n      0x8da5cb5b\n      eq\n      tag_9\n      jumpi\n      0x00\n      dup1\n      revert\n    tag_19:\n      dup1\n      0x275da5ef\n      eq\n      tag_3\n      jumpi\n      dup1\n      0x2782d6c7\n      eq\n      tag_4\n      jumpi\n      dup1\n      0x33bf6156\n      eq\n      tag_5\n      jumpi\n    tag_2:\n      0x00\n      dup1\n      revert\n        /* \"RoyaltyFeeRegistry_flat.sol\":7900:8295  function updateRoyaltyInfoForCollectionIfSetter(... */\n    tag_3:\n      tag_20\n      tag_21\n      calldatasize\n      0x04\n      tag_22\n      jump\t// in\n    tag_21:\n      tag_23\n      jump\t// in\n    tag_20:\n      stop\n        /* \"RoyaltyFeeRegistry_flat.sol\":7227:7494  function royaltyInfo(address collection, uint256 amount) external view override returns (address, uint256) {... */\n    tag_4:\n      tag_24\n      tag_25\n      calldatasize\n      0x04\n      tag_26\n      jump\t// in\n    tag_25:\n      tag_27\n      jump\t// in\n    tag_24:\n      0x40\n      dup1\n      mload\n        /* \"#utility.yul\":1300:1342   */\n      0xffffffffffffffffffffffffffffffffffffffff\n        /* \"#utility.yul\":1288:1343   */\n      swap1\n      swap4\n      and\n        /* \"#utility.yul\":1270:1344   */\n      dup4\n      mstore\n        /* \"#utility.yul\":1375:1377   */\n      0x20\n        /* \"#utility.yul\":1360:1378   */\n      dup4\n      add\n        /* \"#utility.yul\":1353:1387   */\n      swap2\n      swap1\n      swap2\n      mstore\n        /* \"#utility.yul\":1243:1261   */\n      add\n        /* \"RoyaltyFeeRegistry_flat.sol\":7227:7494  function royaltyInfo(address collection, uint256 amount) external view override returns (address, uint256) {... */\n    tag_28:\n      mload(0x40)\n      dup1\n      swap2\n      sub\n      swap1\n      return\n        /* \"RoyaltyFeeRegistry_flat.sol\":5526:5582  bytes4 public constant INTERFACE_ID_ERC1155 = 0xd9b67a26 */\n    tag_5:\n      tag_30\n      0xd9b67a2600000000000000000000000000000000000000000000000000000000\n      dup2\n      jump\n    tag_30:\n      mload(0x40)\n        /* \"#utility.yul\":1572:1638   */\n      0xffffffff00000000000000000000000000000000000000000000000000000000\n        /* \"#utility.yul\":1560:1639   */\n      swap1\n      swap2\n      and\n        /* \"#utility.yul\":1542:1640   */\n      dup2\n      mstore\n        /* \"#utility.yul\":1530:1532   */\n      0x20\n        /* \"#utility.yul\":1515:1533   */\n      add\n        /* \"RoyaltyFeeRegistry_flat.sol\":5526:5582  bytes4 public constant INTERFACE_ID_ERC1155 = 0xd9b67a26 */\n      tag_28\n        /* \"#utility.yul\":1398:1646   */\n      jump\n        /* \"RoyaltyFeeRegistry_flat.sol\":10433:10874  function updateRoyaltyInfoForCollectionIfOwner(... */\n    tag_6:\n      tag_20\n      tag_35\n      calldatasize\n      0x04\n      tag_22\n      jump\t// in\n    tag_35:\n      tag_36\n      jump\t// in\n        /* \"RoyaltyFeeRegistry_flat.sol\":5727:5757  uint256 public royaltyFeeLimit */\n    tag_7:\n      tag_37\n      sload(0x01)\n      dup2\n      jump\n    tag_37:\n      mload(0x40)\n        /* \"#utility.yul\":1797:1822   */\n      swap1\n      dup2\n      mstore\n        /* \"#utility.yul\":1785:1787   */\n      0x20\n        /* \"#utility.yul\":1770:1788   */\n      add\n        /* \"RoyaltyFeeRegistry_flat.sol\":5727:5757  uint256 public royaltyFeeLimit */\n      tag_28\n        /* \"#utility.yul\":1651:1828   */\n      jump\n        /* \"RoyaltyFeeRegistry_flat.sol\":3448:3549  function renounceOwnership() public virtual onlyOwner {... */\n    tag_8:\n      tag_20\n      tag_42\n      jump\t// in\n        /* \"RoyaltyFeeRegistry_flat.sol\":2818:2903  function owner() public view virtual returns (address) {... */\n    tag_9:\n        /* \"RoyaltyFeeRegistry_flat.sol\":2864:2871  address */\n      0x00\n        /* \"RoyaltyFeeRegistry_flat.sol\":2890:2896  _owner */\n      sload\n        /* \"RoyaltyFeeRegistry_flat.sol\":2818:2903  function owner() public view virtual returns (address) {... */\n      mload(0x40)\n        /* \"RoyaltyFeeRegistry_flat.sol\":2890:2896  _owner */\n      0xffffffffffffffffffffffffffffffffffffffff\n      swap1\n      swap2\n      and\n        /* \"#utility.yul\":1979:2053   */\n      dup2\n      mstore\n        /* \"#utility.yul\":1967:1969   */\n      0x20\n        /* \"#utility.yul\":1952:1970   */\n      add\n        /* \"RoyaltyFeeRegistry_flat.sol\":2818:2903  function owner() public view virtual returns (address) {... */\n      tag_28\n        /* \"#utility.yul\":1833:2059   */\n      jump\n        /* \"RoyaltyFeeRegistry_flat.sol\":9674:10165  function updateRoyaltyInfoForCollectionIfAdmin(... */\n    tag_10:\n      tag_20\n      tag_48\n      calldatasize\n      0x04\n      tag_22\n      jump\t// in\n    tag_48:\n      tag_49\n      jump\t// in\n        /* \"RoyaltyFeeRegistry_flat.sol\":5616:5672  bytes4 public constant INTERFACE_ID_ERC2981 = 0x2a55205a */\n    tag_11:\n      tag_30\n      0x2a55205a00000000000000000000000000000000000000000000000000000000\n      dup2\n      jump\n        /* \"RoyaltyFeeRegistry_flat.sol\":6347:6650  function updateRoyaltyFeeLimit(uint256 _royaltyFeeLimit) external override onlyOwner {... */\n    tag_12:\n      tag_20\n      tag_54\n      calldatasize\n      0x04\n      tag_55\n      jump\t// in\n    tag_54:\n      tag_56\n      jump\t// in\n        /* \"RoyaltyFeeRegistry_flat.sol\":5437:5492  bytes4 public constant INTERFACE_ID_ERC721 = 0x80ac58cd */\n    tag_13:\n      tag_30\n      0x80ac58cd00000000000000000000000000000000000000000000000000000000\n      dup2\n      jump\n        /* \"RoyaltyFeeRegistry_flat.sol\":8514:9310  function checkForCollectionSetter(address collection) external view returns (address, uint8) {... */\n    tag_14:\n      tag_60\n      tag_61\n      calldatasize\n      0x04\n      tag_62\n      jump\t// in\n    tag_61:\n      tag_63\n      jump\t// in\n    tag_60:\n      0x40\n      dup1\n      mload\n        /* \"#utility.yul\":2701:2743   */\n      0xffffffffffffffffffffffffffffffffffffffff\n        /* \"#utility.yul\":2689:2744   */\n      swap1\n      swap4\n      and\n        /* \"#utility.yul\":2671:2745   */\n      dup4\n      mstore\n        /* \"#utility.yul\":2793:2797   */\n      0xff\n        /* \"#utility.yul\":2781:2798   */\n      swap1\n      swap2\n      and\n        /* \"#utility.yul\":2776:2778   */\n      0x20\n        /* \"#utility.yul\":2761:2779   */\n      dup4\n      add\n        /* \"#utility.yul\":2754:2799   */\n      mstore\n        /* \"#utility.yul\":2644:2662   */\n      add\n        /* \"RoyaltyFeeRegistry_flat.sol\":8514:9310  function checkForCollectionSetter(address collection) external view returns (address, uint8) {... */\n      tag_28\n        /* \"#utility.yul\":2501:2805   */\n      jump\n        /* \"RoyaltyFeeRegistry_flat.sol\":7536:7894  function royaltyFeeInfoCollection(address collection)... */\n    tag_15:\n      tag_66\n      tag_67\n      calldatasize\n      0x04\n      tag_62\n      jump\t// in\n    tag_67:\n        /* \"RoyaltyFeeRegistry_flat.sol\":7726:7763  _royaltyFeeInfoCollection[collection] */\n      0xffffffffffffffffffffffffffffffffffffffff\n      swap1\n      dup2\n      and\n        /* \"RoyaltyFeeRegistry_flat.sol\":7647:7654  address */\n      0x00\n        /* \"RoyaltyFeeRegistry_flat.sol\":7726:7763  _royaltyFeeInfoCollection[collection] */\n      swap1\n      dup2\n      mstore\n        /* \"RoyaltyFeeRegistry_flat.sol\":7726:7751  _royaltyFeeInfoCollection */\n      0x02\n        /* \"RoyaltyFeeRegistry_flat.sol\":7726:7763  _royaltyFeeInfoCollection[collection] */\n      0x20\n      dup2\n      swap1\n      mstore\n      0x40\n      swap1\n      swap2\n      keccak256\n        /* \"RoyaltyFeeRegistry_flat.sol\":7726:7770  _royaltyFeeInfoCollection[collection].setter */\n      dup1\n      sload\n      0x01\n        /* \"RoyaltyFeeRegistry_flat.sol\":7780:7826  _royaltyFeeInfoCollection[collection].receiver */\n      dup3\n      add\n      sload\n        /* \"RoyaltyFeeRegistry_flat.sol\":7836:7877  _royaltyFeeInfoCollection[collection].fee */\n      swap2\n      swap1\n      swap3\n      add\n      sload\n        /* \"RoyaltyFeeRegistry_flat.sol\":7726:7770  _royaltyFeeInfoCollection[collection].setter */\n      swap2\n      dup4\n      and\n      swap4\n        /* \"RoyaltyFeeRegistry_flat.sol\":7780:7826  _royaltyFeeInfoCollection[collection].receiver */\n      swap3\n      and\n      swap2\n        /* \"RoyaltyFeeRegistry_flat.sol\":7536:7894  function royaltyFeeInfoCollection(address collection)... */\n      jump\n    tag_66:\n      0x40\n      dup1\n      mload\n        /* \"#utility.yul\":3022:3064   */\n      0xffffffffffffffffffffffffffffffffffffffff\n        /* \"#utility.yul\":3091:3106   */\n      swap5\n      dup6\n      and\n        /* \"#utility.yul\":3073:3107   */\n      dup2\n      mstore\n        /* \"#utility.yul\":3143:3158   */\n      swap4\n      swap1\n      swap3\n      and\n        /* \"#utility.yul\":3138:3140   */\n      0x20\n        /* \"#utility.yul\":3123:3141   */\n      dup5\n      add\n        /* \"#utility.yul\":3116:3159   */\n      mstore\n        /* \"#utility.yul\":3175:3193   */\n      swap1\n      dup3\n      add\n        /* \"#utility.yul\":3168:3202   */\n      mstore\n        /* \"#utility.yul\":3000:3002   */\n      0x60\n        /* \"#utility.yul\":2985:3003   */\n      add\n        /* \"RoyaltyFeeRegistry_flat.sol\":7536:7894  function royaltyFeeInfoCollection(address collection)... */\n      tag_28\n        /* \"#utility.yul\":2810:3208   */\n      jump\n        /* \"RoyaltyFeeRegistry_flat.sol\":3698:3896  function transferOwnership(address newOwner) public virtual onlyOwner {... */\n    tag_16:\n      tag_20\n      tag_72\n      calldatasize\n      0x04\n      tag_62\n      jump\t// in\n    tag_72:\n      tag_73\n      jump\t// in\n        /* \"RoyaltyFeeRegistry_flat.sol\":7900:8295  function updateRoyaltyInfoForCollectionIfSetter(... */\n    tag_23:\n        /* \"RoyaltyFeeRegistry_flat.sol\":8096:8133  _royaltyFeeInfoCollection[collection] */\n      0xffffffffffffffffffffffffffffffffffffffff\n      dup1\n      dup6\n      and\n        /* \"RoyaltyFeeRegistry_flat.sol\":8072:8093  address currentSetter */\n      0x00\n        /* \"RoyaltyFeeRegistry_flat.sol\":8096:8133  _royaltyFeeInfoCollection[collection] */\n      swap1\n      dup2\n      mstore\n        /* \"RoyaltyFeeRegistry_flat.sol\":8096:8121  _royaltyFeeInfoCollection */\n      0x02\n        /* \"RoyaltyFeeRegistry_flat.sol\":8096:8133  _royaltyFeeInfoCollection[collection] */\n      0x20\n      mstore\n      0x40\n      swap1\n      keccak256\n        /* \"RoyaltyFeeRegistry_flat.sol\":8096:8140  _royaltyFeeInfoCollection[collection].setter */\n      sload\n      and\n        /* \"RoyaltyFeeRegistry_flat.sol\":8158:8168  msg.sender */\n      caller\n        /* \"RoyaltyFeeRegistry_flat.sol\":8158:8185  msg.sender == currentSetter */\n      dup2\n      eq\n        /* \"RoyaltyFeeRegistry_flat.sol\":8150:8212  require(msg.sender == currentSetter, \"Setter: Not the setter\") */\n      tag_75\n      jumpi\n      mload(0x40)\n      0x08c379a000000000000000000000000000000000000000000000000000000000\n      dup2\n      mstore\n        /* \"#utility.yul\":3415:3417   */\n      0x20\n        /* \"RoyaltyFeeRegistry_flat.sol\":8150:8212  require(msg.sender == currentSetter, \"Setter: Not the setter\") */\n      0x04\n      dup3\n      add\n        /* \"#utility.yul\":3397:3418   */\n      mstore\n        /* \"#utility.yul\":3454:3456   */\n      0x16\n        /* \"#utility.yul\":3434:3452   */\n      0x24\n      dup3\n      add\n        /* \"#utility.yul\":3427:3457   */\n      mstore\n        /* \"#utility.yul\":3493:3517   */\n      0x5365747465723a204e6f74207468652073657474657200000000000000000000\n        /* \"#utility.yul\":3473:3491   */\n      0x44\n      dup3\n      add\n        /* \"#utility.yul\":3466:3518   */\n      mstore\n        /* \"#utility.yul\":3535:3553   */\n      0x64\n      add\n        /* \"RoyaltyFeeRegistry_flat.sol\":8150:8212  require(msg.sender == currentSetter, \"Setter: Not the setter\") */\n    tag_76:\n      mload(0x40)\n      dup1\n      swap2\n      sub\n      swap1\n      revert\n    tag_75:\n        /* \"RoyaltyFeeRegistry_flat.sol\":8223:8288  updateRoyaltyInfoForCollection(collection, setter, receiver, fee) */\n      tag_78\n        /* \"RoyaltyFeeRegistry_flat.sol\":8254:8264  collection */\n      dup6\n        /* \"RoyaltyFeeRegistry_flat.sol\":8266:8272  setter */\n      dup6\n        /* \"RoyaltyFeeRegistry_flat.sol\":8274:8282  receiver */\n      dup6\n        /* \"RoyaltyFeeRegistry_flat.sol\":8284:8287  fee */\n      dup6\n        /* \"RoyaltyFeeRegistry_flat.sol\":8223:8253  updateRoyaltyInfoForCollection */\n      tag_79\n        /* \"RoyaltyFeeRegistry_flat.sol\":8223:8288  updateRoyaltyInfoForCollection(collection, setter, receiver, fee) */\n      jump\t// in\n    tag_78:\n        /* \"RoyaltyFeeRegistry_flat.sol\":8062:8295  {... */\n      pop\n        /* \"RoyaltyFeeRegistry_flat.sol\":7900:8295  function updateRoyaltyInfoForCollectionIfSetter(... */\n      pop\n      pop\n      pop\n      pop\n      jump\t// out\n        /* \"RoyaltyFeeRegistry_flat.sol\":7227:7494  function royaltyInfo(address collection, uint256 amount) external view override returns (address, uint256) {... */\n    tag_27:\n        /* \"RoyaltyFeeRegistry_flat.sol\":7361:7398  _royaltyFeeInfoCollection[collection] */\n      0xffffffffffffffffffffffffffffffffffffffff\n      dup1\n      dup4\n      and\n        /* \"RoyaltyFeeRegistry_flat.sol\":7316:7323  address */\n      0x00\n        /* \"RoyaltyFeeRegistry_flat.sol\":7361:7398  _royaltyFeeInfoCollection[collection] */\n      swap1\n      dup2\n      mstore\n        /* \"RoyaltyFeeRegistry_flat.sol\":7361:7386  _royaltyFeeInfoCollection */\n      0x02\n        /* \"RoyaltyFeeRegistry_flat.sol\":7361:7398  _royaltyFeeInfoCollection[collection] */\n      0x20\n      dup2\n      swap1\n      mstore\n      0x40\n      dup3\n      keccak256\n        /* \"RoyaltyFeeRegistry_flat.sol\":7361:7407  _royaltyFeeInfoCollection[collection].receiver */\n      0x01\n      dup2\n      add\n      sload\n        /* \"RoyaltyFeeRegistry_flat.sol\":7427:7468  _royaltyFeeInfoCollection[collection].fee */\n      swap2\n      add\n      sload\n        /* \"RoyaltyFeeRegistry_flat.sol\":7316:7323  address */\n      swap2\n      swap3\n      dup4\n      swap3\n        /* \"RoyaltyFeeRegistry_flat.sol\":7361:7407  _royaltyFeeInfoCollection[collection].receiver */\n      swap2\n      and\n      swap1\n        /* \"RoyaltyFeeRegistry_flat.sol\":7472:7477  10000 */\n      0x2710\n      swap1\n        /* \"RoyaltyFeeRegistry_flat.sol\":7418:7468  amount * _royaltyFeeInfoCollection[collection].fee */\n      tag_81\n      swap1\n        /* \"RoyaltyFeeRegistry_flat.sol\":7418:7424  amount */\n      dup7\n        /* \"RoyaltyFeeRegistry_flat.sol\":7418:7468  amount * _royaltyFeeInfoCollection[collection].fee */\n      tag_82\n      jump\t// in\n    tag_81:\n        /* \"RoyaltyFeeRegistry_flat.sol\":7417:7477  (amount * _royaltyFeeInfoCollection[collection].fee) / 10000 */\n      tag_83\n      swap2\n      swap1\n      tag_84\n      jump\t// in\n    tag_83:\n        /* \"RoyaltyFeeRegistry_flat.sol\":7344:7487  return (... */\n      swap2\n      pop\n      swap2\n      pop\n        /* \"RoyaltyFeeRegistry_flat.sol\":7227:7494  function royaltyInfo(address collection, uint256 amount) external view override returns (address, uint256) {... */\n      swap3\n      pop\n      swap3\n      swap1\n      pop\n      jump\t// out\n        /* \"RoyaltyFeeRegistry_flat.sol\":10433:10874  function updateRoyaltyInfoForCollectionIfOwner(... */\n    tag_36:\n        /* \"RoyaltyFeeRegistry_flat.sol\":10613:10672  IERC165(collection).supportsInterface(INTERFACE_ID_ERC2981) */\n      mload(0x40)\n      0x01ffc9a700000000000000000000000000000000000000000000000000000000\n      dup2\n      mstore\n        /* \"RoyaltyFeeRegistry_flat.sol\":10651:10671  INTERFACE_ID_ERC2981 */\n      0x2a55205a00000000000000000000000000000000000000000000000000000000\n        /* \"RoyaltyFeeRegistry_flat.sol\":10613:10672  IERC165(collection).supportsInterface(INTERFACE_ID_ERC2981) */\n      0x04\n      dup3\n      add\n        /* \"#utility.yul\":1542:1640   */\n      mstore\n        /* \"RoyaltyFeeRegistry_flat.sol\":10613:10650  IERC165(collection).supportsInterface */\n      0xffffffffffffffffffffffffffffffffffffffff\n      dup6\n      and\n      swap1\n      0x01ffc9a7\n      swap1\n        /* \"#utility.yul\":1515:1533   */\n      0x24\n      add\n        /* \"RoyaltyFeeRegistry_flat.sol\":10613:10672  IERC165(collection).supportsInterface(INTERFACE_ID_ERC2981) */\n      0x20\n      mload(0x40)\n      dup1\n      dup4\n      sub\n      dup2\n      dup7\n      gas\n      staticcall\n      iszero\n      dup1\n      iszero\n      tag_88\n      jumpi\n      returndatasize\n      0x00\n      dup1\n      returndatacopy\n      revert(0x00, returndatasize)\n    tag_88:\n      pop\n      pop\n      pop\n      pop\n      mload(0x40)\n      returndatasize\n      not(0x1f)\n      0x1f\n      dup3\n      add\n      and\n      dup3\n      add\n      dup1\n      0x40\n      mstore\n      pop\n      dup2\n      add\n      swap1\n      tag_89\n      swap2\n      swap1\n      tag_90\n      jump\t// in\n    tag_89:\n        /* \"RoyaltyFeeRegistry_flat.sol\":10612:10672  !IERC165(collection).supportsInterface(INTERFACE_ID_ERC2981) */\n      iszero\n        /* \"RoyaltyFeeRegistry_flat.sol\":10604:10697  require(!IERC165(collection).supportsInterface(INTERFACE_ID_ERC2981), \" Must not be ERC2981\") */\n      tag_91\n      jumpi\n      mload(0x40)\n      0x08c379a000000000000000000000000000000000000000000000000000000000\n      dup2\n      mstore\n        /* \"#utility.yul\":4654:4656   */\n      0x20\n        /* \"RoyaltyFeeRegistry_flat.sol\":10604:10697  require(!IERC165(collection).supportsInterface(INTERFACE_ID_ERC2981), \" Must not be ERC2981\") */\n      0x04\n      dup3\n      add\n        /* \"#utility.yul\":4636:4657   */\n      mstore\n        /* \"#utility.yul\":4693:4695   */\n      0x14\n        /* \"#utility.yul\":4673:4691   */\n      0x24\n      dup3\n      add\n        /* \"#utility.yul\":4666:4696   */\n      mstore\n        /* \"#utility.yul\":4732:4754   */\n      0x204d757374206e6f742062652045524332393831000000000000000000000000\n        /* \"#utility.yul\":4712:4730   */\n      0x44\n      dup3\n      add\n        /* \"#utility.yul\":4705:4755   */\n      mstore\n        /* \"#utility.yul\":4772:4790   */\n      0x64\n      add\n        /* \"RoyaltyFeeRegistry_flat.sol\":10604:10697  require(!IERC165(collection).supportsInterface(INTERFACE_ID_ERC2981), \" Must not be ERC2981\") */\n      tag_76\n        /* \"#utility.yul\":4452:4796   */\n      jump\n        /* \"RoyaltyFeeRegistry_flat.sol\":10604:10697  require(!IERC165(collection).supportsInterface(INTERFACE_ID_ERC2981), \" Must not be ERC2981\") */\n    tag_91:\n        /* \"RoyaltyFeeRegistry_flat.sol\":10738:10748  collection */\n      dup4\n        /* \"RoyaltyFeeRegistry_flat.sol\":10729:10755  IOwnable(collection).owner */\n      0xffffffffffffffffffffffffffffffffffffffff\n      and\n      0x8da5cb5b\n        /* \"RoyaltyFeeRegistry_flat.sol\":10729:10757  IOwnable(collection).owner() */\n      mload(0x40)\n      dup2\n      0xffffffff\n      and\n      0xe0\n      shl\n      dup2\n      mstore\n      0x04\n      add\n      0x20\n      mload(0x40)\n      dup1\n      dup4\n      sub\n      dup2\n      dup7\n      gas\n      staticcall\n      iszero\n      dup1\n      iszero\n      tag_95\n      jumpi\n      returndatasize\n      0x00\n      dup1\n      returndatacopy\n      revert(0x00, returndatasize)\n    tag_95:\n      pop\n      pop\n      pop\n      pop\n      mload(0x40)\n      returndatasize\n      not(0x1f)\n      0x1f\n      dup3\n      add\n      and\n      dup3\n      add\n      dup1\n      0x40\n      mstore\n      pop\n      dup2\n      add\n      swap1\n      tag_96\n      swap2\n      swap1\n      tag_97\n      jump\t// in\n    tag_96:\n        /* \"RoyaltyFeeRegistry_flat.sol\":10715:10757  msg.sender == IOwnable(collection).owner() */\n      0xffffffffffffffffffffffffffffffffffffffff\n      and\n        /* \"RoyaltyFeeRegistry_flat.sol\":10715:10725  msg.sender */\n      caller\n        /* \"RoyaltyFeeRegistry_flat.sol\":10715:10757  msg.sender == IOwnable(collection).owner() */\n      0xffffffffffffffffffffffffffffffffffffffff\n      and\n      eq\n        /* \"RoyaltyFeeRegistry_flat.sol\":10707:10776  require(msg.sender == IOwnable(collection).owner(), \" Not the owner\") */\n      tag_98\n      jumpi\n      mload(0x40)\n      0x08c379a000000000000000000000000000000000000000000000000000000000\n      dup2\n      mstore\n        /* \"#utility.yul\":5259:5261   */\n      0x20\n        /* \"RoyaltyFeeRegistry_flat.sol\":10707:10776  require(msg.sender == IOwnable(collection).owner(), \" Not the owner\") */\n      0x04\n      dup3\n      add\n        /* \"#utility.yul\":5241:5262   */\n      mstore\n        /* \"#utility.yul\":5298:5300   */\n      0x0e\n        /* \"#utility.yul\":5278:5296   */\n      0x24\n      dup3\n      add\n        /* \"#utility.yul\":5271:5301   */\n      mstore\n        /* \"#utility.yul\":5337:5353   */\n      0x204e6f7420746865206f776e6572000000000000000000000000000000000000\n        /* \"#utility.yul\":5317:5335   */\n      0x44\n      dup3\n      add\n        /* \"#utility.yul\":5310:5354   */\n      mstore\n        /* \"#utility.yul\":5371:5389   */\n      0x64\n      add\n        /* \"RoyaltyFeeRegistry_flat.sol\":10707:10776  require(msg.sender == IOwnable(collection).owner(), \" Not the owner\") */\n      tag_76\n        /* \"#utility.yul\":5057:5395   */\n      jump\n        /* \"RoyaltyFeeRegistry_flat.sol\":10707:10776  require(msg.sender == IOwnable(collection).owner(), \" Not the owner\") */\n    tag_98:\n        /* \"RoyaltyFeeRegistry_flat.sol\":10787:10867  _updateRoyaltyInfoForCollectionIfOwnerOrAdmin(collection, setter, receiver, fee) */\n      tag_101\n        /* \"RoyaltyFeeRegistry_flat.sol\":10833:10843  collection */\n      dup5\n        /* \"RoyaltyFeeRegistry_flat.sol\":10845:10851  setter */\n      dup5\n        /* \"RoyaltyFeeRegistry_flat.sol\":10853:10861  receiver */\n      dup5\n        /* \"RoyaltyFeeRegistry_flat.sol\":10863:10866  fee */\n      dup5\n        /* \"RoyaltyFeeRegistry_flat.sol\":10787:10832  _updateRoyaltyInfoForCollectionIfOwnerOrAdmin */\n      tag_102\n        /* \"RoyaltyFeeRegistry_flat.sol\":10787:10867  _updateRoyaltyInfoForCollectionIfOwnerOrAdmin(collection, setter, receiver, fee) */\n      jump\t// in\n    tag_101:\n        /* \"RoyaltyFeeRegistry_flat.sol\":10433:10874  function updateRoyaltyInfoForCollectionIfOwner(... */\n      pop\n      pop\n      pop\n      pop\n      jump\t// out\n        /* \"RoyaltyFeeRegistry_flat.sol\":3448:3549  function renounceOwnership() public virtual onlyOwner {... */\n    tag_42:\n        /* \"RoyaltyFeeRegistry_flat.sol\":2711:2724  _checkOwner() */\n      tag_104\n        /* \"RoyaltyFeeRegistry_flat.sol\":2711:2722  _checkOwner */\n      tag_105\n        /* \"RoyaltyFeeRegistry_flat.sol\":2711:2724  _checkOwner() */\n      jump\t// in\n    tag_104:\n        /* \"RoyaltyFeeRegistry_flat.sol\":3512:3542  _transferOwnership(address(0)) */\n      tag_107\n        /* \"RoyaltyFeeRegistry_flat.sol\":3539:3540  0 */\n      0x00\n        /* \"RoyaltyFeeRegistry_flat.sol\":3512:3530  _transferOwnership */\n      tag_108\n        /* \"RoyaltyFeeRegistry_flat.sol\":3512:3542  _transferOwnership(address(0)) */\n      jump\t// in\n    tag_107:\n        /* \"RoyaltyFeeRegistry_flat.sol\":3448:3549  function renounceOwnership() public virtual onlyOwner {... */\n      jump\t// out\n        /* \"RoyaltyFeeRegistry_flat.sol\":9674:10165  function updateRoyaltyInfoForCollectionIfAdmin(... */\n    tag_49:\n        /* \"RoyaltyFeeRegistry_flat.sol\":9904:9963  IERC165(collection).supportsInterface(INTERFACE_ID_ERC2981) */\n      mload(0x40)\n      0x01ffc9a700000000000000000000000000000000000000000000000000000000\n      dup2\n      mstore\n        /* \"RoyaltyFeeRegistry_flat.sol\":9942:9962  INTERFACE_ID_ERC2981 */\n      0x2a55205a00000000000000000000000000000000000000000000000000000000\n        /* \"RoyaltyFeeRegistry_flat.sol\":9904:9963  IERC165(collection).supportsInterface(INTERFACE_ID_ERC2981) */\n      0x04\n      dup3\n      add\n        /* \"#utility.yul\":1542:1640   */\n      mstore\n        /* \"RoyaltyFeeRegistry_flat.sol\":9904:9941  IERC165(collection).supportsInterface */\n      0xffffffffffffffffffffffffffffffffffffffff\n      dup6\n      and\n      swap1\n      0x01ffc9a7\n      swap1\n        /* \"#utility.yul\":1515:1533   */\n      0x24\n      add\n        /* \"RoyaltyFeeRegistry_flat.sol\":9904:9963  IERC165(collection).supportsInterface(INTERFACE_ID_ERC2981) */\n      0x20\n      mload(0x40)\n      dup1\n      dup4\n      sub\n      dup2\n      dup7\n      gas\n      staticcall\n      iszero\n      dup1\n      iszero\n      tag_113\n      jumpi\n      returndatasize\n      0x00\n      dup1\n      returndatacopy\n      revert(0x00, returndatasize)\n    tag_113:\n      pop\n      pop\n      pop\n      pop\n      mload(0x40)\n      returndatasize\n      not(0x1f)\n      0x1f\n      dup3\n      add\n      and\n      dup3\n      add\n      dup1\n      0x40\n      mstore\n      pop\n      dup2\n      add\n      swap1\n      tag_114\n      swap2\n      swap1\n      tag_90\n      jump\t// in\n    tag_114:\n        /* \"RoyaltyFeeRegistry_flat.sol\":9903:9963  !IERC165(collection).supportsInterface(INTERFACE_ID_ERC2981) */\n      iszero\n        /* \"RoyaltyFeeRegistry_flat.sol\":9895:9988  require(!IERC165(collection).supportsInterface(INTERFACE_ID_ERC2981), \" Must not be ERC2981\") */\n      tag_115\n      jumpi\n      mload(0x40)\n      0x08c379a000000000000000000000000000000000000000000000000000000000\n      dup2\n      mstore\n        /* \"#utility.yul\":4654:4656   */\n      0x20\n        /* \"RoyaltyFeeRegistry_flat.sol\":9895:9988  require(!IERC165(collection).supportsInterface(INTERFACE_ID_ERC2981), \" Must not be ERC2981\") */\n      0x04\n      dup3\n      add\n        /* \"#utility.yul\":4636:4657   */\n      mstore\n        /* \"#utility.yul\":4693:4695   */\n      0x14\n        /* \"#utility.yul\":4673:4691   */\n      0x24\n      dup3\n      add\n        /* \"#utility.yul\":4666:4696   */\n      mstore\n        /* \"#utility.yul\":4732:4754   */\n      0x204d757374206e6f742062652045524332393831000000000000000000000000\n        /* \"#utility.yul\":4712:4730   */\n      0x44\n      dup3\n      add\n        /* \"#utility.yul\":4705:4755   */\n      mstore\n        /* \"#utility.yul\":4772:4790   */\n      0x64\n      add\n        /* \"RoyaltyFeeRegistry_flat.sol\":9895:9988  require(!IERC165(collection).supportsInterface(INTERFACE_ID_ERC2981), \" Must not be ERC2981\") */\n      tag_76\n        /* \"#utility.yul\":4452:4796   */\n      jump\n        /* \"RoyaltyFeeRegistry_flat.sol\":9895:9988  require(!IERC165(collection).supportsInterface(INTERFACE_ID_ERC2981), \" Must not be ERC2981\") */\n    tag_115:\n        /* \"RoyaltyFeeRegistry_flat.sol\":10029:10039  collection */\n      dup4\n        /* \"RoyaltyFeeRegistry_flat.sol\":10020:10046  IOwnable(collection).admin */\n      0xffffffffffffffffffffffffffffffffffffffff\n      and\n      0xf851a440\n        /* \"RoyaltyFeeRegistry_flat.sol\":10020:10048  IOwnable(collection).admin() */\n      mload(0x40)\n      dup2\n      0xffffffff\n      and\n      0xe0\n      shl\n      dup2\n      mstore\n      0x04\n      add\n      0x20\n      mload(0x40)\n      dup1\n      dup4\n      sub\n      dup2\n      dup7\n      gas\n      staticcall\n      iszero\n      dup1\n      iszero\n      tag_118\n      jumpi\n      returndatasize\n      0x00\n      dup1\n      returndatacopy\n      revert(0x00, returndatasize)\n    tag_118:\n      pop\n      pop\n      pop\n      pop\n      mload(0x40)\n      returndatasize\n      not(0x1f)\n      0x1f\n      dup3\n      add\n      and\n      dup3\n      add\n      dup1\n      0x40\n      mstore\n      pop\n      dup2\n      add\n      swap1\n      tag_119\n      swap2\n      swap1\n      tag_97\n      jump\t// in\n    tag_119:\n        /* \"RoyaltyFeeRegistry_flat.sol\":10006:10048  msg.sender == IOwnable(collection).admin() */\n      0xffffffffffffffffffffffffffffffffffffffff\n      and\n        /* \"RoyaltyFeeRegistry_flat.sol\":10006:10016  msg.sender */\n      caller\n        /* \"RoyaltyFeeRegistry_flat.sol\":10006:10048  msg.sender == IOwnable(collection).admin() */\n      0xffffffffffffffffffffffffffffffffffffffff\n      and\n      eq\n        /* \"RoyaltyFeeRegistry_flat.sol\":9998:10067  require(msg.sender == IOwnable(collection).admin(), \" Not the admin\") */\n      tag_98\n      jumpi\n      mload(0x40)\n      0x08c379a000000000000000000000000000000000000000000000000000000000\n      dup2\n      mstore\n        /* \"#utility.yul\":5602:5604   */\n      0x20\n        /* \"RoyaltyFeeRegistry_flat.sol\":9998:10067  require(msg.sender == IOwnable(collection).admin(), \" Not the admin\") */\n      0x04\n      dup3\n      add\n        /* \"#utility.yul\":5584:5605   */\n      mstore\n        /* \"#utility.yul\":5641:5643   */\n      0x0e\n        /* \"#utility.yul\":5621:5639   */\n      0x24\n      dup3\n      add\n        /* \"#utility.yul\":5614:5644   */\n      mstore\n        /* \"#utility.yul\":5680:5696   */\n      0x204e6f74207468652061646d696e000000000000000000000000000000000000\n        /* \"#utility.yul\":5660:5678   */\n      0x44\n      dup3\n      add\n        /* \"#utility.yul\":5653:5697   */\n      mstore\n        /* \"#utility.yul\":5714:5732   */\n      0x64\n      add\n        /* \"RoyaltyFeeRegistry_flat.sol\":9998:10067  require(msg.sender == IOwnable(collection).admin(), \" Not the admin\") */\n      tag_76\n        /* \"#utility.yul\":5400:5738   */\n      jump\n        /* \"RoyaltyFeeRegistry_flat.sol\":6347:6650  function updateRoyaltyFeeLimit(uint256 _royaltyFeeLimit) external override onlyOwner {... */\n    tag_56:\n        /* \"RoyaltyFeeRegistry_flat.sol\":2711:2724  _checkOwner() */\n      tag_125\n        /* \"RoyaltyFeeRegistry_flat.sol\":2711:2722  _checkOwner */\n      tag_105\n        /* \"RoyaltyFeeRegistry_flat.sol\":2711:2724  _checkOwner() */\n      jump\t// in\n    tag_125:\n        /* \"RoyaltyFeeRegistry_flat.sol\":6512:6516  9500 */\n      0x251c\n        /* \"RoyaltyFeeRegistry_flat.sol\":6492:6508  _royaltyFeeLimit */\n      dup2\n        /* \"RoyaltyFeeRegistry_flat.sol\":6492:6516  _royaltyFeeLimit <= 9500 */\n      gt\n      iszero\n        /* \"RoyaltyFeeRegistry_flat.sol\":6484:6547  require(_royaltyFeeLimit <= 9500, \"Royalty fee limit too high\") */\n      tag_127\n      jumpi\n      mload(0x40)\n      0x08c379a000000000000000000000000000000000000000000000000000000000\n      dup2\n      mstore\n        /* \"#utility.yul\":5945:5947   */\n      0x20\n        /* \"RoyaltyFeeRegistry_flat.sol\":6484:6547  require(_royaltyFeeLimit <= 9500, \"Royalty fee limit too high\") */\n      0x04\n      dup3\n      add\n        /* \"#utility.yul\":5927:5948   */\n      mstore\n        /* \"#utility.yul\":5984:5986   */\n      0x1a\n        /* \"#utility.yul\":5964:5982   */\n      0x24\n      dup3\n      add\n        /* \"#utility.yul\":5957:5987   */\n      mstore\n        /* \"#utility.yul\":6023:6051   */\n      0x526f79616c747920666565206c696d697420746f6f2068696768000000000000\n        /* \"#utility.yul\":6003:6021   */\n      0x44\n      dup3\n      add\n        /* \"#utility.yul\":5996:6052   */\n      mstore\n        /* \"#utility.yul\":6069:6087   */\n      0x64\n      add\n        /* \"RoyaltyFeeRegistry_flat.sol\":6484:6547  require(_royaltyFeeLimit <= 9500, \"Royalty fee limit too high\") */\n      tag_76\n        /* \"#utility.yul\":5743:6093   */\n      jump\n        /* \"RoyaltyFeeRegistry_flat.sol\":6484:6547  require(_royaltyFeeLimit <= 9500, \"Royalty fee limit too high\") */\n    tag_127:\n        /* \"RoyaltyFeeRegistry_flat.sol\":6557:6572  royaltyFeeLimit */\n      0x01\n        /* \"RoyaltyFeeRegistry_flat.sol\":6557:6591  royaltyFeeLimit = _royaltyFeeLimit */\n      dup2\n      swap1\n      sstore\n        /* \"RoyaltyFeeRegistry_flat.sol\":6607:6643  NewRoyaltyFeeLimit(_royaltyFeeLimit) */\n      mload(0x40)\n        /* \"#utility.yul\":1797:1822   */\n      dup2\n      dup2\n      mstore\n        /* \"RoyaltyFeeRegistry_flat.sol\":6607:6643  NewRoyaltyFeeLimit(_royaltyFeeLimit) */\n      0x2da7166c72ef3860ef4fb2571105533c40615269a6dbc38ce0b264910df1c256\n      swap1\n        /* \"#utility.yul\":1785:1787   */\n      0x20\n        /* \"#utility.yul\":1770:1788   */\n      add\n        /* \"RoyaltyFeeRegistry_flat.sol\":6607:6643  NewRoyaltyFeeLimit(_royaltyFeeLimit) */\n      mload(0x40)\n      dup1\n      swap2\n      sub\n      swap1\n      log1\n        /* \"RoyaltyFeeRegistry_flat.sol\":6347:6650  function updateRoyaltyFeeLimit(uint256 _royaltyFeeLimit) external override onlyOwner {... */\n      pop\n      jump\t// out\n        /* \"RoyaltyFeeRegistry_flat.sol\":8514:9310  function checkForCollectionSetter(address collection) external view returns (address, uint8) {... */\n    tag_63:\n        /* \"RoyaltyFeeRegistry_flat.sol\":8641:8678  _royaltyFeeInfoCollection[collection] */\n      0xffffffffffffffffffffffffffffffffffffffff\n      dup1\n      dup3\n      and\n        /* \"RoyaltyFeeRegistry_flat.sol\":8591:8598  address */\n      0x00\n        /* \"RoyaltyFeeRegistry_flat.sol\":8641:8678  _royaltyFeeInfoCollection[collection] */\n      swap1\n      dup2\n      mstore\n        /* \"RoyaltyFeeRegistry_flat.sol\":8641:8666  _royaltyFeeInfoCollection */\n      0x02\n        /* \"RoyaltyFeeRegistry_flat.sol\":8641:8678  _royaltyFeeInfoCollection[collection] */\n      0x20\n      mstore\n      0x40\n      dup2\n      keccak256\n        /* \"RoyaltyFeeRegistry_flat.sol\":8641:8685  _royaltyFeeInfoCollection[collection].setter */\n      sload\n        /* \"RoyaltyFeeRegistry_flat.sol\":8591:8598  address */\n      swap1\n      swap2\n      dup3\n      swap2\n        /* \"RoyaltyFeeRegistry_flat.sol\":8641:8685  _royaltyFeeInfoCollection[collection].setter */\n      and\n        /* \"RoyaltyFeeRegistry_flat.sol\":8699:8726  currentSetter != address(0) */\n      dup1\n      iszero\n        /* \"RoyaltyFeeRegistry_flat.sol\":8695:8776  if (currentSetter != address(0)){... */\n      tag_132\n      jumpi\n        /* \"RoyaltyFeeRegistry_flat.sol\":8749:8762  currentSetter */\n      swap4\n        /* \"RoyaltyFeeRegistry_flat.sol\":8763:8764  0 */\n      0x00\n      swap4\n      pop\n        /* \"RoyaltyFeeRegistry_flat.sol\":8514:9310  function checkForCollectionSetter(address collection) external view returns (address, uint8) {... */\n      swap2\n      pop\n      pop\n      jump\t// out\n        /* \"RoyaltyFeeRegistry_flat.sol\":8695:8776  if (currentSetter != address(0)){... */\n    tag_132:\n        /* \"RoyaltyFeeRegistry_flat.sol\":8789:8848  IERC165(collection).supportsInterface(INTERFACE_ID_ERC2981) */\n      mload(0x40)\n      0x01ffc9a700000000000000000000000000000000000000000000000000000000\n      dup2\n      mstore\n        /* \"RoyaltyFeeRegistry_flat.sol\":8827:8847  INTERFACE_ID_ERC2981 */\n      0x2a55205a00000000000000000000000000000000000000000000000000000000\n        /* \"RoyaltyFeeRegistry_flat.sol\":8789:8848  IERC165(collection).supportsInterface(INTERFACE_ID_ERC2981) */\n      0x04\n      dup3\n      add\n        /* \"#utility.yul\":1542:1640   */\n      mstore\n        /* \"RoyaltyFeeRegistry_flat.sol\":8789:8826  IERC165(collection).supportsInterface */\n      0xffffffffffffffffffffffffffffffffffffffff\n      dup6\n      and\n      swap1\n      0x01ffc9a7\n      swap1\n        /* \"#utility.yul\":1515:1533   */\n      0x24\n      add\n        /* \"RoyaltyFeeRegistry_flat.sol\":8789:8848  IERC165(collection).supportsInterface(INTERFACE_ID_ERC2981) */\n      0x20\n      mload(0x40)\n      dup1\n      dup4\n      sub\n      dup2\n      dup7\n      gas\n      staticcall\n      swap3\n      pop\n      pop\n      pop\n      dup1\n      iszero\n      tag_134\n      jumpi\n      pop\n      0x40\n      dup1\n      mload\n      0x1f\n      returndatasize\n      swap1\n      dup2\n      add\n      0xffffffffffffffffffffffffffffffffffffffffffffffffffffffffffffffe0\n      and\n      dup3\n      add\n      swap1\n      swap3\n      mstore\n      tag_135\n      swap2\n      dup2\n      add\n      swap1\n      tag_90\n      jump\t// in\n    tag_135:\n      0x01\n    tag_134:\n        /* \"RoyaltyFeeRegistry_flat.sol\":8785:8991  try IERC165(collection).supportsInterface(INTERFACE_ID_ERC2981) returns (bool interfaceSupport) {... */\n      iszero\n      tag_140\n      jumpi\n        /* \"RoyaltyFeeRegistry_flat.sol\":8899:8915  interfaceSupport */\n      dup1\n        /* \"RoyaltyFeeRegistry_flat.sol\":8895:8972  if (interfaceSupport) {... */\n      iszero\n      tag_141\n      jumpi\n      pop\n        /* \"RoyaltyFeeRegistry_flat.sol\":8951:8952  0 */\n      0x00\n      swap5\n        /* \"RoyaltyFeeRegistry_flat.sol\":8955:8956  1 */\n      0x01\n      swap5\n      pop\n        /* \"RoyaltyFeeRegistry_flat.sol\":8514:9310  function checkForCollectionSetter(address collection) external view returns (address, uint8) {... */\n      swap3\n      pop\n      pop\n      pop\n      jump\t// out\n        /* \"RoyaltyFeeRegistry_flat.sol\":8895:8972  if (interfaceSupport) {... */\n    tag_141:\n        /* \"RoyaltyFeeRegistry_flat.sol\":8849:8982  returns (bool interfaceSupport) {... */\n      pop\n        /* \"RoyaltyFeeRegistry_flat.sol\":8785:8991  try IERC165(collection).supportsInterface(INTERFACE_ID_ERC2981) returns (bool interfaceSupport) {... */\n    tag_140:\n        /* \"RoyaltyFeeRegistry_flat.sol\":9014:9024  collection */\n      dup4\n        /* \"RoyaltyFeeRegistry_flat.sol\":9005:9031  IOwnable(collection).owner */\n      0xffffffffffffffffffffffffffffffffffffffff\n      and\n      0x8da5cb5b\n        /* \"RoyaltyFeeRegistry_flat.sol\":9005:9033  IOwnable(collection).owner() */\n      mload(0x40)\n      dup2\n      0xffffffff\n      and\n      0xe0\n      shl\n      dup2\n      mstore\n      0x04\n      add\n      0x20\n      mload(0x40)\n      dup1\n      dup4\n      sub\n      dup2\n      dup7\n      gas\n      staticcall\n      swap3\n      pop\n      pop\n      pop\n      dup1\n      iszero\n      tag_142\n      jumpi\n      pop\n      0x40\n      dup1\n      mload\n      0x1f\n      returndatasize\n      swap1\n      dup2\n      add\n      0xffffffffffffffffffffffffffffffffffffffffffffffffffffffffffffffe0\n      and\n      dup3\n      add\n      swap1\n      swap3\n      mstore\n      tag_143\n      swap2\n      dup2\n      add\n      swap1\n      tag_97\n      jump\t// in\n    tag_143:\n      0x01\n    tag_142:\n        /* \"RoyaltyFeeRegistry_flat.sol\":9001:9304  try IOwnable(collection).owner() returns (address setter) {... */\n      tag_144\n      jumpi\n        /* \"RoyaltyFeeRegistry_flat.sol\":9136:9146  collection */\n      dup4\n        /* \"RoyaltyFeeRegistry_flat.sol\":9127:9153  IOwnable(collection).admin */\n      0xffffffffffffffffffffffffffffffffffffffff\n      and\n      0xf851a440\n        /* \"RoyaltyFeeRegistry_flat.sol\":9127:9155  IOwnable(collection).admin() */\n      mload(0x40)\n      dup2\n      0xffffffff\n      and\n      0xe0\n      shl\n      dup2\n      mstore\n      0x04\n      add\n      0x20\n      mload(0x40)\n      dup1\n      dup4\n      sub\n      dup2\n      dup7\n      gas\n      staticcall\n      swap3\n      pop\n      pop\n      pop\n      dup1\n      iszero\n      tag_148\n      jumpi\n      pop\n      0x40\n      dup1\n      mload\n      0x1f\n      returndatasize\n      swap1\n      dup2\n      add\n      0xffffffffffffffffffffffffffffffffffffffffffffffffffffffffffffffe0\n      and\n      dup3\n      add\n      swap1\n      swap3\n      mstore\n      tag_149\n      swap2\n      dup2\n      add\n      swap1\n      tag_97\n      jump\t// in\n    tag_149:\n      0x01\n    tag_148:\n        /* \"RoyaltyFeeRegistry_flat.sol\":9123:9294  try IOwnable(collection).admin() returns (address setter) {... */\n      tag_150\n      jumpi\n      pop\n        /* \"RoyaltyFeeRegistry_flat.sol\":9273:9274  0 */\n      0x00\n      swap4\n        /* \"RoyaltyFeeRegistry_flat.sol\":9277:9278  4 */\n      0x04\n      swap4\n      pop\n        /* \"RoyaltyFeeRegistry_flat.sol\":8514:9310  function checkForCollectionSetter(address collection) external view returns (address, uint8) {... */\n      swap2\n      pop\n      pop\n      jump\t// out\n        /* \"RoyaltyFeeRegistry_flat.sol\":9123:9294  try IOwnable(collection).admin() returns (address setter) {... */\n    tag_150:\n        /* \"RoyaltyFeeRegistry_flat.sol\":9207:9213  setter */\n      swap5\n        /* \"RoyaltyFeeRegistry_flat.sol\":9215:9216  3 */\n      0x03\n      swap5\n      pop\n        /* \"RoyaltyFeeRegistry_flat.sol\":8514:9310  function checkForCollectionSetter(address collection) external view returns (address, uint8) {... */\n      swap3\n      pop\n      pop\n      pop\n      jump\t// out\n        /* \"RoyaltyFeeRegistry_flat.sol\":9001:9304  try IOwnable(collection).owner() returns (address setter) {... */\n    tag_144:\n        /* \"RoyaltyFeeRegistry_flat.sol\":9081:9087  setter */\n      swap5\n        /* \"RoyaltyFeeRegistry_flat.sol\":9089:9090  2 */\n      0x02\n      swap5\n      pop\n        /* \"RoyaltyFeeRegistry_flat.sol\":8514:9310  function checkForCollectionSetter(address collection) external view returns (address, uint8) {... */\n      swap3\n      pop\n      pop\n      pop\n      jump\t// out\n        /* \"RoyaltyFeeRegistry_flat.sol\":3698:3896  function transferOwnership(address newOwner) public virtual onlyOwner {... */\n    tag_73:\n        /* \"RoyaltyFeeRegistry_flat.sol\":2711:2724  _checkOwner() */\n      tag_158\n        /* \"RoyaltyFeeRegistry_flat.sol\":2711:2722  _checkOwner */\n      tag_105\n        /* \"RoyaltyFeeRegistry_flat.sol\":2711:2724  _checkOwner() */\n      jump\t// in\n    tag_158:\n        /* \"RoyaltyFeeRegistry_flat.sol\":3786:3808  newOwner != address(0) */\n      0xffffffffffffffffffffffffffffffffffffffff\n      dup2\n      and\n        /* \"RoyaltyFeeRegistry_flat.sol\":3778:3851  require(newOwner != address(0), \"Ownable: new owner is the zero address\") */\n      tag_160\n      jumpi\n      mload(0x40)\n      0x08c379a000000000000000000000000000000000000000000000000000000000\n      dup2\n      mstore\n        /* \"#utility.yul\":6300:6302   */\n      0x20\n        /* \"RoyaltyFeeRegistry_flat.sol\":3778:3851  require(newOwner != address(0), \"Ownable: new owner is the zero address\") */\n      0x04\n      dup3\n      add\n        /* \"#utility.yul\":6282:6303   */\n      mstore\n        /* \"#utility.yul\":6339:6341   */\n      0x26\n        /* \"#utility.yul\":6319:6337   */\n      0x24\n      dup3\n      add\n        /* \"#utility.yul\":6312:6342   */\n      mstore\n        /* \"#utility.yul\":6378:6412   */\n      0x4f776e61626c653a206e6577206f776e657220697320746865207a65726f2061\n        /* \"#utility.yul\":6358:6376   */\n      0x44\n      dup3\n      add\n        /* \"#utility.yul\":6351:6413   */\n      mstore\n        /* \"#utility.yul\":6449:6457   */\n      0x6464726573730000000000000000000000000000000000000000000000000000\n        /* \"#utility.yul\":6429:6447   */\n      0x64\n      dup3\n      add\n        /* \"#utility.yul\":6422:6458   */\n      mstore\n        /* \"#utility.yul\":6475:6494   */\n      0x84\n      add\n        /* \"RoyaltyFeeRegistry_flat.sol\":3778:3851  require(newOwner != address(0), \"Ownable: new owner is the zero address\") */\n      tag_76\n        /* \"#utility.yul\":6098:6500   */\n      jump\n        /* \"RoyaltyFeeRegistry_flat.sol\":3778:3851  require(newOwner != address(0), \"Ownable: new owner is the zero address\") */\n    tag_160:\n        /* \"RoyaltyFeeRegistry_flat.sol\":3861:3889  _transferOwnership(newOwner) */\n      tag_163\n        /* \"RoyaltyFeeRegistry_flat.sol\":3880:3888  newOwner */\n      dup2\n        /* \"RoyaltyFeeRegistry_flat.sol\":3861:3879  _transferOwnership */\n      tag_108\n        /* \"RoyaltyFeeRegistry_flat.sol\":3861:3889  _transferOwnership(newOwner) */\n      jump\t// in\n    tag_163:\n        /* \"RoyaltyFeeRegistry_flat.sol\":3698:3896  function transferOwnership(address newOwner) public virtual onlyOwner {... */\n      pop\n      jump\t// out\n        /* \"RoyaltyFeeRegistry_flat.sol\":6656:7064  function updateRoyaltyInfoForCollection(... */\n    tag_79:\n        /* \"RoyaltyFeeRegistry_flat.sol\":6834:6849  royaltyFeeLimit */\n      sload(0x01)\n        /* \"RoyaltyFeeRegistry_flat.sol\":6827:6830  fee */\n      dup2\n        /* \"RoyaltyFeeRegistry_flat.sol\":6827:6849  fee <= royaltyFeeLimit */\n      gt\n      iszero\n        /* \"RoyaltyFeeRegistry_flat.sol\":6819:6884  require(fee <= royaltyFeeLimit, \"Registry: Royalty fee too high\") */\n      tag_165\n      jumpi\n      mload(0x40)\n      0x08c379a000000000000000000000000000000000000000000000000000000000\n      dup2\n      mstore\n        /* \"#utility.yul\":6707:6709   */\n      0x20\n        /* \"RoyaltyFeeRegistry_flat.sol\":6819:6884  require(fee <= royaltyFeeLimit, \"Registry: Royalty fee too high\") */\n      0x04\n      dup3\n      add\n        /* \"#utility.yul\":6689:6710   */\n      mstore\n        /* \"#utility.yul\":6746:6748   */\n      0x1e\n        /* \"#utility.yul\":6726:6744   */\n      0x24\n      dup3\n      add\n        /* \"#utility.yul\":6719:6749   */\n      mstore\n        /* \"#utility.yul\":6785:6817   */\n      0x52656769737472793a20526f79616c74792066656520746f6f20686967680000\n        /* \"#utility.yul\":6765:6783   */\n      0x44\n      dup3\n      add\n        /* \"#utility.yul\":6758:6818   */\n      mstore\n        /* \"#utility.yul\":6835:6853   */\n      0x64\n      add\n        /* \"RoyaltyFeeRegistry_flat.sol\":6819:6884  require(fee <= royaltyFeeLimit, \"Registry: Royalty fee too high\") */\n      tag_76\n        /* \"#utility.yul\":6505:6859   */\n      jump\n        /* \"RoyaltyFeeRegistry_flat.sol\":6819:6884  require(fee <= royaltyFeeLimit, \"Registry: Royalty fee too high\") */\n    tag_165:\n        /* \"RoyaltyFeeRegistry_flat.sol\":6935:6990  FeeInfo({setter: setter, receiver: receiver, fee: fee}) */\n      0x40\n      dup1\n      mload\n      0x60\n      dup2\n      add\n      dup3\n      mstore\n      0xffffffffffffffffffffffffffffffffffffffff\n      dup6\n      dup2\n      and\n      dup1\n      dup4\n      mstore\n      dup6\n      dup3\n      and\n      0x20\n      dup1\n      dup6\n      add\n      dup3\n      dup2\n      mstore\n      dup6\n      dup8\n      add\n      dup9\n      dup2\n      mstore\n        /* \"RoyaltyFeeRegistry_flat.sol\":6895:6932  _royaltyFeeInfoCollection[collection] */\n      dup12\n      dup7\n      and\n      0x00\n      dup2\n      dup2\n      mstore\n        /* \"RoyaltyFeeRegistry_flat.sol\":6895:6920  _royaltyFeeInfoCollection */\n      0x02\n        /* \"RoyaltyFeeRegistry_flat.sol\":6895:6932  _royaltyFeeInfoCollection[collection] */\n      dup1\n      dup7\n      mstore\n      swap1\n      dup11\n      swap1\n      keccak256\n        /* \"RoyaltyFeeRegistry_flat.sol\":6895:6990  _royaltyFeeInfoCollection[collection] = FeeInfo({setter: setter, receiver: receiver, fee: fee}) */\n      swap9\n      mload\n      dup10\n      sload\n      swap1\n      dup10\n      and\n      0xffffffffffffffffffffffff0000000000000000000000000000000000000000\n      swap2\n      dup3\n      and\n      or\n      dup11\n      sstore\n      swap4\n      mload\n      0x01\n      dup11\n      add\n      dup1\n      sload\n      swap2\n      swap1\n      swap10\n      and\n      swap5\n      and\n      swap4\n      swap1\n      swap4\n      or\n      swap1\n      swap7\n      sstore\n      mload\n      swap6\n      add\n      swap5\n      swap1\n      swap5\n      sstore\n        /* \"RoyaltyFeeRegistry_flat.sol\":7006:7057  RoyaltyFeeUpdate(collection, setter, receiver, fee) */\n      swap4\n      mload\n        /* \"#utility.yul\":1797:1822   */\n      dup6\n      dup2\n      mstore\n        /* \"RoyaltyFeeRegistry_flat.sol\":6935:6990  FeeInfo({setter: setter, receiver: receiver, fee: fee}) */\n      swap1\n      swap3\n        /* \"RoyaltyFeeRegistry_flat.sol\":7006:7057  RoyaltyFeeUpdate(collection, setter, receiver, fee) */\n      0xd01984afa6e37420452e575e7d99dd7e632b3ec8ea2adec998475b76ca494d64\n      swap2\n        /* \"#utility.yul\":1770:1788   */\n      add\n        /* \"RoyaltyFeeRegistry_flat.sol\":7006:7057  RoyaltyFeeUpdate(collection, setter, receiver, fee) */\n      mload(0x40)\n      dup1\n      swap2\n      sub\n      swap1\n      log4\n        /* \"RoyaltyFeeRegistry_flat.sol\":6656:7064  function updateRoyaltyInfoForCollection(... */\n      pop\n      pop\n      pop\n      pop\n      jump\t// out\n        /* \"RoyaltyFeeRegistry_flat.sol\":11126:11732  function _updateRoyaltyInfoForCollectionIfOwnerOrAdmin(... */\n    tag_102:\n        /* \"RoyaltyFeeRegistry_flat.sol\":11329:11366  _royaltyFeeInfoCollection[collection] */\n      0xffffffffffffffffffffffffffffffffffffffff\n      dup1\n      dup6\n      and\n        /* \"RoyaltyFeeRegistry_flat.sol\":11305:11326  address currentSetter */\n      0x00\n        /* \"RoyaltyFeeRegistry_flat.sol\":11329:11366  _royaltyFeeInfoCollection[collection] */\n      swap1\n      dup2\n      mstore\n        /* \"RoyaltyFeeRegistry_flat.sol\":11329:11354  _royaltyFeeInfoCollection */\n      0x02\n        /* \"RoyaltyFeeRegistry_flat.sol\":11329:11366  _royaltyFeeInfoCollection[collection] */\n      0x20\n      mstore\n      0x40\n      swap1\n      keccak256\n        /* \"RoyaltyFeeRegistry_flat.sol\":11329:11373  _royaltyFeeInfoCollection[collection].setter */\n      sload\n      and\n        /* \"RoyaltyFeeRegistry_flat.sol\":11391:11418  currentSetter == address(0) */\n      dup1\n      iszero\n        /* \"RoyaltyFeeRegistry_flat.sol\":11383:11434  require(currentSetter == address(0), \"Already set\") */\n      tag_170\n      jumpi\n      mload(0x40)\n      0x08c379a000000000000000000000000000000000000000000000000000000000\n      dup2\n      mstore\n        /* \"#utility.yul\":7066:7068   */\n      0x20\n        /* \"RoyaltyFeeRegistry_flat.sol\":11383:11434  require(currentSetter == address(0), \"Already set\") */\n      0x04\n      dup3\n      add\n        /* \"#utility.yul\":7048:7069   */\n      mstore\n        /* \"#utility.yul\":7105:7107   */\n      0x0b\n        /* \"#utility.yul\":7085:7103   */\n      0x24\n      dup3\n      add\n        /* \"#utility.yul\":7078:7108   */\n      mstore\n        /* \"#utility.yul\":7144:7157   */\n      0x416c726561647920736574000000000000000000000000000000000000000000\n        /* \"#utility.yul\":7124:7142   */\n      0x44\n      dup3\n      add\n        /* \"#utility.yul\":7117:7158   */\n      mstore\n        /* \"#utility.yul\":7175:7193   */\n      0x64\n      add\n        /* \"RoyaltyFeeRegistry_flat.sol\":11383:11434  require(currentSetter == address(0), \"Already set\") */\n      tag_76\n        /* \"#utility.yul\":6864:7199   */\n      jump\n        /* \"RoyaltyFeeRegistry_flat.sol\":11383:11434  require(currentSetter == address(0), \"Already set\") */\n    tag_170:\n        /* \"RoyaltyFeeRegistry_flat.sol\":11467:11525  IERC165(collection).supportsInterface(INTERFACE_ID_ERC721) */\n      mload(0x40)\n      0x01ffc9a700000000000000000000000000000000000000000000000000000000\n      dup2\n      mstore\n        /* \"RoyaltyFeeRegistry_flat.sol\":11505:11524  INTERFACE_ID_ERC721 */\n      0x80ac58cd00000000000000000000000000000000000000000000000000000000\n        /* \"RoyaltyFeeRegistry_flat.sol\":11467:11525  IERC165(collection).supportsInterface(INTERFACE_ID_ERC721) */\n      0x04\n      dup3\n      add\n        /* \"#utility.yul\":1542:1640   */\n      mstore\n        /* \"RoyaltyFeeRegistry_flat.sol\":11467:11504  IERC165(collection).supportsInterface */\n      0xffffffffffffffffffffffffffffffffffffffff\n      dup7\n      and\n      swap1\n      0x01ffc9a7\n      swap1\n        /* \"#utility.yul\":1515:1533   */\n      0x24\n      add\n        /* \"RoyaltyFeeRegistry_flat.sol\":11467:11525  IERC165(collection).supportsInterface(INTERFACE_ID_ERC721) */\n      0x20\n      mload(0x40)\n      dup1\n      dup4\n      sub\n      dup2\n      dup7\n      gas\n      staticcall\n      iszero\n      dup1\n      iszero\n      tag_175\n      jumpi\n      returndatasize\n      0x00\n      dup1\n      returndatacopy\n      revert(0x00, returndatasize)\n    tag_175:\n      pop\n      pop\n      pop\n      pop\n      mload(0x40)\n      returndatasize\n      not(0x1f)\n      0x1f\n      dup3\n      add\n      and\n      dup3\n      add\n      dup1\n      0x40\n      mstore\n      pop\n      dup2\n      add\n      swap1\n      tag_176\n      swap2\n      swap1\n      tag_90\n      jump\t// in\n    tag_176:\n        /* \"RoyaltyFeeRegistry_flat.sol\":11467:11596  IERC165(collection).supportsInterface(INTERFACE_ID_ERC721) ||... */\n      dup1\n      tag_181\n      jumpi\n      pop\n        /* \"RoyaltyFeeRegistry_flat.sol\":11537:11596  IERC165(collection).supportsInterface(INTERFACE_ID_ERC1155) */\n      mload(0x40)\n      0x01ffc9a700000000000000000000000000000000000000000000000000000000\n      dup2\n      mstore\n        /* \"RoyaltyFeeRegistry_flat.sol\":11575:11595  INTERFACE_ID_ERC1155 */\n      0xd9b67a2600000000000000000000000000000000000000000000000000000000\n        /* \"RoyaltyFeeRegistry_flat.sol\":11537:11596  IERC165(collection).supportsInterface(INTERFACE_ID_ERC1155) */\n      0x04\n      dup3\n      add\n        /* \"#utility.yul\":1542:1640   */\n      mstore\n        /* \"RoyaltyFeeRegistry_flat.sol\":11537:11574  IERC165(collection).supportsInterface */\n      0xffffffffffffffffffffffffffffffffffffffff\n      dup7\n      and\n      swap1\n      0x01ffc9a7\n      swap1\n        /* \"#utility.yul\":1515:1533   */\n      0x24\n      add\n        /* \"RoyaltyFeeRegistry_flat.sol\":11537:11596  IERC165(collection).supportsInterface(INTERFACE_ID_ERC1155) */\n      0x20\n      mload(0x40)\n      dup1\n      dup4\n      sub\n      dup2\n      dup7\n      gas\n      staticcall\n      iszero\n      dup1\n      iszero\n      tag_180\n      jumpi\n      returndatasize\n      0x00\n      dup1\n      returndatacopy\n      revert(0x00, returndatasize)\n    tag_180:\n      pop\n      pop\n      pop\n      pop\n      mload(0x40)\n      returndatasize\n      not(0x1f)\n      0x1f\n      dup3\n      add\n      and\n      dup3\n      add\n      dup1\n      0x40\n      mstore\n      pop\n      dup2\n      add\n      swap1\n      tag_181\n      swap2\n      swap1\n      tag_90\n      jump\t// in\n    tag_181:\n        /* \"RoyaltyFeeRegistry_flat.sol\":11445:11649  require(... */\n      tag_75\n      jumpi\n      mload(0x40)\n      0x08c379a000000000000000000000000000000000000000000000000000000000\n      dup2\n      mstore\n        /* \"#utility.yul\":7406:7408   */\n      0x20\n        /* \"RoyaltyFeeRegistry_flat.sol\":11445:11649  require(... */\n      0x04\n      dup3\n      add\n        /* \"#utility.yul\":7388:7409   */\n      mstore\n        /* \"#utility.yul\":7445:7447   */\n      0x1a\n        /* \"#utility.yul\":7425:7443   */\n      0x24\n      dup3\n      add\n        /* \"#utility.yul\":7418:7448   */\n      mstore\n        /* \"#utility.yul\":7484:7512   */\n      0x204e6f7420536574206f66204552433732312f45524331313535000000000000\n        /* \"#utility.yul\":7464:7482   */\n      0x44\n      dup3\n      add\n        /* \"#utility.yul\":7457:7513   */\n      mstore\n        /* \"#utility.yul\":7530:7548   */\n      0x64\n      add\n        /* \"RoyaltyFeeRegistry_flat.sol\":11445:11649  require(... */\n      tag_76\n        /* \"#utility.yul\":7204:7554   */\n      jump\n        /* \"RoyaltyFeeRegistry_flat.sol\":2976:3106  function _checkOwner() internal view virtual {... */\n    tag_105:\n        /* \"RoyaltyFeeRegistry_flat.sol\":2864:2871  address */\n      0x00\n        /* \"RoyaltyFeeRegistry_flat.sol\":2890:2896  _owner */\n      sload\n        /* \"RoyaltyFeeRegistry_flat.sol\":3039:3062  owner() == _msgSender() */\n      0xffffffffffffffffffffffffffffffffffffffff\n        /* \"RoyaltyFeeRegistry_flat.sol\":2890:2896  _owner */\n      and\n        /* \"RoyaltyFeeRegistry_flat.sol\":1500:1510  msg.sender */\n      caller\n        /* \"RoyaltyFeeRegistry_flat.sol\":3039:3062  owner() == _msgSender() */\n      eq\n        /* \"RoyaltyFeeRegistry_flat.sol\":3031:3099  require(owner() == _msgSender(), \"Ownable: caller is not the owner\") */\n      tag_107\n      jumpi\n      mload(0x40)\n      0x08c379a000000000000000000000000000000000000000000000000000000000\n      dup2\n      mstore\n        /* \"#utility.yul\":7761:7763   */\n      0x20\n        /* \"RoyaltyFeeRegistry_flat.sol\":3031:3099  require(owner() == _msgSender(), \"Ownable: caller is not the owner\") */\n      0x04\n      dup3\n      add\n        /* \"#utility.yul\":7743:7764   */\n      dup2\n      swap1\n      mstore\n        /* \"#utility.yul\":7780:7798   */\n      0x24\n      dup3\n      add\n        /* \"#utility.yul\":7773:7803   */\n      mstore\n        /* \"#utility.yul\":7839:7873   */\n      0x4f776e61626c653a2063616c6c6572206973206e6f7420746865206f776e6572\n        /* \"#utility.yul\":7819:7837   */\n      0x44\n      dup3\n      add\n        /* \"#utility.yul\":7812:7874   */\n      mstore\n        /* \"#utility.yul\":7891:7909   */\n      0x64\n      add\n        /* \"RoyaltyFeeRegistry_flat.sol\":3031:3099  require(owner() == _msgSender(), \"Ownable: caller is not the owner\") */\n      tag_76\n        /* \"#utility.yul\":7559:7915   */\n      jump\n        /* \"RoyaltyFeeRegistry_flat.sol\":4050:4237  function _transferOwnership(address newOwner) internal virtual {... */\n    tag_108:\n        /* \"RoyaltyFeeRegistry_flat.sol\":4123:4139  address oldOwner */\n      0x00\n        /* \"RoyaltyFeeRegistry_flat.sol\":4142:4148  _owner */\n      dup1\n      sload\n      0xffffffffffffffffffffffffffffffffffffffff\n        /* \"RoyaltyFeeRegistry_flat.sol\":4158:4175  _owner = newOwner */\n      dup4\n      dup2\n      and\n      0xffffffffffffffffffffffff0000000000000000000000000000000000000000\n      dup4\n      and\n      dup2\n      or\n      dup5\n      sstore\n        /* \"RoyaltyFeeRegistry_flat.sol\":4190:4230  OwnershipTransferred(oldOwner, newOwner) */\n      mload(0x40)\n        /* \"RoyaltyFeeRegistry_flat.sol\":4142:4148  _owner */\n      swap2\n      swap1\n      swap3\n      and\n      swap3\n      dup4\n      swap2\n        /* \"RoyaltyFeeRegistry_flat.sol\":4190:4230  OwnershipTransferred(oldOwner, newOwner) */\n      0x8be0079c531659141344cd1fd0a4f28419497f9722a3daafe3b4186f6b6457e0\n      swap2\n        /* \"RoyaltyFeeRegistry_flat.sol\":4123:4139  address oldOwner */\n      swap1\n        /* \"RoyaltyFeeRegistry_flat.sol\":4190:4230  OwnershipTransferred(oldOwner, newOwner) */\n      log3\n        /* \"RoyaltyFeeRegistry_flat.sol\":4113:4237  {... */\n      pop\n        /* \"RoyaltyFeeRegistry_flat.sol\":4050:4237  function _transferOwnership(address newOwner) internal virtual {... */\n      pop\n      jump\t// out\n        /* \"#utility.yul\":14:168   */\n    tag_195:\n        /* \"#utility.yul\":100:142   */\n      0xffffffffffffffffffffffffffffffffffffffff\n        /* \"#utility.yul\":93:98   */\n      dup2\n        /* \"#utility.yul\":89:143   */\n      and\n        /* \"#utility.yul\":82:87   */\n      dup2\n        /* \"#utility.yul\":79:144   */\n      eq\n        /* \"#utility.yul\":69:162   */\n      tag_163\n      jumpi\n        /* \"#utility.yul\":158:159   */\n      0x00\n        /* \"#utility.yul\":155:156   */\n      dup1\n        /* \"#utility.yul\":148:160   */\n      revert\n        /* \"#utility.yul\":173:771   */\n    tag_22:\n        /* \"#utility.yul\":259:265   */\n      0x00\n        /* \"#utility.yul\":267:273   */\n      dup1\n        /* \"#utility.yul\":275:281   */\n      0x00\n        /* \"#utility.yul\":283:289   */\n      dup1\n        /* \"#utility.yul\":336:339   */\n      0x80\n        /* \"#utility.yul\":324:333   */\n      dup6\n        /* \"#utility.yul\":315:322   */\n      dup8\n        /* \"#utility.yul\":311:334   */\n      sub\n        /* \"#utility.yul\":307:340   */\n      slt\n        /* \"#utility.yul\":304:357   */\n      iszero\n      tag_200\n      jumpi\n        /* \"#utility.yul\":353:354   */\n      0x00\n        /* \"#utility.yul\":350:351   */\n      dup1\n        /* \"#utility.yul\":343:355   */\n      revert\n        /* \"#utility.yul\":304:357   */\n    tag_200:\n        /* \"#utility.yul\":392:401   */\n      dup5\n        /* \"#utility.yul\":379:402   */\n      calldataload\n        /* \"#utility.yul\":411:442   */\n      tag_201\n        /* \"#utility.yul\":436:441   */\n      dup2\n        /* \"#utility.yul\":411:442   */\n      tag_195\n      jump\t// in\n    tag_201:\n        /* \"#utility.yul\":461:466   */\n      swap4\n      pop\n        /* \"#utility.yul\":518:520   */\n      0x20\n        /* \"#utility.yul\":503:521   */\n      dup6\n      add\n        /* \"#utility.yul\":490:522   */\n      calldataload\n        /* \"#utility.yul\":531:564   */\n      tag_202\n        /* \"#utility.yul\":490:522   */\n      dup2\n        /* \"#utility.yul\":531:564   */\n      tag_195\n      jump\t// in\n    tag_202:\n        /* \"#utility.yul\":583:590   */\n      swap3\n      pop\n        /* \"#utility.yul\":642:644   */\n      0x40\n        /* \"#utility.yul\":627:645   */\n      dup6\n      add\n        /* \"#utility.yul\":614:646   */\n      calldataload\n        /* \"#utility.yul\":655:688   */\n      tag_203\n        /* \"#utility.yul\":614:646   */\n      dup2\n        /* \"#utility.yul\":655:688   */\n      tag_195\n      jump\t// in\n    tag_203:\n        /* \"#utility.yul\":173:771   */\n      swap4\n      swap7\n      swap3\n      swap6\n      pop\n        /* \"#utility.yul\":707:714   */\n      swap3\n      swap4\n        /* \"#utility.yul\":761:763   */\n      0x60\n        /* \"#utility.yul\":746:764   */\n      add\n        /* \"#utility.yul\":733:765   */\n      calldataload\n      swap3\n      pop\n      pop\n        /* \"#utility.yul\":173:771   */\n      jump\t// out\n        /* \"#utility.yul\":776:1091   */\n    tag_26:\n        /* \"#utility.yul\":844:850   */\n      0x00\n        /* \"#utility.yul\":852:858   */\n      dup1\n        /* \"#utility.yul\":905:907   */\n      0x40\n        /* \"#utility.yul\":893:902   */\n      dup4\n        /* \"#utility.yul\":884:891   */\n      dup6\n        /* \"#utility.yul\":880:903   */\n      sub\n        /* \"#utility.yul\":876:908   */\n      slt\n        /* \"#utility.yul\":873:925   */\n      iszero\n      tag_205\n      jumpi\n        /* \"#utility.yul\":921:922   */\n      0x00\n        /* \"#utility.yul\":918:919   */\n      dup1\n        /* \"#utility.yul\":911:923   */\n      revert\n        /* \"#utility.yul\":873:925   */\n    tag_205:\n        /* \"#utility.yul\":960:969   */\n      dup3\n        /* \"#utility.yul\":947:970   */\n      calldataload\n        /* \"#utility.yul\":979:1010   */\n      tag_206\n        /* \"#utility.yul\":1004:1009   */\n      dup2\n        /* \"#utility.yul\":979:1010   */\n      tag_195\n      jump\t// in\n    tag_206:\n        /* \"#utility.yul\":1029:1034   */\n      swap5\n        /* \"#utility.yul\":1081:1083   */\n      0x20\n        /* \"#utility.yul\":1066:1084   */\n      swap4\n      swap1\n      swap4\n      add\n        /* \"#utility.yul\":1053:1085   */\n      calldataload\n      swap4\n      pop\n      pop\n      pop\n        /* \"#utility.yul\":776:1091   */\n      jump\t// out\n        /* \"#utility.yul\":2064:2244   */\n    tag_55:\n        /* \"#utility.yul\":2123:2129   */\n      0x00\n        /* \"#utility.yul\":2176:2178   */\n      0x20\n        /* \"#utility.yul\":2164:2173   */\n      dup3\n        /* \"#utility.yul\":2155:2162   */\n      dup5\n        /* \"#utility.yul\":2151:2174   */\n      sub\n        /* \"#utility.yul\":2147:2179   */\n      slt\n        /* \"#utility.yul\":2144:2196   */\n      iszero\n      tag_212\n      jumpi\n        /* \"#utility.yul\":2192:2193   */\n      0x00\n        /* \"#utility.yul\":2189:2190   */\n      dup1\n        /* \"#utility.yul\":2182:2194   */\n      revert\n        /* \"#utility.yul\":2144:2196   */\n    tag_212:\n      pop\n        /* \"#utility.yul\":2215:2238   */\n      calldataload\n      swap2\n        /* \"#utility.yul\":2064:2244   */\n      swap1\n      pop\n      jump\t// out\n        /* \"#utility.yul\":2249:2496   */\n    tag_62:\n        /* \"#utility.yul\":2308:2314   */\n      0x00\n        /* \"#utility.yul\":2361:2363   */\n      0x20\n        /* \"#utility.yul\":2349:2358   */\n      dup3\n        /* \"#utility.yul\":2340:2347   */\n      dup5\n        /* \"#utility.yul\":2336:2359   */\n      sub\n        /* \"#utility.yul\":2332:2364   */\n      slt\n        /* \"#utility.yul\":2329:2381   */\n      iszero\n      tag_214\n      jumpi\n        /* \"#utility.yul\":2377:2378   */\n      0x00\n        /* \"#utility.yul\":2374:2375   */\n      dup1\n        /* \"#utility.yul\":2367:2379   */\n      revert\n        /* \"#utility.yul\":2329:2381   */\n    tag_214:\n        /* \"#utility.yul\":2416:2425   */\n      dup2\n        /* \"#utility.yul\":2403:2426   */\n      calldataload\n        /* \"#utility.yul\":2435:2466   */\n      tag_215\n        /* \"#utility.yul\":2460:2465   */\n      dup2\n        /* \"#utility.yul\":2435:2466   */\n      tag_195\n      jump\t// in\n    tag_215:\n        /* \"#utility.yul\":2485:2490   */\n      swap4\n        /* \"#utility.yul\":2249:2496   */\n      swap3\n      pop\n      pop\n      pop\n      jump\t// out\n        /* \"#utility.yul\":3564:3886   */\n    tag_82:\n        /* \"#utility.yul\":3637:3646   */\n      dup1\n      dup3\n      mul\n        /* \"#utility.yul\":3668:3677   */\n      dup2\n      iszero\n        /* \"#utility.yul\":3685:3700   */\n      dup3\n      dup3\n      div\n        /* \"#utility.yul\":3679:3701   */\n      dup5\n      eq\n        /* \"#utility.yul\":3665:3702   */\n      or\n        /* \"#utility.yul\":3655:3880   */\n      tag_220\n      jumpi\n        /* \"#utility.yul\":3736:3813   */\n      0x4e487b7100000000000000000000000000000000000000000000000000000000\n        /* \"#utility.yul\":3733:3734   */\n      0x00\n        /* \"#utility.yul\":3726:3814   */\n      mstore\n        /* \"#utility.yul\":3837:3841   */\n      0x11\n        /* \"#utility.yul\":3834:3835   */\n      0x04\n        /* \"#utility.yul\":3827:3842   */\n      mstore\n        /* \"#utility.yul\":3865:3869   */\n      0x24\n        /* \"#utility.yul\":3862:3863   */\n      0x00\n        /* \"#utility.yul\":3855:3870   */\n      revert\n        /* \"#utility.yul\":3655:3880   */\n    tag_220:\n        /* \"#utility.yul\":3564:3886   */\n      swap3\n      swap2\n      pop\n      pop\n      jump\t// out\n        /* \"#utility.yul\":3891:4165   */\n    tag_84:\n        /* \"#utility.yul\":3931:3932   */\n      0x00\n        /* \"#utility.yul\":3957:3958   */\n      dup3\n        /* \"#utility.yul\":3947:4136   */\n      tag_222\n      jumpi\n        /* \"#utility.yul\":3992:4069   */\n      0x4e487b7100000000000000000000000000000000000000000000000000000000\n        /* \"#utility.yul\":3989:3990   */\n      0x00\n        /* \"#utility.yul\":3982:4070   */\n      mstore\n        /* \"#utility.yul\":4093:4097   */\n      0x12\n        /* \"#utility.yul\":4090:4091   */\n      0x04\n        /* \"#utility.yul\":4083:4098   */\n      mstore\n        /* \"#utility.yul\":4121:4125   */\n      0x24\n        /* \"#utility.yul\":4118:4119   */\n      0x00\n        /* \"#utility.yul\":4111:4126   */\n      revert\n        /* \"#utility.yul\":3947:4136   */\n    tag_222:\n      pop\n        /* \"#utility.yul\":4150:4159   */\n      div\n      swap1\n        /* \"#utility.yul\":3891:4165   */\n      jump\t// out\n        /* \"#utility.yul\":4170:4447   */\n    tag_90:\n        /* \"#utility.yul\":4237:4243   */\n      0x00\n        /* \"#utility.yul\":4290:4292   */\n      0x20\n        /* \"#utility.yul\":4278:4287   */\n      dup3\n        /* \"#utility.yul\":4269:4276   */\n      dup5\n        /* \"#utility.yul\":4265:4288   */\n      sub\n        /* \"#utility.yul\":4261:4293   */\n      slt\n        /* \"#utility.yul\":4258:4310   */\n      iszero\n      tag_224\n      jumpi\n        /* \"#utility.yul\":4306:4307   */\n      0x00\n        /* \"#utility.yul\":4303:4304   */\n      dup1\n        /* \"#utility.yul\":4296:4308   */\n      revert\n        /* \"#utility.yul\":4258:4310   */\n    tag_224:\n        /* \"#utility.yul\":4338:4347   */\n      dup2\n        /* \"#utility.yul\":4332:4348   */\n      mload\n        /* \"#utility.yul\":4391:4396   */\n      dup1\n        /* \"#utility.yul\":4384:4397   */\n      iszero\n        /* \"#utility.yul\":4377:4398   */\n      iszero\n        /* \"#utility.yul\":4370:4375   */\n      dup2\n        /* \"#utility.yul\":4367:4399   */\n      eq\n        /* \"#utility.yul\":4357:4417   */\n      tag_215\n      jumpi\n        /* \"#utility.yul\":4413:4414   */\n      0x00\n        /* \"#utility.yul\":4410:4411   */\n      dup1\n        /* \"#utility.yul\":4403:4415   */\n      revert\n        /* \"#utility.yul\":4801:5052   */\n    tag_97:\n        /* \"#utility.yul\":4871:4877   */\n      0x00\n        /* \"#utility.yul\":4924:4926   */\n      0x20\n        /* \"#utility.yul\":4912:4921   */\n      dup3\n        /* \"#utility.yul\":4903:4910   */\n      dup5\n        /* \"#utility.yul\":4899:4922   */\n      sub\n        /* \"#utility.yul\":4895:4927   */\n      slt\n        /* \"#utility.yul\":4892:4944   */\n      iszero\n      tag_228\n      jumpi\n        /* \"#utility.yul\":4940:4941   */\n      0x00\n        /* \"#utility.yul\":4937:4938   */\n      dup1\n        /* \"#utility.yul\":4930:4942   */\n      revert\n        /* \"#utility.yul\":4892:4944   */\n    tag_228:\n        /* \"#utility.yul\":4972:4981   */\n      dup2\n        /* \"#utility.yul\":4966:4982   */\n      mload\n        /* \"#utility.yul\":4991:5022   */\n      tag_215\n        /* \"#utility.yul\":5016:5021   */\n      dup2\n        /* \"#utility.yul\":4991:5022   */\n      tag_195\n      jump\t// in\n\n    auxdata: 0xa26469706673582212207bfbddedc0e58b80800d5c07f3f62f6684ce87e4de4397d11d865ae82f3da71b64736f6c63430008110033\n}\n",
				"bytecode": {
					"linkReferences": {},
					"object": "608060405234801561001057600080fd5b506040516113b13803806113b183398101604081905261002f916100e6565b61003833610096565b61251c81111561008e5760405162461bcd60e51b815260206004820152601a60248201527f526f79616c747920666565206c696d697420746f6f2068696768000000000000604482015260640160405180910390fd5b6001556100ff565b600080546001600160a01b038381166001600160a01b0319831681178455604051919092169283917f8be0079c531659141344cd1fd0a4f28419497f9722a3daafe3b4186f6b6457e09190a35050565b6000602082840312156100f857600080fd5b5051919050565b6112a38061010e6000396000f3fe608060405234801561001057600080fd5b50600436106100ea5760003560e01c8063ab0166701161008c578063bc6bc0cd11610066578063bc6bc0cd14610247578063c54e54971461026e578063e31ef91c146102af578063f2fde38b1461032e57600080fd5b8063ab016670146101fa578063b060dd861461020d578063b9223c9d1461023457600080fd5b80633755fa80116100c85780633755fa80146101a05780634fb7d3f9146101b3578063715018a6146101ca5780638da5cb5b146101d257600080fd5b8063275da5ef146100ef5780632782d6c71461010457806333bf615614610148575b600080fd5b6101026100fd3660046110f5565b610341565b005b610117610112366004611146565b6103ea565b6040805173ffffffffffffffffffffffffffffffffffffffff90931683526020830191909152015b60405180910390f35b61016f7fd9b67a260000000000000000000000000000000000000000000000000000000081565b6040517fffffffff00000000000000000000000000000000000000000000000000000000909116815260200161013f565b6101026101ae3660046110f5565b610444565b6101bc60015481565b60405190815260200161013f565b61010261066e565b60005460405173ffffffffffffffffffffffffffffffffffffffff909116815260200161013f565b6101026102083660046110f5565b610682565b61016f7f2a55205a0000000000000000000000000000000000000000000000000000000081565b610102610242366004611172565b61089a565b61016f7f80ac58cd0000000000000000000000000000000000000000000000000000000081565b61028161027c36600461118b565b610949565b6040805173ffffffffffffffffffffffffffffffffffffffff909316835260ff90911660208301520161013f565b6102fb6102bd36600461118b565b73ffffffffffffffffffffffffffffffffffffffff908116600090815260026020819052604090912080546001820154919092015491831693921691565b6040805173ffffffffffffffffffffffffffffffffffffffff94851681529390921660208401529082015260600161013f565b61010261033c36600461118b565b610b99565b73ffffffffffffffffffffffffffffffffffffffff808516600090815260026020526040902054163381146103d7576040517f08c379a000000000000000000000000000000000000000000000000000000000815260206004820152601660248201527f5365747465723a204e6f7420746865207365747465720000000000000000000060448201526064015b60405180910390fd5b6103e385858585610c50565b5050505050565b73ffffffffffffffffffffffffffffffffffffffff808316600090815260026020819052604082206001810154910154919283929116906127109061042f90866111af565b61043991906111f3565b915091509250929050565b6040517f01ffc9a70000000000000000000000000000000000000000000000000000000081527f2a55205a00000000000000000000000000000000000000000000000000000000600482015273ffffffffffffffffffffffffffffffffffffffff8516906301ffc9a790602401602060405180830381865afa1580156104ce573d6000803e3d6000fd5b505050506040513d601f19601f820116820180604052508101906104f2919061122e565b15610559576040517f08c379a000000000000000000000000000000000000000000000000000000000815260206004820152601460248201527f204d757374206e6f74206265204552433239383100000000000000000000000060448201526064016103ce565b8373ffffffffffffffffffffffffffffffffffffffff16638da5cb5b6040518163ffffffff1660e01b8152600401602060405180830381865afa1580156105a4573d6000803e3d6000fd5b505050506040513d601f19601f820116820180604052508101906105c89190611250565b73ffffffffffffffffffffffffffffffffffffffff163373ffffffffffffffffffffffffffffffffffffffff161461065c576040517f08c379a000000000000000000000000000000000000000000000000000000000815260206004820152600e60248201527f204e6f7420746865206f776e657200000000000000000000000000000000000060448201526064016103ce565b61066884848484610d85565b50505050565b610676610fdd565b610680600061105e565b565b6040517f01ffc9a70000000000000000000000000000000000000000000000000000000081527f2a55205a00000000000000000000000000000000000000000000000000000000600482015273ffffffffffffffffffffffffffffffffffffffff8516906301ffc9a790602401602060405180830381865afa15801561070c573d6000803e3d6000fd5b505050506040513d601f19601f82011682018060405250810190610730919061122e565b15610797576040517f08c379a000000000000000000000000000000000000000000000000000000000815260206004820152601460248201527f204d757374206e6f74206265204552433239383100000000000000000000000060448201526064016103ce565b8373ffffffffffffffffffffffffffffffffffffffff1663f851a4406040518163ffffffff1660e01b8152600401602060405180830381865afa1580156107e2573d6000803e3d6000fd5b505050506040513d601f19601f820116820180604052508101906108069190611250565b73ffffffffffffffffffffffffffffffffffffffff163373ffffffffffffffffffffffffffffffffffffffff161461065c576040517f08c379a000000000000000000000000000000000000000000000000000000000815260206004820152600e60248201527f204e6f74207468652061646d696e00000000000000000000000000000000000060448201526064016103ce565b6108a2610fdd565b61251c81111561090e576040517f08c379a000000000000000000000000000000000000000000000000000000000815260206004820152601a60248201527f526f79616c747920666565206c696d697420746f6f206869676800000000000060448201526064016103ce565b60018190556040518181527f2da7166c72ef3860ef4fb2571105533c40615269a6dbc38ce0b264910df1c2569060200160405180910390a150565b73ffffffffffffffffffffffffffffffffffffffff80821660009081526002602052604081205490918291168015610985579360009350915050565b6040517f01ffc9a70000000000000000000000000000000000000000000000000000000081527f2a55205a00000000000000000000000000000000000000000000000000000000600482015273ffffffffffffffffffffffffffffffffffffffff8516906301ffc9a790602401602060405180830381865afa925050508015610a49575060408051601f3d9081017fffffffffffffffffffffffffffffffffffffffffffffffffffffffffffffffe0168201909252610a469181019061122e565b60015b15610a64578015610a6257506000946001945092505050565b505b8373ffffffffffffffffffffffffffffffffffffffff16638da5cb5b6040518163ffffffff1660e01b8152600401602060405180830381865afa925050508015610ae9575060408051601f3d9081017fffffffffffffffffffffffffffffffffffffffffffffffffffffffffffffffe0168201909252610ae691810190611250565b60015b610b8e578373ffffffffffffffffffffffffffffffffffffffff1663f851a4406040518163ffffffff1660e01b8152600401602060405180830381865afa925050508015610b72575060408051601f3d9081017fffffffffffffffffffffffffffffffffffffffffffffffffffffffffffffffe0168201909252610b6f91810190611250565b60015b610b83575060009360049350915050565b946003945092505050565b946002945092505050565b610ba1610fdd565b73ffffffffffffffffffffffffffffffffffffffff8116610c44576040517f08c379a000000000000000000000000000000000000000000000000000000000815260206004820152602660248201527f4f776e61626c653a206e6577206f776e657220697320746865207a65726f206160448201527f646472657373000000000000000000000000000000000000000000000000000060648201526084016103ce565b610c4d8161105e565b50565b600154811115610cbc576040517f08c379a000000000000000000000000000000000000000000000000000000000815260206004820152601e60248201527f52656769737472793a20526f79616c74792066656520746f6f2068696768000060448201526064016103ce565b6040805160608101825273ffffffffffffffffffffffffffffffffffffffff85811680835285821660208085018281528587018881528b861660008181526002808652908a9020985189549089167fffffffffffffffffffffffff0000000000000000000000000000000000000000918216178a55935160018a0180549190991694169390931790965551950194909455935185815290927fd01984afa6e37420452e575e7d99dd7e632b3ec8ea2adec998475b76ca494d64910160405180910390a450505050565b73ffffffffffffffffffffffffffffffffffffffff808516600090815260026020526040902054168015610e15576040517f08c379a000000000000000000000000000000000000000000000000000000000815260206004820152600b60248201527f416c72656164792073657400000000000000000000000000000000000000000060448201526064016103ce565b6040517f01ffc9a70000000000000000000000000000000000000000000000000000000081527f80ac58cd00000000000000000000000000000000000000000000000000000000600482015273ffffffffffffffffffffffffffffffffffffffff8616906301ffc9a790602401602060405180830381865afa158015610e9f573d6000803e3d6000fd5b505050506040513d601f19601f82011682018060405250810190610ec3919061122e565b80610f7757506040517f01ffc9a70000000000000000000000000000000000000000000000000000000081527fd9b67a2600000000000000000000000000000000000000000000000000000000600482015273ffffffffffffffffffffffffffffffffffffffff8616906301ffc9a790602401602060405180830381865afa158015610f53573d6000803e3d6000fd5b505050506040513d601f19601f82011682018060405250810190610f77919061122e565b6103d7576040517f08c379a000000000000000000000000000000000000000000000000000000000815260206004820152601a60248201527f204e6f7420536574206f66204552433732312f4552433131353500000000000060448201526064016103ce565b60005473ffffffffffffffffffffffffffffffffffffffff163314610680576040517f08c379a000000000000000000000000000000000000000000000000000000000815260206004820181905260248201527f4f776e61626c653a2063616c6c6572206973206e6f7420746865206f776e657260448201526064016103ce565b6000805473ffffffffffffffffffffffffffffffffffffffff8381167fffffffffffffffffffffffff0000000000000000000000000000000000000000831681178455604051919092169283917f8be0079c531659141344cd1fd0a4f28419497f9722a3daafe3b4186f6b6457e09190a35050565b73ffffffffffffffffffffffffffffffffffffffff81168114610c4d57600080fd5b6000806000806080858703121561110b57600080fd5b8435611116816110d3565b93506020850135611126816110d3565b92506040850135611136816110d3565b9396929550929360600135925050565b6000806040838503121561115957600080fd5b8235611164816110d3565b946020939093013593505050565b60006020828403121561118457600080fd5b5035919050565b60006020828403121561119d57600080fd5b81356111a8816110d3565b9392505050565b80820281158282048414176111ed577f4e487b7100000000000000000000000000000000000000000000000000000000600052601160045260246000fd5b92915050565b600082611229577f4e487b7100000000000000000000000000000000000000000000000000000000600052601260045260246000fd5b500490565b60006020828403121561124057600080fd5b815180151581146111a857600080fd5b60006020828403121561126257600080fd5b81516111a8816110d356fea26469706673582212207bfbddedc0e58b80800d5c07f3f62f6684ce87e4de4397d11d865ae82f3da71b64736f6c63430008110033",
					"opcodes": "PUSH1 0x80 PUSH1 0x40 MSTORE CALLVALUE DUP1 ISZERO PUSH2 0x10 JUMPI PUSH1 0x0 DUP1 REVERT JUMPDEST POP PUSH1 0x40 MLOAD PUSH2 0x13B1 CODESIZE SUB DUP1 PUSH2 0x13B1 DUP4 CODECOPY DUP2 ADD PUSH1 0x40 DUP2 SWAP1 MSTORE PUSH2 0x2F SWAP2 PUSH2 0xE6 JUMP JUMPDEST PUSH2 0x38 CALLER PUSH2 0x96 JUMP JUMPDEST PUSH2 0x251C DUP2 GT ISZERO PUSH2 0x8E JUMPI PUSH1 0x40 MLOAD PUSH3 0x461BCD PUSH1 0xE5 SHL DUP2 MSTORE PUSH1 0x20 PUSH1 0x4 DUP3 ADD MSTORE PUSH1 0x1A PUSH1 0x24 DUP3 ADD MSTORE PUSH32 0x526F79616C747920666565206C696D697420746F6F2068696768000000000000 PUSH1 0x44 DUP3 ADD MSTORE PUSH1 0x64 ADD PUSH1 0x40 MLOAD DUP1 SWAP2 SUB SWAP1 REVERT JUMPDEST PUSH1 0x1 SSTORE PUSH2 0xFF JUMP JUMPDEST PUSH1 0x0 DUP1 SLOAD PUSH1 0x1 PUSH1 0x1 PUSH1 0xA0 SHL SUB DUP4 DUP2 AND PUSH1 0x1 PUSH1 0x1 PUSH1 0xA0 SHL SUB NOT DUP4 AND DUP2 OR DUP5 SSTORE PUSH1 0x40 MLOAD SWAP2 SWAP1 SWAP3 AND SWAP3 DUP4 SWAP2 PUSH32 0x8BE0079C531659141344CD1FD0A4F28419497F9722A3DAAFE3B4186F6B6457E0 SWAP2 SWAP1 LOG3 POP POP JUMP JUMPDEST PUSH1 0x0 PUSH1 0x20 DUP3 DUP5 SUB SLT ISZERO PUSH2 0xF8 JUMPI PUSH1 0x0 DUP1 REVERT JUMPDEST POP MLOAD SWAP2 SWAP1 POP JUMP JUMPDEST PUSH2 0x12A3 DUP1 PUSH2 0x10E PUSH1 0x0 CODECOPY PUSH1 0x0 RETURN INVALID PUSH1 0x80 PUSH1 0x40 MSTORE CALLVALUE DUP1 ISZERO PUSH2 0x10 JUMPI PUSH1 0x0 DUP1 REVERT JUMPDEST POP PUSH1 0x4 CALLDATASIZE LT PUSH2 0xEA JUMPI PUSH1 0x0 CALLDATALOAD PUSH1 0xE0 SHR DUP1 PUSH4 0xAB016670 GT PUSH2 0x8C JUMPI DUP1 PUSH4 0xBC6BC0CD GT PUSH2 0x66 JUMPI DUP1 PUSH4 0xBC6BC0CD EQ PUSH2 0x247 JUMPI DUP1 PUSH4 0xC54E5497 EQ PUSH2 0x26E JUMPI DUP1 PUSH4 0xE31EF91C EQ PUSH2 0x2AF JUMPI DUP1 PUSH4 0xF2FDE38B EQ PUSH2 0x32E JUMPI PUSH1 0x0 DUP1 REVERT JUMPDEST DUP1 PUSH4 0xAB016670 EQ PUSH2 0x1FA JUMPI DUP1 PUSH4 0xB060DD86 EQ PUSH2 0x20D JUMPI DUP1 PUSH4 0xB9223C9D EQ PUSH2 0x234 JUMPI PUSH1 0x0 DUP1 REVERT JUMPDEST DUP1 PUSH4 0x3755FA80 GT PUSH2 0xC8 JUMPI DUP1 PUSH4 0x3755FA80 EQ PUSH2 0x1A0 JUMPI DUP1 PUSH4 0x4FB7D3F9 EQ PUSH2 0x1B3 JUMPI DUP1 PUSH4 0x715018A6 EQ PUSH2 0x1CA JUMPI DUP1 PUSH4 0x8DA5CB5B EQ PUSH2 0x1D2 JUMPI PUSH1 0x0 DUP1 REVERT JUMPDEST DUP1 PUSH4 0x275DA5EF EQ PUSH2 0xEF JUMPI DUP1 PUSH4 0x2782D6C7 EQ PUSH2 0x104 JUMPI DUP1 PUSH4 0x33BF6156 EQ PUSH2 0x148 JUMPI JUMPDEST PUSH1 0x0 DUP1 REVERT JUMPDEST PUSH2 0x102 PUSH2 0xFD CALLDATASIZE PUSH1 0x4 PUSH2 0x10F5 JUMP JUMPDEST PUSH2 0x341 JUMP JUMPDEST STOP JUMPDEST PUSH2 0x117 PUSH2 0x112 CALLDATASIZE PUSH1 0x4 PUSH2 0x1146 JUMP JUMPDEST PUSH2 0x3EA JUMP JUMPDEST PUSH1 0x40 DUP1 MLOAD PUSH20 0xFFFFFFFFFFFFFFFFFFFFFFFFFFFFFFFFFFFFFFFF SWAP1 SWAP4 AND DUP4 MSTORE PUSH1 0x20 DUP4 ADD SWAP2 SWAP1 SWAP2 MSTORE ADD JUMPDEST PUSH1 0x40 MLOAD DUP1 SWAP2 SUB SWAP1 RETURN JUMPDEST PUSH2 0x16F PUSH32 0xD9B67A2600000000000000000000000000000000000000000000000000000000 DUP2 JUMP JUMPDEST PUSH1 0x40 MLOAD PUSH32 0xFFFFFFFF00000000000000000000000000000000000000000000000000000000 SWAP1 SWAP2 AND DUP2 MSTORE PUSH1 0x20 ADD PUSH2 0x13F JUMP JUMPDEST PUSH2 0x102 PUSH2 0x1AE CALLDATASIZE PUSH1 0x4 PUSH2 0x10F5 JUMP JUMPDEST PUSH2 0x444 JUMP JUMPDEST PUSH2 0x1BC PUSH1 0x1 SLOAD DUP2 JUMP JUMPDEST PUSH1 0x40 MLOAD SWAP1 DUP2 MSTORE PUSH1 0x20 ADD PUSH2 0x13F JUMP JUMPDEST PUSH2 0x102 PUSH2 0x66E JUMP JUMPDEST PUSH1 0x0 SLOAD PUSH1 0x40 MLOAD PUSH20 0xFFFFFFFFFFFFFFFFFFFFFFFFFFFFFFFFFFFFFFFF SWAP1 SWAP2 AND DUP2 MSTORE PUSH1 0x20 ADD PUSH2 0x13F JUMP JUMPDEST PUSH2 0x102 PUSH2 0x208 CALLDATASIZE PUSH1 0x4 PUSH2 0x10F5 JUMP JUMPDEST PUSH2 0x682 JUMP JUMPDEST PUSH2 0x16F PUSH32 0x2A55205A00000000000000000000000000000000000000000000000000000000 DUP2 JUMP JUMPDEST PUSH2 0x102 PUSH2 0x242 CALLDATASIZE PUSH1 0x4 PUSH2 0x1172 JUMP JUMPDEST PUSH2 0x89A JUMP JUMPDEST PUSH2 0x16F PUSH32 0x80AC58CD00000000000000000000000000000000000000000000000000000000 DUP2 JUMP JUMPDEST PUSH2 0x281 PUSH2 0x27C CALLDATASIZE PUSH1 0x4 PUSH2 0x118B JUMP JUMPDEST PUSH2 0x949 JUMP JUMPDEST PUSH1 0x40 DUP1 MLOAD PUSH20 0xFFFFFFFFFFFFFFFFFFFFFFFFFFFFFFFFFFFFFFFF SWAP1 SWAP4 AND DUP4 MSTORE PUSH1 0xFF SWAP1 SWAP2 AND PUSH1 0x20 DUP4 ADD MSTORE ADD PUSH2 0x13F JUMP JUMPDEST PUSH2 0x2FB PUSH2 0x2BD CALLDATASIZE PUSH1 0x4 PUSH2 0x118B JUMP JUMPDEST PUSH20 0xFFFFFFFFFFFFFFFFFFFFFFFFFFFFFFFFFFFFFFFF SWAP1 DUP2 AND PUSH1 0x0 SWAP1 DUP2 MSTORE PUSH1 0x2 PUSH1 0x20 DUP2 SWAP1 MSTORE PUSH1 0x40 SWAP1 SWAP2 KECCAK256 DUP1 SLOAD PUSH1 0x1 DUP3 ADD SLOAD SWAP2 SWAP1 SWAP3 ADD SLOAD SWAP2 DUP4 AND SWAP4 SWAP3 AND SWAP2 JUMP JUMPDEST PUSH1 0x40 DUP1 MLOAD PUSH20 0xFFFFFFFFFFFFFFFFFFFFFFFFFFFFFFFFFFFFFFFF SWAP5 DUP6 AND DUP2 MSTORE SWAP4 SWAP1 SWAP3 AND PUSH1 0x20 DUP5 ADD MSTORE SWAP1 DUP3 ADD MSTORE PUSH1 0x60 ADD PUSH2 0x13F JUMP JUMPDEST PUSH2 0x102 PUSH2 0x33C CALLDATASIZE PUSH1 0x4 PUSH2 0x118B JUMP JUMPDEST PUSH2 0xB99 JUMP JUMPDEST PUSH20 0xFFFFFFFFFFFFFFFFFFFFFFFFFFFFFFFFFFFFFFFF DUP1 DUP6 AND PUSH1 0x0 SWAP1 DUP2 MSTORE PUSH1 0x2 PUSH1 0x20 MSTORE PUSH1 0x40 SWAP1 KECCAK256 SLOAD AND CALLER DUP2 EQ PUSH2 0x3D7 JUMPI PUSH1 0x40 MLOAD PUSH32 0x8C379A000000000000000000000000000000000000000000000000000000000 DUP2 MSTORE PUSH1 0x20 PUSH1 0x4 DUP3 ADD MSTORE PUSH1 0x16 PUSH1 0x24 DUP3 ADD MSTORE PUSH32 0x5365747465723A204E6F74207468652073657474657200000000000000000000 PUSH1 0x44 DUP3 ADD MSTORE PUSH1 0x64 ADD JUMPDEST PUSH1 0x40 MLOAD DUP1 SWAP2 SUB SWAP1 REVERT JUMPDEST PUSH2 0x3E3 DUP6 DUP6 DUP6 DUP6 PUSH2 0xC50 JUMP JUMPDEST POP POP POP POP POP JUMP JUMPDEST PUSH20 0xFFFFFFFFFFFFFFFFFFFFFFFFFFFFFFFFFFFFFFFF DUP1 DUP4 AND PUSH1 0x0 SWAP1 DUP2 MSTORE PUSH1 0x2 PUSH1 0x20 DUP2 SWAP1 MSTORE PUSH1 0x40 DUP3 KECCAK256 PUSH1 0x1 DUP2 ADD SLOAD SWAP2 ADD SLOAD SWAP2 SWAP3 DUP4 SWAP3 SWAP2 AND SWAP1 PUSH2 0x2710 SWAP1 PUSH2 0x42F SWAP1 DUP7 PUSH2 0x11AF JUMP JUMPDEST PUSH2 0x439 SWAP2 SWAP1 PUSH2 0x11F3 JUMP JUMPDEST SWAP2 POP SWAP2 POP SWAP3 POP SWAP3 SWAP1 POP JUMP JUMPDEST PUSH1 0x40 MLOAD PUSH32 0x1FFC9A700000000000000000000000000000000000000000000000000000000 DUP2 MSTORE PUSH32 0x2A55205A00000000000000000000000000000000000000000000000000000000 PUSH1 0x4 DUP3 ADD MSTORE PUSH20 0xFFFFFFFFFFFFFFFFFFFFFFFFFFFFFFFFFFFFFFFF DUP6 AND SWAP1 PUSH4 0x1FFC9A7 SWAP1 PUSH1 0x24 ADD PUSH1 0x20 PUSH1 0x40 MLOAD DUP1 DUP4 SUB DUP2 DUP7 GAS STATICCALL ISZERO DUP1 ISZERO PUSH2 0x4CE JUMPI RETURNDATASIZE PUSH1 0x0 DUP1 RETURNDATACOPY RETURNDATASIZE PUSH1 0x0 REVERT JUMPDEST POP POP POP POP PUSH1 0x40 MLOAD RETURNDATASIZE PUSH1 0x1F NOT PUSH1 0x1F DUP3 ADD AND DUP3 ADD DUP1 PUSH1 0x40 MSTORE POP DUP2 ADD SWAP1 PUSH2 0x4F2 SWAP2 SWAP1 PUSH2 0x122E JUMP JUMPDEST ISZERO PUSH2 0x559 JUMPI PUSH1 0x40 MLOAD PUSH32 0x8C379A000000000000000000000000000000000000000000000000000000000 DUP2 MSTORE PUSH1 0x20 PUSH1 0x4 DUP3 ADD MSTORE PUSH1 0x14 PUSH1 0x24 DUP3 ADD MSTORE PUSH32 0x204D757374206E6F742062652045524332393831000000000000000000000000 PUSH1 0x44 DUP3 ADD MSTORE PUSH1 0x64 ADD PUSH2 0x3CE JUMP JUMPDEST DUP4 PUSH20 0xFFFFFFFFFFFFFFFFFFFFFFFFFFFFFFFFFFFFFFFF AND PUSH4 0x8DA5CB5B PUSH1 0x40 MLOAD DUP2 PUSH4 0xFFFFFFFF AND PUSH1 0xE0 SHL DUP2 MSTORE PUSH1 0x4 ADD PUSH1 0x20 PUSH1 0x40 MLOAD DUP1 DUP4 SUB DUP2 DUP7 GAS STATICCALL ISZERO DUP1 ISZERO PUSH2 0x5A4 JUMPI RETURNDATASIZE PUSH1 0x0 DUP1 RETURNDATACOPY RETURNDATASIZE PUSH1 0x0 REVERT JUMPDEST POP POP POP POP PUSH1 0x40 MLOAD RETURNDATASIZE PUSH1 0x1F NOT PUSH1 0x1F DUP3 ADD AND DUP3 ADD DUP1 PUSH1 0x40 MSTORE POP DUP2 ADD SWAP1 PUSH2 0x5C8 SWAP2 SWAP1 PUSH2 0x1250 JUMP JUMPDEST PUSH20 0xFFFFFFFFFFFFFFFFFFFFFFFFFFFFFFFFFFFFFFFF AND CALLER PUSH20 0xFFFFFFFFFFFFFFFFFFFFFFFFFFFFFFFFFFFFFFFF AND EQ PUSH2 0x65C JUMPI PUSH1 0x40 MLOAD PUSH32 0x8C379A000000000000000000000000000000000000000000000000000000000 DUP2 MSTORE PUSH1 0x20 PUSH1 0x4 DUP3 ADD MSTORE PUSH1 0xE PUSH1 0x24 DUP3 ADD MSTORE PUSH32 0x204E6F7420746865206F776E6572000000000000000000000000000000000000 PUSH1 0x44 DUP3 ADD MSTORE PUSH1 0x64 ADD PUSH2 0x3CE JUMP JUMPDEST PUSH2 0x668 DUP5 DUP5 DUP5 DUP5 PUSH2 0xD85 JUMP JUMPDEST POP POP POP POP JUMP JUMPDEST PUSH2 0x676 PUSH2 0xFDD JUMP JUMPDEST PUSH2 0x680 PUSH1 0x0 PUSH2 0x105E JUMP JUMPDEST JUMP JUMPDEST PUSH1 0x40 MLOAD PUSH32 0x1FFC9A700000000000000000000000000000000000000000000000000000000 DUP2 MSTORE PUSH32 0x2A55205A00000000000000000000000000000000000000000000000000000000 PUSH1 0x4 DUP3 ADD MSTORE PUSH20 0xFFFFFFFFFFFFFFFFFFFFFFFFFFFFFFFFFFFFFFFF DUP6 AND SWAP1 PUSH4 0x1FFC9A7 SWAP1 PUSH1 0x24 ADD PUSH1 0x20 PUSH1 0x40 MLOAD DUP1 DUP4 SUB DUP2 DUP7 GAS STATICCALL ISZERO DUP1 ISZERO PUSH2 0x70C JUMPI RETURNDATASIZE PUSH1 0x0 DUP1 RETURNDATACOPY RETURNDATASIZE PUSH1 0x0 REVERT JUMPDEST POP POP POP POP PUSH1 0x40 MLOAD RETURNDATASIZE PUSH1 0x1F NOT PUSH1 0x1F DUP3 ADD AND DUP3 ADD DUP1 PUSH1 0x40 MSTORE POP DUP2 ADD SWAP1 PUSH2 0x730 SWAP2 SWAP1 PUSH2 0x122E JUMP JUMPDEST ISZERO PUSH2 0x797 JUMPI PUSH1 0x40 MLOAD PUSH32 0x8C379A000000000000000000000000000000000000000000000000000000000 DUP2 MSTORE PUSH1 0x20 PUSH1 0x4 DUP3 ADD MSTORE PUSH1 0x14 PUSH1 0x24 DUP3 ADD MSTORE PUSH32 0x204D757374206E6F742062652045524332393831000000000000000000000000 PUSH1 0x44 DUP3 ADD MSTORE PUSH1 0x64 ADD PUSH2 0x3CE JUMP JUMPDEST DUP4 PUSH20 0xFFFFFFFFFFFFFFFFFFFFFFFFFFFFFFFFFFFFFFFF AND PUSH4 0xF851A440 PUSH1 0x40 MLOAD DUP2 PUSH4 0xFFFFFFFF AND PUSH1 0xE0 SHL DUP2 MSTORE PUSH1 0x4 ADD PUSH1 0x20 PUSH1 0x40 MLOAD DUP1 DUP4 SUB DUP2 DUP7 GAS STATICCALL ISZERO DUP1 ISZERO PUSH2 0x7E2 JUMPI RETURNDATASIZE PUSH1 0x0 DUP1 RETURNDATACOPY RETURNDATASIZE PUSH1 0x0 REVERT JUMPDEST POP POP POP POP PUSH1 0x40 MLOAD RETURNDATASIZE PUSH1 0x1F NOT PUSH1 0x1F DUP3 ADD AND DUP3 ADD DUP1 PUSH1 0x40 MSTORE POP DUP2 ADD SWAP1 PUSH2 0x806 SWAP2 SWAP1 PUSH2 0x1250 JUMP JUMPDEST PUSH20 0xFFFFFFFFFFFFFFFFFFFFFFFFFFFFFFFFFFFFFFFF AND CALLER PUSH20 0xFFFFFFFFFFFFFFFFFFFFFFFFFFFFFFFFFFFFFFFF AND EQ PUSH2 0x65C JUMPI PUSH1 0x40 MLOAD PUSH32 0x8C379A000000000000000000000000000000000000000000000000000000000 DUP2 MSTORE PUSH1 0x20 PUSH1 0x4 DUP3 ADD MSTORE PUSH1 0xE PUSH1 0x24 DUP3 ADD MSTORE PUSH32 0x204E6F74207468652061646D696E000000000000000000000000000000000000 PUSH1 0x44 DUP3 ADD MSTORE PUSH1 0x64 ADD PUSH2 0x3CE JUMP JUMPDEST PUSH2 0x8A2 PUSH2 0xFDD JUMP JUMPDEST PUSH2 0x251C DUP2 GT ISZERO PUSH2 0x90E JUMPI PUSH1 0x40 MLOAD PUSH32 0x8C379A000000000000000000000000000000000000000000000000000000000 DUP2 MSTORE PUSH1 0x20 PUSH1 0x4 DUP3 ADD MSTORE PUSH1 0x1A PUSH1 0x24 DUP3 ADD MSTORE PUSH32 0x526F79616C747920666565206C696D697420746F6F2068696768000000000000 PUSH1 0x44 DUP3 ADD MSTORE PUSH1 0x64 ADD PUSH2 0x3CE JUMP JUMPDEST PUSH1 0x1 DUP2 SWAP1 SSTORE PUSH1 0x40 MLOAD DUP2 DUP2 MSTORE PUSH32 0x2DA7166C72EF3860EF4FB2571105533C40615269A6DBC38CE0B264910DF1C256 SWAP1 PUSH1 0x20 ADD PUSH1 0x40 MLOAD DUP1 SWAP2 SUB SWAP1 LOG1 POP JUMP JUMPDEST PUSH20 0xFFFFFFFFFFFFFFFFFFFFFFFFFFFFFFFFFFFFFFFF DUP1 DUP3 AND PUSH1 0x0 SWAP1 DUP2 MSTORE PUSH1 0x2 PUSH1 0x20 MSTORE PUSH1 0x40 DUP2 KECCAK256 SLOAD SWAP1 SWAP2 DUP3 SWAP2 AND DUP1 ISZERO PUSH2 0x985 JUMPI SWAP4 PUSH1 0x0 SWAP4 POP SWAP2 POP POP JUMP JUMPDEST PUSH1 0x40 MLOAD PUSH32 0x1FFC9A700000000000000000000000000000000000000000000000000000000 DUP2 MSTORE PUSH32 0x2A55205A00000000000000000000000000000000000000000000000000000000 PUSH1 0x4 DUP3 ADD MSTORE PUSH20 0xFFFFFFFFFFFFFFFFFFFFFFFFFFFFFFFFFFFFFFFF DUP6 AND SWAP1 PUSH4 0x1FFC9A7 SWAP1 PUSH1 0x24 ADD PUSH1 0x20 PUSH1 0x40 MLOAD DUP1 DUP4 SUB DUP2 DUP7 GAS STATICCALL SWAP3 POP POP POP DUP1 ISZERO PUSH2 0xA49 JUMPI POP PUSH1 0x40 DUP1 MLOAD PUSH1 0x1F RETURNDATASIZE SWAP1 DUP2 ADD PUSH32 0xFFFFFFFFFFFFFFFFFFFFFFFFFFFFFFFFFFFFFFFFFFFFFFFFFFFFFFFFFFFFFFE0 AND DUP3 ADD SWAP1 SWAP3 MSTORE PUSH2 0xA46 SWAP2 DUP2 ADD SWAP1 PUSH2 0x122E JUMP JUMPDEST PUSH1 0x1 JUMPDEST ISZERO PUSH2 0xA64 JUMPI DUP1 ISZERO PUSH2 0xA62 JUMPI POP PUSH1 0x0 SWAP5 PUSH1 0x1 SWAP5 POP SWAP3 POP POP POP JUMP JUMPDEST POP JUMPDEST DUP4 PUSH20 0xFFFFFFFFFFFFFFFFFFFFFFFFFFFFFFFFFFFFFFFF AND PUSH4 0x8DA5CB5B PUSH1 0x40 MLOAD DUP2 PUSH4 0xFFFFFFFF AND PUSH1 0xE0 SHL DUP2 MSTORE PUSH1 0x4 ADD PUSH1 0x20 PUSH1 0x40 MLOAD DUP1 DUP4 SUB DUP2 DUP7 GAS STATICCALL SWAP3 POP POP POP DUP1 ISZERO PUSH2 0xAE9 JUMPI POP PUSH1 0x40 DUP1 MLOAD PUSH1 0x1F RETURNDATASIZE SWAP1 DUP2 ADD PUSH32 0xFFFFFFFFFFFFFFFFFFFFFFFFFFFFFFFFFFFFFFFFFFFFFFFFFFFFFFFFFFFFFFE0 AND DUP3 ADD SWAP1 SWAP3 MSTORE PUSH2 0xAE6 SWAP2 DUP2 ADD SWAP1 PUSH2 0x1250 JUMP JUMPDEST PUSH1 0x1 JUMPDEST PUSH2 0xB8E JUMPI DUP4 PUSH20 0xFFFFFFFFFFFFFFFFFFFFFFFFFFFFFFFFFFFFFFFF AND PUSH4 0xF851A440 PUSH1 0x40 MLOAD DUP2 PUSH4 0xFFFFFFFF AND PUSH1 0xE0 SHL DUP2 MSTORE PUSH1 0x4 ADD PUSH1 0x20 PUSH1 0x40 MLOAD DUP1 DUP4 SUB DUP2 DUP7 GAS STATICCALL SWAP3 POP POP POP DUP1 ISZERO PUSH2 0xB72 JUMPI POP PUSH1 0x40 DUP1 MLOAD PUSH1 0x1F RETURNDATASIZE SWAP1 DUP2 ADD PUSH32 0xFFFFFFFFFFFFFFFFFFFFFFFFFFFFFFFFFFFFFFFFFFFFFFFFFFFFFFFFFFFFFFE0 AND DUP3 ADD SWAP1 SWAP3 MSTORE PUSH2 0xB6F SWAP2 DUP2 ADD SWAP1 PUSH2 0x1250 JUMP JUMPDEST PUSH1 0x1 JUMPDEST PUSH2 0xB83 JUMPI POP PUSH1 0x0 SWAP4 PUSH1 0x4 SWAP4 POP SWAP2 POP POP JUMP JUMPDEST SWAP5 PUSH1 0x3 SWAP5 POP SWAP3 POP POP POP JUMP JUMPDEST SWAP5 PUSH1 0x2 SWAP5 POP SWAP3 POP POP POP JUMP JUMPDEST PUSH2 0xBA1 PUSH2 0xFDD JUMP JUMPDEST PUSH20 0xFFFFFFFFFFFFFFFFFFFFFFFFFFFFFFFFFFFFFFFF DUP2 AND PUSH2 0xC44 JUMPI PUSH1 0x40 MLOAD PUSH32 0x8C379A000000000000000000000000000000000000000000000000000000000 DUP2 MSTORE PUSH1 0x20 PUSH1 0x4 DUP3 ADD MSTORE PUSH1 0x26 PUSH1 0x24 DUP3 ADD MSTORE PUSH32 0x4F776E61626C653A206E6577206F776E657220697320746865207A65726F2061 PUSH1 0x44 DUP3 ADD MSTORE PUSH32 0x6464726573730000000000000000000000000000000000000000000000000000 PUSH1 0x64 DUP3 ADD MSTORE PUSH1 0x84 ADD PUSH2 0x3CE JUMP JUMPDEST PUSH2 0xC4D DUP2 PUSH2 0x105E JUMP JUMPDEST POP JUMP JUMPDEST PUSH1 0x1 SLOAD DUP2 GT ISZERO PUSH2 0xCBC JUMPI PUSH1 0x40 MLOAD PUSH32 0x8C379A000000000000000000000000000000000000000000000000000000000 DUP2 MSTORE PUSH1 0x20 PUSH1 0x4 DUP3 ADD MSTORE PUSH1 0x1E PUSH1 0x24 DUP3 ADD MSTORE PUSH32 0x52656769737472793A20526F79616C74792066656520746F6F20686967680000 PUSH1 0x44 DUP3 ADD MSTORE PUSH1 0x64 ADD PUSH2 0x3CE JUMP JUMPDEST PUSH1 0x40 DUP1 MLOAD PUSH1 0x60 DUP2 ADD DUP3 MSTORE PUSH20 0xFFFFFFFFFFFFFFFFFFFFFFFFFFFFFFFFFFFFFFFF DUP6 DUP2 AND DUP1 DUP4 MSTORE DUP6 DUP3 AND PUSH1 0x20 DUP1 DUP6 ADD DUP3 DUP2 MSTORE DUP6 DUP8 ADD DUP9 DUP2 MSTORE DUP12 DUP7 AND PUSH1 0x0 DUP2 DUP2 MSTORE PUSH1 0x2 DUP1 DUP7 MSTORE SWAP1 DUP11 SWAP1 KECCAK256 SWAP9 MLOAD DUP10 SLOAD SWAP1 DUP10 AND PUSH32 0xFFFFFFFFFFFFFFFFFFFFFFFF0000000000000000000000000000000000000000 SWAP2 DUP3 AND OR DUP11 SSTORE SWAP4 MLOAD PUSH1 0x1 DUP11 ADD DUP1 SLOAD SWAP2 SWAP1 SWAP10 AND SWAP5 AND SWAP4 SWAP1 SWAP4 OR SWAP1 SWAP7 SSTORE MLOAD SWAP6 ADD SWAP5 SWAP1 SWAP5 SSTORE SWAP4 MLOAD DUP6 DUP2 MSTORE SWAP1 SWAP3 PUSH32 0xD01984AFA6E37420452E575E7D99DD7E632B3EC8EA2ADEC998475B76CA494D64 SWAP2 ADD PUSH1 0x40 MLOAD DUP1 SWAP2 SUB SWAP1 LOG4 POP POP POP POP JUMP JUMPDEST PUSH20 0xFFFFFFFFFFFFFFFFFFFFFFFFFFFFFFFFFFFFFFFF DUP1 DUP6 AND PUSH1 0x0 SWAP1 DUP2 MSTORE PUSH1 0x2 PUSH1 0x20 MSTORE PUSH1 0x40 SWAP1 KECCAK256 SLOAD AND DUP1 ISZERO PUSH2 0xE15 JUMPI PUSH1 0x40 MLOAD PUSH32 0x8C379A000000000000000000000000000000000000000000000000000000000 DUP2 MSTORE PUSH1 0x20 PUSH1 0x4 DUP3 ADD MSTORE PUSH1 0xB PUSH1 0x24 DUP3 ADD MSTORE PUSH32 0x416C726561647920736574000000000000000000000000000000000000000000 PUSH1 0x44 DUP3 ADD MSTORE PUSH1 0x64 ADD PUSH2 0x3CE JUMP JUMPDEST PUSH1 0x40 MLOAD PUSH32 0x1FFC9A700000000000000000000000000000000000000000000000000000000 DUP2 MSTORE PUSH32 0x80AC58CD00000000000000000000000000000000000000000000000000000000 PUSH1 0x4 DUP3 ADD MSTORE PUSH20 0xFFFFFFFFFFFFFFFFFFFFFFFFFFFFFFFFFFFFFFFF DUP7 AND SWAP1 PUSH4 0x1FFC9A7 SWAP1 PUSH1 0x24 ADD PUSH1 0x20 PUSH1 0x40 MLOAD DUP1 DUP4 SUB DUP2 DUP7 GAS STATICCALL ISZERO DUP1 ISZERO PUSH2 0xE9F JUMPI RETURNDATASIZE PUSH1 0x0 DUP1 RETURNDATACOPY RETURNDATASIZE PUSH1 0x0 REVERT JUMPDEST POP POP POP POP PUSH1 0x40 MLOAD RETURNDATASIZE PUSH1 0x1F NOT PUSH1 0x1F DUP3 ADD AND DUP3 ADD DUP1 PUSH1 0x40 MSTORE POP DUP2 ADD SWAP1 PUSH2 0xEC3 SWAP2 SWAP1 PUSH2 0x122E JUMP JUMPDEST DUP1 PUSH2 0xF77 JUMPI POP PUSH1 0x40 MLOAD PUSH32 0x1FFC9A700000000000000000000000000000000000000000000000000000000 DUP2 MSTORE PUSH32 0xD9B67A2600000000000000000000000000000000000000000000000000000000 PUSH1 0x4 DUP3 ADD MSTORE PUSH20 0xFFFFFFFFFFFFFFFFFFFFFFFFFFFFFFFFFFFFFFFF DUP7 AND SWAP1 PUSH4 0x1FFC9A7 SWAP1 PUSH1 0x24 ADD PUSH1 0x20 PUSH1 0x40 MLOAD DUP1 DUP4 SUB DUP2 DUP7 GAS STATICCALL ISZERO DUP1 ISZERO PUSH2 0xF53 JUMPI RETURNDATASIZE PUSH1 0x0 DUP1 RETURNDATACOPY RETURNDATASIZE PUSH1 0x0 REVERT JUMPDEST POP POP POP POP PUSH1 0x40 MLOAD RETURNDATASIZE PUSH1 0x1F NOT PUSH1 0x1F DUP3 ADD AND DUP3 ADD DUP1 PUSH1 0x40 MSTORE POP DUP2 ADD SWAP1 PUSH2 0xF77 SWAP2 SWAP1 PUSH2 0x122E JUMP JUMPDEST PUSH2 0x3D7 JUMPI PUSH1 0x40 MLOAD PUSH32 0x8C379A000000000000000000000000000000000000000000000000000000000 DUP2 MSTORE PUSH1 0x20 PUSH1 0x4 DUP3 ADD MSTORE PUSH1 0x1A PUSH1 0x24 DUP3 ADD MSTORE PUSH32 0x204E6F7420536574206F66204552433732312F45524331313535000000000000 PUSH1 0x44 DUP3 ADD MSTORE PUSH1 0x64 ADD PUSH2 0x3CE JUMP JUMPDEST PUSH1 0x0 SLOAD PUSH20 0xFFFFFFFFFFFFFFFFFFFFFFFFFFFFFFFFFFFFFFFF AND CALLER EQ PUSH2 0x680 JUMPI PUSH1 0x40 MLOAD PUSH32 0x8C379A000000000000000000000000000000000000000000000000000000000 DUP2 MSTORE PUSH1 0x20 PUSH1 0x4 DUP3 ADD DUP2 SWAP1 MSTORE PUSH1 0x24 DUP3 ADD MSTORE PUSH32 0x4F776E61626C653A2063616C6C6572206973206E6F7420746865206F776E6572 PUSH1 0x44 DUP3 ADD MSTORE PUSH1 0x64 ADD PUSH2 0x3CE JUMP JUMPDEST PUSH1 0x0 DUP1 SLOAD PUSH20 0xFFFFFFFFFFFFFFFFFFFFFFFFFFFFFFFFFFFFFFFF DUP4 DUP2 AND PUSH32 0xFFFFFFFFFFFFFFFFFFFFFFFF0000000000000000000000000000000000000000 DUP4 AND DUP2 OR DUP5 SSTORE PUSH1 0x40 MLOAD SWAP2 SWAP1 SWAP3 AND SWAP3 DUP4 SWAP2 PUSH32 0x8BE0079C531659141344CD1FD0A4F28419497F9722A3DAAFE3B4186F6B6457E0 SWAP2 SWAP1 LOG3 POP POP JUMP JUMPDEST PUSH20 0xFFFFFFFFFFFFFFFFFFFFFFFFFFFFFFFFFFFFFFFF DUP2 AND DUP2 EQ PUSH2 0xC4D JUMPI PUSH1 0x0 DUP1 REVERT JUMPDEST PUSH1 0x0 DUP1 PUSH1 0x0 DUP1 PUSH1 0x80 DUP6 DUP8 SUB SLT ISZERO PUSH2 0x110B JUMPI PUSH1 0x0 DUP1 REVERT JUMPDEST DUP5 CALLDATALOAD PUSH2 0x1116 DUP2 PUSH2 0x10D3 JUMP JUMPDEST SWAP4 POP PUSH1 0x20 DUP6 ADD CALLDATALOAD PUSH2 0x1126 DUP2 PUSH2 0x10D3 JUMP JUMPDEST SWAP3 POP PUSH1 0x40 DUP6 ADD CALLDATALOAD PUSH2 0x1136 DUP2 PUSH2 0x10D3 JUMP JUMPDEST SWAP4 SWAP7 SWAP3 SWAP6 POP SWAP3 SWAP4 PUSH1 0x60 ADD CALLDATALOAD SWAP3 POP POP JUMP JUMPDEST PUSH1 0x0 DUP1 PUSH1 0x40 DUP4 DUP6 SUB SLT ISZERO PUSH2 0x1159 JUMPI PUSH1 0x0 DUP1 REVERT JUMPDEST DUP3 CALLDATALOAD PUSH2 0x1164 DUP2 PUSH2 0x10D3 JUMP JUMPDEST SWAP5 PUSH1 0x20 SWAP4 SWAP1 SWAP4 ADD CALLDATALOAD SWAP4 POP POP POP JUMP JUMPDEST PUSH1 0x0 PUSH1 0x20 DUP3 DUP5 SUB SLT ISZERO PUSH2 0x1184 JUMPI PUSH1 0x0 DUP1 REVERT JUMPDEST POP CALLDATALOAD SWAP2 SWAP1 POP JUMP JUMPDEST PUSH1 0x0 PUSH1 0x20 DUP3 DUP5 SUB SLT ISZERO PUSH2 0x119D JUMPI PUSH1 0x0 DUP1 REVERT JUMPDEST DUP2 CALLDATALOAD PUSH2 0x11A8 DUP2 PUSH2 0x10D3 JUMP JUMPDEST SWAP4 SWAP3 POP POP POP JUMP JUMPDEST DUP1 DUP3 MUL DUP2 ISZERO DUP3 DUP3 DIV DUP5 EQ OR PUSH2 0x11ED JUMPI PUSH32 0x4E487B7100000000000000000000000000000000000000000000000000000000 PUSH1 0x0 MSTORE PUSH1 0x11 PUSH1 0x4 MSTORE PUSH1 0x24 PUSH1 0x0 REVERT JUMPDEST SWAP3 SWAP2 POP POP JUMP JUMPDEST PUSH1 0x0 DUP3 PUSH2 0x1229 JUMPI PUSH32 0x4E487B7100000000000000000000000000000000000000000000000000000000 PUSH1 0x0 MSTORE PUSH1 0x12 PUSH1 0x4 MSTORE PUSH1 0x24 PUSH1 0x0 REVERT JUMPDEST POP DIV SWAP1 JUMP JUMPDEST PUSH1 0x0 PUSH1 0x20 DUP3 DUP5 SUB SLT ISZERO PUSH2 0x1240 JUMPI PUSH1 0x0 DUP1 REVERT JUMPDEST DUP2 MLOAD DUP1 ISZERO ISZERO DUP2 EQ PUSH2 0x11A8 JUMPI PUSH1 0x0 DUP1 REVERT JUMPDEST PUSH1 0x0 PUSH1 0x20 DUP3 DUP5 SUB SLT ISZERO PUSH2 0x1262 JUMPI PUSH1 0x0 DUP1 REVERT JUMPDEST DUP2 MLOAD PUSH2 0x11A8 DUP2 PUSH2 0x10D3 JUMP INVALID LOG2 PUSH5 0x6970667358 0x22 SLT KECCAK256 PUSH28 0xFBDDEDC0E58B80800D5C07F3F62F6684CE87E4DE4397D11D865AE82F RETURNDATASIZE 0xA7 SHL PUSH5 0x736F6C6343 STOP ADDMOD GT STOP CALLER "
				},
				"gasEstimates": {
					"creation": {
						"codeDepositCost": "954200",
						"executionCost": "infinite",
						"totalCost": "infinite"
					},
					"external": {
						"INTERFACE_ID_ERC1155()": "272",
						"INTERFACE_ID_ERC2981()": "249",
						"INTERFACE_ID_ERC721()": "226",
						"checkForCollectionSetter(address)": "infinite",
						"owner()": "2378",
						"renounceOwnership()": "infinite",
						"royaltyFeeInfoCollection(address)": "6884",
						"royaltyFeeLimit()": "2340",
						"royaltyInfo(address,uint256)": "4933",
						"transferOwnership(address)": "infinite",
						"updateRoyaltyFeeLimit(uint256)": "25634",
						"updateRoyaltyInfoForCollectionIfAdmin(address,address,address,uint256)": "infinite",
						"updateRoyaltyInfoForCollectionIfOwner(address,address,address,uint256)": "infinite",
						"updateRoyaltyInfoForCollectionIfSetter(address,address,address,uint256)": "infinite"
					},
					"internal": {
						"_updateRoyaltyInfoForCollectionIfOwnerOrAdmin(address,address,address,uint256)": "infinite",
						"updateRoyaltyInfoForCollection(address,address,address,uint256)": "infinite"
					}
				},
				"methodIdentifiers": {
					"INTERFACE_ID_ERC1155()": "33bf6156",
					"INTERFACE_ID_ERC2981()": "b060dd86",
					"INTERFACE_ID_ERC721()": "bc6bc0cd",
					"checkForCollectionSetter(address)": "c54e5497",
					"owner()": "8da5cb5b",
					"renounceOwnership()": "715018a6",
					"royaltyFeeInfoCollection(address)": "e31ef91c",
					"royaltyFeeLimit()": "4fb7d3f9",
					"royaltyInfo(address,uint256)": "2782d6c7",
					"transferOwnership(address)": "f2fde38b",
					"updateRoyaltyFeeLimit(uint256)": "b9223c9d",
					"updateRoyaltyInfoForCollectionIfAdmin(address,address,address,uint256)": "ab016670",
					"updateRoyaltyInfoForCollectionIfOwner(address,address,address,uint256)": "3755fa80",
					"updateRoyaltyInfoForCollectionIfSetter(address,address,address,uint256)": "275da5ef"
				}
			},
			"storageLayout": {
				"storage": [
					{
						"astId": 73,
						"contract": "RoyaltyFeeRegistry_flat.sol:RoyaltyFeeRegistry",
						"label": "_owner",
						"offset": 0,
						"slot": "0",
						"type": "t_address"
					},
					{
						"astId": 212,
						"contract": "RoyaltyFeeRegistry_flat.sol:RoyaltyFeeRegistry",
						"label": "royaltyFeeLimit",
						"offset": 0,
						"slot": "1",
						"type": "t_uint256"
					},
					{
						"astId": 217,
						"contract": "RoyaltyFeeRegistry_flat.sol:RoyaltyFeeRegistry",
						"label": "_royaltyFeeInfoCollection",
						"offset": 0,
						"slot": "2",
						"type": "t_mapping(t_address,t_struct(FeeInfo)201_storage)"
					}
				],
				"types": {
					"t_address": {
						"encoding": "inplace",
						"label": "address",
						"numberOfBytes": "20"
					},
					"t_mapping(t_address,t_struct(FeeInfo)201_storage)": {
						"encoding": "mapping",
						"key": "t_address",
						"label": "mapping(address => struct RoyaltyFeeRegistry.FeeInfo)",
						"numberOfBytes": "32",
						"value": "t_struct(FeeInfo)201_storage"
					},
					"t_struct(FeeInfo)201_storage": {
						"encoding": "inplace",
						"label": "struct RoyaltyFeeRegistry.FeeInfo",
						"members": [
							{
								"astId": 196,
								"contract": "RoyaltyFeeRegistry_flat.sol:RoyaltyFeeRegistry",
								"label": "setter",
								"offset": 0,
								"slot": "0",
								"type": "t_address"
							},
							{
								"astId": 198,
								"contract": "RoyaltyFeeRegistry_flat.sol:RoyaltyFeeRegistry",
								"label": "receiver",
								"offset": 0,
								"slot": "1",
								"type": "t_address"
							},
							{
								"astId": 200,
								"contract": "RoyaltyFeeRegistry_flat.sol:RoyaltyFeeRegistry",
								"label": "fee",
								"offset": 0,
								"slot": "2",
								"type": "t_uint256"
							}
						],
						"numberOfBytes": "96"
					},
					"t_uint256": {
						"encoding": "inplace",
						"label": "uint256",
						"numberOfBytes": "32"
					}
				}
			},
			"userdoc": {
				"kind": "user",
				"methods": {},
				"version": 1
			}
		}
	}
}