{
	"contracts/Manager/CurrencyManager.sol": {
		"CurrencyManager": {
			"abi": [
				{
					"anonymous": false,
					"inputs": [
						{
							"indexed": true,
							"internalType": "address",
							"name": "currency",
							"type": "address"
						}
					],
					"name": "CurrencyRemoved",
					"type": "event"
				},
				{
					"anonymous": false,
					"inputs": [
						{
							"indexed": true,
							"internalType": "address",
							"name": "currency",
							"type": "address"
						}
					],
					"name": "CurrencyWhitelisted",
					"type": "event"
				},
				{
					"anonymous": false,
					"inputs": [
						{
							"indexed": true,
							"internalType": "address",
							"name": "previousOwner",
							"type": "address"
						},
						{
							"indexed": true,
							"internalType": "address",
							"name": "newOwner",
							"type": "address"
						}
					],
					"name": "OwnershipTransferred",
					"type": "event"
				},
				{
					"inputs": [
						{
							"internalType": "address",
							"name": "currency",
							"type": "address"
						}
					],
					"name": "addCurrency",
					"outputs": [],
					"stateMutability": "nonpayable",
					"type": "function"
				},
				{
					"inputs": [
						{
							"internalType": "address",
							"name": "currency",
							"type": "address"
						}
					],
					"name": "isCurrencyWhitelisted",
					"outputs": [
						{
							"internalType": "bool",
							"name": "",
							"type": "bool"
						}
					],
					"stateMutability": "view",
					"type": "function"
				},
				{
					"inputs": [],
					"name": "owner",
					"outputs": [
						{
							"internalType": "address",
							"name": "",
							"type": "address"
						}
					],
					"stateMutability": "view",
					"type": "function"
				},
				{
					"inputs": [
						{
							"internalType": "address",
							"name": "currency",
							"type": "address"
						}
					],
					"name": "removeCurrency",
					"outputs": [],
					"stateMutability": "nonpayable",
					"type": "function"
				},
				{
					"inputs": [],
					"name": "renounceOwnership",
					"outputs": [],
					"stateMutability": "nonpayable",
					"type": "function"
				},
				{
					"inputs": [
						{
							"internalType": "address",
							"name": "newOwner",
							"type": "address"
						}
					],
					"name": "transferOwnership",
					"outputs": [],
					"stateMutability": "nonpayable",
					"type": "function"
				},
				{
					"inputs": [],
					"name": "viewCountWhitelistedCurrencies",
					"outputs": [
						{
							"internalType": "uint256",
							"name": "",
							"type": "uint256"
						}
					],
					"stateMutability": "view",
					"type": "function"
				},
				{
					"inputs": [
						{
							"internalType": "uint256",
							"name": "cursor",
							"type": "uint256"
						},
						{
							"internalType": "uint256",
							"name": "size",
							"type": "uint256"
						}
					],
					"name": "viewWhitelistedCurrencies",
					"outputs": [
						{
							"internalType": "address[]",
							"name": "",
							"type": "address[]"
						},
						{
							"internalType": "uint256",
							"name": "",
							"type": "uint256"
						}
					],
					"stateMutability": "view",
					"type": "function"
				}
			],
			"devdoc": {
				"kind": "dev",
				"methods": {
					"owner()": {
						"details": "Returns the address of the current owner."
					},
					"renounceOwnership()": {
						"details": "Leaves the contract without owner. It will not be possible to call `onlyOwner` functions anymore. Can only be called by the current owner. NOTE: Renouncing ownership will leave the contract without an owner, thereby removing any functionality that is only available to the owner."
					},
					"transferOwnership(address)": {
						"details": "Transfers ownership of the contract to a new account (`newOwner`). Can only be called by the current owner."
					}
				},
				"version": 1
			},
			"evm": {
				"assembly": "    /* \"contracts/Manager/CurrencyManager.sol\":337:2889  contract CurrencyManager is TheCurrencyManager, Ownable {... */\n  mstore(0x40, 0x80)\n  callvalue\n  dup1\n  iszero\n  tag_1\n  jumpi\n  0x00\n  dup1\n  revert\ntag_1:\n  pop\n    /* \"@openzeppelin/contracts/access/Ownable.sol\":936:968  _transferOwnership(_msgSender()) */\n  tag_4\n    /* \"@openzeppelin/contracts/utils/Context.sol\":719:729  msg.sender */\n  caller\n    /* \"@openzeppelin/contracts/access/Ownable.sol\":936:954  _transferOwnership */\n  tag_7\n    /* \"@openzeppelin/contracts/access/Ownable.sol\":936:968  _transferOwnership(_msgSender()) */\n  jump\t// in\ntag_4:\n    /* \"contracts/Manager/CurrencyManager.sol\":337:2889  contract CurrencyManager is TheCurrencyManager, Ownable {... */\n  jump(tag_8)\n    /* \"@openzeppelin/contracts/access/Ownable.sol\":2433:2620  function _transferOwnership(address newOwner) internal virtual {... */\ntag_7:\n    /* \"@openzeppelin/contracts/access/Ownable.sol\":2506:2522  address oldOwner */\n  0x00\n    /* \"@openzeppelin/contracts/access/Ownable.sol\":2525:2531  _owner */\n  dup1\n  sload\n  sub(shl(0xa0, 0x01), 0x01)\n    /* \"@openzeppelin/contracts/access/Ownable.sol\":2541:2558  _owner = newOwner */\n  dup4\n  dup2\n  and\n  not(sub(shl(0xa0, 0x01), 0x01))\n  dup4\n  and\n  dup2\n  or\n  dup5\n  sstore\n    /* \"@openzeppelin/contracts/access/Ownable.sol\":2573:2613  OwnershipTransferred(oldOwner, newOwner) */\n  mload(0x40)\n    /* \"@openzeppelin/contracts/access/Ownable.sol\":2525:2531  _owner */\n  swap2\n  swap1\n  swap3\n  and\n  swap3\n  dup4\n  swap2\n    /* \"@openzeppelin/contracts/access/Ownable.sol\":2573:2613  OwnershipTransferred(oldOwner, newOwner) */\n  0x8be0079c531659141344cd1fd0a4f28419497f9722a3daafe3b4186f6b6457e0\n  swap2\n    /* \"@openzeppelin/contracts/access/Ownable.sol\":2506:2522  address oldOwner */\n  swap1\n    /* \"@openzeppelin/contracts/access/Ownable.sol\":2573:2613  OwnershipTransferred(oldOwner, newOwner) */\n  log3\n    /* \"@openzeppelin/contracts/access/Ownable.sol\":2496:2620  {... */\n  pop\n    /* \"@openzeppelin/contracts/access/Ownable.sol\":2433:2620  function _transferOwnership(address newOwner) internal virtual {... */\n  pop\n  jump\t// out\n    /* \"contracts/Manager/CurrencyManager.sol\":337:2889  contract CurrencyManager is TheCurrencyManager, Ownable {... */\ntag_8:\n  dataSize(sub_0)\n  dup1\n  dataOffset(sub_0)\n  0x00\n  codecopy\n  0x00\n  return\nstop\n\nsub_0: assembly {\n        /* \"contracts/Manager/CurrencyManager.sol\":337:2889  contract CurrencyManager is TheCurrencyManager, Ownable {... */\n      mstore(0x40, 0x80)\n      callvalue\n      dup1\n      iszero\n      tag_1\n      jumpi\n      0x00\n      dup1\n      revert\n    tag_1:\n      pop\n      jumpi(tag_2, lt(calldatasize, 0x04))\n      shr(0xe0, calldataload(0x00))\n      dup1\n      0x8ab234b6\n      gt\n      tag_11\n      jumpi\n      dup1\n      0x8ab234b6\n      eq\n      tag_7\n      jumpi\n      dup1\n      0x8da5cb5b\n      eq\n      tag_8\n      jumpi\n      dup1\n      0xc5d3a107\n      eq\n      tag_9\n      jumpi\n      dup1\n      0xf2fde38b\n      eq\n      tag_10\n      jumpi\n      0x00\n      dup1\n      revert\n    tag_11:\n      dup1\n      0x1facfd9c\n      eq\n      tag_3\n      jumpi\n      dup1\n      0x43b938c5\n      eq\n      tag_4\n      jumpi\n      dup1\n      0x715018a6\n      eq\n      tag_5\n      jumpi\n      dup1\n      0x85f39b0a\n      eq\n      tag_6\n      jumpi\n    tag_2:\n      0x00\n      dup1\n      revert\n        /* \"contracts/Manager/CurrencyManager.sol\":1966:2104  function viewCountWhitelistedCurrencies() external view override returns (uint256) {... */\n    tag_3:\n      tag_12\n      tag_13\n      jump\t// in\n    tag_12:\n      mload(0x40)\n        /* \"#utility.yul\":160:185   */\n      swap1\n      dup2\n      mstore\n        /* \"#utility.yul\":148:150   */\n      0x20\n        /* \"#utility.yul\":133:151   */\n      add\n        /* \"contracts/Manager/CurrencyManager.sol\":1966:2104  function viewCountWhitelistedCurrencies() external view override returns (uint256) {... */\n    tag_14:\n      mload(0x40)\n      dup1\n      swap2\n      sub\n      swap1\n      return\n        /* \"contracts/Manager/CurrencyManager.sol\":1661:1813  function isCurrencyWhitelisted(address currency) external view override returns (bool) {... */\n    tag_4:\n      tag_16\n      tag_17\n      calldatasize\n      0x04\n      tag_18\n      jump\t// in\n    tag_17:\n      tag_19\n      jump\t// in\n    tag_16:\n      mload(0x40)\n        /* \"#utility.yul\":675:689   */\n      swap1\n      iszero\n        /* \"#utility.yul\":668:690   */\n      iszero\n        /* \"#utility.yul\":650:691   */\n      dup2\n      mstore\n        /* \"#utility.yul\":638:640   */\n      0x20\n        /* \"#utility.yul\":623:641   */\n      add\n        /* \"contracts/Manager/CurrencyManager.sol\":1661:1813  function isCurrencyWhitelisted(address currency) external view override returns (bool) {... */\n      tag_14\n        /* \"#utility.yul\":510:697   */\n      jump\n        /* \"@openzeppelin/contracts/access/Ownable.sol\":1831:1932  function renounceOwnership() public virtual onlyOwner {... */\n    tag_5:\n      tag_22\n      tag_23\n      jump\t// in\n    tag_22:\n      stop\n        /* \"contracts/Manager/CurrencyManager.sol\":2299:2887  function viewWhitelistedCurrencies(uint256 cursor, uint256 size)... */\n    tag_6:\n      tag_24\n      tag_25\n      calldatasize\n      0x04\n      tag_26\n      jump\t// in\n    tag_25:\n      tag_27\n      jump\t// in\n    tag_24:\n      mload(0x40)\n      tag_14\n      swap3\n      swap2\n      swap1\n      tag_29\n      jump\t// in\n        /* \"contracts/Manager/CurrencyManager.sol\":754:1056  function addCurrency(address currency) external override onlyOwner {... */\n    tag_7:\n      tag_22\n      tag_31\n      calldatasize\n      0x04\n      tag_18\n      jump\t// in\n    tag_31:\n      tag_32\n      jump\t// in\n        /* \"@openzeppelin/contracts/access/Ownable.sol\":1201:1286  function owner() public view virtual returns (address) {... */\n    tag_8:\n        /* \"@openzeppelin/contracts/access/Ownable.sol\":1247:1254  address */\n      0x00\n        /* \"@openzeppelin/contracts/access/Ownable.sol\":1273:1279  _owner */\n      sload\n        /* \"@openzeppelin/contracts/access/Ownable.sol\":1201:1286  function owner() public view virtual returns (address) {... */\n      mload(0x40)\n        /* \"@openzeppelin/contracts/access/Ownable.sol\":1273:1279  _owner */\n      0xffffffffffffffffffffffffffffffffffffffff\n      swap1\n      swap2\n      and\n        /* \"#utility.yul\":1860:1934   */\n      dup2\n      mstore\n        /* \"#utility.yul\":1848:1850   */\n      0x20\n        /* \"#utility.yul\":1833:1851   */\n      add\n        /* \"@openzeppelin/contracts/access/Ownable.sol\":1201:1286  function owner() public view virtual returns (address) {... */\n      tag_14\n        /* \"#utility.yul\":1714:1940   */\n      jump\n        /* \"contracts/Manager/CurrencyManager.sol\":1195:1496  function removeCurrency(address currency) external override onlyOwner {... */\n    tag_9:\n      tag_22\n      tag_38\n      calldatasize\n      0x04\n      tag_18\n      jump\t// in\n    tag_38:\n      tag_39\n      jump\t// in\n        /* \"@openzeppelin/contracts/access/Ownable.sol\":2081:2279  function transferOwnership(address newOwner) public virtual onlyOwner {... */\n    tag_10:\n      tag_22\n      tag_41\n      calldatasize\n      0x04\n      tag_18\n      jump\t// in\n    tag_41:\n      tag_42\n      jump\t// in\n        /* \"contracts/Manager/CurrencyManager.sol\":1966:2104  function viewCountWhitelistedCurrencies() external view override returns (uint256) {... */\n    tag_13:\n        /* \"contracts/Manager/CurrencyManager.sol\":2040:2047  uint256 */\n      0x00\n        /* \"contracts/Manager/CurrencyManager.sol\":2066:2097  _whitelistedCurrencies.length() */\n      tag_44\n        /* \"contracts/Manager/CurrencyManager.sol\":2066:2088  _whitelistedCurrencies */\n      0x01\n        /* \"contracts/Manager/CurrencyManager.sol\":2066:2095  _whitelistedCurrencies.length */\n      tag_45\n        /* \"contracts/Manager/CurrencyManager.sol\":2066:2097  _whitelistedCurrencies.length() */\n      jump\t// in\n    tag_44:\n        /* \"contracts/Manager/CurrencyManager.sol\":2059:2097  return _whitelistedCurrencies.length() */\n      swap1\n      pop\n        /* \"contracts/Manager/CurrencyManager.sol\":1966:2104  function viewCountWhitelistedCurrencies() external view override returns (uint256) {... */\n      swap1\n      jump\t// out\n        /* \"contracts/Manager/CurrencyManager.sol\":1661:1813  function isCurrencyWhitelisted(address currency) external view override returns (bool) {... */\n    tag_19:\n        /* \"contracts/Manager/CurrencyManager.sol\":1742:1746  bool */\n      0x00\n        /* \"contracts/Manager/CurrencyManager.sol\":1765:1806  _whitelistedCurrencies.contains(currency) */\n      tag_47\n        /* \"contracts/Manager/CurrencyManager.sol\":1765:1787  _whitelistedCurrencies */\n      0x01\n        /* \"contracts/Manager/CurrencyManager.sol\":1797:1805  currency */\n      dup4\n        /* \"contracts/Manager/CurrencyManager.sol\":1765:1796  _whitelistedCurrencies.contains */\n      tag_48\n        /* \"contracts/Manager/CurrencyManager.sol\":1765:1806  _whitelistedCurrencies.contains(currency) */\n      jump\t// in\n    tag_47:\n        /* \"contracts/Manager/CurrencyManager.sol\":1758:1806  return _whitelistedCurrencies.contains(currency) */\n      swap3\n        /* \"contracts/Manager/CurrencyManager.sol\":1661:1813  function isCurrencyWhitelisted(address currency) external view override returns (bool) {... */\n      swap2\n      pop\n      pop\n      jump\t// out\n        /* \"@openzeppelin/contracts/access/Ownable.sol\":1831:1932  function renounceOwnership() public virtual onlyOwner {... */\n    tag_23:\n        /* \"@openzeppelin/contracts/access/Ownable.sol\":1094:1107  _checkOwner() */\n      tag_50\n        /* \"@openzeppelin/contracts/access/Ownable.sol\":1094:1105  _checkOwner */\n      tag_51\n        /* \"@openzeppelin/contracts/access/Ownable.sol\":1094:1107  _checkOwner() */\n      jump\t// in\n    tag_50:\n        /* \"@openzeppelin/contracts/access/Ownable.sol\":1895:1925  _transferOwnership(address(0)) */\n      tag_53\n        /* \"@openzeppelin/contracts/access/Ownable.sol\":1922:1923  0 */\n      0x00\n        /* \"@openzeppelin/contracts/access/Ownable.sol\":1895:1913  _transferOwnership */\n      tag_54\n        /* \"@openzeppelin/contracts/access/Ownable.sol\":1895:1925  _transferOwnership(address(0)) */\n      jump\t// in\n    tag_53:\n        /* \"@openzeppelin/contracts/access/Ownable.sol\":1831:1932  function renounceOwnership() public virtual onlyOwner {... */\n      jump\t// out\n        /* \"contracts/Manager/CurrencyManager.sol\":2299:2887  function viewWhitelistedCurrencies(uint256 cursor, uint256 size)... */\n    tag_27:\n        /* \"contracts/Manager/CurrencyManager.sol\":2412:2428  address[] memory */\n      0x60\n        /* \"contracts/Manager/CurrencyManager.sol\":2430:2437  uint256 */\n      0x00\n        /* \"contracts/Manager/CurrencyManager.sol\":2470:2474  size */\n      dup3\n        /* \"contracts/Manager/CurrencyManager.sol\":2532:2538  cursor */\n      dup5\n        /* \"contracts/Manager/CurrencyManager.sol\":2498:2529  _whitelistedCurrencies.length() */\n      tag_56\n        /* \"contracts/Manager/CurrencyManager.sol\":2498:2520  _whitelistedCurrencies */\n      0x01\n        /* \"contracts/Manager/CurrencyManager.sol\":2498:2527  _whitelistedCurrencies.length */\n      tag_45\n        /* \"contracts/Manager/CurrencyManager.sol\":2498:2529  _whitelistedCurrencies.length() */\n      jump\t// in\n    tag_56:\n        /* \"contracts/Manager/CurrencyManager.sol\":2498:2538  _whitelistedCurrencies.length() - cursor */\n      tag_57\n      swap2\n      swap1\n      tag_58\n      jump\t// in\n    tag_57:\n        /* \"contracts/Manager/CurrencyManager.sol\":2489:2495  length */\n      dup2\n        /* \"contracts/Manager/CurrencyManager.sol\":2489:2538  length > _whitelistedCurrencies.length() - cursor */\n      gt\n        /* \"contracts/Manager/CurrencyManager.sol\":2485:2614  if (length > _whitelistedCurrencies.length() - cursor) {... */\n      iszero\n      tag_59\n      jumpi\n        /* \"contracts/Manager/CurrencyManager.sol\":2597:2603  cursor */\n      dup5\n        /* \"contracts/Manager/CurrencyManager.sol\":2563:2594  _whitelistedCurrencies.length() */\n      tag_60\n        /* \"contracts/Manager/CurrencyManager.sol\":2563:2585  _whitelistedCurrencies */\n      0x01\n        /* \"contracts/Manager/CurrencyManager.sol\":2563:2592  _whitelistedCurrencies.length */\n      tag_45\n        /* \"contracts/Manager/CurrencyManager.sol\":2563:2594  _whitelistedCurrencies.length() */\n      jump\t// in\n    tag_60:\n        /* \"contracts/Manager/CurrencyManager.sol\":2563:2603  _whitelistedCurrencies.length() - cursor */\n      tag_61\n      swap2\n      swap1\n      tag_58\n      jump\t// in\n    tag_61:\n        /* \"contracts/Manager/CurrencyManager.sol\":2554:2603  length = _whitelistedCurrencies.length() - cursor */\n      swap1\n      pop\n        /* \"contracts/Manager/CurrencyManager.sol\":2485:2614  if (length > _whitelistedCurrencies.length() - cursor) {... */\n    tag_59:\n        /* \"contracts/Manager/CurrencyManager.sol\":2624:2662  address[] memory whitelistedCurrencies */\n      0x00\n        /* \"contracts/Manager/CurrencyManager.sol\":2679:2685  length */\n      dup2\n        /* \"contracts/Manager/CurrencyManager.sol\":2665:2686  new address[](length) */\n      0xffffffffffffffff\n      dup2\n      gt\n      iszero\n      tag_63\n      jumpi\n      tag_63\n      tag_64\n      jump\t// in\n    tag_63:\n      mload(0x40)\n      swap1\n      dup1\n      dup3\n      mstore\n      dup1\n      0x20\n      mul\n      0x20\n      add\n      dup3\n      add\n      0x40\n      mstore\n      dup1\n      iszero\n      tag_65\n      jumpi\n      dup2\n      0x20\n      add\n      0x20\n      dup3\n      mul\n      dup1\n      calldatasize\n      dup4\n      calldatacopy\n      add\n      swap1\n      pop\n    tag_65:\n      pop\n        /* \"contracts/Manager/CurrencyManager.sol\":2624:2686  address[] memory whitelistedCurrencies = new address[](length) */\n      swap1\n      pop\n        /* \"contracts/Manager/CurrencyManager.sol\":2702:2711  uint256 i */\n      0x00\n        /* \"contracts/Manager/CurrencyManager.sol\":2697:2823  for (uint256 i = 0; i < length; i++) {... */\n    tag_66:\n        /* \"contracts/Manager/CurrencyManager.sol\":2721:2727  length */\n      dup3\n        /* \"contracts/Manager/CurrencyManager.sol\":2717:2718  i */\n      dup2\n        /* \"contracts/Manager/CurrencyManager.sol\":2717:2727  i < length */\n      lt\n        /* \"contracts/Manager/CurrencyManager.sol\":2697:2823  for (uint256 i = 0; i < length; i++) {... */\n      iszero\n      tag_67\n      jumpi\n        /* \"contracts/Manager/CurrencyManager.sol\":2775:2812  _whitelistedCurrencies.at(cursor + i) */\n      tag_69\n        /* \"contracts/Manager/CurrencyManager.sol\":2801:2811  cursor + i */\n      tag_70\n        /* \"contracts/Manager/CurrencyManager.sol\":2810:2811  i */\n      dup3\n        /* \"contracts/Manager/CurrencyManager.sol\":2801:2807  cursor */\n      dup10\n        /* \"contracts/Manager/CurrencyManager.sol\":2801:2811  cursor + i */\n      tag_71\n      jump\t// in\n    tag_70:\n        /* \"contracts/Manager/CurrencyManager.sol\":2775:2797  _whitelistedCurrencies */\n      0x01\n      swap1\n        /* \"contracts/Manager/CurrencyManager.sol\":2775:2800  _whitelistedCurrencies.at */\n      tag_72\n        /* \"contracts/Manager/CurrencyManager.sol\":2775:2812  _whitelistedCurrencies.at(cursor + i) */\n      jump\t// in\n    tag_69:\n        /* \"contracts/Manager/CurrencyManager.sol\":2748:2769  whitelistedCurrencies */\n      dup3\n        /* \"contracts/Manager/CurrencyManager.sol\":2770:2771  i */\n      dup3\n        /* \"contracts/Manager/CurrencyManager.sol\":2748:2772  whitelistedCurrencies[i] */\n      dup2\n      mload\n      dup2\n      lt\n      tag_74\n      jumpi\n      tag_74\n      tag_75\n      jump\t// in\n    tag_74:\n        /* \"contracts/Manager/CurrencyManager.sol\":2748:2812  whitelistedCurrencies[i] = _whitelistedCurrencies.at(cursor + i) */\n      0xffffffffffffffffffffffffffffffffffffffff\n      swap1\n      swap3\n      and\n        /* \"contracts/Manager/CurrencyManager.sol\":2748:2772  whitelistedCurrencies[i] */\n      0x20\n      swap3\n      dup4\n      mul\n      swap2\n      swap1\n      swap2\n      add\n      swap1\n      swap2\n      add\n        /* \"contracts/Manager/CurrencyManager.sol\":2748:2812  whitelistedCurrencies[i] = _whitelistedCurrencies.at(cursor + i) */\n      mstore\n        /* \"contracts/Manager/CurrencyManager.sol\":2729:2732  i++ */\n      dup1\n      tag_76\n      dup2\n      tag_77\n      jump\t// in\n    tag_76:\n      swap2\n      pop\n      pop\n        /* \"contracts/Manager/CurrencyManager.sol\":2697:2823  for (uint256 i = 0; i < length; i++) {... */\n      jump(tag_66)\n    tag_67:\n      pop\n        /* \"contracts/Manager/CurrencyManager.sol\":2841:2862  whitelistedCurrencies */\n      dup1\n        /* \"contracts/Manager/CurrencyManager.sol\":2864:2879  cursor + length */\n      tag_78\n        /* \"contracts/Manager/CurrencyManager.sol\":2873:2879  length */\n      dup4\n        /* \"contracts/Manager/CurrencyManager.sol\":2864:2870  cursor */\n      dup9\n        /* \"contracts/Manager/CurrencyManager.sol\":2864:2879  cursor + length */\n      tag_71\n      jump\t// in\n    tag_78:\n        /* \"contracts/Manager/CurrencyManager.sol\":2833:2880  return (whitelistedCurrencies, cursor + length) */\n      swap4\n      pop\n      swap4\n      pop\n      pop\n      pop\n        /* \"contracts/Manager/CurrencyManager.sol\":2299:2887  function viewWhitelistedCurrencies(uint256 cursor, uint256 size)... */\n      swap3\n      pop\n      swap3\n      swap1\n      pop\n      jump\t// out\n        /* \"contracts/Manager/CurrencyManager.sol\":754:1056  function addCurrency(address currency) external override onlyOwner {... */\n    tag_32:\n        /* \"@openzeppelin/contracts/access/Ownable.sol\":1094:1107  _checkOwner() */\n      tag_80\n        /* \"@openzeppelin/contracts/access/Ownable.sol\":1094:1105  _checkOwner */\n      tag_51\n        /* \"@openzeppelin/contracts/access/Ownable.sol\":1094:1107  _checkOwner() */\n      jump\t// in\n    tag_80:\n        /* \"contracts/Manager/CurrencyManager.sol\":892:933  _whitelistedCurrencies.contains(currency) */\n      tag_82\n        /* \"contracts/Manager/CurrencyManager.sol\":892:914  _whitelistedCurrencies */\n      0x01\n        /* \"contracts/Manager/CurrencyManager.sol\":924:932  currency */\n      dup3\n        /* \"contracts/Manager/CurrencyManager.sol\":892:923  _whitelistedCurrencies.contains */\n      tag_48\n        /* \"contracts/Manager/CurrencyManager.sol\":892:933  _whitelistedCurrencies.contains(currency) */\n      jump\t// in\n    tag_82:\n        /* \"contracts/Manager/CurrencyManager.sol\":891:933  !_whitelistedCurrencies.contains(currency) */\n      iszero\n        /* \"contracts/Manager/CurrencyManager.sol\":883:958  require(!_whitelistedCurrencies.contains(currency), \" Already whitelisted\") */\n      tag_83\n      jumpi\n      mload(0x40)\n      0x08c379a000000000000000000000000000000000000000000000000000000000\n      dup2\n      mstore\n        /* \"#utility.yul\":3177:3179   */\n      0x20\n        /* \"contracts/Manager/CurrencyManager.sol\":883:958  require(!_whitelistedCurrencies.contains(currency), \" Already whitelisted\") */\n      0x04\n      dup3\n      add\n        /* \"#utility.yul\":3159:3180   */\n      mstore\n        /* \"#utility.yul\":3216:3218   */\n      0x14\n        /* \"#utility.yul\":3196:3214   */\n      0x24\n      dup3\n      add\n        /* \"#utility.yul\":3189:3219   */\n      mstore\n        /* \"#utility.yul\":3255:3277   */\n      0x20416c72656164792077686974656c6973746564000000000000000000000000\n        /* \"#utility.yul\":3235:3253   */\n      0x44\n      dup3\n      add\n        /* \"#utility.yul\":3228:3278   */\n      mstore\n        /* \"#utility.yul\":3295:3313   */\n      0x64\n      add\n        /* \"contracts/Manager/CurrencyManager.sol\":883:958  require(!_whitelistedCurrencies.contains(currency), \" Already whitelisted\") */\n    tag_84:\n      mload(0x40)\n      dup1\n      swap2\n      sub\n      swap1\n      revert\n    tag_83:\n        /* \"contracts/Manager/CurrencyManager.sol\":968:1004  _whitelistedCurrencies.add(currency) */\n      tag_86\n        /* \"contracts/Manager/CurrencyManager.sol\":968:990  _whitelistedCurrencies */\n      0x01\n        /* \"contracts/Manager/CurrencyManager.sol\":995:1003  currency */\n      dup3\n        /* \"contracts/Manager/CurrencyManager.sol\":968:994  _whitelistedCurrencies.add */\n      tag_87\n        /* \"contracts/Manager/CurrencyManager.sol\":968:1004  _whitelistedCurrencies.add(currency) */\n      jump\t// in\n    tag_86:\n      pop\n        /* \"contracts/Manager/CurrencyManager.sol\":1020:1049  CurrencyWhitelisted(currency) */\n      mload(0x40)\n      0xffffffffffffffffffffffffffffffffffffffff\n      dup3\n      and\n      swap1\n      0x3cbf62b327efb2d06d36e16c10a2f5c00cf0568e2b805bd56969b15d27361078\n      swap1\n      0x00\n      swap1\n      log2\n        /* \"contracts/Manager/CurrencyManager.sol\":754:1056  function addCurrency(address currency) external override onlyOwner {... */\n      pop\n      jump\t// out\n        /* \"contracts/Manager/CurrencyManager.sol\":1195:1496  function removeCurrency(address currency) external override onlyOwner {... */\n    tag_39:\n        /* \"@openzeppelin/contracts/access/Ownable.sol\":1094:1107  _checkOwner() */\n      tag_90\n        /* \"@openzeppelin/contracts/access/Ownable.sol\":1094:1105  _checkOwner */\n      tag_51\n        /* \"@openzeppelin/contracts/access/Ownable.sol\":1094:1107  _checkOwner() */\n      jump\t// in\n    tag_90:\n        /* \"contracts/Manager/CurrencyManager.sol\":1337:1378  _whitelistedCurrencies.contains(currency) */\n      tag_92\n        /* \"contracts/Manager/CurrencyManager.sol\":1337:1359  _whitelistedCurrencies */\n      0x01\n        /* \"contracts/Manager/CurrencyManager.sol\":1369:1377  currency */\n      dup3\n        /* \"contracts/Manager/CurrencyManager.sol\":1337:1368  _whitelistedCurrencies.contains */\n      tag_48\n        /* \"contracts/Manager/CurrencyManager.sol\":1337:1378  _whitelistedCurrencies.contains(currency) */\n      jump\t// in\n    tag_92:\n        /* \"contracts/Manager/CurrencyManager.sol\":1329:1399  require(_whitelistedCurrencies.contains(currency), \" Not whitelisted\") */\n      tag_93\n      jumpi\n      mload(0x40)\n      0x08c379a000000000000000000000000000000000000000000000000000000000\n      dup2\n      mstore\n        /* \"#utility.yul\":3526:3528   */\n      0x20\n        /* \"contracts/Manager/CurrencyManager.sol\":1329:1399  require(_whitelistedCurrencies.contains(currency), \" Not whitelisted\") */\n      0x04\n      dup3\n      add\n        /* \"#utility.yul\":3508:3529   */\n      mstore\n        /* \"#utility.yul\":3565:3567   */\n      0x10\n        /* \"#utility.yul\":3545:3563   */\n      0x24\n      dup3\n      add\n        /* \"#utility.yul\":3538:3568   */\n      mstore\n        /* \"#utility.yul\":3604:3622   */\n      0x204e6f742077686974656c697374656400000000000000000000000000000000\n        /* \"#utility.yul\":3584:3602   */\n      0x44\n      dup3\n      add\n        /* \"#utility.yul\":3577:3623   */\n      mstore\n        /* \"#utility.yul\":3640:3658   */\n      0x64\n      add\n        /* \"contracts/Manager/CurrencyManager.sol\":1329:1399  require(_whitelistedCurrencies.contains(currency), \" Not whitelisted\") */\n      tag_84\n        /* \"#utility.yul\":3324:3664   */\n      jump\n        /* \"contracts/Manager/CurrencyManager.sol\":1329:1399  require(_whitelistedCurrencies.contains(currency), \" Not whitelisted\") */\n    tag_93:\n        /* \"contracts/Manager/CurrencyManager.sol\":1409:1448  _whitelistedCurrencies.remove(currency) */\n      tag_96\n        /* \"contracts/Manager/CurrencyManager.sol\":1409:1431  _whitelistedCurrencies */\n      0x01\n        /* \"contracts/Manager/CurrencyManager.sol\":1439:1447  currency */\n      dup3\n        /* \"contracts/Manager/CurrencyManager.sol\":1409:1438  _whitelistedCurrencies.remove */\n      tag_97\n        /* \"contracts/Manager/CurrencyManager.sol\":1409:1448  _whitelistedCurrencies.remove(currency) */\n      jump\t// in\n    tag_96:\n      pop\n        /* \"contracts/Manager/CurrencyManager.sol\":1464:1489  CurrencyRemoved(currency) */\n      mload(0x40)\n      0xffffffffffffffffffffffffffffffffffffffff\n      dup3\n      and\n      swap1\n      0xa40d69111be14f29022626d38310e47cc2d7f4cb728961509c2f65a4bee08c5b\n      swap1\n      0x00\n      swap1\n      log2\n        /* \"contracts/Manager/CurrencyManager.sol\":1195:1496  function removeCurrency(address currency) external override onlyOwner {... */\n      pop\n      jump\t// out\n        /* \"@openzeppelin/contracts/access/Ownable.sol\":2081:2279  function transferOwnership(address newOwner) public virtual onlyOwner {... */\n    tag_42:\n        /* \"@openzeppelin/contracts/access/Ownable.sol\":1094:1107  _checkOwner() */\n      tag_99\n        /* \"@openzeppelin/contracts/access/Ownable.sol\":1094:1105  _checkOwner */\n      tag_51\n        /* \"@openzeppelin/contracts/access/Ownable.sol\":1094:1107  _checkOwner() */\n      jump\t// in\n    tag_99:\n        /* \"@openzeppelin/contracts/access/Ownable.sol\":2169:2191  newOwner != address(0) */\n      0xffffffffffffffffffffffffffffffffffffffff\n      dup2\n      and\n        /* \"@openzeppelin/contracts/access/Ownable.sol\":2161:2234  require(newOwner != address(0), \"Ownable: new owner is the zero address\") */\n      tag_101\n      jumpi\n      mload(0x40)\n      0x08c379a000000000000000000000000000000000000000000000000000000000\n      dup2\n      mstore\n        /* \"#utility.yul\":3871:3873   */\n      0x20\n        /* \"@openzeppelin/contracts/access/Ownable.sol\":2161:2234  require(newOwner != address(0), \"Ownable: new owner is the zero address\") */\n      0x04\n      dup3\n      add\n        /* \"#utility.yul\":3853:3874   */\n      mstore\n        /* \"#utility.yul\":3910:3912   */\n      0x26\n        /* \"#utility.yul\":3890:3908   */\n      0x24\n      dup3\n      add\n        /* \"#utility.yul\":3883:3913   */\n      mstore\n        /* \"#utility.yul\":3949:3983   */\n      0x4f776e61626c653a206e6577206f776e657220697320746865207a65726f2061\n        /* \"#utility.yul\":3929:3947   */\n      0x44\n      dup3\n      add\n        /* \"#utility.yul\":3922:3984   */\n      mstore\n        /* \"#utility.yul\":4020:4028   */\n      0x6464726573730000000000000000000000000000000000000000000000000000\n        /* \"#utility.yul\":4000:4018   */\n      0x64\n      dup3\n      add\n        /* \"#utility.yul\":3993:4029   */\n      mstore\n        /* \"#utility.yul\":4046:4065   */\n      0x84\n      add\n        /* \"@openzeppelin/contracts/access/Ownable.sol\":2161:2234  require(newOwner != address(0), \"Ownable: new owner is the zero address\") */\n      tag_84\n        /* \"#utility.yul\":3669:4071   */\n      jump\n        /* \"@openzeppelin/contracts/access/Ownable.sol\":2161:2234  require(newOwner != address(0), \"Ownable: new owner is the zero address\") */\n    tag_101:\n        /* \"@openzeppelin/contracts/access/Ownable.sol\":2244:2272  _transferOwnership(newOwner) */\n      tag_104\n        /* \"@openzeppelin/contracts/access/Ownable.sol\":2263:2271  newOwner */\n      dup2\n        /* \"@openzeppelin/contracts/access/Ownable.sol\":2244:2262  _transferOwnership */\n      tag_54\n        /* \"@openzeppelin/contracts/access/Ownable.sol\":2244:2272  _transferOwnership(newOwner) */\n      jump\t// in\n    tag_104:\n        /* \"@openzeppelin/contracts/access/Ownable.sol\":2081:2279  function transferOwnership(address newOwner) public virtual onlyOwner {... */\n      pop\n      jump\t// out\n        /* \"@openzeppelin/contracts/utils/structs/EnumerableSet.sol\":8829:8944  function length(AddressSet storage set) internal view returns (uint256) {... */\n    tag_45:\n        /* \"@openzeppelin/contracts/utils/structs/EnumerableSet.sol\":8892:8899  uint256 */\n      0x00\n        /* \"@openzeppelin/contracts/utils/structs/EnumerableSet.sol\":8918:8937  _length(set._inner) */\n      tag_47\n        /* \"@openzeppelin/contracts/utils/structs/EnumerableSet.sol\":8926:8929  set */\n      dup3\n        /* \"@openzeppelin/contracts/utils/structs/EnumerableSet.sol\":4444:4462  set._values.length */\n      sload\n      swap1\n        /* \"@openzeppelin/contracts/utils/structs/EnumerableSet.sol\":4362:4469  function _length(Set storage set) private view returns (uint256) {... */\n      jump\n        /* \"@openzeppelin/contracts/utils/structs/EnumerableSet.sol\":8583:8748  function contains(AddressSet storage set, address value) internal view returns (bool) {... */\n    tag_48:\n        /* \"@openzeppelin/contracts/utils/structs/EnumerableSet.sol\":8716:8739  uint256(uint160(value)) */\n      0xffffffffffffffffffffffffffffffffffffffff\n      dup2\n      and\n        /* \"@openzeppelin/contracts/utils/structs/EnumerableSet.sol\":8663:8667  bool */\n      0x00\n        /* \"@openzeppelin/contracts/utils/structs/EnumerableSet.sol\":4250:4269  set._indexes[value] */\n      swap1\n      dup2\n      mstore\n        /* \"@openzeppelin/contracts/utils/structs/EnumerableSet.sol\":4250:4262  set._indexes */\n      0x01\n      dup4\n      add\n        /* \"@openzeppelin/contracts/utils/structs/EnumerableSet.sol\":4250:4269  set._indexes[value] */\n      0x20\n      mstore\n      0x40\n      dup2\n      keccak256\n      sload\n        /* \"@openzeppelin/contracts/utils/structs/EnumerableSet.sol\":4250:4274  set._indexes[value] != 0 */\n      iszero\n      iszero\n        /* \"@openzeppelin/contracts/utils/structs/EnumerableSet.sol\":8686:8741  _contains(set._inner, bytes32(uint256(uint160(value)))) */\n    tag_109:\n        /* \"@openzeppelin/contracts/utils/structs/EnumerableSet.sol\":8679:8741  return _contains(set._inner, bytes32(uint256(uint160(value)))) */\n      swap4\n        /* \"@openzeppelin/contracts/utils/structs/EnumerableSet.sol\":8583:8748  function contains(AddressSet storage set, address value) internal view returns (bool) {... */\n      swap3\n      pop\n      pop\n      pop\n      jump\t// out\n        /* \"@openzeppelin/contracts/access/Ownable.sol\":1359:1489  function _checkOwner() internal view virtual {... */\n    tag_51:\n        /* \"@openzeppelin/contracts/access/Ownable.sol\":1247:1254  address */\n      0x00\n        /* \"@openzeppelin/contracts/access/Ownable.sol\":1273:1279  _owner */\n      sload\n        /* \"@openzeppelin/contracts/access/Ownable.sol\":1422:1445  owner() == _msgSender() */\n      0xffffffffffffffffffffffffffffffffffffffff\n        /* \"@openzeppelin/contracts/access/Ownable.sol\":1273:1279  _owner */\n      and\n        /* \"@openzeppelin/contracts/utils/Context.sol\":719:729  msg.sender */\n      caller\n        /* \"@openzeppelin/contracts/access/Ownable.sol\":1422:1445  owner() == _msgSender() */\n      eq\n        /* \"@openzeppelin/contracts/access/Ownable.sol\":1414:1482  require(owner() == _msgSender(), \"Ownable: caller is not the owner\") */\n      tag_53\n      jumpi\n      mload(0x40)\n      0x08c379a000000000000000000000000000000000000000000000000000000000\n      dup2\n      mstore\n        /* \"#utility.yul\":4278:4280   */\n      0x20\n        /* \"@openzeppelin/contracts/access/Ownable.sol\":1414:1482  require(owner() == _msgSender(), \"Ownable: caller is not the owner\") */\n      0x04\n      dup3\n      add\n        /* \"#utility.yul\":4260:4281   */\n      dup2\n      swap1\n      mstore\n        /* \"#utility.yul\":4297:4315   */\n      0x24\n      dup3\n      add\n        /* \"#utility.yul\":4290:4320   */\n      mstore\n        /* \"#utility.yul\":4356:4390   */\n      0x4f776e61626c653a2063616c6c6572206973206e6f7420746865206f776e6572\n        /* \"#utility.yul\":4336:4354   */\n      0x44\n      dup3\n      add\n        /* \"#utility.yul\":4329:4391   */\n      mstore\n        /* \"#utility.yul\":4408:4426   */\n      0x64\n      add\n        /* \"@openzeppelin/contracts/access/Ownable.sol\":1414:1482  require(owner() == _msgSender(), \"Ownable: caller is not the owner\") */\n      tag_84\n        /* \"#utility.yul\":4076:4432   */\n      jump\n        /* \"@openzeppelin/contracts/access/Ownable.sol\":2433:2620  function _transferOwnership(address newOwner) internal virtual {... */\n    tag_54:\n        /* \"@openzeppelin/contracts/access/Ownable.sol\":2506:2522  address oldOwner */\n      0x00\n        /* \"@openzeppelin/contracts/access/Ownable.sol\":2525:2531  _owner */\n      dup1\n      sload\n      0xffffffffffffffffffffffffffffffffffffffff\n        /* \"@openzeppelin/contracts/access/Ownable.sol\":2541:2558  _owner = newOwner */\n      dup4\n      dup2\n      and\n      0xffffffffffffffffffffffff0000000000000000000000000000000000000000\n      dup4\n      and\n      dup2\n      or\n      dup5\n      sstore\n        /* \"@openzeppelin/contracts/access/Ownable.sol\":2573:2613  OwnershipTransferred(oldOwner, newOwner) */\n      mload(0x40)\n        /* \"@openzeppelin/contracts/access/Ownable.sol\":2525:2531  _owner */\n      swap2\n      swap1\n      swap3\n      and\n      swap3\n      dup4\n      swap2\n        /* \"@openzeppelin/contracts/access/Ownable.sol\":2573:2613  OwnershipTransferred(oldOwner, newOwner) */\n      0x8be0079c531659141344cd1fd0a4f28419497f9722a3daafe3b4186f6b6457e0\n      swap2\n        /* \"@openzeppelin/contracts/access/Ownable.sol\":2506:2522  address oldOwner */\n      swap1\n        /* \"@openzeppelin/contracts/access/Ownable.sol\":2573:2613  OwnershipTransferred(oldOwner, newOwner) */\n      log3\n        /* \"@openzeppelin/contracts/access/Ownable.sol\":2496:2620  {... */\n      pop\n        /* \"@openzeppelin/contracts/access/Ownable.sol\":2433:2620  function _transferOwnership(address newOwner) internal virtual {... */\n      pop\n      jump\t// out\n        /* \"@openzeppelin/contracts/utils/structs/EnumerableSet.sol\":9286:9442  function at(AddressSet storage set, uint256 index) internal view returns (address) {... */\n    tag_72:\n        /* \"@openzeppelin/contracts/utils/structs/EnumerableSet.sol\":9360:9367  address */\n      0x00\n        /* \"@openzeppelin/contracts/utils/structs/EnumerableSet.sol\":9410:9432  _at(set._inner, index) */\n      tag_109\n        /* \"@openzeppelin/contracts/utils/structs/EnumerableSet.sol\":9414:9417  set */\n      dup4\n        /* \"@openzeppelin/contracts/utils/structs/EnumerableSet.sol\":9426:9431  index */\n      dup4\n        /* \"@openzeppelin/contracts/utils/structs/EnumerableSet.sol\":9410:9413  _at */\n      tag_121\n        /* \"@openzeppelin/contracts/utils/structs/EnumerableSet.sol\":9410:9432  _at(set._inner, index) */\n      jump\t// in\n        /* \"@openzeppelin/contracts/utils/structs/EnumerableSet.sol\":8028:8178  function add(AddressSet storage set, address value) internal returns (bool) {... */\n    tag_87:\n        /* \"@openzeppelin/contracts/utils/structs/EnumerableSet.sol\":8098:8102  bool */\n      0x00\n        /* \"@openzeppelin/contracts/utils/structs/EnumerableSet.sol\":8121:8171  _add(set._inner, bytes32(uint256(uint160(value)))) */\n      tag_109\n        /* \"@openzeppelin/contracts/utils/structs/EnumerableSet.sol\":8126:8129  set */\n      dup4\n        /* \"@openzeppelin/contracts/utils/structs/EnumerableSet.sol\":8146:8169  uint256(uint160(value)) */\n      0xffffffffffffffffffffffffffffffffffffffff\n      dup5\n      and\n        /* \"@openzeppelin/contracts/utils/structs/EnumerableSet.sol\":8121:8125  _add */\n      tag_124\n        /* \"@openzeppelin/contracts/utils/structs/EnumerableSet.sol\":8121:8171  _add(set._inner, bytes32(uint256(uint160(value)))) */\n      jump\t// in\n        /* \"@openzeppelin/contracts/utils/structs/EnumerableSet.sol\":8346:8502  function remove(AddressSet storage set, address value) internal returns (bool) {... */\n    tag_97:\n        /* \"@openzeppelin/contracts/utils/structs/EnumerableSet.sol\":8419:8423  bool */\n      0x00\n        /* \"@openzeppelin/contracts/utils/structs/EnumerableSet.sol\":8442:8495  _remove(set._inner, bytes32(uint256(uint160(value)))) */\n      tag_109\n        /* \"@openzeppelin/contracts/utils/structs/EnumerableSet.sol\":8450:8453  set */\n      dup4\n        /* \"@openzeppelin/contracts/utils/structs/EnumerableSet.sol\":8470:8493  uint256(uint160(value)) */\n      0xffffffffffffffffffffffffffffffffffffffff\n      dup5\n      and\n        /* \"@openzeppelin/contracts/utils/structs/EnumerableSet.sol\":8442:8449  _remove */\n      tag_127\n        /* \"@openzeppelin/contracts/utils/structs/EnumerableSet.sol\":8442:8495  _remove(set._inner, bytes32(uint256(uint160(value)))) */\n      jump\t// in\n        /* \"@openzeppelin/contracts/utils/structs/EnumerableSet.sol\":4811:4929  function _at(Set storage set, uint256 index) private view returns (bytes32) {... */\n    tag_121:\n        /* \"@openzeppelin/contracts/utils/structs/EnumerableSet.sol\":4878:4885  bytes32 */\n      0x00\n        /* \"@openzeppelin/contracts/utils/structs/EnumerableSet.sol\":4904:4907  set */\n      dup3\n        /* \"@openzeppelin/contracts/utils/structs/EnumerableSet.sol\":4904:4915  set._values */\n      0x00\n      add\n        /* \"@openzeppelin/contracts/utils/structs/EnumerableSet.sol\":4916:4921  index */\n      dup3\n        /* \"@openzeppelin/contracts/utils/structs/EnumerableSet.sol\":4904:4922  set._values[index] */\n      dup2\n      sload\n      dup2\n      lt\n      tag_133\n      jumpi\n      tag_133\n      tag_75\n      jump\t// in\n    tag_133:\n      swap1\n      0x00\n      mstore\n      keccak256(0x00, 0x20)\n      add\n      sload\n        /* \"@openzeppelin/contracts/utils/structs/EnumerableSet.sol\":4897:4922  return set._values[index] */\n      swap1\n      pop\n        /* \"@openzeppelin/contracts/utils/structs/EnumerableSet.sol\":4811:4929  function _at(Set storage set, uint256 index) private view returns (bytes32) {... */\n      swap3\n      swap2\n      pop\n      pop\n      jump\t// out\n        /* \"@openzeppelin/contracts/utils/structs/EnumerableSet.sol\":2113:2517  function _add(Set storage set, bytes32 value) private returns (bool) {... */\n    tag_124:\n        /* \"@openzeppelin/contracts/utils/structs/EnumerableSet.sol\":2176:2180  bool */\n      0x00\n        /* \"@openzeppelin/contracts/utils/structs/EnumerableSet.sol\":4250:4269  set._indexes[value] */\n      dup2\n      dup2\n      mstore\n        /* \"@openzeppelin/contracts/utils/structs/EnumerableSet.sol\":4250:4262  set._indexes */\n      0x01\n      dup4\n      add\n        /* \"@openzeppelin/contracts/utils/structs/EnumerableSet.sol\":4250:4269  set._indexes[value] */\n      0x20\n      mstore\n      0x40\n      dup2\n      keccak256\n      sload\n        /* \"@openzeppelin/contracts/utils/structs/EnumerableSet.sol\":2192:2511  if (!_contains(set, value)) {... */\n      tag_137\n      jumpi\n      pop\n        /* \"@openzeppelin/contracts/utils/structs/EnumerableSet.sol\":2234:2257  set._values.push(value) */\n      dup2\n      sload\n      0x01\n      dup2\n      dup2\n      add\n      dup5\n      sstore\n        /* \"@openzeppelin/contracts/utils/structs/EnumerableSet.sol\":2234:2245  set._values */\n      0x00\n        /* \"@openzeppelin/contracts/utils/structs/EnumerableSet.sol\":2234:2257  set._values.push(value) */\n      dup5\n      dup2\n      mstore\n      0x20\n      dup1\n      dup3\n      keccak256\n      swap1\n      swap4\n      add\n      dup5\n      swap1\n      sstore\n        /* \"@openzeppelin/contracts/utils/structs/EnumerableSet.sol\":2414:2432  set._values.length */\n      dup5\n      sload\n        /* \"@openzeppelin/contracts/utils/structs/EnumerableSet.sol\":2392:2411  set._indexes[value] */\n      dup5\n      dup3\n      mstore\n        /* \"@openzeppelin/contracts/utils/structs/EnumerableSet.sol\":2392:2404  set._indexes */\n      dup3\n      dup7\n      add\n        /* \"@openzeppelin/contracts/utils/structs/EnumerableSet.sol\":2392:2411  set._indexes[value] */\n      swap1\n      swap4\n      mstore\n      0x40\n      swap1\n      keccak256\n        /* \"@openzeppelin/contracts/utils/structs/EnumerableSet.sol\":2392:2432  set._indexes[value] = set._values.length */\n      swap2\n      swap1\n      swap2\n      sstore\n        /* \"@openzeppelin/contracts/utils/structs/EnumerableSet.sol\":2446:2457  return true */\n      jump(tag_47)\n        /* \"@openzeppelin/contracts/utils/structs/EnumerableSet.sol\":2192:2511  if (!_contains(set, value)) {... */\n    tag_137:\n      pop\n        /* \"@openzeppelin/contracts/utils/structs/EnumerableSet.sol\":2495:2500  false */\n      0x00\n        /* \"@openzeppelin/contracts/utils/structs/EnumerableSet.sol\":2488:2500  return false */\n      jump(tag_47)\n        /* \"@openzeppelin/contracts/utils/structs/EnumerableSet.sol\":2685:4073  function _remove(Set storage set, bytes32 value) private returns (bool) {... */\n    tag_127:\n        /* \"@openzeppelin/contracts/utils/structs/EnumerableSet.sol\":2751:2755  bool */\n      0x00\n        /* \"@openzeppelin/contracts/utils/structs/EnumerableSet.sol\":2888:2907  set._indexes[value] */\n      dup2\n      dup2\n      mstore\n        /* \"@openzeppelin/contracts/utils/structs/EnumerableSet.sol\":2888:2900  set._indexes */\n      0x01\n      dup4\n      add\n        /* \"@openzeppelin/contracts/utils/structs/EnumerableSet.sol\":2888:2907  set._indexes[value] */\n      0x20\n      mstore\n      0x40\n      dup2\n      keccak256\n      sload\n        /* \"@openzeppelin/contracts/utils/structs/EnumerableSet.sol\":2922:2937  valueIndex != 0 */\n      dup1\n      iszero\n        /* \"@openzeppelin/contracts/utils/structs/EnumerableSet.sol\":2918:4067  if (valueIndex != 0) {... */\n      tag_141\n      jumpi\n        /* \"@openzeppelin/contracts/utils/structs/EnumerableSet.sol\":3291:3312  uint256 toDeleteIndex */\n      0x00\n        /* \"@openzeppelin/contracts/utils/structs/EnumerableSet.sol\":3315:3329  valueIndex - 1 */\n      tag_142\n        /* \"@openzeppelin/contracts/utils/structs/EnumerableSet.sol\":3328:3329  1 */\n      0x01\n        /* \"@openzeppelin/contracts/utils/structs/EnumerableSet.sol\":3315:3325  valueIndex */\n      dup4\n        /* \"@openzeppelin/contracts/utils/structs/EnumerableSet.sol\":3315:3329  valueIndex - 1 */\n      tag_58\n      jump\t// in\n    tag_142:\n        /* \"@openzeppelin/contracts/utils/structs/EnumerableSet.sol\":3363:3381  set._values.length */\n      dup6\n      sload\n        /* \"@openzeppelin/contracts/utils/structs/EnumerableSet.sol\":3291:3329  uint256 toDeleteIndex = valueIndex - 1 */\n      swap1\n      swap2\n      pop\n        /* \"@openzeppelin/contracts/utils/structs/EnumerableSet.sol\":3343:3360  uint256 lastIndex */\n      0x00\n      swap1\n        /* \"@openzeppelin/contracts/utils/structs/EnumerableSet.sol\":3363:3385  set._values.length - 1 */\n      tag_143\n      swap1\n        /* \"@openzeppelin/contracts/utils/structs/EnumerableSet.sol\":3384:3385  1 */\n      0x01\n      swap1\n        /* \"@openzeppelin/contracts/utils/structs/EnumerableSet.sol\":3363:3385  set._values.length - 1 */\n      tag_58\n      jump\t// in\n    tag_143:\n        /* \"@openzeppelin/contracts/utils/structs/EnumerableSet.sol\":3343:3385  uint256 lastIndex = set._values.length - 1 */\n      swap1\n      pop\n        /* \"@openzeppelin/contracts/utils/structs/EnumerableSet.sol\":3417:3430  toDeleteIndex */\n      dup2\n        /* \"@openzeppelin/contracts/utils/structs/EnumerableSet.sol\":3404:3413  lastIndex */\n      dup2\n        /* \"@openzeppelin/contracts/utils/structs/EnumerableSet.sol\":3404:3430  lastIndex != toDeleteIndex */\n      eq\n        /* \"@openzeppelin/contracts/utils/structs/EnumerableSet.sol\":3400:3798  if (lastIndex != toDeleteIndex) {... */\n      tag_144\n      jumpi\n        /* \"@openzeppelin/contracts/utils/structs/EnumerableSet.sol\":3450:3467  bytes32 lastValue */\n      0x00\n        /* \"@openzeppelin/contracts/utils/structs/EnumerableSet.sol\":3470:3473  set */\n      dup7\n        /* \"@openzeppelin/contracts/utils/structs/EnumerableSet.sol\":3470:3481  set._values */\n      0x00\n      add\n        /* \"@openzeppelin/contracts/utils/structs/EnumerableSet.sol\":3482:3491  lastIndex */\n      dup3\n        /* \"@openzeppelin/contracts/utils/structs/EnumerableSet.sol\":3470:3492  set._values[lastIndex] */\n      dup2\n      sload\n      dup2\n      lt\n      tag_146\n      jumpi\n      tag_146\n      tag_75\n      jump\t// in\n    tag_146:\n      swap1\n      0x00\n      mstore\n      keccak256(0x00, 0x20)\n      add\n      sload\n        /* \"@openzeppelin/contracts/utils/structs/EnumerableSet.sol\":3450:3492  bytes32 lastValue = set._values[lastIndex] */\n      swap1\n      pop\n        /* \"@openzeppelin/contracts/utils/structs/EnumerableSet.sol\":3621:3630  lastValue */\n      dup1\n        /* \"@openzeppelin/contracts/utils/structs/EnumerableSet.sol\":3592:3595  set */\n      dup8\n        /* \"@openzeppelin/contracts/utils/structs/EnumerableSet.sol\":3592:3603  set._values */\n      0x00\n      add\n        /* \"@openzeppelin/contracts/utils/structs/EnumerableSet.sol\":3604:3617  toDeleteIndex */\n      dup5\n        /* \"@openzeppelin/contracts/utils/structs/EnumerableSet.sol\":3592:3618  set._values[toDeleteIndex] */\n      dup2\n      sload\n      dup2\n      lt\n      tag_149\n      jumpi\n      tag_149\n      tag_75\n      jump\t// in\n    tag_149:\n      0x00\n      swap2\n      dup3\n      mstore\n      0x20\n      dup1\n      dup4\n      keccak256\n      swap1\n      swap2\n      add\n        /* \"@openzeppelin/contracts/utils/structs/EnumerableSet.sol\":3592:3630  set._values[toDeleteIndex] = lastValue */\n      swap3\n      swap1\n      swap3\n      sstore\n        /* \"@openzeppelin/contracts/utils/structs/EnumerableSet.sol\":3704:3727  set._indexes[lastValue] */\n      swap2\n      dup3\n      mstore\n        /* \"@openzeppelin/contracts/utils/structs/EnumerableSet.sol\":3704:3716  set._indexes */\n      0x01\n      dup9\n      add\n        /* \"@openzeppelin/contracts/utils/structs/EnumerableSet.sol\":3704:3727  set._indexes[lastValue] */\n      swap1\n      mstore\n      0x40\n      swap1\n      keccak256\n        /* \"@openzeppelin/contracts/utils/structs/EnumerableSet.sol\":3704:3740  set._indexes[lastValue] = valueIndex */\n      dup4\n      swap1\n      sstore\n        /* \"@openzeppelin/contracts/utils/structs/EnumerableSet.sol\":3400:3798  if (lastIndex != toDeleteIndex) {... */\n    tag_144:\n        /* \"@openzeppelin/contracts/utils/structs/EnumerableSet.sol\":3876:3893  set._values.pop() */\n      dup6\n      sload\n        /* \"@openzeppelin/contracts/utils/structs/EnumerableSet.sol\":3876:3879  set */\n      dup7\n      swap1\n        /* \"@openzeppelin/contracts/utils/structs/EnumerableSet.sol\":3876:3893  set._values.pop() */\n      dup1\n      tag_152\n      jumpi\n      tag_152\n      tag_153\n      jump\t// in\n    tag_152:\n      0x01\n      swap1\n      sub\n      dup2\n      dup2\n      swap1\n      0x00\n      mstore\n      keccak256(0x00, 0x20)\n      add\n      0x00\n      swap1\n      sstore\n      swap1\n      sstore\n        /* \"@openzeppelin/contracts/utils/structs/EnumerableSet.sol\":3968:3971  set */\n      dup6\n        /* \"@openzeppelin/contracts/utils/structs/EnumerableSet.sol\":3968:3980  set._indexes */\n      0x01\n      add\n        /* \"@openzeppelin/contracts/utils/structs/EnumerableSet.sol\":3968:3987  set._indexes[value] */\n      0x00\n        /* \"@openzeppelin/contracts/utils/structs/EnumerableSet.sol\":3981:3986  value */\n      dup7\n        /* \"@openzeppelin/contracts/utils/structs/EnumerableSet.sol\":3968:3987  set._indexes[value] */\n      dup2\n      mstore\n      0x20\n      add\n      swap1\n      dup2\n      mstore\n      0x20\n      add\n      0x00\n      keccak256\n        /* \"@openzeppelin/contracts/utils/structs/EnumerableSet.sol\":3961:3987  delete set._indexes[value] */\n      0x00\n      swap1\n      sstore\n        /* \"@openzeppelin/contracts/utils/structs/EnumerableSet.sol\":4009:4013  true */\n      0x01\n        /* \"@openzeppelin/contracts/utils/structs/EnumerableSet.sol\":4002:4013  return true */\n      swap4\n      pop\n      pop\n      pop\n      pop\n      jump(tag_47)\n        /* \"@openzeppelin/contracts/utils/structs/EnumerableSet.sol\":2918:4067  if (valueIndex != 0) {... */\n    tag_141:\n        /* \"@openzeppelin/contracts/utils/structs/EnumerableSet.sol\":4051:4056  false */\n      0x00\n        /* \"@openzeppelin/contracts/utils/structs/EnumerableSet.sol\":4044:4056  return false */\n      swap2\n      pop\n      pop\n      jump(tag_47)\n        /* \"#utility.yul\":196:505   */\n    tag_18:\n        /* \"#utility.yul\":255:261   */\n      0x00\n        /* \"#utility.yul\":308:310   */\n      0x20\n        /* \"#utility.yul\":296:305   */\n      dup3\n        /* \"#utility.yul\":287:294   */\n      dup5\n        /* \"#utility.yul\":283:306   */\n      sub\n        /* \"#utility.yul\":279:311   */\n      slt\n        /* \"#utility.yul\":276:328   */\n      iszero\n      tag_160\n      jumpi\n        /* \"#utility.yul\":324:325   */\n      0x00\n        /* \"#utility.yul\":321:322   */\n      dup1\n        /* \"#utility.yul\":314:326   */\n      revert\n        /* \"#utility.yul\":276:328   */\n    tag_160:\n        /* \"#utility.yul\":363:372   */\n      dup2\n        /* \"#utility.yul\":350:373   */\n      calldataload\n        /* \"#utility.yul\":413:455   */\n      0xffffffffffffffffffffffffffffffffffffffff\n        /* \"#utility.yul\":406:411   */\n      dup2\n        /* \"#utility.yul\":402:456   */\n      and\n        /* \"#utility.yul\":395:400   */\n      dup2\n        /* \"#utility.yul\":392:457   */\n      eq\n        /* \"#utility.yul\":382:475   */\n      tag_109\n      jumpi\n        /* \"#utility.yul\":471:472   */\n      0x00\n        /* \"#utility.yul\":468:469   */\n      dup1\n        /* \"#utility.yul\":461:473   */\n      revert\n        /* \"#utility.yul\":702:950   */\n    tag_26:\n        /* \"#utility.yul\":770:776   */\n      0x00\n        /* \"#utility.yul\":778:784   */\n      dup1\n        /* \"#utility.yul\":831:833   */\n      0x40\n        /* \"#utility.yul\":819:828   */\n      dup4\n        /* \"#utility.yul\":810:817   */\n      dup6\n        /* \"#utility.yul\":806:829   */\n      sub\n        /* \"#utility.yul\":802:834   */\n      slt\n        /* \"#utility.yul\":799:851   */\n      iszero\n      tag_164\n      jumpi\n        /* \"#utility.yul\":847:848   */\n      0x00\n        /* \"#utility.yul\":844:845   */\n      dup1\n        /* \"#utility.yul\":837:849   */\n      revert\n        /* \"#utility.yul\":799:851   */\n    tag_164:\n      pop\n      pop\n        /* \"#utility.yul\":870:893   */\n      dup1\n      calldataload\n      swap3\n        /* \"#utility.yul\":940:942   */\n      0x20\n        /* \"#utility.yul\":925:943   */\n      swap1\n      swap2\n      add\n        /* \"#utility.yul\":912:944   */\n      calldataload\n      swap2\n      pop\n        /* \"#utility.yul\":702:950   */\n      jump\t// out\n        /* \"#utility.yul\":955:1709   */\n    tag_29:\n        /* \"#utility.yul\":1173:1175   */\n      0x40\n        /* \"#utility.yul\":1185:1206   */\n      dup1\n      dup3\n      mstore\n        /* \"#utility.yul\":1255:1268   */\n      dup4\n      mload\n        /* \"#utility.yul\":1158:1176   */\n      swap1\n      dup3\n      add\n        /* \"#utility.yul\":1277:1299   */\n      dup2\n      swap1\n      mstore\n        /* \"#utility.yul\":1125:1129   */\n      0x00\n      swap1\n        /* \"#utility.yul\":1352:1356   */\n      0x20\n      swap1\n        /* \"#utility.yul\":1330:1332   */\n      0x60\n        /* \"#utility.yul\":1315:1333   */\n      dup5\n      add\n      swap1\n        /* \"#utility.yul\":1379:1394   */\n      dup3\n      dup8\n      add\n        /* \"#utility.yul\":1125:1129   */\n      dup5\n        /* \"#utility.yul\":1422:1640   */\n    tag_166:\n        /* \"#utility.yul\":1436:1442   */\n      dup3\n        /* \"#utility.yul\":1433:1434   */\n      dup2\n        /* \"#utility.yul\":1430:1443   */\n      lt\n        /* \"#utility.yul\":1422:1640   */\n      iszero\n      tag_168\n      jumpi\n        /* \"#utility.yul\":1501:1514   */\n      dup2\n      mload\n        /* \"#utility.yul\":1516:1558   */\n      0xffffffffffffffffffffffffffffffffffffffff\n        /* \"#utility.yul\":1497:1559   */\n      and\n        /* \"#utility.yul\":1485:1560   */\n      dup5\n      mstore\n        /* \"#utility.yul\":1580:1592   */\n      swap3\n      dup5\n      add\n      swap3\n        /* \"#utility.yul\":1615:1630   */\n      swap1\n      dup5\n      add\n      swap1\n        /* \"#utility.yul\":1458:1459   */\n      0x01\n        /* \"#utility.yul\":1451:1460   */\n      add\n        /* \"#utility.yul\":1422:1640   */\n      jump(tag_166)\n    tag_168:\n      pop\n      pop\n      pop\n        /* \"#utility.yul\":1676:1694   */\n      swap3\n      add\n        /* \"#utility.yul\":1669:1703   */\n      swap3\n      swap1\n      swap3\n      mstore\n        /* \"#utility.yul\":1657:1660   */\n      swap3\n        /* \"#utility.yul\":955:1709   */\n      swap2\n      pop\n      pop\n      jump\t// out\n        /* \"#utility.yul\":1945:2129   */\n    tag_156:\n        /* \"#utility.yul\":1997:2074   */\n      0x4e487b7100000000000000000000000000000000000000000000000000000000\n        /* \"#utility.yul\":1994:1995   */\n      0x00\n        /* \"#utility.yul\":1987:2075   */\n      mstore\n        /* \"#utility.yul\":2094:2098   */\n      0x11\n        /* \"#utility.yul\":2091:2092   */\n      0x04\n        /* \"#utility.yul\":2084:2099   */\n      mstore\n        /* \"#utility.yul\":2118:2122   */\n      0x24\n        /* \"#utility.yul\":2115:2116   */\n      0x00\n        /* \"#utility.yul\":2108:2123   */\n      revert\n        /* \"#utility.yul\":2134:2262   */\n    tag_58:\n        /* \"#utility.yul\":2201:2210   */\n      dup2\n      dup2\n      sub\n        /* \"#utility.yul\":2222:2233   */\n      dup2\n      dup2\n      gt\n        /* \"#utility.yul\":2219:2256   */\n      iszero\n      tag_47\n      jumpi\n        /* \"#utility.yul\":2236:2254   */\n      tag_47\n      tag_156\n      jump\t// in\n        /* \"#utility.yul\":2267:2451   */\n    tag_64:\n        /* \"#utility.yul\":2319:2396   */\n      0x4e487b7100000000000000000000000000000000000000000000000000000000\n        /* \"#utility.yul\":2316:2317   */\n      0x00\n        /* \"#utility.yul\":2309:2397   */\n      mstore\n        /* \"#utility.yul\":2416:2420   */\n      0x41\n        /* \"#utility.yul\":2413:2414   */\n      0x04\n        /* \"#utility.yul\":2406:2421   */\n      mstore\n        /* \"#utility.yul\":2440:2444   */\n      0x24\n        /* \"#utility.yul\":2437:2438   */\n      0x00\n        /* \"#utility.yul\":2430:2445   */\n      revert\n        /* \"#utility.yul\":2456:2581   */\n    tag_71:\n        /* \"#utility.yul\":2521:2530   */\n      dup1\n      dup3\n      add\n        /* \"#utility.yul\":2542:2552   */\n      dup1\n      dup3\n      gt\n        /* \"#utility.yul\":2539:2575   */\n      iszero\n      tag_47\n      jumpi\n        /* \"#utility.yul\":2555:2573   */\n      tag_47\n      tag_156\n      jump\t// in\n        /* \"#utility.yul\":2586:2770   */\n    tag_75:\n        /* \"#utility.yul\":2638:2715   */\n      0x4e487b7100000000000000000000000000000000000000000000000000000000\n        /* \"#utility.yul\":2635:2636   */\n      0x00\n        /* \"#utility.yul\":2628:2716   */\n      mstore\n        /* \"#utility.yul\":2735:2739   */\n      0x32\n        /* \"#utility.yul\":2732:2733   */\n      0x04\n        /* \"#utility.yul\":2725:2740   */\n      mstore\n        /* \"#utility.yul\":2759:2763   */\n      0x24\n        /* \"#utility.yul\":2756:2757   */\n      0x00\n        /* \"#utility.yul\":2749:2764   */\n      revert\n        /* \"#utility.yul\":2775:2970   */\n    tag_77:\n        /* \"#utility.yul\":2814:2817   */\n      0x00\n        /* \"#utility.yul\":2845:2911   */\n      0xffffffffffffffffffffffffffffffffffffffffffffffffffffffffffffffff\n        /* \"#utility.yul\":2838:2843   */\n      dup3\n        /* \"#utility.yul\":2835:2912   */\n      sub\n        /* \"#utility.yul\":2832:2935   */\n      tag_181\n      jumpi\n        /* \"#utility.yul\":2915:2933   */\n      tag_181\n      tag_156\n      jump\t// in\n    tag_181:\n      pop\n        /* \"#utility.yul\":2962:2963   */\n      0x01\n        /* \"#utility.yul\":2951:2964   */\n      add\n      swap1\n        /* \"#utility.yul\":2775:2970   */\n      jump\t// out\n        /* \"#utility.yul\":4437:4621   */\n    tag_153:\n        /* \"#utility.yul\":4489:4566   */\n      0x4e487b7100000000000000000000000000000000000000000000000000000000\n        /* \"#utility.yul\":4486:4487   */\n      0x00\n        /* \"#utility.yul\":4479:4567   */\n      mstore\n        /* \"#utility.yul\":4586:4590   */\n      0x31\n        /* \"#utility.yul\":4583:4584   */\n      0x04\n        /* \"#utility.yul\":4576:4591   */\n      mstore\n        /* \"#utility.yul\":4610:4614   */\n      0x24\n        /* \"#utility.yul\":4607:4608   */\n      0x00\n        /* \"#utility.yul\":4600:4615   */\n      revert\n\n    auxdata: 0xa26469706673582212204e3a19e0394da9da2cc869e3362e5d3eb6b2f915c71b1a2512298edf121f03f564736f6c63430008110033\n}\n",
				"bytecode": {
					"linkReferences": {},
					"object": "608060405234801561001057600080fd5b5061001a3361001f565b61006f565b600080546001600160a01b038381166001600160a01b0319831681178455604051919092169283917f8be0079c531659141344cd1fd0a4f28419497f9722a3daafe3b4186f6b6457e09190a35050565b6109d48061007e6000396000f3fe608060405234801561001057600080fd5b50600436106100885760003560e01c80638ab234b61161005b5780638ab234b6146100f65780638da5cb5b14610109578063c5d3a10714610131578063f2fde38b1461014457600080fd5b80631facfd9c1461008d57806343b938c5146100a8578063715018a6146100cb57806385f39b0a146100d5575b600080fd5b610095610157565b6040519081526020015b60405180910390f35b6100bb6100b63660046107ce565b610168565b604051901515815260200161009f565b6100d361017b565b005b6100e86100e3366004610804565b61018f565b60405161009f929190610826565b6100d36101043660046107ce565b610291565b60005460405173ffffffffffffffffffffffffffffffffffffffff909116815260200161009f565b6100d361013f3660046107ce565b610360565b6100d36101523660046107ce565b610429565b600061016360016104e0565b905090565b60006101756001836104ea565b92915050565b61018361051c565b61018d600061059d565b565b60606000828461019f60016104e0565b6101a991906108b3565b8111156101c857846101bb60016104e0565b6101c591906108b3565b90505b60008167ffffffffffffffff8111156101e3576101e36108c6565b60405190808252806020026020018201604052801561020c578160200160208202803683370190505b50905060005b828110156102785761022f61022782896108f5565b600190610612565b82828151811061024157610241610908565b73ffffffffffffffffffffffffffffffffffffffff909216602092830291909101909101528061027081610937565b915050610212565b508061028483886108f5565b9350935050509250929050565b61029961051c565b6102a46001826104ea565b15610310576040517f08c379a000000000000000000000000000000000000000000000000000000000815260206004820152601460248201527f20416c72656164792077686974656c697374656400000000000000000000000060448201526064015b60405180910390fd5b61031b60018261061e565b5060405173ffffffffffffffffffffffffffffffffffffffff8216907f3cbf62b327efb2d06d36e16c10a2f5c00cf0568e2b805bd56969b15d2736107890600090a250565b61036861051c565b6103736001826104ea565b6103d9576040517f08c379a000000000000000000000000000000000000000000000000000000000815260206004820152601060248201527f204e6f742077686974656c6973746564000000000000000000000000000000006044820152606401610307565b6103e4600182610640565b5060405173ffffffffffffffffffffffffffffffffffffffff8216907fa40d69111be14f29022626d38310e47cc2d7f4cb728961509c2f65a4bee08c5b90600090a250565b61043161051c565b73ffffffffffffffffffffffffffffffffffffffff81166104d4576040517f08c379a000000000000000000000000000000000000000000000000000000000815260206004820152602660248201527f4f776e61626c653a206e6577206f776e657220697320746865207a65726f206160448201527f64647265737300000000000000000000000000000000000000000000000000006064820152608401610307565b6104dd8161059d565b50565b6000610175825490565b73ffffffffffffffffffffffffffffffffffffffff8116600090815260018301602052604081205415155b9392505050565b60005473ffffffffffffffffffffffffffffffffffffffff16331461018d576040517f08c379a000000000000000000000000000000000000000000000000000000000815260206004820181905260248201527f4f776e61626c653a2063616c6c6572206973206e6f7420746865206f776e65726044820152606401610307565b6000805473ffffffffffffffffffffffffffffffffffffffff8381167fffffffffffffffffffffffff0000000000000000000000000000000000000000831681178455604051919092169283917f8be0079c531659141344cd1fd0a4f28419497f9722a3daafe3b4186f6b6457e09190a35050565b60006105158383610662565b60006105158373ffffffffffffffffffffffffffffffffffffffff841661068c565b60006105158373ffffffffffffffffffffffffffffffffffffffff84166106db565b600082600001828154811061067957610679610908565b9060005260206000200154905092915050565b60008181526001830160205260408120546106d357508154600181810184556000848152602080822090930184905584548482528286019093526040902091909155610175565b506000610175565b600081815260018301602052604081205480156107c45760006106ff6001836108b3565b8554909150600090610713906001906108b3565b905081811461077857600086600001828154811061073357610733610908565b906000526020600020015490508087600001848154811061075657610756610908565b6000918252602080832090910192909255918252600188019052604090208390555b85548690806107895761078961096f565b600190038181906000526020600020016000905590558560010160008681526020019081526020016000206000905560019350505050610175565b6000915050610175565b6000602082840312156107e057600080fd5b813573ffffffffffffffffffffffffffffffffffffffff8116811461051557600080fd5b6000806040838503121561081757600080fd5b50508035926020909101359150565b604080825283519082018190526000906020906060840190828701845b8281101561087557815173ffffffffffffffffffffffffffffffffffffffff1684529284019290840190600101610843565b50505092019290925292915050565b7f4e487b7100000000000000000000000000000000000000000000000000000000600052601160045260246000fd5b8181038181111561017557610175610884565b7f4e487b7100000000000000000000000000000000000000000000000000000000600052604160045260246000fd5b8082018082111561017557610175610884565b7f4e487b7100000000000000000000000000000000000000000000000000000000600052603260045260246000fd5b60007fffffffffffffffffffffffffffffffffffffffffffffffffffffffffffffffff820361096857610968610884565b5060010190565b7f4e487b7100000000000000000000000000000000000000000000000000000000600052603160045260246000fdfea26469706673582212204e3a19e0394da9da2cc869e3362e5d3eb6b2f915c71b1a2512298edf121f03f564736f6c63430008110033",
					"opcodes": "PUSH1 0x80 PUSH1 0x40 MSTORE CALLVALUE DUP1 ISZERO PUSH2 0x10 JUMPI PUSH1 0x0 DUP1 REVERT JUMPDEST POP PUSH2 0x1A CALLER PUSH2 0x1F JUMP JUMPDEST PUSH2 0x6F JUMP JUMPDEST PUSH1 0x0 DUP1 SLOAD PUSH1 0x1 PUSH1 0x1 PUSH1 0xA0 SHL SUB DUP4 DUP2 AND PUSH1 0x1 PUSH1 0x1 PUSH1 0xA0 SHL SUB NOT DUP4 AND DUP2 OR DUP5 SSTORE PUSH1 0x40 MLOAD SWAP2 SWAP1 SWAP3 AND SWAP3 DUP4 SWAP2 PUSH32 0x8BE0079C531659141344CD1FD0A4F28419497F9722A3DAAFE3B4186F6B6457E0 SWAP2 SWAP1 LOG3 POP POP JUMP JUMPDEST PUSH2 0x9D4 DUP1 PUSH2 0x7E PUSH1 0x0 CODECOPY PUSH1 0x0 RETURN INVALID PUSH1 0x80 PUSH1 0x40 MSTORE CALLVALUE DUP1 ISZERO PUSH2 0x10 JUMPI PUSH1 0x0 DUP1 REVERT JUMPDEST POP PUSH1 0x4 CALLDATASIZE LT PUSH2 0x88 JUMPI PUSH1 0x0 CALLDATALOAD PUSH1 0xE0 SHR DUP1 PUSH4 0x8AB234B6 GT PUSH2 0x5B JUMPI DUP1 PUSH4 0x8AB234B6 EQ PUSH2 0xF6 JUMPI DUP1 PUSH4 0x8DA5CB5B EQ PUSH2 0x109 JUMPI DUP1 PUSH4 0xC5D3A107 EQ PUSH2 0x131 JUMPI DUP1 PUSH4 0xF2FDE38B EQ PUSH2 0x144 JUMPI PUSH1 0x0 DUP1 REVERT JUMPDEST DUP1 PUSH4 0x1FACFD9C EQ PUSH2 0x8D JUMPI DUP1 PUSH4 0x43B938C5 EQ PUSH2 0xA8 JUMPI DUP1 PUSH4 0x715018A6 EQ PUSH2 0xCB JUMPI DUP1 PUSH4 0x85F39B0A EQ PUSH2 0xD5 JUMPI JUMPDEST PUSH1 0x0 DUP1 REVERT JUMPDEST PUSH2 0x95 PUSH2 0x157 JUMP JUMPDEST PUSH1 0x40 MLOAD SWAP1 DUP2 MSTORE PUSH1 0x20 ADD JUMPDEST PUSH1 0x40 MLOAD DUP1 SWAP2 SUB SWAP1 RETURN JUMPDEST PUSH2 0xBB PUSH2 0xB6 CALLDATASIZE PUSH1 0x4 PUSH2 0x7CE JUMP JUMPDEST PUSH2 0x168 JUMP JUMPDEST PUSH1 0x40 MLOAD SWAP1 ISZERO ISZERO DUP2 MSTORE PUSH1 0x20 ADD PUSH2 0x9F JUMP JUMPDEST PUSH2 0xD3 PUSH2 0x17B JUMP JUMPDEST STOP JUMPDEST PUSH2 0xE8 PUSH2 0xE3 CALLDATASIZE PUSH1 0x4 PUSH2 0x804 JUMP JUMPDEST PUSH2 0x18F JUMP JUMPDEST PUSH1 0x40 MLOAD PUSH2 0x9F SWAP3 SWAP2 SWAP1 PUSH2 0x826 JUMP JUMPDEST PUSH2 0xD3 PUSH2 0x104 CALLDATASIZE PUSH1 0x4 PUSH2 0x7CE JUMP JUMPDEST PUSH2 0x291 JUMP JUMPDEST PUSH1 0x0 SLOAD PUSH1 0x40 MLOAD PUSH20 0xFFFFFFFFFFFFFFFFFFFFFFFFFFFFFFFFFFFFFFFF SWAP1 SWAP2 AND DUP2 MSTORE PUSH1 0x20 ADD PUSH2 0x9F JUMP JUMPDEST PUSH2 0xD3 PUSH2 0x13F CALLDATASIZE PUSH1 0x4 PUSH2 0x7CE JUMP JUMPDEST PUSH2 0x360 JUMP JUMPDEST PUSH2 0xD3 PUSH2 0x152 CALLDATASIZE PUSH1 0x4 PUSH2 0x7CE JUMP JUMPDEST PUSH2 0x429 JUMP JUMPDEST PUSH1 0x0 PUSH2 0x163 PUSH1 0x1 PUSH2 0x4E0 JUMP JUMPDEST SWAP1 POP SWAP1 JUMP JUMPDEST PUSH1 0x0 PUSH2 0x175 PUSH1 0x1 DUP4 PUSH2 0x4EA JUMP JUMPDEST SWAP3 SWAP2 POP POP JUMP JUMPDEST PUSH2 0x183 PUSH2 0x51C JUMP JUMPDEST PUSH2 0x18D PUSH1 0x0 PUSH2 0x59D JUMP JUMPDEST JUMP JUMPDEST PUSH1 0x60 PUSH1 0x0 DUP3 DUP5 PUSH2 0x19F PUSH1 0x1 PUSH2 0x4E0 JUMP JUMPDEST PUSH2 0x1A9 SWAP2 SWAP1 PUSH2 0x8B3 JUMP JUMPDEST DUP2 GT ISZERO PUSH2 0x1C8 JUMPI DUP5 PUSH2 0x1BB PUSH1 0x1 PUSH2 0x4E0 JUMP JUMPDEST PUSH2 0x1C5 SWAP2 SWAP1 PUSH2 0x8B3 JUMP JUMPDEST SWAP1 POP JUMPDEST PUSH1 0x0 DUP2 PUSH8 0xFFFFFFFFFFFFFFFF DUP2 GT ISZERO PUSH2 0x1E3 JUMPI PUSH2 0x1E3 PUSH2 0x8C6 JUMP JUMPDEST PUSH1 0x40 MLOAD SWAP1 DUP1 DUP3 MSTORE DUP1 PUSH1 0x20 MUL PUSH1 0x20 ADD DUP3 ADD PUSH1 0x40 MSTORE DUP1 ISZERO PUSH2 0x20C JUMPI DUP2 PUSH1 0x20 ADD PUSH1 0x20 DUP3 MUL DUP1 CALLDATASIZE DUP4 CALLDATACOPY ADD SWAP1 POP JUMPDEST POP SWAP1 POP PUSH1 0x0 JUMPDEST DUP3 DUP2 LT ISZERO PUSH2 0x278 JUMPI PUSH2 0x22F PUSH2 0x227 DUP3 DUP10 PUSH2 0x8F5 JUMP JUMPDEST PUSH1 0x1 SWAP1 PUSH2 0x612 JUMP JUMPDEST DUP3 DUP3 DUP2 MLOAD DUP2 LT PUSH2 0x241 JUMPI PUSH2 0x241 PUSH2 0x908 JUMP JUMPDEST PUSH20 0xFFFFFFFFFFFFFFFFFFFFFFFFFFFFFFFFFFFFFFFF SWAP1 SWAP3 AND PUSH1 0x20 SWAP3 DUP4 MUL SWAP2 SWAP1 SWAP2 ADD SWAP1 SWAP2 ADD MSTORE DUP1 PUSH2 0x270 DUP2 PUSH2 0x937 JUMP JUMPDEST SWAP2 POP POP PUSH2 0x212 JUMP JUMPDEST POP DUP1 PUSH2 0x284 DUP4 DUP9 PUSH2 0x8F5 JUMP JUMPDEST SWAP4 POP SWAP4 POP POP POP SWAP3 POP SWAP3 SWAP1 POP JUMP JUMPDEST PUSH2 0x299 PUSH2 0x51C JUMP JUMPDEST PUSH2 0x2A4 PUSH1 0x1 DUP3 PUSH2 0x4EA JUMP JUMPDEST ISZERO PUSH2 0x310 JUMPI PUSH1 0x40 MLOAD PUSH32 0x8C379A000000000000000000000000000000000000000000000000000000000 DUP2 MSTORE PUSH1 0x20 PUSH1 0x4 DUP3 ADD MSTORE PUSH1 0x14 PUSH1 0x24 DUP3 ADD MSTORE PUSH32 0x20416C72656164792077686974656C6973746564000000000000000000000000 PUSH1 0x44 DUP3 ADD MSTORE PUSH1 0x64 ADD JUMPDEST PUSH1 0x40 MLOAD DUP1 SWAP2 SUB SWAP1 REVERT JUMPDEST PUSH2 0x31B PUSH1 0x1 DUP3 PUSH2 0x61E JUMP JUMPDEST POP PUSH1 0x40 MLOAD PUSH20 0xFFFFFFFFFFFFFFFFFFFFFFFFFFFFFFFFFFFFFFFF DUP3 AND SWAP1 PUSH32 0x3CBF62B327EFB2D06D36E16C10A2F5C00CF0568E2B805BD56969B15D27361078 SWAP1 PUSH1 0x0 SWAP1 LOG2 POP JUMP JUMPDEST PUSH2 0x368 PUSH2 0x51C JUMP JUMPDEST PUSH2 0x373 PUSH1 0x1 DUP3 PUSH2 0x4EA JUMP JUMPDEST PUSH2 0x3D9 JUMPI PUSH1 0x40 MLOAD PUSH32 0x8C379A000000000000000000000000000000000000000000000000000000000 DUP2 MSTORE PUSH1 0x20 PUSH1 0x4 DUP3 ADD MSTORE PUSH1 0x10 PUSH1 0x24 DUP3 ADD MSTORE PUSH32 0x204E6F742077686974656C697374656400000000000000000000000000000000 PUSH1 0x44 DUP3 ADD MSTORE PUSH1 0x64 ADD PUSH2 0x307 JUMP JUMPDEST PUSH2 0x3E4 PUSH1 0x1 DUP3 PUSH2 0x640 JUMP JUMPDEST POP PUSH1 0x40 MLOAD PUSH20 0xFFFFFFFFFFFFFFFFFFFFFFFFFFFFFFFFFFFFFFFF DUP3 AND SWAP1 PUSH32 0xA40D69111BE14F29022626D38310E47CC2D7F4CB728961509C2F65A4BEE08C5B SWAP1 PUSH1 0x0 SWAP1 LOG2 POP JUMP JUMPDEST PUSH2 0x431 PUSH2 0x51C JUMP JUMPDEST PUSH20 0xFFFFFFFFFFFFFFFFFFFFFFFFFFFFFFFFFFFFFFFF DUP2 AND PUSH2 0x4D4 JUMPI PUSH1 0x40 MLOAD PUSH32 0x8C379A000000000000000000000000000000000000000000000000000000000 DUP2 MSTORE PUSH1 0x20 PUSH1 0x4 DUP3 ADD MSTORE PUSH1 0x26 PUSH1 0x24 DUP3 ADD MSTORE PUSH32 0x4F776E61626C653A206E6577206F776E657220697320746865207A65726F2061 PUSH1 0x44 DUP3 ADD MSTORE PUSH32 0x6464726573730000000000000000000000000000000000000000000000000000 PUSH1 0x64 DUP3 ADD MSTORE PUSH1 0x84 ADD PUSH2 0x307 JUMP JUMPDEST PUSH2 0x4DD DUP2 PUSH2 0x59D JUMP JUMPDEST POP JUMP JUMPDEST PUSH1 0x0 PUSH2 0x175 DUP3 SLOAD SWAP1 JUMP JUMPDEST PUSH20 0xFFFFFFFFFFFFFFFFFFFFFFFFFFFFFFFFFFFFFFFF DUP2 AND PUSH1 0x0 SWAP1 DUP2 MSTORE PUSH1 0x1 DUP4 ADD PUSH1 0x20 MSTORE PUSH1 0x40 DUP2 KECCAK256 SLOAD ISZERO ISZERO JUMPDEST SWAP4 SWAP3 POP POP POP JUMP JUMPDEST PUSH1 0x0 SLOAD PUSH20 0xFFFFFFFFFFFFFFFFFFFFFFFFFFFFFFFFFFFFFFFF AND CALLER EQ PUSH2 0x18D JUMPI PUSH1 0x40 MLOAD PUSH32 0x8C379A000000000000000000000000000000000000000000000000000000000 DUP2 MSTORE PUSH1 0x20 PUSH1 0x4 DUP3 ADD DUP2 SWAP1 MSTORE PUSH1 0x24 DUP3 ADD MSTORE PUSH32 0x4F776E61626C653A2063616C6C6572206973206E6F7420746865206F776E6572 PUSH1 0x44 DUP3 ADD MSTORE PUSH1 0x64 ADD PUSH2 0x307 JUMP JUMPDEST PUSH1 0x0 DUP1 SLOAD PUSH20 0xFFFFFFFFFFFFFFFFFFFFFFFFFFFFFFFFFFFFFFFF DUP4 DUP2 AND PUSH32 0xFFFFFFFFFFFFFFFFFFFFFFFF0000000000000000000000000000000000000000 DUP4 AND DUP2 OR DUP5 SSTORE PUSH1 0x40 MLOAD SWAP2 SWAP1 SWAP3 AND SWAP3 DUP4 SWAP2 PUSH32 0x8BE0079C531659141344CD1FD0A4F28419497F9722A3DAAFE3B4186F6B6457E0 SWAP2 SWAP1 LOG3 POP POP JUMP JUMPDEST PUSH1 0x0 PUSH2 0x515 DUP4 DUP4 PUSH2 0x662 JUMP JUMPDEST PUSH1 0x0 PUSH2 0x515 DUP4 PUSH20 0xFFFFFFFFFFFFFFFFFFFFFFFFFFFFFFFFFFFFFFFF DUP5 AND PUSH2 0x68C JUMP JUMPDEST PUSH1 0x0 PUSH2 0x515 DUP4 PUSH20 0xFFFFFFFFFFFFFFFFFFFFFFFFFFFFFFFFFFFFFFFF DUP5 AND PUSH2 0x6DB JUMP JUMPDEST PUSH1 0x0 DUP3 PUSH1 0x0 ADD DUP3 DUP2 SLOAD DUP2 LT PUSH2 0x679 JUMPI PUSH2 0x679 PUSH2 0x908 JUMP JUMPDEST SWAP1 PUSH1 0x0 MSTORE PUSH1 0x20 PUSH1 0x0 KECCAK256 ADD SLOAD SWAP1 POP SWAP3 SWAP2 POP POP JUMP JUMPDEST PUSH1 0x0 DUP2 DUP2 MSTORE PUSH1 0x1 DUP4 ADD PUSH1 0x20 MSTORE PUSH1 0x40 DUP2 KECCAK256 SLOAD PUSH2 0x6D3 JUMPI POP DUP2 SLOAD PUSH1 0x1 DUP2 DUP2 ADD DUP5 SSTORE PUSH1 0x0 DUP5 DUP2 MSTORE PUSH1 0x20 DUP1 DUP3 KECCAK256 SWAP1 SWAP4 ADD DUP5 SWAP1 SSTORE DUP5 SLOAD DUP5 DUP3 MSTORE DUP3 DUP7 ADD SWAP1 SWAP4 MSTORE PUSH1 0x40 SWAP1 KECCAK256 SWAP2 SWAP1 SWAP2 SSTORE PUSH2 0x175 JUMP JUMPDEST POP PUSH1 0x0 PUSH2 0x175 JUMP JUMPDEST PUSH1 0x0 DUP2 DUP2 MSTORE PUSH1 0x1 DUP4 ADD PUSH1 0x20 MSTORE PUSH1 0x40 DUP2 KECCAK256 SLOAD DUP1 ISZERO PUSH2 0x7C4 JUMPI PUSH1 0x0 PUSH2 0x6FF PUSH1 0x1 DUP4 PUSH2 0x8B3 JUMP JUMPDEST DUP6 SLOAD SWAP1 SWAP2 POP PUSH1 0x0 SWAP1 PUSH2 0x713 SWAP1 PUSH1 0x1 SWAP1 PUSH2 0x8B3 JUMP JUMPDEST SWAP1 POP DUP2 DUP2 EQ PUSH2 0x778 JUMPI PUSH1 0x0 DUP7 PUSH1 0x0 ADD DUP3 DUP2 SLOAD DUP2 LT PUSH2 0x733 JUMPI PUSH2 0x733 PUSH2 0x908 JUMP JUMPDEST SWAP1 PUSH1 0x0 MSTORE PUSH1 0x20 PUSH1 0x0 KECCAK256 ADD SLOAD SWAP1 POP DUP1 DUP8 PUSH1 0x0 ADD DUP5 DUP2 SLOAD DUP2 LT PUSH2 0x756 JUMPI PUSH2 0x756 PUSH2 0x908 JUMP JUMPDEST PUSH1 0x0 SWAP2 DUP3 MSTORE PUSH1 0x20 DUP1 DUP4 KECCAK256 SWAP1 SWAP2 ADD SWAP3 SWAP1 SWAP3 SSTORE SWAP2 DUP3 MSTORE PUSH1 0x1 DUP9 ADD SWAP1 MSTORE PUSH1 0x40 SWAP1 KECCAK256 DUP4 SWAP1 SSTORE JUMPDEST DUP6 SLOAD DUP7 SWAP1 DUP1 PUSH2 0x789 JUMPI PUSH2 0x789 PUSH2 0x96F JUMP JUMPDEST PUSH1 0x1 SWAP1 SUB DUP2 DUP2 SWAP1 PUSH1 0x0 MSTORE PUSH1 0x20 PUSH1 0x0 KECCAK256 ADD PUSH1 0x0 SWAP1 SSTORE SWAP1 SSTORE DUP6 PUSH1 0x1 ADD PUSH1 0x0 DUP7 DUP2 MSTORE PUSH1 0x20 ADD SWAP1 DUP2 MSTORE PUSH1 0x20 ADD PUSH1 0x0 KECCAK256 PUSH1 0x0 SWAP1 SSTORE PUSH1 0x1 SWAP4 POP POP POP POP PUSH2 0x175 JUMP JUMPDEST PUSH1 0x0 SWAP2 POP POP PUSH2 0x175 JUMP JUMPDEST PUSH1 0x0 PUSH1 0x20 DUP3 DUP5 SUB SLT ISZERO PUSH2 0x7E0 JUMPI PUSH1 0x0 DUP1 REVERT JUMPDEST DUP2 CALLDATALOAD PUSH20 0xFFFFFFFFFFFFFFFFFFFFFFFFFFFFFFFFFFFFFFFF DUP2 AND DUP2 EQ PUSH2 0x515 JUMPI PUSH1 0x0 DUP1 REVERT JUMPDEST PUSH1 0x0 DUP1 PUSH1 0x40 DUP4 DUP6 SUB SLT ISZERO PUSH2 0x817 JUMPI PUSH1 0x0 DUP1 REVERT JUMPDEST POP POP DUP1 CALLDATALOAD SWAP3 PUSH1 0x20 SWAP1 SWAP2 ADD CALLDATALOAD SWAP2 POP JUMP JUMPDEST PUSH1 0x40 DUP1 DUP3 MSTORE DUP4 MLOAD SWAP1 DUP3 ADD DUP2 SWAP1 MSTORE PUSH1 0x0 SWAP1 PUSH1 0x20 SWAP1 PUSH1 0x60 DUP5 ADD SWAP1 DUP3 DUP8 ADD DUP5 JUMPDEST DUP3 DUP2 LT ISZERO PUSH2 0x875 JUMPI DUP2 MLOAD PUSH20 0xFFFFFFFFFFFFFFFFFFFFFFFFFFFFFFFFFFFFFFFF AND DUP5 MSTORE SWAP3 DUP5 ADD SWAP3 SWAP1 DUP5 ADD SWAP1 PUSH1 0x1 ADD PUSH2 0x843 JUMP JUMPDEST POP POP POP SWAP3 ADD SWAP3 SWAP1 SWAP3 MSTORE SWAP3 SWAP2 POP POP JUMP JUMPDEST PUSH32 0x4E487B7100000000000000000000000000000000000000000000000000000000 PUSH1 0x0 MSTORE PUSH1 0x11 PUSH1 0x4 MSTORE PUSH1 0x24 PUSH1 0x0 REVERT JUMPDEST DUP2 DUP2 SUB DUP2 DUP2 GT ISZERO PUSH2 0x175 JUMPI PUSH2 0x175 PUSH2 0x884 JUMP JUMPDEST PUSH32 0x4E487B7100000000000000000000000000000000000000000000000000000000 PUSH1 0x0 MSTORE PUSH1 0x41 PUSH1 0x4 MSTORE PUSH1 0x24 PUSH1 0x0 REVERT JUMPDEST DUP1 DUP3 ADD DUP1 DUP3 GT ISZERO PUSH2 0x175 JUMPI PUSH2 0x175 PUSH2 0x884 JUMP JUMPDEST PUSH32 0x4E487B7100000000000000000000000000000000000000000000000000000000 PUSH1 0x0 MSTORE PUSH1 0x32 PUSH1 0x4 MSTORE PUSH1 0x24 PUSH1 0x0 REVERT JUMPDEST PUSH1 0x0 PUSH32 0xFFFFFFFFFFFFFFFFFFFFFFFFFFFFFFFFFFFFFFFFFFFFFFFFFFFFFFFFFFFFFFFF DUP3 SUB PUSH2 0x968 JUMPI PUSH2 0x968 PUSH2 0x884 JUMP JUMPDEST POP PUSH1 0x1 ADD SWAP1 JUMP JUMPDEST PUSH32 0x4E487B7100000000000000000000000000000000000000000000000000000000 PUSH1 0x0 MSTORE PUSH1 0x31 PUSH1 0x4 MSTORE PUSH1 0x24 PUSH1 0x0 REVERT INVALID LOG2 PUSH5 0x6970667358 0x22 SLT KECCAK256 0x4E GASPRICE NOT 0xE0 CODECOPY 0x4D 0xA9 0xDA 0x2C 0xC8 PUSH10 0xE3362E5D3EB6B2F915C7 SHL BYTE 0x25 SLT 0x29 DUP15 0xDF SLT 0x1F SUB CREATE2 PUSH5 0x736F6C6343 STOP ADDMOD GT STOP CALLER "
				},
				"gasEstimates": {
					"creation": {
						"codeDepositCost": "503200",
						"executionCost": "26378",
						"totalCost": "529578"
					},
					"external": {
						"addCurrency(address)": "infinite",
						"isCurrencyWhitelisted(address)": "infinite",
						"owner()": "2311",
						"removeCurrency(address)": "infinite",
						"renounceOwnership()": "infinite",
						"transferOwnership(address)": "28301",
						"viewCountWhitelistedCurrencies()": "2360",
						"viewWhitelistedCurrencies(uint256,uint256)": "infinite"
					}
				},
				"methodIdentifiers": {
					"addCurrency(address)": "8ab234b6",
					"isCurrencyWhitelisted(address)": "43b938c5",
					"owner()": "8da5cb5b",
					"removeCurrency(address)": "c5d3a107",
					"renounceOwnership()": "715018a6",
					"transferOwnership(address)": "f2fde38b",
					"viewCountWhitelistedCurrencies()": "1facfd9c",
					"viewWhitelistedCurrencies(uint256,uint256)": "85f39b0a"
				}
			},
			"storageLayout": {
				"storage": [
					{
						"astId": 7,
						"contract": "contracts/Manager/CurrencyManager.sol:CurrencyManager",
						"label": "_owner",
						"offset": 0,
						"slot": "0",
						"type": "t_address"
					},
					{
						"astId": 752,
						"contract": "contracts/Manager/CurrencyManager.sol:CurrencyManager",
						"label": "_whitelistedCurrencies",
						"offset": 0,
						"slot": "1",
						"type": "t_struct(AddressSet)446_storage"
					}
				],
				"types": {
					"t_address": {
						"encoding": "inplace",
						"label": "address",
						"numberOfBytes": "20"
					},
					"t_array(t_bytes32)dyn_storage": {
						"base": "t_bytes32",
						"encoding": "dynamic_array",
						"label": "bytes32[]",
						"numberOfBytes": "32"
					},
					"t_bytes32": {
						"encoding": "inplace",
						"label": "bytes32",
						"numberOfBytes": "32"
					},
					"t_mapping(t_bytes32,t_uint256)": {
						"encoding": "mapping",
						"key": "t_bytes32",
						"label": "mapping(bytes32 => uint256)",
						"numberOfBytes": "32",
						"value": "t_uint256"
					},
					"t_struct(AddressSet)446_storage": {
						"encoding": "inplace",
						"label": "struct EnumerableSet.AddressSet",
						"members": [
							{
								"astId": 445,
								"contract": "contracts/Manager/CurrencyManager.sol:CurrencyManager",
								"label": "_inner",
								"offset": 0,
								"slot": "0",
								"type": "t_struct(Set)145_storage"
							}
						],
						"numberOfBytes": "64"
					},
					"t_struct(Set)145_storage": {
						"encoding": "inplace",
						"label": "struct EnumerableSet.Set",
						"members": [
							{
								"astId": 140,
								"contract": "contracts/Manager/CurrencyManager.sol:CurrencyManager",
								"label": "_values",
								"offset": 0,
								"slot": "0",
								"type": "t_array(t_bytes32)dyn_storage"
							},
							{
								"astId": 144,
								"contract": "contracts/Manager/CurrencyManager.sol:CurrencyManager",
								"label": "_indexes",
								"offset": 0,
								"slot": "1",
								"type": "t_mapping(t_bytes32,t_uint256)"
							}
						],
						"numberOfBytes": "64"
					},
					"t_uint256": {
						"encoding": "inplace",
						"label": "uint256",
						"numberOfBytes": "32"
					}
				}
			},
			"userdoc": {
				"kind": "user",
				"methods": {},
				"version": 1
			}
		}
	}
}