{
	"contracts/Manager/TransferSelectorNFT.sol": {
		"TransferSelectorNFT": {
			"abi": [
				{
					"inputs": [
						{
							"internalType": "address",
							"name": "_transferManagerERC721",
							"type": "address"
						},
						{
							"internalType": "address",
							"name": "_transferManagerERC1155",
							"type": "address"
						}
					],
					"stateMutability": "nonpayable",
					"type": "constructor"
				},
				{
					"anonymous": false,
					"inputs": [
						{
							"indexed": true,
							"internalType": "address",
							"name": "collection",
							"type": "address"
						},
						{
							"indexed": true,
							"internalType": "address",
							"name": "transferManager",
							"type": "address"
						}
					],
					"name": "CollectionTransferManagerAdded",
					"type": "event"
				},
				{
					"anonymous": false,
					"inputs": [
						{
							"indexed": true,
							"internalType": "address",
							"name": "collection",
							"type": "address"
						}
					],
					"name": "CollectionTransferManagerRemoved",
					"type": "event"
				},
				{
					"anonymous": false,
					"inputs": [
						{
							"indexed": true,
							"internalType": "address",
							"name": "previousOwner",
							"type": "address"
						},
						{
							"indexed": true,
							"internalType": "address",
							"name": "newOwner",
							"type": "address"
						}
					],
					"name": "OwnershipTransferred",
					"type": "event"
				},
				{
					"inputs": [],
					"name": "INTERFACE_ID_ERC1155",
					"outputs": [
						{
							"internalType": "bytes4",
							"name": "",
							"type": "bytes4"
						}
					],
					"stateMutability": "view",
					"type": "function"
				},
				{
					"inputs": [],
					"name": "INTERFACE_ID_ERC721",
					"outputs": [
						{
							"internalType": "bytes4",
							"name": "",
							"type": "bytes4"
						}
					],
					"stateMutability": "view",
					"type": "function"
				},
				{
					"inputs": [],
					"name": "TRANSFER_MANAGER_ERC1155",
					"outputs": [
						{
							"internalType": "address",
							"name": "",
							"type": "address"
						}
					],
					"stateMutability": "view",
					"type": "function"
				},
				{
					"inputs": [],
					"name": "TRANSFER_MANAGER_ERC721",
					"outputs": [
						{
							"internalType": "address",
							"name": "",
							"type": "address"
						}
					],
					"stateMutability": "view",
					"type": "function"
				},
				{
					"inputs": [
						{
							"internalType": "address",
							"name": "collection",
							"type": "address"
						},
						{
							"internalType": "address",
							"name": "transferManager",
							"type": "address"
						}
					],
					"name": "addCollectionTransferManager",
					"outputs": [],
					"stateMutability": "nonpayable",
					"type": "function"
				},
				{
					"inputs": [
						{
							"internalType": "address",
							"name": "collection",
							"type": "address"
						}
					],
					"name": "checkTransferManagerForToken",
					"outputs": [
						{
							"internalType": "address",
							"name": "transferManager",
							"type": "address"
						}
					],
					"stateMutability": "view",
					"type": "function"
				},
				{
					"inputs": [],
					"name": "owner",
					"outputs": [
						{
							"internalType": "address",
							"name": "",
							"type": "address"
						}
					],
					"stateMutability": "view",
					"type": "function"
				},
				{
					"inputs": [
						{
							"internalType": "address",
							"name": "collection",
							"type": "address"
						}
					],
					"name": "removeCollectionTransferManager",
					"outputs": [],
					"stateMutability": "nonpayable",
					"type": "function"
				},
				{
					"inputs": [],
					"name": "renounceOwnership",
					"outputs": [],
					"stateMutability": "nonpayable",
					"type": "function"
				},
				{
					"inputs": [
						{
							"internalType": "address",
							"name": "",
							"type": "address"
						}
					],
					"name": "transferManagerSelectorForCollection",
					"outputs": [
						{
							"internalType": "address",
							"name": "",
							"type": "address"
						}
					],
					"stateMutability": "view",
					"type": "function"
				},
				{
					"inputs": [
						{
							"internalType": "address",
							"name": "newOwner",
							"type": "address"
						}
					],
					"name": "transferOwnership",
					"outputs": [],
					"stateMutability": "nonpayable",
					"type": "function"
				}
			],
			"devdoc": {
				"kind": "dev",
				"methods": {
					"owner()": {
						"details": "Returns the address of the current owner."
					},
					"renounceOwnership()": {
						"details": "Leaves the contract without owner. It will not be possible to call `onlyOwner` functions anymore. Can only be called by the current owner. NOTE: Renouncing ownership will leave the contract without an owner, thereby removing any functionality that is only available to the owner."
					},
					"transferOwnership(address)": {
						"details": "Transfers ownership of the contract to a new account (`newOwner`). Can only be called by the current owner."
					}
				},
				"version": 1
			},
			"evm": {
				"assembly": "    /* \"contracts/Manager/TransferSelectorNFT.sol\":287:3312  contract TransferSelectorNFT is TheTransferSelector, Ownable {... */\n  mstore(0x40, 0xc0)\n    /* \"contracts/Manager/TransferSelectorNFT.sol\":1058:1260  constructor(address _transferManagerERC721, address _transferManagerERC1155) {... */\n  callvalue\n  dup1\n  iszero\n  tag_1\n  jumpi\n  0x00\n  dup1\n  revert\ntag_1:\n  pop\n  mload(0x40)\n  sub(codesize, bytecodeSize)\n  dup1\n  bytecodeSize\n  dup4\n  codecopy\n  dup2\n  add\n  0x40\n  dup2\n  swap1\n  mstore\n  tag_2\n  swap2\n  tag_3\n  jump\t// in\ntag_2:\n    /* \"@openzeppelin/contracts/access/Ownable.sol\":936:968  _transferOwnership(_msgSender()) */\n  tag_7\n    /* \"@openzeppelin/contracts/utils/Context.sol\":719:729  msg.sender */\n  caller\n    /* \"@openzeppelin/contracts/access/Ownable.sol\":936:954  _transferOwnership */\n  tag_10\n    /* \"@openzeppelin/contracts/access/Ownable.sol\":936:968  _transferOwnership(_msgSender()) */\n  jump\t// in\ntag_7:\n  sub(shl(0xa0, 0x01), 0x01)\n    /* \"contracts/Manager/TransferSelectorNFT.sol\":1145:1193  TRANSFER_MANAGER_ERC721 = _transferManagerERC721 */\n  swap2\n  dup3\n  and\n  0x80\n  mstore\n    /* \"contracts/Manager/TransferSelectorNFT.sol\":1203:1253  TRANSFER_MANAGER_ERC1155 = _transferManagerERC1155 */\n  and\n  0xa0\n  mstore\n    /* \"contracts/Manager/TransferSelectorNFT.sol\":287:3312  contract TransferSelectorNFT is TheTransferSelector, Ownable {... */\n  jump(tag_16)\n    /* \"@openzeppelin/contracts/access/Ownable.sol\":2433:2620  function _transferOwnership(address newOwner) internal virtual {... */\ntag_10:\n    /* \"@openzeppelin/contracts/access/Ownable.sol\":2506:2522  address oldOwner */\n  0x00\n    /* \"@openzeppelin/contracts/access/Ownable.sol\":2525:2531  _owner */\n  dup1\n  sload\n  sub(shl(0xa0, 0x01), 0x01)\n    /* \"@openzeppelin/contracts/access/Ownable.sol\":2541:2558  _owner = newOwner */\n  dup4\n  dup2\n  and\n  not(sub(shl(0xa0, 0x01), 0x01))\n  dup4\n  and\n  dup2\n  or\n  dup5\n  sstore\n    /* \"@openzeppelin/contracts/access/Ownable.sol\":2573:2613  OwnershipTransferred(oldOwner, newOwner) */\n  mload(0x40)\n    /* \"@openzeppelin/contracts/access/Ownable.sol\":2525:2531  _owner */\n  swap2\n  swap1\n  swap3\n  and\n  swap3\n  dup4\n  swap2\n    /* \"@openzeppelin/contracts/access/Ownable.sol\":2573:2613  OwnershipTransferred(oldOwner, newOwner) */\n  0x8be0079c531659141344cd1fd0a4f28419497f9722a3daafe3b4186f6b6457e0\n  swap2\n    /* \"@openzeppelin/contracts/access/Ownable.sol\":2506:2522  address oldOwner */\n  swap1\n    /* \"@openzeppelin/contracts/access/Ownable.sol\":2573:2613  OwnershipTransferred(oldOwner, newOwner) */\n  log3\n    /* \"@openzeppelin/contracts/access/Ownable.sol\":2496:2620  {... */\n  pop\n    /* \"@openzeppelin/contracts/access/Ownable.sol\":2433:2620  function _transferOwnership(address newOwner) internal virtual {... */\n  pop\n  jump\t// out\n    /* \"#utility.yul\":14:191   */\ntag_15:\n    /* \"#utility.yul\":93:106   */\n  dup1\n  mload\n  sub(shl(0xa0, 0x01), 0x01)\n    /* \"#utility.yul\":135:166   */\n  dup2\n  and\n    /* \"#utility.yul\":125:167   */\n  dup2\n  eq\n    /* \"#utility.yul\":115:185   */\n  tag_18\n  jumpi\n    /* \"#utility.yul\":181:182   */\n  0x00\n    /* \"#utility.yul\":178:179   */\n  dup1\n    /* \"#utility.yul\":171:183   */\n  revert\n    /* \"#utility.yul\":115:185   */\ntag_18:\n    /* \"#utility.yul\":14:191   */\n  swap2\n  swap1\n  pop\n  jump\t// out\n    /* \"#utility.yul\":196:489   */\ntag_3:\n    /* \"#utility.yul\":275:281   */\n  0x00\n    /* \"#utility.yul\":283:289   */\n  dup1\n    /* \"#utility.yul\":336:338   */\n  0x40\n    /* \"#utility.yul\":324:333   */\n  dup4\n    /* \"#utility.yul\":315:322   */\n  dup6\n    /* \"#utility.yul\":311:334   */\n  sub\n    /* \"#utility.yul\":307:339   */\n  slt\n    /* \"#utility.yul\":304:356   */\n  iszero\n  tag_20\n  jumpi\n    /* \"#utility.yul\":352:353   */\n  0x00\n    /* \"#utility.yul\":349:350   */\n  dup1\n    /* \"#utility.yul\":342:354   */\n  revert\n    /* \"#utility.yul\":304:356   */\ntag_20:\n    /* \"#utility.yul\":375:415   */\n  tag_21\n    /* \"#utility.yul\":405:414   */\n  dup4\n    /* \"#utility.yul\":375:415   */\n  tag_15\n  jump\t// in\ntag_21:\n    /* \"#utility.yul\":365:415   */\n  swap2\n  pop\n    /* \"#utility.yul\":434:483   */\n  tag_22\n    /* \"#utility.yul\":479:481   */\n  0x20\n    /* \"#utility.yul\":468:477   */\n  dup5\n    /* \"#utility.yul\":464:482   */\n  add\n    /* \"#utility.yul\":434:483   */\n  tag_15\n  jump\t// in\ntag_22:\n    /* \"#utility.yul\":424:483   */\n  swap1\n  pop\n    /* \"#utility.yul\":196:489   */\n  swap3\n  pop\n  swap3\n  swap1\n  pop\n  jump\t// out\ntag_16:\n    /* \"contracts/Manager/TransferSelectorNFT.sol\":287:3312  contract TransferSelectorNFT is TheTransferSelector, Ownable {... */\n  mload(0x80)\n  mload(0xa0)\n  codecopy(0x00, dataOffset(sub_0), dataSize(sub_0))\n  0x00\n  assignImmutable(\"0xbf08d8a2d7c7780024ba6e6dbe12d3d5a5a747ea3071fca63d8a2ede50d3472a\")\n  0x00\n  assignImmutable(\"0x566674f71911cd3b7cbc2fd66353711d31aaa96f269440d186374a017f53f324\")\n  return(0x00, dataSize(sub_0))\nstop\n\nsub_0: assembly {\n        /* \"contracts/Manager/TransferSelectorNFT.sol\":287:3312  contract TransferSelectorNFT is TheTransferSelector, Ownable {... */\n      mstore(0x40, 0x80)\n      callvalue\n      dup1\n      iszero\n      tag_1\n      jumpi\n      0x00\n      dup1\n      revert\n    tag_1:\n      pop\n      jumpi(tag_2, lt(calldatasize, 0x04))\n      shr(0xe0, calldataload(0x00))\n      dup1\n      0x715018a6\n      gt\n      tag_14\n      jumpi\n      dup1\n      0xbc6bc0cd\n      gt\n      tag_15\n      jumpi\n      dup1\n      0xbc6bc0cd\n      eq\n      tag_11\n      jumpi\n      dup1\n      0xcc159493\n      eq\n      tag_12\n      jumpi\n      dup1\n      0xf2fde38b\n      eq\n      tag_13\n      jumpi\n      0x00\n      dup1\n      revert\n    tag_15:\n      dup1\n      0x715018a6\n      eq\n      tag_8\n      jumpi\n      dup1\n      0x8da5cb5b\n      eq\n      tag_9\n      jumpi\n      dup1\n      0xb1357ddd\n      eq\n      tag_10\n      jumpi\n      0x00\n      dup1\n      revert\n    tag_14:\n      dup1\n      0x38928956\n      gt\n      tag_16\n      jumpi\n      dup1\n      0x38928956\n      eq\n      tag_5\n      jumpi\n      dup1\n      0x4216a753\n      eq\n      tag_6\n      jumpi\n      dup1\n      0x7053fb79\n      eq\n      tag_7\n      jumpi\n      0x00\n      dup1\n      revert\n    tag_16:\n      dup1\n      0x25c6a895\n      eq\n      tag_3\n      jumpi\n      dup1\n      0x33bf6156\n      eq\n      tag_4\n      jumpi\n    tag_2:\n      0x00\n      dup1\n      revert\n        /* \"contracts/Manager/TransferSelectorNFT.sol\":1466:1973  function addCollectionTransferManager(address collection, address transferManager) external onlyOwner {... */\n    tag_3:\n      tag_17\n      tag_18\n      calldatasize\n      0x04\n      tag_19\n      jump\t// in\n    tag_18:\n      tag_20\n      jump\t// in\n    tag_17:\n      stop\n        /* \"contracts/Manager/TransferSelectorNFT.sol\":468:524  bytes4 public constant INTERFACE_ID_ERC1155 = 0xd9b67a26 */\n    tag_4:\n      tag_21\n      0xd9b67a2600000000000000000000000000000000000000000000000000000000\n      dup2\n      jump\n    tag_21:\n      mload(0x40)\n        /* \"#utility.yul\":654:720   */\n      0xffffffff00000000000000000000000000000000000000000000000000000000\n        /* \"#utility.yul\":642:721   */\n      swap1\n      swap2\n      and\n        /* \"#utility.yul\":624:722   */\n      dup2\n      mstore\n        /* \"#utility.yul\":612:614   */\n      0x20\n        /* \"#utility.yul\":597:615   */\n      add\n        /* \"contracts/Manager/TransferSelectorNFT.sol\":468:524  bytes4 public constant INTERFACE_ID_ERC1155 = 0xd9b67a26 */\n    tag_23:\n      mload(0x40)\n      dup1\n      swap2\n      sub\n      swap1\n      return\n        /* \"contracts/Manager/TransferSelectorNFT.sol\":651:700  address public immutable TRANSFER_MANAGER_ERC1155 */\n    tag_5:\n      tag_25\n      immutable(\"0xbf08d8a2d7c7780024ba6e6dbe12d3d5a5a747ea3071fca63d8a2ede50d3472a\")\n      dup2\n      jump\n    tag_25:\n      mload(0x40)\n        /* \"#utility.yul\":909:951   */\n      0xffffffffffffffffffffffffffffffffffffffff\n        /* \"#utility.yul\":897:952   */\n      swap1\n      swap2\n      and\n        /* \"#utility.yul\":879:953   */\n      dup2\n      mstore\n        /* \"#utility.yul\":867:869   */\n      0x20\n        /* \"#utility.yul\":852:870   */\n      add\n        /* \"contracts/Manager/TransferSelectorNFT.sol\":651:700  address public immutable TRANSFER_MANAGER_ERC1155 */\n      tag_23\n        /* \"#utility.yul\":733:959   */\n      jump\n        /* \"contracts/Manager/TransferSelectorNFT.sol\":738:809  mapping(address => address) public transferManagerSelectorForCollection */\n    tag_6:\n      tag_25\n      tag_30\n      calldatasize\n      0x04\n      tag_31\n      jump\t// in\n    tag_30:\n      mstore(0x20, 0x01)\n      0x00\n      swap1\n      dup2\n      mstore\n      0x40\n      swap1\n      keccak256\n      sload\n      0xffffffffffffffffffffffffffffffffffffffff\n      and\n      dup2\n      jump\n        /* \"contracts/Manager/TransferSelectorNFT.sol\":2145:2517  function removeCollectionTransferManager(address collection) external onlyOwner {... */\n    tag_7:\n      tag_17\n      tag_35\n      calldatasize\n      0x04\n      tag_31\n      jump\t// in\n    tag_35:\n      tag_36\n      jump\t// in\n        /* \"@openzeppelin/contracts/access/Ownable.sol\":1831:1932  function renounceOwnership() public virtual onlyOwner {... */\n    tag_8:\n      tag_17\n      tag_38\n      jump\t// in\n        /* \"@openzeppelin/contracts/access/Ownable.sol\":1201:1286  function owner() public view virtual returns (address) {... */\n    tag_9:\n        /* \"@openzeppelin/contracts/access/Ownable.sol\":1247:1254  address */\n      0x00\n        /* \"@openzeppelin/contracts/access/Ownable.sol\":1273:1279  _owner */\n      sload\n      0xffffffffffffffffffffffffffffffffffffffff\n      and\n        /* \"@openzeppelin/contracts/access/Ownable.sol\":1201:1286  function owner() public view virtual returns (address) {... */\n      jump(tag_25)\n        /* \"contracts/Manager/TransferSelectorNFT.sol\":559:607  address public immutable TRANSFER_MANAGER_ERC721 */\n    tag_10:\n      tag_25\n      immutable(\"0x566674f71911cd3b7cbc2fd66353711d31aaa96f269440d186374a017f53f324\")\n      dup2\n      jump\n        /* \"contracts/Manager/TransferSelectorNFT.sol\":380:435  bytes4 public constant INTERFACE_ID_ERC721 = 0x80ac58cd */\n    tag_11:\n      tag_21\n      0x80ac58cd00000000000000000000000000000000000000000000000000000000\n      dup2\n      jump\n        /* \"contracts/Manager/TransferSelectorNFT.sol\":2576:3310  function checkTransferManagerForToken(address collection) external view override returns (address transferManager) {... */\n    tag_12:\n      tag_25\n      tag_49\n      calldatasize\n      0x04\n      tag_31\n      jump\t// in\n    tag_49:\n      tag_50\n      jump\t// in\n        /* \"@openzeppelin/contracts/access/Ownable.sol\":2081:2279  function transferOwnership(address newOwner) public virtual onlyOwner {... */\n    tag_13:\n      tag_17\n      tag_53\n      calldatasize\n      0x04\n      tag_31\n      jump\t// in\n    tag_53:\n      tag_54\n      jump\t// in\n        /* \"contracts/Manager/TransferSelectorNFT.sol\":1466:1973  function addCollectionTransferManager(address collection, address transferManager) external onlyOwner {... */\n    tag_20:\n        /* \"@openzeppelin/contracts/access/Ownable.sol\":1094:1107  _checkOwner() */\n      tag_56\n        /* \"@openzeppelin/contracts/access/Ownable.sol\":1094:1105  _checkOwner */\n      tag_57\n        /* \"@openzeppelin/contracts/access/Ownable.sol\":1094:1107  _checkOwner() */\n      jump\t// in\n    tag_56:\n        /* \"contracts/Manager/TransferSelectorNFT.sol\":1586:1610  collection != address(0) */\n      0xffffffffffffffffffffffffffffffffffffffff\n      dup3\n      and\n        /* \"contracts/Manager/TransferSelectorNFT.sol\":1578:1649  require(collection != address(0), \" Collection cannot be null address\") */\n      tag_59\n      jumpi\n      mload(0x40)\n      0x08c379a000000000000000000000000000000000000000000000000000000000\n      dup2\n      mstore\n        /* \"#utility.yul\":1357:1359   */\n      0x20\n        /* \"contracts/Manager/TransferSelectorNFT.sol\":1578:1649  require(collection != address(0), \" Collection cannot be null address\") */\n      0x04\n      dup3\n      add\n        /* \"#utility.yul\":1339:1360   */\n      mstore\n        /* \"#utility.yul\":1396:1398   */\n      0x22\n        /* \"#utility.yul\":1376:1394   */\n      0x24\n      dup3\n      add\n        /* \"#utility.yul\":1369:1399   */\n      mstore\n        /* \"#utility.yul\":1435:1469   */\n      0x20436f6c6c656374696f6e2063616e6e6f74206265206e756c6c206164647265\n        /* \"#utility.yul\":1415:1433   */\n      0x44\n      dup3\n      add\n        /* \"#utility.yul\":1408:1470   */\n      mstore\n        /* \"#utility.yul\":1506:1510   */\n      0x7373000000000000000000000000000000000000000000000000000000000000\n        /* \"#utility.yul\":1486:1504   */\n      0x64\n      dup3\n      add\n        /* \"#utility.yul\":1479:1511   */\n      mstore\n        /* \"#utility.yul\":1528:1547   */\n      0x84\n      add\n        /* \"contracts/Manager/TransferSelectorNFT.sol\":1578:1649  require(collection != address(0), \" Collection cannot be null address\") */\n    tag_60:\n      mload(0x40)\n      dup1\n      swap2\n      sub\n      swap1\n      revert\n    tag_59:\n        /* \"contracts/Manager/TransferSelectorNFT.sol\":1667:1696  transferManager != address(0) */\n      0xffffffffffffffffffffffffffffffffffffffff\n      dup2\n      and\n        /* \"contracts/Manager/TransferSelectorNFT.sol\":1659:1739  require(transferManager != address(0), \"TransferManager cannot be null address\") */\n      tag_62\n      jumpi\n      mload(0x40)\n      0x08c379a000000000000000000000000000000000000000000000000000000000\n      dup2\n      mstore\n        /* \"#utility.yul\":1760:1762   */\n      0x20\n        /* \"contracts/Manager/TransferSelectorNFT.sol\":1659:1739  require(transferManager != address(0), \"TransferManager cannot be null address\") */\n      0x04\n      dup3\n      add\n        /* \"#utility.yul\":1742:1763   */\n      mstore\n        /* \"#utility.yul\":1799:1801   */\n      0x26\n        /* \"#utility.yul\":1779:1797   */\n      0x24\n      dup3\n      add\n        /* \"#utility.yul\":1772:1802   */\n      mstore\n        /* \"#utility.yul\":1838:1872   */\n      0x5472616e736665724d616e616765722063616e6e6f74206265206e756c6c2061\n        /* \"#utility.yul\":1818:1836   */\n      0x44\n      dup3\n      add\n        /* \"#utility.yul\":1811:1873   */\n      mstore\n        /* \"#utility.yul\":1909:1917   */\n      0x6464726573730000000000000000000000000000000000000000000000000000\n        /* \"#utility.yul\":1889:1907   */\n      0x64\n      dup3\n      add\n        /* \"#utility.yul\":1882:1918   */\n      mstore\n        /* \"#utility.yul\":1935:1954   */\n      0x84\n      add\n        /* \"contracts/Manager/TransferSelectorNFT.sol\":1659:1739  require(transferManager != address(0), \"TransferManager cannot be null address\") */\n      tag_60\n        /* \"#utility.yul\":1558:1960   */\n      jump\n        /* \"contracts/Manager/TransferSelectorNFT.sol\":1659:1739  require(transferManager != address(0), \"TransferManager cannot be null address\") */\n    tag_62:\n        /* \"contracts/Manager/TransferSelectorNFT.sol\":1825:1873  transferManagerSelectorForCollection[collection] */\n      0xffffffffffffffffffffffffffffffffffffffff\n      dup3\n      dup2\n      and\n      0x00\n      dup2\n      dup2\n      mstore\n        /* \"contracts/Manager/TransferSelectorNFT.sol\":1825:1861  transferManagerSelectorForCollection */\n      0x01\n        /* \"contracts/Manager/TransferSelectorNFT.sol\":1825:1873  transferManagerSelectorForCollection[collection] */\n      0x20\n      mstore\n      0x40\n      dup1\n      dup3\n      keccak256\n        /* \"contracts/Manager/TransferSelectorNFT.sol\":1825:1891  transferManagerSelectorForCollection[collection] = transferManager */\n      dup1\n      sload\n      0xffffffffffffffffffffffff0000000000000000000000000000000000000000\n      and\n      swap5\n      dup7\n      and\n      swap5\n      dup6\n      or\n      swap1\n      sstore\n        /* \"contracts/Manager/TransferSelectorNFT.sol\":1907:1966  CollectionTransferManagerAdded(collection, transferManager) */\n      mload\n      0xda166be6ba0ebb71be3f83e7d669765de552ea08978bfe3e3e42d54174111b62\n      swap2\n        /* \"contracts/Manager/TransferSelectorNFT.sol\":1825:1873  transferManagerSelectorForCollection[collection] */\n      swap1\n        /* \"contracts/Manager/TransferSelectorNFT.sol\":1907:1966  CollectionTransferManagerAdded(collection, transferManager) */\n      log3\n        /* \"contracts/Manager/TransferSelectorNFT.sol\":1466:1973  function addCollectionTransferManager(address collection, address transferManager) external onlyOwner {... */\n      pop\n      pop\n      jump\t// out\n        /* \"contracts/Manager/TransferSelectorNFT.sol\":2145:2517  function removeCollectionTransferManager(address collection) external onlyOwner {... */\n    tag_36:\n        /* \"@openzeppelin/contracts/access/Ownable.sol\":1094:1107  _checkOwner() */\n      tag_66\n        /* \"@openzeppelin/contracts/access/Ownable.sol\":1094:1105  _checkOwner */\n      tag_57\n        /* \"@openzeppelin/contracts/access/Ownable.sol\":1094:1107  _checkOwner() */\n      jump\t// in\n    tag_66:\n        /* \"contracts/Manager/TransferSelectorNFT.sol\":2256:2318  transferManagerSelectorForCollection[collection] != address(0) */\n      0xffffffffffffffffffffffffffffffffffffffff\n        /* \"contracts/Manager/TransferSelectorNFT.sol\":2256:2304  transferManagerSelectorForCollection[collection] */\n      dup2\n      dup2\n      and\n        /* \"contracts/Manager/TransferSelectorNFT.sol\":2316:2317  0 */\n      0x00\n        /* \"contracts/Manager/TransferSelectorNFT.sol\":2256:2304  transferManagerSelectorForCollection[collection] */\n      swap1\n      dup2\n      mstore\n        /* \"contracts/Manager/TransferSelectorNFT.sol\":2256:2292  transferManagerSelectorForCollection */\n      0x01\n        /* \"contracts/Manager/TransferSelectorNFT.sol\":2256:2304  transferManagerSelectorForCollection[collection] */\n      0x20\n      mstore\n      0x40\n      swap1\n      keccak256\n      sload\n      and\n        /* \"contracts/Manager/TransferSelectorNFT.sol\":2235:2378  require(... */\n      tag_68\n      jumpi\n      mload(0x40)\n      0x08c379a000000000000000000000000000000000000000000000000000000000\n      dup2\n      mstore\n        /* \"#utility.yul\":2167:2169   */\n      0x20\n        /* \"contracts/Manager/TransferSelectorNFT.sol\":2235:2378  require(... */\n      0x04\n      dup3\n      add\n        /* \"#utility.yul\":2149:2170   */\n      mstore\n        /* \"#utility.yul\":2206:2208   */\n      0x22\n        /* \"#utility.yul\":2186:2204   */\n      0x24\n      dup3\n      add\n        /* \"#utility.yul\":2179:2209   */\n      mstore\n        /* \"#utility.yul\":2245:2279   */\n      0x436f6c6c656374696f6e20686173206e6f207472616e73666572206d616e6167\n        /* \"#utility.yul\":2225:2243   */\n      0x44\n      dup3\n      add\n        /* \"#utility.yul\":2218:2280   */\n      mstore\n        /* \"#utility.yul\":2316:2320   */\n      0x6572000000000000000000000000000000000000000000000000000000000000\n        /* \"#utility.yul\":2296:2314   */\n      0x64\n      dup3\n      add\n        /* \"#utility.yul\":2289:2321   */\n      mstore\n        /* \"#utility.yul\":2338:2357   */\n      0x84\n      add\n        /* \"contracts/Manager/TransferSelectorNFT.sol\":2235:2378  require(... */\n      tag_60\n        /* \"#utility.yul\":1965:2363   */\n      jump\n        /* \"contracts/Manager/TransferSelectorNFT.sol\":2235:2378  require(... */\n    tag_68:\n        /* \"contracts/Manager/TransferSelectorNFT.sol\":2389:2437  transferManagerSelectorForCollection[collection] */\n      0xffffffffffffffffffffffffffffffffffffffff\n      dup2\n      and\n        /* \"contracts/Manager/TransferSelectorNFT.sol\":2448:2449  0 */\n      0x00\n        /* \"contracts/Manager/TransferSelectorNFT.sol\":2389:2437  transferManagerSelectorForCollection[collection] */\n      dup2\n      dup2\n      mstore\n        /* \"contracts/Manager/TransferSelectorNFT.sol\":2389:2425  transferManagerSelectorForCollection */\n      0x01\n        /* \"contracts/Manager/TransferSelectorNFT.sol\":2389:2437  transferManagerSelectorForCollection[collection] */\n      0x20\n      mstore\n      0x40\n      dup1\n      dup3\n      keccak256\n        /* \"contracts/Manager/TransferSelectorNFT.sol\":2389:2450  transferManagerSelectorForCollection[collection] = address(0) */\n      dup1\n      sload\n      0xffffffffffffffffffffffff0000000000000000000000000000000000000000\n      and\n      swap1\n      sstore\n        /* \"contracts/Manager/TransferSelectorNFT.sol\":2466:2510  CollectionTransferManagerRemoved(collection) */\n      mload\n      0x8c3bf4babc197f3db0e7ec65aaf23fc0efb0e689436aeea8514c3f01fd97841f\n      swap2\n        /* \"contracts/Manager/TransferSelectorNFT.sol\":2448:2449  0 */\n      swap1\n        /* \"contracts/Manager/TransferSelectorNFT.sol\":2466:2510  CollectionTransferManagerRemoved(collection) */\n      log2\n        /* \"contracts/Manager/TransferSelectorNFT.sol\":2145:2517  function removeCollectionTransferManager(address collection) external onlyOwner {... */\n      pop\n      jump\t// out\n        /* \"@openzeppelin/contracts/access/Ownable.sol\":1831:1932  function renounceOwnership() public virtual onlyOwner {... */\n    tag_38:\n        /* \"@openzeppelin/contracts/access/Ownable.sol\":1094:1107  _checkOwner() */\n      tag_72\n        /* \"@openzeppelin/contracts/access/Ownable.sol\":1094:1105  _checkOwner */\n      tag_57\n        /* \"@openzeppelin/contracts/access/Ownable.sol\":1094:1107  _checkOwner() */\n      jump\t// in\n    tag_72:\n        /* \"@openzeppelin/contracts/access/Ownable.sol\":1895:1925  _transferOwnership(address(0)) */\n      tag_74\n        /* \"@openzeppelin/contracts/access/Ownable.sol\":1922:1923  0 */\n      0x00\n        /* \"@openzeppelin/contracts/access/Ownable.sol\":1895:1913  _transferOwnership */\n      tag_75\n        /* \"@openzeppelin/contracts/access/Ownable.sol\":1895:1925  _transferOwnership(address(0)) */\n      jump\t// in\n    tag_74:\n        /* \"@openzeppelin/contracts/access/Ownable.sol\":1831:1932  function renounceOwnership() public virtual onlyOwner {... */\n      jump\t// out\n        /* \"contracts/Manager/TransferSelectorNFT.sol\":2576:3310  function checkTransferManagerForToken(address collection) external view override returns (address transferManager) {... */\n    tag_50:\n        /* \"contracts/Manager/TransferSelectorNFT.sol\":2783:2831  transferManagerSelectorForCollection[collection] */\n      0xffffffffffffffffffffffffffffffffffffffff\n      dup1\n      dup3\n      and\n        /* \"contracts/Manager/TransferSelectorNFT.sol\":2666:2689  address transferManager */\n      0x00\n        /* \"contracts/Manager/TransferSelectorNFT.sol\":2783:2831  transferManagerSelectorForCollection[collection] */\n      swap1\n      dup2\n      mstore\n        /* \"contracts/Manager/TransferSelectorNFT.sol\":2783:2819  transferManagerSelectorForCollection */\n      0x01\n        /* \"contracts/Manager/TransferSelectorNFT.sol\":2783:2831  transferManagerSelectorForCollection[collection] */\n      0x20\n      mstore\n      0x40\n      swap1\n      keccak256\n      sload\n      and\n      dup1\n        /* \"contracts/Manager/TransferSelectorNFT.sol\":2928:3271  if (transferManager == address(0)) {... */\n      tag_90\n      jumpi\n        /* \"contracts/Manager/TransferSelectorNFT.sol\":2981:3039  IERC165(collection).supportsInterface(INTERFACE_ID_ERC721) */\n      mload(0x40)\n      0x01ffc9a700000000000000000000000000000000000000000000000000000000\n      dup2\n      mstore\n        /* \"contracts/Manager/TransferSelectorNFT.sol\":3019:3038  INTERFACE_ID_ERC721 */\n      0x80ac58cd00000000000000000000000000000000000000000000000000000000\n        /* \"contracts/Manager/TransferSelectorNFT.sol\":2981:3039  IERC165(collection).supportsInterface(INTERFACE_ID_ERC721) */\n      0x04\n      dup3\n      add\n        /* \"#utility.yul\":624:722   */\n      mstore\n        /* \"contracts/Manager/TransferSelectorNFT.sol\":2981:3018  IERC165(collection).supportsInterface */\n      0xffffffffffffffffffffffffffffffffffffffff\n      dup4\n      and\n      swap1\n      0x01ffc9a7\n      swap1\n        /* \"#utility.yul\":597:615   */\n      0x24\n      add\n        /* \"contracts/Manager/TransferSelectorNFT.sol\":2981:3039  IERC165(collection).supportsInterface(INTERFACE_ID_ERC721) */\n      0x20\n      mload(0x40)\n      dup1\n      dup4\n      sub\n      dup2\n      dup7\n      gas\n      staticcall\n      iszero\n      dup1\n      iszero\n      tag_81\n      jumpi\n      returndatasize\n      0x00\n      dup1\n      returndatacopy\n      revert(0x00, returndatasize)\n    tag_81:\n      pop\n      pop\n      pop\n      pop\n      mload(0x40)\n      returndatasize\n      not(0x1f)\n      0x1f\n      dup3\n      add\n      and\n      dup3\n      add\n      dup1\n      0x40\n      mstore\n      pop\n      dup2\n      add\n      swap1\n      tag_82\n      swap2\n      swap1\n      tag_83\n      jump\t// in\n    tag_82:\n        /* \"contracts/Manager/TransferSelectorNFT.sol\":2977:3261  if (IERC165(collection).supportsInterface(INTERFACE_ID_ERC721)) {... */\n      iszero\n      tag_84\n      jumpi\n      pop\n        /* \"contracts/Manager/TransferSelectorNFT.sol\":3077:3100  TRANSFER_MANAGER_ERC721 */\n      immutable(\"0x566674f71911cd3b7cbc2fd66353711d31aaa96f269440d186374a017f53f324\")\n        /* \"contracts/Manager/TransferSelectorNFT.sol\":2576:3310  function checkTransferManagerForToken(address collection) external view override returns (address transferManager) {... */\n      swap2\n      swap1\n      pop\n      jump\t// out\n        /* \"contracts/Manager/TransferSelectorNFT.sol\":2977:3261  if (IERC165(collection).supportsInterface(INTERFACE_ID_ERC721)) {... */\n    tag_84:\n        /* \"contracts/Manager/TransferSelectorNFT.sol\":3125:3184  IERC165(collection).supportsInterface(INTERFACE_ID_ERC1155) */\n      mload(0x40)\n      0x01ffc9a700000000000000000000000000000000000000000000000000000000\n      dup2\n      mstore\n        /* \"contracts/Manager/TransferSelectorNFT.sol\":3163:3183  INTERFACE_ID_ERC1155 */\n      0xd9b67a2600000000000000000000000000000000000000000000000000000000\n        /* \"contracts/Manager/TransferSelectorNFT.sol\":3125:3184  IERC165(collection).supportsInterface(INTERFACE_ID_ERC1155) */\n      0x04\n      dup3\n      add\n        /* \"#utility.yul\":624:722   */\n      mstore\n        /* \"contracts/Manager/TransferSelectorNFT.sol\":3125:3162  IERC165(collection).supportsInterface */\n      0xffffffffffffffffffffffffffffffffffffffff\n      dup4\n      and\n      swap1\n      0x01ffc9a7\n      swap1\n        /* \"#utility.yul\":597:615   */\n      0x24\n      add\n        /* \"contracts/Manager/TransferSelectorNFT.sol\":3125:3184  IERC165(collection).supportsInterface(INTERFACE_ID_ERC1155) */\n      0x20\n      mload(0x40)\n      dup1\n      dup4\n      sub\n      dup2\n      dup7\n      gas\n      staticcall\n      iszero\n      dup1\n      iszero\n      tag_88\n      jumpi\n      returndatasize\n      0x00\n      dup1\n      returndatacopy\n      revert(0x00, returndatasize)\n    tag_88:\n      pop\n      pop\n      pop\n      pop\n      mload(0x40)\n      returndatasize\n      not(0x1f)\n      0x1f\n      dup3\n      add\n      and\n      dup3\n      add\n      dup1\n      0x40\n      mstore\n      pop\n      dup2\n      add\n      swap1\n      tag_89\n      swap2\n      swap1\n      tag_83\n      jump\t// in\n    tag_89:\n        /* \"contracts/Manager/TransferSelectorNFT.sol\":3121:3261  if (IERC165(collection).supportsInterface(INTERFACE_ID_ERC1155)) {... */\n      iszero\n      tag_90\n      jumpi\n      pop\n        /* \"contracts/Manager/TransferSelectorNFT.sol\":3222:3246  TRANSFER_MANAGER_ERC1155 */\n      immutable(\"0xbf08d8a2d7c7780024ba6e6dbe12d3d5a5a747ea3071fca63d8a2ede50d3472a\")\n        /* \"contracts/Manager/TransferSelectorNFT.sol\":3121:3261  if (IERC165(collection).supportsInterface(INTERFACE_ID_ERC1155)) {... */\n    tag_90:\n        /* \"contracts/Manager/TransferSelectorNFT.sol\":2576:3310  function checkTransferManagerForToken(address collection) external view override returns (address transferManager) {... */\n      swap2\n      swap1\n      pop\n      jump\t// out\n        /* \"@openzeppelin/contracts/access/Ownable.sol\":2081:2279  function transferOwnership(address newOwner) public virtual onlyOwner {... */\n    tag_54:\n        /* \"@openzeppelin/contracts/access/Ownable.sol\":1094:1107  _checkOwner() */\n      tag_92\n        /* \"@openzeppelin/contracts/access/Ownable.sol\":1094:1105  _checkOwner */\n      tag_57\n        /* \"@openzeppelin/contracts/access/Ownable.sol\":1094:1107  _checkOwner() */\n      jump\t// in\n    tag_92:\n        /* \"@openzeppelin/contracts/access/Ownable.sol\":2169:2191  newOwner != address(0) */\n      0xffffffffffffffffffffffffffffffffffffffff\n      dup2\n      and\n        /* \"@openzeppelin/contracts/access/Ownable.sol\":2161:2234  require(newOwner != address(0), \"Ownable: new owner is the zero address\") */\n      tag_94\n      jumpi\n      mload(0x40)\n      0x08c379a000000000000000000000000000000000000000000000000000000000\n      dup2\n      mstore\n        /* \"#utility.yul\":2852:2854   */\n      0x20\n        /* \"@openzeppelin/contracts/access/Ownable.sol\":2161:2234  require(newOwner != address(0), \"Ownable: new owner is the zero address\") */\n      0x04\n      dup3\n      add\n        /* \"#utility.yul\":2834:2855   */\n      mstore\n        /* \"#utility.yul\":2891:2893   */\n      0x26\n        /* \"#utility.yul\":2871:2889   */\n      0x24\n      dup3\n      add\n        /* \"#utility.yul\":2864:2894   */\n      mstore\n        /* \"#utility.yul\":2930:2964   */\n      0x4f776e61626c653a206e6577206f776e657220697320746865207a65726f2061\n        /* \"#utility.yul\":2910:2928   */\n      0x44\n      dup3\n      add\n        /* \"#utility.yul\":2903:2965   */\n      mstore\n        /* \"#utility.yul\":3001:3009   */\n      0x6464726573730000000000000000000000000000000000000000000000000000\n        /* \"#utility.yul\":2981:2999   */\n      0x64\n      dup3\n      add\n        /* \"#utility.yul\":2974:3010   */\n      mstore\n        /* \"#utility.yul\":3027:3046   */\n      0x84\n      add\n        /* \"@openzeppelin/contracts/access/Ownable.sol\":2161:2234  require(newOwner != address(0), \"Ownable: new owner is the zero address\") */\n      tag_60\n        /* \"#utility.yul\":2650:3052   */\n      jump\n        /* \"@openzeppelin/contracts/access/Ownable.sol\":2161:2234  require(newOwner != address(0), \"Ownable: new owner is the zero address\") */\n    tag_94:\n        /* \"@openzeppelin/contracts/access/Ownable.sol\":2244:2272  _transferOwnership(newOwner) */\n      tag_97\n        /* \"@openzeppelin/contracts/access/Ownable.sol\":2263:2271  newOwner */\n      dup2\n        /* \"@openzeppelin/contracts/access/Ownable.sol\":2244:2262  _transferOwnership */\n      tag_75\n        /* \"@openzeppelin/contracts/access/Ownable.sol\":2244:2272  _transferOwnership(newOwner) */\n      jump\t// in\n    tag_97:\n        /* \"@openzeppelin/contracts/access/Ownable.sol\":2081:2279  function transferOwnership(address newOwner) public virtual onlyOwner {... */\n      pop\n      jump\t// out\n        /* \"@openzeppelin/contracts/access/Ownable.sol\":1359:1489  function _checkOwner() internal view virtual {... */\n    tag_57:\n        /* \"@openzeppelin/contracts/access/Ownable.sol\":1247:1254  address */\n      0x00\n        /* \"@openzeppelin/contracts/access/Ownable.sol\":1273:1279  _owner */\n      sload\n        /* \"@openzeppelin/contracts/access/Ownable.sol\":1422:1445  owner() == _msgSender() */\n      0xffffffffffffffffffffffffffffffffffffffff\n        /* \"@openzeppelin/contracts/access/Ownable.sol\":1273:1279  _owner */\n      and\n        /* \"@openzeppelin/contracts/utils/Context.sol\":719:729  msg.sender */\n      caller\n        /* \"@openzeppelin/contracts/access/Ownable.sol\":1422:1445  owner() == _msgSender() */\n      eq\n        /* \"@openzeppelin/contracts/access/Ownable.sol\":1414:1482  require(owner() == _msgSender(), \"Ownable: caller is not the owner\") */\n      tag_74\n      jumpi\n      mload(0x40)\n      0x08c379a000000000000000000000000000000000000000000000000000000000\n      dup2\n      mstore\n        /* \"#utility.yul\":3259:3261   */\n      0x20\n        /* \"@openzeppelin/contracts/access/Ownable.sol\":1414:1482  require(owner() == _msgSender(), \"Ownable: caller is not the owner\") */\n      0x04\n      dup3\n      add\n        /* \"#utility.yul\":3241:3262   */\n      dup2\n      swap1\n      mstore\n        /* \"#utility.yul\":3278:3296   */\n      0x24\n      dup3\n      add\n        /* \"#utility.yul\":3271:3301   */\n      mstore\n        /* \"#utility.yul\":3337:3371   */\n      0x4f776e61626c653a2063616c6c6572206973206e6f7420746865206f776e6572\n        /* \"#utility.yul\":3317:3335   */\n      0x44\n      dup3\n      add\n        /* \"#utility.yul\":3310:3372   */\n      mstore\n        /* \"#utility.yul\":3389:3407   */\n      0x64\n      add\n        /* \"@openzeppelin/contracts/access/Ownable.sol\":1414:1482  require(owner() == _msgSender(), \"Ownable: caller is not the owner\") */\n      tag_60\n        /* \"#utility.yul\":3057:3413   */\n      jump\n        /* \"@openzeppelin/contracts/access/Ownable.sol\":2433:2620  function _transferOwnership(address newOwner) internal virtual {... */\n    tag_75:\n        /* \"@openzeppelin/contracts/access/Ownable.sol\":2506:2522  address oldOwner */\n      0x00\n        /* \"@openzeppelin/contracts/access/Ownable.sol\":2525:2531  _owner */\n      dup1\n      sload\n      0xffffffffffffffffffffffffffffffffffffffff\n        /* \"@openzeppelin/contracts/access/Ownable.sol\":2541:2558  _owner = newOwner */\n      dup4\n      dup2\n      and\n      0xffffffffffffffffffffffff0000000000000000000000000000000000000000\n      dup4\n      and\n      dup2\n      or\n      dup5\n      sstore\n        /* \"@openzeppelin/contracts/access/Ownable.sol\":2573:2613  OwnershipTransferred(oldOwner, newOwner) */\n      mload(0x40)\n        /* \"@openzeppelin/contracts/access/Ownable.sol\":2525:2531  _owner */\n      swap2\n      swap1\n      swap3\n      and\n      swap3\n      dup4\n      swap2\n        /* \"@openzeppelin/contracts/access/Ownable.sol\":2573:2613  OwnershipTransferred(oldOwner, newOwner) */\n      0x8be0079c531659141344cd1fd0a4f28419497f9722a3daafe3b4186f6b6457e0\n      swap2\n        /* \"@openzeppelin/contracts/access/Ownable.sol\":2506:2522  address oldOwner */\n      swap1\n        /* \"@openzeppelin/contracts/access/Ownable.sol\":2573:2613  OwnershipTransferred(oldOwner, newOwner) */\n      log3\n        /* \"@openzeppelin/contracts/access/Ownable.sol\":2496:2620  {... */\n      pop\n        /* \"@openzeppelin/contracts/access/Ownable.sol\":2433:2620  function _transferOwnership(address newOwner) internal virtual {... */\n      pop\n      jump\t// out\n        /* \"#utility.yul\":14:210   */\n    tag_107:\n        /* \"#utility.yul\":82:102   */\n      dup1\n      calldataload\n        /* \"#utility.yul\":142:184   */\n      0xffffffffffffffffffffffffffffffffffffffff\n        /* \"#utility.yul\":131:185   */\n      dup2\n      and\n        /* \"#utility.yul\":121:186   */\n      dup2\n      eq\n        /* \"#utility.yul\":111:204   */\n      tag_90\n      jumpi\n        /* \"#utility.yul\":200:201   */\n      0x00\n        /* \"#utility.yul\":197:198   */\n      dup1\n        /* \"#utility.yul\":190:202   */\n      revert\n        /* \"#utility.yul\":215:475   */\n    tag_19:\n        /* \"#utility.yul\":283:289   */\n      0x00\n        /* \"#utility.yul\":291:297   */\n      dup1\n        /* \"#utility.yul\":344:346   */\n      0x40\n        /* \"#utility.yul\":332:341   */\n      dup4\n        /* \"#utility.yul\":323:330   */\n      dup6\n        /* \"#utility.yul\":319:342   */\n      sub\n        /* \"#utility.yul\":315:347   */\n      slt\n        /* \"#utility.yul\":312:364   */\n      iszero\n      tag_112\n      jumpi\n        /* \"#utility.yul\":360:361   */\n      0x00\n        /* \"#utility.yul\":357:358   */\n      dup1\n        /* \"#utility.yul\":350:362   */\n      revert\n        /* \"#utility.yul\":312:364   */\n    tag_112:\n        /* \"#utility.yul\":383:412   */\n      tag_113\n        /* \"#utility.yul\":402:411   */\n      dup4\n        /* \"#utility.yul\":383:412   */\n      tag_107\n      jump\t// in\n    tag_113:\n        /* \"#utility.yul\":373:412   */\n      swap2\n      pop\n        /* \"#utility.yul\":431:469   */\n      tag_114\n        /* \"#utility.yul\":465:467   */\n      0x20\n        /* \"#utility.yul\":454:463   */\n      dup5\n        /* \"#utility.yul\":450:468   */\n      add\n        /* \"#utility.yul\":431:469   */\n      tag_107\n      jump\t// in\n    tag_114:\n        /* \"#utility.yul\":421:469   */\n      swap1\n      pop\n        /* \"#utility.yul\":215:475   */\n      swap3\n      pop\n      swap3\n      swap1\n      pop\n      jump\t// out\n        /* \"#utility.yul\":964:1150   */\n    tag_31:\n        /* \"#utility.yul\":1023:1029   */\n      0x00\n        /* \"#utility.yul\":1076:1078   */\n      0x20\n        /* \"#utility.yul\":1064:1073   */\n      dup3\n        /* \"#utility.yul\":1055:1062   */\n      dup5\n        /* \"#utility.yul\":1051:1074   */\n      sub\n        /* \"#utility.yul\":1047:1079   */\n      slt\n        /* \"#utility.yul\":1044:1096   */\n      iszero\n      tag_118\n      jumpi\n        /* \"#utility.yul\":1092:1093   */\n      0x00\n        /* \"#utility.yul\":1089:1090   */\n      dup1\n        /* \"#utility.yul\":1082:1094   */\n      revert\n        /* \"#utility.yul\":1044:1096   */\n    tag_118:\n        /* \"#utility.yul\":1115:1144   */\n      tag_119\n        /* \"#utility.yul\":1134:1143   */\n      dup3\n        /* \"#utility.yul\":1115:1144   */\n      tag_107\n      jump\t// in\n    tag_119:\n        /* \"#utility.yul\":1105:1144   */\n      swap4\n        /* \"#utility.yul\":964:1150   */\n      swap3\n      pop\n      pop\n      pop\n      jump\t// out\n        /* \"#utility.yul\":2368:2645   */\n    tag_83:\n        /* \"#utility.yul\":2435:2441   */\n      0x00\n        /* \"#utility.yul\":2488:2490   */\n      0x20\n        /* \"#utility.yul\":2476:2485   */\n      dup3\n        /* \"#utility.yul\":2467:2474   */\n      dup5\n        /* \"#utility.yul\":2463:2486   */\n      sub\n        /* \"#utility.yul\":2459:2491   */\n      slt\n        /* \"#utility.yul\":2456:2508   */\n      iszero\n      tag_124\n      jumpi\n        /* \"#utility.yul\":2504:2505   */\n      0x00\n        /* \"#utility.yul\":2501:2502   */\n      dup1\n        /* \"#utility.yul\":2494:2506   */\n      revert\n        /* \"#utility.yul\":2456:2508   */\n    tag_124:\n        /* \"#utility.yul\":2536:2545   */\n      dup2\n        /* \"#utility.yul\":2530:2546   */\n      mload\n        /* \"#utility.yul\":2589:2594   */\n      dup1\n        /* \"#utility.yul\":2582:2595   */\n      iszero\n        /* \"#utility.yul\":2575:2596   */\n      iszero\n        /* \"#utility.yul\":2568:2573   */\n      dup2\n        /* \"#utility.yul\":2565:2597   */\n      eq\n        /* \"#utility.yul\":2555:2615   */\n      tag_119\n      jumpi\n        /* \"#utility.yul\":2611:2612   */\n      0x00\n        /* \"#utility.yul\":2608:2609   */\n      dup1\n        /* \"#utility.yul\":2601:2613   */\n      revert\n\n    auxdata: 0xa26469706673582212208b6b33f029138aa5672cad8e4e5318625a04557372a7024769cd9b4a4f10420364736f6c63430008110033\n}\n",
				"bytecode": {
					"linkReferences": {},
					"object": "60c060405234801561001057600080fd5b50604051610b03380380610b0383398101604081905261002f916100bb565b6100383361004f565b6001600160a01b039182166080521660a0526100ee565b600080546001600160a01b038381166001600160a01b0319831681178455604051919092169283917f8be0079c531659141344cd1fd0a4f28419497f9722a3daafe3b4186f6b6457e09190a35050565b80516001600160a01b03811681146100b657600080fd5b919050565b600080604083850312156100ce57600080fd5b6100d78361009f565b91506100e56020840161009f565b90509250929050565b60805160a0516109e261012160003960008181610145015261073f015260008181610200015261066501526109e26000f3fe608060405234801561001057600080fd5b50600436106100c95760003560e01c8063715018a611610081578063bc6bc0cd1161005b578063bc6bc0cd14610222578063cc15949314610249578063f2fde38b1461025c57600080fd5b8063715018a6146101d55780638da5cb5b146101dd578063b1357ddd146101fb57600080fd5b806338928956116100b257806338928956146101405780634216a7531461018c5780637053fb79146101c257600080fd5b806325c6a895146100ce57806333bf6156146100e3575b600080fd5b6100e16100dc366004610935565b61026f565b005b61010a7fd9b67a260000000000000000000000000000000000000000000000000000000081565b6040517fffffffff0000000000000000000000000000000000000000000000000000000090911681526020015b60405180910390f35b6101677f000000000000000000000000000000000000000000000000000000000000000081565b60405173ffffffffffffffffffffffffffffffffffffffff9091168152602001610137565b61016761019a366004610968565b60016020526000908152604090205473ffffffffffffffffffffffffffffffffffffffff1681565b6100e16101d0366004610968565b61043e565b6100e161056e565b60005473ffffffffffffffffffffffffffffffffffffffff16610167565b6101677f000000000000000000000000000000000000000000000000000000000000000081565b61010a7f80ac58cd0000000000000000000000000000000000000000000000000000000081565b610167610257366004610968565b610582565b6100e161026a366004610968565b610764565b61027761081b565b73ffffffffffffffffffffffffffffffffffffffff821661031f576040517f08c379a000000000000000000000000000000000000000000000000000000000815260206004820152602260248201527f20436f6c6c656374696f6e2063616e6e6f74206265206e756c6c20616464726560448201527f737300000000000000000000000000000000000000000000000000000000000060648201526084015b60405180910390fd5b73ffffffffffffffffffffffffffffffffffffffff81166103c2576040517f08c379a000000000000000000000000000000000000000000000000000000000815260206004820152602660248201527f5472616e736665724d616e616765722063616e6e6f74206265206e756c6c206160448201527f64647265737300000000000000000000000000000000000000000000000000006064820152608401610316565b73ffffffffffffffffffffffffffffffffffffffff82811660008181526001602052604080822080547fffffffffffffffffffffffff0000000000000000000000000000000000000000169486169485179055517fda166be6ba0ebb71be3f83e7d669765de552ea08978bfe3e3e42d54174111b629190a35050565b61044661081b565b73ffffffffffffffffffffffffffffffffffffffff818116600090815260016020526040902054166104fa576040517f08c379a000000000000000000000000000000000000000000000000000000000815260206004820152602260248201527f436f6c6c656374696f6e20686173206e6f207472616e73666572206d616e616760448201527f65720000000000000000000000000000000000000000000000000000000000006064820152608401610316565b73ffffffffffffffffffffffffffffffffffffffff811660008181526001602052604080822080547fffffffffffffffffffffffff0000000000000000000000000000000000000000169055517f8c3bf4babc197f3db0e7ec65aaf23fc0efb0e689436aeea8514c3f01fd97841f9190a250565b61057661081b565b610580600061089c565b565b73ffffffffffffffffffffffffffffffffffffffff808216600090815260016020526040902054168061075f576040517f01ffc9a70000000000000000000000000000000000000000000000000000000081527f80ac58cd00000000000000000000000000000000000000000000000000000000600482015273ffffffffffffffffffffffffffffffffffffffff8316906301ffc9a790602401602060405180830381865afa158015610639573d6000803e3d6000fd5b505050506040513d601f19601f8201168201806040525081019061065d919061098a565b1561068957507f0000000000000000000000000000000000000000000000000000000000000000919050565b6040517f01ffc9a70000000000000000000000000000000000000000000000000000000081527fd9b67a2600000000000000000000000000000000000000000000000000000000600482015273ffffffffffffffffffffffffffffffffffffffff8316906301ffc9a790602401602060405180830381865afa158015610713573d6000803e3d6000fd5b505050506040513d601f19601f82011682018060405250810190610737919061098a565b1561075f57507f00000000000000000000000000000000000000000000000000000000000000005b919050565b61076c61081b565b73ffffffffffffffffffffffffffffffffffffffff811661080f576040517f08c379a000000000000000000000000000000000000000000000000000000000815260206004820152602660248201527f4f776e61626c653a206e6577206f776e657220697320746865207a65726f206160448201527f64647265737300000000000000000000000000000000000000000000000000006064820152608401610316565b6108188161089c565b50565b60005473ffffffffffffffffffffffffffffffffffffffff163314610580576040517f08c379a000000000000000000000000000000000000000000000000000000000815260206004820181905260248201527f4f776e61626c653a2063616c6c6572206973206e6f7420746865206f776e65726044820152606401610316565b6000805473ffffffffffffffffffffffffffffffffffffffff8381167fffffffffffffffffffffffff0000000000000000000000000000000000000000831681178455604051919092169283917f8be0079c531659141344cd1fd0a4f28419497f9722a3daafe3b4186f6b6457e09190a35050565b803573ffffffffffffffffffffffffffffffffffffffff8116811461075f57600080fd5b6000806040838503121561094857600080fd5b61095183610911565b915061095f60208401610911565b90509250929050565b60006020828403121561097a57600080fd5b61098382610911565b9392505050565b60006020828403121561099c57600080fd5b8151801515811461098357600080fdfea26469706673582212208b6b33f029138aa5672cad8e4e5318625a04557372a7024769cd9b4a4f10420364736f6c63430008110033",
					"opcodes": "PUSH1 0xC0 PUSH1 0x40 MSTORE CALLVALUE DUP1 ISZERO PUSH2 0x10 JUMPI PUSH1 0x0 DUP1 REVERT JUMPDEST POP PUSH1 0x40 MLOAD PUSH2 0xB03 CODESIZE SUB DUP1 PUSH2 0xB03 DUP4 CODECOPY DUP2 ADD PUSH1 0x40 DUP2 SWAP1 MSTORE PUSH2 0x2F SWAP2 PUSH2 0xBB JUMP JUMPDEST PUSH2 0x38 CALLER PUSH2 0x4F JUMP JUMPDEST PUSH1 0x1 PUSH1 0x1 PUSH1 0xA0 SHL SUB SWAP2 DUP3 AND PUSH1 0x80 MSTORE AND PUSH1 0xA0 MSTORE PUSH2 0xEE JUMP JUMPDEST PUSH1 0x0 DUP1 SLOAD PUSH1 0x1 PUSH1 0x1 PUSH1 0xA0 SHL SUB DUP4 DUP2 AND PUSH1 0x1 PUSH1 0x1 PUSH1 0xA0 SHL SUB NOT DUP4 AND DUP2 OR DUP5 SSTORE PUSH1 0x40 MLOAD SWAP2 SWAP1 SWAP3 AND SWAP3 DUP4 SWAP2 PUSH32 0x8BE0079C531659141344CD1FD0A4F28419497F9722A3DAAFE3B4186F6B6457E0 SWAP2 SWAP1 LOG3 POP POP JUMP JUMPDEST DUP1 MLOAD PUSH1 0x1 PUSH1 0x1 PUSH1 0xA0 SHL SUB DUP2 AND DUP2 EQ PUSH2 0xB6 JUMPI PUSH1 0x0 DUP1 REVERT JUMPDEST SWAP2 SWAP1 POP JUMP JUMPDEST PUSH1 0x0 DUP1 PUSH1 0x40 DUP4 DUP6 SUB SLT ISZERO PUSH2 0xCE JUMPI PUSH1 0x0 DUP1 REVERT JUMPDEST PUSH2 0xD7 DUP4 PUSH2 0x9F JUMP JUMPDEST SWAP2 POP PUSH2 0xE5 PUSH1 0x20 DUP5 ADD PUSH2 0x9F JUMP JUMPDEST SWAP1 POP SWAP3 POP SWAP3 SWAP1 POP JUMP JUMPDEST PUSH1 0x80 MLOAD PUSH1 0xA0 MLOAD PUSH2 0x9E2 PUSH2 0x121 PUSH1 0x0 CODECOPY PUSH1 0x0 DUP2 DUP2 PUSH2 0x145 ADD MSTORE PUSH2 0x73F ADD MSTORE PUSH1 0x0 DUP2 DUP2 PUSH2 0x200 ADD MSTORE PUSH2 0x665 ADD MSTORE PUSH2 0x9E2 PUSH1 0x0 RETURN INVALID PUSH1 0x80 PUSH1 0x40 MSTORE CALLVALUE DUP1 ISZERO PUSH2 0x10 JUMPI PUSH1 0x0 DUP1 REVERT JUMPDEST POP PUSH1 0x4 CALLDATASIZE LT PUSH2 0xC9 JUMPI PUSH1 0x0 CALLDATALOAD PUSH1 0xE0 SHR DUP1 PUSH4 0x715018A6 GT PUSH2 0x81 JUMPI DUP1 PUSH4 0xBC6BC0CD GT PUSH2 0x5B JUMPI DUP1 PUSH4 0xBC6BC0CD EQ PUSH2 0x222 JUMPI DUP1 PUSH4 0xCC159493 EQ PUSH2 0x249 JUMPI DUP1 PUSH4 0xF2FDE38B EQ PUSH2 0x25C JUMPI PUSH1 0x0 DUP1 REVERT JUMPDEST DUP1 PUSH4 0x715018A6 EQ PUSH2 0x1D5 JUMPI DUP1 PUSH4 0x8DA5CB5B EQ PUSH2 0x1DD JUMPI DUP1 PUSH4 0xB1357DDD EQ PUSH2 0x1FB JUMPI PUSH1 0x0 DUP1 REVERT JUMPDEST DUP1 PUSH4 0x38928956 GT PUSH2 0xB2 JUMPI DUP1 PUSH4 0x38928956 EQ PUSH2 0x140 JUMPI DUP1 PUSH4 0x4216A753 EQ PUSH2 0x18C JUMPI DUP1 PUSH4 0x7053FB79 EQ PUSH2 0x1C2 JUMPI PUSH1 0x0 DUP1 REVERT JUMPDEST DUP1 PUSH4 0x25C6A895 EQ PUSH2 0xCE JUMPI DUP1 PUSH4 0x33BF6156 EQ PUSH2 0xE3 JUMPI JUMPDEST PUSH1 0x0 DUP1 REVERT JUMPDEST PUSH2 0xE1 PUSH2 0xDC CALLDATASIZE PUSH1 0x4 PUSH2 0x935 JUMP JUMPDEST PUSH2 0x26F JUMP JUMPDEST STOP JUMPDEST PUSH2 0x10A PUSH32 0xD9B67A2600000000000000000000000000000000000000000000000000000000 DUP2 JUMP JUMPDEST PUSH1 0x40 MLOAD PUSH32 0xFFFFFFFF00000000000000000000000000000000000000000000000000000000 SWAP1 SWAP2 AND DUP2 MSTORE PUSH1 0x20 ADD JUMPDEST PUSH1 0x40 MLOAD DUP1 SWAP2 SUB SWAP1 RETURN JUMPDEST PUSH2 0x167 PUSH32 0x0 DUP2 JUMP JUMPDEST PUSH1 0x40 MLOAD PUSH20 0xFFFFFFFFFFFFFFFFFFFFFFFFFFFFFFFFFFFFFFFF SWAP1 SWAP2 AND DUP2 MSTORE PUSH1 0x20 ADD PUSH2 0x137 JUMP JUMPDEST PUSH2 0x167 PUSH2 0x19A CALLDATASIZE PUSH1 0x4 PUSH2 0x968 JUMP JUMPDEST PUSH1 0x1 PUSH1 0x20 MSTORE PUSH1 0x0 SWAP1 DUP2 MSTORE PUSH1 0x40 SWAP1 KECCAK256 SLOAD PUSH20 0xFFFFFFFFFFFFFFFFFFFFFFFFFFFFFFFFFFFFFFFF AND DUP2 JUMP JUMPDEST PUSH2 0xE1 PUSH2 0x1D0 CALLDATASIZE PUSH1 0x4 PUSH2 0x968 JUMP JUMPDEST PUSH2 0x43E JUMP JUMPDEST PUSH2 0xE1 PUSH2 0x56E JUMP JUMPDEST PUSH1 0x0 SLOAD PUSH20 0xFFFFFFFFFFFFFFFFFFFFFFFFFFFFFFFFFFFFFFFF AND PUSH2 0x167 JUMP JUMPDEST PUSH2 0x167 PUSH32 0x0 DUP2 JUMP JUMPDEST PUSH2 0x10A PUSH32 0x80AC58CD00000000000000000000000000000000000000000000000000000000 DUP2 JUMP JUMPDEST PUSH2 0x167 PUSH2 0x257 CALLDATASIZE PUSH1 0x4 PUSH2 0x968 JUMP JUMPDEST PUSH2 0x582 JUMP JUMPDEST PUSH2 0xE1 PUSH2 0x26A CALLDATASIZE PUSH1 0x4 PUSH2 0x968 JUMP JUMPDEST PUSH2 0x764 JUMP JUMPDEST PUSH2 0x277 PUSH2 0x81B JUMP JUMPDEST PUSH20 0xFFFFFFFFFFFFFFFFFFFFFFFFFFFFFFFFFFFFFFFF DUP3 AND PUSH2 0x31F JUMPI PUSH1 0x40 MLOAD PUSH32 0x8C379A000000000000000000000000000000000000000000000000000000000 DUP2 MSTORE PUSH1 0x20 PUSH1 0x4 DUP3 ADD MSTORE PUSH1 0x22 PUSH1 0x24 DUP3 ADD MSTORE PUSH32 0x20436F6C6C656374696F6E2063616E6E6F74206265206E756C6C206164647265 PUSH1 0x44 DUP3 ADD MSTORE PUSH32 0x7373000000000000000000000000000000000000000000000000000000000000 PUSH1 0x64 DUP3 ADD MSTORE PUSH1 0x84 ADD JUMPDEST PUSH1 0x40 MLOAD DUP1 SWAP2 SUB SWAP1 REVERT JUMPDEST PUSH20 0xFFFFFFFFFFFFFFFFFFFFFFFFFFFFFFFFFFFFFFFF DUP2 AND PUSH2 0x3C2 JUMPI PUSH1 0x40 MLOAD PUSH32 0x8C379A000000000000000000000000000000000000000000000000000000000 DUP2 MSTORE PUSH1 0x20 PUSH1 0x4 DUP3 ADD MSTORE PUSH1 0x26 PUSH1 0x24 DUP3 ADD MSTORE PUSH32 0x5472616E736665724D616E616765722063616E6E6F74206265206E756C6C2061 PUSH1 0x44 DUP3 ADD MSTORE PUSH32 0x6464726573730000000000000000000000000000000000000000000000000000 PUSH1 0x64 DUP3 ADD MSTORE PUSH1 0x84 ADD PUSH2 0x316 JUMP JUMPDEST PUSH20 0xFFFFFFFFFFFFFFFFFFFFFFFFFFFFFFFFFFFFFFFF DUP3 DUP2 AND PUSH1 0x0 DUP2 DUP2 MSTORE PUSH1 0x1 PUSH1 0x20 MSTORE PUSH1 0x40 DUP1 DUP3 KECCAK256 DUP1 SLOAD PUSH32 0xFFFFFFFFFFFFFFFFFFFFFFFF0000000000000000000000000000000000000000 AND SWAP5 DUP7 AND SWAP5 DUP6 OR SWAP1 SSTORE MLOAD PUSH32 0xDA166BE6BA0EBB71BE3F83E7D669765DE552EA08978BFE3E3E42D54174111B62 SWAP2 SWAP1 LOG3 POP POP JUMP JUMPDEST PUSH2 0x446 PUSH2 0x81B JUMP JUMPDEST PUSH20 0xFFFFFFFFFFFFFFFFFFFFFFFFFFFFFFFFFFFFFFFF DUP2 DUP2 AND PUSH1 0x0 SWAP1 DUP2 MSTORE PUSH1 0x1 PUSH1 0x20 MSTORE PUSH1 0x40 SWAP1 KECCAK256 SLOAD AND PUSH2 0x4FA JUMPI PUSH1 0x40 MLOAD PUSH32 0x8C379A000000000000000000000000000000000000000000000000000000000 DUP2 MSTORE PUSH1 0x20 PUSH1 0x4 DUP3 ADD MSTORE PUSH1 0x22 PUSH1 0x24 DUP3 ADD MSTORE PUSH32 0x436F6C6C656374696F6E20686173206E6F207472616E73666572206D616E6167 PUSH1 0x44 DUP3 ADD MSTORE PUSH32 0x6572000000000000000000000000000000000000000000000000000000000000 PUSH1 0x64 DUP3 ADD MSTORE PUSH1 0x84 ADD PUSH2 0x316 JUMP JUMPDEST PUSH20 0xFFFFFFFFFFFFFFFFFFFFFFFFFFFFFFFFFFFFFFFF DUP2 AND PUSH1 0x0 DUP2 DUP2 MSTORE PUSH1 0x1 PUSH1 0x20 MSTORE PUSH1 0x40 DUP1 DUP3 KECCAK256 DUP1 SLOAD PUSH32 0xFFFFFFFFFFFFFFFFFFFFFFFF0000000000000000000000000000000000000000 AND SWAP1 SSTORE MLOAD PUSH32 0x8C3BF4BABC197F3DB0E7EC65AAF23FC0EFB0E689436AEEA8514C3F01FD97841F SWAP2 SWAP1 LOG2 POP JUMP JUMPDEST PUSH2 0x576 PUSH2 0x81B JUMP JUMPDEST PUSH2 0x580 PUSH1 0x0 PUSH2 0x89C JUMP JUMPDEST JUMP JUMPDEST PUSH20 0xFFFFFFFFFFFFFFFFFFFFFFFFFFFFFFFFFFFFFFFF DUP1 DUP3 AND PUSH1 0x0 SWAP1 DUP2 MSTORE PUSH1 0x1 PUSH1 0x20 MSTORE PUSH1 0x40 SWAP1 KECCAK256 SLOAD AND DUP1 PUSH2 0x75F JUMPI PUSH1 0x40 MLOAD PUSH32 0x1FFC9A700000000000000000000000000000000000000000000000000000000 DUP2 MSTORE PUSH32 0x80AC58CD00000000000000000000000000000000000000000000000000000000 PUSH1 0x4 DUP3 ADD MSTORE PUSH20 0xFFFFFFFFFFFFFFFFFFFFFFFFFFFFFFFFFFFFFFFF DUP4 AND SWAP1 PUSH4 0x1FFC9A7 SWAP1 PUSH1 0x24 ADD PUSH1 0x20 PUSH1 0x40 MLOAD DUP1 DUP4 SUB DUP2 DUP7 GAS STATICCALL ISZERO DUP1 ISZERO PUSH2 0x639 JUMPI RETURNDATASIZE PUSH1 0x0 DUP1 RETURNDATACOPY RETURNDATASIZE PUSH1 0x0 REVERT JUMPDEST POP POP POP POP PUSH1 0x40 MLOAD RETURNDATASIZE PUSH1 0x1F NOT PUSH1 0x1F DUP3 ADD AND DUP3 ADD DUP1 PUSH1 0x40 MSTORE POP DUP2 ADD SWAP1 PUSH2 0x65D SWAP2 SWAP1 PUSH2 0x98A JUMP JUMPDEST ISZERO PUSH2 0x689 JUMPI POP PUSH32 0x0 SWAP2 SWAP1 POP JUMP JUMPDEST PUSH1 0x40 MLOAD PUSH32 0x1FFC9A700000000000000000000000000000000000000000000000000000000 DUP2 MSTORE PUSH32 0xD9B67A2600000000000000000000000000000000000000000000000000000000 PUSH1 0x4 DUP3 ADD MSTORE PUSH20 0xFFFFFFFFFFFFFFFFFFFFFFFFFFFFFFFFFFFFFFFF DUP4 AND SWAP1 PUSH4 0x1FFC9A7 SWAP1 PUSH1 0x24 ADD PUSH1 0x20 PUSH1 0x40 MLOAD DUP1 DUP4 SUB DUP2 DUP7 GAS STATICCALL ISZERO DUP1 ISZERO PUSH2 0x713 JUMPI RETURNDATASIZE PUSH1 0x0 DUP1 RETURNDATACOPY RETURNDATASIZE PUSH1 0x0 REVERT JUMPDEST POP POP POP POP PUSH1 0x40 MLOAD RETURNDATASIZE PUSH1 0x1F NOT PUSH1 0x1F DUP3 ADD AND DUP3 ADD DUP1 PUSH1 0x40 MSTORE POP DUP2 ADD SWAP1 PUSH2 0x737 SWAP2 SWAP1 PUSH2 0x98A JUMP JUMPDEST ISZERO PUSH2 0x75F JUMPI POP PUSH32 0x0 JUMPDEST SWAP2 SWAP1 POP JUMP JUMPDEST PUSH2 0x76C PUSH2 0x81B JUMP JUMPDEST PUSH20 0xFFFFFFFFFFFFFFFFFFFFFFFFFFFFFFFFFFFFFFFF DUP2 AND PUSH2 0x80F JUMPI PUSH1 0x40 MLOAD PUSH32 0x8C379A000000000000000000000000000000000000000000000000000000000 DUP2 MSTORE PUSH1 0x20 PUSH1 0x4 DUP3 ADD MSTORE PUSH1 0x26 PUSH1 0x24 DUP3 ADD MSTORE PUSH32 0x4F776E61626C653A206E6577206F776E657220697320746865207A65726F2061 PUSH1 0x44 DUP3 ADD MSTORE PUSH32 0x6464726573730000000000000000000000000000000000000000000000000000 PUSH1 0x64 DUP3 ADD MSTORE PUSH1 0x84 ADD PUSH2 0x316 JUMP JUMPDEST PUSH2 0x818 DUP2 PUSH2 0x89C JUMP JUMPDEST POP JUMP JUMPDEST PUSH1 0x0 SLOAD PUSH20 0xFFFFFFFFFFFFFFFFFFFFFFFFFFFFFFFFFFFFFFFF AND CALLER EQ PUSH2 0x580 JUMPI PUSH1 0x40 MLOAD PUSH32 0x8C379A000000000000000000000000000000000000000000000000000000000 DUP2 MSTORE PUSH1 0x20 PUSH1 0x4 DUP3 ADD DUP2 SWAP1 MSTORE PUSH1 0x24 DUP3 ADD MSTORE PUSH32 0x4F776E61626C653A2063616C6C6572206973206E6F7420746865206F776E6572 PUSH1 0x44 DUP3 ADD MSTORE PUSH1 0x64 ADD PUSH2 0x316 JUMP JUMPDEST PUSH1 0x0 DUP1 SLOAD PUSH20 0xFFFFFFFFFFFFFFFFFFFFFFFFFFFFFFFFFFFFFFFF DUP4 DUP2 AND PUSH32 0xFFFFFFFFFFFFFFFFFFFFFFFF0000000000000000000000000000000000000000 DUP4 AND DUP2 OR DUP5 SSTORE PUSH1 0x40 MLOAD SWAP2 SWAP1 SWAP3 AND SWAP3 DUP4 SWAP2 PUSH32 0x8BE0079C531659141344CD1FD0A4F28419497F9722A3DAAFE3B4186F6B6457E0 SWAP2 SWAP1 LOG3 POP POP JUMP JUMPDEST DUP1 CALLDATALOAD PUSH20 0xFFFFFFFFFFFFFFFFFFFFFFFFFFFFFFFFFFFFFFFF DUP2 AND DUP2 EQ PUSH2 0x75F JUMPI PUSH1 0x0 DUP1 REVERT JUMPDEST PUSH1 0x0 DUP1 PUSH1 0x40 DUP4 DUP6 SUB SLT ISZERO PUSH2 0x948 JUMPI PUSH1 0x0 DUP1 REVERT JUMPDEST PUSH2 0x951 DUP4 PUSH2 0x911 JUMP JUMPDEST SWAP2 POP PUSH2 0x95F PUSH1 0x20 DUP5 ADD PUSH2 0x911 JUMP JUMPDEST SWAP1 POP SWAP3 POP SWAP3 SWAP1 POP JUMP JUMPDEST PUSH1 0x0 PUSH1 0x20 DUP3 DUP5 SUB SLT ISZERO PUSH2 0x97A JUMPI PUSH1 0x0 DUP1 REVERT JUMPDEST PUSH2 0x983 DUP3 PUSH2 0x911 JUMP JUMPDEST SWAP4 SWAP3 POP POP POP JUMP JUMPDEST PUSH1 0x0 PUSH1 0x20 DUP3 DUP5 SUB SLT ISZERO PUSH2 0x99C JUMPI PUSH1 0x0 DUP1 REVERT JUMPDEST DUP2 MLOAD DUP1 ISZERO ISZERO DUP2 EQ PUSH2 0x983 JUMPI PUSH1 0x0 DUP1 REVERT INVALID LOG2 PUSH5 0x6970667358 0x22 SLT KECCAK256 DUP12 PUSH12 0x33F029138AA5672CAD8E4E53 XOR PUSH3 0x5A0455 PUSH20 0x72A7024769CD9B4A4F10420364736F6C63430008 GT STOP CALLER "
				},
				"gasEstimates": {
					"creation": {
						"codeDepositCost": "506000",
						"executionCost": "infinite",
						"totalCost": "infinite"
					},
					"external": {
						"INTERFACE_ID_ERC1155()": "239",
						"INTERFACE_ID_ERC721()": "215",
						"TRANSFER_MANAGER_ERC1155()": "infinite",
						"TRANSFER_MANAGER_ERC721()": "infinite",
						"addCollectionTransferManager(address,address)": "infinite",
						"checkTransferManagerForToken(address)": "infinite",
						"owner()": "2352",
						"removeCollectionTransferManager(address)": "30139",
						"renounceOwnership()": "infinite",
						"transferManagerSelectorForCollection(address)": "2567",
						"transferOwnership(address)": "28336"
					}
				},
				"methodIdentifiers": {
					"INTERFACE_ID_ERC1155()": "33bf6156",
					"INTERFACE_ID_ERC721()": "bc6bc0cd",
					"TRANSFER_MANAGER_ERC1155()": "38928956",
					"TRANSFER_MANAGER_ERC721()": "b1357ddd",
					"addCollectionTransferManager(address,address)": "25c6a895",
					"checkTransferManagerForToken(address)": "cc159493",
					"owner()": "8da5cb5b",
					"removeCollectionTransferManager(address)": "7053fb79",
					"renounceOwnership()": "715018a6",
					"transferManagerSelectorForCollection(address)": "4216a753",
					"transferOwnership(address)": "f2fde38b"
				}
			},
			"storageLayout": {
				"storage": [
					{
						"astId": 7,
						"contract": "contracts/Manager/TransferSelectorNFT.sol:TransferSelectorNFT",
						"label": "_owner",
						"offset": 0,
						"slot": "0",
						"type": "t_address"
					},
					{
						"astId": 172,
						"contract": "contracts/Manager/TransferSelectorNFT.sol:TransferSelectorNFT",
						"label": "transferManagerSelectorForCollection",
						"offset": 0,
						"slot": "1",
						"type": "t_mapping(t_address,t_address)"
					}
				],
				"types": {
					"t_address": {
						"encoding": "inplace",
						"label": "address",
						"numberOfBytes": "20"
					},
					"t_mapping(t_address,t_address)": {
						"encoding": "mapping",
						"key": "t_address",
						"label": "mapping(address => address)",
						"numberOfBytes": "32",
						"value": "t_address"
					}
				}
			},
			"userdoc": {
				"kind": "user",
				"methods": {},
				"version": 1
			}
		}
	}
}