{
	"contracts/Manager/ExecutionManager.sol": {
		"ExecutionManager": {
			"abi": [
				{
					"anonymous": false,
					"inputs": [
						{
							"indexed": true,
							"internalType": "address",
							"name": "previousOwner",
							"type": "address"
						},
						{
							"indexed": true,
							"internalType": "address",
							"name": "newOwner",
							"type": "address"
						}
					],
					"name": "OwnershipTransferred",
					"type": "event"
				},
				{
					"anonymous": false,
					"inputs": [
						{
							"indexed": true,
							"internalType": "address",
							"name": "strategy",
							"type": "address"
						}
					],
					"name": "StrategyRemoved",
					"type": "event"
				},
				{
					"anonymous": false,
					"inputs": [
						{
							"indexed": true,
							"internalType": "address",
							"name": "strategy",
							"type": "address"
						}
					],
					"name": "StrategyWhitelisted",
					"type": "event"
				},
				{
					"inputs": [
						{
							"internalType": "address",
							"name": "strategy",
							"type": "address"
						}
					],
					"name": "addStrategy",
					"outputs": [],
					"stateMutability": "nonpayable",
					"type": "function"
				},
				{
					"inputs": [
						{
							"internalType": "address",
							"name": "strategy",
							"type": "address"
						}
					],
					"name": "isStrategyWhitelisted",
					"outputs": [
						{
							"internalType": "bool",
							"name": "",
							"type": "bool"
						}
					],
					"stateMutability": "view",
					"type": "function"
				},
				{
					"inputs": [],
					"name": "owner",
					"outputs": [
						{
							"internalType": "address",
							"name": "",
							"type": "address"
						}
					],
					"stateMutability": "view",
					"type": "function"
				},
				{
					"inputs": [
						{
							"internalType": "address",
							"name": "strategy",
							"type": "address"
						}
					],
					"name": "removeStrategy",
					"outputs": [],
					"stateMutability": "nonpayable",
					"type": "function"
				},
				{
					"inputs": [],
					"name": "renounceOwnership",
					"outputs": [],
					"stateMutability": "nonpayable",
					"type": "function"
				},
				{
					"inputs": [
						{
							"internalType": "address",
							"name": "newOwner",
							"type": "address"
						}
					],
					"name": "transferOwnership",
					"outputs": [],
					"stateMutability": "nonpayable",
					"type": "function"
				},
				{
					"inputs": [],
					"name": "viewCountWhitelistedStrategies",
					"outputs": [
						{
							"internalType": "uint256",
							"name": "",
							"type": "uint256"
						}
					],
					"stateMutability": "view",
					"type": "function"
				},
				{
					"inputs": [
						{
							"internalType": "uint256",
							"name": "cursor",
							"type": "uint256"
						},
						{
							"internalType": "uint256",
							"name": "size",
							"type": "uint256"
						}
					],
					"name": "viewWhitelistedStrategies",
					"outputs": [
						{
							"internalType": "address[]",
							"name": "",
							"type": "address[]"
						},
						{
							"internalType": "uint256",
							"name": "",
							"type": "uint256"
						}
					],
					"stateMutability": "view",
					"type": "function"
				}
			],
			"devdoc": {
				"kind": "dev",
				"methods": {
					"owner()": {
						"details": "Returns the address of the current owner."
					},
					"renounceOwnership()": {
						"details": "Leaves the contract without owner. It will not be possible to call `onlyOwner` functions anymore. Can only be called by the current owner. NOTE: Renouncing ownership will leave the contract without an owner, thereby removing any functionality that is only available to the owner."
					},
					"transferOwnership(address)": {
						"details": "Transfers ownership of the contract to a new account (`newOwner`). Can only be called by the current owner."
					}
				},
				"title": "ExecutionManager",
				"version": 1
			},
			"evm": {
				"assembly": "    /* \"contracts/Manager/ExecutionManager.sol\":405:2883  contract ExecutionManager is TheExManager, Ownable {... */\n  mstore(0x40, 0x80)\n  callvalue\n  dup1\n  iszero\n  tag_1\n  jumpi\n  0x00\n  dup1\n  revert\ntag_1:\n  pop\n    /* \"@openzeppelin/contracts/access/Ownable.sol\":936:968  _transferOwnership(_msgSender()) */\n  tag_4\n    /* \"@openzeppelin/contracts/utils/Context.sol\":719:729  msg.sender */\n  caller\n    /* \"@openzeppelin/contracts/access/Ownable.sol\":936:954  _transferOwnership */\n  tag_7\n    /* \"@openzeppelin/contracts/access/Ownable.sol\":936:968  _transferOwnership(_msgSender()) */\n  jump\t// in\ntag_4:\n    /* \"contracts/Manager/ExecutionManager.sol\":405:2883  contract ExecutionManager is TheExManager, Ownable {... */\n  jump(tag_8)\n    /* \"@openzeppelin/contracts/access/Ownable.sol\":2433:2620  function _transferOwnership(address newOwner) internal virtual {... */\ntag_7:\n    /* \"@openzeppelin/contracts/access/Ownable.sol\":2506:2522  address oldOwner */\n  0x00\n    /* \"@openzeppelin/contracts/access/Ownable.sol\":2525:2531  _owner */\n  dup1\n  sload\n  sub(shl(0xa0, 0x01), 0x01)\n    /* \"@openzeppelin/contracts/access/Ownable.sol\":2541:2558  _owner = newOwner */\n  dup4\n  dup2\n  and\n  not(sub(shl(0xa0, 0x01), 0x01))\n  dup4\n  and\n  dup2\n  or\n  dup5\n  sstore\n    /* \"@openzeppelin/contracts/access/Ownable.sol\":2573:2613  OwnershipTransferred(oldOwner, newOwner) */\n  mload(0x40)\n    /* \"@openzeppelin/contracts/access/Ownable.sol\":2525:2531  _owner */\n  swap2\n  swap1\n  swap3\n  and\n  swap3\n  dup4\n  swap2\n    /* \"@openzeppelin/contracts/access/Ownable.sol\":2573:2613  OwnershipTransferred(oldOwner, newOwner) */\n  0x8be0079c531659141344cd1fd0a4f28419497f9722a3daafe3b4186f6b6457e0\n  swap2\n    /* \"@openzeppelin/contracts/access/Ownable.sol\":2506:2522  address oldOwner */\n  swap1\n    /* \"@openzeppelin/contracts/access/Ownable.sol\":2573:2613  OwnershipTransferred(oldOwner, newOwner) */\n  log3\n    /* \"@openzeppelin/contracts/access/Ownable.sol\":2496:2620  {... */\n  pop\n    /* \"@openzeppelin/contracts/access/Ownable.sol\":2433:2620  function _transferOwnership(address newOwner) internal virtual {... */\n  pop\n  jump\t// out\n    /* \"contracts/Manager/ExecutionManager.sol\":405:2883  contract ExecutionManager is TheExManager, Ownable {... */\ntag_8:\n  dataSize(sub_0)\n  dup1\n  dataOffset(sub_0)\n  0x00\n  codecopy\n  0x00\n  return\nstop\n\nsub_0: assembly {\n        /* \"contracts/Manager/ExecutionManager.sol\":405:2883  contract ExecutionManager is TheExManager, Ownable {... */\n      mstore(0x40, 0x80)\n      callvalue\n      dup1\n      iszero\n      tag_1\n      jumpi\n      0x00\n      dup1\n      revert\n    tag_1:\n      pop\n      jumpi(tag_2, lt(calldatasize, 0x04))\n      shr(0xe0, calldataload(0x00))\n      dup1\n      0x8da5cb5b\n      gt\n      tag_11\n      jumpi\n      dup1\n      0x8da5cb5b\n      eq\n      tag_7\n      jumpi\n      dup1\n      0x985e3a2f\n      eq\n      tag_8\n      jumpi\n      dup1\n      0x999ba27c\n      eq\n      tag_9\n      jumpi\n      dup1\n      0xf2fde38b\n      eq\n      tag_10\n      jumpi\n      0x00\n      dup1\n      revert\n    tag_11:\n      dup1\n      0x175188e8\n      eq\n      tag_3\n      jumpi\n      dup1\n      0x223e5479\n      eq\n      tag_4\n      jumpi\n      dup1\n      0x31fb5b1f\n      eq\n      tag_5\n      jumpi\n      dup1\n      0x715018a6\n      eq\n      tag_6\n      jumpi\n    tag_2:\n      0x00\n      dup1\n      revert\n        /* \"contracts/Manager/ExecutionManager.sol\":1213:1466  function removeStrategy(address strategy) external override onlyOwner {... */\n    tag_3:\n      tag_12\n      tag_13\n      calldatasize\n      0x04\n      tag_14\n      jump\t// in\n    tag_13:\n      tag_15\n      jump\t// in\n    tag_12:\n      stop\n        /* \"contracts/Manager/ExecutionManager.sol\":817:1074  function addStrategy(address strategy) external override onlyOwner {... */\n    tag_4:\n      tag_12\n      tag_17\n      calldatasize\n      0x04\n      tag_14\n      jump\t// in\n    tag_17:\n      tag_18\n      jump\t// in\n        /* \"contracts/Manager/ExecutionManager.sol\":2277:2881  function viewWhitelistedStrategies(uint256 cursor, uint256 size)... */\n    tag_5:\n      tag_19\n      tag_20\n      calldatasize\n      0x04\n      tag_21\n      jump\t// in\n    tag_20:\n      tag_22\n      jump\t// in\n    tag_19:\n      mload(0x40)\n      tag_23\n      swap3\n      swap2\n      swap1\n      tag_24\n      jump\t// in\n    tag_23:\n      mload(0x40)\n      dup1\n      swap2\n      sub\n      swap1\n      return\n        /* \"@openzeppelin/contracts/access/Ownable.sol\":1831:1932  function renounceOwnership() public virtual onlyOwner {... */\n    tag_6:\n      tag_12\n      tag_26\n      jump\t// in\n        /* \"@openzeppelin/contracts/access/Ownable.sol\":1201:1286  function owner() public view virtual returns (address) {... */\n    tag_7:\n        /* \"@openzeppelin/contracts/access/Ownable.sol\":1247:1254  address */\n      0x00\n        /* \"@openzeppelin/contracts/access/Ownable.sol\":1273:1279  _owner */\n      sload\n        /* \"@openzeppelin/contracts/access/Ownable.sol\":1201:1286  function owner() public view virtual returns (address) {... */\n      mload(0x40)\n      sub(shl(0xa0, 0x01), 0x01)\n        /* \"@openzeppelin/contracts/access/Ownable.sol\":1273:1279  _owner */\n      swap1\n      swap2\n      and\n        /* \"#utility.yul\":1440:1491   */\n      dup2\n      mstore\n        /* \"#utility.yul\":1428:1430   */\n      0x20\n        /* \"#utility.yul\":1413:1431   */\n      add\n        /* \"@openzeppelin/contracts/access/Ownable.sol\":1201:1286  function owner() public view virtual returns (address) {... */\n      tag_23\n        /* \"#utility.yul\":1294:1497   */\n      jump\n        /* \"contracts/Manager/ExecutionManager.sol\":1944:2082  function viewCountWhitelistedStrategies() external view override returns (uint256) {... */\n    tag_8:\n      tag_31\n      tag_32\n      jump\t// in\n    tag_31:\n      mload(0x40)\n        /* \"#utility.yul\":1648:1673   */\n      swap1\n      dup2\n      mstore\n        /* \"#utility.yul\":1636:1638   */\n      0x20\n        /* \"#utility.yul\":1621:1639   */\n      add\n        /* \"contracts/Manager/ExecutionManager.sol\":1944:2082  function viewCountWhitelistedStrategies() external view override returns (uint256) {... */\n      tag_23\n        /* \"#utility.yul\":1502:1679   */\n      jump\n        /* \"contracts/Manager/ExecutionManager.sol\":1639:1791  function isStrategyWhitelisted(address strategy) external view override returns (bool) {... */\n    tag_9:\n      tag_35\n      tag_36\n      calldatasize\n      0x04\n      tag_14\n      jump\t// in\n    tag_36:\n      tag_37\n      jump\t// in\n    tag_35:\n      mload(0x40)\n        /* \"#utility.yul\":1849:1863   */\n      swap1\n      iszero\n        /* \"#utility.yul\":1842:1864   */\n      iszero\n        /* \"#utility.yul\":1824:1865   */\n      dup2\n      mstore\n        /* \"#utility.yul\":1812:1814   */\n      0x20\n        /* \"#utility.yul\":1797:1815   */\n      add\n        /* \"contracts/Manager/ExecutionManager.sol\":1639:1791  function isStrategyWhitelisted(address strategy) external view override returns (bool) {... */\n      tag_23\n        /* \"#utility.yul\":1684:1871   */\n      jump\n        /* \"@openzeppelin/contracts/access/Ownable.sol\":2081:2279  function transferOwnership(address newOwner) public virtual onlyOwner {... */\n    tag_10:\n      tag_12\n      tag_41\n      calldatasize\n      0x04\n      tag_14\n      jump\t// in\n    tag_41:\n      tag_42\n      jump\t// in\n        /* \"contracts/Manager/ExecutionManager.sol\":1213:1466  function removeStrategy(address strategy) external override onlyOwner {... */\n    tag_15:\n        /* \"@openzeppelin/contracts/access/Ownable.sol\":1094:1107  _checkOwner() */\n      tag_44\n        /* \"@openzeppelin/contracts/access/Ownable.sol\":1094:1105  _checkOwner */\n      tag_45\n        /* \"@openzeppelin/contracts/access/Ownable.sol\":1094:1107  _checkOwner() */\n      jump\t// in\n    tag_44:\n        /* \"contracts/Manager/ExecutionManager.sol\":1301:1342  _whitelistedStrategies.contains(strategy) */\n      tag_47\n        /* \"contracts/Manager/ExecutionManager.sol\":1301:1323  _whitelistedStrategies */\n      0x01\n        /* \"contracts/Manager/ExecutionManager.sol\":1333:1341  strategy */\n      dup3\n        /* \"contracts/Manager/ExecutionManager.sol\":1301:1332  _whitelistedStrategies.contains */\n      tag_48\n        /* \"contracts/Manager/ExecutionManager.sol\":1301:1342  _whitelistedStrategies.contains(strategy) */\n      jump\t// in\n    tag_47:\n        /* \"contracts/Manager/ExecutionManager.sol\":1293:1369  require(_whitelistedStrategies.contains(strategy), \"the ex not whitelisted\") */\n      tag_49\n      jumpi\n      mload(0x40)\n      shl(0xe5, 0x461bcd)\n      dup2\n      mstore\n        /* \"#utility.yul\":2078:2080   */\n      0x20\n        /* \"contracts/Manager/ExecutionManager.sol\":1293:1369  require(_whitelistedStrategies.contains(strategy), \"the ex not whitelisted\") */\n      0x04\n      dup3\n      add\n        /* \"#utility.yul\":2060:2081   */\n      mstore\n        /* \"#utility.yul\":2117:2119   */\n      0x16\n        /* \"#utility.yul\":2097:2115   */\n      0x24\n      dup3\n      add\n        /* \"#utility.yul\":2090:2120   */\n      mstore\n      shl(0x52, 0x1d1a1948195e081b9bdd081dda1a5d195b1a5cdd1959)\n        /* \"#utility.yul\":2136:2154   */\n      0x44\n      dup3\n      add\n        /* \"#utility.yul\":2129:2181   */\n      mstore\n        /* \"#utility.yul\":2198:2216   */\n      0x64\n      add\n        /* \"contracts/Manager/ExecutionManager.sol\":1293:1369  require(_whitelistedStrategies.contains(strategy), \"the ex not whitelisted\") */\n    tag_50:\n      mload(0x40)\n      dup1\n      swap2\n      sub\n      swap1\n      revert\n    tag_49:\n        /* \"contracts/Manager/ExecutionManager.sol\":1379:1418  _whitelistedStrategies.remove(strategy) */\n      tag_52\n        /* \"contracts/Manager/ExecutionManager.sol\":1379:1401  _whitelistedStrategies */\n      0x01\n        /* \"contracts/Manager/ExecutionManager.sol\":1409:1417  strategy */\n      dup3\n        /* \"contracts/Manager/ExecutionManager.sol\":1379:1408  _whitelistedStrategies.remove */\n      tag_53\n        /* \"contracts/Manager/ExecutionManager.sol\":1379:1418  _whitelistedStrategies.remove(strategy) */\n      jump\t// in\n    tag_52:\n      pop\n        /* \"contracts/Manager/ExecutionManager.sol\":1434:1459  StrategyRemoved(strategy) */\n      mload(0x40)\n      sub(shl(0xa0, 0x01), 0x01)\n      dup3\n      and\n      swap1\n      0x09a1db4b80c32706328728508c941a6b954f31eb5affd32f236c1fd405f8fea4\n      swap1\n      0x00\n      swap1\n      log2\n        /* \"contracts/Manager/ExecutionManager.sol\":1213:1466  function removeStrategy(address strategy) external override onlyOwner {... */\n      pop\n      jump\t// out\n        /* \"contracts/Manager/ExecutionManager.sol\":817:1074  function addStrategy(address strategy) external override onlyOwner {... */\n    tag_18:\n        /* \"@openzeppelin/contracts/access/Ownable.sol\":1094:1107  _checkOwner() */\n      tag_55\n        /* \"@openzeppelin/contracts/access/Ownable.sol\":1094:1105  _checkOwner */\n      tag_45\n        /* \"@openzeppelin/contracts/access/Ownable.sol\":1094:1107  _checkOwner() */\n      jump\t// in\n    tag_55:\n        /* \"contracts/Manager/ExecutionManager.sol\":903:944  _whitelistedStrategies.contains(strategy) */\n      tag_57\n        /* \"contracts/Manager/ExecutionManager.sol\":903:925  _whitelistedStrategies */\n      0x01\n        /* \"contracts/Manager/ExecutionManager.sol\":935:943  strategy */\n      dup3\n        /* \"contracts/Manager/ExecutionManager.sol\":903:934  _whitelistedStrategies.contains */\n      tag_48\n        /* \"contracts/Manager/ExecutionManager.sol\":903:944  _whitelistedStrategies.contains(strategy) */\n      jump\t// in\n    tag_57:\n        /* \"contracts/Manager/ExecutionManager.sol\":902:944  !_whitelistedStrategies.contains(strategy) */\n      iszero\n        /* \"contracts/Manager/ExecutionManager.sol\":894:976  require(!_whitelistedStrategies.contains(strategy), \"the ex already  whitelisted\") */\n      tag_58\n      jumpi\n      mload(0x40)\n      shl(0xe5, 0x461bcd)\n      dup2\n      mstore\n        /* \"#utility.yul\":2429:2431   */\n      0x20\n        /* \"contracts/Manager/ExecutionManager.sol\":894:976  require(!_whitelistedStrategies.contains(strategy), \"the ex already  whitelisted\") */\n      0x04\n      dup3\n      add\n        /* \"#utility.yul\":2411:2432   */\n      mstore\n        /* \"#utility.yul\":2468:2470   */\n      0x1b\n        /* \"#utility.yul\":2448:2466   */\n      0x24\n      dup3\n      add\n        /* \"#utility.yul\":2441:2471   */\n      mstore\n        /* \"#utility.yul\":2507:2536   */\n      0x74686520657820616c7265616479202077686974656c69737465640000000000\n        /* \"#utility.yul\":2487:2505   */\n      0x44\n      dup3\n      add\n        /* \"#utility.yul\":2480:2537   */\n      mstore\n        /* \"#utility.yul\":2554:2572   */\n      0x64\n      add\n        /* \"contracts/Manager/ExecutionManager.sol\":894:976  require(!_whitelistedStrategies.contains(strategy), \"the ex already  whitelisted\") */\n      tag_50\n        /* \"#utility.yul\":2227:2578   */\n      jump\n        /* \"contracts/Manager/ExecutionManager.sol\":894:976  require(!_whitelistedStrategies.contains(strategy), \"the ex already  whitelisted\") */\n    tag_58:\n        /* \"contracts/Manager/ExecutionManager.sol\":986:1022  _whitelistedStrategies.add(strategy) */\n      tag_61\n        /* \"contracts/Manager/ExecutionManager.sol\":986:1008  _whitelistedStrategies */\n      0x01\n        /* \"contracts/Manager/ExecutionManager.sol\":1013:1021  strategy */\n      dup3\n        /* \"contracts/Manager/ExecutionManager.sol\":986:1012  _whitelistedStrategies.add */\n      tag_62\n        /* \"contracts/Manager/ExecutionManager.sol\":986:1022  _whitelistedStrategies.add(strategy) */\n      jump\t// in\n    tag_61:\n      pop\n        /* \"contracts/Manager/ExecutionManager.sol\":1038:1067  StrategyWhitelisted(strategy) */\n      mload(0x40)\n      sub(shl(0xa0, 0x01), 0x01)\n      dup3\n      and\n      swap1\n      0x6b583e2e3ad2e182671d77905fee57b1ffd8ce2aa5c0b652ca029317919751a4\n      swap1\n      0x00\n      swap1\n      log2\n        /* \"contracts/Manager/ExecutionManager.sol\":817:1074  function addStrategy(address strategy) external override onlyOwner {... */\n      pop\n      jump\t// out\n        /* \"contracts/Manager/ExecutionManager.sol\":2277:2881  function viewWhitelistedStrategies(uint256 cursor, uint256 size)... */\n    tag_22:\n        /* \"contracts/Manager/ExecutionManager.sol\":2406:2422  address[] memory */\n      0x60\n        /* \"contracts/Manager/ExecutionManager.sol\":2424:2431  uint256 */\n      0x00\n        /* \"contracts/Manager/ExecutionManager.sol\":2464:2468  size */\n      dup3\n        /* \"contracts/Manager/ExecutionManager.sol\":2526:2532  cursor */\n      dup5\n        /* \"contracts/Manager/ExecutionManager.sol\":2492:2523  _whitelistedStrategies.length() */\n      tag_64\n        /* \"contracts/Manager/ExecutionManager.sol\":2492:2514  _whitelistedStrategies */\n      0x01\n        /* \"contracts/Manager/ExecutionManager.sol\":2492:2521  _whitelistedStrategies.length */\n      tag_65\n        /* \"contracts/Manager/ExecutionManager.sol\":2492:2523  _whitelistedStrategies.length() */\n      jump\t// in\n    tag_64:\n        /* \"contracts/Manager/ExecutionManager.sol\":2492:2532  _whitelistedStrategies.length() - cursor */\n      tag_66\n      swap2\n      swap1\n      tag_67\n      jump\t// in\n    tag_66:\n        /* \"contracts/Manager/ExecutionManager.sol\":2483:2489  length */\n      dup2\n        /* \"contracts/Manager/ExecutionManager.sol\":2483:2532  length > _whitelistedStrategies.length() - cursor */\n      gt\n        /* \"contracts/Manager/ExecutionManager.sol\":2479:2608  if (length > _whitelistedStrategies.length() - cursor) {... */\n      iszero\n      tag_68\n      jumpi\n        /* \"contracts/Manager/ExecutionManager.sol\":2591:2597  cursor */\n      dup5\n        /* \"contracts/Manager/ExecutionManager.sol\":2557:2588  _whitelistedStrategies.length() */\n      tag_69\n        /* \"contracts/Manager/ExecutionManager.sol\":2557:2579  _whitelistedStrategies */\n      0x01\n        /* \"contracts/Manager/ExecutionManager.sol\":2557:2586  _whitelistedStrategies.length */\n      tag_65\n        /* \"contracts/Manager/ExecutionManager.sol\":2557:2588  _whitelistedStrategies.length() */\n      jump\t// in\n    tag_69:\n        /* \"contracts/Manager/ExecutionManager.sol\":2557:2597  _whitelistedStrategies.length() - cursor */\n      tag_70\n      swap2\n      swap1\n      tag_67\n      jump\t// in\n    tag_70:\n        /* \"contracts/Manager/ExecutionManager.sol\":2548:2597  length = _whitelistedStrategies.length() - cursor */\n      swap1\n      pop\n        /* \"contracts/Manager/ExecutionManager.sol\":2479:2608  if (length > _whitelistedStrategies.length() - cursor) {... */\n    tag_68:\n        /* \"contracts/Manager/ExecutionManager.sol\":2618:2656  address[] memory whitelistedStrategies */\n      0x00\n        /* \"contracts/Manager/ExecutionManager.sol\":2673:2679  length */\n      dup2\n        /* \"contracts/Manager/ExecutionManager.sol\":2659:2680  new address[](length) */\n      0xffffffffffffffff\n      dup2\n      gt\n      iszero\n      tag_72\n      jumpi\n      tag_72\n      tag_73\n      jump\t// in\n    tag_72:\n      mload(0x40)\n      swap1\n      dup1\n      dup3\n      mstore\n      dup1\n      0x20\n      mul\n      0x20\n      add\n      dup3\n      add\n      0x40\n      mstore\n      dup1\n      iszero\n      tag_74\n      jumpi\n      dup2\n      0x20\n      add\n      0x20\n      dup3\n      mul\n      dup1\n      calldatasize\n      dup4\n      calldatacopy\n      add\n      swap1\n      pop\n    tag_74:\n      pop\n        /* \"contracts/Manager/ExecutionManager.sol\":2618:2680  address[] memory whitelistedStrategies = new address[](length) */\n      swap1\n      pop\n        /* \"contracts/Manager/ExecutionManager.sol\":2696:2705  uint256 i */\n      0x00\n        /* \"contracts/Manager/ExecutionManager.sol\":2691:2817  for (uint256 i = 0; i < length; i++) {... */\n    tag_75:\n        /* \"contracts/Manager/ExecutionManager.sol\":2715:2721  length */\n      dup3\n        /* \"contracts/Manager/ExecutionManager.sol\":2711:2712  i */\n      dup2\n        /* \"contracts/Manager/ExecutionManager.sol\":2711:2721  i < length */\n      lt\n        /* \"contracts/Manager/ExecutionManager.sol\":2691:2817  for (uint256 i = 0; i < length; i++) {... */\n      iszero\n      tag_76\n      jumpi\n        /* \"contracts/Manager/ExecutionManager.sol\":2769:2806  _whitelistedStrategies.at(cursor + i) */\n      tag_78\n        /* \"contracts/Manager/ExecutionManager.sol\":2795:2805  cursor + i */\n      tag_79\n        /* \"contracts/Manager/ExecutionManager.sol\":2804:2805  i */\n      dup3\n        /* \"contracts/Manager/ExecutionManager.sol\":2795:2801  cursor */\n      dup10\n        /* \"contracts/Manager/ExecutionManager.sol\":2795:2805  cursor + i */\n      tag_80\n      jump\t// in\n    tag_79:\n        /* \"contracts/Manager/ExecutionManager.sol\":2769:2791  _whitelistedStrategies */\n      0x01\n      swap1\n        /* \"contracts/Manager/ExecutionManager.sol\":2769:2794  _whitelistedStrategies.at */\n      tag_81\n        /* \"contracts/Manager/ExecutionManager.sol\":2769:2806  _whitelistedStrategies.at(cursor + i) */\n      jump\t// in\n    tag_78:\n        /* \"contracts/Manager/ExecutionManager.sol\":2742:2763  whitelistedStrategies */\n      dup3\n        /* \"contracts/Manager/ExecutionManager.sol\":2764:2765  i */\n      dup3\n        /* \"contracts/Manager/ExecutionManager.sol\":2742:2766  whitelistedStrategies[i] */\n      dup2\n      mload\n      dup2\n      lt\n      tag_83\n      jumpi\n      tag_83\n      tag_84\n      jump\t// in\n    tag_83:\n      sub(shl(0xa0, 0x01), 0x01)\n        /* \"contracts/Manager/ExecutionManager.sol\":2742:2806  whitelistedStrategies[i] = _whitelistedStrategies.at(cursor + i) */\n      swap1\n      swap3\n      and\n        /* \"contracts/Manager/ExecutionManager.sol\":2742:2766  whitelistedStrategies[i] */\n      0x20\n      swap3\n      dup4\n      mul\n      swap2\n      swap1\n      swap2\n      add\n      swap1\n      swap2\n      add\n        /* \"contracts/Manager/ExecutionManager.sol\":2742:2806  whitelistedStrategies[i] = _whitelistedStrategies.at(cursor + i) */\n      mstore\n        /* \"contracts/Manager/ExecutionManager.sol\":2723:2726  i++ */\n      dup1\n      tag_85\n      dup2\n      tag_86\n      jump\t// in\n    tag_85:\n      swap2\n      pop\n      pop\n        /* \"contracts/Manager/ExecutionManager.sol\":2691:2817  for (uint256 i = 0; i < length; i++) {... */\n      jump(tag_75)\n    tag_76:\n      pop\n        /* \"contracts/Manager/ExecutionManager.sol\":2835:2856  whitelistedStrategies */\n      dup1\n        /* \"contracts/Manager/ExecutionManager.sol\":2858:2873  cursor + length */\n      tag_87\n        /* \"contracts/Manager/ExecutionManager.sol\":2867:2873  length */\n      dup4\n        /* \"contracts/Manager/ExecutionManager.sol\":2858:2864  cursor */\n      dup9\n        /* \"contracts/Manager/ExecutionManager.sol\":2858:2873  cursor + length */\n      tag_80\n      jump\t// in\n    tag_87:\n        /* \"contracts/Manager/ExecutionManager.sol\":2827:2874  return (whitelistedStrategies, cursor + length) */\n      swap4\n      pop\n      swap4\n      pop\n      pop\n      pop\n        /* \"contracts/Manager/ExecutionManager.sol\":2277:2881  function viewWhitelistedStrategies(uint256 cursor, uint256 size)... */\n      swap3\n      pop\n      swap3\n      swap1\n      pop\n      jump\t// out\n        /* \"@openzeppelin/contracts/access/Ownable.sol\":1831:1932  function renounceOwnership() public virtual onlyOwner {... */\n    tag_26:\n        /* \"@openzeppelin/contracts/access/Ownable.sol\":1094:1107  _checkOwner() */\n      tag_89\n        /* \"@openzeppelin/contracts/access/Ownable.sol\":1094:1105  _checkOwner */\n      tag_45\n        /* \"@openzeppelin/contracts/access/Ownable.sol\":1094:1107  _checkOwner() */\n      jump\t// in\n    tag_89:\n        /* \"@openzeppelin/contracts/access/Ownable.sol\":1895:1925  _transferOwnership(address(0)) */\n      tag_91\n        /* \"@openzeppelin/contracts/access/Ownable.sol\":1922:1923  0 */\n      0x00\n        /* \"@openzeppelin/contracts/access/Ownable.sol\":1895:1913  _transferOwnership */\n      tag_92\n        /* \"@openzeppelin/contracts/access/Ownable.sol\":1895:1925  _transferOwnership(address(0)) */\n      jump\t// in\n    tag_91:\n        /* \"@openzeppelin/contracts/access/Ownable.sol\":1831:1932  function renounceOwnership() public virtual onlyOwner {... */\n      jump\t// out\n        /* \"contracts/Manager/ExecutionManager.sol\":1944:2082  function viewCountWhitelistedStrategies() external view override returns (uint256) {... */\n    tag_32:\n        /* \"contracts/Manager/ExecutionManager.sol\":2018:2025  uint256 */\n      0x00\n        /* \"contracts/Manager/ExecutionManager.sol\":2044:2075  _whitelistedStrategies.length() */\n      tag_95\n        /* \"contracts/Manager/ExecutionManager.sol\":2044:2066  _whitelistedStrategies */\n      0x01\n        /* \"contracts/Manager/ExecutionManager.sol\":2044:2073  _whitelistedStrategies.length */\n      tag_65\n        /* \"contracts/Manager/ExecutionManager.sol\":2044:2075  _whitelistedStrategies.length() */\n      jump\t// in\n    tag_95:\n        /* \"contracts/Manager/ExecutionManager.sol\":2037:2075  return _whitelistedStrategies.length() */\n      swap1\n      pop\n        /* \"contracts/Manager/ExecutionManager.sol\":1944:2082  function viewCountWhitelistedStrategies() external view override returns (uint256) {... */\n      swap1\n      jump\t// out\n        /* \"contracts/Manager/ExecutionManager.sol\":1639:1791  function isStrategyWhitelisted(address strategy) external view override returns (bool) {... */\n    tag_37:\n        /* \"contracts/Manager/ExecutionManager.sol\":1720:1724  bool */\n      0x00\n        /* \"contracts/Manager/ExecutionManager.sol\":1743:1784  _whitelistedStrategies.contains(strategy) */\n      tag_97\n        /* \"contracts/Manager/ExecutionManager.sol\":1743:1765  _whitelistedStrategies */\n      0x01\n        /* \"contracts/Manager/ExecutionManager.sol\":1775:1783  strategy */\n      dup4\n        /* \"contracts/Manager/ExecutionManager.sol\":1743:1774  _whitelistedStrategies.contains */\n      tag_48\n        /* \"contracts/Manager/ExecutionManager.sol\":1743:1784  _whitelistedStrategies.contains(strategy) */\n      jump\t// in\n    tag_97:\n        /* \"contracts/Manager/ExecutionManager.sol\":1736:1784  return _whitelistedStrategies.contains(strategy) */\n      swap3\n        /* \"contracts/Manager/ExecutionManager.sol\":1639:1791  function isStrategyWhitelisted(address strategy) external view override returns (bool) {... */\n      swap2\n      pop\n      pop\n      jump\t// out\n        /* \"@openzeppelin/contracts/access/Ownable.sol\":2081:2279  function transferOwnership(address newOwner) public virtual onlyOwner {... */\n    tag_42:\n        /* \"@openzeppelin/contracts/access/Ownable.sol\":1094:1107  _checkOwner() */\n      tag_99\n        /* \"@openzeppelin/contracts/access/Ownable.sol\":1094:1105  _checkOwner */\n      tag_45\n        /* \"@openzeppelin/contracts/access/Ownable.sol\":1094:1107  _checkOwner() */\n      jump\t// in\n    tag_99:\n      sub(shl(0xa0, 0x01), 0x01)\n        /* \"@openzeppelin/contracts/access/Ownable.sol\":2169:2191  newOwner != address(0) */\n      dup2\n      and\n        /* \"@openzeppelin/contracts/access/Ownable.sol\":2161:2234  require(newOwner != address(0), \"Ownable: new owner is the zero address\") */\n      tag_101\n      jumpi\n      mload(0x40)\n      shl(0xe5, 0x461bcd)\n      dup2\n      mstore\n        /* \"#utility.yul\":3584:3586   */\n      0x20\n        /* \"@openzeppelin/contracts/access/Ownable.sol\":2161:2234  require(newOwner != address(0), \"Ownable: new owner is the zero address\") */\n      0x04\n      dup3\n      add\n        /* \"#utility.yul\":3566:3587   */\n      mstore\n        /* \"#utility.yul\":3623:3625   */\n      0x26\n        /* \"#utility.yul\":3603:3621   */\n      0x24\n      dup3\n      add\n        /* \"#utility.yul\":3596:3626   */\n      mstore\n        /* \"#utility.yul\":3662:3696   */\n      0x4f776e61626c653a206e6577206f776e657220697320746865207a65726f2061\n        /* \"#utility.yul\":3642:3660   */\n      0x44\n      dup3\n      add\n        /* \"#utility.yul\":3635:3697   */\n      mstore\n      shl(0xd0, 0x646472657373)\n        /* \"#utility.yul\":3713:3731   */\n      0x64\n      dup3\n      add\n        /* \"#utility.yul\":3706:3742   */\n      mstore\n        /* \"#utility.yul\":3759:3778   */\n      0x84\n      add\n        /* \"@openzeppelin/contracts/access/Ownable.sol\":2161:2234  require(newOwner != address(0), \"Ownable: new owner is the zero address\") */\n      tag_50\n        /* \"#utility.yul\":3382:3784   */\n      jump\n        /* \"@openzeppelin/contracts/access/Ownable.sol\":2161:2234  require(newOwner != address(0), \"Ownable: new owner is the zero address\") */\n    tag_101:\n        /* \"@openzeppelin/contracts/access/Ownable.sol\":2244:2272  _transferOwnership(newOwner) */\n      tag_104\n        /* \"@openzeppelin/contracts/access/Ownable.sol\":2263:2271  newOwner */\n      dup2\n        /* \"@openzeppelin/contracts/access/Ownable.sol\":2244:2262  _transferOwnership */\n      tag_92\n        /* \"@openzeppelin/contracts/access/Ownable.sol\":2244:2272  _transferOwnership(newOwner) */\n      jump\t// in\n    tag_104:\n        /* \"@openzeppelin/contracts/access/Ownable.sol\":2081:2279  function transferOwnership(address newOwner) public virtual onlyOwner {... */\n      pop\n      jump\t// out\n        /* \"@openzeppelin/contracts/access/Ownable.sol\":1359:1489  function _checkOwner() internal view virtual {... */\n    tag_45:\n        /* \"@openzeppelin/contracts/access/Ownable.sol\":1247:1254  address */\n      0x00\n        /* \"@openzeppelin/contracts/access/Ownable.sol\":1273:1279  _owner */\n      sload\n      sub(shl(0xa0, 0x01), 0x01)\n      and\n        /* \"@openzeppelin/contracts/utils/Context.sol\":719:729  msg.sender */\n      caller\n        /* \"@openzeppelin/contracts/access/Ownable.sol\":1422:1445  owner() == _msgSender() */\n      eq\n        /* \"@openzeppelin/contracts/access/Ownable.sol\":1414:1482  require(owner() == _msgSender(), \"Ownable: caller is not the owner\") */\n      tag_91\n      jumpi\n      mload(0x40)\n      shl(0xe5, 0x461bcd)\n      dup2\n      mstore\n        /* \"#utility.yul\":3991:3993   */\n      0x20\n        /* \"@openzeppelin/contracts/access/Ownable.sol\":1414:1482  require(owner() == _msgSender(), \"Ownable: caller is not the owner\") */\n      0x04\n      dup3\n      add\n        /* \"#utility.yul\":3973:3994   */\n      dup2\n      swap1\n      mstore\n        /* \"#utility.yul\":4010:4028   */\n      0x24\n      dup3\n      add\n        /* \"#utility.yul\":4003:4033   */\n      mstore\n        /* \"#utility.yul\":4069:4103   */\n      0x4f776e61626c653a2063616c6c6572206973206e6f7420746865206f776e6572\n        /* \"#utility.yul\":4049:4067   */\n      0x44\n      dup3\n      add\n        /* \"#utility.yul\":4042:4104   */\n      mstore\n        /* \"#utility.yul\":4121:4139   */\n      0x64\n      add\n        /* \"@openzeppelin/contracts/access/Ownable.sol\":1414:1482  require(owner() == _msgSender(), \"Ownable: caller is not the owner\") */\n      tag_50\n        /* \"#utility.yul\":3789:4145   */\n      jump\n        /* \"@openzeppelin/contracts/utils/structs/EnumerableSet.sol\":8583:8748  function contains(AddressSet storage set, address value) internal view returns (bool) {... */\n    tag_48:\n      sub(shl(0xa0, 0x01), 0x01)\n        /* \"@openzeppelin/contracts/utils/structs/EnumerableSet.sol\":8716:8739  uint256(uint160(value)) */\n      dup2\n      and\n        /* \"@openzeppelin/contracts/utils/structs/EnumerableSet.sol\":8663:8667  bool */\n      0x00\n        /* \"@openzeppelin/contracts/utils/structs/EnumerableSet.sol\":4250:4269  set._indexes[value] */\n      swap1\n      dup2\n      mstore\n        /* \"@openzeppelin/contracts/utils/structs/EnumerableSet.sol\":4250:4262  set._indexes */\n      0x01\n      dup4\n      add\n        /* \"@openzeppelin/contracts/utils/structs/EnumerableSet.sol\":4250:4269  set._indexes[value] */\n      0x20\n      mstore\n      0x40\n      dup2\n      keccak256\n      sload\n        /* \"@openzeppelin/contracts/utils/structs/EnumerableSet.sol\":4250:4274  set._indexes[value] != 0 */\n      iszero\n      iszero\n        /* \"@openzeppelin/contracts/utils/structs/EnumerableSet.sol\":8686:8741  _contains(set._inner, bytes32(uint256(uint160(value)))) */\n    tag_113:\n        /* \"@openzeppelin/contracts/utils/structs/EnumerableSet.sol\":8679:8741  return _contains(set._inner, bytes32(uint256(uint160(value)))) */\n      swap4\n        /* \"@openzeppelin/contracts/utils/structs/EnumerableSet.sol\":8583:8748  function contains(AddressSet storage set, address value) internal view returns (bool) {... */\n      swap3\n      pop\n      pop\n      pop\n      jump\t// out\n        /* \"@openzeppelin/contracts/utils/structs/EnumerableSet.sol\":8346:8502  function remove(AddressSet storage set, address value) internal returns (bool) {... */\n    tag_53:\n        /* \"@openzeppelin/contracts/utils/structs/EnumerableSet.sol\":8419:8423  bool */\n      0x00\n        /* \"@openzeppelin/contracts/utils/structs/EnumerableSet.sol\":8442:8495  _remove(set._inner, bytes32(uint256(uint160(value)))) */\n      tag_113\n        /* \"@openzeppelin/contracts/utils/structs/EnumerableSet.sol\":8450:8453  set */\n      dup4\n      sub(shl(0xa0, 0x01), 0x01)\n        /* \"@openzeppelin/contracts/utils/structs/EnumerableSet.sol\":8470:8493  uint256(uint160(value)) */\n      dup5\n      and\n        /* \"@openzeppelin/contracts/utils/structs/EnumerableSet.sol\":8442:8449  _remove */\n      tag_117\n        /* \"@openzeppelin/contracts/utils/structs/EnumerableSet.sol\":8442:8495  _remove(set._inner, bytes32(uint256(uint160(value)))) */\n      jump\t// in\n        /* \"@openzeppelin/contracts/utils/structs/EnumerableSet.sol\":8028:8178  function add(AddressSet storage set, address value) internal returns (bool) {... */\n    tag_62:\n        /* \"@openzeppelin/contracts/utils/structs/EnumerableSet.sol\":8098:8102  bool */\n      0x00\n        /* \"@openzeppelin/contracts/utils/structs/EnumerableSet.sol\":8121:8171  _add(set._inner, bytes32(uint256(uint160(value)))) */\n      tag_113\n        /* \"@openzeppelin/contracts/utils/structs/EnumerableSet.sol\":8126:8129  set */\n      dup4\n      sub(shl(0xa0, 0x01), 0x01)\n        /* \"@openzeppelin/contracts/utils/structs/EnumerableSet.sol\":8146:8169  uint256(uint160(value)) */\n      dup5\n      and\n        /* \"@openzeppelin/contracts/utils/structs/EnumerableSet.sol\":8121:8125  _add */\n      tag_120\n        /* \"@openzeppelin/contracts/utils/structs/EnumerableSet.sol\":8121:8171  _add(set._inner, bytes32(uint256(uint160(value)))) */\n      jump\t// in\n        /* \"@openzeppelin/contracts/utils/structs/EnumerableSet.sol\":8829:8944  function length(AddressSet storage set) internal view returns (uint256) {... */\n    tag_65:\n        /* \"@openzeppelin/contracts/utils/structs/EnumerableSet.sol\":8892:8899  uint256 */\n      0x00\n        /* \"@openzeppelin/contracts/utils/structs/EnumerableSet.sol\":8918:8937  _length(set._inner) */\n      tag_97\n        /* \"@openzeppelin/contracts/utils/structs/EnumerableSet.sol\":8926:8929  set */\n      dup3\n        /* \"@openzeppelin/contracts/utils/structs/EnumerableSet.sol\":4444:4462  set._values.length */\n      sload\n      swap1\n        /* \"@openzeppelin/contracts/utils/structs/EnumerableSet.sol\":4362:4469  function _length(Set storage set) private view returns (uint256) {... */\n      jump\n        /* \"@openzeppelin/contracts/utils/structs/EnumerableSet.sol\":9286:9442  function at(AddressSet storage set, uint256 index) internal view returns (address) {... */\n    tag_81:\n        /* \"@openzeppelin/contracts/utils/structs/EnumerableSet.sol\":9360:9367  address */\n      0x00\n        /* \"@openzeppelin/contracts/utils/structs/EnumerableSet.sol\":9410:9432  _at(set._inner, index) */\n      tag_113\n        /* \"@openzeppelin/contracts/utils/structs/EnumerableSet.sol\":9414:9417  set */\n      dup4\n        /* \"@openzeppelin/contracts/utils/structs/EnumerableSet.sol\":9426:9431  index */\n      dup4\n        /* \"@openzeppelin/contracts/utils/structs/EnumerableSet.sol\":9410:9413  _at */\n      tag_126\n        /* \"@openzeppelin/contracts/utils/structs/EnumerableSet.sol\":9410:9432  _at(set._inner, index) */\n      jump\t// in\n        /* \"@openzeppelin/contracts/access/Ownable.sol\":2433:2620  function _transferOwnership(address newOwner) internal virtual {... */\n    tag_92:\n        /* \"@openzeppelin/contracts/access/Ownable.sol\":2506:2522  address oldOwner */\n      0x00\n        /* \"@openzeppelin/contracts/access/Ownable.sol\":2525:2531  _owner */\n      dup1\n      sload\n      sub(shl(0xa0, 0x01), 0x01)\n        /* \"@openzeppelin/contracts/access/Ownable.sol\":2541:2558  _owner = newOwner */\n      dup4\n      dup2\n      and\n      not(sub(shl(0xa0, 0x01), 0x01))\n      dup4\n      and\n      dup2\n      or\n      dup5\n      sstore\n        /* \"@openzeppelin/contracts/access/Ownable.sol\":2573:2613  OwnershipTransferred(oldOwner, newOwner) */\n      mload(0x40)\n        /* \"@openzeppelin/contracts/access/Ownable.sol\":2525:2531  _owner */\n      swap2\n      swap1\n      swap3\n      and\n      swap3\n      dup4\n      swap2\n        /* \"@openzeppelin/contracts/access/Ownable.sol\":2573:2613  OwnershipTransferred(oldOwner, newOwner) */\n      0x8be0079c531659141344cd1fd0a4f28419497f9722a3daafe3b4186f6b6457e0\n      swap2\n        /* \"@openzeppelin/contracts/access/Ownable.sol\":2506:2522  address oldOwner */\n      swap1\n        /* \"@openzeppelin/contracts/access/Ownable.sol\":2573:2613  OwnershipTransferred(oldOwner, newOwner) */\n      log3\n        /* \"@openzeppelin/contracts/access/Ownable.sol\":2496:2620  {... */\n      pop\n        /* \"@openzeppelin/contracts/access/Ownable.sol\":2433:2620  function _transferOwnership(address newOwner) internal virtual {... */\n      pop\n      jump\t// out\n        /* \"@openzeppelin/contracts/utils/structs/EnumerableSet.sol\":2685:4073  function _remove(Set storage set, bytes32 value) private returns (bool) {... */\n    tag_117:\n        /* \"@openzeppelin/contracts/utils/structs/EnumerableSet.sol\":2751:2755  bool */\n      0x00\n        /* \"@openzeppelin/contracts/utils/structs/EnumerableSet.sol\":2888:2907  set._indexes[value] */\n      dup2\n      dup2\n      mstore\n        /* \"@openzeppelin/contracts/utils/structs/EnumerableSet.sol\":2888:2900  set._indexes */\n      0x01\n      dup4\n      add\n        /* \"@openzeppelin/contracts/utils/structs/EnumerableSet.sol\":2888:2907  set._indexes[value] */\n      0x20\n      mstore\n      0x40\n      dup2\n      keccak256\n      sload\n        /* \"@openzeppelin/contracts/utils/structs/EnumerableSet.sol\":2922:2937  valueIndex != 0 */\n      dup1\n      iszero\n        /* \"@openzeppelin/contracts/utils/structs/EnumerableSet.sol\":2918:4067  if (valueIndex != 0) {... */\n      tag_131\n      jumpi\n        /* \"@openzeppelin/contracts/utils/structs/EnumerableSet.sol\":3291:3312  uint256 toDeleteIndex */\n      0x00\n        /* \"@openzeppelin/contracts/utils/structs/EnumerableSet.sol\":3315:3329  valueIndex - 1 */\n      tag_132\n        /* \"@openzeppelin/contracts/utils/structs/EnumerableSet.sol\":3328:3329  1 */\n      0x01\n        /* \"@openzeppelin/contracts/utils/structs/EnumerableSet.sol\":3315:3325  valueIndex */\n      dup4\n        /* \"@openzeppelin/contracts/utils/structs/EnumerableSet.sol\":3315:3329  valueIndex - 1 */\n      tag_67\n      jump\t// in\n    tag_132:\n        /* \"@openzeppelin/contracts/utils/structs/EnumerableSet.sol\":3363:3381  set._values.length */\n      dup6\n      sload\n        /* \"@openzeppelin/contracts/utils/structs/EnumerableSet.sol\":3291:3329  uint256 toDeleteIndex = valueIndex - 1 */\n      swap1\n      swap2\n      pop\n        /* \"@openzeppelin/contracts/utils/structs/EnumerableSet.sol\":3343:3360  uint256 lastIndex */\n      0x00\n      swap1\n        /* \"@openzeppelin/contracts/utils/structs/EnumerableSet.sol\":3363:3385  set._values.length - 1 */\n      tag_133\n      swap1\n        /* \"@openzeppelin/contracts/utils/structs/EnumerableSet.sol\":3384:3385  1 */\n      0x01\n      swap1\n        /* \"@openzeppelin/contracts/utils/structs/EnumerableSet.sol\":3363:3385  set._values.length - 1 */\n      tag_67\n      jump\t// in\n    tag_133:\n        /* \"@openzeppelin/contracts/utils/structs/EnumerableSet.sol\":3343:3385  uint256 lastIndex = set._values.length - 1 */\n      swap1\n      pop\n        /* \"@openzeppelin/contracts/utils/structs/EnumerableSet.sol\":3417:3430  toDeleteIndex */\n      dup2\n        /* \"@openzeppelin/contracts/utils/structs/EnumerableSet.sol\":3404:3413  lastIndex */\n      dup2\n        /* \"@openzeppelin/contracts/utils/structs/EnumerableSet.sol\":3404:3430  lastIndex != toDeleteIndex */\n      eq\n        /* \"@openzeppelin/contracts/utils/structs/EnumerableSet.sol\":3400:3798  if (lastIndex != toDeleteIndex) {... */\n      tag_134\n      jumpi\n        /* \"@openzeppelin/contracts/utils/structs/EnumerableSet.sol\":3450:3467  bytes32 lastValue */\n      0x00\n        /* \"@openzeppelin/contracts/utils/structs/EnumerableSet.sol\":3470:3473  set */\n      dup7\n        /* \"@openzeppelin/contracts/utils/structs/EnumerableSet.sol\":3470:3481  set._values */\n      0x00\n      add\n        /* \"@openzeppelin/contracts/utils/structs/EnumerableSet.sol\":3482:3491  lastIndex */\n      dup3\n        /* \"@openzeppelin/contracts/utils/structs/EnumerableSet.sol\":3470:3492  set._values[lastIndex] */\n      dup2\n      sload\n      dup2\n      lt\n      tag_136\n      jumpi\n      tag_136\n      tag_84\n      jump\t// in\n    tag_136:\n      swap1\n      0x00\n      mstore\n      keccak256(0x00, 0x20)\n      add\n      sload\n        /* \"@openzeppelin/contracts/utils/structs/EnumerableSet.sol\":3450:3492  bytes32 lastValue = set._values[lastIndex] */\n      swap1\n      pop\n        /* \"@openzeppelin/contracts/utils/structs/EnumerableSet.sol\":3621:3630  lastValue */\n      dup1\n        /* \"@openzeppelin/contracts/utils/structs/EnumerableSet.sol\":3592:3595  set */\n      dup8\n        /* \"@openzeppelin/contracts/utils/structs/EnumerableSet.sol\":3592:3603  set._values */\n      0x00\n      add\n        /* \"@openzeppelin/contracts/utils/structs/EnumerableSet.sol\":3604:3617  toDeleteIndex */\n      dup5\n        /* \"@openzeppelin/contracts/utils/structs/EnumerableSet.sol\":3592:3618  set._values[toDeleteIndex] */\n      dup2\n      sload\n      dup2\n      lt\n      tag_139\n      jumpi\n      tag_139\n      tag_84\n      jump\t// in\n    tag_139:\n      0x00\n      swap2\n      dup3\n      mstore\n      0x20\n      dup1\n      dup4\n      keccak256\n      swap1\n      swap2\n      add\n        /* \"@openzeppelin/contracts/utils/structs/EnumerableSet.sol\":3592:3630  set._values[toDeleteIndex] = lastValue */\n      swap3\n      swap1\n      swap3\n      sstore\n        /* \"@openzeppelin/contracts/utils/structs/EnumerableSet.sol\":3704:3727  set._indexes[lastValue] */\n      swap2\n      dup3\n      mstore\n        /* \"@openzeppelin/contracts/utils/structs/EnumerableSet.sol\":3704:3716  set._indexes */\n      0x01\n      dup9\n      add\n        /* \"@openzeppelin/contracts/utils/structs/EnumerableSet.sol\":3704:3727  set._indexes[lastValue] */\n      swap1\n      mstore\n      0x40\n      swap1\n      keccak256\n        /* \"@openzeppelin/contracts/utils/structs/EnumerableSet.sol\":3704:3740  set._indexes[lastValue] = valueIndex */\n      dup4\n      swap1\n      sstore\n        /* \"@openzeppelin/contracts/utils/structs/EnumerableSet.sol\":3400:3798  if (lastIndex != toDeleteIndex) {... */\n    tag_134:\n        /* \"@openzeppelin/contracts/utils/structs/EnumerableSet.sol\":3876:3893  set._values.pop() */\n      dup6\n      sload\n        /* \"@openzeppelin/contracts/utils/structs/EnumerableSet.sol\":3876:3879  set */\n      dup7\n      swap1\n        /* \"@openzeppelin/contracts/utils/structs/EnumerableSet.sol\":3876:3893  set._values.pop() */\n      dup1\n      tag_142\n      jumpi\n      tag_142\n      tag_143\n      jump\t// in\n    tag_142:\n      0x01\n      swap1\n      sub\n      dup2\n      dup2\n      swap1\n      0x00\n      mstore\n      keccak256(0x00, 0x20)\n      add\n      0x00\n      swap1\n      sstore\n      swap1\n      sstore\n        /* \"@openzeppelin/contracts/utils/structs/EnumerableSet.sol\":3968:3971  set */\n      dup6\n        /* \"@openzeppelin/contracts/utils/structs/EnumerableSet.sol\":3968:3980  set._indexes */\n      0x01\n      add\n        /* \"@openzeppelin/contracts/utils/structs/EnumerableSet.sol\":3968:3987  set._indexes[value] */\n      0x00\n        /* \"@openzeppelin/contracts/utils/structs/EnumerableSet.sol\":3981:3986  value */\n      dup7\n        /* \"@openzeppelin/contracts/utils/structs/EnumerableSet.sol\":3968:3987  set._indexes[value] */\n      dup2\n      mstore\n      0x20\n      add\n      swap1\n      dup2\n      mstore\n      0x20\n      add\n      0x00\n      keccak256\n        /* \"@openzeppelin/contracts/utils/structs/EnumerableSet.sol\":3961:3987  delete set._indexes[value] */\n      0x00\n      swap1\n      sstore\n        /* \"@openzeppelin/contracts/utils/structs/EnumerableSet.sol\":4009:4013  true */\n      0x01\n        /* \"@openzeppelin/contracts/utils/structs/EnumerableSet.sol\":4002:4013  return true */\n      swap4\n      pop\n      pop\n      pop\n      pop\n      jump(tag_97)\n        /* \"@openzeppelin/contracts/utils/structs/EnumerableSet.sol\":2918:4067  if (valueIndex != 0) {... */\n    tag_131:\n        /* \"@openzeppelin/contracts/utils/structs/EnumerableSet.sol\":4051:4056  false */\n      0x00\n        /* \"@openzeppelin/contracts/utils/structs/EnumerableSet.sol\":4044:4056  return false */\n      swap2\n      pop\n      pop\n      jump(tag_97)\n        /* \"@openzeppelin/contracts/utils/structs/EnumerableSet.sol\":2113:2517  function _add(Set storage set, bytes32 value) private returns (bool) {... */\n    tag_120:\n        /* \"@openzeppelin/contracts/utils/structs/EnumerableSet.sol\":2176:2180  bool */\n      0x00\n        /* \"@openzeppelin/contracts/utils/structs/EnumerableSet.sol\":4250:4269  set._indexes[value] */\n      dup2\n      dup2\n      mstore\n        /* \"@openzeppelin/contracts/utils/structs/EnumerableSet.sol\":4250:4262  set._indexes */\n      0x01\n      dup4\n      add\n        /* \"@openzeppelin/contracts/utils/structs/EnumerableSet.sol\":4250:4269  set._indexes[value] */\n      0x20\n      mstore\n      0x40\n      dup2\n      keccak256\n      sload\n        /* \"@openzeppelin/contracts/utils/structs/EnumerableSet.sol\":2192:2511  if (!_contains(set, value)) {... */\n      tag_148\n      jumpi\n      pop\n        /* \"@openzeppelin/contracts/utils/structs/EnumerableSet.sol\":2234:2257  set._values.push(value) */\n      dup2\n      sload\n      0x01\n      dup2\n      dup2\n      add\n      dup5\n      sstore\n        /* \"@openzeppelin/contracts/utils/structs/EnumerableSet.sol\":2234:2245  set._values */\n      0x00\n        /* \"@openzeppelin/contracts/utils/structs/EnumerableSet.sol\":2234:2257  set._values.push(value) */\n      dup5\n      dup2\n      mstore\n      0x20\n      dup1\n      dup3\n      keccak256\n      swap1\n      swap4\n      add\n      dup5\n      swap1\n      sstore\n        /* \"@openzeppelin/contracts/utils/structs/EnumerableSet.sol\":2414:2432  set._values.length */\n      dup5\n      sload\n        /* \"@openzeppelin/contracts/utils/structs/EnumerableSet.sol\":2392:2411  set._indexes[value] */\n      dup5\n      dup3\n      mstore\n        /* \"@openzeppelin/contracts/utils/structs/EnumerableSet.sol\":2392:2404  set._indexes */\n      dup3\n      dup7\n      add\n        /* \"@openzeppelin/contracts/utils/structs/EnumerableSet.sol\":2392:2411  set._indexes[value] */\n      swap1\n      swap4\n      mstore\n      0x40\n      swap1\n      keccak256\n        /* \"@openzeppelin/contracts/utils/structs/EnumerableSet.sol\":2392:2432  set._indexes[value] = set._values.length */\n      swap2\n      swap1\n      swap2\n      sstore\n        /* \"@openzeppelin/contracts/utils/structs/EnumerableSet.sol\":2446:2457  return true */\n      jump(tag_97)\n        /* \"@openzeppelin/contracts/utils/structs/EnumerableSet.sol\":2192:2511  if (!_contains(set, value)) {... */\n    tag_148:\n      pop\n        /* \"@openzeppelin/contracts/utils/structs/EnumerableSet.sol\":2495:2500  false */\n      0x00\n        /* \"@openzeppelin/contracts/utils/structs/EnumerableSet.sol\":2488:2500  return false */\n      jump(tag_97)\n        /* \"@openzeppelin/contracts/utils/structs/EnumerableSet.sol\":4811:4929  function _at(Set storage set, uint256 index) private view returns (bytes32) {... */\n    tag_126:\n        /* \"@openzeppelin/contracts/utils/structs/EnumerableSet.sol\":4878:4885  bytes32 */\n      0x00\n        /* \"@openzeppelin/contracts/utils/structs/EnumerableSet.sol\":4904:4907  set */\n      dup3\n        /* \"@openzeppelin/contracts/utils/structs/EnumerableSet.sol\":4904:4915  set._values */\n      0x00\n      add\n        /* \"@openzeppelin/contracts/utils/structs/EnumerableSet.sol\":4916:4921  index */\n      dup3\n        /* \"@openzeppelin/contracts/utils/structs/EnumerableSet.sol\":4904:4922  set._values[index] */\n      dup2\n      sload\n      dup2\n      lt\n      tag_154\n      jumpi\n      tag_154\n      tag_84\n      jump\t// in\n    tag_154:\n      swap1\n      0x00\n      mstore\n      keccak256(0x00, 0x20)\n      add\n      sload\n        /* \"@openzeppelin/contracts/utils/structs/EnumerableSet.sol\":4897:4922  return set._values[index] */\n      swap1\n      pop\n        /* \"@openzeppelin/contracts/utils/structs/EnumerableSet.sol\":4811:4929  function _at(Set storage set, uint256 index) private view returns (bytes32) {... */\n      swap3\n      swap2\n      pop\n      pop\n      jump\t// out\n        /* \"#utility.yul\":14:300   */\n    tag_14:\n        /* \"#utility.yul\":73:79   */\n      0x00\n        /* \"#utility.yul\":126:128   */\n      0x20\n        /* \"#utility.yul\":114:123   */\n      dup3\n        /* \"#utility.yul\":105:112   */\n      dup5\n        /* \"#utility.yul\":101:124   */\n      sub\n        /* \"#utility.yul\":97:129   */\n      slt\n        /* \"#utility.yul\":94:146   */\n      iszero\n      tag_159\n      jumpi\n        /* \"#utility.yul\":142:143   */\n      0x00\n        /* \"#utility.yul\":139:140   */\n      dup1\n        /* \"#utility.yul\":132:144   */\n      revert\n        /* \"#utility.yul\":94:146   */\n    tag_159:\n        /* \"#utility.yul\":168:191   */\n      dup2\n      calldataload\n      sub(shl(0xa0, 0x01), 0x01)\n        /* \"#utility.yul\":220:251   */\n      dup2\n      and\n        /* \"#utility.yul\":210:252   */\n      dup2\n      eq\n        /* \"#utility.yul\":200:270   */\n      tag_113\n      jumpi\n        /* \"#utility.yul\":266:267   */\n      0x00\n        /* \"#utility.yul\":263:264   */\n      dup1\n        /* \"#utility.yul\":256:268   */\n      revert\n        /* \"#utility.yul\":305:553   */\n    tag_21:\n        /* \"#utility.yul\":373:379   */\n      0x00\n        /* \"#utility.yul\":381:387   */\n      dup1\n        /* \"#utility.yul\":434:436   */\n      0x40\n        /* \"#utility.yul\":422:431   */\n      dup4\n        /* \"#utility.yul\":413:420   */\n      dup6\n        /* \"#utility.yul\":409:432   */\n      sub\n        /* \"#utility.yul\":405:437   */\n      slt\n        /* \"#utility.yul\":402:454   */\n      iszero\n      tag_162\n      jumpi\n        /* \"#utility.yul\":450:451   */\n      0x00\n        /* \"#utility.yul\":447:448   */\n      dup1\n        /* \"#utility.yul\":440:452   */\n      revert\n        /* \"#utility.yul\":402:454   */\n    tag_162:\n      pop\n      pop\n        /* \"#utility.yul\":473:496   */\n      dup1\n      calldataload\n      swap3\n        /* \"#utility.yul\":543:545   */\n      0x20\n        /* \"#utility.yul\":528:546   */\n      swap1\n      swap2\n      add\n        /* \"#utility.yul\":515:547   */\n      calldataload\n      swap2\n      pop\n        /* \"#utility.yul\":305:553   */\n      jump\t// out\n        /* \"#utility.yul\":558:1289   */\n    tag_24:\n        /* \"#utility.yul\":776:778   */\n      0x40\n        /* \"#utility.yul\":788:809   */\n      dup1\n      dup3\n      mstore\n        /* \"#utility.yul\":858:871   */\n      dup4\n      mload\n        /* \"#utility.yul\":761:779   */\n      swap1\n      dup3\n      add\n        /* \"#utility.yul\":880:902   */\n      dup2\n      swap1\n      mstore\n        /* \"#utility.yul\":728:732   */\n      0x00\n      swap1\n        /* \"#utility.yul\":955:959   */\n      0x20\n      swap1\n        /* \"#utility.yul\":933:935   */\n      0x60\n        /* \"#utility.yul\":918:936   */\n      dup5\n      add\n      swap1\n        /* \"#utility.yul\":982:997   */\n      dup3\n      dup8\n      add\n        /* \"#utility.yul\":728:732   */\n      dup5\n        /* \"#utility.yul\":1025:1220   */\n    tag_164:\n        /* \"#utility.yul\":1039:1045   */\n      dup3\n        /* \"#utility.yul\":1036:1037   */\n      dup2\n        /* \"#utility.yul\":1033:1046   */\n      lt\n        /* \"#utility.yul\":1025:1220   */\n      iszero\n      tag_166\n      jumpi\n        /* \"#utility.yul\":1104:1117   */\n      dup2\n      mload\n      sub(shl(0xa0, 0x01), 0x01)\n        /* \"#utility.yul\":1100:1139   */\n      and\n        /* \"#utility.yul\":1088:1140   */\n      dup5\n      mstore\n        /* \"#utility.yul\":1160:1172   */\n      swap3\n      dup5\n      add\n      swap3\n        /* \"#utility.yul\":1195:1210   */\n      swap1\n      dup5\n      add\n      swap1\n        /* \"#utility.yul\":1136:1137   */\n      0x01\n        /* \"#utility.yul\":1054:1063   */\n      add\n        /* \"#utility.yul\":1025:1220   */\n      jump(tag_164)\n    tag_166:\n      pop\n      pop\n      pop\n        /* \"#utility.yul\":1256:1274   */\n      swap3\n      add\n        /* \"#utility.yul\":1249:1283   */\n      swap3\n      swap1\n      swap3\n      mstore\n        /* \"#utility.yul\":1237:1240   */\n      swap3\n        /* \"#utility.yul\":558:1289   */\n      swap2\n      pop\n      pop\n      jump\t// out\n        /* \"#utility.yul\":2583:2710   */\n    tag_156:\n        /* \"#utility.yul\":2644:2654   */\n      0x4e487b71\n        /* \"#utility.yul\":2639:2642   */\n      0xe0\n        /* \"#utility.yul\":2635:2655   */\n      shl\n        /* \"#utility.yul\":2632:2633   */\n      0x00\n        /* \"#utility.yul\":2625:2656   */\n      mstore\n        /* \"#utility.yul\":2675:2679   */\n      0x11\n        /* \"#utility.yul\":2672:2673   */\n      0x04\n        /* \"#utility.yul\":2665:2680   */\n      mstore\n        /* \"#utility.yul\":2699:2703   */\n      0x24\n        /* \"#utility.yul\":2696:2697   */\n      0x00\n        /* \"#utility.yul\":2689:2704   */\n      revert\n        /* \"#utility.yul\":2715:2843   */\n    tag_67:\n        /* \"#utility.yul\":2782:2791   */\n      dup2\n      dup2\n      sub\n        /* \"#utility.yul\":2803:2814   */\n      dup2\n      dup2\n      gt\n        /* \"#utility.yul\":2800:2837   */\n      iszero\n      tag_97\n      jumpi\n        /* \"#utility.yul\":2817:2835   */\n      tag_97\n      tag_156\n      jump\t// in\n        /* \"#utility.yul\":2848:2975   */\n    tag_73:\n        /* \"#utility.yul\":2909:2919   */\n      0x4e487b71\n        /* \"#utility.yul\":2904:2907   */\n      0xe0\n        /* \"#utility.yul\":2900:2920   */\n      shl\n        /* \"#utility.yul\":2897:2898   */\n      0x00\n        /* \"#utility.yul\":2890:2921   */\n      mstore\n        /* \"#utility.yul\":2940:2944   */\n      0x41\n        /* \"#utility.yul\":2937:2938   */\n      0x04\n        /* \"#utility.yul\":2930:2945   */\n      mstore\n        /* \"#utility.yul\":2964:2968   */\n      0x24\n        /* \"#utility.yul\":2961:2962   */\n      0x00\n        /* \"#utility.yul\":2954:2969   */\n      revert\n        /* \"#utility.yul\":2980:3105   */\n    tag_80:\n        /* \"#utility.yul\":3045:3054   */\n      dup1\n      dup3\n      add\n        /* \"#utility.yul\":3066:3076   */\n      dup1\n      dup3\n      gt\n        /* \"#utility.yul\":3063:3099   */\n      iszero\n      tag_97\n      jumpi\n        /* \"#utility.yul\":3079:3097   */\n      tag_97\n      tag_156\n      jump\t// in\n        /* \"#utility.yul\":3110:3237   */\n    tag_84:\n        /* \"#utility.yul\":3171:3181   */\n      0x4e487b71\n        /* \"#utility.yul\":3166:3169   */\n      0xe0\n        /* \"#utility.yul\":3162:3182   */\n      shl\n        /* \"#utility.yul\":3159:3160   */\n      0x00\n        /* \"#utility.yul\":3152:3183   */\n      mstore\n        /* \"#utility.yul\":3202:3206   */\n      0x32\n        /* \"#utility.yul\":3199:3200   */\n      0x04\n        /* \"#utility.yul\":3192:3207   */\n      mstore\n        /* \"#utility.yul\":3226:3230   */\n      0x24\n        /* \"#utility.yul\":3223:3224   */\n      0x00\n        /* \"#utility.yul\":3216:3231   */\n      revert\n        /* \"#utility.yul\":3242:3377   */\n    tag_86:\n        /* \"#utility.yul\":3281:3284   */\n      0x00\n        /* \"#utility.yul\":3302:3319   */\n      0x01\n      dup3\n      add\n        /* \"#utility.yul\":3299:3342   */\n      tag_183\n      jumpi\n        /* \"#utility.yul\":3322:3340   */\n      tag_183\n      tag_156\n      jump\t// in\n    tag_183:\n      pop\n        /* \"#utility.yul\":3369:3370   */\n      0x01\n        /* \"#utility.yul\":3358:3371   */\n      add\n      swap1\n        /* \"#utility.yul\":3242:3377   */\n      jump\t// out\n        /* \"#utility.yul\":4150:4277   */\n    tag_143:\n        /* \"#utility.yul\":4211:4221   */\n      0x4e487b71\n        /* \"#utility.yul\":4206:4209   */\n      0xe0\n        /* \"#utility.yul\":4202:4222   */\n      shl\n        /* \"#utility.yul\":4199:4200   */\n      0x00\n        /* \"#utility.yul\":4192:4223   */\n      mstore\n        /* \"#utility.yul\":4242:4246   */\n      0x31\n        /* \"#utility.yul\":4239:4240   */\n      0x04\n        /* \"#utility.yul\":4232:4247   */\n      mstore\n        /* \"#utility.yul\":4266:4270   */\n      0x24\n        /* \"#utility.yul\":4263:4264   */\n      0x00\n        /* \"#utility.yul\":4256:4271   */\n      revert\n\n    auxdata: 0xa26469706673582212202e76e42bad514947bcdfef094a7498fe790b9c21b3f43a633f01e729d6e1923e64736f6c63430008110033\n}\n",
				"bytecode": {
					"linkReferences": {},
					"object": "608060405234801561001057600080fd5b5061001a3361001f565b61006f565b600080546001600160a01b038381166001600160a01b0319831681178455604051919092169283917f8be0079c531659141344cd1fd0a4f28419497f9722a3daafe3b4186f6b6457e09190a35050565b61081b8061007e6000396000f3fe608060405234801561001057600080fd5b50600436106100885760003560e01c80638da5cb5b1161005b5780638da5cb5b146100e7578063985e3a2f14610102578063999ba27c14610118578063f2fde38b1461013b57600080fd5b8063175188e81461008d578063223e5479146100a257806331fb5b1f146100b5578063715018a6146100df575b600080fd5b6100a061009b3660046106b2565b61014e565b005b6100a06100b03660046106b2565b6101ee565b6100c86100c33660046106db565b610291565b6040516100d69291906106fd565b60405180910390f35b6100a0610386565b6000546040516001600160a01b0390911681526020016100d6565b61010a61039a565b6040519081526020016100d6565b61012b6101263660046106b2565b6103ab565b60405190151581526020016100d6565b6100a06101493660046106b2565b6103be565b610156610437565b610161600182610491565b6101ab5760405162461bcd60e51b81526020600482015260166024820152751d1a1948195e081b9bdd081dda1a5d195b1a5cdd195960521b60448201526064015b60405180910390fd5b6101b66001826104b6565b506040516001600160a01b038216907f09a1db4b80c32706328728508c941a6b954f31eb5affd32f236c1fd405f8fea490600090a250565b6101f6610437565b610201600182610491565b1561024e5760405162461bcd60e51b815260206004820152601b60248201527f74686520657820616c7265616479202077686974656c6973746564000000000060448201526064016101a2565b6102596001826104cb565b506040516001600160a01b038216907f6b583e2e3ad2e182671d77905fee57b1ffd8ce2aa5c0b652ca029317919751a490600090a250565b6060600082846102a160016104e0565b6102ab9190610764565b8111156102ca57846102bd60016104e0565b6102c79190610764565b90505b60008167ffffffffffffffff8111156102e5576102e5610777565b60405190808252806020026020018201604052801561030e578160200160208202803683370190505b50905060005b8281101561036d57610331610329828961078d565b6001906104ea565b828281518110610343576103436107a0565b6001600160a01b039092166020928302919091019091015280610365816107b6565b915050610314565b5080610379838861078d565b9350935050509250929050565b61038e610437565b61039860006104f6565b565b60006103a660016104e0565b905090565b60006103b8600183610491565b92915050565b6103c6610437565b6001600160a01b03811661042b5760405162461bcd60e51b815260206004820152602660248201527f4f776e61626c653a206e6577206f776e657220697320746865207a65726f206160448201526564647265737360d01b60648201526084016101a2565b610434816104f6565b50565b6000546001600160a01b031633146103985760405162461bcd60e51b815260206004820181905260248201527f4f776e61626c653a2063616c6c6572206973206e6f7420746865206f776e657260448201526064016101a2565b6001600160a01b038116600090815260018301602052604081205415155b9392505050565b60006104af836001600160a01b038416610546565b60006104af836001600160a01b038416610639565b60006103b8825490565b60006104af8383610688565b600080546001600160a01b038381166001600160a01b0319831681178455604051919092169283917f8be0079c531659141344cd1fd0a4f28419497f9722a3daafe3b4186f6b6457e09190a35050565b6000818152600183016020526040812054801561062f57600061056a600183610764565b855490915060009061057e90600190610764565b90508181146105e357600086600001828154811061059e5761059e6107a0565b90600052602060002001549050808760000184815481106105c1576105c16107a0565b6000918252602080832090910192909255918252600188019052604090208390555b85548690806105f4576105f46107cf565b6001900381819060005260206000200160009055905585600101600086815260200190815260200160002060009055600193505050506103b8565b60009150506103b8565b6000818152600183016020526040812054610680575081546001818101845560008481526020808220909301849055845484825282860190935260409020919091556103b8565b5060006103b8565b600082600001828154811061069f5761069f6107a0565b9060005260206000200154905092915050565b6000602082840312156106c457600080fd5b81356001600160a01b03811681146104af57600080fd5b600080604083850312156106ee57600080fd5b50508035926020909101359150565b604080825283519082018190526000906020906060840190828701845b8281101561073f5781516001600160a01b03168452928401929084019060010161071a565b50505092019290925292915050565b634e487b7160e01b600052601160045260246000fd5b818103818111156103b8576103b861074e565b634e487b7160e01b600052604160045260246000fd5b808201808211156103b8576103b861074e565b634e487b7160e01b600052603260045260246000fd5b6000600182016107c8576107c861074e565b5060010190565b634e487b7160e01b600052603160045260246000fdfea26469706673582212202e76e42bad514947bcdfef094a7498fe790b9c21b3f43a633f01e729d6e1923e64736f6c63430008110033",
					"opcodes": "PUSH1 0x80 PUSH1 0x40 MSTORE CALLVALUE DUP1 ISZERO PUSH2 0x10 JUMPI PUSH1 0x0 DUP1 REVERT JUMPDEST POP PUSH2 0x1A CALLER PUSH2 0x1F JUMP JUMPDEST PUSH2 0x6F JUMP JUMPDEST PUSH1 0x0 DUP1 SLOAD PUSH1 0x1 PUSH1 0x1 PUSH1 0xA0 SHL SUB DUP4 DUP2 AND PUSH1 0x1 PUSH1 0x1 PUSH1 0xA0 SHL SUB NOT DUP4 AND DUP2 OR DUP5 SSTORE PUSH1 0x40 MLOAD SWAP2 SWAP1 SWAP3 AND SWAP3 DUP4 SWAP2 PUSH32 0x8BE0079C531659141344CD1FD0A4F28419497F9722A3DAAFE3B4186F6B6457E0 SWAP2 SWAP1 LOG3 POP POP JUMP JUMPDEST PUSH2 0x81B DUP1 PUSH2 0x7E PUSH1 0x0 CODECOPY PUSH1 0x0 RETURN INVALID PUSH1 0x80 PUSH1 0x40 MSTORE CALLVALUE DUP1 ISZERO PUSH2 0x10 JUMPI PUSH1 0x0 DUP1 REVERT JUMPDEST POP PUSH1 0x4 CALLDATASIZE LT PUSH2 0x88 JUMPI PUSH1 0x0 CALLDATALOAD PUSH1 0xE0 SHR DUP1 PUSH4 0x8DA5CB5B GT PUSH2 0x5B JUMPI DUP1 PUSH4 0x8DA5CB5B EQ PUSH2 0xE7 JUMPI DUP1 PUSH4 0x985E3A2F EQ PUSH2 0x102 JUMPI DUP1 PUSH4 0x999BA27C EQ PUSH2 0x118 JUMPI DUP1 PUSH4 0xF2FDE38B EQ PUSH2 0x13B JUMPI PUSH1 0x0 DUP1 REVERT JUMPDEST DUP1 PUSH4 0x175188E8 EQ PUSH2 0x8D JUMPI DUP1 PUSH4 0x223E5479 EQ PUSH2 0xA2 JUMPI DUP1 PUSH4 0x31FB5B1F EQ PUSH2 0xB5 JUMPI DUP1 PUSH4 0x715018A6 EQ PUSH2 0xDF JUMPI JUMPDEST PUSH1 0x0 DUP1 REVERT JUMPDEST PUSH2 0xA0 PUSH2 0x9B CALLDATASIZE PUSH1 0x4 PUSH2 0x6B2 JUMP JUMPDEST PUSH2 0x14E JUMP JUMPDEST STOP JUMPDEST PUSH2 0xA0 PUSH2 0xB0 CALLDATASIZE PUSH1 0x4 PUSH2 0x6B2 JUMP JUMPDEST PUSH2 0x1EE JUMP JUMPDEST PUSH2 0xC8 PUSH2 0xC3 CALLDATASIZE PUSH1 0x4 PUSH2 0x6DB JUMP JUMPDEST PUSH2 0x291 JUMP JUMPDEST PUSH1 0x40 MLOAD PUSH2 0xD6 SWAP3 SWAP2 SWAP1 PUSH2 0x6FD JUMP JUMPDEST PUSH1 0x40 MLOAD DUP1 SWAP2 SUB SWAP1 RETURN JUMPDEST PUSH2 0xA0 PUSH2 0x386 JUMP JUMPDEST PUSH1 0x0 SLOAD PUSH1 0x40 MLOAD PUSH1 0x1 PUSH1 0x1 PUSH1 0xA0 SHL SUB SWAP1 SWAP2 AND DUP2 MSTORE PUSH1 0x20 ADD PUSH2 0xD6 JUMP JUMPDEST PUSH2 0x10A PUSH2 0x39A JUMP JUMPDEST PUSH1 0x40 MLOAD SWAP1 DUP2 MSTORE PUSH1 0x20 ADD PUSH2 0xD6 JUMP JUMPDEST PUSH2 0x12B PUSH2 0x126 CALLDATASIZE PUSH1 0x4 PUSH2 0x6B2 JUMP JUMPDEST PUSH2 0x3AB JUMP JUMPDEST PUSH1 0x40 MLOAD SWAP1 ISZERO ISZERO DUP2 MSTORE PUSH1 0x20 ADD PUSH2 0xD6 JUMP JUMPDEST PUSH2 0xA0 PUSH2 0x149 CALLDATASIZE PUSH1 0x4 PUSH2 0x6B2 JUMP JUMPDEST PUSH2 0x3BE JUMP JUMPDEST PUSH2 0x156 PUSH2 0x437 JUMP JUMPDEST PUSH2 0x161 PUSH1 0x1 DUP3 PUSH2 0x491 JUMP JUMPDEST PUSH2 0x1AB JUMPI PUSH1 0x40 MLOAD PUSH3 0x461BCD PUSH1 0xE5 SHL DUP2 MSTORE PUSH1 0x20 PUSH1 0x4 DUP3 ADD MSTORE PUSH1 0x16 PUSH1 0x24 DUP3 ADD MSTORE PUSH22 0x1D1A1948195E081B9BDD081DDA1A5D195B1A5CDD1959 PUSH1 0x52 SHL PUSH1 0x44 DUP3 ADD MSTORE PUSH1 0x64 ADD JUMPDEST PUSH1 0x40 MLOAD DUP1 SWAP2 SUB SWAP1 REVERT JUMPDEST PUSH2 0x1B6 PUSH1 0x1 DUP3 PUSH2 0x4B6 JUMP JUMPDEST POP PUSH1 0x40 MLOAD PUSH1 0x1 PUSH1 0x1 PUSH1 0xA0 SHL SUB DUP3 AND SWAP1 PUSH32 0x9A1DB4B80C32706328728508C941A6B954F31EB5AFFD32F236C1FD405F8FEA4 SWAP1 PUSH1 0x0 SWAP1 LOG2 POP JUMP JUMPDEST PUSH2 0x1F6 PUSH2 0x437 JUMP JUMPDEST PUSH2 0x201 PUSH1 0x1 DUP3 PUSH2 0x491 JUMP JUMPDEST ISZERO PUSH2 0x24E JUMPI PUSH1 0x40 MLOAD PUSH3 0x461BCD PUSH1 0xE5 SHL DUP2 MSTORE PUSH1 0x20 PUSH1 0x4 DUP3 ADD MSTORE PUSH1 0x1B PUSH1 0x24 DUP3 ADD MSTORE PUSH32 0x74686520657820616C7265616479202077686974656C69737465640000000000 PUSH1 0x44 DUP3 ADD MSTORE PUSH1 0x64 ADD PUSH2 0x1A2 JUMP JUMPDEST PUSH2 0x259 PUSH1 0x1 DUP3 PUSH2 0x4CB JUMP JUMPDEST POP PUSH1 0x40 MLOAD PUSH1 0x1 PUSH1 0x1 PUSH1 0xA0 SHL SUB DUP3 AND SWAP1 PUSH32 0x6B583E2E3AD2E182671D77905FEE57B1FFD8CE2AA5C0B652CA029317919751A4 SWAP1 PUSH1 0x0 SWAP1 LOG2 POP JUMP JUMPDEST PUSH1 0x60 PUSH1 0x0 DUP3 DUP5 PUSH2 0x2A1 PUSH1 0x1 PUSH2 0x4E0 JUMP JUMPDEST PUSH2 0x2AB SWAP2 SWAP1 PUSH2 0x764 JUMP JUMPDEST DUP2 GT ISZERO PUSH2 0x2CA JUMPI DUP5 PUSH2 0x2BD PUSH1 0x1 PUSH2 0x4E0 JUMP JUMPDEST PUSH2 0x2C7 SWAP2 SWAP1 PUSH2 0x764 JUMP JUMPDEST SWAP1 POP JUMPDEST PUSH1 0x0 DUP2 PUSH8 0xFFFFFFFFFFFFFFFF DUP2 GT ISZERO PUSH2 0x2E5 JUMPI PUSH2 0x2E5 PUSH2 0x777 JUMP JUMPDEST PUSH1 0x40 MLOAD SWAP1 DUP1 DUP3 MSTORE DUP1 PUSH1 0x20 MUL PUSH1 0x20 ADD DUP3 ADD PUSH1 0x40 MSTORE DUP1 ISZERO PUSH2 0x30E JUMPI DUP2 PUSH1 0x20 ADD PUSH1 0x20 DUP3 MUL DUP1 CALLDATASIZE DUP4 CALLDATACOPY ADD SWAP1 POP JUMPDEST POP SWAP1 POP PUSH1 0x0 JUMPDEST DUP3 DUP2 LT ISZERO PUSH2 0x36D JUMPI PUSH2 0x331 PUSH2 0x329 DUP3 DUP10 PUSH2 0x78D JUMP JUMPDEST PUSH1 0x1 SWAP1 PUSH2 0x4EA JUMP JUMPDEST DUP3 DUP3 DUP2 MLOAD DUP2 LT PUSH2 0x343 JUMPI PUSH2 0x343 PUSH2 0x7A0 JUMP JUMPDEST PUSH1 0x1 PUSH1 0x1 PUSH1 0xA0 SHL SUB SWAP1 SWAP3 AND PUSH1 0x20 SWAP3 DUP4 MUL SWAP2 SWAP1 SWAP2 ADD SWAP1 SWAP2 ADD MSTORE DUP1 PUSH2 0x365 DUP2 PUSH2 0x7B6 JUMP JUMPDEST SWAP2 POP POP PUSH2 0x314 JUMP JUMPDEST POP DUP1 PUSH2 0x379 DUP4 DUP9 PUSH2 0x78D JUMP JUMPDEST SWAP4 POP SWAP4 POP POP POP SWAP3 POP SWAP3 SWAP1 POP JUMP JUMPDEST PUSH2 0x38E PUSH2 0x437 JUMP JUMPDEST PUSH2 0x398 PUSH1 0x0 PUSH2 0x4F6 JUMP JUMPDEST JUMP JUMPDEST PUSH1 0x0 PUSH2 0x3A6 PUSH1 0x1 PUSH2 0x4E0 JUMP JUMPDEST SWAP1 POP SWAP1 JUMP JUMPDEST PUSH1 0x0 PUSH2 0x3B8 PUSH1 0x1 DUP4 PUSH2 0x491 JUMP JUMPDEST SWAP3 SWAP2 POP POP JUMP JUMPDEST PUSH2 0x3C6 PUSH2 0x437 JUMP JUMPDEST PUSH1 0x1 PUSH1 0x1 PUSH1 0xA0 SHL SUB DUP2 AND PUSH2 0x42B JUMPI PUSH1 0x40 MLOAD PUSH3 0x461BCD PUSH1 0xE5 SHL DUP2 MSTORE PUSH1 0x20 PUSH1 0x4 DUP3 ADD MSTORE PUSH1 0x26 PUSH1 0x24 DUP3 ADD MSTORE PUSH32 0x4F776E61626C653A206E6577206F776E657220697320746865207A65726F2061 PUSH1 0x44 DUP3 ADD MSTORE PUSH6 0x646472657373 PUSH1 0xD0 SHL PUSH1 0x64 DUP3 ADD MSTORE PUSH1 0x84 ADD PUSH2 0x1A2 JUMP JUMPDEST PUSH2 0x434 DUP2 PUSH2 0x4F6 JUMP JUMPDEST POP JUMP JUMPDEST PUSH1 0x0 SLOAD PUSH1 0x1 PUSH1 0x1 PUSH1 0xA0 SHL SUB AND CALLER EQ PUSH2 0x398 JUMPI PUSH1 0x40 MLOAD PUSH3 0x461BCD PUSH1 0xE5 SHL DUP2 MSTORE PUSH1 0x20 PUSH1 0x4 DUP3 ADD DUP2 SWAP1 MSTORE PUSH1 0x24 DUP3 ADD MSTORE PUSH32 0x4F776E61626C653A2063616C6C6572206973206E6F7420746865206F776E6572 PUSH1 0x44 DUP3 ADD MSTORE PUSH1 0x64 ADD PUSH2 0x1A2 JUMP JUMPDEST PUSH1 0x1 PUSH1 0x1 PUSH1 0xA0 SHL SUB DUP2 AND PUSH1 0x0 SWAP1 DUP2 MSTORE PUSH1 0x1 DUP4 ADD PUSH1 0x20 MSTORE PUSH1 0x40 DUP2 KECCAK256 SLOAD ISZERO ISZERO JUMPDEST SWAP4 SWAP3 POP POP POP JUMP JUMPDEST PUSH1 0x0 PUSH2 0x4AF DUP4 PUSH1 0x1 PUSH1 0x1 PUSH1 0xA0 SHL SUB DUP5 AND PUSH2 0x546 JUMP JUMPDEST PUSH1 0x0 PUSH2 0x4AF DUP4 PUSH1 0x1 PUSH1 0x1 PUSH1 0xA0 SHL SUB DUP5 AND PUSH2 0x639 JUMP JUMPDEST PUSH1 0x0 PUSH2 0x3B8 DUP3 SLOAD SWAP1 JUMP JUMPDEST PUSH1 0x0 PUSH2 0x4AF DUP4 DUP4 PUSH2 0x688 JUMP JUMPDEST PUSH1 0x0 DUP1 SLOAD PUSH1 0x1 PUSH1 0x1 PUSH1 0xA0 SHL SUB DUP4 DUP2 AND PUSH1 0x1 PUSH1 0x1 PUSH1 0xA0 SHL SUB NOT DUP4 AND DUP2 OR DUP5 SSTORE PUSH1 0x40 MLOAD SWAP2 SWAP1 SWAP3 AND SWAP3 DUP4 SWAP2 PUSH32 0x8BE0079C531659141344CD1FD0A4F28419497F9722A3DAAFE3B4186F6B6457E0 SWAP2 SWAP1 LOG3 POP POP JUMP JUMPDEST PUSH1 0x0 DUP2 DUP2 MSTORE PUSH1 0x1 DUP4 ADD PUSH1 0x20 MSTORE PUSH1 0x40 DUP2 KECCAK256 SLOAD DUP1 ISZERO PUSH2 0x62F JUMPI PUSH1 0x0 PUSH2 0x56A PUSH1 0x1 DUP4 PUSH2 0x764 JUMP JUMPDEST DUP6 SLOAD SWAP1 SWAP2 POP PUSH1 0x0 SWAP1 PUSH2 0x57E SWAP1 PUSH1 0x1 SWAP1 PUSH2 0x764 JUMP JUMPDEST SWAP1 POP DUP2 DUP2 EQ PUSH2 0x5E3 JUMPI PUSH1 0x0 DUP7 PUSH1 0x0 ADD DUP3 DUP2 SLOAD DUP2 LT PUSH2 0x59E JUMPI PUSH2 0x59E PUSH2 0x7A0 JUMP JUMPDEST SWAP1 PUSH1 0x0 MSTORE PUSH1 0x20 PUSH1 0x0 KECCAK256 ADD SLOAD SWAP1 POP DUP1 DUP8 PUSH1 0x0 ADD DUP5 DUP2 SLOAD DUP2 LT PUSH2 0x5C1 JUMPI PUSH2 0x5C1 PUSH2 0x7A0 JUMP JUMPDEST PUSH1 0x0 SWAP2 DUP3 MSTORE PUSH1 0x20 DUP1 DUP4 KECCAK256 SWAP1 SWAP2 ADD SWAP3 SWAP1 SWAP3 SSTORE SWAP2 DUP3 MSTORE PUSH1 0x1 DUP9 ADD SWAP1 MSTORE PUSH1 0x40 SWAP1 KECCAK256 DUP4 SWAP1 SSTORE JUMPDEST DUP6 SLOAD DUP7 SWAP1 DUP1 PUSH2 0x5F4 JUMPI PUSH2 0x5F4 PUSH2 0x7CF JUMP JUMPDEST PUSH1 0x1 SWAP1 SUB DUP2 DUP2 SWAP1 PUSH1 0x0 MSTORE PUSH1 0x20 PUSH1 0x0 KECCAK256 ADD PUSH1 0x0 SWAP1 SSTORE SWAP1 SSTORE DUP6 PUSH1 0x1 ADD PUSH1 0x0 DUP7 DUP2 MSTORE PUSH1 0x20 ADD SWAP1 DUP2 MSTORE PUSH1 0x20 ADD PUSH1 0x0 KECCAK256 PUSH1 0x0 SWAP1 SSTORE PUSH1 0x1 SWAP4 POP POP POP POP PUSH2 0x3B8 JUMP JUMPDEST PUSH1 0x0 SWAP2 POP POP PUSH2 0x3B8 JUMP JUMPDEST PUSH1 0x0 DUP2 DUP2 MSTORE PUSH1 0x1 DUP4 ADD PUSH1 0x20 MSTORE PUSH1 0x40 DUP2 KECCAK256 SLOAD PUSH2 0x680 JUMPI POP DUP2 SLOAD PUSH1 0x1 DUP2 DUP2 ADD DUP5 SSTORE PUSH1 0x0 DUP5 DUP2 MSTORE PUSH1 0x20 DUP1 DUP3 KECCAK256 SWAP1 SWAP4 ADD DUP5 SWAP1 SSTORE DUP5 SLOAD DUP5 DUP3 MSTORE DUP3 DUP7 ADD SWAP1 SWAP4 MSTORE PUSH1 0x40 SWAP1 KECCAK256 SWAP2 SWAP1 SWAP2 SSTORE PUSH2 0x3B8 JUMP JUMPDEST POP PUSH1 0x0 PUSH2 0x3B8 JUMP JUMPDEST PUSH1 0x0 DUP3 PUSH1 0x0 ADD DUP3 DUP2 SLOAD DUP2 LT PUSH2 0x69F JUMPI PUSH2 0x69F PUSH2 0x7A0 JUMP JUMPDEST SWAP1 PUSH1 0x0 MSTORE PUSH1 0x20 PUSH1 0x0 KECCAK256 ADD SLOAD SWAP1 POP SWAP3 SWAP2 POP POP JUMP JUMPDEST PUSH1 0x0 PUSH1 0x20 DUP3 DUP5 SUB SLT ISZERO PUSH2 0x6C4 JUMPI PUSH1 0x0 DUP1 REVERT JUMPDEST DUP2 CALLDATALOAD PUSH1 0x1 PUSH1 0x1 PUSH1 0xA0 SHL SUB DUP2 AND DUP2 EQ PUSH2 0x4AF JUMPI PUSH1 0x0 DUP1 REVERT JUMPDEST PUSH1 0x0 DUP1 PUSH1 0x40 DUP4 DUP6 SUB SLT ISZERO PUSH2 0x6EE JUMPI PUSH1 0x0 DUP1 REVERT JUMPDEST POP POP DUP1 CALLDATALOAD SWAP3 PUSH1 0x20 SWAP1 SWAP2 ADD CALLDATALOAD SWAP2 POP JUMP JUMPDEST PUSH1 0x40 DUP1 DUP3 MSTORE DUP4 MLOAD SWAP1 DUP3 ADD DUP2 SWAP1 MSTORE PUSH1 0x0 SWAP1 PUSH1 0x20 SWAP1 PUSH1 0x60 DUP5 ADD SWAP1 DUP3 DUP8 ADD DUP5 JUMPDEST DUP3 DUP2 LT ISZERO PUSH2 0x73F JUMPI DUP2 MLOAD PUSH1 0x1 PUSH1 0x1 PUSH1 0xA0 SHL SUB AND DUP5 MSTORE SWAP3 DUP5 ADD SWAP3 SWAP1 DUP5 ADD SWAP1 PUSH1 0x1 ADD PUSH2 0x71A JUMP JUMPDEST POP POP POP SWAP3 ADD SWAP3 SWAP1 SWAP3 MSTORE SWAP3 SWAP2 POP POP JUMP JUMPDEST PUSH4 0x4E487B71 PUSH1 0xE0 SHL PUSH1 0x0 MSTORE PUSH1 0x11 PUSH1 0x4 MSTORE PUSH1 0x24 PUSH1 0x0 REVERT JUMPDEST DUP2 DUP2 SUB DUP2 DUP2 GT ISZERO PUSH2 0x3B8 JUMPI PUSH2 0x3B8 PUSH2 0x74E JUMP JUMPDEST PUSH4 0x4E487B71 PUSH1 0xE0 SHL PUSH1 0x0 MSTORE PUSH1 0x41 PUSH1 0x4 MSTORE PUSH1 0x24 PUSH1 0x0 REVERT JUMPDEST DUP1 DUP3 ADD DUP1 DUP3 GT ISZERO PUSH2 0x3B8 JUMPI PUSH2 0x3B8 PUSH2 0x74E JUMP JUMPDEST PUSH4 0x4E487B71 PUSH1 0xE0 SHL PUSH1 0x0 MSTORE PUSH1 0x32 PUSH1 0x4 MSTORE PUSH1 0x24 PUSH1 0x0 REVERT JUMPDEST PUSH1 0x0 PUSH1 0x1 DUP3 ADD PUSH2 0x7C8 JUMPI PUSH2 0x7C8 PUSH2 0x74E JUMP JUMPDEST POP PUSH1 0x1 ADD SWAP1 JUMP JUMPDEST PUSH4 0x4E487B71 PUSH1 0xE0 SHL PUSH1 0x0 MSTORE PUSH1 0x31 PUSH1 0x4 MSTORE PUSH1 0x24 PUSH1 0x0 REVERT INVALID LOG2 PUSH5 0x6970667358 0x22 SLT KECCAK256 0x2E PUSH23 0xE42BAD514947BCDFEF094A7498FE790B9C21B3F43A633F ADD 0xE7 0x29 0xD6 0xE1 SWAP3 RETURNDATACOPY PUSH5 0x736F6C6343 STOP ADDMOD GT STOP CALLER "
				},
				"gasEstimates": {
					"creation": {
						"codeDepositCost": "415000",
						"executionCost": "26290",
						"totalCost": "441290"
					},
					"external": {
						"addStrategy(address)": "infinite",
						"isStrategyWhitelisted(address)": "infinite",
						"owner()": "2301",
						"removeStrategy(address)": "infinite",
						"renounceOwnership()": "infinite",
						"transferOwnership(address)": "28364",
						"viewCountWhitelistedStrategies()": "2392",
						"viewWhitelistedStrategies(uint256,uint256)": "infinite"
					}
				},
				"methodIdentifiers": {
					"addStrategy(address)": "223e5479",
					"isStrategyWhitelisted(address)": "999ba27c",
					"owner()": "8da5cb5b",
					"removeStrategy(address)": "175188e8",
					"renounceOwnership()": "715018a6",
					"transferOwnership(address)": "f2fde38b",
					"viewCountWhitelistedStrategies()": "985e3a2f",
					"viewWhitelistedStrategies(uint256,uint256)": "31fb5b1f"
				}
			},
			"storageLayout": {
				"storage": [
					{
						"astId": 7,
						"contract": "contracts/Manager/ExecutionManager.sol:ExecutionManager",
						"label": "_owner",
						"offset": 0,
						"slot": "0",
						"type": "t_address"
					},
					{
						"astId": 753,
						"contract": "contracts/Manager/ExecutionManager.sol:ExecutionManager",
						"label": "_whitelistedStrategies",
						"offset": 0,
						"slot": "1",
						"type": "t_struct(AddressSet)446_storage"
					}
				],
				"types": {
					"t_address": {
						"encoding": "inplace",
						"label": "address",
						"numberOfBytes": "20"
					},
					"t_array(t_bytes32)dyn_storage": {
						"base": "t_bytes32",
						"encoding": "dynamic_array",
						"label": "bytes32[]",
						"numberOfBytes": "32"
					},
					"t_bytes32": {
						"encoding": "inplace",
						"label": "bytes32",
						"numberOfBytes": "32"
					},
					"t_mapping(t_bytes32,t_uint256)": {
						"encoding": "mapping",
						"key": "t_bytes32",
						"label": "mapping(bytes32 => uint256)",
						"numberOfBytes": "32",
						"value": "t_uint256"
					},
					"t_struct(AddressSet)446_storage": {
						"encoding": "inplace",
						"label": "struct EnumerableSet.AddressSet",
						"members": [
							{
								"astId": 445,
								"contract": "contracts/Manager/ExecutionManager.sol:ExecutionManager",
								"label": "_inner",
								"offset": 0,
								"slot": "0",
								"type": "t_struct(Set)145_storage"
							}
						],
						"numberOfBytes": "64"
					},
					"t_struct(Set)145_storage": {
						"encoding": "inplace",
						"label": "struct EnumerableSet.Set",
						"members": [
							{
								"astId": 140,
								"contract": "contracts/Manager/ExecutionManager.sol:ExecutionManager",
								"label": "_values",
								"offset": 0,
								"slot": "0",
								"type": "t_array(t_bytes32)dyn_storage"
							},
							{
								"astId": 144,
								"contract": "contracts/Manager/ExecutionManager.sol:ExecutionManager",
								"label": "_indexes",
								"offset": 0,
								"slot": "1",
								"type": "t_mapping(t_bytes32,t_uint256)"
							}
						],
						"numberOfBytes": "64"
					},
					"t_uint256": {
						"encoding": "inplace",
						"label": "uint256",
						"numberOfBytes": "32"
					}
				}
			},
			"userdoc": {
				"kind": "user",
				"methods": {},
				"notice": "It allows adding/removing execution strategies for trading on the LooksRare exchange.",
				"version": 1
			}
		}
	}
}