{
	"contracts/Manager/UnemetaMarket.sol": {
		"UnemetaMarket": {
			"abi": [
				{
					"inputs": [
						{
							"internalType": "address",
							"name": "_currencyManager",
							"type": "address"
						},
						{
							"internalType": "address",
							"name": "_executionManager",
							"type": "address"
						},
						{
							"internalType": "address",
							"name": "_royaltyFeeManager",
							"type": "address"
						},
						{
							"internalType": "address",
							"name": "_WETH",
							"type": "address"
						},
						{
							"internalType": "address",
							"name": "_protocolFeeRecipient",
							"type": "address"
						}
					],
					"stateMutability": "nonpayable",
					"type": "constructor"
				},
				{
					"anonymous": false,
					"inputs": [
						{
							"indexed": true,
							"internalType": "address",
							"name": "user",
							"type": "address"
						},
						{
							"indexed": false,
							"internalType": "uint256",
							"name": "newMinNonce",
							"type": "uint256"
						}
					],
					"name": "CancelAllOrders",
					"type": "event"
				},
				{
					"anonymous": false,
					"inputs": [
						{
							"indexed": true,
							"internalType": "address",
							"name": "user",
							"type": "address"
						},
						{
							"indexed": false,
							"internalType": "uint256[]",
							"name": "orderNonces",
							"type": "uint256[]"
						}
					],
					"name": "CancelMultipleOrders",
					"type": "event"
				},
				{
					"anonymous": false,
					"inputs": [
						{
							"indexed": true,
							"internalType": "address",
							"name": "currencyManager",
							"type": "address"
						}
					],
					"name": "NewCurrencyManager",
					"type": "event"
				},
				{
					"anonymous": false,
					"inputs": [
						{
							"indexed": true,
							"internalType": "address",
							"name": "executionManager",
							"type": "address"
						}
					],
					"name": "NewExecutionManager",
					"type": "event"
				},
				{
					"anonymous": false,
					"inputs": [
						{
							"indexed": true,
							"internalType": "address",
							"name": "protocolFeeRecipient",
							"type": "address"
						}
					],
					"name": "NewProtocolFeeRecipient",
					"type": "event"
				},
				{
					"anonymous": false,
					"inputs": [
						{
							"indexed": true,
							"internalType": "address",
							"name": "royaltyFeeManager",
							"type": "address"
						}
					],
					"name": "NewRoyaltyFeeManager",
					"type": "event"
				},
				{
					"anonymous": false,
					"inputs": [
						{
							"indexed": true,
							"internalType": "address",
							"name": "transferSelectorNFT",
							"type": "address"
						}
					],
					"name": "NewTransferSelectorNFT",
					"type": "event"
				},
				{
					"anonymous": false,
					"inputs": [
						{
							"indexed": true,
							"internalType": "address",
							"name": "previousOwner",
							"type": "address"
						},
						{
							"indexed": true,
							"internalType": "address",
							"name": "newOwner",
							"type": "address"
						}
					],
					"name": "OwnershipTransferred",
					"type": "event"
				},
				{
					"anonymous": false,
					"inputs": [
						{
							"indexed": true,
							"internalType": "address",
							"name": "collection",
							"type": "address"
						},
						{
							"indexed": true,
							"internalType": "uint256",
							"name": "tokenId",
							"type": "uint256"
						},
						{
							"indexed": true,
							"internalType": "address",
							"name": "royaltyRecipient",
							"type": "address"
						},
						{
							"indexed": false,
							"internalType": "address",
							"name": "currency",
							"type": "address"
						},
						{
							"indexed": false,
							"internalType": "uint256",
							"name": "amount",
							"type": "uint256"
						}
					],
					"name": "RoyaltyPayment",
					"type": "event"
				},
				{
					"anonymous": false,
					"inputs": [
						{
							"indexed": false,
							"internalType": "bytes32",
							"name": "orderHash",
							"type": "bytes32"
						},
						{
							"indexed": false,
							"internalType": "uint256",
							"name": "orderNonce",
							"type": "uint256"
						},
						{
							"indexed": true,
							"internalType": "address",
							"name": "taker",
							"type": "address"
						},
						{
							"indexed": true,
							"internalType": "address",
							"name": "maker",
							"type": "address"
						},
						{
							"indexed": true,
							"internalType": "address",
							"name": "strategy",
							"type": "address"
						},
						{
							"indexed": false,
							"internalType": "address",
							"name": "currency",
							"type": "address"
						},
						{
							"indexed": false,
							"internalType": "address",
							"name": "collection",
							"type": "address"
						},
						{
							"indexed": false,
							"internalType": "uint256",
							"name": "tokenId",
							"type": "uint256"
						},
						{
							"indexed": false,
							"internalType": "uint256",
							"name": "amount",
							"type": "uint256"
						},
						{
							"indexed": false,
							"internalType": "uint256",
							"name": "price",
							"type": "uint256"
						}
					],
					"name": "TakerAsk",
					"type": "event"
				},
				{
					"anonymous": false,
					"inputs": [
						{
							"indexed": false,
							"internalType": "bytes32",
							"name": "orderHash",
							"type": "bytes32"
						},
						{
							"indexed": false,
							"internalType": "uint256",
							"name": "orderNonce",
							"type": "uint256"
						},
						{
							"indexed": true,
							"internalType": "address",
							"name": "taker",
							"type": "address"
						},
						{
							"indexed": true,
							"internalType": "address",
							"name": "maker",
							"type": "address"
						},
						{
							"indexed": true,
							"internalType": "address",
							"name": "strategy",
							"type": "address"
						},
						{
							"indexed": false,
							"internalType": "address",
							"name": "currency",
							"type": "address"
						},
						{
							"indexed": false,
							"internalType": "address",
							"name": "collection",
							"type": "address"
						},
						{
							"indexed": false,
							"internalType": "uint256",
							"name": "tokenId",
							"type": "uint256"
						},
						{
							"indexed": false,
							"internalType": "uint256",
							"name": "amount",
							"type": "uint256"
						},
						{
							"indexed": false,
							"internalType": "uint256",
							"name": "price",
							"type": "uint256"
						}
					],
					"name": "TakerBid",
					"type": "event"
				},
				{
					"inputs": [],
					"name": "WETH",
					"outputs": [
						{
							"internalType": "address",
							"name": "",
							"type": "address"
						}
					],
					"stateMutability": "view",
					"type": "function"
				},
				{
					"inputs": [
						{
							"internalType": "uint256",
							"name": "minNonce",
							"type": "uint256"
						}
					],
					"name": "cancelAllOrdersForSender",
					"outputs": [],
					"stateMutability": "nonpayable",
					"type": "function"
				},
				{
					"inputs": [
						{
							"internalType": "uint256[]",
							"name": "NonceList",
							"type": "uint256[]"
						}
					],
					"name": "cancelMultipleMakerOrders",
					"outputs": [],
					"stateMutability": "nonpayable",
					"type": "function"
				},
				{
					"inputs": [],
					"name": "currencyManager",
					"outputs": [
						{
							"internalType": "contract TheCurrencyManager",
							"name": "",
							"type": "address"
						}
					],
					"stateMutability": "view",
					"type": "function"
				},
				{
					"inputs": [],
					"name": "executionManager",
					"outputs": [
						{
							"internalType": "contract TheExManager",
							"name": "",
							"type": "address"
						}
					],
					"stateMutability": "view",
					"type": "function"
				},
				{
					"inputs": [
						{
							"internalType": "address",
							"name": "user",
							"type": "address"
						},
						{
							"internalType": "uint256",
							"name": "orderNonce",
							"type": "uint256"
						}
					],
					"name": "isUserOrderNonceExecutedOrCancelled",
					"outputs": [
						{
							"internalType": "bool",
							"name": "",
							"type": "bool"
						}
					],
					"stateMutability": "view",
					"type": "function"
				},
				{
					"inputs": [
						{
							"components": [
								{
									"internalType": "bool",
									"name": "isOrderAsk",
									"type": "bool"
								},
								{
									"internalType": "address",
									"name": "taker",
									"type": "address"
								},
								{
									"internalType": "uint256",
									"name": "price",
									"type": "uint256"
								},
								{
									"internalType": "uint256",
									"name": "tokenId",
									"type": "uint256"
								},
								{
									"internalType": "uint256",
									"name": "minPercentageToAsk",
									"type": "uint256"
								},
								{
									"internalType": "bytes",
									"name": "params",
									"type": "bytes"
								}
							],
							"internalType": "struct OrderTypes.TakerOrder",
							"name": "takerBid",
							"type": "tuple"
						},
						{
							"components": [
								{
									"internalType": "bool",
									"name": "isOrderAsk",
									"type": "bool"
								},
								{
									"internalType": "address",
									"name": "signer",
									"type": "address"
								},
								{
									"internalType": "address",
									"name": "collection",
									"type": "address"
								},
								{
									"internalType": "uint256",
									"name": "price",
									"type": "uint256"
								},
								{
									"internalType": "uint256",
									"name": "tokenId",
									"type": "uint256"
								},
								{
									"internalType": "uint256",
									"name": "amount",
									"type": "uint256"
								},
								{
									"internalType": "address",
									"name": "strategy",
									"type": "address"
								},
								{
									"internalType": "address",
									"name": "currency",
									"type": "address"
								},
								{
									"internalType": "uint256",
									"name": "nonce",
									"type": "uint256"
								},
								{
									"internalType": "uint256",
									"name": "startTime",
									"type": "uint256"
								},
								{
									"internalType": "uint256",
									"name": "endTime",
									"type": "uint256"
								},
								{
									"internalType": "uint256",
									"name": "minPercentageToAsk",
									"type": "uint256"
								},
								{
									"internalType": "bytes",
									"name": "params",
									"type": "bytes"
								},
								{
									"internalType": "uint8",
									"name": "v",
									"type": "uint8"
								},
								{
									"internalType": "bytes32",
									"name": "r",
									"type": "bytes32"
								},
								{
									"internalType": "bytes32",
									"name": "s",
									"type": "bytes32"
								}
							],
							"internalType": "struct OrderTypes.MakerOrder",
							"name": "makerAsk",
							"type": "tuple"
						}
					],
					"name": "matchSellerOrders",
					"outputs": [],
					"stateMutability": "nonpayable",
					"type": "function"
				},
				{
					"inputs": [
						{
							"components": [
								{
									"internalType": "bool",
									"name": "isOrderAsk",
									"type": "bool"
								},
								{
									"internalType": "address",
									"name": "taker",
									"type": "address"
								},
								{
									"internalType": "uint256",
									"name": "price",
									"type": "uint256"
								},
								{
									"internalType": "uint256",
									"name": "tokenId",
									"type": "uint256"
								},
								{
									"internalType": "uint256",
									"name": "minPercentageToAsk",
									"type": "uint256"
								},
								{
									"internalType": "bytes",
									"name": "params",
									"type": "bytes"
								}
							],
							"internalType": "struct OrderTypes.TakerOrder",
							"name": "takerBid",
							"type": "tuple"
						},
						{
							"components": [
								{
									"internalType": "bool",
									"name": "isOrderAsk",
									"type": "bool"
								},
								{
									"internalType": "address",
									"name": "signer",
									"type": "address"
								},
								{
									"internalType": "address",
									"name": "collection",
									"type": "address"
								},
								{
									"internalType": "uint256",
									"name": "price",
									"type": "uint256"
								},
								{
									"internalType": "uint256",
									"name": "tokenId",
									"type": "uint256"
								},
								{
									"internalType": "uint256",
									"name": "amount",
									"type": "uint256"
								},
								{
									"internalType": "address",
									"name": "strategy",
									"type": "address"
								},
								{
									"internalType": "address",
									"name": "currency",
									"type": "address"
								},
								{
									"internalType": "uint256",
									"name": "nonce",
									"type": "uint256"
								},
								{
									"internalType": "uint256",
									"name": "startTime",
									"type": "uint256"
								},
								{
									"internalType": "uint256",
									"name": "endTime",
									"type": "uint256"
								},
								{
									"internalType": "uint256",
									"name": "minPercentageToAsk",
									"type": "uint256"
								},
								{
									"internalType": "bytes",
									"name": "params",
									"type": "bytes"
								},
								{
									"internalType": "uint8",
									"name": "v",
									"type": "uint8"
								},
								{
									"internalType": "bytes32",
									"name": "r",
									"type": "bytes32"
								},
								{
									"internalType": "bytes32",
									"name": "s",
									"type": "bytes32"
								}
							],
							"internalType": "struct OrderTypes.MakerOrder",
							"name": "makerAsk",
							"type": "tuple"
						}
					],
					"name": "matchSellerOrdersWETH",
					"outputs": [],
					"stateMutability": "payable",
					"type": "function"
				},
				{
					"inputs": [
						{
							"components": [
								{
									"internalType": "bool",
									"name": "isOrderAsk",
									"type": "bool"
								},
								{
									"internalType": "address",
									"name": "taker",
									"type": "address"
								},
								{
									"internalType": "uint256",
									"name": "price",
									"type": "uint256"
								},
								{
									"internalType": "uint256",
									"name": "tokenId",
									"type": "uint256"
								},
								{
									"internalType": "uint256",
									"name": "minPercentageToAsk",
									"type": "uint256"
								},
								{
									"internalType": "bytes",
									"name": "params",
									"type": "bytes"
								}
							],
							"internalType": "struct OrderTypes.TakerOrder",
							"name": "takerAsk",
							"type": "tuple"
						},
						{
							"components": [
								{
									"internalType": "bool",
									"name": "isOrderAsk",
									"type": "bool"
								},
								{
									"internalType": "address",
									"name": "signer",
									"type": "address"
								},
								{
									"internalType": "address",
									"name": "collection",
									"type": "address"
								},
								{
									"internalType": "uint256",
									"name": "price",
									"type": "uint256"
								},
								{
									"internalType": "uint256",
									"name": "tokenId",
									"type": "uint256"
								},
								{
									"internalType": "uint256",
									"name": "amount",
									"type": "uint256"
								},
								{
									"internalType": "address",
									"name": "strategy",
									"type": "address"
								},
								{
									"internalType": "address",
									"name": "currency",
									"type": "address"
								},
								{
									"internalType": "uint256",
									"name": "nonce",
									"type": "uint256"
								},
								{
									"internalType": "uint256",
									"name": "startTime",
									"type": "uint256"
								},
								{
									"internalType": "uint256",
									"name": "endTime",
									"type": "uint256"
								},
								{
									"internalType": "uint256",
									"name": "minPercentageToAsk",
									"type": "uint256"
								},
								{
									"internalType": "bytes",
									"name": "params",
									"type": "bytes"
								},
								{
									"internalType": "uint8",
									"name": "v",
									"type": "uint8"
								},
								{
									"internalType": "bytes32",
									"name": "r",
									"type": "bytes32"
								},
								{
									"internalType": "bytes32",
									"name": "s",
									"type": "bytes32"
								}
							],
							"internalType": "struct OrderTypes.MakerOrder",
							"name": "makerBid",
							"type": "tuple"
						}
					],
					"name": "matchesBuyerOrder",
					"outputs": [],
					"stateMutability": "nonpayable",
					"type": "function"
				},
				{
					"inputs": [],
					"name": "owner",
					"outputs": [
						{
							"internalType": "address",
							"name": "",
							"type": "address"
						}
					],
					"stateMutability": "view",
					"type": "function"
				},
				{
					"inputs": [],
					"name": "protocolFeeRecipient",
					"outputs": [
						{
							"internalType": "address",
							"name": "",
							"type": "address"
						}
					],
					"stateMutability": "view",
					"type": "function"
				},
				{
					"inputs": [],
					"name": "renounceOwnership",
					"outputs": [],
					"stateMutability": "nonpayable",
					"type": "function"
				},
				{
					"inputs": [],
					"name": "royaltyFeeManager",
					"outputs": [
						{
							"internalType": "contract TheRoyaltyManager",
							"name": "",
							"type": "address"
						}
					],
					"stateMutability": "view",
					"type": "function"
				},
				{
					"inputs": [
						{
							"internalType": "address",
							"name": "newOwner",
							"type": "address"
						}
					],
					"name": "transferOwnership",
					"outputs": [],
					"stateMutability": "nonpayable",
					"type": "function"
				},
				{
					"inputs": [],
					"name": "transferSelectorNFT",
					"outputs": [
						{
							"internalType": "contract TheTransferSelector",
							"name": "",
							"type": "address"
						}
					],
					"stateMutability": "view",
					"type": "function"
				},
				{
					"inputs": [
						{
							"internalType": "address",
							"name": "_currencyManager",
							"type": "address"
						}
					],
					"name": "updateCurrencyManager",
					"outputs": [],
					"stateMutability": "nonpayable",
					"type": "function"
				},
				{
					"inputs": [
						{
							"internalType": "address",
							"name": "_executionManager",
							"type": "address"
						}
					],
					"name": "updateExecutionManager",
					"outputs": [],
					"stateMutability": "nonpayable",
					"type": "function"
				},
				{
					"inputs": [
						{
							"internalType": "address",
							"name": "_protocolFeeRecipient",
							"type": "address"
						}
					],
					"name": "updateProtocolFeeRecipient",
					"outputs": [],
					"stateMutability": "nonpayable",
					"type": "function"
				},
				{
					"inputs": [
						{
							"internalType": "address",
							"name": "_royaltyFeeManager",
							"type": "address"
						}
					],
					"name": "updateRoyaltyFeeManager",
					"outputs": [],
					"stateMutability": "nonpayable",
					"type": "function"
				},
				{
					"inputs": [
						{
							"internalType": "address",
							"name": "_transferSelectorNFT",
							"type": "address"
						}
					],
					"name": "updateTransferSelectorNFT",
					"outputs": [],
					"stateMutability": "nonpayable",
					"type": "function"
				},
				{
					"inputs": [
						{
							"internalType": "address",
							"name": "",
							"type": "address"
						}
					],
					"name": "userMinOrderNonce",
					"outputs": [
						{
							"internalType": "uint256",
							"name": "",
							"type": "uint256"
						}
					],
					"stateMutability": "view",
					"type": "function"
				}
			],
			"devdoc": {
				"kind": "dev",
				"methods": {
					"owner()": {
						"details": "Returns the address of the current owner."
					},
					"renounceOwnership()": {
						"details": "Leaves the contract without owner. It will not be possible to call `onlyOwner` functions anymore. Can only be called by the current owner. NOTE: Renouncing ownership will leave the contract without an owner, thereby removing any functionality that is only available to the owner."
					},
					"transferOwnership(address)": {
						"details": "Transfers ownership of the contract to a new account (`newOwner`). Can only be called by the current owner."
					}
				},
				"version": 1
			},
			"evm": {
				"assembly": "    /* \"contracts/Manager/UnemetaMarket.sol\":995:23307  contract UnemetaMarket is TheUnemetaExchange, ReentrancyGuard, Ownable {... */\n  mstore(0x40, 0xa0)\n    /* \"contracts/Manager/UnemetaMarket.sol\":3921:4493  constructor(... */\n  callvalue\n  dup1\n  iszero\n  tag_1\n  jumpi\n  0x00\n  dup1\n  revert\ntag_1:\n  pop\n  mload(0x40)\n  sub(codesize, bytecodeSize)\n  dup1\n  bytecodeSize\n  dup4\n  codecopy\n  dup2\n  add\n  0x40\n  dup2\n  swap1\n  mstore\n  tag_2\n  swap2\n  tag_3\n  jump\t// in\ntag_2:\n    /* \"@openzeppelin/contracts/security/ReentrancyGuard.sol\":1701:1702  1 */\n  0x01\n    /* \"@openzeppelin/contracts/security/ReentrancyGuard.sol\":1806:1813  _status */\n  0x00\n    /* \"@openzeppelin/contracts/security/ReentrancyGuard.sol\":1806:1828  _status = _NOT_ENTERED */\n  sstore\n    /* \"@openzeppelin/contracts/access/Ownable.sol\":936:968  _transferOwnership(_msgSender()) */\n  tag_9\n    /* \"@openzeppelin/contracts/utils/Context.sol\":719:729  msg.sender */\n  caller\n    /* \"@openzeppelin/contracts/access/Ownable.sol\":936:954  _transferOwnership */\n  tag_12\n    /* \"@openzeppelin/contracts/access/Ownable.sol\":936:968  _transferOwnership(_msgSender()) */\n  jump\t// in\ntag_9:\n    /* \"contracts/Manager/UnemetaMarket.sol\":4229:4244  currencyManager */\n  0x03\n    /* \"contracts/Manager/UnemetaMarket.sol\":4229:4283  currencyManager = TheCurrencyManager(_currencyManager) */\n  dup1\n  sload\n  sub(shl(0xa0, 0x01), 0x01)\n  swap7\n  dup8\n  and\n  not(sub(shl(0xa0, 0x01), 0x01))\n  swap2\n  dup3\n  and\n  or\n  swap1\n  swap2\n  sstore\n    /* \"contracts/Manager/UnemetaMarket.sol\":4293:4309  executionManager */\n  0x04\n    /* \"contracts/Manager/UnemetaMarket.sol\":4293:4343  executionManager = TheExManager(_executionManager) */\n  dup1\n  sload\n  swap6\n  dup8\n  and\n  swap6\n  dup3\n  and\n  swap6\n  swap1\n  swap6\n  or\n  swap1\n  swap5\n  sstore\n    /* \"contracts/Manager/UnemetaMarket.sol\":4353:4370  royaltyFeeManager */\n  0x05\n    /* \"contracts/Manager/UnemetaMarket.sol\":4353:4410  royaltyFeeManager = TheRoyaltyManager(_royaltyFeeManager) */\n  dup1\n  sload\n  swap4\n  dup7\n  and\n  swap4\n  dup6\n  and\n  swap4\n  swap1\n  swap4\n  or\n  swap1\n  swap3\n  sstore\n    /* \"contracts/Manager/UnemetaMarket.sol\":4420:4432  WETH = _WETH */\n  dup4\n  and\n  0x80\n  mstore\n    /* \"contracts/Manager/UnemetaMarket.sol\":4442:4462  protocolFeeRecipient */\n  0x02\n    /* \"contracts/Manager/UnemetaMarket.sol\":4442:4486  protocolFeeRecipient = _protocolFeeRecipient */\n  dup1\n  sload\n  swap2\n  swap1\n  swap4\n  and\n  swap2\n  and\n  or\n  swap1\n  sstore\n    /* \"contracts/Manager/UnemetaMarket.sol\":995:23307  contract UnemetaMarket is TheUnemetaExchange, ReentrancyGuard, Ownable {... */\n  jump(tag_18)\n    /* \"@openzeppelin/contracts/access/Ownable.sol\":2433:2620  function _transferOwnership(address newOwner) internal virtual {... */\ntag_12:\n    /* \"@openzeppelin/contracts/access/Ownable.sol\":2525:2531  _owner */\n  0x01\n  dup1\n  sload\n  sub(shl(0xa0, 0x01), 0x01)\n    /* \"@openzeppelin/contracts/access/Ownable.sol\":2541:2558  _owner = newOwner */\n  dup4\n  dup2\n  and\n  not(sub(shl(0xa0, 0x01), 0x01))\n  dup4\n  and\n  dup2\n  or\n  swap1\n  swap4\n  sstore\n    /* \"@openzeppelin/contracts/access/Ownable.sol\":2573:2613  OwnershipTransferred(oldOwner, newOwner) */\n  mload(0x40)\n    /* \"@openzeppelin/contracts/access/Ownable.sol\":2525:2531  _owner */\n  swap2\n  and\n  swap2\n    /* \"@openzeppelin/contracts/access/Ownable.sol\":2541:2558  _owner = newOwner */\n  swap1\n    /* \"@openzeppelin/contracts/access/Ownable.sol\":2525:2531  _owner */\n  dup3\n  swap1\n    /* \"@openzeppelin/contracts/access/Ownable.sol\":2573:2613  OwnershipTransferred(oldOwner, newOwner) */\n  0x8be0079c531659141344cd1fd0a4f28419497f9722a3daafe3b4186f6b6457e0\n  swap1\n    /* \"@openzeppelin/contracts/access/Ownable.sol\":2506:2522  address oldOwner */\n  0x00\n  swap1\n    /* \"@openzeppelin/contracts/access/Ownable.sol\":2573:2613  OwnershipTransferred(oldOwner, newOwner) */\n  log3\n    /* \"@openzeppelin/contracts/access/Ownable.sol\":2496:2620  {... */\n  pop\n    /* \"@openzeppelin/contracts/access/Ownable.sol\":2433:2620  function _transferOwnership(address newOwner) internal virtual {... */\n  pop\n  jump\t// out\n    /* \"#utility.yul\":14:191   */\ntag_17:\n    /* \"#utility.yul\":93:106   */\n  dup1\n  mload\n  sub(shl(0xa0, 0x01), 0x01)\n    /* \"#utility.yul\":135:166   */\n  dup2\n  and\n    /* \"#utility.yul\":125:167   */\n  dup2\n  eq\n    /* \"#utility.yul\":115:185   */\n  tag_20\n  jumpi\n    /* \"#utility.yul\":181:182   */\n  0x00\n    /* \"#utility.yul\":178:179   */\n  dup1\n    /* \"#utility.yul\":171:183   */\n  revert\n    /* \"#utility.yul\":115:185   */\ntag_20:\n    /* \"#utility.yul\":14:191   */\n  swap2\n  swap1\n  pop\n  jump\t// out\n    /* \"#utility.yul\":196:746   */\ntag_3:\n    /* \"#utility.yul\":302:308   */\n  0x00\n    /* \"#utility.yul\":310:316   */\n  dup1\n    /* \"#utility.yul\":318:324   */\n  0x00\n    /* \"#utility.yul\":326:332   */\n  dup1\n    /* \"#utility.yul\":334:340   */\n  0x00\n    /* \"#utility.yul\":387:390   */\n  0xa0\n    /* \"#utility.yul\":375:384   */\n  dup7\n    /* \"#utility.yul\":366:373   */\n  dup9\n    /* \"#utility.yul\":362:385   */\n  sub\n    /* \"#utility.yul\":358:391   */\n  slt\n    /* \"#utility.yul\":355:408   */\n  iszero\n  tag_22\n  jumpi\n    /* \"#utility.yul\":404:405   */\n  0x00\n    /* \"#utility.yul\":401:402   */\n  dup1\n    /* \"#utility.yul\":394:406   */\n  revert\n    /* \"#utility.yul\":355:408   */\ntag_22:\n    /* \"#utility.yul\":427:467   */\n  tag_23\n    /* \"#utility.yul\":457:466   */\n  dup7\n    /* \"#utility.yul\":427:467   */\n  tag_17\n  jump\t// in\ntag_23:\n    /* \"#utility.yul\":417:467   */\n  swap5\n  pop\n    /* \"#utility.yul\":486:535   */\n  tag_24\n    /* \"#utility.yul\":531:533   */\n  0x20\n    /* \"#utility.yul\":520:529   */\n  dup8\n    /* \"#utility.yul\":516:534   */\n  add\n    /* \"#utility.yul\":486:535   */\n  tag_17\n  jump\t// in\ntag_24:\n    /* \"#utility.yul\":476:535   */\n  swap4\n  pop\n    /* \"#utility.yul\":554:603   */\n  tag_25\n    /* \"#utility.yul\":599:601   */\n  0x40\n    /* \"#utility.yul\":588:597   */\n  dup8\n    /* \"#utility.yul\":584:602   */\n  add\n    /* \"#utility.yul\":554:603   */\n  tag_17\n  jump\t// in\ntag_25:\n    /* \"#utility.yul\":544:603   */\n  swap3\n  pop\n    /* \"#utility.yul\":622:671   */\n  tag_26\n    /* \"#utility.yul\":667:669   */\n  0x60\n    /* \"#utility.yul\":656:665   */\n  dup8\n    /* \"#utility.yul\":652:670   */\n  add\n    /* \"#utility.yul\":622:671   */\n  tag_17\n  jump\t// in\ntag_26:\n    /* \"#utility.yul\":612:671   */\n  swap2\n  pop\n    /* \"#utility.yul\":690:740   */\n  tag_27\n    /* \"#utility.yul\":735:738   */\n  0x80\n    /* \"#utility.yul\":724:733   */\n  dup8\n    /* \"#utility.yul\":720:739   */\n  add\n    /* \"#utility.yul\":690:740   */\n  tag_17\n  jump\t// in\ntag_27:\n    /* \"#utility.yul\":680:740   */\n  swap1\n  pop\n    /* \"#utility.yul\":196:746   */\n  swap3\n  swap6\n  pop\n  swap3\n  swap6\n  swap1\n  swap4\n  pop\n  jump\t// out\ntag_18:\n    /* \"contracts/Manager/UnemetaMarket.sol\":995:23307  contract UnemetaMarket is TheUnemetaExchange, ReentrancyGuard, Ownable {... */\n  mload(0x80)\n  codecopy(0x00, dataOffset(sub_0), dataSize(sub_0))\n  0x00\n  assignImmutable(\"0x27f7320d12022267a30ae0570361d18e54ded7bfc682ac5b98d912c6ab83c578\")\n  return(0x00, dataSize(sub_0))\nstop\n\nsub_0: assembly {\n        /* \"contracts/Manager/UnemetaMarket.sol\":995:23307  contract UnemetaMarket is TheUnemetaExchange, ReentrancyGuard, Ownable {... */\n      mstore(0x40, 0x80)\n      jumpi(tag_1, lt(calldatasize, 0x04))\n      shr(0xe0, calldataload(0x00))\n      dup1\n      0x64df049e\n      gt\n      tag_23\n      jumpi\n      dup1\n      0xad5c4648\n      gt\n      tag_24\n      jumpi\n      dup1\n      0xd4ff41dc\n      gt\n      tag_25\n      jumpi\n      dup1\n      0xd4ff41dc\n      eq\n      tag_20\n      jumpi\n      dup1\n      0xf2fde38b\n      eq\n      tag_21\n      jumpi\n      dup1\n      0xf75ff53f\n      eq\n      tag_22\n      jumpi\n      0x00\n      dup1\n      revert\n    tag_25:\n      dup1\n      0xad5c4648\n      eq\n      tag_17\n      jumpi\n      dup1\n      0xc5498769\n      eq\n      tag_18\n      jumpi\n      dup1\n      0xcbd2ec65\n      eq\n      tag_19\n      jumpi\n      0x00\n      dup1\n      revert\n    tag_24:\n      dup1\n      0x87e4401f\n      gt\n      tag_26\n      jumpi\n      dup1\n      0x87e4401f\n      eq\n      tag_14\n      jumpi\n      dup1\n      0x8da5cb5b\n      eq\n      tag_15\n      jumpi\n      dup1\n      0x9e53a69a\n      eq\n      tag_16\n      jumpi\n      0x00\n      dup1\n      revert\n    tag_26:\n      dup1\n      0x64df049e\n      eq\n      tag_12\n      jumpi\n      dup1\n      0x715018a6\n      eq\n      tag_13\n      jumpi\n      0x00\n      dup1\n      revert\n    tag_23:\n      dup1\n      0x483abb9f\n      gt\n      tag_27\n      jumpi\n      dup1\n      0x5ce052d7\n      gt\n      tag_28\n      jumpi\n      dup1\n      0x5ce052d7\n      eq\n      tag_9\n      jumpi\n      dup1\n      0x5e14f68e\n      eq\n      tag_10\n      jumpi\n      dup1\n      0x63521def\n      eq\n      tag_11\n      jumpi\n      0x00\n      dup1\n      revert\n    tag_28:\n      dup1\n      0x483abb9f\n      eq\n      tag_7\n      jumpi\n      dup1\n      0x509a1a41\n      eq\n      tag_8\n      jumpi\n      0x00\n      dup1\n      revert\n    tag_27:\n      dup1\n      0x31e27e27\n      gt\n      tag_29\n      jumpi\n      dup1\n      0x31e27e27\n      eq\n      tag_4\n      jumpi\n      dup1\n      0x4266581e\n      eq\n      tag_5\n      jumpi\n      dup1\n      0x45ea7231\n      eq\n      tag_6\n      jumpi\n      0x00\n      dup1\n      revert\n    tag_29:\n      dup1\n      0x0f747d74\n      eq\n      tag_2\n      jumpi\n      dup1\n      0x1df47f80\n      eq\n      tag_3\n      jumpi\n    tag_1:\n      0x00\n      dup1\n      revert\n        /* \"contracts/Manager/UnemetaMarket.sol\":2105:2146  TheCurrencyManager public currencyManager */\n    tag_2:\n      callvalue\n      dup1\n      iszero\n      tag_30\n      jumpi\n      0x00\n      dup1\n      revert\n    tag_30:\n      pop\n      sload(0x03)\n      tag_31\n      swap1\n      0xffffffffffffffffffffffffffffffffffffffff\n      and\n      dup2\n      jump\n    tag_31:\n      mload(0x40)\n        /* \"#utility.yul\":217:259   */\n      0xffffffffffffffffffffffffffffffffffffffff\n        /* \"#utility.yul\":205:260   */\n      swap1\n      swap2\n      and\n        /* \"#utility.yul\":187:261   */\n      dup2\n      mstore\n        /* \"#utility.yul\":175:177   */\n      0x20\n        /* \"#utility.yul\":160:178   */\n      add\n        /* \"contracts/Manager/UnemetaMarket.sol\":2105:2146  TheCurrencyManager public currencyManager */\n    tag_33:\n      mload(0x40)\n      dup1\n      swap2\n      sub\n      swap1\n      return\n        /* \"contracts/Manager/UnemetaMarket.sol\":22177:22385  function updateProtocolFeeRecipient(address _protocolFeeRecipient) external onlyOwner {... */\n    tag_3:\n      callvalue\n      dup1\n      iszero\n      tag_35\n      jumpi\n      0x00\n      dup1\n      revert\n    tag_35:\n      pop\n      tag_36\n      tag_37\n      calldatasize\n      0x04\n      tag_38\n      jump\t// in\n    tag_37:\n      tag_39\n      jump\t// in\n    tag_36:\n      stop\n        /* \"contracts/Manager/UnemetaMarket.sol\":12455:12681  function isUserOrderNonceExecutedOrCancelled(address user, uint256 orderNonce) external view returns (bool) {... */\n    tag_4:\n      callvalue\n      dup1\n      iszero\n      tag_40\n      jumpi\n      0x00\n      dup1\n      revert\n    tag_40:\n      pop\n      tag_41\n      tag_42\n      calldatasize\n      0x04\n      tag_43\n      jump\t// in\n    tag_42:\n      tag_44\n      jump\t// in\n    tag_41:\n      mload(0x40)\n        /* \"#utility.yul\":1403:1417   */\n      swap1\n      iszero\n        /* \"#utility.yul\":1396:1418   */\n      iszero\n        /* \"#utility.yul\":1378:1419   */\n      dup2\n      mstore\n        /* \"#utility.yul\":1366:1368   */\n      0x20\n        /* \"#utility.yul\":1351:1369   */\n      add\n        /* \"contracts/Manager/UnemetaMarket.sol\":12455:12681  function isUserOrderNonceExecutedOrCancelled(address user, uint256 orderNonce) external view returns (bool) {... */\n      tag_33\n        /* \"#utility.yul\":1238:1425   */\n      jump\n        /* \"contracts/Manager/UnemetaMarket.sol\":2328:2380  mapping(address => uint256) public userMinOrderNonce */\n    tag_5:\n      callvalue\n      dup1\n      iszero\n      tag_47\n      jumpi\n      0x00\n      dup1\n      revert\n    tag_47:\n      pop\n      tag_48\n      tag_49\n      calldatasize\n      0x04\n      tag_38\n      jump\t// in\n    tag_49:\n      mstore(0x20, 0x07)\n      0x00\n      swap1\n      dup2\n      mstore\n      0x40\n      swap1\n      keccak256\n      sload\n      dup2\n      jump\n    tag_48:\n      mload(0x40)\n        /* \"#utility.yul\":1576:1601   */\n      swap1\n      dup2\n      mstore\n        /* \"#utility.yul\":1564:1566   */\n      0x20\n        /* \"#utility.yul\":1549:1567   */\n      add\n        /* \"contracts/Manager/UnemetaMarket.sol\":2328:2380  mapping(address => uint256) public userMinOrderNonce */\n      tag_33\n        /* \"#utility.yul\":1430:1607   */\n      jump\n        /* \"contracts/Manager/UnemetaMarket.sol\":7032:8808  function matchSellerOrders(OrderTypes.TakerOrder calldata takerBid, OrderTypes.MakerOrder calldata makerAsk)... */\n    tag_6:\n      callvalue\n      dup1\n      iszero\n      tag_53\n      jumpi\n      0x00\n      dup1\n      revert\n    tag_53:\n      pop\n      tag_36\n      tag_55\n      calldatasize\n      0x04\n      tag_56\n      jump\t// in\n    tag_55:\n      tag_57\n      jump\t// in\n        /* \"contracts/Manager/UnemetaMarket.sol\":2152:2188  TheExManager public executionManager */\n    tag_7:\n      callvalue\n      dup1\n      iszero\n      tag_58\n      jumpi\n      0x00\n      dup1\n      revert\n    tag_58:\n      pop\n      sload(0x04)\n      tag_31\n      swap1\n      0xffffffffffffffffffffffffffffffffffffffff\n      and\n      dup2\n      jump\n        /* \"contracts/Manager/UnemetaMarket.sol\":4711:6837  function matchSellerOrdersWETH(... */\n    tag_8:\n      tag_36\n      tag_64\n      calldatasize\n      0x04\n      tag_56\n      jump\t// in\n    tag_64:\n      tag_65\n      jump\t// in\n        /* \"contracts/Manager/UnemetaMarket.sol\":21280:21562  function updateCurrencyManager(address _currencyManager) external onlyOwner {... */\n    tag_9:\n      callvalue\n      dup1\n      iszero\n      tag_66\n      jumpi\n      0x00\n      dup1\n      revert\n    tag_66:\n      pop\n      tag_36\n      tag_68\n      calldatasize\n      0x04\n      tag_38\n      jump\t// in\n    tag_68:\n      tag_69\n      jump\t// in\n        /* \"contracts/Manager/UnemetaMarket.sol\":2242:2288  TheTransferSelector public transferSelectorNFT */\n    tag_10:\n      callvalue\n      dup1\n      iszero\n      tag_70\n      jumpi\n      0x00\n      dup1\n      revert\n    tag_70:\n      pop\n      sload(0x06)\n      tag_31\n      swap1\n      0xffffffffffffffffffffffffffffffffffffffff\n      and\n      dup2\n      jump\n        /* \"contracts/Manager/UnemetaMarket.sol\":9001:10892  function matchesBuyerOrder(OrderTypes.TakerOrder calldata takerAsk, OrderTypes.MakerOrder calldata makerBid)... */\n    tag_11:\n      callvalue\n      dup1\n      iszero\n      tag_75\n      jumpi\n      0x00\n      dup1\n      revert\n    tag_75:\n      pop\n      tag_36\n      tag_77\n      calldatasize\n      0x04\n      tag_56\n      jump\t// in\n    tag_77:\n      tag_78\n      jump\t// in\n        /* \"contracts/Manager/UnemetaMarket.sol\":2062:2097  address public protocolFeeRecipient */\n    tag_12:\n      callvalue\n      dup1\n      iszero\n      tag_79\n      jumpi\n      0x00\n      dup1\n      revert\n    tag_79:\n      pop\n      sload(0x02)\n      tag_31\n      swap1\n      0xffffffffffffffffffffffffffffffffffffffff\n      and\n      dup2\n      jump\n        /* \"@openzeppelin/contracts/access/Ownable.sol\":1831:1932  function renounceOwnership() public virtual onlyOwner {... */\n    tag_13:\n      callvalue\n      dup1\n      iszero\n      tag_84\n      jumpi\n      0x00\n      dup1\n      revert\n    tag_84:\n      pop\n      tag_36\n      tag_86\n      jump\t// in\n        /* \"contracts/Manager/UnemetaMarket.sol\":2194:2236  TheRoyaltyManager public royaltyFeeManager */\n    tag_14:\n      callvalue\n      dup1\n      iszero\n      tag_87\n      jumpi\n      0x00\n      dup1\n      revert\n    tag_87:\n      pop\n      sload(0x05)\n      tag_31\n      swap1\n      0xffffffffffffffffffffffffffffffffffffffff\n      and\n      dup2\n      jump\n        /* \"@openzeppelin/contracts/access/Ownable.sol\":1201:1286  function owner() public view virtual returns (address) {... */\n    tag_15:\n      callvalue\n      dup1\n      iszero\n      tag_92\n      jumpi\n      0x00\n      dup1\n      revert\n    tag_92:\n      pop\n        /* \"@openzeppelin/contracts/access/Ownable.sol\":1273:1279  _owner */\n      and(0xffffffffffffffffffffffffffffffffffffffff, sload(0x01))\n        /* \"@openzeppelin/contracts/access/Ownable.sol\":1201:1286  function owner() public view virtual returns (address) {... */\n      jump(tag_31)\n        /* \"contracts/Manager/UnemetaMarket.sol\":11688:12161  function cancelMultipleMakerOrders(uint256[] calldata NonceList) external {... */\n    tag_16:\n      callvalue\n      dup1\n      iszero\n      tag_96\n      jumpi\n      0x00\n      dup1\n      revert\n    tag_96:\n      pop\n      tag_36\n      tag_98\n      calldatasize\n      0x04\n      tag_99\n      jump\t// in\n    tag_98:\n      tag_100\n      jump\t// in\n        /* \"contracts/Manager/UnemetaMarket.sol\":1993:2022  address public immutable WETH */\n    tag_17:\n      callvalue\n      dup1\n      iszero\n      tag_101\n      jumpi\n      0x00\n      dup1\n      revert\n    tag_101:\n      pop\n      tag_31\n      immutable(\"0x27f7320d12022267a30ae0570361d18e54ded7bfc682ac5b98d912c6ab83c578\")\n      dup2\n      jump\n        /* \"contracts/Manager/UnemetaMarket.sol\":22542:22837  function updateRoyaltyFeeManager(address _royaltyFeeManager) external onlyOwner {... */\n    tag_18:\n      callvalue\n      dup1\n      iszero\n      tag_105\n      jumpi\n      0x00\n      dup1\n      revert\n    tag_105:\n      pop\n      tag_36\n      tag_107\n      calldatasize\n      0x04\n      tag_38\n      jump\t// in\n    tag_107:\n      tag_108\n      jump\t// in\n        /* \"contracts/Manager/UnemetaMarket.sol\":11044:11519  function cancelAllOrdersForSender(uint256 minNonce) external {... */\n    tag_19:\n      callvalue\n      dup1\n      iszero\n      tag_109\n      jumpi\n      0x00\n      dup1\n      revert\n    tag_109:\n      pop\n      tag_36\n      tag_111\n      calldatasize\n      0x04\n      tag_112\n      jump\t// in\n    tag_111:\n      tag_113\n      jump\t// in\n        /* \"contracts/Manager/UnemetaMarket.sol\":21719:22002  function updateExecutionManager(address _executionManager) external onlyOwner {... */\n    tag_20:\n      callvalue\n      dup1\n      iszero\n      tag_114\n      jumpi\n      0x00\n      dup1\n      revert\n    tag_114:\n      pop\n      tag_36\n      tag_116\n      calldatasize\n      0x04\n      tag_38\n      jump\t// in\n    tag_116:\n      tag_117\n      jump\t// in\n        /* \"@openzeppelin/contracts/access/Ownable.sol\":2081:2279  function transferOwnership(address newOwner) public virtual onlyOwner {... */\n    tag_21:\n      callvalue\n      dup1\n      iszero\n      tag_118\n      jumpi\n      0x00\n      dup1\n      revert\n    tag_118:\n      pop\n      tag_36\n      tag_120\n      calldatasize\n      0x04\n      tag_38\n      jump\t// in\n    tag_120:\n      tag_121\n      jump\t// in\n        /* \"contracts/Manager/UnemetaMarket.sol\":22993:23304  function updateTransferSelectorNFT(address _transferSelectorNFT) external onlyOwner {... */\n    tag_22:\n      callvalue\n      dup1\n      iszero\n      tag_122\n      jumpi\n      0x00\n      dup1\n      revert\n    tag_122:\n      pop\n      tag_36\n      tag_124\n      calldatasize\n      0x04\n      tag_38\n      jump\t// in\n    tag_124:\n      tag_125\n      jump\t// in\n        /* \"contracts/Manager/UnemetaMarket.sol\":22177:22385  function updateProtocolFeeRecipient(address _protocolFeeRecipient) external onlyOwner {... */\n    tag_39:\n        /* \"@openzeppelin/contracts/access/Ownable.sol\":1094:1107  _checkOwner() */\n      tag_127\n        /* \"@openzeppelin/contracts/access/Ownable.sol\":1094:1105  _checkOwner */\n      tag_128\n        /* \"@openzeppelin/contracts/access/Ownable.sol\":1094:1107  _checkOwner() */\n      jump\t// in\n    tag_127:\n        /* \"contracts/Manager/UnemetaMarket.sol\":22273:22293  protocolFeeRecipient */\n      0x02\n        /* \"contracts/Manager/UnemetaMarket.sol\":22273:22317  protocolFeeRecipient = _protocolFeeRecipient */\n      dup1\n      sload\n      0xffffffffffffffffffffffff0000000000000000000000000000000000000000\n      and\n      0xffffffffffffffffffffffffffffffffffffffff\n      dup4\n      and\n      swap1\n      dup2\n      or\n      swap1\n      swap2\n      sstore\n        /* \"contracts/Manager/UnemetaMarket.sol\":22332:22378  NewProtocolFeeRecipient(_protocolFeeRecipient) */\n      mload(0x40)\n      0x8cffb07faa2874440346743bdc0a86b06c3335cc47dc49b327d10e77b73ceb10\n      swap1\n      0x00\n      swap1\n      log2\n        /* \"contracts/Manager/UnemetaMarket.sol\":22177:22385  function updateProtocolFeeRecipient(address _protocolFeeRecipient) external onlyOwner {... */\n      pop\n      jump\t// out\n        /* \"contracts/Manager/UnemetaMarket.sol\":12455:12681  function isUserOrderNonceExecutedOrCancelled(address user, uint256 orderNonce) external view returns (bool) {... */\n    tag_44:\n        /* \"contracts/Manager/UnemetaMarket.sol\":12624:12662  _theUserOrderExecutedOrCancelled[user] */\n      0xffffffffffffffffffffffffffffffffffffffff\n      dup3\n      and\n        /* \"contracts/Manager/UnemetaMarket.sol\":12557:12561  bool */\n      0x00\n        /* \"contracts/Manager/UnemetaMarket.sol\":12624:12662  _theUserOrderExecutedOrCancelled[user] */\n      swap1\n      dup2\n      mstore\n        /* \"contracts/Manager/UnemetaMarket.sol\":12624:12656  _theUserOrderExecutedOrCancelled */\n      0x08\n        /* \"contracts/Manager/UnemetaMarket.sol\":12624:12662  _theUserOrderExecutedOrCancelled[user] */\n      0x20\n      swap1\n      dup2\n      mstore\n      0x40\n      dup1\n      dup4\n      keccak256\n        /* \"contracts/Manager/UnemetaMarket.sol\":12624:12674  _theUserOrderExecutedOrCancelled[user][orderNonce] */\n      dup5\n      dup5\n      mstore\n      swap1\n      swap2\n      mstore\n      swap1\n      keccak256\n      sload\n      0xff\n      and\n        /* \"contracts/Manager/UnemetaMarket.sol\":12455:12681  function isUserOrderNonceExecutedOrCancelled(address user, uint256 orderNonce) external view returns (bool) {... */\n    tag_130:\n      swap3\n      swap2\n      pop\n      pop\n      jump\t// out\n        /* \"contracts/Manager/UnemetaMarket.sol\":7032:8808  function matchSellerOrders(OrderTypes.TakerOrder calldata takerBid, OrderTypes.MakerOrder calldata makerAsk)... */\n    tag_57:\n        /* \"@openzeppelin/contracts/security/ReentrancyGuard.sol\":1744:1745  2 */\n      0x02\n        /* \"@openzeppelin/contracts/security/ReentrancyGuard.sol\":2325:2332  _status */\n      sload(0x00)\n        /* \"@openzeppelin/contracts/security/ReentrancyGuard.sol\":2325:2344  _status != _ENTERED */\n      sub\n        /* \"@openzeppelin/contracts/security/ReentrancyGuard.sol\":2317:2380  require(_status != _ENTERED, \"ReentrancyGuard: reentrant call\") */\n      tag_132\n      jumpi\n      mload(0x40)\n      0x08c379a000000000000000000000000000000000000000000000000000000000\n      dup2\n      mstore\n        /* \"#utility.yul\":4434:4436   */\n      0x20\n        /* \"@openzeppelin/contracts/security/ReentrancyGuard.sol\":2317:2380  require(_status != _ENTERED, \"ReentrancyGuard: reentrant call\") */\n      0x04\n      dup3\n      add\n        /* \"#utility.yul\":4416:4437   */\n      mstore\n        /* \"#utility.yul\":4473:4475   */\n      0x1f\n        /* \"#utility.yul\":4453:4471   */\n      0x24\n      dup3\n      add\n        /* \"#utility.yul\":4446:4476   */\n      mstore\n        /* \"#utility.yul\":4512:4545   */\n      0x5265656e7472616e637947756172643a207265656e7472616e742063616c6c00\n        /* \"#utility.yul\":4492:4510   */\n      0x44\n      dup3\n      add\n        /* \"#utility.yul\":4485:4546   */\n      mstore\n        /* \"#utility.yul\":4563:4581   */\n      0x64\n      add\n        /* \"@openzeppelin/contracts/security/ReentrancyGuard.sol\":2317:2380  require(_status != _ENTERED, \"ReentrancyGuard: reentrant call\") */\n    tag_133:\n      mload(0x40)\n      dup1\n      swap2\n      sub\n      swap1\n      revert\n    tag_132:\n        /* \"@openzeppelin/contracts/security/ReentrancyGuard.sol\":1744:1745  2 */\n      0x02\n        /* \"@openzeppelin/contracts/security/ReentrancyGuard.sol\":2455:2462  _status */\n      0x00\n        /* \"@openzeppelin/contracts/security/ReentrancyGuard.sol\":2455:2473  _status = _ENTERED */\n      sstore\n        /* \"contracts/Manager/UnemetaMarket.sol\":7266:7285  makerAsk.isOrderAsk */\n      tag_136\n      0x20\n      dup3\n      add\n        /* \"contracts/Manager/UnemetaMarket.sol\":7266:7274  makerAsk */\n      dup3\n        /* \"contracts/Manager/UnemetaMarket.sol\":7266:7285  makerAsk.isOrderAsk */\n      tag_137\n      jump\t// in\n    tag_136:\n        /* \"contracts/Manager/UnemetaMarket.sol\":7265:7312  (makerAsk.isOrderAsk) && (!takerBid.isOrderAsk) */\n      dup1\n      iszero\n      tag_138\n      jumpi\n      pop\n        /* \"contracts/Manager/UnemetaMarket.sol\":7292:7311  takerBid.isOrderAsk */\n      tag_139\n      0x20\n      dup4\n      add\n        /* \"contracts/Manager/UnemetaMarket.sol\":7292:7300  takerBid */\n      dup4\n        /* \"contracts/Manager/UnemetaMarket.sol\":7292:7311  takerBid.isOrderAsk */\n      tag_137\n      jump\t// in\n    tag_139:\n        /* \"contracts/Manager/UnemetaMarket.sol\":7291:7311  !takerBid.isOrderAsk */\n      iszero\n        /* \"contracts/Manager/UnemetaMarket.sol\":7265:7312  (makerAsk.isOrderAsk) && (!takerBid.isOrderAsk) */\n    tag_138:\n        /* \"contracts/Manager/UnemetaMarket.sol\":7257:7339  require((makerAsk.isOrderAsk) && (!takerBid.isOrderAsk), \"Error About Order Side\") */\n      tag_140\n      jumpi\n      mload(0x40)\n      0x08c379a000000000000000000000000000000000000000000000000000000000\n      dup2\n      mstore\n        /* \"#utility.yul\":5296:5298   */\n      0x20\n        /* \"contracts/Manager/UnemetaMarket.sol\":7257:7339  require((makerAsk.isOrderAsk) && (!takerBid.isOrderAsk), \"Error About Order Side\") */\n      0x04\n      dup3\n      add\n        /* \"#utility.yul\":5278:5299   */\n      mstore\n        /* \"#utility.yul\":5335:5337   */\n      0x16\n        /* \"#utility.yul\":5315:5333   */\n      0x24\n      dup3\n      add\n        /* \"#utility.yul\":5308:5338   */\n      mstore\n        /* \"#utility.yul\":5374:5398   */\n      0x4572726f722041626f7574204f72646572205369646500000000000000000000\n        /* \"#utility.yul\":5354:5372   */\n      0x44\n      dup3\n      add\n        /* \"#utility.yul\":5347:5399   */\n      mstore\n        /* \"#utility.yul\":5416:5434   */\n      0x64\n      add\n        /* \"contracts/Manager/UnemetaMarket.sol\":7257:7339  require((makerAsk.isOrderAsk) && (!takerBid.isOrderAsk), \"Error About Order Side\") */\n      tag_133\n        /* \"#utility.yul\":5094:5440   */\n      jump\n        /* \"contracts/Manager/UnemetaMarket.sol\":7257:7339  require((makerAsk.isOrderAsk) && (!takerBid.isOrderAsk), \"Error About Order Side\") */\n    tag_140:\n        /* \"contracts/Manager/UnemetaMarket.sol\":7412:7426  takerBid.taker */\n      tag_143\n      0x40\n      dup4\n      add\n      0x20\n      dup5\n      add\n      tag_38\n      jump\t// in\n    tag_143:\n        /* \"contracts/Manager/UnemetaMarket.sol\":7398:7426  msg.sender == takerBid.taker */\n      0xffffffffffffffffffffffffffffffffffffffff\n      and\n        /* \"contracts/Manager/UnemetaMarket.sol\":7398:7408  msg.sender */\n      caller\n        /* \"contracts/Manager/UnemetaMarket.sol\":7398:7426  msg.sender == takerBid.taker */\n      0xffffffffffffffffffffffffffffffffffffffff\n      and\n      eq\n        /* \"contracts/Manager/UnemetaMarket.sol\":7390:7455  require(msg.sender == takerBid.taker, \"Order must be the sender\") */\n      tag_144\n      jumpi\n      mload(0x40)\n      0x08c379a000000000000000000000000000000000000000000000000000000000\n      dup2\n      mstore\n        /* \"#utility.yul\":5647:5649   */\n      0x20\n        /* \"contracts/Manager/UnemetaMarket.sol\":7390:7455  require(msg.sender == takerBid.taker, \"Order must be the sender\") */\n      0x04\n      dup3\n      add\n        /* \"#utility.yul\":5629:5650   */\n      mstore\n        /* \"#utility.yul\":5686:5688   */\n      0x18\n        /* \"#utility.yul\":5666:5684   */\n      0x24\n      dup3\n      add\n        /* \"#utility.yul\":5659:5689   */\n      mstore\n        /* \"#utility.yul\":5725:5751   */\n      0x4f72646572206d757374206265207468652073656e6465720000000000000000\n        /* \"#utility.yul\":5705:5723   */\n      0x44\n      dup3\n      add\n        /* \"#utility.yul\":5698:5752   */\n      mstore\n        /* \"#utility.yul\":5769:5787   */\n      0x64\n      add\n        /* \"contracts/Manager/UnemetaMarket.sol\":7390:7455  require(msg.sender == takerBid.taker, \"Order must be the sender\") */\n      tag_133\n        /* \"#utility.yul\":5445:5793   */\n      jump\n        /* \"contracts/Manager/UnemetaMarket.sol\":7390:7455  require(msg.sender == takerBid.taker, \"Order must be the sender\") */\n    tag_144:\n        /* \"contracts/Manager/UnemetaMarket.sol\":7497:7512  bytes32 askHash */\n      0x00\n        /* \"contracts/Manager/UnemetaMarket.sol\":7515:7530  makerAsk.hash() */\n      tag_147\n        /* \"contracts/Manager/UnemetaMarket.sol\":7515:7528  makerAsk.hash */\n      tag_148\n        /* \"contracts/Manager/UnemetaMarket.sol\":7515:7523  makerAsk */\n      dup4\n        /* \"contracts/Manager/UnemetaMarket.sol\":7515:7528  makerAsk.hash */\n      tag_149\n      jump\t// in\n    tag_148:\n      tag_150\n        /* \"contracts/Manager/UnemetaMarket.sol\":7515:7530  makerAsk.hash() */\n      jump\t// in\n    tag_147:\n        /* \"contracts/Manager/UnemetaMarket.sol\":7497:7530  bytes32 askHash = makerAsk.hash() */\n      swap1\n      pop\n        /* \"contracts/Manager/UnemetaMarket.sol\":7540:7573  _validateOrder(makerAsk, askHash) */\n      tag_151\n        /* \"contracts/Manager/UnemetaMarket.sol\":7555:7563  makerAsk */\n      dup3\n        /* \"contracts/Manager/UnemetaMarket.sol\":7565:7572  askHash */\n      dup3\n        /* \"contracts/Manager/UnemetaMarket.sol\":7540:7554  _validateOrder */\n      tag_152\n        /* \"contracts/Manager/UnemetaMarket.sol\":7540:7573  _validateOrder(makerAsk, askHash) */\n      jump\t// in\n    tag_151:\n        /* \"contracts/Manager/UnemetaMarket.sol\":7596:7617  bool isExecutionValid */\n      0x00\n      dup1\n      dup1\n        /* \"contracts/Manager/UnemetaMarket.sol\":7668:7685  makerAsk.strategy */\n      tag_153\n      0xe0\n      dup7\n      add\n      0xc0\n      dup8\n      add\n      tag_38\n      jump\t// in\n    tag_153:\n        /* \"contracts/Manager/UnemetaMarket.sol\":7654:7710  TheExStrategy(makerAsk.strategy)... */\n      0xffffffffffffffffffffffffffffffffffffffff\n      and\n      0xd310677d\n        /* \"contracts/Manager/UnemetaMarket.sol\":7711:7719  takerBid */\n      dup8\n        /* \"contracts/Manager/UnemetaMarket.sol\":7721:7729  makerAsk */\n      dup8\n        /* \"contracts/Manager/UnemetaMarket.sol\":7654:7730  TheExStrategy(makerAsk.strategy)... */\n      mload(0x40)\n      dup4\n      0xffffffff\n      and\n      0xe0\n      shl\n      dup2\n      mstore\n      0x04\n      add\n      tag_154\n      swap3\n      swap2\n      swap1\n      tag_155\n      jump\t// in\n    tag_154:\n      0x60\n      mload(0x40)\n      dup1\n      dup4\n      sub\n      dup2\n      dup7\n      gas\n      staticcall\n      iszero\n      dup1\n      iszero\n      tag_157\n      jumpi\n      returndatasize\n      0x00\n      dup1\n      returndatacopy\n      revert(0x00, returndatasize)\n    tag_157:\n      pop\n      pop\n      pop\n      pop\n      mload(0x40)\n      returndatasize\n      not(0x1f)\n      0x1f\n      dup3\n      add\n      and\n      dup3\n      add\n      dup1\n      0x40\n      mstore\n      pop\n      dup2\n      add\n      swap1\n      tag_158\n      swap2\n      swap1\n      tag_159\n      jump\t// in\n    tag_158:\n        /* \"contracts/Manager/UnemetaMarket.sol\":7595:7730  (bool isExecutionValid, uint256 tokenId, uint256 amount) = TheExStrategy(makerAsk.strategy)... */\n      swap3\n      pop\n      swap3\n      pop\n      swap3\n      pop\n        /* \"contracts/Manager/UnemetaMarket.sol\":7784:7800  isExecutionValid */\n      dup3\n        /* \"contracts/Manager/UnemetaMarket.sol\":7776:7829  require(isExecutionValid, \"Strategy should be valid\") */\n      tag_160\n      jumpi\n      mload(0x40)\n      0x08c379a000000000000000000000000000000000000000000000000000000000\n      dup2\n      mstore\n        /* \"#utility.yul\":13146:13148   */\n      0x20\n        /* \"contracts/Manager/UnemetaMarket.sol\":7776:7829  require(isExecutionValid, \"Strategy should be valid\") */\n      0x04\n      dup3\n      add\n        /* \"#utility.yul\":13128:13149   */\n      mstore\n        /* \"#utility.yul\":13185:13187   */\n      0x18\n        /* \"#utility.yul\":13165:13183   */\n      0x24\n      dup3\n      add\n        /* \"#utility.yul\":13158:13188   */\n      mstore\n        /* \"#utility.yul\":13224:13250   */\n      0x53747261746567792073686f756c642062652076616c69640000000000000000\n        /* \"#utility.yul\":13204:13222   */\n      0x44\n      dup3\n      add\n        /* \"#utility.yul\":13197:13251   */\n      mstore\n        /* \"#utility.yul\":13268:13286   */\n      0x64\n      add\n        /* \"contracts/Manager/UnemetaMarket.sol\":7776:7829  require(isExecutionValid, \"Strategy should be valid\") */\n      tag_133\n        /* \"#utility.yul\":12944:13292   */\n      jump\n        /* \"contracts/Manager/UnemetaMarket.sol\":7776:7829  require(isExecutionValid, \"Strategy should be valid\") */\n    tag_160:\n        /* \"contracts/Manager/UnemetaMarket.sol\":7997:8001  true */\n      0x01\n        /* \"contracts/Manager/UnemetaMarket.sol\":7929:7961  _theUserOrderExecutedOrCancelled */\n      0x08\n        /* \"contracts/Manager/UnemetaMarket.sol\":7929:7978  _theUserOrderExecutedOrCancelled[makerAsk.signer] */\n      0x00\n        /* \"contracts/Manager/UnemetaMarket.sol\":7962:7977  makerAsk.signer */\n      tag_163\n      0x40\n      dup10\n      add\n      0x20\n      dup11\n      add\n      tag_38\n      jump\t// in\n    tag_163:\n        /* \"contracts/Manager/UnemetaMarket.sol\":7929:7978  _theUserOrderExecutedOrCancelled[makerAsk.signer] */\n      0xffffffffffffffffffffffffffffffffffffffff\n      and\n      dup2\n      mstore\n      0x20\n      dup1\n      dup3\n      add\n      swap3\n      swap1\n      swap3\n      mstore\n      0x40\n      swap1\n      dup2\n      add\n      0x00\n      swap1\n      dup2\n      keccak256\n        /* \"contracts/Manager/UnemetaMarket.sol\":7979:7993  makerAsk.nonce */\n      0x0100\n      dup11\n      add\n      calldataload\n        /* \"contracts/Manager/UnemetaMarket.sol\":7929:7994  _theUserOrderExecutedOrCancelled[makerAsk.signer][makerAsk.nonce] */\n      dup3\n      mstore\n      swap1\n      swap3\n      mstore\n      swap1\n      keccak256\n        /* \"contracts/Manager/UnemetaMarket.sol\":7929:8001  _theUserOrderExecutedOrCancelled[makerAsk.signer][makerAsk.nonce] = true */\n      dup1\n      sload\n      0xffffffffffffffffffffffffffffffffffffffffffffffffffffffffffffff00\n      and\n      swap2\n      iszero\n      iszero\n      swap2\n      swap1\n      swap2\n      or\n      swap1\n      sstore\n        /* \"contracts/Manager/UnemetaMarket.sol\":8037:8306  _transferFeesAndFunds(... */\n      tag_164\n        /* \"contracts/Manager/UnemetaMarket.sol\":8072:8089  makerAsk.strategy */\n      tag_165\n      0xe0\n      dup8\n      add\n      0xc0\n      dup9\n      add\n      tag_38\n      jump\t// in\n    tag_165:\n        /* \"contracts/Manager/UnemetaMarket.sol\":8103:8122  makerAsk.collection */\n      tag_166\n      0x60\n      dup9\n      add\n      0x40\n      dup10\n      add\n      tag_38\n      jump\t// in\n    tag_166:\n        /* \"contracts/Manager/UnemetaMarket.sol\":8136:8143  tokenId */\n      dup5\n        /* \"contracts/Manager/UnemetaMarket.sol\":8157:8174  makerAsk.currency */\n      tag_167\n      0x0100\n      dup11\n      add\n      0xe0\n      dup12\n      add\n      tag_38\n      jump\t// in\n    tag_167:\n        /* \"contracts/Manager/UnemetaMarket.sol\":8188:8198  msg.sender */\n      caller\n        /* \"contracts/Manager/UnemetaMarket.sol\":8212:8227  makerAsk.signer */\n      tag_168\n      0x40\n      dup13\n      add\n      0x20\n      dup14\n      add\n      tag_38\n      jump\t// in\n    tag_168:\n        /* \"contracts/Manager/UnemetaMarket.sol\":8241:8249  takerBid */\n      dup13\n        /* \"contracts/Manager/UnemetaMarket.sol\":8241:8255  takerBid.price */\n      0x40\n      add\n      calldataload\n        /* \"contracts/Manager/UnemetaMarket.sol\":8269:8277  makerAsk */\n      dup13\n        /* \"contracts/Manager/UnemetaMarket.sol\":8269:8296  makerAsk.minPercentageToAsk */\n      0x0160\n      add\n      calldataload\n        /* \"contracts/Manager/UnemetaMarket.sol\":8037:8058  _transferFeesAndFunds */\n      tag_169\n        /* \"contracts/Manager/UnemetaMarket.sol\":8037:8306  _transferFeesAndFunds(... */\n      jump\t// in\n    tag_164:\n        /* \"contracts/Manager/UnemetaMarket.sol\":8340:8497  _transferNonFungibleToken(... */\n      tag_170\n        /* \"contracts/Manager/UnemetaMarket.sol\":8379:8398  makerAsk.collection */\n      tag_171\n      0x60\n      dup8\n      add\n      0x40\n      dup9\n      add\n      tag_38\n      jump\t// in\n    tag_171:\n        /* \"contracts/Manager/UnemetaMarket.sol\":8412:8427  makerAsk.signer */\n      tag_172\n      0x40\n      dup9\n      add\n      0x20\n      dup10\n      add\n      tag_38\n      jump\t// in\n    tag_172:\n        /* \"contracts/Manager/UnemetaMarket.sol\":8441:8455  takerBid.taker */\n      tag_173\n      0x40\n      dup11\n      add\n      0x20\n      dup12\n      add\n      tag_38\n      jump\t// in\n    tag_173:\n        /* \"contracts/Manager/UnemetaMarket.sol\":8469:8476  tokenId */\n      dup6\n        /* \"contracts/Manager/UnemetaMarket.sol\":8490:8496  amount */\n      dup6\n        /* \"contracts/Manager/UnemetaMarket.sol\":8340:8365  _transferNonFungibleToken */\n      tag_174\n        /* \"contracts/Manager/UnemetaMarket.sol\":8340:8497  _transferNonFungibleToken(... */\n      jump\t// in\n    tag_170:\n        /* \"contracts/Manager/UnemetaMarket.sol\":8641:8658  makerAsk.strategy */\n      tag_175\n      0xe0\n      dup7\n      add\n      0xc0\n      dup8\n      add\n      tag_38\n      jump\t// in\n    tag_175:\n        /* \"contracts/Manager/UnemetaMarket.sol\":8513:8801  TakerBid(... */\n      0xffffffffffffffffffffffffffffffffffffffff\n      and\n        /* \"contracts/Manager/UnemetaMarket.sol\":8612:8627  makerAsk.signer */\n      tag_176\n      0x40\n      dup8\n      add\n      0x20\n      dup9\n      add\n      tag_38\n      jump\t// in\n    tag_176:\n        /* \"contracts/Manager/UnemetaMarket.sol\":8513:8801  TakerBid(... */\n      0xffffffffffffffffffffffffffffffffffffffff\n      and\n        /* \"contracts/Manager/UnemetaMarket.sol\":8584:8598  takerBid.taker */\n      tag_177\n      0x40\n      dup10\n      add\n      0x20\n      dup11\n      add\n      tag_38\n      jump\t// in\n    tag_177:\n        /* \"contracts/Manager/UnemetaMarket.sol\":8513:8801  TakerBid(... */\n      0xffffffffffffffffffffffffffffffffffffffff\n      and\n      0x95fb6205e23ff6bda16a2d1dba56b9ad7c783f67c96fa149785052f47696f2be\n        /* \"contracts/Manager/UnemetaMarket.sol\":8535:8542  askHash */\n      dup8\n        /* \"contracts/Manager/UnemetaMarket.sol\":8556:8570  makerAsk.nonce */\n      0x0100\n      dup11\n      add\n      dup1\n      calldataload\n      swap1\n        /* \"contracts/Manager/UnemetaMarket.sol\":8672:8689  makerAsk.currency */\n      tag_178\n      swap1\n      0xe0\n      dup14\n      add\n      tag_38\n      jump\t// in\n    tag_178:\n        /* \"contracts/Manager/UnemetaMarket.sol\":8703:8722  makerAsk.collection */\n      tag_179\n      0x60\n      dup14\n      add\n      0x40\n      dup15\n      add\n      tag_38\n      jump\t// in\n    tag_179:\n        /* \"contracts/Manager/UnemetaMarket.sol\":8777:8791  takerBid.price */\n      0x40\n        /* \"contracts/Manager/UnemetaMarket.sol\":8513:8801  TakerBid(... */\n      dup1\n      mload\n        /* \"#utility.yul\":13612:13637   */\n      swap5\n      dup6\n      mstore\n        /* \"#utility.yul\":13668:13670   */\n      0x20\n        /* \"#utility.yul\":13653:13671   */\n      dup6\n      add\n        /* \"#utility.yul\":13646:13680   */\n      swap4\n      swap1\n      swap4\n      mstore\n        /* \"#utility.yul\":13699:13741   */\n      0xffffffffffffffffffffffffffffffffffffffff\n        /* \"#utility.yul\":13777:13792   */\n      swap2\n      dup3\n      and\n        /* \"#utility.yul\":13757:13775   */\n      dup5\n      dup5\n      add\n        /* \"#utility.yul\":13750:13793   */\n      mstore\n        /* \"#utility.yul\":13829:13844   */\n      and\n        /* \"#utility.yul\":13824:13826   */\n      0x60\n        /* \"#utility.yul\":13809:13827   */\n      dup4\n      add\n        /* \"#utility.yul\":13802:13845   */\n      mstore\n        /* \"#utility.yul\":13876:13879   */\n      0x80\n        /* \"#utility.yul\":13861:13880   */\n      dup3\n      add\n        /* \"#utility.yul\":13854:13889   */\n      dup9\n      swap1\n      mstore\n        /* \"#utility.yul\":13920:13923   */\n      0xa0\n        /* \"#utility.yul\":13905:13924   */\n      dup3\n      add\n        /* \"#utility.yul\":13898:13933   */\n      dup8\n      swap1\n      mstore\n        /* \"contracts/Manager/UnemetaMarket.sol\":8777:8791  takerBid.price */\n      dup12\n      add\n      calldataload\n        /* \"#utility.yul\":13964:13967   */\n      0xc0\n        /* \"#utility.yul\":13949:13968   */\n      dup3\n      add\n        /* \"#utility.yul\":13942:13977   */\n      mstore\n        /* \"#utility.yul\":13599:13602   */\n      0xe0\n        /* \"#utility.yul\":13584:13603   */\n      add\n        /* \"contracts/Manager/UnemetaMarket.sol\":8513:8801  TakerBid(... */\n      mload(0x40)\n      dup1\n      swap2\n      sub\n      swap1\n      log4\n      pop\n      pop\n        /* \"@openzeppelin/contracts/security/ReentrancyGuard.sol\":1701:1702  1 */\n      0x01\n        /* \"@openzeppelin/contracts/security/ReentrancyGuard.sol\":2628:2635  _status */\n      0x00\n        /* \"@openzeppelin/contracts/security/ReentrancyGuard.sol\":2628:2650  _status = _NOT_ENTERED */\n      sstore\n      pop\n      pop\n      pop\n      pop\n        /* \"contracts/Manager/UnemetaMarket.sol\":7032:8808  function matchSellerOrders(OrderTypes.TakerOrder calldata takerBid, OrderTypes.MakerOrder calldata makerAsk)... */\n      jump\t// out\n        /* \"contracts/Manager/UnemetaMarket.sol\":4711:6837  function matchSellerOrdersWETH(... */\n    tag_65:\n        /* \"@openzeppelin/contracts/security/ReentrancyGuard.sol\":1744:1745  2 */\n      0x02\n        /* \"@openzeppelin/contracts/security/ReentrancyGuard.sol\":2325:2332  _status */\n      sload(0x00)\n        /* \"@openzeppelin/contracts/security/ReentrancyGuard.sol\":2325:2344  _status != _ENTERED */\n      sub\n        /* \"@openzeppelin/contracts/security/ReentrancyGuard.sol\":2317:2380  require(_status != _ENTERED, \"ReentrancyGuard: reentrant call\") */\n      tag_183\n      jumpi\n      mload(0x40)\n      0x08c379a000000000000000000000000000000000000000000000000000000000\n      dup2\n      mstore\n        /* \"#utility.yul\":4434:4436   */\n      0x20\n        /* \"@openzeppelin/contracts/security/ReentrancyGuard.sol\":2317:2380  require(_status != _ENTERED, \"ReentrancyGuard: reentrant call\") */\n      0x04\n      dup3\n      add\n        /* \"#utility.yul\":4416:4437   */\n      mstore\n        /* \"#utility.yul\":4473:4475   */\n      0x1f\n        /* \"#utility.yul\":4453:4471   */\n      0x24\n      dup3\n      add\n        /* \"#utility.yul\":4446:4476   */\n      mstore\n        /* \"#utility.yul\":4512:4545   */\n      0x5265656e7472616e637947756172643a207265656e7472616e742063616c6c00\n        /* \"#utility.yul\":4492:4510   */\n      0x44\n      dup3\n      add\n        /* \"#utility.yul\":4485:4546   */\n      mstore\n        /* \"#utility.yul\":4563:4581   */\n      0x64\n      add\n        /* \"@openzeppelin/contracts/security/ReentrancyGuard.sol\":2317:2380  require(_status != _ENTERED, \"ReentrancyGuard: reentrant call\") */\n      tag_133\n        /* \"#utility.yul\":4232:4587   */\n      jump\n        /* \"@openzeppelin/contracts/security/ReentrancyGuard.sol\":2317:2380  require(_status != _ENTERED, \"ReentrancyGuard: reentrant call\") */\n    tag_183:\n        /* \"@openzeppelin/contracts/security/ReentrancyGuard.sol\":1744:1745  2 */\n      0x02\n        /* \"@openzeppelin/contracts/security/ReentrancyGuard.sol\":2455:2462  _status */\n      0x00\n        /* \"@openzeppelin/contracts/security/ReentrancyGuard.sol\":2455:2473  _status = _ENTERED */\n      sstore\n        /* \"contracts/Manager/UnemetaMarket.sol\":4904:4923  makerAsk.isOrderAsk */\n      tag_186\n      0x20\n      dup3\n      add\n        /* \"contracts/Manager/UnemetaMarket.sol\":4904:4912  makerAsk */\n      dup3\n        /* \"contracts/Manager/UnemetaMarket.sol\":4904:4923  makerAsk.isOrderAsk */\n      tag_137\n      jump\t// in\n    tag_186:\n        /* \"contracts/Manager/UnemetaMarket.sol\":4903:4950  (makerAsk.isOrderAsk) && (!takerBid.isOrderAsk) */\n      dup1\n      iszero\n      tag_187\n      jumpi\n      pop\n        /* \"contracts/Manager/UnemetaMarket.sol\":4930:4949  takerBid.isOrderAsk */\n      tag_188\n      0x20\n      dup4\n      add\n        /* \"contracts/Manager/UnemetaMarket.sol\":4930:4938  takerBid */\n      dup4\n        /* \"contracts/Manager/UnemetaMarket.sol\":4930:4949  takerBid.isOrderAsk */\n      tag_137\n      jump\t// in\n    tag_188:\n        /* \"contracts/Manager/UnemetaMarket.sol\":4929:4949  !takerBid.isOrderAsk */\n      iszero\n        /* \"contracts/Manager/UnemetaMarket.sol\":4903:4950  (makerAsk.isOrderAsk) && (!takerBid.isOrderAsk) */\n    tag_187:\n        /* \"contracts/Manager/UnemetaMarket.sol\":4895:4977  require((makerAsk.isOrderAsk) && (!takerBid.isOrderAsk), \"Error About Order Side\") */\n      tag_189\n      jumpi\n      mload(0x40)\n      0x08c379a000000000000000000000000000000000000000000000000000000000\n      dup2\n      mstore\n        /* \"#utility.yul\":5296:5298   */\n      0x20\n        /* \"contracts/Manager/UnemetaMarket.sol\":4895:4977  require((makerAsk.isOrderAsk) && (!takerBid.isOrderAsk), \"Error About Order Side\") */\n      0x04\n      dup3\n      add\n        /* \"#utility.yul\":5278:5299   */\n      mstore\n        /* \"#utility.yul\":5335:5337   */\n      0x16\n        /* \"#utility.yul\":5315:5333   */\n      0x24\n      dup3\n      add\n        /* \"#utility.yul\":5308:5338   */\n      mstore\n        /* \"#utility.yul\":5374:5398   */\n      0x4572726f722041626f7574204f72646572205369646500000000000000000000\n        /* \"#utility.yul\":5354:5372   */\n      0x44\n      dup3\n      add\n        /* \"#utility.yul\":5347:5399   */\n      mstore\n        /* \"#utility.yul\":5416:5434   */\n      0x64\n      add\n        /* \"contracts/Manager/UnemetaMarket.sol\":4895:4977  require((makerAsk.isOrderAsk) && (!takerBid.isOrderAsk), \"Error About Order Side\") */\n      tag_133\n        /* \"#utility.yul\":5094:5440   */\n      jump\n        /* \"contracts/Manager/UnemetaMarket.sol\":4895:4977  require((makerAsk.isOrderAsk) && (!takerBid.isOrderAsk), \"Error About Order Side\") */\n    tag_189:\n        /* \"contracts/Manager/UnemetaMarket.sol\":5025:5050  makerAsk.currency == WETH */\n      0xffffffffffffffffffffffffffffffffffffffff\n        /* \"contracts/Manager/UnemetaMarket.sol\":5046:5050  WETH */\n      immutable(\"0x27f7320d12022267a30ae0570361d18e54ded7bfc682ac5b98d912c6ab83c578\")\n        /* \"contracts/Manager/UnemetaMarket.sol\":5025:5050  makerAsk.currency == WETH */\n      and\n        /* \"contracts/Manager/UnemetaMarket.sol\":5025:5042  makerAsk.currency */\n      tag_191\n      0x0100\n      dup4\n      add\n      0xe0\n      dup5\n      add\n      tag_38\n      jump\t// in\n    tag_191:\n        /* \"contracts/Manager/UnemetaMarket.sol\":5025:5050  makerAsk.currency == WETH */\n      0xffffffffffffffffffffffffffffffffffffffff\n      and\n      eq\n        /* \"contracts/Manager/UnemetaMarket.sol\":5017:5076  require(makerAsk.currency == WETH, \"Currency must be WETH\") */\n      tag_192\n      jumpi\n      mload(0x40)\n      0x08c379a000000000000000000000000000000000000000000000000000000000\n      dup2\n      mstore\n        /* \"#utility.yul\":14190:14192   */\n      0x20\n        /* \"contracts/Manager/UnemetaMarket.sol\":5017:5076  require(makerAsk.currency == WETH, \"Currency must be WETH\") */\n      0x04\n      dup3\n      add\n        /* \"#utility.yul\":14172:14193   */\n      mstore\n        /* \"#utility.yul\":14229:14231   */\n      0x15\n        /* \"#utility.yul\":14209:14227   */\n      0x24\n      dup3\n      add\n        /* \"#utility.yul\":14202:14232   */\n      mstore\n        /* \"#utility.yul\":14268:14291   */\n      0x43757272656e6379206d75737420626520574554480000000000000000000000\n        /* \"#utility.yul\":14248:14266   */\n      0x44\n      dup3\n      add\n        /* \"#utility.yul\":14241:14292   */\n      mstore\n        /* \"#utility.yul\":14309:14327   */\n      0x64\n      add\n        /* \"contracts/Manager/UnemetaMarket.sol\":5017:5076  require(makerAsk.currency == WETH, \"Currency must be WETH\") */\n      tag_133\n        /* \"#utility.yul\":13988:14333   */\n      jump\n        /* \"contracts/Manager/UnemetaMarket.sol\":5017:5076  require(makerAsk.currency == WETH, \"Currency must be WETH\") */\n    tag_192:\n        /* \"contracts/Manager/UnemetaMarket.sol\":5108:5122  takerBid.taker */\n      tag_195\n      0x40\n      dup4\n      add\n      0x20\n      dup5\n      add\n      tag_38\n      jump\t// in\n    tag_195:\n        /* \"contracts/Manager/UnemetaMarket.sol\":5094:5122  msg.sender == takerBid.taker */\n      0xffffffffffffffffffffffffffffffffffffffff\n      and\n        /* \"contracts/Manager/UnemetaMarket.sol\":5094:5104  msg.sender */\n      caller\n        /* \"contracts/Manager/UnemetaMarket.sol\":5094:5122  msg.sender == takerBid.taker */\n      0xffffffffffffffffffffffffffffffffffffffff\n      and\n      eq\n        /* \"contracts/Manager/UnemetaMarket.sol\":5086:5151  require(msg.sender == takerBid.taker, \"Order must be the sender\") */\n      tag_196\n      jumpi\n      mload(0x40)\n      0x08c379a000000000000000000000000000000000000000000000000000000000\n      dup2\n      mstore\n        /* \"#utility.yul\":5647:5649   */\n      0x20\n        /* \"contracts/Manager/UnemetaMarket.sol\":5086:5151  require(msg.sender == takerBid.taker, \"Order must be the sender\") */\n      0x04\n      dup3\n      add\n        /* \"#utility.yul\":5629:5650   */\n      mstore\n        /* \"#utility.yul\":5686:5688   */\n      0x18\n        /* \"#utility.yul\":5666:5684   */\n      0x24\n      dup3\n      add\n        /* \"#utility.yul\":5659:5689   */\n      mstore\n        /* \"#utility.yul\":5725:5751   */\n      0x4f72646572206d757374206265207468652073656e6465720000000000000000\n        /* \"#utility.yul\":5705:5723   */\n      0x44\n      dup3\n      add\n        /* \"#utility.yul\":5698:5752   */\n      mstore\n        /* \"#utility.yul\":5769:5787   */\n      0x64\n      add\n        /* \"contracts/Manager/UnemetaMarket.sol\":5086:5151  require(msg.sender == takerBid.taker, \"Order must be the sender\") */\n      tag_133\n        /* \"#utility.yul\":5445:5793   */\n      jump\n        /* \"contracts/Manager/UnemetaMarket.sol\":5086:5151  require(msg.sender == takerBid.taker, \"Order must be the sender\") */\n    tag_196:\n        /* \"contracts/Manager/UnemetaMarket.sol\":5237:5246  msg.value */\n      callvalue\n        /* \"contracts/Manager/UnemetaMarket.sol\":5220:5228  takerBid */\n      dup3\n        /* \"contracts/Manager/UnemetaMarket.sol\":5220:5234  takerBid.price */\n      0x40\n      add\n      calldataload\n        /* \"contracts/Manager/UnemetaMarket.sol\":5220:5246  takerBid.price > msg.value */\n      gt\n        /* \"contracts/Manager/UnemetaMarket.sol\":5216:5451  if (takerBid.price > msg.value) {... */\n      iszero\n      tag_198\n      jumpi\n        /* \"contracts/Manager/UnemetaMarket.sol\":5262:5348  IERC20(WETH).safeTransferFrom(msg.sender, address(this), (takerBid.price - msg.value)) */\n      tag_199\n        /* \"contracts/Manager/UnemetaMarket.sol\":5292:5302  msg.sender */\n      caller\n        /* \"contracts/Manager/UnemetaMarket.sol\":5312:5316  this */\n      address\n        /* \"contracts/Manager/UnemetaMarket.sol\":5320:5346  takerBid.price - msg.value */\n      tag_200\n        /* \"contracts/Manager/UnemetaMarket.sol\":5337:5346  msg.value */\n      callvalue\n        /* \"contracts/Manager/UnemetaMarket.sol\":5320:5334  takerBid.price */\n      0x40\n      dup8\n      add\n      calldataload\n        /* \"contracts/Manager/UnemetaMarket.sol\":5320:5346  takerBid.price - msg.value */\n      tag_201\n      jump\t// in\n    tag_200:\n        /* \"contracts/Manager/UnemetaMarket.sol\":5262:5291  IERC20(WETH).safeTransferFrom */\n      0xffffffffffffffffffffffffffffffffffffffff\n        /* \"contracts/Manager/UnemetaMarket.sol\":5269:5273  WETH */\n      immutable(\"0x27f7320d12022267a30ae0570361d18e54ded7bfc682ac5b98d912c6ab83c578\")\n        /* \"contracts/Manager/UnemetaMarket.sol\":5262:5291  IERC20(WETH).safeTransferFrom */\n      and\n      swap3\n        /* \"contracts/Manager/UnemetaMarket.sol\":5262:5348  IERC20(WETH).safeTransferFrom(msg.sender, address(this), (takerBid.price - msg.value)) */\n      swap2\n      swap1\n        /* \"contracts/Manager/UnemetaMarket.sol\":5262:5291  IERC20(WETH).safeTransferFrom */\n      tag_202\n        /* \"contracts/Manager/UnemetaMarket.sol\":5262:5348  IERC20(WETH).safeTransferFrom(msg.sender, address(this), (takerBid.price - msg.value)) */\n      jump\t// in\n    tag_199:\n        /* \"contracts/Manager/UnemetaMarket.sol\":5216:5451  if (takerBid.price > msg.value) {... */\n      jump(tag_204)\n    tag_198:\n        /* \"contracts/Manager/UnemetaMarket.sol\":5405:5414  msg.value */\n      callvalue\n        /* \"contracts/Manager/UnemetaMarket.sol\":5387:5395  takerBid */\n      dup3\n        /* \"contracts/Manager/UnemetaMarket.sol\":5387:5401  takerBid.price */\n      0x40\n      add\n      calldataload\n        /* \"contracts/Manager/UnemetaMarket.sol\":5387:5414  takerBid.price == msg.value */\n      eq\n        /* \"contracts/Manager/UnemetaMarket.sol\":5379:5440  require(takerBid.price == msg.value, \"Msg.value is too high\") */\n      tag_204\n      jumpi\n      mload(0x40)\n      0x08c379a000000000000000000000000000000000000000000000000000000000\n      dup2\n      mstore\n        /* \"#utility.yul\":14862:14864   */\n      0x20\n        /* \"contracts/Manager/UnemetaMarket.sol\":5379:5440  require(takerBid.price == msg.value, \"Msg.value is too high\") */\n      0x04\n      dup3\n      add\n        /* \"#utility.yul\":14844:14865   */\n      mstore\n        /* \"#utility.yul\":14901:14903   */\n      0x15\n        /* \"#utility.yul\":14881:14899   */\n      0x24\n      dup3\n      add\n        /* \"#utility.yul\":14874:14904   */\n      mstore\n        /* \"#utility.yul\":14940:14963   */\n      0x4d73672e76616c756520697320746f6f20686967680000000000000000000000\n        /* \"#utility.yul\":14920:14938   */\n      0x44\n      dup3\n      add\n        /* \"#utility.yul\":14913:14964   */\n      mstore\n        /* \"#utility.yul\":14981:14999   */\n      0x64\n      add\n        /* \"contracts/Manager/UnemetaMarket.sol\":5379:5440  require(takerBid.price == msg.value, \"Msg.value is too high\") */\n      tag_133\n        /* \"#utility.yul\":14660:15005   */\n      jump\n        /* \"contracts/Manager/UnemetaMarket.sol\":5379:5440  require(takerBid.price == msg.value, \"Msg.value is too high\") */\n    tag_204:\n        /* \"contracts/Manager/UnemetaMarket.sol\":5490:5494  WETH */\n      immutable(\"0x27f7320d12022267a30ae0570361d18e54ded7bfc682ac5b98d912c6ab83c578\")\n        /* \"contracts/Manager/UnemetaMarket.sol\":5484:5503  IWETH(WETH).deposit */\n      0xffffffffffffffffffffffffffffffffffffffff\n      and\n      0xd0e30db0\n        /* \"contracts/Manager/UnemetaMarket.sol\":5512:5521  msg.value */\n      callvalue\n        /* \"contracts/Manager/UnemetaMarket.sol\":5484:5524  IWETH(WETH).deposit{value : msg.value}() */\n      mload(0x40)\n      dup3\n      0xffffffff\n      and\n      0xe0\n      shl\n      dup2\n      mstore\n      0x04\n      add\n      0x00\n      mload(0x40)\n      dup1\n      dup4\n      sub\n      dup2\n      dup6\n      dup9\n      dup1\n      extcodesize\n      iszero\n      dup1\n      iszero\n      tag_207\n      jumpi\n      0x00\n      dup1\n      revert\n    tag_207:\n      pop\n      gas\n      call\n      iszero\n      dup1\n      iszero\n      tag_209\n      jumpi\n      returndatasize\n      0x00\n      dup1\n      returndatacopy\n      revert(0x00, returndatasize)\n    tag_209:\n      pop\n      pop\n      pop\n      pop\n      pop\n        /* \"contracts/Manager/UnemetaMarket.sol\":5578:5593  bytes32 askHash */\n      0x00\n        /* \"contracts/Manager/UnemetaMarket.sol\":5596:5611  makerAsk.hash() */\n      tag_210\n        /* \"contracts/Manager/UnemetaMarket.sol\":5596:5604  makerAsk */\n      dup3\n        /* \"contracts/Manager/UnemetaMarket.sol\":5596:5609  makerAsk.hash */\n      tag_148\n      swap1\n      tag_149\n      jump\t// in\n        /* \"contracts/Manager/UnemetaMarket.sol\":5596:5611  makerAsk.hash() */\n    tag_210:\n        /* \"contracts/Manager/UnemetaMarket.sol\":5578:5611  bytes32 askHash = makerAsk.hash() */\n      swap1\n      pop\n        /* \"contracts/Manager/UnemetaMarket.sol\":5621:5654  _validateOrder(makerAsk, askHash) */\n      tag_212\n        /* \"contracts/Manager/UnemetaMarket.sol\":5636:5644  makerAsk */\n      dup3\n        /* \"contracts/Manager/UnemetaMarket.sol\":5646:5653  askHash */\n      dup3\n        /* \"contracts/Manager/UnemetaMarket.sol\":5621:5635  _validateOrder */\n      tag_152\n        /* \"contracts/Manager/UnemetaMarket.sol\":5621:5654  _validateOrder(makerAsk, askHash) */\n      jump\t// in\n    tag_212:\n        /* \"contracts/Manager/UnemetaMarket.sol\":5706:5727  bool isExecutionValid */\n      0x00\n      dup1\n      dup1\n        /* \"contracts/Manager/UnemetaMarket.sol\":5778:5795  makerAsk.strategy */\n      tag_213\n      0xe0\n      dup7\n      add\n      0xc0\n      dup8\n      add\n      tag_38\n      jump\t// in\n    tag_213:\n        /* \"contracts/Manager/UnemetaMarket.sol\":5764:5820  TheExStrategy(makerAsk.strategy)... */\n      0xffffffffffffffffffffffffffffffffffffffff\n      and\n      0xd310677d\n        /* \"contracts/Manager/UnemetaMarket.sol\":5821:5829  takerBid */\n      dup8\n        /* \"contracts/Manager/UnemetaMarket.sol\":5831:5839  makerAsk */\n      dup8\n        /* \"contracts/Manager/UnemetaMarket.sol\":5764:5840  TheExStrategy(makerAsk.strategy)... */\n      mload(0x40)\n      dup4\n      0xffffffff\n      and\n      0xe0\n      shl\n      dup2\n      mstore\n      0x04\n      add\n      tag_214\n      swap3\n      swap2\n      swap1\n      tag_155\n      jump\t// in\n    tag_214:\n      0x60\n      mload(0x40)\n      dup1\n      dup4\n      sub\n      dup2\n      dup7\n      gas\n      staticcall\n      iszero\n      dup1\n      iszero\n      tag_216\n      jumpi\n      returndatasize\n      0x00\n      dup1\n      returndatacopy\n      revert(0x00, returndatasize)\n    tag_216:\n      pop\n      pop\n      pop\n      pop\n      mload(0x40)\n      returndatasize\n      not(0x1f)\n      0x1f\n      dup3\n      add\n      and\n      dup3\n      add\n      dup1\n      0x40\n      mstore\n      pop\n      dup2\n      add\n      swap1\n      tag_217\n      swap2\n      swap1\n      tag_159\n      jump\t// in\n    tag_217:\n        /* \"contracts/Manager/UnemetaMarket.sol\":5705:5840  (bool isExecutionValid, uint256 tokenId, uint256 amount) = TheExStrategy(makerAsk.strategy)... */\n      swap3\n      pop\n      swap3\n      pop\n      swap3\n      pop\n        /* \"contracts/Manager/UnemetaMarket.sol\":5859:5875  isExecutionValid */\n      dup3\n        /* \"contracts/Manager/UnemetaMarket.sol\":5851:5904  require(isExecutionValid, \"Strategy should be valid\") */\n      tag_218\n      jumpi\n      mload(0x40)\n      0x08c379a000000000000000000000000000000000000000000000000000000000\n      dup2\n      mstore\n        /* \"#utility.yul\":13146:13148   */\n      0x20\n        /* \"contracts/Manager/UnemetaMarket.sol\":5851:5904  require(isExecutionValid, \"Strategy should be valid\") */\n      0x04\n      dup3\n      add\n        /* \"#utility.yul\":13128:13149   */\n      mstore\n        /* \"#utility.yul\":13185:13187   */\n      0x18\n        /* \"#utility.yul\":13165:13183   */\n      0x24\n      dup3\n      add\n        /* \"#utility.yul\":13158:13188   */\n      mstore\n        /* \"#utility.yul\":13224:13250   */\n      0x53747261746567792073686f756c642062652076616c69640000000000000000\n        /* \"#utility.yul\":13204:13222   */\n      0x44\n      dup3\n      add\n        /* \"#utility.yul\":13197:13251   */\n      mstore\n        /* \"#utility.yul\":13268:13286   */\n      0x64\n      add\n        /* \"contracts/Manager/UnemetaMarket.sol\":5851:5904  require(isExecutionValid, \"Strategy should be valid\") */\n      tag_133\n        /* \"#utility.yul\":12944:13292   */\n      jump\n        /* \"contracts/Manager/UnemetaMarket.sol\":5851:5904  require(isExecutionValid, \"Strategy should be valid\") */\n    tag_218:\n        /* \"contracts/Manager/UnemetaMarket.sol\":6072:6076  true */\n      0x01\n        /* \"contracts/Manager/UnemetaMarket.sol\":6004:6036  _theUserOrderExecutedOrCancelled */\n      0x08\n        /* \"contracts/Manager/UnemetaMarket.sol\":6004:6053  _theUserOrderExecutedOrCancelled[makerAsk.signer] */\n      0x00\n        /* \"contracts/Manager/UnemetaMarket.sol\":6037:6052  makerAsk.signer */\n      tag_220\n      0x40\n      dup10\n      add\n      0x20\n      dup11\n      add\n      tag_38\n      jump\t// in\n    tag_220:\n        /* \"contracts/Manager/UnemetaMarket.sol\":6004:6053  _theUserOrderExecutedOrCancelled[makerAsk.signer] */\n      0xffffffffffffffffffffffffffffffffffffffff\n      and\n      dup2\n      mstore\n      0x20\n      dup1\n      dup3\n      add\n      swap3\n      swap1\n      swap3\n      mstore\n      0x40\n      swap1\n      dup2\n      add\n      0x00\n      swap1\n      dup2\n      keccak256\n        /* \"contracts/Manager/UnemetaMarket.sol\":6054:6068  makerAsk.nonce */\n      0x0100\n      dup11\n      add\n      calldataload\n        /* \"contracts/Manager/UnemetaMarket.sol\":6004:6069  _theUserOrderExecutedOrCancelled[makerAsk.signer][makerAsk.nonce] */\n      dup3\n      mstore\n      swap1\n      swap3\n      mstore\n      swap1\n      keccak256\n        /* \"contracts/Manager/UnemetaMarket.sol\":6004:6076  _theUserOrderExecutedOrCancelled[makerAsk.signer][makerAsk.nonce] = true */\n      dup1\n      sload\n      0xffffffffffffffffffffffffffffffffffffffffffffffffffffffffffffff00\n      and\n      swap2\n      iszero\n      iszero\n      swap2\n      swap1\n      swap2\n      or\n      swap1\n      sstore\n        /* \"contracts/Manager/UnemetaMarket.sol\":6112:6334  _transferFeesAndFundsWithWETH(... */\n      tag_164\n        /* \"contracts/Manager/UnemetaMarket.sol\":6155:6172  makerAsk.strategy */\n      tag_222\n      0xe0\n      dup8\n      add\n      0xc0\n      dup9\n      add\n      tag_38\n      jump\t// in\n    tag_222:\n        /* \"contracts/Manager/UnemetaMarket.sol\":6186:6205  makerAsk.collection */\n      tag_223\n      0x60\n      dup9\n      add\n      0x40\n      dup10\n      add\n      tag_38\n      jump\t// in\n    tag_223:\n        /* \"contracts/Manager/UnemetaMarket.sol\":6219:6226  tokenId */\n      dup5\n        /* \"contracts/Manager/UnemetaMarket.sol\":6240:6255  makerAsk.signer */\n      tag_224\n      0x40\n      dup11\n      add\n      0x20\n      dup12\n      add\n      tag_38\n      jump\t// in\n    tag_224:\n        /* \"contracts/Manager/UnemetaMarket.sol\":6269:6277  takerBid */\n      dup11\n        /* \"contracts/Manager/UnemetaMarket.sol\":6269:6283  takerBid.price */\n      0x40\n      add\n      calldataload\n        /* \"contracts/Manager/UnemetaMarket.sol\":6297:6305  makerAsk */\n      dup11\n        /* \"contracts/Manager/UnemetaMarket.sol\":6297:6324  makerAsk.minPercentageToAsk */\n      0x0160\n      add\n      calldataload\n        /* \"contracts/Manager/UnemetaMarket.sol\":6112:6141  _transferFeesAndFundsWithWETH */\n      tag_225\n        /* \"contracts/Manager/UnemetaMarket.sol\":6112:6334  _transferFeesAndFundsWithWETH(... */\n      jump\t// in\n        /* \"contracts/Manager/UnemetaMarket.sol\":21280:21562  function updateCurrencyManager(address _currencyManager) external onlyOwner {... */\n    tag_69:\n        /* \"@openzeppelin/contracts/access/Ownable.sol\":1094:1107  _checkOwner() */\n      tag_237\n        /* \"@openzeppelin/contracts/access/Ownable.sol\":1094:1105  _checkOwner */\n      tag_128\n        /* \"@openzeppelin/contracts/access/Ownable.sol\":1094:1107  _checkOwner() */\n      jump\t// in\n    tag_237:\n        /* \"contracts/Manager/UnemetaMarket.sol\":21374:21404  _currencyManager != address(0) */\n      0xffffffffffffffffffffffffffffffffffffffff\n      dup2\n      and\n        /* \"contracts/Manager/UnemetaMarket.sol\":21366:21440  require(_currencyManager != address(0), \"Cannot update to a null address\") */\n      tag_239\n      jumpi\n      mload(0x40)\n      0x08c379a000000000000000000000000000000000000000000000000000000000\n      dup2\n      mstore\n        /* \"#utility.yul\":15212:15214   */\n      0x20\n        /* \"contracts/Manager/UnemetaMarket.sol\":21366:21440  require(_currencyManager != address(0), \"Cannot update to a null address\") */\n      0x04\n      dup3\n      add\n        /* \"#utility.yul\":15194:15215   */\n      mstore\n        /* \"#utility.yul\":15251:15253   */\n      0x1f\n        /* \"#utility.yul\":15231:15249   */\n      0x24\n      dup3\n      add\n        /* \"#utility.yul\":15224:15254   */\n      mstore\n        /* \"#utility.yul\":15290:15323   */\n      0x43616e6e6f742075706461746520746f2061206e756c6c206164647265737300\n        /* \"#utility.yul\":15270:15288   */\n      0x44\n      dup3\n      add\n        /* \"#utility.yul\":15263:15324   */\n      mstore\n        /* \"#utility.yul\":15341:15359   */\n      0x64\n      add\n        /* \"contracts/Manager/UnemetaMarket.sol\":21366:21440  require(_currencyManager != address(0), \"Cannot update to a null address\") */\n      tag_133\n        /* \"#utility.yul\":15010:15365   */\n      jump\n        /* \"contracts/Manager/UnemetaMarket.sol\":21366:21440  require(_currencyManager != address(0), \"Cannot update to a null address\") */\n    tag_239:\n        /* \"contracts/Manager/UnemetaMarket.sol\":21450:21465  currencyManager */\n      0x03\n        /* \"contracts/Manager/UnemetaMarket.sol\":21450:21504  currencyManager = TheCurrencyManager(_currencyManager) */\n      dup1\n      sload\n      0xffffffffffffffffffffffff0000000000000000000000000000000000000000\n      and\n      0xffffffffffffffffffffffffffffffffffffffff\n      dup4\n      and\n      swap1\n      dup2\n      or\n      swap1\n      swap2\n      sstore\n        /* \"contracts/Manager/UnemetaMarket.sol\":21519:21555  NewCurrencyManager(_currencyManager) */\n      mload(0x40)\n      0xb4f5db40df3aced29e88a4babbc3b46e305e07d34098525d18b1497056e63838\n      swap1\n      0x00\n      swap1\n      log2\n        /* \"contracts/Manager/UnemetaMarket.sol\":21280:21562  function updateCurrencyManager(address _currencyManager) external onlyOwner {... */\n      pop\n      jump\t// out\n        /* \"contracts/Manager/UnemetaMarket.sol\":9001:10892  function matchesBuyerOrder(OrderTypes.TakerOrder calldata takerAsk, OrderTypes.MakerOrder calldata makerBid)... */\n    tag_78:\n        /* \"@openzeppelin/contracts/security/ReentrancyGuard.sol\":1744:1745  2 */\n      0x02\n        /* \"@openzeppelin/contracts/security/ReentrancyGuard.sol\":2325:2332  _status */\n      sload(0x00)\n        /* \"@openzeppelin/contracts/security/ReentrancyGuard.sol\":2325:2344  _status != _ENTERED */\n      sub\n        /* \"@openzeppelin/contracts/security/ReentrancyGuard.sol\":2317:2380  require(_status != _ENTERED, \"ReentrancyGuard: reentrant call\") */\n      tag_243\n      jumpi\n      mload(0x40)\n      0x08c379a000000000000000000000000000000000000000000000000000000000\n      dup2\n      mstore\n        /* \"#utility.yul\":4434:4436   */\n      0x20\n        /* \"@openzeppelin/contracts/security/ReentrancyGuard.sol\":2317:2380  require(_status != _ENTERED, \"ReentrancyGuard: reentrant call\") */\n      0x04\n      dup3\n      add\n        /* \"#utility.yul\":4416:4437   */\n      mstore\n        /* \"#utility.yul\":4473:4475   */\n      0x1f\n        /* \"#utility.yul\":4453:4471   */\n      0x24\n      dup3\n      add\n        /* \"#utility.yul\":4446:4476   */\n      mstore\n        /* \"#utility.yul\":4512:4545   */\n      0x5265656e7472616e637947756172643a207265656e7472616e742063616c6c00\n        /* \"#utility.yul\":4492:4510   */\n      0x44\n      dup3\n      add\n        /* \"#utility.yul\":4485:4546   */\n      mstore\n        /* \"#utility.yul\":4563:4581   */\n      0x64\n      add\n        /* \"@openzeppelin/contracts/security/ReentrancyGuard.sol\":2317:2380  require(_status != _ENTERED, \"ReentrancyGuard: reentrant call\") */\n      tag_133\n        /* \"#utility.yul\":4232:4587   */\n      jump\n        /* \"@openzeppelin/contracts/security/ReentrancyGuard.sol\":2317:2380  require(_status != _ENTERED, \"ReentrancyGuard: reentrant call\") */\n    tag_243:\n        /* \"@openzeppelin/contracts/security/ReentrancyGuard.sol\":1744:1745  2 */\n      0x02\n        /* \"@openzeppelin/contracts/security/ReentrancyGuard.sol\":2455:2462  _status */\n      0x00\n        /* \"@openzeppelin/contracts/security/ReentrancyGuard.sol\":2455:2473  _status = _ENTERED */\n      sstore\n        /* \"contracts/Manager/UnemetaMarket.sol\":9289:9308  makerBid.isOrderAsk */\n      tag_246\n      0x20\n      dup3\n      add\n        /* \"contracts/Manager/UnemetaMarket.sol\":9289:9297  makerBid */\n      dup3\n        /* \"contracts/Manager/UnemetaMarket.sol\":9289:9308  makerBid.isOrderAsk */\n      tag_137\n      jump\t// in\n    tag_246:\n        /* \"contracts/Manager/UnemetaMarket.sol\":9288:9308  !makerBid.isOrderAsk */\n      iszero\n        /* \"contracts/Manager/UnemetaMarket.sol\":9287:9334  (!makerBid.isOrderAsk) && (takerAsk.isOrderAsk) */\n      dup1\n      iszero\n      tag_248\n      jumpi\n      pop\n        /* \"contracts/Manager/UnemetaMarket.sol\":9314:9333  takerAsk.isOrderAsk */\n      tag_248\n      0x20\n      dup4\n      add\n        /* \"contracts/Manager/UnemetaMarket.sol\":9314:9322  takerAsk */\n      dup4\n        /* \"contracts/Manager/UnemetaMarket.sol\":9314:9333  takerAsk.isOrderAsk */\n      tag_137\n      jump\t// in\n    tag_248:\n        /* \"contracts/Manager/UnemetaMarket.sol\":9279:9361  require((!makerBid.isOrderAsk) && (takerAsk.isOrderAsk), \"Error About Order Side\") */\n      tag_249\n      jumpi\n      mload(0x40)\n      0x08c379a000000000000000000000000000000000000000000000000000000000\n      dup2\n      mstore\n        /* \"#utility.yul\":5296:5298   */\n      0x20\n        /* \"contracts/Manager/UnemetaMarket.sol\":9279:9361  require((!makerBid.isOrderAsk) && (takerAsk.isOrderAsk), \"Error About Order Side\") */\n      0x04\n      dup3\n      add\n        /* \"#utility.yul\":5278:5299   */\n      mstore\n        /* \"#utility.yul\":5335:5337   */\n      0x16\n        /* \"#utility.yul\":5315:5333   */\n      0x24\n      dup3\n      add\n        /* \"#utility.yul\":5308:5338   */\n      mstore\n        /* \"#utility.yul\":5374:5398   */\n      0x4572726f722041626f7574204f72646572205369646500000000000000000000\n        /* \"#utility.yul\":5354:5372   */\n      0x44\n      dup3\n      add\n        /* \"#utility.yul\":5347:5399   */\n      mstore\n        /* \"#utility.yul\":5416:5434   */\n      0x64\n      add\n        /* \"contracts/Manager/UnemetaMarket.sol\":9279:9361  require((!makerBid.isOrderAsk) && (takerAsk.isOrderAsk), \"Error About Order Side\") */\n      tag_133\n        /* \"#utility.yul\":5094:5440   */\n      jump\n        /* \"contracts/Manager/UnemetaMarket.sol\":9279:9361  require((!makerBid.isOrderAsk) && (takerAsk.isOrderAsk), \"Error About Order Side\") */\n    tag_249:\n        /* \"contracts/Manager/UnemetaMarket.sol\":9434:9448  takerAsk.taker */\n      tag_251\n      0x40\n      dup4\n      add\n      0x20\n      dup5\n      add\n      tag_38\n      jump\t// in\n    tag_251:\n        /* \"contracts/Manager/UnemetaMarket.sol\":9420:9448  msg.sender == takerAsk.taker */\n      0xffffffffffffffffffffffffffffffffffffffff\n      and\n        /* \"contracts/Manager/UnemetaMarket.sol\":9420:9430  msg.sender */\n      caller\n        /* \"contracts/Manager/UnemetaMarket.sol\":9420:9448  msg.sender == takerAsk.taker */\n      0xffffffffffffffffffffffffffffffffffffffff\n      and\n      eq\n        /* \"contracts/Manager/UnemetaMarket.sol\":9412:9477  require(msg.sender == takerAsk.taker, \"Order must be the sender\") */\n      tag_252\n      jumpi\n      mload(0x40)\n      0x08c379a000000000000000000000000000000000000000000000000000000000\n      dup2\n      mstore\n        /* \"#utility.yul\":5647:5649   */\n      0x20\n        /* \"contracts/Manager/UnemetaMarket.sol\":9412:9477  require(msg.sender == takerAsk.taker, \"Order must be the sender\") */\n      0x04\n      dup3\n      add\n        /* \"#utility.yul\":5629:5650   */\n      mstore\n        /* \"#utility.yul\":5686:5688   */\n      0x18\n        /* \"#utility.yul\":5666:5684   */\n      0x24\n      dup3\n      add\n        /* \"#utility.yul\":5659:5689   */\n      mstore\n        /* \"#utility.yul\":5725:5751   */\n      0x4f72646572206d757374206265207468652073656e6465720000000000000000\n        /* \"#utility.yul\":5705:5723   */\n      0x44\n      dup3\n      add\n        /* \"#utility.yul\":5698:5752   */\n      mstore\n        /* \"#utility.yul\":5769:5787   */\n      0x64\n      add\n        /* \"contracts/Manager/UnemetaMarket.sol\":9412:9477  require(msg.sender == takerAsk.taker, \"Order must be the sender\") */\n      tag_133\n        /* \"#utility.yul\":5445:5793   */\n      jump\n        /* \"contracts/Manager/UnemetaMarket.sol\":9412:9477  require(msg.sender == takerAsk.taker, \"Order must be the sender\") */\n    tag_252:\n        /* \"contracts/Manager/UnemetaMarket.sol\":9521:9536  bytes32 bidHash */\n      0x00\n        /* \"contracts/Manager/UnemetaMarket.sol\":9539:9554  makerBid.hash() */\n      tag_254\n        /* \"contracts/Manager/UnemetaMarket.sol\":9539:9552  makerBid.hash */\n      tag_148\n        /* \"contracts/Manager/UnemetaMarket.sol\":9539:9547  makerBid */\n      dup4\n        /* \"contracts/Manager/UnemetaMarket.sol\":9539:9552  makerBid.hash */\n      tag_149\n      jump\t// in\n        /* \"contracts/Manager/UnemetaMarket.sol\":9539:9554  makerBid.hash() */\n    tag_254:\n        /* \"contracts/Manager/UnemetaMarket.sol\":9521:9554  bytes32 bidHash = makerBid.hash() */\n      swap1\n      pop\n        /* \"contracts/Manager/UnemetaMarket.sol\":9606:9639  _validateOrder(makerBid, bidHash) */\n      tag_256\n        /* \"contracts/Manager/UnemetaMarket.sol\":9621:9629  makerBid */\n      dup3\n        /* \"contracts/Manager/UnemetaMarket.sol\":9631:9638  bidHash */\n      dup3\n        /* \"contracts/Manager/UnemetaMarket.sol\":9606:9620  _validateOrder */\n      tag_152\n        /* \"contracts/Manager/UnemetaMarket.sol\":9606:9639  _validateOrder(makerBid, bidHash) */\n      jump\t// in\n    tag_256:\n        /* \"contracts/Manager/UnemetaMarket.sol\":9715:9736  bool isExecutionValid */\n      0x00\n      dup1\n      dup1\n        /* \"contracts/Manager/UnemetaMarket.sol\":9787:9804  makerBid.strategy */\n      tag_257\n      0xe0\n      dup7\n      add\n      0xc0\n      dup8\n      add\n      tag_38\n      jump\t// in\n    tag_257:\n        /* \"contracts/Manager/UnemetaMarket.sol\":9773:9828  TheExStrategy(makerBid.strategy)... */\n      0xffffffffffffffffffffffffffffffffffffffff\n      and\n      0x2a75ffee\n        /* \"contracts/Manager/UnemetaMarket.sol\":9829:9837  takerAsk */\n      dup8\n        /* \"contracts/Manager/UnemetaMarket.sol\":9839:9847  makerBid */\n      dup8\n        /* \"contracts/Manager/UnemetaMarket.sol\":9773:9848  TheExStrategy(makerBid.strategy)... */\n      mload(0x40)\n      dup4\n      0xffffffff\n      and\n      0xe0\n      shl\n      dup2\n      mstore\n      0x04\n      add\n      tag_258\n      swap3\n      swap2\n      swap1\n      tag_155\n      jump\t// in\n    tag_258:\n      0x60\n      mload(0x40)\n      dup1\n      dup4\n      sub\n      dup2\n      dup7\n      gas\n      staticcall\n      iszero\n      dup1\n      iszero\n      tag_260\n      jumpi\n      returndatasize\n      0x00\n      dup1\n      returndatacopy\n      revert(0x00, returndatasize)\n    tag_260:\n      pop\n      pop\n      pop\n      pop\n      mload(0x40)\n      returndatasize\n      not(0x1f)\n      0x1f\n      dup3\n      add\n      and\n      dup3\n      add\n      dup1\n      0x40\n      mstore\n      pop\n      dup2\n      add\n      swap1\n      tag_261\n      swap2\n      swap1\n      tag_159\n      jump\t// in\n    tag_261:\n        /* \"contracts/Manager/UnemetaMarket.sol\":9714:9848  (bool isExecutionValid, uint256 tokenId, uint256 amount) = TheExStrategy(makerBid.strategy)... */\n      swap3\n      pop\n      swap3\n      pop\n      swap3\n      pop\n        /* \"contracts/Manager/UnemetaMarket.sol\":9867:9883  isExecutionValid */\n      dup3\n        /* \"contracts/Manager/UnemetaMarket.sol\":9859:9912  require(isExecutionValid, \"Strategy should be valid\") */\n      tag_262\n      jumpi\n      mload(0x40)\n      0x08c379a000000000000000000000000000000000000000000000000000000000\n      dup2\n      mstore\n        /* \"#utility.yul\":13146:13148   */\n      0x20\n        /* \"contracts/Manager/UnemetaMarket.sol\":9859:9912  require(isExecutionValid, \"Strategy should be valid\") */\n      0x04\n      dup3\n      add\n        /* \"#utility.yul\":13128:13149   */\n      mstore\n        /* \"#utility.yul\":13185:13187   */\n      0x18\n        /* \"#utility.yul\":13165:13183   */\n      0x24\n      dup3\n      add\n        /* \"#utility.yul\":13158:13188   */\n      mstore\n        /* \"#utility.yul\":13224:13250   */\n      0x53747261746567792073686f756c642062652076616c69640000000000000000\n        /* \"#utility.yul\":13204:13222   */\n      0x44\n      dup3\n      add\n        /* \"#utility.yul\":13197:13251   */\n      mstore\n        /* \"#utility.yul\":13268:13286   */\n      0x64\n      add\n        /* \"contracts/Manager/UnemetaMarket.sol\":9859:9912  require(isExecutionValid, \"Strategy should be valid\") */\n      tag_133\n        /* \"#utility.yul\":12944:13292   */\n      jump\n        /* \"contracts/Manager/UnemetaMarket.sol\":9859:9912  require(isExecutionValid, \"Strategy should be valid\") */\n    tag_262:\n        /* \"contracts/Manager/UnemetaMarket.sol\":10080:10084  true */\n      0x01\n        /* \"contracts/Manager/UnemetaMarket.sol\":10012:10044  _theUserOrderExecutedOrCancelled */\n      0x08\n        /* \"contracts/Manager/UnemetaMarket.sol\":10012:10061  _theUserOrderExecutedOrCancelled[makerBid.signer] */\n      0x00\n        /* \"contracts/Manager/UnemetaMarket.sol\":10045:10060  makerBid.signer */\n      tag_264\n      0x40\n      dup10\n      add\n      0x20\n      dup11\n      add\n      tag_38\n      jump\t// in\n    tag_264:\n        /* \"contracts/Manager/UnemetaMarket.sol\":10012:10061  _theUserOrderExecutedOrCancelled[makerBid.signer] */\n      0xffffffffffffffffffffffffffffffffffffffff\n      and\n      dup2\n      mstore\n      0x20\n      dup1\n      dup3\n      add\n      swap3\n      swap1\n      swap3\n      mstore\n      0x40\n      swap1\n      dup2\n      add\n      0x00\n      swap1\n      dup2\n      keccak256\n        /* \"contracts/Manager/UnemetaMarket.sol\":10062:10076  makerBid.nonce */\n      0x0100\n      dup11\n      add\n      calldataload\n        /* \"contracts/Manager/UnemetaMarket.sol\":10012:10077  _theUserOrderExecutedOrCancelled[makerBid.signer][makerBid.nonce] */\n      dup3\n      mstore\n      swap1\n      swap3\n      mstore\n      swap1\n      dup2\n      swap1\n      keccak256\n        /* \"contracts/Manager/UnemetaMarket.sol\":10012:10084  _theUserOrderExecutedOrCancelled[makerBid.signer][makerBid.nonce] = true */\n      dup1\n      sload\n      0xffffffffffffffffffffffffffffffffffffffffffffffffffffffffffffff00\n      and\n      swap3\n      iszero\n      iszero\n      swap3\n      swap1\n      swap3\n      or\n      swap1\n      swap2\n      sstore\n        /* \"contracts/Manager/UnemetaMarket.sol\":10119:10272  _transferNonFungibleToken(... */\n      tag_265\n      swap1\n        /* \"contracts/Manager/UnemetaMarket.sol\":10158:10177  makerBid.collection */\n      tag_266\n      swap1\n      0x60\n      dup9\n      add\n      swap1\n      dup9\n      add\n      tag_38\n      jump\t// in\n    tag_266:\n        /* \"contracts/Manager/UnemetaMarket.sol\":10191:10201  msg.sender */\n      caller\n        /* \"contracts/Manager/UnemetaMarket.sol\":10215:10230  makerBid.signer */\n      tag_173\n      0x40\n      dup10\n      add\n      0x20\n      dup11\n      add\n      tag_38\n      jump\t// in\n        /* \"contracts/Manager/UnemetaMarket.sol\":10119:10272  _transferNonFungibleToken(... */\n    tag_265:\n        /* \"contracts/Manager/UnemetaMarket.sol\":10308:10581  _transferFeesAndFunds(... */\n      tag_268\n        /* \"contracts/Manager/UnemetaMarket.sol\":10343:10360  makerBid.strategy */\n      tag_269\n      0xe0\n      dup8\n      add\n      0xc0\n      dup9\n      add\n      tag_38\n      jump\t// in\n    tag_269:\n        /* \"contracts/Manager/UnemetaMarket.sol\":10374:10393  makerBid.collection */\n      tag_270\n      0x60\n      dup9\n      add\n      0x40\n      dup10\n      add\n      tag_38\n      jump\t// in\n    tag_270:\n        /* \"contracts/Manager/UnemetaMarket.sol\":10407:10414  tokenId */\n      dup5\n        /* \"contracts/Manager/UnemetaMarket.sol\":10428:10445  makerBid.currency */\n      tag_271\n      0x0100\n      dup11\n      add\n      0xe0\n      dup12\n      add\n      tag_38\n      jump\t// in\n    tag_271:\n        /* \"contracts/Manager/UnemetaMarket.sol\":10459:10474  makerBid.signer */\n      tag_272\n      0x40\n      dup12\n      add\n      0x20\n      dup13\n      add\n      tag_38\n      jump\t// in\n    tag_272:\n        /* \"contracts/Manager/UnemetaMarket.sol\":10488:10502  takerAsk.taker */\n      tag_273\n      0x40\n      dup14\n      add\n      0x20\n      dup15\n      add\n      tag_38\n      jump\t// in\n    tag_273:\n        /* \"contracts/Manager/UnemetaMarket.sol\":10516:10524  takerAsk */\n      dup13\n        /* \"contracts/Manager/UnemetaMarket.sol\":10516:10530  takerAsk.price */\n      0x40\n      add\n      calldataload\n        /* \"contracts/Manager/UnemetaMarket.sol\":10544:10552  takerAsk */\n      dup14\n        /* \"contracts/Manager/UnemetaMarket.sol\":10544:10571  takerAsk.minPercentageToAsk */\n      0x80\n      add\n      calldataload\n        /* \"contracts/Manager/UnemetaMarket.sol\":10308:10329  _transferFeesAndFunds */\n      tag_169\n        /* \"contracts/Manager/UnemetaMarket.sol\":10308:10581  _transferFeesAndFunds(... */\n      jump\t// in\n    tag_268:\n        /* \"contracts/Manager/UnemetaMarket.sol\":10725:10742  makerBid.strategy */\n      tag_274\n      0xe0\n      dup7\n      add\n      0xc0\n      dup8\n      add\n      tag_38\n      jump\t// in\n    tag_274:\n        /* \"contracts/Manager/UnemetaMarket.sol\":10597:10885  TakerAsk(... */\n      0xffffffffffffffffffffffffffffffffffffffff\n      and\n        /* \"contracts/Manager/UnemetaMarket.sol\":10696:10711  makerBid.signer */\n      tag_275\n      0x40\n      dup8\n      add\n      0x20\n      dup9\n      add\n      tag_38\n      jump\t// in\n    tag_275:\n        /* \"contracts/Manager/UnemetaMarket.sol\":10597:10885  TakerAsk(... */\n      0xffffffffffffffffffffffffffffffffffffffff\n      and\n        /* \"contracts/Manager/UnemetaMarket.sol\":10668:10682  takerAsk.taker */\n      tag_276\n      0x40\n      dup10\n      add\n      0x20\n      dup11\n      add\n      tag_38\n      jump\t// in\n    tag_276:\n        /* \"contracts/Manager/UnemetaMarket.sol\":10597:10885  TakerAsk(... */\n      0xffffffffffffffffffffffffffffffffffffffff\n      and\n      0x68cd251d4d267c6e2034ff0088b990352b97b2002c0476587d0c4da889c11330\n        /* \"contracts/Manager/UnemetaMarket.sol\":10619:10626  bidHash */\n      dup8\n        /* \"contracts/Manager/UnemetaMarket.sol\":10640:10654  makerBid.nonce */\n      0x0100\n      dup11\n      add\n      dup1\n      calldataload\n      swap1\n        /* \"contracts/Manager/UnemetaMarket.sol\":10756:10773  makerBid.currency */\n      tag_178\n      swap1\n      0xe0\n      dup14\n      add\n      tag_38\n      jump\t// in\n        /* \"@openzeppelin/contracts/access/Ownable.sol\":1831:1932  function renounceOwnership() public virtual onlyOwner {... */\n    tag_86:\n        /* \"@openzeppelin/contracts/access/Ownable.sol\":1094:1107  _checkOwner() */\n      tag_281\n        /* \"@openzeppelin/contracts/access/Ownable.sol\":1094:1105  _checkOwner */\n      tag_128\n        /* \"@openzeppelin/contracts/access/Ownable.sol\":1094:1107  _checkOwner() */\n      jump\t// in\n    tag_281:\n        /* \"@openzeppelin/contracts/access/Ownable.sol\":1895:1925  _transferOwnership(address(0)) */\n      tag_283\n        /* \"@openzeppelin/contracts/access/Ownable.sol\":1922:1923  0 */\n      0x00\n        /* \"@openzeppelin/contracts/access/Ownable.sol\":1895:1913  _transferOwnership */\n      tag_284\n        /* \"@openzeppelin/contracts/access/Ownable.sol\":1895:1925  _transferOwnership(address(0)) */\n      jump\t// in\n    tag_283:\n        /* \"@openzeppelin/contracts/access/Ownable.sol\":1831:1932  function renounceOwnership() public virtual onlyOwner {... */\n      jump\t// out\n        /* \"contracts/Manager/UnemetaMarket.sol\":11688:12161  function cancelMultipleMakerOrders(uint256[] calldata NonceList) external {... */\n    tag_100:\n        /* \"contracts/Manager/UnemetaMarket.sol\":11780:11800  NonceList.length > 0 */\n      dup1\n        /* \"contracts/Manager/UnemetaMarket.sol\":11772:11832  require(NonceList.length > 0, \"Cannot be empty Cancel list\") */\n      tag_287\n      jumpi\n      mload(0x40)\n      0x08c379a000000000000000000000000000000000000000000000000000000000\n      dup2\n      mstore\n        /* \"#utility.yul\":15572:15574   */\n      0x20\n        /* \"contracts/Manager/UnemetaMarket.sol\":11772:11832  require(NonceList.length > 0, \"Cannot be empty Cancel list\") */\n      0x04\n      dup3\n      add\n        /* \"#utility.yul\":15554:15575   */\n      mstore\n        /* \"#utility.yul\":15611:15613   */\n      0x1b\n        /* \"#utility.yul\":15591:15609   */\n      0x24\n      dup3\n      add\n        /* \"#utility.yul\":15584:15614   */\n      mstore\n        /* \"#utility.yul\":15650:15679   */\n      0x43616e6e6f7420626520656d7074792043616e63656c206c6973740000000000\n        /* \"#utility.yul\":15630:15648   */\n      0x44\n      dup3\n      add\n        /* \"#utility.yul\":15623:15680   */\n      mstore\n        /* \"#utility.yul\":15697:15715   */\n      0x64\n      add\n        /* \"contracts/Manager/UnemetaMarket.sol\":11772:11832  require(NonceList.length > 0, \"Cannot be empty Cancel list\") */\n      tag_133\n        /* \"#utility.yul\":15370:15721   */\n      jump\n        /* \"contracts/Manager/UnemetaMarket.sol\":11772:11832  require(NonceList.length > 0, \"Cannot be empty Cancel list\") */\n    tag_287:\n        /* \"contracts/Manager/UnemetaMarket.sol\":11848:11857  uint256 i */\n      0x00\n        /* \"contracts/Manager/UnemetaMarket.sol\":11843:12096  for (uint256 i = 0; i < NonceList.length; i++) {... */\n    tag_290:\n        /* \"contracts/Manager/UnemetaMarket.sol\":11863:11883  i < NonceList.length */\n      dup2\n      dup2\n      lt\n        /* \"contracts/Manager/UnemetaMarket.sol\":11843:12096  for (uint256 i = 0; i < NonceList.length; i++) {... */\n      iszero\n      tag_291\n      jumpi\n        /* \"contracts/Manager/UnemetaMarket.sol\":11946:11956  msg.sender */\n      caller\n        /* \"contracts/Manager/UnemetaMarket.sol\":11928:11957  userMinOrderNonce[msg.sender] */\n      0x00\n      swap1\n      dup2\n      mstore\n        /* \"contracts/Manager/UnemetaMarket.sol\":11928:11945  userMinOrderNonce */\n      0x07\n        /* \"contracts/Manager/UnemetaMarket.sol\":11928:11957  userMinOrderNonce[msg.sender] */\n      0x20\n      mstore\n      0x40\n      swap1\n      keccak256\n      sload\n        /* \"contracts/Manager/UnemetaMarket.sol\":11912:11921  NonceList */\n      dup4\n      dup4\n        /* \"contracts/Manager/UnemetaMarket.sol\":11922:11923  i */\n      dup4\n        /* \"contracts/Manager/UnemetaMarket.sol\":11912:11924  NonceList[i] */\n      dup2\n      dup2\n      lt\n      tag_294\n      jumpi\n      tag_294\n      tag_295\n      jump\t// in\n    tag_294:\n      swap1\n      pop\n      0x20\n      mul\n      add\n      calldataload\n        /* \"contracts/Manager/UnemetaMarket.sol\":11912:11957  NonceList[i] >= userMinOrderNonce[msg.sender] */\n      lt\n      iszero\n        /* \"contracts/Manager/UnemetaMarket.sol\":11904:12006  require(NonceList[i] >= userMinOrderNonce[msg.sender], \"Cancel Order nonce cannot lower than current\") */\n      tag_296\n      jumpi\n      mload(0x40)\n      0x08c379a000000000000000000000000000000000000000000000000000000000\n      dup2\n      mstore\n        /* \"#utility.yul\":16117:16119   */\n      0x20\n        /* \"contracts/Manager/UnemetaMarket.sol\":11904:12006  require(NonceList[i] >= userMinOrderNonce[msg.sender], \"Cancel Order nonce cannot lower than current\") */\n      0x04\n      dup3\n      add\n        /* \"#utility.yul\":16099:16120   */\n      mstore\n        /* \"#utility.yul\":16156:16158   */\n      0x2c\n        /* \"#utility.yul\":16136:16154   */\n      0x24\n      dup3\n      add\n        /* \"#utility.yul\":16129:16159   */\n      mstore\n        /* \"#utility.yul\":16195:16229   */\n      0x43616e63656c204f72646572206e6f6e63652063616e6e6f74206c6f77657220\n        /* \"#utility.yul\":16175:16193   */\n      0x44\n      dup3\n      add\n        /* \"#utility.yul\":16168:16230   */\n      mstore\n        /* \"#utility.yul\":16266:16280   */\n      0x7468616e2063757272656e740000000000000000000000000000000000000000\n        /* \"#utility.yul\":16246:16264   */\n      0x64\n      dup3\n      add\n        /* \"#utility.yul\":16239:16281   */\n      mstore\n        /* \"#utility.yul\":16298:16317   */\n      0x84\n      add\n        /* \"contracts/Manager/UnemetaMarket.sol\":11904:12006  require(NonceList[i] >= userMinOrderNonce[msg.sender], \"Cancel Order nonce cannot lower than current\") */\n      tag_133\n        /* \"#utility.yul\":15915:16323   */\n      jump\n        /* \"contracts/Manager/UnemetaMarket.sol\":11904:12006  require(NonceList[i] >= userMinOrderNonce[msg.sender], \"Cancel Order nonce cannot lower than current\") */\n    tag_296:\n        /* \"contracts/Manager/UnemetaMarket.sol\":12053:12063  msg.sender */\n      caller\n        /* \"contracts/Manager/UnemetaMarket.sol\":12020:12064  _theUserOrderExecutedOrCancelled[msg.sender] */\n      0x00\n      swap1\n      dup2\n      mstore\n        /* \"contracts/Manager/UnemetaMarket.sol\":12020:12052  _theUserOrderExecutedOrCancelled */\n      0x08\n        /* \"contracts/Manager/UnemetaMarket.sol\":12020:12064  _theUserOrderExecutedOrCancelled[msg.sender] */\n      0x20\n      mstore\n      0x40\n      dup2\n      keccak256\n        /* \"contracts/Manager/UnemetaMarket.sol\":12081:12085  true */\n      0x01\n      swap2\n        /* \"contracts/Manager/UnemetaMarket.sol\":12065:12074  NonceList */\n      dup6\n      dup6\n        /* \"contracts/Manager/UnemetaMarket.sol\":12075:12076  i */\n      dup6\n        /* \"contracts/Manager/UnemetaMarket.sol\":12065:12077  NonceList[i] */\n      dup2\n      dup2\n      lt\n      tag_300\n      jumpi\n      tag_300\n      tag_295\n      jump\t// in\n    tag_300:\n      swap1\n      pop\n      0x20\n      mul\n      add\n      calldataload\n        /* \"contracts/Manager/UnemetaMarket.sol\":12020:12078  _theUserOrderExecutedOrCancelled[msg.sender][NonceList[i]] */\n      dup2\n      mstore\n      0x20\n      add\n      swap1\n      dup2\n      mstore\n      0x20\n      add\n      0x00\n      keccak256\n      0x00\n        /* \"contracts/Manager/UnemetaMarket.sol\":12020:12085  _theUserOrderExecutedOrCancelled[msg.sender][NonceList[i]] = true */\n      0x0100\n      exp\n      dup2\n      sload\n      dup2\n      0xff\n      mul\n      not\n      and\n      swap1\n      dup4\n      iszero\n      iszero\n      mul\n      or\n      swap1\n      sstore\n      pop\n        /* \"contracts/Manager/UnemetaMarket.sol\":11885:11888  i++ */\n      dup1\n      dup1\n      tag_301\n      swap1\n      tag_302\n      jump\t// in\n    tag_301:\n      swap2\n      pop\n      pop\n        /* \"contracts/Manager/UnemetaMarket.sol\":11843:12096  for (uint256 i = 0; i < NonceList.length; i++) {... */\n      jump(tag_290)\n    tag_291:\n      pop\n        /* \"contracts/Manager/UnemetaMarket.sol\":12132:12142  msg.sender */\n      caller\n        /* \"contracts/Manager/UnemetaMarket.sol\":12111:12154  CancelMultipleOrders(msg.sender, NonceList) */\n      0xffffffffffffffffffffffffffffffffffffffff\n      and\n      0xfa0ae5d80fe3763c880a3839fab0294171a6f730d1f82c4cd5392c6f67b41732\n        /* \"contracts/Manager/UnemetaMarket.sol\":12144:12153  NonceList */\n      dup4\n      dup4\n        /* \"contracts/Manager/UnemetaMarket.sol\":12111:12154  CancelMultipleOrders(msg.sender, NonceList) */\n      mload(0x40)\n      tag_303\n      swap3\n      swap2\n      swap1\n      tag_304\n      jump\t// in\n    tag_303:\n      mload(0x40)\n      dup1\n      swap2\n      sub\n      swap1\n      log2\n        /* \"contracts/Manager/UnemetaMarket.sol\":11688:12161  function cancelMultipleMakerOrders(uint256[] calldata NonceList) external {... */\n      pop\n      pop\n      jump\t// out\n        /* \"contracts/Manager/UnemetaMarket.sol\":22542:22837  function updateRoyaltyFeeManager(address _royaltyFeeManager) external onlyOwner {... */\n    tag_108:\n        /* \"@openzeppelin/contracts/access/Ownable.sol\":1094:1107  _checkOwner() */\n      tag_306\n        /* \"@openzeppelin/contracts/access/Ownable.sol\":1094:1105  _checkOwner */\n      tag_128\n        /* \"@openzeppelin/contracts/access/Ownable.sol\":1094:1107  _checkOwner() */\n      jump\t// in\n    tag_306:\n        /* \"contracts/Manager/UnemetaMarket.sol\":22640:22672  _royaltyFeeManager != address(0) */\n      0xffffffffffffffffffffffffffffffffffffffff\n      dup2\n      and\n        /* \"contracts/Manager/UnemetaMarket.sol\":22632:22708  require(_royaltyFeeManager != address(0), \"Cannot update to a null address\") */\n      tag_308\n      jumpi\n      mload(0x40)\n      0x08c379a000000000000000000000000000000000000000000000000000000000\n      dup2\n      mstore\n        /* \"#utility.yul\":15212:15214   */\n      0x20\n        /* \"contracts/Manager/UnemetaMarket.sol\":22632:22708  require(_royaltyFeeManager != address(0), \"Cannot update to a null address\") */\n      0x04\n      dup3\n      add\n        /* \"#utility.yul\":15194:15215   */\n      mstore\n        /* \"#utility.yul\":15251:15253   */\n      0x1f\n        /* \"#utility.yul\":15231:15249   */\n      0x24\n      dup3\n      add\n        /* \"#utility.yul\":15224:15254   */\n      mstore\n        /* \"#utility.yul\":15290:15323   */\n      0x43616e6e6f742075706461746520746f2061206e756c6c206164647265737300\n        /* \"#utility.yul\":15270:15288   */\n      0x44\n      dup3\n      add\n        /* \"#utility.yul\":15263:15324   */\n      mstore\n        /* \"#utility.yul\":15341:15359   */\n      0x64\n      add\n        /* \"contracts/Manager/UnemetaMarket.sol\":22632:22708  require(_royaltyFeeManager != address(0), \"Cannot update to a null address\") */\n      tag_133\n        /* \"#utility.yul\":15010:15365   */\n      jump\n        /* \"contracts/Manager/UnemetaMarket.sol\":22632:22708  require(_royaltyFeeManager != address(0), \"Cannot update to a null address\") */\n    tag_308:\n        /* \"contracts/Manager/UnemetaMarket.sol\":22718:22735  royaltyFeeManager */\n      0x05\n        /* \"contracts/Manager/UnemetaMarket.sol\":22718:22775  royaltyFeeManager = TheRoyaltyManager(_royaltyFeeManager) */\n      dup1\n      sload\n      0xffffffffffffffffffffffff0000000000000000000000000000000000000000\n      and\n      0xffffffffffffffffffffffffffffffffffffffff\n      dup4\n      and\n      swap1\n      dup2\n      or\n      swap1\n      swap2\n      sstore\n        /* \"contracts/Manager/UnemetaMarket.sol\":22790:22830  NewRoyaltyFeeManager(_royaltyFeeManager) */\n      mload(0x40)\n      0x80e3874461ebbd918ac3e81da0a92e5e51387d70f337237c9123e48d20e5a508\n      swap1\n      0x00\n      swap1\n      log2\n        /* \"contracts/Manager/UnemetaMarket.sol\":22542:22837  function updateRoyaltyFeeManager(address _royaltyFeeManager) external onlyOwner {... */\n      pop\n      jump\t// out\n        /* \"contracts/Manager/UnemetaMarket.sol\":11044:11519  function cancelAllOrdersForSender(uint256 minNonce) external {... */\n    tag_113:\n        /* \"contracts/Manager/UnemetaMarket.sol\":11152:11162  msg.sender */\n      caller\n        /* \"contracts/Manager/UnemetaMarket.sol\":11134:11163  userMinOrderNonce[msg.sender] */\n      0x00\n      swap1\n      dup2\n      mstore\n        /* \"contracts/Manager/UnemetaMarket.sol\":11134:11151  userMinOrderNonce */\n      0x07\n        /* \"contracts/Manager/UnemetaMarket.sol\":11134:11163  userMinOrderNonce[msg.sender] */\n      0x20\n      mstore\n      0x40\n      swap1\n      keccak256\n      sload\n        /* \"contracts/Manager/UnemetaMarket.sol\":11123:11163  minNonce > userMinOrderNonce[msg.sender] */\n      dup2\n      gt\n        /* \"contracts/Manager/UnemetaMarket.sol\":11115:11212  require(minNonce > userMinOrderNonce[msg.sender], \"Cancel Order nonce cannot lower than current\") */\n      tag_311\n      jumpi\n      mload(0x40)\n      0x08c379a000000000000000000000000000000000000000000000000000000000\n      dup2\n      mstore\n        /* \"#utility.yul\":16117:16119   */\n      0x20\n        /* \"contracts/Manager/UnemetaMarket.sol\":11115:11212  require(minNonce > userMinOrderNonce[msg.sender], \"Cancel Order nonce cannot lower than current\") */\n      0x04\n      dup3\n      add\n        /* \"#utility.yul\":16099:16120   */\n      mstore\n        /* \"#utility.yul\":16156:16158   */\n      0x2c\n        /* \"#utility.yul\":16136:16154   */\n      0x24\n      dup3\n      add\n        /* \"#utility.yul\":16129:16159   */\n      mstore\n        /* \"#utility.yul\":16195:16229   */\n      0x43616e63656c204f72646572206e6f6e63652063616e6e6f74206c6f77657220\n        /* \"#utility.yul\":16175:16193   */\n      0x44\n      dup3\n      add\n        /* \"#utility.yul\":16168:16230   */\n      mstore\n        /* \"#utility.yul\":16266:16280   */\n      0x7468616e2063757272656e740000000000000000000000000000000000000000\n        /* \"#utility.yul\":16246:16264   */\n      0x64\n      dup3\n      add\n        /* \"#utility.yul\":16239:16281   */\n      mstore\n        /* \"#utility.yul\":16298:16317   */\n      0x84\n      add\n        /* \"contracts/Manager/UnemetaMarket.sol\":11115:11212  require(minNonce > userMinOrderNonce[msg.sender], \"Cancel Order nonce cannot lower than current\") */\n      tag_133\n        /* \"#utility.yul\":15915:16323   */\n      jump\n        /* \"contracts/Manager/UnemetaMarket.sol\":11115:11212  require(minNonce > userMinOrderNonce[msg.sender], \"Cancel Order nonce cannot lower than current\") */\n    tag_311:\n        /* \"contracts/Manager/UnemetaMarket.sol\":11259:11269  msg.sender */\n      caller\n        /* \"contracts/Manager/UnemetaMarket.sol\":11241:11270  userMinOrderNonce[msg.sender] */\n      0x00\n      swap1\n      dup2\n      mstore\n        /* \"contracts/Manager/UnemetaMarket.sol\":11241:11258  userMinOrderNonce */\n      0x07\n        /* \"contracts/Manager/UnemetaMarket.sol\":11241:11270  userMinOrderNonce[msg.sender] */\n      0x20\n      mstore\n      0x40\n      swap1\n      keccak256\n      sload\n        /* \"contracts/Manager/UnemetaMarket.sol\":11241:11279  userMinOrderNonce[msg.sender] + 500000 */\n      tag_313\n      swap1\n        /* \"contracts/Manager/UnemetaMarket.sol\":11273:11279  500000 */\n      0x07a120\n        /* \"contracts/Manager/UnemetaMarket.sol\":11241:11279  userMinOrderNonce[msg.sender] + 500000 */\n      tag_314\n      jump\t// in\n    tag_313:\n        /* \"contracts/Manager/UnemetaMarket.sol\":11230:11238  minNonce */\n      dup2\n        /* \"contracts/Manager/UnemetaMarket.sol\":11230:11279  minNonce < userMinOrderNonce[msg.sender] + 500000 */\n      lt\n        /* \"contracts/Manager/UnemetaMarket.sol\":11222:11313  require(minNonce < userMinOrderNonce[msg.sender] + 500000, \"Cannot cancel too many orders\") */\n      tag_315\n      jumpi\n      mload(0x40)\n      0x08c379a000000000000000000000000000000000000000000000000000000000\n      dup2\n      mstore\n        /* \"#utility.yul\":17355:17357   */\n      0x20\n        /* \"contracts/Manager/UnemetaMarket.sol\":11222:11313  require(minNonce < userMinOrderNonce[msg.sender] + 500000, \"Cannot cancel too many orders\") */\n      0x04\n      dup3\n      add\n        /* \"#utility.yul\":17337:17358   */\n      mstore\n        /* \"#utility.yul\":17394:17396   */\n      0x1d\n        /* \"#utility.yul\":17374:17392   */\n      0x24\n      dup3\n      add\n        /* \"#utility.yul\":17367:17397   */\n      mstore\n        /* \"#utility.yul\":17433:17464   */\n      0x43616e6e6f742063616e63656c20746f6f206d616e79206f7264657273000000\n        /* \"#utility.yul\":17413:17431   */\n      0x44\n      dup3\n      add\n        /* \"#utility.yul\":17406:17465   */\n      mstore\n        /* \"#utility.yul\":17482:17500   */\n      0x64\n      add\n        /* \"contracts/Manager/UnemetaMarket.sol\":11222:11313  require(minNonce < userMinOrderNonce[msg.sender] + 500000, \"Cannot cancel too many orders\") */\n      tag_133\n        /* \"#utility.yul\":17153:17506   */\n      jump\n        /* \"contracts/Manager/UnemetaMarket.sol\":11222:11313  require(minNonce < userMinOrderNonce[msg.sender] + 500000, \"Cannot cancel too many orders\") */\n    tag_315:\n        /* \"contracts/Manager/UnemetaMarket.sol\":11437:11447  msg.sender */\n      caller\n        /* \"contracts/Manager/UnemetaMarket.sol\":11419:11448  userMinOrderNonce[msg.sender] */\n      0x00\n      dup2\n      dup2\n      mstore\n        /* \"contracts/Manager/UnemetaMarket.sol\":11419:11436  userMinOrderNonce */\n      0x07\n        /* \"contracts/Manager/UnemetaMarket.sol\":11419:11448  userMinOrderNonce[msg.sender] */\n      0x20\n      mstore\n      0x40\n      swap1\n      dup2\n      swap1\n      keccak256\n        /* \"contracts/Manager/UnemetaMarket.sol\":11419:11459  userMinOrderNonce[msg.sender] = minNonce */\n      dup4\n      swap1\n      sstore\n        /* \"contracts/Manager/UnemetaMarket.sol\":11475:11512  CancelAllOrders(msg.sender, minNonce) */\n      mload\n      0x1e7178d84f0b0825c65795cd62e7972809ad3aac6917843aaec596161b2c0a97\n      swap1\n      tag_318\n      swap1\n        /* \"contracts/Manager/UnemetaMarket.sol\":11451:11459  minNonce */\n      dup5\n        /* \"#utility.yul\":1576:1601   */\n      dup2\n      mstore\n        /* \"#utility.yul\":1564:1566   */\n      0x20\n        /* \"#utility.yul\":1549:1567   */\n      add\n      swap1\n        /* \"#utility.yul\":1430:1607   */\n      jump\n        /* \"contracts/Manager/UnemetaMarket.sol\":11475:11512  CancelAllOrders(msg.sender, minNonce) */\n    tag_318:\n      mload(0x40)\n      dup1\n      swap2\n      sub\n      swap1\n      log2\n        /* \"contracts/Manager/UnemetaMarket.sol\":11044:11519  function cancelAllOrdersForSender(uint256 minNonce) external {... */\n      pop\n      jump\t// out\n        /* \"contracts/Manager/UnemetaMarket.sol\":21719:22002  function updateExecutionManager(address _executionManager) external onlyOwner {... */\n    tag_117:\n        /* \"@openzeppelin/contracts/access/Ownable.sol\":1094:1107  _checkOwner() */\n      tag_320\n        /* \"@openzeppelin/contracts/access/Ownable.sol\":1094:1105  _checkOwner */\n      tag_128\n        /* \"@openzeppelin/contracts/access/Ownable.sol\":1094:1107  _checkOwner() */\n      jump\t// in\n    tag_320:\n        /* \"contracts/Manager/UnemetaMarket.sol\":21815:21846  _executionManager != address(0) */\n      0xffffffffffffffffffffffffffffffffffffffff\n      dup2\n      and\n        /* \"contracts/Manager/UnemetaMarket.sol\":21807:21882  require(_executionManager != address(0), \"Cannot update to a null address\") */\n      tag_322\n      jumpi\n      mload(0x40)\n      0x08c379a000000000000000000000000000000000000000000000000000000000\n      dup2\n      mstore\n        /* \"#utility.yul\":15212:15214   */\n      0x20\n        /* \"contracts/Manager/UnemetaMarket.sol\":21807:21882  require(_executionManager != address(0), \"Cannot update to a null address\") */\n      0x04\n      dup3\n      add\n        /* \"#utility.yul\":15194:15215   */\n      mstore\n        /* \"#utility.yul\":15251:15253   */\n      0x1f\n        /* \"#utility.yul\":15231:15249   */\n      0x24\n      dup3\n      add\n        /* \"#utility.yul\":15224:15254   */\n      mstore\n        /* \"#utility.yul\":15290:15323   */\n      0x43616e6e6f742075706461746520746f2061206e756c6c206164647265737300\n        /* \"#utility.yul\":15270:15288   */\n      0x44\n      dup3\n      add\n        /* \"#utility.yul\":15263:15324   */\n      mstore\n        /* \"#utility.yul\":15341:15359   */\n      0x64\n      add\n        /* \"contracts/Manager/UnemetaMarket.sol\":21807:21882  require(_executionManager != address(0), \"Cannot update to a null address\") */\n      tag_133\n        /* \"#utility.yul\":15010:15365   */\n      jump\n        /* \"contracts/Manager/UnemetaMarket.sol\":21807:21882  require(_executionManager != address(0), \"Cannot update to a null address\") */\n    tag_322:\n        /* \"contracts/Manager/UnemetaMarket.sol\":21892:21908  executionManager */\n      0x04\n        /* \"contracts/Manager/UnemetaMarket.sol\":21892:21942  executionManager = TheExManager(_executionManager) */\n      dup1\n      sload\n      0xffffffffffffffffffffffff0000000000000000000000000000000000000000\n      and\n      0xffffffffffffffffffffffffffffffffffffffff\n      dup4\n      and\n      swap1\n      dup2\n      or\n      swap1\n      swap2\n      sstore\n        /* \"contracts/Manager/UnemetaMarket.sol\":21957:21995  NewExecutionManager(_executionManager) */\n      mload(0x40)\n      0x36e2a376eabc3bc60cb88f29c288f53e36874a95a7f407330ab4f166b0905698\n      swap1\n      0x00\n      swap1\n      log2\n        /* \"contracts/Manager/UnemetaMarket.sol\":21719:22002  function updateExecutionManager(address _executionManager) external onlyOwner {... */\n      pop\n      jump\t// out\n        /* \"@openzeppelin/contracts/access/Ownable.sol\":2081:2279  function transferOwnership(address newOwner) public virtual onlyOwner {... */\n    tag_121:\n        /* \"@openzeppelin/contracts/access/Ownable.sol\":1094:1107  _checkOwner() */\n      tag_325\n        /* \"@openzeppelin/contracts/access/Ownable.sol\":1094:1105  _checkOwner */\n      tag_128\n        /* \"@openzeppelin/contracts/access/Ownable.sol\":1094:1107  _checkOwner() */\n      jump\t// in\n    tag_325:\n        /* \"@openzeppelin/contracts/access/Ownable.sol\":2169:2191  newOwner != address(0) */\n      0xffffffffffffffffffffffffffffffffffffffff\n      dup2\n      and\n        /* \"@openzeppelin/contracts/access/Ownable.sol\":2161:2234  require(newOwner != address(0), \"Ownable: new owner is the zero address\") */\n      tag_327\n      jumpi\n      mload(0x40)\n      0x08c379a000000000000000000000000000000000000000000000000000000000\n      dup2\n      mstore\n        /* \"#utility.yul\":17713:17715   */\n      0x20\n        /* \"@openzeppelin/contracts/access/Ownable.sol\":2161:2234  require(newOwner != address(0), \"Ownable: new owner is the zero address\") */\n      0x04\n      dup3\n      add\n        /* \"#utility.yul\":17695:17716   */\n      mstore\n        /* \"#utility.yul\":17752:17754   */\n      0x26\n        /* \"#utility.yul\":17732:17750   */\n      0x24\n      dup3\n      add\n        /* \"#utility.yul\":17725:17755   */\n      mstore\n        /* \"#utility.yul\":17791:17825   */\n      0x4f776e61626c653a206e6577206f776e657220697320746865207a65726f2061\n        /* \"#utility.yul\":17771:17789   */\n      0x44\n      dup3\n      add\n        /* \"#utility.yul\":17764:17826   */\n      mstore\n        /* \"#utility.yul\":17862:17870   */\n      0x6464726573730000000000000000000000000000000000000000000000000000\n        /* \"#utility.yul\":17842:17860   */\n      0x64\n      dup3\n      add\n        /* \"#utility.yul\":17835:17871   */\n      mstore\n        /* \"#utility.yul\":17888:17907   */\n      0x84\n      add\n        /* \"@openzeppelin/contracts/access/Ownable.sol\":2161:2234  require(newOwner != address(0), \"Ownable: new owner is the zero address\") */\n      tag_133\n        /* \"#utility.yul\":17511:17913   */\n      jump\n        /* \"@openzeppelin/contracts/access/Ownable.sol\":2161:2234  require(newOwner != address(0), \"Ownable: new owner is the zero address\") */\n    tag_327:\n        /* \"@openzeppelin/contracts/access/Ownable.sol\":2244:2272  _transferOwnership(newOwner) */\n      tag_330\n        /* \"@openzeppelin/contracts/access/Ownable.sol\":2263:2271  newOwner */\n      dup2\n        /* \"@openzeppelin/contracts/access/Ownable.sol\":2244:2262  _transferOwnership */\n      tag_284\n        /* \"@openzeppelin/contracts/access/Ownable.sol\":2244:2272  _transferOwnership(newOwner) */\n      jump\t// in\n    tag_330:\n        /* \"@openzeppelin/contracts/access/Ownable.sol\":2081:2279  function transferOwnership(address newOwner) public virtual onlyOwner {... */\n      pop\n      jump\t// out\n        /* \"contracts/Manager/UnemetaMarket.sol\":22993:23304  function updateTransferSelectorNFT(address _transferSelectorNFT) external onlyOwner {... */\n    tag_125:\n        /* \"@openzeppelin/contracts/access/Ownable.sol\":1094:1107  _checkOwner() */\n      tag_332\n        /* \"@openzeppelin/contracts/access/Ownable.sol\":1094:1105  _checkOwner */\n      tag_128\n        /* \"@openzeppelin/contracts/access/Ownable.sol\":1094:1107  _checkOwner() */\n      jump\t// in\n    tag_332:\n        /* \"contracts/Manager/UnemetaMarket.sol\":23095:23129  _transferSelectorNFT != address(0) */\n      0xffffffffffffffffffffffffffffffffffffffff\n      dup2\n      and\n        /* \"contracts/Manager/UnemetaMarket.sol\":23087:23165  require(_transferSelectorNFT != address(0), \"Cannot update to a null address\") */\n      tag_334\n      jumpi\n      mload(0x40)\n      0x08c379a000000000000000000000000000000000000000000000000000000000\n      dup2\n      mstore\n        /* \"#utility.yul\":15212:15214   */\n      0x20\n        /* \"contracts/Manager/UnemetaMarket.sol\":23087:23165  require(_transferSelectorNFT != address(0), \"Cannot update to a null address\") */\n      0x04\n      dup3\n      add\n        /* \"#utility.yul\":15194:15215   */\n      mstore\n        /* \"#utility.yul\":15251:15253   */\n      0x1f\n        /* \"#utility.yul\":15231:15249   */\n      0x24\n      dup3\n      add\n        /* \"#utility.yul\":15224:15254   */\n      mstore\n        /* \"#utility.yul\":15290:15323   */\n      0x43616e6e6f742075706461746520746f2061206e756c6c206164647265737300\n        /* \"#utility.yul\":15270:15288   */\n      0x44\n      dup3\n      add\n        /* \"#utility.yul\":15263:15324   */\n      mstore\n        /* \"#utility.yul\":15341:15359   */\n      0x64\n      add\n        /* \"contracts/Manager/UnemetaMarket.sol\":23087:23165  require(_transferSelectorNFT != address(0), \"Cannot update to a null address\") */\n      tag_133\n        /* \"#utility.yul\":15010:15365   */\n      jump\n        /* \"contracts/Manager/UnemetaMarket.sol\":23087:23165  require(_transferSelectorNFT != address(0), \"Cannot update to a null address\") */\n    tag_334:\n        /* \"contracts/Manager/UnemetaMarket.sol\":23175:23194  transferSelectorNFT */\n      0x06\n        /* \"contracts/Manager/UnemetaMarket.sol\":23175:23238  transferSelectorNFT = TheTransferSelector(_transferSelectorNFT) */\n      dup1\n      sload\n      0xffffffffffffffffffffffff0000000000000000000000000000000000000000\n      and\n      0xffffffffffffffffffffffffffffffffffffffff\n      dup4\n      and\n      swap1\n      dup2\n      or\n      swap1\n      swap2\n      sstore\n        /* \"contracts/Manager/UnemetaMarket.sol\":23253:23297  NewTransferSelectorNFT(_transferSelectorNFT) */\n      mload(0x40)\n      0x205d78ab41afe80bd6b6aaa5d7599d5300ff8690da3ab1302c1b552f7baf7d8c\n      swap1\n      0x00\n      swap1\n      log2\n        /* \"contracts/Manager/UnemetaMarket.sol\":22993:23304  function updateTransferSelectorNFT(address _transferSelectorNFT) external onlyOwner {... */\n      pop\n      jump\t// out\n        /* \"@openzeppelin/contracts/access/Ownable.sol\":1359:1489  function _checkOwner() internal view virtual {... */\n    tag_128:\n        /* \"@openzeppelin/contracts/access/Ownable.sol\":1273:1279  _owner */\n      sload(0x01)\n        /* \"@openzeppelin/contracts/access/Ownable.sol\":1422:1445  owner() == _msgSender() */\n      0xffffffffffffffffffffffffffffffffffffffff\n        /* \"@openzeppelin/contracts/access/Ownable.sol\":1273:1279  _owner */\n      and\n        /* \"@openzeppelin/contracts/utils/Context.sol\":719:729  msg.sender */\n      caller\n        /* \"@openzeppelin/contracts/access/Ownable.sol\":1422:1445  owner() == _msgSender() */\n      eq\n        /* \"@openzeppelin/contracts/access/Ownable.sol\":1414:1482  require(owner() == _msgSender(), \"Ownable: caller is not the owner\") */\n      tag_283\n      jumpi\n      mload(0x40)\n      0x08c379a000000000000000000000000000000000000000000000000000000000\n      dup2\n      mstore\n        /* \"#utility.yul\":18120:18122   */\n      0x20\n        /* \"@openzeppelin/contracts/access/Ownable.sol\":1414:1482  require(owner() == _msgSender(), \"Ownable: caller is not the owner\") */\n      0x04\n      dup3\n      add\n        /* \"#utility.yul\":18102:18123   */\n      dup2\n      swap1\n      mstore\n        /* \"#utility.yul\":18139:18157   */\n      0x24\n      dup3\n      add\n        /* \"#utility.yul\":18132:18162   */\n      mstore\n        /* \"#utility.yul\":18198:18232   */\n      0x4f776e61626c653a2063616c6c6572206973206e6f7420746865206f776e6572\n        /* \"#utility.yul\":18178:18196   */\n      0x44\n      dup3\n      add\n        /* \"#utility.yul\":18171:18233   */\n      mstore\n        /* \"#utility.yul\":18250:18268   */\n      0x64\n      add\n        /* \"@openzeppelin/contracts/access/Ownable.sol\":1414:1482  require(owner() == _msgSender(), \"Ownable: caller is not the owner\") */\n      tag_133\n        /* \"#utility.yul\":17918:18274   */\n      jump\n        /* \"contracts/libraries/OrderTypes.sol\":2084:2776  function hash(MakerOrder memory makerOrder) internal pure returns (bytes32) {... */\n    tag_150:\n        /* \"contracts/libraries/OrderTypes.sol\":2270:2291  makerOrder.isOrderAsk */\n      dup1\n      mload\n        /* \"contracts/libraries/OrderTypes.sol\":2309:2326  makerOrder.signer */\n      0x20\n      dup1\n      dup4\n      add\n      mload\n        /* \"contracts/libraries/OrderTypes.sol\":2344:2365  makerOrder.collection */\n      0x40\n      dup1\n      dup6\n      add\n      mload\n        /* \"contracts/libraries/OrderTypes.sol\":2383:2399  makerOrder.price */\n      0x60\n      dup7\n      add\n      mload\n        /* \"contracts/libraries/OrderTypes.sol\":2417:2435  makerOrder.tokenId */\n      0x80\n      dup8\n      add\n      mload\n        /* \"contracts/libraries/OrderTypes.sol\":2453:2470  makerOrder.amount */\n      0xa0\n      dup9\n      add\n      mload\n        /* \"contracts/libraries/OrderTypes.sol\":2488:2507  makerOrder.strategy */\n      0xc0\n      dup10\n      add\n      mload\n        /* \"contracts/libraries/OrderTypes.sol\":2525:2544  makerOrder.currency */\n      0xe0\n      dup11\n      add\n      mload\n        /* \"contracts/libraries/OrderTypes.sol\":2562:2578  makerOrder.nonce */\n      0x0100\n      dup12\n      add\n      mload\n        /* \"contracts/libraries/OrderTypes.sol\":2596:2616  makerOrder.startTime */\n      0x0120\n      dup13\n      add\n      mload\n        /* \"contracts/libraries/OrderTypes.sol\":2634:2652  makerOrder.endTime */\n      0x0140\n      dup14\n      add\n      mload\n        /* \"contracts/libraries/OrderTypes.sol\":2670:2699  makerOrder.minPercentageToAsk */\n      0x0160\n      dup15\n      add\n      mload\n        /* \"contracts/libraries/OrderTypes.sol\":2727:2744  makerOrder.params */\n      0x0180\n      dup16\n      add\n      mload\n        /* \"contracts/libraries/OrderTypes.sol\":2717:2745  keccak256(makerOrder.params) */\n      dup1\n      mload\n      swap1\n      dup15\n      add\n      keccak256\n        /* \"contracts/libraries/OrderTypes.sol\":2208:2759  abi.encode(... */\n      swap11\n      mload\n        /* \"contracts/libraries/OrderTypes.sol\":2151:2158  bytes32 */\n      0x00\n      swap15\n        /* \"contracts/libraries/OrderTypes.sol\":2208:2759  abi.encode(... */\n      tag_344\n      swap15\n        /* \"contracts/libraries/OrderTypes.sol\":592:658  0x40261ade532fa1d2c7293df30aaadb9b3c616fae525a0b56d3d411c841a85028 */\n      0x40261ade532fa1d2c7293df30aaadb9b3c616fae525a0b56d3d411c841a85028\n      swap15\n        /* \"contracts/libraries/OrderTypes.sol\":2270:2291  makerOrder.isOrderAsk */\n      swap2\n      swap14\n        /* \"contracts/libraries/OrderTypes.sol\":2309:2326  makerOrder.signer */\n      swap2\n      swap13\n        /* \"contracts/libraries/OrderTypes.sol\":2344:2365  makerOrder.collection */\n      swap12\n        /* \"contracts/libraries/OrderTypes.sol\":2383:2399  makerOrder.price */\n      swap11\n        /* \"contracts/libraries/OrderTypes.sol\":2417:2435  makerOrder.tokenId */\n      swap10\n        /* \"contracts/libraries/OrderTypes.sol\":2453:2470  makerOrder.amount */\n      swap9\n        /* \"contracts/libraries/OrderTypes.sol\":2488:2507  makerOrder.strategy */\n      swap8\n        /* \"contracts/libraries/OrderTypes.sol\":2525:2544  makerOrder.currency */\n      swap7\n        /* \"contracts/libraries/OrderTypes.sol\":2562:2578  makerOrder.nonce */\n      swap6\n        /* \"contracts/libraries/OrderTypes.sol\":2596:2616  makerOrder.startTime */\n      swap5\n        /* \"contracts/libraries/OrderTypes.sol\":2634:2652  makerOrder.endTime */\n      swap4\n        /* \"contracts/libraries/OrderTypes.sol\":2670:2699  makerOrder.minPercentageToAsk */\n      swap3\n        /* \"contracts/libraries/OrderTypes.sol\":2208:2759  abi.encode(... */\n      add\n      tag_345\n      jump\t// in\n    tag_344:\n      mload(0x40)\n      0x20\n      dup2\n      dup4\n      sub\n      sub\n      dup2\n      mstore\n      swap1\n      0x40\n      mstore\n        /* \"contracts/libraries/OrderTypes.sol\":2185:2769  keccak256(... */\n      dup1\n      mload\n      swap1\n      0x20\n      add\n      keccak256\n        /* \"contracts/libraries/OrderTypes.sol\":2170:2769  return... */\n      swap1\n      pop\n        /* \"contracts/libraries/OrderTypes.sol\":2084:2776  function hash(MakerOrder memory makerOrder) internal pure returns (bytes32) {... */\n      swap2\n      swap1\n      pop\n      jump\t// out\n        /* \"contracts/Manager/UnemetaMarket.sol\":19013:21124  function _validateOrder(OrderTypes.MakerOrder calldata Make, bytes32 Hash) internal view {... */\n    tag_152:\n        /* \"contracts/Manager/UnemetaMarket.sol\":19239:19271  _theUserOrderExecutedOrCancelled */\n      0x08\n        /* \"contracts/Manager/UnemetaMarket.sol\":19239:19284  _theUserOrderExecutedOrCancelled[Make.signer] */\n      0x00\n        /* \"contracts/Manager/UnemetaMarket.sol\":19272:19283  Make.signer */\n      tag_347\n      0x40\n      dup6\n      add\n      0x20\n      dup7\n      add\n      tag_38\n      jump\t// in\n    tag_347:\n        /* \"contracts/Manager/UnemetaMarket.sol\":19239:19284  _theUserOrderExecutedOrCancelled[Make.signer] */\n      0xffffffffffffffffffffffffffffffffffffffff\n      and\n      dup2\n      mstore\n      0x20\n      dup1\n      dup3\n      add\n      swap3\n      swap1\n      swap3\n      mstore\n      0x40\n      swap1\n      dup2\n      add\n      0x00\n      swap1\n      dup2\n      keccak256\n        /* \"contracts/Manager/UnemetaMarket.sol\":19285:19295  Make.nonce */\n      0x0100\n      dup7\n      add\n      calldataload\n        /* \"contracts/Manager/UnemetaMarket.sol\":19239:19296  _theUserOrderExecutedOrCancelled[Make.signer][Make.nonce] */\n      dup3\n      mstore\n      swap1\n      swap3\n      mstore\n      swap1\n      keccak256\n      sload\n      0xff\n      and\n        /* \"contracts/Manager/UnemetaMarket.sol\":19238:19296  !_theUserOrderExecutedOrCancelled[Make.signer][Make.nonce] */\n      iszero\n        /* \"contracts/Manager/UnemetaMarket.sol\":19237:19359  (!_theUserOrderExecutedOrCancelled[Make.signer][Make.nonce]) &&... */\n      dup1\n      iszero\n      tag_348\n      jumpi\n      pop\n        /* \"contracts/Manager/UnemetaMarket.sol\":19328:19345  userMinOrderNonce */\n      0x07\n        /* \"contracts/Manager/UnemetaMarket.sol\":19328:19358  userMinOrderNonce[Make.signer] */\n      0x00\n        /* \"contracts/Manager/UnemetaMarket.sol\":19346:19357  Make.signer */\n      tag_349\n      0x40\n      dup6\n      add\n      0x20\n      dup7\n      add\n      tag_38\n      jump\t// in\n    tag_349:\n        /* \"contracts/Manager/UnemetaMarket.sol\":19328:19358  userMinOrderNonce[Make.signer] */\n      0xffffffffffffffffffffffffffffffffffffffff\n      and\n      0xffffffffffffffffffffffffffffffffffffffff\n      and\n      dup2\n      mstore\n      0x20\n      add\n      swap1\n      dup2\n      mstore\n      0x20\n      add\n      0x00\n      keccak256\n      sload\n        /* \"contracts/Manager/UnemetaMarket.sol\":19314:19318  Make */\n      dup3\n        /* \"contracts/Manager/UnemetaMarket.sol\":19314:19324  Make.nonce */\n      0x0100\n      add\n      calldataload\n        /* \"contracts/Manager/UnemetaMarket.sol\":19314:19358  Make.nonce >= userMinOrderNonce[Make.signer] */\n      lt\n      iszero\n        /* \"contracts/Manager/UnemetaMarket.sol\":19237:19359  (!_theUserOrderExecutedOrCancelled[Make.signer][Make.nonce]) &&... */\n    tag_348:\n        /* \"contracts/Manager/UnemetaMarket.sol\":19162:19414  require(... */\n      tag_350\n      jumpi\n      mload(0x40)\n      0x08c379a000000000000000000000000000000000000000000000000000000000\n      dup2\n      mstore\n        /* \"#utility.yul\":19700:19702   */\n      0x20\n        /* \"contracts/Manager/UnemetaMarket.sol\":19162:19414  require(... */\n      0x04\n      dup3\n      add\n        /* \"#utility.yul\":19682:19703   */\n      mstore\n        /* \"#utility.yul\":19739:19741   */\n      0x1d\n        /* \"#utility.yul\":19719:19737   */\n      0x24\n      dup3\n      add\n        /* \"#utility.yul\":19712:19742   */\n      mstore\n        /* \"#utility.yul\":19778:19809   */\n      0x4f726465723a204d61746368696e67206f726465722065787069726564000000\n        /* \"#utility.yul\":19758:19776   */\n      0x44\n      dup3\n      add\n        /* \"#utility.yul\":19751:19810   */\n      mstore\n        /* \"#utility.yul\":19827:19845   */\n      0x64\n      add\n        /* \"contracts/Manager/UnemetaMarket.sol\":19162:19414  require(... */\n      tag_133\n        /* \"#utility.yul\":19498:19851   */\n      jump\n        /* \"contracts/Manager/UnemetaMarket.sol\":19162:19414  require(... */\n    tag_350:\n        /* \"contracts/Manager/UnemetaMarket.sol\":19497:19498  0 */\n      0x00\n        /* \"contracts/Manager/UnemetaMarket.sol\":19474:19485  Make.signer */\n      tag_353\n      0x40\n      dup5\n      add\n      0x20\n      dup6\n      add\n      tag_38\n      jump\t// in\n    tag_353:\n        /* \"contracts/Manager/UnemetaMarket.sol\":19474:19499  Make.signer != address(0) */\n      0xffffffffffffffffffffffffffffffffffffffff\n      and\n      sub\n        /* \"contracts/Manager/UnemetaMarket.sol\":19466:19547  require(Make.signer != address(0), \"The Order signer cannot be the zero address\") */\n      tag_354\n      jumpi\n      mload(0x40)\n      0x08c379a000000000000000000000000000000000000000000000000000000000\n      dup2\n      mstore\n        /* \"#utility.yul\":20058:20060   */\n      0x20\n        /* \"contracts/Manager/UnemetaMarket.sol\":19466:19547  require(Make.signer != address(0), \"The Order signer cannot be the zero address\") */\n      0x04\n      dup3\n      add\n        /* \"#utility.yul\":20040:20061   */\n      mstore\n        /* \"#utility.yul\":20097:20099   */\n      0x2b\n        /* \"#utility.yul\":20077:20095   */\n      0x24\n      dup3\n      add\n        /* \"#utility.yul\":20070:20100   */\n      mstore\n        /* \"#utility.yul\":20136:20170   */\n      0x546865204f72646572207369676e65722063616e6e6f7420626520746865207a\n        /* \"#utility.yul\":20116:20134   */\n      0x44\n      dup3\n      add\n        /* \"#utility.yul\":20109:20171   */\n      mstore\n        /* \"#utility.yul\":20207:20220   */\n      0x65726f2061646472657373000000000000000000000000000000000000000000\n        /* \"#utility.yul\":20187:20205   */\n      0x64\n      dup3\n      add\n        /* \"#utility.yul\":20180:20221   */\n      mstore\n        /* \"#utility.yul\":20238:20257   */\n      0x84\n      add\n        /* \"contracts/Manager/UnemetaMarket.sol\":19466:19547  require(Make.signer != address(0), \"The Order signer cannot be the zero address\") */\n      tag_133\n        /* \"#utility.yul\":19856:20263   */\n      jump\n        /* \"contracts/Manager/UnemetaMarket.sol\":19466:19547  require(Make.signer != address(0), \"The Order signer cannot be the zero address\") */\n    tag_354:\n        /* \"contracts/Manager/UnemetaMarket.sol\":19625:19626  0 */\n      0x00\n        /* \"contracts/Manager/UnemetaMarket.sol\":19611:19615  Make */\n      dup3\n        /* \"contracts/Manager/UnemetaMarket.sol\":19611:19622  Make.amount */\n      0xa0\n      add\n      calldataload\n        /* \"contracts/Manager/UnemetaMarket.sol\":19611:19626  Make.amount > 0 */\n      gt\n        /* \"contracts/Manager/UnemetaMarket.sol\":19603:19672  require(Make.amount > 0, \"The order amount should be greater than 0\") */\n      tag_357\n      jumpi\n      mload(0x40)\n      0x08c379a000000000000000000000000000000000000000000000000000000000\n      dup2\n      mstore\n        /* \"#utility.yul\":20470:20472   */\n      0x20\n        /* \"contracts/Manager/UnemetaMarket.sol\":19603:19672  require(Make.amount > 0, \"The order amount should be greater than 0\") */\n      0x04\n      dup3\n      add\n        /* \"#utility.yul\":20452:20473   */\n      mstore\n        /* \"#utility.yul\":20509:20511   */\n      0x29\n        /* \"#utility.yul\":20489:20507   */\n      0x24\n      dup3\n      add\n        /* \"#utility.yul\":20482:20512   */\n      mstore\n        /* \"#utility.yul\":20548:20582   */\n      0x546865206f7264657220616d6f756e742073686f756c64206265206772656174\n        /* \"#utility.yul\":20528:20546   */\n      0x44\n      dup3\n      add\n        /* \"#utility.yul\":20521:20583   */\n      mstore\n        /* \"#utility.yul\":20619:20630   */\n      0x6572207468616e20300000000000000000000000000000000000000000000000\n        /* \"#utility.yul\":20599:20617   */\n      0x64\n      dup3\n      add\n        /* \"#utility.yul\":20592:20631   */\n      mstore\n        /* \"#utility.yul\":20648:20667   */\n      0x84\n      add\n        /* \"contracts/Manager/UnemetaMarket.sol\":19603:19672  require(Make.amount > 0, \"The order amount should be greater than 0\") */\n      tag_133\n        /* \"#utility.yul\":20268:20673   */\n      jump\n        /* \"contracts/Manager/UnemetaMarket.sol\":19603:19672  require(Make.amount > 0, \"The order amount should be greater than 0\") */\n    tag_357:\n        /* \"contracts/Manager/UnemetaMarket.sol\":19721:20267  abi.encode(... */\n      0x40\n      dup1\n      mload\n        /* \"contracts/Manager/UnemetaMarket.sol\":19749:19815  0x8b73c3c69bb8fe3d512ecc4cf759cc79239f7b179b0ffacaa9a75d522b39400f */\n      0x8b73c3c69bb8fe3d512ecc4cf759cc79239f7b179b0ffacaa9a75d522b39400f\n        /* \"contracts/Manager/UnemetaMarket.sol\":19721:20267  abi.encode(... */\n      0x20\n      dup3\n      add\n        /* \"#utility.yul\":21189:21214   */\n      mstore\n        /* \"contracts/Manager/UnemetaMarket.sol\":19944:20010  0x2e3445393f211d11d7f88d325bc26ce78976b4decd39029feb202d9b409fc3c5 */\n      0x2e3445393f211d11d7f88d325bc26ce78976b4decd39029feb202d9b409fc3c5\n        /* \"#utility.yul\":21230:21248   */\n      swap2\n      dup2\n      add\n        /* \"#utility.yul\":21223:21257   */\n      swap2\n      swap1\n      swap2\n      mstore\n        /* \"contracts/Manager/UnemetaMarket.sol\":20070:20136  0xc89efdaa54c0f20c7adf612882df0950f5a951637e0307cdcb4c672f298b8bc6 */\n      0xc89efdaa54c0f20c7adf612882df0950f5a951637e0307cdcb4c672f298b8bc6\n        /* \"#utility.yul\":21273:21291   */\n      0x60\n      dup3\n      add\n        /* \"#utility.yul\":21266:21300   */\n      mstore\n        /* \"contracts/Manager/UnemetaMarket.sol\":20209:20222  block.chainid */\n      chainid\n        /* \"#utility.yul\":21316:21334   */\n      0x80\n      dup3\n      add\n        /* \"#utility.yul\":21309:21343   */\n      mstore\n        /* \"contracts/Manager/UnemetaMarket.sol\":20248:20252  this */\n      address\n        /* \"#utility.yul\":21359:21378   */\n      0xa0\n      dup3\n      add\n        /* \"#utility.yul\":21352:21436   */\n      mstore\n        /* \"contracts/Manager/UnemetaMarket.sol\":19683:19697  bytes32 Domain */\n      0x00\n      swap1\n        /* \"#utility.yul\":21161:21180   */\n      0xc0\n      add\n        /* \"contracts/Manager/UnemetaMarket.sol\":19721:20267  abi.encode(... */\n      mload(0x40)\n      0x20\n      dup2\n      dup4\n      sub\n      sub\n      dup2\n      mstore\n      swap1\n      0x40\n      mstore\n        /* \"contracts/Manager/UnemetaMarket.sol\":19698:20277  keccak256(... */\n      dup1\n      mload\n      swap1\n      0x20\n      add\n      keccak256\n        /* \"contracts/Manager/UnemetaMarket.sol\":19683:20277  bytes32 Domain=keccak256(... */\n      swap1\n      pop\n        /* \"contracts/Manager/UnemetaMarket.sol\":20482:20748  SignatureChecker.... */\n      tag_362\n        /* \"contracts/Manager/UnemetaMarket.sol\":20536:20540  Hash */\n      dup3\n        /* \"contracts/Manager/UnemetaMarket.sol\":20565:20569  Make */\n      dup5\n        /* \"contracts/Manager/UnemetaMarket.sol\":20565:20576  Make.signer */\n      0x20\n      add\n      0x20\n      dup2\n      add\n      swap1\n      tag_363\n      swap2\n      swap1\n      tag_38\n      jump\t// in\n    tag_363:\n        /* \"contracts/Manager/UnemetaMarket.sol\":20612:20618  Make.v */\n      tag_364\n      0x01c0\n      dup8\n      add\n      0x01a0\n      dup9\n      add\n      tag_365\n      jump\t// in\n    tag_364:\n        /* \"contracts/Manager/UnemetaMarket.sol\":20680:20684  Make */\n      dup7\n        /* \"contracts/Manager/UnemetaMarket.sol\":20680:20686  Make.r */\n      0x01c0\n      add\n      calldataload\n        /* \"contracts/Manager/UnemetaMarket.sol\":20704:20708  Make */\n      dup8\n        /* \"contracts/Manager/UnemetaMarket.sol\":20704:20710  Make.s */\n      0x01e0\n      add\n      calldataload\n        /* \"contracts/Manager/UnemetaMarket.sol\":20728:20734  Domain */\n      dup7\n        /* \"contracts/Manager/UnemetaMarket.sol\":20482:20518  SignatureChecker.... */\n      tag_366\n        /* \"contracts/Manager/UnemetaMarket.sol\":20482:20748  SignatureChecker.... */\n      jump\t// in\n    tag_362:\n        /* \"contracts/Manager/UnemetaMarket.sol\":20461:20792  require(... */\n      tag_367\n      jumpi\n      mload(0x40)\n      0x08c379a000000000000000000000000000000000000000000000000000000000\n      dup2\n      mstore\n        /* \"#utility.yul\":21836:21838   */\n      0x20\n        /* \"contracts/Manager/UnemetaMarket.sol\":20461:20792  require(... */\n      0x04\n      dup3\n      add\n        /* \"#utility.yul\":21818:21839   */\n      mstore\n        /* \"#utility.yul\":21875:21877   */\n      0x12\n        /* \"#utility.yul\":21855:21873   */\n      0x24\n      dup3\n      add\n        /* \"#utility.yul\":21848:21878   */\n      mstore\n        /* \"#utility.yul\":21914:21934   */\n      0x5369676e61747572653a20496e76616c69640000000000000000000000000000\n        /* \"#utility.yul\":21894:21912   */\n      0x44\n      dup3\n      add\n        /* \"#utility.yul\":21887:21935   */\n      mstore\n        /* \"#utility.yul\":21952:21970   */\n      0x64\n      add\n        /* \"contracts/Manager/UnemetaMarket.sol\":20461:20792  require(... */\n      tag_133\n        /* \"#utility.yul\":21634:21976   */\n      jump\n        /* \"contracts/Manager/UnemetaMarket.sol\":20461:20792  require(... */\n    tag_367:\n        /* \"contracts/Manager/UnemetaMarket.sol\":20854:20869  currencyManager */\n      and(0xffffffffffffffffffffffffffffffffffffffff, sload(0x03))\n        /* \"contracts/Manager/UnemetaMarket.sol\":20854:20891  currencyManager.isCurrencyWhitelisted */\n      0x43b938c5\n        /* \"contracts/Manager/UnemetaMarket.sol\":20892:20905  Make.currency */\n      tag_370\n        /* \"contracts/Manager/UnemetaMarket.sol\":20854:20869  currencyManager */\n      0x0100\n        /* \"contracts/Manager/UnemetaMarket.sol\":20892:20905  Make.currency */\n      dup7\n      add\n      0xe0\n      dup8\n      add\n      tag_38\n      jump\t// in\n    tag_370:\n        /* \"contracts/Manager/UnemetaMarket.sol\":20854:20906  currencyManager.isCurrencyWhitelisted(Make.currency) */\n      mload(0x40)\n      0xffffffff00000000000000000000000000000000000000000000000000000000\n      0xe0\n      dup5\n      swap1\n      shl\n      and\n      dup2\n      mstore\n        /* \"#utility.yul\":217:259   */\n      0xffffffffffffffffffffffffffffffffffffffff\n        /* \"#utility.yul\":205:260   */\n      swap1\n      swap2\n      and\n        /* \"contracts/Manager/UnemetaMarket.sol\":20854:20906  currencyManager.isCurrencyWhitelisted(Make.currency) */\n      0x04\n      dup3\n      add\n        /* \"#utility.yul\":187:261   */\n      mstore\n        /* \"#utility.yul\":160:178   */\n      0x24\n      add\n        /* \"contracts/Manager/UnemetaMarket.sol\":20854:20906  currencyManager.isCurrencyWhitelisted(Make.currency) */\n      0x20\n      mload(0x40)\n      dup1\n      dup4\n      sub\n      dup2\n      dup7\n      gas\n      staticcall\n      iszero\n      dup1\n      iszero\n      tag_373\n      jumpi\n      returndatasize\n      0x00\n      dup1\n      returndatacopy\n      revert(0x00, returndatasize)\n    tag_373:\n      pop\n      pop\n      pop\n      pop\n      mload(0x40)\n      returndatasize\n      not(0x1f)\n      0x1f\n      dup3\n      add\n      and\n      dup3\n      add\n      dup1\n      0x40\n      mstore\n      pop\n      dup2\n      add\n      swap1\n      tag_374\n      swap2\n      swap1\n      tag_375\n      jump\t// in\n    tag_374:\n        /* \"contracts/Manager/UnemetaMarket.sol\":20846:20937  require(currencyManager.isCurrencyWhitelisted(Make.currency), \" Not in Currency whitelist\") */\n      tag_376\n      jumpi\n      mload(0x40)\n      0x08c379a000000000000000000000000000000000000000000000000000000000\n      dup2\n      mstore\n        /* \"#utility.yul\":22433:22435   */\n      0x20\n        /* \"contracts/Manager/UnemetaMarket.sol\":20846:20937  require(currencyManager.isCurrencyWhitelisted(Make.currency), \" Not in Currency whitelist\") */\n      0x04\n      dup3\n      add\n        /* \"#utility.yul\":22415:22436   */\n      mstore\n        /* \"#utility.yul\":22472:22474   */\n      0x1a\n        /* \"#utility.yul\":22452:22470   */\n      0x24\n      dup3\n      add\n        /* \"#utility.yul\":22445:22475   */\n      mstore\n        /* \"#utility.yul\":22511:22539   */\n      0x204e6f7420696e2043757272656e63792077686974656c697374000000000000\n        /* \"#utility.yul\":22491:22509   */\n      0x44\n      dup3\n      add\n        /* \"#utility.yul\":22484:22540   */\n      mstore\n        /* \"#utility.yul\":22557:22575   */\n      0x64\n      add\n        /* \"contracts/Manager/UnemetaMarket.sol\":20846:20937  require(currencyManager.isCurrencyWhitelisted(Make.currency), \" Not in Currency whitelist\") */\n      tag_133\n        /* \"#utility.yul\":22231:22581   */\n      jump\n        /* \"contracts/Manager/UnemetaMarket.sol\":20846:20937  require(currencyManager.isCurrencyWhitelisted(Make.currency), \" Not in Currency whitelist\") */\n    tag_376:\n        /* \"contracts/Manager/UnemetaMarket.sol\":21033:21049  executionManager */\n      and(0xffffffffffffffffffffffffffffffffffffffff, sload(0x04))\n        /* \"contracts/Manager/UnemetaMarket.sol\":21033:21071  executionManager.isStrategyWhitelisted */\n      0x999ba27c\n        /* \"contracts/Manager/UnemetaMarket.sol\":21072:21085  Make.strategy */\n      tag_379\n      0xe0\n      dup7\n      add\n      0xc0\n      dup8\n      add\n      tag_38\n      jump\t// in\n    tag_379:\n        /* \"contracts/Manager/UnemetaMarket.sol\":21033:21086  executionManager.isStrategyWhitelisted(Make.strategy) */\n      mload(0x40)\n      0xffffffff00000000000000000000000000000000000000000000000000000000\n      0xe0\n      dup5\n      swap1\n      shl\n      and\n      dup2\n      mstore\n        /* \"#utility.yul\":217:259   */\n      0xffffffffffffffffffffffffffffffffffffffff\n        /* \"#utility.yul\":205:260   */\n      swap1\n      swap2\n      and\n        /* \"contracts/Manager/UnemetaMarket.sol\":21033:21086  executionManager.isStrategyWhitelisted(Make.strategy) */\n      0x04\n      dup3\n      add\n        /* \"#utility.yul\":187:261   */\n      mstore\n        /* \"#utility.yul\":160:178   */\n      0x24\n      add\n        /* \"contracts/Manager/UnemetaMarket.sol\":21033:21086  executionManager.isStrategyWhitelisted(Make.strategy) */\n      0x20\n      mload(0x40)\n      dup1\n      dup4\n      sub\n      dup2\n      dup7\n      gas\n      staticcall\n      iszero\n      dup1\n      iszero\n      tag_382\n      jumpi\n      returndatasize\n      0x00\n      dup1\n      returndatacopy\n      revert(0x00, returndatasize)\n    tag_382:\n      pop\n      pop\n      pop\n      pop\n      mload(0x40)\n      returndatasize\n      not(0x1f)\n      0x1f\n      dup3\n      add\n      and\n      dup3\n      add\n      dup1\n      0x40\n      mstore\n      pop\n      dup2\n      add\n      swap1\n      tag_383\n      swap2\n      swap1\n      tag_375\n      jump\t// in\n    tag_383:\n        /* \"contracts/Manager/UnemetaMarket.sol\":21025:21117  require(executionManager.isStrategyWhitelisted(Make.strategy), \" Not in Strategy whitelist\") */\n      tag_384\n      jumpi\n      mload(0x40)\n      0x08c379a000000000000000000000000000000000000000000000000000000000\n      dup2\n      mstore\n        /* \"#utility.yul\":22788:22790   */\n      0x20\n        /* \"contracts/Manager/UnemetaMarket.sol\":21025:21117  require(executionManager.isStrategyWhitelisted(Make.strategy), \" Not in Strategy whitelist\") */\n      0x04\n      dup3\n      add\n        /* \"#utility.yul\":22770:22791   */\n      mstore\n        /* \"#utility.yul\":22827:22829   */\n      0x1a\n        /* \"#utility.yul\":22807:22825   */\n      0x24\n      dup3\n      add\n        /* \"#utility.yul\":22800:22830   */\n      mstore\n        /* \"#utility.yul\":22866:22894   */\n      0x204e6f7420696e2053747261746567792077686974656c697374000000000000\n        /* \"#utility.yul\":22846:22864   */\n      0x44\n      dup3\n      add\n        /* \"#utility.yul\":22839:22895   */\n      mstore\n        /* \"#utility.yul\":22912:22930   */\n      0x64\n      add\n        /* \"contracts/Manager/UnemetaMarket.sol\":21025:21117  require(executionManager.isStrategyWhitelisted(Make.strategy), \" Not in Strategy whitelist\") */\n      tag_133\n        /* \"#utility.yul\":22586:22936   */\n      jump\n        /* \"contracts/Manager/UnemetaMarket.sol\":21025:21117  require(executionManager.isStrategyWhitelisted(Make.strategy), \" Not in Strategy whitelist\") */\n    tag_384:\n        /* \"contracts/Manager/UnemetaMarket.sol\":19102:21124  {... */\n      pop\n        /* \"contracts/Manager/UnemetaMarket.sol\":19013:21124  function _validateOrder(OrderTypes.MakerOrder calldata Make, bytes32 Hash) internal view {... */\n      pop\n      pop\n      jump\t// out\n        /* \"contracts/Manager/UnemetaMarket.sol\":13294:15165  function _transferFeesAndFunds(... */\n    tag_169:\n        /* \"contracts/Manager/UnemetaMarket.sol\":13619:13625  amount */\n      dup2\n        /* \"contracts/Manager/UnemetaMarket.sol\":13591:13616  uint256 finalSellerAmount */\n      0x00\n        /* \"contracts/Manager/UnemetaMarket.sol\":13714:13753  _calculateProtocolFee(strategy, amount) */\n      tag_388\n        /* \"contracts/Manager/UnemetaMarket.sol\":13736:13744  strategy */\n      dup11\n        /* \"contracts/Manager/UnemetaMarket.sol\":13619:13625  amount */\n      dup4\n        /* \"contracts/Manager/UnemetaMarket.sol\":13714:13735  _calculateProtocolFee */\n      tag_389\n        /* \"contracts/Manager/UnemetaMarket.sol\":13714:13753  _calculateProtocolFee(strategy, amount) */\n      jump\t// in\n    tag_388:\n        /* \"contracts/Manager/UnemetaMarket.sol\":14022:14042  protocolFeeRecipient */\n      sload(0x02)\n        /* \"contracts/Manager/UnemetaMarket.sol\":13686:13753  uint256 protocolFeeAmount = _calculateProtocolFee(strategy, amount) */\n      swap1\n      swap2\n      pop\n        /* \"contracts/Manager/UnemetaMarket.sol\":14022:14056  protocolFeeRecipient != address(0) */\n      0xffffffffffffffffffffffffffffffffffffffff\n        /* \"contracts/Manager/UnemetaMarket.sol\":14022:14042  protocolFeeRecipient */\n      and\n        /* \"contracts/Manager/UnemetaMarket.sol\":14022:14056  protocolFeeRecipient != address(0) */\n      iszero\n      dup1\n      iszero\n      swap1\n        /* \"contracts/Manager/UnemetaMarket.sol\":14021:14085  (protocolFeeRecipient != address(0)) && (protocolFeeAmount != 0) */\n      tag_390\n      jumpi\n      pop\n        /* \"contracts/Manager/UnemetaMarket.sol\":14062:14084  protocolFeeAmount != 0 */\n      dup1\n      iszero\n      iszero\n        /* \"contracts/Manager/UnemetaMarket.sol\":14021:14085  (protocolFeeRecipient != address(0)) && (protocolFeeAmount != 0) */\n    tag_390:\n        /* \"contracts/Manager/UnemetaMarket.sol\":14017:14244  if ((protocolFeeRecipient != address(0)) && (protocolFeeAmount != 0)) {... */\n      iszero\n      tag_391\n      jumpi\n        /* \"contracts/Manager/UnemetaMarket.sol\":14141:14161  protocolFeeRecipient */\n      sload(0x02)\n        /* \"contracts/Manager/UnemetaMarket.sol\":14101:14181  IERC20(currency).safeTransferFrom(from, protocolFeeRecipient, protocolFeeAmount) */\n      tag_392\n      swap1\n        /* \"contracts/Manager/UnemetaMarket.sol\":14141:14161  protocolFeeRecipient */\n      0xffffffffffffffffffffffffffffffffffffffff\n        /* \"contracts/Manager/UnemetaMarket.sol\":14101:14134  IERC20(currency).safeTransferFrom */\n      dup10\n      dup2\n      and\n      swap2\n        /* \"contracts/Manager/UnemetaMarket.sol\":14135:14139  from */\n      dup10\n      swap2\n        /* \"contracts/Manager/UnemetaMarket.sol\":14141:14161  protocolFeeRecipient */\n      and\n        /* \"contracts/Manager/UnemetaMarket.sol\":14163:14180  protocolFeeAmount */\n      dup5\n        /* \"contracts/Manager/UnemetaMarket.sol\":14101:14134  IERC20(currency).safeTransferFrom */\n      tag_202\n        /* \"contracts/Manager/UnemetaMarket.sol\":14101:14181  IERC20(currency).safeTransferFrom(from, protocolFeeRecipient, protocolFeeAmount) */\n      jump\t// in\n    tag_392:\n        /* \"contracts/Manager/UnemetaMarket.sol\":14195:14233  finalSellerAmount -= protocolFeeAmount */\n      tag_393\n        /* \"contracts/Manager/UnemetaMarket.sol\":14216:14233  protocolFeeAmount */\n      dup2\n        /* \"contracts/Manager/UnemetaMarket.sol\":14195:14233  finalSellerAmount -= protocolFeeAmount */\n      dup4\n      tag_201\n      jump\t// in\n    tag_393:\n      swap2\n      pop\n        /* \"contracts/Manager/UnemetaMarket.sol\":14017:14244  if ((protocolFeeRecipient != address(0)) && (protocolFeeAmount != 0)) {... */\n    tag_391:\n        /* \"contracts/Manager/UnemetaMarket.sol\":14351:14368  royaltyFeeManager */\n      sload(0x05)\n        /* \"contracts/Manager/UnemetaMarket.sol\":14351:14441  royaltyFeeManager... */\n      mload(0x40)\n      0xf4f635fa00000000000000000000000000000000000000000000000000000000\n      dup2\n      mstore\n        /* \"contracts/Manager/UnemetaMarket.sol\":14351:14368  royaltyFeeManager */\n      0xffffffffffffffffffffffffffffffffffffffff\n        /* \"#utility.yul\":23161:23216   */\n      dup12\n      dup2\n      and\n        /* \"contracts/Manager/UnemetaMarket.sol\":14351:14441  royaltyFeeManager... */\n      0x04\n      dup4\n      add\n        /* \"#utility.yul\":23143:23217   */\n      mstore\n        /* \"#utility.yul\":23233:23251   */\n      0x24\n      dup3\n      add\n        /* \"#utility.yul\":23226:23260   */\n      dup12\n      swap1\n      mstore\n        /* \"#utility.yul\":23276:23294   */\n      0x44\n      dup3\n      add\n        /* \"#utility.yul\":23269:23303   */\n      dup8\n      swap1\n      mstore\n        /* \"contracts/Manager/UnemetaMarket.sol\":14294:14321  address royaltyFeeRecipient */\n      0x00\n      swap3\n      dup4\n      swap3\n        /* \"contracts/Manager/UnemetaMarket.sol\":14351:14368  royaltyFeeManager */\n      swap2\n      and\n      swap1\n        /* \"contracts/Manager/UnemetaMarket.sol\":14351:14412  royaltyFeeManager... */\n      0xf4f635fa\n      swap1\n        /* \"#utility.yul\":23116:23134   */\n      0x64\n      add\n        /* \"contracts/Manager/UnemetaMarket.sol\":14351:14441  royaltyFeeManager... */\n      0x40\n      dup1\n      mload\n      dup1\n      dup4\n      sub\n      dup2\n      dup7\n      gas\n      staticcall\n      iszero\n      dup1\n      iszero\n      tag_397\n      jumpi\n      returndatasize\n      0x00\n      dup1\n      returndatacopy\n      revert(0x00, returndatasize)\n    tag_397:\n      pop\n      pop\n      pop\n      pop\n      mload(0x40)\n      returndatasize\n      not(0x1f)\n      0x1f\n      dup3\n      add\n      and\n      dup3\n      add\n      dup1\n      0x40\n      mstore\n      pop\n      dup2\n      add\n      swap1\n      tag_398\n      swap2\n      swap1\n      tag_399\n      jump\t// in\n    tag_398:\n        /* \"contracts/Manager/UnemetaMarket.sol\":14293:14441  (address royaltyFeeRecipient, uint256 royaltyFeeAmount) = royaltyFeeManager... */\n      swap1\n      swap3\n      pop\n      swap1\n      pop\n        /* \"contracts/Manager/UnemetaMarket.sol\":14537:14570  royaltyFeeRecipient != address(0) */\n      0xffffffffffffffffffffffffffffffffffffffff\n      dup3\n      and\n      iszero\n      dup1\n      iszero\n      swap1\n        /* \"contracts/Manager/UnemetaMarket.sol\":14536:14598  (royaltyFeeRecipient != address(0)) && (royaltyFeeAmount != 0) */\n      tag_400\n      jumpi\n      pop\n        /* \"contracts/Manager/UnemetaMarket.sol\":14576:14597  royaltyFeeAmount != 0 */\n      dup1\n      iszero\n      iszero\n        /* \"contracts/Manager/UnemetaMarket.sol\":14536:14598  (royaltyFeeRecipient != address(0)) && (royaltyFeeAmount != 0) */\n    tag_400:\n        /* \"contracts/Manager/UnemetaMarket.sol\":14532:14858  if ((royaltyFeeRecipient != address(0)) && (royaltyFeeAmount != 0)) {... */\n      iszero\n      tag_401\n      jumpi\n        /* \"contracts/Manager/UnemetaMarket.sol\":14614:14692  IERC20(currency).safeTransferFrom(from, royaltyFeeRecipient, royaltyFeeAmount) */\n      tag_402\n        /* \"contracts/Manager/UnemetaMarket.sol\":14614:14647  IERC20(currency).safeTransferFrom */\n      0xffffffffffffffffffffffffffffffffffffffff\n      dup11\n      and\n        /* \"contracts/Manager/UnemetaMarket.sol\":14648:14652  from */\n      dup10\n        /* \"contracts/Manager/UnemetaMarket.sol\":14654:14673  royaltyFeeRecipient */\n      dup5\n        /* \"contracts/Manager/UnemetaMarket.sol\":14675:14691  royaltyFeeAmount */\n      dup5\n        /* \"contracts/Manager/UnemetaMarket.sol\":14614:14647  IERC20(currency).safeTransferFrom */\n      tag_202\n        /* \"contracts/Manager/UnemetaMarket.sol\":14614:14692  IERC20(currency).safeTransferFrom(from, royaltyFeeRecipient, royaltyFeeAmount) */\n      jump\t// in\n    tag_402:\n        /* \"contracts/Manager/UnemetaMarket.sol\":14706:14743  finalSellerAmount -= royaltyFeeAmount */\n      tag_403\n        /* \"contracts/Manager/UnemetaMarket.sol\":14727:14743  royaltyFeeAmount */\n      dup2\n        /* \"contracts/Manager/UnemetaMarket.sol\":14706:14743  finalSellerAmount -= royaltyFeeAmount */\n      dup6\n      tag_201\n      jump\t// in\n    tag_403:\n      swap4\n      pop\n        /* \"contracts/Manager/UnemetaMarket.sol\":14799:14818  royaltyFeeRecipient */\n      dup2\n        /* \"contracts/Manager/UnemetaMarket.sol\":14763:14847  RoyaltyPayment(collection, tokenId, royaltyFeeRecipient, currency, royaltyFeeAmount) */\n      0xffffffffffffffffffffffffffffffffffffffff\n      and\n        /* \"contracts/Manager/UnemetaMarket.sol\":14790:14797  tokenId */\n      dup11\n        /* \"contracts/Manager/UnemetaMarket.sol\":14778:14788  collection */\n      dup13\n        /* \"contracts/Manager/UnemetaMarket.sol\":14763:14847  RoyaltyPayment(collection, tokenId, royaltyFeeRecipient, currency, royaltyFeeAmount) */\n      0xffffffffffffffffffffffffffffffffffffffff\n      and\n      0x27c4f0403323142b599832f26acd21c74a9e5b809f2215726e244a4ac588cd7d\n        /* \"contracts/Manager/UnemetaMarket.sol\":14820:14828  currency */\n      dup13\n        /* \"contracts/Manager/UnemetaMarket.sol\":14830:14846  royaltyFeeAmount */\n      dup6\n        /* \"contracts/Manager/UnemetaMarket.sol\":14763:14847  RoyaltyPayment(collection, tokenId, royaltyFeeRecipient, currency, royaltyFeeAmount) */\n      mload(0x40)\n      tag_404\n      swap3\n      swap2\n      swap1\n        /* \"#utility.yul\":23835:23877   */\n      0xffffffffffffffffffffffffffffffffffffffff\n        /* \"#utility.yul\":23823:23878   */\n      swap3\n      swap1\n      swap3\n      and\n        /* \"#utility.yul\":23805:23879   */\n      dup3\n      mstore\n        /* \"#utility.yul\":23910:23912   */\n      0x20\n        /* \"#utility.yul\":23895:23913   */\n      dup3\n      add\n        /* \"#utility.yul\":23888:23922   */\n      mstore\n        /* \"#utility.yul\":23793:23795   */\n      0x40\n        /* \"#utility.yul\":23778:23796   */\n      add\n      swap1\n        /* \"#utility.yul\":23631:23928   */\n      jump\n        /* \"contracts/Manager/UnemetaMarket.sol\":14763:14847  RoyaltyPayment(collection, tokenId, royaltyFeeRecipient, currency, royaltyFeeAmount) */\n    tag_404:\n      mload(0x40)\n      dup1\n      swap2\n      sub\n      swap1\n      log4\n        /* \"contracts/Manager/UnemetaMarket.sol\":14532:14858  if ((royaltyFeeRecipient != address(0)) && (royaltyFeeAmount != 0)) {... */\n    tag_401:\n        /* \"contracts/Manager/UnemetaMarket.sol\":14981:15008  minPercentageToAsk * amount */\n      tag_406\n        /* \"contracts/Manager/UnemetaMarket.sol\":15002:15008  amount */\n      dup7\n        /* \"contracts/Manager/UnemetaMarket.sol\":14981:14999  minPercentageToAsk */\n      dup7\n        /* \"contracts/Manager/UnemetaMarket.sol\":14981:15008  minPercentageToAsk * amount */\n      tag_407\n      jump\t// in\n    tag_406:\n        /* \"contracts/Manager/UnemetaMarket.sol\":14950:14975  finalSellerAmount * 10000 */\n      tag_408\n        /* \"contracts/Manager/UnemetaMarket.sol\":14950:14967  finalSellerAmount */\n      dup6\n        /* \"contracts/Manager/UnemetaMarket.sol\":14970:14975  10000 */\n      0x2710\n        /* \"contracts/Manager/UnemetaMarket.sol\":14950:14975  finalSellerAmount * 10000 */\n      tag_407\n      jump\t// in\n    tag_408:\n        /* \"contracts/Manager/UnemetaMarket.sol\":14949:15009  (finalSellerAmount * 10000) >= (minPercentageToAsk * amount) */\n      lt\n      iszero\n        /* \"contracts/Manager/UnemetaMarket.sol\":14941:15048  require((finalSellerAmount * 10000) >= (minPercentageToAsk * amount), \"The fee is too high for the seller\") */\n      tag_409\n      jumpi\n      mload(0x40)\n      0x08c379a000000000000000000000000000000000000000000000000000000000\n      dup2\n      mstore\n        /* \"#utility.yul\":24308:24310   */\n      0x20\n        /* \"contracts/Manager/UnemetaMarket.sol\":14941:15048  require((finalSellerAmount * 10000) >= (minPercentageToAsk * amount), \"The fee is too high for the seller\") */\n      0x04\n      dup3\n      add\n        /* \"#utility.yul\":24290:24311   */\n      mstore\n        /* \"#utility.yul\":24347:24349   */\n      0x22\n        /* \"#utility.yul\":24327:24345   */\n      0x24\n      dup3\n      add\n        /* \"#utility.yul\":24320:24350   */\n      mstore\n        /* \"#utility.yul\":24386:24420   */\n      0x5468652066656520697320746f6f206869676820666f72207468652073656c6c\n        /* \"#utility.yul\":24366:24384   */\n      0x44\n      dup3\n      add\n        /* \"#utility.yul\":24359:24421   */\n      mstore\n        /* \"#utility.yul\":24457:24461   */\n      0x6572000000000000000000000000000000000000000000000000000000000000\n        /* \"#utility.yul\":24437:24455   */\n      0x64\n      dup3\n      add\n        /* \"#utility.yul\":24430:24462   */\n      mstore\n        /* \"#utility.yul\":24479:24498   */\n      0x84\n      add\n        /* \"contracts/Manager/UnemetaMarket.sol\":14941:15048  require((finalSellerAmount * 10000) >= (minPercentageToAsk * amount), \"The fee is too high for the seller\") */\n      tag_133\n        /* \"#utility.yul\":24106:24504   */\n      jump\n        /* \"contracts/Manager/UnemetaMarket.sol\":14941:15048  require((finalSellerAmount * 10000) >= (minPercentageToAsk * amount), \"The fee is too high for the seller\") */\n    tag_409:\n        /* \"contracts/Manager/UnemetaMarket.sol\":15095:15157  IERC20(currency).safeTransferFrom(from, to, finalSellerAmount) */\n      tag_412\n        /* \"contracts/Manager/UnemetaMarket.sol\":15095:15128  IERC20(currency).safeTransferFrom */\n      0xffffffffffffffffffffffffffffffffffffffff\n      dup11\n      and\n        /* \"contracts/Manager/UnemetaMarket.sol\":15129:15133  from */\n      dup10\n        /* \"contracts/Manager/UnemetaMarket.sol\":15135:15137  to */\n      dup10\n        /* \"contracts/Manager/UnemetaMarket.sol\":15139:15156  finalSellerAmount */\n      dup8\n        /* \"contracts/Manager/UnemetaMarket.sol\":15095:15128  IERC20(currency).safeTransferFrom */\n      tag_202\n        /* \"contracts/Manager/UnemetaMarket.sol\":15095:15157  IERC20(currency).safeTransferFrom(from, to, finalSellerAmount) */\n      jump\t// in\n    tag_412:\n        /* \"contracts/Manager/UnemetaMarket.sol\":13547:15165  {... */\n      pop\n      pop\n      pop\n      pop\n        /* \"contracts/Manager/UnemetaMarket.sol\":13294:15165  function _transferFeesAndFunds(... */\n      pop\n      pop\n      pop\n      pop\n      pop\n      pop\n      pop\n      pop\n      jump\t// out\n        /* \"contracts/Manager/UnemetaMarket.sol\":17717:18298  function _transferNonFungibleToken(... */\n    tag_174:\n        /* \"contracts/Manager/UnemetaMarket.sol\":17967:17986  transferSelectorNFT */\n      sload(0x06)\n        /* \"contracts/Manager/UnemetaMarket.sol\":17967:18027  transferSelectorNFT.checkTransferManagerForToken(collection) */\n      mload(0x40)\n      0xcc15949300000000000000000000000000000000000000000000000000000000\n      dup2\n      mstore\n        /* \"contracts/Manager/UnemetaMarket.sol\":17967:17986  transferSelectorNFT */\n      0xffffffffffffffffffffffffffffffffffffffff\n        /* \"#utility.yul\":205:260   */\n      dup8\n      dup2\n      and\n        /* \"contracts/Manager/UnemetaMarket.sol\":17967:18027  transferSelectorNFT.checkTransferManagerForToken(collection) */\n      0x04\n      dup4\n      add\n        /* \"#utility.yul\":187:261   */\n      mstore\n        /* \"contracts/Manager/UnemetaMarket.sol\":17949:17964  address Manager */\n      0x00\n      swap3\n        /* \"contracts/Manager/UnemetaMarket.sol\":17967:17986  transferSelectorNFT */\n      and\n      swap1\n        /* \"contracts/Manager/UnemetaMarket.sol\":17967:18015  transferSelectorNFT.checkTransferManagerForToken */\n      0xcc159493\n      swap1\n        /* \"#utility.yul\":160:178   */\n      0x24\n      add\n        /* \"contracts/Manager/UnemetaMarket.sol\":17967:18027  transferSelectorNFT.checkTransferManagerForToken(collection) */\n      0x20\n      mload(0x40)\n      dup1\n      dup4\n      sub\n      dup2\n      dup7\n      gas\n      staticcall\n      iszero\n      dup1\n      iszero\n      tag_416\n      jumpi\n      returndatasize\n      0x00\n      dup1\n      returndatacopy\n      revert(0x00, returndatasize)\n    tag_416:\n      pop\n      pop\n      pop\n      pop\n      mload(0x40)\n      returndatasize\n      not(0x1f)\n      0x1f\n      dup3\n      add\n      and\n      dup3\n      add\n      dup1\n      0x40\n      mstore\n      pop\n      dup2\n      add\n      swap1\n      tag_417\n      swap2\n      swap1\n      tag_418\n      jump\t// in\n    tag_417:\n        /* \"contracts/Manager/UnemetaMarket.sol\":17949:18027  address Manager = transferSelectorNFT.checkTransferManagerForToken(collection) */\n      swap1\n      pop\n        /* \"contracts/Manager/UnemetaMarket.sol\":18088:18109  Manager != address(0) */\n      0xffffffffffffffffffffffffffffffffffffffff\n      dup2\n      and\n        /* \"contracts/Manager/UnemetaMarket.sol\":18080:18142  require(Manager != address(0), \"Can't fount transfer manager\") */\n      tag_419\n      jumpi\n      mload(0x40)\n      0x08c379a000000000000000000000000000000000000000000000000000000000\n      dup2\n      mstore\n        /* \"#utility.yul\":24967:24969   */\n      0x20\n        /* \"contracts/Manager/UnemetaMarket.sol\":18080:18142  require(Manager != address(0), \"Can't fount transfer manager\") */\n      0x04\n      dup3\n      add\n        /* \"#utility.yul\":24949:24970   */\n      mstore\n        /* \"#utility.yul\":25006:25008   */\n      0x1c\n        /* \"#utility.yul\":24986:25004   */\n      0x24\n      dup3\n      add\n        /* \"#utility.yul\":24979:25009   */\n      mstore\n        /* \"#utility.yul\":25045:25075   */\n      0x43616e277420666f756e74207472616e73666572206d616e6167657200000000\n        /* \"#utility.yul\":25025:25043   */\n      0x44\n      dup3\n      add\n        /* \"#utility.yul\":25018:25076   */\n      mstore\n        /* \"#utility.yul\":25093:25111   */\n      0x64\n      add\n        /* \"contracts/Manager/UnemetaMarket.sol\":18080:18142  require(Manager != address(0), \"Can't fount transfer manager\") */\n      tag_133\n        /* \"#utility.yul\":24765:25117   */\n      jump\n        /* \"contracts/Manager/UnemetaMarket.sol\":18080:18142  require(Manager != address(0), \"Can't fount transfer manager\") */\n    tag_419:\n        /* \"contracts/Manager/UnemetaMarket.sol\":18200:18291  TheTransferManager(Manager).transferNonFungibleToken(collection, from, to, tokenId, amount) */\n      mload(0x40)\n      0x33f2fa9f00000000000000000000000000000000000000000000000000000000\n      dup2\n      mstore\n        /* \"contracts/Manager/UnemetaMarket.sol\":18200:18252  TheTransferManager(Manager).transferNonFungibleToken */\n      0xffffffffffffffffffffffffffffffffffffffff\n        /* \"#utility.yul\":25460:25475   */\n      dup8\n      dup2\n      and\n        /* \"contracts/Manager/UnemetaMarket.sol\":18200:18291  TheTransferManager(Manager).transferNonFungibleToken(collection, from, to, tokenId, amount) */\n      0x04\n      dup4\n      add\n        /* \"#utility.yul\":25442:25476   */\n      mstore\n        /* \"#utility.yul\":25512:25527   */\n      dup7\n      dup2\n      and\n        /* \"#utility.yul\":25492:25510   */\n      0x24\n      dup4\n      add\n        /* \"#utility.yul\":25485:25528   */\n      mstore\n        /* \"#utility.yul\":25564:25579   */\n      dup6\n      dup2\n      and\n        /* \"#utility.yul\":25544:25562   */\n      0x44\n      dup4\n      add\n        /* \"#utility.yul\":25537:25580   */\n      mstore\n        /* \"#utility.yul\":25596:25614   */\n      0x64\n      dup3\n      add\n        /* \"#utility.yul\":25589:25623   */\n      dup6\n      swap1\n      mstore\n        /* \"#utility.yul\":25639:25658   */\n      0x84\n      dup3\n      add\n        /* \"#utility.yul\":25632:25667   */\n      dup5\n      swap1\n      mstore\n        /* \"contracts/Manager/UnemetaMarket.sol\":18200:18252  TheTransferManager(Manager).transferNonFungibleToken */\n      dup3\n      and\n      swap1\n      0x33f2fa9f\n      swap1\n        /* \"#utility.yul\":25353:25372   */\n      0xa4\n      add\n        /* \"contracts/Manager/UnemetaMarket.sol\":18200:18291  TheTransferManager(Manager).transferNonFungibleToken(collection, from, to, tokenId, amount) */\n      0x00\n      mload(0x40)\n      dup1\n      dup4\n      sub\n      dup2\n      0x00\n      dup8\n      dup1\n      extcodesize\n      iszero\n      dup1\n      iszero\n      tag_424\n      jumpi\n      0x00\n      dup1\n      revert\n    tag_424:\n      pop\n      gas\n      call\n      iszero\n      dup1\n      iszero\n      tag_426\n      jumpi\n      returndatasize\n      0x00\n      dup1\n      returndatacopy\n      revert(0x00, returndatasize)\n    tag_426:\n      pop\n      pop\n      pop\n      pop\n        /* \"contracts/Manager/UnemetaMarket.sol\":17886:18298  {... */\n      pop\n        /* \"contracts/Manager/UnemetaMarket.sol\":17717:18298  function _transferNonFungibleToken(... */\n      pop\n      pop\n      pop\n      pop\n      pop\n      jump\t// out\n        /* \"@openzeppelin/contracts/token/ERC20/utils/SafeERC20.sol\":974:1215  function safeTransferFrom(... */\n    tag_202:\n        /* \"@openzeppelin/contracts/token/ERC20/utils/SafeERC20.sol\":1139:1207  abi.encodeWithSelector(token.transferFrom.selector, from, to, value) */\n      mload(0x40)\n        /* \"#utility.yul\":25890:25932   */\n      0xffffffffffffffffffffffffffffffffffffffff\n        /* \"#utility.yul\":25959:25974   */\n      dup1\n      dup6\n      and\n        /* \"@openzeppelin/contracts/token/ERC20/utils/SafeERC20.sol\":1139:1207  abi.encodeWithSelector(token.transferFrom.selector, from, to, value) */\n      0x24\n      dup4\n      add\n        /* \"#utility.yul\":25941:25975   */\n      mstore\n        /* \"#utility.yul\":26011:26026   */\n      dup4\n      and\n        /* \"#utility.yul\":25991:26009   */\n      0x44\n      dup3\n      add\n        /* \"#utility.yul\":25984:26027   */\n      mstore\n        /* \"#utility.yul\":26043:26061   */\n      0x64\n      dup2\n      add\n        /* \"#utility.yul\":26036:26070   */\n      dup3\n      swap1\n      mstore\n        /* \"@openzeppelin/contracts/token/ERC20/utils/SafeERC20.sol\":1112:1208  _callOptionalReturn(token, abi.encodeWithSelector(token.transferFrom.selector, from, to, value)) */\n      tag_428\n      swap1\n        /* \"@openzeppelin/contracts/token/ERC20/utils/SafeERC20.sol\":1132:1137  token */\n      dup6\n      swap1\n        /* \"@openzeppelin/contracts/token/ERC20/utils/SafeERC20.sol\":1162:1189  token.transferFrom.selector */\n      0x23b872dd00000000000000000000000000000000000000000000000000000000\n      swap1\n        /* \"#utility.yul\":25853:25871   */\n      0x84\n      add\n        /* \"@openzeppelin/contracts/token/ERC20/utils/SafeERC20.sol\":1139:1207  abi.encodeWithSelector(token.transferFrom.selector, from, to, value) */\n    tag_429:\n      0x40\n      dup1\n      mload\n      0xffffffffffffffffffffffffffffffffffffffffffffffffffffffffffffffe0\n      dup2\n      dup5\n      sub\n      add\n      dup2\n      mstore\n      swap2\n      swap1\n      mstore\n      0x20\n      dup2\n      add\n      dup1\n      mload\n      0xffffffffffffffffffffffffffffffffffffffffffffffffffffffff\n      and\n      0xffffffff00000000000000000000000000000000000000000000000000000000\n      swap1\n      swap4\n      and\n      swap3\n      swap1\n      swap3\n      or\n      swap1\n      swap2\n      mstore\n        /* \"@openzeppelin/contracts/token/ERC20/utils/SafeERC20.sol\":1112:1131  _callOptionalReturn */\n      tag_431\n        /* \"@openzeppelin/contracts/token/ERC20/utils/SafeERC20.sol\":1112:1208  _callOptionalReturn(token, abi.encodeWithSelector(token.transferFrom.selector, from, to, value)) */\n      jump\t// in\n    tag_428:\n        /* \"@openzeppelin/contracts/token/ERC20/utils/SafeERC20.sol\":974:1215  function safeTransferFrom(... */\n      pop\n      pop\n      pop\n      pop\n      jump\t// out\n        /* \"contracts/Manager/UnemetaMarket.sol\":15615:17410  function _transferFeesAndFundsWithWETH(... */\n    tag_225:\n        /* \"contracts/Manager/UnemetaMarket.sol\":15903:15909  amount */\n      dup2\n        /* \"contracts/Manager/UnemetaMarket.sol\":15875:15900  uint256 finalSellerAmount */\n      0x00\n        /* \"contracts/Manager/UnemetaMarket.sol\":15998:16037  _calculateProtocolFee(strategy, amount) */\n      tag_433\n        /* \"contracts/Manager/UnemetaMarket.sol\":16020:16028  strategy */\n      dup9\n        /* \"contracts/Manager/UnemetaMarket.sol\":15903:15909  amount */\n      dup4\n        /* \"contracts/Manager/UnemetaMarket.sol\":15998:16019  _calculateProtocolFee */\n      tag_389\n        /* \"contracts/Manager/UnemetaMarket.sol\":15998:16037  _calculateProtocolFee(strategy, amount) */\n      jump\t// in\n    tag_433:\n        /* \"contracts/Manager/UnemetaMarket.sol\":16307:16327  protocolFeeRecipient */\n      sload(0x02)\n        /* \"contracts/Manager/UnemetaMarket.sol\":15970:16037  uint256 protocolFeeAmount = _calculateProtocolFee(strategy, amount) */\n      swap1\n      swap2\n      pop\n        /* \"contracts/Manager/UnemetaMarket.sol\":16307:16341  protocolFeeRecipient != address(0) */\n      0xffffffffffffffffffffffffffffffffffffffff\n        /* \"contracts/Manager/UnemetaMarket.sol\":16307:16327  protocolFeeRecipient */\n      and\n        /* \"contracts/Manager/UnemetaMarket.sol\":16307:16341  protocolFeeRecipient != address(0) */\n      iszero\n      dup1\n      iszero\n      swap1\n        /* \"contracts/Manager/UnemetaMarket.sol\":16306:16370  (protocolFeeRecipient != address(0)) && (protocolFeeAmount != 0) */\n      tag_434\n      jumpi\n      pop\n        /* \"contracts/Manager/UnemetaMarket.sol\":16347:16369  protocolFeeAmount != 0 */\n      dup1\n      iszero\n      iszero\n        /* \"contracts/Manager/UnemetaMarket.sol\":16306:16370  (protocolFeeRecipient != address(0)) && (protocolFeeAmount != 0) */\n    tag_434:\n        /* \"contracts/Manager/UnemetaMarket.sol\":16302:16515  if ((protocolFeeRecipient != address(0)) && (protocolFeeAmount != 0)) {... */\n      iszero\n      tag_435\n      jumpi\n        /* \"contracts/Manager/UnemetaMarket.sol\":16412:16432  protocolFeeRecipient */\n      sload(0x02)\n        /* \"contracts/Manager/UnemetaMarket.sol\":16386:16452  IERC20(WETH).safeTransfer(protocolFeeRecipient, protocolFeeAmount) */\n      tag_436\n      swap1\n        /* \"contracts/Manager/UnemetaMarket.sol\":16412:16432  protocolFeeRecipient */\n      0xffffffffffffffffffffffffffffffffffffffff\n        /* \"contracts/Manager/UnemetaMarket.sol\":16393:16397  WETH */\n      immutable(\"0x27f7320d12022267a30ae0570361d18e54ded7bfc682ac5b98d912c6ab83c578\")\n        /* \"contracts/Manager/UnemetaMarket.sol\":16386:16411  IERC20(WETH).safeTransfer */\n      dup2\n      and\n      swap2\n        /* \"contracts/Manager/UnemetaMarket.sol\":16412:16432  protocolFeeRecipient */\n      and\n        /* \"contracts/Manager/UnemetaMarket.sol\":16434:16451  protocolFeeAmount */\n      dup4\n        /* \"contracts/Manager/UnemetaMarket.sol\":16386:16411  IERC20(WETH).safeTransfer */\n      tag_437\n        /* \"contracts/Manager/UnemetaMarket.sol\":16386:16452  IERC20(WETH).safeTransfer(protocolFeeRecipient, protocolFeeAmount) */\n      jump\t// in\n    tag_436:\n        /* \"contracts/Manager/UnemetaMarket.sol\":16466:16504  finalSellerAmount -= protocolFeeAmount */\n      tag_438\n        /* \"contracts/Manager/UnemetaMarket.sol\":16487:16504  protocolFeeAmount */\n      dup2\n        /* \"contracts/Manager/UnemetaMarket.sol\":16466:16504  finalSellerAmount -= protocolFeeAmount */\n      dup4\n      tag_201\n      jump\t// in\n    tag_438:\n      swap2\n      pop\n        /* \"contracts/Manager/UnemetaMarket.sol\":16302:16515  if ((protocolFeeRecipient != address(0)) && (protocolFeeAmount != 0)) {... */\n    tag_435:\n        /* \"contracts/Manager/UnemetaMarket.sol\":16619:16636  royaltyFeeManager */\n      sload(0x05)\n        /* \"contracts/Manager/UnemetaMarket.sol\":16619:16709  royaltyFeeManager... */\n      mload(0x40)\n      0xf4f635fa00000000000000000000000000000000000000000000000000000000\n      dup2\n      mstore\n        /* \"contracts/Manager/UnemetaMarket.sol\":16619:16636  royaltyFeeManager */\n      0xffffffffffffffffffffffffffffffffffffffff\n        /* \"#utility.yul\":23161:23216   */\n      dup10\n      dup2\n      and\n        /* \"contracts/Manager/UnemetaMarket.sol\":16619:16709  royaltyFeeManager... */\n      0x04\n      dup4\n      add\n        /* \"#utility.yul\":23143:23217   */\n      mstore\n        /* \"#utility.yul\":23233:23251   */\n      0x24\n      dup3\n      add\n        /* \"#utility.yul\":23226:23260   */\n      dup10\n      swap1\n      mstore\n        /* \"#utility.yul\":23276:23294   */\n      0x44\n      dup3\n      add\n        /* \"#utility.yul\":23269:23303   */\n      dup8\n      swap1\n      mstore\n        /* \"contracts/Manager/UnemetaMarket.sol\":16562:16589  address royaltyFeeRecipient */\n      0x00\n      swap3\n      dup4\n      swap3\n        /* \"contracts/Manager/UnemetaMarket.sol\":16619:16636  royaltyFeeManager */\n      swap2\n      and\n      swap1\n        /* \"contracts/Manager/UnemetaMarket.sol\":16619:16680  royaltyFeeManager... */\n      0xf4f635fa\n      swap1\n        /* \"#utility.yul\":23116:23134   */\n      0x64\n      add\n        /* \"contracts/Manager/UnemetaMarket.sol\":16619:16709  royaltyFeeManager... */\n      0x40\n      dup1\n      mload\n      dup1\n      dup4\n      sub\n      dup2\n      dup7\n      gas\n      staticcall\n      iszero\n      dup1\n      iszero\n      tag_441\n      jumpi\n      returndatasize\n      0x00\n      dup1\n      returndatacopy\n      revert(0x00, returndatasize)\n    tag_441:\n      pop\n      pop\n      pop\n      pop\n      mload(0x40)\n      returndatasize\n      not(0x1f)\n      0x1f\n      dup3\n      add\n      and\n      dup3\n      add\n      dup1\n      0x40\n      mstore\n      pop\n      dup2\n      add\n      swap1\n      tag_442\n      swap2\n      swap1\n      tag_399\n      jump\t// in\n    tag_442:\n        /* \"contracts/Manager/UnemetaMarket.sol\":16561:16709  (address royaltyFeeRecipient, uint256 royaltyFeeAmount) = royaltyFeeManager... */\n      swap1\n      swap3\n      pop\n      swap1\n      pop\n        /* \"contracts/Manager/UnemetaMarket.sol\":16805:16838  royaltyFeeRecipient != address(0) */\n      0xffffffffffffffffffffffffffffffffffffffff\n      dup3\n      and\n      iszero\n      dup1\n      iszero\n      swap1\n        /* \"contracts/Manager/UnemetaMarket.sol\":16804:16866  (royaltyFeeRecipient != address(0)) && (royaltyFeeAmount != 0) */\n      tag_443\n      jumpi\n      pop\n        /* \"contracts/Manager/UnemetaMarket.sol\":16844:16865  royaltyFeeAmount != 0 */\n      dup1\n      iszero\n      iszero\n        /* \"contracts/Manager/UnemetaMarket.sol\":16804:16866  (royaltyFeeRecipient != address(0)) && (royaltyFeeAmount != 0) */\n    tag_443:\n        /* \"contracts/Manager/UnemetaMarket.sol\":16800:17117  if ((royaltyFeeRecipient != address(0)) && (royaltyFeeAmount != 0)) {... */\n      iszero\n      tag_444\n      jumpi\n        /* \"contracts/Manager/UnemetaMarket.sol\":16882:16946  IERC20(WETH).safeTransfer(royaltyFeeRecipient, royaltyFeeAmount) */\n      tag_445\n        /* \"contracts/Manager/UnemetaMarket.sol\":16882:16907  IERC20(WETH).safeTransfer */\n      0xffffffffffffffffffffffffffffffffffffffff\n        /* \"contracts/Manager/UnemetaMarket.sol\":16889:16893  WETH */\n      immutable(\"0x27f7320d12022267a30ae0570361d18e54ded7bfc682ac5b98d912c6ab83c578\")\n        /* \"contracts/Manager/UnemetaMarket.sol\":16882:16907  IERC20(WETH).safeTransfer */\n      and\n        /* \"contracts/Manager/UnemetaMarket.sol\":16908:16927  royaltyFeeRecipient */\n      dup4\n        /* \"contracts/Manager/UnemetaMarket.sol\":16929:16945  royaltyFeeAmount */\n      dup4\n        /* \"contracts/Manager/UnemetaMarket.sol\":16882:16907  IERC20(WETH).safeTransfer */\n      tag_437\n        /* \"contracts/Manager/UnemetaMarket.sol\":16882:16946  IERC20(WETH).safeTransfer(royaltyFeeRecipient, royaltyFeeAmount) */\n      jump\t// in\n    tag_445:\n        /* \"contracts/Manager/UnemetaMarket.sol\":16960:16997  finalSellerAmount -= royaltyFeeAmount */\n      tag_446\n        /* \"contracts/Manager/UnemetaMarket.sol\":16981:16997  royaltyFeeAmount */\n      dup2\n        /* \"contracts/Manager/UnemetaMarket.sol\":16960:16997  finalSellerAmount -= royaltyFeeAmount */\n      dup6\n      tag_201\n      jump\t// in\n    tag_446:\n      swap4\n      pop\n        /* \"contracts/Manager/UnemetaMarket.sol\":17053:17072  royaltyFeeRecipient */\n      dup2\n        /* \"contracts/Manager/UnemetaMarket.sol\":17017:17106  RoyaltyPayment(collection, tokenId, royaltyFeeRecipient, address(WETH), royaltyFeeAmount) */\n      0xffffffffffffffffffffffffffffffffffffffff\n      and\n        /* \"contracts/Manager/UnemetaMarket.sol\":17044:17051  tokenId */\n      dup9\n        /* \"contracts/Manager/UnemetaMarket.sol\":17032:17042  collection */\n      dup11\n        /* \"contracts/Manager/UnemetaMarket.sol\":17017:17106  RoyaltyPayment(collection, tokenId, royaltyFeeRecipient, address(WETH), royaltyFeeAmount) */\n      0xffffffffffffffffffffffffffffffffffffffff\n      and\n      0x27c4f0403323142b599832f26acd21c74a9e5b809f2215726e244a4ac588cd7d\n        /* \"contracts/Manager/UnemetaMarket.sol\":17082:17086  WETH */\n      immutable(\"0x27f7320d12022267a30ae0570361d18e54ded7bfc682ac5b98d912c6ab83c578\")\n        /* \"contracts/Manager/UnemetaMarket.sol\":17089:17105  royaltyFeeAmount */\n      dup6\n        /* \"contracts/Manager/UnemetaMarket.sol\":17017:17106  RoyaltyPayment(collection, tokenId, royaltyFeeRecipient, address(WETH), royaltyFeeAmount) */\n      mload(0x40)\n      tag_447\n      swap3\n      swap2\n      swap1\n        /* \"#utility.yul\":23835:23877   */\n      0xffffffffffffffffffffffffffffffffffffffff\n        /* \"#utility.yul\":23823:23878   */\n      swap3\n      swap1\n      swap3\n      and\n        /* \"#utility.yul\":23805:23879   */\n      dup3\n      mstore\n        /* \"#utility.yul\":23910:23912   */\n      0x20\n        /* \"#utility.yul\":23895:23913   */\n      dup3\n      add\n        /* \"#utility.yul\":23888:23922   */\n      mstore\n        /* \"#utility.yul\":23793:23795   */\n      0x40\n        /* \"#utility.yul\":23778:23796   */\n      add\n      swap1\n        /* \"#utility.yul\":23631:23928   */\n      jump\n        /* \"contracts/Manager/UnemetaMarket.sol\":17017:17106  RoyaltyPayment(collection, tokenId, royaltyFeeRecipient, address(WETH), royaltyFeeAmount) */\n    tag_447:\n      mload(0x40)\n      dup1\n      swap2\n      sub\n      swap1\n      log4\n        /* \"contracts/Manager/UnemetaMarket.sol\":16800:17117  if ((royaltyFeeRecipient != address(0)) && (royaltyFeeAmount != 0)) {... */\n    tag_444:\n        /* \"contracts/Manager/UnemetaMarket.sol\":17241:17268  minPercentageToAsk * amount */\n      tag_448\n        /* \"contracts/Manager/UnemetaMarket.sol\":17262:17268  amount */\n      dup7\n        /* \"contracts/Manager/UnemetaMarket.sol\":17241:17259  minPercentageToAsk */\n      dup7\n        /* \"contracts/Manager/UnemetaMarket.sol\":17241:17268  minPercentageToAsk * amount */\n      tag_407\n      jump\t// in\n    tag_448:\n        /* \"contracts/Manager/UnemetaMarket.sol\":17210:17235  finalSellerAmount * 10000 */\n      tag_449\n        /* \"contracts/Manager/UnemetaMarket.sol\":17210:17227  finalSellerAmount */\n      dup6\n        /* \"contracts/Manager/UnemetaMarket.sol\":17230:17235  10000 */\n      0x2710\n        /* \"contracts/Manager/UnemetaMarket.sol\":17210:17235  finalSellerAmount * 10000 */\n      tag_407\n      jump\t// in\n    tag_449:\n        /* \"contracts/Manager/UnemetaMarket.sol\":17209:17269  (finalSellerAmount * 10000) >= (minPercentageToAsk * amount) */\n      lt\n      iszero\n        /* \"contracts/Manager/UnemetaMarket.sol\":17201:17308  require((finalSellerAmount * 10000) >= (minPercentageToAsk * amount), \"The fee is too high for the seller\") */\n      tag_450\n      jumpi\n      mload(0x40)\n      0x08c379a000000000000000000000000000000000000000000000000000000000\n      dup2\n      mstore\n        /* \"#utility.yul\":24308:24310   */\n      0x20\n        /* \"contracts/Manager/UnemetaMarket.sol\":17201:17308  require((finalSellerAmount * 10000) >= (minPercentageToAsk * amount), \"The fee is too high for the seller\") */\n      0x04\n      dup3\n      add\n        /* \"#utility.yul\":24290:24311   */\n      mstore\n        /* \"#utility.yul\":24347:24349   */\n      0x22\n        /* \"#utility.yul\":24327:24345   */\n      0x24\n      dup3\n      add\n        /* \"#utility.yul\":24320:24350   */\n      mstore\n        /* \"#utility.yul\":24386:24420   */\n      0x5468652066656520697320746f6f206869676820666f72207468652073656c6c\n        /* \"#utility.yul\":24366:24384   */\n      0x44\n      dup3\n      add\n        /* \"#utility.yul\":24359:24421   */\n      mstore\n        /* \"#utility.yul\":24457:24461   */\n      0x6572000000000000000000000000000000000000000000000000000000000000\n        /* \"#utility.yul\":24437:24455   */\n      0x64\n      dup3\n      add\n        /* \"#utility.yul\":24430:24462   */\n      mstore\n        /* \"#utility.yul\":24479:24498   */\n      0x84\n      add\n        /* \"contracts/Manager/UnemetaMarket.sol\":17201:17308  require((finalSellerAmount * 10000) >= (minPercentageToAsk * amount), \"The fee is too high for the seller\") */\n      tag_133\n        /* \"#utility.yul\":24106:24504   */\n      jump\n        /* \"contracts/Manager/UnemetaMarket.sol\":17201:17308  require((finalSellerAmount * 10000) >= (minPercentageToAsk * amount), \"The fee is too high for the seller\") */\n    tag_450:\n        /* \"contracts/Manager/UnemetaMarket.sol\":17354:17402  IERC20(WETH).safeTransfer(to, finalSellerAmount) */\n      tag_426\n        /* \"contracts/Manager/UnemetaMarket.sol\":17354:17379  IERC20(WETH).safeTransfer */\n      0xffffffffffffffffffffffffffffffffffffffff\n        /* \"contracts/Manager/UnemetaMarket.sol\":17361:17365  WETH */\n      immutable(\"0x27f7320d12022267a30ae0570361d18e54ded7bfc682ac5b98d912c6ab83c578\")\n        /* \"contracts/Manager/UnemetaMarket.sol\":17354:17379  IERC20(WETH).safeTransfer */\n      and\n        /* \"contracts/Manager/UnemetaMarket.sol\":17380:17382  to */\n      dup9\n        /* \"contracts/Manager/UnemetaMarket.sol\":17384:17401  finalSellerAmount */\n      dup7\n        /* \"contracts/Manager/UnemetaMarket.sol\":17354:17379  IERC20(WETH).safeTransfer */\n      tag_437\n        /* \"contracts/Manager/UnemetaMarket.sol\":17354:17402  IERC20(WETH).safeTransfer(to, finalSellerAmount) */\n      jump\t// in\n        /* \"@openzeppelin/contracts/access/Ownable.sol\":2433:2620  function _transferOwnership(address newOwner) internal virtual {... */\n    tag_284:\n        /* \"@openzeppelin/contracts/access/Ownable.sol\":2525:2531  _owner */\n      0x01\n      dup1\n      sload\n      0xffffffffffffffffffffffffffffffffffffffff\n        /* \"@openzeppelin/contracts/access/Ownable.sol\":2541:2558  _owner = newOwner */\n      dup4\n      dup2\n      and\n      0xffffffffffffffffffffffff0000000000000000000000000000000000000000\n      dup4\n      and\n      dup2\n      or\n      swap1\n      swap4\n      sstore\n        /* \"@openzeppelin/contracts/access/Ownable.sol\":2573:2613  OwnershipTransferred(oldOwner, newOwner) */\n      mload(0x40)\n        /* \"@openzeppelin/contracts/access/Ownable.sol\":2525:2531  _owner */\n      swap2\n      and\n      swap2\n        /* \"@openzeppelin/contracts/access/Ownable.sol\":2541:2558  _owner = newOwner */\n      swap1\n        /* \"@openzeppelin/contracts/access/Ownable.sol\":2525:2531  _owner */\n      dup3\n      swap1\n        /* \"@openzeppelin/contracts/access/Ownable.sol\":2573:2613  OwnershipTransferred(oldOwner, newOwner) */\n      0x8be0079c531659141344cd1fd0a4f28419497f9722a3daafe3b4186f6b6457e0\n      swap1\n        /* \"@openzeppelin/contracts/access/Ownable.sol\":2506:2522  address oldOwner */\n      0x00\n      swap1\n        /* \"@openzeppelin/contracts/access/Ownable.sol\":2573:2613  OwnershipTransferred(oldOwner, newOwner) */\n      log3\n        /* \"@openzeppelin/contracts/access/Ownable.sol\":2496:2620  {... */\n      pop\n        /* \"@openzeppelin/contracts/access/Ownable.sol\":2433:2620  function _transferOwnership(address newOwner) internal virtual {... */\n      pop\n      jump\t// out\n        /* \"contracts/libraries/SignatureChecker.sol\":1743:2649  function verify(... */\n    tag_366:\n        /* \"contracts/libraries/SignatureChecker.sol\":2124:2175  abi.encodePacked(\"\\x19\\x01\", domainSeparator, hash) */\n      mload(0x40)\n        /* \"#utility.yul\":26351:26417   */\n      0x1901000000000000000000000000000000000000000000000000000000000000\n        /* \"contracts/libraries/SignatureChecker.sol\":2124:2175  abi.encodePacked(\"\\x19\\x01\", domainSeparator, hash) */\n      0x20\n      dup3\n      add\n        /* \"#utility.yul\":26339:26418   */\n      mstore\n        /* \"#utility.yul\":26434:26445   */\n      0x22\n      dup2\n      add\n        /* \"#utility.yul\":26427:26454   */\n      dup3\n      swap1\n      mstore\n        /* \"#utility.yul\":26470:26482   */\n      0x42\n      dup2\n      add\n        /* \"#utility.yul\":26463:26491   */\n      dup8\n      swap1\n      mstore\n        /* \"contracts/libraries/SignatureChecker.sol\":1922:1926  bool */\n      0x00\n      swap1\n      dup2\n      swap1\n        /* \"#utility.yul\":26507:26519   */\n      0x62\n      add\n        /* \"contracts/libraries/SignatureChecker.sol\":2124:2175  abi.encodePacked(\"\\x19\\x01\", domainSeparator, hash) */\n      mload(0x40)\n      0x20\n      dup2\n      dup4\n      sub\n      sub\n      dup2\n      mstore\n      swap1\n      0x40\n      mstore\n        /* \"contracts/libraries/SignatureChecker.sol\":2114:2176  keccak256(abi.encodePacked(\"\\x19\\x01\", domainSeparator, hash)) */\n      dup1\n      mload\n      swap1\n      0x20\n      add\n      keccak256\n        /* \"contracts/libraries/SignatureChecker.sol\":2097:2176  bytes32 digest = keccak256(abi.encodePacked(\"\\x19\\x01\", domainSeparator, hash)) */\n      swap1\n      pop\n        /* \"contracts/libraries/SignatureChecker.sol\":2250:2276  Address.isContract(signer) */\n      tag_458\n        /* \"contracts/libraries/SignatureChecker.sol\":2269:2275  signer */\n      dup8\n        /* \"@openzeppelin/contracts/utils/Address.sol\":1465:1484  account.code.length */\n      0xffffffffffffffffffffffffffffffffffffffff\n      and\n      extcodesize\n        /* \"@openzeppelin/contracts/utils/Address.sol\":1465:1488  account.code.length > 0 */\n      iszero\n      iszero\n      swap1\n        /* \"@openzeppelin/contracts/utils/Address.sol\":1175:1495  function isContract(address account) internal view returns (bool) {... */\n      jump\n        /* \"contracts/libraries/SignatureChecker.sol\":2250:2276  Address.isContract(signer) */\n    tag_458:\n        /* \"contracts/libraries/SignatureChecker.sol\":2246:2643  if (Address.isContract(signer)) {... */\n      iszero\n      tag_460\n      jumpi\n        /* \"contracts/libraries/SignatureChecker.sol\":2453:2478  abi.encodePacked(r, s, v) */\n      0x40\n      dup1\n      mload\n      0x20\n      dup2\n      add\n        /* \"#utility.yul\":26711:26730   */\n      dup8\n      swap1\n      mstore\n        /* \"#utility.yul\":26746:26758   */\n      dup1\n      dup3\n      add\n        /* \"#utility.yul\":26739:26767   */\n      dup7\n      swap1\n      mstore\n        /* \"#utility.yul\":26805:26808   */\n      0xf8\n        /* \"#utility.yul\":26801:26817   */\n      dup9\n      swap1\n      shl\n        /* \"#utility.yul\":26819:26885   */\n      0xff00000000000000000000000000000000000000000000000000000000000000\n        /* \"#utility.yul\":26797:26886   */\n      and\n        /* \"#utility.yul\":26783:26795   */\n      0x60\n      dup3\n      add\n        /* \"#utility.yul\":26776:26887   */\n      mstore\n        /* \"contracts/libraries/SignatureChecker.sol\":2453:2478  abi.encodePacked(r, s, v) */\n      dup2\n      mload\n      0x41\n      dup2\n      dup4\n      sub\n      add\n      dup2\n      mstore\n        /* \"#utility.yul\":26903:26915   */\n      0x61\n      dup3\n      add\n        /* \"contracts/libraries/SignatureChecker.sol\":2453:2478  abi.encodePacked(r, s, v) */\n      swap3\n      dup4\n      swap1\n      mstore\n        /* \"contracts/libraries/SignatureChecker.sol\":2411:2479  IERC1271(signer).isValidSignature(digest, abi.encodePacked(r, s, v)) */\n      0x1626ba7e00000000000000000000000000000000000000000000000000000000\n      swap1\n      swap3\n      mstore\n        /* \"contracts/libraries/SignatureChecker.sol\":2411:2444  IERC1271(signer).isValidSignature */\n      0xffffffffffffffffffffffffffffffffffffffff\n      dup10\n      and\n      swap2\n      0x1626ba7e\n      swap2\n        /* \"contracts/libraries/SignatureChecker.sol\":2411:2479  IERC1271(signer).isValidSignature(digest, abi.encodePacked(r, s, v)) */\n      tag_463\n      swap2\n        /* \"contracts/libraries/SignatureChecker.sol\":2445:2451  digest */\n      dup6\n      swap2\n        /* \"contracts/libraries/SignatureChecker.sol\":2411:2479  IERC1271(signer).isValidSignature(digest, abi.encodePacked(r, s, v)) */\n      0x65\n      add\n      tag_464\n      jump\t// in\n    tag_463:\n      0x20\n      mload(0x40)\n      dup1\n      dup4\n      sub\n      dup2\n      dup7\n      gas\n      staticcall\n      iszero\n      dup1\n      iszero\n      tag_466\n      jumpi\n      returndatasize\n      0x00\n      dup1\n      returndatacopy\n      revert(0x00, returndatasize)\n    tag_466:\n      pop\n      pop\n      pop\n      pop\n      mload(0x40)\n      returndatasize\n      not(0x1f)\n      0x1f\n      dup3\n      add\n      and\n      dup3\n      add\n      dup1\n      0x40\n      mstore\n      pop\n      dup2\n      add\n      swap1\n      tag_467\n      swap2\n      swap1\n      tag_468\n      jump\t// in\n    tag_467:\n        /* \"contracts/libraries/SignatureChecker.sol\":2411:2493  IERC1271(signer).isValidSignature(digest, abi.encodePacked(r, s, v)) == 0x1626ba7e */\n      not(0xffffffffffffffffffffffffffffffffffffffffffffffffffffffff)\n      and\n        /* \"contracts/libraries/SignatureChecker.sol\":2483:2493  0x1626ba7e */\n      0x1626ba7e\n        /* \"contracts/libraries/SignatureChecker.sol\":2411:2493  IERC1271(signer).isValidSignature(digest, abi.encodePacked(r, s, v)) == 0x1626ba7e */\n      0xe0\n      shl\n      eq\n        /* \"contracts/libraries/SignatureChecker.sol\":2404:2493  return IERC1271(signer).isValidSignature(digest, abi.encodePacked(r, s, v)) == 0x1626ba7e */\n      swap2\n      pop\n      pop\n      jump(tag_455)\n        /* \"contracts/libraries/SignatureChecker.sol\":2246:2643  if (Address.isContract(signer)) {... */\n    tag_460:\n        /* \"contracts/libraries/SignatureChecker.sol\":2626:2632  signer */\n      dup7\n        /* \"contracts/libraries/SignatureChecker.sol\":2598:2632  recover(digest, v, r, s) == signer */\n      0xffffffffffffffffffffffffffffffffffffffff\n      and\n        /* \"contracts/libraries/SignatureChecker.sol\":2598:2622  recover(digest, v, r, s) */\n      tag_470\n        /* \"contracts/libraries/SignatureChecker.sol\":2606:2612  digest */\n      dup3\n        /* \"contracts/libraries/SignatureChecker.sol\":2614:2615  v */\n      dup9\n        /* \"contracts/libraries/SignatureChecker.sol\":2617:2618  r */\n      dup9\n        /* \"contracts/libraries/SignatureChecker.sol\":2620:2621  s */\n      dup9\n        /* \"contracts/libraries/SignatureChecker.sol\":2598:2605  recover */\n      tag_471\n        /* \"contracts/libraries/SignatureChecker.sol\":2598:2622  recover(digest, v, r, s) */\n      jump\t// in\n    tag_470:\n        /* \"contracts/libraries/SignatureChecker.sol\":2598:2632  recover(digest, v, r, s) == signer */\n      0xffffffffffffffffffffffffffffffffffffffff\n      and\n      eq\n        /* \"contracts/libraries/SignatureChecker.sol\":2591:2632  return recover(digest, v, r, s) == signer */\n      swap2\n      pop\n      pop\n        /* \"contracts/libraries/SignatureChecker.sol\":1743:2649  function verify(... */\n    tag_455:\n      swap7\n      swap6\n      pop\n      pop\n      pop\n      pop\n      pop\n      pop\n      jump\t// out\n        /* \"contracts/Manager/UnemetaMarket.sol\":18551:18781  function _calculateProtocolFee(address theStrategy, uint256 amount) internal view returns (uint256) {... */\n    tag_389:\n        /* \"contracts/Manager/UnemetaMarket.sol\":18642:18649  uint256 */\n      0x00\n        /* \"contracts/Manager/UnemetaMarket.sol\":18661:18680  uint256 protocolFee */\n      dup1\n        /* \"contracts/Manager/UnemetaMarket.sol\":18697:18708  theStrategy */\n      dup4\n        /* \"contracts/Manager/UnemetaMarket.sol\":18683:18725  TheExStrategy(theStrategy).viewProtocolFee */\n      0xffffffffffffffffffffffffffffffffffffffff\n      and\n      0x9dd1cda6\n        /* \"contracts/Manager/UnemetaMarket.sol\":18683:18727  TheExStrategy(theStrategy).viewProtocolFee() */\n      mload(0x40)\n      dup2\n      0xffffffff\n      and\n      0xe0\n      shl\n      dup2\n      mstore\n      0x04\n      add\n      0x20\n      mload(0x40)\n      dup1\n      dup4\n      sub\n      dup2\n      dup7\n      gas\n      staticcall\n      iszero\n      dup1\n      iszero\n      tag_474\n      jumpi\n      returndatasize\n      0x00\n      dup1\n      returndatacopy\n      revert(0x00, returndatasize)\n    tag_474:\n      pop\n      pop\n      pop\n      pop\n      mload(0x40)\n      returndatasize\n      not(0x1f)\n      0x1f\n      dup3\n      add\n      and\n      dup3\n      add\n      dup1\n      0x40\n      mstore\n      pop\n      dup2\n      add\n      swap1\n      tag_475\n      swap2\n      swap1\n      tag_476\n      jump\t// in\n    tag_475:\n        /* \"contracts/Manager/UnemetaMarket.sol\":18661:18727  uint256 protocolFee = TheExStrategy(theStrategy).viewProtocolFee() */\n      swap1\n      pop\n        /* \"contracts/Manager/UnemetaMarket.sol\":18769:18774  10000 */\n      0x2710\n        /* \"contracts/Manager/UnemetaMarket.sol\":18745:18765  protocolFee * amount */\n      tag_477\n        /* \"contracts/Manager/UnemetaMarket.sol\":18759:18765  amount */\n      dup5\n        /* \"contracts/Manager/UnemetaMarket.sol\":18661:18727  uint256 protocolFee = TheExStrategy(theStrategy).viewProtocolFee() */\n      dup4\n        /* \"contracts/Manager/UnemetaMarket.sol\":18745:18765  protocolFee * amount */\n      tag_407\n      jump\t// in\n    tag_477:\n        /* \"contracts/Manager/UnemetaMarket.sol\":18744:18774  (protocolFee * amount) / 10000 */\n      tag_478\n      swap2\n      swap1\n      tag_479\n      jump\t// in\n    tag_478:\n        /* \"contracts/Manager/UnemetaMarket.sol\":18737:18774  return (protocolFee * amount) / 10000 */\n      swap5\n        /* \"contracts/Manager/UnemetaMarket.sol\":18551:18781  function _calculateProtocolFee(address theStrategy, uint256 amount) internal view returns (uint256) {... */\n      swap4\n      pop\n      pop\n      pop\n      pop\n      jump\t// out\n        /* \"@openzeppelin/contracts/token/ERC20/utils/SafeERC20.sol\":3747:4453  function _callOptionalReturn(IERC20 token, bytes memory data) private {... */\n    tag_431:\n        /* \"@openzeppelin/contracts/token/ERC20/utils/SafeERC20.sol\":4166:4189  bytes memory returndata */\n      0x00\n        /* \"@openzeppelin/contracts/token/ERC20/utils/SafeERC20.sol\":4192:4261  address(token).functionCall(data, \"SafeERC20: low-level call failed\") */\n      tag_481\n        /* \"@openzeppelin/contracts/token/ERC20/utils/SafeERC20.sol\":4220:4224  data */\n      dup3\n        /* \"@openzeppelin/contracts/token/ERC20/utils/SafeERC20.sol\":4192:4261  address(token).functionCall(data, \"SafeERC20: low-level call failed\") */\n      mload(0x40)\n      dup1\n      0x40\n      add\n      0x40\n      mstore\n      dup1\n      0x20\n      dup2\n      mstore\n      0x20\n      add\n      0x5361666545524332303a206c6f772d6c6576656c2063616c6c206661696c6564\n      dup2\n      mstore\n      pop\n        /* \"@openzeppelin/contracts/token/ERC20/utils/SafeERC20.sol\":4200:4205  token */\n      dup6\n        /* \"@openzeppelin/contracts/token/ERC20/utils/SafeERC20.sol\":4192:4219  address(token).functionCall */\n      0xffffffffffffffffffffffffffffffffffffffff\n      and\n      tag_482\n      swap1\n        /* \"@openzeppelin/contracts/token/ERC20/utils/SafeERC20.sol\":4192:4261  address(token).functionCall(data, \"SafeERC20: low-level call failed\") */\n      swap3\n      swap2\n      swap1\n      0xffffffff\n      and\n      jump\t// in\n    tag_481:\n        /* \"@openzeppelin/contracts/token/ERC20/utils/SafeERC20.sol\":4275:4292  returndata.length */\n      dup1\n      mload\n        /* \"@openzeppelin/contracts/token/ERC20/utils/SafeERC20.sol\":4166:4261  bytes memory returndata = address(token).functionCall(data, \"SafeERC20: low-level call failed\") */\n      swap1\n      swap2\n      pop\n        /* \"@openzeppelin/contracts/token/ERC20/utils/SafeERC20.sol\":4275:4296  returndata.length > 0 */\n      iszero\n        /* \"@openzeppelin/contracts/token/ERC20/utils/SafeERC20.sol\":4271:4447  if (returndata.length > 0) {... */\n      tag_384\n      jumpi\n        /* \"@openzeppelin/contracts/token/ERC20/utils/SafeERC20.sol\":4370:4380  returndata */\n      dup1\n        /* \"@openzeppelin/contracts/token/ERC20/utils/SafeERC20.sol\":4359:4389  abi.decode(returndata, (bool)) */\n      dup1\n      0x20\n      add\n      swap1\n      mload\n      dup2\n      add\n      swap1\n      tag_484\n      swap2\n      swap1\n      tag_375\n      jump\t// in\n    tag_484:\n        /* \"@openzeppelin/contracts/token/ERC20/utils/SafeERC20.sol\":4351:4436  require(abi.decode(returndata, (bool)), \"SafeERC20: ERC20 operation did not succeed\") */\n      tag_384\n      jumpi\n      mload(0x40)\n      0x08c379a000000000000000000000000000000000000000000000000000000000\n      dup2\n      mstore\n        /* \"#utility.yul\":28819:28821   */\n      0x20\n        /* \"@openzeppelin/contracts/token/ERC20/utils/SafeERC20.sol\":4351:4436  require(abi.decode(returndata, (bool)), \"SafeERC20: ERC20 operation did not succeed\") */\n      0x04\n      dup3\n      add\n        /* \"#utility.yul\":28801:28822   */\n      mstore\n        /* \"#utility.yul\":28858:28860   */\n      0x2a\n        /* \"#utility.yul\":28838:28856   */\n      0x24\n      dup3\n      add\n        /* \"#utility.yul\":28831:28861   */\n      mstore\n        /* \"#utility.yul\":28897:28931   */\n      0x5361666545524332303a204552433230206f7065726174696f6e20646964206e\n        /* \"#utility.yul\":28877:28895   */\n      0x44\n      dup3\n      add\n        /* \"#utility.yul\":28870:28932   */\n      mstore\n        /* \"#utility.yul\":28968:28980   */\n      0x6f74207375636365656400000000000000000000000000000000000000000000\n        /* \"#utility.yul\":28948:28966   */\n      0x64\n      dup3\n      add\n        /* \"#utility.yul\":28941:28981   */\n      mstore\n        /* \"#utility.yul\":28998:29017   */\n      0x84\n      add\n        /* \"@openzeppelin/contracts/token/ERC20/utils/SafeERC20.sol\":4351:4436  require(abi.decode(returndata, (bool)), \"SafeERC20: ERC20 operation did not succeed\") */\n      tag_133\n        /* \"#utility.yul\":28617:29023   */\n      jump\n        /* \"@openzeppelin/contracts/token/ERC20/utils/SafeERC20.sol\":763:968  function safeTransfer(... */\n    tag_437:\n        /* \"@openzeppelin/contracts/token/ERC20/utils/SafeERC20.sol\":902:960  abi.encodeWithSelector(token.transfer.selector, to, value) */\n      mload(0x40)\n        /* \"#utility.yul\":23835:23877   */\n      0xffffffffffffffffffffffffffffffffffffffff\n        /* \"#utility.yul\":23823:23878   */\n      dup4\n      and\n        /* \"@openzeppelin/contracts/token/ERC20/utils/SafeERC20.sol\":902:960  abi.encodeWithSelector(token.transfer.selector, to, value) */\n      0x24\n      dup3\n      add\n        /* \"#utility.yul\":23805:23879   */\n      mstore\n        /* \"#utility.yul\":23895:23913   */\n      0x44\n      dup2\n      add\n        /* \"#utility.yul\":23888:23922   */\n      dup3\n      swap1\n      mstore\n        /* \"@openzeppelin/contracts/token/ERC20/utils/SafeERC20.sol\":875:961  _callOptionalReturn(token, abi.encodeWithSelector(token.transfer.selector, to, value)) */\n      tag_384\n      swap1\n        /* \"@openzeppelin/contracts/token/ERC20/utils/SafeERC20.sol\":895:900  token */\n      dup5\n      swap1\n        /* \"@openzeppelin/contracts/token/ERC20/utils/SafeERC20.sol\":925:948  token.transfer.selector */\n      0xa9059cbb00000000000000000000000000000000000000000000000000000000\n      swap1\n        /* \"#utility.yul\":23778:23796   */\n      0x64\n      add\n        /* \"@openzeppelin/contracts/token/ERC20/utils/SafeERC20.sol\":902:960  abi.encodeWithSelector(token.transfer.selector, to, value) */\n      tag_429\n        /* \"#utility.yul\":23631:23928   */\n      jump\n        /* \"contracts/libraries/SignatureChecker.sol\":688:1459  function recover(... */\n    tag_471:\n        /* \"contracts/libraries/SignatureChecker.sol\":811:818  address */\n      0x00\n        /* \"contracts/libraries/SignatureChecker.sol\":1083:1149  0x7FFFFFFFFFFFFFFFFFFFFFFFFFFFFFFF5D576E7357A4501DDFE92F46681B20A0 */\n      0x7fffffffffffffffffffffffffffffff5d576e7357a4501ddfe92f46681b20a0\n        /* \"contracts/libraries/SignatureChecker.sol\":1069:1149  uint256(s) <= 0x7FFFFFFFFFFFFFFFFFFFFFFFFFFFFFFF5D576E7357A4501DDFE92F46681B20A0 */\n      dup3\n      gt\n      iszero\n        /* \"contracts/libraries/SignatureChecker.sol\":1048:1195  require(... */\n      tag_493\n      jumpi\n      mload(0x40)\n      0x08c379a000000000000000000000000000000000000000000000000000000000\n      dup2\n      mstore\n        /* \"#utility.yul\":29230:29232   */\n      0x20\n        /* \"contracts/libraries/SignatureChecker.sol\":1048:1195  require(... */\n      0x04\n      dup3\n      add\n        /* \"#utility.yul\":29212:29233   */\n      mstore\n        /* \"#utility.yul\":29269:29271   */\n      0x14\n        /* \"#utility.yul\":29249:29267   */\n      0x24\n      dup3\n      add\n        /* \"#utility.yul\":29242:29272   */\n      mstore\n        /* \"#utility.yul\":29308:29330   */\n      0x20496e76616c6964207320706172616d65746572000000000000000000000000\n        /* \"#utility.yul\":29288:29306   */\n      0x44\n      dup3\n      add\n        /* \"#utility.yul\":29281:29331   */\n      mstore\n        /* \"#utility.yul\":29348:29366   */\n      0x64\n      add\n        /* \"contracts/libraries/SignatureChecker.sol\":1048:1195  require(... */\n      tag_133\n        /* \"#utility.yul\":29028:29372   */\n      jump\n        /* \"contracts/libraries/SignatureChecker.sol\":1048:1195  require(... */\n    tag_493:\n        /* \"contracts/libraries/SignatureChecker.sol\":1214:1215  v */\n      dup4\n        /* \"contracts/libraries/SignatureChecker.sol\":1214:1221  v == 27 */\n      0xff\n      and\n        /* \"contracts/libraries/SignatureChecker.sol\":1219:1221  27 */\n      0x1b\n        /* \"contracts/libraries/SignatureChecker.sol\":1214:1221  v == 27 */\n      eq\n        /* \"contracts/libraries/SignatureChecker.sol\":1214:1232  v == 27 || v == 28 */\n      dup1\n      tag_496\n      jumpi\n      pop\n        /* \"contracts/libraries/SignatureChecker.sol\":1225:1226  v */\n      dup4\n        /* \"contracts/libraries/SignatureChecker.sol\":1225:1232  v == 28 */\n      0xff\n      and\n        /* \"contracts/libraries/SignatureChecker.sol\":1230:1232  28 */\n      0x1c\n        /* \"contracts/libraries/SignatureChecker.sol\":1225:1232  v == 28 */\n      eq\n        /* \"contracts/libraries/SignatureChecker.sol\":1214:1232  v == 27 || v == 28 */\n    tag_496:\n        /* \"contracts/libraries/SignatureChecker.sol\":1206:1256  require(v == 27 || v == 28, \"Invalid v parameter\") */\n      tag_497\n      jumpi\n      mload(0x40)\n      0x08c379a000000000000000000000000000000000000000000000000000000000\n      dup2\n      mstore\n        /* \"#utility.yul\":29579:29581   */\n      0x20\n        /* \"contracts/libraries/SignatureChecker.sol\":1206:1256  require(v == 27 || v == 28, \"Invalid v parameter\") */\n      0x04\n      dup3\n      add\n        /* \"#utility.yul\":29561:29582   */\n      mstore\n        /* \"#utility.yul\":29618:29620   */\n      0x13\n        /* \"#utility.yul\":29598:29616   */\n      0x24\n      dup3\n      add\n        /* \"#utility.yul\":29591:29621   */\n      mstore\n        /* \"#utility.yul\":29657:29678   */\n      0x496e76616c6964207620706172616d6574657200000000000000000000000000\n        /* \"#utility.yul\":29637:29655   */\n      0x44\n      dup3\n      add\n        /* \"#utility.yul\":29630:29679   */\n      mstore\n        /* \"#utility.yul\":29696:29714   */\n      0x64\n      add\n        /* \"contracts/libraries/SignatureChecker.sol\":1206:1256  require(v == 27 || v == 28, \"Invalid v parameter\") */\n      tag_133\n        /* \"#utility.yul\":29377:29720   */\n      jump\n        /* \"contracts/libraries/SignatureChecker.sol\":1206:1256  require(v == 27 || v == 28, \"Invalid v parameter\") */\n    tag_497:\n        /* \"contracts/libraries/SignatureChecker.sol\":1346:1370  ecrecover(hash, v, r, s) */\n      0x40\n      dup1\n      mload\n        /* \"contracts/libraries/SignatureChecker.sol\":1329:1343  address signer */\n      0x00\n        /* \"contracts/libraries/SignatureChecker.sol\":1346:1370  ecrecover(hash, v, r, s) */\n      dup1\n      dup3\n      mstore\n      0x20\n      dup3\n      add\n      dup1\n      dup5\n      mstore\n        /* \"#utility.yul\":29952:29977   */\n      dup9\n      swap1\n      mstore\n        /* \"#utility.yul\":30025:30029   */\n      0xff\n        /* \"#utility.yul\":30013:30030   */\n      dup8\n      and\n        /* \"#utility.yul\":29993:30011   */\n      swap3\n      dup3\n      add\n        /* \"#utility.yul\":29986:30031   */\n      swap3\n      swap1\n      swap3\n      mstore\n        /* \"#utility.yul\":30047:30065   */\n      0x60\n      dup2\n      add\n        /* \"#utility.yul\":30040:30074   */\n      dup6\n      swap1\n      mstore\n        /* \"#utility.yul\":30090:30108   */\n      0x80\n      dup2\n      add\n        /* \"#utility.yul\":30083:30117   */\n      dup5\n      swap1\n      mstore\n        /* \"contracts/libraries/SignatureChecker.sol\":1346:1370  ecrecover(hash, v, r, s) */\n      0x01\n      swap1\n        /* \"#utility.yul\":29924:29943   */\n      0xa0\n      add\n        /* \"contracts/libraries/SignatureChecker.sol\":1346:1370  ecrecover(hash, v, r, s) */\n      0x20\n      mload(0x40)\n      0x20\n      dup2\n      sub\n      swap1\n      dup1\n      dup5\n      sub\n      swap1\n      dup6\n      gas\n      staticcall\n      iszero\n      dup1\n      iszero\n      tag_503\n      jumpi\n      returndatasize\n      0x00\n      dup1\n      returndatacopy\n      revert(0x00, returndatasize)\n    tag_503:\n      pop\n      pop\n      mload(add(0xffffffffffffffffffffffffffffffffffffffffffffffffffffffffffffffe0, mload(0x40)))\n      swap2\n      pop\n      pop\n        /* \"contracts/libraries/SignatureChecker.sol\":1388:1408  signer != address(0) */\n      0xffffffffffffffffffffffffffffffffffffffff\n      dup2\n      and\n        /* \"contracts/libraries/SignatureChecker.sol\":1380:1428  require(signer != address(0), \" Invalid signer\") */\n      tag_504\n      jumpi\n      mload(0x40)\n      0x08c379a000000000000000000000000000000000000000000000000000000000\n      dup2\n      mstore\n        /* \"#utility.yul\":30330:30332   */\n      0x20\n        /* \"contracts/libraries/SignatureChecker.sol\":1380:1428  require(signer != address(0), \" Invalid signer\") */\n      0x04\n      dup3\n      add\n        /* \"#utility.yul\":30312:30333   */\n      mstore\n        /* \"#utility.yul\":30369:30371   */\n      0x0f\n        /* \"#utility.yul\":30349:30367   */\n      0x24\n      dup3\n      add\n        /* \"#utility.yul\":30342:30372   */\n      mstore\n        /* \"#utility.yul\":30408:30425   */\n      0x20496e76616c6964207369676e65720000000000000000000000000000000000\n        /* \"#utility.yul\":30388:30406   */\n      0x44\n      dup3\n      add\n        /* \"#utility.yul\":30381:30426   */\n      mstore\n        /* \"#utility.yul\":30443:30461   */\n      0x64\n      add\n        /* \"contracts/libraries/SignatureChecker.sol\":1380:1428  require(signer != address(0), \" Invalid signer\") */\n      tag_133\n        /* \"#utility.yul\":30128:30467   */\n      jump\n        /* \"contracts/libraries/SignatureChecker.sol\":1380:1428  require(signer != address(0), \" Invalid signer\") */\n    tag_504:\n        /* \"contracts/libraries/SignatureChecker.sol\":1446:1452  signer */\n      swap6\n        /* \"contracts/libraries/SignatureChecker.sol\":688:1459  function recover(... */\n      swap5\n      pop\n      pop\n      pop\n      pop\n      pop\n      jump\t// out\n        /* \"@openzeppelin/contracts/utils/Address.sol\":3861:4084  function functionCall(... */\n    tag_482:\n        /* \"@openzeppelin/contracts/utils/Address.sol\":3994:4006  bytes memory */\n      0x60\n        /* \"@openzeppelin/contracts/utils/Address.sol\":4025:4077  functionCallWithValue(target, data, 0, errorMessage) */\n      tag_508\n        /* \"@openzeppelin/contracts/utils/Address.sol\":4047:4053  target */\n      dup5\n        /* \"@openzeppelin/contracts/utils/Address.sol\":4055:4059  data */\n      dup5\n        /* \"@openzeppelin/contracts/utils/Address.sol\":4061:4062  0 */\n      0x00\n        /* \"@openzeppelin/contracts/utils/Address.sol\":4064:4076  errorMessage */\n      dup6\n        /* \"@openzeppelin/contracts/utils/Address.sol\":4025:4046  functionCallWithValue */\n      tag_509\n        /* \"@openzeppelin/contracts/utils/Address.sol\":4025:4077  functionCallWithValue(target, data, 0, errorMessage) */\n      jump\t// in\n    tag_508:\n        /* \"@openzeppelin/contracts/utils/Address.sol\":4018:4077  return functionCallWithValue(target, data, 0, errorMessage) */\n      swap1\n      pop\n        /* \"@openzeppelin/contracts/utils/Address.sol\":3861:4084  function functionCall(... */\n    tag_507:\n      swap4\n      swap3\n      pop\n      pop\n      pop\n      jump\t// out\n        /* \"@openzeppelin/contracts/utils/Address.sol\":4948:5447  function functionCallWithValue(... */\n    tag_509:\n        /* \"@openzeppelin/contracts/utils/Address.sol\":5113:5125  bytes memory */\n      0x60\n        /* \"@openzeppelin/contracts/utils/Address.sol\":5170:5175  value */\n      dup3\n        /* \"@openzeppelin/contracts/utils/Address.sol\":5145:5166  address(this).balance */\n      selfbalance\n        /* \"@openzeppelin/contracts/utils/Address.sol\":5145:5175  address(this).balance >= value */\n      lt\n      iszero\n        /* \"@openzeppelin/contracts/utils/Address.sol\":5137:5218  require(address(this).balance >= value, \"Address: insufficient balance for call\") */\n      tag_511\n      jumpi\n      mload(0x40)\n      0x08c379a000000000000000000000000000000000000000000000000000000000\n      dup2\n      mstore\n        /* \"#utility.yul\":30674:30676   */\n      0x20\n        /* \"@openzeppelin/contracts/utils/Address.sol\":5137:5218  require(address(this).balance >= value, \"Address: insufficient balance for call\") */\n      0x04\n      dup3\n      add\n        /* \"#utility.yul\":30656:30677   */\n      mstore\n        /* \"#utility.yul\":30713:30715   */\n      0x26\n        /* \"#utility.yul\":30693:30711   */\n      0x24\n      dup3\n      add\n        /* \"#utility.yul\":30686:30716   */\n      mstore\n        /* \"#utility.yul\":30752:30786   */\n      0x416464726573733a20696e73756666696369656e742062616c616e636520666f\n        /* \"#utility.yul\":30732:30750   */\n      0x44\n      dup3\n      add\n        /* \"#utility.yul\":30725:30787   */\n      mstore\n        /* \"#utility.yul\":30823:30831   */\n      0x722063616c6c0000000000000000000000000000000000000000000000000000\n        /* \"#utility.yul\":30803:30821   */\n      0x64\n      dup3\n      add\n        /* \"#utility.yul\":30796:30832   */\n      mstore\n        /* \"#utility.yul\":30849:30868   */\n      0x84\n      add\n        /* \"@openzeppelin/contracts/utils/Address.sol\":5137:5218  require(address(this).balance >= value, \"Address: insufficient balance for call\") */\n      tag_133\n        /* \"#utility.yul\":30472:30874   */\n      jump\n        /* \"@openzeppelin/contracts/utils/Address.sol\":5137:5218  require(address(this).balance >= value, \"Address: insufficient balance for call\") */\n    tag_511:\n        /* \"@openzeppelin/contracts/utils/Address.sol\":1465:1484  account.code.length */\n      0xffffffffffffffffffffffffffffffffffffffff\n      dup6\n      and\n      extcodesize\n        /* \"@openzeppelin/contracts/utils/Address.sol\":5228:5288  require(isContract(target), \"Address: call to non-contract\") */\n      tag_515\n      jumpi\n      mload(0x40)\n      0x08c379a000000000000000000000000000000000000000000000000000000000\n      dup2\n      mstore\n        /* \"#utility.yul\":31081:31083   */\n      0x20\n        /* \"@openzeppelin/contracts/utils/Address.sol\":5228:5288  require(isContract(target), \"Address: call to non-contract\") */\n      0x04\n      dup3\n      add\n        /* \"#utility.yul\":31063:31084   */\n      mstore\n        /* \"#utility.yul\":31120:31122   */\n      0x1d\n        /* \"#utility.yul\":31100:31118   */\n      0x24\n      dup3\n      add\n        /* \"#utility.yul\":31093:31123   */\n      mstore\n        /* \"#utility.yul\":31159:31190   */\n      0x416464726573733a2063616c6c20746f206e6f6e2d636f6e7472616374000000\n        /* \"#utility.yul\":31139:31157   */\n      0x44\n      dup3\n      add\n        /* \"#utility.yul\":31132:31191   */\n      mstore\n        /* \"#utility.yul\":31208:31226   */\n      0x64\n      add\n        /* \"@openzeppelin/contracts/utils/Address.sol\":5228:5288  require(isContract(target), \"Address: call to non-contract\") */\n      tag_133\n        /* \"#utility.yul\":30879:31232   */\n      jump\n        /* \"@openzeppelin/contracts/utils/Address.sol\":5228:5288  require(isContract(target), \"Address: call to non-contract\") */\n    tag_515:\n        /* \"@openzeppelin/contracts/utils/Address.sol\":5300:5312  bool success */\n      0x00\n        /* \"@openzeppelin/contracts/utils/Address.sol\":5314:5337  bytes memory returndata */\n      dup1\n        /* \"@openzeppelin/contracts/utils/Address.sol\":5341:5347  target */\n      dup7\n        /* \"@openzeppelin/contracts/utils/Address.sol\":5341:5352  target.call */\n      0xffffffffffffffffffffffffffffffffffffffff\n      and\n        /* \"@openzeppelin/contracts/utils/Address.sol\":5360:5365  value */\n      dup6\n        /* \"@openzeppelin/contracts/utils/Address.sol\":5367:5371  data */\n      dup8\n        /* \"@openzeppelin/contracts/utils/Address.sol\":5341:5372  target.call{value: value}(data) */\n      mload(0x40)\n      tag_518\n      swap2\n      swap1\n      tag_519\n      jump\t// in\n    tag_518:\n      0x00\n      mload(0x40)\n      dup1\n      dup4\n      sub\n      dup2\n      dup6\n      dup8\n      gas\n      call\n      swap3\n      pop\n      pop\n      pop\n      returndatasize\n      dup1\n      0x00\n      dup2\n      eq\n      tag_522\n      jumpi\n      mload(0x40)\n      swap2\n      pop\n      and(add(returndatasize, 0x3f), not(0x1f))\n      dup3\n      add\n      0x40\n      mstore\n      returndatasize\n      dup3\n      mstore\n      returndatasize\n      0x00\n      0x20\n      dup5\n      add\n      returndatacopy\n      jump(tag_521)\n    tag_522:\n      0x60\n      swap2\n      pop\n    tag_521:\n      pop\n        /* \"@openzeppelin/contracts/utils/Address.sol\":5299:5372  (bool success, bytes memory returndata) = target.call{value: value}(data) */\n      swap2\n      pop\n      swap2\n      pop\n        /* \"@openzeppelin/contracts/utils/Address.sol\":5389:5440  verifyCallResult(success, returndata, errorMessage) */\n      tag_523\n        /* \"@openzeppelin/contracts/utils/Address.sol\":5406:5413  success */\n      dup3\n        /* \"@openzeppelin/contracts/utils/Address.sol\":5415:5425  returndata */\n      dup3\n        /* \"@openzeppelin/contracts/utils/Address.sol\":5427:5439  errorMessage */\n      dup7\n        /* \"@openzeppelin/contracts/utils/Address.sol\":5389:5405  verifyCallResult */\n      tag_524\n        /* \"@openzeppelin/contracts/utils/Address.sol\":5389:5440  verifyCallResult(success, returndata, errorMessage) */\n      jump\t// in\n    tag_523:\n        /* \"@openzeppelin/contracts/utils/Address.sol\":5382:5440  return verifyCallResult(success, returndata, errorMessage) */\n      swap8\n        /* \"@openzeppelin/contracts/utils/Address.sol\":4948:5447  function functionCallWithValue(... */\n      swap7\n      pop\n      pop\n      pop\n      pop\n      pop\n      pop\n      pop\n      jump\t// out\n        /* \"@openzeppelin/contracts/utils/Address.sol\":7561:8303  function verifyCallResult(... */\n    tag_524:\n        /* \"@openzeppelin/contracts/utils/Address.sol\":7707:7719  bytes memory */\n      0x60\n        /* \"@openzeppelin/contracts/utils/Address.sol\":7735:7742  success */\n      dup4\n        /* \"@openzeppelin/contracts/utils/Address.sol\":7731:8297  if (success) {... */\n      iszero\n      tag_526\n      jumpi\n      pop\n        /* \"@openzeppelin/contracts/utils/Address.sol\":7765:7775  returndata */\n      dup2\n        /* \"@openzeppelin/contracts/utils/Address.sol\":7758:7775  return returndata */\n      jump(tag_507)\n        /* \"@openzeppelin/contracts/utils/Address.sol\":7731:8297  if (success) {... */\n    tag_526:\n        /* \"@openzeppelin/contracts/utils/Address.sol\":7876:7893  returndata.length */\n      dup3\n      mload\n        /* \"@openzeppelin/contracts/utils/Address.sol\":7876:7897  returndata.length > 0 */\n      iszero\n        /* \"@openzeppelin/contracts/utils/Address.sol\":7872:8287  if (returndata.length > 0) {... */\n      tag_528\n      jumpi\n        /* \"@openzeppelin/contracts/utils/Address.sol\":8120:8130  returndata */\n      dup3\n        /* \"@openzeppelin/contracts/utils/Address.sol\":8114:8131  mload(returndata) */\n      mload\n        /* \"@openzeppelin/contracts/utils/Address.sol\":8180:8195  returndata_size */\n      dup1\n        /* \"@openzeppelin/contracts/utils/Address.sol\":8167:8177  returndata */\n      dup5\n        /* \"@openzeppelin/contracts/utils/Address.sol\":8163:8165  32 */\n      0x20\n        /* \"@openzeppelin/contracts/utils/Address.sol\":8159:8178  add(32, returndata) */\n      add\n        /* \"@openzeppelin/contracts/utils/Address.sol\":8152:8196  revert(add(32, returndata), returndata_size) */\n      revert\n        /* \"@openzeppelin/contracts/utils/Address.sol\":7872:8287  if (returndata.length > 0) {... */\n    tag_528:\n        /* \"@openzeppelin/contracts/utils/Address.sol\":8259:8271  errorMessage */\n      dup2\n        /* \"@openzeppelin/contracts/utils/Address.sol\":8252:8272  revert(errorMessage) */\n      mload(0x40)\n      0x08c379a000000000000000000000000000000000000000000000000000000000\n      dup2\n      mstore\n      0x04\n      add\n      tag_133\n      swap2\n      swap1\n      tag_531\n      jump\t// in\n        /* \"#utility.yul\":272:426   */\n    tag_532:\n        /* \"#utility.yul\":358:400   */\n      0xffffffffffffffffffffffffffffffffffffffff\n        /* \"#utility.yul\":351:356   */\n      dup2\n        /* \"#utility.yul\":347:401   */\n      and\n        /* \"#utility.yul\":340:345   */\n      dup2\n        /* \"#utility.yul\":337:402   */\n      eq\n        /* \"#utility.yul\":327:420   */\n      tag_330\n      jumpi\n        /* \"#utility.yul\":416:417   */\n      0x00\n        /* \"#utility.yul\":413:414   */\n      dup1\n        /* \"#utility.yul\":406:418   */\n      revert\n        /* \"#utility.yul\":431:565   */\n    tag_533:\n        /* \"#utility.yul\":499:519   */\n      dup1\n      calldataload\n        /* \"#utility.yul\":528:559   */\n      tag_553\n        /* \"#utility.yul\":499:519   */\n      dup2\n        /* \"#utility.yul\":528:559   */\n      tag_532\n      jump\t// in\n    tag_553:\n        /* \"#utility.yul\":431:565   */\n      swap2\n      swap1\n      pop\n      jump\t// out\n        /* \"#utility.yul\":570:817   */\n    tag_38:\n        /* \"#utility.yul\":629:635   */\n      0x00\n        /* \"#utility.yul\":682:684   */\n      0x20\n        /* \"#utility.yul\":670:679   */\n      dup3\n        /* \"#utility.yul\":661:668   */\n      dup5\n        /* \"#utility.yul\":657:680   */\n      sub\n        /* \"#utility.yul\":653:685   */\n      slt\n        /* \"#utility.yul\":650:702   */\n      iszero\n      tag_555\n      jumpi\n        /* \"#utility.yul\":698:699   */\n      0x00\n        /* \"#utility.yul\":695:696   */\n      dup1\n        /* \"#utility.yul\":688:700   */\n      revert\n        /* \"#utility.yul\":650:702   */\n    tag_555:\n        /* \"#utility.yul\":737:746   */\n      dup2\n        /* \"#utility.yul\":724:747   */\n      calldataload\n        /* \"#utility.yul\":756:787   */\n      tag_507\n        /* \"#utility.yul\":781:786   */\n      dup2\n        /* \"#utility.yul\":756:787   */\n      tag_532\n      jump\t// in\n        /* \"#utility.yul\":822:1137   */\n    tag_43:\n        /* \"#utility.yul\":890:896   */\n      0x00\n        /* \"#utility.yul\":898:904   */\n      dup1\n        /* \"#utility.yul\":951:953   */\n      0x40\n        /* \"#utility.yul\":939:948   */\n      dup4\n        /* \"#utility.yul\":930:937   */\n      dup6\n        /* \"#utility.yul\":926:949   */\n      sub\n        /* \"#utility.yul\":922:954   */\n      slt\n        /* \"#utility.yul\":919:971   */\n      iszero\n      tag_558\n      jumpi\n        /* \"#utility.yul\":967:968   */\n      0x00\n        /* \"#utility.yul\":964:965   */\n      dup1\n        /* \"#utility.yul\":957:969   */\n      revert\n        /* \"#utility.yul\":919:971   */\n    tag_558:\n        /* \"#utility.yul\":1006:1015   */\n      dup3\n        /* \"#utility.yul\":993:1016   */\n      calldataload\n        /* \"#utility.yul\":1025:1056   */\n      tag_559\n        /* \"#utility.yul\":1050:1055   */\n      dup2\n        /* \"#utility.yul\":1025:1056   */\n      tag_532\n      jump\t// in\n    tag_559:\n        /* \"#utility.yul\":1075:1080   */\n      swap5\n        /* \"#utility.yul\":1127:1129   */\n      0x20\n        /* \"#utility.yul\":1112:1130   */\n      swap4\n      swap1\n      swap4\n      add\n        /* \"#utility.yul\":1099:1131   */\n      calldataload\n      swap4\n      pop\n      pop\n      pop\n        /* \"#utility.yul\":822:1137   */\n      jump\t// out\n        /* \"#utility.yul\":1612:2291   */\n    tag_56:\n        /* \"#utility.yul\":1740:1746   */\n      0x00\n        /* \"#utility.yul\":1748:1754   */\n      dup1\n        /* \"#utility.yul\":1801:1803   */\n      0x40\n        /* \"#utility.yul\":1789:1798   */\n      dup4\n        /* \"#utility.yul\":1780:1787   */\n      dup6\n        /* \"#utility.yul\":1776:1799   */\n      sub\n        /* \"#utility.yul\":1772:1804   */\n      slt\n        /* \"#utility.yul\":1769:1821   */\n      iszero\n      tag_564\n      jumpi\n        /* \"#utility.yul\":1817:1818   */\n      0x00\n        /* \"#utility.yul\":1814:1815   */\n      dup1\n        /* \"#utility.yul\":1807:1819   */\n      revert\n        /* \"#utility.yul\":1769:1821   */\n    tag_564:\n        /* \"#utility.yul\":1857:1866   */\n      dup3\n        /* \"#utility.yul\":1844:1867   */\n      calldataload\n        /* \"#utility.yul\":1886:1904   */\n      0xffffffffffffffff\n        /* \"#utility.yul\":1927:1929   */\n      dup1\n        /* \"#utility.yul\":1919:1925   */\n      dup3\n        /* \"#utility.yul\":1916:1930   */\n      gt\n        /* \"#utility.yul\":1913:1947   */\n      iszero\n      tag_565\n      jumpi\n        /* \"#utility.yul\":1943:1944   */\n      0x00\n        /* \"#utility.yul\":1940:1941   */\n      dup1\n        /* \"#utility.yul\":1933:1945   */\n      revert\n        /* \"#utility.yul\":1913:1947   */\n    tag_565:\n        /* \"#utility.yul\":1966:1988   */\n      swap1\n      dup5\n      add\n      swap1\n        /* \"#utility.yul\":2022:2025   */\n      0xc0\n        /* \"#utility.yul\":2004:2020   */\n      dup3\n      dup8\n      sub\n        /* \"#utility.yul\":2000:2026   */\n      slt\n        /* \"#utility.yul\":1997:2043   */\n      iszero\n      tag_566\n      jumpi\n        /* \"#utility.yul\":2039:2040   */\n      0x00\n        /* \"#utility.yul\":2036:2037   */\n      dup1\n        /* \"#utility.yul\":2029:2041   */\n      revert\n        /* \"#utility.yul\":1997:2043   */\n    tag_566:\n        /* \"#utility.yul\":2062:2064   */\n      swap1\n      swap3\n      pop\n        /* \"#utility.yul\":2117:2119   */\n      0x20\n        /* \"#utility.yul\":2102:2120   */\n      dup5\n      add\n        /* \"#utility.yul\":2089:2121   */\n      calldataload\n      swap1\n        /* \"#utility.yul\":2133:2149   */\n      dup1\n      dup3\n      gt\n        /* \"#utility.yul\":2130:2166   */\n      iszero\n      tag_567\n      jumpi\n        /* \"#utility.yul\":2162:2163   */\n      0x00\n        /* \"#utility.yul\":2159:2160   */\n      dup1\n        /* \"#utility.yul\":2152:2164   */\n      revert\n        /* \"#utility.yul\":2130:2166   */\n    tag_567:\n      pop\n        /* \"#utility.yul\":2185:2209   */\n      dup4\n      add\n        /* \"#utility.yul\":2243:2246   */\n      0x0200\n        /* \"#utility.yul\":2225:2241   */\n      dup2\n      dup7\n      sub\n        /* \"#utility.yul\":2221:2247   */\n      slt\n        /* \"#utility.yul\":2218:2264   */\n      iszero\n      tag_568\n      jumpi\n        /* \"#utility.yul\":2260:2261   */\n      0x00\n        /* \"#utility.yul\":2257:2258   */\n      dup1\n        /* \"#utility.yul\":2250:2262   */\n      revert\n        /* \"#utility.yul\":2218:2264   */\n    tag_568:\n        /* \"#utility.yul\":2283:2285   */\n      dup1\n        /* \"#utility.yul\":2273:2285   */\n      swap2\n      pop\n      pop\n        /* \"#utility.yul\":1612:2291   */\n      swap3\n      pop\n      swap3\n      swap1\n      pop\n      jump\t// out\n        /* \"#utility.yul\":3427:4042   */\n    tag_99:\n        /* \"#utility.yul\":3513:3519   */\n      0x00\n        /* \"#utility.yul\":3521:3527   */\n      dup1\n        /* \"#utility.yul\":3574:3576   */\n      0x20\n        /* \"#utility.yul\":3562:3571   */\n      dup4\n        /* \"#utility.yul\":3553:3560   */\n      dup6\n        /* \"#utility.yul\":3549:3572   */\n      sub\n        /* \"#utility.yul\":3545:3577   */\n      slt\n        /* \"#utility.yul\":3542:3594   */\n      iszero\n      tag_575\n      jumpi\n        /* \"#utility.yul\":3590:3591   */\n      0x00\n        /* \"#utility.yul\":3587:3588   */\n      dup1\n        /* \"#utility.yul\":3580:3592   */\n      revert\n        /* \"#utility.yul\":3542:3594   */\n    tag_575:\n        /* \"#utility.yul\":3630:3639   */\n      dup3\n        /* \"#utility.yul\":3617:3640   */\n      calldataload\n        /* \"#utility.yul\":3659:3677   */\n      0xffffffffffffffff\n        /* \"#utility.yul\":3700:3702   */\n      dup1\n        /* \"#utility.yul\":3692:3698   */\n      dup3\n        /* \"#utility.yul\":3689:3703   */\n      gt\n        /* \"#utility.yul\":3686:3720   */\n      iszero\n      tag_576\n      jumpi\n        /* \"#utility.yul\":3716:3717   */\n      0x00\n        /* \"#utility.yul\":3713:3714   */\n      dup1\n        /* \"#utility.yul\":3706:3718   */\n      revert\n        /* \"#utility.yul\":3686:3720   */\n    tag_576:\n        /* \"#utility.yul\":3754:3760   */\n      dup2\n        /* \"#utility.yul\":3743:3752   */\n      dup6\n        /* \"#utility.yul\":3739:3761   */\n      add\n        /* \"#utility.yul\":3729:3761   */\n      swap2\n      pop\n        /* \"#utility.yul\":3799:3806   */\n      dup6\n        /* \"#utility.yul\":3792:3796   */\n      0x1f\n        /* \"#utility.yul\":3788:3790   */\n      dup4\n        /* \"#utility.yul\":3784:3797   */\n      add\n        /* \"#utility.yul\":3780:3807   */\n      slt\n        /* \"#utility.yul\":3770:3825   */\n      tag_577\n      jumpi\n        /* \"#utility.yul\":3821:3822   */\n      0x00\n        /* \"#utility.yul\":3818:3819   */\n      dup1\n        /* \"#utility.yul\":3811:3823   */\n      revert\n        /* \"#utility.yul\":3770:3825   */\n    tag_577:\n        /* \"#utility.yul\":3861:3863   */\n      dup2\n        /* \"#utility.yul\":3848:3864   */\n      calldataload\n        /* \"#utility.yul\":3887:3889   */\n      dup2\n        /* \"#utility.yul\":3879:3885   */\n      dup2\n        /* \"#utility.yul\":3876:3890   */\n      gt\n        /* \"#utility.yul\":3873:3907   */\n      iszero\n      tag_578\n      jumpi\n        /* \"#utility.yul\":3903:3904   */\n      0x00\n        /* \"#utility.yul\":3900:3901   */\n      dup1\n        /* \"#utility.yul\":3893:3905   */\n      revert\n        /* \"#utility.yul\":3873:3907   */\n    tag_578:\n        /* \"#utility.yul\":3956:3963   */\n      dup7\n        /* \"#utility.yul\":3951:3953   */\n      0x20\n        /* \"#utility.yul\":3941:3947   */\n      dup3\n        /* \"#utility.yul\":3938:3939   */\n      0x05\n        /* \"#utility.yul\":3934:3948   */\n      shl\n        /* \"#utility.yul\":3930:3932   */\n      dup6\n        /* \"#utility.yul\":3926:3949   */\n      add\n        /* \"#utility.yul\":3922:3954   */\n      add\n        /* \"#utility.yul\":3919:3964   */\n      gt\n        /* \"#utility.yul\":3916:3981   */\n      iszero\n      tag_579\n      jumpi\n        /* \"#utility.yul\":3977:3978   */\n      0x00\n        /* \"#utility.yul\":3974:3975   */\n      dup1\n        /* \"#utility.yul\":3967:3979   */\n      revert\n        /* \"#utility.yul\":3916:3981   */\n    tag_579:\n        /* \"#utility.yul\":4008:4010   */\n      0x20\n        /* \"#utility.yul\":4000:4011   */\n      swap3\n      swap1\n      swap3\n      add\n      swap7\n        /* \"#utility.yul\":4030:4036   */\n      swap2\n      swap6\n      pop\n        /* \"#utility.yul\":3427:4042   */\n      swap1\n      swap4\n      pop\n      pop\n      pop\n      pop\n      jump\t// out\n        /* \"#utility.yul\":4047:4227   */\n    tag_112:\n        /* \"#utility.yul\":4106:4112   */\n      0x00\n        /* \"#utility.yul\":4159:4161   */\n      0x20\n        /* \"#utility.yul\":4147:4156   */\n      dup3\n        /* \"#utility.yul\":4138:4145   */\n      dup5\n        /* \"#utility.yul\":4134:4157   */\n      sub\n        /* \"#utility.yul\":4130:4162   */\n      slt\n        /* \"#utility.yul\":4127:4179   */\n      iszero\n      tag_581\n      jumpi\n        /* \"#utility.yul\":4175:4176   */\n      0x00\n        /* \"#utility.yul\":4172:4173   */\n      dup1\n        /* \"#utility.yul\":4165:4177   */\n      revert\n        /* \"#utility.yul\":4127:4179   */\n    tag_581:\n      pop\n        /* \"#utility.yul\":4198:4221   */\n      calldataload\n      swap2\n        /* \"#utility.yul\":4047:4227   */\n      swap1\n      pop\n      jump\t// out\n        /* \"#utility.yul\":4592:4710   */\n    tag_536:\n        /* \"#utility.yul\":4678:4683   */\n      dup1\n        /* \"#utility.yul\":4671:4684   */\n      iszero\n        /* \"#utility.yul\":4664:4685   */\n      iszero\n        /* \"#utility.yul\":4657:4662   */\n      dup2\n        /* \"#utility.yul\":4654:4686   */\n      eq\n        /* \"#utility.yul\":4644:4704   */\n      tag_330\n      jumpi\n        /* \"#utility.yul\":4700:4701   */\n      0x00\n        /* \"#utility.yul\":4697:4698   */\n      dup1\n        /* \"#utility.yul\":4690:4702   */\n      revert\n        /* \"#utility.yul\":4715:4843   */\n    tag_537:\n        /* \"#utility.yul\":4780:4800   */\n      dup1\n      calldataload\n        /* \"#utility.yul\":4809:4837   */\n      tag_553\n        /* \"#utility.yul\":4780:4800   */\n      dup2\n        /* \"#utility.yul\":4809:4837   */\n      tag_536\n      jump\t// in\n        /* \"#utility.yul\":4848:5089   */\n    tag_137:\n        /* \"#utility.yul\":4904:4910   */\n      0x00\n        /* \"#utility.yul\":4957:4959   */\n      0x20\n        /* \"#utility.yul\":4945:4954   */\n      dup3\n        /* \"#utility.yul\":4936:4943   */\n      dup5\n        /* \"#utility.yul\":4932:4955   */\n      sub\n        /* \"#utility.yul\":4928:4960   */\n      slt\n        /* \"#utility.yul\":4925:4977   */\n      iszero\n      tag_588\n      jumpi\n        /* \"#utility.yul\":4973:4974   */\n      0x00\n        /* \"#utility.yul\":4970:4971   */\n      dup1\n        /* \"#utility.yul\":4963:4975   */\n      revert\n        /* \"#utility.yul\":4925:4977   */\n    tag_588:\n        /* \"#utility.yul\":5012:5021   */\n      dup2\n        /* \"#utility.yul\":4999:5022   */\n      calldataload\n        /* \"#utility.yul\":5031:5059   */\n      tag_507\n        /* \"#utility.yul\":5053:5058   */\n      dup2\n        /* \"#utility.yul\":5031:5059   */\n      tag_536\n      jump\t// in\n        /* \"#utility.yul\":5798:5982   */\n    tag_538:\n        /* \"#utility.yul\":5850:5927   */\n      0x4e487b7100000000000000000000000000000000000000000000000000000000\n        /* \"#utility.yul\":5847:5848   */\n      0x00\n        /* \"#utility.yul\":5840:5928   */\n      mstore\n        /* \"#utility.yul\":5947:5951   */\n      0x41\n        /* \"#utility.yul\":5944:5945   */\n      0x04\n        /* \"#utility.yul\":5937:5952   */\n      mstore\n        /* \"#utility.yul\":5971:5975   */\n      0x24\n        /* \"#utility.yul\":5968:5969   */\n      0x00\n        /* \"#utility.yul\":5961:5976   */\n      revert\n        /* \"#utility.yul\":5987:6237   */\n    tag_539:\n        /* \"#utility.yul\":6054:6056   */\n      0x40\n        /* \"#utility.yul\":6048:6057   */\n      mload\n        /* \"#utility.yul\":6096:6102   */\n      0x0200\n        /* \"#utility.yul\":6084:6103   */\n      dup2\n      add\n        /* \"#utility.yul\":6133:6151   */\n      0xffffffffffffffff\n        /* \"#utility.yul\":6118:6152   */\n      dup2\n      gt\n        /* \"#utility.yul\":6154:6176   */\n      dup3\n      dup3\n      lt\n        /* \"#utility.yul\":6115:6177   */\n      or\n        /* \"#utility.yul\":6112:6200   */\n      iszero\n      tag_595\n      jumpi\n        /* \"#utility.yul\":6180:6198   */\n      tag_595\n      tag_538\n      jump\t// in\n    tag_595:\n        /* \"#utility.yul\":6216:6218   */\n      0x40\n        /* \"#utility.yul\":6209:6231   */\n      mstore\n        /* \"#utility.yul\":5987:6237   */\n      swap1\n      jump\t// out\n        /* \"#utility.yul\":6242:7019   */\n    tag_540:\n        /* \"#utility.yul\":6284:6289   */\n      0x00\n        /* \"#utility.yul\":6337:6340   */\n      dup3\n        /* \"#utility.yul\":6330:6334   */\n      0x1f\n        /* \"#utility.yul\":6322:6328   */\n      dup4\n        /* \"#utility.yul\":6318:6335   */\n      add\n        /* \"#utility.yul\":6314:6341   */\n      slt\n        /* \"#utility.yul\":6304:6359   */\n      tag_597\n      jumpi\n        /* \"#utility.yul\":6355:6356   */\n      0x00\n        /* \"#utility.yul\":6352:6353   */\n      dup1\n        /* \"#utility.yul\":6345:6357   */\n      revert\n        /* \"#utility.yul\":6304:6359   */\n    tag_597:\n        /* \"#utility.yul\":6391:6397   */\n      dup2\n        /* \"#utility.yul\":6378:6398   */\n      calldataload\n        /* \"#utility.yul\":6417:6435   */\n      0xffffffffffffffff\n        /* \"#utility.yul\":6454:6456   */\n      dup1\n        /* \"#utility.yul\":6450:6452   */\n      dup3\n        /* \"#utility.yul\":6447:6457   */\n      gt\n        /* \"#utility.yul\":6444:6480   */\n      iszero\n      tag_599\n      jumpi\n        /* \"#utility.yul\":6460:6478   */\n      tag_599\n      tag_538\n      jump\t// in\n    tag_599:\n        /* \"#utility.yul\":6594:6596   */\n      0x40\n        /* \"#utility.yul\":6588:6597   */\n      mload\n        /* \"#utility.yul\":6656:6660   */\n      0x1f\n        /* \"#utility.yul\":6648:6661   */\n      dup4\n      add\n        /* \"#utility.yul\":6499:6565   */\n      0xffffffffffffffffffffffffffffffffffffffffffffffffffffffffffffffe0\n        /* \"#utility.yul\":6644:6666   */\n      swap1\n      dup2\n      and\n        /* \"#utility.yul\":6668:6670   */\n      0x3f\n        /* \"#utility.yul\":6640:6671   */\n      add\n        /* \"#utility.yul\":6636:6676   */\n      and\n        /* \"#utility.yul\":6624:6677   */\n      dup2\n      add\n      swap1\n        /* \"#utility.yul\":6692:6710   */\n      dup3\n      dup3\n      gt\n        /* \"#utility.yul\":6712:6734   */\n      dup2\n      dup4\n      lt\n        /* \"#utility.yul\":6689:6735   */\n      or\n        /* \"#utility.yul\":6686:6758   */\n      iszero\n      tag_601\n      jumpi\n        /* \"#utility.yul\":6738:6756   */\n      tag_601\n      tag_538\n      jump\t// in\n    tag_601:\n        /* \"#utility.yul\":6778:6788   */\n      dup2\n        /* \"#utility.yul\":6774:6776   */\n      0x40\n        /* \"#utility.yul\":6767:6789   */\n      mstore\n        /* \"#utility.yul\":6813:6815   */\n      dup4\n        /* \"#utility.yul\":6805:6811   */\n      dup2\n        /* \"#utility.yul\":6798:6816   */\n      mstore\n        /* \"#utility.yul\":6859:6862   */\n      dup7\n        /* \"#utility.yul\":6852:6856   */\n      0x20\n        /* \"#utility.yul\":6847:6849   */\n      dup6\n        /* \"#utility.yul\":6839:6845   */\n      dup9\n        /* \"#utility.yul\":6835:6850   */\n      add\n        /* \"#utility.yul\":6831:6857   */\n      add\n        /* \"#utility.yul\":6828:6863   */\n      gt\n        /* \"#utility.yul\":6825:6880   */\n      iszero\n      tag_602\n      jumpi\n        /* \"#utility.yul\":6876:6877   */\n      0x00\n        /* \"#utility.yul\":6873:6874   */\n      dup1\n        /* \"#utility.yul\":6866:6878   */\n      revert\n        /* \"#utility.yul\":6825:6880   */\n    tag_602:\n        /* \"#utility.yul\":6940:6942   */\n      dup4\n        /* \"#utility.yul\":6933:6937   */\n      0x20\n        /* \"#utility.yul\":6925:6931   */\n      dup8\n        /* \"#utility.yul\":6921:6938   */\n      add\n        /* \"#utility.yul\":6914:6918   */\n      0x20\n        /* \"#utility.yul\":6906:6912   */\n      dup4\n        /* \"#utility.yul\":6902:6919   */\n      add\n        /* \"#utility.yul\":6889:6943   */\n      calldatacopy\n        /* \"#utility.yul\":6987:6988   */\n      0x00\n        /* \"#utility.yul\":6980:6984   */\n      0x20\n        /* \"#utility.yul\":6975:6977   */\n      dup6\n        /* \"#utility.yul\":6967:6973   */\n      dup4\n        /* \"#utility.yul\":6963:6978   */\n      add\n        /* \"#utility.yul\":6959:6985   */\n      add\n        /* \"#utility.yul\":6952:6989   */\n      mstore\n        /* \"#utility.yul\":7007:7013   */\n      dup1\n        /* \"#utility.yul\":6998:7013   */\n      swap5\n      pop\n      pop\n      pop\n      pop\n      pop\n        /* \"#utility.yul\":6242:7019   */\n      swap3\n      swap2\n      pop\n      pop\n      jump\t// out\n        /* \"#utility.yul\":7024:7180   */\n    tag_541:\n        /* \"#utility.yul\":7090:7110   */\n      dup1\n      calldataload\n        /* \"#utility.yul\":7150:7154   */\n      0xff\n        /* \"#utility.yul\":7139:7155   */\n      dup2\n      and\n        /* \"#utility.yul\":7129:7156   */\n      dup2\n      eq\n        /* \"#utility.yul\":7119:7174   */\n      tag_553\n      jumpi\n        /* \"#utility.yul\":7170:7171   */\n      0x00\n        /* \"#utility.yul\":7167:7168   */\n      dup1\n        /* \"#utility.yul\":7160:7172   */\n      revert\n        /* \"#utility.yul\":7185:8791   */\n    tag_149:\n        /* \"#utility.yul\":7293:7302   */\n      0x00\n        /* \"#utility.yul\":7352:7358   */\n      0x0200\n        /* \"#utility.yul\":7344:7349   */\n      dup3\n        /* \"#utility.yul\":7328:7342   */\n      calldatasize\n        /* \"#utility.yul\":7324:7350   */\n      sub\n        /* \"#utility.yul\":7320:7359   */\n      slt\n        /* \"#utility.yul\":7317:7376   */\n      iszero\n      tag_606\n      jumpi\n        /* \"#utility.yul\":7372:7373   */\n      0x00\n        /* \"#utility.yul\":7369:7370   */\n      dup1\n        /* \"#utility.yul\":7362:7374   */\n      revert\n        /* \"#utility.yul\":7317:7376   */\n    tag_606:\n        /* \"#utility.yul\":7400:7417   */\n      tag_607\n      tag_539\n      jump\t// in\n    tag_607:\n        /* \"#utility.yul\":7442:7464   */\n      tag_608\n        /* \"#utility.yul\":7458:7463   */\n      dup4\n        /* \"#utility.yul\":7442:7464   */\n      tag_537\n      jump\t// in\n    tag_608:\n        /* \"#utility.yul\":7433:7440   */\n      dup2\n        /* \"#utility.yul\":7426:7465   */\n      mstore\n        /* \"#utility.yul\":7499:7533   */\n      tag_609\n        /* \"#utility.yul\":7529:7531   */\n      0x20\n        /* \"#utility.yul\":7522:7527   */\n      dup5\n        /* \"#utility.yul\":7518:7532   */\n      add\n        /* \"#utility.yul\":7499:7533   */\n      tag_533\n      jump\t// in\n    tag_609:\n        /* \"#utility.yul\":7494:7496   */\n      0x20\n        /* \"#utility.yul\":7485:7492   */\n      dup3\n        /* \"#utility.yul\":7481:7497   */\n      add\n        /* \"#utility.yul\":7474:7534   */\n      mstore\n        /* \"#utility.yul\":7568:7602   */\n      tag_610\n        /* \"#utility.yul\":7598:7600   */\n      0x40\n        /* \"#utility.yul\":7591:7596   */\n      dup5\n        /* \"#utility.yul\":7587:7601   */\n      add\n        /* \"#utility.yul\":7568:7602   */\n      tag_533\n      jump\t// in\n    tag_610:\n        /* \"#utility.yul\":7563:7565   */\n      0x40\n        /* \"#utility.yul\":7554:7561   */\n      dup3\n        /* \"#utility.yul\":7550:7566   */\n      add\n        /* \"#utility.yul\":7543:7603   */\n      mstore\n        /* \"#utility.yul\":7661:7663   */\n      0x60\n        /* \"#utility.yul\":7654:7659   */\n      dup4\n        /* \"#utility.yul\":7650:7664   */\n      add\n        /* \"#utility.yul\":7637:7665   */\n      calldataload\n        /* \"#utility.yul\":7632:7634   */\n      0x60\n        /* \"#utility.yul\":7623:7630   */\n      dup3\n        /* \"#utility.yul\":7619:7635   */\n      add\n        /* \"#utility.yul\":7612:7666   */\n      mstore\n        /* \"#utility.yul\":7725:7728   */\n      0x80\n        /* \"#utility.yul\":7718:7723   */\n      dup4\n        /* \"#utility.yul\":7714:7729   */\n      add\n        /* \"#utility.yul\":7701:7730   */\n      calldataload\n        /* \"#utility.yul\":7695:7698   */\n      0x80\n        /* \"#utility.yul\":7686:7693   */\n      dup3\n        /* \"#utility.yul\":7682:7699   */\n      add\n        /* \"#utility.yul\":7675:7731   */\n      mstore\n        /* \"#utility.yul\":7790:7793   */\n      0xa0\n        /* \"#utility.yul\":7783:7788   */\n      dup4\n        /* \"#utility.yul\":7779:7794   */\n      add\n        /* \"#utility.yul\":7766:7795   */\n      calldataload\n        /* \"#utility.yul\":7760:7763   */\n      0xa0\n        /* \"#utility.yul\":7751:7758   */\n      dup3\n        /* \"#utility.yul\":7747:7764   */\n      add\n        /* \"#utility.yul\":7740:7796   */\n      mstore\n        /* \"#utility.yul\":7831:7866   */\n      tag_611\n        /* \"#utility.yul\":7861:7864   */\n      0xc0\n        /* \"#utility.yul\":7854:7859   */\n      dup5\n        /* \"#utility.yul\":7850:7865   */\n      add\n        /* \"#utility.yul\":7831:7866   */\n      tag_533\n      jump\t// in\n    tag_611:\n        /* \"#utility.yul\":7825:7828   */\n      0xc0\n        /* \"#utility.yul\":7816:7823   */\n      dup3\n        /* \"#utility.yul\":7812:7829   */\n      add\n        /* \"#utility.yul\":7805:7867   */\n      mstore\n        /* \"#utility.yul\":7902:7937   */\n      tag_612\n        /* \"#utility.yul\":7932:7935   */\n      0xe0\n        /* \"#utility.yul\":7925:7930   */\n      dup5\n        /* \"#utility.yul\":7921:7936   */\n      add\n        /* \"#utility.yul\":7902:7937   */\n      tag_533\n      jump\t// in\n    tag_612:\n        /* \"#utility.yul\":7896:7899   */\n      0xe0\n        /* \"#utility.yul\":7883:7900   */\n      dup3\n      add\n        /* \"#utility.yul\":7876:7938   */\n      mstore\n        /* \"#utility.yul\":7957:7960   */\n      0x0100\n        /* \"#utility.yul\":8007:8021   */\n      dup4\n      dup2\n      add\n        /* \"#utility.yul\":7994:8022   */\n      calldataload\n        /* \"#utility.yul\":7976:7992   */\n      swap1\n      dup3\n      add\n        /* \"#utility.yul\":7969:8023   */\n      mstore\n        /* \"#utility.yul\":8042:8045   */\n      0x0120\n        /* \"#utility.yul\":8092:8106   */\n      dup1\n      dup5\n      add\n        /* \"#utility.yul\":8079:8107   */\n      calldataload\n        /* \"#utility.yul\":8061:8077   */\n      swap1\n      dup3\n      add\n        /* \"#utility.yul\":8054:8108   */\n      mstore\n        /* \"#utility.yul\":8127:8130   */\n      0x0140\n        /* \"#utility.yul\":8177:8191   */\n      dup1\n      dup5\n      add\n        /* \"#utility.yul\":8164:8192   */\n      calldataload\n        /* \"#utility.yul\":8146:8162   */\n      swap1\n      dup3\n      add\n        /* \"#utility.yul\":8139:8193   */\n      mstore\n        /* \"#utility.yul\":8212:8215   */\n      0x0160\n        /* \"#utility.yul\":8262:8276   */\n      dup1\n      dup5\n      add\n        /* \"#utility.yul\":8249:8277   */\n      calldataload\n        /* \"#utility.yul\":8231:8247   */\n      swap1\n      dup3\n      add\n        /* \"#utility.yul\":8224:8278   */\n      mstore\n        /* \"#utility.yul\":8297:8300   */\n      0x0180\n        /* \"#utility.yul\":8336:8350   */\n      dup1\n      dup5\n      add\n        /* \"#utility.yul\":8323:8351   */\n      calldataload\n        /* \"#utility.yul\":8374:8392   */\n      0xffffffffffffffff\n        /* \"#utility.yul\":8363:8393   */\n      dup2\n      gt\n        /* \"#utility.yul\":8360:8410   */\n      iszero\n      tag_613\n      jumpi\n        /* \"#utility.yul\":8406:8407   */\n      0x00\n        /* \"#utility.yul\":8403:8404   */\n      dup1\n        /* \"#utility.yul\":8396:8408   */\n      revert\n        /* \"#utility.yul\":8360:8410   */\n    tag_613:\n        /* \"#utility.yul\":8444:8496   */\n      tag_614\n        /* \"#utility.yul\":8481:8495   */\n      calldatasize\n        /* \"#utility.yul\":8472:8478   */\n      dup3\n        /* \"#utility.yul\":8465:8470   */\n      dup8\n        /* \"#utility.yul\":8461:8479   */\n      add\n        /* \"#utility.yul\":8444:8496   */\n      tag_540\n      jump\t// in\n    tag_614:\n        /* \"#utility.yul\":8439:8441   */\n      dup3\n        /* \"#utility.yul\":8430:8437   */\n      dup5\n        /* \"#utility.yul\":8426:8442   */\n      add\n        /* \"#utility.yul\":8419:8497   */\n      mstore\n      pop\n      pop\n        /* \"#utility.yul\":8516:8519   */\n      0x01a0\n        /* \"#utility.yul\":8553:8585   */\n      tag_615\n        /* \"#utility.yul\":8581:8583   */\n      dup2\n        /* \"#utility.yul\":8574:8579   */\n      dup6\n        /* \"#utility.yul\":8570:8584   */\n      add\n        /* \"#utility.yul\":8553:8585   */\n      tag_541\n      jump\t// in\n    tag_615:\n        /* \"#utility.yul\":8535:8551   */\n      swap1\n      dup3\n      add\n        /* \"#utility.yul\":8528:8586   */\n      mstore\n        /* \"#utility.yul\":8605:8608   */\n      0x01c0\n        /* \"#utility.yul\":8655:8669   */\n      dup4\n      dup2\n      add\n        /* \"#utility.yul\":8642:8670   */\n      calldataload\n        /* \"#utility.yul\":8624:8640   */\n      swap1\n      dup3\n      add\n        /* \"#utility.yul\":8617:8671   */\n      mstore\n        /* \"#utility.yul\":8690:8693   */\n      0x01e0\n        /* \"#utility.yul\":8740:8754   */\n      swap3\n      dup4\n      add\n        /* \"#utility.yul\":8727:8755   */\n      calldataload\n        /* \"#utility.yul\":8709:8725   */\n      swap3\n      dup2\n      add\n        /* \"#utility.yul\":8702:8756   */\n      swap3\n      swap1\n      swap3\n      mstore\n      pop\n        /* \"#utility.yul\":8539:8546   */\n      swap1\n        /* \"#utility.yul\":7185:8791   */\n      jump\t// out\n        /* \"#utility.yul\":8796:9355   */\n    tag_542:\n        /* \"#utility.yul\":8854:8859   */\n      0x00\n        /* \"#utility.yul\":8861:8867   */\n      dup1\n        /* \"#utility.yul\":8921:8924   */\n      dup4\n        /* \"#utility.yul\":8908:8925   */\n      calldataload\n        /* \"#utility.yul\":9003:9069   */\n      0xffffffffffffffffffffffffffffffffffffffffffffffffffffffffffffffe1\n        /* \"#utility.yul\":8992:9000   */\n      dup5\n        /* \"#utility.yul\":8976:8990   */\n      calldatasize\n        /* \"#utility.yul\":8972:9001   */\n      sub\n        /* \"#utility.yul\":8968:9070   */\n      add\n        /* \"#utility.yul\":8948:8966   */\n      dup2\n        /* \"#utility.yul\":8944:9071   */\n      slt\n        /* \"#utility.yul\":8934:9089   */\n      tag_617\n      jumpi\n        /* \"#utility.yul\":9085:9086   */\n      0x00\n        /* \"#utility.yul\":9082:9083   */\n      dup1\n        /* \"#utility.yul\":9075:9087   */\n      revert\n        /* \"#utility.yul\":8934:9089   */\n    tag_617:\n        /* \"#utility.yul\":9113:9146   */\n      dup4\n      add\n        /* \"#utility.yul\":9217:9221   */\n      0x20\n        /* \"#utility.yul\":9204:9222   */\n      dup2\n      add\n      swap3\n      pop\n        /* \"#utility.yul\":9165:9186   */\n      calldataload\n      swap1\n      pop\n        /* \"#utility.yul\":9245:9263   */\n      0xffffffffffffffff\n        /* \"#utility.yul\":9234:9264   */\n      dup2\n      gt\n        /* \"#utility.yul\":9231:9281   */\n      iszero\n      tag_618\n      jumpi\n        /* \"#utility.yul\":9277:9278   */\n      0x00\n        /* \"#utility.yul\":9274:9275   */\n      dup1\n        /* \"#utility.yul\":9267:9279   */\n      revert\n        /* \"#utility.yul\":9231:9281   */\n    tag_618:\n        /* \"#utility.yul\":9324:9330   */\n      dup1\n        /* \"#utility.yul\":9308:9322   */\n      calldatasize\n        /* \"#utility.yul\":9304:9331   */\n      sub\n        /* \"#utility.yul\":9297:9302   */\n      dup3\n        /* \"#utility.yul\":9293:9332   */\n      sgt\n        /* \"#utility.yul\":9290:9349   */\n      iszero\n      tag_619\n      jumpi\n        /* \"#utility.yul\":9345:9346   */\n      0x00\n        /* \"#utility.yul\":9342:9343   */\n      dup1\n        /* \"#utility.yul\":9335:9347   */\n      revert\n        /* \"#utility.yul\":9290:9349   */\n    tag_619:\n        /* \"#utility.yul\":8796:9355   */\n      swap3\n      pop\n      swap3\n      swap1\n      pop\n      jump\t// out\n        /* \"#utility.yul\":9360:9685   */\n    tag_543:\n        /* \"#utility.yul\":9448:9454   */\n      dup2\n        /* \"#utility.yul\":9443:9446   */\n      dup4\n        /* \"#utility.yul\":9436:9455   */\n      mstore\n        /* \"#utility.yul\":9500:9506   */\n      dup2\n        /* \"#utility.yul\":9493:9498   */\n      dup2\n        /* \"#utility.yul\":9486:9490   */\n      0x20\n        /* \"#utility.yul\":9481:9484   */\n      dup6\n        /* \"#utility.yul\":9477:9491   */\n      add\n        /* \"#utility.yul\":9464:9507   */\n      calldatacopy\n      pop\n        /* \"#utility.yul\":9552:9553   */\n      0x00\n        /* \"#utility.yul\":9545:9549   */\n      0x20\n        /* \"#utility.yul\":9536:9542   */\n      dup3\n        /* \"#utility.yul\":9531:9534   */\n      dup5\n        /* \"#utility.yul\":9527:9543   */\n      add\n        /* \"#utility.yul\":9523:9550   */\n      add\n        /* \"#utility.yul\":9516:9554   */\n      mstore\n        /* \"#utility.yul\":9418:9421   */\n      0x00\n        /* \"#utility.yul\":9674:9678   */\n      0x20\n        /* \"#utility.yul\":9604:9670   */\n      0xffffffffffffffffffffffffffffffffffffffffffffffffffffffffffffffe0\n        /* \"#utility.yul\":9599:9601   */\n      0x1f\n        /* \"#utility.yul\":9591:9597   */\n      dup5\n        /* \"#utility.yul\":9587:9602   */\n      add\n        /* \"#utility.yul\":9583:9671   */\n      and\n        /* \"#utility.yul\":9578:9581   */\n      dup5\n        /* \"#utility.yul\":9574:9672   */\n      add\n        /* \"#utility.yul\":9570:9679   */\n      add\n        /* \"#utility.yul\":9563:9679   */\n      swap1\n      pop\n        /* \"#utility.yul\":9360:9685   */\n      swap3\n      swap2\n      pop\n      pop\n      jump\t// out\n        /* \"#utility.yul\":9770:12567   */\n    tag_155:\n        /* \"#utility.yul\":10043:10045   */\n      0x40\n        /* \"#utility.yul\":10032:10041   */\n      dup2\n        /* \"#utility.yul\":10025:10046   */\n      mstore\n        /* \"#utility.yul\":10006:10010   */\n      0x00\n        /* \"#utility.yul\":10065:10068   */\n      0x0100\n        /* \"#utility.yul\":10103:10109   */\n      dup5\n        /* \"#utility.yul\":10090:10110   */\n      calldataload\n        /* \"#utility.yul\":10119:10147   */\n      tag_623\n        /* \"#utility.yul\":10141:10146   */\n      dup2\n        /* \"#utility.yul\":10119:10147   */\n      tag_536\n      jump\t// in\n    tag_623:\n        /* \"#utility.yul\":10190:10203   */\n      iszero\n        /* \"#utility.yul\":10183:10204   */\n      iszero\n        /* \"#utility.yul\":10178:10180   */\n      0x40\n        /* \"#utility.yul\":10163:10181   */\n      dup5\n      add\n        /* \"#utility.yul\":10156:10205   */\n      mstore\n        /* \"#utility.yul\":10254:10258   */\n      0x20\n        /* \"#utility.yul\":10242:10259   */\n      dup6\n      add\n        /* \"#utility.yul\":10229:10260   */\n      calldataload\n        /* \"#utility.yul\":10269:10302   */\n      tag_624\n        /* \"#utility.yul\":10229:10260   */\n      dup2\n        /* \"#utility.yul\":10269:10302   */\n      tag_532\n      jump\t// in\n    tag_624:\n        /* \"#utility.yul\":10351:10393   */\n      0xffffffffffffffffffffffffffffffffffffffff\n        /* \"#utility.yul\":10342:10349   */\n      dup2\n        /* \"#utility.yul\":10338:10394   */\n      and\n        /* \"#utility.yul\":10333:10335   */\n      0x60\n        /* \"#utility.yul\":10322:10331   */\n      dup6\n        /* \"#utility.yul\":10318:10336   */\n      add\n        /* \"#utility.yul\":10311:10395   */\n      mstore\n      pop\n        /* \"#utility.yul\":10457:10459   */\n      0x40\n        /* \"#utility.yul\":10449:10455   */\n      dup6\n        /* \"#utility.yul\":10445:10460   */\n      add\n        /* \"#utility.yul\":10432:10461   */\n      calldataload\n        /* \"#utility.yul\":10426:10429   */\n      0x80\n        /* \"#utility.yul\":10415:10424   */\n      dup5\n        /* \"#utility.yul\":10411:10430   */\n      add\n        /* \"#utility.yul\":10404:10462   */\n      mstore\n        /* \"#utility.yul\":10524:10526   */\n      0x60\n        /* \"#utility.yul\":10516:10522   */\n      dup6\n        /* \"#utility.yul\":10512:10527   */\n      add\n        /* \"#utility.yul\":10499:10528   */\n      calldataload\n        /* \"#utility.yul\":10493:10496   */\n      0xa0\n        /* \"#utility.yul\":10482:10491   */\n      dup5\n        /* \"#utility.yul\":10478:10497   */\n      add\n        /* \"#utility.yul\":10471:10529   */\n      mstore\n        /* \"#utility.yul\":10592:10595   */\n      0x80\n        /* \"#utility.yul\":10584:10590   */\n      dup6\n        /* \"#utility.yul\":10580:10596   */\n      add\n        /* \"#utility.yul\":10567:10597   */\n      calldataload\n        /* \"#utility.yul\":10560:10564   */\n      0xc0\n        /* \"#utility.yul\":10549:10558   */\n      dup5\n        /* \"#utility.yul\":10545:10565   */\n      add\n        /* \"#utility.yul\":10538:10598   */\n      mstore\n        /* \"#utility.yul\":10641:10697   */\n      tag_625\n        /* \"#utility.yul\":10692:10695   */\n      0xa0\n        /* \"#utility.yul\":10684:10690   */\n      dup7\n        /* \"#utility.yul\":10680:10696   */\n      add\n        /* \"#utility.yul\":10672:10678   */\n      dup7\n        /* \"#utility.yul\":10641:10697   */\n      tag_542\n      jump\t// in\n    tag_625:\n        /* \"#utility.yul\":10734:10738   */\n      0xc0\n        /* \"#utility.yul\":10728:10731   */\n      0xe0\n        /* \"#utility.yul\":10717:10726   */\n      dup7\n        /* \"#utility.yul\":10713:10732   */\n      add\n        /* \"#utility.yul\":10706:10739   */\n      mstore\n        /* \"#utility.yul\":10759:10832   */\n      tag_626\n        /* \"#utility.yul\":10828:10830   */\n      dup4\n        /* \"#utility.yul\":10817:10826   */\n      dup7\n        /* \"#utility.yul\":10813:10831   */\n      add\n        /* \"#utility.yul\":10799:10811   */\n      dup3\n        /* \"#utility.yul\":10785:10797   */\n      dup5\n        /* \"#utility.yul\":10759:10832   */\n      tag_543\n      jump\t// in\n    tag_626:\n        /* \"#utility.yul\":10748:10832   */\n      swap2\n      pop\n      pop\n        /* \"#utility.yul\":10879:10888   */\n      dup4\n        /* \"#utility.yul\":10874:10877   */\n      dup2\n        /* \"#utility.yul\":10870:10889   */\n      sub\n        /* \"#utility.yul\":10863:10867   */\n      0x20\n        /* \"#utility.yul\":10852:10861   */\n      dup6\n        /* \"#utility.yul\":10848:10868   */\n      add\n        /* \"#utility.yul\":10841:10890   */\n      mstore\n        /* \"#utility.yul\":10909:10915   */\n      0x0200\n        /* \"#utility.yul\":10924:10969   */\n      tag_627\n        /* \"#utility.yul\":10965:10968   */\n      dup3\n        /* \"#utility.yul\":10940:10963   */\n      tag_628\n        /* \"#utility.yul\":10956:10962   */\n      dup9\n        /* \"#utility.yul\":10940:10963   */\n      tag_537\n      jump\t// in\n    tag_628:\n        /* \"#utility.yul\":1212:1225   */\n      iszero\n        /* \"#utility.yul\":1205:1226   */\n      iszero\n        /* \"#utility.yul\":1193:1227   */\n      swap1\n      mstore\n        /* \"#utility.yul\":1142:1233   */\n      jump\n        /* \"#utility.yul\":10924:10969   */\n    tag_627:\n        /* \"#utility.yul\":11000:11037   */\n      tag_629\n        /* \"#utility.yul\":11031:11035   */\n      0x20\n        /* \"#utility.yul\":11023:11029   */\n      dup8\n        /* \"#utility.yul\":11019:11036   */\n      add\n        /* \"#utility.yul\":11000:11037   */\n      tag_533\n      jump\t// in\n    tag_629:\n        /* \"#utility.yul\":2884:2926   */\n      0xffffffffffffffffffffffffffffffffffffffff\n        /* \"#utility.yul\":2873:2927   */\n      and\n        /* \"#utility.yul\":11090:11094   */\n      0x20\n        /* \"#utility.yul\":11081:11095   */\n      dup4\n      add\n        /* \"#utility.yul\":2861:2928   */\n      mstore\n        /* \"#utility.yul\":11127:11162   */\n      tag_631\n        /* \"#utility.yul\":11158:11160   */\n      0x40\n        /* \"#utility.yul\":11146:11161   */\n      dup8\n      add\n        /* \"#utility.yul\":11127:11162   */\n      tag_533\n      jump\t// in\n    tag_631:\n        /* \"#utility.yul\":2884:2926   */\n      0xffffffffffffffffffffffffffffffffffffffff\n        /* \"#utility.yul\":2873:2927   */\n      dup2\n      and\n        /* \"#utility.yul\":11215:11217   */\n      0x40\n        /* \"#utility.yul\":11206:11218   */\n      dup5\n      add\n        /* \"#utility.yul\":2861:2928   */\n      mstore\n        /* \"#utility.yul\":11171:11219   */\n      pop\n        /* \"#utility.yul\":11274:11276   */\n      0x60\n        /* \"#utility.yul\":11266:11272   */\n      dup7\n        /* \"#utility.yul\":11262:11277   */\n      add\n        /* \"#utility.yul\":11249:11278   */\n      calldataload\n        /* \"#utility.yul\":11244:11246   */\n      0x60\n        /* \"#utility.yul\":11239:11242   */\n      dup4\n        /* \"#utility.yul\":11235:11247   */\n      add\n        /* \"#utility.yul\":11228:11279   */\n      mstore\n        /* \"#utility.yul\":11335:11338   */\n      0x80\n        /* \"#utility.yul\":11327:11333   */\n      dup7\n        /* \"#utility.yul\":11323:11339   */\n      add\n        /* \"#utility.yul\":11310:11340   */\n      calldataload\n        /* \"#utility.yul\":11304:11307   */\n      0x80\n        /* \"#utility.yul\":11299:11302   */\n      dup4\n        /* \"#utility.yul\":11295:11308   */\n      add\n        /* \"#utility.yul\":11288:11341   */\n      mstore\n        /* \"#utility.yul\":11397:11400   */\n      0xa0\n        /* \"#utility.yul\":11389:11395   */\n      dup7\n        /* \"#utility.yul\":11385:11401   */\n      add\n        /* \"#utility.yul\":11372:11402   */\n      calldataload\n        /* \"#utility.yul\":11366:11369   */\n      0xa0\n        /* \"#utility.yul\":11361:11364   */\n      dup4\n        /* \"#utility.yul\":11357:11370   */\n      add\n        /* \"#utility.yul\":11350:11403   */\n      mstore\n        /* \"#utility.yul\":11434:11471   */\n      tag_633\n        /* \"#utility.yul\":11465:11469   */\n      0xc0\n        /* \"#utility.yul\":11457:11463   */\n      dup8\n        /* \"#utility.yul\":11453:11470   */\n      add\n        /* \"#utility.yul\":11434:11471   */\n      tag_533\n      jump\t// in\n    tag_633:\n        /* \"#utility.yul\":2884:2926   */\n      0xffffffffffffffffffffffffffffffffffffffff\n        /* \"#utility.yul\":2873:2927   */\n      and\n        /* \"#utility.yul\":11524:11528   */\n      0xc0\n        /* \"#utility.yul\":11515:11529   */\n      dup4\n      add\n        /* \"#utility.yul\":2861:2928   */\n      mstore\n        /* \"#utility.yul\":11561:11597   */\n      tag_635\n        /* \"#utility.yul\":11592:11595   */\n      0xe0\n        /* \"#utility.yul\":11580:11596   */\n      dup8\n      add\n        /* \"#utility.yul\":11561:11597   */\n      tag_533\n      jump\t// in\n    tag_635:\n        /* \"#utility.yul\":2884:2926   */\n      0xffffffffffffffffffffffffffffffffffffffff\n        /* \"#utility.yul\":2873:2927   */\n      and\n        /* \"#utility.yul\":11650:11653   */\n      0xe0\n        /* \"#utility.yul\":11641:11654   */\n      dup4\n      add\n        /* \"#utility.yul\":2861:2928   */\n      mstore\n        /* \"#utility.yul\":11698:11713   */\n      dup3\n      dup7\n      add\n        /* \"#utility.yul\":11685:11714   */\n      calldataload\n        /* \"#utility.yul\":11671:11683   */\n      swap3\n      dup3\n      add\n        /* \"#utility.yul\":11664:11715   */\n      swap3\n      swap1\n      swap3\n      mstore\n        /* \"#utility.yul\":11734:11740   */\n      0x0120\n        /* \"#utility.yul\":11783:11798   */\n      dup1\n      dup7\n      add\n        /* \"#utility.yul\":11770:11799   */\n      calldataload\n        /* \"#utility.yul\":11756:11768   */\n      swap1\n      dup3\n      add\n        /* \"#utility.yul\":11749:11800   */\n      mstore\n        /* \"#utility.yul\":11819:11825   */\n      0x0140\n        /* \"#utility.yul\":11868:11883   */\n      dup1\n      dup7\n      add\n        /* \"#utility.yul\":11855:11884   */\n      calldataload\n        /* \"#utility.yul\":11841:11853   */\n      swap1\n      dup3\n      add\n        /* \"#utility.yul\":11834:11885   */\n      mstore\n        /* \"#utility.yul\":11904:11910   */\n      0x0160\n        /* \"#utility.yul\":11953:11968   */\n      dup1\n      dup7\n      add\n        /* \"#utility.yul\":11940:11969   */\n      calldataload\n        /* \"#utility.yul\":11926:11938   */\n      swap1\n      dup3\n      add\n        /* \"#utility.yul\":11919:11970   */\n      mstore\n        /* \"#utility.yul\":11989:11995   */\n      0x0180\n      swap2\n        /* \"#utility.yul\":12042:12097   */\n      tag_637\n        /* \"#utility.yul\":12081:12096   */\n      dup4\n      dup8\n      add\n        /* \"#utility.yul\":11698:11713   */\n      dup8\n        /* \"#utility.yul\":12042:12097   */\n      tag_542\n      jump\t// in\n    tag_637:\n        /* \"#utility.yul\":12127:12129   */\n      dup3\n        /* \"#utility.yul\":12122:12124   */\n      dup6\n        /* \"#utility.yul\":12117:12120   */\n      dup6\n        /* \"#utility.yul\":12113:12125   */\n      add\n        /* \"#utility.yul\":12106:12130   */\n      mstore\n        /* \"#utility.yul\":12153:12224   */\n      tag_638\n        /* \"#utility.yul\":12220:12222   */\n      dup4\n        /* \"#utility.yul\":12215:12218   */\n      dup6\n        /* \"#utility.yul\":12211:12223   */\n      add\n        /* \"#utility.yul\":12195:12209   */\n      dup3\n        /* \"#utility.yul\":12179:12193   */\n      dup5\n        /* \"#utility.yul\":12153:12224   */\n      tag_543\n      jump\t// in\n    tag_638:\n        /* \"#utility.yul\":12139:12224   */\n      swap5\n      pop\n      pop\n      pop\n      pop\n        /* \"#utility.yul\":12243:12249   */\n      0x01a0\n        /* \"#utility.yul\":12280:12313   */\n      tag_639\n        /* \"#utility.yul\":12309:12311   */\n      dup2\n        /* \"#utility.yul\":12301:12307   */\n      dup8\n        /* \"#utility.yul\":12297:12312   */\n      add\n        /* \"#utility.yul\":12280:12313   */\n      tag_541\n      jump\t// in\n    tag_639:\n        /* \"#utility.yul\":9757:9761   */\n      0xff\n        /* \"#utility.yul\":9746:9762   */\n      and\n        /* \"#utility.yul\":12355:12367   */\n      swap1\n      dup3\n      add\n        /* \"#utility.yul\":9734:9763   */\n      mstore\n        /* \"#utility.yul\":12387:12393   */\n      0x01c0\n        /* \"#utility.yul\":12436:12451   */\n      dup6\n      dup2\n      add\n        /* \"#utility.yul\":12423:12452   */\n      calldataload\n        /* \"#utility.yul\":12409:12421   */\n      swap1\n      dup3\n      add\n        /* \"#utility.yul\":12402:12453   */\n      mstore\n        /* \"#utility.yul\":12472:12478   */\n      0x01e0\n        /* \"#utility.yul\":12521:12536   */\n      swap5\n      dup6\n      add\n        /* \"#utility.yul\":12508:12537   */\n      calldataload\n        /* \"#utility.yul\":12494:12506   */\n      swap5\n      add\n        /* \"#utility.yul\":12487:12538   */\n      swap4\n      swap1\n      swap4\n      mstore\n      pop\n      swap1\n      swap3\n        /* \"#utility.yul\":12555:12561   */\n      swap2\n      pop\n      pop\n        /* \"#utility.yul\":9770:12567   */\n      jump\t// out\n        /* \"#utility.yul\":12572:12939   */\n    tag_159:\n        /* \"#utility.yul\":12657:12663   */\n      0x00\n        /* \"#utility.yul\":12665:12671   */\n      dup1\n        /* \"#utility.yul\":12673:12679   */\n      0x00\n        /* \"#utility.yul\":12726:12728   */\n      0x60\n        /* \"#utility.yul\":12714:12723   */\n      dup5\n        /* \"#utility.yul\":12705:12712   */\n      dup7\n        /* \"#utility.yul\":12701:12724   */\n      sub\n        /* \"#utility.yul\":12697:12729   */\n      slt\n        /* \"#utility.yul\":12694:12746   */\n      iszero\n      tag_642\n      jumpi\n        /* \"#utility.yul\":12742:12743   */\n      0x00\n        /* \"#utility.yul\":12739:12740   */\n      dup1\n        /* \"#utility.yul\":12732:12744   */\n      revert\n        /* \"#utility.yul\":12694:12746   */\n    tag_642:\n        /* \"#utility.yul\":12774:12783   */\n      dup4\n        /* \"#utility.yul\":12768:12784   */\n      mload\n        /* \"#utility.yul\":12793:12821   */\n      tag_643\n        /* \"#utility.yul\":12815:12820   */\n      dup2\n        /* \"#utility.yul\":12793:12821   */\n      tag_536\n      jump\t// in\n    tag_643:\n        /* \"#utility.yul\":12885:12887   */\n      0x20\n        /* \"#utility.yul\":12870:12888   */\n      dup6\n      add\n        /* \"#utility.yul\":12864:12889   */\n      mload\n        /* \"#utility.yul\":12929:12931   */\n      0x40\n        /* \"#utility.yul\":12914:12932   */\n      swap1\n      swap6\n      add\n        /* \"#utility.yul\":12908:12933   */\n      mload\n        /* \"#utility.yul\":12840:12845   */\n      swap1\n      swap7\n        /* \"#utility.yul\":12864:12889   */\n      swap5\n      swap6\n      pop\n        /* \"#utility.yul\":12908:12933   */\n      swap4\n        /* \"#utility.yul\":12572:12939   */\n      swap3\n      pop\n      pop\n      pop\n      jump\t// out\n        /* \"#utility.yul\":14338:14522   */\n    tag_545:\n        /* \"#utility.yul\":14390:14467   */\n      0x4e487b7100000000000000000000000000000000000000000000000000000000\n        /* \"#utility.yul\":14387:14388   */\n      0x00\n        /* \"#utility.yul\":14380:14468   */\n      mstore\n        /* \"#utility.yul\":14487:14491   */\n      0x11\n        /* \"#utility.yul\":14484:14485   */\n      0x04\n        /* \"#utility.yul\":14477:14492   */\n      mstore\n        /* \"#utility.yul\":14511:14515   */\n      0x24\n        /* \"#utility.yul\":14508:14509   */\n      0x00\n        /* \"#utility.yul\":14501:14516   */\n      revert\n        /* \"#utility.yul\":14527:14655   */\n    tag_201:\n        /* \"#utility.yul\":14594:14603   */\n      dup2\n      dup2\n      sub\n        /* \"#utility.yul\":14615:14626   */\n      dup2\n      dup2\n      gt\n        /* \"#utility.yul\":14612:14649   */\n      iszero\n      tag_130\n      jumpi\n        /* \"#utility.yul\":14629:14647   */\n      tag_130\n      tag_545\n      jump\t// in\n        /* \"#utility.yul\":15726:15910   */\n    tag_295:\n        /* \"#utility.yul\":15778:15855   */\n      0x4e487b7100000000000000000000000000000000000000000000000000000000\n        /* \"#utility.yul\":15775:15776   */\n      0x00\n        /* \"#utility.yul\":15768:15856   */\n      mstore\n        /* \"#utility.yul\":15875:15879   */\n      0x32\n        /* \"#utility.yul\":15872:15873   */\n      0x04\n        /* \"#utility.yul\":15865:15880   */\n      mstore\n        /* \"#utility.yul\":15899:15903   */\n      0x24\n        /* \"#utility.yul\":15896:15897   */\n      0x00\n        /* \"#utility.yul\":15889:15904   */\n      revert\n        /* \"#utility.yul\":16328:16523   */\n    tag_302:\n        /* \"#utility.yul\":16367:16370   */\n      0x00\n        /* \"#utility.yul\":16398:16464   */\n      0xffffffffffffffffffffffffffffffffffffffffffffffffffffffffffffffff\n        /* \"#utility.yul\":16391:16396   */\n      dup3\n        /* \"#utility.yul\":16388:16465   */\n      sub\n        /* \"#utility.yul\":16385:16488   */\n      tag_658\n      jumpi\n        /* \"#utility.yul\":16468:16486   */\n      tag_658\n      tag_545\n      jump\t// in\n    tag_658:\n      pop\n        /* \"#utility.yul\":16515:16516   */\n      0x01\n        /* \"#utility.yul\":16504:16517   */\n      add\n      swap1\n        /* \"#utility.yul\":16328:16523   */\n      jump\t// out\n        /* \"#utility.yul\":16528:17018   */\n    tag_304:\n        /* \"#utility.yul\":16717:16719   */\n      0x20\n        /* \"#utility.yul\":16706:16715   */\n      dup2\n        /* \"#utility.yul\":16699:16720   */\n      mstore\n        /* \"#utility.yul\":16756:16762   */\n      dup2\n        /* \"#utility.yul\":16751:16753   */\n      0x20\n        /* \"#utility.yul\":16740:16749   */\n      dup3\n        /* \"#utility.yul\":16736:16754   */\n      add\n        /* \"#utility.yul\":16729:16763   */\n      mstore\n        /* \"#utility.yul\":16680:16684   */\n      0x00\n        /* \"#utility.yul\":16786:16852   */\n      0x07ffffffffffffffffffffffffffffffffffffffffffffffffffffffffffffff\n        /* \"#utility.yul\":16778:16784   */\n      dup4\n        /* \"#utility.yul\":16775:16853   */\n      gt\n        /* \"#utility.yul\":16772:16870   */\n      iszero\n      tag_660\n      jumpi\n        /* \"#utility.yul\":16866:16867   */\n      0x00\n        /* \"#utility.yul\":16863:16864   */\n      dup1\n        /* \"#utility.yul\":16856:16868   */\n      revert\n        /* \"#utility.yul\":16772:16870   */\n    tag_660:\n        /* \"#utility.yul\":16900:16906   */\n      dup3\n        /* \"#utility.yul\":16897:16898   */\n      0x05\n        /* \"#utility.yul\":16893:16907   */\n      shl\n        /* \"#utility.yul\":16957:16963   */\n      dup1\n        /* \"#utility.yul\":16949:16955   */\n      dup6\n        /* \"#utility.yul\":16944:16946   */\n      0x40\n        /* \"#utility.yul\":16933:16942   */\n      dup6\n        /* \"#utility.yul\":16929:16947   */\n      add\n        /* \"#utility.yul\":16916:16964   */\n      calldatacopy\n        /* \"#utility.yul\":16985:17007   */\n      swap2\n      swap1\n      swap2\n      add\n        /* \"#utility.yul\":17009:17011   */\n      0x40\n        /* \"#utility.yul\":16981:17012   */\n      add\n      swap4\n        /* \"#utility.yul\":16528:17018   */\n      swap3\n      pop\n      pop\n      pop\n      jump\t// out\n        /* \"#utility.yul\":17023:17148   */\n    tag_314:\n        /* \"#utility.yul\":17088:17097   */\n      dup1\n      dup3\n      add\n        /* \"#utility.yul\":17109:17119   */\n      dup1\n      dup3\n      gt\n        /* \"#utility.yul\":17106:17142   */\n      iszero\n      tag_130\n      jumpi\n        /* \"#utility.yul\":17122:17140   */\n      tag_130\n      tag_545\n      jump\t// in\n        /* \"#utility.yul\":18279:19493   */\n    tag_345:\n        /* \"#utility.yul\":18788:18813   */\n      dup15\n      dup2\n      mstore\n        /* \"#utility.yul\":18856:18870   */\n      dup14\n      iszero\n        /* \"#utility.yul\":18849:18871   */\n      iszero\n        /* \"#utility.yul\":18844:18846   */\n      0x20\n        /* \"#utility.yul\":18829:18847   */\n      dup3\n      add\n        /* \"#utility.yul\":18822:18872   */\n      mstore\n        /* \"#utility.yul\":18920:18962   */\n      0xffffffffffffffffffffffffffffffffffffffff\n        /* \"#utility.yul\":18908:18963   */\n      dup14\n      dup2\n      and\n        /* \"#utility.yul\":18903:18905   */\n      0x40\n        /* \"#utility.yul\":18888:18906   */\n      dup4\n      add\n        /* \"#utility.yul\":18881:18964   */\n      mstore\n        /* \"#utility.yul\":2873:2927   */\n      dup13\n      and\n        /* \"#utility.yul\":19015:19017   */\n      0x60\n        /* \"#utility.yul\":19000:19018   */\n      dup3\n      add\n        /* \"#utility.yul\":2861:2928   */\n      mstore\n        /* \"#utility.yul\":18775:18778   */\n      0x01c0\n        /* \"#utility.yul\":18760:18779   */\n      dup2\n      add\n        /* \"#utility.yul\":19056:19062   */\n      dup12\n        /* \"#utility.yul\":19050:19053   */\n      0x80\n        /* \"#utility.yul\":19039:19048   */\n      dup4\n        /* \"#utility.yul\":19035:19054   */\n      add\n        /* \"#utility.yul\":19028:19063   */\n      mstore\n        /* \"#utility.yul\":19100:19106   */\n      dup11\n        /* \"#utility.yul\":19094:19097   */\n      0xa0\n        /* \"#utility.yul\":19083:19092   */\n      dup4\n        /* \"#utility.yul\":19079:19098   */\n      add\n        /* \"#utility.yul\":19072:19107   */\n      mstore\n        /* \"#utility.yul\":19144:19150   */\n      dup10\n        /* \"#utility.yul\":19138:19141   */\n      0xc0\n        /* \"#utility.yul\":19127:19136   */\n      dup4\n        /* \"#utility.yul\":19123:19142   */\n      add\n        /* \"#utility.yul\":19116:19151   */\n      mstore\n        /* \"#utility.yul\":19160:19207   */\n      tag_669\n        /* \"#utility.yul\":19202:19205   */\n      0xe0\n        /* \"#utility.yul\":19191:19200   */\n      dup4\n        /* \"#utility.yul\":19187:19206   */\n      add\n        /* \"#utility.yul\":19179:19185   */\n      dup11\n        /* \"#utility.yul\":2884:2926   */\n      0xffffffffffffffffffffffffffffffffffffffff\n        /* \"#utility.yul\":2873:2927   */\n      and\n        /* \"#utility.yul\":2861:2928   */\n      swap1\n      mstore\n        /* \"#utility.yul\":2807:2934   */\n      jump\n        /* \"#utility.yul\":19160:19207   */\n    tag_669:\n        /* \"#utility.yul\":2884:2926   */\n      0xffffffffffffffffffffffffffffffffffffffff\n        /* \"#utility.yul\":2873:2927   */\n      dup9\n      and\n        /* \"#utility.yul\":19258:19261   */\n      0x0100\n        /* \"#utility.yul\":19243:19262   */\n      dup4\n      add\n        /* \"#utility.yul\":2861:2928   */\n      mstore\n        /* \"#utility.yul\":19294:19297   */\n      0x0120\n        /* \"#utility.yul\":19279:19298   */\n      dup3\n      add\n        /* \"#utility.yul\":19272:19307   */\n      swap7\n      swap1\n      swap7\n      mstore\n        /* \"#utility.yul\":19338:19341   */\n      0x0140\n        /* \"#utility.yul\":19323:19342   */\n      dup2\n      add\n        /* \"#utility.yul\":19316:19352   */\n      swap5\n      swap1\n      swap5\n      mstore\n        /* \"#utility.yul\":19383:19386   */\n      0x0160\n        /* \"#utility.yul\":19368:19387   */\n      dup5\n      add\n        /* \"#utility.yul\":19361:19397   */\n      swap3\n      swap1\n      swap3\n      mstore\n        /* \"#utility.yul\":19428:19431   */\n      0x0180\n        /* \"#utility.yul\":19413:19432   */\n      dup4\n      add\n        /* \"#utility.yul\":19406:19442   */\n      mstore\n        /* \"#utility.yul\":19473:19476   */\n      0x01a0\n        /* \"#utility.yul\":19458:19477   */\n      swap1\n      swap2\n      add\n        /* \"#utility.yul\":19451:19487   */\n      mstore\n        /* \"#utility.yul\":18279:19493   */\n      swap10\n      swap9\n      pop\n      pop\n      pop\n      pop\n      pop\n      pop\n      pop\n      pop\n      pop\n      jump\t// out\n        /* \"#utility.yul\":21447:21629   */\n    tag_365:\n        /* \"#utility.yul\":21504:21510   */\n      0x00\n        /* \"#utility.yul\":21557:21559   */\n      0x20\n        /* \"#utility.yul\":21545:21554   */\n      dup3\n        /* \"#utility.yul\":21536:21543   */\n      dup5\n        /* \"#utility.yul\":21532:21555   */\n      sub\n        /* \"#utility.yul\":21528:21560   */\n      slt\n        /* \"#utility.yul\":21525:21577   */\n      iszero\n      tag_676\n      jumpi\n        /* \"#utility.yul\":21573:21574   */\n      0x00\n        /* \"#utility.yul\":21570:21571   */\n      dup1\n        /* \"#utility.yul\":21563:21575   */\n      revert\n        /* \"#utility.yul\":21525:21577   */\n    tag_676:\n        /* \"#utility.yul\":21596:21623   */\n      tag_507\n        /* \"#utility.yul\":21613:21622   */\n      dup3\n        /* \"#utility.yul\":21596:21623   */\n      tag_541\n      jump\t// in\n        /* \"#utility.yul\":21981:22226   */\n    tag_375:\n        /* \"#utility.yul\":22048:22054   */\n      0x00\n        /* \"#utility.yul\":22101:22103   */\n      0x20\n        /* \"#utility.yul\":22089:22098   */\n      dup3\n        /* \"#utility.yul\":22080:22087   */\n      dup5\n        /* \"#utility.yul\":22076:22099   */\n      sub\n        /* \"#utility.yul\":22072:22104   */\n      slt\n        /* \"#utility.yul\":22069:22121   */\n      iszero\n      tag_680\n      jumpi\n        /* \"#utility.yul\":22117:22118   */\n      0x00\n        /* \"#utility.yul\":22114:22115   */\n      dup1\n        /* \"#utility.yul\":22107:22119   */\n      revert\n        /* \"#utility.yul\":22069:22121   */\n    tag_680:\n        /* \"#utility.yul\":22149:22158   */\n      dup2\n        /* \"#utility.yul\":22143:22159   */\n      mload\n        /* \"#utility.yul\":22168:22196   */\n      tag_507\n        /* \"#utility.yul\":22190:22195   */\n      dup2\n        /* \"#utility.yul\":22168:22196   */\n      tag_536\n      jump\t// in\n        /* \"#utility.yul\":23314:23626   */\n    tag_399:\n        /* \"#utility.yul\":23393:23399   */\n      0x00\n        /* \"#utility.yul\":23401:23407   */\n      dup1\n        /* \"#utility.yul\":23454:23456   */\n      0x40\n        /* \"#utility.yul\":23442:23451   */\n      dup4\n        /* \"#utility.yul\":23433:23440   */\n      dup6\n        /* \"#utility.yul\":23429:23452   */\n      sub\n        /* \"#utility.yul\":23425:23457   */\n      slt\n        /* \"#utility.yul\":23422:23474   */\n      iszero\n      tag_686\n      jumpi\n        /* \"#utility.yul\":23470:23471   */\n      0x00\n        /* \"#utility.yul\":23467:23468   */\n      dup1\n        /* \"#utility.yul\":23460:23472   */\n      revert\n        /* \"#utility.yul\":23422:23474   */\n    tag_686:\n        /* \"#utility.yul\":23502:23511   */\n      dup3\n        /* \"#utility.yul\":23496:23512   */\n      mload\n        /* \"#utility.yul\":23521:23552   */\n      tag_687\n        /* \"#utility.yul\":23546:23551   */\n      dup2\n        /* \"#utility.yul\":23521:23552   */\n      tag_532\n      jump\t// in\n    tag_687:\n        /* \"#utility.yul\":23616:23618   */\n      0x20\n        /* \"#utility.yul\":23601:23619   */\n      swap4\n      swap1\n      swap4\n      add\n        /* \"#utility.yul\":23595:23620   */\n      mload\n        /* \"#utility.yul\":23571:23576   */\n      swap3\n      swap5\n        /* \"#utility.yul\":23595:23620   */\n      swap3\n      swap4\n      pop\n      pop\n      pop\n        /* \"#utility.yul\":23314:23626   */\n      jump\t// out\n        /* \"#utility.yul\":23933:24101   */\n    tag_407:\n        /* \"#utility.yul\":24006:24015   */\n      dup1\n      dup3\n      mul\n        /* \"#utility.yul\":24037:24046   */\n      dup2\n      iszero\n        /* \"#utility.yul\":24054:24069   */\n      dup3\n      dup3\n      div\n        /* \"#utility.yul\":24048:24070   */\n      dup5\n      eq\n        /* \"#utility.yul\":24034:24071   */\n      or\n        /* \"#utility.yul\":24024:24095   */\n      tag_130\n      jumpi\n        /* \"#utility.yul\":24075:24093   */\n      tag_130\n      tag_545\n      jump\t// in\n        /* \"#utility.yul\":24509:24760   */\n    tag_418:\n        /* \"#utility.yul\":24579:24585   */\n      0x00\n        /* \"#utility.yul\":24632:24634   */\n      0x20\n        /* \"#utility.yul\":24620:24629   */\n      dup3\n        /* \"#utility.yul\":24611:24618   */\n      dup5\n        /* \"#utility.yul\":24607:24630   */\n      sub\n        /* \"#utility.yul\":24603:24635   */\n      slt\n        /* \"#utility.yul\":24600:24652   */\n      iszero\n      tag_694\n      jumpi\n        /* \"#utility.yul\":24648:24649   */\n      0x00\n        /* \"#utility.yul\":24645:24646   */\n      dup1\n        /* \"#utility.yul\":24638:24650   */\n      revert\n        /* \"#utility.yul\":24600:24652   */\n    tag_694:\n        /* \"#utility.yul\":24680:24689   */\n      dup2\n        /* \"#utility.yul\":24674:24690   */\n      mload\n        /* \"#utility.yul\":24699:24730   */\n      tag_507\n        /* \"#utility.yul\":24724:24729   */\n      dup2\n        /* \"#utility.yul\":24699:24730   */\n      tag_532\n      jump\t// in\n        /* \"#utility.yul\":26926:27176   */\n    tag_546:\n        /* \"#utility.yul\":27011:27012   */\n      0x00\n        /* \"#utility.yul\":27021:27134   */\n    tag_702:\n        /* \"#utility.yul\":27035:27041   */\n      dup4\n        /* \"#utility.yul\":27032:27033   */\n      dup2\n        /* \"#utility.yul\":27029:27042   */\n      lt\n        /* \"#utility.yul\":27021:27134   */\n      iszero\n      tag_704\n      jumpi\n        /* \"#utility.yul\":27111:27122   */\n      dup2\n      dup2\n      add\n        /* \"#utility.yul\":27105:27123   */\n      mload\n        /* \"#utility.yul\":27092:27103   */\n      dup4\n      dup3\n      add\n        /* \"#utility.yul\":27085:27124   */\n      mstore\n        /* \"#utility.yul\":27057:27059   */\n      0x20\n        /* \"#utility.yul\":27050:27060   */\n      add\n        /* \"#utility.yul\":27021:27134   */\n      jump(tag_702)\n    tag_704:\n      pop\n      pop\n        /* \"#utility.yul\":27168:27169   */\n      0x00\n        /* \"#utility.yul\":27150:27166   */\n      swap2\n      add\n        /* \"#utility.yul\":27143:27170   */\n      mstore\n        /* \"#utility.yul\":26926:27176   */\n      jump\t// out\n        /* \"#utility.yul\":27181:27510   */\n    tag_547:\n        /* \"#utility.yul\":27222:27225   */\n      0x00\n        /* \"#utility.yul\":27260:27265   */\n      dup2\n        /* \"#utility.yul\":27254:27266   */\n      mload\n        /* \"#utility.yul\":27287:27293   */\n      dup1\n        /* \"#utility.yul\":27282:27285   */\n      dup5\n        /* \"#utility.yul\":27275:27294   */\n      mstore\n        /* \"#utility.yul\":27303:27379   */\n      tag_706\n        /* \"#utility.yul\":27372:27378   */\n      dup2\n        /* \"#utility.yul\":27365:27369   */\n      0x20\n        /* \"#utility.yul\":27360:27363   */\n      dup7\n        /* \"#utility.yul\":27356:27370   */\n      add\n        /* \"#utility.yul\":27349:27353   */\n      0x20\n        /* \"#utility.yul\":27342:27347   */\n      dup7\n        /* \"#utility.yul\":27338:27354   */\n      add\n        /* \"#utility.yul\":27303:27379   */\n      tag_546\n      jump\t// in\n    tag_706:\n        /* \"#utility.yul\":27424:27426   */\n      0x1f\n        /* \"#utility.yul\":27412:27427   */\n      add\n        /* \"#utility.yul\":27429:27495   */\n      0xffffffffffffffffffffffffffffffffffffffffffffffffffffffffffffffe0\n        /* \"#utility.yul\":27408:27496   */\n      and\n        /* \"#utility.yul\":27399:27497   */\n      swap3\n      swap1\n      swap3\n      add\n        /* \"#utility.yul\":27499:27503   */\n      0x20\n        /* \"#utility.yul\":27395:27504   */\n      add\n      swap3\n        /* \"#utility.yul\":27181:27510   */\n      swap2\n      pop\n      pop\n      jump\t// out\n        /* \"#utility.yul\":27515:27803   */\n    tag_464:\n        /* \"#utility.yul\":27690:27696   */\n      dup3\n        /* \"#utility.yul\":27679:27688   */\n      dup2\n        /* \"#utility.yul\":27672:27697   */\n      mstore\n        /* \"#utility.yul\":27733:27735   */\n      0x40\n        /* \"#utility.yul\":27728:27730   */\n      0x20\n        /* \"#utility.yul\":27717:27726   */\n      dup3\n        /* \"#utility.yul\":27713:27731   */\n      add\n        /* \"#utility.yul\":27706:27736   */\n      mstore\n        /* \"#utility.yul\":27653:27657   */\n      0x00\n        /* \"#utility.yul\":27753:27797   */\n      tag_508\n        /* \"#utility.yul\":27793:27795   */\n      0x40\n        /* \"#utility.yul\":27782:27791   */\n      dup4\n        /* \"#utility.yul\":27778:27796   */\n      add\n        /* \"#utility.yul\":27770:27776   */\n      dup5\n        /* \"#utility.yul\":27753:27797   */\n      tag_547\n      jump\t// in\n        /* \"#utility.yul\":27808:28144   */\n    tag_468:\n        /* \"#utility.yul\":27877:27883   */\n      0x00\n        /* \"#utility.yul\":27930:27932   */\n      0x20\n        /* \"#utility.yul\":27918:27927   */\n      dup3\n        /* \"#utility.yul\":27909:27916   */\n      dup5\n        /* \"#utility.yul\":27905:27928   */\n      sub\n        /* \"#utility.yul\":27901:27933   */\n      slt\n        /* \"#utility.yul\":27898:27950   */\n      iszero\n      tag_710\n      jumpi\n        /* \"#utility.yul\":27946:27947   */\n      0x00\n        /* \"#utility.yul\":27943:27944   */\n      dup1\n        /* \"#utility.yul\":27936:27948   */\n      revert\n        /* \"#utility.yul\":27898:27950   */\n    tag_710:\n        /* \"#utility.yul\":27978:27987   */\n      dup2\n        /* \"#utility.yul\":27972:27988   */\n      mload\n        /* \"#utility.yul\":28028:28094   */\n      0xffffffff00000000000000000000000000000000000000000000000000000000\n        /* \"#utility.yul\":28021:28026   */\n      dup2\n        /* \"#utility.yul\":28017:28095   */\n      and\n        /* \"#utility.yul\":28010:28015   */\n      dup2\n        /* \"#utility.yul\":28007:28096   */\n      eq\n        /* \"#utility.yul\":27997:28114   */\n      tag_507\n      jumpi\n        /* \"#utility.yul\":28110:28111   */\n      0x00\n        /* \"#utility.yul\":28107:28108   */\n      dup1\n        /* \"#utility.yul\":28100:28112   */\n      revert\n        /* \"#utility.yul\":28149:28333   */\n    tag_476:\n        /* \"#utility.yul\":28219:28225   */\n      0x00\n        /* \"#utility.yul\":28272:28274   */\n      0x20\n        /* \"#utility.yul\":28260:28269   */\n      dup3\n        /* \"#utility.yul\":28251:28258   */\n      dup5\n        /* \"#utility.yul\":28247:28270   */\n      sub\n        /* \"#utility.yul\":28243:28275   */\n      slt\n        /* \"#utility.yul\":28240:28292   */\n      iszero\n      tag_713\n      jumpi\n        /* \"#utility.yul\":28288:28289   */\n      0x00\n        /* \"#utility.yul\":28285:28286   */\n      dup1\n        /* \"#utility.yul\":28278:28290   */\n      revert\n        /* \"#utility.yul\":28240:28292   */\n    tag_713:\n      pop\n        /* \"#utility.yul\":28311:28327   */\n      mload\n      swap2\n        /* \"#utility.yul\":28149:28333   */\n      swap1\n      pop\n      jump\t// out\n        /* \"#utility.yul\":28338:28612   */\n    tag_479:\n        /* \"#utility.yul\":28378:28379   */\n      0x00\n        /* \"#utility.yul\":28404:28405   */\n      dup3\n        /* \"#utility.yul\":28394:28583   */\n      tag_715\n      jumpi\n        /* \"#utility.yul\":28439:28516   */\n      0x4e487b7100000000000000000000000000000000000000000000000000000000\n        /* \"#utility.yul\":28436:28437   */\n      0x00\n        /* \"#utility.yul\":28429:28517   */\n      mstore\n        /* \"#utility.yul\":28540:28544   */\n      0x12\n        /* \"#utility.yul\":28537:28538   */\n      0x04\n        /* \"#utility.yul\":28530:28545   */\n      mstore\n        /* \"#utility.yul\":28568:28572   */\n      0x24\n        /* \"#utility.yul\":28565:28566   */\n      0x00\n        /* \"#utility.yul\":28558:28573   */\n      revert\n        /* \"#utility.yul\":28394:28583   */\n    tag_715:\n      pop\n        /* \"#utility.yul\":28597:28606   */\n      div\n      swap1\n        /* \"#utility.yul\":28338:28612   */\n      jump\t// out\n        /* \"#utility.yul\":31237:31524   */\n    tag_519:\n        /* \"#utility.yul\":31366:31369   */\n      0x00\n        /* \"#utility.yul\":31404:31410   */\n      dup3\n        /* \"#utility.yul\":31398:31411   */\n      mload\n        /* \"#utility.yul\":31420:31486   */\n      tag_724\n        /* \"#utility.yul\":31479:31485   */\n      dup2\n        /* \"#utility.yul\":31474:31477   */\n      dup5\n        /* \"#utility.yul\":31467:31471   */\n      0x20\n        /* \"#utility.yul\":31459:31465   */\n      dup8\n        /* \"#utility.yul\":31455:31472   */\n      add\n        /* \"#utility.yul\":31420:31486   */\n      tag_546\n      jump\t// in\n    tag_724:\n        /* \"#utility.yul\":31502:31518   */\n      swap2\n      swap1\n      swap2\n      add\n      swap3\n        /* \"#utility.yul\":31237:31524   */\n      swap2\n      pop\n      pop\n      jump\t// out\n        /* \"#utility.yul\":31529:31748   */\n    tag_531:\n        /* \"#utility.yul\":31678:31680   */\n      0x20\n        /* \"#utility.yul\":31667:31676   */\n      dup2\n        /* \"#utility.yul\":31660:31681   */\n      mstore\n        /* \"#utility.yul\":31641:31645   */\n      0x00\n        /* \"#utility.yul\":31698:31742   */\n      tag_507\n        /* \"#utility.yul\":31738:31740   */\n      0x20\n        /* \"#utility.yul\":31727:31736   */\n      dup4\n        /* \"#utility.yul\":31723:31741   */\n      add\n        /* \"#utility.yul\":31715:31721   */\n      dup5\n        /* \"#utility.yul\":31698:31742   */\n      tag_547\n      jump\t// in\n\n    auxdata: 0xa26469706673582212203e3f069888d19a53f22370805c756b9a209e773dd85833c0bde3d962ae95ed3564736f6c63430008110033\n}\n",
				"bytecode": {
					"linkReferences": {},
					"object": "60a06040523480156200001157600080fd5b50604051620040823803806200408283398101604081905262000034916200010c565b600160005562000044336200009d565b600380546001600160a01b039687166001600160a01b031991821617909155600480549587169582169590951790945560058054938616938516939093179092558316608052600280549190931691161790556200017c565b600180546001600160a01b038381166001600160a01b0319831681179093556040519116919082907f8be0079c531659141344cd1fd0a4f28419497f9722a3daafe3b4186f6b6457e090600090a35050565b80516001600160a01b03811681146200010757600080fd5b919050565b600080600080600060a086880312156200012557600080fd5b6200013086620000ef565b94506200014060208701620000ef565b93506200015060408701620000ef565b92506200016060608701620000ef565b91506200017060808701620000ef565b90509295509295909350565b608051613eb9620001c9600039600081816103ec01528181610b5201528181610cda01528181610d76015281816128f401528181612a1701528181612a9c0152612bb20152613eb96000f3fe60806040526004361061016a5760003560e01c806364df049e116100cb578063ad5c46481161007f578063d4ff41dc11610059578063d4ff41dc1461044e578063f2fde38b1461046e578063f75ff53f1461048e57600080fd5b8063ad5c4648146103da578063c54987691461040e578063cbd2ec651461042e57600080fd5b806387e4401f116100b057806387e4401f146103625780638da5cb5b1461038f5780639e53a69a146103ba57600080fd5b806364df049e14610320578063715018a61461034d57600080fd5b8063483abb9f116101225780635ce052d7116101075780635ce052d7146102b35780635e14f68e146102d357806363521def1461030057600080fd5b8063483abb9f14610273578063509a1a41146102a057600080fd5b806331e27e271161015357806331e27e27146101e85780634266581e1461021857806345ea72311461025357600080fd5b80630f747d741461016f5780631df47f80146101c6575b600080fd5b34801561017b57600080fd5b5060035461019c9073ffffffffffffffffffffffffffffffffffffffff1681565b60405173ffffffffffffffffffffffffffffffffffffffff90911681526020015b60405180910390f35b3480156101d257600080fd5b506101e66101e1366004613459565b6104ae565b005b3480156101f457600080fd5b50610208610203366004613476565b610525565b60405190151581526020016101bd565b34801561022457600080fd5b50610245610233366004613459565b60076020526000908152604090205481565b6040519081526020016101bd565b34801561025f57600080fd5b506101e661026e3660046134a2565b610560565b34801561027f57600080fd5b5060045461019c9073ffffffffffffffffffffffffffffffffffffffff1681565b6101e66102ae3660046134a2565b610a41565b3480156102bf57600080fd5b506101e66102ce366004613459565b610fcb565b3480156102df57600080fd5b5060065461019c9073ffffffffffffffffffffffffffffffffffffffff1681565b34801561030c57600080fd5b506101e661031b3660046134a2565b6110bf565b34801561032c57600080fd5b5060025461019c9073ffffffffffffffffffffffffffffffffffffffff1681565b34801561035957600080fd5b506101e6611522565b34801561036e57600080fd5b5060055461019c9073ffffffffffffffffffffffffffffffffffffffff1681565b34801561039b57600080fd5b5060015473ffffffffffffffffffffffffffffffffffffffff1661019c565b3480156103c657600080fd5b506101e66103d5366004613516565b611536565b3480156103e657600080fd5b5061019c7f000000000000000000000000000000000000000000000000000000000000000081565b34801561041a57600080fd5b506101e6610429366004613459565b611717565b34801561043a57600080fd5b506101e661044936600461358b565b61180b565b34801561045a57600080fd5b506101e6610469366004613459565b61197d565b34801561047a57600080fd5b506101e6610489366004613459565b611a71565b34801561049a57600080fd5b506101e66104a9366004613459565b611b28565b6104b6611c1c565b600280547fffffffffffffffffffffffff00000000000000000000000000000000000000001673ffffffffffffffffffffffffffffffffffffffff83169081179091556040517f8cffb07faa2874440346743bdc0a86b06c3335cc47dc49b327d10e77b73ceb1090600090a250565b73ffffffffffffffffffffffffffffffffffffffff8216600090815260086020908152604080832084845290915290205460ff165b92915050565b6002600054036105d1576040517f08c379a000000000000000000000000000000000000000000000000000000000815260206004820152601f60248201527f5265656e7472616e637947756172643a207265656e7472616e742063616c6c0060448201526064015b60405180910390fd5b60026000556105e360208201826135bd565b80156105f957506105f760208301836135bd565b155b61065f576040517f08c379a000000000000000000000000000000000000000000000000000000000815260206004820152601660248201527f4572726f722041626f7574204f7264657220536964650000000000000000000060448201526064016105c8565b61066f6040830160208401613459565b73ffffffffffffffffffffffffffffffffffffffff163373ffffffffffffffffffffffffffffffffffffffff1614610703576040517f08c379a000000000000000000000000000000000000000000000000000000000815260206004820152601860248201527f4f72646572206d757374206265207468652073656e646572000000000000000060448201526064016105c8565b6000610716610711836136ef565b611c9d565b90506107228282611d44565b6000808061073660e0860160c08701613459565b73ffffffffffffffffffffffffffffffffffffffff1663d310677d87876040518363ffffffff1660e01b81526004016107709291906138b4565b606060405180830381865afa15801561078d573d6000803e3d6000fd5b505050506040513d601f19601f820116820180604052508101906107b19190613a9e565b9250925092508261081e576040517f08c379a000000000000000000000000000000000000000000000000000000000815260206004820152601860248201527f53747261746567792073686f756c642062652076616c6964000000000000000060448201526064016105c8565b6001600860006108346040890160208a01613459565b73ffffffffffffffffffffffffffffffffffffffff168152602080820192909252604090810160009081206101008a01358252909252902080547fffffffffffffffffffffffffffffffffffffffffffffffffffffffffffffff00169115159190911790556108ef6108ac60e0870160c08801613459565b6108bc6060880160408901613459565b846108ce6101008a0160e08b01613459565b336108df60408c0160208d01613459565b8c604001358c610160013561232e565b6109296109026060870160408801613459565b6109126040880160208901613459565b61092260408a0160208b01613459565b85856125fe565b61093960e0860160c08701613459565b73ffffffffffffffffffffffffffffffffffffffff1661095f6040870160208801613459565b73ffffffffffffffffffffffffffffffffffffffff166109856040890160208a01613459565b73ffffffffffffffffffffffffffffffffffffffff167f95fb6205e23ff6bda16a2d1dba56b9ad7c783f67c96fa149785052f47696f2be876101008a018035906109d29060e08d01613459565b6109e260608d0160408e01613459565b60408051948552602085019390935273ffffffffffffffffffffffffffffffffffffffff918216848401521660608301526080820188905260a082018790528b013560c082015260e00160405180910390a45050600160005550505050565b600260005403610aad576040517f08c379a000000000000000000000000000000000000000000000000000000000815260206004820152601f60248201527f5265656e7472616e637947756172643a207265656e7472616e742063616c6c0060448201526064016105c8565b6002600055610abf60208201826135bd565b8015610ad55750610ad360208301836135bd565b155b610b3b576040517f08c379a000000000000000000000000000000000000000000000000000000000815260206004820152601660248201527f4572726f722041626f7574204f7264657220536964650000000000000000000060448201526064016105c8565b73ffffffffffffffffffffffffffffffffffffffff7f000000000000000000000000000000000000000000000000000000000000000016610b83610100830160e08401613459565b73ffffffffffffffffffffffffffffffffffffffff1614610c00576040517f08c379a000000000000000000000000000000000000000000000000000000000815260206004820152601560248201527f43757272656e6379206d7573742062652057455448000000000000000000000060448201526064016105c8565b610c106040830160208401613459565b73ffffffffffffffffffffffffffffffffffffffff163373ffffffffffffffffffffffffffffffffffffffff1614610ca4576040517f08c379a000000000000000000000000000000000000000000000000000000000815260206004820152601860248201527f4f72646572206d757374206265207468652073656e646572000000000000000060448201526064016105c8565b3482604001351115610d0757610d023330610cc3346040870135613b04565b73ffffffffffffffffffffffffffffffffffffffff7f0000000000000000000000000000000000000000000000000000000000000000169291906127b9565b610d74565b34826040013514610d74576040517f08c379a000000000000000000000000000000000000000000000000000000000815260206004820152601560248201527f4d73672e76616c756520697320746f6f2068696768000000000000000000000060448201526064016105c8565b7f000000000000000000000000000000000000000000000000000000000000000073ffffffffffffffffffffffffffffffffffffffff1663d0e30db0346040518263ffffffff1660e01b81526004016000604051808303818588803b158015610ddc57600080fd5b505af1158015610df0573d6000803e3d6000fd5b50505050506000610e0482610711906136ef565b9050610e108282611d44565b60008080610e2460e0860160c08701613459565b73ffffffffffffffffffffffffffffffffffffffff1663d310677d87876040518363ffffffff1660e01b8152600401610e5e9291906138b4565b606060405180830381865afa158015610e7b573d6000803e3d6000fd5b505050506040513d601f19601f82011682018060405250810190610e9f9190613a9e565b92509250925082610f0c576040517f08c379a000000000000000000000000000000000000000000000000000000000815260206004820152601860248201527f53747261746567792073686f756c642062652076616c6964000000000000000060448201526064016105c8565b600160086000610f226040890160208a01613459565b73ffffffffffffffffffffffffffffffffffffffff168152602080820192909252604090810160009081206101008a01358252909252902080547fffffffffffffffffffffffffffffffffffffffffffffffffffffffffffffff00169115159190911790556108ef610f9a60e0870160c08801613459565b610faa6060880160408901613459565b84610fbb60408a0160208b01613459565b8a604001358a610160013561289b565b610fd3611c1c565b73ffffffffffffffffffffffffffffffffffffffff8116611050576040517f08c379a000000000000000000000000000000000000000000000000000000000815260206004820152601f60248201527f43616e6e6f742075706461746520746f2061206e756c6c20616464726573730060448201526064016105c8565b600380547fffffffffffffffffffffffff00000000000000000000000000000000000000001673ffffffffffffffffffffffffffffffffffffffff83169081179091556040517fb4f5db40df3aced29e88a4babbc3b46e305e07d34098525d18b1497056e6383890600090a250565b60026000540361112b576040517f08c379a000000000000000000000000000000000000000000000000000000000815260206004820152601f60248201527f5265656e7472616e637947756172643a207265656e7472616e742063616c6c0060448201526064016105c8565b600260005561113d60208201826135bd565b158015611152575061115260208301836135bd565b6111b8576040517f08c379a000000000000000000000000000000000000000000000000000000000815260206004820152601660248201527f4572726f722041626f7574204f7264657220536964650000000000000000000060448201526064016105c8565b6111c86040830160208401613459565b73ffffffffffffffffffffffffffffffffffffffff163373ffffffffffffffffffffffffffffffffffffffff161461125c576040517f08c379a000000000000000000000000000000000000000000000000000000000815260206004820152601860248201527f4f72646572206d757374206265207468652073656e646572000000000000000060448201526064016105c8565b600061126a610711836136ef565b90506112768282611d44565b6000808061128a60e0860160c08701613459565b73ffffffffffffffffffffffffffffffffffffffff16632a75ffee87876040518363ffffffff1660e01b81526004016112c49291906138b4565b606060405180830381865afa1580156112e1573d6000803e3d6000fd5b505050506040513d601f19601f820116820180604052508101906113059190613a9e565b92509250925082611372576040517f08c379a000000000000000000000000000000000000000000000000000000000815260206004820152601860248201527f53747261746567792073686f756c642062652076616c6964000000000000000060448201526064016105c8565b6001600860006113886040890160208a01613459565b73ffffffffffffffffffffffffffffffffffffffff168152602080820192909252604090810160009081206101008a013582529092529081902080547fffffffffffffffffffffffffffffffffffffffffffffffffffffffffffffff001692151592909217909155611415906114049060608801908801613459565b336109226040890160208a01613459565b61147961142860e0870160c08801613459565b6114386060880160408901613459565b8461144a6101008a0160e08b01613459565b61145a60408b0160208c01613459565b61146a60408d0160208e01613459565b8c604001358d6080013561232e565b61148960e0860160c08701613459565b73ffffffffffffffffffffffffffffffffffffffff166114af6040870160208801613459565b73ffffffffffffffffffffffffffffffffffffffff166114d56040890160208a01613459565b73ffffffffffffffffffffffffffffffffffffffff167f68cd251d4d267c6e2034ff0088b990352b97b2002c0476587d0c4da889c11330876101008a018035906109d29060e08d01613459565b61152a611c1c565b6115346000612bd9565b565b8061159d576040517f08c379a000000000000000000000000000000000000000000000000000000000815260206004820152601b60248201527f43616e6e6f7420626520656d7074792043616e63656c206c697374000000000060448201526064016105c8565b60005b818110156116c257336000908152600760205260409020548383838181106115ca576115ca613b17565b90506020020135101561165f576040517f08c379a000000000000000000000000000000000000000000000000000000000815260206004820152602c60248201527f43616e63656c204f72646572206e6f6e63652063616e6e6f74206c6f7765722060448201527f7468616e2063757272656e74000000000000000000000000000000000000000060648201526084016105c8565b33600090815260086020526040812060019185858581811061168357611683613b17565b90506020020135815260200190815260200160002060006101000a81548160ff02191690831515021790555080806116ba90613b46565b9150506115a0565b503373ffffffffffffffffffffffffffffffffffffffff167ffa0ae5d80fe3763c880a3839fab0294171a6f730d1f82c4cd5392c6f67b41732838360405161170b929190613b7e565b60405180910390a25050565b61171f611c1c565b73ffffffffffffffffffffffffffffffffffffffff811661179c576040517f08c379a000000000000000000000000000000000000000000000000000000000815260206004820152601f60248201527f43616e6e6f742075706461746520746f2061206e756c6c20616464726573730060448201526064016105c8565b600580547fffffffffffffffffffffffff00000000000000000000000000000000000000001673ffffffffffffffffffffffffffffffffffffffff83169081179091556040517f80e3874461ebbd918ac3e81da0a92e5e51387d70f337237c9123e48d20e5a50890600090a250565b3360009081526007602052604090205481116118a9576040517f08c379a000000000000000000000000000000000000000000000000000000000815260206004820152602c60248201527f43616e63656c204f72646572206e6f6e63652063616e6e6f74206c6f7765722060448201527f7468616e2063757272656e74000000000000000000000000000000000000000060648201526084016105c8565b336000908152600760205260409020546118c6906207a120613bd0565b811061192e576040517f08c379a000000000000000000000000000000000000000000000000000000000815260206004820152601d60248201527f43616e6e6f742063616e63656c20746f6f206d616e79206f726465727300000060448201526064016105c8565b3360008181526007602052604090819020839055517f1e7178d84f0b0825c65795cd62e7972809ad3aac6917843aaec596161b2c0a97906119729084815260200190565b60405180910390a250565b611985611c1c565b73ffffffffffffffffffffffffffffffffffffffff8116611a02576040517f08c379a000000000000000000000000000000000000000000000000000000000815260206004820152601f60248201527f43616e6e6f742075706461746520746f2061206e756c6c20616464726573730060448201526064016105c8565b600480547fffffffffffffffffffffffff00000000000000000000000000000000000000001673ffffffffffffffffffffffffffffffffffffffff83169081179091556040517f36e2a376eabc3bc60cb88f29c288f53e36874a95a7f407330ab4f166b090569890600090a250565b611a79611c1c565b73ffffffffffffffffffffffffffffffffffffffff8116611b1c576040517f08c379a000000000000000000000000000000000000000000000000000000000815260206004820152602660248201527f4f776e61626c653a206e6577206f776e657220697320746865207a65726f206160448201527f646472657373000000000000000000000000000000000000000000000000000060648201526084016105c8565b611b2581612bd9565b50565b611b30611c1c565b73ffffffffffffffffffffffffffffffffffffffff8116611bad576040517f08c379a000000000000000000000000000000000000000000000000000000000815260206004820152601f60248201527f43616e6e6f742075706461746520746f2061206e756c6c20616464726573730060448201526064016105c8565b600680547fffffffffffffffffffffffff00000000000000000000000000000000000000001673ffffffffffffffffffffffffffffffffffffffff83169081179091556040517f205d78ab41afe80bd6b6aaa5d7599d5300ff8690da3ab1302c1b552f7baf7d8c90600090a250565b60015473ffffffffffffffffffffffffffffffffffffffff163314611534576040517f08c379a000000000000000000000000000000000000000000000000000000000815260206004820181905260248201527f4f776e61626c653a2063616c6c6572206973206e6f7420746865206f776e657260448201526064016105c8565b80516020808301516040808501516060860151608087015160a088015160c089015160e08a01516101008b01516101208c01516101408d01516101608e01516101808f01518051908e01209a5160009e611d279e7f40261ade532fa1d2c7293df30aaadb9b3c616fae525a0b56d3d411c841a850289e919d919c9b9a999897969594939201613be3565b604051602081830303815290604052805190602001209050919050565b60086000611d586040850160208601613459565b73ffffffffffffffffffffffffffffffffffffffff16815260208082019290925260409081016000908120610100860135825290925290205460ff16158015611df4575060076000611db06040850160208601613459565b73ffffffffffffffffffffffffffffffffffffffff1673ffffffffffffffffffffffffffffffffffffffff1681526020019081526020016000205482610100013510155b611e5a576040517f08c379a000000000000000000000000000000000000000000000000000000000815260206004820152601d60248201527f4f726465723a204d61746368696e67206f72646572206578706972656400000060448201526064016105c8565b6000611e6c6040840160208501613459565b73ffffffffffffffffffffffffffffffffffffffff1603611f0f576040517f08c379a000000000000000000000000000000000000000000000000000000000815260206004820152602b60248201527f546865204f72646572207369676e65722063616e6e6f7420626520746865207a60448201527f65726f206164647265737300000000000000000000000000000000000000000060648201526084016105c8565b60008260a0013511611fa3576040517f08c379a000000000000000000000000000000000000000000000000000000000815260206004820152602960248201527f546865206f7264657220616d6f756e742073686f756c6420626520677265617460448201527f6572207468616e2030000000000000000000000000000000000000000000000060648201526084016105c8565b604080517f8b73c3c69bb8fe3d512ecc4cf759cc79239f7b179b0ffacaa9a75d522b39400f60208201527f2e3445393f211d11d7f88d325bc26ce78976b4decd39029feb202d9b409fc3c5918101919091527fc89efdaa54c0f20c7adf612882df0950f5a951637e0307cdcb4c672f298b8bc660608201524660808201523060a082015260009060c0016040516020818303038152906040528051906020012090506120808284602001602081019061205c9190613459565b61206e6101c087016101a08801613c9d565b866101c00135876101e0013586612c50565b6120e6576040517f08c379a000000000000000000000000000000000000000000000000000000000815260206004820152601260248201527f5369676e61747572653a20496e76616c6964000000000000000000000000000060448201526064016105c8565b60035473ffffffffffffffffffffffffffffffffffffffff166343b938c5612115610100860160e08701613459565b6040517fffffffff0000000000000000000000000000000000000000000000000000000060e084901b16815273ffffffffffffffffffffffffffffffffffffffff9091166004820152602401602060405180830381865afa15801561217e573d6000803e3d6000fd5b505050506040513d601f19601f820116820180604052508101906121a29190613cb8565b612208576040517f08c379a000000000000000000000000000000000000000000000000000000000815260206004820152601a60248201527f204e6f7420696e2043757272656e63792077686974656c69737400000000000060448201526064016105c8565b60045473ffffffffffffffffffffffffffffffffffffffff1663999ba27c61223660e0860160c08701613459565b6040517fffffffff0000000000000000000000000000000000000000000000000000000060e084901b16815273ffffffffffffffffffffffffffffffffffffffff9091166004820152602401602060405180830381865afa15801561229f573d6000803e3d6000fd5b505050506040513d601f19601f820116820180604052508101906122c39190613cb8565b612329576040517f08c379a000000000000000000000000000000000000000000000000000000000815260206004820152601a60248201527f204e6f7420696e2053747261746567792077686974656c69737400000000000060448201526064016105c8565b505050565b81600061233b8a83612e24565b60025490915073ffffffffffffffffffffffffffffffffffffffff161580159061236457508015155b1561239f576002546123929073ffffffffffffffffffffffffffffffffffffffff89811691899116846127b9565b61239c8183613b04565b91505b6005546040517ff4f635fa00000000000000000000000000000000000000000000000000000000815273ffffffffffffffffffffffffffffffffffffffff8b81166004830152602482018b905260448201879052600092839291169063f4f635fa906064016040805180830381865afa158015612420573d6000803e3d6000fd5b505050506040513d601f19601f820116820180604052508101906124449190613cd5565b909250905073ffffffffffffffffffffffffffffffffffffffff82161580159061246d57508015155b1561252a5761249473ffffffffffffffffffffffffffffffffffffffff8a168984846127b9565b61249e8185613b04565b93508173ffffffffffffffffffffffffffffffffffffffff168a8c73ffffffffffffffffffffffffffffffffffffffff167f27c4f0403323142b599832f26acd21c74a9e5b809f2215726e244a4ac588cd7d8c8560405161252192919073ffffffffffffffffffffffffffffffffffffffff929092168252602082015260400190565b60405180910390a45b6125348686613d03565b61254085612710613d03565b10156125ce576040517f08c379a000000000000000000000000000000000000000000000000000000000815260206004820152602260248201527f5468652066656520697320746f6f206869676820666f72207468652073656c6c60448201527f657200000000000000000000000000000000000000000000000000000000000060648201526084016105c8565b6125f073ffffffffffffffffffffffffffffffffffffffff8a168989876127b9565b505050505050505050505050565b6006546040517fcc15949300000000000000000000000000000000000000000000000000000000815273ffffffffffffffffffffffffffffffffffffffff8781166004830152600092169063cc15949390602401602060405180830381865afa15801561266f573d6000803e3d6000fd5b505050506040513d601f19601f820116820180604052508101906126939190613d1a565b905073ffffffffffffffffffffffffffffffffffffffff8116612712576040517f08c379a000000000000000000000000000000000000000000000000000000000815260206004820152601c60248201527f43616e277420666f756e74207472616e73666572206d616e616765720000000060448201526064016105c8565b6040517f33f2fa9f00000000000000000000000000000000000000000000000000000000815273ffffffffffffffffffffffffffffffffffffffff87811660048301528681166024830152858116604483015260648201859052608482018490528216906333f2fa9f9060a401600060405180830381600087803b15801561279957600080fd5b505af11580156127ad573d6000803e3d6000fd5b50505050505050505050565b60405173ffffffffffffffffffffffffffffffffffffffff808516602483015283166044820152606481018290526128959085907f23b872dd00000000000000000000000000000000000000000000000000000000906084015b604080517fffffffffffffffffffffffffffffffffffffffffffffffffffffffffffffffe08184030181529190526020810180517bffffffffffffffffffffffffffffffffffffffffffffffffffffffff167fffffffff0000000000000000000000000000000000000000000000000000000090931692909217909152612eb7565b50505050565b8160006128a88883612e24565b60025490915073ffffffffffffffffffffffffffffffffffffffff16158015906128d157508015155b1561292a5760025461291d9073ffffffffffffffffffffffffffffffffffffffff7f00000000000000000000000000000000000000000000000000000000000000008116911683612fc3565b6129278183613b04565b91505b6005546040517ff4f635fa00000000000000000000000000000000000000000000000000000000815273ffffffffffffffffffffffffffffffffffffffff89811660048301526024820189905260448201879052600092839291169063f4f635fa906064016040805180830381865afa1580156129ab573d6000803e3d6000fd5b505050506040513d601f19601f820116820180604052508101906129cf9190613cd5565b909250905073ffffffffffffffffffffffffffffffffffffffff8216158015906129f857508015155b15612af457612a3e73ffffffffffffffffffffffffffffffffffffffff7f0000000000000000000000000000000000000000000000000000000000000000168383612fc3565b612a488185613b04565b93508173ffffffffffffffffffffffffffffffffffffffff16888a73ffffffffffffffffffffffffffffffffffffffff167f27c4f0403323142b599832f26acd21c74a9e5b809f2215726e244a4ac588cd7d7f000000000000000000000000000000000000000000000000000000000000000085604051612aeb92919073ffffffffffffffffffffffffffffffffffffffff929092168252602082015260400190565b60405180910390a45b612afe8686613d03565b612b0a85612710613d03565b1015612b98576040517f08c379a000000000000000000000000000000000000000000000000000000000815260206004820152602260248201527f5468652066656520697320746f6f206869676820666f72207468652073656c6c60448201527f657200000000000000000000000000000000000000000000000000000000000060648201526084016105c8565b6127ad73ffffffffffffffffffffffffffffffffffffffff7f0000000000000000000000000000000000000000000000000000000000000000168886612fc3565b6001805473ffffffffffffffffffffffffffffffffffffffff8381167fffffffffffffffffffffffff0000000000000000000000000000000000000000831681179093556040519116919082907f8be0079c531659141344cd1fd0a4f28419497f9722a3daafe3b4186f6b6457e090600090a35050565b6040517f1901000000000000000000000000000000000000000000000000000000000000602082015260228101829052604281018790526000908190606201604051602081830303815290604052805190602001209050612cc78773ffffffffffffffffffffffffffffffffffffffff163b151590565b15612ddc57604080516020810187905280820186905260f888901b7fff000000000000000000000000000000000000000000000000000000000000001660608201528151604181830301815260618201928390527f1626ba7e0000000000000000000000000000000000000000000000000000000090925273ffffffffffffffffffffffffffffffffffffffff891691631626ba7e91612d6b918591606501613da5565b602060405180830381865afa158015612d88573d6000803e3d6000fd5b505050506040513d601f19601f82011682018060405250810190612dac9190613dbe565b7bffffffffffffffffffffffffffffffffffffffffffffffffffffffff1916631626ba7e60e01b14915050612e1a565b8673ffffffffffffffffffffffffffffffffffffffff16612dff82888888613019565b73ffffffffffffffffffffffffffffffffffffffff16149150505b9695505050505050565b6000808373ffffffffffffffffffffffffffffffffffffffff16639dd1cda66040518163ffffffff1660e01b8152600401602060405180830381865afa158015612e72573d6000803e3d6000fd5b505050506040513d601f19601f82011682018060405250810190612e969190613e00565b9050612710612ea58483613d03565b612eaf9190613e19565b949350505050565b6000612f19826040518060400160405280602081526020017f5361666545524332303a206c6f772d6c6576656c2063616c6c206661696c65648152508573ffffffffffffffffffffffffffffffffffffffff166132259092919063ffffffff16565b8051909150156123295780806020019051810190612f379190613cb8565b612329576040517f08c379a000000000000000000000000000000000000000000000000000000000815260206004820152602a60248201527f5361666545524332303a204552433230206f7065726174696f6e20646964206e60448201527f6f7420737563636565640000000000000000000000000000000000000000000060648201526084016105c8565b60405173ffffffffffffffffffffffffffffffffffffffff83166024820152604481018290526123299084907fa9059cbb0000000000000000000000000000000000000000000000000000000090606401612813565b60007f7fffffffffffffffffffffffffffffff5d576e7357a4501ddfe92f46681b20a08211156130a5576040517f08c379a000000000000000000000000000000000000000000000000000000000815260206004820152601460248201527f20496e76616c6964207320706172616d6574657200000000000000000000000060448201526064016105c8565b8360ff16601b14806130ba57508360ff16601c145b613120576040517f08c379a000000000000000000000000000000000000000000000000000000000815260206004820152601360248201527f496e76616c6964207620706172616d657465720000000000000000000000000060448201526064016105c8565b6040805160008082526020820180845288905260ff871692820192909252606081018590526080810184905260019060a0016020604051602081039080840390855afa158015613174573d6000803e3d6000fd5b50506040517fffffffffffffffffffffffffffffffffffffffffffffffffffffffffffffffe0015191505073ffffffffffffffffffffffffffffffffffffffff811661321c576040517f08c379a000000000000000000000000000000000000000000000000000000000815260206004820152600f60248201527f20496e76616c6964207369676e6572000000000000000000000000000000000060448201526064016105c8565b95945050505050565b6060613234848460008561323e565b90505b9392505050565b6060824710156132d0576040517f08c379a000000000000000000000000000000000000000000000000000000000815260206004820152602660248201527f416464726573733a20696e73756666696369656e742062616c616e636520666f60448201527f722063616c6c000000000000000000000000000000000000000000000000000060648201526084016105c8565b73ffffffffffffffffffffffffffffffffffffffff85163b61334e576040517f08c379a000000000000000000000000000000000000000000000000000000000815260206004820152601d60248201527f416464726573733a2063616c6c20746f206e6f6e2d636f6e747261637400000060448201526064016105c8565b6000808673ffffffffffffffffffffffffffffffffffffffff1685876040516133779190613e54565b60006040518083038185875af1925050503d80600081146133b4576040519150601f19603f3d011682016040523d82523d6000602084013e6133b9565b606091505b50915091506133c98282866133d4565b979650505050505050565b606083156133e3575081613237565b8251156133f35782518084602001fd5b816040517f08c379a00000000000000000000000000000000000000000000000000000000081526004016105c89190613e70565b73ffffffffffffffffffffffffffffffffffffffff81168114611b2557600080fd5b803561345481613427565b919050565b60006020828403121561346b57600080fd5b813561323781613427565b6000806040838503121561348957600080fd5b823561349481613427565b946020939093013593505050565b600080604083850312156134b557600080fd5b823567ffffffffffffffff808211156134cd57600080fd5b9084019060c082870312156134e157600080fd5b909250602084013590808211156134f757600080fd5b508301610200818603121561350b57600080fd5b809150509250929050565b6000806020838503121561352957600080fd5b823567ffffffffffffffff8082111561354157600080fd5b818501915085601f83011261355557600080fd5b81358181111561356457600080fd5b8660208260051b850101111561357957600080fd5b60209290920196919550909350505050565b60006020828403121561359d57600080fd5b5035919050565b8015158114611b2557600080fd5b8035613454816135a4565b6000602082840312156135cf57600080fd5b8135613237816135a4565b7f4e487b7100000000000000000000000000000000000000000000000000000000600052604160045260246000fd5b604051610200810167ffffffffffffffff8111828210171561362d5761362d6135da565b60405290565b600082601f83011261364457600080fd5b813567ffffffffffffffff8082111561365f5761365f6135da565b604051601f83017fffffffffffffffffffffffffffffffffffffffffffffffffffffffffffffffe0908116603f011681019082821181831017156136a5576136a56135da565b816040528381528660208588010111156136be57600080fd5b836020870160208301376000602085830101528094505050505092915050565b803560ff8116811461345457600080fd5b6000610200823603121561370257600080fd5b61370a613609565b613713836135b2565b815261372160208401613449565b602082015261373260408401613449565b6040820152606083013560608201526080830135608082015260a083013560a082015261376160c08401613449565b60c082015261377260e08401613449565b60e082015261010083810135908201526101208084013590820152610140808401359082015261016080840135908201526101808084013567ffffffffffffffff8111156137bf57600080fd5b6137cb36828701613633565b8284015250506101a06137df8185016136de565b908201526101c083810135908201526101e092830135928101929092525090565b60008083357fffffffffffffffffffffffffffffffffffffffffffffffffffffffffffffffe184360301811261383557600080fd5b830160208101925035905067ffffffffffffffff81111561385557600080fd5b80360382131561386457600080fd5b9250929050565b8183528181602085013750600060208284010152600060207fffffffffffffffffffffffffffffffffffffffffffffffffffffffffffffffe0601f840116840101905092915050565b60408152600061010084356138c8816135a4565b1515604084015260208501356138dd81613427565b73ffffffffffffffffffffffffffffffffffffffff811660608501525060408501356080840152606085013560a0840152608085013560c084015261392560a0860186613800565b60c060e0860152613939838601828461386b565b915050838103602085015261020061395a82613954886135b2565b15159052565b61396660208701613449565b73ffffffffffffffffffffffffffffffffffffffff16602083015261398d60408701613449565b73ffffffffffffffffffffffffffffffffffffffff8116604084015250606086013560608301526080860135608083015260a086013560a08301526139d460c08701613449565b73ffffffffffffffffffffffffffffffffffffffff1660c08301526139fb60e08701613449565b73ffffffffffffffffffffffffffffffffffffffff1660e0830152828601359282019290925261012080860135908201526101408086013590820152610160808601359082015261018091613a5283870187613800565b8285850152613a64838501828461386b565b94505050506101a0613a778187016136de565b60ff16908201526101c085810135908201526101e094850135940193909352509092915050565b600080600060608486031215613ab357600080fd5b8351613abe816135a4565b602085015160409095015190969495509392505050565b7f4e487b7100000000000000000000000000000000000000000000000000000000600052601160045260246000fd5b8181038181111561055a5761055a613ad5565b7f4e487b7100000000000000000000000000000000000000000000000000000000600052603260045260246000fd5b60007fffffffffffffffffffffffffffffffffffffffffffffffffffffffffffffffff8203613b7757613b77613ad5565b5060010190565b6020815281602082015260007f07ffffffffffffffffffffffffffffffffffffffffffffffffffffffffffffff831115613bb757600080fd5b8260051b80856040850137919091016040019392505050565b8082018082111561055a5761055a613ad5565b8e81528d1515602082015273ffffffffffffffffffffffffffffffffffffffff8d811660408301528c1660608201526101c081018b60808301528a60a08301528960c0830152613c4b60e083018a73ffffffffffffffffffffffffffffffffffffffff169052565b73ffffffffffffffffffffffffffffffffffffffff88166101008301526101208201969096526101408101949094526101608401929092526101808301526101a0909101529998505050505050505050565b600060208284031215613caf57600080fd5b613237826136de565b600060208284031215613cca57600080fd5b8151613237816135a4565b60008060408385031215613ce857600080fd5b8251613cf381613427565b6020939093015192949293505050565b808202811582820484141761055a5761055a613ad5565b600060208284031215613d2c57600080fd5b815161323781613427565b60005b83811015613d52578181015183820152602001613d3a565b50506000910152565b60008151808452613d73816020860160208601613d37565b601f017fffffffffffffffffffffffffffffffffffffffffffffffffffffffffffffffe0169290920160200192915050565b8281526040602082015260006132346040830184613d5b565b600060208284031215613dd057600080fd5b81517fffffffff000000000000000000000000000000000000000000000000000000008116811461323757600080fd5b600060208284031215613e1257600080fd5b5051919050565b600082613e4f577f4e487b7100000000000000000000000000000000000000000000000000000000600052601260045260246000fd5b500490565b60008251613e66818460208701613d37565b9190910192915050565b6020815260006132376020830184613d5b56fea26469706673582212203e3f069888d19a53f22370805c756b9a209e773dd85833c0bde3d962ae95ed3564736f6c63430008110033",
					"opcodes": "PUSH1 0xA0 PUSH1 0x40 MSTORE CALLVALUE DUP1 ISZERO PUSH3 0x11 JUMPI PUSH1 0x0 DUP1 REVERT JUMPDEST POP PUSH1 0x40 MLOAD PUSH3 0x4082 CODESIZE SUB DUP1 PUSH3 0x4082 DUP4 CODECOPY DUP2 ADD PUSH1 0x40 DUP2 SWAP1 MSTORE PUSH3 0x34 SWAP2 PUSH3 0x10C JUMP JUMPDEST PUSH1 0x1 PUSH1 0x0 SSTORE PUSH3 0x44 CALLER PUSH3 0x9D JUMP JUMPDEST PUSH1 0x3 DUP1 SLOAD PUSH1 0x1 PUSH1 0x1 PUSH1 0xA0 SHL SUB SWAP7 DUP8 AND PUSH1 0x1 PUSH1 0x1 PUSH1 0xA0 SHL SUB NOT SWAP2 DUP3 AND OR SWAP1 SWAP2 SSTORE PUSH1 0x4 DUP1 SLOAD SWAP6 DUP8 AND SWAP6 DUP3 AND SWAP6 SWAP1 SWAP6 OR SWAP1 SWAP5 SSTORE PUSH1 0x5 DUP1 SLOAD SWAP4 DUP7 AND SWAP4 DUP6 AND SWAP4 SWAP1 SWAP4 OR SWAP1 SWAP3 SSTORE DUP4 AND PUSH1 0x80 MSTORE PUSH1 0x2 DUP1 SLOAD SWAP2 SWAP1 SWAP4 AND SWAP2 AND OR SWAP1 SSTORE PUSH3 0x17C JUMP JUMPDEST PUSH1 0x1 DUP1 SLOAD PUSH1 0x1 PUSH1 0x1 PUSH1 0xA0 SHL SUB DUP4 DUP2 AND PUSH1 0x1 PUSH1 0x1 PUSH1 0xA0 SHL SUB NOT DUP4 AND DUP2 OR SWAP1 SWAP4 SSTORE PUSH1 0x40 MLOAD SWAP2 AND SWAP2 SWAP1 DUP3 SWAP1 PUSH32 0x8BE0079C531659141344CD1FD0A4F28419497F9722A3DAAFE3B4186F6B6457E0 SWAP1 PUSH1 0x0 SWAP1 LOG3 POP POP JUMP JUMPDEST DUP1 MLOAD PUSH1 0x1 PUSH1 0x1 PUSH1 0xA0 SHL SUB DUP2 AND DUP2 EQ PUSH3 0x107 JUMPI PUSH1 0x0 DUP1 REVERT JUMPDEST SWAP2 SWAP1 POP JUMP JUMPDEST PUSH1 0x0 DUP1 PUSH1 0x0 DUP1 PUSH1 0x0 PUSH1 0xA0 DUP7 DUP9 SUB SLT ISZERO PUSH3 0x125 JUMPI PUSH1 0x0 DUP1 REVERT JUMPDEST PUSH3 0x130 DUP7 PUSH3 0xEF JUMP JUMPDEST SWAP5 POP PUSH3 0x140 PUSH1 0x20 DUP8 ADD PUSH3 0xEF JUMP JUMPDEST SWAP4 POP PUSH3 0x150 PUSH1 0x40 DUP8 ADD PUSH3 0xEF JUMP JUMPDEST SWAP3 POP PUSH3 0x160 PUSH1 0x60 DUP8 ADD PUSH3 0xEF JUMP JUMPDEST SWAP2 POP PUSH3 0x170 PUSH1 0x80 DUP8 ADD PUSH3 0xEF JUMP JUMPDEST SWAP1 POP SWAP3 SWAP6 POP SWAP3 SWAP6 SWAP1 SWAP4 POP JUMP JUMPDEST PUSH1 0x80 MLOAD PUSH2 0x3EB9 PUSH3 0x1C9 PUSH1 0x0 CODECOPY PUSH1 0x0 DUP2 DUP2 PUSH2 0x3EC ADD MSTORE DUP2 DUP2 PUSH2 0xB52 ADD MSTORE DUP2 DUP2 PUSH2 0xCDA ADD MSTORE DUP2 DUP2 PUSH2 0xD76 ADD MSTORE DUP2 DUP2 PUSH2 0x28F4 ADD MSTORE DUP2 DUP2 PUSH2 0x2A17 ADD MSTORE DUP2 DUP2 PUSH2 0x2A9C ADD MSTORE PUSH2 0x2BB2 ADD MSTORE PUSH2 0x3EB9 PUSH1 0x0 RETURN INVALID PUSH1 0x80 PUSH1 0x40 MSTORE PUSH1 0x4 CALLDATASIZE LT PUSH2 0x16A JUMPI PUSH1 0x0 CALLDATALOAD PUSH1 0xE0 SHR DUP1 PUSH4 0x64DF049E GT PUSH2 0xCB JUMPI DUP1 PUSH4 0xAD5C4648 GT PUSH2 0x7F JUMPI DUP1 PUSH4 0xD4FF41DC GT PUSH2 0x59 JUMPI DUP1 PUSH4 0xD4FF41DC EQ PUSH2 0x44E JUMPI DUP1 PUSH4 0xF2FDE38B EQ PUSH2 0x46E JUMPI DUP1 PUSH4 0xF75FF53F EQ PUSH2 0x48E JUMPI PUSH1 0x0 DUP1 REVERT JUMPDEST DUP1 PUSH4 0xAD5C4648 EQ PUSH2 0x3DA JUMPI DUP1 PUSH4 0xC5498769 EQ PUSH2 0x40E JUMPI DUP1 PUSH4 0xCBD2EC65 EQ PUSH2 0x42E JUMPI PUSH1 0x0 DUP1 REVERT JUMPDEST DUP1 PUSH4 0x87E4401F GT PUSH2 0xB0 JUMPI DUP1 PUSH4 0x87E4401F EQ PUSH2 0x362 JUMPI DUP1 PUSH4 0x8DA5CB5B EQ PUSH2 0x38F JUMPI DUP1 PUSH4 0x9E53A69A EQ PUSH2 0x3BA JUMPI PUSH1 0x0 DUP1 REVERT JUMPDEST DUP1 PUSH4 0x64DF049E EQ PUSH2 0x320 JUMPI DUP1 PUSH4 0x715018A6 EQ PUSH2 0x34D JUMPI PUSH1 0x0 DUP1 REVERT JUMPDEST DUP1 PUSH4 0x483ABB9F GT PUSH2 0x122 JUMPI DUP1 PUSH4 0x5CE052D7 GT PUSH2 0x107 JUMPI DUP1 PUSH4 0x5CE052D7 EQ PUSH2 0x2B3 JUMPI DUP1 PUSH4 0x5E14F68E EQ PUSH2 0x2D3 JUMPI DUP1 PUSH4 0x63521DEF EQ PUSH2 0x300 JUMPI PUSH1 0x0 DUP1 REVERT JUMPDEST DUP1 PUSH4 0x483ABB9F EQ PUSH2 0x273 JUMPI DUP1 PUSH4 0x509A1A41 EQ PUSH2 0x2A0 JUMPI PUSH1 0x0 DUP1 REVERT JUMPDEST DUP1 PUSH4 0x31E27E27 GT PUSH2 0x153 JUMPI DUP1 PUSH4 0x31E27E27 EQ PUSH2 0x1E8 JUMPI DUP1 PUSH4 0x4266581E EQ PUSH2 0x218 JUMPI DUP1 PUSH4 0x45EA7231 EQ PUSH2 0x253 JUMPI PUSH1 0x0 DUP1 REVERT JUMPDEST DUP1 PUSH4 0xF747D74 EQ PUSH2 0x16F JUMPI DUP1 PUSH4 0x1DF47F80 EQ PUSH2 0x1C6 JUMPI JUMPDEST PUSH1 0x0 DUP1 REVERT JUMPDEST CALLVALUE DUP1 ISZERO PUSH2 0x17B JUMPI PUSH1 0x0 DUP1 REVERT JUMPDEST POP PUSH1 0x3 SLOAD PUSH2 0x19C SWAP1 PUSH20 0xFFFFFFFFFFFFFFFFFFFFFFFFFFFFFFFFFFFFFFFF AND DUP2 JUMP JUMPDEST PUSH1 0x40 MLOAD PUSH20 0xFFFFFFFFFFFFFFFFFFFFFFFFFFFFFFFFFFFFFFFF SWAP1 SWAP2 AND DUP2 MSTORE PUSH1 0x20 ADD JUMPDEST PUSH1 0x40 MLOAD DUP1 SWAP2 SUB SWAP1 RETURN JUMPDEST CALLVALUE DUP1 ISZERO PUSH2 0x1D2 JUMPI PUSH1 0x0 DUP1 REVERT JUMPDEST POP PUSH2 0x1E6 PUSH2 0x1E1 CALLDATASIZE PUSH1 0x4 PUSH2 0x3459 JUMP JUMPDEST PUSH2 0x4AE JUMP JUMPDEST STOP JUMPDEST CALLVALUE DUP1 ISZERO PUSH2 0x1F4 JUMPI PUSH1 0x0 DUP1 REVERT JUMPDEST POP PUSH2 0x208 PUSH2 0x203 CALLDATASIZE PUSH1 0x4 PUSH2 0x3476 JUMP JUMPDEST PUSH2 0x525 JUMP JUMPDEST PUSH1 0x40 MLOAD SWAP1 ISZERO ISZERO DUP2 MSTORE PUSH1 0x20 ADD PUSH2 0x1BD JUMP JUMPDEST CALLVALUE DUP1 ISZERO PUSH2 0x224 JUMPI PUSH1 0x0 DUP1 REVERT JUMPDEST POP PUSH2 0x245 PUSH2 0x233 CALLDATASIZE PUSH1 0x4 PUSH2 0x3459 JUMP JUMPDEST PUSH1 0x7 PUSH1 0x20 MSTORE PUSH1 0x0 SWAP1 DUP2 MSTORE PUSH1 0x40 SWAP1 KECCAK256 SLOAD DUP2 JUMP JUMPDEST PUSH1 0x40 MLOAD SWAP1 DUP2 MSTORE PUSH1 0x20 ADD PUSH2 0x1BD JUMP JUMPDEST CALLVALUE DUP1 ISZERO PUSH2 0x25F JUMPI PUSH1 0x0 DUP1 REVERT JUMPDEST POP PUSH2 0x1E6 PUSH2 0x26E CALLDATASIZE PUSH1 0x4 PUSH2 0x34A2 JUMP JUMPDEST PUSH2 0x560 JUMP JUMPDEST CALLVALUE DUP1 ISZERO PUSH2 0x27F JUMPI PUSH1 0x0 DUP1 REVERT JUMPDEST POP PUSH1 0x4 SLOAD PUSH2 0x19C SWAP1 PUSH20 0xFFFFFFFFFFFFFFFFFFFFFFFFFFFFFFFFFFFFFFFF AND DUP2 JUMP JUMPDEST PUSH2 0x1E6 PUSH2 0x2AE CALLDATASIZE PUSH1 0x4 PUSH2 0x34A2 JUMP JUMPDEST PUSH2 0xA41 JUMP JUMPDEST CALLVALUE DUP1 ISZERO PUSH2 0x2BF JUMPI PUSH1 0x0 DUP1 REVERT JUMPDEST POP PUSH2 0x1E6 PUSH2 0x2CE CALLDATASIZE PUSH1 0x4 PUSH2 0x3459 JUMP JUMPDEST PUSH2 0xFCB JUMP JUMPDEST CALLVALUE DUP1 ISZERO PUSH2 0x2DF JUMPI PUSH1 0x0 DUP1 REVERT JUMPDEST POP PUSH1 0x6 SLOAD PUSH2 0x19C SWAP1 PUSH20 0xFFFFFFFFFFFFFFFFFFFFFFFFFFFFFFFFFFFFFFFF AND DUP2 JUMP JUMPDEST CALLVALUE DUP1 ISZERO PUSH2 0x30C JUMPI PUSH1 0x0 DUP1 REVERT JUMPDEST POP PUSH2 0x1E6 PUSH2 0x31B CALLDATASIZE PUSH1 0x4 PUSH2 0x34A2 JUMP JUMPDEST PUSH2 0x10BF JUMP JUMPDEST CALLVALUE DUP1 ISZERO PUSH2 0x32C JUMPI PUSH1 0x0 DUP1 REVERT JUMPDEST POP PUSH1 0x2 SLOAD PUSH2 0x19C SWAP1 PUSH20 0xFFFFFFFFFFFFFFFFFFFFFFFFFFFFFFFFFFFFFFFF AND DUP2 JUMP JUMPDEST CALLVALUE DUP1 ISZERO PUSH2 0x359 JUMPI PUSH1 0x0 DUP1 REVERT JUMPDEST POP PUSH2 0x1E6 PUSH2 0x1522 JUMP JUMPDEST CALLVALUE DUP1 ISZERO PUSH2 0x36E JUMPI PUSH1 0x0 DUP1 REVERT JUMPDEST POP PUSH1 0x5 SLOAD PUSH2 0x19C SWAP1 PUSH20 0xFFFFFFFFFFFFFFFFFFFFFFFFFFFFFFFFFFFFFFFF AND DUP2 JUMP JUMPDEST CALLVALUE DUP1 ISZERO PUSH2 0x39B JUMPI PUSH1 0x0 DUP1 REVERT JUMPDEST POP PUSH1 0x1 SLOAD PUSH20 0xFFFFFFFFFFFFFFFFFFFFFFFFFFFFFFFFFFFFFFFF AND PUSH2 0x19C JUMP JUMPDEST CALLVALUE DUP1 ISZERO PUSH2 0x3C6 JUMPI PUSH1 0x0 DUP1 REVERT JUMPDEST POP PUSH2 0x1E6 PUSH2 0x3D5 CALLDATASIZE PUSH1 0x4 PUSH2 0x3516 JUMP JUMPDEST PUSH2 0x1536 JUMP JUMPDEST CALLVALUE DUP1 ISZERO PUSH2 0x3E6 JUMPI PUSH1 0x0 DUP1 REVERT JUMPDEST POP PUSH2 0x19C PUSH32 0x0 DUP2 JUMP JUMPDEST CALLVALUE DUP1 ISZERO PUSH2 0x41A JUMPI PUSH1 0x0 DUP1 REVERT JUMPDEST POP PUSH2 0x1E6 PUSH2 0x429 CALLDATASIZE PUSH1 0x4 PUSH2 0x3459 JUMP JUMPDEST PUSH2 0x1717 JUMP JUMPDEST CALLVALUE DUP1 ISZERO PUSH2 0x43A JUMPI PUSH1 0x0 DUP1 REVERT JUMPDEST POP PUSH2 0x1E6 PUSH2 0x449 CALLDATASIZE PUSH1 0x4 PUSH2 0x358B JUMP JUMPDEST PUSH2 0x180B JUMP JUMPDEST CALLVALUE DUP1 ISZERO PUSH2 0x45A JUMPI PUSH1 0x0 DUP1 REVERT JUMPDEST POP PUSH2 0x1E6 PUSH2 0x469 CALLDATASIZE PUSH1 0x4 PUSH2 0x3459 JUMP JUMPDEST PUSH2 0x197D JUMP JUMPDEST CALLVALUE DUP1 ISZERO PUSH2 0x47A JUMPI PUSH1 0x0 DUP1 REVERT JUMPDEST POP PUSH2 0x1E6 PUSH2 0x489 CALLDATASIZE PUSH1 0x4 PUSH2 0x3459 JUMP JUMPDEST PUSH2 0x1A71 JUMP JUMPDEST CALLVALUE DUP1 ISZERO PUSH2 0x49A JUMPI PUSH1 0x0 DUP1 REVERT JUMPDEST POP PUSH2 0x1E6 PUSH2 0x4A9 CALLDATASIZE PUSH1 0x4 PUSH2 0x3459 JUMP JUMPDEST PUSH2 0x1B28 JUMP JUMPDEST PUSH2 0x4B6 PUSH2 0x1C1C JUMP JUMPDEST PUSH1 0x2 DUP1 SLOAD PUSH32 0xFFFFFFFFFFFFFFFFFFFFFFFF0000000000000000000000000000000000000000 AND PUSH20 0xFFFFFFFFFFFFFFFFFFFFFFFFFFFFFFFFFFFFFFFF DUP4 AND SWAP1 DUP2 OR SWAP1 SWAP2 SSTORE PUSH1 0x40 MLOAD PUSH32 0x8CFFB07FAA2874440346743BDC0A86B06C3335CC47DC49B327D10E77B73CEB10 SWAP1 PUSH1 0x0 SWAP1 LOG2 POP JUMP JUMPDEST PUSH20 0xFFFFFFFFFFFFFFFFFFFFFFFFFFFFFFFFFFFFFFFF DUP3 AND PUSH1 0x0 SWAP1 DUP2 MSTORE PUSH1 0x8 PUSH1 0x20 SWAP1 DUP2 MSTORE PUSH1 0x40 DUP1 DUP4 KECCAK256 DUP5 DUP5 MSTORE SWAP1 SWAP2 MSTORE SWAP1 KECCAK256 SLOAD PUSH1 0xFF AND JUMPDEST SWAP3 SWAP2 POP POP JUMP JUMPDEST PUSH1 0x2 PUSH1 0x0 SLOAD SUB PUSH2 0x5D1 JUMPI PUSH1 0x40 MLOAD PUSH32 0x8C379A000000000000000000000000000000000000000000000000000000000 DUP2 MSTORE PUSH1 0x20 PUSH1 0x4 DUP3 ADD MSTORE PUSH1 0x1F PUSH1 0x24 DUP3 ADD MSTORE PUSH32 0x5265656E7472616E637947756172643A207265656E7472616E742063616C6C00 PUSH1 0x44 DUP3 ADD MSTORE PUSH1 0x64 ADD JUMPDEST PUSH1 0x40 MLOAD DUP1 SWAP2 SUB SWAP1 REVERT JUMPDEST PUSH1 0x2 PUSH1 0x0 SSTORE PUSH2 0x5E3 PUSH1 0x20 DUP3 ADD DUP3 PUSH2 0x35BD JUMP JUMPDEST DUP1 ISZERO PUSH2 0x5F9 JUMPI POP PUSH2 0x5F7 PUSH1 0x20 DUP4 ADD DUP4 PUSH2 0x35BD JUMP JUMPDEST ISZERO JUMPDEST PUSH2 0x65F JUMPI PUSH1 0x40 MLOAD PUSH32 0x8C379A000000000000000000000000000000000000000000000000000000000 DUP2 MSTORE PUSH1 0x20 PUSH1 0x4 DUP3 ADD MSTORE PUSH1 0x16 PUSH1 0x24 DUP3 ADD MSTORE PUSH32 0x4572726F722041626F7574204F72646572205369646500000000000000000000 PUSH1 0x44 DUP3 ADD MSTORE PUSH1 0x64 ADD PUSH2 0x5C8 JUMP JUMPDEST PUSH2 0x66F PUSH1 0x40 DUP4 ADD PUSH1 0x20 DUP5 ADD PUSH2 0x3459 JUMP JUMPDEST PUSH20 0xFFFFFFFFFFFFFFFFFFFFFFFFFFFFFFFFFFFFFFFF AND CALLER PUSH20 0xFFFFFFFFFFFFFFFFFFFFFFFFFFFFFFFFFFFFFFFF AND EQ PUSH2 0x703 JUMPI PUSH1 0x40 MLOAD PUSH32 0x8C379A000000000000000000000000000000000000000000000000000000000 DUP2 MSTORE PUSH1 0x20 PUSH1 0x4 DUP3 ADD MSTORE PUSH1 0x18 PUSH1 0x24 DUP3 ADD MSTORE PUSH32 0x4F72646572206D757374206265207468652073656E6465720000000000000000 PUSH1 0x44 DUP3 ADD MSTORE PUSH1 0x64 ADD PUSH2 0x5C8 JUMP JUMPDEST PUSH1 0x0 PUSH2 0x716 PUSH2 0x711 DUP4 PUSH2 0x36EF JUMP JUMPDEST PUSH2 0x1C9D JUMP JUMPDEST SWAP1 POP PUSH2 0x722 DUP3 DUP3 PUSH2 0x1D44 JUMP JUMPDEST PUSH1 0x0 DUP1 DUP1 PUSH2 0x736 PUSH1 0xE0 DUP7 ADD PUSH1 0xC0 DUP8 ADD PUSH2 0x3459 JUMP JUMPDEST PUSH20 0xFFFFFFFFFFFFFFFFFFFFFFFFFFFFFFFFFFFFFFFF AND PUSH4 0xD310677D DUP8 DUP8 PUSH1 0x40 MLOAD DUP4 PUSH4 0xFFFFFFFF AND PUSH1 0xE0 SHL DUP2 MSTORE PUSH1 0x4 ADD PUSH2 0x770 SWAP3 SWAP2 SWAP1 PUSH2 0x38B4 JUMP JUMPDEST PUSH1 0x60 PUSH1 0x40 MLOAD DUP1 DUP4 SUB DUP2 DUP7 GAS STATICCALL ISZERO DUP1 ISZERO PUSH2 0x78D JUMPI RETURNDATASIZE PUSH1 0x0 DUP1 RETURNDATACOPY RETURNDATASIZE PUSH1 0x0 REVERT JUMPDEST POP POP POP POP PUSH1 0x40 MLOAD RETURNDATASIZE PUSH1 0x1F NOT PUSH1 0x1F DUP3 ADD AND DUP3 ADD DUP1 PUSH1 0x40 MSTORE POP DUP2 ADD SWAP1 PUSH2 0x7B1 SWAP2 SWAP1 PUSH2 0x3A9E JUMP JUMPDEST SWAP3 POP SWAP3 POP SWAP3 POP DUP3 PUSH2 0x81E JUMPI PUSH1 0x40 MLOAD PUSH32 0x8C379A000000000000000000000000000000000000000000000000000000000 DUP2 MSTORE PUSH1 0x20 PUSH1 0x4 DUP3 ADD MSTORE PUSH1 0x18 PUSH1 0x24 DUP3 ADD MSTORE PUSH32 0x53747261746567792073686F756C642062652076616C69640000000000000000 PUSH1 0x44 DUP3 ADD MSTORE PUSH1 0x64 ADD PUSH2 0x5C8 JUMP JUMPDEST PUSH1 0x1 PUSH1 0x8 PUSH1 0x0 PUSH2 0x834 PUSH1 0x40 DUP10 ADD PUSH1 0x20 DUP11 ADD PUSH2 0x3459 JUMP JUMPDEST PUSH20 0xFFFFFFFFFFFFFFFFFFFFFFFFFFFFFFFFFFFFFFFF AND DUP2 MSTORE PUSH1 0x20 DUP1 DUP3 ADD SWAP3 SWAP1 SWAP3 MSTORE PUSH1 0x40 SWAP1 DUP2 ADD PUSH1 0x0 SWAP1 DUP2 KECCAK256 PUSH2 0x100 DUP11 ADD CALLDATALOAD DUP3 MSTORE SWAP1 SWAP3 MSTORE SWAP1 KECCAK256 DUP1 SLOAD PUSH32 0xFFFFFFFFFFFFFFFFFFFFFFFFFFFFFFFFFFFFFFFFFFFFFFFFFFFFFFFFFFFFFF00 AND SWAP2 ISZERO ISZERO SWAP2 SWAP1 SWAP2 OR SWAP1 SSTORE PUSH2 0x8EF PUSH2 0x8AC PUSH1 0xE0 DUP8 ADD PUSH1 0xC0 DUP9 ADD PUSH2 0x3459 JUMP JUMPDEST PUSH2 0x8BC PUSH1 0x60 DUP9 ADD PUSH1 0x40 DUP10 ADD PUSH2 0x3459 JUMP JUMPDEST DUP5 PUSH2 0x8CE PUSH2 0x100 DUP11 ADD PUSH1 0xE0 DUP12 ADD PUSH2 0x3459 JUMP JUMPDEST CALLER PUSH2 0x8DF PUSH1 0x40 DUP13 ADD PUSH1 0x20 DUP14 ADD PUSH2 0x3459 JUMP JUMPDEST DUP13 PUSH1 0x40 ADD CALLDATALOAD DUP13 PUSH2 0x160 ADD CALLDATALOAD PUSH2 0x232E JUMP JUMPDEST PUSH2 0x929 PUSH2 0x902 PUSH1 0x60 DUP8 ADD PUSH1 0x40 DUP9 ADD PUSH2 0x3459 JUMP JUMPDEST PUSH2 0x912 PUSH1 0x40 DUP9 ADD PUSH1 0x20 DUP10 ADD PUSH2 0x3459 JUMP JUMPDEST PUSH2 0x922 PUSH1 0x40 DUP11 ADD PUSH1 0x20 DUP12 ADD PUSH2 0x3459 JUMP JUMPDEST DUP6 DUP6 PUSH2 0x25FE JUMP JUMPDEST PUSH2 0x939 PUSH1 0xE0 DUP7 ADD PUSH1 0xC0 DUP8 ADD PUSH2 0x3459 JUMP JUMPDEST PUSH20 0xFFFFFFFFFFFFFFFFFFFFFFFFFFFFFFFFFFFFFFFF AND PUSH2 0x95F PUSH1 0x40 DUP8 ADD PUSH1 0x20 DUP9 ADD PUSH2 0x3459 JUMP JUMPDEST PUSH20 0xFFFFFFFFFFFFFFFFFFFFFFFFFFFFFFFFFFFFFFFF AND PUSH2 0x985 PUSH1 0x40 DUP10 ADD PUSH1 0x20 DUP11 ADD PUSH2 0x3459 JUMP JUMPDEST PUSH20 0xFFFFFFFFFFFFFFFFFFFFFFFFFFFFFFFFFFFFFFFF AND PUSH32 0x95FB6205E23FF6BDA16A2D1DBA56B9AD7C783F67C96FA149785052F47696F2BE DUP8 PUSH2 0x100 DUP11 ADD DUP1 CALLDATALOAD SWAP1 PUSH2 0x9D2 SWAP1 PUSH1 0xE0 DUP14 ADD PUSH2 0x3459 JUMP JUMPDEST PUSH2 0x9E2 PUSH1 0x60 DUP14 ADD PUSH1 0x40 DUP15 ADD PUSH2 0x3459 JUMP JUMPDEST PUSH1 0x40 DUP1 MLOAD SWAP5 DUP6 MSTORE PUSH1 0x20 DUP6 ADD SWAP4 SWAP1 SWAP4 MSTORE PUSH20 0xFFFFFFFFFFFFFFFFFFFFFFFFFFFFFFFFFFFFFFFF SWAP2 DUP3 AND DUP5 DUP5 ADD MSTORE AND PUSH1 0x60 DUP4 ADD MSTORE PUSH1 0x80 DUP3 ADD DUP9 SWAP1 MSTORE PUSH1 0xA0 DUP3 ADD DUP8 SWAP1 MSTORE DUP12 ADD CALLDATALOAD PUSH1 0xC0 DUP3 ADD MSTORE PUSH1 0xE0 ADD PUSH1 0x40 MLOAD DUP1 SWAP2 SUB SWAP1 LOG4 POP POP PUSH1 0x1 PUSH1 0x0 SSTORE POP POP POP POP JUMP JUMPDEST PUSH1 0x2 PUSH1 0x0 SLOAD SUB PUSH2 0xAAD JUMPI PUSH1 0x40 MLOAD PUSH32 0x8C379A000000000000000000000000000000000000000000000000000000000 DUP2 MSTORE PUSH1 0x20 PUSH1 0x4 DUP3 ADD MSTORE PUSH1 0x1F PUSH1 0x24 DUP3 ADD MSTORE PUSH32 0x5265656E7472616E637947756172643A207265656E7472616E742063616C6C00 PUSH1 0x44 DUP3 ADD MSTORE PUSH1 0x64 ADD PUSH2 0x5C8 JUMP JUMPDEST PUSH1 0x2 PUSH1 0x0 SSTORE PUSH2 0xABF PUSH1 0x20 DUP3 ADD DUP3 PUSH2 0x35BD JUMP JUMPDEST DUP1 ISZERO PUSH2 0xAD5 JUMPI POP PUSH2 0xAD3 PUSH1 0x20 DUP4 ADD DUP4 PUSH2 0x35BD JUMP JUMPDEST ISZERO JUMPDEST PUSH2 0xB3B JUMPI PUSH1 0x40 MLOAD PUSH32 0x8C379A000000000000000000000000000000000000000000000000000000000 DUP2 MSTORE PUSH1 0x20 PUSH1 0x4 DUP3 ADD MSTORE PUSH1 0x16 PUSH1 0x24 DUP3 ADD MSTORE PUSH32 0x4572726F722041626F7574204F72646572205369646500000000000000000000 PUSH1 0x44 DUP3 ADD MSTORE PUSH1 0x64 ADD PUSH2 0x5C8 JUMP JUMPDEST PUSH20 0xFFFFFFFFFFFFFFFFFFFFFFFFFFFFFFFFFFFFFFFF PUSH32 0x0 AND PUSH2 0xB83 PUSH2 0x100 DUP4 ADD PUSH1 0xE0 DUP5 ADD PUSH2 0x3459 JUMP JUMPDEST PUSH20 0xFFFFFFFFFFFFFFFFFFFFFFFFFFFFFFFFFFFFFFFF AND EQ PUSH2 0xC00 JUMPI PUSH1 0x40 MLOAD PUSH32 0x8C379A000000000000000000000000000000000000000000000000000000000 DUP2 MSTORE PUSH1 0x20 PUSH1 0x4 DUP3 ADD MSTORE PUSH1 0x15 PUSH1 0x24 DUP3 ADD MSTORE PUSH32 0x43757272656E6379206D75737420626520574554480000000000000000000000 PUSH1 0x44 DUP3 ADD MSTORE PUSH1 0x64 ADD PUSH2 0x5C8 JUMP JUMPDEST PUSH2 0xC10 PUSH1 0x40 DUP4 ADD PUSH1 0x20 DUP5 ADD PUSH2 0x3459 JUMP JUMPDEST PUSH20 0xFFFFFFFFFFFFFFFFFFFFFFFFFFFFFFFFFFFFFFFF AND CALLER PUSH20 0xFFFFFFFFFFFFFFFFFFFFFFFFFFFFFFFFFFFFFFFF AND EQ PUSH2 0xCA4 JUMPI PUSH1 0x40 MLOAD PUSH32 0x8C379A000000000000000000000000000000000000000000000000000000000 DUP2 MSTORE PUSH1 0x20 PUSH1 0x4 DUP3 ADD MSTORE PUSH1 0x18 PUSH1 0x24 DUP3 ADD MSTORE PUSH32 0x4F72646572206D757374206265207468652073656E6465720000000000000000 PUSH1 0x44 DUP3 ADD MSTORE PUSH1 0x64 ADD PUSH2 0x5C8 JUMP JUMPDEST CALLVALUE DUP3 PUSH1 0x40 ADD CALLDATALOAD GT ISZERO PUSH2 0xD07 JUMPI PUSH2 0xD02 CALLER ADDRESS PUSH2 0xCC3 CALLVALUE PUSH1 0x40 DUP8 ADD CALLDATALOAD PUSH2 0x3B04 JUMP JUMPDEST PUSH20 0xFFFFFFFFFFFFFFFFFFFFFFFFFFFFFFFFFFFFFFFF PUSH32 0x0 AND SWAP3 SWAP2 SWAP1 PUSH2 0x27B9 JUMP JUMPDEST PUSH2 0xD74 JUMP JUMPDEST CALLVALUE DUP3 PUSH1 0x40 ADD CALLDATALOAD EQ PUSH2 0xD74 JUMPI PUSH1 0x40 MLOAD PUSH32 0x8C379A000000000000000000000000000000000000000000000000000000000 DUP2 MSTORE PUSH1 0x20 PUSH1 0x4 DUP3 ADD MSTORE PUSH1 0x15 PUSH1 0x24 DUP3 ADD MSTORE PUSH32 0x4D73672E76616C756520697320746F6F20686967680000000000000000000000 PUSH1 0x44 DUP3 ADD MSTORE PUSH1 0x64 ADD PUSH2 0x5C8 JUMP JUMPDEST PUSH32 0x0 PUSH20 0xFFFFFFFFFFFFFFFFFFFFFFFFFFFFFFFFFFFFFFFF AND PUSH4 0xD0E30DB0 CALLVALUE PUSH1 0x40 MLOAD DUP3 PUSH4 0xFFFFFFFF AND PUSH1 0xE0 SHL DUP2 MSTORE PUSH1 0x4 ADD PUSH1 0x0 PUSH1 0x40 MLOAD DUP1 DUP4 SUB DUP2 DUP6 DUP9 DUP1 EXTCODESIZE ISZERO DUP1 ISZERO PUSH2 0xDDC JUMPI PUSH1 0x0 DUP1 REVERT JUMPDEST POP GAS CALL ISZERO DUP1 ISZERO PUSH2 0xDF0 JUMPI RETURNDATASIZE PUSH1 0x0 DUP1 RETURNDATACOPY RETURNDATASIZE PUSH1 0x0 REVERT JUMPDEST POP POP POP POP POP PUSH1 0x0 PUSH2 0xE04 DUP3 PUSH2 0x711 SWAP1 PUSH2 0x36EF JUMP JUMPDEST SWAP1 POP PUSH2 0xE10 DUP3 DUP3 PUSH2 0x1D44 JUMP JUMPDEST PUSH1 0x0 DUP1 DUP1 PUSH2 0xE24 PUSH1 0xE0 DUP7 ADD PUSH1 0xC0 DUP8 ADD PUSH2 0x3459 JUMP JUMPDEST PUSH20 0xFFFFFFFFFFFFFFFFFFFFFFFFFFFFFFFFFFFFFFFF AND PUSH4 0xD310677D DUP8 DUP8 PUSH1 0x40 MLOAD DUP4 PUSH4 0xFFFFFFFF AND PUSH1 0xE0 SHL DUP2 MSTORE PUSH1 0x4 ADD PUSH2 0xE5E SWAP3 SWAP2 SWAP1 PUSH2 0x38B4 JUMP JUMPDEST PUSH1 0x60 PUSH1 0x40 MLOAD DUP1 DUP4 SUB DUP2 DUP7 GAS STATICCALL ISZERO DUP1 ISZERO PUSH2 0xE7B JUMPI RETURNDATASIZE PUSH1 0x0 DUP1 RETURNDATACOPY RETURNDATASIZE PUSH1 0x0 REVERT JUMPDEST POP POP POP POP PUSH1 0x40 MLOAD RETURNDATASIZE PUSH1 0x1F NOT PUSH1 0x1F DUP3 ADD AND DUP3 ADD DUP1 PUSH1 0x40 MSTORE POP DUP2 ADD SWAP1 PUSH2 0xE9F SWAP2 SWAP1 PUSH2 0x3A9E JUMP JUMPDEST SWAP3 POP SWAP3 POP SWAP3 POP DUP3 PUSH2 0xF0C JUMPI PUSH1 0x40 MLOAD PUSH32 0x8C379A000000000000000000000000000000000000000000000000000000000 DUP2 MSTORE PUSH1 0x20 PUSH1 0x4 DUP3 ADD MSTORE PUSH1 0x18 PUSH1 0x24 DUP3 ADD MSTORE PUSH32 0x53747261746567792073686F756C642062652076616C69640000000000000000 PUSH1 0x44 DUP3 ADD MSTORE PUSH1 0x64 ADD PUSH2 0x5C8 JUMP JUMPDEST PUSH1 0x1 PUSH1 0x8 PUSH1 0x0 PUSH2 0xF22 PUSH1 0x40 DUP10 ADD PUSH1 0x20 DUP11 ADD PUSH2 0x3459 JUMP JUMPDEST PUSH20 0xFFFFFFFFFFFFFFFFFFFFFFFFFFFFFFFFFFFFFFFF AND DUP2 MSTORE PUSH1 0x20 DUP1 DUP3 ADD SWAP3 SWAP1 SWAP3 MSTORE PUSH1 0x40 SWAP1 DUP2 ADD PUSH1 0x0 SWAP1 DUP2 KECCAK256 PUSH2 0x100 DUP11 ADD CALLDATALOAD DUP3 MSTORE SWAP1 SWAP3 MSTORE SWAP1 KECCAK256 DUP1 SLOAD PUSH32 0xFFFFFFFFFFFFFFFFFFFFFFFFFFFFFFFFFFFFFFFFFFFFFFFFFFFFFFFFFFFFFF00 AND SWAP2 ISZERO ISZERO SWAP2 SWAP1 SWAP2 OR SWAP1 SSTORE PUSH2 0x8EF PUSH2 0xF9A PUSH1 0xE0 DUP8 ADD PUSH1 0xC0 DUP9 ADD PUSH2 0x3459 JUMP JUMPDEST PUSH2 0xFAA PUSH1 0x60 DUP9 ADD PUSH1 0x40 DUP10 ADD PUSH2 0x3459 JUMP JUMPDEST DUP5 PUSH2 0xFBB PUSH1 0x40 DUP11 ADD PUSH1 0x20 DUP12 ADD PUSH2 0x3459 JUMP JUMPDEST DUP11 PUSH1 0x40 ADD CALLDATALOAD DUP11 PUSH2 0x160 ADD CALLDATALOAD PUSH2 0x289B JUMP JUMPDEST PUSH2 0xFD3 PUSH2 0x1C1C JUMP JUMPDEST PUSH20 0xFFFFFFFFFFFFFFFFFFFFFFFFFFFFFFFFFFFFFFFF DUP2 AND PUSH2 0x1050 JUMPI PUSH1 0x40 MLOAD PUSH32 0x8C379A000000000000000000000000000000000000000000000000000000000 DUP2 MSTORE PUSH1 0x20 PUSH1 0x4 DUP3 ADD MSTORE PUSH1 0x1F PUSH1 0x24 DUP3 ADD MSTORE PUSH32 0x43616E6E6F742075706461746520746F2061206E756C6C206164647265737300 PUSH1 0x44 DUP3 ADD MSTORE PUSH1 0x64 ADD PUSH2 0x5C8 JUMP JUMPDEST PUSH1 0x3 DUP1 SLOAD PUSH32 0xFFFFFFFFFFFFFFFFFFFFFFFF0000000000000000000000000000000000000000 AND PUSH20 0xFFFFFFFFFFFFFFFFFFFFFFFFFFFFFFFFFFFFFFFF DUP4 AND SWAP1 DUP2 OR SWAP1 SWAP2 SSTORE PUSH1 0x40 MLOAD PUSH32 0xB4F5DB40DF3ACED29E88A4BABBC3B46E305E07D34098525D18B1497056E63838 SWAP1 PUSH1 0x0 SWAP1 LOG2 POP JUMP JUMPDEST PUSH1 0x2 PUSH1 0x0 SLOAD SUB PUSH2 0x112B JUMPI PUSH1 0x40 MLOAD PUSH32 0x8C379A000000000000000000000000000000000000000000000000000000000 DUP2 MSTORE PUSH1 0x20 PUSH1 0x4 DUP3 ADD MSTORE PUSH1 0x1F PUSH1 0x24 DUP3 ADD MSTORE PUSH32 0x5265656E7472616E637947756172643A207265656E7472616E742063616C6C00 PUSH1 0x44 DUP3 ADD MSTORE PUSH1 0x64 ADD PUSH2 0x5C8 JUMP JUMPDEST PUSH1 0x2 PUSH1 0x0 SSTORE PUSH2 0x113D PUSH1 0x20 DUP3 ADD DUP3 PUSH2 0x35BD JUMP JUMPDEST ISZERO DUP1 ISZERO PUSH2 0x1152 JUMPI POP PUSH2 0x1152 PUSH1 0x20 DUP4 ADD DUP4 PUSH2 0x35BD JUMP JUMPDEST PUSH2 0x11B8 JUMPI PUSH1 0x40 MLOAD PUSH32 0x8C379A000000000000000000000000000000000000000000000000000000000 DUP2 MSTORE PUSH1 0x20 PUSH1 0x4 DUP3 ADD MSTORE PUSH1 0x16 PUSH1 0x24 DUP3 ADD MSTORE PUSH32 0x4572726F722041626F7574204F72646572205369646500000000000000000000 PUSH1 0x44 DUP3 ADD MSTORE PUSH1 0x64 ADD PUSH2 0x5C8 JUMP JUMPDEST PUSH2 0x11C8 PUSH1 0x40 DUP4 ADD PUSH1 0x20 DUP5 ADD PUSH2 0x3459 JUMP JUMPDEST PUSH20 0xFFFFFFFFFFFFFFFFFFFFFFFFFFFFFFFFFFFFFFFF AND CALLER PUSH20 0xFFFFFFFFFFFFFFFFFFFFFFFFFFFFFFFFFFFFFFFF AND EQ PUSH2 0x125C JUMPI PUSH1 0x40 MLOAD PUSH32 0x8C379A000000000000000000000000000000000000000000000000000000000 DUP2 MSTORE PUSH1 0x20 PUSH1 0x4 DUP3 ADD MSTORE PUSH1 0x18 PUSH1 0x24 DUP3 ADD MSTORE PUSH32 0x4F72646572206D757374206265207468652073656E6465720000000000000000 PUSH1 0x44 DUP3 ADD MSTORE PUSH1 0x64 ADD PUSH2 0x5C8 JUMP JUMPDEST PUSH1 0x0 PUSH2 0x126A PUSH2 0x711 DUP4 PUSH2 0x36EF JUMP JUMPDEST SWAP1 POP PUSH2 0x1276 DUP3 DUP3 PUSH2 0x1D44 JUMP JUMPDEST PUSH1 0x0 DUP1 DUP1 PUSH2 0x128A PUSH1 0xE0 DUP7 ADD PUSH1 0xC0 DUP8 ADD PUSH2 0x3459 JUMP JUMPDEST PUSH20 0xFFFFFFFFFFFFFFFFFFFFFFFFFFFFFFFFFFFFFFFF AND PUSH4 0x2A75FFEE DUP8 DUP8 PUSH1 0x40 MLOAD DUP4 PUSH4 0xFFFFFFFF AND PUSH1 0xE0 SHL DUP2 MSTORE PUSH1 0x4 ADD PUSH2 0x12C4 SWAP3 SWAP2 SWAP1 PUSH2 0x38B4 JUMP JUMPDEST PUSH1 0x60 PUSH1 0x40 MLOAD DUP1 DUP4 SUB DUP2 DUP7 GAS STATICCALL ISZERO DUP1 ISZERO PUSH2 0x12E1 JUMPI RETURNDATASIZE PUSH1 0x0 DUP1 RETURNDATACOPY RETURNDATASIZE PUSH1 0x0 REVERT JUMPDEST POP POP POP POP PUSH1 0x40 MLOAD RETURNDATASIZE PUSH1 0x1F NOT PUSH1 0x1F DUP3 ADD AND DUP3 ADD DUP1 PUSH1 0x40 MSTORE POP DUP2 ADD SWAP1 PUSH2 0x1305 SWAP2 SWAP1 PUSH2 0x3A9E JUMP JUMPDEST SWAP3 POP SWAP3 POP SWAP3 POP DUP3 PUSH2 0x1372 JUMPI PUSH1 0x40 MLOAD PUSH32 0x8C379A000000000000000000000000000000000000000000000000000000000 DUP2 MSTORE PUSH1 0x20 PUSH1 0x4 DUP3 ADD MSTORE PUSH1 0x18 PUSH1 0x24 DUP3 ADD MSTORE PUSH32 0x53747261746567792073686F756C642062652076616C69640000000000000000 PUSH1 0x44 DUP3 ADD MSTORE PUSH1 0x64 ADD PUSH2 0x5C8 JUMP JUMPDEST PUSH1 0x1 PUSH1 0x8 PUSH1 0x0 PUSH2 0x1388 PUSH1 0x40 DUP10 ADD PUSH1 0x20 DUP11 ADD PUSH2 0x3459 JUMP JUMPDEST PUSH20 0xFFFFFFFFFFFFFFFFFFFFFFFFFFFFFFFFFFFFFFFF AND DUP2 MSTORE PUSH1 0x20 DUP1 DUP3 ADD SWAP3 SWAP1 SWAP3 MSTORE PUSH1 0x40 SWAP1 DUP2 ADD PUSH1 0x0 SWAP1 DUP2 KECCAK256 PUSH2 0x100 DUP11 ADD CALLDATALOAD DUP3 MSTORE SWAP1 SWAP3 MSTORE SWAP1 DUP2 SWAP1 KECCAK256 DUP1 SLOAD PUSH32 0xFFFFFFFFFFFFFFFFFFFFFFFFFFFFFFFFFFFFFFFFFFFFFFFFFFFFFFFFFFFFFF00 AND SWAP3 ISZERO ISZERO SWAP3 SWAP1 SWAP3 OR SWAP1 SWAP2 SSTORE PUSH2 0x1415 SWAP1 PUSH2 0x1404 SWAP1 PUSH1 0x60 DUP9 ADD SWAP1 DUP9 ADD PUSH2 0x3459 JUMP JUMPDEST CALLER PUSH2 0x922 PUSH1 0x40 DUP10 ADD PUSH1 0x20 DUP11 ADD PUSH2 0x3459 JUMP JUMPDEST PUSH2 0x1479 PUSH2 0x1428 PUSH1 0xE0 DUP8 ADD PUSH1 0xC0 DUP9 ADD PUSH2 0x3459 JUMP JUMPDEST PUSH2 0x1438 PUSH1 0x60 DUP9 ADD PUSH1 0x40 DUP10 ADD PUSH2 0x3459 JUMP JUMPDEST DUP5 PUSH2 0x144A PUSH2 0x100 DUP11 ADD PUSH1 0xE0 DUP12 ADD PUSH2 0x3459 JUMP JUMPDEST PUSH2 0x145A PUSH1 0x40 DUP12 ADD PUSH1 0x20 DUP13 ADD PUSH2 0x3459 JUMP JUMPDEST PUSH2 0x146A PUSH1 0x40 DUP14 ADD PUSH1 0x20 DUP15 ADD PUSH2 0x3459 JUMP JUMPDEST DUP13 PUSH1 0x40 ADD CALLDATALOAD DUP14 PUSH1 0x80 ADD CALLDATALOAD PUSH2 0x232E JUMP JUMPDEST PUSH2 0x1489 PUSH1 0xE0 DUP7 ADD PUSH1 0xC0 DUP8 ADD PUSH2 0x3459 JUMP JUMPDEST PUSH20 0xFFFFFFFFFFFFFFFFFFFFFFFFFFFFFFFFFFFFFFFF AND PUSH2 0x14AF PUSH1 0x40 DUP8 ADD PUSH1 0x20 DUP9 ADD PUSH2 0x3459 JUMP JUMPDEST PUSH20 0xFFFFFFFFFFFFFFFFFFFFFFFFFFFFFFFFFFFFFFFF AND PUSH2 0x14D5 PUSH1 0x40 DUP10 ADD PUSH1 0x20 DUP11 ADD PUSH2 0x3459 JUMP JUMPDEST PUSH20 0xFFFFFFFFFFFFFFFFFFFFFFFFFFFFFFFFFFFFFFFF AND PUSH32 0x68CD251D4D267C6E2034FF0088B990352B97B2002C0476587D0C4DA889C11330 DUP8 PUSH2 0x100 DUP11 ADD DUP1 CALLDATALOAD SWAP1 PUSH2 0x9D2 SWAP1 PUSH1 0xE0 DUP14 ADD PUSH2 0x3459 JUMP JUMPDEST PUSH2 0x152A PUSH2 0x1C1C JUMP JUMPDEST PUSH2 0x1534 PUSH1 0x0 PUSH2 0x2BD9 JUMP JUMPDEST JUMP JUMPDEST DUP1 PUSH2 0x159D JUMPI PUSH1 0x40 MLOAD PUSH32 0x8C379A000000000000000000000000000000000000000000000000000000000 DUP2 MSTORE PUSH1 0x20 PUSH1 0x4 DUP3 ADD MSTORE PUSH1 0x1B PUSH1 0x24 DUP3 ADD MSTORE PUSH32 0x43616E6E6F7420626520656D7074792043616E63656C206C6973740000000000 PUSH1 0x44 DUP3 ADD MSTORE PUSH1 0x64 ADD PUSH2 0x5C8 JUMP JUMPDEST PUSH1 0x0 JUMPDEST DUP2 DUP2 LT ISZERO PUSH2 0x16C2 JUMPI CALLER PUSH1 0x0 SWAP1 DUP2 MSTORE PUSH1 0x7 PUSH1 0x20 MSTORE PUSH1 0x40 SWAP1 KECCAK256 SLOAD DUP4 DUP4 DUP4 DUP2 DUP2 LT PUSH2 0x15CA JUMPI PUSH2 0x15CA PUSH2 0x3B17 JUMP JUMPDEST SWAP1 POP PUSH1 0x20 MUL ADD CALLDATALOAD LT ISZERO PUSH2 0x165F JUMPI PUSH1 0x40 MLOAD PUSH32 0x8C379A000000000000000000000000000000000000000000000000000000000 DUP2 MSTORE PUSH1 0x20 PUSH1 0x4 DUP3 ADD MSTORE PUSH1 0x2C PUSH1 0x24 DUP3 ADD MSTORE PUSH32 0x43616E63656C204F72646572206E6F6E63652063616E6E6F74206C6F77657220 PUSH1 0x44 DUP3 ADD MSTORE PUSH32 0x7468616E2063757272656E740000000000000000000000000000000000000000 PUSH1 0x64 DUP3 ADD MSTORE PUSH1 0x84 ADD PUSH2 0x5C8 JUMP JUMPDEST CALLER PUSH1 0x0 SWAP1 DUP2 MSTORE PUSH1 0x8 PUSH1 0x20 MSTORE PUSH1 0x40 DUP2 KECCAK256 PUSH1 0x1 SWAP2 DUP6 DUP6 DUP6 DUP2 DUP2 LT PUSH2 0x1683 JUMPI PUSH2 0x1683 PUSH2 0x3B17 JUMP JUMPDEST SWAP1 POP PUSH1 0x20 MUL ADD CALLDATALOAD DUP2 MSTORE PUSH1 0x20 ADD SWAP1 DUP2 MSTORE PUSH1 0x20 ADD PUSH1 0x0 KECCAK256 PUSH1 0x0 PUSH2 0x100 EXP DUP2 SLOAD DUP2 PUSH1 0xFF MUL NOT AND SWAP1 DUP4 ISZERO ISZERO MUL OR SWAP1 SSTORE POP DUP1 DUP1 PUSH2 0x16BA SWAP1 PUSH2 0x3B46 JUMP JUMPDEST SWAP2 POP POP PUSH2 0x15A0 JUMP JUMPDEST POP CALLER PUSH20 0xFFFFFFFFFFFFFFFFFFFFFFFFFFFFFFFFFFFFFFFF AND PUSH32 0xFA0AE5D80FE3763C880A3839FAB0294171A6F730D1F82C4CD5392C6F67B41732 DUP4 DUP4 PUSH1 0x40 MLOAD PUSH2 0x170B SWAP3 SWAP2 SWAP1 PUSH2 0x3B7E JUMP JUMPDEST PUSH1 0x40 MLOAD DUP1 SWAP2 SUB SWAP1 LOG2 POP POP JUMP JUMPDEST PUSH2 0x171F PUSH2 0x1C1C JUMP JUMPDEST PUSH20 0xFFFFFFFFFFFFFFFFFFFFFFFFFFFFFFFFFFFFFFFF DUP2 AND PUSH2 0x179C JUMPI PUSH1 0x40 MLOAD PUSH32 0x8C379A000000000000000000000000000000000000000000000000000000000 DUP2 MSTORE PUSH1 0x20 PUSH1 0x4 DUP3 ADD MSTORE PUSH1 0x1F PUSH1 0x24 DUP3 ADD MSTORE PUSH32 0x43616E6E6F742075706461746520746F2061206E756C6C206164647265737300 PUSH1 0x44 DUP3 ADD MSTORE PUSH1 0x64 ADD PUSH2 0x5C8 JUMP JUMPDEST PUSH1 0x5 DUP1 SLOAD PUSH32 0xFFFFFFFFFFFFFFFFFFFFFFFF0000000000000000000000000000000000000000 AND PUSH20 0xFFFFFFFFFFFFFFFFFFFFFFFFFFFFFFFFFFFFFFFF DUP4 AND SWAP1 DUP2 OR SWAP1 SWAP2 SSTORE PUSH1 0x40 MLOAD PUSH32 0x80E3874461EBBD918AC3E81DA0A92E5E51387D70F337237C9123E48D20E5A508 SWAP1 PUSH1 0x0 SWAP1 LOG2 POP JUMP JUMPDEST CALLER PUSH1 0x0 SWAP1 DUP2 MSTORE PUSH1 0x7 PUSH1 0x20 MSTORE PUSH1 0x40 SWAP1 KECCAK256 SLOAD DUP2 GT PUSH2 0x18A9 JUMPI PUSH1 0x40 MLOAD PUSH32 0x8C379A000000000000000000000000000000000000000000000000000000000 DUP2 MSTORE PUSH1 0x20 PUSH1 0x4 DUP3 ADD MSTORE PUSH1 0x2C PUSH1 0x24 DUP3 ADD MSTORE PUSH32 0x43616E63656C204F72646572206E6F6E63652063616E6E6F74206C6F77657220 PUSH1 0x44 DUP3 ADD MSTORE PUSH32 0x7468616E2063757272656E740000000000000000000000000000000000000000 PUSH1 0x64 DUP3 ADD MSTORE PUSH1 0x84 ADD PUSH2 0x5C8 JUMP JUMPDEST CALLER PUSH1 0x0 SWAP1 DUP2 MSTORE PUSH1 0x7 PUSH1 0x20 MSTORE PUSH1 0x40 SWAP1 KECCAK256 SLOAD PUSH2 0x18C6 SWAP1 PUSH3 0x7A120 PUSH2 0x3BD0 JUMP JUMPDEST DUP2 LT PUSH2 0x192E JUMPI PUSH1 0x40 MLOAD PUSH32 0x8C379A000000000000000000000000000000000000000000000000000000000 DUP2 MSTORE PUSH1 0x20 PUSH1 0x4 DUP3 ADD MSTORE PUSH1 0x1D PUSH1 0x24 DUP3 ADD MSTORE PUSH32 0x43616E6E6F742063616E63656C20746F6F206D616E79206F7264657273000000 PUSH1 0x44 DUP3 ADD MSTORE PUSH1 0x64 ADD PUSH2 0x5C8 JUMP JUMPDEST CALLER PUSH1 0x0 DUP2 DUP2 MSTORE PUSH1 0x7 PUSH1 0x20 MSTORE PUSH1 0x40 SWAP1 DUP2 SWAP1 KECCAK256 DUP4 SWAP1 SSTORE MLOAD PUSH32 0x1E7178D84F0B0825C65795CD62E7972809AD3AAC6917843AAEC596161B2C0A97 SWAP1 PUSH2 0x1972 SWAP1 DUP5 DUP2 MSTORE PUSH1 0x20 ADD SWAP1 JUMP JUMPDEST PUSH1 0x40 MLOAD DUP1 SWAP2 SUB SWAP1 LOG2 POP JUMP JUMPDEST PUSH2 0x1985 PUSH2 0x1C1C JUMP JUMPDEST PUSH20 0xFFFFFFFFFFFFFFFFFFFFFFFFFFFFFFFFFFFFFFFF DUP2 AND PUSH2 0x1A02 JUMPI PUSH1 0x40 MLOAD PUSH32 0x8C379A000000000000000000000000000000000000000000000000000000000 DUP2 MSTORE PUSH1 0x20 PUSH1 0x4 DUP3 ADD MSTORE PUSH1 0x1F PUSH1 0x24 DUP3 ADD MSTORE PUSH32 0x43616E6E6F742075706461746520746F2061206E756C6C206164647265737300 PUSH1 0x44 DUP3 ADD MSTORE PUSH1 0x64 ADD PUSH2 0x5C8 JUMP JUMPDEST PUSH1 0x4 DUP1 SLOAD PUSH32 0xFFFFFFFFFFFFFFFFFFFFFFFF0000000000000000000000000000000000000000 AND PUSH20 0xFFFFFFFFFFFFFFFFFFFFFFFFFFFFFFFFFFFFFFFF DUP4 AND SWAP1 DUP2 OR SWAP1 SWAP2 SSTORE PUSH1 0x40 MLOAD PUSH32 0x36E2A376EABC3BC60CB88F29C288F53E36874A95A7F407330AB4F166B0905698 SWAP1 PUSH1 0x0 SWAP1 LOG2 POP JUMP JUMPDEST PUSH2 0x1A79 PUSH2 0x1C1C JUMP JUMPDEST PUSH20 0xFFFFFFFFFFFFFFFFFFFFFFFFFFFFFFFFFFFFFFFF DUP2 AND PUSH2 0x1B1C JUMPI PUSH1 0x40 MLOAD PUSH32 0x8C379A000000000000000000000000000000000000000000000000000000000 DUP2 MSTORE PUSH1 0x20 PUSH1 0x4 DUP3 ADD MSTORE PUSH1 0x26 PUSH1 0x24 DUP3 ADD MSTORE PUSH32 0x4F776E61626C653A206E6577206F776E657220697320746865207A65726F2061 PUSH1 0x44 DUP3 ADD MSTORE PUSH32 0x6464726573730000000000000000000000000000000000000000000000000000 PUSH1 0x64 DUP3 ADD MSTORE PUSH1 0x84 ADD PUSH2 0x5C8 JUMP JUMPDEST PUSH2 0x1B25 DUP2 PUSH2 0x2BD9 JUMP JUMPDEST POP JUMP JUMPDEST PUSH2 0x1B30 PUSH2 0x1C1C JUMP JUMPDEST PUSH20 0xFFFFFFFFFFFFFFFFFFFFFFFFFFFFFFFFFFFFFFFF DUP2 AND PUSH2 0x1BAD JUMPI PUSH1 0x40 MLOAD PUSH32 0x8C379A000000000000000000000000000000000000000000000000000000000 DUP2 MSTORE PUSH1 0x20 PUSH1 0x4 DUP3 ADD MSTORE PUSH1 0x1F PUSH1 0x24 DUP3 ADD MSTORE PUSH32 0x43616E6E6F742075706461746520746F2061206E756C6C206164647265737300 PUSH1 0x44 DUP3 ADD MSTORE PUSH1 0x64 ADD PUSH2 0x5C8 JUMP JUMPDEST PUSH1 0x6 DUP1 SLOAD PUSH32 0xFFFFFFFFFFFFFFFFFFFFFFFF0000000000000000000000000000000000000000 AND PUSH20 0xFFFFFFFFFFFFFFFFFFFFFFFFFFFFFFFFFFFFFFFF DUP4 AND SWAP1 DUP2 OR SWAP1 SWAP2 SSTORE PUSH1 0x40 MLOAD PUSH32 0x205D78AB41AFE80BD6B6AAA5D7599D5300FF8690DA3AB1302C1B552F7BAF7D8C SWAP1 PUSH1 0x0 SWAP1 LOG2 POP JUMP JUMPDEST PUSH1 0x1 SLOAD PUSH20 0xFFFFFFFFFFFFFFFFFFFFFFFFFFFFFFFFFFFFFFFF AND CALLER EQ PUSH2 0x1534 JUMPI PUSH1 0x40 MLOAD PUSH32 0x8C379A000000000000000000000000000000000000000000000000000000000 DUP2 MSTORE PUSH1 0x20 PUSH1 0x4 DUP3 ADD DUP2 SWAP1 MSTORE PUSH1 0x24 DUP3 ADD MSTORE PUSH32 0x4F776E61626C653A2063616C6C6572206973206E6F7420746865206F776E6572 PUSH1 0x44 DUP3 ADD MSTORE PUSH1 0x64 ADD PUSH2 0x5C8 JUMP JUMPDEST DUP1 MLOAD PUSH1 0x20 DUP1 DUP4 ADD MLOAD PUSH1 0x40 DUP1 DUP6 ADD MLOAD PUSH1 0x60 DUP7 ADD MLOAD PUSH1 0x80 DUP8 ADD MLOAD PUSH1 0xA0 DUP9 ADD MLOAD PUSH1 0xC0 DUP10 ADD MLOAD PUSH1 0xE0 DUP11 ADD MLOAD PUSH2 0x100 DUP12 ADD MLOAD PUSH2 0x120 DUP13 ADD MLOAD PUSH2 0x140 DUP14 ADD MLOAD PUSH2 0x160 DUP15 ADD MLOAD PUSH2 0x180 DUP16 ADD MLOAD DUP1 MLOAD SWAP1 DUP15 ADD KECCAK256 SWAP11 MLOAD PUSH1 0x0 SWAP15 PUSH2 0x1D27 SWAP15 PUSH32 0x40261ADE532FA1D2C7293DF30AAADB9B3C616FAE525A0B56D3D411C841A85028 SWAP15 SWAP2 SWAP14 SWAP2 SWAP13 SWAP12 SWAP11 SWAP10 SWAP9 SWAP8 SWAP7 SWAP6 SWAP5 SWAP4 SWAP3 ADD PUSH2 0x3BE3 JUMP JUMPDEST PUSH1 0x40 MLOAD PUSH1 0x20 DUP2 DUP4 SUB SUB DUP2 MSTORE SWAP1 PUSH1 0x40 MSTORE DUP1 MLOAD SWAP1 PUSH1 0x20 ADD KECCAK256 SWAP1 POP SWAP2 SWAP1 POP JUMP JUMPDEST PUSH1 0x8 PUSH1 0x0 PUSH2 0x1D58 PUSH1 0x40 DUP6 ADD PUSH1 0x20 DUP7 ADD PUSH2 0x3459 JUMP JUMPDEST PUSH20 0xFFFFFFFFFFFFFFFFFFFFFFFFFFFFFFFFFFFFFFFF AND DUP2 MSTORE PUSH1 0x20 DUP1 DUP3 ADD SWAP3 SWAP1 SWAP3 MSTORE PUSH1 0x40 SWAP1 DUP2 ADD PUSH1 0x0 SWAP1 DUP2 KECCAK256 PUSH2 0x100 DUP7 ADD CALLDATALOAD DUP3 MSTORE SWAP1 SWAP3 MSTORE SWAP1 KECCAK256 SLOAD PUSH1 0xFF AND ISZERO DUP1 ISZERO PUSH2 0x1DF4 JUMPI POP PUSH1 0x7 PUSH1 0x0 PUSH2 0x1DB0 PUSH1 0x40 DUP6 ADD PUSH1 0x20 DUP7 ADD PUSH2 0x3459 JUMP JUMPDEST PUSH20 0xFFFFFFFFFFFFFFFFFFFFFFFFFFFFFFFFFFFFFFFF AND PUSH20 0xFFFFFFFFFFFFFFFFFFFFFFFFFFFFFFFFFFFFFFFF AND DUP2 MSTORE PUSH1 0x20 ADD SWAP1 DUP2 MSTORE PUSH1 0x20 ADD PUSH1 0x0 KECCAK256 SLOAD DUP3 PUSH2 0x100 ADD CALLDATALOAD LT ISZERO JUMPDEST PUSH2 0x1E5A JUMPI PUSH1 0x40 MLOAD PUSH32 0x8C379A000000000000000000000000000000000000000000000000000000000 DUP2 MSTORE PUSH1 0x20 PUSH1 0x4 DUP3 ADD MSTORE PUSH1 0x1D PUSH1 0x24 DUP3 ADD MSTORE PUSH32 0x4F726465723A204D61746368696E67206F726465722065787069726564000000 PUSH1 0x44 DUP3 ADD MSTORE PUSH1 0x64 ADD PUSH2 0x5C8 JUMP JUMPDEST PUSH1 0x0 PUSH2 0x1E6C PUSH1 0x40 DUP5 ADD PUSH1 0x20 DUP6 ADD PUSH2 0x3459 JUMP JUMPDEST PUSH20 0xFFFFFFFFFFFFFFFFFFFFFFFFFFFFFFFFFFFFFFFF AND SUB PUSH2 0x1F0F JUMPI PUSH1 0x40 MLOAD PUSH32 0x8C379A000000000000000000000000000000000000000000000000000000000 DUP2 MSTORE PUSH1 0x20 PUSH1 0x4 DUP3 ADD MSTORE PUSH1 0x2B PUSH1 0x24 DUP3 ADD MSTORE PUSH32 0x546865204F72646572207369676E65722063616E6E6F7420626520746865207A PUSH1 0x44 DUP3 ADD MSTORE PUSH32 0x65726F2061646472657373000000000000000000000000000000000000000000 PUSH1 0x64 DUP3 ADD MSTORE PUSH1 0x84 ADD PUSH2 0x5C8 JUMP JUMPDEST PUSH1 0x0 DUP3 PUSH1 0xA0 ADD CALLDATALOAD GT PUSH2 0x1FA3 JUMPI PUSH1 0x40 MLOAD PUSH32 0x8C379A000000000000000000000000000000000000000000000000000000000 DUP2 MSTORE PUSH1 0x20 PUSH1 0x4 DUP3 ADD MSTORE PUSH1 0x29 PUSH1 0x24 DUP3 ADD MSTORE PUSH32 0x546865206F7264657220616D6F756E742073686F756C64206265206772656174 PUSH1 0x44 DUP3 ADD MSTORE PUSH32 0x6572207468616E20300000000000000000000000000000000000000000000000 PUSH1 0x64 DUP3 ADD MSTORE PUSH1 0x84 ADD PUSH2 0x5C8 JUMP JUMPDEST PUSH1 0x40 DUP1 MLOAD PUSH32 0x8B73C3C69BB8FE3D512ECC4CF759CC79239F7B179B0FFACAA9A75D522B39400F PUSH1 0x20 DUP3 ADD MSTORE PUSH32 0x2E3445393F211D11D7F88D325BC26CE78976B4DECD39029FEB202D9B409FC3C5 SWAP2 DUP2 ADD SWAP2 SWAP1 SWAP2 MSTORE PUSH32 0xC89EFDAA54C0F20C7ADF612882DF0950F5A951637E0307CDCB4C672F298B8BC6 PUSH1 0x60 DUP3 ADD MSTORE CHAINID PUSH1 0x80 DUP3 ADD MSTORE ADDRESS PUSH1 0xA0 DUP3 ADD MSTORE PUSH1 0x0 SWAP1 PUSH1 0xC0 ADD PUSH1 0x40 MLOAD PUSH1 0x20 DUP2 DUP4 SUB SUB DUP2 MSTORE SWAP1 PUSH1 0x40 MSTORE DUP1 MLOAD SWAP1 PUSH1 0x20 ADD KECCAK256 SWAP1 POP PUSH2 0x2080 DUP3 DUP5 PUSH1 0x20 ADD PUSH1 0x20 DUP2 ADD SWAP1 PUSH2 0x205C SWAP2 SWAP1 PUSH2 0x3459 JUMP JUMPDEST PUSH2 0x206E PUSH2 0x1C0 DUP8 ADD PUSH2 0x1A0 DUP9 ADD PUSH2 0x3C9D JUMP JUMPDEST DUP7 PUSH2 0x1C0 ADD CALLDATALOAD DUP8 PUSH2 0x1E0 ADD CALLDATALOAD DUP7 PUSH2 0x2C50 JUMP JUMPDEST PUSH2 0x20E6 JUMPI PUSH1 0x40 MLOAD PUSH32 0x8C379A000000000000000000000000000000000000000000000000000000000 DUP2 MSTORE PUSH1 0x20 PUSH1 0x4 DUP3 ADD MSTORE PUSH1 0x12 PUSH1 0x24 DUP3 ADD MSTORE PUSH32 0x5369676E61747572653A20496E76616C69640000000000000000000000000000 PUSH1 0x44 DUP3 ADD MSTORE PUSH1 0x64 ADD PUSH2 0x5C8 JUMP JUMPDEST PUSH1 0x3 SLOAD PUSH20 0xFFFFFFFFFFFFFFFFFFFFFFFFFFFFFFFFFFFFFFFF AND PUSH4 0x43B938C5 PUSH2 0x2115 PUSH2 0x100 DUP7 ADD PUSH1 0xE0 DUP8 ADD PUSH2 0x3459 JUMP JUMPDEST PUSH1 0x40 MLOAD PUSH32 0xFFFFFFFF00000000000000000000000000000000000000000000000000000000 PUSH1 0xE0 DUP5 SWAP1 SHL AND DUP2 MSTORE PUSH20 0xFFFFFFFFFFFFFFFFFFFFFFFFFFFFFFFFFFFFFFFF SWAP1 SWAP2 AND PUSH1 0x4 DUP3 ADD MSTORE PUSH1 0x24 ADD PUSH1 0x20 PUSH1 0x40 MLOAD DUP1 DUP4 SUB DUP2 DUP7 GAS STATICCALL ISZERO DUP1 ISZERO PUSH2 0x217E JUMPI RETURNDATASIZE PUSH1 0x0 DUP1 RETURNDATACOPY RETURNDATASIZE PUSH1 0x0 REVERT JUMPDEST POP POP POP POP PUSH1 0x40 MLOAD RETURNDATASIZE PUSH1 0x1F NOT PUSH1 0x1F DUP3 ADD AND DUP3 ADD DUP1 PUSH1 0x40 MSTORE POP DUP2 ADD SWAP1 PUSH2 0x21A2 SWAP2 SWAP1 PUSH2 0x3CB8 JUMP JUMPDEST PUSH2 0x2208 JUMPI PUSH1 0x40 MLOAD PUSH32 0x8C379A000000000000000000000000000000000000000000000000000000000 DUP2 MSTORE PUSH1 0x20 PUSH1 0x4 DUP3 ADD MSTORE PUSH1 0x1A PUSH1 0x24 DUP3 ADD MSTORE PUSH32 0x204E6F7420696E2043757272656E63792077686974656C697374000000000000 PUSH1 0x44 DUP3 ADD MSTORE PUSH1 0x64 ADD PUSH2 0x5C8 JUMP JUMPDEST PUSH1 0x4 SLOAD PUSH20 0xFFFFFFFFFFFFFFFFFFFFFFFFFFFFFFFFFFFFFFFF AND PUSH4 0x999BA27C PUSH2 0x2236 PUSH1 0xE0 DUP7 ADD PUSH1 0xC0 DUP8 ADD PUSH2 0x3459 JUMP JUMPDEST PUSH1 0x40 MLOAD PUSH32 0xFFFFFFFF00000000000000000000000000000000000000000000000000000000 PUSH1 0xE0 DUP5 SWAP1 SHL AND DUP2 MSTORE PUSH20 0xFFFFFFFFFFFFFFFFFFFFFFFFFFFFFFFFFFFFFFFF SWAP1 SWAP2 AND PUSH1 0x4 DUP3 ADD MSTORE PUSH1 0x24 ADD PUSH1 0x20 PUSH1 0x40 MLOAD DUP1 DUP4 SUB DUP2 DUP7 GAS STATICCALL ISZERO DUP1 ISZERO PUSH2 0x229F JUMPI RETURNDATASIZE PUSH1 0x0 DUP1 RETURNDATACOPY RETURNDATASIZE PUSH1 0x0 REVERT JUMPDEST POP POP POP POP PUSH1 0x40 MLOAD RETURNDATASIZE PUSH1 0x1F NOT PUSH1 0x1F DUP3 ADD AND DUP3 ADD DUP1 PUSH1 0x40 MSTORE POP DUP2 ADD SWAP1 PUSH2 0x22C3 SWAP2 SWAP1 PUSH2 0x3CB8 JUMP JUMPDEST PUSH2 0x2329 JUMPI PUSH1 0x40 MLOAD PUSH32 0x8C379A000000000000000000000000000000000000000000000000000000000 DUP2 MSTORE PUSH1 0x20 PUSH1 0x4 DUP3 ADD MSTORE PUSH1 0x1A PUSH1 0x24 DUP3 ADD MSTORE PUSH32 0x204E6F7420696E2053747261746567792077686974656C697374000000000000 PUSH1 0x44 DUP3 ADD MSTORE PUSH1 0x64 ADD PUSH2 0x5C8 JUMP JUMPDEST POP POP POP JUMP JUMPDEST DUP2 PUSH1 0x0 PUSH2 0x233B DUP11 DUP4 PUSH2 0x2E24 JUMP JUMPDEST PUSH1 0x2 SLOAD SWAP1 SWAP2 POP PUSH20 0xFFFFFFFFFFFFFFFFFFFFFFFFFFFFFFFFFFFFFFFF AND ISZERO DUP1 ISZERO SWAP1 PUSH2 0x2364 JUMPI POP DUP1 ISZERO ISZERO JUMPDEST ISZERO PUSH2 0x239F JUMPI PUSH1 0x2 SLOAD PUSH2 0x2392 SWAP1 PUSH20 0xFFFFFFFFFFFFFFFFFFFFFFFFFFFFFFFFFFFFFFFF DUP10 DUP2 AND SWAP2 DUP10 SWAP2 AND DUP5 PUSH2 0x27B9 JUMP JUMPDEST PUSH2 0x239C DUP2 DUP4 PUSH2 0x3B04 JUMP JUMPDEST SWAP2 POP JUMPDEST PUSH1 0x5 SLOAD PUSH1 0x40 MLOAD PUSH32 0xF4F635FA00000000000000000000000000000000000000000000000000000000 DUP2 MSTORE PUSH20 0xFFFFFFFFFFFFFFFFFFFFFFFFFFFFFFFFFFFFFFFF DUP12 DUP2 AND PUSH1 0x4 DUP4 ADD MSTORE PUSH1 0x24 DUP3 ADD DUP12 SWAP1 MSTORE PUSH1 0x44 DUP3 ADD DUP8 SWAP1 MSTORE PUSH1 0x0 SWAP3 DUP4 SWAP3 SWAP2 AND SWAP1 PUSH4 0xF4F635FA SWAP1 PUSH1 0x64 ADD PUSH1 0x40 DUP1 MLOAD DUP1 DUP4 SUB DUP2 DUP7 GAS STATICCALL ISZERO DUP1 ISZERO PUSH2 0x2420 JUMPI RETURNDATASIZE PUSH1 0x0 DUP1 RETURNDATACOPY RETURNDATASIZE PUSH1 0x0 REVERT JUMPDEST POP POP POP POP PUSH1 0x40 MLOAD RETURNDATASIZE PUSH1 0x1F NOT PUSH1 0x1F DUP3 ADD AND DUP3 ADD DUP1 PUSH1 0x40 MSTORE POP DUP2 ADD SWAP1 PUSH2 0x2444 SWAP2 SWAP1 PUSH2 0x3CD5 JUMP JUMPDEST SWAP1 SWAP3 POP SWAP1 POP PUSH20 0xFFFFFFFFFFFFFFFFFFFFFFFFFFFFFFFFFFFFFFFF DUP3 AND ISZERO DUP1 ISZERO SWAP1 PUSH2 0x246D JUMPI POP DUP1 ISZERO ISZERO JUMPDEST ISZERO PUSH2 0x252A JUMPI PUSH2 0x2494 PUSH20 0xFFFFFFFFFFFFFFFFFFFFFFFFFFFFFFFFFFFFFFFF DUP11 AND DUP10 DUP5 DUP5 PUSH2 0x27B9 JUMP JUMPDEST PUSH2 0x249E DUP2 DUP6 PUSH2 0x3B04 JUMP JUMPDEST SWAP4 POP DUP2 PUSH20 0xFFFFFFFFFFFFFFFFFFFFFFFFFFFFFFFFFFFFFFFF AND DUP11 DUP13 PUSH20 0xFFFFFFFFFFFFFFFFFFFFFFFFFFFFFFFFFFFFFFFF AND PUSH32 0x27C4F0403323142B599832F26ACD21C74A9E5B809F2215726E244A4AC588CD7D DUP13 DUP6 PUSH1 0x40 MLOAD PUSH2 0x2521 SWAP3 SWAP2 SWAP1 PUSH20 0xFFFFFFFFFFFFFFFFFFFFFFFFFFFFFFFFFFFFFFFF SWAP3 SWAP1 SWAP3 AND DUP3 MSTORE PUSH1 0x20 DUP3 ADD MSTORE PUSH1 0x40 ADD SWAP1 JUMP JUMPDEST PUSH1 0x40 MLOAD DUP1 SWAP2 SUB SWAP1 LOG4 JUMPDEST PUSH2 0x2534 DUP7 DUP7 PUSH2 0x3D03 JUMP JUMPDEST PUSH2 0x2540 DUP6 PUSH2 0x2710 PUSH2 0x3D03 JUMP JUMPDEST LT ISZERO PUSH2 0x25CE JUMPI PUSH1 0x40 MLOAD PUSH32 0x8C379A000000000000000000000000000000000000000000000000000000000 DUP2 MSTORE PUSH1 0x20 PUSH1 0x4 DUP3 ADD MSTORE PUSH1 0x22 PUSH1 0x24 DUP3 ADD MSTORE PUSH32 0x5468652066656520697320746F6F206869676820666F72207468652073656C6C PUSH1 0x44 DUP3 ADD MSTORE PUSH32 0x6572000000000000000000000000000000000000000000000000000000000000 PUSH1 0x64 DUP3 ADD MSTORE PUSH1 0x84 ADD PUSH2 0x5C8 JUMP JUMPDEST PUSH2 0x25F0 PUSH20 0xFFFFFFFFFFFFFFFFFFFFFFFFFFFFFFFFFFFFFFFF DUP11 AND DUP10 DUP10 DUP8 PUSH2 0x27B9 JUMP JUMPDEST POP POP POP POP POP POP POP POP POP POP POP POP JUMP JUMPDEST PUSH1 0x6 SLOAD PUSH1 0x40 MLOAD PUSH32 0xCC15949300000000000000000000000000000000000000000000000000000000 DUP2 MSTORE PUSH20 0xFFFFFFFFFFFFFFFFFFFFFFFFFFFFFFFFFFFFFFFF DUP8 DUP2 AND PUSH1 0x4 DUP4 ADD MSTORE PUSH1 0x0 SWAP3 AND SWAP1 PUSH4 0xCC159493 SWAP1 PUSH1 0x24 ADD PUSH1 0x20 PUSH1 0x40 MLOAD DUP1 DUP4 SUB DUP2 DUP7 GAS STATICCALL ISZERO DUP1 ISZERO PUSH2 0x266F JUMPI RETURNDATASIZE PUSH1 0x0 DUP1 RETURNDATACOPY RETURNDATASIZE PUSH1 0x0 REVERT JUMPDEST POP POP POP POP PUSH1 0x40 MLOAD RETURNDATASIZE PUSH1 0x1F NOT PUSH1 0x1F DUP3 ADD AND DUP3 ADD DUP1 PUSH1 0x40 MSTORE POP DUP2 ADD SWAP1 PUSH2 0x2693 SWAP2 SWAP1 PUSH2 0x3D1A JUMP JUMPDEST SWAP1 POP PUSH20 0xFFFFFFFFFFFFFFFFFFFFFFFFFFFFFFFFFFFFFFFF DUP2 AND PUSH2 0x2712 JUMPI PUSH1 0x40 MLOAD PUSH32 0x8C379A000000000000000000000000000000000000000000000000000000000 DUP2 MSTORE PUSH1 0x20 PUSH1 0x4 DUP3 ADD MSTORE PUSH1 0x1C PUSH1 0x24 DUP3 ADD MSTORE PUSH32 0x43616E277420666F756E74207472616E73666572206D616E6167657200000000 PUSH1 0x44 DUP3 ADD MSTORE PUSH1 0x64 ADD PUSH2 0x5C8 JUMP JUMPDEST PUSH1 0x40 MLOAD PUSH32 0x33F2FA9F00000000000000000000000000000000000000000000000000000000 DUP2 MSTORE PUSH20 0xFFFFFFFFFFFFFFFFFFFFFFFFFFFFFFFFFFFFFFFF DUP8 DUP2 AND PUSH1 0x4 DUP4 ADD MSTORE DUP7 DUP2 AND PUSH1 0x24 DUP4 ADD MSTORE DUP6 DUP2 AND PUSH1 0x44 DUP4 ADD MSTORE PUSH1 0x64 DUP3 ADD DUP6 SWAP1 MSTORE PUSH1 0x84 DUP3 ADD DUP5 SWAP1 MSTORE DUP3 AND SWAP1 PUSH4 0x33F2FA9F SWAP1 PUSH1 0xA4 ADD PUSH1 0x0 PUSH1 0x40 MLOAD DUP1 DUP4 SUB DUP2 PUSH1 0x0 DUP8 DUP1 EXTCODESIZE ISZERO DUP1 ISZERO PUSH2 0x2799 JUMPI PUSH1 0x0 DUP1 REVERT JUMPDEST POP GAS CALL ISZERO DUP1 ISZERO PUSH2 0x27AD JUMPI RETURNDATASIZE PUSH1 0x0 DUP1 RETURNDATACOPY RETURNDATASIZE PUSH1 0x0 REVERT JUMPDEST POP POP POP POP POP POP POP POP POP POP JUMP JUMPDEST PUSH1 0x40 MLOAD PUSH20 0xFFFFFFFFFFFFFFFFFFFFFFFFFFFFFFFFFFFFFFFF DUP1 DUP6 AND PUSH1 0x24 DUP4 ADD MSTORE DUP4 AND PUSH1 0x44 DUP3 ADD MSTORE PUSH1 0x64 DUP2 ADD DUP3 SWAP1 MSTORE PUSH2 0x2895 SWAP1 DUP6 SWAP1 PUSH32 0x23B872DD00000000000000000000000000000000000000000000000000000000 SWAP1 PUSH1 0x84 ADD JUMPDEST PUSH1 0x40 DUP1 MLOAD PUSH32 0xFFFFFFFFFFFFFFFFFFFFFFFFFFFFFFFFFFFFFFFFFFFFFFFFFFFFFFFFFFFFFFE0 DUP2 DUP5 SUB ADD DUP2 MSTORE SWAP2 SWAP1 MSTORE PUSH1 0x20 DUP2 ADD DUP1 MLOAD PUSH28 0xFFFFFFFFFFFFFFFFFFFFFFFFFFFFFFFFFFFFFFFFFFFFFFFFFFFFFFFF AND PUSH32 0xFFFFFFFF00000000000000000000000000000000000000000000000000000000 SWAP1 SWAP4 AND SWAP3 SWAP1 SWAP3 OR SWAP1 SWAP2 MSTORE PUSH2 0x2EB7 JUMP JUMPDEST POP POP POP POP JUMP JUMPDEST DUP2 PUSH1 0x0 PUSH2 0x28A8 DUP9 DUP4 PUSH2 0x2E24 JUMP JUMPDEST PUSH1 0x2 SLOAD SWAP1 SWAP2 POP PUSH20 0xFFFFFFFFFFFFFFFFFFFFFFFFFFFFFFFFFFFFFFFF AND ISZERO DUP1 ISZERO SWAP1 PUSH2 0x28D1 JUMPI POP DUP1 ISZERO ISZERO JUMPDEST ISZERO PUSH2 0x292A JUMPI PUSH1 0x2 SLOAD PUSH2 0x291D SWAP1 PUSH20 0xFFFFFFFFFFFFFFFFFFFFFFFFFFFFFFFFFFFFFFFF PUSH32 0x0 DUP2 AND SWAP2 AND DUP4 PUSH2 0x2FC3 JUMP JUMPDEST PUSH2 0x2927 DUP2 DUP4 PUSH2 0x3B04 JUMP JUMPDEST SWAP2 POP JUMPDEST PUSH1 0x5 SLOAD PUSH1 0x40 MLOAD PUSH32 0xF4F635FA00000000000000000000000000000000000000000000000000000000 DUP2 MSTORE PUSH20 0xFFFFFFFFFFFFFFFFFFFFFFFFFFFFFFFFFFFFFFFF DUP10 DUP2 AND PUSH1 0x4 DUP4 ADD MSTORE PUSH1 0x24 DUP3 ADD DUP10 SWAP1 MSTORE PUSH1 0x44 DUP3 ADD DUP8 SWAP1 MSTORE PUSH1 0x0 SWAP3 DUP4 SWAP3 SWAP2 AND SWAP1 PUSH4 0xF4F635FA SWAP1 PUSH1 0x64 ADD PUSH1 0x40 DUP1 MLOAD DUP1 DUP4 SUB DUP2 DUP7 GAS STATICCALL ISZERO DUP1 ISZERO PUSH2 0x29AB JUMPI RETURNDATASIZE PUSH1 0x0 DUP1 RETURNDATACOPY RETURNDATASIZE PUSH1 0x0 REVERT JUMPDEST POP POP POP POP PUSH1 0x40 MLOAD RETURNDATASIZE PUSH1 0x1F NOT PUSH1 0x1F DUP3 ADD AND DUP3 ADD DUP1 PUSH1 0x40 MSTORE POP DUP2 ADD SWAP1 PUSH2 0x29CF SWAP2 SWAP1 PUSH2 0x3CD5 JUMP JUMPDEST SWAP1 SWAP3 POP SWAP1 POP PUSH20 0xFFFFFFFFFFFFFFFFFFFFFFFFFFFFFFFFFFFFFFFF DUP3 AND ISZERO DUP1 ISZERO SWAP1 PUSH2 0x29F8 JUMPI POP DUP1 ISZERO ISZERO JUMPDEST ISZERO PUSH2 0x2AF4 JUMPI PUSH2 0x2A3E PUSH20 0xFFFFFFFFFFFFFFFFFFFFFFFFFFFFFFFFFFFFFFFF PUSH32 0x0 AND DUP4 DUP4 PUSH2 0x2FC3 JUMP JUMPDEST PUSH2 0x2A48 DUP2 DUP6 PUSH2 0x3B04 JUMP JUMPDEST SWAP4 POP DUP2 PUSH20 0xFFFFFFFFFFFFFFFFFFFFFFFFFFFFFFFFFFFFFFFF AND DUP9 DUP11 PUSH20 0xFFFFFFFFFFFFFFFFFFFFFFFFFFFFFFFFFFFFFFFF AND PUSH32 0x27C4F0403323142B599832F26ACD21C74A9E5B809F2215726E244A4AC588CD7D PUSH32 0x0 DUP6 PUSH1 0x40 MLOAD PUSH2 0x2AEB SWAP3 SWAP2 SWAP1 PUSH20 0xFFFFFFFFFFFFFFFFFFFFFFFFFFFFFFFFFFFFFFFF SWAP3 SWAP1 SWAP3 AND DUP3 MSTORE PUSH1 0x20 DUP3 ADD MSTORE PUSH1 0x40 ADD SWAP1 JUMP JUMPDEST PUSH1 0x40 MLOAD DUP1 SWAP2 SUB SWAP1 LOG4 JUMPDEST PUSH2 0x2AFE DUP7 DUP7 PUSH2 0x3D03 JUMP JUMPDEST PUSH2 0x2B0A DUP6 PUSH2 0x2710 PUSH2 0x3D03 JUMP JUMPDEST LT ISZERO PUSH2 0x2B98 JUMPI PUSH1 0x40 MLOAD PUSH32 0x8C379A000000000000000000000000000000000000000000000000000000000 DUP2 MSTORE PUSH1 0x20 PUSH1 0x4 DUP3 ADD MSTORE PUSH1 0x22 PUSH1 0x24 DUP3 ADD MSTORE PUSH32 0x5468652066656520697320746F6F206869676820666F72207468652073656C6C PUSH1 0x44 DUP3 ADD MSTORE PUSH32 0x6572000000000000000000000000000000000000000000000000000000000000 PUSH1 0x64 DUP3 ADD MSTORE PUSH1 0x84 ADD PUSH2 0x5C8 JUMP JUMPDEST PUSH2 0x27AD PUSH20 0xFFFFFFFFFFFFFFFFFFFFFFFFFFFFFFFFFFFFFFFF PUSH32 0x0 AND DUP9 DUP7 PUSH2 0x2FC3 JUMP JUMPDEST PUSH1 0x1 DUP1 SLOAD PUSH20 0xFFFFFFFFFFFFFFFFFFFFFFFFFFFFFFFFFFFFFFFF DUP4 DUP2 AND PUSH32 0xFFFFFFFFFFFFFFFFFFFFFFFF0000000000000000000000000000000000000000 DUP4 AND DUP2 OR SWAP1 SWAP4 SSTORE PUSH1 0x40 MLOAD SWAP2 AND SWAP2 SWAP1 DUP3 SWAP1 PUSH32 0x8BE0079C531659141344CD1FD0A4F28419497F9722A3DAAFE3B4186F6B6457E0 SWAP1 PUSH1 0x0 SWAP1 LOG3 POP POP JUMP JUMPDEST PUSH1 0x40 MLOAD PUSH32 0x1901000000000000000000000000000000000000000000000000000000000000 PUSH1 0x20 DUP3 ADD MSTORE PUSH1 0x22 DUP2 ADD DUP3 SWAP1 MSTORE PUSH1 0x42 DUP2 ADD DUP8 SWAP1 MSTORE PUSH1 0x0 SWAP1 DUP2 SWAP1 PUSH1 0x62 ADD PUSH1 0x40 MLOAD PUSH1 0x20 DUP2 DUP4 SUB SUB DUP2 MSTORE SWAP1 PUSH1 0x40 MSTORE DUP1 MLOAD SWAP1 PUSH1 0x20 ADD KECCAK256 SWAP1 POP PUSH2 0x2CC7 DUP8 PUSH20 0xFFFFFFFFFFFFFFFFFFFFFFFFFFFFFFFFFFFFFFFF AND EXTCODESIZE ISZERO ISZERO SWAP1 JUMP JUMPDEST ISZERO PUSH2 0x2DDC JUMPI PUSH1 0x40 DUP1 MLOAD PUSH1 0x20 DUP2 ADD DUP8 SWAP1 MSTORE DUP1 DUP3 ADD DUP7 SWAP1 MSTORE PUSH1 0xF8 DUP9 SWAP1 SHL PUSH32 0xFF00000000000000000000000000000000000000000000000000000000000000 AND PUSH1 0x60 DUP3 ADD MSTORE DUP2 MLOAD PUSH1 0x41 DUP2 DUP4 SUB ADD DUP2 MSTORE PUSH1 0x61 DUP3 ADD SWAP3 DUP4 SWAP1 MSTORE PUSH32 0x1626BA7E00000000000000000000000000000000000000000000000000000000 SWAP1 SWAP3 MSTORE PUSH20 0xFFFFFFFFFFFFFFFFFFFFFFFFFFFFFFFFFFFFFFFF DUP10 AND SWAP2 PUSH4 0x1626BA7E SWAP2 PUSH2 0x2D6B SWAP2 DUP6 SWAP2 PUSH1 0x65 ADD PUSH2 0x3DA5 JUMP JUMPDEST PUSH1 0x20 PUSH1 0x40 MLOAD DUP1 DUP4 SUB DUP2 DUP7 GAS STATICCALL ISZERO DUP1 ISZERO PUSH2 0x2D88 JUMPI RETURNDATASIZE PUSH1 0x0 DUP1 RETURNDATACOPY RETURNDATASIZE PUSH1 0x0 REVERT JUMPDEST POP POP POP POP PUSH1 0x40 MLOAD RETURNDATASIZE PUSH1 0x1F NOT PUSH1 0x1F DUP3 ADD AND DUP3 ADD DUP1 PUSH1 0x40 MSTORE POP DUP2 ADD SWAP1 PUSH2 0x2DAC SWAP2 SWAP1 PUSH2 0x3DBE JUMP JUMPDEST PUSH28 0xFFFFFFFFFFFFFFFFFFFFFFFFFFFFFFFFFFFFFFFFFFFFFFFFFFFFFFFF NOT AND PUSH4 0x1626BA7E PUSH1 0xE0 SHL EQ SWAP2 POP POP PUSH2 0x2E1A JUMP JUMPDEST DUP7 PUSH20 0xFFFFFFFFFFFFFFFFFFFFFFFFFFFFFFFFFFFFFFFF AND PUSH2 0x2DFF DUP3 DUP9 DUP9 DUP9 PUSH2 0x3019 JUMP JUMPDEST PUSH20 0xFFFFFFFFFFFFFFFFFFFFFFFFFFFFFFFFFFFFFFFF AND EQ SWAP2 POP POP JUMPDEST SWAP7 SWAP6 POP POP POP POP POP POP JUMP JUMPDEST PUSH1 0x0 DUP1 DUP4 PUSH20 0xFFFFFFFFFFFFFFFFFFFFFFFFFFFFFFFFFFFFFFFF AND PUSH4 0x9DD1CDA6 PUSH1 0x40 MLOAD DUP2 PUSH4 0xFFFFFFFF AND PUSH1 0xE0 SHL DUP2 MSTORE PUSH1 0x4 ADD PUSH1 0x20 PUSH1 0x40 MLOAD DUP1 DUP4 SUB DUP2 DUP7 GAS STATICCALL ISZERO DUP1 ISZERO PUSH2 0x2E72 JUMPI RETURNDATASIZE PUSH1 0x0 DUP1 RETURNDATACOPY RETURNDATASIZE PUSH1 0x0 REVERT JUMPDEST POP POP POP POP PUSH1 0x40 MLOAD RETURNDATASIZE PUSH1 0x1F NOT PUSH1 0x1F DUP3 ADD AND DUP3 ADD DUP1 PUSH1 0x40 MSTORE POP DUP2 ADD SWAP1 PUSH2 0x2E96 SWAP2 SWAP1 PUSH2 0x3E00 JUMP JUMPDEST SWAP1 POP PUSH2 0x2710 PUSH2 0x2EA5 DUP5 DUP4 PUSH2 0x3D03 JUMP JUMPDEST PUSH2 0x2EAF SWAP2 SWAP1 PUSH2 0x3E19 JUMP JUMPDEST SWAP5 SWAP4 POP POP POP POP JUMP JUMPDEST PUSH1 0x0 PUSH2 0x2F19 DUP3 PUSH1 0x40 MLOAD DUP1 PUSH1 0x40 ADD PUSH1 0x40 MSTORE DUP1 PUSH1 0x20 DUP2 MSTORE PUSH1 0x20 ADD PUSH32 0x5361666545524332303A206C6F772D6C6576656C2063616C6C206661696C6564 DUP2 MSTORE POP DUP6 PUSH20 0xFFFFFFFFFFFFFFFFFFFFFFFFFFFFFFFFFFFFFFFF AND PUSH2 0x3225 SWAP1 SWAP3 SWAP2 SWAP1 PUSH4 0xFFFFFFFF AND JUMP JUMPDEST DUP1 MLOAD SWAP1 SWAP2 POP ISZERO PUSH2 0x2329 JUMPI DUP1 DUP1 PUSH1 0x20 ADD SWAP1 MLOAD DUP2 ADD SWAP1 PUSH2 0x2F37 SWAP2 SWAP1 PUSH2 0x3CB8 JUMP JUMPDEST PUSH2 0x2329 JUMPI PUSH1 0x40 MLOAD PUSH32 0x8C379A000000000000000000000000000000000000000000000000000000000 DUP2 MSTORE PUSH1 0x20 PUSH1 0x4 DUP3 ADD MSTORE PUSH1 0x2A PUSH1 0x24 DUP3 ADD MSTORE PUSH32 0x5361666545524332303A204552433230206F7065726174696F6E20646964206E PUSH1 0x44 DUP3 ADD MSTORE PUSH32 0x6F74207375636365656400000000000000000000000000000000000000000000 PUSH1 0x64 DUP3 ADD MSTORE PUSH1 0x84 ADD PUSH2 0x5C8 JUMP JUMPDEST PUSH1 0x40 MLOAD PUSH20 0xFFFFFFFFFFFFFFFFFFFFFFFFFFFFFFFFFFFFFFFF DUP4 AND PUSH1 0x24 DUP3 ADD MSTORE PUSH1 0x44 DUP2 ADD DUP3 SWAP1 MSTORE PUSH2 0x2329 SWAP1 DUP5 SWAP1 PUSH32 0xA9059CBB00000000000000000000000000000000000000000000000000000000 SWAP1 PUSH1 0x64 ADD PUSH2 0x2813 JUMP JUMPDEST PUSH1 0x0 PUSH32 0x7FFFFFFFFFFFFFFFFFFFFFFFFFFFFFFF5D576E7357A4501DDFE92F46681B20A0 DUP3 GT ISZERO PUSH2 0x30A5 JUMPI PUSH1 0x40 MLOAD PUSH32 0x8C379A000000000000000000000000000000000000000000000000000000000 DUP2 MSTORE PUSH1 0x20 PUSH1 0x4 DUP3 ADD MSTORE PUSH1 0x14 PUSH1 0x24 DUP3 ADD MSTORE PUSH32 0x20496E76616C6964207320706172616D65746572000000000000000000000000 PUSH1 0x44 DUP3 ADD MSTORE PUSH1 0x64 ADD PUSH2 0x5C8 JUMP JUMPDEST DUP4 PUSH1 0xFF AND PUSH1 0x1B EQ DUP1 PUSH2 0x30BA JUMPI POP DUP4 PUSH1 0xFF AND PUSH1 0x1C EQ JUMPDEST PUSH2 0x3120 JUMPI PUSH1 0x40 MLOAD PUSH32 0x8C379A000000000000000000000000000000000000000000000000000000000 DUP2 MSTORE PUSH1 0x20 PUSH1 0x4 DUP3 ADD MSTORE PUSH1 0x13 PUSH1 0x24 DUP3 ADD MSTORE PUSH32 0x496E76616C6964207620706172616D6574657200000000000000000000000000 PUSH1 0x44 DUP3 ADD MSTORE PUSH1 0x64 ADD PUSH2 0x5C8 JUMP JUMPDEST PUSH1 0x40 DUP1 MLOAD PUSH1 0x0 DUP1 DUP3 MSTORE PUSH1 0x20 DUP3 ADD DUP1 DUP5 MSTORE DUP9 SWAP1 MSTORE PUSH1 0xFF DUP8 AND SWAP3 DUP3 ADD SWAP3 SWAP1 SWAP3 MSTORE PUSH1 0x60 DUP2 ADD DUP6 SWAP1 MSTORE PUSH1 0x80 DUP2 ADD DUP5 SWAP1 MSTORE PUSH1 0x1 SWAP1 PUSH1 0xA0 ADD PUSH1 0x20 PUSH1 0x40 MLOAD PUSH1 0x20 DUP2 SUB SWAP1 DUP1 DUP5 SUB SWAP1 DUP6 GAS STATICCALL ISZERO DUP1 ISZERO PUSH2 0x3174 JUMPI RETURNDATASIZE PUSH1 0x0 DUP1 RETURNDATACOPY RETURNDATASIZE PUSH1 0x0 REVERT JUMPDEST POP POP PUSH1 0x40 MLOAD PUSH32 0xFFFFFFFFFFFFFFFFFFFFFFFFFFFFFFFFFFFFFFFFFFFFFFFFFFFFFFFFFFFFFFE0 ADD MLOAD SWAP2 POP POP PUSH20 0xFFFFFFFFFFFFFFFFFFFFFFFFFFFFFFFFFFFFFFFF DUP2 AND PUSH2 0x321C JUMPI PUSH1 0x40 MLOAD PUSH32 0x8C379A000000000000000000000000000000000000000000000000000000000 DUP2 MSTORE PUSH1 0x20 PUSH1 0x4 DUP3 ADD MSTORE PUSH1 0xF PUSH1 0x24 DUP3 ADD MSTORE PUSH32 0x20496E76616C6964207369676E65720000000000000000000000000000000000 PUSH1 0x44 DUP3 ADD MSTORE PUSH1 0x64 ADD PUSH2 0x5C8 JUMP JUMPDEST SWAP6 SWAP5 POP POP POP POP POP JUMP JUMPDEST PUSH1 0x60 PUSH2 0x3234 DUP5 DUP5 PUSH1 0x0 DUP6 PUSH2 0x323E JUMP JUMPDEST SWAP1 POP JUMPDEST SWAP4 SWAP3 POP POP POP JUMP JUMPDEST PUSH1 0x60 DUP3 SELFBALANCE LT ISZERO PUSH2 0x32D0 JUMPI PUSH1 0x40 MLOAD PUSH32 0x8C379A000000000000000000000000000000000000000000000000000000000 DUP2 MSTORE PUSH1 0x20 PUSH1 0x4 DUP3 ADD MSTORE PUSH1 0x26 PUSH1 0x24 DUP3 ADD MSTORE PUSH32 0x416464726573733A20696E73756666696369656E742062616C616E636520666F PUSH1 0x44 DUP3 ADD MSTORE PUSH32 0x722063616C6C0000000000000000000000000000000000000000000000000000 PUSH1 0x64 DUP3 ADD MSTORE PUSH1 0x84 ADD PUSH2 0x5C8 JUMP JUMPDEST PUSH20 0xFFFFFFFFFFFFFFFFFFFFFFFFFFFFFFFFFFFFFFFF DUP6 AND EXTCODESIZE PUSH2 0x334E JUMPI PUSH1 0x40 MLOAD PUSH32 0x8C379A000000000000000000000000000000000000000000000000000000000 DUP2 MSTORE PUSH1 0x20 PUSH1 0x4 DUP3 ADD MSTORE PUSH1 0x1D PUSH1 0x24 DUP3 ADD MSTORE PUSH32 0x416464726573733A2063616C6C20746F206E6F6E2D636F6E7472616374000000 PUSH1 0x44 DUP3 ADD MSTORE PUSH1 0x64 ADD PUSH2 0x5C8 JUMP JUMPDEST PUSH1 0x0 DUP1 DUP7 PUSH20 0xFFFFFFFFFFFFFFFFFFFFFFFFFFFFFFFFFFFFFFFF AND DUP6 DUP8 PUSH1 0x40 MLOAD PUSH2 0x3377 SWAP2 SWAP1 PUSH2 0x3E54 JUMP JUMPDEST PUSH1 0x0 PUSH1 0x40 MLOAD DUP1 DUP4 SUB DUP2 DUP6 DUP8 GAS CALL SWAP3 POP POP POP RETURNDATASIZE DUP1 PUSH1 0x0 DUP2 EQ PUSH2 0x33B4 JUMPI PUSH1 0x40 MLOAD SWAP2 POP PUSH1 0x1F NOT PUSH1 0x3F RETURNDATASIZE ADD AND DUP3 ADD PUSH1 0x40 MSTORE RETURNDATASIZE DUP3 MSTORE RETURNDATASIZE PUSH1 0x0 PUSH1 0x20 DUP5 ADD RETURNDATACOPY PUSH2 0x33B9 JUMP JUMPDEST PUSH1 0x60 SWAP2 POP JUMPDEST POP SWAP2 POP SWAP2 POP PUSH2 0x33C9 DUP3 DUP3 DUP7 PUSH2 0x33D4 JUMP JUMPDEST SWAP8 SWAP7 POP POP POP POP POP POP POP JUMP JUMPDEST PUSH1 0x60 DUP4 ISZERO PUSH2 0x33E3 JUMPI POP DUP2 PUSH2 0x3237 JUMP JUMPDEST DUP3 MLOAD ISZERO PUSH2 0x33F3 JUMPI DUP3 MLOAD DUP1 DUP5 PUSH1 0x20 ADD REVERT JUMPDEST DUP2 PUSH1 0x40 MLOAD PUSH32 0x8C379A000000000000000000000000000000000000000000000000000000000 DUP2 MSTORE PUSH1 0x4 ADD PUSH2 0x5C8 SWAP2 SWAP1 PUSH2 0x3E70 JUMP JUMPDEST PUSH20 0xFFFFFFFFFFFFFFFFFFFFFFFFFFFFFFFFFFFFFFFF DUP2 AND DUP2 EQ PUSH2 0x1B25 JUMPI PUSH1 0x0 DUP1 REVERT JUMPDEST DUP1 CALLDATALOAD PUSH2 0x3454 DUP2 PUSH2 0x3427 JUMP JUMPDEST SWAP2 SWAP1 POP JUMP JUMPDEST PUSH1 0x0 PUSH1 0x20 DUP3 DUP5 SUB SLT ISZERO PUSH2 0x346B JUMPI PUSH1 0x0 DUP1 REVERT JUMPDEST DUP2 CALLDATALOAD PUSH2 0x3237 DUP2 PUSH2 0x3427 JUMP JUMPDEST PUSH1 0x0 DUP1 PUSH1 0x40 DUP4 DUP6 SUB SLT ISZERO PUSH2 0x3489 JUMPI PUSH1 0x0 DUP1 REVERT JUMPDEST DUP3 CALLDATALOAD PUSH2 0x3494 DUP2 PUSH2 0x3427 JUMP JUMPDEST SWAP5 PUSH1 0x20 SWAP4 SWAP1 SWAP4 ADD CALLDATALOAD SWAP4 POP POP POP JUMP JUMPDEST PUSH1 0x0 DUP1 PUSH1 0x40 DUP4 DUP6 SUB SLT ISZERO PUSH2 0x34B5 JUMPI PUSH1 0x0 DUP1 REVERT JUMPDEST DUP3 CALLDATALOAD PUSH8 0xFFFFFFFFFFFFFFFF DUP1 DUP3 GT ISZERO PUSH2 0x34CD JUMPI PUSH1 0x0 DUP1 REVERT JUMPDEST SWAP1 DUP5 ADD SWAP1 PUSH1 0xC0 DUP3 DUP8 SUB SLT ISZERO PUSH2 0x34E1 JUMPI PUSH1 0x0 DUP1 REVERT JUMPDEST SWAP1 SWAP3 POP PUSH1 0x20 DUP5 ADD CALLDATALOAD SWAP1 DUP1 DUP3 GT ISZERO PUSH2 0x34F7 JUMPI PUSH1 0x0 DUP1 REVERT JUMPDEST POP DUP4 ADD PUSH2 0x200 DUP2 DUP7 SUB SLT ISZERO PUSH2 0x350B JUMPI PUSH1 0x0 DUP1 REVERT JUMPDEST DUP1 SWAP2 POP POP SWAP3 POP SWAP3 SWAP1 POP JUMP JUMPDEST PUSH1 0x0 DUP1 PUSH1 0x20 DUP4 DUP6 SUB SLT ISZERO PUSH2 0x3529 JUMPI PUSH1 0x0 DUP1 REVERT JUMPDEST DUP3 CALLDATALOAD PUSH8 0xFFFFFFFFFFFFFFFF DUP1 DUP3 GT ISZERO PUSH2 0x3541 JUMPI PUSH1 0x0 DUP1 REVERT JUMPDEST DUP2 DUP6 ADD SWAP2 POP DUP6 PUSH1 0x1F DUP4 ADD SLT PUSH2 0x3555 JUMPI PUSH1 0x0 DUP1 REVERT JUMPDEST DUP2 CALLDATALOAD DUP2 DUP2 GT ISZERO PUSH2 0x3564 JUMPI PUSH1 0x0 DUP1 REVERT JUMPDEST DUP7 PUSH1 0x20 DUP3 PUSH1 0x5 SHL DUP6 ADD ADD GT ISZERO PUSH2 0x3579 JUMPI PUSH1 0x0 DUP1 REVERT JUMPDEST PUSH1 0x20 SWAP3 SWAP1 SWAP3 ADD SWAP7 SWAP2 SWAP6 POP SWAP1 SWAP4 POP POP POP POP JUMP JUMPDEST PUSH1 0x0 PUSH1 0x20 DUP3 DUP5 SUB SLT ISZERO PUSH2 0x359D JUMPI PUSH1 0x0 DUP1 REVERT JUMPDEST POP CALLDATALOAD SWAP2 SWAP1 POP JUMP JUMPDEST DUP1 ISZERO ISZERO DUP2 EQ PUSH2 0x1B25 JUMPI PUSH1 0x0 DUP1 REVERT JUMPDEST DUP1 CALLDATALOAD PUSH2 0x3454 DUP2 PUSH2 0x35A4 JUMP JUMPDEST PUSH1 0x0 PUSH1 0x20 DUP3 DUP5 SUB SLT ISZERO PUSH2 0x35CF JUMPI PUSH1 0x0 DUP1 REVERT JUMPDEST DUP2 CALLDATALOAD PUSH2 0x3237 DUP2 PUSH2 0x35A4 JUMP JUMPDEST PUSH32 0x4E487B7100000000000000000000000000000000000000000000000000000000 PUSH1 0x0 MSTORE PUSH1 0x41 PUSH1 0x4 MSTORE PUSH1 0x24 PUSH1 0x0 REVERT JUMPDEST PUSH1 0x40 MLOAD PUSH2 0x200 DUP2 ADD PUSH8 0xFFFFFFFFFFFFFFFF DUP2 GT DUP3 DUP3 LT OR ISZERO PUSH2 0x362D JUMPI PUSH2 0x362D PUSH2 0x35DA JUMP JUMPDEST PUSH1 0x40 MSTORE SWAP1 JUMP JUMPDEST PUSH1 0x0 DUP3 PUSH1 0x1F DUP4 ADD SLT PUSH2 0x3644 JUMPI PUSH1 0x0 DUP1 REVERT JUMPDEST DUP2 CALLDATALOAD PUSH8 0xFFFFFFFFFFFFFFFF DUP1 DUP3 GT ISZERO PUSH2 0x365F JUMPI PUSH2 0x365F PUSH2 0x35DA JUMP JUMPDEST PUSH1 0x40 MLOAD PUSH1 0x1F DUP4 ADD PUSH32 0xFFFFFFFFFFFFFFFFFFFFFFFFFFFFFFFFFFFFFFFFFFFFFFFFFFFFFFFFFFFFFFE0 SWAP1 DUP2 AND PUSH1 0x3F ADD AND DUP2 ADD SWAP1 DUP3 DUP3 GT DUP2 DUP4 LT OR ISZERO PUSH2 0x36A5 JUMPI PUSH2 0x36A5 PUSH2 0x35DA JUMP JUMPDEST DUP2 PUSH1 0x40 MSTORE DUP4 DUP2 MSTORE DUP7 PUSH1 0x20 DUP6 DUP9 ADD ADD GT ISZERO PUSH2 0x36BE JUMPI PUSH1 0x0 DUP1 REVERT JUMPDEST DUP4 PUSH1 0x20 DUP8 ADD PUSH1 0x20 DUP4 ADD CALLDATACOPY PUSH1 0x0 PUSH1 0x20 DUP6 DUP4 ADD ADD MSTORE DUP1 SWAP5 POP POP POP POP POP SWAP3 SWAP2 POP POP JUMP JUMPDEST DUP1 CALLDATALOAD PUSH1 0xFF DUP2 AND DUP2 EQ PUSH2 0x3454 JUMPI PUSH1 0x0 DUP1 REVERT JUMPDEST PUSH1 0x0 PUSH2 0x200 DUP3 CALLDATASIZE SUB SLT ISZERO PUSH2 0x3702 JUMPI PUSH1 0x0 DUP1 REVERT JUMPDEST PUSH2 0x370A PUSH2 0x3609 JUMP JUMPDEST PUSH2 0x3713 DUP4 PUSH2 0x35B2 JUMP JUMPDEST DUP2 MSTORE PUSH2 0x3721 PUSH1 0x20 DUP5 ADD PUSH2 0x3449 JUMP JUMPDEST PUSH1 0x20 DUP3 ADD MSTORE PUSH2 0x3732 PUSH1 0x40 DUP5 ADD PUSH2 0x3449 JUMP JUMPDEST PUSH1 0x40 DUP3 ADD MSTORE PUSH1 0x60 DUP4 ADD CALLDATALOAD PUSH1 0x60 DUP3 ADD MSTORE PUSH1 0x80 DUP4 ADD CALLDATALOAD PUSH1 0x80 DUP3 ADD MSTORE PUSH1 0xA0 DUP4 ADD CALLDATALOAD PUSH1 0xA0 DUP3 ADD MSTORE PUSH2 0x3761 PUSH1 0xC0 DUP5 ADD PUSH2 0x3449 JUMP JUMPDEST PUSH1 0xC0 DUP3 ADD MSTORE PUSH2 0x3772 PUSH1 0xE0 DUP5 ADD PUSH2 0x3449 JUMP JUMPDEST PUSH1 0xE0 DUP3 ADD MSTORE PUSH2 0x100 DUP4 DUP2 ADD CALLDATALOAD SWAP1 DUP3 ADD MSTORE PUSH2 0x120 DUP1 DUP5 ADD CALLDATALOAD SWAP1 DUP3 ADD MSTORE PUSH2 0x140 DUP1 DUP5 ADD CALLDATALOAD SWAP1 DUP3 ADD MSTORE PUSH2 0x160 DUP1 DUP5 ADD CALLDATALOAD SWAP1 DUP3 ADD MSTORE PUSH2 0x180 DUP1 DUP5 ADD CALLDATALOAD PUSH8 0xFFFFFFFFFFFFFFFF DUP2 GT ISZERO PUSH2 0x37BF JUMPI PUSH1 0x0 DUP1 REVERT JUMPDEST PUSH2 0x37CB CALLDATASIZE DUP3 DUP8 ADD PUSH2 0x3633 JUMP JUMPDEST DUP3 DUP5 ADD MSTORE POP POP PUSH2 0x1A0 PUSH2 0x37DF DUP2 DUP6 ADD PUSH2 0x36DE JUMP JUMPDEST SWAP1 DUP3 ADD MSTORE PUSH2 0x1C0 DUP4 DUP2 ADD CALLDATALOAD SWAP1 DUP3 ADD MSTORE PUSH2 0x1E0 SWAP3 DUP4 ADD CALLDATALOAD SWAP3 DUP2 ADD SWAP3 SWAP1 SWAP3 MSTORE POP SWAP1 JUMP JUMPDEST PUSH1 0x0 DUP1 DUP4 CALLDATALOAD PUSH32 0xFFFFFFFFFFFFFFFFFFFFFFFFFFFFFFFFFFFFFFFFFFFFFFFFFFFFFFFFFFFFFFE1 DUP5 CALLDATASIZE SUB ADD DUP2 SLT PUSH2 0x3835 JUMPI PUSH1 0x0 DUP1 REVERT JUMPDEST DUP4 ADD PUSH1 0x20 DUP2 ADD SWAP3 POP CALLDATALOAD SWAP1 POP PUSH8 0xFFFFFFFFFFFFFFFF DUP2 GT ISZERO PUSH2 0x3855 JUMPI PUSH1 0x0 DUP1 REVERT JUMPDEST DUP1 CALLDATASIZE SUB DUP3 SGT ISZERO PUSH2 0x3864 JUMPI PUSH1 0x0 DUP1 REVERT JUMPDEST SWAP3 POP SWAP3 SWAP1 POP JUMP JUMPDEST DUP2 DUP4 MSTORE DUP2 DUP2 PUSH1 0x20 DUP6 ADD CALLDATACOPY POP PUSH1 0x0 PUSH1 0x20 DUP3 DUP5 ADD ADD MSTORE PUSH1 0x0 PUSH1 0x20 PUSH32 0xFFFFFFFFFFFFFFFFFFFFFFFFFFFFFFFFFFFFFFFFFFFFFFFFFFFFFFFFFFFFFFE0 PUSH1 0x1F DUP5 ADD AND DUP5 ADD ADD SWAP1 POP SWAP3 SWAP2 POP POP JUMP JUMPDEST PUSH1 0x40 DUP2 MSTORE PUSH1 0x0 PUSH2 0x100 DUP5 CALLDATALOAD PUSH2 0x38C8 DUP2 PUSH2 0x35A4 JUMP JUMPDEST ISZERO ISZERO PUSH1 0x40 DUP5 ADD MSTORE PUSH1 0x20 DUP6 ADD CALLDATALOAD PUSH2 0x38DD DUP2 PUSH2 0x3427 JUMP JUMPDEST PUSH20 0xFFFFFFFFFFFFFFFFFFFFFFFFFFFFFFFFFFFFFFFF DUP2 AND PUSH1 0x60 DUP6 ADD MSTORE POP PUSH1 0x40 DUP6 ADD CALLDATALOAD PUSH1 0x80 DUP5 ADD MSTORE PUSH1 0x60 DUP6 ADD CALLDATALOAD PUSH1 0xA0 DUP5 ADD MSTORE PUSH1 0x80 DUP6 ADD CALLDATALOAD PUSH1 0xC0 DUP5 ADD MSTORE PUSH2 0x3925 PUSH1 0xA0 DUP7 ADD DUP7 PUSH2 0x3800 JUMP JUMPDEST PUSH1 0xC0 PUSH1 0xE0 DUP7 ADD MSTORE PUSH2 0x3939 DUP4 DUP7 ADD DUP3 DUP5 PUSH2 0x386B JUMP JUMPDEST SWAP2 POP POP DUP4 DUP2 SUB PUSH1 0x20 DUP6 ADD MSTORE PUSH2 0x200 PUSH2 0x395A DUP3 PUSH2 0x3954 DUP9 PUSH2 0x35B2 JUMP JUMPDEST ISZERO ISZERO SWAP1 MSTORE JUMP JUMPDEST PUSH2 0x3966 PUSH1 0x20 DUP8 ADD PUSH2 0x3449 JUMP JUMPDEST PUSH20 0xFFFFFFFFFFFFFFFFFFFFFFFFFFFFFFFFFFFFFFFF AND PUSH1 0x20 DUP4 ADD MSTORE PUSH2 0x398D PUSH1 0x40 DUP8 ADD PUSH2 0x3449 JUMP JUMPDEST PUSH20 0xFFFFFFFFFFFFFFFFFFFFFFFFFFFFFFFFFFFFFFFF DUP2 AND PUSH1 0x40 DUP5 ADD MSTORE POP PUSH1 0x60 DUP7 ADD CALLDATALOAD PUSH1 0x60 DUP4 ADD MSTORE PUSH1 0x80 DUP7 ADD CALLDATALOAD PUSH1 0x80 DUP4 ADD MSTORE PUSH1 0xA0 DUP7 ADD CALLDATALOAD PUSH1 0xA0 DUP4 ADD MSTORE PUSH2 0x39D4 PUSH1 0xC0 DUP8 ADD PUSH2 0x3449 JUMP JUMPDEST PUSH20 0xFFFFFFFFFFFFFFFFFFFFFFFFFFFFFFFFFFFFFFFF AND PUSH1 0xC0 DUP4 ADD MSTORE PUSH2 0x39FB PUSH1 0xE0 DUP8 ADD PUSH2 0x3449 JUMP JUMPDEST PUSH20 0xFFFFFFFFFFFFFFFFFFFFFFFFFFFFFFFFFFFFFFFF AND PUSH1 0xE0 DUP4 ADD MSTORE DUP3 DUP7 ADD CALLDATALOAD SWAP3 DUP3 ADD SWAP3 SWAP1 SWAP3 MSTORE PUSH2 0x120 DUP1 DUP7 ADD CALLDATALOAD SWAP1 DUP3 ADD MSTORE PUSH2 0x140 DUP1 DUP7 ADD CALLDATALOAD SWAP1 DUP3 ADD MSTORE PUSH2 0x160 DUP1 DUP7 ADD CALLDATALOAD SWAP1 DUP3 ADD MSTORE PUSH2 0x180 SWAP2 PUSH2 0x3A52 DUP4 DUP8 ADD DUP8 PUSH2 0x3800 JUMP JUMPDEST DUP3 DUP6 DUP6 ADD MSTORE PUSH2 0x3A64 DUP4 DUP6 ADD DUP3 DUP5 PUSH2 0x386B JUMP JUMPDEST SWAP5 POP POP POP POP PUSH2 0x1A0 PUSH2 0x3A77 DUP2 DUP8 ADD PUSH2 0x36DE JUMP JUMPDEST PUSH1 0xFF AND SWAP1 DUP3 ADD MSTORE PUSH2 0x1C0 DUP6 DUP2 ADD CALLDATALOAD SWAP1 DUP3 ADD MSTORE PUSH2 0x1E0 SWAP5 DUP6 ADD CALLDATALOAD SWAP5 ADD SWAP4 SWAP1 SWAP4 MSTORE POP SWAP1 SWAP3 SWAP2 POP POP JUMP JUMPDEST PUSH1 0x0 DUP1 PUSH1 0x0 PUSH1 0x60 DUP5 DUP7 SUB SLT ISZERO PUSH2 0x3AB3 JUMPI PUSH1 0x0 DUP1 REVERT JUMPDEST DUP4 MLOAD PUSH2 0x3ABE DUP2 PUSH2 0x35A4 JUMP JUMPDEST PUSH1 0x20 DUP6 ADD MLOAD PUSH1 0x40 SWAP1 SWAP6 ADD MLOAD SWAP1 SWAP7 SWAP5 SWAP6 POP SWAP4 SWAP3 POP POP POP JUMP JUMPDEST PUSH32 0x4E487B7100000000000000000000000000000000000000000000000000000000 PUSH1 0x0 MSTORE PUSH1 0x11 PUSH1 0x4 MSTORE PUSH1 0x24 PUSH1 0x0 REVERT JUMPDEST DUP2 DUP2 SUB DUP2 DUP2 GT ISZERO PUSH2 0x55A JUMPI PUSH2 0x55A PUSH2 0x3AD5 JUMP JUMPDEST PUSH32 0x4E487B7100000000000000000000000000000000000000000000000000000000 PUSH1 0x0 MSTORE PUSH1 0x32 PUSH1 0x4 MSTORE PUSH1 0x24 PUSH1 0x0 REVERT JUMPDEST PUSH1 0x0 PUSH32 0xFFFFFFFFFFFFFFFFFFFFFFFFFFFFFFFFFFFFFFFFFFFFFFFFFFFFFFFFFFFFFFFF DUP3 SUB PUSH2 0x3B77 JUMPI PUSH2 0x3B77 PUSH2 0x3AD5 JUMP JUMPDEST POP PUSH1 0x1 ADD SWAP1 JUMP JUMPDEST PUSH1 0x20 DUP2 MSTORE DUP2 PUSH1 0x20 DUP3 ADD MSTORE PUSH1 0x0 PUSH32 0x7FFFFFFFFFFFFFFFFFFFFFFFFFFFFFFFFFFFFFFFFFFFFFFFFFFFFFFFFFFFFFF DUP4 GT ISZERO PUSH2 0x3BB7 JUMPI PUSH1 0x0 DUP1 REVERT JUMPDEST DUP3 PUSH1 0x5 SHL DUP1 DUP6 PUSH1 0x40 DUP6 ADD CALLDATACOPY SWAP2 SWAP1 SWAP2 ADD PUSH1 0x40 ADD SWAP4 SWAP3 POP POP POP JUMP JUMPDEST DUP1 DUP3 ADD DUP1 DUP3 GT ISZERO PUSH2 0x55A JUMPI PUSH2 0x55A PUSH2 0x3AD5 JUMP JUMPDEST DUP15 DUP2 MSTORE DUP14 ISZERO ISZERO PUSH1 0x20 DUP3 ADD MSTORE PUSH20 0xFFFFFFFFFFFFFFFFFFFFFFFFFFFFFFFFFFFFFFFF DUP14 DUP2 AND PUSH1 0x40 DUP4 ADD MSTORE DUP13 AND PUSH1 0x60 DUP3 ADD MSTORE PUSH2 0x1C0 DUP2 ADD DUP12 PUSH1 0x80 DUP4 ADD MSTORE DUP11 PUSH1 0xA0 DUP4 ADD MSTORE DUP10 PUSH1 0xC0 DUP4 ADD MSTORE PUSH2 0x3C4B PUSH1 0xE0 DUP4 ADD DUP11 PUSH20 0xFFFFFFFFFFFFFFFFFFFFFFFFFFFFFFFFFFFFFFFF AND SWAP1 MSTORE JUMP JUMPDEST PUSH20 0xFFFFFFFFFFFFFFFFFFFFFFFFFFFFFFFFFFFFFFFF DUP9 AND PUSH2 0x100 DUP4 ADD MSTORE PUSH2 0x120 DUP3 ADD SWAP7 SWAP1 SWAP7 MSTORE PUSH2 0x140 DUP2 ADD SWAP5 SWAP1 SWAP5 MSTORE PUSH2 0x160 DUP5 ADD SWAP3 SWAP1 SWAP3 MSTORE PUSH2 0x180 DUP4 ADD MSTORE PUSH2 0x1A0 SWAP1 SWAP2 ADD MSTORE SWAP10 SWAP9 POP POP POP POP POP POP POP POP POP JUMP JUMPDEST PUSH1 0x0 PUSH1 0x20 DUP3 DUP5 SUB SLT ISZERO PUSH2 0x3CAF JUMPI PUSH1 0x0 DUP1 REVERT JUMPDEST PUSH2 0x3237 DUP3 PUSH2 0x36DE JUMP JUMPDEST PUSH1 0x0 PUSH1 0x20 DUP3 DUP5 SUB SLT ISZERO PUSH2 0x3CCA JUMPI PUSH1 0x0 DUP1 REVERT JUMPDEST DUP2 MLOAD PUSH2 0x3237 DUP2 PUSH2 0x35A4 JUMP JUMPDEST PUSH1 0x0 DUP1 PUSH1 0x40 DUP4 DUP6 SUB SLT ISZERO PUSH2 0x3CE8 JUMPI PUSH1 0x0 DUP1 REVERT JUMPDEST DUP3 MLOAD PUSH2 0x3CF3 DUP2 PUSH2 0x3427 JUMP JUMPDEST PUSH1 0x20 SWAP4 SWAP1 SWAP4 ADD MLOAD SWAP3 SWAP5 SWAP3 SWAP4 POP POP POP JUMP JUMPDEST DUP1 DUP3 MUL DUP2 ISZERO DUP3 DUP3 DIV DUP5 EQ OR PUSH2 0x55A JUMPI PUSH2 0x55A PUSH2 0x3AD5 JUMP JUMPDEST PUSH1 0x0 PUSH1 0x20 DUP3 DUP5 SUB SLT ISZERO PUSH2 0x3D2C JUMPI PUSH1 0x0 DUP1 REVERT JUMPDEST DUP2 MLOAD PUSH2 0x3237 DUP2 PUSH2 0x3427 JUMP JUMPDEST PUSH1 0x0 JUMPDEST DUP4 DUP2 LT ISZERO PUSH2 0x3D52 JUMPI DUP2 DUP2 ADD MLOAD DUP4 DUP3 ADD MSTORE PUSH1 0x20 ADD PUSH2 0x3D3A JUMP JUMPDEST POP POP PUSH1 0x0 SWAP2 ADD MSTORE JUMP JUMPDEST PUSH1 0x0 DUP2 MLOAD DUP1 DUP5 MSTORE PUSH2 0x3D73 DUP2 PUSH1 0x20 DUP7 ADD PUSH1 0x20 DUP7 ADD PUSH2 0x3D37 JUMP JUMPDEST PUSH1 0x1F ADD PUSH32 0xFFFFFFFFFFFFFFFFFFFFFFFFFFFFFFFFFFFFFFFFFFFFFFFFFFFFFFFFFFFFFFE0 AND SWAP3 SWAP1 SWAP3 ADD PUSH1 0x20 ADD SWAP3 SWAP2 POP POP JUMP JUMPDEST DUP3 DUP2 MSTORE PUSH1 0x40 PUSH1 0x20 DUP3 ADD MSTORE PUSH1 0x0 PUSH2 0x3234 PUSH1 0x40 DUP4 ADD DUP5 PUSH2 0x3D5B JUMP JUMPDEST PUSH1 0x0 PUSH1 0x20 DUP3 DUP5 SUB SLT ISZERO PUSH2 0x3DD0 JUMPI PUSH1 0x0 DUP1 REVERT JUMPDEST DUP2 MLOAD PUSH32 0xFFFFFFFF00000000000000000000000000000000000000000000000000000000 DUP2 AND DUP2 EQ PUSH2 0x3237 JUMPI PUSH1 0x0 DUP1 REVERT JUMPDEST PUSH1 0x0 PUSH1 0x20 DUP3 DUP5 SUB SLT ISZERO PUSH2 0x3E12 JUMPI PUSH1 0x0 DUP1 REVERT JUMPDEST POP MLOAD SWAP2 SWAP1 POP JUMP JUMPDEST PUSH1 0x0 DUP3 PUSH2 0x3E4F JUMPI PUSH32 0x4E487B7100000000000000000000000000000000000000000000000000000000 PUSH1 0x0 MSTORE PUSH1 0x12 PUSH1 0x4 MSTORE PUSH1 0x24 PUSH1 0x0 REVERT JUMPDEST POP DIV SWAP1 JUMP JUMPDEST PUSH1 0x0 DUP3 MLOAD PUSH2 0x3E66 DUP2 DUP5 PUSH1 0x20 DUP8 ADD PUSH2 0x3D37 JUMP JUMPDEST SWAP2 SWAP1 SWAP2 ADD SWAP3 SWAP2 POP POP JUMP JUMPDEST PUSH1 0x20 DUP2 MSTORE PUSH1 0x0 PUSH2 0x3237 PUSH1 0x20 DUP4 ADD DUP5 PUSH2 0x3D5B JUMP INVALID LOG2 PUSH5 0x6970667358 0x22 SLT KECCAK256 RETURNDATACOPY EXTCODEHASH MOD SWAP9 DUP9 0xD1 SWAP11 MSTORE8 CALLCODE 0x23 PUSH17 0x805C756B9A209E773DD85833C0BDE3D962 0xAE SWAP6 0xED CALLDATALOAD PUSH5 0x736F6C6343 STOP ADDMOD GT STOP CALLER "
				},
				"gasEstimates": {
					"creation": {
						"codeDepositCost": "3211400",
						"executionCost": "infinite",
						"totalCost": "infinite"
					},
					"external": {
						"WETH()": "infinite",
						"cancelAllOrdersForSender(uint256)": "28399",
						"cancelMultipleMakerOrders(uint256[])": "infinite",
						"currencyManager()": "2349",
						"executionManager()": "2348",
						"isUserOrderNonceExecutedOrCancelled(address,uint256)": "2681",
						"matchSellerOrders((bool,address,uint256,uint256,uint256,bytes),(bool,address,address,uint256,uint256,uint256,address,address,uint256,uint256,uint256,uint256,bytes,uint8,bytes32,bytes32))": "infinite",
						"matchSellerOrdersWETH((bool,address,uint256,uint256,uint256,bytes),(bool,address,address,uint256,uint256,uint256,address,address,uint256,uint256,uint256,uint256,bytes,uint8,bytes32,bytes32))": "infinite",
						"matchesBuyerOrder((bool,address,uint256,uint256,uint256,bytes),(bool,address,address,uint256,uint256,uint256,address,address,uint256,uint256,uint256,uint256,bytes,uint8,bytes32,bytes32))": "infinite",
						"owner()": "2363",
						"protocolFeeRecipient()": "2348",
						"renounceOwnership()": "infinite",
						"royaltyFeeManager()": "2347",
						"transferOwnership(address)": "infinite",
						"transferSelectorNFT()": "2369",
						"updateCurrencyManager(address)": "27885",
						"updateExecutionManager(address)": "27884",
						"updateProtocolFeeRecipient(address)": "27886",
						"updateRoyaltyFeeManager(address)": "27907",
						"updateTransferSelectorNFT(address)": "27928",
						"userMinOrderNonce(address)": "2569"
					},
					"internal": {
						"_calculateProtocolFee(address,uint256)": "infinite",
						"_transferFeesAndFunds(address,address,uint256,address,address,address,uint256,uint256)": "infinite",
						"_transferFeesAndFundsWithWETH(address,address,uint256,address,uint256,uint256)": "infinite",
						"_transferNonFungibleToken(address,address,address,uint256,uint256)": "infinite",
						"_validateOrder(struct OrderTypes.MakerOrder calldata,bytes32)": "infinite"
					}
				},
				"methodIdentifiers": {
					"WETH()": "ad5c4648",
					"cancelAllOrdersForSender(uint256)": "cbd2ec65",
					"cancelMultipleMakerOrders(uint256[])": "9e53a69a",
					"currencyManager()": "0f747d74",
					"executionManager()": "483abb9f",
					"isUserOrderNonceExecutedOrCancelled(address,uint256)": "31e27e27",
					"matchSellerOrders((bool,address,uint256,uint256,uint256,bytes),(bool,address,address,uint256,uint256,uint256,address,address,uint256,uint256,uint256,uint256,bytes,uint8,bytes32,bytes32))": "45ea7231",
					"matchSellerOrdersWETH((bool,address,uint256,uint256,uint256,bytes),(bool,address,address,uint256,uint256,uint256,address,address,uint256,uint256,uint256,uint256,bytes,uint8,bytes32,bytes32))": "509a1a41",
					"matchesBuyerOrder((bool,address,uint256,uint256,uint256,bytes),(bool,address,address,uint256,uint256,uint256,address,address,uint256,uint256,uint256,uint256,bytes,uint8,bytes32,bytes32))": "63521def",
					"owner()": "8da5cb5b",
					"protocolFeeRecipient()": "64df049e",
					"renounceOwnership()": "715018a6",
					"royaltyFeeManager()": "87e4401f",
					"transferOwnership(address)": "f2fde38b",
					"transferSelectorNFT()": "5e14f68e",
					"updateCurrencyManager(address)": "5ce052d7",
					"updateExecutionManager(address)": "d4ff41dc",
					"updateProtocolFeeRecipient(address)": "1df47f80",
					"updateRoyaltyFeeManager(address)": "c5498769",
					"updateTransferSelectorNFT(address)": "f75ff53f",
					"userMinOrderNonce(address)": "4266581e"
				}
			},
			"storageLayout": {
				"storage": [
					{
						"astId": 137,
						"contract": "contracts/Manager/UnemetaMarket.sol:UnemetaMarket",
						"label": "_status",
						"offset": 0,
						"slot": "0",
						"type": "t_uint256"
					},
					{
						"astId": 7,
						"contract": "contracts/Manager/UnemetaMarket.sol:UnemetaMarket",
						"label": "_owner",
						"offset": 0,
						"slot": "1",
						"type": "t_address"
					},
					{
						"astId": 962,
						"contract": "contracts/Manager/UnemetaMarket.sol:UnemetaMarket",
						"label": "protocolFeeRecipient",
						"offset": 0,
						"slot": "2",
						"type": "t_address"
					},
					{
						"astId": 965,
						"contract": "contracts/Manager/UnemetaMarket.sol:UnemetaMarket",
						"label": "currencyManager",
						"offset": 0,
						"slot": "3",
						"type": "t_contract(TheCurrencyManager)2257"
					},
					{
						"astId": 968,
						"contract": "contracts/Manager/UnemetaMarket.sol:UnemetaMarket",
						"label": "executionManager",
						"offset": 0,
						"slot": "4",
						"type": "t_contract(TheExManager)2294"
					},
					{
						"astId": 971,
						"contract": "contracts/Manager/UnemetaMarket.sol:UnemetaMarket",
						"label": "royaltyFeeManager",
						"offset": 0,
						"slot": "5",
						"type": "t_contract(TheRoyaltyManager)2310"
					},
					{
						"astId": 974,
						"contract": "contracts/Manager/UnemetaMarket.sol:UnemetaMarket",
						"label": "transferSelectorNFT",
						"offset": 0,
						"slot": "6",
						"type": "t_contract(TheTransferSelector)2368"
					},
					{
						"astId": 978,
						"contract": "contracts/Manager/UnemetaMarket.sol:UnemetaMarket",
						"label": "userMinOrderNonce",
						"offset": 0,
						"slot": "7",
						"type": "t_mapping(t_address,t_uint256)"
					},
					{
						"astId": 984,
						"contract": "contracts/Manager/UnemetaMarket.sol:UnemetaMarket",
						"label": "_theUserOrderExecutedOrCancelled",
						"offset": 0,
						"slot": "8",
						"type": "t_mapping(t_address,t_mapping(t_uint256,t_bool))"
					}
				],
				"types": {
					"t_address": {
						"encoding": "inplace",
						"label": "address",
						"numberOfBytes": "20"
					},
					"t_bool": {
						"encoding": "inplace",
						"label": "bool",
						"numberOfBytes": "1"
					},
					"t_contract(TheCurrencyManager)2257": {
						"encoding": "inplace",
						"label": "contract TheCurrencyManager",
						"numberOfBytes": "20"
					},
					"t_contract(TheExManager)2294": {
						"encoding": "inplace",
						"label": "contract TheExManager",
						"numberOfBytes": "20"
					},
					"t_contract(TheRoyaltyManager)2310": {
						"encoding": "inplace",
						"label": "contract TheRoyaltyManager",
						"numberOfBytes": "20"
					},
					"t_contract(TheTransferSelector)2368": {
						"encoding": "inplace",
						"label": "contract TheTransferSelector",
						"numberOfBytes": "20"
					},
					"t_mapping(t_address,t_mapping(t_uint256,t_bool))": {
						"encoding": "mapping",
						"key": "t_address",
						"label": "mapping(address => mapping(uint256 => bool))",
						"numberOfBytes": "32",
						"value": "t_mapping(t_uint256,t_bool)"
					},
					"t_mapping(t_address,t_uint256)": {
						"encoding": "mapping",
						"key": "t_address",
						"label": "mapping(address => uint256)",
						"numberOfBytes": "32",
						"value": "t_uint256"
					},
					"t_mapping(t_uint256,t_bool)": {
						"encoding": "mapping",
						"key": "t_uint256",
						"label": "mapping(uint256 => bool)",
						"numberOfBytes": "32",
						"value": "t_bool"
					},
					"t_uint256": {
						"encoding": "inplace",
						"label": "uint256",
						"numberOfBytes": "32"
					}
				}
			},
			"userdoc": {
				"kind": "user",
				"methods": {},
				"version": 1
			}
		}
	}
}