{
	"contracts/Manager/CurrencyManager.sol": {
		"CurrencyManager": {
			"abi": [
				{
					"anonymous": false,
					"inputs": [
						{
							"indexed": true,
							"internalType": "address",
							"name": "currency",
							"type": "address"
						}
					],
					"name": "CurrencyRemoved",
					"type": "event"
				},
				{
					"anonymous": false,
					"inputs": [
						{
							"indexed": true,
							"internalType": "address",
							"name": "currency",
							"type": "address"
						}
					],
					"name": "CurrencyWhitelisted",
					"type": "event"
				},
				{
					"anonymous": false,
					"inputs": [
						{
							"indexed": true,
							"internalType": "address",
							"name": "previousOwner",
							"type": "address"
						},
						{
							"indexed": true,
							"internalType": "address",
							"name": "newOwner",
							"type": "address"
						}
					],
					"name": "OwnershipTransferred",
					"type": "event"
				},
				{
					"inputs": [
						{
							"internalType": "address",
							"name": "currency",
							"type": "address"
						}
					],
					"name": "addCurrency",
					"outputs": [],
					"stateMutability": "nonpayable",
					"type": "function"
				},
				{
					"inputs": [
						{
							"internalType": "address",
							"name": "currency",
							"type": "address"
						}
					],
					"name": "isCurrencyWhitelisted",
					"outputs": [
						{
							"internalType": "bool",
							"name": "",
							"type": "bool"
						}
					],
					"stateMutability": "view",
					"type": "function"
				},
				{
					"inputs": [],
					"name": "owner",
					"outputs": [
						{
							"internalType": "address",
							"name": "",
							"type": "address"
						}
					],
					"stateMutability": "view",
					"type": "function"
				},
				{
					"inputs": [
						{
							"internalType": "address",
							"name": "currency",
							"type": "address"
						}
					],
					"name": "removeCurrency",
					"outputs": [],
					"stateMutability": "nonpayable",
					"type": "function"
				},
				{
					"inputs": [],
					"name": "renounceOwnership",
					"outputs": [],
					"stateMutability": "nonpayable",
					"type": "function"
				},
				{
					"inputs": [
						{
							"internalType": "address",
							"name": "newOwner",
							"type": "address"
						}
					],
					"name": "transferOwnership",
					"outputs": [],
					"stateMutability": "nonpayable",
					"type": "function"
				},
				{
					"inputs": [],
					"name": "viewCountWhitelistedCurrencies",
					"outputs": [
						{
							"internalType": "uint256",
							"name": "",
							"type": "uint256"
						}
					],
					"stateMutability": "view",
					"type": "function"
				},
				{
					"inputs": [
						{
							"internalType": "uint256",
							"name": "cursor",
							"type": "uint256"
						},
						{
							"internalType": "uint256",
							"name": "size",
							"type": "uint256"
						}
					],
					"name": "viewWhitelistedCurrencies",
					"outputs": [
						{
							"internalType": "address[]",
							"name": "",
							"type": "address[]"
						},
						{
							"internalType": "uint256",
							"name": "",
							"type": "uint256"
						}
					],
					"stateMutability": "view",
					"type": "function"
				}
			],
			"devdoc": {
				"kind": "dev",
				"methods": {
					"owner()": {
						"details": "Returns the address of the current owner."
					},
					"renounceOwnership()": {
						"details": "Leaves the contract without owner. It will not be possible to call `onlyOwner` functions anymore. Can only be called by the current owner. NOTE: Renouncing ownership will leave the contract without an owner, thereby removing any functionality that is only available to the owner."
					},
					"transferOwnership(address)": {
						"details": "Transfers ownership of the contract to a new account (`newOwner`). Can only be called by the current owner."
					}
				},
				"version": 1
			},
			"evm": {
				"assembly": "    /* \"contracts/Manager/CurrencyManager.sol\":337:2889  contract CurrencyManager is TheCurrencyManager, Ownable {... */\n  mstore(0x40, 0x80)\n  callvalue\n  dup1\n  iszero\n  tag_1\n  jumpi\n  0x00\n  dup1\n  revert\ntag_1:\n  pop\n    /* \"@openzeppelin/contracts/access/Ownable.sol\":936:968  _transferOwnership(_msgSender()) */\n  tag_4\n    /* \"@openzeppelin/contracts/utils/Context.sol\":719:729  msg.sender */\n  caller\n    /* \"@openzeppelin/contracts/access/Ownable.sol\":936:954  _transferOwnership */\n  tag_7\n    /* \"@openzeppelin/contracts/access/Ownable.sol\":936:968  _transferOwnership(_msgSender()) */\n  jump\t// in\ntag_4:\n    /* \"contracts/Manager/CurrencyManager.sol\":337:2889  contract CurrencyManager is TheCurrencyManager, Ownable {... */\n  jump(tag_8)\n    /* \"@openzeppelin/contracts/access/Ownable.sol\":2433:2620  function _transferOwnership(address newOwner) internal virtual {... */\ntag_7:\n    /* \"@openzeppelin/contracts/access/Ownable.sol\":2506:2522  address oldOwner */\n  0x00\n    /* \"@openzeppelin/contracts/access/Ownable.sol\":2525:2531  _owner */\n  dup1\n  sload\n  sub(shl(0xa0, 0x01), 0x01)\n    /* \"@openzeppelin/contracts/access/Ownable.sol\":2541:2558  _owner = newOwner */\n  dup4\n  dup2\n  and\n  not(sub(shl(0xa0, 0x01), 0x01))\n  dup4\n  and\n  dup2\n  or\n  dup5\n  sstore\n    /* \"@openzeppelin/contracts/access/Ownable.sol\":2573:2613  OwnershipTransferred(oldOwner, newOwner) */\n  mload(0x40)\n    /* \"@openzeppelin/contracts/access/Ownable.sol\":2525:2531  _owner */\n  swap2\n  swap1\n  swap3\n  and\n  swap3\n  dup4\n  swap2\n    /* \"@openzeppelin/contracts/access/Ownable.sol\":2573:2613  OwnershipTransferred(oldOwner, newOwner) */\n  0x8be0079c531659141344cd1fd0a4f28419497f9722a3daafe3b4186f6b6457e0\n  swap2\n    /* \"@openzeppelin/contracts/access/Ownable.sol\":2506:2522  address oldOwner */\n  swap1\n    /* \"@openzeppelin/contracts/access/Ownable.sol\":2573:2613  OwnershipTransferred(oldOwner, newOwner) */\n  log3\n    /* \"@openzeppelin/contracts/access/Ownable.sol\":2496:2620  {... */\n  pop\n    /* \"@openzeppelin/contracts/access/Ownable.sol\":2433:2620  function _transferOwnership(address newOwner) internal virtual {... */\n  pop\n  jump\t// out\n    /* \"contracts/Manager/CurrencyManager.sol\":337:2889  contract CurrencyManager is TheCurrencyManager, Ownable {... */\ntag_8:\n  dataSize(sub_0)\n  dup1\n  dataOffset(sub_0)\n  0x00\n  codecopy\n  0x00\n  return\nstop\n\nsub_0: assembly {\n        /* \"contracts/Manager/CurrencyManager.sol\":337:2889  contract CurrencyManager is TheCurrencyManager, Ownable {... */\n      mstore(0x40, 0x80)\n      callvalue\n      dup1\n      iszero\n      tag_1\n      jumpi\n      0x00\n      dup1\n      revert\n    tag_1:\n      pop\n      jumpi(tag_2, lt(calldatasize, 0x04))\n      shr(0xe0, calldataload(0x00))\n      dup1\n      0x8ab234b6\n      gt\n      tag_11\n      jumpi\n      dup1\n      0x8ab234b6\n      eq\n      tag_7\n      jumpi\n      dup1\n      0x8da5cb5b\n      eq\n      tag_8\n      jumpi\n      dup1\n      0xc5d3a107\n      eq\n      tag_9\n      jumpi\n      dup1\n      0xf2fde38b\n      eq\n      tag_10\n      jumpi\n      0x00\n      dup1\n      revert\n    tag_11:\n      dup1\n      0x1facfd9c\n      eq\n      tag_3\n      jumpi\n      dup1\n      0x43b938c5\n      eq\n      tag_4\n      jumpi\n      dup1\n      0x715018a6\n      eq\n      tag_5\n      jumpi\n      dup1\n      0x85f39b0a\n      eq\n      tag_6\n      jumpi\n    tag_2:\n      0x00\n      dup1\n      revert\n        /* \"contracts/Manager/CurrencyManager.sol\":1966:2104  function viewCountWhitelistedCurrencies() external view override returns (uint256) {... */\n    tag_3:\n      tag_12\n      tag_13\n      jump\t// in\n    tag_12:\n      mload(0x40)\n        /* \"#utility.yul\":160:185   */\n      swap1\n      dup2\n      mstore\n        /* \"#utility.yul\":148:150   */\n      0x20\n        /* \"#utility.yul\":133:151   */\n      add\n        /* \"contracts/Manager/CurrencyManager.sol\":1966:2104  function viewCountWhitelistedCurrencies() external view override returns (uint256) {... */\n    tag_14:\n      mload(0x40)\n      dup1\n      swap2\n      sub\n      swap1\n      return\n        /* \"contracts/Manager/CurrencyManager.sol\":1661:1813  function isCurrencyWhitelisted(address currency) external view override returns (bool) {... */\n    tag_4:\n      tag_16\n      tag_17\n      calldatasize\n      0x04\n      tag_18\n      jump\t// in\n    tag_17:\n      tag_19\n      jump\t// in\n    tag_16:\n      mload(0x40)\n        /* \"#utility.yul\":652:666   */\n      swap1\n      iszero\n        /* \"#utility.yul\":645:667   */\n      iszero\n        /* \"#utility.yul\":627:668   */\n      dup2\n      mstore\n        /* \"#utility.yul\":615:617   */\n      0x20\n        /* \"#utility.yul\":600:618   */\n      add\n        /* \"contracts/Manager/CurrencyManager.sol\":1661:1813  function isCurrencyWhitelisted(address currency) external view override returns (bool) {... */\n      tag_14\n        /* \"#utility.yul\":487:674   */\n      jump\n        /* \"@openzeppelin/contracts/access/Ownable.sol\":1831:1932  function renounceOwnership() public virtual onlyOwner {... */\n    tag_5:\n      tag_22\n      tag_23\n      jump\t// in\n    tag_22:\n      stop\n        /* \"contracts/Manager/CurrencyManager.sol\":2299:2887  function viewWhitelistedCurrencies(uint256 cursor, uint256 size)... */\n    tag_6:\n      tag_24\n      tag_25\n      calldatasize\n      0x04\n      tag_26\n      jump\t// in\n    tag_25:\n      tag_27\n      jump\t// in\n    tag_24:\n      mload(0x40)\n      tag_14\n      swap3\n      swap2\n      swap1\n      tag_29\n      jump\t// in\n        /* \"contracts/Manager/CurrencyManager.sol\":754:1056  function addCurrency(address currency) external override onlyOwner {... */\n    tag_7:\n      tag_22\n      tag_31\n      calldatasize\n      0x04\n      tag_18\n      jump\t// in\n    tag_31:\n      tag_32\n      jump\t// in\n        /* \"@openzeppelin/contracts/access/Ownable.sol\":1201:1286  function owner() public view virtual returns (address) {... */\n    tag_8:\n        /* \"@openzeppelin/contracts/access/Ownable.sol\":1247:1254  address */\n      0x00\n        /* \"@openzeppelin/contracts/access/Ownable.sol\":1273:1279  _owner */\n      sload\n        /* \"@openzeppelin/contracts/access/Ownable.sol\":1201:1286  function owner() public view virtual returns (address) {... */\n      mload(0x40)\n      sub(shl(0xa0, 0x01), 0x01)\n        /* \"@openzeppelin/contracts/access/Ownable.sol\":1273:1279  _owner */\n      swap1\n      swap2\n      and\n        /* \"#utility.yul\":1814:1865   */\n      dup2\n      mstore\n        /* \"#utility.yul\":1802:1804   */\n      0x20\n        /* \"#utility.yul\":1787:1805   */\n      add\n        /* \"@openzeppelin/contracts/access/Ownable.sol\":1201:1286  function owner() public view virtual returns (address) {... */\n      tag_14\n        /* \"#utility.yul\":1668:1871   */\n      jump\n        /* \"contracts/Manager/CurrencyManager.sol\":1195:1496  function removeCurrency(address currency) external override onlyOwner {... */\n    tag_9:\n      tag_22\n      tag_38\n      calldatasize\n      0x04\n      tag_18\n      jump\t// in\n    tag_38:\n      tag_39\n      jump\t// in\n        /* \"@openzeppelin/contracts/access/Ownable.sol\":2081:2279  function transferOwnership(address newOwner) public virtual onlyOwner {... */\n    tag_10:\n      tag_22\n      tag_41\n      calldatasize\n      0x04\n      tag_18\n      jump\t// in\n    tag_41:\n      tag_42\n      jump\t// in\n        /* \"contracts/Manager/CurrencyManager.sol\":1966:2104  function viewCountWhitelistedCurrencies() external view override returns (uint256) {... */\n    tag_13:\n        /* \"contracts/Manager/CurrencyManager.sol\":2040:2047  uint256 */\n      0x00\n        /* \"contracts/Manager/CurrencyManager.sol\":2066:2097  _whitelistedCurrencies.length() */\n      tag_44\n        /* \"contracts/Manager/CurrencyManager.sol\":2066:2088  _whitelistedCurrencies */\n      0x01\n        /* \"contracts/Manager/CurrencyManager.sol\":2066:2095  _whitelistedCurrencies.length */\n      tag_45\n        /* \"contracts/Manager/CurrencyManager.sol\":2066:2097  _whitelistedCurrencies.length() */\n      jump\t// in\n    tag_44:\n        /* \"contracts/Manager/CurrencyManager.sol\":2059:2097  return _whitelistedCurrencies.length() */\n      swap1\n      pop\n        /* \"contracts/Manager/CurrencyManager.sol\":1966:2104  function viewCountWhitelistedCurrencies() external view override returns (uint256) {... */\n      swap1\n      jump\t// out\n        /* \"contracts/Manager/CurrencyManager.sol\":1661:1813  function isCurrencyWhitelisted(address currency) external view override returns (bool) {... */\n    tag_19:\n        /* \"contracts/Manager/CurrencyManager.sol\":1742:1746  bool */\n      0x00\n        /* \"contracts/Manager/CurrencyManager.sol\":1765:1806  _whitelistedCurrencies.contains(currency) */\n      tag_47\n        /* \"contracts/Manager/CurrencyManager.sol\":1765:1787  _whitelistedCurrencies */\n      0x01\n        /* \"contracts/Manager/CurrencyManager.sol\":1797:1805  currency */\n      dup4\n        /* \"contracts/Manager/CurrencyManager.sol\":1765:1796  _whitelistedCurrencies.contains */\n      tag_48\n        /* \"contracts/Manager/CurrencyManager.sol\":1765:1806  _whitelistedCurrencies.contains(currency) */\n      jump\t// in\n    tag_47:\n        /* \"contracts/Manager/CurrencyManager.sol\":1758:1806  return _whitelistedCurrencies.contains(currency) */\n      swap3\n        /* \"contracts/Manager/CurrencyManager.sol\":1661:1813  function isCurrencyWhitelisted(address currency) external view override returns (bool) {... */\n      swap2\n      pop\n      pop\n      jump\t// out\n        /* \"@openzeppelin/contracts/access/Ownable.sol\":1831:1932  function renounceOwnership() public virtual onlyOwner {... */\n    tag_23:\n        /* \"@openzeppelin/contracts/access/Ownable.sol\":1094:1107  _checkOwner() */\n      tag_50\n        /* \"@openzeppelin/contracts/access/Ownable.sol\":1094:1105  _checkOwner */\n      tag_51\n        /* \"@openzeppelin/contracts/access/Ownable.sol\":1094:1107  _checkOwner() */\n      jump\t// in\n    tag_50:\n        /* \"@openzeppelin/contracts/access/Ownable.sol\":1895:1925  _transferOwnership(address(0)) */\n      tag_53\n        /* \"@openzeppelin/contracts/access/Ownable.sol\":1922:1923  0 */\n      0x00\n        /* \"@openzeppelin/contracts/access/Ownable.sol\":1895:1913  _transferOwnership */\n      tag_54\n        /* \"@openzeppelin/contracts/access/Ownable.sol\":1895:1925  _transferOwnership(address(0)) */\n      jump\t// in\n    tag_53:\n        /* \"@openzeppelin/contracts/access/Ownable.sol\":1831:1932  function renounceOwnership() public virtual onlyOwner {... */\n      jump\t// out\n        /* \"contracts/Manager/CurrencyManager.sol\":2299:2887  function viewWhitelistedCurrencies(uint256 cursor, uint256 size)... */\n    tag_27:\n        /* \"contracts/Manager/CurrencyManager.sol\":2412:2428  address[] memory */\n      0x60\n        /* \"contracts/Manager/CurrencyManager.sol\":2430:2437  uint256 */\n      0x00\n        /* \"contracts/Manager/CurrencyManager.sol\":2470:2474  size */\n      dup3\n        /* \"contracts/Manager/CurrencyManager.sol\":2532:2538  cursor */\n      dup5\n        /* \"contracts/Manager/CurrencyManager.sol\":2498:2529  _whitelistedCurrencies.length() */\n      tag_56\n        /* \"contracts/Manager/CurrencyManager.sol\":2498:2520  _whitelistedCurrencies */\n      0x01\n        /* \"contracts/Manager/CurrencyManager.sol\":2498:2527  _whitelistedCurrencies.length */\n      tag_45\n        /* \"contracts/Manager/CurrencyManager.sol\":2498:2529  _whitelistedCurrencies.length() */\n      jump\t// in\n    tag_56:\n        /* \"contracts/Manager/CurrencyManager.sol\":2498:2538  _whitelistedCurrencies.length() - cursor */\n      tag_57\n      swap2\n      swap1\n      tag_58\n      jump\t// in\n    tag_57:\n        /* \"contracts/Manager/CurrencyManager.sol\":2489:2495  length */\n      dup2\n        /* \"contracts/Manager/CurrencyManager.sol\":2489:2538  length > _whitelistedCurrencies.length() - cursor */\n      gt\n        /* \"contracts/Manager/CurrencyManager.sol\":2485:2614  if (length > _whitelistedCurrencies.length() - cursor) {... */\n      iszero\n      tag_59\n      jumpi\n        /* \"contracts/Manager/CurrencyManager.sol\":2597:2603  cursor */\n      dup5\n        /* \"contracts/Manager/CurrencyManager.sol\":2563:2594  _whitelistedCurrencies.length() */\n      tag_60\n        /* \"contracts/Manager/CurrencyManager.sol\":2563:2585  _whitelistedCurrencies */\n      0x01\n        /* \"contracts/Manager/CurrencyManager.sol\":2563:2592  _whitelistedCurrencies.length */\n      tag_45\n        /* \"contracts/Manager/CurrencyManager.sol\":2563:2594  _whitelistedCurrencies.length() */\n      jump\t// in\n    tag_60:\n        /* \"contracts/Manager/CurrencyManager.sol\":2563:2603  _whitelistedCurrencies.length() - cursor */\n      tag_61\n      swap2\n      swap1\n      tag_58\n      jump\t// in\n    tag_61:\n        /* \"contracts/Manager/CurrencyManager.sol\":2554:2603  length = _whitelistedCurrencies.length() - cursor */\n      swap1\n      pop\n        /* \"contracts/Manager/CurrencyManager.sol\":2485:2614  if (length > _whitelistedCurrencies.length() - cursor) {... */\n    tag_59:\n        /* \"contracts/Manager/CurrencyManager.sol\":2624:2662  address[] memory whitelistedCurrencies */\n      0x00\n        /* \"contracts/Manager/CurrencyManager.sol\":2679:2685  length */\n      dup2\n        /* \"contracts/Manager/CurrencyManager.sol\":2665:2686  new address[](length) */\n      0xffffffffffffffff\n      dup2\n      gt\n      iszero\n      tag_63\n      jumpi\n      tag_63\n      tag_64\n      jump\t// in\n    tag_63:\n      mload(0x40)\n      swap1\n      dup1\n      dup3\n      mstore\n      dup1\n      0x20\n      mul\n      0x20\n      add\n      dup3\n      add\n      0x40\n      mstore\n      dup1\n      iszero\n      tag_65\n      jumpi\n      dup2\n      0x20\n      add\n      0x20\n      dup3\n      mul\n      dup1\n      calldatasize\n      dup4\n      calldatacopy\n      add\n      swap1\n      pop\n    tag_65:\n      pop\n        /* \"contracts/Manager/CurrencyManager.sol\":2624:2686  address[] memory whitelistedCurrencies = new address[](length) */\n      swap1\n      pop\n        /* \"contracts/Manager/CurrencyManager.sol\":2702:2711  uint256 i */\n      0x00\n        /* \"contracts/Manager/CurrencyManager.sol\":2697:2823  for (uint256 i = 0; i < length; i++) {... */\n    tag_66:\n        /* \"contracts/Manager/CurrencyManager.sol\":2721:2727  length */\n      dup3\n        /* \"contracts/Manager/CurrencyManager.sol\":2717:2718  i */\n      dup2\n        /* \"contracts/Manager/CurrencyManager.sol\":2717:2727  i < length */\n      lt\n        /* \"contracts/Manager/CurrencyManager.sol\":2697:2823  for (uint256 i = 0; i < length; i++) {... */\n      iszero\n      tag_67\n      jumpi\n        /* \"contracts/Manager/CurrencyManager.sol\":2775:2812  _whitelistedCurrencies.at(cursor + i) */\n      tag_69\n        /* \"contracts/Manager/CurrencyManager.sol\":2801:2811  cursor + i */\n      tag_70\n        /* \"contracts/Manager/CurrencyManager.sol\":2810:2811  i */\n      dup3\n        /* \"contracts/Manager/CurrencyManager.sol\":2801:2807  cursor */\n      dup10\n        /* \"contracts/Manager/CurrencyManager.sol\":2801:2811  cursor + i */\n      tag_71\n      jump\t// in\n    tag_70:\n        /* \"contracts/Manager/CurrencyManager.sol\":2775:2797  _whitelistedCurrencies */\n      0x01\n      swap1\n        /* \"contracts/Manager/CurrencyManager.sol\":2775:2800  _whitelistedCurrencies.at */\n      tag_72\n        /* \"contracts/Manager/CurrencyManager.sol\":2775:2812  _whitelistedCurrencies.at(cursor + i) */\n      jump\t// in\n    tag_69:\n        /* \"contracts/Manager/CurrencyManager.sol\":2748:2769  whitelistedCurrencies */\n      dup3\n        /* \"contracts/Manager/CurrencyManager.sol\":2770:2771  i */\n      dup3\n        /* \"contracts/Manager/CurrencyManager.sol\":2748:2772  whitelistedCurrencies[i] */\n      dup2\n      mload\n      dup2\n      lt\n      tag_74\n      jumpi\n      tag_74\n      tag_75\n      jump\t// in\n    tag_74:\n      sub(shl(0xa0, 0x01), 0x01)\n        /* \"contracts/Manager/CurrencyManager.sol\":2748:2812  whitelistedCurrencies[i] = _whitelistedCurrencies.at(cursor + i) */\n      swap1\n      swap3\n      and\n        /* \"contracts/Manager/CurrencyManager.sol\":2748:2772  whitelistedCurrencies[i] */\n      0x20\n      swap3\n      dup4\n      mul\n      swap2\n      swap1\n      swap2\n      add\n      swap1\n      swap2\n      add\n        /* \"contracts/Manager/CurrencyManager.sol\":2748:2812  whitelistedCurrencies[i] = _whitelistedCurrencies.at(cursor + i) */\n      mstore\n        /* \"contracts/Manager/CurrencyManager.sol\":2729:2732  i++ */\n      dup1\n      tag_76\n      dup2\n      tag_77\n      jump\t// in\n    tag_76:\n      swap2\n      pop\n      pop\n        /* \"contracts/Manager/CurrencyManager.sol\":2697:2823  for (uint256 i = 0; i < length; i++) {... */\n      jump(tag_66)\n    tag_67:\n      pop\n        /* \"contracts/Manager/CurrencyManager.sol\":2841:2862  whitelistedCurrencies */\n      dup1\n        /* \"contracts/Manager/CurrencyManager.sol\":2864:2879  cursor + length */\n      tag_78\n        /* \"contracts/Manager/CurrencyManager.sol\":2873:2879  length */\n      dup4\n        /* \"contracts/Manager/CurrencyManager.sol\":2864:2870  cursor */\n      dup9\n        /* \"contracts/Manager/CurrencyManager.sol\":2864:2879  cursor + length */\n      tag_71\n      jump\t// in\n    tag_78:\n        /* \"contracts/Manager/CurrencyManager.sol\":2833:2880  return (whitelistedCurrencies, cursor + length) */\n      swap4\n      pop\n      swap4\n      pop\n      pop\n      pop\n        /* \"contracts/Manager/CurrencyManager.sol\":2299:2887  function viewWhitelistedCurrencies(uint256 cursor, uint256 size)... */\n      swap3\n      pop\n      swap3\n      swap1\n      pop\n      jump\t// out\n        /* \"contracts/Manager/CurrencyManager.sol\":754:1056  function addCurrency(address currency) external override onlyOwner {... */\n    tag_32:\n        /* \"@openzeppelin/contracts/access/Ownable.sol\":1094:1107  _checkOwner() */\n      tag_80\n        /* \"@openzeppelin/contracts/access/Ownable.sol\":1094:1105  _checkOwner */\n      tag_51\n        /* \"@openzeppelin/contracts/access/Ownable.sol\":1094:1107  _checkOwner() */\n      jump\t// in\n    tag_80:\n        /* \"contracts/Manager/CurrencyManager.sol\":892:933  _whitelistedCurrencies.contains(currency) */\n      tag_82\n        /* \"contracts/Manager/CurrencyManager.sol\":892:914  _whitelistedCurrencies */\n      0x01\n        /* \"contracts/Manager/CurrencyManager.sol\":924:932  currency */\n      dup3\n        /* \"contracts/Manager/CurrencyManager.sol\":892:923  _whitelistedCurrencies.contains */\n      tag_48\n        /* \"contracts/Manager/CurrencyManager.sol\":892:933  _whitelistedCurrencies.contains(currency) */\n      jump\t// in\n    tag_82:\n        /* \"contracts/Manager/CurrencyManager.sol\":891:933  !_whitelistedCurrencies.contains(currency) */\n      iszero\n        /* \"contracts/Manager/CurrencyManager.sol\":883:958  require(!_whitelistedCurrencies.contains(currency), \" Already whitelisted\") */\n      tag_83\n      jumpi\n      mload(0x40)\n      shl(0xe5, 0x461bcd)\n      dup2\n      mstore\n        /* \"#utility.yul\":2877:2879   */\n      0x20\n        /* \"contracts/Manager/CurrencyManager.sol\":883:958  require(!_whitelistedCurrencies.contains(currency), \" Already whitelisted\") */\n      0x04\n      dup3\n      add\n        /* \"#utility.yul\":2859:2880   */\n      mstore\n        /* \"#utility.yul\":2916:2918   */\n      0x14\n        /* \"#utility.yul\":2896:2914   */\n      0x24\n      dup3\n      add\n        /* \"#utility.yul\":2889:2919   */\n      mstore\n      shl(0x62, 0x08105b1c9958591e481dda1a5d195b1a5cdd1959)\n        /* \"#utility.yul\":2935:2953   */\n      0x44\n      dup3\n      add\n        /* \"#utility.yul\":2928:2978   */\n      mstore\n        /* \"#utility.yul\":2995:3013   */\n      0x64\n      add\n        /* \"contracts/Manager/CurrencyManager.sol\":883:958  require(!_whitelistedCurrencies.contains(currency), \" Already whitelisted\") */\n    tag_84:\n      mload(0x40)\n      dup1\n      swap2\n      sub\n      swap1\n      revert\n    tag_83:\n        /* \"contracts/Manager/CurrencyManager.sol\":968:1004  _whitelistedCurrencies.add(currency) */\n      tag_86\n        /* \"contracts/Manager/CurrencyManager.sol\":968:990  _whitelistedCurrencies */\n      0x01\n        /* \"contracts/Manager/CurrencyManager.sol\":995:1003  currency */\n      dup3\n        /* \"contracts/Manager/CurrencyManager.sol\":968:994  _whitelistedCurrencies.add */\n      tag_87\n        /* \"contracts/Manager/CurrencyManager.sol\":968:1004  _whitelistedCurrencies.add(currency) */\n      jump\t// in\n    tag_86:\n      pop\n        /* \"contracts/Manager/CurrencyManager.sol\":1020:1049  CurrencyWhitelisted(currency) */\n      mload(0x40)\n      sub(shl(0xa0, 0x01), 0x01)\n      dup3\n      and\n      swap1\n      0x3cbf62b327efb2d06d36e16c10a2f5c00cf0568e2b805bd56969b15d27361078\n      swap1\n      0x00\n      swap1\n      log2\n        /* \"contracts/Manager/CurrencyManager.sol\":754:1056  function addCurrency(address currency) external override onlyOwner {... */\n      pop\n      jump\t// out\n        /* \"contracts/Manager/CurrencyManager.sol\":1195:1496  function removeCurrency(address currency) external override onlyOwner {... */\n    tag_39:\n        /* \"@openzeppelin/contracts/access/Ownable.sol\":1094:1107  _checkOwner() */\n      tag_90\n        /* \"@openzeppelin/contracts/access/Ownable.sol\":1094:1105  _checkOwner */\n      tag_51\n        /* \"@openzeppelin/contracts/access/Ownable.sol\":1094:1107  _checkOwner() */\n      jump\t// in\n    tag_90:\n        /* \"contracts/Manager/CurrencyManager.sol\":1337:1378  _whitelistedCurrencies.contains(currency) */\n      tag_92\n        /* \"contracts/Manager/CurrencyManager.sol\":1337:1359  _whitelistedCurrencies */\n      0x01\n        /* \"contracts/Manager/CurrencyManager.sol\":1369:1377  currency */\n      dup3\n        /* \"contracts/Manager/CurrencyManager.sol\":1337:1368  _whitelistedCurrencies.contains */\n      tag_48\n        /* \"contracts/Manager/CurrencyManager.sol\":1337:1378  _whitelistedCurrencies.contains(currency) */\n      jump\t// in\n    tag_92:\n        /* \"contracts/Manager/CurrencyManager.sol\":1329:1399  require(_whitelistedCurrencies.contains(currency), \" Not whitelisted\") */\n      tag_93\n      jumpi\n      mload(0x40)\n      shl(0xe5, 0x461bcd)\n      dup2\n      mstore\n        /* \"#utility.yul\":3226:3228   */\n      0x20\n        /* \"contracts/Manager/CurrencyManager.sol\":1329:1399  require(_whitelistedCurrencies.contains(currency), \" Not whitelisted\") */\n      0x04\n      dup3\n      add\n        /* \"#utility.yul\":3208:3229   */\n      mstore\n        /* \"#utility.yul\":3265:3267   */\n      0x10\n        /* \"#utility.yul\":3245:3263   */\n      0x24\n      dup3\n      add\n        /* \"#utility.yul\":3238:3268   */\n      mstore\n      shl(0x82, 0x08139bdd081dda1a5d195b1a5cdd1959)\n        /* \"#utility.yul\":3284:3302   */\n      0x44\n      dup3\n      add\n        /* \"#utility.yul\":3277:3323   */\n      mstore\n        /* \"#utility.yul\":3340:3358   */\n      0x64\n      add\n        /* \"contracts/Manager/CurrencyManager.sol\":1329:1399  require(_whitelistedCurrencies.contains(currency), \" Not whitelisted\") */\n      tag_84\n        /* \"#utility.yul\":3024:3364   */\n      jump\n        /* \"contracts/Manager/CurrencyManager.sol\":1329:1399  require(_whitelistedCurrencies.contains(currency), \" Not whitelisted\") */\n    tag_93:\n        /* \"contracts/Manager/CurrencyManager.sol\":1409:1448  _whitelistedCurrencies.remove(currency) */\n      tag_96\n        /* \"contracts/Manager/CurrencyManager.sol\":1409:1431  _whitelistedCurrencies */\n      0x01\n        /* \"contracts/Manager/CurrencyManager.sol\":1439:1447  currency */\n      dup3\n        /* \"contracts/Manager/CurrencyManager.sol\":1409:1438  _whitelistedCurrencies.remove */\n      tag_97\n        /* \"contracts/Manager/CurrencyManager.sol\":1409:1448  _whitelistedCurrencies.remove(currency) */\n      jump\t// in\n    tag_96:\n      pop\n        /* \"contracts/Manager/CurrencyManager.sol\":1464:1489  CurrencyRemoved(currency) */\n      mload(0x40)\n      sub(shl(0xa0, 0x01), 0x01)\n      dup3\n      and\n      swap1\n      0xa40d69111be14f29022626d38310e47cc2d7f4cb728961509c2f65a4bee08c5b\n      swap1\n      0x00\n      swap1\n      log2\n        /* \"contracts/Manager/CurrencyManager.sol\":1195:1496  function removeCurrency(address currency) external override onlyOwner {... */\n      pop\n      jump\t// out\n        /* \"@openzeppelin/contracts/access/Ownable.sol\":2081:2279  function transferOwnership(address newOwner) public virtual onlyOwner {... */\n    tag_42:\n        /* \"@openzeppelin/contracts/access/Ownable.sol\":1094:1107  _checkOwner() */\n      tag_99\n        /* \"@openzeppelin/contracts/access/Ownable.sol\":1094:1105  _checkOwner */\n      tag_51\n        /* \"@openzeppelin/contracts/access/Ownable.sol\":1094:1107  _checkOwner() */\n      jump\t// in\n    tag_99:\n      sub(shl(0xa0, 0x01), 0x01)\n        /* \"@openzeppelin/contracts/access/Ownable.sol\":2169:2191  newOwner != address(0) */\n      dup2\n      and\n        /* \"@openzeppelin/contracts/access/Ownable.sol\":2161:2234  require(newOwner != address(0), \"Ownable: new owner is the zero address\") */\n      tag_101\n      jumpi\n      mload(0x40)\n      shl(0xe5, 0x461bcd)\n      dup2\n      mstore\n        /* \"#utility.yul\":3571:3573   */\n      0x20\n        /* \"@openzeppelin/contracts/access/Ownable.sol\":2161:2234  require(newOwner != address(0), \"Ownable: new owner is the zero address\") */\n      0x04\n      dup3\n      add\n        /* \"#utility.yul\":3553:3574   */\n      mstore\n        /* \"#utility.yul\":3610:3612   */\n      0x26\n        /* \"#utility.yul\":3590:3608   */\n      0x24\n      dup3\n      add\n        /* \"#utility.yul\":3583:3613   */\n      mstore\n        /* \"#utility.yul\":3649:3683   */\n      0x4f776e61626c653a206e6577206f776e657220697320746865207a65726f2061\n        /* \"#utility.yul\":3629:3647   */\n      0x44\n      dup3\n      add\n        /* \"#utility.yul\":3622:3684   */\n      mstore\n      shl(0xd0, 0x646472657373)\n        /* \"#utility.yul\":3700:3718   */\n      0x64\n      dup3\n      add\n        /* \"#utility.yul\":3693:3729   */\n      mstore\n        /* \"#utility.yul\":3746:3765   */\n      0x84\n      add\n        /* \"@openzeppelin/contracts/access/Ownable.sol\":2161:2234  require(newOwner != address(0), \"Ownable: new owner is the zero address\") */\n      tag_84\n        /* \"#utility.yul\":3369:3771   */\n      jump\n        /* \"@openzeppelin/contracts/access/Ownable.sol\":2161:2234  require(newOwner != address(0), \"Ownable: new owner is the zero address\") */\n    tag_101:\n        /* \"@openzeppelin/contracts/access/Ownable.sol\":2244:2272  _transferOwnership(newOwner) */\n      tag_104\n        /* \"@openzeppelin/contracts/access/Ownable.sol\":2263:2271  newOwner */\n      dup2\n        /* \"@openzeppelin/contracts/access/Ownable.sol\":2244:2262  _transferOwnership */\n      tag_54\n        /* \"@openzeppelin/contracts/access/Ownable.sol\":2244:2272  _transferOwnership(newOwner) */\n      jump\t// in\n    tag_104:\n        /* \"@openzeppelin/contracts/access/Ownable.sol\":2081:2279  function transferOwnership(address newOwner) public virtual onlyOwner {... */\n      pop\n      jump\t// out\n        /* \"@openzeppelin/contracts/utils/structs/EnumerableSet.sol\":8829:8944  function length(AddressSet storage set) internal view returns (uint256) {... */\n    tag_45:\n        /* \"@openzeppelin/contracts/utils/structs/EnumerableSet.sol\":8892:8899  uint256 */\n      0x00\n        /* \"@openzeppelin/contracts/utils/structs/EnumerableSet.sol\":8918:8937  _length(set._inner) */\n      tag_47\n        /* \"@openzeppelin/contracts/utils/structs/EnumerableSet.sol\":8926:8929  set */\n      dup3\n        /* \"@openzeppelin/contracts/utils/structs/EnumerableSet.sol\":4444:4462  set._values.length */\n      sload\n      swap1\n        /* \"@openzeppelin/contracts/utils/structs/EnumerableSet.sol\":4362:4469  function _length(Set storage set) private view returns (uint256) {... */\n      jump\n        /* \"@openzeppelin/contracts/utils/structs/EnumerableSet.sol\":8583:8748  function contains(AddressSet storage set, address value) internal view returns (bool) {... */\n    tag_48:\n      sub(shl(0xa0, 0x01), 0x01)\n        /* \"@openzeppelin/contracts/utils/structs/EnumerableSet.sol\":8716:8739  uint256(uint160(value)) */\n      dup2\n      and\n        /* \"@openzeppelin/contracts/utils/structs/EnumerableSet.sol\":8663:8667  bool */\n      0x00\n        /* \"@openzeppelin/contracts/utils/structs/EnumerableSet.sol\":4250:4269  set._indexes[value] */\n      swap1\n      dup2\n      mstore\n        /* \"@openzeppelin/contracts/utils/structs/EnumerableSet.sol\":4250:4262  set._indexes */\n      0x01\n      dup4\n      add\n        /* \"@openzeppelin/contracts/utils/structs/EnumerableSet.sol\":4250:4269  set._indexes[value] */\n      0x20\n      mstore\n      0x40\n      dup2\n      keccak256\n      sload\n        /* \"@openzeppelin/contracts/utils/structs/EnumerableSet.sol\":4250:4274  set._indexes[value] != 0 */\n      iszero\n      iszero\n        /* \"@openzeppelin/contracts/utils/structs/EnumerableSet.sol\":8686:8741  _contains(set._inner, bytes32(uint256(uint160(value)))) */\n    tag_109:\n        /* \"@openzeppelin/contracts/utils/structs/EnumerableSet.sol\":8679:8741  return _contains(set._inner, bytes32(uint256(uint160(value)))) */\n      swap4\n        /* \"@openzeppelin/contracts/utils/structs/EnumerableSet.sol\":8583:8748  function contains(AddressSet storage set, address value) internal view returns (bool) {... */\n      swap3\n      pop\n      pop\n      pop\n      jump\t// out\n        /* \"@openzeppelin/contracts/access/Ownable.sol\":1359:1489  function _checkOwner() internal view virtual {... */\n    tag_51:\n        /* \"@openzeppelin/contracts/access/Ownable.sol\":1247:1254  address */\n      0x00\n        /* \"@openzeppelin/contracts/access/Ownable.sol\":1273:1279  _owner */\n      sload\n      sub(shl(0xa0, 0x01), 0x01)\n      and\n        /* \"@openzeppelin/contracts/utils/Context.sol\":719:729  msg.sender */\n      caller\n        /* \"@openzeppelin/contracts/access/Ownable.sol\":1422:1445  owner() == _msgSender() */\n      eq\n        /* \"@openzeppelin/contracts/access/Ownable.sol\":1414:1482  require(owner() == _msgSender(), \"Ownable: caller is not the owner\") */\n      tag_53\n      jumpi\n      mload(0x40)\n      shl(0xe5, 0x461bcd)\n      dup2\n      mstore\n        /* \"#utility.yul\":3978:3980   */\n      0x20\n        /* \"@openzeppelin/contracts/access/Ownable.sol\":1414:1482  require(owner() == _msgSender(), \"Ownable: caller is not the owner\") */\n      0x04\n      dup3\n      add\n        /* \"#utility.yul\":3960:3981   */\n      dup2\n      swap1\n      mstore\n        /* \"#utility.yul\":3997:4015   */\n      0x24\n      dup3\n      add\n        /* \"#utility.yul\":3990:4020   */\n      mstore\n        /* \"#utility.yul\":4056:4090   */\n      0x4f776e61626c653a2063616c6c6572206973206e6f7420746865206f776e6572\n        /* \"#utility.yul\":4036:4054   */\n      0x44\n      dup3\n      add\n        /* \"#utility.yul\":4029:4091   */\n      mstore\n        /* \"#utility.yul\":4108:4126   */\n      0x64\n      add\n        /* \"@openzeppelin/contracts/access/Ownable.sol\":1414:1482  require(owner() == _msgSender(), \"Ownable: caller is not the owner\") */\n      tag_84\n        /* \"#utility.yul\":3776:4132   */\n      jump\n        /* \"@openzeppelin/contracts/access/Ownable.sol\":2433:2620  function _transferOwnership(address newOwner) internal virtual {... */\n    tag_54:\n        /* \"@openzeppelin/contracts/access/Ownable.sol\":2506:2522  address oldOwner */\n      0x00\n        /* \"@openzeppelin/contracts/access/Ownable.sol\":2525:2531  _owner */\n      dup1\n      sload\n      sub(shl(0xa0, 0x01), 0x01)\n        /* \"@openzeppelin/contracts/access/Ownable.sol\":2541:2558  _owner = newOwner */\n      dup4\n      dup2\n      and\n      not(sub(shl(0xa0, 0x01), 0x01))\n      dup4\n      and\n      dup2\n      or\n      dup5\n      sstore\n        /* \"@openzeppelin/contracts/access/Ownable.sol\":2573:2613  OwnershipTransferred(oldOwner, newOwner) */\n      mload(0x40)\n        /* \"@openzeppelin/contracts/access/Ownable.sol\":2525:2531  _owner */\n      swap2\n      swap1\n      swap3\n      and\n      swap3\n      dup4\n      swap2\n        /* \"@openzeppelin/contracts/access/Ownable.sol\":2573:2613  OwnershipTransferred(oldOwner, newOwner) */\n      0x8be0079c531659141344cd1fd0a4f28419497f9722a3daafe3b4186f6b6457e0\n      swap2\n        /* \"@openzeppelin/contracts/access/Ownable.sol\":2506:2522  address oldOwner */\n      swap1\n        /* \"@openzeppelin/contracts/access/Ownable.sol\":2573:2613  OwnershipTransferred(oldOwner, newOwner) */\n      log3\n        /* \"@openzeppelin/contracts/access/Ownable.sol\":2496:2620  {... */\n      pop\n        /* \"@openzeppelin/contracts/access/Ownable.sol\":2433:2620  function _transferOwnership(address newOwner) internal virtual {... */\n      pop\n      jump\t// out\n        /* \"@openzeppelin/contracts/utils/structs/EnumerableSet.sol\":9286:9442  function at(AddressSet storage set, uint256 index) internal view returns (address) {... */\n    tag_72:\n        /* \"@openzeppelin/contracts/utils/structs/EnumerableSet.sol\":9360:9367  address */\n      0x00\n        /* \"@openzeppelin/contracts/utils/structs/EnumerableSet.sol\":9410:9432  _at(set._inner, index) */\n      tag_109\n        /* \"@openzeppelin/contracts/utils/structs/EnumerableSet.sol\":9414:9417  set */\n      dup4\n        /* \"@openzeppelin/contracts/utils/structs/EnumerableSet.sol\":9426:9431  index */\n      dup4\n        /* \"@openzeppelin/contracts/utils/structs/EnumerableSet.sol\":9410:9413  _at */\n      tag_121\n        /* \"@openzeppelin/contracts/utils/structs/EnumerableSet.sol\":9410:9432  _at(set._inner, index) */\n      jump\t// in\n        /* \"@openzeppelin/contracts/utils/structs/EnumerableSet.sol\":8028:8178  function add(AddressSet storage set, address value) internal returns (bool) {... */\n    tag_87:\n        /* \"@openzeppelin/contracts/utils/structs/EnumerableSet.sol\":8098:8102  bool */\n      0x00\n        /* \"@openzeppelin/contracts/utils/structs/EnumerableSet.sol\":8121:8171  _add(set._inner, bytes32(uint256(uint160(value)))) */\n      tag_109\n        /* \"@openzeppelin/contracts/utils/structs/EnumerableSet.sol\":8126:8129  set */\n      dup4\n      sub(shl(0xa0, 0x01), 0x01)\n        /* \"@openzeppelin/contracts/utils/structs/EnumerableSet.sol\":8146:8169  uint256(uint160(value)) */\n      dup5\n      and\n        /* \"@openzeppelin/contracts/utils/structs/EnumerableSet.sol\":8121:8125  _add */\n      tag_124\n        /* \"@openzeppelin/contracts/utils/structs/EnumerableSet.sol\":8121:8171  _add(set._inner, bytes32(uint256(uint160(value)))) */\n      jump\t// in\n        /* \"@openzeppelin/contracts/utils/structs/EnumerableSet.sol\":8346:8502  function remove(AddressSet storage set, address value) internal returns (bool) {... */\n    tag_97:\n        /* \"@openzeppelin/contracts/utils/structs/EnumerableSet.sol\":8419:8423  bool */\n      0x00\n        /* \"@openzeppelin/contracts/utils/structs/EnumerableSet.sol\":8442:8495  _remove(set._inner, bytes32(uint256(uint160(value)))) */\n      tag_109\n        /* \"@openzeppelin/contracts/utils/structs/EnumerableSet.sol\":8450:8453  set */\n      dup4\n      sub(shl(0xa0, 0x01), 0x01)\n        /* \"@openzeppelin/contracts/utils/structs/EnumerableSet.sol\":8470:8493  uint256(uint160(value)) */\n      dup5\n      and\n        /* \"@openzeppelin/contracts/utils/structs/EnumerableSet.sol\":8442:8449  _remove */\n      tag_127\n        /* \"@openzeppelin/contracts/utils/structs/EnumerableSet.sol\":8442:8495  _remove(set._inner, bytes32(uint256(uint160(value)))) */\n      jump\t// in\n        /* \"@openzeppelin/contracts/utils/structs/EnumerableSet.sol\":4811:4929  function _at(Set storage set, uint256 index) private view returns (bytes32) {... */\n    tag_121:\n        /* \"@openzeppelin/contracts/utils/structs/EnumerableSet.sol\":4878:4885  bytes32 */\n      0x00\n        /* \"@openzeppelin/contracts/utils/structs/EnumerableSet.sol\":4904:4907  set */\n      dup3\n        /* \"@openzeppelin/contracts/utils/structs/EnumerableSet.sol\":4904:4915  set._values */\n      0x00\n      add\n        /* \"@openzeppelin/contracts/utils/structs/EnumerableSet.sol\":4916:4921  index */\n      dup3\n        /* \"@openzeppelin/contracts/utils/structs/EnumerableSet.sol\":4904:4922  set._values[index] */\n      dup2\n      sload\n      dup2\n      lt\n      tag_133\n      jumpi\n      tag_133\n      tag_75\n      jump\t// in\n    tag_133:\n      swap1\n      0x00\n      mstore\n      keccak256(0x00, 0x20)\n      add\n      sload\n        /* \"@openzeppelin/contracts/utils/structs/EnumerableSet.sol\":4897:4922  return set._values[index] */\n      swap1\n      pop\n        /* \"@openzeppelin/contracts/utils/structs/EnumerableSet.sol\":4811:4929  function _at(Set storage set, uint256 index) private view returns (bytes32) {... */\n      swap3\n      swap2\n      pop\n      pop\n      jump\t// out\n        /* \"@openzeppelin/contracts/utils/structs/EnumerableSet.sol\":2113:2517  function _add(Set storage set, bytes32 value) private returns (bool) {... */\n    tag_124:\n        /* \"@openzeppelin/contracts/utils/structs/EnumerableSet.sol\":2176:2180  bool */\n      0x00\n        /* \"@openzeppelin/contracts/utils/structs/EnumerableSet.sol\":4250:4269  set._indexes[value] */\n      dup2\n      dup2\n      mstore\n        /* \"@openzeppelin/contracts/utils/structs/EnumerableSet.sol\":4250:4262  set._indexes */\n      0x01\n      dup4\n      add\n        /* \"@openzeppelin/contracts/utils/structs/EnumerableSet.sol\":4250:4269  set._indexes[value] */\n      0x20\n      mstore\n      0x40\n      dup2\n      keccak256\n      sload\n        /* \"@openzeppelin/contracts/utils/structs/EnumerableSet.sol\":2192:2511  if (!_contains(set, value)) {... */\n      tag_137\n      jumpi\n      pop\n        /* \"@openzeppelin/contracts/utils/structs/EnumerableSet.sol\":2234:2257  set._values.push(value) */\n      dup2\n      sload\n      0x01\n      dup2\n      dup2\n      add\n      dup5\n      sstore\n        /* \"@openzeppelin/contracts/utils/structs/EnumerableSet.sol\":2234:2245  set._values */\n      0x00\n        /* \"@openzeppelin/contracts/utils/structs/EnumerableSet.sol\":2234:2257  set._values.push(value) */\n      dup5\n      dup2\n      mstore\n      0x20\n      dup1\n      dup3\n      keccak256\n      swap1\n      swap4\n      add\n      dup5\n      swap1\n      sstore\n        /* \"@openzeppelin/contracts/utils/structs/EnumerableSet.sol\":2414:2432  set._values.length */\n      dup5\n      sload\n        /* \"@openzeppelin/contracts/utils/structs/EnumerableSet.sol\":2392:2411  set._indexes[value] */\n      dup5\n      dup3\n      mstore\n        /* \"@openzeppelin/contracts/utils/structs/EnumerableSet.sol\":2392:2404  set._indexes */\n      dup3\n      dup7\n      add\n        /* \"@openzeppelin/contracts/utils/structs/EnumerableSet.sol\":2392:2411  set._indexes[value] */\n      swap1\n      swap4\n      mstore\n      0x40\n      swap1\n      keccak256\n        /* \"@openzeppelin/contracts/utils/structs/EnumerableSet.sol\":2392:2432  set._indexes[value] = set._values.length */\n      swap2\n      swap1\n      swap2\n      sstore\n        /* \"@openzeppelin/contracts/utils/structs/EnumerableSet.sol\":2446:2457  return true */\n      jump(tag_47)\n        /* \"@openzeppelin/contracts/utils/structs/EnumerableSet.sol\":2192:2511  if (!_contains(set, value)) {... */\n    tag_137:\n      pop\n        /* \"@openzeppelin/contracts/utils/structs/EnumerableSet.sol\":2495:2500  false */\n      0x00\n        /* \"@openzeppelin/contracts/utils/structs/EnumerableSet.sol\":2488:2500  return false */\n      jump(tag_47)\n        /* \"@openzeppelin/contracts/utils/structs/EnumerableSet.sol\":2685:4073  function _remove(Set storage set, bytes32 value) private returns (bool) {... */\n    tag_127:\n        /* \"@openzeppelin/contracts/utils/structs/EnumerableSet.sol\":2751:2755  bool */\n      0x00\n        /* \"@openzeppelin/contracts/utils/structs/EnumerableSet.sol\":2888:2907  set._indexes[value] */\n      dup2\n      dup2\n      mstore\n        /* \"@openzeppelin/contracts/utils/structs/EnumerableSet.sol\":2888:2900  set._indexes */\n      0x01\n      dup4\n      add\n        /* \"@openzeppelin/contracts/utils/structs/EnumerableSet.sol\":2888:2907  set._indexes[value] */\n      0x20\n      mstore\n      0x40\n      dup2\n      keccak256\n      sload\n        /* \"@openzeppelin/contracts/utils/structs/EnumerableSet.sol\":2922:2937  valueIndex != 0 */\n      dup1\n      iszero\n        /* \"@openzeppelin/contracts/utils/structs/EnumerableSet.sol\":2918:4067  if (valueIndex != 0) {... */\n      tag_141\n      jumpi\n        /* \"@openzeppelin/contracts/utils/structs/EnumerableSet.sol\":3291:3312  uint256 toDeleteIndex */\n      0x00\n        /* \"@openzeppelin/contracts/utils/structs/EnumerableSet.sol\":3315:3329  valueIndex - 1 */\n      tag_142\n        /* \"@openzeppelin/contracts/utils/structs/EnumerableSet.sol\":3328:3329  1 */\n      0x01\n        /* \"@openzeppelin/contracts/utils/structs/EnumerableSet.sol\":3315:3325  valueIndex */\n      dup4\n        /* \"@openzeppelin/contracts/utils/structs/EnumerableSet.sol\":3315:3329  valueIndex - 1 */\n      tag_58\n      jump\t// in\n    tag_142:\n        /* \"@openzeppelin/contracts/utils/structs/EnumerableSet.sol\":3363:3381  set._values.length */\n      dup6\n      sload\n        /* \"@openzeppelin/contracts/utils/structs/EnumerableSet.sol\":3291:3329  uint256 toDeleteIndex = valueIndex - 1 */\n      swap1\n      swap2\n      pop\n        /* \"@openzeppelin/contracts/utils/structs/EnumerableSet.sol\":3343:3360  uint256 lastIndex */\n      0x00\n      swap1\n        /* \"@openzeppelin/contracts/utils/structs/EnumerableSet.sol\":3363:3385  set._values.length - 1 */\n      tag_143\n      swap1\n        /* \"@openzeppelin/contracts/utils/structs/EnumerableSet.sol\":3384:3385  1 */\n      0x01\n      swap1\n        /* \"@openzeppelin/contracts/utils/structs/EnumerableSet.sol\":3363:3385  set._values.length - 1 */\n      tag_58\n      jump\t// in\n    tag_143:\n        /* \"@openzeppelin/contracts/utils/structs/EnumerableSet.sol\":3343:3385  uint256 lastIndex = set._values.length - 1 */\n      swap1\n      pop\n        /* \"@openzeppelin/contracts/utils/structs/EnumerableSet.sol\":3417:3430  toDeleteIndex */\n      dup2\n        /* \"@openzeppelin/contracts/utils/structs/EnumerableSet.sol\":3404:3413  lastIndex */\n      dup2\n        /* \"@openzeppelin/contracts/utils/structs/EnumerableSet.sol\":3404:3430  lastIndex != toDeleteIndex */\n      eq\n        /* \"@openzeppelin/contracts/utils/structs/EnumerableSet.sol\":3400:3798  if (lastIndex != toDeleteIndex) {... */\n      tag_144\n      jumpi\n        /* \"@openzeppelin/contracts/utils/structs/EnumerableSet.sol\":3450:3467  bytes32 lastValue */\n      0x00\n        /* \"@openzeppelin/contracts/utils/structs/EnumerableSet.sol\":3470:3473  set */\n      dup7\n        /* \"@openzeppelin/contracts/utils/structs/EnumerableSet.sol\":3470:3481  set._values */\n      0x00\n      add\n        /* \"@openzeppelin/contracts/utils/structs/EnumerableSet.sol\":3482:3491  lastIndex */\n      dup3\n        /* \"@openzeppelin/contracts/utils/structs/EnumerableSet.sol\":3470:3492  set._values[lastIndex] */\n      dup2\n      sload\n      dup2\n      lt\n      tag_146\n      jumpi\n      tag_146\n      tag_75\n      jump\t// in\n    tag_146:\n      swap1\n      0x00\n      mstore\n      keccak256(0x00, 0x20)\n      add\n      sload\n        /* \"@openzeppelin/contracts/utils/structs/EnumerableSet.sol\":3450:3492  bytes32 lastValue = set._values[lastIndex] */\n      swap1\n      pop\n        /* \"@openzeppelin/contracts/utils/structs/EnumerableSet.sol\":3621:3630  lastValue */\n      dup1\n        /* \"@openzeppelin/contracts/utils/structs/EnumerableSet.sol\":3592:3595  set */\n      dup8\n        /* \"@openzeppelin/contracts/utils/structs/EnumerableSet.sol\":3592:3603  set._values */\n      0x00\n      add\n        /* \"@openzeppelin/contracts/utils/structs/EnumerableSet.sol\":3604:3617  toDeleteIndex */\n      dup5\n        /* \"@openzeppelin/contracts/utils/structs/EnumerableSet.sol\":3592:3618  set._values[toDeleteIndex] */\n      dup2\n      sload\n      dup2\n      lt\n      tag_149\n      jumpi\n      tag_149\n      tag_75\n      jump\t// in\n    tag_149:\n      0x00\n      swap2\n      dup3\n      mstore\n      0x20\n      dup1\n      dup4\n      keccak256\n      swap1\n      swap2\n      add\n        /* \"@openzeppelin/contracts/utils/structs/EnumerableSet.sol\":3592:3630  set._values[toDeleteIndex] = lastValue */\n      swap3\n      swap1\n      swap3\n      sstore\n        /* \"@openzeppelin/contracts/utils/structs/EnumerableSet.sol\":3704:3727  set._indexes[lastValue] */\n      swap2\n      dup3\n      mstore\n        /* \"@openzeppelin/contracts/utils/structs/EnumerableSet.sol\":3704:3716  set._indexes */\n      0x01\n      dup9\n      add\n        /* \"@openzeppelin/contracts/utils/structs/EnumerableSet.sol\":3704:3727  set._indexes[lastValue] */\n      swap1\n      mstore\n      0x40\n      swap1\n      keccak256\n        /* \"@openzeppelin/contracts/utils/structs/EnumerableSet.sol\":3704:3740  set._indexes[lastValue] = valueIndex */\n      dup4\n      swap1\n      sstore\n        /* \"@openzeppelin/contracts/utils/structs/EnumerableSet.sol\":3400:3798  if (lastIndex != toDeleteIndex) {... */\n    tag_144:\n        /* \"@openzeppelin/contracts/utils/structs/EnumerableSet.sol\":3876:3893  set._values.pop() */\n      dup6\n      sload\n        /* \"@openzeppelin/contracts/utils/structs/EnumerableSet.sol\":3876:3879  set */\n      dup7\n      swap1\n        /* \"@openzeppelin/contracts/utils/structs/EnumerableSet.sol\":3876:3893  set._values.pop() */\n      dup1\n      tag_152\n      jumpi\n      tag_152\n      tag_153\n      jump\t// in\n    tag_152:\n      0x01\n      swap1\n      sub\n      dup2\n      dup2\n      swap1\n      0x00\n      mstore\n      keccak256(0x00, 0x20)\n      add\n      0x00\n      swap1\n      sstore\n      swap1\n      sstore\n        /* \"@openzeppelin/contracts/utils/structs/EnumerableSet.sol\":3968:3971  set */\n      dup6\n        /* \"@openzeppelin/contracts/utils/structs/EnumerableSet.sol\":3968:3980  set._indexes */\n      0x01\n      add\n        /* \"@openzeppelin/contracts/utils/structs/EnumerableSet.sol\":3968:3987  set._indexes[value] */\n      0x00\n        /* \"@openzeppelin/contracts/utils/structs/EnumerableSet.sol\":3981:3986  value */\n      dup7\n        /* \"@openzeppelin/contracts/utils/structs/EnumerableSet.sol\":3968:3987  set._indexes[value] */\n      dup2\n      mstore\n      0x20\n      add\n      swap1\n      dup2\n      mstore\n      0x20\n      add\n      0x00\n      keccak256\n        /* \"@openzeppelin/contracts/utils/structs/EnumerableSet.sol\":3961:3987  delete set._indexes[value] */\n      0x00\n      swap1\n      sstore\n        /* \"@openzeppelin/contracts/utils/structs/EnumerableSet.sol\":4009:4013  true */\n      0x01\n        /* \"@openzeppelin/contracts/utils/structs/EnumerableSet.sol\":4002:4013  return true */\n      swap4\n      pop\n      pop\n      pop\n      pop\n      jump(tag_47)\n        /* \"@openzeppelin/contracts/utils/structs/EnumerableSet.sol\":2918:4067  if (valueIndex != 0) {... */\n    tag_141:\n        /* \"@openzeppelin/contracts/utils/structs/EnumerableSet.sol\":4051:4056  false */\n      0x00\n        /* \"@openzeppelin/contracts/utils/structs/EnumerableSet.sol\":4044:4056  return false */\n      swap2\n      pop\n      pop\n      jump(tag_47)\n        /* \"#utility.yul\":196:482   */\n    tag_18:\n        /* \"#utility.yul\":255:261   */\n      0x00\n        /* \"#utility.yul\":308:310   */\n      0x20\n        /* \"#utility.yul\":296:305   */\n      dup3\n        /* \"#utility.yul\":287:294   */\n      dup5\n        /* \"#utility.yul\":283:306   */\n      sub\n        /* \"#utility.yul\":279:311   */\n      slt\n        /* \"#utility.yul\":276:328   */\n      iszero\n      tag_160\n      jumpi\n        /* \"#utility.yul\":324:325   */\n      0x00\n        /* \"#utility.yul\":321:322   */\n      dup1\n        /* \"#utility.yul\":314:326   */\n      revert\n        /* \"#utility.yul\":276:328   */\n    tag_160:\n        /* \"#utility.yul\":350:373   */\n      dup2\n      calldataload\n      sub(shl(0xa0, 0x01), 0x01)\n        /* \"#utility.yul\":402:433   */\n      dup2\n      and\n        /* \"#utility.yul\":392:434   */\n      dup2\n      eq\n        /* \"#utility.yul\":382:452   */\n      tag_109\n      jumpi\n        /* \"#utility.yul\":448:449   */\n      0x00\n        /* \"#utility.yul\":445:446   */\n      dup1\n        /* \"#utility.yul\":438:450   */\n      revert\n        /* \"#utility.yul\":679:927   */\n    tag_26:\n        /* \"#utility.yul\":747:753   */\n      0x00\n        /* \"#utility.yul\":755:761   */\n      dup1\n        /* \"#utility.yul\":808:810   */\n      0x40\n        /* \"#utility.yul\":796:805   */\n      dup4\n        /* \"#utility.yul\":787:794   */\n      dup6\n        /* \"#utility.yul\":783:806   */\n      sub\n        /* \"#utility.yul\":779:811   */\n      slt\n        /* \"#utility.yul\":776:828   */\n      iszero\n      tag_164\n      jumpi\n        /* \"#utility.yul\":824:825   */\n      0x00\n        /* \"#utility.yul\":821:822   */\n      dup1\n        /* \"#utility.yul\":814:826   */\n      revert\n        /* \"#utility.yul\":776:828   */\n    tag_164:\n      pop\n      pop\n        /* \"#utility.yul\":847:870   */\n      dup1\n      calldataload\n      swap3\n        /* \"#utility.yul\":917:919   */\n      0x20\n        /* \"#utility.yul\":902:920   */\n      swap1\n      swap2\n      add\n        /* \"#utility.yul\":889:921   */\n      calldataload\n      swap2\n      pop\n        /* \"#utility.yul\":679:927   */\n      jump\t// out\n        /* \"#utility.yul\":932:1663   */\n    tag_29:\n        /* \"#utility.yul\":1150:1152   */\n      0x40\n        /* \"#utility.yul\":1162:1183   */\n      dup1\n      dup3\n      mstore\n        /* \"#utility.yul\":1232:1245   */\n      dup4\n      mload\n        /* \"#utility.yul\":1135:1153   */\n      swap1\n      dup3\n      add\n        /* \"#utility.yul\":1254:1276   */\n      dup2\n      swap1\n      mstore\n        /* \"#utility.yul\":1102:1106   */\n      0x00\n      swap1\n        /* \"#utility.yul\":1329:1333   */\n      0x20\n      swap1\n        /* \"#utility.yul\":1307:1309   */\n      0x60\n        /* \"#utility.yul\":1292:1310   */\n      dup5\n      add\n      swap1\n        /* \"#utility.yul\":1356:1371   */\n      dup3\n      dup8\n      add\n        /* \"#utility.yul\":1102:1106   */\n      dup5\n        /* \"#utility.yul\":1399:1594   */\n    tag_166:\n        /* \"#utility.yul\":1413:1419   */\n      dup3\n        /* \"#utility.yul\":1410:1411   */\n      dup2\n        /* \"#utility.yul\":1407:1420   */\n      lt\n        /* \"#utility.yul\":1399:1594   */\n      iszero\n      tag_168\n      jumpi\n        /* \"#utility.yul\":1478:1491   */\n      dup2\n      mload\n      sub(shl(0xa0, 0x01), 0x01)\n        /* \"#utility.yul\":1474:1513   */\n      and\n        /* \"#utility.yul\":1462:1514   */\n      dup5\n      mstore\n        /* \"#utility.yul\":1534:1546   */\n      swap3\n      dup5\n      add\n      swap3\n        /* \"#utility.yul\":1569:1584   */\n      swap1\n      dup5\n      add\n      swap1\n        /* \"#utility.yul\":1510:1511   */\n      0x01\n        /* \"#utility.yul\":1428:1437   */\n      add\n        /* \"#utility.yul\":1399:1594   */\n      jump(tag_166)\n    tag_168:\n      pop\n      pop\n      pop\n        /* \"#utility.yul\":1630:1648   */\n      swap3\n      add\n        /* \"#utility.yul\":1623:1657   */\n      swap3\n      swap1\n      swap3\n      mstore\n        /* \"#utility.yul\":1611:1614   */\n      swap3\n        /* \"#utility.yul\":932:1663   */\n      swap2\n      pop\n      pop\n      jump\t// out\n        /* \"#utility.yul\":1876:2003   */\n    tag_156:\n        /* \"#utility.yul\":1937:1947   */\n      0x4e487b71\n        /* \"#utility.yul\":1932:1935   */\n      0xe0\n        /* \"#utility.yul\":1928:1948   */\n      shl\n        /* \"#utility.yul\":1925:1926   */\n      0x00\n        /* \"#utility.yul\":1918:1949   */\n      mstore\n        /* \"#utility.yul\":1968:1972   */\n      0x11\n        /* \"#utility.yul\":1965:1966   */\n      0x04\n        /* \"#utility.yul\":1958:1973   */\n      mstore\n        /* \"#utility.yul\":1992:1996   */\n      0x24\n        /* \"#utility.yul\":1989:1990   */\n      0x00\n        /* \"#utility.yul\":1982:1997   */\n      revert\n        /* \"#utility.yul\":2008:2136   */\n    tag_58:\n        /* \"#utility.yul\":2075:2084   */\n      dup2\n      dup2\n      sub\n        /* \"#utility.yul\":2096:2107   */\n      dup2\n      dup2\n      gt\n        /* \"#utility.yul\":2093:2130   */\n      iszero\n      tag_47\n      jumpi\n        /* \"#utility.yul\":2110:2128   */\n      tag_47\n      tag_156\n      jump\t// in\n        /* \"#utility.yul\":2141:2268   */\n    tag_64:\n        /* \"#utility.yul\":2202:2212   */\n      0x4e487b71\n        /* \"#utility.yul\":2197:2200   */\n      0xe0\n        /* \"#utility.yul\":2193:2213   */\n      shl\n        /* \"#utility.yul\":2190:2191   */\n      0x00\n        /* \"#utility.yul\":2183:2214   */\n      mstore\n        /* \"#utility.yul\":2233:2237   */\n      0x41\n        /* \"#utility.yul\":2230:2231   */\n      0x04\n        /* \"#utility.yul\":2223:2238   */\n      mstore\n        /* \"#utility.yul\":2257:2261   */\n      0x24\n        /* \"#utility.yul\":2254:2255   */\n      0x00\n        /* \"#utility.yul\":2247:2262   */\n      revert\n        /* \"#utility.yul\":2273:2398   */\n    tag_71:\n        /* \"#utility.yul\":2338:2347   */\n      dup1\n      dup3\n      add\n        /* \"#utility.yul\":2359:2369   */\n      dup1\n      dup3\n      gt\n        /* \"#utility.yul\":2356:2392   */\n      iszero\n      tag_47\n      jumpi\n        /* \"#utility.yul\":2372:2390   */\n      tag_47\n      tag_156\n      jump\t// in\n        /* \"#utility.yul\":2403:2530   */\n    tag_75:\n        /* \"#utility.yul\":2464:2474   */\n      0x4e487b71\n        /* \"#utility.yul\":2459:2462   */\n      0xe0\n        /* \"#utility.yul\":2455:2475   */\n      shl\n        /* \"#utility.yul\":2452:2453   */\n      0x00\n        /* \"#utility.yul\":2445:2476   */\n      mstore\n        /* \"#utility.yul\":2495:2499   */\n      0x32\n        /* \"#utility.yul\":2492:2493   */\n      0x04\n        /* \"#utility.yul\":2485:2500   */\n      mstore\n        /* \"#utility.yul\":2519:2523   */\n      0x24\n        /* \"#utility.yul\":2516:2517   */\n      0x00\n        /* \"#utility.yul\":2509:2524   */\n      revert\n        /* \"#utility.yul\":2535:2670   */\n    tag_77:\n        /* \"#utility.yul\":2574:2577   */\n      0x00\n        /* \"#utility.yul\":2595:2612   */\n      0x01\n      dup3\n      add\n        /* \"#utility.yul\":2592:2635   */\n      tag_181\n      jumpi\n        /* \"#utility.yul\":2615:2633   */\n      tag_181\n      tag_156\n      jump\t// in\n    tag_181:\n      pop\n        /* \"#utility.yul\":2662:2663   */\n      0x01\n        /* \"#utility.yul\":2651:2664   */\n      add\n      swap1\n        /* \"#utility.yul\":2535:2670   */\n      jump\t// out\n        /* \"#utility.yul\":4137:4264   */\n    tag_153:\n        /* \"#utility.yul\":4198:4208   */\n      0x4e487b71\n        /* \"#utility.yul\":4193:4196   */\n      0xe0\n        /* \"#utility.yul\":4189:4209   */\n      shl\n        /* \"#utility.yul\":4186:4187   */\n      0x00\n        /* \"#utility.yul\":4179:4210   */\n      mstore\n        /* \"#utility.yul\":4229:4233   */\n      0x31\n        /* \"#utility.yul\":4226:4227   */\n      0x04\n        /* \"#utility.yul\":4219:4234   */\n      mstore\n        /* \"#utility.yul\":4253:4257   */\n      0x24\n        /* \"#utility.yul\":4250:4251   */\n      0x00\n        /* \"#utility.yul\":4243:4258   */\n      revert\n\n    auxdata: 0xa26469706673582212201a412638f4575da427a071e5f27815ca51dc831c1f61bcfa8d3a7f8d5ef5179f64736f6c63430008110033\n}\n",
				"bytecode": {
					"linkReferences": {},
					"object": "608060405234801561001057600080fd5b5061001a3361001f565b61006f565b600080546001600160a01b038381166001600160a01b0319831681178455604051919092169283917f8be0079c531659141344cd1fd0a4f28419497f9722a3daafe3b4186f6b6457e09190a35050565b6108088061007e6000396000f3fe608060405234801561001057600080fd5b50600436106100885760003560e01c80638ab234b61161005b5780638ab234b6146100f65780638da5cb5b14610109578063c5d3a10714610124578063f2fde38b1461013757600080fd5b80631facfd9c1461008d57806343b938c5146100a8578063715018a6146100cb57806385f39b0a146100d5575b600080fd5b61009561014a565b6040519081526020015b60405180910390f35b6100bb6100b636600461069f565b61015b565b604051901515815260200161009f565b6100d361016e565b005b6100e86100e33660046106c8565b610182565b60405161009f9291906106ea565b6100d361010436600461069f565b610277565b6000546040516001600160a01b03909116815260200161009f565b6100d361013236600461069f565b610316565b6100d361014536600461069f565b6103ab565b60006101566001610424565b905090565b600061016860018361042e565b92915050565b610176610453565b61018060006104ad565b565b6060600082846101926001610424565b61019c9190610751565b8111156101bb57846101ae6001610424565b6101b89190610751565b90505b60008167ffffffffffffffff8111156101d6576101d6610764565b6040519080825280602002602001820160405280156101ff578160200160208202803683370190505b50905060005b8281101561025e5761022261021a828961077a565b6001906104fd565b8282815181106102345761023461078d565b6001600160a01b039092166020928302919091019091015280610256816107a3565b915050610205565b508061026a838861077a565b9350935050509250929050565b61027f610453565b61028a60018261042e565b156102d35760405162461bcd60e51b815260206004820152601460248201527308105b1c9958591e481dda1a5d195b1a5cdd195960621b60448201526064015b60405180910390fd5b6102de600182610509565b506040516001600160a01b038216907f3cbf62b327efb2d06d36e16c10a2f5c00cf0568e2b805bd56969b15d2736107890600090a250565b61031e610453565b61032960018261042e565b6103685760405162461bcd60e51b815260206004820152601060248201526f08139bdd081dda1a5d195b1a5cdd195960821b60448201526064016102ca565b61037360018261051e565b506040516001600160a01b038216907fa40d69111be14f29022626d38310e47cc2d7f4cb728961509c2f65a4bee08c5b90600090a250565b6103b3610453565b6001600160a01b0381166104185760405162461bcd60e51b815260206004820152602660248201527f4f776e61626c653a206e6577206f776e657220697320746865207a65726f206160448201526564647265737360d01b60648201526084016102ca565b610421816104ad565b50565b6000610168825490565b6001600160a01b038116600090815260018301602052604081205415155b9392505050565b6000546001600160a01b031633146101805760405162461bcd60e51b815260206004820181905260248201527f4f776e61626c653a2063616c6c6572206973206e6f7420746865206f776e657260448201526064016102ca565b600080546001600160a01b038381166001600160a01b0319831681178455604051919092169283917f8be0079c531659141344cd1fd0a4f28419497f9722a3daafe3b4186f6b6457e09190a35050565b600061044c8383610533565b600061044c836001600160a01b03841661055d565b600061044c836001600160a01b0384166105ac565b600082600001828154811061054a5761054a61078d565b9060005260206000200154905092915050565b60008181526001830160205260408120546105a457508154600181810184556000848152602080822090930184905584548482528286019093526040902091909155610168565b506000610168565b600081815260018301602052604081205480156106955760006105d0600183610751565b85549091506000906105e490600190610751565b90508181146106495760008660000182815481106106045761060461078d565b90600052602060002001549050808760000184815481106106275761062761078d565b6000918252602080832090910192909255918252600188019052604090208390555b855486908061065a5761065a6107bc565b600190038181906000526020600020016000905590558560010160008681526020019081526020016000206000905560019350505050610168565b6000915050610168565b6000602082840312156106b157600080fd5b81356001600160a01b038116811461044c57600080fd5b600080604083850312156106db57600080fd5b50508035926020909101359150565b604080825283519082018190526000906020906060840190828701845b8281101561072c5781516001600160a01b031684529284019290840190600101610707565b50505092019290925292915050565b634e487b7160e01b600052601160045260246000fd5b818103818111156101685761016861073b565b634e487b7160e01b600052604160045260246000fd5b808201808211156101685761016861073b565b634e487b7160e01b600052603260045260246000fd5b6000600182016107b5576107b561073b565b5060010190565b634e487b7160e01b600052603160045260246000fdfea26469706673582212201a412638f4575da427a071e5f27815ca51dc831c1f61bcfa8d3a7f8d5ef5179f64736f6c63430008110033",
					"opcodes": "PUSH1 0x80 PUSH1 0x40 MSTORE CALLVALUE DUP1 ISZERO PUSH2 0x10 JUMPI PUSH1 0x0 DUP1 REVERT JUMPDEST POP PUSH2 0x1A CALLER PUSH2 0x1F JUMP JUMPDEST PUSH2 0x6F JUMP JUMPDEST PUSH1 0x0 DUP1 SLOAD PUSH1 0x1 PUSH1 0x1 PUSH1 0xA0 SHL SUB DUP4 DUP2 AND PUSH1 0x1 PUSH1 0x1 PUSH1 0xA0 SHL SUB NOT DUP4 AND DUP2 OR DUP5 SSTORE PUSH1 0x40 MLOAD SWAP2 SWAP1 SWAP3 AND SWAP3 DUP4 SWAP2 PUSH32 0x8BE0079C531659141344CD1FD0A4F28419497F9722A3DAAFE3B4186F6B6457E0 SWAP2 SWAP1 LOG3 POP POP JUMP JUMPDEST PUSH2 0x808 DUP1 PUSH2 0x7E PUSH1 0x0 CODECOPY PUSH1 0x0 RETURN INVALID PUSH1 0x80 PUSH1 0x40 MSTORE CALLVALUE DUP1 ISZERO PUSH2 0x10 JUMPI PUSH1 0x0 DUP1 REVERT JUMPDEST POP PUSH1 0x4 CALLDATASIZE LT PUSH2 0x88 JUMPI PUSH1 0x0 CALLDATALOAD PUSH1 0xE0 SHR DUP1 PUSH4 0x8AB234B6 GT PUSH2 0x5B JUMPI DUP1 PUSH4 0x8AB234B6 EQ PUSH2 0xF6 JUMPI DUP1 PUSH4 0x8DA5CB5B EQ PUSH2 0x109 JUMPI DUP1 PUSH4 0xC5D3A107 EQ PUSH2 0x124 JUMPI DUP1 PUSH4 0xF2FDE38B EQ PUSH2 0x137 JUMPI PUSH1 0x0 DUP1 REVERT JUMPDEST DUP1 PUSH4 0x1FACFD9C EQ PUSH2 0x8D JUMPI DUP1 PUSH4 0x43B938C5 EQ PUSH2 0xA8 JUMPI DUP1 PUSH4 0x715018A6 EQ PUSH2 0xCB JUMPI DUP1 PUSH4 0x85F39B0A EQ PUSH2 0xD5 JUMPI JUMPDEST PUSH1 0x0 DUP1 REVERT JUMPDEST PUSH2 0x95 PUSH2 0x14A JUMP JUMPDEST PUSH1 0x40 MLOAD SWAP1 DUP2 MSTORE PUSH1 0x20 ADD JUMPDEST PUSH1 0x40 MLOAD DUP1 SWAP2 SUB SWAP1 RETURN JUMPDEST PUSH2 0xBB PUSH2 0xB6 CALLDATASIZE PUSH1 0x4 PUSH2 0x69F JUMP JUMPDEST PUSH2 0x15B JUMP JUMPDEST PUSH1 0x40 MLOAD SWAP1 ISZERO ISZERO DUP2 MSTORE PUSH1 0x20 ADD PUSH2 0x9F JUMP JUMPDEST PUSH2 0xD3 PUSH2 0x16E JUMP JUMPDEST STOP JUMPDEST PUSH2 0xE8 PUSH2 0xE3 CALLDATASIZE PUSH1 0x4 PUSH2 0x6C8 JUMP JUMPDEST PUSH2 0x182 JUMP JUMPDEST PUSH1 0x40 MLOAD PUSH2 0x9F SWAP3 SWAP2 SWAP1 PUSH2 0x6EA JUMP JUMPDEST PUSH2 0xD3 PUSH2 0x104 CALLDATASIZE PUSH1 0x4 PUSH2 0x69F JUMP JUMPDEST PUSH2 0x277 JUMP JUMPDEST PUSH1 0x0 SLOAD PUSH1 0x40 MLOAD PUSH1 0x1 PUSH1 0x1 PUSH1 0xA0 SHL SUB SWAP1 SWAP2 AND DUP2 MSTORE PUSH1 0x20 ADD PUSH2 0x9F JUMP JUMPDEST PUSH2 0xD3 PUSH2 0x132 CALLDATASIZE PUSH1 0x4 PUSH2 0x69F JUMP JUMPDEST PUSH2 0x316 JUMP JUMPDEST PUSH2 0xD3 PUSH2 0x145 CALLDATASIZE PUSH1 0x4 PUSH2 0x69F JUMP JUMPDEST PUSH2 0x3AB JUMP JUMPDEST PUSH1 0x0 PUSH2 0x156 PUSH1 0x1 PUSH2 0x424 JUMP JUMPDEST SWAP1 POP SWAP1 JUMP JUMPDEST PUSH1 0x0 PUSH2 0x168 PUSH1 0x1 DUP4 PUSH2 0x42E JUMP JUMPDEST SWAP3 SWAP2 POP POP JUMP JUMPDEST PUSH2 0x176 PUSH2 0x453 JUMP JUMPDEST PUSH2 0x180 PUSH1 0x0 PUSH2 0x4AD JUMP JUMPDEST JUMP JUMPDEST PUSH1 0x60 PUSH1 0x0 DUP3 DUP5 PUSH2 0x192 PUSH1 0x1 PUSH2 0x424 JUMP JUMPDEST PUSH2 0x19C SWAP2 SWAP1 PUSH2 0x751 JUMP JUMPDEST DUP2 GT ISZERO PUSH2 0x1BB JUMPI DUP5 PUSH2 0x1AE PUSH1 0x1 PUSH2 0x424 JUMP JUMPDEST PUSH2 0x1B8 SWAP2 SWAP1 PUSH2 0x751 JUMP JUMPDEST SWAP1 POP JUMPDEST PUSH1 0x0 DUP2 PUSH8 0xFFFFFFFFFFFFFFFF DUP2 GT ISZERO PUSH2 0x1D6 JUMPI PUSH2 0x1D6 PUSH2 0x764 JUMP JUMPDEST PUSH1 0x40 MLOAD SWAP1 DUP1 DUP3 MSTORE DUP1 PUSH1 0x20 MUL PUSH1 0x20 ADD DUP3 ADD PUSH1 0x40 MSTORE DUP1 ISZERO PUSH2 0x1FF JUMPI DUP2 PUSH1 0x20 ADD PUSH1 0x20 DUP3 MUL DUP1 CALLDATASIZE DUP4 CALLDATACOPY ADD SWAP1 POP JUMPDEST POP SWAP1 POP PUSH1 0x0 JUMPDEST DUP3 DUP2 LT ISZERO PUSH2 0x25E JUMPI PUSH2 0x222 PUSH2 0x21A DUP3 DUP10 PUSH2 0x77A JUMP JUMPDEST PUSH1 0x1 SWAP1 PUSH2 0x4FD JUMP JUMPDEST DUP3 DUP3 DUP2 MLOAD DUP2 LT PUSH2 0x234 JUMPI PUSH2 0x234 PUSH2 0x78D JUMP JUMPDEST PUSH1 0x1 PUSH1 0x1 PUSH1 0xA0 SHL SUB SWAP1 SWAP3 AND PUSH1 0x20 SWAP3 DUP4 MUL SWAP2 SWAP1 SWAP2 ADD SWAP1 SWAP2 ADD MSTORE DUP1 PUSH2 0x256 DUP2 PUSH2 0x7A3 JUMP JUMPDEST SWAP2 POP POP PUSH2 0x205 JUMP JUMPDEST POP DUP1 PUSH2 0x26A DUP4 DUP9 PUSH2 0x77A JUMP JUMPDEST SWAP4 POP SWAP4 POP POP POP SWAP3 POP SWAP3 SWAP1 POP JUMP JUMPDEST PUSH2 0x27F PUSH2 0x453 JUMP JUMPDEST PUSH2 0x28A PUSH1 0x1 DUP3 PUSH2 0x42E JUMP JUMPDEST ISZERO PUSH2 0x2D3 JUMPI PUSH1 0x40 MLOAD PUSH3 0x461BCD PUSH1 0xE5 SHL DUP2 MSTORE PUSH1 0x20 PUSH1 0x4 DUP3 ADD MSTORE PUSH1 0x14 PUSH1 0x24 DUP3 ADD MSTORE PUSH20 0x8105B1C9958591E481DDA1A5D195B1A5CDD1959 PUSH1 0x62 SHL PUSH1 0x44 DUP3 ADD MSTORE PUSH1 0x64 ADD JUMPDEST PUSH1 0x40 MLOAD DUP1 SWAP2 SUB SWAP1 REVERT JUMPDEST PUSH2 0x2DE PUSH1 0x1 DUP3 PUSH2 0x509 JUMP JUMPDEST POP PUSH1 0x40 MLOAD PUSH1 0x1 PUSH1 0x1 PUSH1 0xA0 SHL SUB DUP3 AND SWAP1 PUSH32 0x3CBF62B327EFB2D06D36E16C10A2F5C00CF0568E2B805BD56969B15D27361078 SWAP1 PUSH1 0x0 SWAP1 LOG2 POP JUMP JUMPDEST PUSH2 0x31E PUSH2 0x453 JUMP JUMPDEST PUSH2 0x329 PUSH1 0x1 DUP3 PUSH2 0x42E JUMP JUMPDEST PUSH2 0x368 JUMPI PUSH1 0x40 MLOAD PUSH3 0x461BCD PUSH1 0xE5 SHL DUP2 MSTORE PUSH1 0x20 PUSH1 0x4 DUP3 ADD MSTORE PUSH1 0x10 PUSH1 0x24 DUP3 ADD MSTORE PUSH16 0x8139BDD081DDA1A5D195B1A5CDD1959 PUSH1 0x82 SHL PUSH1 0x44 DUP3 ADD MSTORE PUSH1 0x64 ADD PUSH2 0x2CA JUMP JUMPDEST PUSH2 0x373 PUSH1 0x1 DUP3 PUSH2 0x51E JUMP JUMPDEST POP PUSH1 0x40 MLOAD PUSH1 0x1 PUSH1 0x1 PUSH1 0xA0 SHL SUB DUP3 AND SWAP1 PUSH32 0xA40D69111BE14F29022626D38310E47CC2D7F4CB728961509C2F65A4BEE08C5B SWAP1 PUSH1 0x0 SWAP1 LOG2 POP JUMP JUMPDEST PUSH2 0x3B3 PUSH2 0x453 JUMP JUMPDEST PUSH1 0x1 PUSH1 0x1 PUSH1 0xA0 SHL SUB DUP2 AND PUSH2 0x418 JUMPI PUSH1 0x40 MLOAD PUSH3 0x461BCD PUSH1 0xE5 SHL DUP2 MSTORE PUSH1 0x20 PUSH1 0x4 DUP3 ADD MSTORE PUSH1 0x26 PUSH1 0x24 DUP3 ADD MSTORE PUSH32 0x4F776E61626C653A206E6577206F776E657220697320746865207A65726F2061 PUSH1 0x44 DUP3 ADD MSTORE PUSH6 0x646472657373 PUSH1 0xD0 SHL PUSH1 0x64 DUP3 ADD MSTORE PUSH1 0x84 ADD PUSH2 0x2CA JUMP JUMPDEST PUSH2 0x421 DUP2 PUSH2 0x4AD JUMP JUMPDEST POP JUMP JUMPDEST PUSH1 0x0 PUSH2 0x168 DUP3 SLOAD SWAP1 JUMP JUMPDEST PUSH1 0x1 PUSH1 0x1 PUSH1 0xA0 SHL SUB DUP2 AND PUSH1 0x0 SWAP1 DUP2 MSTORE PUSH1 0x1 DUP4 ADD PUSH1 0x20 MSTORE PUSH1 0x40 DUP2 KECCAK256 SLOAD ISZERO ISZERO JUMPDEST SWAP4 SWAP3 POP POP POP JUMP JUMPDEST PUSH1 0x0 SLOAD PUSH1 0x1 PUSH1 0x1 PUSH1 0xA0 SHL SUB AND CALLER EQ PUSH2 0x180 JUMPI PUSH1 0x40 MLOAD PUSH3 0x461BCD PUSH1 0xE5 SHL DUP2 MSTORE PUSH1 0x20 PUSH1 0x4 DUP3 ADD DUP2 SWAP1 MSTORE PUSH1 0x24 DUP3 ADD MSTORE PUSH32 0x4F776E61626C653A2063616C6C6572206973206E6F7420746865206F776E6572 PUSH1 0x44 DUP3 ADD MSTORE PUSH1 0x64 ADD PUSH2 0x2CA JUMP JUMPDEST PUSH1 0x0 DUP1 SLOAD PUSH1 0x1 PUSH1 0x1 PUSH1 0xA0 SHL SUB DUP4 DUP2 AND PUSH1 0x1 PUSH1 0x1 PUSH1 0xA0 SHL SUB NOT DUP4 AND DUP2 OR DUP5 SSTORE PUSH1 0x40 MLOAD SWAP2 SWAP1 SWAP3 AND SWAP3 DUP4 SWAP2 PUSH32 0x8BE0079C531659141344CD1FD0A4F28419497F9722A3DAAFE3B4186F6B6457E0 SWAP2 SWAP1 LOG3 POP POP JUMP JUMPDEST PUSH1 0x0 PUSH2 0x44C DUP4 DUP4 PUSH2 0x533 JUMP JUMPDEST PUSH1 0x0 PUSH2 0x44C DUP4 PUSH1 0x1 PUSH1 0x1 PUSH1 0xA0 SHL SUB DUP5 AND PUSH2 0x55D JUMP JUMPDEST PUSH1 0x0 PUSH2 0x44C DUP4 PUSH1 0x1 PUSH1 0x1 PUSH1 0xA0 SHL SUB DUP5 AND PUSH2 0x5AC JUMP JUMPDEST PUSH1 0x0 DUP3 PUSH1 0x0 ADD DUP3 DUP2 SLOAD DUP2 LT PUSH2 0x54A JUMPI PUSH2 0x54A PUSH2 0x78D JUMP JUMPDEST SWAP1 PUSH1 0x0 MSTORE PUSH1 0x20 PUSH1 0x0 KECCAK256 ADD SLOAD SWAP1 POP SWAP3 SWAP2 POP POP JUMP JUMPDEST PUSH1 0x0 DUP2 DUP2 MSTORE PUSH1 0x1 DUP4 ADD PUSH1 0x20 MSTORE PUSH1 0x40 DUP2 KECCAK256 SLOAD PUSH2 0x5A4 JUMPI POP DUP2 SLOAD PUSH1 0x1 DUP2 DUP2 ADD DUP5 SSTORE PUSH1 0x0 DUP5 DUP2 MSTORE PUSH1 0x20 DUP1 DUP3 KECCAK256 SWAP1 SWAP4 ADD DUP5 SWAP1 SSTORE DUP5 SLOAD DUP5 DUP3 MSTORE DUP3 DUP7 ADD SWAP1 SWAP4 MSTORE PUSH1 0x40 SWAP1 KECCAK256 SWAP2 SWAP1 SWAP2 SSTORE PUSH2 0x168 JUMP JUMPDEST POP PUSH1 0x0 PUSH2 0x168 JUMP JUMPDEST PUSH1 0x0 DUP2 DUP2 MSTORE PUSH1 0x1 DUP4 ADD PUSH1 0x20 MSTORE PUSH1 0x40 DUP2 KECCAK256 SLOAD DUP1 ISZERO PUSH2 0x695 JUMPI PUSH1 0x0 PUSH2 0x5D0 PUSH1 0x1 DUP4 PUSH2 0x751 JUMP JUMPDEST DUP6 SLOAD SWAP1 SWAP2 POP PUSH1 0x0 SWAP1 PUSH2 0x5E4 SWAP1 PUSH1 0x1 SWAP1 PUSH2 0x751 JUMP JUMPDEST SWAP1 POP DUP2 DUP2 EQ PUSH2 0x649 JUMPI PUSH1 0x0 DUP7 PUSH1 0x0 ADD DUP3 DUP2 SLOAD DUP2 LT PUSH2 0x604 JUMPI PUSH2 0x604 PUSH2 0x78D JUMP JUMPDEST SWAP1 PUSH1 0x0 MSTORE PUSH1 0x20 PUSH1 0x0 KECCAK256 ADD SLOAD SWAP1 POP DUP1 DUP8 PUSH1 0x0 ADD DUP5 DUP2 SLOAD DUP2 LT PUSH2 0x627 JUMPI PUSH2 0x627 PUSH2 0x78D JUMP JUMPDEST PUSH1 0x0 SWAP2 DUP3 MSTORE PUSH1 0x20 DUP1 DUP4 KECCAK256 SWAP1 SWAP2 ADD SWAP3 SWAP1 SWAP3 SSTORE SWAP2 DUP3 MSTORE PUSH1 0x1 DUP9 ADD SWAP1 MSTORE PUSH1 0x40 SWAP1 KECCAK256 DUP4 SWAP1 SSTORE JUMPDEST DUP6 SLOAD DUP7 SWAP1 DUP1 PUSH2 0x65A JUMPI PUSH2 0x65A PUSH2 0x7BC JUMP JUMPDEST PUSH1 0x1 SWAP1 SUB DUP2 DUP2 SWAP1 PUSH1 0x0 MSTORE PUSH1 0x20 PUSH1 0x0 KECCAK256 ADD PUSH1 0x0 SWAP1 SSTORE SWAP1 SSTORE DUP6 PUSH1 0x1 ADD PUSH1 0x0 DUP7 DUP2 MSTORE PUSH1 0x20 ADD SWAP1 DUP2 MSTORE PUSH1 0x20 ADD PUSH1 0x0 KECCAK256 PUSH1 0x0 SWAP1 SSTORE PUSH1 0x1 SWAP4 POP POP POP POP PUSH2 0x168 JUMP JUMPDEST PUSH1 0x0 SWAP2 POP POP PUSH2 0x168 JUMP JUMPDEST PUSH1 0x0 PUSH1 0x20 DUP3 DUP5 SUB SLT ISZERO PUSH2 0x6B1 JUMPI PUSH1 0x0 DUP1 REVERT JUMPDEST DUP2 CALLDATALOAD PUSH1 0x1 PUSH1 0x1 PUSH1 0xA0 SHL SUB DUP2 AND DUP2 EQ PUSH2 0x44C JUMPI PUSH1 0x0 DUP1 REVERT JUMPDEST PUSH1 0x0 DUP1 PUSH1 0x40 DUP4 DUP6 SUB SLT ISZERO PUSH2 0x6DB JUMPI PUSH1 0x0 DUP1 REVERT JUMPDEST POP POP DUP1 CALLDATALOAD SWAP3 PUSH1 0x20 SWAP1 SWAP2 ADD CALLDATALOAD SWAP2 POP JUMP JUMPDEST PUSH1 0x40 DUP1 DUP3 MSTORE DUP4 MLOAD SWAP1 DUP3 ADD DUP2 SWAP1 MSTORE PUSH1 0x0 SWAP1 PUSH1 0x20 SWAP1 PUSH1 0x60 DUP5 ADD SWAP1 DUP3 DUP8 ADD DUP5 JUMPDEST DUP3 DUP2 LT ISZERO PUSH2 0x72C JUMPI DUP2 MLOAD PUSH1 0x1 PUSH1 0x1 PUSH1 0xA0 SHL SUB AND DUP5 MSTORE SWAP3 DUP5 ADD SWAP3 SWAP1 DUP5 ADD SWAP1 PUSH1 0x1 ADD PUSH2 0x707 JUMP JUMPDEST POP POP POP SWAP3 ADD SWAP3 SWAP1 SWAP3 MSTORE SWAP3 SWAP2 POP POP JUMP JUMPDEST PUSH4 0x4E487B71 PUSH1 0xE0 SHL PUSH1 0x0 MSTORE PUSH1 0x11 PUSH1 0x4 MSTORE PUSH1 0x24 PUSH1 0x0 REVERT JUMPDEST DUP2 DUP2 SUB DUP2 DUP2 GT ISZERO PUSH2 0x168 JUMPI PUSH2 0x168 PUSH2 0x73B JUMP JUMPDEST PUSH4 0x4E487B71 PUSH1 0xE0 SHL PUSH1 0x0 MSTORE PUSH1 0x41 PUSH1 0x4 MSTORE PUSH1 0x24 PUSH1 0x0 REVERT JUMPDEST DUP1 DUP3 ADD DUP1 DUP3 GT ISZERO PUSH2 0x168 JUMPI PUSH2 0x168 PUSH2 0x73B JUMP JUMPDEST PUSH4 0x4E487B71 PUSH1 0xE0 SHL PUSH1 0x0 MSTORE PUSH1 0x32 PUSH1 0x4 MSTORE PUSH1 0x24 PUSH1 0x0 REVERT JUMPDEST PUSH1 0x0 PUSH1 0x1 DUP3 ADD PUSH2 0x7B5 JUMPI PUSH2 0x7B5 PUSH2 0x73B JUMP JUMPDEST POP PUSH1 0x1 ADD SWAP1 JUMP JUMPDEST PUSH4 0x4E487B71 PUSH1 0xE0 SHL PUSH1 0x0 MSTORE PUSH1 0x31 PUSH1 0x4 MSTORE PUSH1 0x24 PUSH1 0x0 REVERT INVALID LOG2 PUSH5 0x6970667358 0x22 SLT KECCAK256 BYTE COINBASE 0x26 CODESIZE DELEGATECALL JUMPI 0x5D LOG4 0x27 LOG0 PUSH18 0xE5F27815CA51DC831C1F61BCFA8D3A7F8D5E CREATE2 OR SWAP16 PUSH5 0x736F6C6343 STOP ADDMOD GT STOP CALLER "
				},
				"gasEstimates": {
					"creation": {
						"codeDepositCost": "411200",
						"executionCost": "26290",
						"totalCost": "437490"
					},
					"external": {
						"addCurrency(address)": "infinite",
						"isCurrencyWhitelisted(address)": "infinite",
						"owner()": "2323",
						"removeCurrency(address)": "infinite",
						"renounceOwnership()": "infinite",
						"transferOwnership(address)": "28364",
						"viewCountWhitelistedCurrencies()": "2360",
						"viewWhitelistedCurrencies(uint256,uint256)": "infinite"
					}
				},
				"methodIdentifiers": {
					"addCurrency(address)": "8ab234b6",
					"isCurrencyWhitelisted(address)": "43b938c5",
					"owner()": "8da5cb5b",
					"removeCurrency(address)": "c5d3a107",
					"renounceOwnership()": "715018a6",
					"transferOwnership(address)": "f2fde38b",
					"viewCountWhitelistedCurrencies()": "1facfd9c",
					"viewWhitelistedCurrencies(uint256,uint256)": "85f39b0a"
				}
			},
			"storageLayout": {
				"storage": [
					{
						"astId": 7,
						"contract": "contracts/Manager/CurrencyManager.sol:CurrencyManager",
						"label": "_owner",
						"offset": 0,
						"slot": "0",
						"type": "t_address"
					},
					{
						"astId": 752,
						"contract": "contracts/Manager/CurrencyManager.sol:CurrencyManager",
						"label": "_whitelistedCurrencies",
						"offset": 0,
						"slot": "1",
						"type": "t_struct(AddressSet)446_storage"
					}
				],
				"types": {
					"t_address": {
						"encoding": "inplace",
						"label": "address",
						"numberOfBytes": "20"
					},
					"t_array(t_bytes32)dyn_storage": {
						"base": "t_bytes32",
						"encoding": "dynamic_array",
						"label": "bytes32[]",
						"numberOfBytes": "32"
					},
					"t_bytes32": {
						"encoding": "inplace",
						"label": "bytes32",
						"numberOfBytes": "32"
					},
					"t_mapping(t_bytes32,t_uint256)": {
						"encoding": "mapping",
						"key": "t_bytes32",
						"label": "mapping(bytes32 => uint256)",
						"numberOfBytes": "32",
						"value": "t_uint256"
					},
					"t_struct(AddressSet)446_storage": {
						"encoding": "inplace",
						"label": "struct EnumerableSet.AddressSet",
						"members": [
							{
								"astId": 445,
								"contract": "contracts/Manager/CurrencyManager.sol:CurrencyManager",
								"label": "_inner",
								"offset": 0,
								"slot": "0",
								"type": "t_struct(Set)145_storage"
							}
						],
						"numberOfBytes": "64"
					},
					"t_struct(Set)145_storage": {
						"encoding": "inplace",
						"label": "struct EnumerableSet.Set",
						"members": [
							{
								"astId": 140,
								"contract": "contracts/Manager/CurrencyManager.sol:CurrencyManager",
								"label": "_values",
								"offset": 0,
								"slot": "0",
								"type": "t_array(t_bytes32)dyn_storage"
							},
							{
								"astId": 144,
								"contract": "contracts/Manager/CurrencyManager.sol:CurrencyManager",
								"label": "_indexes",
								"offset": 0,
								"slot": "1",
								"type": "t_mapping(t_bytes32,t_uint256)"
							}
						],
						"numberOfBytes": "64"
					},
					"t_uint256": {
						"encoding": "inplace",
						"label": "uint256",
						"numberOfBytes": "32"
					}
				}
			},
			"userdoc": {
				"kind": "user",
				"methods": {},
				"version": 1
			}
		}
	}
}