{
	"contracts/Manager/TransferSelectorNFT.sol": {
		"TransferSelectorNFT": {
			"abi": [
				{
					"inputs": [
						{
							"internalType": "address",
							"name": "_transferManagerERC721",
							"type": "address"
						},
						{
							"internalType": "address",
							"name": "_transferManagerERC1155",
							"type": "address"
						}
					],
					"stateMutability": "nonpayable",
					"type": "constructor"
				},
				{
					"anonymous": false,
					"inputs": [
						{
							"indexed": true,
							"internalType": "address",
							"name": "collection",
							"type": "address"
						},
						{
							"indexed": true,
							"internalType": "address",
							"name": "transferManager",
							"type": "address"
						}
					],
					"name": "CollectionTransferManagerAdded",
					"type": "event"
				},
				{
					"anonymous": false,
					"inputs": [
						{
							"indexed": true,
							"internalType": "address",
							"name": "collection",
							"type": "address"
						}
					],
					"name": "CollectionTransferManagerRemoved",
					"type": "event"
				},
				{
					"anonymous": false,
					"inputs": [
						{
							"indexed": true,
							"internalType": "address",
							"name": "previousOwner",
							"type": "address"
						},
						{
							"indexed": true,
							"internalType": "address",
							"name": "newOwner",
							"type": "address"
						}
					],
					"name": "OwnershipTransferred",
					"type": "event"
				},
				{
					"inputs": [],
					"name": "INTERFACE_ID_ERC1155",
					"outputs": [
						{
							"internalType": "bytes4",
							"name": "",
							"type": "bytes4"
						}
					],
					"stateMutability": "view",
					"type": "function"
				},
				{
					"inputs": [],
					"name": "INTERFACE_ID_ERC721",
					"outputs": [
						{
							"internalType": "bytes4",
							"name": "",
							"type": "bytes4"
						}
					],
					"stateMutability": "view",
					"type": "function"
				},
				{
					"inputs": [],
					"name": "TRANSFER_MANAGER_ERC1155",
					"outputs": [
						{
							"internalType": "address",
							"name": "",
							"type": "address"
						}
					],
					"stateMutability": "view",
					"type": "function"
				},
				{
					"inputs": [],
					"name": "TRANSFER_MANAGER_ERC721",
					"outputs": [
						{
							"internalType": "address",
							"name": "",
							"type": "address"
						}
					],
					"stateMutability": "view",
					"type": "function"
				},
				{
					"inputs": [
						{
							"internalType": "address",
							"name": "collection",
							"type": "address"
						},
						{
							"internalType": "address",
							"name": "transferManager",
							"type": "address"
						}
					],
					"name": "addCollectionTransferManager",
					"outputs": [],
					"stateMutability": "nonpayable",
					"type": "function"
				},
				{
					"inputs": [
						{
							"internalType": "address",
							"name": "collection",
							"type": "address"
						}
					],
					"name": "checkTransferManagerForToken",
					"outputs": [
						{
							"internalType": "address",
							"name": "transferManager",
							"type": "address"
						}
					],
					"stateMutability": "view",
					"type": "function"
				},
				{
					"inputs": [],
					"name": "owner",
					"outputs": [
						{
							"internalType": "address",
							"name": "",
							"type": "address"
						}
					],
					"stateMutability": "view",
					"type": "function"
				},
				{
					"inputs": [
						{
							"internalType": "address",
							"name": "collection",
							"type": "address"
						}
					],
					"name": "removeCollectionTransferManager",
					"outputs": [],
					"stateMutability": "nonpayable",
					"type": "function"
				},
				{
					"inputs": [],
					"name": "renounceOwnership",
					"outputs": [],
					"stateMutability": "nonpayable",
					"type": "function"
				},
				{
					"inputs": [
						{
							"internalType": "address",
							"name": "",
							"type": "address"
						}
					],
					"name": "transferManagerSelectorForCollection",
					"outputs": [
						{
							"internalType": "address",
							"name": "",
							"type": "address"
						}
					],
					"stateMutability": "view",
					"type": "function"
				},
				{
					"inputs": [
						{
							"internalType": "address",
							"name": "newOwner",
							"type": "address"
						}
					],
					"name": "transferOwnership",
					"outputs": [],
					"stateMutability": "nonpayable",
					"type": "function"
				}
			],
			"devdoc": {
				"kind": "dev",
				"methods": {
					"owner()": {
						"details": "Returns the address of the current owner."
					},
					"renounceOwnership()": {
						"details": "Leaves the contract without owner. It will not be possible to call `onlyOwner` functions anymore. Can only be called by the current owner. NOTE: Renouncing ownership will leave the contract without an owner, thereby removing any functionality that is only available to the owner."
					},
					"transferOwnership(address)": {
						"details": "Transfers ownership of the contract to a new account (`newOwner`). Can only be called by the current owner."
					}
				},
				"version": 1
			},
			"evm": {
				"assembly": "    /* \"contracts/Manager/TransferSelectorNFT.sol\":287:3312  contract TransferSelectorNFT is TheTransferSelector, Ownable {... */\n  mstore(0x40, 0xc0)\n    /* \"contracts/Manager/TransferSelectorNFT.sol\":1058:1260  constructor(address _transferManagerERC721, address _transferManagerERC1155) {... */\n  callvalue\n  dup1\n  iszero\n  tag_1\n  jumpi\n  0x00\n  dup1\n  revert\ntag_1:\n  pop\n  mload(0x40)\n  sub(codesize, bytecodeSize)\n  dup1\n  bytecodeSize\n  dup4\n  codecopy\n  dup2\n  add\n  0x40\n  dup2\n  swap1\n  mstore\n  tag_2\n  swap2\n  tag_3\n  jump\t// in\ntag_2:\n    /* \"@openzeppelin/contracts/access/Ownable.sol\":936:968  _transferOwnership(_msgSender()) */\n  tag_7\n    /* \"@openzeppelin/contracts/utils/Context.sol\":719:729  msg.sender */\n  caller\n    /* \"@openzeppelin/contracts/access/Ownable.sol\":936:954  _transferOwnership */\n  tag_10\n    /* \"@openzeppelin/contracts/access/Ownable.sol\":936:968  _transferOwnership(_msgSender()) */\n  jump\t// in\ntag_7:\n  sub(shl(0xa0, 0x01), 0x01)\n    /* \"contracts/Manager/TransferSelectorNFT.sol\":1145:1193  TRANSFER_MANAGER_ERC721 = _transferManagerERC721 */\n  swap2\n  dup3\n  and\n  0x80\n  mstore\n    /* \"contracts/Manager/TransferSelectorNFT.sol\":1203:1253  TRANSFER_MANAGER_ERC1155 = _transferManagerERC1155 */\n  and\n  0xa0\n  mstore\n    /* \"contracts/Manager/TransferSelectorNFT.sol\":287:3312  contract TransferSelectorNFT is TheTransferSelector, Ownable {... */\n  jump(tag_16)\n    /* \"@openzeppelin/contracts/access/Ownable.sol\":2433:2620  function _transferOwnership(address newOwner) internal virtual {... */\ntag_10:\n    /* \"@openzeppelin/contracts/access/Ownable.sol\":2506:2522  address oldOwner */\n  0x00\n    /* \"@openzeppelin/contracts/access/Ownable.sol\":2525:2531  _owner */\n  dup1\n  sload\n  sub(shl(0xa0, 0x01), 0x01)\n    /* \"@openzeppelin/contracts/access/Ownable.sol\":2541:2558  _owner = newOwner */\n  dup4\n  dup2\n  and\n  not(sub(shl(0xa0, 0x01), 0x01))\n  dup4\n  and\n  dup2\n  or\n  dup5\n  sstore\n    /* \"@openzeppelin/contracts/access/Ownable.sol\":2573:2613  OwnershipTransferred(oldOwner, newOwner) */\n  mload(0x40)\n    /* \"@openzeppelin/contracts/access/Ownable.sol\":2525:2531  _owner */\n  swap2\n  swap1\n  swap3\n  and\n  swap3\n  dup4\n  swap2\n    /* \"@openzeppelin/contracts/access/Ownable.sol\":2573:2613  OwnershipTransferred(oldOwner, newOwner) */\n  0x8be0079c531659141344cd1fd0a4f28419497f9722a3daafe3b4186f6b6457e0\n  swap2\n    /* \"@openzeppelin/contracts/access/Ownable.sol\":2506:2522  address oldOwner */\n  swap1\n    /* \"@openzeppelin/contracts/access/Ownable.sol\":2573:2613  OwnershipTransferred(oldOwner, newOwner) */\n  log3\n    /* \"@openzeppelin/contracts/access/Ownable.sol\":2496:2620  {... */\n  pop\n    /* \"@openzeppelin/contracts/access/Ownable.sol\":2433:2620  function _transferOwnership(address newOwner) internal virtual {... */\n  pop\n  jump\t// out\n    /* \"#utility.yul\":14:191   */\ntag_15:\n    /* \"#utility.yul\":93:106   */\n  dup1\n  mload\n  sub(shl(0xa0, 0x01), 0x01)\n    /* \"#utility.yul\":135:166   */\n  dup2\n  and\n    /* \"#utility.yul\":125:167   */\n  dup2\n  eq\n    /* \"#utility.yul\":115:185   */\n  tag_18\n  jumpi\n    /* \"#utility.yul\":181:182   */\n  0x00\n    /* \"#utility.yul\":178:179   */\n  dup1\n    /* \"#utility.yul\":171:183   */\n  revert\n    /* \"#utility.yul\":115:185   */\ntag_18:\n    /* \"#utility.yul\":14:191   */\n  swap2\n  swap1\n  pop\n  jump\t// out\n    /* \"#utility.yul\":196:489   */\ntag_3:\n    /* \"#utility.yul\":275:281   */\n  0x00\n    /* \"#utility.yul\":283:289   */\n  dup1\n    /* \"#utility.yul\":336:338   */\n  0x40\n    /* \"#utility.yul\":324:333   */\n  dup4\n    /* \"#utility.yul\":315:322   */\n  dup6\n    /* \"#utility.yul\":311:334   */\n  sub\n    /* \"#utility.yul\":307:339   */\n  slt\n    /* \"#utility.yul\":304:356   */\n  iszero\n  tag_20\n  jumpi\n    /* \"#utility.yul\":352:353   */\n  0x00\n    /* \"#utility.yul\":349:350   */\n  dup1\n    /* \"#utility.yul\":342:354   */\n  revert\n    /* \"#utility.yul\":304:356   */\ntag_20:\n    /* \"#utility.yul\":375:415   */\n  tag_21\n    /* \"#utility.yul\":405:414   */\n  dup4\n    /* \"#utility.yul\":375:415   */\n  tag_15\n  jump\t// in\ntag_21:\n    /* \"#utility.yul\":365:415   */\n  swap2\n  pop\n    /* \"#utility.yul\":434:483   */\n  tag_22\n    /* \"#utility.yul\":479:481   */\n  0x20\n    /* \"#utility.yul\":468:477   */\n  dup5\n    /* \"#utility.yul\":464:482   */\n  add\n    /* \"#utility.yul\":434:483   */\n  tag_15\n  jump\t// in\ntag_22:\n    /* \"#utility.yul\":424:483   */\n  swap1\n  pop\n    /* \"#utility.yul\":196:489   */\n  swap3\n  pop\n  swap3\n  swap1\n  pop\n  jump\t// out\ntag_16:\n    /* \"contracts/Manager/TransferSelectorNFT.sol\":287:3312  contract TransferSelectorNFT is TheTransferSelector, Ownable {... */\n  mload(0x80)\n  mload(0xa0)\n  codecopy(0x00, dataOffset(sub_0), dataSize(sub_0))\n  0x00\n  assignImmutable(\"0xbf08d8a2d7c7780024ba6e6dbe12d3d5a5a747ea3071fca63d8a2ede50d3472a\")\n  0x00\n  assignImmutable(\"0x566674f71911cd3b7cbc2fd66353711d31aaa96f269440d186374a017f53f324\")\n  return(0x00, dataSize(sub_0))\nstop\n\nsub_0: assembly {\n        /* \"contracts/Manager/TransferSelectorNFT.sol\":287:3312  contract TransferSelectorNFT is TheTransferSelector, Ownable {... */\n      mstore(0x40, 0x80)\n      callvalue\n      dup1\n      iszero\n      tag_1\n      jumpi\n      0x00\n      dup1\n      revert\n    tag_1:\n      pop\n      jumpi(tag_2, lt(calldatasize, 0x04))\n      shr(0xe0, calldataload(0x00))\n      dup1\n      0x715018a6\n      gt\n      tag_14\n      jumpi\n      dup1\n      0x715018a6\n      eq\n      tag_8\n      jumpi\n      dup1\n      0x8da5cb5b\n      eq\n      tag_9\n      jumpi\n      dup1\n      0xb1357ddd\n      eq\n      tag_10\n      jumpi\n      dup1\n      0xbc6bc0cd\n      eq\n      tag_11\n      jumpi\n      dup1\n      0xcc159493\n      eq\n      tag_12\n      jumpi\n      dup1\n      0xf2fde38b\n      eq\n      tag_13\n      jumpi\n      0x00\n      dup1\n      revert\n    tag_14:\n      dup1\n      0x25c6a895\n      eq\n      tag_3\n      jumpi\n      dup1\n      0x33bf6156\n      eq\n      tag_4\n      jumpi\n      dup1\n      0x38928956\n      eq\n      tag_5\n      jumpi\n      dup1\n      0x4216a753\n      eq\n      tag_6\n      jumpi\n      dup1\n      0x7053fb79\n      eq\n      tag_7\n      jumpi\n    tag_2:\n      0x00\n      dup1\n      revert\n        /* \"contracts/Manager/TransferSelectorNFT.sol\":1466:1973  function addCollectionTransferManager(address collection, address transferManager) external onlyOwner {... */\n    tag_3:\n      tag_15\n      tag_16\n      calldatasize\n      0x04\n      tag_17\n      jump\t// in\n    tag_16:\n      tag_18\n      jump\t// in\n    tag_15:\n      stop\n        /* \"contracts/Manager/TransferSelectorNFT.sol\":468:524  bytes4 public constant INTERFACE_ID_ERC1155 = 0xd9b67a26 */\n    tag_4:\n      tag_19\n      shl(0xe1, 0x6cdb3d13)\n      dup2\n      jump\n    tag_19:\n      mload(0x40)\n      not(sub(shl(0xe0, 0x01), 0x01))\n        /* \"#utility.yul\":619:652   */\n      swap1\n      swap2\n      and\n        /* \"#utility.yul\":601:653   */\n      dup2\n      mstore\n        /* \"#utility.yul\":589:591   */\n      0x20\n        /* \"#utility.yul\":574:592   */\n      add\n        /* \"contracts/Manager/TransferSelectorNFT.sol\":468:524  bytes4 public constant INTERFACE_ID_ERC1155 = 0xd9b67a26 */\n    tag_21:\n      mload(0x40)\n      dup1\n      swap2\n      sub\n      swap1\n      return\n        /* \"contracts/Manager/TransferSelectorNFT.sol\":651:700  address public immutable TRANSFER_MANAGER_ERC1155 */\n    tag_5:\n      tag_23\n      immutable(\"0xbf08d8a2d7c7780024ba6e6dbe12d3d5a5a747ea3071fca63d8a2ede50d3472a\")\n      dup2\n      jump\n    tag_23:\n      mload(0x40)\n      sub(shl(0xa0, 0x01), 0x01)\n        /* \"#utility.yul\":828:860   */\n      swap1\n      swap2\n      and\n        /* \"#utility.yul\":810:861   */\n      dup2\n      mstore\n        /* \"#utility.yul\":798:800   */\n      0x20\n        /* \"#utility.yul\":783:801   */\n      add\n        /* \"contracts/Manager/TransferSelectorNFT.sol\":651:700  address public immutable TRANSFER_MANAGER_ERC1155 */\n      tag_21\n        /* \"#utility.yul\":664:867   */\n      jump\n        /* \"contracts/Manager/TransferSelectorNFT.sol\":738:809  mapping(address => address) public transferManagerSelectorForCollection */\n    tag_6:\n      tag_23\n      tag_28\n      calldatasize\n      0x04\n      tag_29\n      jump\t// in\n    tag_28:\n      mstore(0x20, 0x01)\n      0x00\n      swap1\n      dup2\n      mstore\n      0x40\n      swap1\n      keccak256\n      sload\n      sub(shl(0xa0, 0x01), 0x01)\n      and\n      dup2\n      jump\n        /* \"contracts/Manager/TransferSelectorNFT.sol\":2145:2517  function removeCollectionTransferManager(address collection) external onlyOwner {... */\n    tag_7:\n      tag_15\n      tag_33\n      calldatasize\n      0x04\n      tag_29\n      jump\t// in\n    tag_33:\n      tag_34\n      jump\t// in\n        /* \"@openzeppelin/contracts/access/Ownable.sol\":1831:1932  function renounceOwnership() public virtual onlyOwner {... */\n    tag_8:\n      tag_15\n      tag_36\n      jump\t// in\n        /* \"@openzeppelin/contracts/access/Ownable.sol\":1201:1286  function owner() public view virtual returns (address) {... */\n    tag_9:\n        /* \"@openzeppelin/contracts/access/Ownable.sol\":1247:1254  address */\n      0x00\n        /* \"@openzeppelin/contracts/access/Ownable.sol\":1273:1279  _owner */\n      sload\n      sub(shl(0xa0, 0x01), 0x01)\n      and\n        /* \"@openzeppelin/contracts/access/Ownable.sol\":1201:1286  function owner() public view virtual returns (address) {... */\n      jump(tag_23)\n        /* \"contracts/Manager/TransferSelectorNFT.sol\":559:607  address public immutable TRANSFER_MANAGER_ERC721 */\n    tag_10:\n      tag_23\n      immutable(\"0x566674f71911cd3b7cbc2fd66353711d31aaa96f269440d186374a017f53f324\")\n      dup2\n      jump\n        /* \"contracts/Manager/TransferSelectorNFT.sol\":380:435  bytes4 public constant INTERFACE_ID_ERC721 = 0x80ac58cd */\n    tag_11:\n      tag_19\n      shl(0xe0, 0x80ac58cd)\n      dup2\n      jump\n        /* \"contracts/Manager/TransferSelectorNFT.sol\":2576:3310  function checkTransferManagerForToken(address collection) external view override returns (address transferManager) {... */\n    tag_12:\n      tag_23\n      tag_47\n      calldatasize\n      0x04\n      tag_29\n      jump\t// in\n    tag_47:\n      tag_48\n      jump\t// in\n        /* \"@openzeppelin/contracts/access/Ownable.sol\":2081:2279  function transferOwnership(address newOwner) public virtual onlyOwner {... */\n    tag_13:\n      tag_15\n      tag_51\n      calldatasize\n      0x04\n      tag_29\n      jump\t// in\n    tag_51:\n      tag_52\n      jump\t// in\n        /* \"contracts/Manager/TransferSelectorNFT.sol\":1466:1973  function addCollectionTransferManager(address collection, address transferManager) external onlyOwner {... */\n    tag_18:\n        /* \"@openzeppelin/contracts/access/Ownable.sol\":1094:1107  _checkOwner() */\n      tag_54\n        /* \"@openzeppelin/contracts/access/Ownable.sol\":1094:1105  _checkOwner */\n      tag_55\n        /* \"@openzeppelin/contracts/access/Ownable.sol\":1094:1107  _checkOwner() */\n      jump\t// in\n    tag_54:\n      sub(shl(0xa0, 0x01), 0x01)\n        /* \"contracts/Manager/TransferSelectorNFT.sol\":1586:1610  collection != address(0) */\n      dup3\n      and\n        /* \"contracts/Manager/TransferSelectorNFT.sol\":1578:1649  require(collection != address(0), \" Collection cannot be null address\") */\n      tag_57\n      jumpi\n      mload(0x40)\n      shl(0xe5, 0x461bcd)\n      dup2\n      mstore\n        /* \"#utility.yul\":1265:1267   */\n      0x20\n        /* \"contracts/Manager/TransferSelectorNFT.sol\":1578:1649  require(collection != address(0), \" Collection cannot be null address\") */\n      0x04\n      dup3\n      add\n        /* \"#utility.yul\":1247:1268   */\n      mstore\n        /* \"#utility.yul\":1304:1306   */\n      0x22\n        /* \"#utility.yul\":1284:1302   */\n      0x24\n      dup3\n      add\n        /* \"#utility.yul\":1277:1307   */\n      mstore\n        /* \"#utility.yul\":1343:1377   */\n      0x20436f6c6c656374696f6e2063616e6e6f74206265206e756c6c206164647265\n        /* \"#utility.yul\":1323:1341   */\n      0x44\n      dup3\n      add\n        /* \"#utility.yul\":1316:1378   */\n      mstore\n      shl(0xf0, 0x7373)\n        /* \"#utility.yul\":1394:1412   */\n      0x64\n      dup3\n      add\n        /* \"#utility.yul\":1387:1419   */\n      mstore\n        /* \"#utility.yul\":1436:1455   */\n      0x84\n      add\n        /* \"contracts/Manager/TransferSelectorNFT.sol\":1578:1649  require(collection != address(0), \" Collection cannot be null address\") */\n    tag_58:\n      mload(0x40)\n      dup1\n      swap2\n      sub\n      swap1\n      revert\n    tag_57:\n      sub(shl(0xa0, 0x01), 0x01)\n        /* \"contracts/Manager/TransferSelectorNFT.sol\":1667:1696  transferManager != address(0) */\n      dup2\n      and\n        /* \"contracts/Manager/TransferSelectorNFT.sol\":1659:1739  require(transferManager != address(0), \"TransferManager cannot be null address\") */\n      tag_60\n      jumpi\n      mload(0x40)\n      shl(0xe5, 0x461bcd)\n      dup2\n      mstore\n        /* \"#utility.yul\":1668:1670   */\n      0x20\n        /* \"contracts/Manager/TransferSelectorNFT.sol\":1659:1739  require(transferManager != address(0), \"TransferManager cannot be null address\") */\n      0x04\n      dup3\n      add\n        /* \"#utility.yul\":1650:1671   */\n      mstore\n        /* \"#utility.yul\":1707:1709   */\n      0x26\n        /* \"#utility.yul\":1687:1705   */\n      0x24\n      dup3\n      add\n        /* \"#utility.yul\":1680:1710   */\n      mstore\n        /* \"#utility.yul\":1746:1780   */\n      0x5472616e736665724d616e616765722063616e6e6f74206265206e756c6c2061\n        /* \"#utility.yul\":1726:1744   */\n      0x44\n      dup3\n      add\n        /* \"#utility.yul\":1719:1781   */\n      mstore\n      shl(0xd0, 0x646472657373)\n        /* \"#utility.yul\":1797:1815   */\n      0x64\n      dup3\n      add\n        /* \"#utility.yul\":1790:1826   */\n      mstore\n        /* \"#utility.yul\":1843:1862   */\n      0x84\n      add\n        /* \"contracts/Manager/TransferSelectorNFT.sol\":1659:1739  require(transferManager != address(0), \"TransferManager cannot be null address\") */\n      tag_58\n        /* \"#utility.yul\":1466:1868   */\n      jump\n        /* \"contracts/Manager/TransferSelectorNFT.sol\":1659:1739  require(transferManager != address(0), \"TransferManager cannot be null address\") */\n    tag_60:\n      sub(shl(0xa0, 0x01), 0x01)\n        /* \"contracts/Manager/TransferSelectorNFT.sol\":1825:1873  transferManagerSelectorForCollection[collection] */\n      dup3\n      dup2\n      and\n      0x00\n      dup2\n      dup2\n      mstore\n        /* \"contracts/Manager/TransferSelectorNFT.sol\":1825:1861  transferManagerSelectorForCollection */\n      0x01\n        /* \"contracts/Manager/TransferSelectorNFT.sol\":1825:1873  transferManagerSelectorForCollection[collection] */\n      0x20\n      mstore\n      0x40\n      dup1\n      dup3\n      keccak256\n        /* \"contracts/Manager/TransferSelectorNFT.sol\":1825:1891  transferManagerSelectorForCollection[collection] = transferManager */\n      dup1\n      sload\n      not(sub(shl(0xa0, 0x01), 0x01))\n      and\n      swap5\n      dup7\n      and\n      swap5\n      dup6\n      or\n      swap1\n      sstore\n        /* \"contracts/Manager/TransferSelectorNFT.sol\":1907:1966  CollectionTransferManagerAdded(collection, transferManager) */\n      mload\n      0xda166be6ba0ebb71be3f83e7d669765de552ea08978bfe3e3e42d54174111b62\n      swap2\n        /* \"contracts/Manager/TransferSelectorNFT.sol\":1825:1873  transferManagerSelectorForCollection[collection] */\n      swap1\n        /* \"contracts/Manager/TransferSelectorNFT.sol\":1907:1966  CollectionTransferManagerAdded(collection, transferManager) */\n      log3\n        /* \"contracts/Manager/TransferSelectorNFT.sol\":1466:1973  function addCollectionTransferManager(address collection, address transferManager) external onlyOwner {... */\n      pop\n      pop\n      jump\t// out\n        /* \"contracts/Manager/TransferSelectorNFT.sol\":2145:2517  function removeCollectionTransferManager(address collection) external onlyOwner {... */\n    tag_34:\n        /* \"@openzeppelin/contracts/access/Ownable.sol\":1094:1107  _checkOwner() */\n      tag_64\n        /* \"@openzeppelin/contracts/access/Ownable.sol\":1094:1105  _checkOwner */\n      tag_55\n        /* \"@openzeppelin/contracts/access/Ownable.sol\":1094:1107  _checkOwner() */\n      jump\t// in\n    tag_64:\n      sub(shl(0xa0, 0x01), 0x01)\n        /* \"contracts/Manager/TransferSelectorNFT.sol\":2256:2304  transferManagerSelectorForCollection[collection] */\n      dup2\n      dup2\n      and\n        /* \"contracts/Manager/TransferSelectorNFT.sol\":2316:2317  0 */\n      0x00\n        /* \"contracts/Manager/TransferSelectorNFT.sol\":2256:2304  transferManagerSelectorForCollection[collection] */\n      swap1\n      dup2\n      mstore\n        /* \"contracts/Manager/TransferSelectorNFT.sol\":2256:2292  transferManagerSelectorForCollection */\n      0x01\n        /* \"contracts/Manager/TransferSelectorNFT.sol\":2256:2304  transferManagerSelectorForCollection[collection] */\n      0x20\n      mstore\n      0x40\n      swap1\n      keccak256\n      sload\n      and\n        /* \"contracts/Manager/TransferSelectorNFT.sol\":2235:2378  require(... */\n      tag_66\n      jumpi\n      mload(0x40)\n      shl(0xe5, 0x461bcd)\n      dup2\n      mstore\n        /* \"#utility.yul\":2075:2077   */\n      0x20\n        /* \"contracts/Manager/TransferSelectorNFT.sol\":2235:2378  require(... */\n      0x04\n      dup3\n      add\n        /* \"#utility.yul\":2057:2078   */\n      mstore\n        /* \"#utility.yul\":2114:2116   */\n      0x22\n        /* \"#utility.yul\":2094:2112   */\n      0x24\n      dup3\n      add\n        /* \"#utility.yul\":2087:2117   */\n      mstore\n        /* \"#utility.yul\":2153:2187   */\n      0x436f6c6c656374696f6e20686173206e6f207472616e73666572206d616e6167\n        /* \"#utility.yul\":2133:2151   */\n      0x44\n      dup3\n      add\n        /* \"#utility.yul\":2126:2188   */\n      mstore\n      shl(0xf1, 0x32b9)\n        /* \"#utility.yul\":2204:2222   */\n      0x64\n      dup3\n      add\n        /* \"#utility.yul\":2197:2229   */\n      mstore\n        /* \"#utility.yul\":2246:2265   */\n      0x84\n      add\n        /* \"contracts/Manager/TransferSelectorNFT.sol\":2235:2378  require(... */\n      tag_58\n        /* \"#utility.yul\":1873:2271   */\n      jump\n        /* \"contracts/Manager/TransferSelectorNFT.sol\":2235:2378  require(... */\n    tag_66:\n      sub(shl(0xa0, 0x01), 0x01)\n        /* \"contracts/Manager/TransferSelectorNFT.sol\":2389:2437  transferManagerSelectorForCollection[collection] */\n      dup2\n      and\n        /* \"contracts/Manager/TransferSelectorNFT.sol\":2448:2449  0 */\n      0x00\n        /* \"contracts/Manager/TransferSelectorNFT.sol\":2389:2437  transferManagerSelectorForCollection[collection] */\n      dup2\n      dup2\n      mstore\n        /* \"contracts/Manager/TransferSelectorNFT.sol\":2389:2425  transferManagerSelectorForCollection */\n      0x01\n        /* \"contracts/Manager/TransferSelectorNFT.sol\":2389:2437  transferManagerSelectorForCollection[collection] */\n      0x20\n      mstore\n      0x40\n      dup1\n      dup3\n      keccak256\n        /* \"contracts/Manager/TransferSelectorNFT.sol\":2389:2450  transferManagerSelectorForCollection[collection] = address(0) */\n      dup1\n      sload\n      not(sub(shl(0xa0, 0x01), 0x01))\n      and\n      swap1\n      sstore\n        /* \"contracts/Manager/TransferSelectorNFT.sol\":2466:2510  CollectionTransferManagerRemoved(collection) */\n      mload\n      0x8c3bf4babc197f3db0e7ec65aaf23fc0efb0e689436aeea8514c3f01fd97841f\n      swap2\n        /* \"contracts/Manager/TransferSelectorNFT.sol\":2448:2449  0 */\n      swap1\n        /* \"contracts/Manager/TransferSelectorNFT.sol\":2466:2510  CollectionTransferManagerRemoved(collection) */\n      log2\n        /* \"contracts/Manager/TransferSelectorNFT.sol\":2145:2517  function removeCollectionTransferManager(address collection) external onlyOwner {... */\n      pop\n      jump\t// out\n        /* \"@openzeppelin/contracts/access/Ownable.sol\":1831:1932  function renounceOwnership() public virtual onlyOwner {... */\n    tag_36:\n        /* \"@openzeppelin/contracts/access/Ownable.sol\":1094:1107  _checkOwner() */\n      tag_70\n        /* \"@openzeppelin/contracts/access/Ownable.sol\":1094:1105  _checkOwner */\n      tag_55\n        /* \"@openzeppelin/contracts/access/Ownable.sol\":1094:1107  _checkOwner() */\n      jump\t// in\n    tag_70:\n        /* \"@openzeppelin/contracts/access/Ownable.sol\":1895:1925  _transferOwnership(address(0)) */\n      tag_72\n        /* \"@openzeppelin/contracts/access/Ownable.sol\":1922:1923  0 */\n      0x00\n        /* \"@openzeppelin/contracts/access/Ownable.sol\":1895:1913  _transferOwnership */\n      tag_73\n        /* \"@openzeppelin/contracts/access/Ownable.sol\":1895:1925  _transferOwnership(address(0)) */\n      jump\t// in\n    tag_72:\n        /* \"@openzeppelin/contracts/access/Ownable.sol\":1831:1932  function renounceOwnership() public virtual onlyOwner {... */\n      jump\t// out\n        /* \"contracts/Manager/TransferSelectorNFT.sol\":2576:3310  function checkTransferManagerForToken(address collection) external view override returns (address transferManager) {... */\n    tag_48:\n      sub(shl(0xa0, 0x01), 0x01)\n        /* \"contracts/Manager/TransferSelectorNFT.sol\":2783:2831  transferManagerSelectorForCollection[collection] */\n      dup1\n      dup3\n      and\n        /* \"contracts/Manager/TransferSelectorNFT.sol\":2666:2689  address transferManager */\n      0x00\n        /* \"contracts/Manager/TransferSelectorNFT.sol\":2783:2831  transferManagerSelectorForCollection[collection] */\n      swap1\n      dup2\n      mstore\n        /* \"contracts/Manager/TransferSelectorNFT.sol\":2783:2819  transferManagerSelectorForCollection */\n      0x01\n        /* \"contracts/Manager/TransferSelectorNFT.sol\":2783:2831  transferManagerSelectorForCollection[collection] */\n      0x20\n      mstore\n      0x40\n      swap1\n      keccak256\n      sload\n      and\n      dup1\n        /* \"contracts/Manager/TransferSelectorNFT.sol\":2928:3271  if (transferManager == address(0)) {... */\n      tag_88\n      jumpi\n        /* \"contracts/Manager/TransferSelectorNFT.sol\":2981:3039  IERC165(collection).supportsInterface(INTERFACE_ID_ERC721) */\n      mload(0x40)\n      shl(0xe0, 0x01ffc9a7)\n      dup2\n      mstore\n      shl(0xe0, 0x80ac58cd)\n      0x04\n      dup3\n      add\n        /* \"#utility.yul\":601:653   */\n      mstore\n      sub(shl(0xa0, 0x01), 0x01)\n        /* \"contracts/Manager/TransferSelectorNFT.sol\":2981:3018  IERC165(collection).supportsInterface */\n      dup4\n      and\n      swap1\n      0x01ffc9a7\n      swap1\n        /* \"#utility.yul\":574:592   */\n      0x24\n      add\n        /* \"contracts/Manager/TransferSelectorNFT.sol\":2981:3039  IERC165(collection).supportsInterface(INTERFACE_ID_ERC721) */\n      0x20\n      mload(0x40)\n      dup1\n      dup4\n      sub\n      dup2\n      dup7\n      gas\n      staticcall\n      iszero\n      dup1\n      iszero\n      tag_79\n      jumpi\n      returndatasize\n      0x00\n      dup1\n      returndatacopy\n      revert(0x00, returndatasize)\n    tag_79:\n      pop\n      pop\n      pop\n      pop\n      mload(0x40)\n      returndatasize\n      not(0x1f)\n      0x1f\n      dup3\n      add\n      and\n      dup3\n      add\n      dup1\n      0x40\n      mstore\n      pop\n      dup2\n      add\n      swap1\n      tag_80\n      swap2\n      swap1\n      tag_81\n      jump\t// in\n    tag_80:\n        /* \"contracts/Manager/TransferSelectorNFT.sol\":2977:3261  if (IERC165(collection).supportsInterface(INTERFACE_ID_ERC721)) {... */\n      iszero\n      tag_82\n      jumpi\n      pop\n        /* \"contracts/Manager/TransferSelectorNFT.sol\":3077:3100  TRANSFER_MANAGER_ERC721 */\n      immutable(\"0x566674f71911cd3b7cbc2fd66353711d31aaa96f269440d186374a017f53f324\")\n        /* \"contracts/Manager/TransferSelectorNFT.sol\":2576:3310  function checkTransferManagerForToken(address collection) external view override returns (address transferManager) {... */\n      swap2\n      swap1\n      pop\n      jump\t// out\n        /* \"contracts/Manager/TransferSelectorNFT.sol\":2977:3261  if (IERC165(collection).supportsInterface(INTERFACE_ID_ERC721)) {... */\n    tag_82:\n        /* \"contracts/Manager/TransferSelectorNFT.sol\":3125:3184  IERC165(collection).supportsInterface(INTERFACE_ID_ERC1155) */\n      mload(0x40)\n      shl(0xe0, 0x01ffc9a7)\n      dup2\n      mstore\n      shl(0xe1, 0x6cdb3d13)\n      0x04\n      dup3\n      add\n        /* \"#utility.yul\":601:653   */\n      mstore\n      sub(shl(0xa0, 0x01), 0x01)\n        /* \"contracts/Manager/TransferSelectorNFT.sol\":3125:3162  IERC165(collection).supportsInterface */\n      dup4\n      and\n      swap1\n      0x01ffc9a7\n      swap1\n        /* \"#utility.yul\":574:592   */\n      0x24\n      add\n        /* \"contracts/Manager/TransferSelectorNFT.sol\":3125:3184  IERC165(collection).supportsInterface(INTERFACE_ID_ERC1155) */\n      0x20\n      mload(0x40)\n      dup1\n      dup4\n      sub\n      dup2\n      dup7\n      gas\n      staticcall\n      iszero\n      dup1\n      iszero\n      tag_86\n      jumpi\n      returndatasize\n      0x00\n      dup1\n      returndatacopy\n      revert(0x00, returndatasize)\n    tag_86:\n      pop\n      pop\n      pop\n      pop\n      mload(0x40)\n      returndatasize\n      not(0x1f)\n      0x1f\n      dup3\n      add\n      and\n      dup3\n      add\n      dup1\n      0x40\n      mstore\n      pop\n      dup2\n      add\n      swap1\n      tag_87\n      swap2\n      swap1\n      tag_81\n      jump\t// in\n    tag_87:\n        /* \"contracts/Manager/TransferSelectorNFT.sol\":3121:3261  if (IERC165(collection).supportsInterface(INTERFACE_ID_ERC1155)) {... */\n      iszero\n      tag_88\n      jumpi\n      pop\n        /* \"contracts/Manager/TransferSelectorNFT.sol\":3222:3246  TRANSFER_MANAGER_ERC1155 */\n      immutable(\"0xbf08d8a2d7c7780024ba6e6dbe12d3d5a5a747ea3071fca63d8a2ede50d3472a\")\n        /* \"contracts/Manager/TransferSelectorNFT.sol\":3121:3261  if (IERC165(collection).supportsInterface(INTERFACE_ID_ERC1155)) {... */\n    tag_88:\n        /* \"contracts/Manager/TransferSelectorNFT.sol\":2576:3310  function checkTransferManagerForToken(address collection) external view override returns (address transferManager) {... */\n      swap2\n      swap1\n      pop\n      jump\t// out\n        /* \"@openzeppelin/contracts/access/Ownable.sol\":2081:2279  function transferOwnership(address newOwner) public virtual onlyOwner {... */\n    tag_52:\n        /* \"@openzeppelin/contracts/access/Ownable.sol\":1094:1107  _checkOwner() */\n      tag_90\n        /* \"@openzeppelin/contracts/access/Ownable.sol\":1094:1105  _checkOwner */\n      tag_55\n        /* \"@openzeppelin/contracts/access/Ownable.sol\":1094:1107  _checkOwner() */\n      jump\t// in\n    tag_90:\n      sub(shl(0xa0, 0x01), 0x01)\n        /* \"@openzeppelin/contracts/access/Ownable.sol\":2169:2191  newOwner != address(0) */\n      dup2\n      and\n        /* \"@openzeppelin/contracts/access/Ownable.sol\":2161:2234  require(newOwner != address(0), \"Ownable: new owner is the zero address\") */\n      tag_92\n      jumpi\n      mload(0x40)\n      shl(0xe5, 0x461bcd)\n      dup2\n      mstore\n        /* \"#utility.yul\":2760:2762   */\n      0x20\n        /* \"@openzeppelin/contracts/access/Ownable.sol\":2161:2234  require(newOwner != address(0), \"Ownable: new owner is the zero address\") */\n      0x04\n      dup3\n      add\n        /* \"#utility.yul\":2742:2763   */\n      mstore\n        /* \"#utility.yul\":2799:2801   */\n      0x26\n        /* \"#utility.yul\":2779:2797   */\n      0x24\n      dup3\n      add\n        /* \"#utility.yul\":2772:2802   */\n      mstore\n        /* \"#utility.yul\":2838:2872   */\n      0x4f776e61626c653a206e6577206f776e657220697320746865207a65726f2061\n        /* \"#utility.yul\":2818:2836   */\n      0x44\n      dup3\n      add\n        /* \"#utility.yul\":2811:2873   */\n      mstore\n      shl(0xd0, 0x646472657373)\n        /* \"#utility.yul\":2889:2907   */\n      0x64\n      dup3\n      add\n        /* \"#utility.yul\":2882:2918   */\n      mstore\n        /* \"#utility.yul\":2935:2954   */\n      0x84\n      add\n        /* \"@openzeppelin/contracts/access/Ownable.sol\":2161:2234  require(newOwner != address(0), \"Ownable: new owner is the zero address\") */\n      tag_58\n        /* \"#utility.yul\":2558:2960   */\n      jump\n        /* \"@openzeppelin/contracts/access/Ownable.sol\":2161:2234  require(newOwner != address(0), \"Ownable: new owner is the zero address\") */\n    tag_92:\n        /* \"@openzeppelin/contracts/access/Ownable.sol\":2244:2272  _transferOwnership(newOwner) */\n      tag_95\n        /* \"@openzeppelin/contracts/access/Ownable.sol\":2263:2271  newOwner */\n      dup2\n        /* \"@openzeppelin/contracts/access/Ownable.sol\":2244:2262  _transferOwnership */\n      tag_73\n        /* \"@openzeppelin/contracts/access/Ownable.sol\":2244:2272  _transferOwnership(newOwner) */\n      jump\t// in\n    tag_95:\n        /* \"@openzeppelin/contracts/access/Ownable.sol\":2081:2279  function transferOwnership(address newOwner) public virtual onlyOwner {... */\n      pop\n      jump\t// out\n        /* \"@openzeppelin/contracts/access/Ownable.sol\":1359:1489  function _checkOwner() internal view virtual {... */\n    tag_55:\n        /* \"@openzeppelin/contracts/access/Ownable.sol\":1247:1254  address */\n      0x00\n        /* \"@openzeppelin/contracts/access/Ownable.sol\":1273:1279  _owner */\n      sload\n      sub(shl(0xa0, 0x01), 0x01)\n      and\n        /* \"@openzeppelin/contracts/utils/Context.sol\":719:729  msg.sender */\n      caller\n        /* \"@openzeppelin/contracts/access/Ownable.sol\":1422:1445  owner() == _msgSender() */\n      eq\n        /* \"@openzeppelin/contracts/access/Ownable.sol\":1414:1482  require(owner() == _msgSender(), \"Ownable: caller is not the owner\") */\n      tag_72\n      jumpi\n      mload(0x40)\n      shl(0xe5, 0x461bcd)\n      dup2\n      mstore\n        /* \"#utility.yul\":3167:3169   */\n      0x20\n        /* \"@openzeppelin/contracts/access/Ownable.sol\":1414:1482  require(owner() == _msgSender(), \"Ownable: caller is not the owner\") */\n      0x04\n      dup3\n      add\n        /* \"#utility.yul\":3149:3170   */\n      dup2\n      swap1\n      mstore\n        /* \"#utility.yul\":3186:3204   */\n      0x24\n      dup3\n      add\n        /* \"#utility.yul\":3179:3209   */\n      mstore\n        /* \"#utility.yul\":3245:3279   */\n      0x4f776e61626c653a2063616c6c6572206973206e6f7420746865206f776e6572\n        /* \"#utility.yul\":3225:3243   */\n      0x44\n      dup3\n      add\n        /* \"#utility.yul\":3218:3280   */\n      mstore\n        /* \"#utility.yul\":3297:3315   */\n      0x64\n      add\n        /* \"@openzeppelin/contracts/access/Ownable.sol\":1414:1482  require(owner() == _msgSender(), \"Ownable: caller is not the owner\") */\n      tag_58\n        /* \"#utility.yul\":2965:3321   */\n      jump\n        /* \"@openzeppelin/contracts/access/Ownable.sol\":2433:2620  function _transferOwnership(address newOwner) internal virtual {... */\n    tag_73:\n        /* \"@openzeppelin/contracts/access/Ownable.sol\":2506:2522  address oldOwner */\n      0x00\n        /* \"@openzeppelin/contracts/access/Ownable.sol\":2525:2531  _owner */\n      dup1\n      sload\n      sub(shl(0xa0, 0x01), 0x01)\n        /* \"@openzeppelin/contracts/access/Ownable.sol\":2541:2558  _owner = newOwner */\n      dup4\n      dup2\n      and\n      not(sub(shl(0xa0, 0x01), 0x01))\n      dup4\n      and\n      dup2\n      or\n      dup5\n      sstore\n        /* \"@openzeppelin/contracts/access/Ownable.sol\":2573:2613  OwnershipTransferred(oldOwner, newOwner) */\n      mload(0x40)\n        /* \"@openzeppelin/contracts/access/Ownable.sol\":2525:2531  _owner */\n      swap2\n      swap1\n      swap3\n      and\n      swap3\n      dup4\n      swap2\n        /* \"@openzeppelin/contracts/access/Ownable.sol\":2573:2613  OwnershipTransferred(oldOwner, newOwner) */\n      0x8be0079c531659141344cd1fd0a4f28419497f9722a3daafe3b4186f6b6457e0\n      swap2\n        /* \"@openzeppelin/contracts/access/Ownable.sol\":2506:2522  address oldOwner */\n      swap1\n        /* \"@openzeppelin/contracts/access/Ownable.sol\":2573:2613  OwnershipTransferred(oldOwner, newOwner) */\n      log3\n        /* \"@openzeppelin/contracts/access/Ownable.sol\":2496:2620  {... */\n      pop\n        /* \"@openzeppelin/contracts/access/Ownable.sol\":2433:2620  function _transferOwnership(address newOwner) internal virtual {... */\n      pop\n      jump\t// out\n        /* \"#utility.yul\":14:187   */\n    tag_105:\n        /* \"#utility.yul\":82:102   */\n      dup1\n      calldataload\n      sub(shl(0xa0, 0x01), 0x01)\n        /* \"#utility.yul\":131:162   */\n      dup2\n      and\n        /* \"#utility.yul\":121:163   */\n      dup2\n      eq\n        /* \"#utility.yul\":111:181   */\n      tag_88\n      jumpi\n        /* \"#utility.yul\":177:178   */\n      0x00\n        /* \"#utility.yul\":174:175   */\n      dup1\n        /* \"#utility.yul\":167:179   */\n      revert\n        /* \"#utility.yul\":192:452   */\n    tag_17:\n        /* \"#utility.yul\":260:266   */\n      0x00\n        /* \"#utility.yul\":268:274   */\n      dup1\n        /* \"#utility.yul\":321:323   */\n      0x40\n        /* \"#utility.yul\":309:318   */\n      dup4\n        /* \"#utility.yul\":300:307   */\n      dup6\n        /* \"#utility.yul\":296:319   */\n      sub\n        /* \"#utility.yul\":292:324   */\n      slt\n        /* \"#utility.yul\":289:341   */\n      iszero\n      tag_110\n      jumpi\n        /* \"#utility.yul\":337:338   */\n      0x00\n        /* \"#utility.yul\":334:335   */\n      dup1\n        /* \"#utility.yul\":327:339   */\n      revert\n        /* \"#utility.yul\":289:341   */\n    tag_110:\n        /* \"#utility.yul\":360:389   */\n      tag_111\n        /* \"#utility.yul\":379:388   */\n      dup4\n        /* \"#utility.yul\":360:389   */\n      tag_105\n      jump\t// in\n    tag_111:\n        /* \"#utility.yul\":350:389   */\n      swap2\n      pop\n        /* \"#utility.yul\":408:446   */\n      tag_112\n        /* \"#utility.yul\":442:444   */\n      0x20\n        /* \"#utility.yul\":431:440   */\n      dup5\n        /* \"#utility.yul\":427:445   */\n      add\n        /* \"#utility.yul\":408:446   */\n      tag_105\n      jump\t// in\n    tag_112:\n        /* \"#utility.yul\":398:446   */\n      swap1\n      pop\n        /* \"#utility.yul\":192:452   */\n      swap3\n      pop\n      swap3\n      swap1\n      pop\n      jump\t// out\n        /* \"#utility.yul\":872:1058   */\n    tag_29:\n        /* \"#utility.yul\":931:937   */\n      0x00\n        /* \"#utility.yul\":984:986   */\n      0x20\n        /* \"#utility.yul\":972:981   */\n      dup3\n        /* \"#utility.yul\":963:970   */\n      dup5\n        /* \"#utility.yul\":959:982   */\n      sub\n        /* \"#utility.yul\":955:987   */\n      slt\n        /* \"#utility.yul\":952:1004   */\n      iszero\n      tag_116\n      jumpi\n        /* \"#utility.yul\":1000:1001   */\n      0x00\n        /* \"#utility.yul\":997:998   */\n      dup1\n        /* \"#utility.yul\":990:1002   */\n      revert\n        /* \"#utility.yul\":952:1004   */\n    tag_116:\n        /* \"#utility.yul\":1023:1052   */\n      tag_117\n        /* \"#utility.yul\":1042:1051   */\n      dup3\n        /* \"#utility.yul\":1023:1052   */\n      tag_105\n      jump\t// in\n    tag_117:\n        /* \"#utility.yul\":1013:1052   */\n      swap4\n        /* \"#utility.yul\":872:1058   */\n      swap3\n      pop\n      pop\n      pop\n      jump\t// out\n        /* \"#utility.yul\":2276:2553   */\n    tag_81:\n        /* \"#utility.yul\":2343:2349   */\n      0x00\n        /* \"#utility.yul\":2396:2398   */\n      0x20\n        /* \"#utility.yul\":2384:2393   */\n      dup3\n        /* \"#utility.yul\":2375:2382   */\n      dup5\n        /* \"#utility.yul\":2371:2394   */\n      sub\n        /* \"#utility.yul\":2367:2399   */\n      slt\n        /* \"#utility.yul\":2364:2416   */\n      iszero\n      tag_122\n      jumpi\n        /* \"#utility.yul\":2412:2413   */\n      0x00\n        /* \"#utility.yul\":2409:2410   */\n      dup1\n        /* \"#utility.yul\":2402:2414   */\n      revert\n        /* \"#utility.yul\":2364:2416   */\n    tag_122:\n        /* \"#utility.yul\":2444:2453   */\n      dup2\n        /* \"#utility.yul\":2438:2454   */\n      mload\n        /* \"#utility.yul\":2497:2502   */\n      dup1\n        /* \"#utility.yul\":2490:2503   */\n      iszero\n        /* \"#utility.yul\":2483:2504   */\n      iszero\n        /* \"#utility.yul\":2476:2481   */\n      dup2\n        /* \"#utility.yul\":2473:2505   */\n      eq\n        /* \"#utility.yul\":2463:2523   */\n      tag_117\n      jumpi\n        /* \"#utility.yul\":2519:2520   */\n      0x00\n        /* \"#utility.yul\":2516:2517   */\n      dup1\n        /* \"#utility.yul\":2509:2521   */\n      revert\n\n    auxdata: 0xa2646970667358221220ad70df44b03ec2bf2e028d7c43376ff8fbd7ec2c21820befd5633166a13a2d0a64736f6c63430008110033\n}\n",
				"bytecode": {
					"linkReferences": {},
					"object": "60c060405234801561001057600080fd5b5060405161084338038061084383398101604081905261002f916100bb565b6100383361004f565b6001600160a01b039182166080521660a0526100ee565b600080546001600160a01b038381166001600160a01b0319831681178455604051919092169283917f8be0079c531659141344cd1fd0a4f28419497f9722a3daafe3b4186f6b6457e09190a35050565b80516001600160a01b03811681146100b657600080fd5b919050565b600080604083850312156100ce57600080fd5b6100d78361009f565b91506100e56020840161009f565b90509250929050565b60805160a0516107236101206000396000818160f40152610517015260008181610188015261047c01526107236000f3fe608060405234801561001057600080fd5b50600436106100a95760003560e01c8063715018a611610071578063715018a61461016a5780638da5cb5b14610172578063b1357ddd14610183578063bc6bc0cd146101aa578063cc159493146101b8578063f2fde38b146101cb57600080fd5b806325c6a895146100ae57806333bf6156146100c357806338928956146100ef5780634216a7531461012e5780637053fb7914610157575b600080fd5b6100c16100bc366004610676565b6101de565b005b6100d1636cdb3d1360e11b81565b6040516001600160e01b031990911681526020015b60405180910390f35b6101167f000000000000000000000000000000000000000000000000000000000000000081565b6040516001600160a01b0390911681526020016100e6565b61011661013c3660046106a9565b6001602052600090815260409020546001600160a01b031681565b6100c16101653660046106a9565b610308565b6100c16103d1565b6000546001600160a01b0316610116565b6101167f000000000000000000000000000000000000000000000000000000000000000081565b6100d16380ac58cd60e01b81565b6101166101c63660046106a9565b6103e5565b6100c16101d93660046106a9565b61053c565b6101e66105b5565b6001600160a01b03821661024c5760405162461bcd60e51b815260206004820152602260248201527f20436f6c6c656374696f6e2063616e6e6f74206265206e756c6c206164647265604482015261737360f01b60648201526084015b60405180910390fd5b6001600160a01b0381166102b15760405162461bcd60e51b815260206004820152602660248201527f5472616e736665724d616e616765722063616e6e6f74206265206e756c6c206160448201526564647265737360d01b6064820152608401610243565b6001600160a01b0382811660008181526001602052604080822080546001600160a01b0319169486169485179055517fda166be6ba0ebb71be3f83e7d669765de552ea08978bfe3e3e42d54174111b629190a35050565b6103106105b5565b6001600160a01b03818116600090815260016020526040902054166103825760405162461bcd60e51b815260206004820152602260248201527f436f6c6c656374696f6e20686173206e6f207472616e73666572206d616e616760448201526132b960f11b6064820152608401610243565b6001600160a01b03811660008181526001602052604080822080546001600160a01b0319169055517f8c3bf4babc197f3db0e7ec65aaf23fc0efb0e689436aeea8514c3f01fd97841f9190a250565b6103d96105b5565b6103e3600061060f565b565b6001600160a01b038082166000908152600160205260409020541680610537576040516301ffc9a760e01b81526380ac58cd60e01b60048201526001600160a01b038316906301ffc9a790602401602060405180830381865afa158015610450573d6000803e3d6000fd5b505050506040513d601f19601f8201168201806040525081019061047491906106cb565b156104a057507f0000000000000000000000000000000000000000000000000000000000000000919050565b6040516301ffc9a760e01b8152636cdb3d1360e11b60048201526001600160a01b038316906301ffc9a790602401602060405180830381865afa1580156104eb573d6000803e3d6000fd5b505050506040513d601f19601f8201168201806040525081019061050f91906106cb565b1561053757507f00000000000000000000000000000000000000000000000000000000000000005b919050565b6105446105b5565b6001600160a01b0381166105a95760405162461bcd60e51b815260206004820152602660248201527f4f776e61626c653a206e6577206f776e657220697320746865207a65726f206160448201526564647265737360d01b6064820152608401610243565b6105b28161060f565b50565b6000546001600160a01b031633146103e35760405162461bcd60e51b815260206004820181905260248201527f4f776e61626c653a2063616c6c6572206973206e6f7420746865206f776e65726044820152606401610243565b600080546001600160a01b038381166001600160a01b0319831681178455604051919092169283917f8be0079c531659141344cd1fd0a4f28419497f9722a3daafe3b4186f6b6457e09190a35050565b80356001600160a01b038116811461053757600080fd5b6000806040838503121561068957600080fd5b6106928361065f565b91506106a06020840161065f565b90509250929050565b6000602082840312156106bb57600080fd5b6106c48261065f565b9392505050565b6000602082840312156106dd57600080fd5b815180151581146106c457600080fdfea2646970667358221220ad70df44b03ec2bf2e028d7c43376ff8fbd7ec2c21820befd5633166a13a2d0a64736f6c63430008110033",
					"opcodes": "PUSH1 0xC0 PUSH1 0x40 MSTORE CALLVALUE DUP1 ISZERO PUSH2 0x10 JUMPI PUSH1 0x0 DUP1 REVERT JUMPDEST POP PUSH1 0x40 MLOAD PUSH2 0x843 CODESIZE SUB DUP1 PUSH2 0x843 DUP4 CODECOPY DUP2 ADD PUSH1 0x40 DUP2 SWAP1 MSTORE PUSH2 0x2F SWAP2 PUSH2 0xBB JUMP JUMPDEST PUSH2 0x38 CALLER PUSH2 0x4F JUMP JUMPDEST PUSH1 0x1 PUSH1 0x1 PUSH1 0xA0 SHL SUB SWAP2 DUP3 AND PUSH1 0x80 MSTORE AND PUSH1 0xA0 MSTORE PUSH2 0xEE JUMP JUMPDEST PUSH1 0x0 DUP1 SLOAD PUSH1 0x1 PUSH1 0x1 PUSH1 0xA0 SHL SUB DUP4 DUP2 AND PUSH1 0x1 PUSH1 0x1 PUSH1 0xA0 SHL SUB NOT DUP4 AND DUP2 OR DUP5 SSTORE PUSH1 0x40 MLOAD SWAP2 SWAP1 SWAP3 AND SWAP3 DUP4 SWAP2 PUSH32 0x8BE0079C531659141344CD1FD0A4F28419497F9722A3DAAFE3B4186F6B6457E0 SWAP2 SWAP1 LOG3 POP POP JUMP JUMPDEST DUP1 MLOAD PUSH1 0x1 PUSH1 0x1 PUSH1 0xA0 SHL SUB DUP2 AND DUP2 EQ PUSH2 0xB6 JUMPI PUSH1 0x0 DUP1 REVERT JUMPDEST SWAP2 SWAP1 POP JUMP JUMPDEST PUSH1 0x0 DUP1 PUSH1 0x40 DUP4 DUP6 SUB SLT ISZERO PUSH2 0xCE JUMPI PUSH1 0x0 DUP1 REVERT JUMPDEST PUSH2 0xD7 DUP4 PUSH2 0x9F JUMP JUMPDEST SWAP2 POP PUSH2 0xE5 PUSH1 0x20 DUP5 ADD PUSH2 0x9F JUMP JUMPDEST SWAP1 POP SWAP3 POP SWAP3 SWAP1 POP JUMP JUMPDEST PUSH1 0x80 MLOAD PUSH1 0xA0 MLOAD PUSH2 0x723 PUSH2 0x120 PUSH1 0x0 CODECOPY PUSH1 0x0 DUP2 DUP2 PUSH1 0xF4 ADD MSTORE PUSH2 0x517 ADD MSTORE PUSH1 0x0 DUP2 DUP2 PUSH2 0x188 ADD MSTORE PUSH2 0x47C ADD MSTORE PUSH2 0x723 PUSH1 0x0 RETURN INVALID PUSH1 0x80 PUSH1 0x40 MSTORE CALLVALUE DUP1 ISZERO PUSH2 0x10 JUMPI PUSH1 0x0 DUP1 REVERT JUMPDEST POP PUSH1 0x4 CALLDATASIZE LT PUSH2 0xA9 JUMPI PUSH1 0x0 CALLDATALOAD PUSH1 0xE0 SHR DUP1 PUSH4 0x715018A6 GT PUSH2 0x71 JUMPI DUP1 PUSH4 0x715018A6 EQ PUSH2 0x16A JUMPI DUP1 PUSH4 0x8DA5CB5B EQ PUSH2 0x172 JUMPI DUP1 PUSH4 0xB1357DDD EQ PUSH2 0x183 JUMPI DUP1 PUSH4 0xBC6BC0CD EQ PUSH2 0x1AA JUMPI DUP1 PUSH4 0xCC159493 EQ PUSH2 0x1B8 JUMPI DUP1 PUSH4 0xF2FDE38B EQ PUSH2 0x1CB JUMPI PUSH1 0x0 DUP1 REVERT JUMPDEST DUP1 PUSH4 0x25C6A895 EQ PUSH2 0xAE JUMPI DUP1 PUSH4 0x33BF6156 EQ PUSH2 0xC3 JUMPI DUP1 PUSH4 0x38928956 EQ PUSH2 0xEF JUMPI DUP1 PUSH4 0x4216A753 EQ PUSH2 0x12E JUMPI DUP1 PUSH4 0x7053FB79 EQ PUSH2 0x157 JUMPI JUMPDEST PUSH1 0x0 DUP1 REVERT JUMPDEST PUSH2 0xC1 PUSH2 0xBC CALLDATASIZE PUSH1 0x4 PUSH2 0x676 JUMP JUMPDEST PUSH2 0x1DE JUMP JUMPDEST STOP JUMPDEST PUSH2 0xD1 PUSH4 0x6CDB3D13 PUSH1 0xE1 SHL DUP2 JUMP JUMPDEST PUSH1 0x40 MLOAD PUSH1 0x1 PUSH1 0x1 PUSH1 0xE0 SHL SUB NOT SWAP1 SWAP2 AND DUP2 MSTORE PUSH1 0x20 ADD JUMPDEST PUSH1 0x40 MLOAD DUP1 SWAP2 SUB SWAP1 RETURN JUMPDEST PUSH2 0x116 PUSH32 0x0 DUP2 JUMP JUMPDEST PUSH1 0x40 MLOAD PUSH1 0x1 PUSH1 0x1 PUSH1 0xA0 SHL SUB SWAP1 SWAP2 AND DUP2 MSTORE PUSH1 0x20 ADD PUSH2 0xE6 JUMP JUMPDEST PUSH2 0x116 PUSH2 0x13C CALLDATASIZE PUSH1 0x4 PUSH2 0x6A9 JUMP JUMPDEST PUSH1 0x1 PUSH1 0x20 MSTORE PUSH1 0x0 SWAP1 DUP2 MSTORE PUSH1 0x40 SWAP1 KECCAK256 SLOAD PUSH1 0x1 PUSH1 0x1 PUSH1 0xA0 SHL SUB AND DUP2 JUMP JUMPDEST PUSH2 0xC1 PUSH2 0x165 CALLDATASIZE PUSH1 0x4 PUSH2 0x6A9 JUMP JUMPDEST PUSH2 0x308 JUMP JUMPDEST PUSH2 0xC1 PUSH2 0x3D1 JUMP JUMPDEST PUSH1 0x0 SLOAD PUSH1 0x1 PUSH1 0x1 PUSH1 0xA0 SHL SUB AND PUSH2 0x116 JUMP JUMPDEST PUSH2 0x116 PUSH32 0x0 DUP2 JUMP JUMPDEST PUSH2 0xD1 PUSH4 0x80AC58CD PUSH1 0xE0 SHL DUP2 JUMP JUMPDEST PUSH2 0x116 PUSH2 0x1C6 CALLDATASIZE PUSH1 0x4 PUSH2 0x6A9 JUMP JUMPDEST PUSH2 0x3E5 JUMP JUMPDEST PUSH2 0xC1 PUSH2 0x1D9 CALLDATASIZE PUSH1 0x4 PUSH2 0x6A9 JUMP JUMPDEST PUSH2 0x53C JUMP JUMPDEST PUSH2 0x1E6 PUSH2 0x5B5 JUMP JUMPDEST PUSH1 0x1 PUSH1 0x1 PUSH1 0xA0 SHL SUB DUP3 AND PUSH2 0x24C JUMPI PUSH1 0x40 MLOAD PUSH3 0x461BCD PUSH1 0xE5 SHL DUP2 MSTORE PUSH1 0x20 PUSH1 0x4 DUP3 ADD MSTORE PUSH1 0x22 PUSH1 0x24 DUP3 ADD MSTORE PUSH32 0x20436F6C6C656374696F6E2063616E6E6F74206265206E756C6C206164647265 PUSH1 0x44 DUP3 ADD MSTORE PUSH2 0x7373 PUSH1 0xF0 SHL PUSH1 0x64 DUP3 ADD MSTORE PUSH1 0x84 ADD JUMPDEST PUSH1 0x40 MLOAD DUP1 SWAP2 SUB SWAP1 REVERT JUMPDEST PUSH1 0x1 PUSH1 0x1 PUSH1 0xA0 SHL SUB DUP2 AND PUSH2 0x2B1 JUMPI PUSH1 0x40 MLOAD PUSH3 0x461BCD PUSH1 0xE5 SHL DUP2 MSTORE PUSH1 0x20 PUSH1 0x4 DUP3 ADD MSTORE PUSH1 0x26 PUSH1 0x24 DUP3 ADD MSTORE PUSH32 0x5472616E736665724D616E616765722063616E6E6F74206265206E756C6C2061 PUSH1 0x44 DUP3 ADD MSTORE PUSH6 0x646472657373 PUSH1 0xD0 SHL PUSH1 0x64 DUP3 ADD MSTORE PUSH1 0x84 ADD PUSH2 0x243 JUMP JUMPDEST PUSH1 0x1 PUSH1 0x1 PUSH1 0xA0 SHL SUB DUP3 DUP2 AND PUSH1 0x0 DUP2 DUP2 MSTORE PUSH1 0x1 PUSH1 0x20 MSTORE PUSH1 0x40 DUP1 DUP3 KECCAK256 DUP1 SLOAD PUSH1 0x1 PUSH1 0x1 PUSH1 0xA0 SHL SUB NOT AND SWAP5 DUP7 AND SWAP5 DUP6 OR SWAP1 SSTORE MLOAD PUSH32 0xDA166BE6BA0EBB71BE3F83E7D669765DE552EA08978BFE3E3E42D54174111B62 SWAP2 SWAP1 LOG3 POP POP JUMP JUMPDEST PUSH2 0x310 PUSH2 0x5B5 JUMP JUMPDEST PUSH1 0x1 PUSH1 0x1 PUSH1 0xA0 SHL SUB DUP2 DUP2 AND PUSH1 0x0 SWAP1 DUP2 MSTORE PUSH1 0x1 PUSH1 0x20 MSTORE PUSH1 0x40 SWAP1 KECCAK256 SLOAD AND PUSH2 0x382 JUMPI PUSH1 0x40 MLOAD PUSH3 0x461BCD PUSH1 0xE5 SHL DUP2 MSTORE PUSH1 0x20 PUSH1 0x4 DUP3 ADD MSTORE PUSH1 0x22 PUSH1 0x24 DUP3 ADD MSTORE PUSH32 0x436F6C6C656374696F6E20686173206E6F207472616E73666572206D616E6167 PUSH1 0x44 DUP3 ADD MSTORE PUSH2 0x32B9 PUSH1 0xF1 SHL PUSH1 0x64 DUP3 ADD MSTORE PUSH1 0x84 ADD PUSH2 0x243 JUMP JUMPDEST PUSH1 0x1 PUSH1 0x1 PUSH1 0xA0 SHL SUB DUP2 AND PUSH1 0x0 DUP2 DUP2 MSTORE PUSH1 0x1 PUSH1 0x20 MSTORE PUSH1 0x40 DUP1 DUP3 KECCAK256 DUP1 SLOAD PUSH1 0x1 PUSH1 0x1 PUSH1 0xA0 SHL SUB NOT AND SWAP1 SSTORE MLOAD PUSH32 0x8C3BF4BABC197F3DB0E7EC65AAF23FC0EFB0E689436AEEA8514C3F01FD97841F SWAP2 SWAP1 LOG2 POP JUMP JUMPDEST PUSH2 0x3D9 PUSH2 0x5B5 JUMP JUMPDEST PUSH2 0x3E3 PUSH1 0x0 PUSH2 0x60F JUMP JUMPDEST JUMP JUMPDEST PUSH1 0x1 PUSH1 0x1 PUSH1 0xA0 SHL SUB DUP1 DUP3 AND PUSH1 0x0 SWAP1 DUP2 MSTORE PUSH1 0x1 PUSH1 0x20 MSTORE PUSH1 0x40 SWAP1 KECCAK256 SLOAD AND DUP1 PUSH2 0x537 JUMPI PUSH1 0x40 MLOAD PUSH4 0x1FFC9A7 PUSH1 0xE0 SHL DUP2 MSTORE PUSH4 0x80AC58CD PUSH1 0xE0 SHL PUSH1 0x4 DUP3 ADD MSTORE PUSH1 0x1 PUSH1 0x1 PUSH1 0xA0 SHL SUB DUP4 AND SWAP1 PUSH4 0x1FFC9A7 SWAP1 PUSH1 0x24 ADD PUSH1 0x20 PUSH1 0x40 MLOAD DUP1 DUP4 SUB DUP2 DUP7 GAS STATICCALL ISZERO DUP1 ISZERO PUSH2 0x450 JUMPI RETURNDATASIZE PUSH1 0x0 DUP1 RETURNDATACOPY RETURNDATASIZE PUSH1 0x0 REVERT JUMPDEST POP POP POP POP PUSH1 0x40 MLOAD RETURNDATASIZE PUSH1 0x1F NOT PUSH1 0x1F DUP3 ADD AND DUP3 ADD DUP1 PUSH1 0x40 MSTORE POP DUP2 ADD SWAP1 PUSH2 0x474 SWAP2 SWAP1 PUSH2 0x6CB JUMP JUMPDEST ISZERO PUSH2 0x4A0 JUMPI POP PUSH32 0x0 SWAP2 SWAP1 POP JUMP JUMPDEST PUSH1 0x40 MLOAD PUSH4 0x1FFC9A7 PUSH1 0xE0 SHL DUP2 MSTORE PUSH4 0x6CDB3D13 PUSH1 0xE1 SHL PUSH1 0x4 DUP3 ADD MSTORE PUSH1 0x1 PUSH1 0x1 PUSH1 0xA0 SHL SUB DUP4 AND SWAP1 PUSH4 0x1FFC9A7 SWAP1 PUSH1 0x24 ADD PUSH1 0x20 PUSH1 0x40 MLOAD DUP1 DUP4 SUB DUP2 DUP7 GAS STATICCALL ISZERO DUP1 ISZERO PUSH2 0x4EB JUMPI RETURNDATASIZE PUSH1 0x0 DUP1 RETURNDATACOPY RETURNDATASIZE PUSH1 0x0 REVERT JUMPDEST POP POP POP POP PUSH1 0x40 MLOAD RETURNDATASIZE PUSH1 0x1F NOT PUSH1 0x1F DUP3 ADD AND DUP3 ADD DUP1 PUSH1 0x40 MSTORE POP DUP2 ADD SWAP1 PUSH2 0x50F SWAP2 SWAP1 PUSH2 0x6CB JUMP JUMPDEST ISZERO PUSH2 0x537 JUMPI POP PUSH32 0x0 JUMPDEST SWAP2 SWAP1 POP JUMP JUMPDEST PUSH2 0x544 PUSH2 0x5B5 JUMP JUMPDEST PUSH1 0x1 PUSH1 0x1 PUSH1 0xA0 SHL SUB DUP2 AND PUSH2 0x5A9 JUMPI PUSH1 0x40 MLOAD PUSH3 0x461BCD PUSH1 0xE5 SHL DUP2 MSTORE PUSH1 0x20 PUSH1 0x4 DUP3 ADD MSTORE PUSH1 0x26 PUSH1 0x24 DUP3 ADD MSTORE PUSH32 0x4F776E61626C653A206E6577206F776E657220697320746865207A65726F2061 PUSH1 0x44 DUP3 ADD MSTORE PUSH6 0x646472657373 PUSH1 0xD0 SHL PUSH1 0x64 DUP3 ADD MSTORE PUSH1 0x84 ADD PUSH2 0x243 JUMP JUMPDEST PUSH2 0x5B2 DUP2 PUSH2 0x60F JUMP JUMPDEST POP JUMP JUMPDEST PUSH1 0x0 SLOAD PUSH1 0x1 PUSH1 0x1 PUSH1 0xA0 SHL SUB AND CALLER EQ PUSH2 0x3E3 JUMPI PUSH1 0x40 MLOAD PUSH3 0x461BCD PUSH1 0xE5 SHL DUP2 MSTORE PUSH1 0x20 PUSH1 0x4 DUP3 ADD DUP2 SWAP1 MSTORE PUSH1 0x24 DUP3 ADD MSTORE PUSH32 0x4F776E61626C653A2063616C6C6572206973206E6F7420746865206F776E6572 PUSH1 0x44 DUP3 ADD MSTORE PUSH1 0x64 ADD PUSH2 0x243 JUMP JUMPDEST PUSH1 0x0 DUP1 SLOAD PUSH1 0x1 PUSH1 0x1 PUSH1 0xA0 SHL SUB DUP4 DUP2 AND PUSH1 0x1 PUSH1 0x1 PUSH1 0xA0 SHL SUB NOT DUP4 AND DUP2 OR DUP5 SSTORE PUSH1 0x40 MLOAD SWAP2 SWAP1 SWAP3 AND SWAP3 DUP4 SWAP2 PUSH32 0x8BE0079C531659141344CD1FD0A4F28419497F9722A3DAAFE3B4186F6B6457E0 SWAP2 SWAP1 LOG3 POP POP JUMP JUMPDEST DUP1 CALLDATALOAD PUSH1 0x1 PUSH1 0x1 PUSH1 0xA0 SHL SUB DUP2 AND DUP2 EQ PUSH2 0x537 JUMPI PUSH1 0x0 DUP1 REVERT JUMPDEST PUSH1 0x0 DUP1 PUSH1 0x40 DUP4 DUP6 SUB SLT ISZERO PUSH2 0x689 JUMPI PUSH1 0x0 DUP1 REVERT JUMPDEST PUSH2 0x692 DUP4 PUSH2 0x65F JUMP JUMPDEST SWAP2 POP PUSH2 0x6A0 PUSH1 0x20 DUP5 ADD PUSH2 0x65F JUMP JUMPDEST SWAP1 POP SWAP3 POP SWAP3 SWAP1 POP JUMP JUMPDEST PUSH1 0x0 PUSH1 0x20 DUP3 DUP5 SUB SLT ISZERO PUSH2 0x6BB JUMPI PUSH1 0x0 DUP1 REVERT JUMPDEST PUSH2 0x6C4 DUP3 PUSH2 0x65F JUMP JUMPDEST SWAP4 SWAP3 POP POP POP JUMP JUMPDEST PUSH1 0x0 PUSH1 0x20 DUP3 DUP5 SUB SLT ISZERO PUSH2 0x6DD JUMPI PUSH1 0x0 DUP1 REVERT JUMPDEST DUP2 MLOAD DUP1 ISZERO ISZERO DUP2 EQ PUSH2 0x6C4 JUMPI PUSH1 0x0 DUP1 REVERT INVALID LOG2 PUSH5 0x6970667358 0x22 SLT KECCAK256 0xAD PUSH17 0xDF44B03EC2BF2E028D7C43376FF8FBD7EC 0x2C 0x21 DUP3 SIGNEXTEND 0xEF 0xD5 PUSH4 0x3166A13A 0x2D EXP PUSH5 0x736F6C6343 STOP ADDMOD GT STOP CALLER "
				},
				"gasEstimates": {
					"creation": {
						"codeDepositCost": "365400",
						"executionCost": "infinite",
						"totalCost": "infinite"
					},
					"external": {
						"INTERFACE_ID_ERC1155()": "237",
						"INTERFACE_ID_ERC721()": "280",
						"TRANSFER_MANAGER_ERC1155()": "infinite",
						"TRANSFER_MANAGER_ERC721()": "infinite",
						"addCollectionTransferManager(address,address)": "infinite",
						"checkTransferManagerForToken(address)": "infinite",
						"owner()": "2353",
						"removeCollectionTransferManager(address)": "30224",
						"renounceOwnership()": "infinite",
						"transferManagerSelectorForCollection(address)": "2625",
						"transferOwnership(address)": "28443"
					}
				},
				"methodIdentifiers": {
					"INTERFACE_ID_ERC1155()": "33bf6156",
					"INTERFACE_ID_ERC721()": "bc6bc0cd",
					"TRANSFER_MANAGER_ERC1155()": "38928956",
					"TRANSFER_MANAGER_ERC721()": "b1357ddd",
					"addCollectionTransferManager(address,address)": "25c6a895",
					"checkTransferManagerForToken(address)": "cc159493",
					"owner()": "8da5cb5b",
					"removeCollectionTransferManager(address)": "7053fb79",
					"renounceOwnership()": "715018a6",
					"transferManagerSelectorForCollection(address)": "4216a753",
					"transferOwnership(address)": "f2fde38b"
				}
			},
			"storageLayout": {
				"storage": [
					{
						"astId": 7,
						"contract": "contracts/Manager/TransferSelectorNFT.sol:TransferSelectorNFT",
						"label": "_owner",
						"offset": 0,
						"slot": "0",
						"type": "t_address"
					},
					{
						"astId": 172,
						"contract": "contracts/Manager/TransferSelectorNFT.sol:TransferSelectorNFT",
						"label": "transferManagerSelectorForCollection",
						"offset": 0,
						"slot": "1",
						"type": "t_mapping(t_address,t_address)"
					}
				],
				"types": {
					"t_address": {
						"encoding": "inplace",
						"label": "address",
						"numberOfBytes": "20"
					},
					"t_mapping(t_address,t_address)": {
						"encoding": "mapping",
						"key": "t_address",
						"label": "mapping(address => address)",
						"numberOfBytes": "32",
						"value": "t_address"
					}
				}
			},
			"userdoc": {
				"kind": "user",
				"methods": {},
				"version": 1
			}
		}
	}
}