{
	"contracts/Manager/UnemetaMarket.sol": {
		"UnemetaMarket": {
			"abi": [
				{
					"inputs": [
						{
							"internalType": "address",
							"name": "_currencyManager",
							"type": "address"
						},
						{
							"internalType": "address",
							"name": "_executionManager",
							"type": "address"
						},
						{
							"internalType": "address",
							"name": "_royaltyFeeManager",
							"type": "address"
						},
						{
							"internalType": "address",
							"name": "_WETH",
							"type": "address"
						},
						{
							"internalType": "address",
							"name": "_protocolFeeRecipient",
							"type": "address"
						}
					],
					"stateMutability": "nonpayable",
					"type": "constructor"
				},
				{
					"anonymous": false,
					"inputs": [
						{
							"indexed": true,
							"internalType": "address",
							"name": "user",
							"type": "address"
						},
						{
							"indexed": false,
							"internalType": "uint256",
							"name": "newMinNonce",
							"type": "uint256"
						}
					],
					"name": "CancelAllOrders",
					"type": "event"
				},
				{
					"anonymous": false,
					"inputs": [
						{
							"indexed": true,
							"internalType": "address",
							"name": "user",
							"type": "address"
						},
						{
							"indexed": false,
							"internalType": "uint256[]",
							"name": "orderNonces",
							"type": "uint256[]"
						}
					],
					"name": "CancelMultipleOrders",
					"type": "event"
				},
				{
					"anonymous": false,
					"inputs": [
						{
							"indexed": true,
							"internalType": "address",
							"name": "currencyManager",
							"type": "address"
						}
					],
					"name": "NewCurrencyManager",
					"type": "event"
				},
				{
					"anonymous": false,
					"inputs": [
						{
							"indexed": true,
							"internalType": "address",
							"name": "executionManager",
							"type": "address"
						}
					],
					"name": "NewExecutionManager",
					"type": "event"
				},
				{
					"anonymous": false,
					"inputs": [
						{
							"indexed": true,
							"internalType": "address",
							"name": "protocolFeeRecipient",
							"type": "address"
						}
					],
					"name": "NewProtocolFeeRecipient",
					"type": "event"
				},
				{
					"anonymous": false,
					"inputs": [
						{
							"indexed": true,
							"internalType": "address",
							"name": "royaltyFeeManager",
							"type": "address"
						}
					],
					"name": "NewRoyaltyFeeManager",
					"type": "event"
				},
				{
					"anonymous": false,
					"inputs": [
						{
							"indexed": true,
							"internalType": "address",
							"name": "transferSelectorNFT",
							"type": "address"
						}
					],
					"name": "NewTransferSelectorNFT",
					"type": "event"
				},
				{
					"anonymous": false,
					"inputs": [
						{
							"indexed": true,
							"internalType": "address",
							"name": "previousOwner",
							"type": "address"
						},
						{
							"indexed": true,
							"internalType": "address",
							"name": "newOwner",
							"type": "address"
						}
					],
					"name": "OwnershipTransferred",
					"type": "event"
				},
				{
					"anonymous": false,
					"inputs": [
						{
							"indexed": true,
							"internalType": "address",
							"name": "collection",
							"type": "address"
						},
						{
							"indexed": true,
							"internalType": "uint256",
							"name": "tokenId",
							"type": "uint256"
						},
						{
							"indexed": true,
							"internalType": "address",
							"name": "royaltyRecipient",
							"type": "address"
						},
						{
							"indexed": false,
							"internalType": "address",
							"name": "currency",
							"type": "address"
						},
						{
							"indexed": false,
							"internalType": "uint256",
							"name": "amount",
							"type": "uint256"
						}
					],
					"name": "RoyaltyPayment",
					"type": "event"
				},
				{
					"anonymous": false,
					"inputs": [
						{
							"indexed": false,
							"internalType": "bytes32",
							"name": "orderHash",
							"type": "bytes32"
						},
						{
							"indexed": false,
							"internalType": "uint256",
							"name": "orderNonce",
							"type": "uint256"
						},
						{
							"indexed": true,
							"internalType": "address",
							"name": "taker",
							"type": "address"
						},
						{
							"indexed": true,
							"internalType": "address",
							"name": "maker",
							"type": "address"
						},
						{
							"indexed": true,
							"internalType": "address",
							"name": "strategy",
							"type": "address"
						},
						{
							"indexed": false,
							"internalType": "address",
							"name": "currency",
							"type": "address"
						},
						{
							"indexed": false,
							"internalType": "address",
							"name": "collection",
							"type": "address"
						},
						{
							"indexed": false,
							"internalType": "uint256",
							"name": "tokenId",
							"type": "uint256"
						},
						{
							"indexed": false,
							"internalType": "uint256",
							"name": "amount",
							"type": "uint256"
						},
						{
							"indexed": false,
							"internalType": "uint256",
							"name": "price",
							"type": "uint256"
						}
					],
					"name": "TakerAsk",
					"type": "event"
				},
				{
					"anonymous": false,
					"inputs": [
						{
							"indexed": false,
							"internalType": "bytes32",
							"name": "orderHash",
							"type": "bytes32"
						},
						{
							"indexed": false,
							"internalType": "uint256",
							"name": "orderNonce",
							"type": "uint256"
						},
						{
							"indexed": true,
							"internalType": "address",
							"name": "taker",
							"type": "address"
						},
						{
							"indexed": true,
							"internalType": "address",
							"name": "maker",
							"type": "address"
						},
						{
							"indexed": true,
							"internalType": "address",
							"name": "strategy",
							"type": "address"
						},
						{
							"indexed": false,
							"internalType": "address",
							"name": "currency",
							"type": "address"
						},
						{
							"indexed": false,
							"internalType": "address",
							"name": "collection",
							"type": "address"
						},
						{
							"indexed": false,
							"internalType": "uint256",
							"name": "tokenId",
							"type": "uint256"
						},
						{
							"indexed": false,
							"internalType": "uint256",
							"name": "amount",
							"type": "uint256"
						},
						{
							"indexed": false,
							"internalType": "uint256",
							"name": "price",
							"type": "uint256"
						}
					],
					"name": "TakerBid",
					"type": "event"
				},
				{
					"inputs": [],
					"name": "WETH",
					"outputs": [
						{
							"internalType": "address",
							"name": "",
							"type": "address"
						}
					],
					"stateMutability": "view",
					"type": "function"
				},
				{
					"inputs": [
						{
							"internalType": "uint256",
							"name": "minNonce",
							"type": "uint256"
						}
					],
					"name": "cancelAllOrdersForSender",
					"outputs": [],
					"stateMutability": "nonpayable",
					"type": "function"
				},
				{
					"inputs": [
						{
							"internalType": "uint256[]",
							"name": "NonceList",
							"type": "uint256[]"
						}
					],
					"name": "cancelMultipleMakerOrders",
					"outputs": [],
					"stateMutability": "nonpayable",
					"type": "function"
				},
				{
					"inputs": [],
					"name": "currencyManager",
					"outputs": [
						{
							"internalType": "contract TheCurrencyManager",
							"name": "",
							"type": "address"
						}
					],
					"stateMutability": "view",
					"type": "function"
				},
				{
					"inputs": [],
					"name": "executionManager",
					"outputs": [
						{
							"internalType": "contract TheExManager",
							"name": "",
							"type": "address"
						}
					],
					"stateMutability": "view",
					"type": "function"
				},
				{
					"inputs": [
						{
							"internalType": "address",
							"name": "user",
							"type": "address"
						},
						{
							"internalType": "uint256",
							"name": "orderNonce",
							"type": "uint256"
						}
					],
					"name": "isUserOrderNonceExecutedOrCancelled",
					"outputs": [
						{
							"internalType": "bool",
							"name": "",
							"type": "bool"
						}
					],
					"stateMutability": "view",
					"type": "function"
				},
				{
					"inputs": [
						{
							"components": [
								{
									"internalType": "bool",
									"name": "isOrderAsk",
									"type": "bool"
								},
								{
									"internalType": "address",
									"name": "taker",
									"type": "address"
								},
								{
									"internalType": "uint256",
									"name": "price",
									"type": "uint256"
								},
								{
									"internalType": "uint256",
									"name": "tokenId",
									"type": "uint256"
								},
								{
									"internalType": "uint256",
									"name": "minPercentageToAsk",
									"type": "uint256"
								},
								{
									"internalType": "bytes",
									"name": "params",
									"type": "bytes"
								}
							],
							"internalType": "struct OrderTypes.TakerOrder",
							"name": "takerBid",
							"type": "tuple"
						},
						{
							"components": [
								{
									"internalType": "bool",
									"name": "isOrderAsk",
									"type": "bool"
								},
								{
									"internalType": "address",
									"name": "signer",
									"type": "address"
								},
								{
									"internalType": "address",
									"name": "collection",
									"type": "address"
								},
								{
									"internalType": "uint256",
									"name": "price",
									"type": "uint256"
								},
								{
									"internalType": "uint256",
									"name": "tokenId",
									"type": "uint256"
								},
								{
									"internalType": "uint256",
									"name": "amount",
									"type": "uint256"
								},
								{
									"internalType": "address",
									"name": "strategy",
									"type": "address"
								},
								{
									"internalType": "address",
									"name": "currency",
									"type": "address"
								},
								{
									"internalType": "uint256",
									"name": "nonce",
									"type": "uint256"
								},
								{
									"internalType": "uint256",
									"name": "startTime",
									"type": "uint256"
								},
								{
									"internalType": "uint256",
									"name": "endTime",
									"type": "uint256"
								},
								{
									"internalType": "uint256",
									"name": "minPercentageToAsk",
									"type": "uint256"
								},
								{
									"internalType": "bytes",
									"name": "params",
									"type": "bytes"
								},
								{
									"internalType": "uint8",
									"name": "v",
									"type": "uint8"
								},
								{
									"internalType": "bytes32",
									"name": "r",
									"type": "bytes32"
								},
								{
									"internalType": "bytes32",
									"name": "s",
									"type": "bytes32"
								}
							],
							"internalType": "struct OrderTypes.MakerOrder",
							"name": "makerAsk",
							"type": "tuple"
						}
					],
					"name": "matchSellerOrders",
					"outputs": [],
					"stateMutability": "nonpayable",
					"type": "function"
				},
				{
					"inputs": [
						{
							"components": [
								{
									"internalType": "bool",
									"name": "isOrderAsk",
									"type": "bool"
								},
								{
									"internalType": "address",
									"name": "taker",
									"type": "address"
								},
								{
									"internalType": "uint256",
									"name": "price",
									"type": "uint256"
								},
								{
									"internalType": "uint256",
									"name": "tokenId",
									"type": "uint256"
								},
								{
									"internalType": "uint256",
									"name": "minPercentageToAsk",
									"type": "uint256"
								},
								{
									"internalType": "bytes",
									"name": "params",
									"type": "bytes"
								}
							],
							"internalType": "struct OrderTypes.TakerOrder",
							"name": "takerBid",
							"type": "tuple"
						},
						{
							"components": [
								{
									"internalType": "bool",
									"name": "isOrderAsk",
									"type": "bool"
								},
								{
									"internalType": "address",
									"name": "signer",
									"type": "address"
								},
								{
									"internalType": "address",
									"name": "collection",
									"type": "address"
								},
								{
									"internalType": "uint256",
									"name": "price",
									"type": "uint256"
								},
								{
									"internalType": "uint256",
									"name": "tokenId",
									"type": "uint256"
								},
								{
									"internalType": "uint256",
									"name": "amount",
									"type": "uint256"
								},
								{
									"internalType": "address",
									"name": "strategy",
									"type": "address"
								},
								{
									"internalType": "address",
									"name": "currency",
									"type": "address"
								},
								{
									"internalType": "uint256",
									"name": "nonce",
									"type": "uint256"
								},
								{
									"internalType": "uint256",
									"name": "startTime",
									"type": "uint256"
								},
								{
									"internalType": "uint256",
									"name": "endTime",
									"type": "uint256"
								},
								{
									"internalType": "uint256",
									"name": "minPercentageToAsk",
									"type": "uint256"
								},
								{
									"internalType": "bytes",
									"name": "params",
									"type": "bytes"
								},
								{
									"internalType": "uint8",
									"name": "v",
									"type": "uint8"
								},
								{
									"internalType": "bytes32",
									"name": "r",
									"type": "bytes32"
								},
								{
									"internalType": "bytes32",
									"name": "s",
									"type": "bytes32"
								}
							],
							"internalType": "struct OrderTypes.MakerOrder",
							"name": "makerAsk",
							"type": "tuple"
						}
					],
					"name": "matchSellerOrdersWETH",
					"outputs": [],
					"stateMutability": "payable",
					"type": "function"
				},
				{
					"inputs": [
						{
							"components": [
								{
									"internalType": "bool",
									"name": "isOrderAsk",
									"type": "bool"
								},
								{
									"internalType": "address",
									"name": "taker",
									"type": "address"
								},
								{
									"internalType": "uint256",
									"name": "price",
									"type": "uint256"
								},
								{
									"internalType": "uint256",
									"name": "tokenId",
									"type": "uint256"
								},
								{
									"internalType": "uint256",
									"name": "minPercentageToAsk",
									"type": "uint256"
								},
								{
									"internalType": "bytes",
									"name": "params",
									"type": "bytes"
								}
							],
							"internalType": "struct OrderTypes.TakerOrder",
							"name": "takerAsk",
							"type": "tuple"
						},
						{
							"components": [
								{
									"internalType": "bool",
									"name": "isOrderAsk",
									"type": "bool"
								},
								{
									"internalType": "address",
									"name": "signer",
									"type": "address"
								},
								{
									"internalType": "address",
									"name": "collection",
									"type": "address"
								},
								{
									"internalType": "uint256",
									"name": "price",
									"type": "uint256"
								},
								{
									"internalType": "uint256",
									"name": "tokenId",
									"type": "uint256"
								},
								{
									"internalType": "uint256",
									"name": "amount",
									"type": "uint256"
								},
								{
									"internalType": "address",
									"name": "strategy",
									"type": "address"
								},
								{
									"internalType": "address",
									"name": "currency",
									"type": "address"
								},
								{
									"internalType": "uint256",
									"name": "nonce",
									"type": "uint256"
								},
								{
									"internalType": "uint256",
									"name": "startTime",
									"type": "uint256"
								},
								{
									"internalType": "uint256",
									"name": "endTime",
									"type": "uint256"
								},
								{
									"internalType": "uint256",
									"name": "minPercentageToAsk",
									"type": "uint256"
								},
								{
									"internalType": "bytes",
									"name": "params",
									"type": "bytes"
								},
								{
									"internalType": "uint8",
									"name": "v",
									"type": "uint8"
								},
								{
									"internalType": "bytes32",
									"name": "r",
									"type": "bytes32"
								},
								{
									"internalType": "bytes32",
									"name": "s",
									"type": "bytes32"
								}
							],
							"internalType": "struct OrderTypes.MakerOrder",
							"name": "makerBid",
							"type": "tuple"
						}
					],
					"name": "matchesBuyerOrder",
					"outputs": [],
					"stateMutability": "nonpayable",
					"type": "function"
				},
				{
					"inputs": [],
					"name": "owner",
					"outputs": [
						{
							"internalType": "address",
							"name": "",
							"type": "address"
						}
					],
					"stateMutability": "view",
					"type": "function"
				},
				{
					"inputs": [],
					"name": "protocolFeeRecipient",
					"outputs": [
						{
							"internalType": "address",
							"name": "",
							"type": "address"
						}
					],
					"stateMutability": "view",
					"type": "function"
				},
				{
					"inputs": [],
					"name": "renounceOwnership",
					"outputs": [],
					"stateMutability": "nonpayable",
					"type": "function"
				},
				{
					"inputs": [],
					"name": "royaltyFeeManager",
					"outputs": [
						{
							"internalType": "contract TheRoyaltyManager",
							"name": "",
							"type": "address"
						}
					],
					"stateMutability": "view",
					"type": "function"
				},
				{
					"inputs": [
						{
							"internalType": "address",
							"name": "newOwner",
							"type": "address"
						}
					],
					"name": "transferOwnership",
					"outputs": [],
					"stateMutability": "nonpayable",
					"type": "function"
				},
				{
					"inputs": [],
					"name": "transferSelectorNFT",
					"outputs": [
						{
							"internalType": "contract TheTransferSelector",
							"name": "",
							"type": "address"
						}
					],
					"stateMutability": "view",
					"type": "function"
				},
				{
					"inputs": [
						{
							"internalType": "address",
							"name": "_currencyManager",
							"type": "address"
						}
					],
					"name": "updateCurrencyManager",
					"outputs": [],
					"stateMutability": "nonpayable",
					"type": "function"
				},
				{
					"inputs": [
						{
							"internalType": "address",
							"name": "_executionManager",
							"type": "address"
						}
					],
					"name": "updateExecutionManager",
					"outputs": [],
					"stateMutability": "nonpayable",
					"type": "function"
				},
				{
					"inputs": [
						{
							"internalType": "address",
							"name": "_protocolFeeRecipient",
							"type": "address"
						}
					],
					"name": "updateProtocolFeeRecipient",
					"outputs": [],
					"stateMutability": "nonpayable",
					"type": "function"
				},
				{
					"inputs": [
						{
							"internalType": "address",
							"name": "_royaltyFeeManager",
							"type": "address"
						}
					],
					"name": "updateRoyaltyFeeManager",
					"outputs": [],
					"stateMutability": "nonpayable",
					"type": "function"
				},
				{
					"inputs": [
						{
							"internalType": "address",
							"name": "_transferSelectorNFT",
							"type": "address"
						}
					],
					"name": "updateTransferSelectorNFT",
					"outputs": [],
					"stateMutability": "nonpayable",
					"type": "function"
				},
				{
					"inputs": [
						{
							"internalType": "address",
							"name": "",
							"type": "address"
						}
					],
					"name": "userMinOrderNonce",
					"outputs": [
						{
							"internalType": "uint256",
							"name": "",
							"type": "uint256"
						}
					],
					"stateMutability": "view",
					"type": "function"
				}
			],
			"devdoc": {
				"kind": "dev",
				"methods": {
					"owner()": {
						"details": "Returns the address of the current owner."
					},
					"renounceOwnership()": {
						"details": "Leaves the contract without owner. It will not be possible to call `onlyOwner` functions anymore. Can only be called by the current owner. NOTE: Renouncing ownership will leave the contract without an owner, thereby removing any functionality that is only available to the owner."
					},
					"transferOwnership(address)": {
						"details": "Transfers ownership of the contract to a new account (`newOwner`). Can only be called by the current owner."
					}
				},
				"version": 1
			},
			"evm": {
				"assembly": "    /* \"contracts/Manager/UnemetaMarket.sol\":995:23309  contract UnemetaMarket is TheUnemetaExchange, ReentrancyGuard, Ownable {... */\n  mstore(0x40, 0xa0)\n    /* \"contracts/Manager/UnemetaMarket.sol\":3921:4493  constructor(... */\n  callvalue\n  dup1\n  iszero\n  tag_1\n  jumpi\n  0x00\n  dup1\n  revert\ntag_1:\n  pop\n  mload(0x40)\n  sub(codesize, bytecodeSize)\n  dup1\n  bytecodeSize\n  dup4\n  codecopy\n  dup2\n  add\n  0x40\n  dup2\n  swap1\n  mstore\n  tag_2\n  swap2\n  tag_3\n  jump\t// in\ntag_2:\n    /* \"@openzeppelin/contracts/security/ReentrancyGuard.sol\":1701:1702  1 */\n  0x01\n    /* \"@openzeppelin/contracts/security/ReentrancyGuard.sol\":1806:1813  _status */\n  0x00\n    /* \"@openzeppelin/contracts/security/ReentrancyGuard.sol\":1806:1828  _status = _NOT_ENTERED */\n  sstore\n    /* \"@openzeppelin/contracts/access/Ownable.sol\":936:968  _transferOwnership(_msgSender()) */\n  tag_9\n    /* \"@openzeppelin/contracts/utils/Context.sol\":719:729  msg.sender */\n  caller\n    /* \"@openzeppelin/contracts/access/Ownable.sol\":936:954  _transferOwnership */\n  tag_12\n    /* \"@openzeppelin/contracts/access/Ownable.sol\":936:968  _transferOwnership(_msgSender()) */\n  jump\t// in\ntag_9:\n    /* \"contracts/Manager/UnemetaMarket.sol\":4229:4244  currencyManager */\n  0x03\n    /* \"contracts/Manager/UnemetaMarket.sol\":4229:4283  currencyManager = TheCurrencyManager(_currencyManager) */\n  dup1\n  sload\n  sub(shl(0xa0, 0x01), 0x01)\n  swap7\n  dup8\n  and\n  not(sub(shl(0xa0, 0x01), 0x01))\n  swap2\n  dup3\n  and\n  or\n  swap1\n  swap2\n  sstore\n    /* \"contracts/Manager/UnemetaMarket.sol\":4293:4309  executionManager */\n  0x04\n    /* \"contracts/Manager/UnemetaMarket.sol\":4293:4343  executionManager = TheExManager(_executionManager) */\n  dup1\n  sload\n  swap6\n  dup8\n  and\n  swap6\n  dup3\n  and\n  swap6\n  swap1\n  swap6\n  or\n  swap1\n  swap5\n  sstore\n    /* \"contracts/Manager/UnemetaMarket.sol\":4353:4370  royaltyFeeManager */\n  0x05\n    /* \"contracts/Manager/UnemetaMarket.sol\":4353:4410  royaltyFeeManager = TheRoyaltyManager(_royaltyFeeManager) */\n  dup1\n  sload\n  swap4\n  dup7\n  and\n  swap4\n  dup6\n  and\n  swap4\n  swap1\n  swap4\n  or\n  swap1\n  swap3\n  sstore\n    /* \"contracts/Manager/UnemetaMarket.sol\":4420:4432  WETH = _WETH */\n  dup4\n  and\n  0x80\n  mstore\n    /* \"contracts/Manager/UnemetaMarket.sol\":4442:4462  protocolFeeRecipient */\n  0x02\n    /* \"contracts/Manager/UnemetaMarket.sol\":4442:4486  protocolFeeRecipient = _protocolFeeRecipient */\n  dup1\n  sload\n  swap2\n  swap1\n  swap4\n  and\n  swap2\n  and\n  or\n  swap1\n  sstore\n    /* \"contracts/Manager/UnemetaMarket.sol\":995:23309  contract UnemetaMarket is TheUnemetaExchange, ReentrancyGuard, Ownable {... */\n  jump(tag_18)\n    /* \"@openzeppelin/contracts/access/Ownable.sol\":2433:2620  function _transferOwnership(address newOwner) internal virtual {... */\ntag_12:\n    /* \"@openzeppelin/contracts/access/Ownable.sol\":2525:2531  _owner */\n  0x01\n  dup1\n  sload\n  sub(shl(0xa0, 0x01), 0x01)\n    /* \"@openzeppelin/contracts/access/Ownable.sol\":2541:2558  _owner = newOwner */\n  dup4\n  dup2\n  and\n  not(sub(shl(0xa0, 0x01), 0x01))\n  dup4\n  and\n  dup2\n  or\n  swap1\n  swap4\n  sstore\n    /* \"@openzeppelin/contracts/access/Ownable.sol\":2573:2613  OwnershipTransferred(oldOwner, newOwner) */\n  mload(0x40)\n    /* \"@openzeppelin/contracts/access/Ownable.sol\":2525:2531  _owner */\n  swap2\n  and\n  swap2\n    /* \"@openzeppelin/contracts/access/Ownable.sol\":2541:2558  _owner = newOwner */\n  swap1\n    /* \"@openzeppelin/contracts/access/Ownable.sol\":2525:2531  _owner */\n  dup3\n  swap1\n    /* \"@openzeppelin/contracts/access/Ownable.sol\":2573:2613  OwnershipTransferred(oldOwner, newOwner) */\n  0x8be0079c531659141344cd1fd0a4f28419497f9722a3daafe3b4186f6b6457e0\n  swap1\n    /* \"@openzeppelin/contracts/access/Ownable.sol\":2506:2522  address oldOwner */\n  0x00\n  swap1\n    /* \"@openzeppelin/contracts/access/Ownable.sol\":2573:2613  OwnershipTransferred(oldOwner, newOwner) */\n  log3\n    /* \"@openzeppelin/contracts/access/Ownable.sol\":2496:2620  {... */\n  pop\n    /* \"@openzeppelin/contracts/access/Ownable.sol\":2433:2620  function _transferOwnership(address newOwner) internal virtual {... */\n  pop\n  jump\t// out\n    /* \"#utility.yul\":14:191   */\ntag_17:\n    /* \"#utility.yul\":93:106   */\n  dup1\n  mload\n  sub(shl(0xa0, 0x01), 0x01)\n    /* \"#utility.yul\":135:166   */\n  dup2\n  and\n    /* \"#utility.yul\":125:167   */\n  dup2\n  eq\n    /* \"#utility.yul\":115:185   */\n  tag_20\n  jumpi\n    /* \"#utility.yul\":181:182   */\n  0x00\n    /* \"#utility.yul\":178:179   */\n  dup1\n    /* \"#utility.yul\":171:183   */\n  revert\n    /* \"#utility.yul\":115:185   */\ntag_20:\n    /* \"#utility.yul\":14:191   */\n  swap2\n  swap1\n  pop\n  jump\t// out\n    /* \"#utility.yul\":196:746   */\ntag_3:\n    /* \"#utility.yul\":302:308   */\n  0x00\n    /* \"#utility.yul\":310:316   */\n  dup1\n    /* \"#utility.yul\":318:324   */\n  0x00\n    /* \"#utility.yul\":326:332   */\n  dup1\n    /* \"#utility.yul\":334:340   */\n  0x00\n    /* \"#utility.yul\":387:390   */\n  0xa0\n    /* \"#utility.yul\":375:384   */\n  dup7\n    /* \"#utility.yul\":366:373   */\n  dup9\n    /* \"#utility.yul\":362:385   */\n  sub\n    /* \"#utility.yul\":358:391   */\n  slt\n    /* \"#utility.yul\":355:408   */\n  iszero\n  tag_22\n  jumpi\n    /* \"#utility.yul\":404:405   */\n  0x00\n    /* \"#utility.yul\":401:402   */\n  dup1\n    /* \"#utility.yul\":394:406   */\n  revert\n    /* \"#utility.yul\":355:408   */\ntag_22:\n    /* \"#utility.yul\":427:467   */\n  tag_23\n    /* \"#utility.yul\":457:466   */\n  dup7\n    /* \"#utility.yul\":427:467   */\n  tag_17\n  jump\t// in\ntag_23:\n    /* \"#utility.yul\":417:467   */\n  swap5\n  pop\n    /* \"#utility.yul\":486:535   */\n  tag_24\n    /* \"#utility.yul\":531:533   */\n  0x20\n    /* \"#utility.yul\":520:529   */\n  dup8\n    /* \"#utility.yul\":516:534   */\n  add\n    /* \"#utility.yul\":486:535   */\n  tag_17\n  jump\t// in\ntag_24:\n    /* \"#utility.yul\":476:535   */\n  swap4\n  pop\n    /* \"#utility.yul\":554:603   */\n  tag_25\n    /* \"#utility.yul\":599:601   */\n  0x40\n    /* \"#utility.yul\":588:597   */\n  dup8\n    /* \"#utility.yul\":584:602   */\n  add\n    /* \"#utility.yul\":554:603   */\n  tag_17\n  jump\t// in\ntag_25:\n    /* \"#utility.yul\":544:603   */\n  swap3\n  pop\n    /* \"#utility.yul\":622:671   */\n  tag_26\n    /* \"#utility.yul\":667:669   */\n  0x60\n    /* \"#utility.yul\":656:665   */\n  dup8\n    /* \"#utility.yul\":652:670   */\n  add\n    /* \"#utility.yul\":622:671   */\n  tag_17\n  jump\t// in\ntag_26:\n    /* \"#utility.yul\":612:671   */\n  swap2\n  pop\n    /* \"#utility.yul\":690:740   */\n  tag_27\n    /* \"#utility.yul\":735:738   */\n  0x80\n    /* \"#utility.yul\":724:733   */\n  dup8\n    /* \"#utility.yul\":720:739   */\n  add\n    /* \"#utility.yul\":690:740   */\n  tag_17\n  jump\t// in\ntag_27:\n    /* \"#utility.yul\":680:740   */\n  swap1\n  pop\n    /* \"#utility.yul\":196:746   */\n  swap3\n  swap6\n  pop\n  swap3\n  swap6\n  swap1\n  swap4\n  pop\n  jump\t// out\ntag_18:\n    /* \"contracts/Manager/UnemetaMarket.sol\":995:23309  contract UnemetaMarket is TheUnemetaExchange, ReentrancyGuard, Ownable {... */\n  mload(0x80)\n  codecopy(0x00, dataOffset(sub_0), dataSize(sub_0))\n  0x00\n  assignImmutable(\"0x27f7320d12022267a30ae0570361d18e54ded7bfc682ac5b98d912c6ab83c578\")\n  return(0x00, dataSize(sub_0))\nstop\n\nsub_0: assembly {\n        /* \"contracts/Manager/UnemetaMarket.sol\":995:23309  contract UnemetaMarket is TheUnemetaExchange, ReentrancyGuard, Ownable {... */\n      mstore(0x40, 0x80)\n      jumpi(tag_1, lt(calldatasize, 0x04))\n      shr(0xe0, calldataload(0x00))\n      dup1\n      0x64df049e\n      gt\n      tag_23\n      jumpi\n      dup1\n      0xad5c4648\n      gt\n      tag_24\n      jumpi\n      dup1\n      0xad5c4648\n      eq\n      tag_17\n      jumpi\n      dup1\n      0xc5498769\n      eq\n      tag_18\n      jumpi\n      dup1\n      0xcbd2ec65\n      eq\n      tag_19\n      jumpi\n      dup1\n      0xd4ff41dc\n      eq\n      tag_20\n      jumpi\n      dup1\n      0xf2fde38b\n      eq\n      tag_21\n      jumpi\n      dup1\n      0xf75ff53f\n      eq\n      tag_22\n      jumpi\n      0x00\n      dup1\n      revert\n    tag_24:\n      dup1\n      0x64df049e\n      eq\n      tag_12\n      jumpi\n      dup1\n      0x715018a6\n      eq\n      tag_13\n      jumpi\n      dup1\n      0x87e4401f\n      eq\n      tag_14\n      jumpi\n      dup1\n      0x8da5cb5b\n      eq\n      tag_15\n      jumpi\n      dup1\n      0x9e53a69a\n      eq\n      tag_16\n      jumpi\n      0x00\n      dup1\n      revert\n    tag_23:\n      dup1\n      0x483abb9f\n      gt\n      tag_25\n      jumpi\n      dup1\n      0x483abb9f\n      eq\n      tag_7\n      jumpi\n      dup1\n      0x509a1a41\n      eq\n      tag_8\n      jumpi\n      dup1\n      0x5ce052d7\n      eq\n      tag_9\n      jumpi\n      dup1\n      0x5e14f68e\n      eq\n      tag_10\n      jumpi\n      dup1\n      0x63521def\n      eq\n      tag_11\n      jumpi\n      0x00\n      dup1\n      revert\n    tag_25:\n      dup1\n      0x0f747d74\n      eq\n      tag_2\n      jumpi\n      dup1\n      0x1df47f80\n      eq\n      tag_3\n      jumpi\n      dup1\n      0x31e27e27\n      eq\n      tag_4\n      jumpi\n      dup1\n      0x4266581e\n      eq\n      tag_5\n      jumpi\n      dup1\n      0x45ea7231\n      eq\n      tag_6\n      jumpi\n    tag_1:\n      0x00\n      dup1\n      revert\n        /* \"contracts/Manager/UnemetaMarket.sol\":2105:2146  TheCurrencyManager public currencyManager */\n    tag_2:\n      callvalue\n      dup1\n      iszero\n      tag_26\n      jumpi\n      0x00\n      dup1\n      revert\n    tag_26:\n      pop\n      sload(0x03)\n      tag_27\n      swap1\n      sub(shl(0xa0, 0x01), 0x01)\n      and\n      dup2\n      jump\n    tag_27:\n      mload(0x40)\n      sub(shl(0xa0, 0x01), 0x01)\n        /* \"#utility.yul\":205:237   */\n      swap1\n      swap2\n      and\n        /* \"#utility.yul\":187:238   */\n      dup2\n      mstore\n        /* \"#utility.yul\":175:177   */\n      0x20\n        /* \"#utility.yul\":160:178   */\n      add\n        /* \"contracts/Manager/UnemetaMarket.sol\":2105:2146  TheCurrencyManager public currencyManager */\n    tag_29:\n      mload(0x40)\n      dup1\n      swap2\n      sub\n      swap1\n      return\n        /* \"contracts/Manager/UnemetaMarket.sol\":22179:22387  function updateProtocolFeeRecipient(address _protocolFeeRecipient) external onlyOwner {... */\n    tag_3:\n      callvalue\n      dup1\n      iszero\n      tag_31\n      jumpi\n      0x00\n      dup1\n      revert\n    tag_31:\n      pop\n      tag_32\n      tag_33\n      calldatasize\n      0x04\n      tag_34\n      jump\t// in\n    tag_33:\n      tag_35\n      jump\t// in\n    tag_32:\n      stop\n        /* \"contracts/Manager/UnemetaMarket.sol\":12455:12681  function isUserOrderNonceExecutedOrCancelled(address user, uint256 orderNonce) external view returns (bool) {... */\n    tag_4:\n      callvalue\n      dup1\n      iszero\n      tag_36\n      jumpi\n      0x00\n      dup1\n      revert\n    tag_36:\n      pop\n      tag_37\n      tag_38\n      calldatasize\n      0x04\n      tag_39\n      jump\t// in\n    tag_38:\n      tag_40\n      jump\t// in\n    tag_37:\n      mload(0x40)\n        /* \"#utility.yul\":1357:1371   */\n      swap1\n      iszero\n        /* \"#utility.yul\":1350:1372   */\n      iszero\n        /* \"#utility.yul\":1332:1373   */\n      dup2\n      mstore\n        /* \"#utility.yul\":1320:1322   */\n      0x20\n        /* \"#utility.yul\":1305:1323   */\n      add\n        /* \"contracts/Manager/UnemetaMarket.sol\":12455:12681  function isUserOrderNonceExecutedOrCancelled(address user, uint256 orderNonce) external view returns (bool) {... */\n      tag_29\n        /* \"#utility.yul\":1192:1379   */\n      jump\n        /* \"contracts/Manager/UnemetaMarket.sol\":2328:2380  mapping(address => uint256) public userMinOrderNonce */\n    tag_5:\n      callvalue\n      dup1\n      iszero\n      tag_43\n      jumpi\n      0x00\n      dup1\n      revert\n    tag_43:\n      pop\n      tag_44\n      tag_45\n      calldatasize\n      0x04\n      tag_34\n      jump\t// in\n    tag_45:\n      mstore(0x20, 0x07)\n      0x00\n      swap1\n      dup2\n      mstore\n      0x40\n      swap1\n      keccak256\n      sload\n      dup2\n      jump\n    tag_44:\n      mload(0x40)\n        /* \"#utility.yul\":1530:1555   */\n      swap1\n      dup2\n      mstore\n        /* \"#utility.yul\":1518:1520   */\n      0x20\n        /* \"#utility.yul\":1503:1521   */\n      add\n        /* \"contracts/Manager/UnemetaMarket.sol\":2328:2380  mapping(address => uint256) public userMinOrderNonce */\n      tag_29\n        /* \"#utility.yul\":1384:1561   */\n      jump\n        /* \"contracts/Manager/UnemetaMarket.sol\":7032:8808  function matchSellerOrders(OrderTypes.TakerOrder calldata takerBid, OrderTypes.MakerOrder calldata makerAsk)... */\n    tag_6:\n      callvalue\n      dup1\n      iszero\n      tag_49\n      jumpi\n      0x00\n      dup1\n      revert\n    tag_49:\n      pop\n      tag_32\n      tag_51\n      calldatasize\n      0x04\n      tag_52\n      jump\t// in\n    tag_51:\n      tag_53\n      jump\t// in\n        /* \"contracts/Manager/UnemetaMarket.sol\":2152:2188  TheExManager public executionManager */\n    tag_7:\n      callvalue\n      dup1\n      iszero\n      tag_54\n      jumpi\n      0x00\n      dup1\n      revert\n    tag_54:\n      pop\n      sload(0x04)\n      tag_27\n      swap1\n      sub(shl(0xa0, 0x01), 0x01)\n      and\n      dup2\n      jump\n        /* \"contracts/Manager/UnemetaMarket.sol\":4711:6837  function matchSellerOrdersWETH(... */\n    tag_8:\n      tag_32\n      tag_60\n      calldatasize\n      0x04\n      tag_52\n      jump\t// in\n    tag_60:\n      tag_61\n      jump\t// in\n        /* \"contracts/Manager/UnemetaMarket.sol\":21282:21564  function updateCurrencyManager(address _currencyManager) external onlyOwner {... */\n    tag_9:\n      callvalue\n      dup1\n      iszero\n      tag_62\n      jumpi\n      0x00\n      dup1\n      revert\n    tag_62:\n      pop\n      tag_32\n      tag_64\n      calldatasize\n      0x04\n      tag_34\n      jump\t// in\n    tag_64:\n      tag_65\n      jump\t// in\n        /* \"contracts/Manager/UnemetaMarket.sol\":2242:2288  TheTransferSelector public transferSelectorNFT */\n    tag_10:\n      callvalue\n      dup1\n      iszero\n      tag_66\n      jumpi\n      0x00\n      dup1\n      revert\n    tag_66:\n      pop\n      sload(0x06)\n      tag_27\n      swap1\n      sub(shl(0xa0, 0x01), 0x01)\n      and\n      dup2\n      jump\n        /* \"contracts/Manager/UnemetaMarket.sol\":9001:10892  function matchesBuyerOrder(OrderTypes.TakerOrder calldata takerAsk, OrderTypes.MakerOrder calldata makerBid)... */\n    tag_11:\n      callvalue\n      dup1\n      iszero\n      tag_71\n      jumpi\n      0x00\n      dup1\n      revert\n    tag_71:\n      pop\n      tag_32\n      tag_73\n      calldatasize\n      0x04\n      tag_52\n      jump\t// in\n    tag_73:\n      tag_74\n      jump\t// in\n        /* \"contracts/Manager/UnemetaMarket.sol\":2062:2097  address public protocolFeeRecipient */\n    tag_12:\n      callvalue\n      dup1\n      iszero\n      tag_75\n      jumpi\n      0x00\n      dup1\n      revert\n    tag_75:\n      pop\n      sload(0x02)\n      tag_27\n      swap1\n      sub(shl(0xa0, 0x01), 0x01)\n      and\n      dup2\n      jump\n        /* \"@openzeppelin/contracts/access/Ownable.sol\":1831:1932  function renounceOwnership() public virtual onlyOwner {... */\n    tag_13:\n      callvalue\n      dup1\n      iszero\n      tag_80\n      jumpi\n      0x00\n      dup1\n      revert\n    tag_80:\n      pop\n      tag_32\n      tag_82\n      jump\t// in\n        /* \"contracts/Manager/UnemetaMarket.sol\":2194:2236  TheRoyaltyManager public royaltyFeeManager */\n    tag_14:\n      callvalue\n      dup1\n      iszero\n      tag_83\n      jumpi\n      0x00\n      dup1\n      revert\n    tag_83:\n      pop\n      sload(0x05)\n      tag_27\n      swap1\n      sub(shl(0xa0, 0x01), 0x01)\n      and\n      dup2\n      jump\n        /* \"@openzeppelin/contracts/access/Ownable.sol\":1201:1286  function owner() public view virtual returns (address) {... */\n    tag_15:\n      callvalue\n      dup1\n      iszero\n      tag_88\n      jumpi\n      0x00\n      dup1\n      revert\n    tag_88:\n      pop\n        /* \"@openzeppelin/contracts/access/Ownable.sol\":1273:1279  _owner */\n      and(sub(shl(0xa0, 0x01), 0x01), sload(0x01))\n        /* \"@openzeppelin/contracts/access/Ownable.sol\":1201:1286  function owner() public view virtual returns (address) {... */\n      jump(tag_27)\n        /* \"contracts/Manager/UnemetaMarket.sol\":11688:12161  function cancelMultipleMakerOrders(uint256[] calldata NonceList) external {... */\n    tag_16:\n      callvalue\n      dup1\n      iszero\n      tag_92\n      jumpi\n      0x00\n      dup1\n      revert\n    tag_92:\n      pop\n      tag_32\n      tag_94\n      calldatasize\n      0x04\n      tag_95\n      jump\t// in\n    tag_94:\n      tag_96\n      jump\t// in\n        /* \"contracts/Manager/UnemetaMarket.sol\":1993:2022  address public immutable WETH */\n    tag_17:\n      callvalue\n      dup1\n      iszero\n      tag_97\n      jumpi\n      0x00\n      dup1\n      revert\n    tag_97:\n      pop\n      tag_27\n      immutable(\"0x27f7320d12022267a30ae0570361d18e54ded7bfc682ac5b98d912c6ab83c578\")\n      dup2\n      jump\n        /* \"contracts/Manager/UnemetaMarket.sol\":22544:22839  function updateRoyaltyFeeManager(address _royaltyFeeManager) external onlyOwner {... */\n    tag_18:\n      callvalue\n      dup1\n      iszero\n      tag_101\n      jumpi\n      0x00\n      dup1\n      revert\n    tag_101:\n      pop\n      tag_32\n      tag_103\n      calldatasize\n      0x04\n      tag_34\n      jump\t// in\n    tag_103:\n      tag_104\n      jump\t// in\n        /* \"contracts/Manager/UnemetaMarket.sol\":11044:11519  function cancelAllOrdersForSender(uint256 minNonce) external {... */\n    tag_19:\n      callvalue\n      dup1\n      iszero\n      tag_105\n      jumpi\n      0x00\n      dup1\n      revert\n    tag_105:\n      pop\n      tag_32\n      tag_107\n      calldatasize\n      0x04\n      tag_108\n      jump\t// in\n    tag_107:\n      tag_109\n      jump\t// in\n        /* \"contracts/Manager/UnemetaMarket.sol\":21721:22004  function updateExecutionManager(address _executionManager) external onlyOwner {... */\n    tag_20:\n      callvalue\n      dup1\n      iszero\n      tag_110\n      jumpi\n      0x00\n      dup1\n      revert\n    tag_110:\n      pop\n      tag_32\n      tag_112\n      calldatasize\n      0x04\n      tag_34\n      jump\t// in\n    tag_112:\n      tag_113\n      jump\t// in\n        /* \"@openzeppelin/contracts/access/Ownable.sol\":2081:2279  function transferOwnership(address newOwner) public virtual onlyOwner {... */\n    tag_21:\n      callvalue\n      dup1\n      iszero\n      tag_114\n      jumpi\n      0x00\n      dup1\n      revert\n    tag_114:\n      pop\n      tag_32\n      tag_116\n      calldatasize\n      0x04\n      tag_34\n      jump\t// in\n    tag_116:\n      tag_117\n      jump\t// in\n        /* \"contracts/Manager/UnemetaMarket.sol\":22995:23306  function updateTransferSelectorNFT(address _transferSelectorNFT) external onlyOwner {... */\n    tag_22:\n      callvalue\n      dup1\n      iszero\n      tag_118\n      jumpi\n      0x00\n      dup1\n      revert\n    tag_118:\n      pop\n      tag_32\n      tag_120\n      calldatasize\n      0x04\n      tag_34\n      jump\t// in\n    tag_120:\n      tag_121\n      jump\t// in\n        /* \"contracts/Manager/UnemetaMarket.sol\":22179:22387  function updateProtocolFeeRecipient(address _protocolFeeRecipient) external onlyOwner {... */\n    tag_35:\n        /* \"@openzeppelin/contracts/access/Ownable.sol\":1094:1107  _checkOwner() */\n      tag_123\n        /* \"@openzeppelin/contracts/access/Ownable.sol\":1094:1105  _checkOwner */\n      tag_124\n        /* \"@openzeppelin/contracts/access/Ownable.sol\":1094:1107  _checkOwner() */\n      jump\t// in\n    tag_123:\n        /* \"contracts/Manager/UnemetaMarket.sol\":22275:22295  protocolFeeRecipient */\n      0x02\n        /* \"contracts/Manager/UnemetaMarket.sol\":22275:22319  protocolFeeRecipient = _protocolFeeRecipient */\n      dup1\n      sload\n      not(sub(shl(0xa0, 0x01), 0x01))\n      and\n      sub(shl(0xa0, 0x01), 0x01)\n      dup4\n      and\n      swap1\n      dup2\n      or\n      swap1\n      swap2\n      sstore\n        /* \"contracts/Manager/UnemetaMarket.sol\":22334:22380  NewProtocolFeeRecipient(_protocolFeeRecipient) */\n      mload(0x40)\n      0x8cffb07faa2874440346743bdc0a86b06c3335cc47dc49b327d10e77b73ceb10\n      swap1\n      0x00\n      swap1\n      log2\n        /* \"contracts/Manager/UnemetaMarket.sol\":22179:22387  function updateProtocolFeeRecipient(address _protocolFeeRecipient) external onlyOwner {... */\n      pop\n      jump\t// out\n        /* \"contracts/Manager/UnemetaMarket.sol\":12455:12681  function isUserOrderNonceExecutedOrCancelled(address user, uint256 orderNonce) external view returns (bool) {... */\n    tag_40:\n      sub(shl(0xa0, 0x01), 0x01)\n        /* \"contracts/Manager/UnemetaMarket.sol\":12624:12662  _theUserOrderExecutedOrCancelled[user] */\n      dup3\n      and\n        /* \"contracts/Manager/UnemetaMarket.sol\":12557:12561  bool */\n      0x00\n        /* \"contracts/Manager/UnemetaMarket.sol\":12624:12662  _theUserOrderExecutedOrCancelled[user] */\n      swap1\n      dup2\n      mstore\n        /* \"contracts/Manager/UnemetaMarket.sol\":12624:12656  _theUserOrderExecutedOrCancelled */\n      0x08\n        /* \"contracts/Manager/UnemetaMarket.sol\":12624:12662  _theUserOrderExecutedOrCancelled[user] */\n      0x20\n      swap1\n      dup2\n      mstore\n      0x40\n      dup1\n      dup4\n      keccak256\n        /* \"contracts/Manager/UnemetaMarket.sol\":12624:12674  _theUserOrderExecutedOrCancelled[user][orderNonce] */\n      dup5\n      dup5\n      mstore\n      swap1\n      swap2\n      mstore\n      swap1\n      keccak256\n      sload\n      0xff\n      and\n        /* \"contracts/Manager/UnemetaMarket.sol\":12455:12681  function isUserOrderNonceExecutedOrCancelled(address user, uint256 orderNonce) external view returns (bool) {... */\n    tag_126:\n      swap3\n      swap2\n      pop\n      pop\n      jump\t// out\n        /* \"contracts/Manager/UnemetaMarket.sol\":7032:8808  function matchSellerOrders(OrderTypes.TakerOrder calldata takerBid, OrderTypes.MakerOrder calldata makerAsk)... */\n    tag_53:\n        /* \"@openzeppelin/contracts/security/ReentrancyGuard.sol\":1744:1745  2 */\n      0x02\n        /* \"@openzeppelin/contracts/security/ReentrancyGuard.sol\":2325:2332  _status */\n      sload(0x00)\n        /* \"@openzeppelin/contracts/security/ReentrancyGuard.sol\":2325:2344  _status != _ENTERED */\n      sub\n        /* \"@openzeppelin/contracts/security/ReentrancyGuard.sol\":2317:2380  require(_status != _ENTERED, \"ReentrancyGuard: reentrant call\") */\n      tag_128\n      jumpi\n      mload(0x40)\n      shl(0xe5, 0x461bcd)\n      dup2\n      mstore\n      0x04\n      add\n      tag_129\n      swap1\n      tag_130\n      jump\t// in\n    tag_129:\n      mload(0x40)\n      dup1\n      swap2\n      sub\n      swap1\n      revert\n    tag_128:\n        /* \"@openzeppelin/contracts/security/ReentrancyGuard.sol\":1744:1745  2 */\n      0x02\n        /* \"@openzeppelin/contracts/security/ReentrancyGuard.sol\":2455:2462  _status */\n      0x00\n        /* \"@openzeppelin/contracts/security/ReentrancyGuard.sol\":2455:2473  _status = _ENTERED */\n      sstore\n        /* \"contracts/Manager/UnemetaMarket.sol\":7266:7285  makerAsk.isOrderAsk */\n      tag_132\n      0x20\n      dup3\n      add\n        /* \"contracts/Manager/UnemetaMarket.sol\":7266:7274  makerAsk */\n      dup3\n        /* \"contracts/Manager/UnemetaMarket.sol\":7266:7285  makerAsk.isOrderAsk */\n      tag_133\n      jump\t// in\n    tag_132:\n        /* \"contracts/Manager/UnemetaMarket.sol\":7265:7312  (makerAsk.isOrderAsk) && (!takerBid.isOrderAsk) */\n      dup1\n      iszero\n      tag_134\n      jumpi\n      pop\n        /* \"contracts/Manager/UnemetaMarket.sol\":7292:7311  takerBid.isOrderAsk */\n      tag_135\n      0x20\n      dup4\n      add\n        /* \"contracts/Manager/UnemetaMarket.sol\":7292:7300  takerBid */\n      dup4\n        /* \"contracts/Manager/UnemetaMarket.sol\":7292:7311  takerBid.isOrderAsk */\n      tag_133\n      jump\t// in\n    tag_135:\n        /* \"contracts/Manager/UnemetaMarket.sol\":7291:7311  !takerBid.isOrderAsk */\n      iszero\n        /* \"contracts/Manager/UnemetaMarket.sol\":7265:7312  (makerAsk.isOrderAsk) && (!takerBid.isOrderAsk) */\n    tag_134:\n        /* \"contracts/Manager/UnemetaMarket.sol\":7257:7339  require((makerAsk.isOrderAsk) && (!takerBid.isOrderAsk), \"Error About Order Side\") */\n      tag_136\n      jumpi\n      mload(0x40)\n      shl(0xe5, 0x461bcd)\n      dup2\n      mstore\n      0x04\n      add\n      tag_129\n      swap1\n      tag_138\n      jump\t// in\n    tag_136:\n        /* \"contracts/Manager/UnemetaMarket.sol\":7412:7426  takerBid.taker */\n      tag_139\n      0x40\n      dup4\n      add\n      0x20\n      dup5\n      add\n      tag_34\n      jump\t// in\n    tag_139:\n      sub(shl(0xa0, 0x01), 0x01)\n        /* \"contracts/Manager/UnemetaMarket.sol\":7398:7426  msg.sender == takerBid.taker */\n      and\n        /* \"contracts/Manager/UnemetaMarket.sol\":7398:7408  msg.sender */\n      caller\n      sub(shl(0xa0, 0x01), 0x01)\n        /* \"contracts/Manager/UnemetaMarket.sol\":7398:7426  msg.sender == takerBid.taker */\n      and\n      eq\n        /* \"contracts/Manager/UnemetaMarket.sol\":7390:7455  require(msg.sender == takerBid.taker, \"Order must be the sender\") */\n      tag_140\n      jumpi\n      mload(0x40)\n      shl(0xe5, 0x461bcd)\n      dup2\n      mstore\n      0x04\n      add\n      tag_129\n      swap1\n      tag_142\n      jump\t// in\n    tag_140:\n        /* \"contracts/Manager/UnemetaMarket.sol\":7497:7512  bytes32 askHash */\n      0x00\n        /* \"contracts/Manager/UnemetaMarket.sol\":7515:7530  makerAsk.hash() */\n      tag_143\n        /* \"contracts/Manager/UnemetaMarket.sol\":7515:7528  makerAsk.hash */\n      tag_144\n        /* \"contracts/Manager/UnemetaMarket.sol\":7515:7523  makerAsk */\n      dup4\n        /* \"contracts/Manager/UnemetaMarket.sol\":7515:7528  makerAsk.hash */\n      tag_145\n      jump\t// in\n    tag_144:\n      tag_146\n        /* \"contracts/Manager/UnemetaMarket.sol\":7515:7530  makerAsk.hash() */\n      jump\t// in\n    tag_143:\n        /* \"contracts/Manager/UnemetaMarket.sol\":7497:7530  bytes32 askHash = makerAsk.hash() */\n      swap1\n      pop\n        /* \"contracts/Manager/UnemetaMarket.sol\":7540:7573  _validateOrder(makerAsk, askHash) */\n      tag_147\n        /* \"contracts/Manager/UnemetaMarket.sol\":7555:7563  makerAsk */\n      dup3\n        /* \"contracts/Manager/UnemetaMarket.sol\":7565:7572  askHash */\n      dup3\n        /* \"contracts/Manager/UnemetaMarket.sol\":7540:7554  _validateOrder */\n      tag_148\n        /* \"contracts/Manager/UnemetaMarket.sol\":7540:7573  _validateOrder(makerAsk, askHash) */\n      jump\t// in\n    tag_147:\n        /* \"contracts/Manager/UnemetaMarket.sol\":7596:7617  bool isExecutionValid */\n      0x00\n      dup1\n      dup1\n        /* \"contracts/Manager/UnemetaMarket.sol\":7668:7685  makerAsk.strategy */\n      tag_149\n      0xe0\n      dup7\n      add\n      0xc0\n      dup8\n      add\n      tag_34\n      jump\t// in\n    tag_149:\n      sub(shl(0xa0, 0x01), 0x01)\n        /* \"contracts/Manager/UnemetaMarket.sol\":7654:7710  TheExStrategy(makerAsk.strategy)... */\n      and\n      0xd310677d\n        /* \"contracts/Manager/UnemetaMarket.sol\":7711:7719  takerBid */\n      dup8\n        /* \"contracts/Manager/UnemetaMarket.sol\":7721:7729  makerAsk */\n      dup8\n        /* \"contracts/Manager/UnemetaMarket.sol\":7654:7730  TheExStrategy(makerAsk.strategy)... */\n      mload(0x40)\n      dup4\n      0xffffffff\n      and\n      0xe0\n      shl\n      dup2\n      mstore\n      0x04\n      add\n      tag_150\n      swap3\n      swap2\n      swap1\n      tag_151\n      jump\t// in\n    tag_150:\n      0x60\n      mload(0x40)\n      dup1\n      dup4\n      sub\n      dup2\n      dup7\n      gas\n      staticcall\n      iszero\n      dup1\n      iszero\n      tag_153\n      jumpi\n      returndatasize\n      0x00\n      dup1\n      returndatacopy\n      revert(0x00, returndatasize)\n    tag_153:\n      pop\n      pop\n      pop\n      pop\n      mload(0x40)\n      returndatasize\n      not(0x1f)\n      0x1f\n      dup3\n      add\n      and\n      dup3\n      add\n      dup1\n      0x40\n      mstore\n      pop\n      dup2\n      add\n      swap1\n      tag_154\n      swap2\n      swap1\n      tag_155\n      jump\t// in\n    tag_154:\n        /* \"contracts/Manager/UnemetaMarket.sol\":7595:7730  (bool isExecutionValid, uint256 tokenId, uint256 amount) = TheExStrategy(makerAsk.strategy)... */\n      swap3\n      pop\n      swap3\n      pop\n      swap3\n      pop\n        /* \"contracts/Manager/UnemetaMarket.sol\":7784:7800  isExecutionValid */\n      dup3\n        /* \"contracts/Manager/UnemetaMarket.sol\":7776:7829  require(isExecutionValid, \"Strategy should be valid\") */\n      tag_156\n      jumpi\n      mload(0x40)\n      shl(0xe5, 0x461bcd)\n      dup2\n      mstore\n      0x04\n      add\n      tag_129\n      swap1\n      tag_158\n      jump\t// in\n    tag_156:\n        /* \"contracts/Manager/UnemetaMarket.sol\":7997:8001  true */\n      0x01\n        /* \"contracts/Manager/UnemetaMarket.sol\":7929:7961  _theUserOrderExecutedOrCancelled */\n      0x08\n        /* \"contracts/Manager/UnemetaMarket.sol\":7929:7978  _theUserOrderExecutedOrCancelled[makerAsk.signer] */\n      0x00\n        /* \"contracts/Manager/UnemetaMarket.sol\":7962:7977  makerAsk.signer */\n      tag_159\n      0x40\n      dup10\n      add\n      0x20\n      dup11\n      add\n      tag_34\n      jump\t// in\n    tag_159:\n      sub(shl(0xa0, 0x01), 0x01)\n        /* \"contracts/Manager/UnemetaMarket.sol\":7929:7978  _theUserOrderExecutedOrCancelled[makerAsk.signer] */\n      and\n      dup2\n      mstore\n      0x20\n      dup1\n      dup3\n      add\n      swap3\n      swap1\n      swap3\n      mstore\n      0x40\n      swap1\n      dup2\n      add\n      0x00\n      swap1\n      dup2\n      keccak256\n        /* \"contracts/Manager/UnemetaMarket.sol\":7979:7993  makerAsk.nonce */\n      0x0100\n      dup11\n      add\n      calldataload\n        /* \"contracts/Manager/UnemetaMarket.sol\":7929:7994  _theUserOrderExecutedOrCancelled[makerAsk.signer][makerAsk.nonce] */\n      dup3\n      mstore\n      swap1\n      swap3\n      mstore\n      swap1\n      keccak256\n        /* \"contracts/Manager/UnemetaMarket.sol\":7929:8001  _theUserOrderExecutedOrCancelled[makerAsk.signer][makerAsk.nonce] = true */\n      dup1\n      sload\n      not(0xff)\n      and\n      swap2\n      iszero\n      iszero\n      swap2\n      swap1\n      swap2\n      or\n      swap1\n      sstore\n        /* \"contracts/Manager/UnemetaMarket.sol\":8037:8306  _transferFeesAndFunds(... */\n      tag_160\n        /* \"contracts/Manager/UnemetaMarket.sol\":8072:8089  makerAsk.strategy */\n      tag_161\n      0xe0\n      dup8\n      add\n      0xc0\n      dup9\n      add\n      tag_34\n      jump\t// in\n    tag_161:\n        /* \"contracts/Manager/UnemetaMarket.sol\":8103:8122  makerAsk.collection */\n      tag_162\n      0x60\n      dup9\n      add\n      0x40\n      dup10\n      add\n      tag_34\n      jump\t// in\n    tag_162:\n        /* \"contracts/Manager/UnemetaMarket.sol\":8136:8143  tokenId */\n      dup5\n        /* \"contracts/Manager/UnemetaMarket.sol\":8157:8174  makerAsk.currency */\n      tag_163\n      0x0100\n      dup11\n      add\n      0xe0\n      dup12\n      add\n      tag_34\n      jump\t// in\n    tag_163:\n        /* \"contracts/Manager/UnemetaMarket.sol\":8188:8198  msg.sender */\n      caller\n        /* \"contracts/Manager/UnemetaMarket.sol\":8212:8227  makerAsk.signer */\n      tag_164\n      0x40\n      dup13\n      add\n      0x20\n      dup14\n      add\n      tag_34\n      jump\t// in\n    tag_164:\n        /* \"contracts/Manager/UnemetaMarket.sol\":8241:8249  takerBid */\n      dup13\n        /* \"contracts/Manager/UnemetaMarket.sol\":8241:8255  takerBid.price */\n      0x40\n      add\n      calldataload\n        /* \"contracts/Manager/UnemetaMarket.sol\":8269:8277  makerAsk */\n      dup13\n        /* \"contracts/Manager/UnemetaMarket.sol\":8269:8296  makerAsk.minPercentageToAsk */\n      0x0160\n      add\n      calldataload\n        /* \"contracts/Manager/UnemetaMarket.sol\":8037:8058  _transferFeesAndFunds */\n      tag_165\n        /* \"contracts/Manager/UnemetaMarket.sol\":8037:8306  _transferFeesAndFunds(... */\n      jump\t// in\n    tag_160:\n        /* \"contracts/Manager/UnemetaMarket.sol\":8340:8497  _transferNonFungibleToken(... */\n      tag_166\n        /* \"contracts/Manager/UnemetaMarket.sol\":8379:8398  makerAsk.collection */\n      tag_167\n      0x60\n      dup8\n      add\n      0x40\n      dup9\n      add\n      tag_34\n      jump\t// in\n    tag_167:\n        /* \"contracts/Manager/UnemetaMarket.sol\":8412:8427  makerAsk.signer */\n      tag_168\n      0x40\n      dup9\n      add\n      0x20\n      dup10\n      add\n      tag_34\n      jump\t// in\n    tag_168:\n        /* \"contracts/Manager/UnemetaMarket.sol\":8441:8455  takerBid.taker */\n      tag_169\n      0x40\n      dup11\n      add\n      0x20\n      dup12\n      add\n      tag_34\n      jump\t// in\n    tag_169:\n        /* \"contracts/Manager/UnemetaMarket.sol\":8469:8476  tokenId */\n      dup6\n        /* \"contracts/Manager/UnemetaMarket.sol\":8490:8496  amount */\n      dup6\n        /* \"contracts/Manager/UnemetaMarket.sol\":8340:8365  _transferNonFungibleToken */\n      tag_170\n        /* \"contracts/Manager/UnemetaMarket.sol\":8340:8497  _transferNonFungibleToken(... */\n      jump\t// in\n    tag_166:\n        /* \"contracts/Manager/UnemetaMarket.sol\":8641:8658  makerAsk.strategy */\n      tag_171\n      0xe0\n      dup7\n      add\n      0xc0\n      dup8\n      add\n      tag_34\n      jump\t// in\n    tag_171:\n      sub(shl(0xa0, 0x01), 0x01)\n        /* \"contracts/Manager/UnemetaMarket.sol\":8513:8801  TakerBid(... */\n      and\n        /* \"contracts/Manager/UnemetaMarket.sol\":8612:8627  makerAsk.signer */\n      tag_172\n      0x40\n      dup8\n      add\n      0x20\n      dup9\n      add\n      tag_34\n      jump\t// in\n    tag_172:\n      sub(shl(0xa0, 0x01), 0x01)\n        /* \"contracts/Manager/UnemetaMarket.sol\":8513:8801  TakerBid(... */\n      and\n        /* \"contracts/Manager/UnemetaMarket.sol\":8584:8598  takerBid.taker */\n      tag_173\n      0x40\n      dup10\n      add\n      0x20\n      dup11\n      add\n      tag_34\n      jump\t// in\n    tag_173:\n      sub(shl(0xa0, 0x01), 0x01)\n        /* \"contracts/Manager/UnemetaMarket.sol\":8513:8801  TakerBid(... */\n      and\n      0x95fb6205e23ff6bda16a2d1dba56b9ad7c783f67c96fa149785052f47696f2be\n        /* \"contracts/Manager/UnemetaMarket.sol\":8535:8542  askHash */\n      dup8\n        /* \"contracts/Manager/UnemetaMarket.sol\":8556:8570  makerAsk.nonce */\n      0x0100\n      dup11\n      add\n      dup1\n      calldataload\n      swap1\n        /* \"contracts/Manager/UnemetaMarket.sol\":8672:8689  makerAsk.currency */\n      tag_174\n      swap1\n      0xe0\n      dup14\n      add\n      tag_34\n      jump\t// in\n    tag_174:\n        /* \"contracts/Manager/UnemetaMarket.sol\":8703:8722  makerAsk.collection */\n      tag_175\n      0x60\n      dup14\n      add\n      0x40\n      dup15\n      add\n      tag_34\n      jump\t// in\n    tag_175:\n        /* \"contracts/Manager/UnemetaMarket.sol\":8777:8791  takerBid.price */\n      0x40\n        /* \"contracts/Manager/UnemetaMarket.sol\":8513:8801  TakerBid(... */\n      dup1\n      mload\n        /* \"#utility.yul\":13194:13219   */\n      swap5\n      dup6\n      mstore\n        /* \"#utility.yul\":13250:13252   */\n      0x20\n        /* \"#utility.yul\":13235:13253   */\n      dup6\n      add\n        /* \"#utility.yul\":13228:13262   */\n      swap4\n      swap1\n      swap4\n      mstore\n      sub(shl(0xa0, 0x01), 0x01)\n        /* \"#utility.yul\":13336:13351   */\n      swap2\n      dup3\n      and\n        /* \"#utility.yul\":13316:13334   */\n      dup5\n      dup5\n      add\n        /* \"#utility.yul\":13309:13352   */\n      mstore\n        /* \"#utility.yul\":13388:13403   */\n      and\n        /* \"#utility.yul\":13383:13385   */\n      0x60\n        /* \"#utility.yul\":13368:13386   */\n      dup4\n      add\n        /* \"#utility.yul\":13361:13404   */\n      mstore\n        /* \"#utility.yul\":13435:13438   */\n      0x80\n        /* \"#utility.yul\":13420:13439   */\n      dup3\n      add\n        /* \"#utility.yul\":13413:13448   */\n      dup9\n      swap1\n      mstore\n        /* \"#utility.yul\":13289:13292   */\n      0xa0\n        /* \"#utility.yul\":13464:13483   */\n      dup3\n      add\n        /* \"#utility.yul\":13457:13492   */\n      dup8\n      swap1\n      mstore\n        /* \"contracts/Manager/UnemetaMarket.sol\":8777:8791  takerBid.price */\n      dup12\n      add\n      calldataload\n        /* \"#utility.yul\":13523:13526   */\n      0xc0\n        /* \"#utility.yul\":13508:13527   */\n      dup3\n      add\n        /* \"#utility.yul\":13501:13536   */\n      mstore\n        /* \"#utility.yul\":13181:13184   */\n      0xe0\n        /* \"#utility.yul\":13166:13185   */\n      add\n        /* \"contracts/Manager/UnemetaMarket.sol\":8513:8801  TakerBid(... */\n      mload(0x40)\n      dup1\n      swap2\n      sub\n      swap1\n      log4\n      pop\n      pop\n        /* \"@openzeppelin/contracts/security/ReentrancyGuard.sol\":1701:1702  1 */\n      0x01\n        /* \"@openzeppelin/contracts/security/ReentrancyGuard.sol\":2628:2635  _status */\n      0x00\n        /* \"@openzeppelin/contracts/security/ReentrancyGuard.sol\":2628:2650  _status = _NOT_ENTERED */\n      sstore\n      pop\n      pop\n      pop\n      pop\n        /* \"contracts/Manager/UnemetaMarket.sol\":7032:8808  function matchSellerOrders(OrderTypes.TakerOrder calldata takerBid, OrderTypes.MakerOrder calldata makerAsk)... */\n      jump\t// out\n        /* \"contracts/Manager/UnemetaMarket.sol\":4711:6837  function matchSellerOrdersWETH(... */\n    tag_61:\n        /* \"@openzeppelin/contracts/security/ReentrancyGuard.sol\":1744:1745  2 */\n      0x02\n        /* \"@openzeppelin/contracts/security/ReentrancyGuard.sol\":2325:2332  _status */\n      sload(0x00)\n        /* \"@openzeppelin/contracts/security/ReentrancyGuard.sol\":2325:2344  _status != _ENTERED */\n      sub\n        /* \"@openzeppelin/contracts/security/ReentrancyGuard.sol\":2317:2380  require(_status != _ENTERED, \"ReentrancyGuard: reentrant call\") */\n      tag_179\n      jumpi\n      mload(0x40)\n      shl(0xe5, 0x461bcd)\n      dup2\n      mstore\n      0x04\n      add\n      tag_129\n      swap1\n      tag_130\n      jump\t// in\n    tag_179:\n        /* \"@openzeppelin/contracts/security/ReentrancyGuard.sol\":1744:1745  2 */\n      0x02\n        /* \"@openzeppelin/contracts/security/ReentrancyGuard.sol\":2455:2462  _status */\n      0x00\n        /* \"@openzeppelin/contracts/security/ReentrancyGuard.sol\":2455:2473  _status = _ENTERED */\n      sstore\n        /* \"contracts/Manager/UnemetaMarket.sol\":4904:4923  makerAsk.isOrderAsk */\n      tag_182\n      0x20\n      dup3\n      add\n        /* \"contracts/Manager/UnemetaMarket.sol\":4904:4912  makerAsk */\n      dup3\n        /* \"contracts/Manager/UnemetaMarket.sol\":4904:4923  makerAsk.isOrderAsk */\n      tag_133\n      jump\t// in\n    tag_182:\n        /* \"contracts/Manager/UnemetaMarket.sol\":4903:4950  (makerAsk.isOrderAsk) && (!takerBid.isOrderAsk) */\n      dup1\n      iszero\n      tag_183\n      jumpi\n      pop\n        /* \"contracts/Manager/UnemetaMarket.sol\":4930:4949  takerBid.isOrderAsk */\n      tag_184\n      0x20\n      dup4\n      add\n        /* \"contracts/Manager/UnemetaMarket.sol\":4930:4938  takerBid */\n      dup4\n        /* \"contracts/Manager/UnemetaMarket.sol\":4930:4949  takerBid.isOrderAsk */\n      tag_133\n      jump\t// in\n    tag_184:\n        /* \"contracts/Manager/UnemetaMarket.sol\":4929:4949  !takerBid.isOrderAsk */\n      iszero\n        /* \"contracts/Manager/UnemetaMarket.sol\":4903:4950  (makerAsk.isOrderAsk) && (!takerBid.isOrderAsk) */\n    tag_183:\n        /* \"contracts/Manager/UnemetaMarket.sol\":4895:4977  require((makerAsk.isOrderAsk) && (!takerBid.isOrderAsk), \"Error About Order Side\") */\n      tag_185\n      jumpi\n      mload(0x40)\n      shl(0xe5, 0x461bcd)\n      dup2\n      mstore\n      0x04\n      add\n      tag_129\n      swap1\n      tag_138\n      jump\t// in\n    tag_185:\n      sub(shl(0xa0, 0x01), 0x01)\n        /* \"contracts/Manager/UnemetaMarket.sol\":5046:5050  WETH */\n      immutable(\"0x27f7320d12022267a30ae0570361d18e54ded7bfc682ac5b98d912c6ab83c578\")\n        /* \"contracts/Manager/UnemetaMarket.sol\":5025:5050  makerAsk.currency == WETH */\n      and\n        /* \"contracts/Manager/UnemetaMarket.sol\":5025:5042  makerAsk.currency */\n      tag_187\n      0x0100\n      dup4\n      add\n      0xe0\n      dup5\n      add\n      tag_34\n      jump\t// in\n    tag_187:\n      sub(shl(0xa0, 0x01), 0x01)\n        /* \"contracts/Manager/UnemetaMarket.sol\":5025:5050  makerAsk.currency == WETH */\n      and\n      eq\n        /* \"contracts/Manager/UnemetaMarket.sol\":5017:5076  require(makerAsk.currency == WETH, \"Currency must be WETH\") */\n      tag_188\n      jumpi\n      mload(0x40)\n      shl(0xe5, 0x461bcd)\n      dup2\n      mstore\n        /* \"#utility.yul\":13749:13751   */\n      0x20\n        /* \"contracts/Manager/UnemetaMarket.sol\":5017:5076  require(makerAsk.currency == WETH, \"Currency must be WETH\") */\n      0x04\n      dup3\n      add\n        /* \"#utility.yul\":13731:13752   */\n      mstore\n        /* \"#utility.yul\":13788:13790   */\n      0x15\n        /* \"#utility.yul\":13768:13786   */\n      0x24\n      dup3\n      add\n        /* \"#utility.yul\":13761:13791   */\n      mstore\n      shl(0x5b, 0x086eae4e4cadcc6f240daeae6e840c4ca40ae8aa89)\n        /* \"#utility.yul\":13807:13825   */\n      0x44\n      dup3\n      add\n        /* \"#utility.yul\":13800:13851   */\n      mstore\n        /* \"#utility.yul\":13868:13886   */\n      0x64\n      add\n        /* \"contracts/Manager/UnemetaMarket.sol\":5017:5076  require(makerAsk.currency == WETH, \"Currency must be WETH\") */\n      tag_129\n        /* \"#utility.yul\":13547:13892   */\n      jump\n        /* \"contracts/Manager/UnemetaMarket.sol\":5017:5076  require(makerAsk.currency == WETH, \"Currency must be WETH\") */\n    tag_188:\n        /* \"contracts/Manager/UnemetaMarket.sol\":5108:5122  takerBid.taker */\n      tag_191\n      0x40\n      dup4\n      add\n      0x20\n      dup5\n      add\n      tag_34\n      jump\t// in\n    tag_191:\n      sub(shl(0xa0, 0x01), 0x01)\n        /* \"contracts/Manager/UnemetaMarket.sol\":5094:5122  msg.sender == takerBid.taker */\n      and\n        /* \"contracts/Manager/UnemetaMarket.sol\":5094:5104  msg.sender */\n      caller\n      sub(shl(0xa0, 0x01), 0x01)\n        /* \"contracts/Manager/UnemetaMarket.sol\":5094:5122  msg.sender == takerBid.taker */\n      and\n      eq\n        /* \"contracts/Manager/UnemetaMarket.sol\":5086:5151  require(msg.sender == takerBid.taker, \"Order must be the sender\") */\n      tag_192\n      jumpi\n      mload(0x40)\n      shl(0xe5, 0x461bcd)\n      dup2\n      mstore\n      0x04\n      add\n      tag_129\n      swap1\n      tag_142\n      jump\t// in\n    tag_192:\n        /* \"contracts/Manager/UnemetaMarket.sol\":5237:5246  msg.value */\n      callvalue\n        /* \"contracts/Manager/UnemetaMarket.sol\":5220:5228  takerBid */\n      dup3\n        /* \"contracts/Manager/UnemetaMarket.sol\":5220:5234  takerBid.price */\n      0x40\n      add\n      calldataload\n        /* \"contracts/Manager/UnemetaMarket.sol\":5220:5246  takerBid.price > msg.value */\n      gt\n        /* \"contracts/Manager/UnemetaMarket.sol\":5216:5451  if (takerBid.price > msg.value) {... */\n      iszero\n      tag_194\n      jumpi\n        /* \"contracts/Manager/UnemetaMarket.sol\":5262:5348  IERC20(WETH).safeTransferFrom(msg.sender, address(this), (takerBid.price - msg.value)) */\n      tag_195\n        /* \"contracts/Manager/UnemetaMarket.sol\":5292:5302  msg.sender */\n      caller\n        /* \"contracts/Manager/UnemetaMarket.sol\":5312:5316  this */\n      address\n        /* \"contracts/Manager/UnemetaMarket.sol\":5320:5346  takerBid.price - msg.value */\n      tag_196\n        /* \"contracts/Manager/UnemetaMarket.sol\":5337:5346  msg.value */\n      callvalue\n        /* \"contracts/Manager/UnemetaMarket.sol\":5320:5334  takerBid.price */\n      0x40\n      dup8\n      add\n      calldataload\n        /* \"contracts/Manager/UnemetaMarket.sol\":5320:5346  takerBid.price - msg.value */\n      tag_197\n      jump\t// in\n    tag_196:\n      sub(shl(0xa0, 0x01), 0x01)\n        /* \"contracts/Manager/UnemetaMarket.sol\":5269:5273  WETH */\n      immutable(\"0x27f7320d12022267a30ae0570361d18e54ded7bfc682ac5b98d912c6ab83c578\")\n        /* \"contracts/Manager/UnemetaMarket.sol\":5262:5291  IERC20(WETH).safeTransferFrom */\n      and\n      swap3\n        /* \"contracts/Manager/UnemetaMarket.sol\":5262:5348  IERC20(WETH).safeTransferFrom(msg.sender, address(this), (takerBid.price - msg.value)) */\n      swap2\n      swap1\n        /* \"contracts/Manager/UnemetaMarket.sol\":5262:5291  IERC20(WETH).safeTransferFrom */\n      tag_198\n        /* \"contracts/Manager/UnemetaMarket.sol\":5262:5348  IERC20(WETH).safeTransferFrom(msg.sender, address(this), (takerBid.price - msg.value)) */\n      jump\t// in\n    tag_195:\n        /* \"contracts/Manager/UnemetaMarket.sol\":5216:5451  if (takerBid.price > msg.value) {... */\n      jump(tag_200)\n    tag_194:\n        /* \"contracts/Manager/UnemetaMarket.sol\":5405:5414  msg.value */\n      callvalue\n        /* \"contracts/Manager/UnemetaMarket.sol\":5387:5395  takerBid */\n      dup3\n        /* \"contracts/Manager/UnemetaMarket.sol\":5387:5401  takerBid.price */\n      0x40\n      add\n      calldataload\n        /* \"contracts/Manager/UnemetaMarket.sol\":5387:5414  takerBid.price == msg.value */\n      eq\n        /* \"contracts/Manager/UnemetaMarket.sol\":5379:5440  require(takerBid.price == msg.value, \"Msg.value is too high\") */\n      tag_200\n      jumpi\n      mload(0x40)\n      shl(0xe5, 0x461bcd)\n      dup2\n      mstore\n        /* \"#utility.yul\":14364:14366   */\n      0x20\n        /* \"contracts/Manager/UnemetaMarket.sol\":5379:5440  require(takerBid.price == msg.value, \"Msg.value is too high\") */\n      0x04\n      dup3\n      add\n        /* \"#utility.yul\":14346:14367   */\n      mstore\n        /* \"#utility.yul\":14403:14405   */\n      0x15\n        /* \"#utility.yul\":14383:14401   */\n      0x24\n      dup3\n      add\n        /* \"#utility.yul\":14376:14406   */\n      mstore\n      shl(0x5b, 0x09ae6ce5cecc2d8eaca40d2e640e8dede40d0d2ced)\n        /* \"#utility.yul\":14422:14440   */\n      0x44\n      dup3\n      add\n        /* \"#utility.yul\":14415:14466   */\n      mstore\n        /* \"#utility.yul\":14483:14501   */\n      0x64\n      add\n        /* \"contracts/Manager/UnemetaMarket.sol\":5379:5440  require(takerBid.price == msg.value, \"Msg.value is too high\") */\n      tag_129\n        /* \"#utility.yul\":14162:14507   */\n      jump\n        /* \"contracts/Manager/UnemetaMarket.sol\":5379:5440  require(takerBid.price == msg.value, \"Msg.value is too high\") */\n    tag_200:\n        /* \"contracts/Manager/UnemetaMarket.sol\":5490:5494  WETH */\n      immutable(\"0x27f7320d12022267a30ae0570361d18e54ded7bfc682ac5b98d912c6ab83c578\")\n      sub(shl(0xa0, 0x01), 0x01)\n        /* \"contracts/Manager/UnemetaMarket.sol\":5484:5503  IWETH(WETH).deposit */\n      and\n      0xd0e30db0\n        /* \"contracts/Manager/UnemetaMarket.sol\":5512:5521  msg.value */\n      callvalue\n        /* \"contracts/Manager/UnemetaMarket.sol\":5484:5524  IWETH(WETH).deposit{value : msg.value}() */\n      mload(0x40)\n      dup3\n      0xffffffff\n      and\n      0xe0\n      shl\n      dup2\n      mstore\n      0x04\n      add\n      0x00\n      mload(0x40)\n      dup1\n      dup4\n      sub\n      dup2\n      dup6\n      dup9\n      dup1\n      extcodesize\n      iszero\n      dup1\n      iszero\n      tag_203\n      jumpi\n      0x00\n      dup1\n      revert\n    tag_203:\n      pop\n      gas\n      call\n      iszero\n      dup1\n      iszero\n      tag_205\n      jumpi\n      returndatasize\n      0x00\n      dup1\n      returndatacopy\n      revert(0x00, returndatasize)\n    tag_205:\n      pop\n      pop\n      pop\n      pop\n      pop\n        /* \"contracts/Manager/UnemetaMarket.sol\":5578:5593  bytes32 askHash */\n      0x00\n        /* \"contracts/Manager/UnemetaMarket.sol\":5596:5611  makerAsk.hash() */\n      tag_206\n        /* \"contracts/Manager/UnemetaMarket.sol\":5596:5604  makerAsk */\n      dup3\n        /* \"contracts/Manager/UnemetaMarket.sol\":5596:5609  makerAsk.hash */\n      tag_144\n      swap1\n      tag_145\n      jump\t// in\n        /* \"contracts/Manager/UnemetaMarket.sol\":5596:5611  makerAsk.hash() */\n    tag_206:\n        /* \"contracts/Manager/UnemetaMarket.sol\":5578:5611  bytes32 askHash = makerAsk.hash() */\n      swap1\n      pop\n        /* \"contracts/Manager/UnemetaMarket.sol\":5621:5654  _validateOrder(makerAsk, askHash) */\n      tag_208\n        /* \"contracts/Manager/UnemetaMarket.sol\":5636:5644  makerAsk */\n      dup3\n        /* \"contracts/Manager/UnemetaMarket.sol\":5646:5653  askHash */\n      dup3\n        /* \"contracts/Manager/UnemetaMarket.sol\":5621:5635  _validateOrder */\n      tag_148\n        /* \"contracts/Manager/UnemetaMarket.sol\":5621:5654  _validateOrder(makerAsk, askHash) */\n      jump\t// in\n    tag_208:\n        /* \"contracts/Manager/UnemetaMarket.sol\":5706:5727  bool isExecutionValid */\n      0x00\n      dup1\n      dup1\n        /* \"contracts/Manager/UnemetaMarket.sol\":5778:5795  makerAsk.strategy */\n      tag_209\n      0xe0\n      dup7\n      add\n      0xc0\n      dup8\n      add\n      tag_34\n      jump\t// in\n    tag_209:\n      sub(shl(0xa0, 0x01), 0x01)\n        /* \"contracts/Manager/UnemetaMarket.sol\":5764:5820  TheExStrategy(makerAsk.strategy)... */\n      and\n      0xd310677d\n        /* \"contracts/Manager/UnemetaMarket.sol\":5821:5829  takerBid */\n      dup8\n        /* \"contracts/Manager/UnemetaMarket.sol\":5831:5839  makerAsk */\n      dup8\n        /* \"contracts/Manager/UnemetaMarket.sol\":5764:5840  TheExStrategy(makerAsk.strategy)... */\n      mload(0x40)\n      dup4\n      0xffffffff\n      and\n      0xe0\n      shl\n      dup2\n      mstore\n      0x04\n      add\n      tag_210\n      swap3\n      swap2\n      swap1\n      tag_151\n      jump\t// in\n    tag_210:\n      0x60\n      mload(0x40)\n      dup1\n      dup4\n      sub\n      dup2\n      dup7\n      gas\n      staticcall\n      iszero\n      dup1\n      iszero\n      tag_212\n      jumpi\n      returndatasize\n      0x00\n      dup1\n      returndatacopy\n      revert(0x00, returndatasize)\n    tag_212:\n      pop\n      pop\n      pop\n      pop\n      mload(0x40)\n      returndatasize\n      not(0x1f)\n      0x1f\n      dup3\n      add\n      and\n      dup3\n      add\n      dup1\n      0x40\n      mstore\n      pop\n      dup2\n      add\n      swap1\n      tag_213\n      swap2\n      swap1\n      tag_155\n      jump\t// in\n    tag_213:\n        /* \"contracts/Manager/UnemetaMarket.sol\":5705:5840  (bool isExecutionValid, uint256 tokenId, uint256 amount) = TheExStrategy(makerAsk.strategy)... */\n      swap3\n      pop\n      swap3\n      pop\n      swap3\n      pop\n        /* \"contracts/Manager/UnemetaMarket.sol\":5859:5875  isExecutionValid */\n      dup3\n        /* \"contracts/Manager/UnemetaMarket.sol\":5851:5904  require(isExecutionValid, \"Strategy should be valid\") */\n      tag_214\n      jumpi\n      mload(0x40)\n      shl(0xe5, 0x461bcd)\n      dup2\n      mstore\n      0x04\n      add\n      tag_129\n      swap1\n      tag_158\n      jump\t// in\n    tag_214:\n        /* \"contracts/Manager/UnemetaMarket.sol\":6072:6076  true */\n      0x01\n        /* \"contracts/Manager/UnemetaMarket.sol\":6004:6036  _theUserOrderExecutedOrCancelled */\n      0x08\n        /* \"contracts/Manager/UnemetaMarket.sol\":6004:6053  _theUserOrderExecutedOrCancelled[makerAsk.signer] */\n      0x00\n        /* \"contracts/Manager/UnemetaMarket.sol\":6037:6052  makerAsk.signer */\n      tag_216\n      0x40\n      dup10\n      add\n      0x20\n      dup11\n      add\n      tag_34\n      jump\t// in\n    tag_216:\n      sub(shl(0xa0, 0x01), 0x01)\n        /* \"contracts/Manager/UnemetaMarket.sol\":6004:6053  _theUserOrderExecutedOrCancelled[makerAsk.signer] */\n      and\n      dup2\n      mstore\n      0x20\n      dup1\n      dup3\n      add\n      swap3\n      swap1\n      swap3\n      mstore\n      0x40\n      swap1\n      dup2\n      add\n      0x00\n      swap1\n      dup2\n      keccak256\n        /* \"contracts/Manager/UnemetaMarket.sol\":6054:6068  makerAsk.nonce */\n      0x0100\n      dup11\n      add\n      calldataload\n        /* \"contracts/Manager/UnemetaMarket.sol\":6004:6069  _theUserOrderExecutedOrCancelled[makerAsk.signer][makerAsk.nonce] */\n      dup3\n      mstore\n      swap1\n      swap3\n      mstore\n      swap1\n      keccak256\n        /* \"contracts/Manager/UnemetaMarket.sol\":6004:6076  _theUserOrderExecutedOrCancelled[makerAsk.signer][makerAsk.nonce] = true */\n      dup1\n      sload\n      not(0xff)\n      and\n      swap2\n      iszero\n      iszero\n      swap2\n      swap1\n      swap2\n      or\n      swap1\n      sstore\n        /* \"contracts/Manager/UnemetaMarket.sol\":6112:6334  _transferFeesAndFundsWithWETH(... */\n      tag_160\n        /* \"contracts/Manager/UnemetaMarket.sol\":6155:6172  makerAsk.strategy */\n      tag_218\n      0xe0\n      dup8\n      add\n      0xc0\n      dup9\n      add\n      tag_34\n      jump\t// in\n    tag_218:\n        /* \"contracts/Manager/UnemetaMarket.sol\":6186:6205  makerAsk.collection */\n      tag_219\n      0x60\n      dup9\n      add\n      0x40\n      dup10\n      add\n      tag_34\n      jump\t// in\n    tag_219:\n        /* \"contracts/Manager/UnemetaMarket.sol\":6219:6226  tokenId */\n      dup5\n        /* \"contracts/Manager/UnemetaMarket.sol\":6240:6255  makerAsk.signer */\n      tag_220\n      0x40\n      dup11\n      add\n      0x20\n      dup12\n      add\n      tag_34\n      jump\t// in\n    tag_220:\n        /* \"contracts/Manager/UnemetaMarket.sol\":6269:6277  takerBid */\n      dup11\n        /* \"contracts/Manager/UnemetaMarket.sol\":6269:6283  takerBid.price */\n      0x40\n      add\n      calldataload\n        /* \"contracts/Manager/UnemetaMarket.sol\":6297:6305  makerAsk */\n      dup11\n        /* \"contracts/Manager/UnemetaMarket.sol\":6297:6324  makerAsk.minPercentageToAsk */\n      0x0160\n      add\n      calldataload\n        /* \"contracts/Manager/UnemetaMarket.sol\":6112:6141  _transferFeesAndFundsWithWETH */\n      tag_221\n        /* \"contracts/Manager/UnemetaMarket.sol\":6112:6334  _transferFeesAndFundsWithWETH(... */\n      jump\t// in\n        /* \"contracts/Manager/UnemetaMarket.sol\":21282:21564  function updateCurrencyManager(address _currencyManager) external onlyOwner {... */\n    tag_65:\n        /* \"@openzeppelin/contracts/access/Ownable.sol\":1094:1107  _checkOwner() */\n      tag_233\n        /* \"@openzeppelin/contracts/access/Ownable.sol\":1094:1105  _checkOwner */\n      tag_124\n        /* \"@openzeppelin/contracts/access/Ownable.sol\":1094:1107  _checkOwner() */\n      jump\t// in\n    tag_233:\n      sub(shl(0xa0, 0x01), 0x01)\n        /* \"contracts/Manager/UnemetaMarket.sol\":21376:21406  _currencyManager != address(0) */\n      dup2\n      and\n        /* \"contracts/Manager/UnemetaMarket.sol\":21368:21442  require(_currencyManager != address(0), \"Cannot update to a null address\") */\n      tag_235\n      jumpi\n      mload(0x40)\n      shl(0xe5, 0x461bcd)\n      dup2\n      mstore\n      0x04\n      add\n      tag_129\n      swap1\n      tag_237\n      jump\t// in\n    tag_235:\n        /* \"contracts/Manager/UnemetaMarket.sol\":21452:21467  currencyManager */\n      0x03\n        /* \"contracts/Manager/UnemetaMarket.sol\":21452:21506  currencyManager = TheCurrencyManager(_currencyManager) */\n      dup1\n      sload\n      not(sub(shl(0xa0, 0x01), 0x01))\n      and\n      sub(shl(0xa0, 0x01), 0x01)\n      dup4\n      and\n      swap1\n      dup2\n      or\n      swap1\n      swap2\n      sstore\n        /* \"contracts/Manager/UnemetaMarket.sol\":21521:21557  NewCurrencyManager(_currencyManager) */\n      mload(0x40)\n      0xb4f5db40df3aced29e88a4babbc3b46e305e07d34098525d18b1497056e63838\n      swap1\n      0x00\n      swap1\n      log2\n        /* \"contracts/Manager/UnemetaMarket.sol\":21282:21564  function updateCurrencyManager(address _currencyManager) external onlyOwner {... */\n      pop\n      jump\t// out\n        /* \"contracts/Manager/UnemetaMarket.sol\":9001:10892  function matchesBuyerOrder(OrderTypes.TakerOrder calldata takerAsk, OrderTypes.MakerOrder calldata makerBid)... */\n    tag_74:\n        /* \"@openzeppelin/contracts/security/ReentrancyGuard.sol\":1744:1745  2 */\n      0x02\n        /* \"@openzeppelin/contracts/security/ReentrancyGuard.sol\":2325:2332  _status */\n      sload(0x00)\n        /* \"@openzeppelin/contracts/security/ReentrancyGuard.sol\":2325:2344  _status != _ENTERED */\n      sub\n        /* \"@openzeppelin/contracts/security/ReentrancyGuard.sol\":2317:2380  require(_status != _ENTERED, \"ReentrancyGuard: reentrant call\") */\n      tag_239\n      jumpi\n      mload(0x40)\n      shl(0xe5, 0x461bcd)\n      dup2\n      mstore\n      0x04\n      add\n      tag_129\n      swap1\n      tag_130\n      jump\t// in\n    tag_239:\n        /* \"@openzeppelin/contracts/security/ReentrancyGuard.sol\":1744:1745  2 */\n      0x02\n        /* \"@openzeppelin/contracts/security/ReentrancyGuard.sol\":2455:2462  _status */\n      0x00\n        /* \"@openzeppelin/contracts/security/ReentrancyGuard.sol\":2455:2473  _status = _ENTERED */\n      sstore\n        /* \"contracts/Manager/UnemetaMarket.sol\":9289:9308  makerBid.isOrderAsk */\n      tag_242\n      0x20\n      dup3\n      add\n        /* \"contracts/Manager/UnemetaMarket.sol\":9289:9297  makerBid */\n      dup3\n        /* \"contracts/Manager/UnemetaMarket.sol\":9289:9308  makerBid.isOrderAsk */\n      tag_133\n      jump\t// in\n    tag_242:\n        /* \"contracts/Manager/UnemetaMarket.sol\":9288:9308  !makerBid.isOrderAsk */\n      iszero\n        /* \"contracts/Manager/UnemetaMarket.sol\":9287:9334  (!makerBid.isOrderAsk) && (takerAsk.isOrderAsk) */\n      dup1\n      iszero\n      tag_244\n      jumpi\n      pop\n        /* \"contracts/Manager/UnemetaMarket.sol\":9314:9333  takerAsk.isOrderAsk */\n      tag_244\n      0x20\n      dup4\n      add\n        /* \"contracts/Manager/UnemetaMarket.sol\":9314:9322  takerAsk */\n      dup4\n        /* \"contracts/Manager/UnemetaMarket.sol\":9314:9333  takerAsk.isOrderAsk */\n      tag_133\n      jump\t// in\n    tag_244:\n        /* \"contracts/Manager/UnemetaMarket.sol\":9279:9361  require((!makerBid.isOrderAsk) && (takerAsk.isOrderAsk), \"Error About Order Side\") */\n      tag_245\n      jumpi\n      mload(0x40)\n      shl(0xe5, 0x461bcd)\n      dup2\n      mstore\n      0x04\n      add\n      tag_129\n      swap1\n      tag_138\n      jump\t// in\n    tag_245:\n        /* \"contracts/Manager/UnemetaMarket.sol\":9434:9448  takerAsk.taker */\n      tag_247\n      0x40\n      dup4\n      add\n      0x20\n      dup5\n      add\n      tag_34\n      jump\t// in\n    tag_247:\n      sub(shl(0xa0, 0x01), 0x01)\n        /* \"contracts/Manager/UnemetaMarket.sol\":9420:9448  msg.sender == takerAsk.taker */\n      and\n        /* \"contracts/Manager/UnemetaMarket.sol\":9420:9430  msg.sender */\n      caller\n      sub(shl(0xa0, 0x01), 0x01)\n        /* \"contracts/Manager/UnemetaMarket.sol\":9420:9448  msg.sender == takerAsk.taker */\n      and\n      eq\n        /* \"contracts/Manager/UnemetaMarket.sol\":9412:9477  require(msg.sender == takerAsk.taker, \"Order must be the sender\") */\n      tag_248\n      jumpi\n      mload(0x40)\n      shl(0xe5, 0x461bcd)\n      dup2\n      mstore\n      0x04\n      add\n      tag_129\n      swap1\n      tag_142\n      jump\t// in\n    tag_248:\n        /* \"contracts/Manager/UnemetaMarket.sol\":9521:9536  bytes32 bidHash */\n      0x00\n        /* \"contracts/Manager/UnemetaMarket.sol\":9539:9554  makerBid.hash() */\n      tag_250\n        /* \"contracts/Manager/UnemetaMarket.sol\":9539:9552  makerBid.hash */\n      tag_144\n        /* \"contracts/Manager/UnemetaMarket.sol\":9539:9547  makerBid */\n      dup4\n        /* \"contracts/Manager/UnemetaMarket.sol\":9539:9552  makerBid.hash */\n      tag_145\n      jump\t// in\n        /* \"contracts/Manager/UnemetaMarket.sol\":9539:9554  makerBid.hash() */\n    tag_250:\n        /* \"contracts/Manager/UnemetaMarket.sol\":9521:9554  bytes32 bidHash = makerBid.hash() */\n      swap1\n      pop\n        /* \"contracts/Manager/UnemetaMarket.sol\":9606:9639  _validateOrder(makerBid, bidHash) */\n      tag_252\n        /* \"contracts/Manager/UnemetaMarket.sol\":9621:9629  makerBid */\n      dup3\n        /* \"contracts/Manager/UnemetaMarket.sol\":9631:9638  bidHash */\n      dup3\n        /* \"contracts/Manager/UnemetaMarket.sol\":9606:9620  _validateOrder */\n      tag_148\n        /* \"contracts/Manager/UnemetaMarket.sol\":9606:9639  _validateOrder(makerBid, bidHash) */\n      jump\t// in\n    tag_252:\n        /* \"contracts/Manager/UnemetaMarket.sol\":9715:9736  bool isExecutionValid */\n      0x00\n      dup1\n      dup1\n        /* \"contracts/Manager/UnemetaMarket.sol\":9787:9804  makerBid.strategy */\n      tag_253\n      0xe0\n      dup7\n      add\n      0xc0\n      dup8\n      add\n      tag_34\n      jump\t// in\n    tag_253:\n      sub(shl(0xa0, 0x01), 0x01)\n        /* \"contracts/Manager/UnemetaMarket.sol\":9773:9828  TheExStrategy(makerBid.strategy)... */\n      and\n      0x2a75ffee\n        /* \"contracts/Manager/UnemetaMarket.sol\":9829:9837  takerAsk */\n      dup8\n        /* \"contracts/Manager/UnemetaMarket.sol\":9839:9847  makerBid */\n      dup8\n        /* \"contracts/Manager/UnemetaMarket.sol\":9773:9848  TheExStrategy(makerBid.strategy)... */\n      mload(0x40)\n      dup4\n      0xffffffff\n      and\n      0xe0\n      shl\n      dup2\n      mstore\n      0x04\n      add\n      tag_254\n      swap3\n      swap2\n      swap1\n      tag_151\n      jump\t// in\n    tag_254:\n      0x60\n      mload(0x40)\n      dup1\n      dup4\n      sub\n      dup2\n      dup7\n      gas\n      staticcall\n      iszero\n      dup1\n      iszero\n      tag_256\n      jumpi\n      returndatasize\n      0x00\n      dup1\n      returndatacopy\n      revert(0x00, returndatasize)\n    tag_256:\n      pop\n      pop\n      pop\n      pop\n      mload(0x40)\n      returndatasize\n      not(0x1f)\n      0x1f\n      dup3\n      add\n      and\n      dup3\n      add\n      dup1\n      0x40\n      mstore\n      pop\n      dup2\n      add\n      swap1\n      tag_257\n      swap2\n      swap1\n      tag_155\n      jump\t// in\n    tag_257:\n        /* \"contracts/Manager/UnemetaMarket.sol\":9714:9848  (bool isExecutionValid, uint256 tokenId, uint256 amount) = TheExStrategy(makerBid.strategy)... */\n      swap3\n      pop\n      swap3\n      pop\n      swap3\n      pop\n        /* \"contracts/Manager/UnemetaMarket.sol\":9867:9883  isExecutionValid */\n      dup3\n        /* \"contracts/Manager/UnemetaMarket.sol\":9859:9912  require(isExecutionValid, \"Strategy should be valid\") */\n      tag_258\n      jumpi\n      mload(0x40)\n      shl(0xe5, 0x461bcd)\n      dup2\n      mstore\n      0x04\n      add\n      tag_129\n      swap1\n      tag_158\n      jump\t// in\n    tag_258:\n        /* \"contracts/Manager/UnemetaMarket.sol\":10080:10084  true */\n      0x01\n        /* \"contracts/Manager/UnemetaMarket.sol\":10012:10044  _theUserOrderExecutedOrCancelled */\n      0x08\n        /* \"contracts/Manager/UnemetaMarket.sol\":10012:10061  _theUserOrderExecutedOrCancelled[makerBid.signer] */\n      0x00\n        /* \"contracts/Manager/UnemetaMarket.sol\":10045:10060  makerBid.signer */\n      tag_260\n      0x40\n      dup10\n      add\n      0x20\n      dup11\n      add\n      tag_34\n      jump\t// in\n    tag_260:\n      sub(shl(0xa0, 0x01), 0x01)\n        /* \"contracts/Manager/UnemetaMarket.sol\":10012:10061  _theUserOrderExecutedOrCancelled[makerBid.signer] */\n      and\n      dup2\n      mstore\n      0x20\n      dup1\n      dup3\n      add\n      swap3\n      swap1\n      swap3\n      mstore\n      0x40\n      swap1\n      dup2\n      add\n      0x00\n      swap1\n      dup2\n      keccak256\n        /* \"contracts/Manager/UnemetaMarket.sol\":10062:10076  makerBid.nonce */\n      0x0100\n      dup11\n      add\n      calldataload\n        /* \"contracts/Manager/UnemetaMarket.sol\":10012:10077  _theUserOrderExecutedOrCancelled[makerBid.signer][makerBid.nonce] */\n      dup3\n      mstore\n      swap1\n      swap3\n      mstore\n      swap1\n      dup2\n      swap1\n      keccak256\n        /* \"contracts/Manager/UnemetaMarket.sol\":10012:10084  _theUserOrderExecutedOrCancelled[makerBid.signer][makerBid.nonce] = true */\n      dup1\n      sload\n      not(0xff)\n      and\n      swap3\n      iszero\n      iszero\n      swap3\n      swap1\n      swap3\n      or\n      swap1\n      swap2\n      sstore\n        /* \"contracts/Manager/UnemetaMarket.sol\":10119:10272  _transferNonFungibleToken(... */\n      tag_261\n      swap1\n        /* \"contracts/Manager/UnemetaMarket.sol\":10158:10177  makerBid.collection */\n      tag_262\n      swap1\n      0x60\n      dup9\n      add\n      swap1\n      dup9\n      add\n      tag_34\n      jump\t// in\n    tag_262:\n        /* \"contracts/Manager/UnemetaMarket.sol\":10191:10201  msg.sender */\n      caller\n        /* \"contracts/Manager/UnemetaMarket.sol\":10215:10230  makerBid.signer */\n      tag_169\n      0x40\n      dup10\n      add\n      0x20\n      dup11\n      add\n      tag_34\n      jump\t// in\n        /* \"contracts/Manager/UnemetaMarket.sol\":10119:10272  _transferNonFungibleToken(... */\n    tag_261:\n        /* \"contracts/Manager/UnemetaMarket.sol\":10308:10581  _transferFeesAndFunds(... */\n      tag_264\n        /* \"contracts/Manager/UnemetaMarket.sol\":10343:10360  makerBid.strategy */\n      tag_265\n      0xe0\n      dup8\n      add\n      0xc0\n      dup9\n      add\n      tag_34\n      jump\t// in\n    tag_265:\n        /* \"contracts/Manager/UnemetaMarket.sol\":10374:10393  makerBid.collection */\n      tag_266\n      0x60\n      dup9\n      add\n      0x40\n      dup10\n      add\n      tag_34\n      jump\t// in\n    tag_266:\n        /* \"contracts/Manager/UnemetaMarket.sol\":10407:10414  tokenId */\n      dup5\n        /* \"contracts/Manager/UnemetaMarket.sol\":10428:10445  makerBid.currency */\n      tag_267\n      0x0100\n      dup11\n      add\n      0xe0\n      dup12\n      add\n      tag_34\n      jump\t// in\n    tag_267:\n        /* \"contracts/Manager/UnemetaMarket.sol\":10459:10474  makerBid.signer */\n      tag_268\n      0x40\n      dup12\n      add\n      0x20\n      dup13\n      add\n      tag_34\n      jump\t// in\n    tag_268:\n        /* \"contracts/Manager/UnemetaMarket.sol\":10488:10502  takerAsk.taker */\n      tag_269\n      0x40\n      dup14\n      add\n      0x20\n      dup15\n      add\n      tag_34\n      jump\t// in\n    tag_269:\n        /* \"contracts/Manager/UnemetaMarket.sol\":10516:10524  takerAsk */\n      dup13\n        /* \"contracts/Manager/UnemetaMarket.sol\":10516:10530  takerAsk.price */\n      0x40\n      add\n      calldataload\n        /* \"contracts/Manager/UnemetaMarket.sol\":10544:10552  takerAsk */\n      dup14\n        /* \"contracts/Manager/UnemetaMarket.sol\":10544:10571  takerAsk.minPercentageToAsk */\n      0x80\n      add\n      calldataload\n        /* \"contracts/Manager/UnemetaMarket.sol\":10308:10329  _transferFeesAndFunds */\n      tag_165\n        /* \"contracts/Manager/UnemetaMarket.sol\":10308:10581  _transferFeesAndFunds(... */\n      jump\t// in\n    tag_264:\n        /* \"contracts/Manager/UnemetaMarket.sol\":10725:10742  makerBid.strategy */\n      tag_270\n      0xe0\n      dup7\n      add\n      0xc0\n      dup8\n      add\n      tag_34\n      jump\t// in\n    tag_270:\n      sub(shl(0xa0, 0x01), 0x01)\n        /* \"contracts/Manager/UnemetaMarket.sol\":10597:10885  TakerAsk(... */\n      and\n        /* \"contracts/Manager/UnemetaMarket.sol\":10696:10711  makerBid.signer */\n      tag_271\n      0x40\n      dup8\n      add\n      0x20\n      dup9\n      add\n      tag_34\n      jump\t// in\n    tag_271:\n      sub(shl(0xa0, 0x01), 0x01)\n        /* \"contracts/Manager/UnemetaMarket.sol\":10597:10885  TakerAsk(... */\n      and\n        /* \"contracts/Manager/UnemetaMarket.sol\":10668:10682  takerAsk.taker */\n      tag_272\n      0x40\n      dup10\n      add\n      0x20\n      dup11\n      add\n      tag_34\n      jump\t// in\n    tag_272:\n      sub(shl(0xa0, 0x01), 0x01)\n        /* \"contracts/Manager/UnemetaMarket.sol\":10597:10885  TakerAsk(... */\n      and\n      0x68cd251d4d267c6e2034ff0088b990352b97b2002c0476587d0c4da889c11330\n        /* \"contracts/Manager/UnemetaMarket.sol\":10619:10626  bidHash */\n      dup8\n        /* \"contracts/Manager/UnemetaMarket.sol\":10640:10654  makerBid.nonce */\n      0x0100\n      dup11\n      add\n      dup1\n      calldataload\n      swap1\n        /* \"contracts/Manager/UnemetaMarket.sol\":10756:10773  makerBid.currency */\n      tag_174\n      swap1\n      0xe0\n      dup14\n      add\n      tag_34\n      jump\t// in\n        /* \"@openzeppelin/contracts/access/Ownable.sol\":1831:1932  function renounceOwnership() public virtual onlyOwner {... */\n    tag_82:\n        /* \"@openzeppelin/contracts/access/Ownable.sol\":1094:1107  _checkOwner() */\n      tag_277\n        /* \"@openzeppelin/contracts/access/Ownable.sol\":1094:1105  _checkOwner */\n      tag_124\n        /* \"@openzeppelin/contracts/access/Ownable.sol\":1094:1107  _checkOwner() */\n      jump\t// in\n    tag_277:\n        /* \"@openzeppelin/contracts/access/Ownable.sol\":1895:1925  _transferOwnership(address(0)) */\n      tag_279\n        /* \"@openzeppelin/contracts/access/Ownable.sol\":1922:1923  0 */\n      0x00\n        /* \"@openzeppelin/contracts/access/Ownable.sol\":1895:1913  _transferOwnership */\n      tag_280\n        /* \"@openzeppelin/contracts/access/Ownable.sol\":1895:1925  _transferOwnership(address(0)) */\n      jump\t// in\n    tag_279:\n        /* \"@openzeppelin/contracts/access/Ownable.sol\":1831:1932  function renounceOwnership() public virtual onlyOwner {... */\n      jump\t// out\n        /* \"contracts/Manager/UnemetaMarket.sol\":11688:12161  function cancelMultipleMakerOrders(uint256[] calldata NonceList) external {... */\n    tag_96:\n        /* \"contracts/Manager/UnemetaMarket.sol\":11780:11800  NonceList.length > 0 */\n      dup1\n        /* \"contracts/Manager/UnemetaMarket.sol\":11772:11832  require(NonceList.length > 0, \"Cannot be empty Cancel list\") */\n      tag_283\n      jumpi\n      mload(0x40)\n      shl(0xe5, 0x461bcd)\n      dup2\n      mstore\n        /* \"#utility.yul\":15074:15076   */\n      0x20\n        /* \"contracts/Manager/UnemetaMarket.sol\":11772:11832  require(NonceList.length > 0, \"Cannot be empty Cancel list\") */\n      0x04\n      dup3\n      add\n        /* \"#utility.yul\":15056:15077   */\n      mstore\n        /* \"#utility.yul\":15113:15115   */\n      0x1b\n        /* \"#utility.yul\":15093:15111   */\n      0x24\n      dup3\n      add\n        /* \"#utility.yul\":15086:15116   */\n      mstore\n        /* \"#utility.yul\":15152:15181   */\n      0x43616e6e6f7420626520656d7074792043616e63656c206c6973740000000000\n        /* \"#utility.yul\":15132:15150   */\n      0x44\n      dup3\n      add\n        /* \"#utility.yul\":15125:15182   */\n      mstore\n        /* \"#utility.yul\":15199:15217   */\n      0x64\n      add\n        /* \"contracts/Manager/UnemetaMarket.sol\":11772:11832  require(NonceList.length > 0, \"Cannot be empty Cancel list\") */\n      tag_129\n        /* \"#utility.yul\":14872:15223   */\n      jump\n        /* \"contracts/Manager/UnemetaMarket.sol\":11772:11832  require(NonceList.length > 0, \"Cannot be empty Cancel list\") */\n    tag_283:\n        /* \"contracts/Manager/UnemetaMarket.sol\":11848:11857  uint256 i */\n      0x00\n        /* \"contracts/Manager/UnemetaMarket.sol\":11843:12096  for (uint256 i = 0; i < NonceList.length; i++) {... */\n    tag_286:\n        /* \"contracts/Manager/UnemetaMarket.sol\":11863:11883  i < NonceList.length */\n      dup2\n      dup2\n      lt\n        /* \"contracts/Manager/UnemetaMarket.sol\":11843:12096  for (uint256 i = 0; i < NonceList.length; i++) {... */\n      iszero\n      tag_287\n      jumpi\n        /* \"contracts/Manager/UnemetaMarket.sol\":11946:11956  msg.sender */\n      caller\n        /* \"contracts/Manager/UnemetaMarket.sol\":11928:11957  userMinOrderNonce[msg.sender] */\n      0x00\n      swap1\n      dup2\n      mstore\n        /* \"contracts/Manager/UnemetaMarket.sol\":11928:11945  userMinOrderNonce */\n      0x07\n        /* \"contracts/Manager/UnemetaMarket.sol\":11928:11957  userMinOrderNonce[msg.sender] */\n      0x20\n      mstore\n      0x40\n      swap1\n      keccak256\n      sload\n        /* \"contracts/Manager/UnemetaMarket.sol\":11912:11921  NonceList */\n      dup4\n      dup4\n        /* \"contracts/Manager/UnemetaMarket.sol\":11922:11923  i */\n      dup4\n        /* \"contracts/Manager/UnemetaMarket.sol\":11912:11924  NonceList[i] */\n      dup2\n      dup2\n      lt\n      tag_290\n      jumpi\n      tag_290\n      tag_291\n      jump\t// in\n    tag_290:\n      swap1\n      pop\n      0x20\n      mul\n      add\n      calldataload\n        /* \"contracts/Manager/UnemetaMarket.sol\":11912:11957  NonceList[i] >= userMinOrderNonce[msg.sender] */\n      lt\n      iszero\n        /* \"contracts/Manager/UnemetaMarket.sol\":11904:12006  require(NonceList[i] >= userMinOrderNonce[msg.sender], \"Cancel Order nonce cannot lower than current\") */\n      tag_292\n      jumpi\n      mload(0x40)\n      shl(0xe5, 0x461bcd)\n      dup2\n      mstore\n      0x04\n      add\n      tag_129\n      swap1\n      tag_294\n      jump\t// in\n    tag_292:\n        /* \"contracts/Manager/UnemetaMarket.sol\":12053:12063  msg.sender */\n      caller\n        /* \"contracts/Manager/UnemetaMarket.sol\":12020:12064  _theUserOrderExecutedOrCancelled[msg.sender] */\n      0x00\n      swap1\n      dup2\n      mstore\n        /* \"contracts/Manager/UnemetaMarket.sol\":12020:12052  _theUserOrderExecutedOrCancelled */\n      0x08\n        /* \"contracts/Manager/UnemetaMarket.sol\":12020:12064  _theUserOrderExecutedOrCancelled[msg.sender] */\n      0x20\n      mstore\n      0x40\n      dup2\n      keccak256\n        /* \"contracts/Manager/UnemetaMarket.sol\":12081:12085  true */\n      0x01\n      swap2\n        /* \"contracts/Manager/UnemetaMarket.sol\":12065:12074  NonceList */\n      dup6\n      dup6\n        /* \"contracts/Manager/UnemetaMarket.sol\":12075:12076  i */\n      dup6\n        /* \"contracts/Manager/UnemetaMarket.sol\":12065:12077  NonceList[i] */\n      dup2\n      dup2\n      lt\n      tag_296\n      jumpi\n      tag_296\n      tag_291\n      jump\t// in\n    tag_296:\n      swap1\n      pop\n      0x20\n      mul\n      add\n      calldataload\n        /* \"contracts/Manager/UnemetaMarket.sol\":12020:12078  _theUserOrderExecutedOrCancelled[msg.sender][NonceList[i]] */\n      dup2\n      mstore\n      0x20\n      add\n      swap1\n      dup2\n      mstore\n      0x20\n      add\n      0x00\n      keccak256\n      0x00\n        /* \"contracts/Manager/UnemetaMarket.sol\":12020:12085  _theUserOrderExecutedOrCancelled[msg.sender][NonceList[i]] = true */\n      0x0100\n      exp\n      dup2\n      sload\n      dup2\n      0xff\n      mul\n      not\n      and\n      swap1\n      dup4\n      iszero\n      iszero\n      mul\n      or\n      swap1\n      sstore\n      pop\n        /* \"contracts/Manager/UnemetaMarket.sol\":11885:11888  i++ */\n      dup1\n      dup1\n      tag_297\n      swap1\n      tag_298\n      jump\t// in\n    tag_297:\n      swap2\n      pop\n      pop\n        /* \"contracts/Manager/UnemetaMarket.sol\":11843:12096  for (uint256 i = 0; i < NonceList.length; i++) {... */\n      jump(tag_286)\n    tag_287:\n      pop\n        /* \"contracts/Manager/UnemetaMarket.sol\":12132:12142  msg.sender */\n      caller\n      sub(shl(0xa0, 0x01), 0x01)\n        /* \"contracts/Manager/UnemetaMarket.sol\":12111:12154  CancelMultipleOrders(msg.sender, NonceList) */\n      and\n      0xfa0ae5d80fe3763c880a3839fab0294171a6f730d1f82c4cd5392c6f67b41732\n        /* \"contracts/Manager/UnemetaMarket.sol\":12144:12153  NonceList */\n      dup4\n      dup4\n        /* \"contracts/Manager/UnemetaMarket.sol\":12111:12154  CancelMultipleOrders(msg.sender, NonceList) */\n      mload(0x40)\n      tag_299\n      swap3\n      swap2\n      swap1\n      tag_300\n      jump\t// in\n    tag_299:\n      mload(0x40)\n      dup1\n      swap2\n      sub\n      swap1\n      log2\n        /* \"contracts/Manager/UnemetaMarket.sol\":11688:12161  function cancelMultipleMakerOrders(uint256[] calldata NonceList) external {... */\n      pop\n      pop\n      jump\t// out\n        /* \"contracts/Manager/UnemetaMarket.sol\":22544:22839  function updateRoyaltyFeeManager(address _royaltyFeeManager) external onlyOwner {... */\n    tag_104:\n        /* \"@openzeppelin/contracts/access/Ownable.sol\":1094:1107  _checkOwner() */\n      tag_302\n        /* \"@openzeppelin/contracts/access/Ownable.sol\":1094:1105  _checkOwner */\n      tag_124\n        /* \"@openzeppelin/contracts/access/Ownable.sol\":1094:1107  _checkOwner() */\n      jump\t// in\n    tag_302:\n      sub(shl(0xa0, 0x01), 0x01)\n        /* \"contracts/Manager/UnemetaMarket.sol\":22642:22674  _royaltyFeeManager != address(0) */\n      dup2\n      and\n        /* \"contracts/Manager/UnemetaMarket.sol\":22634:22710  require(_royaltyFeeManager != address(0), \"Cannot update to a null address\") */\n      tag_304\n      jumpi\n      mload(0x40)\n      shl(0xe5, 0x461bcd)\n      dup2\n      mstore\n      0x04\n      add\n      tag_129\n      swap1\n      tag_237\n      jump\t// in\n    tag_304:\n        /* \"contracts/Manager/UnemetaMarket.sol\":22720:22737  royaltyFeeManager */\n      0x05\n        /* \"contracts/Manager/UnemetaMarket.sol\":22720:22777  royaltyFeeManager = TheRoyaltyManager(_royaltyFeeManager) */\n      dup1\n      sload\n      not(sub(shl(0xa0, 0x01), 0x01))\n      and\n      sub(shl(0xa0, 0x01), 0x01)\n      dup4\n      and\n      swap1\n      dup2\n      or\n      swap1\n      swap2\n      sstore\n        /* \"contracts/Manager/UnemetaMarket.sol\":22792:22832  NewRoyaltyFeeManager(_royaltyFeeManager) */\n      mload(0x40)\n      0x80e3874461ebbd918ac3e81da0a92e5e51387d70f337237c9123e48d20e5a508\n      swap1\n      0x00\n      swap1\n      log2\n        /* \"contracts/Manager/UnemetaMarket.sol\":22544:22839  function updateRoyaltyFeeManager(address _royaltyFeeManager) external onlyOwner {... */\n      pop\n      jump\t// out\n        /* \"contracts/Manager/UnemetaMarket.sol\":11044:11519  function cancelAllOrdersForSender(uint256 minNonce) external {... */\n    tag_109:\n        /* \"contracts/Manager/UnemetaMarket.sol\":11152:11162  msg.sender */\n      caller\n        /* \"contracts/Manager/UnemetaMarket.sol\":11134:11163  userMinOrderNonce[msg.sender] */\n      0x00\n      swap1\n      dup2\n      mstore\n        /* \"contracts/Manager/UnemetaMarket.sol\":11134:11151  userMinOrderNonce */\n      0x07\n        /* \"contracts/Manager/UnemetaMarket.sol\":11134:11163  userMinOrderNonce[msg.sender] */\n      0x20\n      mstore\n      0x40\n      swap1\n      keccak256\n      sload\n        /* \"contracts/Manager/UnemetaMarket.sol\":11123:11163  minNonce > userMinOrderNonce[msg.sender] */\n      dup2\n      gt\n        /* \"contracts/Manager/UnemetaMarket.sol\":11115:11212  require(minNonce > userMinOrderNonce[msg.sender], \"Cancel Order nonce cannot lower than current\") */\n      tag_307\n      jumpi\n      mload(0x40)\n      shl(0xe5, 0x461bcd)\n      dup2\n      mstore\n      0x04\n      add\n      tag_129\n      swap1\n      tag_294\n      jump\t// in\n    tag_307:\n        /* \"contracts/Manager/UnemetaMarket.sol\":11259:11269  msg.sender */\n      caller\n        /* \"contracts/Manager/UnemetaMarket.sol\":11241:11270  userMinOrderNonce[msg.sender] */\n      0x00\n      swap1\n      dup2\n      mstore\n        /* \"contracts/Manager/UnemetaMarket.sol\":11241:11258  userMinOrderNonce */\n      0x07\n        /* \"contracts/Manager/UnemetaMarket.sol\":11241:11270  userMinOrderNonce[msg.sender] */\n      0x20\n      mstore\n      0x40\n      swap1\n      keccak256\n      sload\n        /* \"contracts/Manager/UnemetaMarket.sol\":11241:11279  userMinOrderNonce[msg.sender] + 500000 */\n      tag_309\n      swap1\n        /* \"contracts/Manager/UnemetaMarket.sol\":11273:11279  500000 */\n      0x07a120\n        /* \"contracts/Manager/UnemetaMarket.sol\":11241:11279  userMinOrderNonce[msg.sender] + 500000 */\n      tag_310\n      jump\t// in\n    tag_309:\n        /* \"contracts/Manager/UnemetaMarket.sol\":11230:11238  minNonce */\n      dup2\n        /* \"contracts/Manager/UnemetaMarket.sol\":11230:11279  minNonce < userMinOrderNonce[msg.sender] + 500000 */\n      lt\n        /* \"contracts/Manager/UnemetaMarket.sol\":11222:11313  require(minNonce < userMinOrderNonce[msg.sender] + 500000, \"Cannot cancel too many orders\") */\n      tag_311\n      jumpi\n      mload(0x40)\n      shl(0xe5, 0x461bcd)\n      dup2\n      mstore\n        /* \"#utility.yul\":16693:16695   */\n      0x20\n        /* \"contracts/Manager/UnemetaMarket.sol\":11222:11313  require(minNonce < userMinOrderNonce[msg.sender] + 500000, \"Cannot cancel too many orders\") */\n      0x04\n      dup3\n      add\n        /* \"#utility.yul\":16675:16696   */\n      mstore\n        /* \"#utility.yul\":16732:16734   */\n      0x1d\n        /* \"#utility.yul\":16712:16730   */\n      0x24\n      dup3\n      add\n        /* \"#utility.yul\":16705:16735   */\n      mstore\n        /* \"#utility.yul\":16771:16802   */\n      0x43616e6e6f742063616e63656c20746f6f206d616e79206f7264657273000000\n        /* \"#utility.yul\":16751:16769   */\n      0x44\n      dup3\n      add\n        /* \"#utility.yul\":16744:16803   */\n      mstore\n        /* \"#utility.yul\":16820:16838   */\n      0x64\n      add\n        /* \"contracts/Manager/UnemetaMarket.sol\":11222:11313  require(minNonce < userMinOrderNonce[msg.sender] + 500000, \"Cannot cancel too many orders\") */\n      tag_129\n        /* \"#utility.yul\":16491:16844   */\n      jump\n        /* \"contracts/Manager/UnemetaMarket.sol\":11222:11313  require(minNonce < userMinOrderNonce[msg.sender] + 500000, \"Cannot cancel too many orders\") */\n    tag_311:\n        /* \"contracts/Manager/UnemetaMarket.sol\":11437:11447  msg.sender */\n      caller\n        /* \"contracts/Manager/UnemetaMarket.sol\":11419:11448  userMinOrderNonce[msg.sender] */\n      0x00\n      dup2\n      dup2\n      mstore\n        /* \"contracts/Manager/UnemetaMarket.sol\":11419:11436  userMinOrderNonce */\n      0x07\n        /* \"contracts/Manager/UnemetaMarket.sol\":11419:11448  userMinOrderNonce[msg.sender] */\n      0x20\n      mstore\n      0x40\n      swap1\n      dup2\n      swap1\n      keccak256\n        /* \"contracts/Manager/UnemetaMarket.sol\":11419:11459  userMinOrderNonce[msg.sender] = minNonce */\n      dup4\n      swap1\n      sstore\n        /* \"contracts/Manager/UnemetaMarket.sol\":11475:11512  CancelAllOrders(msg.sender, minNonce) */\n      mload\n      0x1e7178d84f0b0825c65795cd62e7972809ad3aac6917843aaec596161b2c0a97\n      swap1\n      tag_314\n      swap1\n        /* \"contracts/Manager/UnemetaMarket.sol\":11451:11459  minNonce */\n      dup5\n        /* \"#utility.yul\":1530:1555   */\n      dup2\n      mstore\n        /* \"#utility.yul\":1518:1520   */\n      0x20\n        /* \"#utility.yul\":1503:1521   */\n      add\n      swap1\n        /* \"#utility.yul\":1384:1561   */\n      jump\n        /* \"contracts/Manager/UnemetaMarket.sol\":11475:11512  CancelAllOrders(msg.sender, minNonce) */\n    tag_314:\n      mload(0x40)\n      dup1\n      swap2\n      sub\n      swap1\n      log2\n        /* \"contracts/Manager/UnemetaMarket.sol\":11044:11519  function cancelAllOrdersForSender(uint256 minNonce) external {... */\n      pop\n      jump\t// out\n        /* \"contracts/Manager/UnemetaMarket.sol\":21721:22004  function updateExecutionManager(address _executionManager) external onlyOwner {... */\n    tag_113:\n        /* \"@openzeppelin/contracts/access/Ownable.sol\":1094:1107  _checkOwner() */\n      tag_316\n        /* \"@openzeppelin/contracts/access/Ownable.sol\":1094:1105  _checkOwner */\n      tag_124\n        /* \"@openzeppelin/contracts/access/Ownable.sol\":1094:1107  _checkOwner() */\n      jump\t// in\n    tag_316:\n      sub(shl(0xa0, 0x01), 0x01)\n        /* \"contracts/Manager/UnemetaMarket.sol\":21817:21848  _executionManager != address(0) */\n      dup2\n      and\n        /* \"contracts/Manager/UnemetaMarket.sol\":21809:21884  require(_executionManager != address(0), \"Cannot update to a null address\") */\n      tag_318\n      jumpi\n      mload(0x40)\n      shl(0xe5, 0x461bcd)\n      dup2\n      mstore\n      0x04\n      add\n      tag_129\n      swap1\n      tag_237\n      jump\t// in\n    tag_318:\n        /* \"contracts/Manager/UnemetaMarket.sol\":21894:21910  executionManager */\n      0x04\n        /* \"contracts/Manager/UnemetaMarket.sol\":21894:21944  executionManager = TheExManager(_executionManager) */\n      dup1\n      sload\n      not(sub(shl(0xa0, 0x01), 0x01))\n      and\n      sub(shl(0xa0, 0x01), 0x01)\n      dup4\n      and\n      swap1\n      dup2\n      or\n      swap1\n      swap2\n      sstore\n        /* \"contracts/Manager/UnemetaMarket.sol\":21959:21997  NewExecutionManager(_executionManager) */\n      mload(0x40)\n      0x36e2a376eabc3bc60cb88f29c288f53e36874a95a7f407330ab4f166b0905698\n      swap1\n      0x00\n      swap1\n      log2\n        /* \"contracts/Manager/UnemetaMarket.sol\":21721:22004  function updateExecutionManager(address _executionManager) external onlyOwner {... */\n      pop\n      jump\t// out\n        /* \"@openzeppelin/contracts/access/Ownable.sol\":2081:2279  function transferOwnership(address newOwner) public virtual onlyOwner {... */\n    tag_117:\n        /* \"@openzeppelin/contracts/access/Ownable.sol\":1094:1107  _checkOwner() */\n      tag_321\n        /* \"@openzeppelin/contracts/access/Ownable.sol\":1094:1105  _checkOwner */\n      tag_124\n        /* \"@openzeppelin/contracts/access/Ownable.sol\":1094:1107  _checkOwner() */\n      jump\t// in\n    tag_321:\n      sub(shl(0xa0, 0x01), 0x01)\n        /* \"@openzeppelin/contracts/access/Ownable.sol\":2169:2191  newOwner != address(0) */\n      dup2\n      and\n        /* \"@openzeppelin/contracts/access/Ownable.sol\":2161:2234  require(newOwner != address(0), \"Ownable: new owner is the zero address\") */\n      tag_323\n      jumpi\n      mload(0x40)\n      shl(0xe5, 0x461bcd)\n      dup2\n      mstore\n        /* \"#utility.yul\":17051:17053   */\n      0x20\n        /* \"@openzeppelin/contracts/access/Ownable.sol\":2161:2234  require(newOwner != address(0), \"Ownable: new owner is the zero address\") */\n      0x04\n      dup3\n      add\n        /* \"#utility.yul\":17033:17054   */\n      mstore\n        /* \"#utility.yul\":17090:17092   */\n      0x26\n        /* \"#utility.yul\":17070:17088   */\n      0x24\n      dup3\n      add\n        /* \"#utility.yul\":17063:17093   */\n      mstore\n        /* \"#utility.yul\":17129:17163   */\n      0x4f776e61626c653a206e6577206f776e657220697320746865207a65726f2061\n        /* \"#utility.yul\":17109:17127   */\n      0x44\n      dup3\n      add\n        /* \"#utility.yul\":17102:17164   */\n      mstore\n      shl(0xd0, 0x646472657373)\n        /* \"#utility.yul\":17180:17198   */\n      0x64\n      dup3\n      add\n        /* \"#utility.yul\":17173:17209   */\n      mstore\n        /* \"#utility.yul\":17226:17245   */\n      0x84\n      add\n        /* \"@openzeppelin/contracts/access/Ownable.sol\":2161:2234  require(newOwner != address(0), \"Ownable: new owner is the zero address\") */\n      tag_129\n        /* \"#utility.yul\":16849:17251   */\n      jump\n        /* \"@openzeppelin/contracts/access/Ownable.sol\":2161:2234  require(newOwner != address(0), \"Ownable: new owner is the zero address\") */\n    tag_323:\n        /* \"@openzeppelin/contracts/access/Ownable.sol\":2244:2272  _transferOwnership(newOwner) */\n      tag_326\n        /* \"@openzeppelin/contracts/access/Ownable.sol\":2263:2271  newOwner */\n      dup2\n        /* \"@openzeppelin/contracts/access/Ownable.sol\":2244:2262  _transferOwnership */\n      tag_280\n        /* \"@openzeppelin/contracts/access/Ownable.sol\":2244:2272  _transferOwnership(newOwner) */\n      jump\t// in\n    tag_326:\n        /* \"@openzeppelin/contracts/access/Ownable.sol\":2081:2279  function transferOwnership(address newOwner) public virtual onlyOwner {... */\n      pop\n      jump\t// out\n        /* \"contracts/Manager/UnemetaMarket.sol\":22995:23306  function updateTransferSelectorNFT(address _transferSelectorNFT) external onlyOwner {... */\n    tag_121:\n        /* \"@openzeppelin/contracts/access/Ownable.sol\":1094:1107  _checkOwner() */\n      tag_328\n        /* \"@openzeppelin/contracts/access/Ownable.sol\":1094:1105  _checkOwner */\n      tag_124\n        /* \"@openzeppelin/contracts/access/Ownable.sol\":1094:1107  _checkOwner() */\n      jump\t// in\n    tag_328:\n      sub(shl(0xa0, 0x01), 0x01)\n        /* \"contracts/Manager/UnemetaMarket.sol\":23097:23131  _transferSelectorNFT != address(0) */\n      dup2\n      and\n        /* \"contracts/Manager/UnemetaMarket.sol\":23089:23167  require(_transferSelectorNFT != address(0), \"Cannot update to a null address\") */\n      tag_330\n      jumpi\n      mload(0x40)\n      shl(0xe5, 0x461bcd)\n      dup2\n      mstore\n      0x04\n      add\n      tag_129\n      swap1\n      tag_237\n      jump\t// in\n    tag_330:\n        /* \"contracts/Manager/UnemetaMarket.sol\":23177:23196  transferSelectorNFT */\n      0x06\n        /* \"contracts/Manager/UnemetaMarket.sol\":23177:23240  transferSelectorNFT = TheTransferSelector(_transferSelectorNFT) */\n      dup1\n      sload\n      not(sub(shl(0xa0, 0x01), 0x01))\n      and\n      sub(shl(0xa0, 0x01), 0x01)\n      dup4\n      and\n      swap1\n      dup2\n      or\n      swap1\n      swap2\n      sstore\n        /* \"contracts/Manager/UnemetaMarket.sol\":23255:23299  NewTransferSelectorNFT(_transferSelectorNFT) */\n      mload(0x40)\n      0x205d78ab41afe80bd6b6aaa5d7599d5300ff8690da3ab1302c1b552f7baf7d8c\n      swap1\n      0x00\n      swap1\n      log2\n        /* \"contracts/Manager/UnemetaMarket.sol\":22995:23306  function updateTransferSelectorNFT(address _transferSelectorNFT) external onlyOwner {... */\n      pop\n      jump\t// out\n        /* \"@openzeppelin/contracts/access/Ownable.sol\":1359:1489  function _checkOwner() internal view virtual {... */\n    tag_124:\n        /* \"@openzeppelin/contracts/access/Ownable.sol\":1273:1279  _owner */\n      and(sub(shl(0xa0, 0x01), 0x01), sload(0x01))\n        /* \"@openzeppelin/contracts/utils/Context.sol\":719:729  msg.sender */\n      caller\n        /* \"@openzeppelin/contracts/access/Ownable.sol\":1422:1445  owner() == _msgSender() */\n      eq\n        /* \"@openzeppelin/contracts/access/Ownable.sol\":1414:1482  require(owner() == _msgSender(), \"Ownable: caller is not the owner\") */\n      tag_279\n      jumpi\n      mload(0x40)\n      shl(0xe5, 0x461bcd)\n      dup2\n      mstore\n        /* \"#utility.yul\":17458:17460   */\n      0x20\n        /* \"@openzeppelin/contracts/access/Ownable.sol\":1414:1482  require(owner() == _msgSender(), \"Ownable: caller is not the owner\") */\n      0x04\n      dup3\n      add\n        /* \"#utility.yul\":17440:17461   */\n      dup2\n      swap1\n      mstore\n        /* \"#utility.yul\":17477:17495   */\n      0x24\n      dup3\n      add\n        /* \"#utility.yul\":17470:17500   */\n      mstore\n        /* \"#utility.yul\":17536:17570   */\n      0x4f776e61626c653a2063616c6c6572206973206e6f7420746865206f776e6572\n        /* \"#utility.yul\":17516:17534   */\n      0x44\n      dup3\n      add\n        /* \"#utility.yul\":17509:17571   */\n      mstore\n        /* \"#utility.yul\":17588:17606   */\n      0x64\n      add\n        /* \"@openzeppelin/contracts/access/Ownable.sol\":1414:1482  require(owner() == _msgSender(), \"Ownable: caller is not the owner\") */\n      tag_129\n        /* \"#utility.yul\":17256:17612   */\n      jump\n        /* \"contracts/libraries/OrderTypes.sol\":2084:2776  function hash(MakerOrder memory makerOrder) internal pure returns (bytes32) {... */\n    tag_146:\n        /* \"contracts/libraries/OrderTypes.sol\":2270:2291  makerOrder.isOrderAsk */\n      dup1\n      mload\n        /* \"contracts/libraries/OrderTypes.sol\":2309:2326  makerOrder.signer */\n      0x20\n      dup1\n      dup4\n      add\n      mload\n        /* \"contracts/libraries/OrderTypes.sol\":2344:2365  makerOrder.collection */\n      0x40\n      dup1\n      dup6\n      add\n      mload\n        /* \"contracts/libraries/OrderTypes.sol\":2383:2399  makerOrder.price */\n      0x60\n      dup7\n      add\n      mload\n        /* \"contracts/libraries/OrderTypes.sol\":2417:2435  makerOrder.tokenId */\n      0x80\n      dup8\n      add\n      mload\n        /* \"contracts/libraries/OrderTypes.sol\":2453:2470  makerOrder.amount */\n      0xa0\n      dup9\n      add\n      mload\n        /* \"contracts/libraries/OrderTypes.sol\":2488:2507  makerOrder.strategy */\n      0xc0\n      dup10\n      add\n      mload\n        /* \"contracts/libraries/OrderTypes.sol\":2525:2544  makerOrder.currency */\n      0xe0\n      dup11\n      add\n      mload\n        /* \"contracts/libraries/OrderTypes.sol\":2562:2578  makerOrder.nonce */\n      0x0100\n      dup12\n      add\n      mload\n        /* \"contracts/libraries/OrderTypes.sol\":2596:2616  makerOrder.startTime */\n      0x0120\n      dup13\n      add\n      mload\n        /* \"contracts/libraries/OrderTypes.sol\":2634:2652  makerOrder.endTime */\n      0x0140\n      dup14\n      add\n      mload\n        /* \"contracts/libraries/OrderTypes.sol\":2670:2699  makerOrder.minPercentageToAsk */\n      0x0160\n      dup15\n      add\n      mload\n        /* \"contracts/libraries/OrderTypes.sol\":2727:2744  makerOrder.params */\n      0x0180\n      dup16\n      add\n      mload\n        /* \"contracts/libraries/OrderTypes.sol\":2717:2745  keccak256(makerOrder.params) */\n      dup1\n      mload\n      swap1\n      dup15\n      add\n      keccak256\n        /* \"contracts/libraries/OrderTypes.sol\":2208:2759  abi.encode(... */\n      swap11\n      mload\n        /* \"contracts/libraries/OrderTypes.sol\":2151:2158  bytes32 */\n      0x00\n      swap15\n        /* \"contracts/libraries/OrderTypes.sol\":2208:2759  abi.encode(... */\n      tag_340\n      swap15\n        /* \"contracts/libraries/OrderTypes.sol\":592:658  0x40261ade532fa1d2c7293df30aaadb9b3c616fae525a0b56d3d411c841a85028 */\n      0x40261ade532fa1d2c7293df30aaadb9b3c616fae525a0b56d3d411c841a85028\n      swap15\n        /* \"contracts/libraries/OrderTypes.sol\":2270:2291  makerOrder.isOrderAsk */\n      swap2\n      swap14\n        /* \"contracts/libraries/OrderTypes.sol\":2309:2326  makerOrder.signer */\n      swap2\n      swap13\n        /* \"contracts/libraries/OrderTypes.sol\":2344:2365  makerOrder.collection */\n      swap12\n        /* \"contracts/libraries/OrderTypes.sol\":2383:2399  makerOrder.price */\n      swap11\n        /* \"contracts/libraries/OrderTypes.sol\":2417:2435  makerOrder.tokenId */\n      swap10\n        /* \"contracts/libraries/OrderTypes.sol\":2453:2470  makerOrder.amount */\n      swap9\n        /* \"contracts/libraries/OrderTypes.sol\":2488:2507  makerOrder.strategy */\n      swap8\n        /* \"contracts/libraries/OrderTypes.sol\":2525:2544  makerOrder.currency */\n      swap7\n        /* \"contracts/libraries/OrderTypes.sol\":2562:2578  makerOrder.nonce */\n      swap6\n        /* \"contracts/libraries/OrderTypes.sol\":2596:2616  makerOrder.startTime */\n      swap5\n        /* \"contracts/libraries/OrderTypes.sol\":2634:2652  makerOrder.endTime */\n      swap4\n        /* \"contracts/libraries/OrderTypes.sol\":2670:2699  makerOrder.minPercentageToAsk */\n      swap3\n        /* \"contracts/libraries/OrderTypes.sol\":2208:2759  abi.encode(... */\n      add\n      tag_341\n      jump\t// in\n    tag_340:\n      mload(0x40)\n      0x20\n      dup2\n      dup4\n      sub\n      sub\n      dup2\n      mstore\n      swap1\n      0x40\n      mstore\n        /* \"contracts/libraries/OrderTypes.sol\":2185:2769  keccak256(... */\n      dup1\n      mload\n      swap1\n      0x20\n      add\n      keccak256\n        /* \"contracts/libraries/OrderTypes.sol\":2170:2769  return... */\n      swap1\n      pop\n        /* \"contracts/libraries/OrderTypes.sol\":2084:2776  function hash(MakerOrder memory makerOrder) internal pure returns (bytes32) {... */\n      swap2\n      swap1\n      pop\n      jump\t// out\n        /* \"contracts/Manager/UnemetaMarket.sol\":19013:21126  function _validateOrder(OrderTypes.MakerOrder calldata Make, bytes32 Hash) internal view {... */\n    tag_148:\n        /* \"contracts/Manager/UnemetaMarket.sol\":19239:19271  _theUserOrderExecutedOrCancelled */\n      0x08\n        /* \"contracts/Manager/UnemetaMarket.sol\":19239:19284  _theUserOrderExecutedOrCancelled[Make.signer] */\n      0x00\n        /* \"contracts/Manager/UnemetaMarket.sol\":19272:19283  Make.signer */\n      tag_343\n      0x40\n      dup6\n      add\n      0x20\n      dup7\n      add\n      tag_34\n      jump\t// in\n    tag_343:\n      sub(shl(0xa0, 0x01), 0x01)\n        /* \"contracts/Manager/UnemetaMarket.sol\":19239:19284  _theUserOrderExecutedOrCancelled[Make.signer] */\n      and\n      dup2\n      mstore\n      0x20\n      dup1\n      dup3\n      add\n      swap3\n      swap1\n      swap3\n      mstore\n      0x40\n      swap1\n      dup2\n      add\n      0x00\n      swap1\n      dup2\n      keccak256\n        /* \"contracts/Manager/UnemetaMarket.sol\":19285:19295  Make.nonce */\n      0x0100\n      dup7\n      add\n      calldataload\n        /* \"contracts/Manager/UnemetaMarket.sol\":19239:19296  _theUserOrderExecutedOrCancelled[Make.signer][Make.nonce] */\n      dup3\n      mstore\n      swap1\n      swap3\n      mstore\n      swap1\n      keccak256\n      sload\n      0xff\n      and\n        /* \"contracts/Manager/UnemetaMarket.sol\":19238:19296  !_theUserOrderExecutedOrCancelled[Make.signer][Make.nonce] */\n      iszero\n        /* \"contracts/Manager/UnemetaMarket.sol\":19237:19359  (!_theUserOrderExecutedOrCancelled[Make.signer][Make.nonce]) &&... */\n      dup1\n      iszero\n      tag_344\n      jumpi\n      pop\n        /* \"contracts/Manager/UnemetaMarket.sol\":19328:19345  userMinOrderNonce */\n      0x07\n        /* \"contracts/Manager/UnemetaMarket.sol\":19328:19358  userMinOrderNonce[Make.signer] */\n      0x00\n        /* \"contracts/Manager/UnemetaMarket.sol\":19346:19357  Make.signer */\n      tag_345\n      0x40\n      dup6\n      add\n      0x20\n      dup7\n      add\n      tag_34\n      jump\t// in\n    tag_345:\n      sub(shl(0xa0, 0x01), 0x01)\n        /* \"contracts/Manager/UnemetaMarket.sol\":19328:19358  userMinOrderNonce[Make.signer] */\n      and\n      sub(shl(0xa0, 0x01), 0x01)\n      and\n      dup2\n      mstore\n      0x20\n      add\n      swap1\n      dup2\n      mstore\n      0x20\n      add\n      0x00\n      keccak256\n      sload\n        /* \"contracts/Manager/UnemetaMarket.sol\":19314:19318  Make */\n      dup3\n        /* \"contracts/Manager/UnemetaMarket.sol\":19314:19324  Make.nonce */\n      0x0100\n      add\n      calldataload\n        /* \"contracts/Manager/UnemetaMarket.sol\":19314:19358  Make.nonce >= userMinOrderNonce[Make.signer] */\n      lt\n      iszero\n        /* \"contracts/Manager/UnemetaMarket.sol\":19237:19359  (!_theUserOrderExecutedOrCancelled[Make.signer][Make.nonce]) &&... */\n    tag_344:\n        /* \"contracts/Manager/UnemetaMarket.sol\":19162:19414  require(... */\n      tag_346\n      jumpi\n      mload(0x40)\n      shl(0xe5, 0x461bcd)\n      dup2\n      mstore\n        /* \"#utility.yul\":19015:19017   */\n      0x20\n        /* \"contracts/Manager/UnemetaMarket.sol\":19162:19414  require(... */\n      0x04\n      dup3\n      add\n        /* \"#utility.yul\":18997:19018   */\n      mstore\n        /* \"#utility.yul\":19054:19056   */\n      0x1d\n        /* \"#utility.yul\":19034:19052   */\n      0x24\n      dup3\n      add\n        /* \"#utility.yul\":19027:19057   */\n      mstore\n        /* \"#utility.yul\":19093:19124   */\n      0x4f726465723a204d61746368696e67206f726465722065787069726564000000\n        /* \"#utility.yul\":19073:19091   */\n      0x44\n      dup3\n      add\n        /* \"#utility.yul\":19066:19125   */\n      mstore\n        /* \"#utility.yul\":19142:19160   */\n      0x64\n      add\n        /* \"contracts/Manager/UnemetaMarket.sol\":19162:19414  require(... */\n      tag_129\n        /* \"#utility.yul\":18813:19166   */\n      jump\n        /* \"contracts/Manager/UnemetaMarket.sol\":19162:19414  require(... */\n    tag_346:\n        /* \"contracts/Manager/UnemetaMarket.sol\":19497:19498  0 */\n      0x00\n        /* \"contracts/Manager/UnemetaMarket.sol\":19474:19485  Make.signer */\n      tag_349\n      0x40\n      dup5\n      add\n      0x20\n      dup6\n      add\n      tag_34\n      jump\t// in\n    tag_349:\n      sub(shl(0xa0, 0x01), 0x01)\n        /* \"contracts/Manager/UnemetaMarket.sol\":19474:19499  Make.signer != address(0) */\n      and\n      sub\n        /* \"contracts/Manager/UnemetaMarket.sol\":19466:19547  require(Make.signer != address(0), \"The Order signer cannot be the zero address\") */\n      tag_350\n      jumpi\n      mload(0x40)\n      shl(0xe5, 0x461bcd)\n      dup2\n      mstore\n        /* \"#utility.yul\":19373:19375   */\n      0x20\n        /* \"contracts/Manager/UnemetaMarket.sol\":19466:19547  require(Make.signer != address(0), \"The Order signer cannot be the zero address\") */\n      0x04\n      dup3\n      add\n        /* \"#utility.yul\":19355:19376   */\n      mstore\n        /* \"#utility.yul\":19412:19414   */\n      0x2b\n        /* \"#utility.yul\":19392:19410   */\n      0x24\n      dup3\n      add\n        /* \"#utility.yul\":19385:19415   */\n      mstore\n        /* \"#utility.yul\":19451:19485   */\n      0x546865204f72646572207369676e65722063616e6e6f7420626520746865207a\n        /* \"#utility.yul\":19431:19449   */\n      0x44\n      dup3\n      add\n        /* \"#utility.yul\":19424:19486   */\n      mstore\n      shl(0xa8, 0x65726f2061646472657373)\n        /* \"#utility.yul\":19502:19520   */\n      0x64\n      dup3\n      add\n        /* \"#utility.yul\":19495:19536   */\n      mstore\n        /* \"#utility.yul\":19553:19572   */\n      0x84\n      add\n        /* \"contracts/Manager/UnemetaMarket.sol\":19466:19547  require(Make.signer != address(0), \"The Order signer cannot be the zero address\") */\n      tag_129\n        /* \"#utility.yul\":19171:19578   */\n      jump\n        /* \"contracts/Manager/UnemetaMarket.sol\":19466:19547  require(Make.signer != address(0), \"The Order signer cannot be the zero address\") */\n    tag_350:\n        /* \"contracts/Manager/UnemetaMarket.sol\":19625:19626  0 */\n      0x00\n        /* \"contracts/Manager/UnemetaMarket.sol\":19611:19615  Make */\n      dup3\n        /* \"contracts/Manager/UnemetaMarket.sol\":19611:19622  Make.amount */\n      0xa0\n      add\n      calldataload\n        /* \"contracts/Manager/UnemetaMarket.sol\":19611:19626  Make.amount > 0 */\n      gt\n        /* \"contracts/Manager/UnemetaMarket.sol\":19603:19672  require(Make.amount > 0, \"The order amount should be greater than 0\") */\n      tag_353\n      jumpi\n      mload(0x40)\n      shl(0xe5, 0x461bcd)\n      dup2\n      mstore\n        /* \"#utility.yul\":19785:19787   */\n      0x20\n        /* \"contracts/Manager/UnemetaMarket.sol\":19603:19672  require(Make.amount > 0, \"The order amount should be greater than 0\") */\n      0x04\n      dup3\n      add\n        /* \"#utility.yul\":19767:19788   */\n      mstore\n        /* \"#utility.yul\":19824:19826   */\n      0x29\n        /* \"#utility.yul\":19804:19822   */\n      0x24\n      dup3\n      add\n        /* \"#utility.yul\":19797:19827   */\n      mstore\n        /* \"#utility.yul\":19863:19897   */\n      0x546865206f7264657220616d6f756e742073686f756c64206265206772656174\n        /* \"#utility.yul\":19843:19861   */\n      0x44\n      dup3\n      add\n        /* \"#utility.yul\":19836:19898   */\n      mstore\n      shl(0xbc, 0x06572207468616e203)\n        /* \"#utility.yul\":19914:19932   */\n      0x64\n      dup3\n      add\n        /* \"#utility.yul\":19907:19946   */\n      mstore\n        /* \"#utility.yul\":19963:19982   */\n      0x84\n      add\n        /* \"contracts/Manager/UnemetaMarket.sol\":19603:19672  require(Make.amount > 0, \"The order amount should be greater than 0\") */\n      tag_129\n        /* \"#utility.yul\":19583:19988   */\n      jump\n        /* \"contracts/Manager/UnemetaMarket.sol\":19603:19672  require(Make.amount > 0, \"The order amount should be greater than 0\") */\n    tag_353:\n        /* \"contracts/Manager/UnemetaMarket.sol\":19723:20269  abi.encode(... */\n      0x40\n      dup1\n      mload\n        /* \"contracts/Manager/UnemetaMarket.sol\":19751:19817  0x8b73c3c69bb8fe3d512ecc4cf759cc79239f7b179b0ffacaa9a75d522b39400f */\n      0x8b73c3c69bb8fe3d512ecc4cf759cc79239f7b179b0ffacaa9a75d522b39400f\n        /* \"contracts/Manager/UnemetaMarket.sol\":19723:20269  abi.encode(... */\n      0x20\n      dup3\n      add\n        /* \"#utility.yul\":20504:20529   */\n      mstore\n        /* \"contracts/Manager/UnemetaMarket.sol\":19946:20012  0x2e3445393f211d11d7f88d325bc26ce78976b4decd39029feb202d9b409fc3c5 */\n      0x2e3445393f211d11d7f88d325bc26ce78976b4decd39029feb202d9b409fc3c5\n        /* \"#utility.yul\":20545:20563   */\n      swap2\n      dup2\n      add\n        /* \"#utility.yul\":20538:20572   */\n      swap2\n      swap1\n      swap2\n      mstore\n        /* \"contracts/Manager/UnemetaMarket.sol\":20072:20138  0xc89efdaa54c0f20c7adf612882df0950f5a951637e0307cdcb4c672f298b8bc6 */\n      0xc89efdaa54c0f20c7adf612882df0950f5a951637e0307cdcb4c672f298b8bc6\n        /* \"#utility.yul\":20588:20606   */\n      0x60\n      dup3\n      add\n        /* \"#utility.yul\":20581:20615   */\n      mstore\n        /* \"contracts/Manager/UnemetaMarket.sol\":20211:20224  block.chainid */\n      chainid\n        /* \"#utility.yul\":20631:20649   */\n      0x80\n      dup3\n      add\n        /* \"#utility.yul\":20624:20658   */\n      mstore\n        /* \"contracts/Manager/UnemetaMarket.sol\":20250:20254  this */\n      address\n        /* \"#utility.yul\":20674:20693   */\n      0xa0\n      dup3\n      add\n        /* \"#utility.yul\":20667:20728   */\n      mstore\n        /* \"contracts/Manager/UnemetaMarket.sol\":19683:19697  bytes32 Domain */\n      0x00\n      swap1\n        /* \"#utility.yul\":20476:20495   */\n      0xc0\n      add\n        /* \"contracts/Manager/UnemetaMarket.sol\":19723:20269  abi.encode(... */\n      mload(0x40)\n      0x20\n      dup2\n      dup4\n      sub\n      sub\n      dup2\n      mstore\n      swap1\n      0x40\n      mstore\n        /* \"contracts/Manager/UnemetaMarket.sol\":19700:20279  keccak256(... */\n      dup1\n      mload\n      swap1\n      0x20\n      add\n      keccak256\n        /* \"contracts/Manager/UnemetaMarket.sol\":19683:20279  bytes32 Domain = keccak256(... */\n      swap1\n      pop\n        /* \"contracts/Manager/UnemetaMarket.sol\":20484:20750  SignatureChecker.... */\n      tag_358\n        /* \"contracts/Manager/UnemetaMarket.sol\":20538:20542  Hash */\n      dup3\n        /* \"contracts/Manager/UnemetaMarket.sol\":20567:20571  Make */\n      dup5\n        /* \"contracts/Manager/UnemetaMarket.sol\":20567:20578  Make.signer */\n      0x20\n      add\n      0x20\n      dup2\n      add\n      swap1\n      tag_359\n      swap2\n      swap1\n      tag_34\n      jump\t// in\n    tag_359:\n        /* \"contracts/Manager/UnemetaMarket.sol\":20614:20620  Make.v */\n      tag_360\n      0x01c0\n      dup8\n      add\n      0x01a0\n      dup9\n      add\n      tag_361\n      jump\t// in\n    tag_360:\n        /* \"contracts/Manager/UnemetaMarket.sol\":20682:20686  Make */\n      dup7\n        /* \"contracts/Manager/UnemetaMarket.sol\":20682:20688  Make.r */\n      0x01c0\n      add\n      calldataload\n        /* \"contracts/Manager/UnemetaMarket.sol\":20706:20710  Make */\n      dup8\n        /* \"contracts/Manager/UnemetaMarket.sol\":20706:20712  Make.s */\n      0x01e0\n      add\n      calldataload\n        /* \"contracts/Manager/UnemetaMarket.sol\":20730:20736  Domain */\n      dup7\n        /* \"contracts/Manager/UnemetaMarket.sol\":20484:20520  SignatureChecker.... */\n      tag_362\n        /* \"contracts/Manager/UnemetaMarket.sol\":20484:20750  SignatureChecker.... */\n      jump\t// in\n    tag_358:\n        /* \"contracts/Manager/UnemetaMarket.sol\":20463:20794  require(... */\n      tag_363\n      jumpi\n      mload(0x40)\n      shl(0xe5, 0x461bcd)\n      dup2\n      mstore\n        /* \"#utility.yul\":21128:21130   */\n      0x20\n        /* \"contracts/Manager/UnemetaMarket.sol\":20463:20794  require(... */\n      0x04\n      dup3\n      add\n        /* \"#utility.yul\":21110:21131   */\n      mstore\n        /* \"#utility.yul\":21167:21169   */\n      0x12\n        /* \"#utility.yul\":21147:21165   */\n      0x24\n      dup3\n      add\n        /* \"#utility.yul\":21140:21170   */\n      mstore\n      shl(0x72, 0x14da59db985d1d5c994e88125b9d985b1a59)\n        /* \"#utility.yul\":21186:21204   */\n      0x44\n      dup3\n      add\n        /* \"#utility.yul\":21179:21227   */\n      mstore\n        /* \"#utility.yul\":21244:21262   */\n      0x64\n      add\n        /* \"contracts/Manager/UnemetaMarket.sol\":20463:20794  require(... */\n      tag_129\n        /* \"#utility.yul\":20926:21268   */\n      jump\n        /* \"contracts/Manager/UnemetaMarket.sol\":20463:20794  require(... */\n    tag_363:\n        /* \"contracts/Manager/UnemetaMarket.sol\":20856:20871  currencyManager */\n      and(sub(shl(0xa0, 0x01), 0x01), sload(0x03))\n        /* \"contracts/Manager/UnemetaMarket.sol\":20856:20893  currencyManager.isCurrencyWhitelisted */\n      0x43b938c5\n        /* \"contracts/Manager/UnemetaMarket.sol\":20894:20907  Make.currency */\n      tag_366\n        /* \"contracts/Manager/UnemetaMarket.sol\":20856:20871  currencyManager */\n      0x0100\n        /* \"contracts/Manager/UnemetaMarket.sol\":20894:20907  Make.currency */\n      dup7\n      add\n      0xe0\n      dup8\n      add\n      tag_34\n      jump\t// in\n    tag_366:\n        /* \"contracts/Manager/UnemetaMarket.sol\":20856:20908  currencyManager.isCurrencyWhitelisted(Make.currency) */\n      mload(0x40)\n      not(sub(shl(0xe0, 0x01), 0x01))\n      0xe0\n      dup5\n      swap1\n      shl\n      and\n      dup2\n      mstore\n      sub(shl(0xa0, 0x01), 0x01)\n        /* \"#utility.yul\":205:237   */\n      swap1\n      swap2\n      and\n        /* \"contracts/Manager/UnemetaMarket.sol\":20856:20908  currencyManager.isCurrencyWhitelisted(Make.currency) */\n      0x04\n      dup3\n      add\n        /* \"#utility.yul\":187:238   */\n      mstore\n        /* \"#utility.yul\":160:178   */\n      0x24\n      add\n        /* \"contracts/Manager/UnemetaMarket.sol\":20856:20908  currencyManager.isCurrencyWhitelisted(Make.currency) */\n      0x20\n      mload(0x40)\n      dup1\n      dup4\n      sub\n      dup2\n      dup7\n      gas\n      staticcall\n      iszero\n      dup1\n      iszero\n      tag_369\n      jumpi\n      returndatasize\n      0x00\n      dup1\n      returndatacopy\n      revert(0x00, returndatasize)\n    tag_369:\n      pop\n      pop\n      pop\n      pop\n      mload(0x40)\n      returndatasize\n      not(0x1f)\n      0x1f\n      dup3\n      add\n      and\n      dup3\n      add\n      dup1\n      0x40\n      mstore\n      pop\n      dup2\n      add\n      swap1\n      tag_370\n      swap2\n      swap1\n      tag_371\n      jump\t// in\n    tag_370:\n        /* \"contracts/Manager/UnemetaMarket.sol\":20848:20939  require(currencyManager.isCurrencyWhitelisted(Make.currency), \" Not in Currency whitelist\") */\n      tag_372\n      jumpi\n      mload(0x40)\n      shl(0xe5, 0x461bcd)\n      dup2\n      mstore\n        /* \"#utility.yul\":21725:21727   */\n      0x20\n        /* \"contracts/Manager/UnemetaMarket.sol\":20848:20939  require(currencyManager.isCurrencyWhitelisted(Make.currency), \" Not in Currency whitelist\") */\n      0x04\n      dup3\n      add\n        /* \"#utility.yul\":21707:21728   */\n      mstore\n        /* \"#utility.yul\":21764:21766   */\n      0x1a\n        /* \"#utility.yul\":21744:21762   */\n      0x24\n      dup3\n      add\n        /* \"#utility.yul\":21737:21767   */\n      mstore\n        /* \"#utility.yul\":21803:21831   */\n      0x204e6f7420696e2043757272656e63792077686974656c697374000000000000\n        /* \"#utility.yul\":21783:21801   */\n      0x44\n      dup3\n      add\n        /* \"#utility.yul\":21776:21832   */\n      mstore\n        /* \"#utility.yul\":21849:21867   */\n      0x64\n      add\n        /* \"contracts/Manager/UnemetaMarket.sol\":20848:20939  require(currencyManager.isCurrencyWhitelisted(Make.currency), \" Not in Currency whitelist\") */\n      tag_129\n        /* \"#utility.yul\":21523:21873   */\n      jump\n        /* \"contracts/Manager/UnemetaMarket.sol\":20848:20939  require(currencyManager.isCurrencyWhitelisted(Make.currency), \" Not in Currency whitelist\") */\n    tag_372:\n        /* \"contracts/Manager/UnemetaMarket.sol\":21035:21051  executionManager */\n      and(sub(shl(0xa0, 0x01), 0x01), sload(0x04))\n        /* \"contracts/Manager/UnemetaMarket.sol\":21035:21073  executionManager.isStrategyWhitelisted */\n      0x999ba27c\n        /* \"contracts/Manager/UnemetaMarket.sol\":21074:21087  Make.strategy */\n      tag_375\n      0xe0\n      dup7\n      add\n      0xc0\n      dup8\n      add\n      tag_34\n      jump\t// in\n    tag_375:\n        /* \"contracts/Manager/UnemetaMarket.sol\":21035:21088  executionManager.isStrategyWhitelisted(Make.strategy) */\n      mload(0x40)\n      not(sub(shl(0xe0, 0x01), 0x01))\n      0xe0\n      dup5\n      swap1\n      shl\n      and\n      dup2\n      mstore\n      sub(shl(0xa0, 0x01), 0x01)\n        /* \"#utility.yul\":205:237   */\n      swap1\n      swap2\n      and\n        /* \"contracts/Manager/UnemetaMarket.sol\":21035:21088  executionManager.isStrategyWhitelisted(Make.strategy) */\n      0x04\n      dup3\n      add\n        /* \"#utility.yul\":187:238   */\n      mstore\n        /* \"#utility.yul\":160:178   */\n      0x24\n      add\n        /* \"contracts/Manager/UnemetaMarket.sol\":21035:21088  executionManager.isStrategyWhitelisted(Make.strategy) */\n      0x20\n      mload(0x40)\n      dup1\n      dup4\n      sub\n      dup2\n      dup7\n      gas\n      staticcall\n      iszero\n      dup1\n      iszero\n      tag_378\n      jumpi\n      returndatasize\n      0x00\n      dup1\n      returndatacopy\n      revert(0x00, returndatasize)\n    tag_378:\n      pop\n      pop\n      pop\n      pop\n      mload(0x40)\n      returndatasize\n      not(0x1f)\n      0x1f\n      dup3\n      add\n      and\n      dup3\n      add\n      dup1\n      0x40\n      mstore\n      pop\n      dup2\n      add\n      swap1\n      tag_379\n      swap2\n      swap1\n      tag_371\n      jump\t// in\n    tag_379:\n        /* \"contracts/Manager/UnemetaMarket.sol\":21027:21119  require(executionManager.isStrategyWhitelisted(Make.strategy), \" Not in Strategy whitelist\") */\n      tag_380\n      jumpi\n      mload(0x40)\n      shl(0xe5, 0x461bcd)\n      dup2\n      mstore\n        /* \"#utility.yul\":22080:22082   */\n      0x20\n        /* \"contracts/Manager/UnemetaMarket.sol\":21027:21119  require(executionManager.isStrategyWhitelisted(Make.strategy), \" Not in Strategy whitelist\") */\n      0x04\n      dup3\n      add\n        /* \"#utility.yul\":22062:22083   */\n      mstore\n        /* \"#utility.yul\":22119:22121   */\n      0x1a\n        /* \"#utility.yul\":22099:22117   */\n      0x24\n      dup3\n      add\n        /* \"#utility.yul\":22092:22122   */\n      mstore\n        /* \"#utility.yul\":22158:22186   */\n      0x204e6f7420696e2053747261746567792077686974656c697374000000000000\n        /* \"#utility.yul\":22138:22156   */\n      0x44\n      dup3\n      add\n        /* \"#utility.yul\":22131:22187   */\n      mstore\n        /* \"#utility.yul\":22204:22222   */\n      0x64\n      add\n        /* \"contracts/Manager/UnemetaMarket.sol\":21027:21119  require(executionManager.isStrategyWhitelisted(Make.strategy), \" Not in Strategy whitelist\") */\n      tag_129\n        /* \"#utility.yul\":21878:22228   */\n      jump\n        /* \"contracts/Manager/UnemetaMarket.sol\":21027:21119  require(executionManager.isStrategyWhitelisted(Make.strategy), \" Not in Strategy whitelist\") */\n    tag_380:\n        /* \"contracts/Manager/UnemetaMarket.sol\":19102:21126  {... */\n      pop\n        /* \"contracts/Manager/UnemetaMarket.sol\":19013:21126  function _validateOrder(OrderTypes.MakerOrder calldata Make, bytes32 Hash) internal view {... */\n      pop\n      pop\n      jump\t// out\n        /* \"contracts/Manager/UnemetaMarket.sol\":13294:15165  function _transferFeesAndFunds(... */\n    tag_165:\n        /* \"contracts/Manager/UnemetaMarket.sol\":13619:13625  amount */\n      dup2\n        /* \"contracts/Manager/UnemetaMarket.sol\":13591:13616  uint256 finalSellerAmount */\n      0x00\n        /* \"contracts/Manager/UnemetaMarket.sol\":13714:13753  _calculateProtocolFee(strategy, amount) */\n      tag_384\n        /* \"contracts/Manager/UnemetaMarket.sol\":13736:13744  strategy */\n      dup11\n        /* \"contracts/Manager/UnemetaMarket.sol\":13619:13625  amount */\n      dup4\n        /* \"contracts/Manager/UnemetaMarket.sol\":13714:13735  _calculateProtocolFee */\n      tag_385\n        /* \"contracts/Manager/UnemetaMarket.sol\":13714:13753  _calculateProtocolFee(strategy, amount) */\n      jump\t// in\n    tag_384:\n        /* \"contracts/Manager/UnemetaMarket.sol\":14022:14042  protocolFeeRecipient */\n      sload(0x02)\n        /* \"contracts/Manager/UnemetaMarket.sol\":13686:13753  uint256 protocolFeeAmount = _calculateProtocolFee(strategy, amount) */\n      swap1\n      swap2\n      pop\n      sub(shl(0xa0, 0x01), 0x01)\n        /* \"contracts/Manager/UnemetaMarket.sol\":14022:14042  protocolFeeRecipient */\n      and\n        /* \"contracts/Manager/UnemetaMarket.sol\":14022:14056  protocolFeeRecipient != address(0) */\n      iszero\n      dup1\n      iszero\n      swap1\n        /* \"contracts/Manager/UnemetaMarket.sol\":14021:14085  (protocolFeeRecipient != address(0)) && (protocolFeeAmount != 0) */\n      tag_386\n      jumpi\n      pop\n        /* \"contracts/Manager/UnemetaMarket.sol\":14062:14084  protocolFeeAmount != 0 */\n      dup1\n      iszero\n      iszero\n        /* \"contracts/Manager/UnemetaMarket.sol\":14021:14085  (protocolFeeRecipient != address(0)) && (protocolFeeAmount != 0) */\n    tag_386:\n        /* \"contracts/Manager/UnemetaMarket.sol\":14017:14244  if ((protocolFeeRecipient != address(0)) && (protocolFeeAmount != 0)) {... */\n      iszero\n      tag_387\n      jumpi\n        /* \"contracts/Manager/UnemetaMarket.sol\":14141:14161  protocolFeeRecipient */\n      sload(0x02)\n        /* \"contracts/Manager/UnemetaMarket.sol\":14101:14181  IERC20(currency).safeTransferFrom(from, protocolFeeRecipient, protocolFeeAmount) */\n      tag_388\n      swap1\n      sub(shl(0xa0, 0x01), 0x01)\n        /* \"contracts/Manager/UnemetaMarket.sol\":14101:14134  IERC20(currency).safeTransferFrom */\n      dup10\n      dup2\n      and\n      swap2\n        /* \"contracts/Manager/UnemetaMarket.sol\":14135:14139  from */\n      dup10\n      swap2\n        /* \"contracts/Manager/UnemetaMarket.sol\":14141:14161  protocolFeeRecipient */\n      and\n        /* \"contracts/Manager/UnemetaMarket.sol\":14163:14180  protocolFeeAmount */\n      dup5\n        /* \"contracts/Manager/UnemetaMarket.sol\":14101:14134  IERC20(currency).safeTransferFrom */\n      tag_198\n        /* \"contracts/Manager/UnemetaMarket.sol\":14101:14181  IERC20(currency).safeTransferFrom(from, protocolFeeRecipient, protocolFeeAmount) */\n      jump\t// in\n    tag_388:\n        /* \"contracts/Manager/UnemetaMarket.sol\":14195:14233  finalSellerAmount -= protocolFeeAmount */\n      tag_389\n        /* \"contracts/Manager/UnemetaMarket.sol\":14216:14233  protocolFeeAmount */\n      dup2\n        /* \"contracts/Manager/UnemetaMarket.sol\":14195:14233  finalSellerAmount -= protocolFeeAmount */\n      dup4\n      tag_197\n      jump\t// in\n    tag_389:\n      swap2\n      pop\n        /* \"contracts/Manager/UnemetaMarket.sol\":14017:14244  if ((protocolFeeRecipient != address(0)) && (protocolFeeAmount != 0)) {... */\n    tag_387:\n        /* \"contracts/Manager/UnemetaMarket.sol\":14351:14368  royaltyFeeManager */\n      sload(0x05)\n        /* \"contracts/Manager/UnemetaMarket.sol\":14351:14441  royaltyFeeManager... */\n      mload(0x40)\n      shl(0xe1, 0x7a7b1afd)\n      dup2\n      mstore\n      sub(shl(0xa0, 0x01), 0x01)\n        /* \"#utility.yul\":22453:22485   */\n      dup12\n      dup2\n      and\n        /* \"contracts/Manager/UnemetaMarket.sol\":14351:14441  royaltyFeeManager... */\n      0x04\n      dup4\n      add\n        /* \"#utility.yul\":22435:22486   */\n      mstore\n        /* \"#utility.yul\":22502:22520   */\n      0x24\n      dup3\n      add\n        /* \"#utility.yul\":22495:22529   */\n      dup12\n      swap1\n      mstore\n        /* \"#utility.yul\":22545:22563   */\n      0x44\n      dup3\n      add\n        /* \"#utility.yul\":22538:22572   */\n      dup8\n      swap1\n      mstore\n        /* \"contracts/Manager/UnemetaMarket.sol\":14294:14321  address royaltyFeeRecipient */\n      0x00\n      swap3\n      dup4\n      swap3\n        /* \"contracts/Manager/UnemetaMarket.sol\":14351:14368  royaltyFeeManager */\n      swap2\n      and\n      swap1\n        /* \"contracts/Manager/UnemetaMarket.sol\":14351:14412  royaltyFeeManager... */\n      0xf4f635fa\n      swap1\n        /* \"#utility.yul\":22408:22426   */\n      0x64\n      add\n        /* \"contracts/Manager/UnemetaMarket.sol\":14351:14441  royaltyFeeManager... */\n      0x40\n      dup1\n      mload\n      dup1\n      dup4\n      sub\n      dup2\n      dup7\n      gas\n      staticcall\n      iszero\n      dup1\n      iszero\n      tag_393\n      jumpi\n      returndatasize\n      0x00\n      dup1\n      returndatacopy\n      revert(0x00, returndatasize)\n    tag_393:\n      pop\n      pop\n      pop\n      pop\n      mload(0x40)\n      returndatasize\n      not(0x1f)\n      0x1f\n      dup3\n      add\n      and\n      dup3\n      add\n      dup1\n      0x40\n      mstore\n      pop\n      dup2\n      add\n      swap1\n      tag_394\n      swap2\n      swap1\n      tag_395\n      jump\t// in\n    tag_394:\n        /* \"contracts/Manager/UnemetaMarket.sol\":14293:14441  (address royaltyFeeRecipient, uint256 royaltyFeeAmount) = royaltyFeeManager... */\n      swap1\n      swap3\n      pop\n      swap1\n      pop\n      sub(shl(0xa0, 0x01), 0x01)\n        /* \"contracts/Manager/UnemetaMarket.sol\":14537:14570  royaltyFeeRecipient != address(0) */\n      dup3\n      and\n      iszero\n      dup1\n      iszero\n      swap1\n        /* \"contracts/Manager/UnemetaMarket.sol\":14536:14598  (royaltyFeeRecipient != address(0)) && (royaltyFeeAmount != 0) */\n      tag_396\n      jumpi\n      pop\n        /* \"contracts/Manager/UnemetaMarket.sol\":14576:14597  royaltyFeeAmount != 0 */\n      dup1\n      iszero\n      iszero\n        /* \"contracts/Manager/UnemetaMarket.sol\":14536:14598  (royaltyFeeRecipient != address(0)) && (royaltyFeeAmount != 0) */\n    tag_396:\n        /* \"contracts/Manager/UnemetaMarket.sol\":14532:14858  if ((royaltyFeeRecipient != address(0)) && (royaltyFeeAmount != 0)) {... */\n      iszero\n      tag_397\n      jumpi\n        /* \"contracts/Manager/UnemetaMarket.sol\":14614:14692  IERC20(currency).safeTransferFrom(from, royaltyFeeRecipient, royaltyFeeAmount) */\n      tag_398\n      sub(shl(0xa0, 0x01), 0x01)\n        /* \"contracts/Manager/UnemetaMarket.sol\":14614:14647  IERC20(currency).safeTransferFrom */\n      dup11\n      and\n        /* \"contracts/Manager/UnemetaMarket.sol\":14648:14652  from */\n      dup10\n        /* \"contracts/Manager/UnemetaMarket.sol\":14654:14673  royaltyFeeRecipient */\n      dup5\n        /* \"contracts/Manager/UnemetaMarket.sol\":14675:14691  royaltyFeeAmount */\n      dup5\n        /* \"contracts/Manager/UnemetaMarket.sol\":14614:14647  IERC20(currency).safeTransferFrom */\n      tag_198\n        /* \"contracts/Manager/UnemetaMarket.sol\":14614:14692  IERC20(currency).safeTransferFrom(from, royaltyFeeRecipient, royaltyFeeAmount) */\n      jump\t// in\n    tag_398:\n        /* \"contracts/Manager/UnemetaMarket.sol\":14706:14743  finalSellerAmount -= royaltyFeeAmount */\n      tag_399\n        /* \"contracts/Manager/UnemetaMarket.sol\":14727:14743  royaltyFeeAmount */\n      dup2\n        /* \"contracts/Manager/UnemetaMarket.sol\":14706:14743  finalSellerAmount -= royaltyFeeAmount */\n      dup6\n      tag_197\n      jump\t// in\n    tag_399:\n      swap4\n      pop\n        /* \"contracts/Manager/UnemetaMarket.sol\":14799:14818  royaltyFeeRecipient */\n      dup2\n      sub(shl(0xa0, 0x01), 0x01)\n        /* \"contracts/Manager/UnemetaMarket.sol\":14763:14847  RoyaltyPayment(collection, tokenId, royaltyFeeRecipient, currency, royaltyFeeAmount) */\n      and\n        /* \"contracts/Manager/UnemetaMarket.sol\":14790:14797  tokenId */\n      dup11\n        /* \"contracts/Manager/UnemetaMarket.sol\":14778:14788  collection */\n      dup13\n      sub(shl(0xa0, 0x01), 0x01)\n        /* \"contracts/Manager/UnemetaMarket.sol\":14763:14847  RoyaltyPayment(collection, tokenId, royaltyFeeRecipient, currency, royaltyFeeAmount) */\n      and\n      0x27c4f0403323142b599832f26acd21c74a9e5b809f2215726e244a4ac588cd7d\n        /* \"contracts/Manager/UnemetaMarket.sol\":14820:14828  currency */\n      dup13\n        /* \"contracts/Manager/UnemetaMarket.sol\":14830:14846  royaltyFeeAmount */\n      dup6\n        /* \"contracts/Manager/UnemetaMarket.sol\":14763:14847  RoyaltyPayment(collection, tokenId, royaltyFeeRecipient, currency, royaltyFeeAmount) */\n      mload(0x40)\n      tag_400\n      swap3\n      swap2\n      swap1\n      sub(shl(0xa0, 0x01), 0x01)\n        /* \"#utility.yul\":23092:23124   */\n      swap3\n      swap1\n      swap3\n      and\n        /* \"#utility.yul\":23074:23125   */\n      dup3\n      mstore\n        /* \"#utility.yul\":23156:23158   */\n      0x20\n        /* \"#utility.yul\":23141:23159   */\n      dup3\n      add\n        /* \"#utility.yul\":23134:23168   */\n      mstore\n        /* \"#utility.yul\":23062:23064   */\n      0x40\n        /* \"#utility.yul\":23047:23065   */\n      add\n      swap1\n        /* \"#utility.yul\":22900:23174   */\n      jump\n        /* \"contracts/Manager/UnemetaMarket.sol\":14763:14847  RoyaltyPayment(collection, tokenId, royaltyFeeRecipient, currency, royaltyFeeAmount) */\n    tag_400:\n      mload(0x40)\n      dup1\n      swap2\n      sub\n      swap1\n      log4\n        /* \"contracts/Manager/UnemetaMarket.sol\":14532:14858  if ((royaltyFeeRecipient != address(0)) && (royaltyFeeAmount != 0)) {... */\n    tag_397:\n        /* \"contracts/Manager/UnemetaMarket.sol\":14981:15008  minPercentageToAsk * amount */\n      tag_402\n        /* \"contracts/Manager/UnemetaMarket.sol\":15002:15008  amount */\n      dup7\n        /* \"contracts/Manager/UnemetaMarket.sol\":14981:14999  minPercentageToAsk */\n      dup7\n        /* \"contracts/Manager/UnemetaMarket.sol\":14981:15008  minPercentageToAsk * amount */\n      tag_403\n      jump\t// in\n    tag_402:\n        /* \"contracts/Manager/UnemetaMarket.sol\":14950:14975  finalSellerAmount * 10000 */\n      tag_404\n        /* \"contracts/Manager/UnemetaMarket.sol\":14950:14967  finalSellerAmount */\n      dup6\n        /* \"contracts/Manager/UnemetaMarket.sol\":14970:14975  10000 */\n      0x2710\n        /* \"contracts/Manager/UnemetaMarket.sol\":14950:14975  finalSellerAmount * 10000 */\n      tag_403\n      jump\t// in\n    tag_404:\n        /* \"contracts/Manager/UnemetaMarket.sol\":14949:15009  (finalSellerAmount * 10000) >= (minPercentageToAsk * amount) */\n      lt\n      iszero\n        /* \"contracts/Manager/UnemetaMarket.sol\":14941:15048  require((finalSellerAmount * 10000) >= (minPercentageToAsk * amount), \"The fee is too high for the seller\") */\n      tag_405\n      jumpi\n      mload(0x40)\n      shl(0xe5, 0x461bcd)\n      dup2\n      mstore\n      0x04\n      add\n      tag_129\n      swap1\n      tag_407\n      jump\t// in\n    tag_405:\n        /* \"contracts/Manager/UnemetaMarket.sol\":15095:15157  IERC20(currency).safeTransferFrom(from, to, finalSellerAmount) */\n      tag_408\n      sub(shl(0xa0, 0x01), 0x01)\n        /* \"contracts/Manager/UnemetaMarket.sol\":15095:15128  IERC20(currency).safeTransferFrom */\n      dup11\n      and\n        /* \"contracts/Manager/UnemetaMarket.sol\":15129:15133  from */\n      dup10\n        /* \"contracts/Manager/UnemetaMarket.sol\":15135:15137  to */\n      dup10\n        /* \"contracts/Manager/UnemetaMarket.sol\":15139:15156  finalSellerAmount */\n      dup8\n        /* \"contracts/Manager/UnemetaMarket.sol\":15095:15128  IERC20(currency).safeTransferFrom */\n      tag_198\n        /* \"contracts/Manager/UnemetaMarket.sol\":15095:15157  IERC20(currency).safeTransferFrom(from, to, finalSellerAmount) */\n      jump\t// in\n    tag_408:\n        /* \"contracts/Manager/UnemetaMarket.sol\":13547:15165  {... */\n      pop\n      pop\n      pop\n      pop\n        /* \"contracts/Manager/UnemetaMarket.sol\":13294:15165  function _transferFeesAndFunds(... */\n      pop\n      pop\n      pop\n      pop\n      pop\n      pop\n      pop\n      pop\n      jump\t// out\n        /* \"contracts/Manager/UnemetaMarket.sol\":17717:18298  function _transferNonFungibleToken(... */\n    tag_170:\n        /* \"contracts/Manager/UnemetaMarket.sol\":17967:17986  transferSelectorNFT */\n      sload(0x06)\n        /* \"contracts/Manager/UnemetaMarket.sol\":17967:18027  transferSelectorNFT.checkTransferManagerForToken(collection) */\n      mload(0x40)\n      shl(0xe0, 0xcc159493)\n      dup2\n      mstore\n      sub(shl(0xa0, 0x01), 0x01)\n        /* \"#utility.yul\":205:237   */\n      dup8\n      dup2\n      and\n        /* \"contracts/Manager/UnemetaMarket.sol\":17967:18027  transferSelectorNFT.checkTransferManagerForToken(collection) */\n      0x04\n      dup4\n      add\n        /* \"#utility.yul\":187:238   */\n      mstore\n        /* \"contracts/Manager/UnemetaMarket.sol\":17949:17964  address Manager */\n      0x00\n      swap3\n        /* \"contracts/Manager/UnemetaMarket.sol\":17967:17986  transferSelectorNFT */\n      and\n      swap1\n        /* \"contracts/Manager/UnemetaMarket.sol\":17967:18015  transferSelectorNFT.checkTransferManagerForToken */\n      0xcc159493\n      swap1\n        /* \"#utility.yul\":160:178   */\n      0x24\n      add\n        /* \"contracts/Manager/UnemetaMarket.sol\":17967:18027  transferSelectorNFT.checkTransferManagerForToken(collection) */\n      0x20\n      mload(0x40)\n      dup1\n      dup4\n      sub\n      dup2\n      dup7\n      gas\n      staticcall\n      iszero\n      dup1\n      iszero\n      tag_412\n      jumpi\n      returndatasize\n      0x00\n      dup1\n      returndatacopy\n      revert(0x00, returndatasize)\n    tag_412:\n      pop\n      pop\n      pop\n      pop\n      mload(0x40)\n      returndatasize\n      not(0x1f)\n      0x1f\n      dup3\n      add\n      and\n      dup3\n      add\n      dup1\n      0x40\n      mstore\n      pop\n      dup2\n      add\n      swap1\n      tag_413\n      swap2\n      swap1\n      tag_414\n      jump\t// in\n    tag_413:\n        /* \"contracts/Manager/UnemetaMarket.sol\":17949:18027  address Manager = transferSelectorNFT.checkTransferManagerForToken(collection) */\n      swap1\n      pop\n      sub(shl(0xa0, 0x01), 0x01)\n        /* \"contracts/Manager/UnemetaMarket.sol\":18088:18109  Manager != address(0) */\n      dup2\n      and\n        /* \"contracts/Manager/UnemetaMarket.sol\":18080:18142  require(Manager != address(0), \"Can't fount transfer manager\") */\n      tag_415\n      jumpi\n      mload(0x40)\n      shl(0xe5, 0x461bcd)\n      dup2\n      mstore\n        /* \"#utility.yul\":24213:24215   */\n      0x20\n        /* \"contracts/Manager/UnemetaMarket.sol\":18080:18142  require(Manager != address(0), \"Can't fount transfer manager\") */\n      0x04\n      dup3\n      add\n        /* \"#utility.yul\":24195:24216   */\n      mstore\n        /* \"#utility.yul\":24252:24254   */\n      0x1c\n        /* \"#utility.yul\":24232:24250   */\n      0x24\n      dup3\n      add\n        /* \"#utility.yul\":24225:24255   */\n      mstore\n        /* \"#utility.yul\":24291:24321   */\n      0x43616e277420666f756e74207472616e73666572206d616e6167657200000000\n        /* \"#utility.yul\":24271:24289   */\n      0x44\n      dup3\n      add\n        /* \"#utility.yul\":24264:24322   */\n      mstore\n        /* \"#utility.yul\":24339:24357   */\n      0x64\n      add\n        /* \"contracts/Manager/UnemetaMarket.sol\":18080:18142  require(Manager != address(0), \"Can't fount transfer manager\") */\n      tag_129\n        /* \"#utility.yul\":24011:24363   */\n      jump\n        /* \"contracts/Manager/UnemetaMarket.sol\":18080:18142  require(Manager != address(0), \"Can't fount transfer manager\") */\n    tag_415:\n        /* \"contracts/Manager/UnemetaMarket.sol\":18200:18291  TheTransferManager(Manager).transferNonFungibleToken(collection, from, to, tokenId, amount) */\n      mload(0x40)\n      shl(0xe0, 0x33f2fa9f)\n      dup2\n      mstore\n      sub(shl(0xa0, 0x01), 0x01)\n        /* \"#utility.yul\":24683:24698   */\n      dup8\n      dup2\n      and\n        /* \"contracts/Manager/UnemetaMarket.sol\":18200:18291  TheTransferManager(Manager).transferNonFungibleToken(collection, from, to, tokenId, amount) */\n      0x04\n      dup4\n      add\n        /* \"#utility.yul\":24665:24699   */\n      mstore\n        /* \"#utility.yul\":24735:24750   */\n      dup7\n      dup2\n      and\n        /* \"#utility.yul\":24715:24733   */\n      0x24\n      dup4\n      add\n        /* \"#utility.yul\":24708:24751   */\n      mstore\n        /* \"#utility.yul\":24787:24802   */\n      dup6\n      dup2\n      and\n        /* \"#utility.yul\":24767:24785   */\n      0x44\n      dup4\n      add\n        /* \"#utility.yul\":24760:24803   */\n      mstore\n        /* \"#utility.yul\":24819:24837   */\n      0x64\n      dup3\n      add\n        /* \"#utility.yul\":24812:24846   */\n      dup6\n      swap1\n      mstore\n        /* \"#utility.yul\":24862:24881   */\n      0x84\n      dup3\n      add\n        /* \"#utility.yul\":24855:24890   */\n      dup5\n      swap1\n      mstore\n        /* \"contracts/Manager/UnemetaMarket.sol\":18200:18252  TheTransferManager(Manager).transferNonFungibleToken */\n      dup3\n      and\n      swap1\n      0x33f2fa9f\n      swap1\n        /* \"#utility.yul\":24599:24618   */\n      0xa4\n      add\n        /* \"contracts/Manager/UnemetaMarket.sol\":18200:18291  TheTransferManager(Manager).transferNonFungibleToken(collection, from, to, tokenId, amount) */\n      0x00\n      mload(0x40)\n      dup1\n      dup4\n      sub\n      dup2\n      0x00\n      dup8\n      dup1\n      extcodesize\n      iszero\n      dup1\n      iszero\n      tag_420\n      jumpi\n      0x00\n      dup1\n      revert\n    tag_420:\n      pop\n      gas\n      call\n      iszero\n      dup1\n      iszero\n      tag_422\n      jumpi\n      returndatasize\n      0x00\n      dup1\n      returndatacopy\n      revert(0x00, returndatasize)\n    tag_422:\n      pop\n      pop\n      pop\n      pop\n        /* \"contracts/Manager/UnemetaMarket.sol\":17886:18298  {... */\n      pop\n        /* \"contracts/Manager/UnemetaMarket.sol\":17717:18298  function _transferNonFungibleToken(... */\n      pop\n      pop\n      pop\n      pop\n      pop\n      jump\t// out\n        /* \"@openzeppelin/contracts/token/ERC20/utils/SafeERC20.sol\":974:1215  function safeTransferFrom(... */\n    tag_198:\n        /* \"@openzeppelin/contracts/token/ERC20/utils/SafeERC20.sol\":1139:1207  abi.encodeWithSelector(token.transferFrom.selector, from, to, value) */\n      mload(0x40)\n      sub(shl(0xa0, 0x01), 0x01)\n        /* \"#utility.yul\":25159:25174   */\n      dup1\n      dup6\n      and\n        /* \"@openzeppelin/contracts/token/ERC20/utils/SafeERC20.sol\":1139:1207  abi.encodeWithSelector(token.transferFrom.selector, from, to, value) */\n      0x24\n      dup4\n      add\n        /* \"#utility.yul\":25141:25175   */\n      mstore\n        /* \"#utility.yul\":25211:25226   */\n      dup4\n      and\n        /* \"#utility.yul\":25191:25209   */\n      0x44\n      dup3\n      add\n        /* \"#utility.yul\":25184:25227   */\n      mstore\n        /* \"#utility.yul\":25243:25261   */\n      0x64\n      dup2\n      add\n        /* \"#utility.yul\":25236:25270   */\n      dup3\n      swap1\n      mstore\n        /* \"@openzeppelin/contracts/token/ERC20/utils/SafeERC20.sol\":1112:1208  _callOptionalReturn(token, abi.encodeWithSelector(token.transferFrom.selector, from, to, value)) */\n      tag_424\n      swap1\n        /* \"@openzeppelin/contracts/token/ERC20/utils/SafeERC20.sol\":1132:1137  token */\n      dup6\n      swap1\n      shl(0xe0, 0x23b872dd)\n        /* \"@openzeppelin/contracts/token/ERC20/utils/SafeERC20.sol\":1162:1189  token.transferFrom.selector */\n      swap1\n        /* \"#utility.yul\":25076:25094   */\n      0x84\n      add\n        /* \"@openzeppelin/contracts/token/ERC20/utils/SafeERC20.sol\":1139:1207  abi.encodeWithSelector(token.transferFrom.selector, from, to, value) */\n    tag_425:\n      0x40\n      dup1\n      mload\n      not(0x1f)\n      dup2\n      dup5\n      sub\n      add\n      dup2\n      mstore\n      swap2\n      swap1\n      mstore\n      0x20\n      dup2\n      add\n      dup1\n      mload\n      sub(shl(0xe0, 0x01), 0x01)\n      and\n      not(sub(shl(0xe0, 0x01), 0x01))\n      swap1\n      swap4\n      and\n      swap3\n      swap1\n      swap3\n      or\n      swap1\n      swap2\n      mstore\n        /* \"@openzeppelin/contracts/token/ERC20/utils/SafeERC20.sol\":1112:1131  _callOptionalReturn */\n      tag_427\n        /* \"@openzeppelin/contracts/token/ERC20/utils/SafeERC20.sol\":1112:1208  _callOptionalReturn(token, abi.encodeWithSelector(token.transferFrom.selector, from, to, value)) */\n      jump\t// in\n    tag_424:\n        /* \"@openzeppelin/contracts/token/ERC20/utils/SafeERC20.sol\":974:1215  function safeTransferFrom(... */\n      pop\n      pop\n      pop\n      pop\n      jump\t// out\n        /* \"contracts/Manager/UnemetaMarket.sol\":15615:17410  function _transferFeesAndFundsWithWETH(... */\n    tag_221:\n        /* \"contracts/Manager/UnemetaMarket.sol\":15903:15909  amount */\n      dup2\n        /* \"contracts/Manager/UnemetaMarket.sol\":15875:15900  uint256 finalSellerAmount */\n      0x00\n        /* \"contracts/Manager/UnemetaMarket.sol\":15998:16037  _calculateProtocolFee(strategy, amount) */\n      tag_429\n        /* \"contracts/Manager/UnemetaMarket.sol\":16020:16028  strategy */\n      dup9\n        /* \"contracts/Manager/UnemetaMarket.sol\":15903:15909  amount */\n      dup4\n        /* \"contracts/Manager/UnemetaMarket.sol\":15998:16019  _calculateProtocolFee */\n      tag_385\n        /* \"contracts/Manager/UnemetaMarket.sol\":15998:16037  _calculateProtocolFee(strategy, amount) */\n      jump\t// in\n    tag_429:\n        /* \"contracts/Manager/UnemetaMarket.sol\":16307:16327  protocolFeeRecipient */\n      sload(0x02)\n        /* \"contracts/Manager/UnemetaMarket.sol\":15970:16037  uint256 protocolFeeAmount = _calculateProtocolFee(strategy, amount) */\n      swap1\n      swap2\n      pop\n      sub(shl(0xa0, 0x01), 0x01)\n        /* \"contracts/Manager/UnemetaMarket.sol\":16307:16327  protocolFeeRecipient */\n      and\n        /* \"contracts/Manager/UnemetaMarket.sol\":16307:16341  protocolFeeRecipient != address(0) */\n      iszero\n      dup1\n      iszero\n      swap1\n        /* \"contracts/Manager/UnemetaMarket.sol\":16306:16370  (protocolFeeRecipient != address(0)) && (protocolFeeAmount != 0) */\n      tag_430\n      jumpi\n      pop\n        /* \"contracts/Manager/UnemetaMarket.sol\":16347:16369  protocolFeeAmount != 0 */\n      dup1\n      iszero\n      iszero\n        /* \"contracts/Manager/UnemetaMarket.sol\":16306:16370  (protocolFeeRecipient != address(0)) && (protocolFeeAmount != 0) */\n    tag_430:\n        /* \"contracts/Manager/UnemetaMarket.sol\":16302:16515  if ((protocolFeeRecipient != address(0)) && (protocolFeeAmount != 0)) {... */\n      iszero\n      tag_431\n      jumpi\n        /* \"contracts/Manager/UnemetaMarket.sol\":16412:16432  protocolFeeRecipient */\n      sload(0x02)\n        /* \"contracts/Manager/UnemetaMarket.sol\":16386:16452  IERC20(WETH).safeTransfer(protocolFeeRecipient, protocolFeeAmount) */\n      tag_432\n      swap1\n      sub(shl(0xa0, 0x01), 0x01)\n        /* \"contracts/Manager/UnemetaMarket.sol\":16393:16397  WETH */\n      immutable(\"0x27f7320d12022267a30ae0570361d18e54ded7bfc682ac5b98d912c6ab83c578\")\n        /* \"contracts/Manager/UnemetaMarket.sol\":16386:16411  IERC20(WETH).safeTransfer */\n      dup2\n      and\n      swap2\n        /* \"contracts/Manager/UnemetaMarket.sol\":16412:16432  protocolFeeRecipient */\n      and\n        /* \"contracts/Manager/UnemetaMarket.sol\":16434:16451  protocolFeeAmount */\n      dup4\n        /* \"contracts/Manager/UnemetaMarket.sol\":16386:16411  IERC20(WETH).safeTransfer */\n      tag_433\n        /* \"contracts/Manager/UnemetaMarket.sol\":16386:16452  IERC20(WETH).safeTransfer(protocolFeeRecipient, protocolFeeAmount) */\n      jump\t// in\n    tag_432:\n        /* \"contracts/Manager/UnemetaMarket.sol\":16466:16504  finalSellerAmount -= protocolFeeAmount */\n      tag_434\n        /* \"contracts/Manager/UnemetaMarket.sol\":16487:16504  protocolFeeAmount */\n      dup2\n        /* \"contracts/Manager/UnemetaMarket.sol\":16466:16504  finalSellerAmount -= protocolFeeAmount */\n      dup4\n      tag_197\n      jump\t// in\n    tag_434:\n      swap2\n      pop\n        /* \"contracts/Manager/UnemetaMarket.sol\":16302:16515  if ((protocolFeeRecipient != address(0)) && (protocolFeeAmount != 0)) {... */\n    tag_431:\n        /* \"contracts/Manager/UnemetaMarket.sol\":16619:16636  royaltyFeeManager */\n      sload(0x05)\n        /* \"contracts/Manager/UnemetaMarket.sol\":16619:16709  royaltyFeeManager... */\n      mload(0x40)\n      shl(0xe1, 0x7a7b1afd)\n      dup2\n      mstore\n      sub(shl(0xa0, 0x01), 0x01)\n        /* \"#utility.yul\":22453:22485   */\n      dup10\n      dup2\n      and\n        /* \"contracts/Manager/UnemetaMarket.sol\":16619:16709  royaltyFeeManager... */\n      0x04\n      dup4\n      add\n        /* \"#utility.yul\":22435:22486   */\n      mstore\n        /* \"#utility.yul\":22502:22520   */\n      0x24\n      dup3\n      add\n        /* \"#utility.yul\":22495:22529   */\n      dup10\n      swap1\n      mstore\n        /* \"#utility.yul\":22545:22563   */\n      0x44\n      dup3\n      add\n        /* \"#utility.yul\":22538:22572   */\n      dup8\n      swap1\n      mstore\n        /* \"contracts/Manager/UnemetaMarket.sol\":16562:16589  address royaltyFeeRecipient */\n      0x00\n      swap3\n      dup4\n      swap3\n        /* \"contracts/Manager/UnemetaMarket.sol\":16619:16636  royaltyFeeManager */\n      swap2\n      and\n      swap1\n        /* \"contracts/Manager/UnemetaMarket.sol\":16619:16680  royaltyFeeManager... */\n      0xf4f635fa\n      swap1\n        /* \"#utility.yul\":22408:22426   */\n      0x64\n      add\n        /* \"contracts/Manager/UnemetaMarket.sol\":16619:16709  royaltyFeeManager... */\n      0x40\n      dup1\n      mload\n      dup1\n      dup4\n      sub\n      dup2\n      dup7\n      gas\n      staticcall\n      iszero\n      dup1\n      iszero\n      tag_437\n      jumpi\n      returndatasize\n      0x00\n      dup1\n      returndatacopy\n      revert(0x00, returndatasize)\n    tag_437:\n      pop\n      pop\n      pop\n      pop\n      mload(0x40)\n      returndatasize\n      not(0x1f)\n      0x1f\n      dup3\n      add\n      and\n      dup3\n      add\n      dup1\n      0x40\n      mstore\n      pop\n      dup2\n      add\n      swap1\n      tag_438\n      swap2\n      swap1\n      tag_395\n      jump\t// in\n    tag_438:\n        /* \"contracts/Manager/UnemetaMarket.sol\":16561:16709  (address royaltyFeeRecipient, uint256 royaltyFeeAmount) = royaltyFeeManager... */\n      swap1\n      swap3\n      pop\n      swap1\n      pop\n      sub(shl(0xa0, 0x01), 0x01)\n        /* \"contracts/Manager/UnemetaMarket.sol\":16805:16838  royaltyFeeRecipient != address(0) */\n      dup3\n      and\n      iszero\n      dup1\n      iszero\n      swap1\n        /* \"contracts/Manager/UnemetaMarket.sol\":16804:16866  (royaltyFeeRecipient != address(0)) && (royaltyFeeAmount != 0) */\n      tag_439\n      jumpi\n      pop\n        /* \"contracts/Manager/UnemetaMarket.sol\":16844:16865  royaltyFeeAmount != 0 */\n      dup1\n      iszero\n      iszero\n        /* \"contracts/Manager/UnemetaMarket.sol\":16804:16866  (royaltyFeeRecipient != address(0)) && (royaltyFeeAmount != 0) */\n    tag_439:\n        /* \"contracts/Manager/UnemetaMarket.sol\":16800:17117  if ((royaltyFeeRecipient != address(0)) && (royaltyFeeAmount != 0)) {... */\n      iszero\n      tag_440\n      jumpi\n        /* \"contracts/Manager/UnemetaMarket.sol\":16882:16946  IERC20(WETH).safeTransfer(royaltyFeeRecipient, royaltyFeeAmount) */\n      tag_441\n      sub(shl(0xa0, 0x01), 0x01)\n        /* \"contracts/Manager/UnemetaMarket.sol\":16889:16893  WETH */\n      immutable(\"0x27f7320d12022267a30ae0570361d18e54ded7bfc682ac5b98d912c6ab83c578\")\n        /* \"contracts/Manager/UnemetaMarket.sol\":16882:16907  IERC20(WETH).safeTransfer */\n      and\n        /* \"contracts/Manager/UnemetaMarket.sol\":16908:16927  royaltyFeeRecipient */\n      dup4\n        /* \"contracts/Manager/UnemetaMarket.sol\":16929:16945  royaltyFeeAmount */\n      dup4\n        /* \"contracts/Manager/UnemetaMarket.sol\":16882:16907  IERC20(WETH).safeTransfer */\n      tag_433\n        /* \"contracts/Manager/UnemetaMarket.sol\":16882:16946  IERC20(WETH).safeTransfer(royaltyFeeRecipient, royaltyFeeAmount) */\n      jump\t// in\n    tag_441:\n        /* \"contracts/Manager/UnemetaMarket.sol\":16960:16997  finalSellerAmount -= royaltyFeeAmount */\n      tag_442\n        /* \"contracts/Manager/UnemetaMarket.sol\":16981:16997  royaltyFeeAmount */\n      dup2\n        /* \"contracts/Manager/UnemetaMarket.sol\":16960:16997  finalSellerAmount -= royaltyFeeAmount */\n      dup6\n      tag_197\n      jump\t// in\n    tag_442:\n      swap4\n      pop\n        /* \"contracts/Manager/UnemetaMarket.sol\":17053:17072  royaltyFeeRecipient */\n      dup2\n      sub(shl(0xa0, 0x01), 0x01)\n        /* \"contracts/Manager/UnemetaMarket.sol\":17017:17106  RoyaltyPayment(collection, tokenId, royaltyFeeRecipient, address(WETH), royaltyFeeAmount) */\n      and\n        /* \"contracts/Manager/UnemetaMarket.sol\":17044:17051  tokenId */\n      dup9\n        /* \"contracts/Manager/UnemetaMarket.sol\":17032:17042  collection */\n      dup11\n      sub(shl(0xa0, 0x01), 0x01)\n        /* \"contracts/Manager/UnemetaMarket.sol\":17017:17106  RoyaltyPayment(collection, tokenId, royaltyFeeRecipient, address(WETH), royaltyFeeAmount) */\n      and\n      0x27c4f0403323142b599832f26acd21c74a9e5b809f2215726e244a4ac588cd7d\n        /* \"contracts/Manager/UnemetaMarket.sol\":17082:17086  WETH */\n      immutable(\"0x27f7320d12022267a30ae0570361d18e54ded7bfc682ac5b98d912c6ab83c578\")\n        /* \"contracts/Manager/UnemetaMarket.sol\":17089:17105  royaltyFeeAmount */\n      dup6\n        /* \"contracts/Manager/UnemetaMarket.sol\":17017:17106  RoyaltyPayment(collection, tokenId, royaltyFeeRecipient, address(WETH), royaltyFeeAmount) */\n      mload(0x40)\n      tag_443\n      swap3\n      swap2\n      swap1\n      sub(shl(0xa0, 0x01), 0x01)\n        /* \"#utility.yul\":23092:23124   */\n      swap3\n      swap1\n      swap3\n      and\n        /* \"#utility.yul\":23074:23125   */\n      dup3\n      mstore\n        /* \"#utility.yul\":23156:23158   */\n      0x20\n        /* \"#utility.yul\":23141:23159   */\n      dup3\n      add\n        /* \"#utility.yul\":23134:23168   */\n      mstore\n        /* \"#utility.yul\":23062:23064   */\n      0x40\n        /* \"#utility.yul\":23047:23065   */\n      add\n      swap1\n        /* \"#utility.yul\":22900:23174   */\n      jump\n        /* \"contracts/Manager/UnemetaMarket.sol\":17017:17106  RoyaltyPayment(collection, tokenId, royaltyFeeRecipient, address(WETH), royaltyFeeAmount) */\n    tag_443:\n      mload(0x40)\n      dup1\n      swap2\n      sub\n      swap1\n      log4\n        /* \"contracts/Manager/UnemetaMarket.sol\":16800:17117  if ((royaltyFeeRecipient != address(0)) && (royaltyFeeAmount != 0)) {... */\n    tag_440:\n        /* \"contracts/Manager/UnemetaMarket.sol\":17241:17268  minPercentageToAsk * amount */\n      tag_444\n        /* \"contracts/Manager/UnemetaMarket.sol\":17262:17268  amount */\n      dup7\n        /* \"contracts/Manager/UnemetaMarket.sol\":17241:17259  minPercentageToAsk */\n      dup7\n        /* \"contracts/Manager/UnemetaMarket.sol\":17241:17268  minPercentageToAsk * amount */\n      tag_403\n      jump\t// in\n    tag_444:\n        /* \"contracts/Manager/UnemetaMarket.sol\":17210:17235  finalSellerAmount * 10000 */\n      tag_445\n        /* \"contracts/Manager/UnemetaMarket.sol\":17210:17227  finalSellerAmount */\n      dup6\n        /* \"contracts/Manager/UnemetaMarket.sol\":17230:17235  10000 */\n      0x2710\n        /* \"contracts/Manager/UnemetaMarket.sol\":17210:17235  finalSellerAmount * 10000 */\n      tag_403\n      jump\t// in\n    tag_445:\n        /* \"contracts/Manager/UnemetaMarket.sol\":17209:17269  (finalSellerAmount * 10000) >= (minPercentageToAsk * amount) */\n      lt\n      iszero\n        /* \"contracts/Manager/UnemetaMarket.sol\":17201:17308  require((finalSellerAmount * 10000) >= (minPercentageToAsk * amount), \"The fee is too high for the seller\") */\n      tag_446\n      jumpi\n      mload(0x40)\n      shl(0xe5, 0x461bcd)\n      dup2\n      mstore\n      0x04\n      add\n      tag_129\n      swap1\n      tag_407\n      jump\t// in\n    tag_446:\n        /* \"contracts/Manager/UnemetaMarket.sol\":17354:17402  IERC20(WETH).safeTransfer(to, finalSellerAmount) */\n      tag_422\n      sub(shl(0xa0, 0x01), 0x01)\n        /* \"contracts/Manager/UnemetaMarket.sol\":17361:17365  WETH */\n      immutable(\"0x27f7320d12022267a30ae0570361d18e54ded7bfc682ac5b98d912c6ab83c578\")\n        /* \"contracts/Manager/UnemetaMarket.sol\":17354:17379  IERC20(WETH).safeTransfer */\n      and\n        /* \"contracts/Manager/UnemetaMarket.sol\":17380:17382  to */\n      dup9\n        /* \"contracts/Manager/UnemetaMarket.sol\":17384:17401  finalSellerAmount */\n      dup7\n        /* \"contracts/Manager/UnemetaMarket.sol\":17354:17379  IERC20(WETH).safeTransfer */\n      tag_433\n        /* \"contracts/Manager/UnemetaMarket.sol\":17354:17402  IERC20(WETH).safeTransfer(to, finalSellerAmount) */\n      jump\t// in\n        /* \"@openzeppelin/contracts/access/Ownable.sol\":2433:2620  function _transferOwnership(address newOwner) internal virtual {... */\n    tag_280:\n        /* \"@openzeppelin/contracts/access/Ownable.sol\":2525:2531  _owner */\n      0x01\n      dup1\n      sload\n      sub(shl(0xa0, 0x01), 0x01)\n        /* \"@openzeppelin/contracts/access/Ownable.sol\":2541:2558  _owner = newOwner */\n      dup4\n      dup2\n      and\n      not(sub(shl(0xa0, 0x01), 0x01))\n      dup4\n      and\n      dup2\n      or\n      swap1\n      swap4\n      sstore\n        /* \"@openzeppelin/contracts/access/Ownable.sol\":2573:2613  OwnershipTransferred(oldOwner, newOwner) */\n      mload(0x40)\n        /* \"@openzeppelin/contracts/access/Ownable.sol\":2525:2531  _owner */\n      swap2\n      and\n      swap2\n        /* \"@openzeppelin/contracts/access/Ownable.sol\":2541:2558  _owner = newOwner */\n      swap1\n        /* \"@openzeppelin/contracts/access/Ownable.sol\":2525:2531  _owner */\n      dup3\n      swap1\n        /* \"@openzeppelin/contracts/access/Ownable.sol\":2573:2613  OwnershipTransferred(oldOwner, newOwner) */\n      0x8be0079c531659141344cd1fd0a4f28419497f9722a3daafe3b4186f6b6457e0\n      swap1\n        /* \"@openzeppelin/contracts/access/Ownable.sol\":2506:2522  address oldOwner */\n      0x00\n      swap1\n        /* \"@openzeppelin/contracts/access/Ownable.sol\":2573:2613  OwnershipTransferred(oldOwner, newOwner) */\n      log3\n        /* \"@openzeppelin/contracts/access/Ownable.sol\":2496:2620  {... */\n      pop\n        /* \"@openzeppelin/contracts/access/Ownable.sol\":2433:2620  function _transferOwnership(address newOwner) internal virtual {... */\n      pop\n      jump\t// out\n        /* \"contracts/libraries/SignatureChecker.sol\":1743:2649  function verify(... */\n    tag_362:\n        /* \"contracts/libraries/SignatureChecker.sol\":2124:2175  abi.encodePacked(\"\\x19\\x01\", domainSeparator, hash) */\n      mload(0x40)\n      shl(0xf0, 0x1901)\n      0x20\n      dup3\n      add\n        /* \"#utility.yul\":25539:25566   */\n      mstore\n        /* \"#utility.yul\":25582:25593   */\n      0x22\n      dup2\n      add\n        /* \"#utility.yul\":25575:25602   */\n      dup3\n      swap1\n      mstore\n        /* \"#utility.yul\":25618:25630   */\n      0x42\n      dup2\n      add\n        /* \"#utility.yul\":25611:25639   */\n      dup8\n      swap1\n      mstore\n        /* \"contracts/libraries/SignatureChecker.sol\":1922:1926  bool */\n      0x00\n      swap1\n      dup2\n      swap1\n        /* \"#utility.yul\":25655:25667   */\n      0x62\n      add\n        /* \"contracts/libraries/SignatureChecker.sol\":2124:2175  abi.encodePacked(\"\\x19\\x01\", domainSeparator, hash) */\n      mload(0x40)\n      0x20\n      dup2\n      dup4\n      sub\n      sub\n      dup2\n      mstore\n      swap1\n      0x40\n      mstore\n        /* \"contracts/libraries/SignatureChecker.sol\":2114:2176  keccak256(abi.encodePacked(\"\\x19\\x01\", domainSeparator, hash)) */\n      dup1\n      mload\n      swap1\n      0x20\n      add\n      keccak256\n        /* \"contracts/libraries/SignatureChecker.sol\":2097:2176  bytes32 digest = keccak256(abi.encodePacked(\"\\x19\\x01\", domainSeparator, hash)) */\n      swap1\n      pop\n        /* \"contracts/libraries/SignatureChecker.sol\":2250:2276  Address.isContract(signer) */\n      tag_454\n        /* \"contracts/libraries/SignatureChecker.sol\":2269:2275  signer */\n      dup8\n      sub(shl(0xa0, 0x01), 0x01)\n        /* \"@openzeppelin/contracts/utils/Address.sol\":1465:1484  account.code.length */\n      and\n      extcodesize\n        /* \"@openzeppelin/contracts/utils/Address.sol\":1465:1488  account.code.length > 0 */\n      iszero\n      iszero\n      swap1\n        /* \"@openzeppelin/contracts/utils/Address.sol\":1175:1495  function isContract(address account) internal view returns (bool) {... */\n      jump\n        /* \"contracts/libraries/SignatureChecker.sol\":2250:2276  Address.isContract(signer) */\n    tag_454:\n        /* \"contracts/libraries/SignatureChecker.sol\":2246:2643  if (Address.isContract(signer)) {... */\n      iszero\n      tag_456\n      jumpi\n        /* \"contracts/libraries/SignatureChecker.sol\":2453:2478  abi.encodePacked(r, s, v) */\n      0x40\n      dup1\n      mload\n      0x20\n      dup2\n      add\n        /* \"#utility.yul\":25859:25878   */\n      dup8\n      swap1\n      mstore\n        /* \"#utility.yul\":25894:25906   */\n      dup1\n      dup3\n      add\n        /* \"#utility.yul\":25887:25915   */\n      dup7\n      swap1\n      mstore\n        /* \"#utility.yul\":25971:25974   */\n      0xf8\n        /* \"#utility.yul\":25949:25965   */\n      dup9\n      swap1\n      shl\n      not(sub(shl(0xf8, 0x01), 0x01))\n        /* \"#utility.yul\":25945:25981   */\n      and\n        /* \"#utility.yul\":25931:25943   */\n      0x60\n      dup3\n      add\n        /* \"#utility.yul\":25924:25982   */\n      mstore\n        /* \"contracts/libraries/SignatureChecker.sol\":2453:2478  abi.encodePacked(r, s, v) */\n      dup2\n      mload\n      0x41\n      dup2\n      dup4\n      sub\n      add\n      dup2\n      mstore\n        /* \"#utility.yul\":25998:26010   */\n      0x61\n      dup3\n      add\n        /* \"contracts/libraries/SignatureChecker.sol\":2453:2478  abi.encodePacked(r, s, v) */\n      swap3\n      dup4\n      swap1\n      mstore\n      shl(0xe1, 0x0b135d3f)\n        /* \"contracts/libraries/SignatureChecker.sol\":2411:2479  IERC1271(signer).isValidSignature(digest, abi.encodePacked(r, s, v)) */\n      swap1\n      swap3\n      mstore\n      sub(shl(0xa0, 0x01), 0x01)\n        /* \"contracts/libraries/SignatureChecker.sol\":2411:2444  IERC1271(signer).isValidSignature */\n      dup10\n      and\n      swap2\n      0x1626ba7e\n      swap2\n        /* \"contracts/libraries/SignatureChecker.sol\":2411:2479  IERC1271(signer).isValidSignature(digest, abi.encodePacked(r, s, v)) */\n      tag_459\n      swap2\n        /* \"contracts/libraries/SignatureChecker.sol\":2445:2451  digest */\n      dup6\n      swap2\n        /* \"contracts/libraries/SignatureChecker.sol\":2411:2479  IERC1271(signer).isValidSignature(digest, abi.encodePacked(r, s, v)) */\n      0x65\n      add\n      tag_460\n      jump\t// in\n    tag_459:\n      0x20\n      mload(0x40)\n      dup1\n      dup4\n      sub\n      dup2\n      dup7\n      gas\n      staticcall\n      iszero\n      dup1\n      iszero\n      tag_462\n      jumpi\n      returndatasize\n      0x00\n      dup1\n      returndatacopy\n      revert(0x00, returndatasize)\n    tag_462:\n      pop\n      pop\n      pop\n      pop\n      mload(0x40)\n      returndatasize\n      not(0x1f)\n      0x1f\n      dup3\n      add\n      and\n      dup3\n      add\n      dup1\n      0x40\n      mstore\n      pop\n      dup2\n      add\n      swap1\n      tag_463\n      swap2\n      swap1\n      tag_464\n      jump\t// in\n    tag_463:\n      sub(shl(0xe0, 0x01), 0x01)\n        /* \"contracts/libraries/SignatureChecker.sol\":2411:2493  IERC1271(signer).isValidSignature(digest, abi.encodePacked(r, s, v)) == 0x1626ba7e */\n      not\n      and\n        /* \"contracts/libraries/SignatureChecker.sol\":2483:2493  0x1626ba7e */\n      0x1626ba7e\n        /* \"contracts/libraries/SignatureChecker.sol\":2411:2493  IERC1271(signer).isValidSignature(digest, abi.encodePacked(r, s, v)) == 0x1626ba7e */\n      0xe0\n      shl\n      eq\n        /* \"contracts/libraries/SignatureChecker.sol\":2404:2493  return IERC1271(signer).isValidSignature(digest, abi.encodePacked(r, s, v)) == 0x1626ba7e */\n      swap2\n      pop\n      pop\n      jump(tag_451)\n        /* \"contracts/libraries/SignatureChecker.sol\":2246:2643  if (Address.isContract(signer)) {... */\n    tag_456:\n        /* \"contracts/libraries/SignatureChecker.sol\":2626:2632  signer */\n      dup7\n      sub(shl(0xa0, 0x01), 0x01)\n        /* \"contracts/libraries/SignatureChecker.sol\":2598:2632  recover(digest, v, r, s) == signer */\n      and\n        /* \"contracts/libraries/SignatureChecker.sol\":2598:2622  recover(digest, v, r, s) */\n      tag_466\n        /* \"contracts/libraries/SignatureChecker.sol\":2606:2612  digest */\n      dup3\n        /* \"contracts/libraries/SignatureChecker.sol\":2614:2615  v */\n      dup9\n        /* \"contracts/libraries/SignatureChecker.sol\":2617:2618  r */\n      dup9\n        /* \"contracts/libraries/SignatureChecker.sol\":2620:2621  s */\n      dup9\n        /* \"contracts/libraries/SignatureChecker.sol\":2598:2605  recover */\n      tag_467\n        /* \"contracts/libraries/SignatureChecker.sol\":2598:2622  recover(digest, v, r, s) */\n      jump\t// in\n    tag_466:\n      sub(shl(0xa0, 0x01), 0x01)\n        /* \"contracts/libraries/SignatureChecker.sol\":2598:2632  recover(digest, v, r, s) == signer */\n      and\n      eq\n        /* \"contracts/libraries/SignatureChecker.sol\":2591:2632  return recover(digest, v, r, s) == signer */\n      swap2\n      pop\n      pop\n        /* \"contracts/libraries/SignatureChecker.sol\":1743:2649  function verify(... */\n    tag_451:\n      swap7\n      swap6\n      pop\n      pop\n      pop\n      pop\n      pop\n      pop\n      jump\t// out\n        /* \"contracts/Manager/UnemetaMarket.sol\":18551:18781  function _calculateProtocolFee(address theStrategy, uint256 amount) internal view returns (uint256) {... */\n    tag_385:\n        /* \"contracts/Manager/UnemetaMarket.sol\":18642:18649  uint256 */\n      0x00\n        /* \"contracts/Manager/UnemetaMarket.sol\":18661:18680  uint256 protocolFee */\n      dup1\n        /* \"contracts/Manager/UnemetaMarket.sol\":18697:18708  theStrategy */\n      dup4\n      sub(shl(0xa0, 0x01), 0x01)\n        /* \"contracts/Manager/UnemetaMarket.sol\":18683:18725  TheExStrategy(theStrategy).viewProtocolFee */\n      and\n      0x9dd1cda6\n        /* \"contracts/Manager/UnemetaMarket.sol\":18683:18727  TheExStrategy(theStrategy).viewProtocolFee() */\n      mload(0x40)\n      dup2\n      0xffffffff\n      and\n      0xe0\n      shl\n      dup2\n      mstore\n      0x04\n      add\n      0x20\n      mload(0x40)\n      dup1\n      dup4\n      sub\n      dup2\n      dup7\n      gas\n      staticcall\n      iszero\n      dup1\n      iszero\n      tag_470\n      jumpi\n      returndatasize\n      0x00\n      dup1\n      returndatacopy\n      revert(0x00, returndatasize)\n    tag_470:\n      pop\n      pop\n      pop\n      pop\n      mload(0x40)\n      returndatasize\n      not(0x1f)\n      0x1f\n      dup3\n      add\n      and\n      dup3\n      add\n      dup1\n      0x40\n      mstore\n      pop\n      dup2\n      add\n      swap1\n      tag_471\n      swap2\n      swap1\n      tag_472\n      jump\t// in\n    tag_471:\n        /* \"contracts/Manager/UnemetaMarket.sol\":18661:18727  uint256 protocolFee = TheExStrategy(theStrategy).viewProtocolFee() */\n      swap1\n      pop\n        /* \"contracts/Manager/UnemetaMarket.sol\":18769:18774  10000 */\n      0x2710\n        /* \"contracts/Manager/UnemetaMarket.sol\":18745:18765  protocolFee * amount */\n      tag_473\n        /* \"contracts/Manager/UnemetaMarket.sol\":18759:18765  amount */\n      dup5\n        /* \"contracts/Manager/UnemetaMarket.sol\":18661:18727  uint256 protocolFee = TheExStrategy(theStrategy).viewProtocolFee() */\n      dup4\n        /* \"contracts/Manager/UnemetaMarket.sol\":18745:18765  protocolFee * amount */\n      tag_403\n      jump\t// in\n    tag_473:\n        /* \"contracts/Manager/UnemetaMarket.sol\":18744:18774  (protocolFee * amount) / 10000 */\n      tag_474\n      swap2\n      swap1\n      tag_475\n      jump\t// in\n    tag_474:\n        /* \"contracts/Manager/UnemetaMarket.sol\":18737:18774  return (protocolFee * amount) / 10000 */\n      swap5\n        /* \"contracts/Manager/UnemetaMarket.sol\":18551:18781  function _calculateProtocolFee(address theStrategy, uint256 amount) internal view returns (uint256) {... */\n      swap4\n      pop\n      pop\n      pop\n      pop\n      jump\t// out\n        /* \"@openzeppelin/contracts/token/ERC20/utils/SafeERC20.sol\":3747:4453  function _callOptionalReturn(IERC20 token, bytes memory data) private {... */\n    tag_427:\n        /* \"@openzeppelin/contracts/token/ERC20/utils/SafeERC20.sol\":4166:4189  bytes memory returndata */\n      0x00\n        /* \"@openzeppelin/contracts/token/ERC20/utils/SafeERC20.sol\":4192:4261  address(token).functionCall(data, \"SafeERC20: low-level call failed\") */\n      tag_477\n        /* \"@openzeppelin/contracts/token/ERC20/utils/SafeERC20.sol\":4220:4224  data */\n      dup3\n        /* \"@openzeppelin/contracts/token/ERC20/utils/SafeERC20.sol\":4192:4261  address(token).functionCall(data, \"SafeERC20: low-level call failed\") */\n      mload(0x40)\n      dup1\n      0x40\n      add\n      0x40\n      mstore\n      dup1\n      0x20\n      dup2\n      mstore\n      0x20\n      add\n      0x5361666545524332303a206c6f772d6c6576656c2063616c6c206661696c6564\n      dup2\n      mstore\n      pop\n        /* \"@openzeppelin/contracts/token/ERC20/utils/SafeERC20.sol\":4200:4205  token */\n      dup6\n      sub(shl(0xa0, 0x01), 0x01)\n        /* \"@openzeppelin/contracts/token/ERC20/utils/SafeERC20.sol\":4192:4219  address(token).functionCall */\n      and\n      tag_478\n      swap1\n        /* \"@openzeppelin/contracts/token/ERC20/utils/SafeERC20.sol\":4192:4261  address(token).functionCall(data, \"SafeERC20: low-level call failed\") */\n      swap3\n      swap2\n      swap1\n      0xffffffff\n      and\n      jump\t// in\n    tag_477:\n        /* \"@openzeppelin/contracts/token/ERC20/utils/SafeERC20.sol\":4275:4292  returndata.length */\n      dup1\n      mload\n        /* \"@openzeppelin/contracts/token/ERC20/utils/SafeERC20.sol\":4166:4261  bytes memory returndata = address(token).functionCall(data, \"SafeERC20: low-level call failed\") */\n      swap1\n      swap2\n      pop\n        /* \"@openzeppelin/contracts/token/ERC20/utils/SafeERC20.sol\":4275:4296  returndata.length > 0 */\n      iszero\n        /* \"@openzeppelin/contracts/token/ERC20/utils/SafeERC20.sol\":4271:4447  if (returndata.length > 0) {... */\n      tag_380\n      jumpi\n        /* \"@openzeppelin/contracts/token/ERC20/utils/SafeERC20.sol\":4370:4380  returndata */\n      dup1\n        /* \"@openzeppelin/contracts/token/ERC20/utils/SafeERC20.sol\":4359:4389  abi.decode(returndata, (bool)) */\n      dup1\n      0x20\n      add\n      swap1\n      mload\n      dup2\n      add\n      swap1\n      tag_480\n      swap2\n      swap1\n      tag_371\n      jump\t// in\n    tag_480:\n        /* \"@openzeppelin/contracts/token/ERC20/utils/SafeERC20.sol\":4351:4436  require(abi.decode(returndata, (bool)), \"SafeERC20: ERC20 operation did not succeed\") */\n      tag_380\n      jumpi\n      mload(0x40)\n      shl(0xe5, 0x461bcd)\n      dup2\n      mstore\n        /* \"#utility.yul\":27752:27754   */\n      0x20\n        /* \"@openzeppelin/contracts/token/ERC20/utils/SafeERC20.sol\":4351:4436  require(abi.decode(returndata, (bool)), \"SafeERC20: ERC20 operation did not succeed\") */\n      0x04\n      dup3\n      add\n        /* \"#utility.yul\":27734:27755   */\n      mstore\n        /* \"#utility.yul\":27791:27793   */\n      0x2a\n        /* \"#utility.yul\":27771:27789   */\n      0x24\n      dup3\n      add\n        /* \"#utility.yul\":27764:27794   */\n      mstore\n        /* \"#utility.yul\":27830:27864   */\n      0x5361666545524332303a204552433230206f7065726174696f6e20646964206e\n        /* \"#utility.yul\":27810:27828   */\n      0x44\n      dup3\n      add\n        /* \"#utility.yul\":27803:27865   */\n      mstore\n      shl(0xb2, 0x1bdd081cdd58d8d95959)\n        /* \"#utility.yul\":27881:27899   */\n      0x64\n      dup3\n      add\n        /* \"#utility.yul\":27874:27914   */\n      mstore\n        /* \"#utility.yul\":27931:27950   */\n      0x84\n      add\n        /* \"@openzeppelin/contracts/token/ERC20/utils/SafeERC20.sol\":4351:4436  require(abi.decode(returndata, (bool)), \"SafeERC20: ERC20 operation did not succeed\") */\n      tag_129\n        /* \"#utility.yul\":27550:27956   */\n      jump\n        /* \"@openzeppelin/contracts/token/ERC20/utils/SafeERC20.sol\":763:968  function safeTransfer(... */\n    tag_433:\n        /* \"@openzeppelin/contracts/token/ERC20/utils/SafeERC20.sol\":902:960  abi.encodeWithSelector(token.transfer.selector, to, value) */\n      mload(0x40)\n      sub(shl(0xa0, 0x01), 0x01)\n        /* \"#utility.yul\":23092:23124   */\n      dup4\n      and\n        /* \"@openzeppelin/contracts/token/ERC20/utils/SafeERC20.sol\":902:960  abi.encodeWithSelector(token.transfer.selector, to, value) */\n      0x24\n      dup3\n      add\n        /* \"#utility.yul\":23074:23125   */\n      mstore\n        /* \"#utility.yul\":23141:23159   */\n      0x44\n      dup2\n      add\n        /* \"#utility.yul\":23134:23168   */\n      dup3\n      swap1\n      mstore\n        /* \"@openzeppelin/contracts/token/ERC20/utils/SafeERC20.sol\":875:961  _callOptionalReturn(token, abi.encodeWithSelector(token.transfer.selector, to, value)) */\n      tag_380\n      swap1\n        /* \"@openzeppelin/contracts/token/ERC20/utils/SafeERC20.sol\":895:900  token */\n      dup5\n      swap1\n      shl(0xe0, 0xa9059cbb)\n        /* \"@openzeppelin/contracts/token/ERC20/utils/SafeERC20.sol\":925:948  token.transfer.selector */\n      swap1\n        /* \"#utility.yul\":23047:23065   */\n      0x64\n      add\n        /* \"@openzeppelin/contracts/token/ERC20/utils/SafeERC20.sol\":902:960  abi.encodeWithSelector(token.transfer.selector, to, value) */\n      tag_425\n        /* \"#utility.yul\":22900:23174   */\n      jump\n        /* \"contracts/libraries/SignatureChecker.sol\":688:1459  function recover(... */\n    tag_467:\n        /* \"contracts/libraries/SignatureChecker.sol\":811:818  address */\n      0x00\n        /* \"contracts/libraries/SignatureChecker.sol\":1083:1149  0x7FFFFFFFFFFFFFFFFFFFFFFFFFFFFFFF5D576E7357A4501DDFE92F46681B20A0 */\n      0x7fffffffffffffffffffffffffffffff5d576e7357a4501ddfe92f46681b20a0\n        /* \"contracts/libraries/SignatureChecker.sol\":1069:1149  uint256(s) <= 0x7FFFFFFFFFFFFFFFFFFFFFFFFFFFFFFF5D576E7357A4501DDFE92F46681B20A0 */\n      dup3\n      gt\n      iszero\n        /* \"contracts/libraries/SignatureChecker.sol\":1048:1195  require(... */\n      tag_489\n      jumpi\n      mload(0x40)\n      shl(0xe5, 0x461bcd)\n      dup2\n      mstore\n        /* \"#utility.yul\":28163:28165   */\n      0x20\n        /* \"contracts/libraries/SignatureChecker.sol\":1048:1195  require(... */\n      0x04\n      dup3\n      add\n        /* \"#utility.yul\":28145:28166   */\n      mstore\n        /* \"#utility.yul\":28202:28204   */\n      0x14\n        /* \"#utility.yul\":28182:28200   */\n      0x24\n      dup3\n      add\n        /* \"#utility.yul\":28175:28205   */\n      mstore\n      shl(0x61, 0x1024b73b30b634b21039903830b930b6b2ba32b9)\n        /* \"#utility.yul\":28221:28239   */\n      0x44\n      dup3\n      add\n        /* \"#utility.yul\":28214:28264   */\n      mstore\n        /* \"#utility.yul\":28281:28299   */\n      0x64\n      add\n        /* \"contracts/libraries/SignatureChecker.sol\":1048:1195  require(... */\n      tag_129\n        /* \"#utility.yul\":27961:28305   */\n      jump\n        /* \"contracts/libraries/SignatureChecker.sol\":1048:1195  require(... */\n    tag_489:\n        /* \"contracts/libraries/SignatureChecker.sol\":1214:1215  v */\n      dup4\n        /* \"contracts/libraries/SignatureChecker.sol\":1214:1221  v == 27 */\n      0xff\n      and\n        /* \"contracts/libraries/SignatureChecker.sol\":1219:1221  27 */\n      0x1b\n        /* \"contracts/libraries/SignatureChecker.sol\":1214:1221  v == 27 */\n      eq\n        /* \"contracts/libraries/SignatureChecker.sol\":1214:1232  v == 27 || v == 28 */\n      dup1\n      tag_492\n      jumpi\n      pop\n        /* \"contracts/libraries/SignatureChecker.sol\":1225:1226  v */\n      dup4\n        /* \"contracts/libraries/SignatureChecker.sol\":1225:1232  v == 28 */\n      0xff\n      and\n        /* \"contracts/libraries/SignatureChecker.sol\":1230:1232  28 */\n      0x1c\n        /* \"contracts/libraries/SignatureChecker.sol\":1225:1232  v == 28 */\n      eq\n        /* \"contracts/libraries/SignatureChecker.sol\":1214:1232  v == 27 || v == 28 */\n    tag_492:\n        /* \"contracts/libraries/SignatureChecker.sol\":1206:1256  require(v == 27 || v == 28, \"Invalid v parameter\") */\n      tag_493\n      jumpi\n      mload(0x40)\n      shl(0xe5, 0x461bcd)\n      dup2\n      mstore\n        /* \"#utility.yul\":28512:28514   */\n      0x20\n        /* \"contracts/libraries/SignatureChecker.sol\":1206:1256  require(v == 27 || v == 28, \"Invalid v parameter\") */\n      0x04\n      dup3\n      add\n        /* \"#utility.yul\":28494:28515   */\n      mstore\n        /* \"#utility.yul\":28551:28553   */\n      0x13\n        /* \"#utility.yul\":28531:28549   */\n      0x24\n      dup3\n      add\n        /* \"#utility.yul\":28524:28554   */\n      mstore\n      shl(0x69, 0x24b73b30b634b2103b103830b930b6b2ba32b9)\n        /* \"#utility.yul\":28570:28588   */\n      0x44\n      dup3\n      add\n        /* \"#utility.yul\":28563:28612   */\n      mstore\n        /* \"#utility.yul\":28629:28647   */\n      0x64\n      add\n        /* \"contracts/libraries/SignatureChecker.sol\":1206:1256  require(v == 27 || v == 28, \"Invalid v parameter\") */\n      tag_129\n        /* \"#utility.yul\":28310:28653   */\n      jump\n        /* \"contracts/libraries/SignatureChecker.sol\":1206:1256  require(v == 27 || v == 28, \"Invalid v parameter\") */\n    tag_493:\n        /* \"contracts/libraries/SignatureChecker.sol\":1346:1370  ecrecover(hash, v, r, s) */\n      0x40\n      dup1\n      mload\n        /* \"contracts/libraries/SignatureChecker.sol\":1329:1343  address signer */\n      0x00\n        /* \"contracts/libraries/SignatureChecker.sol\":1346:1370  ecrecover(hash, v, r, s) */\n      dup1\n      dup3\n      mstore\n      0x20\n      dup3\n      add\n      dup1\n      dup5\n      mstore\n        /* \"#utility.yul\":28885:28910   */\n      dup9\n      swap1\n      mstore\n        /* \"#utility.yul\":28958:28962   */\n      0xff\n        /* \"#utility.yul\":28946:28963   */\n      dup8\n      and\n        /* \"#utility.yul\":28926:28944   */\n      swap3\n      dup3\n      add\n        /* \"#utility.yul\":28919:28964   */\n      swap3\n      swap1\n      swap3\n      mstore\n        /* \"#utility.yul\":28980:28998   */\n      0x60\n      dup2\n      add\n        /* \"#utility.yul\":28973:29007   */\n      dup6\n      swap1\n      mstore\n        /* \"#utility.yul\":29023:29041   */\n      0x80\n      dup2\n      add\n        /* \"#utility.yul\":29016:29050   */\n      dup5\n      swap1\n      mstore\n        /* \"contracts/libraries/SignatureChecker.sol\":1346:1370  ecrecover(hash, v, r, s) */\n      0x01\n      swap1\n        /* \"#utility.yul\":28857:28876   */\n      0xa0\n      add\n        /* \"contracts/libraries/SignatureChecker.sol\":1346:1370  ecrecover(hash, v, r, s) */\n      0x20\n      mload(0x40)\n      0x20\n      dup2\n      sub\n      swap1\n      dup1\n      dup5\n      sub\n      swap1\n      dup6\n      gas\n      staticcall\n      iszero\n      dup1\n      iszero\n      tag_499\n      jumpi\n      returndatasize\n      0x00\n      dup1\n      returndatacopy\n      revert(0x00, returndatasize)\n    tag_499:\n      pop\n      pop\n      mload(add(not(0x1f), mload(0x40)))\n      swap2\n      pop\n      pop\n      sub(shl(0xa0, 0x01), 0x01)\n        /* \"contracts/libraries/SignatureChecker.sol\":1388:1408  signer != address(0) */\n      dup2\n      and\n        /* \"contracts/libraries/SignatureChecker.sol\":1380:1428  require(signer != address(0), \" Invalid signer\") */\n      tag_500\n      jumpi\n      mload(0x40)\n      shl(0xe5, 0x461bcd)\n      dup2\n      mstore\n        /* \"#utility.yul\":29263:29265   */\n      0x20\n        /* \"contracts/libraries/SignatureChecker.sol\":1380:1428  require(signer != address(0), \" Invalid signer\") */\n      0x04\n      dup3\n      add\n        /* \"#utility.yul\":29245:29266   */\n      mstore\n        /* \"#utility.yul\":29302:29304   */\n      0x0f\n        /* \"#utility.yul\":29282:29300   */\n      0x24\n      dup3\n      add\n        /* \"#utility.yul\":29275:29305   */\n      mstore\n      shl(0x89, 0x1024b73b30b634b21039b4b3b732b9)\n        /* \"#utility.yul\":29321:29339   */\n      0x44\n      dup3\n      add\n        /* \"#utility.yul\":29314:29359   */\n      mstore\n        /* \"#utility.yul\":29376:29394   */\n      0x64\n      add\n        /* \"contracts/libraries/SignatureChecker.sol\":1380:1428  require(signer != address(0), \" Invalid signer\") */\n      tag_129\n        /* \"#utility.yul\":29061:29400   */\n      jump\n        /* \"contracts/libraries/SignatureChecker.sol\":1380:1428  require(signer != address(0), \" Invalid signer\") */\n    tag_500:\n        /* \"contracts/libraries/SignatureChecker.sol\":1446:1452  signer */\n      swap6\n        /* \"contracts/libraries/SignatureChecker.sol\":688:1459  function recover(... */\n      swap5\n      pop\n      pop\n      pop\n      pop\n      pop\n      jump\t// out\n        /* \"@openzeppelin/contracts/utils/Address.sol\":3861:4084  function functionCall(... */\n    tag_478:\n        /* \"@openzeppelin/contracts/utils/Address.sol\":3994:4006  bytes memory */\n      0x60\n        /* \"@openzeppelin/contracts/utils/Address.sol\":4025:4077  functionCallWithValue(target, data, 0, errorMessage) */\n      tag_504\n        /* \"@openzeppelin/contracts/utils/Address.sol\":4047:4053  target */\n      dup5\n        /* \"@openzeppelin/contracts/utils/Address.sol\":4055:4059  data */\n      dup5\n        /* \"@openzeppelin/contracts/utils/Address.sol\":4061:4062  0 */\n      0x00\n        /* \"@openzeppelin/contracts/utils/Address.sol\":4064:4076  errorMessage */\n      dup6\n        /* \"@openzeppelin/contracts/utils/Address.sol\":4025:4046  functionCallWithValue */\n      tag_505\n        /* \"@openzeppelin/contracts/utils/Address.sol\":4025:4077  functionCallWithValue(target, data, 0, errorMessage) */\n      jump\t// in\n    tag_504:\n        /* \"@openzeppelin/contracts/utils/Address.sol\":4018:4077  return functionCallWithValue(target, data, 0, errorMessage) */\n      swap1\n      pop\n        /* \"@openzeppelin/contracts/utils/Address.sol\":3861:4084  function functionCall(... */\n    tag_503:\n      swap4\n      swap3\n      pop\n      pop\n      pop\n      jump\t// out\n        /* \"@openzeppelin/contracts/utils/Address.sol\":4948:5447  function functionCallWithValue(... */\n    tag_505:\n        /* \"@openzeppelin/contracts/utils/Address.sol\":5113:5125  bytes memory */\n      0x60\n        /* \"@openzeppelin/contracts/utils/Address.sol\":5170:5175  value */\n      dup3\n        /* \"@openzeppelin/contracts/utils/Address.sol\":5145:5166  address(this).balance */\n      selfbalance\n        /* \"@openzeppelin/contracts/utils/Address.sol\":5145:5175  address(this).balance >= value */\n      lt\n      iszero\n        /* \"@openzeppelin/contracts/utils/Address.sol\":5137:5218  require(address(this).balance >= value, \"Address: insufficient balance for call\") */\n      tag_507\n      jumpi\n      mload(0x40)\n      shl(0xe5, 0x461bcd)\n      dup2\n      mstore\n        /* \"#utility.yul\":29607:29609   */\n      0x20\n        /* \"@openzeppelin/contracts/utils/Address.sol\":5137:5218  require(address(this).balance >= value, \"Address: insufficient balance for call\") */\n      0x04\n      dup3\n      add\n        /* \"#utility.yul\":29589:29610   */\n      mstore\n        /* \"#utility.yul\":29646:29648   */\n      0x26\n        /* \"#utility.yul\":29626:29644   */\n      0x24\n      dup3\n      add\n        /* \"#utility.yul\":29619:29649   */\n      mstore\n        /* \"#utility.yul\":29685:29719   */\n      0x416464726573733a20696e73756666696369656e742062616c616e636520666f\n        /* \"#utility.yul\":29665:29683   */\n      0x44\n      dup3\n      add\n        /* \"#utility.yul\":29658:29720   */\n      mstore\n      shl(0xd2, 0x1c8818d85b1b)\n        /* \"#utility.yul\":29736:29754   */\n      0x64\n      dup3\n      add\n        /* \"#utility.yul\":29729:29765   */\n      mstore\n        /* \"#utility.yul\":29782:29801   */\n      0x84\n      add\n        /* \"@openzeppelin/contracts/utils/Address.sol\":5137:5218  require(address(this).balance >= value, \"Address: insufficient balance for call\") */\n      tag_129\n        /* \"#utility.yul\":29405:29807   */\n      jump\n        /* \"@openzeppelin/contracts/utils/Address.sol\":5137:5218  require(address(this).balance >= value, \"Address: insufficient balance for call\") */\n    tag_507:\n      sub(shl(0xa0, 0x01), 0x01)\n        /* \"@openzeppelin/contracts/utils/Address.sol\":1465:1484  account.code.length */\n      dup6\n      and\n      extcodesize\n        /* \"@openzeppelin/contracts/utils/Address.sol\":5228:5288  require(isContract(target), \"Address: call to non-contract\") */\n      tag_511\n      jumpi\n      mload(0x40)\n      shl(0xe5, 0x461bcd)\n      dup2\n      mstore\n        /* \"#utility.yul\":30014:30016   */\n      0x20\n        /* \"@openzeppelin/contracts/utils/Address.sol\":5228:5288  require(isContract(target), \"Address: call to non-contract\") */\n      0x04\n      dup3\n      add\n        /* \"#utility.yul\":29996:30017   */\n      mstore\n        /* \"#utility.yul\":30053:30055   */\n      0x1d\n        /* \"#utility.yul\":30033:30051   */\n      0x24\n      dup3\n      add\n        /* \"#utility.yul\":30026:30056   */\n      mstore\n        /* \"#utility.yul\":30092:30123   */\n      0x416464726573733a2063616c6c20746f206e6f6e2d636f6e7472616374000000\n        /* \"#utility.yul\":30072:30090   */\n      0x44\n      dup3\n      add\n        /* \"#utility.yul\":30065:30124   */\n      mstore\n        /* \"#utility.yul\":30141:30159   */\n      0x64\n      add\n        /* \"@openzeppelin/contracts/utils/Address.sol\":5228:5288  require(isContract(target), \"Address: call to non-contract\") */\n      tag_129\n        /* \"#utility.yul\":29812:30165   */\n      jump\n        /* \"@openzeppelin/contracts/utils/Address.sol\":5228:5288  require(isContract(target), \"Address: call to non-contract\") */\n    tag_511:\n        /* \"@openzeppelin/contracts/utils/Address.sol\":5300:5312  bool success */\n      0x00\n        /* \"@openzeppelin/contracts/utils/Address.sol\":5314:5337  bytes memory returndata */\n      dup1\n        /* \"@openzeppelin/contracts/utils/Address.sol\":5341:5347  target */\n      dup7\n      sub(shl(0xa0, 0x01), 0x01)\n        /* \"@openzeppelin/contracts/utils/Address.sol\":5341:5352  target.call */\n      and\n        /* \"@openzeppelin/contracts/utils/Address.sol\":5360:5365  value */\n      dup6\n        /* \"@openzeppelin/contracts/utils/Address.sol\":5367:5371  data */\n      dup8\n        /* \"@openzeppelin/contracts/utils/Address.sol\":5341:5372  target.call{value: value}(data) */\n      mload(0x40)\n      tag_514\n      swap2\n      swap1\n      tag_515\n      jump\t// in\n    tag_514:\n      0x00\n      mload(0x40)\n      dup1\n      dup4\n      sub\n      dup2\n      dup6\n      dup8\n      gas\n      call\n      swap3\n      pop\n      pop\n      pop\n      returndatasize\n      dup1\n      0x00\n      dup2\n      eq\n      tag_518\n      jumpi\n      mload(0x40)\n      swap2\n      pop\n      and(add(returndatasize, 0x3f), not(0x1f))\n      dup3\n      add\n      0x40\n      mstore\n      returndatasize\n      dup3\n      mstore\n      returndatasize\n      0x00\n      0x20\n      dup5\n      add\n      returndatacopy\n      jump(tag_517)\n    tag_518:\n      0x60\n      swap2\n      pop\n    tag_517:\n      pop\n        /* \"@openzeppelin/contracts/utils/Address.sol\":5299:5372  (bool success, bytes memory returndata) = target.call{value: value}(data) */\n      swap2\n      pop\n      swap2\n      pop\n        /* \"@openzeppelin/contracts/utils/Address.sol\":5389:5440  verifyCallResult(success, returndata, errorMessage) */\n      tag_519\n        /* \"@openzeppelin/contracts/utils/Address.sol\":5406:5413  success */\n      dup3\n        /* \"@openzeppelin/contracts/utils/Address.sol\":5415:5425  returndata */\n      dup3\n        /* \"@openzeppelin/contracts/utils/Address.sol\":5427:5439  errorMessage */\n      dup7\n        /* \"@openzeppelin/contracts/utils/Address.sol\":5389:5405  verifyCallResult */\n      tag_520\n        /* \"@openzeppelin/contracts/utils/Address.sol\":5389:5440  verifyCallResult(success, returndata, errorMessage) */\n      jump\t// in\n    tag_519:\n        /* \"@openzeppelin/contracts/utils/Address.sol\":5382:5440  return verifyCallResult(success, returndata, errorMessage) */\n      swap8\n        /* \"@openzeppelin/contracts/utils/Address.sol\":4948:5447  function functionCallWithValue(... */\n      swap7\n      pop\n      pop\n      pop\n      pop\n      pop\n      pop\n      pop\n      jump\t// out\n        /* \"@openzeppelin/contracts/utils/Address.sol\":7561:8303  function verifyCallResult(... */\n    tag_520:\n        /* \"@openzeppelin/contracts/utils/Address.sol\":7707:7719  bytes memory */\n      0x60\n        /* \"@openzeppelin/contracts/utils/Address.sol\":7735:7742  success */\n      dup4\n        /* \"@openzeppelin/contracts/utils/Address.sol\":7731:8297  if (success) {... */\n      iszero\n      tag_522\n      jumpi\n      pop\n        /* \"@openzeppelin/contracts/utils/Address.sol\":7765:7775  returndata */\n      dup2\n        /* \"@openzeppelin/contracts/utils/Address.sol\":7758:7775  return returndata */\n      jump(tag_503)\n        /* \"@openzeppelin/contracts/utils/Address.sol\":7731:8297  if (success) {... */\n    tag_522:\n        /* \"@openzeppelin/contracts/utils/Address.sol\":7876:7893  returndata.length */\n      dup3\n      mload\n        /* \"@openzeppelin/contracts/utils/Address.sol\":7876:7897  returndata.length > 0 */\n      iszero\n        /* \"@openzeppelin/contracts/utils/Address.sol\":7872:8287  if (returndata.length > 0) {... */\n      tag_524\n      jumpi\n        /* \"@openzeppelin/contracts/utils/Address.sol\":8120:8130  returndata */\n      dup3\n        /* \"@openzeppelin/contracts/utils/Address.sol\":8114:8131  mload(returndata) */\n      mload\n        /* \"@openzeppelin/contracts/utils/Address.sol\":8180:8195  returndata_size */\n      dup1\n        /* \"@openzeppelin/contracts/utils/Address.sol\":8167:8177  returndata */\n      dup5\n        /* \"@openzeppelin/contracts/utils/Address.sol\":8163:8165  32 */\n      0x20\n        /* \"@openzeppelin/contracts/utils/Address.sol\":8159:8178  add(32, returndata) */\n      add\n        /* \"@openzeppelin/contracts/utils/Address.sol\":8152:8196  revert(add(32, returndata), returndata_size) */\n      revert\n        /* \"@openzeppelin/contracts/utils/Address.sol\":7872:8287  if (returndata.length > 0) {... */\n    tag_524:\n        /* \"@openzeppelin/contracts/utils/Address.sol\":8259:8271  errorMessage */\n      dup2\n        /* \"@openzeppelin/contracts/utils/Address.sol\":8252:8272  revert(errorMessage) */\n      mload(0x40)\n      shl(0xe5, 0x461bcd)\n      dup2\n      mstore\n      0x04\n      add\n      tag_129\n      swap2\n      swap1\n      tag_527\n      jump\t// in\n        /* \"#utility.yul\":249:380   */\n    tag_528:\n      sub(shl(0xa0, 0x01), 0x01)\n        /* \"#utility.yul\":324:355   */\n      dup2\n      and\n        /* \"#utility.yul\":314:356   */\n      dup2\n      eq\n        /* \"#utility.yul\":304:374   */\n      tag_326\n      jumpi\n        /* \"#utility.yul\":370:371   */\n      0x00\n        /* \"#utility.yul\":367:368   */\n      dup1\n        /* \"#utility.yul\":360:372   */\n      revert\n        /* \"#utility.yul\":385:519   */\n    tag_529:\n        /* \"#utility.yul\":453:473   */\n      dup1\n      calldataload\n        /* \"#utility.yul\":482:513   */\n      tag_549\n        /* \"#utility.yul\":453:473   */\n      dup2\n        /* \"#utility.yul\":482:513   */\n      tag_528\n      jump\t// in\n    tag_549:\n        /* \"#utility.yul\":385:519   */\n      swap2\n      swap1\n      pop\n      jump\t// out\n        /* \"#utility.yul\":524:771   */\n    tag_34:\n        /* \"#utility.yul\":583:589   */\n      0x00\n        /* \"#utility.yul\":636:638   */\n      0x20\n        /* \"#utility.yul\":624:633   */\n      dup3\n        /* \"#utility.yul\":615:622   */\n      dup5\n        /* \"#utility.yul\":611:634   */\n      sub\n        /* \"#utility.yul\":607:639   */\n      slt\n        /* \"#utility.yul\":604:656   */\n      iszero\n      tag_551\n      jumpi\n        /* \"#utility.yul\":652:653   */\n      0x00\n        /* \"#utility.yul\":649:650   */\n      dup1\n        /* \"#utility.yul\":642:654   */\n      revert\n        /* \"#utility.yul\":604:656   */\n    tag_551:\n        /* \"#utility.yul\":691:700   */\n      dup2\n        /* \"#utility.yul\":678:701   */\n      calldataload\n        /* \"#utility.yul\":710:741   */\n      tag_503\n        /* \"#utility.yul\":735:740   */\n      dup2\n        /* \"#utility.yul\":710:741   */\n      tag_528\n      jump\t// in\n        /* \"#utility.yul\":776:1091   */\n    tag_39:\n        /* \"#utility.yul\":844:850   */\n      0x00\n        /* \"#utility.yul\":852:858   */\n      dup1\n        /* \"#utility.yul\":905:907   */\n      0x40\n        /* \"#utility.yul\":893:902   */\n      dup4\n        /* \"#utility.yul\":884:891   */\n      dup6\n        /* \"#utility.yul\":880:903   */\n      sub\n        /* \"#utility.yul\":876:908   */\n      slt\n        /* \"#utility.yul\":873:925   */\n      iszero\n      tag_554\n      jumpi\n        /* \"#utility.yul\":921:922   */\n      0x00\n        /* \"#utility.yul\":918:919   */\n      dup1\n        /* \"#utility.yul\":911:923   */\n      revert\n        /* \"#utility.yul\":873:925   */\n    tag_554:\n        /* \"#utility.yul\":960:969   */\n      dup3\n        /* \"#utility.yul\":947:970   */\n      calldataload\n        /* \"#utility.yul\":979:1010   */\n      tag_555\n        /* \"#utility.yul\":1004:1009   */\n      dup2\n        /* \"#utility.yul\":979:1010   */\n      tag_528\n      jump\t// in\n    tag_555:\n        /* \"#utility.yul\":1029:1034   */\n      swap5\n        /* \"#utility.yul\":1081:1083   */\n      0x20\n        /* \"#utility.yul\":1066:1084   */\n      swap4\n      swap1\n      swap4\n      add\n        /* \"#utility.yul\":1053:1085   */\n      calldataload\n      swap4\n      pop\n      pop\n      pop\n        /* \"#utility.yul\":776:1091   */\n      jump\t// out\n        /* \"#utility.yul\":1566:2245   */\n    tag_52:\n        /* \"#utility.yul\":1694:1700   */\n      0x00\n        /* \"#utility.yul\":1702:1708   */\n      dup1\n        /* \"#utility.yul\":1755:1757   */\n      0x40\n        /* \"#utility.yul\":1743:1752   */\n      dup4\n        /* \"#utility.yul\":1734:1741   */\n      dup6\n        /* \"#utility.yul\":1730:1753   */\n      sub\n        /* \"#utility.yul\":1726:1758   */\n      slt\n        /* \"#utility.yul\":1723:1775   */\n      iszero\n      tag_560\n      jumpi\n        /* \"#utility.yul\":1771:1772   */\n      0x00\n        /* \"#utility.yul\":1768:1769   */\n      dup1\n        /* \"#utility.yul\":1761:1773   */\n      revert\n        /* \"#utility.yul\":1723:1775   */\n    tag_560:\n        /* \"#utility.yul\":1811:1820   */\n      dup3\n        /* \"#utility.yul\":1798:1821   */\n      calldataload\n        /* \"#utility.yul\":1840:1858   */\n      0xffffffffffffffff\n        /* \"#utility.yul\":1881:1883   */\n      dup1\n        /* \"#utility.yul\":1873:1879   */\n      dup3\n        /* \"#utility.yul\":1870:1884   */\n      gt\n        /* \"#utility.yul\":1867:1901   */\n      iszero\n      tag_561\n      jumpi\n        /* \"#utility.yul\":1897:1898   */\n      0x00\n        /* \"#utility.yul\":1894:1895   */\n      dup1\n        /* \"#utility.yul\":1887:1899   */\n      revert\n        /* \"#utility.yul\":1867:1901   */\n    tag_561:\n        /* \"#utility.yul\":1920:1942   */\n      swap1\n      dup5\n      add\n      swap1\n        /* \"#utility.yul\":1976:1979   */\n      0xc0\n        /* \"#utility.yul\":1958:1974   */\n      dup3\n      dup8\n      sub\n        /* \"#utility.yul\":1954:1980   */\n      slt\n        /* \"#utility.yul\":1951:1997   */\n      iszero\n      tag_562\n      jumpi\n        /* \"#utility.yul\":1993:1994   */\n      0x00\n        /* \"#utility.yul\":1990:1991   */\n      dup1\n        /* \"#utility.yul\":1983:1995   */\n      revert\n        /* \"#utility.yul\":1951:1997   */\n    tag_562:\n        /* \"#utility.yul\":2016:2018   */\n      swap1\n      swap3\n      pop\n        /* \"#utility.yul\":2071:2073   */\n      0x20\n        /* \"#utility.yul\":2056:2074   */\n      dup5\n      add\n        /* \"#utility.yul\":2043:2075   */\n      calldataload\n      swap1\n        /* \"#utility.yul\":2087:2103   */\n      dup1\n      dup3\n      gt\n        /* \"#utility.yul\":2084:2120   */\n      iszero\n      tag_563\n      jumpi\n        /* \"#utility.yul\":2116:2117   */\n      0x00\n        /* \"#utility.yul\":2113:2114   */\n      dup1\n        /* \"#utility.yul\":2106:2118   */\n      revert\n        /* \"#utility.yul\":2084:2120   */\n    tag_563:\n      pop\n        /* \"#utility.yul\":2139:2163   */\n      dup4\n      add\n        /* \"#utility.yul\":2197:2200   */\n      0x0200\n        /* \"#utility.yul\":2179:2195   */\n      dup2\n      dup7\n      sub\n        /* \"#utility.yul\":2175:2201   */\n      slt\n        /* \"#utility.yul\":2172:2218   */\n      iszero\n      tag_564\n      jumpi\n        /* \"#utility.yul\":2214:2215   */\n      0x00\n        /* \"#utility.yul\":2211:2212   */\n      dup1\n        /* \"#utility.yul\":2204:2216   */\n      revert\n        /* \"#utility.yul\":2172:2218   */\n    tag_564:\n        /* \"#utility.yul\":2237:2239   */\n      dup1\n        /* \"#utility.yul\":2227:2239   */\n      swap2\n      pop\n      pop\n        /* \"#utility.yul\":1566:2245   */\n      swap3\n      pop\n      swap3\n      swap1\n      pop\n      jump\t// out\n        /* \"#utility.yul\":3266:3881   */\n    tag_95:\n        /* \"#utility.yul\":3352:3358   */\n      0x00\n        /* \"#utility.yul\":3360:3366   */\n      dup1\n        /* \"#utility.yul\":3413:3415   */\n      0x20\n        /* \"#utility.yul\":3401:3410   */\n      dup4\n        /* \"#utility.yul\":3392:3399   */\n      dup6\n        /* \"#utility.yul\":3388:3411   */\n      sub\n        /* \"#utility.yul\":3384:3416   */\n      slt\n        /* \"#utility.yul\":3381:3433   */\n      iszero\n      tag_571\n      jumpi\n        /* \"#utility.yul\":3429:3430   */\n      0x00\n        /* \"#utility.yul\":3426:3427   */\n      dup1\n        /* \"#utility.yul\":3419:3431   */\n      revert\n        /* \"#utility.yul\":3381:3433   */\n    tag_571:\n        /* \"#utility.yul\":3469:3478   */\n      dup3\n        /* \"#utility.yul\":3456:3479   */\n      calldataload\n        /* \"#utility.yul\":3498:3516   */\n      0xffffffffffffffff\n        /* \"#utility.yul\":3539:3541   */\n      dup1\n        /* \"#utility.yul\":3531:3537   */\n      dup3\n        /* \"#utility.yul\":3528:3542   */\n      gt\n        /* \"#utility.yul\":3525:3559   */\n      iszero\n      tag_572\n      jumpi\n        /* \"#utility.yul\":3555:3556   */\n      0x00\n        /* \"#utility.yul\":3552:3553   */\n      dup1\n        /* \"#utility.yul\":3545:3557   */\n      revert\n        /* \"#utility.yul\":3525:3559   */\n    tag_572:\n        /* \"#utility.yul\":3593:3599   */\n      dup2\n        /* \"#utility.yul\":3582:3591   */\n      dup6\n        /* \"#utility.yul\":3578:3600   */\n      add\n        /* \"#utility.yul\":3568:3600   */\n      swap2\n      pop\n        /* \"#utility.yul\":3638:3645   */\n      dup6\n        /* \"#utility.yul\":3631:3635   */\n      0x1f\n        /* \"#utility.yul\":3627:3629   */\n      dup4\n        /* \"#utility.yul\":3623:3636   */\n      add\n        /* \"#utility.yul\":3619:3646   */\n      slt\n        /* \"#utility.yul\":3609:3664   */\n      tag_573\n      jumpi\n        /* \"#utility.yul\":3660:3661   */\n      0x00\n        /* \"#utility.yul\":3657:3658   */\n      dup1\n        /* \"#utility.yul\":3650:3662   */\n      revert\n        /* \"#utility.yul\":3609:3664   */\n    tag_573:\n        /* \"#utility.yul\":3700:3702   */\n      dup2\n        /* \"#utility.yul\":3687:3703   */\n      calldataload\n        /* \"#utility.yul\":3726:3728   */\n      dup2\n        /* \"#utility.yul\":3718:3724   */\n      dup2\n        /* \"#utility.yul\":3715:3729   */\n      gt\n        /* \"#utility.yul\":3712:3746   */\n      iszero\n      tag_574\n      jumpi\n        /* \"#utility.yul\":3742:3743   */\n      0x00\n        /* \"#utility.yul\":3739:3740   */\n      dup1\n        /* \"#utility.yul\":3732:3744   */\n      revert\n        /* \"#utility.yul\":3712:3746   */\n    tag_574:\n        /* \"#utility.yul\":3795:3802   */\n      dup7\n        /* \"#utility.yul\":3790:3792   */\n      0x20\n        /* \"#utility.yul\":3780:3786   */\n      dup3\n        /* \"#utility.yul\":3777:3778   */\n      0x05\n        /* \"#utility.yul\":3773:3787   */\n      shl\n        /* \"#utility.yul\":3769:3771   */\n      dup6\n        /* \"#utility.yul\":3765:3788   */\n      add\n        /* \"#utility.yul\":3761:3793   */\n      add\n        /* \"#utility.yul\":3758:3803   */\n      gt\n        /* \"#utility.yul\":3755:3820   */\n      iszero\n      tag_575\n      jumpi\n        /* \"#utility.yul\":3816:3817   */\n      0x00\n        /* \"#utility.yul\":3813:3814   */\n      dup1\n        /* \"#utility.yul\":3806:3818   */\n      revert\n        /* \"#utility.yul\":3755:3820   */\n    tag_575:\n        /* \"#utility.yul\":3847:3849   */\n      0x20\n        /* \"#utility.yul\":3839:3850   */\n      swap3\n      swap1\n      swap3\n      add\n      swap7\n        /* \"#utility.yul\":3869:3875   */\n      swap2\n      swap6\n      pop\n        /* \"#utility.yul\":3266:3881   */\n      swap1\n      swap4\n      pop\n      pop\n      pop\n      pop\n      jump\t// out\n        /* \"#utility.yul\":3886:4066   */\n    tag_108:\n        /* \"#utility.yul\":3945:3951   */\n      0x00\n        /* \"#utility.yul\":3998:4000   */\n      0x20\n        /* \"#utility.yul\":3986:3995   */\n      dup3\n        /* \"#utility.yul\":3977:3984   */\n      dup5\n        /* \"#utility.yul\":3973:3996   */\n      sub\n        /* \"#utility.yul\":3969:4001   */\n      slt\n        /* \"#utility.yul\":3966:4018   */\n      iszero\n      tag_577\n      jumpi\n        /* \"#utility.yul\":4014:4015   */\n      0x00\n        /* \"#utility.yul\":4011:4012   */\n      dup1\n        /* \"#utility.yul\":4004:4016   */\n      revert\n        /* \"#utility.yul\":3966:4018   */\n    tag_577:\n      pop\n        /* \"#utility.yul\":4037:4060   */\n      calldataload\n      swap2\n        /* \"#utility.yul\":3886:4066   */\n      swap1\n      pop\n      jump\t// out\n        /* \"#utility.yul\":4071:4426   */\n    tag_130:\n        /* \"#utility.yul\":4273:4275   */\n      0x20\n        /* \"#utility.yul\":4255:4276   */\n      dup1\n      dup3\n      mstore\n        /* \"#utility.yul\":4312:4314   */\n      0x1f\n        /* \"#utility.yul\":4292:4310   */\n      swap1\n      dup3\n      add\n        /* \"#utility.yul\":4285:4315   */\n      mstore\n        /* \"#utility.yul\":4351:4384   */\n      0x5265656e7472616e637947756172643a207265656e7472616e742063616c6c00\n        /* \"#utility.yul\":4346:4348   */\n      0x40\n        /* \"#utility.yul\":4331:4349   */\n      dup3\n      add\n        /* \"#utility.yul\":4324:4385   */\n      mstore\n        /* \"#utility.yul\":4417:4419   */\n      0x60\n        /* \"#utility.yul\":4402:4420   */\n      add\n      swap1\n        /* \"#utility.yul\":4071:4426   */\n      jump\t// out\n        /* \"#utility.yul\":4431:4549   */\n    tag_532:\n        /* \"#utility.yul\":4517:4522   */\n      dup1\n        /* \"#utility.yul\":4510:4523   */\n      iszero\n        /* \"#utility.yul\":4503:4524   */\n      iszero\n        /* \"#utility.yul\":4496:4501   */\n      dup2\n        /* \"#utility.yul\":4493:4525   */\n      eq\n        /* \"#utility.yul\":4483:4543   */\n      tag_326\n      jumpi\n        /* \"#utility.yul\":4539:4540   */\n      0x00\n        /* \"#utility.yul\":4536:4537   */\n      dup1\n        /* \"#utility.yul\":4529:4541   */\n      revert\n        /* \"#utility.yul\":4554:4682   */\n    tag_533:\n        /* \"#utility.yul\":4619:4639   */\n      dup1\n      calldataload\n        /* \"#utility.yul\":4648:4676   */\n      tag_549\n        /* \"#utility.yul\":4619:4639   */\n      dup2\n        /* \"#utility.yul\":4648:4676   */\n      tag_532\n      jump\t// in\n        /* \"#utility.yul\":4687:4928   */\n    tag_133:\n        /* \"#utility.yul\":4743:4749   */\n      0x00\n        /* \"#utility.yul\":4796:4798   */\n      0x20\n        /* \"#utility.yul\":4784:4793   */\n      dup3\n        /* \"#utility.yul\":4775:4782   */\n      dup5\n        /* \"#utility.yul\":4771:4794   */\n      sub\n        /* \"#utility.yul\":4767:4799   */\n      slt\n        /* \"#utility.yul\":4764:4816   */\n      iszero\n      tag_584\n      jumpi\n        /* \"#utility.yul\":4812:4813   */\n      0x00\n        /* \"#utility.yul\":4809:4810   */\n      dup1\n        /* \"#utility.yul\":4802:4814   */\n      revert\n        /* \"#utility.yul\":4764:4816   */\n    tag_584:\n        /* \"#utility.yul\":4851:4860   */\n      dup2\n        /* \"#utility.yul\":4838:4861   */\n      calldataload\n        /* \"#utility.yul\":4870:4898   */\n      tag_503\n        /* \"#utility.yul\":4892:4897   */\n      dup2\n        /* \"#utility.yul\":4870:4898   */\n      tag_532\n      jump\t// in\n        /* \"#utility.yul\":4933:5279   */\n    tag_138:\n        /* \"#utility.yul\":5135:5137   */\n      0x20\n        /* \"#utility.yul\":5117:5138   */\n      dup1\n      dup3\n      mstore\n        /* \"#utility.yul\":5174:5176   */\n      0x16\n        /* \"#utility.yul\":5154:5172   */\n      swap1\n      dup3\n      add\n        /* \"#utility.yul\":5147:5177   */\n      mstore\n      shl(0x50, 0x4572726f722041626f7574204f726465722053696465)\n        /* \"#utility.yul\":5208:5210   */\n      0x40\n        /* \"#utility.yul\":5193:5211   */\n      dup3\n      add\n        /* \"#utility.yul\":5186:5238   */\n      mstore\n        /* \"#utility.yul\":5270:5272   */\n      0x60\n        /* \"#utility.yul\":5255:5273   */\n      add\n      swap1\n        /* \"#utility.yul\":4933:5279   */\n      jump\t// out\n        /* \"#utility.yul\":5284:5632   */\n    tag_142:\n        /* \"#utility.yul\":5486:5488   */\n      0x20\n        /* \"#utility.yul\":5468:5489   */\n      dup1\n      dup3\n      mstore\n        /* \"#utility.yul\":5525:5527   */\n      0x18\n        /* \"#utility.yul\":5505:5523   */\n      swap1\n      dup3\n      add\n        /* \"#utility.yul\":5498:5528   */\n      mstore\n        /* \"#utility.yul\":5564:5590   */\n      0x4f72646572206d757374206265207468652073656e6465720000000000000000\n        /* \"#utility.yul\":5559:5561   */\n      0x40\n        /* \"#utility.yul\":5544:5562   */\n      dup3\n      add\n        /* \"#utility.yul\":5537:5591   */\n      mstore\n        /* \"#utility.yul\":5623:5625   */\n      0x60\n        /* \"#utility.yul\":5608:5626   */\n      add\n      swap1\n        /* \"#utility.yul\":5284:5632   */\n      jump\t// out\n        /* \"#utility.yul\":5637:5764   */\n    tag_534:\n        /* \"#utility.yul\":5698:5708   */\n      0x4e487b71\n        /* \"#utility.yul\":5693:5696   */\n      0xe0\n        /* \"#utility.yul\":5689:5709   */\n      shl\n        /* \"#utility.yul\":5686:5687   */\n      0x00\n        /* \"#utility.yul\":5679:5710   */\n      mstore\n        /* \"#utility.yul\":5729:5733   */\n      0x41\n        /* \"#utility.yul\":5726:5727   */\n      0x04\n        /* \"#utility.yul\":5719:5734   */\n      mstore\n        /* \"#utility.yul\":5753:5757   */\n      0x24\n        /* \"#utility.yul\":5750:5751   */\n      0x00\n        /* \"#utility.yul\":5743:5758   */\n      revert\n        /* \"#utility.yul\":5769:6019   */\n    tag_535:\n        /* \"#utility.yul\":5836:5838   */\n      0x40\n        /* \"#utility.yul\":5830:5839   */\n      mload\n        /* \"#utility.yul\":5878:5884   */\n      0x0200\n        /* \"#utility.yul\":5866:5885   */\n      dup2\n      add\n        /* \"#utility.yul\":5915:5933   */\n      0xffffffffffffffff\n        /* \"#utility.yul\":5900:5934   */\n      dup2\n      gt\n        /* \"#utility.yul\":5936:5958   */\n      dup3\n      dup3\n      lt\n        /* \"#utility.yul\":5897:5959   */\n      or\n        /* \"#utility.yul\":5894:5982   */\n      iszero\n      tag_591\n      jumpi\n        /* \"#utility.yul\":5962:5980   */\n      tag_591\n      tag_534\n      jump\t// in\n    tag_591:\n        /* \"#utility.yul\":5998:6000   */\n      0x40\n        /* \"#utility.yul\":5991:6013   */\n      mstore\n        /* \"#utility.yul\":5769:6019   */\n      swap1\n      jump\t// out\n        /* \"#utility.yul\":6024:6742   */\n    tag_536:\n        /* \"#utility.yul\":6066:6071   */\n      0x00\n        /* \"#utility.yul\":6119:6122   */\n      dup3\n        /* \"#utility.yul\":6112:6116   */\n      0x1f\n        /* \"#utility.yul\":6104:6110   */\n      dup4\n        /* \"#utility.yul\":6100:6117   */\n      add\n        /* \"#utility.yul\":6096:6123   */\n      slt\n        /* \"#utility.yul\":6086:6141   */\n      tag_593\n      jumpi\n        /* \"#utility.yul\":6137:6138   */\n      0x00\n        /* \"#utility.yul\":6134:6135   */\n      dup1\n        /* \"#utility.yul\":6127:6139   */\n      revert\n        /* \"#utility.yul\":6086:6141   */\n    tag_593:\n        /* \"#utility.yul\":6173:6179   */\n      dup2\n        /* \"#utility.yul\":6160:6180   */\n      calldataload\n        /* \"#utility.yul\":6199:6217   */\n      0xffffffffffffffff\n        /* \"#utility.yul\":6236:6238   */\n      dup1\n        /* \"#utility.yul\":6232:6234   */\n      dup3\n        /* \"#utility.yul\":6229:6239   */\n      gt\n        /* \"#utility.yul\":6226:6262   */\n      iszero\n      tag_595\n      jumpi\n        /* \"#utility.yul\":6242:6260   */\n      tag_595\n      tag_534\n      jump\t// in\n    tag_595:\n        /* \"#utility.yul\":6317:6319   */\n      0x40\n        /* \"#utility.yul\":6311:6320   */\n      mload\n        /* \"#utility.yul\":6285:6287   */\n      0x1f\n        /* \"#utility.yul\":6371:6384   */\n      dup4\n      add\n      not(0x1f)\n        /* \"#utility.yul\":6367:6389   */\n      swap1\n      dup2\n      and\n        /* \"#utility.yul\":6391:6393   */\n      0x3f\n        /* \"#utility.yul\":6363:6394   */\n      add\n        /* \"#utility.yul\":6359:6399   */\n      and\n        /* \"#utility.yul\":6347:6400   */\n      dup2\n      add\n      swap1\n        /* \"#utility.yul\":6415:6433   */\n      dup3\n      dup3\n      gt\n        /* \"#utility.yul\":6435:6457   */\n      dup2\n      dup4\n      lt\n        /* \"#utility.yul\":6412:6458   */\n      or\n        /* \"#utility.yul\":6409:6481   */\n      iszero\n      tag_597\n      jumpi\n        /* \"#utility.yul\":6461:6479   */\n      tag_597\n      tag_534\n      jump\t// in\n    tag_597:\n        /* \"#utility.yul\":6501:6511   */\n      dup2\n        /* \"#utility.yul\":6497:6499   */\n      0x40\n        /* \"#utility.yul\":6490:6512   */\n      mstore\n        /* \"#utility.yul\":6536:6538   */\n      dup4\n        /* \"#utility.yul\":6528:6534   */\n      dup2\n        /* \"#utility.yul\":6521:6539   */\n      mstore\n        /* \"#utility.yul\":6582:6585   */\n      dup7\n        /* \"#utility.yul\":6575:6579   */\n      0x20\n        /* \"#utility.yul\":6570:6572   */\n      dup6\n        /* \"#utility.yul\":6562:6568   */\n      dup9\n        /* \"#utility.yul\":6558:6573   */\n      add\n        /* \"#utility.yul\":6554:6580   */\n      add\n        /* \"#utility.yul\":6551:6586   */\n      gt\n        /* \"#utility.yul\":6548:6603   */\n      iszero\n      tag_598\n      jumpi\n        /* \"#utility.yul\":6599:6600   */\n      0x00\n        /* \"#utility.yul\":6596:6597   */\n      dup1\n        /* \"#utility.yul\":6589:6601   */\n      revert\n        /* \"#utility.yul\":6548:6603   */\n    tag_598:\n        /* \"#utility.yul\":6663:6665   */\n      dup4\n        /* \"#utility.yul\":6656:6660   */\n      0x20\n        /* \"#utility.yul\":6648:6654   */\n      dup8\n        /* \"#utility.yul\":6644:6661   */\n      add\n        /* \"#utility.yul\":6637:6641   */\n      0x20\n        /* \"#utility.yul\":6629:6635   */\n      dup4\n        /* \"#utility.yul\":6625:6642   */\n      add\n        /* \"#utility.yul\":6612:6666   */\n      calldatacopy\n        /* \"#utility.yul\":6710:6711   */\n      0x00\n        /* \"#utility.yul\":6703:6707   */\n      0x20\n        /* \"#utility.yul\":6698:6700   */\n      dup6\n        /* \"#utility.yul\":6690:6696   */\n      dup4\n        /* \"#utility.yul\":6686:6701   */\n      add\n        /* \"#utility.yul\":6682:6708   */\n      add\n        /* \"#utility.yul\":6675:6712   */\n      mstore\n        /* \"#utility.yul\":6730:6736   */\n      dup1\n        /* \"#utility.yul\":6721:6736   */\n      swap5\n      pop\n      pop\n      pop\n      pop\n      pop\n        /* \"#utility.yul\":6024:6742   */\n      swap3\n      swap2\n      pop\n      pop\n      jump\t// out\n        /* \"#utility.yul\":6747:6903   */\n    tag_537:\n        /* \"#utility.yul\":6813:6833   */\n      dup1\n      calldataload\n        /* \"#utility.yul\":6873:6877   */\n      0xff\n        /* \"#utility.yul\":6862:6878   */\n      dup2\n      and\n        /* \"#utility.yul\":6852:6879   */\n      dup2\n      eq\n        /* \"#utility.yul\":6842:6897   */\n      tag_549\n      jumpi\n        /* \"#utility.yul\":6893:6894   */\n      0x00\n        /* \"#utility.yul\":6890:6891   */\n      dup1\n        /* \"#utility.yul\":6883:6895   */\n      revert\n        /* \"#utility.yul\":6908:8514   */\n    tag_145:\n        /* \"#utility.yul\":7016:7025   */\n      0x00\n        /* \"#utility.yul\":7075:7081   */\n      0x0200\n        /* \"#utility.yul\":7067:7072   */\n      dup3\n        /* \"#utility.yul\":7051:7065   */\n      calldatasize\n        /* \"#utility.yul\":7047:7073   */\n      sub\n        /* \"#utility.yul\":7043:7082   */\n      slt\n        /* \"#utility.yul\":7040:7099   */\n      iszero\n      tag_602\n      jumpi\n        /* \"#utility.yul\":7095:7096   */\n      0x00\n        /* \"#utility.yul\":7092:7093   */\n      dup1\n        /* \"#utility.yul\":7085:7097   */\n      revert\n        /* \"#utility.yul\":7040:7099   */\n    tag_602:\n        /* \"#utility.yul\":7123:7140   */\n      tag_603\n      tag_535\n      jump\t// in\n    tag_603:\n        /* \"#utility.yul\":7165:7187   */\n      tag_604\n        /* \"#utility.yul\":7181:7186   */\n      dup4\n        /* \"#utility.yul\":7165:7187   */\n      tag_533\n      jump\t// in\n    tag_604:\n        /* \"#utility.yul\":7156:7163   */\n      dup2\n        /* \"#utility.yul\":7149:7188   */\n      mstore\n        /* \"#utility.yul\":7222:7256   */\n      tag_605\n        /* \"#utility.yul\":7252:7254   */\n      0x20\n        /* \"#utility.yul\":7245:7250   */\n      dup5\n        /* \"#utility.yul\":7241:7255   */\n      add\n        /* \"#utility.yul\":7222:7256   */\n      tag_529\n      jump\t// in\n    tag_605:\n        /* \"#utility.yul\":7217:7219   */\n      0x20\n        /* \"#utility.yul\":7208:7215   */\n      dup3\n        /* \"#utility.yul\":7204:7220   */\n      add\n        /* \"#utility.yul\":7197:7257   */\n      mstore\n        /* \"#utility.yul\":7291:7325   */\n      tag_606\n        /* \"#utility.yul\":7321:7323   */\n      0x40\n        /* \"#utility.yul\":7314:7319   */\n      dup5\n        /* \"#utility.yul\":7310:7324   */\n      add\n        /* \"#utility.yul\":7291:7325   */\n      tag_529\n      jump\t// in\n    tag_606:\n        /* \"#utility.yul\":7286:7288   */\n      0x40\n        /* \"#utility.yul\":7277:7284   */\n      dup3\n        /* \"#utility.yul\":7273:7289   */\n      add\n        /* \"#utility.yul\":7266:7326   */\n      mstore\n        /* \"#utility.yul\":7384:7386   */\n      0x60\n        /* \"#utility.yul\":7377:7382   */\n      dup4\n        /* \"#utility.yul\":7373:7387   */\n      add\n        /* \"#utility.yul\":7360:7388   */\n      calldataload\n        /* \"#utility.yul\":7355:7357   */\n      0x60\n        /* \"#utility.yul\":7346:7353   */\n      dup3\n        /* \"#utility.yul\":7342:7358   */\n      add\n        /* \"#utility.yul\":7335:7389   */\n      mstore\n        /* \"#utility.yul\":7448:7451   */\n      0x80\n        /* \"#utility.yul\":7441:7446   */\n      dup4\n        /* \"#utility.yul\":7437:7452   */\n      add\n        /* \"#utility.yul\":7424:7453   */\n      calldataload\n        /* \"#utility.yul\":7418:7421   */\n      0x80\n        /* \"#utility.yul\":7409:7416   */\n      dup3\n        /* \"#utility.yul\":7405:7422   */\n      add\n        /* \"#utility.yul\":7398:7454   */\n      mstore\n        /* \"#utility.yul\":7513:7516   */\n      0xa0\n        /* \"#utility.yul\":7506:7511   */\n      dup4\n        /* \"#utility.yul\":7502:7517   */\n      add\n        /* \"#utility.yul\":7489:7518   */\n      calldataload\n        /* \"#utility.yul\":7483:7486   */\n      0xa0\n        /* \"#utility.yul\":7474:7481   */\n      dup3\n        /* \"#utility.yul\":7470:7487   */\n      add\n        /* \"#utility.yul\":7463:7519   */\n      mstore\n        /* \"#utility.yul\":7554:7589   */\n      tag_607\n        /* \"#utility.yul\":7584:7587   */\n      0xc0\n        /* \"#utility.yul\":7577:7582   */\n      dup5\n        /* \"#utility.yul\":7573:7588   */\n      add\n        /* \"#utility.yul\":7554:7589   */\n      tag_529\n      jump\t// in\n    tag_607:\n        /* \"#utility.yul\":7548:7551   */\n      0xc0\n        /* \"#utility.yul\":7539:7546   */\n      dup3\n        /* \"#utility.yul\":7535:7552   */\n      add\n        /* \"#utility.yul\":7528:7590   */\n      mstore\n        /* \"#utility.yul\":7625:7660   */\n      tag_608\n        /* \"#utility.yul\":7655:7658   */\n      0xe0\n        /* \"#utility.yul\":7648:7653   */\n      dup5\n        /* \"#utility.yul\":7644:7659   */\n      add\n        /* \"#utility.yul\":7625:7660   */\n      tag_529\n      jump\t// in\n    tag_608:\n        /* \"#utility.yul\":7619:7622   */\n      0xe0\n        /* \"#utility.yul\":7606:7623   */\n      dup3\n      add\n        /* \"#utility.yul\":7599:7661   */\n      mstore\n        /* \"#utility.yul\":7680:7683   */\n      0x0100\n        /* \"#utility.yul\":7730:7744   */\n      dup4\n      dup2\n      add\n        /* \"#utility.yul\":7717:7745   */\n      calldataload\n        /* \"#utility.yul\":7699:7715   */\n      swap1\n      dup3\n      add\n        /* \"#utility.yul\":7692:7746   */\n      mstore\n        /* \"#utility.yul\":7765:7768   */\n      0x0120\n        /* \"#utility.yul\":7815:7829   */\n      dup1\n      dup5\n      add\n        /* \"#utility.yul\":7802:7830   */\n      calldataload\n        /* \"#utility.yul\":7784:7800   */\n      swap1\n      dup3\n      add\n        /* \"#utility.yul\":7777:7831   */\n      mstore\n        /* \"#utility.yul\":7850:7853   */\n      0x0140\n        /* \"#utility.yul\":7900:7914   */\n      dup1\n      dup5\n      add\n        /* \"#utility.yul\":7887:7915   */\n      calldataload\n        /* \"#utility.yul\":7869:7885   */\n      swap1\n      dup3\n      add\n        /* \"#utility.yul\":7862:7916   */\n      mstore\n        /* \"#utility.yul\":7935:7938   */\n      0x0160\n        /* \"#utility.yul\":7985:7999   */\n      dup1\n      dup5\n      add\n        /* \"#utility.yul\":7972:8000   */\n      calldataload\n        /* \"#utility.yul\":7954:7970   */\n      swap1\n      dup3\n      add\n        /* \"#utility.yul\":7947:8001   */\n      mstore\n        /* \"#utility.yul\":8020:8023   */\n      0x0180\n        /* \"#utility.yul\":8059:8073   */\n      dup1\n      dup5\n      add\n        /* \"#utility.yul\":8046:8074   */\n      calldataload\n        /* \"#utility.yul\":8097:8115   */\n      0xffffffffffffffff\n        /* \"#utility.yul\":8086:8116   */\n      dup2\n      gt\n        /* \"#utility.yul\":8083:8133   */\n      iszero\n      tag_609\n      jumpi\n        /* \"#utility.yul\":8129:8130   */\n      0x00\n        /* \"#utility.yul\":8126:8127   */\n      dup1\n        /* \"#utility.yul\":8119:8131   */\n      revert\n        /* \"#utility.yul\":8083:8133   */\n    tag_609:\n        /* \"#utility.yul\":8167:8219   */\n      tag_610\n        /* \"#utility.yul\":8204:8218   */\n      calldatasize\n        /* \"#utility.yul\":8195:8201   */\n      dup3\n        /* \"#utility.yul\":8188:8193   */\n      dup8\n        /* \"#utility.yul\":8184:8202   */\n      add\n        /* \"#utility.yul\":8167:8219   */\n      tag_536\n      jump\t// in\n    tag_610:\n        /* \"#utility.yul\":8162:8164   */\n      dup3\n        /* \"#utility.yul\":8153:8160   */\n      dup5\n        /* \"#utility.yul\":8149:8165   */\n      add\n        /* \"#utility.yul\":8142:8220   */\n      mstore\n      pop\n      pop\n        /* \"#utility.yul\":8239:8242   */\n      0x01a0\n        /* \"#utility.yul\":8276:8308   */\n      tag_611\n        /* \"#utility.yul\":8304:8306   */\n      dup2\n        /* \"#utility.yul\":8297:8302   */\n      dup6\n        /* \"#utility.yul\":8293:8307   */\n      add\n        /* \"#utility.yul\":8276:8308   */\n      tag_537\n      jump\t// in\n    tag_611:\n        /* \"#utility.yul\":8258:8274   */\n      swap1\n      dup3\n      add\n        /* \"#utility.yul\":8251:8309   */\n      mstore\n        /* \"#utility.yul\":8328:8331   */\n      0x01c0\n        /* \"#utility.yul\":8378:8392   */\n      dup4\n      dup2\n      add\n        /* \"#utility.yul\":8365:8393   */\n      calldataload\n        /* \"#utility.yul\":8347:8363   */\n      swap1\n      dup3\n      add\n        /* \"#utility.yul\":8340:8394   */\n      mstore\n        /* \"#utility.yul\":8413:8416   */\n      0x01e0\n        /* \"#utility.yul\":8463:8477   */\n      swap3\n      dup4\n      add\n        /* \"#utility.yul\":8450:8478   */\n      calldataload\n        /* \"#utility.yul\":8432:8448   */\n      swap3\n      dup2\n      add\n        /* \"#utility.yul\":8425:8479   */\n      swap3\n      swap1\n      swap3\n      mstore\n      pop\n        /* \"#utility.yul\":8262:8269   */\n      swap1\n        /* \"#utility.yul\":6908:8514   */\n      jump\t// out\n        /* \"#utility.yul\":8519:9019   */\n    tag_538:\n        /* \"#utility.yul\":8577:8582   */\n      0x00\n        /* \"#utility.yul\":8584:8590   */\n      dup1\n        /* \"#utility.yul\":8644:8647   */\n      dup4\n        /* \"#utility.yul\":8631:8648   */\n      calldataload\n        /* \"#utility.yul\":8730:8732   */\n      0x1e\n        /* \"#utility.yul\":8726:8733   */\n      not\n        /* \"#utility.yul\":8715:8723   */\n      dup5\n        /* \"#utility.yul\":8699:8713   */\n      calldatasize\n        /* \"#utility.yul\":8695:8724   */\n      sub\n        /* \"#utility.yul\":8691:8734   */\n      add\n        /* \"#utility.yul\":8671:8689   */\n      dup2\n        /* \"#utility.yul\":8667:8735   */\n      slt\n        /* \"#utility.yul\":8657:8753   */\n      tag_613\n      jumpi\n        /* \"#utility.yul\":8749:8750   */\n      0x00\n        /* \"#utility.yul\":8746:8747   */\n      dup1\n        /* \"#utility.yul\":8739:8751   */\n      revert\n        /* \"#utility.yul\":8657:8753   */\n    tag_613:\n        /* \"#utility.yul\":8777:8810   */\n      dup4\n      add\n        /* \"#utility.yul\":8881:8885   */\n      0x20\n        /* \"#utility.yul\":8868:8886   */\n      dup2\n      add\n      swap3\n      pop\n        /* \"#utility.yul\":8829:8850   */\n      calldataload\n      swap1\n      pop\n        /* \"#utility.yul\":8909:8927   */\n      0xffffffffffffffff\n        /* \"#utility.yul\":8898:8928   */\n      dup2\n      gt\n        /* \"#utility.yul\":8895:8945   */\n      iszero\n      tag_614\n      jumpi\n        /* \"#utility.yul\":8941:8942   */\n      0x00\n        /* \"#utility.yul\":8938:8939   */\n      dup1\n        /* \"#utility.yul\":8931:8943   */\n      revert\n        /* \"#utility.yul\":8895:8945   */\n    tag_614:\n        /* \"#utility.yul\":8988:8994   */\n      dup1\n        /* \"#utility.yul\":8972:8986   */\n      calldatasize\n        /* \"#utility.yul\":8968:8995   */\n      sub\n        /* \"#utility.yul\":8961:8966   */\n      dup3\n        /* \"#utility.yul\":8957:8996   */\n      sgt\n        /* \"#utility.yul\":8954:9013   */\n      iszero\n      tag_615\n      jumpi\n        /* \"#utility.yul\":9009:9010   */\n      0x00\n        /* \"#utility.yul\":9006:9007   */\n      dup1\n        /* \"#utility.yul\":8999:9011   */\n      revert\n        /* \"#utility.yul\":8954:9013   */\n    tag_615:\n        /* \"#utility.yul\":8519:9019   */\n      swap3\n      pop\n      swap3\n      swap1\n      pop\n      jump\t// out\n        /* \"#utility.yul\":9024:9290   */\n    tag_539:\n        /* \"#utility.yul\":9112:9118   */\n      dup2\n        /* \"#utility.yul\":9107:9110   */\n      dup4\n        /* \"#utility.yul\":9100:9119   */\n      mstore\n        /* \"#utility.yul\":9164:9170   */\n      dup2\n        /* \"#utility.yul\":9157:9162   */\n      dup2\n        /* \"#utility.yul\":9150:9154   */\n      0x20\n        /* \"#utility.yul\":9145:9148   */\n      dup6\n        /* \"#utility.yul\":9141:9155   */\n      add\n        /* \"#utility.yul\":9128:9171   */\n      calldatacopy\n      pop\n        /* \"#utility.yul\":9216:9217   */\n      0x00\n        /* \"#utility.yul\":9191:9207   */\n      dup3\n      dup3\n      add\n        /* \"#utility.yul\":9209:9213   */\n      0x20\n        /* \"#utility.yul\":9187:9214   */\n      swap1\n      dup2\n      add\n        /* \"#utility.yul\":9180:9218   */\n      swap2\n      swap1\n      swap2\n      mstore\n        /* \"#utility.yul\":9272:9274   */\n      0x1f\n        /* \"#utility.yul\":9251:9266   */\n      swap1\n      swap2\n      add\n      not(0x1f)\n        /* \"#utility.yul\":9247:9276   */\n      and\n        /* \"#utility.yul\":9238:9277   */\n      swap1\n      swap2\n      add\n        /* \"#utility.yul\":9234:9284   */\n      add\n      swap1\n        /* \"#utility.yul\":9024:9290   */\n      jump\t// out\n        /* \"#utility.yul\":9375:12149   */\n    tag_151:\n        /* \"#utility.yul\":9648:9650   */\n      0x40\n        /* \"#utility.yul\":9637:9646   */\n      dup2\n        /* \"#utility.yul\":9630:9651   */\n      mstore\n        /* \"#utility.yul\":9611:9615   */\n      0x00\n        /* \"#utility.yul\":9670:9673   */\n      0x0100\n        /* \"#utility.yul\":9708:9714   */\n      dup5\n        /* \"#utility.yul\":9695:9715   */\n      calldataload\n        /* \"#utility.yul\":9724:9752   */\n      tag_619\n        /* \"#utility.yul\":9746:9751   */\n      dup2\n        /* \"#utility.yul\":9724:9752   */\n      tag_532\n      jump\t// in\n    tag_619:\n        /* \"#utility.yul\":9795:9808   */\n      iszero\n        /* \"#utility.yul\":9788:9809   */\n      iszero\n        /* \"#utility.yul\":9783:9785   */\n      0x40\n        /* \"#utility.yul\":9768:9786   */\n      dup5\n      add\n        /* \"#utility.yul\":9761:9810   */\n      mstore\n        /* \"#utility.yul\":9859:9863   */\n      0x20\n        /* \"#utility.yul\":9847:9864   */\n      dup6\n      add\n        /* \"#utility.yul\":9834:9865   */\n      calldataload\n        /* \"#utility.yul\":9874:9907   */\n      tag_620\n        /* \"#utility.yul\":9834:9865   */\n      dup2\n        /* \"#utility.yul\":9874:9907   */\n      tag_528\n      jump\t// in\n    tag_620:\n        /* \"#utility.yul\":9973:9974   */\n      0x01\n        /* \"#utility.yul\":9969:9970   */\n      dup1\n        /* \"#utility.yul\":9964:9967   */\n      0xa0\n        /* \"#utility.yul\":9960:9971   */\n      shl\n        /* \"#utility.yul\":9956:9975   */\n      sub\n        /* \"#utility.yul\":9947:9954   */\n      dup2\n        /* \"#utility.yul\":9943:9976   */\n      and\n        /* \"#utility.yul\":9938:9940   */\n      0x60\n        /* \"#utility.yul\":9927:9936   */\n      dup6\n        /* \"#utility.yul\":9923:9941   */\n      add\n        /* \"#utility.yul\":9916:9977   */\n      mstore\n      pop\n        /* \"#utility.yul\":10039:10041   */\n      0x40\n        /* \"#utility.yul\":10031:10037   */\n      dup6\n        /* \"#utility.yul\":10027:10042   */\n      add\n        /* \"#utility.yul\":10014:10043   */\n      calldataload\n        /* \"#utility.yul\":10008:10011   */\n      0x80\n        /* \"#utility.yul\":9997:10006   */\n      dup5\n        /* \"#utility.yul\":9993:10012   */\n      add\n        /* \"#utility.yul\":9986:10044   */\n      mstore\n        /* \"#utility.yul\":10106:10108   */\n      0x60\n        /* \"#utility.yul\":10098:10104   */\n      dup6\n        /* \"#utility.yul\":10094:10109   */\n      add\n        /* \"#utility.yul\":10081:10110   */\n      calldataload\n        /* \"#utility.yul\":10075:10078   */\n      0xa0\n        /* \"#utility.yul\":10064:10073   */\n      dup5\n        /* \"#utility.yul\":10060:10079   */\n      add\n        /* \"#utility.yul\":10053:10111   */\n      mstore\n        /* \"#utility.yul\":10174:10177   */\n      0x80\n        /* \"#utility.yul\":10166:10172   */\n      dup6\n        /* \"#utility.yul\":10162:10178   */\n      add\n        /* \"#utility.yul\":10149:10179   */\n      calldataload\n        /* \"#utility.yul\":10142:10146   */\n      0xc0\n        /* \"#utility.yul\":10131:10140   */\n      dup5\n        /* \"#utility.yul\":10127:10147   */\n      add\n        /* \"#utility.yul\":10120:10180   */\n      mstore\n        /* \"#utility.yul\":10223:10279   */\n      tag_621\n        /* \"#utility.yul\":10274:10277   */\n      0xa0\n        /* \"#utility.yul\":10266:10272   */\n      dup7\n        /* \"#utility.yul\":10262:10278   */\n      add\n        /* \"#utility.yul\":10254:10260   */\n      dup7\n        /* \"#utility.yul\":10223:10279   */\n      tag_538\n      jump\t// in\n    tag_621:\n        /* \"#utility.yul\":10316:10320   */\n      0xc0\n        /* \"#utility.yul\":10310:10313   */\n      0xe0\n        /* \"#utility.yul\":10299:10308   */\n      dup7\n        /* \"#utility.yul\":10295:10314   */\n      add\n        /* \"#utility.yul\":10288:10321   */\n      mstore\n        /* \"#utility.yul\":10341:10414   */\n      tag_622\n        /* \"#utility.yul\":10410:10412   */\n      dup4\n        /* \"#utility.yul\":10399:10408   */\n      dup7\n        /* \"#utility.yul\":10395:10413   */\n      add\n        /* \"#utility.yul\":10381:10393   */\n      dup3\n        /* \"#utility.yul\":10367:10379   */\n      dup5\n        /* \"#utility.yul\":10341:10414   */\n      tag_539\n      jump\t// in\n    tag_622:\n        /* \"#utility.yul\":10330:10414   */\n      swap2\n      pop\n      pop\n        /* \"#utility.yul\":10461:10470   */\n      dup4\n        /* \"#utility.yul\":10456:10459   */\n      dup2\n        /* \"#utility.yul\":10452:10471   */\n      sub\n        /* \"#utility.yul\":10445:10449   */\n      0x20\n        /* \"#utility.yul\":10434:10443   */\n      dup6\n        /* \"#utility.yul\":10430:10450   */\n      add\n        /* \"#utility.yul\":10423:10472   */\n      mstore\n        /* \"#utility.yul\":10491:10497   */\n      0x0200\n        /* \"#utility.yul\":10506:10551   */\n      tag_623\n        /* \"#utility.yul\":10547:10550   */\n      dup3\n        /* \"#utility.yul\":10522:10545   */\n      tag_624\n        /* \"#utility.yul\":10538:10544   */\n      dup9\n        /* \"#utility.yul\":10522:10545   */\n      tag_533\n      jump\t// in\n    tag_624:\n        /* \"#utility.yul\":1166:1179   */\n      iszero\n        /* \"#utility.yul\":1159:1180   */\n      iszero\n        /* \"#utility.yul\":1147:1181   */\n      swap1\n      mstore\n        /* \"#utility.yul\":1096:1187   */\n      jump\n        /* \"#utility.yul\":10506:10551   */\n    tag_623:\n        /* \"#utility.yul\":10582:10619   */\n      tag_625\n        /* \"#utility.yul\":10613:10617   */\n      0x20\n        /* \"#utility.yul\":10605:10611   */\n      dup8\n        /* \"#utility.yul\":10601:10618   */\n      add\n        /* \"#utility.yul\":10582:10619   */\n      tag_529\n      jump\t// in\n    tag_625:\n      sub(shl(0xa0, 0x01), 0x01)\n        /* \"#utility.yul\":2781:2812   */\n      and\n        /* \"#utility.yul\":10672:10676   */\n      0x20\n        /* \"#utility.yul\":10663:10677   */\n      dup4\n      add\n        /* \"#utility.yul\":2769:2813   */\n      mstore\n        /* \"#utility.yul\":10709:10744   */\n      tag_627\n        /* \"#utility.yul\":10740:10742   */\n      0x40\n        /* \"#utility.yul\":10728:10743   */\n      dup8\n      add\n        /* \"#utility.yul\":10709:10744   */\n      tag_529\n      jump\t// in\n    tag_627:\n      sub(shl(0xa0, 0x01), 0x01)\n        /* \"#utility.yul\":2781:2812   */\n      dup2\n      and\n        /* \"#utility.yul\":10797:10799   */\n      0x40\n        /* \"#utility.yul\":10788:10800   */\n      dup5\n      add\n        /* \"#utility.yul\":2769:2813   */\n      mstore\n        /* \"#utility.yul\":10753:10801   */\n      pop\n        /* \"#utility.yul\":10856:10858   */\n      0x60\n        /* \"#utility.yul\":10848:10854   */\n      dup7\n        /* \"#utility.yul\":10844:10859   */\n      add\n        /* \"#utility.yul\":10831:10860   */\n      calldataload\n        /* \"#utility.yul\":10826:10828   */\n      0x60\n        /* \"#utility.yul\":10821:10824   */\n      dup4\n        /* \"#utility.yul\":10817:10829   */\n      add\n        /* \"#utility.yul\":10810:10861   */\n      mstore\n        /* \"#utility.yul\":10917:10920   */\n      0x80\n        /* \"#utility.yul\":10909:10915   */\n      dup7\n        /* \"#utility.yul\":10905:10921   */\n      add\n        /* \"#utility.yul\":10892:10922   */\n      calldataload\n        /* \"#utility.yul\":10886:10889   */\n      0x80\n        /* \"#utility.yul\":10881:10884   */\n      dup4\n        /* \"#utility.yul\":10877:10890   */\n      add\n        /* \"#utility.yul\":10870:10923   */\n      mstore\n        /* \"#utility.yul\":10979:10982   */\n      0xa0\n        /* \"#utility.yul\":10971:10977   */\n      dup7\n        /* \"#utility.yul\":10967:10983   */\n      add\n        /* \"#utility.yul\":10954:10984   */\n      calldataload\n        /* \"#utility.yul\":10948:10951   */\n      0xa0\n        /* \"#utility.yul\":10943:10946   */\n      dup4\n        /* \"#utility.yul\":10939:10952   */\n      add\n        /* \"#utility.yul\":10932:10985   */\n      mstore\n        /* \"#utility.yul\":11016:11053   */\n      tag_629\n        /* \"#utility.yul\":11047:11051   */\n      0xc0\n        /* \"#utility.yul\":11039:11045   */\n      dup8\n        /* \"#utility.yul\":11035:11052   */\n      add\n        /* \"#utility.yul\":11016:11053   */\n      tag_529\n      jump\t// in\n    tag_629:\n      sub(shl(0xa0, 0x01), 0x01)\n        /* \"#utility.yul\":2781:2812   */\n      and\n        /* \"#utility.yul\":11106:11110   */\n      0xc0\n        /* \"#utility.yul\":11097:11111   */\n      dup4\n      add\n        /* \"#utility.yul\":2769:2813   */\n      mstore\n        /* \"#utility.yul\":11143:11179   */\n      tag_631\n        /* \"#utility.yul\":11174:11177   */\n      0xe0\n        /* \"#utility.yul\":11162:11178   */\n      dup8\n      add\n        /* \"#utility.yul\":11143:11179   */\n      tag_529\n      jump\t// in\n    tag_631:\n      sub(shl(0xa0, 0x01), 0x01)\n        /* \"#utility.yul\":2781:2812   */\n      and\n        /* \"#utility.yul\":11232:11235   */\n      0xe0\n        /* \"#utility.yul\":11223:11236   */\n      dup4\n      add\n        /* \"#utility.yul\":2769:2813   */\n      mstore\n        /* \"#utility.yul\":11280:11295   */\n      dup3\n      dup7\n      add\n        /* \"#utility.yul\":11267:11296   */\n      calldataload\n        /* \"#utility.yul\":11253:11265   */\n      swap3\n      dup3\n      add\n        /* \"#utility.yul\":11246:11297   */\n      swap3\n      swap1\n      swap3\n      mstore\n        /* \"#utility.yul\":11316:11322   */\n      0x0120\n        /* \"#utility.yul\":11365:11380   */\n      dup1\n      dup7\n      add\n        /* \"#utility.yul\":11352:11381   */\n      calldataload\n        /* \"#utility.yul\":11338:11350   */\n      swap1\n      dup3\n      add\n        /* \"#utility.yul\":11331:11382   */\n      mstore\n        /* \"#utility.yul\":11401:11407   */\n      0x0140\n        /* \"#utility.yul\":11450:11465   */\n      dup1\n      dup7\n      add\n        /* \"#utility.yul\":11437:11466   */\n      calldataload\n        /* \"#utility.yul\":11423:11435   */\n      swap1\n      dup3\n      add\n        /* \"#utility.yul\":11416:11467   */\n      mstore\n        /* \"#utility.yul\":11486:11492   */\n      0x0160\n        /* \"#utility.yul\":11535:11550   */\n      dup1\n      dup7\n      add\n        /* \"#utility.yul\":11522:11551   */\n      calldataload\n        /* \"#utility.yul\":11508:11520   */\n      swap1\n      dup3\n      add\n        /* \"#utility.yul\":11501:11552   */\n      mstore\n        /* \"#utility.yul\":11571:11577   */\n      0x0180\n      swap2\n        /* \"#utility.yul\":11624:11679   */\n      tag_633\n        /* \"#utility.yul\":11663:11678   */\n      dup4\n      dup8\n      add\n        /* \"#utility.yul\":11280:11295   */\n      dup8\n        /* \"#utility.yul\":11624:11679   */\n      tag_538\n      jump\t// in\n    tag_633:\n        /* \"#utility.yul\":11709:11711   */\n      dup3\n        /* \"#utility.yul\":11704:11706   */\n      dup6\n        /* \"#utility.yul\":11699:11702   */\n      dup6\n        /* \"#utility.yul\":11695:11707   */\n      add\n        /* \"#utility.yul\":11688:11712   */\n      mstore\n        /* \"#utility.yul\":11735:11806   */\n      tag_634\n        /* \"#utility.yul\":11802:11804   */\n      dup4\n        /* \"#utility.yul\":11797:11800   */\n      dup6\n        /* \"#utility.yul\":11793:11805   */\n      add\n        /* \"#utility.yul\":11777:11791   */\n      dup3\n        /* \"#utility.yul\":11761:11775   */\n      dup5\n        /* \"#utility.yul\":11735:11806   */\n      tag_539\n      jump\t// in\n    tag_634:\n        /* \"#utility.yul\":11721:11806   */\n      swap5\n      pop\n      pop\n      pop\n      pop\n        /* \"#utility.yul\":11825:11831   */\n      0x01a0\n        /* \"#utility.yul\":11862:11895   */\n      tag_635\n        /* \"#utility.yul\":11891:11893   */\n      dup2\n        /* \"#utility.yul\":11883:11889   */\n      dup8\n        /* \"#utility.yul\":11879:11894   */\n      add\n        /* \"#utility.yul\":11862:11895   */\n      tag_537\n      jump\t// in\n    tag_635:\n        /* \"#utility.yul\":9362:9366   */\n      0xff\n        /* \"#utility.yul\":9351:9367   */\n      and\n        /* \"#utility.yul\":11937:11949   */\n      swap1\n      dup3\n      add\n        /* \"#utility.yul\":9339:9368   */\n      mstore\n        /* \"#utility.yul\":11969:11975   */\n      0x01c0\n        /* \"#utility.yul\":12018:12033   */\n      dup6\n      dup2\n      add\n        /* \"#utility.yul\":12005:12034   */\n      calldataload\n        /* \"#utility.yul\":11991:12003   */\n      swap1\n      dup3\n      add\n        /* \"#utility.yul\":11984:12035   */\n      mstore\n        /* \"#utility.yul\":12054:12060   */\n      0x01e0\n        /* \"#utility.yul\":12103:12118   */\n      swap5\n      dup6\n      add\n        /* \"#utility.yul\":12090:12119   */\n      calldataload\n        /* \"#utility.yul\":12076:12088   */\n      swap5\n      add\n        /* \"#utility.yul\":12069:12120   */\n      swap4\n      swap1\n      swap4\n      mstore\n      pop\n      swap1\n      swap3\n        /* \"#utility.yul\":12137:12143   */\n      swap2\n      pop\n      pop\n        /* \"#utility.yul\":9375:12149   */\n      jump\t// out\n        /* \"#utility.yul\":12154:12521   */\n    tag_155:\n        /* \"#utility.yul\":12239:12245   */\n      0x00\n        /* \"#utility.yul\":12247:12253   */\n      dup1\n        /* \"#utility.yul\":12255:12261   */\n      0x00\n        /* \"#utility.yul\":12308:12310   */\n      0x60\n        /* \"#utility.yul\":12296:12305   */\n      dup5\n        /* \"#utility.yul\":12287:12294   */\n      dup7\n        /* \"#utility.yul\":12283:12306   */\n      sub\n        /* \"#utility.yul\":12279:12311   */\n      slt\n        /* \"#utility.yul\":12276:12328   */\n      iszero\n      tag_638\n      jumpi\n        /* \"#utility.yul\":12324:12325   */\n      0x00\n        /* \"#utility.yul\":12321:12322   */\n      dup1\n        /* \"#utility.yul\":12314:12326   */\n      revert\n        /* \"#utility.yul\":12276:12328   */\n    tag_638:\n        /* \"#utility.yul\":12356:12365   */\n      dup4\n        /* \"#utility.yul\":12350:12366   */\n      mload\n        /* \"#utility.yul\":12375:12403   */\n      tag_639\n        /* \"#utility.yul\":12397:12402   */\n      dup2\n        /* \"#utility.yul\":12375:12403   */\n      tag_532\n      jump\t// in\n    tag_639:\n        /* \"#utility.yul\":12467:12469   */\n      0x20\n        /* \"#utility.yul\":12452:12470   */\n      dup6\n      add\n        /* \"#utility.yul\":12446:12471   */\n      mload\n        /* \"#utility.yul\":12511:12513   */\n      0x40\n        /* \"#utility.yul\":12496:12514   */\n      swap1\n      swap6\n      add\n        /* \"#utility.yul\":12490:12515   */\n      mload\n        /* \"#utility.yul\":12422:12427   */\n      swap1\n      swap7\n        /* \"#utility.yul\":12446:12471   */\n      swap5\n      swap6\n      pop\n        /* \"#utility.yul\":12490:12515   */\n      swap4\n        /* \"#utility.yul\":12154:12521   */\n      swap3\n      pop\n      pop\n      pop\n      jump\t// out\n        /* \"#utility.yul\":12526:12874   */\n    tag_158:\n        /* \"#utility.yul\":12728:12730   */\n      0x20\n        /* \"#utility.yul\":12710:12731   */\n      dup1\n      dup3\n      mstore\n        /* \"#utility.yul\":12767:12769   */\n      0x18\n        /* \"#utility.yul\":12747:12765   */\n      swap1\n      dup3\n      add\n        /* \"#utility.yul\":12740:12770   */\n      mstore\n        /* \"#utility.yul\":12806:12832   */\n      0x53747261746567792073686f756c642062652076616c69640000000000000000\n        /* \"#utility.yul\":12801:12803   */\n      0x40\n        /* \"#utility.yul\":12786:12804   */\n      dup3\n      add\n        /* \"#utility.yul\":12779:12833   */\n      mstore\n        /* \"#utility.yul\":12865:12867   */\n      0x60\n        /* \"#utility.yul\":12850:12868   */\n      add\n      swap1\n        /* \"#utility.yul\":12526:12874   */\n      jump\t// out\n        /* \"#utility.yul\":13897:14024   */\n    tag_541:\n        /* \"#utility.yul\":13958:13968   */\n      0x4e487b71\n        /* \"#utility.yul\":13953:13956   */\n      0xe0\n        /* \"#utility.yul\":13949:13969   */\n      shl\n        /* \"#utility.yul\":13946:13947   */\n      0x00\n        /* \"#utility.yul\":13939:13970   */\n      mstore\n        /* \"#utility.yul\":13989:13993   */\n      0x11\n        /* \"#utility.yul\":13986:13987   */\n      0x04\n        /* \"#utility.yul\":13979:13994   */\n      mstore\n        /* \"#utility.yul\":14013:14017   */\n      0x24\n        /* \"#utility.yul\":14010:14011   */\n      0x00\n        /* \"#utility.yul\":14003:14018   */\n      revert\n        /* \"#utility.yul\":14029:14157   */\n    tag_197:\n        /* \"#utility.yul\":14096:14105   */\n      dup2\n      dup2\n      sub\n        /* \"#utility.yul\":14117:14128   */\n      dup2\n      dup2\n      gt\n        /* \"#utility.yul\":14114:14151   */\n      iszero\n      tag_126\n      jumpi\n        /* \"#utility.yul\":14131:14149   */\n      tag_126\n      tag_541\n      jump\t// in\n        /* \"#utility.yul\":14512:14867   */\n    tag_237:\n        /* \"#utility.yul\":14714:14716   */\n      0x20\n        /* \"#utility.yul\":14696:14717   */\n      dup1\n      dup3\n      mstore\n        /* \"#utility.yul\":14753:14755   */\n      0x1f\n        /* \"#utility.yul\":14733:14751   */\n      swap1\n      dup3\n      add\n        /* \"#utility.yul\":14726:14756   */\n      mstore\n        /* \"#utility.yul\":14792:14825   */\n      0x43616e6e6f742075706461746520746f2061206e756c6c206164647265737300\n        /* \"#utility.yul\":14787:14789   */\n      0x40\n        /* \"#utility.yul\":14772:14790   */\n      dup3\n      add\n        /* \"#utility.yul\":14765:14826   */\n      mstore\n        /* \"#utility.yul\":14858:14860   */\n      0x60\n        /* \"#utility.yul\":14843:14861   */\n      add\n      swap1\n        /* \"#utility.yul\":14512:14867   */\n      jump\t// out\n        /* \"#utility.yul\":15228:15355   */\n    tag_291:\n        /* \"#utility.yul\":15289:15299   */\n      0x4e487b71\n        /* \"#utility.yul\":15284:15287   */\n      0xe0\n        /* \"#utility.yul\":15280:15300   */\n      shl\n        /* \"#utility.yul\":15277:15278   */\n      0x00\n        /* \"#utility.yul\":15270:15301   */\n      mstore\n        /* \"#utility.yul\":15320:15324   */\n      0x32\n        /* \"#utility.yul\":15317:15318   */\n      0x04\n        /* \"#utility.yul\":15310:15325   */\n      mstore\n        /* \"#utility.yul\":15344:15348   */\n      0x24\n        /* \"#utility.yul\":15341:15342   */\n      0x00\n        /* \"#utility.yul\":15334:15349   */\n      revert\n        /* \"#utility.yul\":15360:15768   */\n    tag_294:\n        /* \"#utility.yul\":15562:15564   */\n      0x20\n        /* \"#utility.yul\":15544:15565   */\n      dup1\n      dup3\n      mstore\n        /* \"#utility.yul\":15601:15603   */\n      0x2c\n        /* \"#utility.yul\":15581:15599   */\n      swap1\n      dup3\n      add\n        /* \"#utility.yul\":15574:15604   */\n      mstore\n        /* \"#utility.yul\":15640:15674   */\n      0x43616e63656c204f72646572206e6f6e63652063616e6e6f74206c6f77657220\n        /* \"#utility.yul\":15635:15637   */\n      0x40\n        /* \"#utility.yul\":15620:15638   */\n      dup3\n      add\n        /* \"#utility.yul\":15613:15675   */\n      mstore\n      shl(0xa2, 0x1d1a185b8818dd5c9c995b9d)\n        /* \"#utility.yul\":15706:15708   */\n      0x60\n        /* \"#utility.yul\":15691:15709   */\n      dup3\n      add\n        /* \"#utility.yul\":15684:15726   */\n      mstore\n        /* \"#utility.yul\":15758:15761   */\n      0x80\n        /* \"#utility.yul\":15743:15762   */\n      add\n      swap1\n        /* \"#utility.yul\":15360:15768   */\n      jump\t// out\n        /* \"#utility.yul\":15773:15908   */\n    tag_298:\n        /* \"#utility.yul\":15812:15815   */\n      0x00\n        /* \"#utility.yul\":15833:15850   */\n      0x01\n      dup3\n      add\n        /* \"#utility.yul\":15830:15873   */\n      tag_654\n      jumpi\n        /* \"#utility.yul\":15853:15871   */\n      tag_654\n      tag_541\n      jump\t// in\n    tag_654:\n      pop\n        /* \"#utility.yul\":15900:15901   */\n      0x01\n        /* \"#utility.yul\":15889:15902   */\n      add\n      swap1\n        /* \"#utility.yul\":15773:15908   */\n      jump\t// out\n        /* \"#utility.yul\":15913:16356   */\n    tag_300:\n        /* \"#utility.yul\":16102:16104   */\n      0x20\n        /* \"#utility.yul\":16084:16105   */\n      dup1\n      dup3\n      mstore\n        /* \"#utility.yul\":16121:16139   */\n      dup2\n      add\n        /* \"#utility.yul\":16114:16148   */\n      dup3\n      swap1\n      mstore\n      0x00\n      sub(shl(0xfb, 0x01), 0x01)\n        /* \"#utility.yul\":16160:16191   */\n      dup4\n      gt\n        /* \"#utility.yul\":16157:16208   */\n      iszero\n      tag_656\n      jumpi\n        /* \"#utility.yul\":16204:16205   */\n      0x00\n        /* \"#utility.yul\":16201:16202   */\n      dup1\n        /* \"#utility.yul\":16194:16206   */\n      revert\n        /* \"#utility.yul\":16157:16208   */\n    tag_656:\n        /* \"#utility.yul\":16238:16244   */\n      dup3\n        /* \"#utility.yul\":16235:16236   */\n      0x05\n        /* \"#utility.yul\":16231:16245   */\n      shl\n        /* \"#utility.yul\":16295:16301   */\n      dup1\n        /* \"#utility.yul\":16287:16293   */\n      dup6\n        /* \"#utility.yul\":16282:16284   */\n      0x40\n        /* \"#utility.yul\":16271:16280   */\n      dup6\n        /* \"#utility.yul\":16267:16285   */\n      add\n        /* \"#utility.yul\":16254:16302   */\n      calldatacopy\n        /* \"#utility.yul\":16323:16345   */\n      swap2\n      swap1\n      swap2\n      add\n        /* \"#utility.yul\":16347:16349   */\n      0x40\n        /* \"#utility.yul\":16319:16350   */\n      add\n      swap4\n        /* \"#utility.yul\":15913:16356   */\n      swap3\n      pop\n      pop\n      pop\n      jump\t// out\n        /* \"#utility.yul\":16361:16486   */\n    tag_310:\n        /* \"#utility.yul\":16426:16435   */\n      dup1\n      dup3\n      add\n        /* \"#utility.yul\":16447:16457   */\n      dup1\n      dup3\n      gt\n        /* \"#utility.yul\":16444:16480   */\n      iszero\n      tag_126\n      jumpi\n        /* \"#utility.yul\":16460:16478   */\n      tag_126\n      tag_541\n      jump\t// in\n        /* \"#utility.yul\":17617:18808   */\n    tag_341:\n        /* \"#utility.yul\":18126:18151   */\n      dup15\n      dup2\n      mstore\n        /* \"#utility.yul\":18194:18208   */\n      dup14\n      iszero\n        /* \"#utility.yul\":18187:18209   */\n      iszero\n        /* \"#utility.yul\":18182:18184   */\n      0x20\n        /* \"#utility.yul\":18167:18185   */\n      dup3\n      add\n        /* \"#utility.yul\":18160:18210   */\n      mstore\n      sub(shl(0xa0, 0x01), 0x01)\n        /* \"#utility.yul\":18246:18278   */\n      dup14\n      dup2\n      and\n        /* \"#utility.yul\":18241:18243   */\n      0x40\n        /* \"#utility.yul\":18226:18244   */\n      dup4\n      add\n        /* \"#utility.yul\":18219:18279   */\n      mstore\n        /* \"#utility.yul\":2781:2812   */\n      dup13\n      and\n        /* \"#utility.yul\":18330:18332   */\n      0x60\n        /* \"#utility.yul\":18315:18333   */\n      dup3\n      add\n        /* \"#utility.yul\":2769:2813   */\n      mstore\n        /* \"#utility.yul\":18113:18116   */\n      0x01c0\n        /* \"#utility.yul\":18098:18117   */\n      dup2\n      add\n        /* \"#utility.yul\":18371:18377   */\n      dup12\n        /* \"#utility.yul\":18365:18368   */\n      0x80\n        /* \"#utility.yul\":18354:18363   */\n      dup4\n        /* \"#utility.yul\":18350:18369   */\n      add\n        /* \"#utility.yul\":18343:18378   */\n      mstore\n        /* \"#utility.yul\":18415:18421   */\n      dup11\n        /* \"#utility.yul\":18409:18412   */\n      0xa0\n        /* \"#utility.yul\":18398:18407   */\n      dup4\n        /* \"#utility.yul\":18394:18413   */\n      add\n        /* \"#utility.yul\":18387:18422   */\n      mstore\n        /* \"#utility.yul\":18459:18465   */\n      dup10\n        /* \"#utility.yul\":18453:18456   */\n      0xc0\n        /* \"#utility.yul\":18442:18451   */\n      dup4\n        /* \"#utility.yul\":18438:18457   */\n      add\n        /* \"#utility.yul\":18431:18466   */\n      mstore\n        /* \"#utility.yul\":18475:18522   */\n      tag_665\n        /* \"#utility.yul\":18517:18520   */\n      0xe0\n        /* \"#utility.yul\":18506:18515   */\n      dup4\n        /* \"#utility.yul\":18502:18521   */\n      add\n        /* \"#utility.yul\":18494:18500   */\n      dup11\n      sub(shl(0xa0, 0x01), 0x01)\n        /* \"#utility.yul\":2781:2812   */\n      and\n        /* \"#utility.yul\":2769:2813   */\n      swap1\n      mstore\n        /* \"#utility.yul\":2715:2819   */\n      jump\n        /* \"#utility.yul\":18475:18522   */\n    tag_665:\n      sub(shl(0xa0, 0x01), 0x01)\n        /* \"#utility.yul\":2781:2812   */\n      dup9\n      and\n        /* \"#utility.yul\":18573:18576   */\n      0x0100\n        /* \"#utility.yul\":18558:18577   */\n      dup4\n      add\n        /* \"#utility.yul\":2769:2813   */\n      mstore\n        /* \"#utility.yul\":18609:18612   */\n      0x0120\n        /* \"#utility.yul\":18594:18613   */\n      dup3\n      add\n        /* \"#utility.yul\":18587:18622   */\n      swap7\n      swap1\n      swap7\n      mstore\n        /* \"#utility.yul\":18653:18656   */\n      0x0140\n        /* \"#utility.yul\":18638:18657   */\n      dup2\n      add\n        /* \"#utility.yul\":18631:18667   */\n      swap5\n      swap1\n      swap5\n      mstore\n        /* \"#utility.yul\":18698:18701   */\n      0x0160\n        /* \"#utility.yul\":18683:18702   */\n      dup5\n      add\n        /* \"#utility.yul\":18676:18712   */\n      swap3\n      swap1\n      swap3\n      mstore\n        /* \"#utility.yul\":18743:18746   */\n      0x0180\n        /* \"#utility.yul\":18728:18747   */\n      dup4\n      add\n        /* \"#utility.yul\":18721:18757   */\n      mstore\n        /* \"#utility.yul\":18788:18791   */\n      0x01a0\n        /* \"#utility.yul\":18773:18792   */\n      swap1\n      swap2\n      add\n        /* \"#utility.yul\":18766:18802   */\n      mstore\n        /* \"#utility.yul\":17617:18808   */\n      swap10\n      swap9\n      pop\n      pop\n      pop\n      pop\n      pop\n      pop\n      pop\n      pop\n      pop\n      jump\t// out\n        /* \"#utility.yul\":20739:20921   */\n    tag_361:\n        /* \"#utility.yul\":20796:20802   */\n      0x00\n        /* \"#utility.yul\":20849:20851   */\n      0x20\n        /* \"#utility.yul\":20837:20846   */\n      dup3\n        /* \"#utility.yul\":20828:20835   */\n      dup5\n        /* \"#utility.yul\":20824:20847   */\n      sub\n        /* \"#utility.yul\":20820:20852   */\n      slt\n        /* \"#utility.yul\":20817:20869   */\n      iszero\n      tag_672\n      jumpi\n        /* \"#utility.yul\":20865:20866   */\n      0x00\n        /* \"#utility.yul\":20862:20863   */\n      dup1\n        /* \"#utility.yul\":20855:20867   */\n      revert\n        /* \"#utility.yul\":20817:20869   */\n    tag_672:\n        /* \"#utility.yul\":20888:20915   */\n      tag_503\n        /* \"#utility.yul\":20905:20914   */\n      dup3\n        /* \"#utility.yul\":20888:20915   */\n      tag_537\n      jump\t// in\n        /* \"#utility.yul\":21273:21518   */\n    tag_371:\n        /* \"#utility.yul\":21340:21346   */\n      0x00\n        /* \"#utility.yul\":21393:21395   */\n      0x20\n        /* \"#utility.yul\":21381:21390   */\n      dup3\n        /* \"#utility.yul\":21372:21379   */\n      dup5\n        /* \"#utility.yul\":21368:21391   */\n      sub\n        /* \"#utility.yul\":21364:21396   */\n      slt\n        /* \"#utility.yul\":21361:21413   */\n      iszero\n      tag_676\n      jumpi\n        /* \"#utility.yul\":21409:21410   */\n      0x00\n        /* \"#utility.yul\":21406:21407   */\n      dup1\n        /* \"#utility.yul\":21399:21411   */\n      revert\n        /* \"#utility.yul\":21361:21413   */\n    tag_676:\n        /* \"#utility.yul\":21441:21450   */\n      dup2\n        /* \"#utility.yul\":21435:21451   */\n      mload\n        /* \"#utility.yul\":21460:21488   */\n      tag_503\n        /* \"#utility.yul\":21482:21487   */\n      dup2\n        /* \"#utility.yul\":21460:21488   */\n      tag_532\n      jump\t// in\n        /* \"#utility.yul\":22583:22895   */\n    tag_395:\n        /* \"#utility.yul\":22662:22668   */\n      0x00\n        /* \"#utility.yul\":22670:22676   */\n      dup1\n        /* \"#utility.yul\":22723:22725   */\n      0x40\n        /* \"#utility.yul\":22711:22720   */\n      dup4\n        /* \"#utility.yul\":22702:22709   */\n      dup6\n        /* \"#utility.yul\":22698:22721   */\n      sub\n        /* \"#utility.yul\":22694:22726   */\n      slt\n        /* \"#utility.yul\":22691:22743   */\n      iszero\n      tag_682\n      jumpi\n        /* \"#utility.yul\":22739:22740   */\n      0x00\n        /* \"#utility.yul\":22736:22737   */\n      dup1\n        /* \"#utility.yul\":22729:22741   */\n      revert\n        /* \"#utility.yul\":22691:22743   */\n    tag_682:\n        /* \"#utility.yul\":22771:22780   */\n      dup3\n        /* \"#utility.yul\":22765:22781   */\n      mload\n        /* \"#utility.yul\":22790:22821   */\n      tag_683\n        /* \"#utility.yul\":22815:22820   */\n      dup2\n        /* \"#utility.yul\":22790:22821   */\n      tag_528\n      jump\t// in\n    tag_683:\n        /* \"#utility.yul\":22885:22887   */\n      0x20\n        /* \"#utility.yul\":22870:22888   */\n      swap4\n      swap1\n      swap4\n      add\n        /* \"#utility.yul\":22864:22889   */\n      mload\n        /* \"#utility.yul\":22840:22845   */\n      swap3\n      swap5\n        /* \"#utility.yul\":22864:22889   */\n      swap3\n      swap4\n      pop\n      pop\n      pop\n        /* \"#utility.yul\":22583:22895   */\n      jump\t// out\n        /* \"#utility.yul\":23179:23347   */\n    tag_403:\n        /* \"#utility.yul\":23252:23261   */\n      dup1\n      dup3\n      mul\n        /* \"#utility.yul\":23283:23292   */\n      dup2\n      iszero\n        /* \"#utility.yul\":23300:23315   */\n      dup3\n      dup3\n      div\n        /* \"#utility.yul\":23294:23316   */\n      dup5\n      eq\n        /* \"#utility.yul\":23280:23317   */\n      or\n        /* \"#utility.yul\":23270:23341   */\n      tag_126\n      jumpi\n        /* \"#utility.yul\":23321:23339   */\n      tag_126\n      tag_541\n      jump\t// in\n        /* \"#utility.yul\":23352:23750   */\n    tag_407:\n        /* \"#utility.yul\":23554:23556   */\n      0x20\n        /* \"#utility.yul\":23536:23557   */\n      dup1\n      dup3\n      mstore\n        /* \"#utility.yul\":23593:23595   */\n      0x22\n        /* \"#utility.yul\":23573:23591   */\n      swap1\n      dup3\n      add\n        /* \"#utility.yul\":23566:23596   */\n      mstore\n        /* \"#utility.yul\":23632:23666   */\n      0x5468652066656520697320746f6f206869676820666f72207468652073656c6c\n        /* \"#utility.yul\":23627:23629   */\n      0x40\n        /* \"#utility.yul\":23612:23630   */\n      dup3\n      add\n        /* \"#utility.yul\":23605:23667   */\n      mstore\n      shl(0xf1, 0x32b9)\n        /* \"#utility.yul\":23698:23700   */\n      0x60\n        /* \"#utility.yul\":23683:23701   */\n      dup3\n      add\n        /* \"#utility.yul\":23676:23708   */\n      mstore\n        /* \"#utility.yul\":23740:23743   */\n      0x80\n        /* \"#utility.yul\":23725:23744   */\n      add\n      swap1\n        /* \"#utility.yul\":23352:23750   */\n      jump\t// out\n        /* \"#utility.yul\":23755:24006   */\n    tag_414:\n        /* \"#utility.yul\":23825:23831   */\n      0x00\n        /* \"#utility.yul\":23878:23880   */\n      0x20\n        /* \"#utility.yul\":23866:23875   */\n      dup3\n        /* \"#utility.yul\":23857:23864   */\n      dup5\n        /* \"#utility.yul\":23853:23876   */\n      sub\n        /* \"#utility.yul\":23849:23881   */\n      slt\n        /* \"#utility.yul\":23846:23898   */\n      iszero\n      tag_690\n      jumpi\n        /* \"#utility.yul\":23894:23895   */\n      0x00\n        /* \"#utility.yul\":23891:23892   */\n      dup1\n        /* \"#utility.yul\":23884:23896   */\n      revert\n        /* \"#utility.yul\":23846:23898   */\n    tag_690:\n        /* \"#utility.yul\":23926:23935   */\n      dup2\n        /* \"#utility.yul\":23920:23936   */\n      mload\n        /* \"#utility.yul\":23945:23976   */\n      tag_503\n        /* \"#utility.yul\":23970:23975   */\n      dup2\n        /* \"#utility.yul\":23945:23976   */\n      tag_528\n      jump\t// in\n        /* \"#utility.yul\":26021:26271   */\n    tag_542:\n        /* \"#utility.yul\":26106:26107   */\n      0x00\n        /* \"#utility.yul\":26116:26229   */\n    tag_698:\n        /* \"#utility.yul\":26130:26136   */\n      dup4\n        /* \"#utility.yul\":26127:26128   */\n      dup2\n        /* \"#utility.yul\":26124:26137   */\n      lt\n        /* \"#utility.yul\":26116:26229   */\n      iszero\n      tag_700\n      jumpi\n        /* \"#utility.yul\":26206:26217   */\n      dup2\n      dup2\n      add\n        /* \"#utility.yul\":26200:26218   */\n      mload\n        /* \"#utility.yul\":26187:26198   */\n      dup4\n      dup3\n      add\n        /* \"#utility.yul\":26180:26219   */\n      mstore\n        /* \"#utility.yul\":26152:26154   */\n      0x20\n        /* \"#utility.yul\":26145:26155   */\n      add\n        /* \"#utility.yul\":26116:26229   */\n      jump(tag_698)\n    tag_700:\n      pop\n      pop\n        /* \"#utility.yul\":26263:26264   */\n      0x00\n        /* \"#utility.yul\":26245:26261   */\n      swap2\n      add\n        /* \"#utility.yul\":26238:26265   */\n      mstore\n        /* \"#utility.yul\":26021:26271   */\n      jump\t// out\n        /* \"#utility.yul\":26276:26546   */\n    tag_543:\n        /* \"#utility.yul\":26317:26320   */\n      0x00\n        /* \"#utility.yul\":26355:26360   */\n      dup2\n        /* \"#utility.yul\":26349:26361   */\n      mload\n        /* \"#utility.yul\":26382:26388   */\n      dup1\n        /* \"#utility.yul\":26377:26380   */\n      dup5\n        /* \"#utility.yul\":26370:26389   */\n      mstore\n        /* \"#utility.yul\":26398:26474   */\n      tag_702\n        /* \"#utility.yul\":26467:26473   */\n      dup2\n        /* \"#utility.yul\":26460:26464   */\n      0x20\n        /* \"#utility.yul\":26455:26458   */\n      dup7\n        /* \"#utility.yul\":26451:26465   */\n      add\n        /* \"#utility.yul\":26444:26448   */\n      0x20\n        /* \"#utility.yul\":26437:26442   */\n      dup7\n        /* \"#utility.yul\":26433:26449   */\n      add\n        /* \"#utility.yul\":26398:26474   */\n      tag_542\n      jump\t// in\n    tag_702:\n        /* \"#utility.yul\":26528:26530   */\n      0x1f\n        /* \"#utility.yul\":26507:26522   */\n      add\n      not(0x1f)\n        /* \"#utility.yul\":26503:26532   */\n      and\n        /* \"#utility.yul\":26494:26533   */\n      swap3\n      swap1\n      swap3\n      add\n        /* \"#utility.yul\":26535:26539   */\n      0x20\n        /* \"#utility.yul\":26490:26540   */\n      add\n      swap3\n        /* \"#utility.yul\":26276:26546   */\n      swap2\n      pop\n      pop\n      jump\t// out\n        /* \"#utility.yul\":26551:26839   */\n    tag_460:\n        /* \"#utility.yul\":26726:26732   */\n      dup3\n        /* \"#utility.yul\":26715:26724   */\n      dup2\n        /* \"#utility.yul\":26708:26733   */\n      mstore\n        /* \"#utility.yul\":26769:26771   */\n      0x40\n        /* \"#utility.yul\":26764:26766   */\n      0x20\n        /* \"#utility.yul\":26753:26762   */\n      dup3\n        /* \"#utility.yul\":26749:26767   */\n      add\n        /* \"#utility.yul\":26742:26772   */\n      mstore\n        /* \"#utility.yul\":26689:26693   */\n      0x00\n        /* \"#utility.yul\":26789:26833   */\n      tag_504\n        /* \"#utility.yul\":26829:26831   */\n      0x40\n        /* \"#utility.yul\":26818:26827   */\n      dup4\n        /* \"#utility.yul\":26814:26832   */\n      add\n        /* \"#utility.yul\":26806:26812   */\n      dup5\n        /* \"#utility.yul\":26789:26833   */\n      tag_543\n      jump\t// in\n        /* \"#utility.yul\":26844:27134   */\n    tag_464:\n        /* \"#utility.yul\":26913:26919   */\n      0x00\n        /* \"#utility.yul\":26966:26968   */\n      0x20\n        /* \"#utility.yul\":26954:26963   */\n      dup3\n        /* \"#utility.yul\":26945:26952   */\n      dup5\n        /* \"#utility.yul\":26941:26964   */\n      sub\n        /* \"#utility.yul\":26937:26969   */\n      slt\n        /* \"#utility.yul\":26934:26986   */\n      iszero\n      tag_706\n      jumpi\n        /* \"#utility.yul\":26982:26983   */\n      0x00\n        /* \"#utility.yul\":26979:26980   */\n      dup1\n        /* \"#utility.yul\":26972:26984   */\n      revert\n        /* \"#utility.yul\":26934:26986   */\n    tag_706:\n        /* \"#utility.yul\":27008:27024   */\n      dup2\n      mload\n      not(sub(shl(0xe0, 0x01), 0x01))\n        /* \"#utility.yul\":27053:27085   */\n      dup2\n      and\n        /* \"#utility.yul\":27043:27086   */\n      dup2\n      eq\n        /* \"#utility.yul\":27033:27104   */\n      tag_503\n      jumpi\n        /* \"#utility.yul\":27100:27101   */\n      0x00\n        /* \"#utility.yul\":27097:27098   */\n      dup1\n        /* \"#utility.yul\":27090:27102   */\n      revert\n        /* \"#utility.yul\":27139:27323   */\n    tag_472:\n        /* \"#utility.yul\":27209:27215   */\n      0x00\n        /* \"#utility.yul\":27262:27264   */\n      0x20\n        /* \"#utility.yul\":27250:27259   */\n      dup3\n        /* \"#utility.yul\":27241:27248   */\n      dup5\n        /* \"#utility.yul\":27237:27260   */\n      sub\n        /* \"#utility.yul\":27233:27265   */\n      slt\n        /* \"#utility.yul\":27230:27282   */\n      iszero\n      tag_709\n      jumpi\n        /* \"#utility.yul\":27278:27279   */\n      0x00\n        /* \"#utility.yul\":27275:27276   */\n      dup1\n        /* \"#utility.yul\":27268:27280   */\n      revert\n        /* \"#utility.yul\":27230:27282   */\n    tag_709:\n      pop\n        /* \"#utility.yul\":27301:27317   */\n      mload\n      swap2\n        /* \"#utility.yul\":27139:27323   */\n      swap1\n      pop\n      jump\t// out\n        /* \"#utility.yul\":27328:27545   */\n    tag_475:\n        /* \"#utility.yul\":27368:27369   */\n      0x00\n        /* \"#utility.yul\":27394:27395   */\n      dup3\n        /* \"#utility.yul\":27384:27516   */\n      tag_711\n      jumpi\n        /* \"#utility.yul\":27438:27448   */\n      0x4e487b71\n        /* \"#utility.yul\":27433:27436   */\n      0xe0\n        /* \"#utility.yul\":27429:27449   */\n      shl\n        /* \"#utility.yul\":27426:27427   */\n      0x00\n        /* \"#utility.yul\":27419:27450   */\n      mstore\n        /* \"#utility.yul\":27473:27477   */\n      0x12\n        /* \"#utility.yul\":27470:27471   */\n      0x04\n        /* \"#utility.yul\":27463:27478   */\n      mstore\n        /* \"#utility.yul\":27501:27505   */\n      0x24\n        /* \"#utility.yul\":27498:27499   */\n      0x00\n        /* \"#utility.yul\":27491:27506   */\n      revert\n        /* \"#utility.yul\":27384:27516   */\n    tag_711:\n      pop\n        /* \"#utility.yul\":27530:27539   */\n      div\n      swap1\n        /* \"#utility.yul\":27328:27545   */\n      jump\t// out\n        /* \"#utility.yul\":30170:30457   */\n    tag_515:\n        /* \"#utility.yul\":30299:30302   */\n      0x00\n        /* \"#utility.yul\":30337:30343   */\n      dup3\n        /* \"#utility.yul\":30331:30344   */\n      mload\n        /* \"#utility.yul\":30353:30419   */\n      tag_720\n        /* \"#utility.yul\":30412:30418   */\n      dup2\n        /* \"#utility.yul\":30407:30410   */\n      dup5\n        /* \"#utility.yul\":30400:30404   */\n      0x20\n        /* \"#utility.yul\":30392:30398   */\n      dup8\n        /* \"#utility.yul\":30388:30405   */\n      add\n        /* \"#utility.yul\":30353:30419   */\n      tag_542\n      jump\t// in\n    tag_720:\n        /* \"#utility.yul\":30435:30451   */\n      swap2\n      swap1\n      swap2\n      add\n      swap3\n        /* \"#utility.yul\":30170:30457   */\n      swap2\n      pop\n      pop\n      jump\t// out\n        /* \"#utility.yul\":30462:30681   */\n    tag_527:\n        /* \"#utility.yul\":30611:30613   */\n      0x20\n        /* \"#utility.yul\":30600:30609   */\n      dup2\n        /* \"#utility.yul\":30593:30614   */\n      mstore\n        /* \"#utility.yul\":30574:30578   */\n      0x00\n        /* \"#utility.yul\":30631:30675   */\n      tag_503\n        /* \"#utility.yul\":30671:30673   */\n      0x20\n        /* \"#utility.yul\":30660:30669   */\n      dup4\n        /* \"#utility.yul\":30656:30674   */\n      add\n        /* \"#utility.yul\":30648:30654   */\n      dup5\n        /* \"#utility.yul\":30631:30675   */\n      tag_543\n      jump\t// in\n\n    auxdata: 0xa2646970667358221220b9305666772370e093ee4c8ee6bd159714da096c97bb98d5634b3e049397ec7864736f6c63430008110033\n}\n",
				"bytecode": {
					"linkReferences": {},
					"object": "60a06040523480156200001157600080fd5b50604051620030733803806200307383398101604081905262000034916200010c565b600160005562000044336200009d565b600380546001600160a01b039687166001600160a01b031991821617909155600480549587169582169590951790945560058054938616938516939093179092558316608052600280549190931691161790556200017c565b600180546001600160a01b038381166001600160a01b0319831681179093556040519116919082907f8be0079c531659141344cd1fd0a4f28419497f9722a3daafe3b4186f6b6457e090600090a35050565b80516001600160a01b03811681146200010757600080fd5b919050565b600080600080600060a086880312156200012557600080fd5b6200013086620000ef565b94506200014060208701620000ef565b93506200015060408701620000ef565b92506200016060608701620000ef565b91506200017060808701620000ef565b90509295509295909350565b608051612eaa620001c9600039600081816103510152818161083a015281816109220152818161099c01528181611c1301528181611cf601528181611d610152611ded0152612eaa6000f3fe60806040526004361061012a5760003560e01c806364df049e116100ab578063ad5c46481161006f578063ad5c46481461033f578063c549876914610373578063cbd2ec6514610393578063d4ff41dc146103b3578063f2fde38b146103d3578063f75ff53f146103f357600080fd5b806364df049e146102ac578063715018a6146102cc57806387e4401f146102e15780638da5cb5b146103015780639e53a69a1461031f57600080fd5b8063483abb9f116100f2578063483abb9f14610219578063509a1a41146102395780635ce052d71461024c5780635e14f68e1461026c57806363521def1461028c57600080fd5b80630f747d741461012f5780631df47f801461016c57806331e27e271461018e5780634266581e146101be57806345ea7231146101f9575b600080fd5b34801561013b57600080fd5b5060035461014f906001600160a01b031681565b6040516001600160a01b0390911681526020015b60405180910390f35b34801561017857600080fd5b5061018c610187366004612447565b610413565b005b34801561019a57600080fd5b506101ae6101a9366004612464565b610465565b6040519015158152602001610163565b3480156101ca57600080fd5b506101eb6101d9366004612447565b60076020526000908152604090205481565b604051908152602001610163565b34801561020557600080fd5b5061018c610214366004612490565b610493565b34801561022557600080fd5b5060045461014f906001600160a01b031681565b61018c610247366004612490565b6107ca565b34801561025857600080fd5b5061018c610267366004612447565b610b62565b34801561027857600080fd5b5060065461014f906001600160a01b031681565b34801561029857600080fd5b5061018c6102a7366004612490565b610bda565b3480156102b857600080fd5b5060025461014f906001600160a01b031681565b3480156102d857600080fd5b5061018c610e9c565b3480156102ed57600080fd5b5060055461014f906001600160a01b031681565b34801561030d57600080fd5b506001546001600160a01b031661014f565b34801561032b57600080fd5b5061018c61033a366004612504565b610eb0565b34801561034b57600080fd5b5061014f7f000000000000000000000000000000000000000000000000000000000000000081565b34801561037f57600080fd5b5061018c61038e366004612447565b610ffa565b34801561039f57600080fd5b5061018c6103ae366004612579565b611072565b3480156103bf57600080fd5b5061018c6103ce366004612447565b61115a565b3480156103df57600080fd5b5061018c6103ee366004612447565b6111d2565b3480156103ff57600080fd5b5061018c61040e366004612447565b61124b565b61041b6112c3565b600280546001600160a01b0319166001600160a01b0383169081179091556040517f8cffb07faa2874440346743bdc0a86b06c3335cc47dc49b327d10e77b73ceb1090600090a250565b6001600160a01b038216600090815260086020908152604080832084845290915290205460ff165b92915050565b6002600054036104be5760405162461bcd60e51b81526004016104b590612592565b60405180910390fd5b60026000556104d060208201826125e2565b80156104e657506104e460208301836125e2565b155b6105025760405162461bcd60e51b81526004016104b5906125ff565b6105126040830160208401612447565b6001600160a01b0316336001600160a01b0316146105425760405162461bcd60e51b81526004016104b59061262f565b600061055561055083612744565b61131d565b905061056182826113c4565b6000808061057560e0860160c08701612447565b6001600160a01b031663d310677d87876040518363ffffffff1660e01b81526004016105a29291906128cb565b606060405180830381865afa1580156105bf573d6000803e3d6000fd5b505050506040513d601f19601f820116820180604052508101906105e39190612a73565b925092509250826106065760405162461bcd60e51b81526004016104b590612aaa565b60016008600061061c6040890160208a01612447565b6001600160a01b03168152602080820192909252604090810160009081206101008a013582529092529020805460ff19169115159190911790556106ac61066960e0870160c08801612447565b6106796060880160408901612447565b8461068b6101008a0160e08b01612447565b3361069c60408c0160208d01612447565b8c604001358c6101600135611849565b6106e66106bf6060870160408801612447565b6106cf6040880160208901612447565b6106df60408a0160208b01612447565b8585611a1b565b6106f660e0860160c08701612447565b6001600160a01b031661070f6040870160208801612447565b6001600160a01b03166107286040890160208a01612447565b6001600160a01b03167f95fb6205e23ff6bda16a2d1dba56b9ad7c783f67c96fa149785052f47696f2be876101008a018035906107689060e08d01612447565b61077860608d0160408e01612447565b6040805194855260208501939093526001600160a01b03918216848401521660608301526080820188905260a082018790528b013560c082015260e00160405180910390a45050600160005550505050565b6002600054036107ec5760405162461bcd60e51b81526004016104b590612592565b60026000556107fe60208201826125e2565b8015610814575061081260208301836125e2565b155b6108305760405162461bcd60e51b81526004016104b5906125ff565b6001600160a01b037f00000000000000000000000000000000000000000000000000000000000000001661086b610100830160e08401612447565b6001600160a01b0316146108b95760405162461bcd60e51b8152602060048201526015602482015274086eae4e4cadcc6f240daeae6e840c4ca40ae8aa89605b1b60448201526064016104b5565b6108c96040830160208401612447565b6001600160a01b0316336001600160a01b0316146108f95760405162461bcd60e51b81526004016104b59061262f565b348260400135111561094f5761094a3330610918346040870135612af7565b6001600160a01b037f000000000000000000000000000000000000000000000000000000000000000016929190611b63565b61099a565b3482604001351461099a5760405162461bcd60e51b815260206004820152601560248201527409ae6ce5cecc2d8eaca40d2e640e8dede40d0d2ced605b1b60448201526064016104b5565b7f00000000000000000000000000000000000000000000000000000000000000006001600160a01b031663d0e30db0346040518263ffffffff1660e01b81526004016000604051808303818588803b1580156109f557600080fd5b505af1158015610a09573d6000803e3d6000fd5b50505050506000610a1d8261055090612744565b9050610a2982826113c4565b60008080610a3d60e0860160c08701612447565b6001600160a01b031663d310677d87876040518363ffffffff1660e01b8152600401610a6a9291906128cb565b606060405180830381865afa158015610a87573d6000803e3d6000fd5b505050506040513d601f19601f82011682018060405250810190610aab9190612a73565b92509250925082610ace5760405162461bcd60e51b81526004016104b590612aaa565b600160086000610ae46040890160208a01612447565b6001600160a01b03168152602080820192909252604090810160009081206101008a013582529092529020805460ff19169115159190911790556106ac610b3160e0870160c08801612447565b610b416060880160408901612447565b84610b5260408a0160208b01612447565b8a604001358a6101600135611bd4565b610b6a6112c3565b6001600160a01b038116610b905760405162461bcd60e51b81526004016104b590612b0a565b600380546001600160a01b0319166001600160a01b0383169081179091556040517fb4f5db40df3aced29e88a4babbc3b46e305e07d34098525d18b1497056e6383890600090a250565b600260005403610bfc5760405162461bcd60e51b81526004016104b590612592565b6002600055610c0e60208201826125e2565b158015610c235750610c2360208301836125e2565b610c3f5760405162461bcd60e51b81526004016104b5906125ff565b610c4f6040830160208401612447565b6001600160a01b0316336001600160a01b031614610c7f5760405162461bcd60e51b81526004016104b59061262f565b6000610c8d61055083612744565b9050610c9982826113c4565b60008080610cad60e0860160c08701612447565b6001600160a01b0316632a75ffee87876040518363ffffffff1660e01b8152600401610cda9291906128cb565b606060405180830381865afa158015610cf7573d6000803e3d6000fd5b505050506040513d601f19601f82011682018060405250810190610d1b9190612a73565b92509250925082610d3e5760405162461bcd60e51b81526004016104b590612aaa565b600160086000610d546040890160208a01612447565b6001600160a01b03168152602080820192909252604090810160009081206101008a0135825290925290819020805460ff191692151592909217909155610db690610da59060608801908801612447565b336106df6040890160208a01612447565b610e1a610dc960e0870160c08801612447565b610dd96060880160408901612447565b84610deb6101008a0160e08b01612447565b610dfb60408b0160208c01612447565b610e0b60408d0160208e01612447565b8c604001358d60800135611849565b610e2a60e0860160c08701612447565b6001600160a01b0316610e436040870160208801612447565b6001600160a01b0316610e5c6040890160208a01612447565b6001600160a01b03167f68cd251d4d267c6e2034ff0088b990352b97b2002c0476587d0c4da889c11330876101008a018035906107689060e08d01612447565b610ea46112c3565b610eae6000611e14565b565b80610efd5760405162461bcd60e51b815260206004820152601b60248201527f43616e6e6f7420626520656d7074792043616e63656c206c697374000000000060448201526064016104b5565b60005b81811015610fb25733600090815260076020526040902054838383818110610f2a57610f2a612b41565b905060200201351015610f4f5760405162461bcd60e51b81526004016104b590612b57565b336000908152600860205260408120600191858585818110610f7357610f73612b41565b90506020020135815260200190815260200160002060006101000a81548160ff0219169083151502179055508080610faa90612ba3565b915050610f00565b50336001600160a01b03167ffa0ae5d80fe3763c880a3839fab0294171a6f730d1f82c4cd5392c6f67b417328383604051610fee929190612bbc565b60405180910390a25050565b6110026112c3565b6001600160a01b0381166110285760405162461bcd60e51b81526004016104b590612b0a565b600580546001600160a01b0319166001600160a01b0383169081179091556040517f80e3874461ebbd918ac3e81da0a92e5e51387d70f337237c9123e48d20e5a50890600090a250565b3360009081526007602052604090205481116110a05760405162461bcd60e51b81526004016104b590612b57565b336000908152600760205260409020546110bd906207a120612bf5565b811061110b5760405162461bcd60e51b815260206004820152601d60248201527f43616e6e6f742063616e63656c20746f6f206d616e79206f726465727300000060448201526064016104b5565b3360008181526007602052604090819020839055517f1e7178d84f0b0825c65795cd62e7972809ad3aac6917843aaec596161b2c0a979061114f9084815260200190565b60405180910390a250565b6111626112c3565b6001600160a01b0381166111885760405162461bcd60e51b81526004016104b590612b0a565b600480546001600160a01b0319166001600160a01b0383169081179091556040517f36e2a376eabc3bc60cb88f29c288f53e36874a95a7f407330ab4f166b090569890600090a250565b6111da6112c3565b6001600160a01b03811661123f5760405162461bcd60e51b815260206004820152602660248201527f4f776e61626c653a206e6577206f776e657220697320746865207a65726f206160448201526564647265737360d01b60648201526084016104b5565b61124881611e14565b50565b6112536112c3565b6001600160a01b0381166112795760405162461bcd60e51b81526004016104b590612b0a565b600680546001600160a01b0319166001600160a01b0383169081179091556040517f205d78ab41afe80bd6b6aaa5d7599d5300ff8690da3ab1302c1b552f7baf7d8c90600090a250565b6001546001600160a01b03163314610eae5760405162461bcd60e51b815260206004820181905260248201527f4f776e61626c653a2063616c6c6572206973206e6f7420746865206f776e657260448201526064016104b5565b80516020808301516040808501516060860151608087015160a088015160c089015160e08a01516101008b01516101208c01516101408d01516101608e01516101808f01518051908e01209a5160009e6113a79e7f40261ade532fa1d2c7293df30aaadb9b3c616fae525a0b56d3d411c841a850289e919d919c9b9a999897969594939201612c08565b604051602081830303815290604052805190602001209050919050565b600860006113d86040850160208601612447565b6001600160a01b0316815260208082019290925260409081016000908120610100860135825290925290205460ff1615801561144d5750600760006114236040850160208601612447565b6001600160a01b03166001600160a01b031681526020019081526020016000205482610100013510155b6114995760405162461bcd60e51b815260206004820152601d60248201527f4f726465723a204d61746368696e67206f72646572206578706972656400000060448201526064016104b5565b60006114ab6040840160208501612447565b6001600160a01b0316036115155760405162461bcd60e51b815260206004820152602b60248201527f546865204f72646572207369676e65722063616e6e6f7420626520746865207a60448201526a65726f206164647265737360a81b60648201526084016104b5565b60008260a001351161157b5760405162461bcd60e51b815260206004820152602960248201527f546865206f7264657220616d6f756e742073686f756c6420626520677265617460448201526806572207468616e20360bc1b60648201526084016104b5565b604080517f8b73c3c69bb8fe3d512ecc4cf759cc79239f7b179b0ffacaa9a75d522b39400f60208201527f2e3445393f211d11d7f88d325bc26ce78976b4decd39029feb202d9b409fc3c5918101919091527fc89efdaa54c0f20c7adf612882df0950f5a951637e0307cdcb4c672f298b8bc660608201524660808201523060a082015260009060c001604051602081830303815290604052805190602001209050611658828460200160208101906116349190612447565b6116466101c087016101a08801612c9b565b866101c00135876101e0013586611e66565b6116995760405162461bcd60e51b815260206004820152601260248201527114da59db985d1d5c994e88125b9d985b1a5960721b60448201526064016104b5565b6003546001600160a01b03166343b938c56116bb610100860160e08701612447565b6040516001600160e01b031960e084901b1681526001600160a01b039091166004820152602401602060405180830381865afa1580156116ff573d6000803e3d6000fd5b505050506040513d601f19601f820116820180604052508101906117239190612cb6565b61176f5760405162461bcd60e51b815260206004820152601a60248201527f204e6f7420696e2043757272656e63792077686974656c69737400000000000060448201526064016104b5565b6004546001600160a01b031663999ba27c61179060e0860160c08701612447565b6040516001600160e01b031960e084901b1681526001600160a01b039091166004820152602401602060405180830381865afa1580156117d4573d6000803e3d6000fd5b505050506040513d601f19601f820116820180604052508101906117f89190612cb6565b6118445760405162461bcd60e51b815260206004820152601a60248201527f204e6f7420696e2053747261746567792077686974656c69737400000000000060448201526064016104b5565b505050565b8160006118568a83611fa5565b6002549091506001600160a01b03161580159061187257508015155b156118a057600254611893906001600160a01b038981169189911684611b63565b61189d8183612af7565b91505b600554604051637a7b1afd60e11b81526001600160a01b038b81166004830152602482018b905260448201879052600092839291169063f4f635fa906064016040805180830381865afa1580156118fb573d6000803e3d6000fd5b505050506040513d601f19601f8201168201806040525081019061191f9190612cd3565b90925090506001600160a01b0382161580159061193b57508015155b156119c4576119556001600160a01b038a16898484611b63565b61195f8185612af7565b9350816001600160a01b03168a8c6001600160a01b03167f27c4f0403323142b599832f26acd21c74a9e5b809f2215726e244a4ac588cd7d8c856040516119bb9291906001600160a01b03929092168252602082015260400190565b60405180910390a45b6119ce8686612d01565b6119da85612710612d01565b10156119f85760405162461bcd60e51b81526004016104b590612d18565b611a0d6001600160a01b038a16898987611b63565b505050505050505050505050565b60065460405163cc15949360e01b81526001600160a01b038781166004830152600092169063cc15949390602401602060405180830381865afa158015611a66573d6000803e3d6000fd5b505050506040513d601f19601f82011682018060405250810190611a8a9190612d5a565b90506001600160a01b038116611ae25760405162461bcd60e51b815260206004820152601c60248201527f43616e277420666f756e74207472616e73666572206d616e616765720000000060448201526064016104b5565b6040516333f2fa9f60e01b81526001600160a01b0387811660048301528681166024830152858116604483015260648201859052608482018490528216906333f2fa9f9060a401600060405180830381600087803b158015611b4357600080fd5b505af1158015611b57573d6000803e3d6000fd5b50505050505050505050565b6040516001600160a01b0380851660248301528316604482015260648101829052611bce9085906323b872dd60e01b906084015b60408051601f198184030181529190526020810180516001600160e01b03166001600160e01b03199093169290921790915261202b565b50505050565b816000611be18883611fa5565b6002549091506001600160a01b031615801590611bfd57508015155b15611c4957600254611c3c906001600160a01b037f000000000000000000000000000000000000000000000000000000000000000081169116836120fd565b611c468183612af7565b91505b600554604051637a7b1afd60e11b81526001600160a01b0389811660048301526024820189905260448201879052600092839291169063f4f635fa906064016040805180830381865afa158015611ca4573d6000803e3d6000fd5b505050506040513d601f19601f82011682018060405250810190611cc89190612cd3565b90925090506001600160a01b03821615801590611ce457508015155b15611dac57611d1d6001600160a01b037f00000000000000000000000000000000000000000000000000000000000000001683836120fd565b611d278185612af7565b9350816001600160a01b0316888a6001600160a01b03167f27c4f0403323142b599832f26acd21c74a9e5b809f2215726e244a4ac588cd7d7f000000000000000000000000000000000000000000000000000000000000000085604051611da39291906001600160a01b03929092168252602082015260400190565b60405180910390a45b611db68686612d01565b611dc285612710612d01565b1015611de05760405162461bcd60e51b81526004016104b590612d18565b611b576001600160a01b037f00000000000000000000000000000000000000000000000000000000000000001688866120fd565b600180546001600160a01b038381166001600160a01b0319831681179093556040519116919082907f8be0079c531659141344cd1fd0a4f28419497f9722a3daafe3b4186f6b6457e090600090a35050565b60405161190160f01b602082015260228101829052604281018790526000908190606201604051602081830303815290604052805190602001209050611eb5876001600160a01b03163b151590565b15611f7757604080516020810187905280820186905260f888901b6001600160f81b0319166060820152815160418183030181526061820192839052630b135d3f60e11b9092526001600160a01b03891691631626ba7e91611f1b918591606501612dc7565b602060405180830381865afa158015611f38573d6000803e3d6000fd5b505050506040513d601f19601f82011682018060405250810190611f5c9190612de0565b6001600160e01b031916631626ba7e60e01b14915050611f9b565b866001600160a01b0316611f8d8288888861212d565b6001600160a01b0316149150505b9695505050505050565b600080836001600160a01b0316639dd1cda66040518163ffffffff1660e01b8152600401602060405180830381865afa158015611fe6573d6000803e3d6000fd5b505050506040513d601f19601f8201168201806040525081019061200a9190612e0a565b90506127106120198483612d01565b6120239190612e23565b949350505050565b6000612080826040518060400160405280602081526020017f5361666545524332303a206c6f772d6c6576656c2063616c6c206661696c6564815250856001600160a01b031661229f9092919063ffffffff16565b805190915015611844578080602001905181019061209e9190612cb6565b6118445760405162461bcd60e51b815260206004820152602a60248201527f5361666545524332303a204552433230206f7065726174696f6e20646964206e6044820152691bdd081cdd58d8d9595960b21b60648201526084016104b5565b6040516001600160a01b03831660248201526044810182905261184490849063a9059cbb60e01b90606401611b97565b60007f7fffffffffffffffffffffffffffffff5d576e7357a4501ddfe92f46681b20a08211156121965760405162461bcd60e51b81526020600482015260146024820152731024b73b30b634b21039903830b930b6b2ba32b960611b60448201526064016104b5565b8360ff16601b14806121ab57508360ff16601c145b6121ed5760405162461bcd60e51b815260206004820152601360248201527224b73b30b634b2103b103830b930b6b2ba32b960691b60448201526064016104b5565b6040805160008082526020820180845288905260ff871692820192909252606081018590526080810184905260019060a0016020604051602081039080840390855afa158015612241573d6000803e3d6000fd5b5050604051601f1901519150506001600160a01b0381166122965760405162461bcd60e51b815260206004820152600f60248201526e1024b73b30b634b21039b4b3b732b960891b60448201526064016104b5565b95945050505050565b60606122ae84846000856122b8565b90505b9392505050565b6060824710156123195760405162461bcd60e51b815260206004820152602660248201527f416464726573733a20696e73756666696369656e742062616c616e636520666f6044820152651c8818d85b1b60d21b60648201526084016104b5565b6001600160a01b0385163b6123705760405162461bcd60e51b815260206004820152601d60248201527f416464726573733a2063616c6c20746f206e6f6e2d636f6e747261637400000060448201526064016104b5565b600080866001600160a01b0316858760405161238c9190612e45565b60006040518083038185875af1925050503d80600081146123c9576040519150601f19603f3d011682016040523d82523d6000602084013e6123ce565b606091505b50915091506123de8282866123e9565b979650505050505050565b606083156123f85750816122b1565b8251156124085782518084602001fd5b8160405162461bcd60e51b81526004016104b59190612e61565b6001600160a01b038116811461124857600080fd5b803561244281612422565b919050565b60006020828403121561245957600080fd5b81356122b181612422565b6000806040838503121561247757600080fd5b823561248281612422565b946020939093013593505050565b600080604083850312156124a357600080fd5b823567ffffffffffffffff808211156124bb57600080fd5b9084019060c082870312156124cf57600080fd5b909250602084013590808211156124e557600080fd5b50830161020081860312156124f957600080fd5b809150509250929050565b6000806020838503121561251757600080fd5b823567ffffffffffffffff8082111561252f57600080fd5b818501915085601f83011261254357600080fd5b81358181111561255257600080fd5b8660208260051b850101111561256757600080fd5b60209290920196919550909350505050565b60006020828403121561258b57600080fd5b5035919050565b6020808252601f908201527f5265656e7472616e637947756172643a207265656e7472616e742063616c6c00604082015260600190565b801515811461124857600080fd5b8035612442816125c9565b6000602082840312156125f457600080fd5b81356122b1816125c9565b6020808252601690820152754572726f722041626f7574204f72646572205369646560501b604082015260600190565b60208082526018908201527f4f72646572206d757374206265207468652073656e6465720000000000000000604082015260600190565b634e487b7160e01b600052604160045260246000fd5b604051610200810167ffffffffffffffff811182821017156126a0576126a0612666565b60405290565b600082601f8301126126b757600080fd5b813567ffffffffffffffff808211156126d2576126d2612666565b604051601f8301601f19908116603f011681019082821181831017156126fa576126fa612666565b8160405283815286602085880101111561271357600080fd5b836020870160208301376000602085830101528094505050505092915050565b803560ff8116811461244257600080fd5b6000610200823603121561275757600080fd5b61275f61267c565b612768836125d7565b815261277660208401612437565b602082015261278760408401612437565b6040820152606083013560608201526080830135608082015260a083013560a08201526127b660c08401612437565b60c08201526127c760e08401612437565b60e082015261010083810135908201526101208084013590820152610140808401359082015261016080840135908201526101808084013567ffffffffffffffff81111561281457600080fd5b612820368287016126a6565b8284015250506101a0612834818501612733565b908201526101c083810135908201526101e092830135928101929092525090565b6000808335601e1984360301811261286c57600080fd5b830160208101925035905067ffffffffffffffff81111561288c57600080fd5b80360382131561289b57600080fd5b9250929050565b81835281816020850137506000828201602090810191909152601f909101601f19169091010190565b60408152600061010084356128df816125c9565b1515604084015260208501356128f481612422565b60018060a01b03811660608501525060408501356080840152606085013560a0840152608085013560c084015261292e60a0860186612855565b60c060e086015261294283860182846128a2565b91505083810360208501526102006129638261295d886125d7565b15159052565b61296f60208701612437565b6001600160a01b0316602083015261298960408701612437565b6001600160a01b038116604084015250606086013560608301526080860135608083015260a086013560a08301526129c360c08701612437565b6001600160a01b031660c08301526129dd60e08701612437565b6001600160a01b031660e0830152828601359282019290925261012080860135908201526101408086013590820152610160808601359082015261018091612a2783870187612855565b8285850152612a3983850182846128a2565b94505050506101a0612a4c818701612733565b60ff16908201526101c085810135908201526101e094850135940193909352509092915050565b600080600060608486031215612a8857600080fd5b8351612a93816125c9565b602085015160409095015190969495509392505050565b60208082526018908201527f53747261746567792073686f756c642062652076616c69640000000000000000604082015260600190565b634e487b7160e01b600052601160045260246000fd5b8181038181111561048d5761048d612ae1565b6020808252601f908201527f43616e6e6f742075706461746520746f2061206e756c6c206164647265737300604082015260600190565b634e487b7160e01b600052603260045260246000fd5b6020808252602c908201527f43616e63656c204f72646572206e6f6e63652063616e6e6f74206c6f7765722060408201526b1d1a185b8818dd5c9c995b9d60a21b606082015260800190565b600060018201612bb557612bb5612ae1565b5060010190565b6020808252810182905260006001600160fb1b03831115612bdc57600080fd5b8260051b80856040850137919091016040019392505050565b8082018082111561048d5761048d612ae1565b8e81528d151560208201526001600160a01b038d811660408301528c1660608201526101c081018b60808301528a60a08301528960c0830152612c5660e083018a6001600160a01b03169052565b6001600160a01b0388166101008301526101208201969096526101408101949094526101608401929092526101808301526101a0909101529998505050505050505050565b600060208284031215612cad57600080fd5b6122b182612733565b600060208284031215612cc857600080fd5b81516122b1816125c9565b60008060408385031215612ce657600080fd5b8251612cf181612422565b6020939093015192949293505050565b808202811582820484141761048d5761048d612ae1565b60208082526022908201527f5468652066656520697320746f6f206869676820666f72207468652073656c6c60408201526132b960f11b606082015260800190565b600060208284031215612d6c57600080fd5b81516122b181612422565b60005b83811015612d92578181015183820152602001612d7a565b50506000910152565b60008151808452612db3816020860160208601612d77565b601f01601f19169290920160200192915050565b8281526040602082015260006122ae6040830184612d9b565b600060208284031215612df257600080fd5b81516001600160e01b0319811681146122b157600080fd5b600060208284031215612e1c57600080fd5b5051919050565b600082612e4057634e487b7160e01b600052601260045260246000fd5b500490565b60008251612e57818460208701612d77565b9190910192915050565b6020815260006122b16020830184612d9b56fea2646970667358221220b9305666772370e093ee4c8ee6bd159714da096c97bb98d5634b3e049397ec7864736f6c63430008110033",
					"opcodes": "PUSH1 0xA0 PUSH1 0x40 MSTORE CALLVALUE DUP1 ISZERO PUSH3 0x11 JUMPI PUSH1 0x0 DUP1 REVERT JUMPDEST POP PUSH1 0x40 MLOAD PUSH3 0x3073 CODESIZE SUB DUP1 PUSH3 0x3073 DUP4 CODECOPY DUP2 ADD PUSH1 0x40 DUP2 SWAP1 MSTORE PUSH3 0x34 SWAP2 PUSH3 0x10C JUMP JUMPDEST PUSH1 0x1 PUSH1 0x0 SSTORE PUSH3 0x44 CALLER PUSH3 0x9D JUMP JUMPDEST PUSH1 0x3 DUP1 SLOAD PUSH1 0x1 PUSH1 0x1 PUSH1 0xA0 SHL SUB SWAP7 DUP8 AND PUSH1 0x1 PUSH1 0x1 PUSH1 0xA0 SHL SUB NOT SWAP2 DUP3 AND OR SWAP1 SWAP2 SSTORE PUSH1 0x4 DUP1 SLOAD SWAP6 DUP8 AND SWAP6 DUP3 AND SWAP6 SWAP1 SWAP6 OR SWAP1 SWAP5 SSTORE PUSH1 0x5 DUP1 SLOAD SWAP4 DUP7 AND SWAP4 DUP6 AND SWAP4 SWAP1 SWAP4 OR SWAP1 SWAP3 SSTORE DUP4 AND PUSH1 0x80 MSTORE PUSH1 0x2 DUP1 SLOAD SWAP2 SWAP1 SWAP4 AND SWAP2 AND OR SWAP1 SSTORE PUSH3 0x17C JUMP JUMPDEST PUSH1 0x1 DUP1 SLOAD PUSH1 0x1 PUSH1 0x1 PUSH1 0xA0 SHL SUB DUP4 DUP2 AND PUSH1 0x1 PUSH1 0x1 PUSH1 0xA0 SHL SUB NOT DUP4 AND DUP2 OR SWAP1 SWAP4 SSTORE PUSH1 0x40 MLOAD SWAP2 AND SWAP2 SWAP1 DUP3 SWAP1 PUSH32 0x8BE0079C531659141344CD1FD0A4F28419497F9722A3DAAFE3B4186F6B6457E0 SWAP1 PUSH1 0x0 SWAP1 LOG3 POP POP JUMP JUMPDEST DUP1 MLOAD PUSH1 0x1 PUSH1 0x1 PUSH1 0xA0 SHL SUB DUP2 AND DUP2 EQ PUSH3 0x107 JUMPI PUSH1 0x0 DUP1 REVERT JUMPDEST SWAP2 SWAP1 POP JUMP JUMPDEST PUSH1 0x0 DUP1 PUSH1 0x0 DUP1 PUSH1 0x0 PUSH1 0xA0 DUP7 DUP9 SUB SLT ISZERO PUSH3 0x125 JUMPI PUSH1 0x0 DUP1 REVERT JUMPDEST PUSH3 0x130 DUP7 PUSH3 0xEF JUMP JUMPDEST SWAP5 POP PUSH3 0x140 PUSH1 0x20 DUP8 ADD PUSH3 0xEF JUMP JUMPDEST SWAP4 POP PUSH3 0x150 PUSH1 0x40 DUP8 ADD PUSH3 0xEF JUMP JUMPDEST SWAP3 POP PUSH3 0x160 PUSH1 0x60 DUP8 ADD PUSH3 0xEF JUMP JUMPDEST SWAP2 POP PUSH3 0x170 PUSH1 0x80 DUP8 ADD PUSH3 0xEF JUMP JUMPDEST SWAP1 POP SWAP3 SWAP6 POP SWAP3 SWAP6 SWAP1 SWAP4 POP JUMP JUMPDEST PUSH1 0x80 MLOAD PUSH2 0x2EAA PUSH3 0x1C9 PUSH1 0x0 CODECOPY PUSH1 0x0 DUP2 DUP2 PUSH2 0x351 ADD MSTORE DUP2 DUP2 PUSH2 0x83A ADD MSTORE DUP2 DUP2 PUSH2 0x922 ADD MSTORE DUP2 DUP2 PUSH2 0x99C ADD MSTORE DUP2 DUP2 PUSH2 0x1C13 ADD MSTORE DUP2 DUP2 PUSH2 0x1CF6 ADD MSTORE DUP2 DUP2 PUSH2 0x1D61 ADD MSTORE PUSH2 0x1DED ADD MSTORE PUSH2 0x2EAA PUSH1 0x0 RETURN INVALID PUSH1 0x80 PUSH1 0x40 MSTORE PUSH1 0x4 CALLDATASIZE LT PUSH2 0x12A JUMPI PUSH1 0x0 CALLDATALOAD PUSH1 0xE0 SHR DUP1 PUSH4 0x64DF049E GT PUSH2 0xAB JUMPI DUP1 PUSH4 0xAD5C4648 GT PUSH2 0x6F JUMPI DUP1 PUSH4 0xAD5C4648 EQ PUSH2 0x33F JUMPI DUP1 PUSH4 0xC5498769 EQ PUSH2 0x373 JUMPI DUP1 PUSH4 0xCBD2EC65 EQ PUSH2 0x393 JUMPI DUP1 PUSH4 0xD4FF41DC EQ PUSH2 0x3B3 JUMPI DUP1 PUSH4 0xF2FDE38B EQ PUSH2 0x3D3 JUMPI DUP1 PUSH4 0xF75FF53F EQ PUSH2 0x3F3 JUMPI PUSH1 0x0 DUP1 REVERT JUMPDEST DUP1 PUSH4 0x64DF049E EQ PUSH2 0x2AC JUMPI DUP1 PUSH4 0x715018A6 EQ PUSH2 0x2CC JUMPI DUP1 PUSH4 0x87E4401F EQ PUSH2 0x2E1 JUMPI DUP1 PUSH4 0x8DA5CB5B EQ PUSH2 0x301 JUMPI DUP1 PUSH4 0x9E53A69A EQ PUSH2 0x31F JUMPI PUSH1 0x0 DUP1 REVERT JUMPDEST DUP1 PUSH4 0x483ABB9F GT PUSH2 0xF2 JUMPI DUP1 PUSH4 0x483ABB9F EQ PUSH2 0x219 JUMPI DUP1 PUSH4 0x509A1A41 EQ PUSH2 0x239 JUMPI DUP1 PUSH4 0x5CE052D7 EQ PUSH2 0x24C JUMPI DUP1 PUSH4 0x5E14F68E EQ PUSH2 0x26C JUMPI DUP1 PUSH4 0x63521DEF EQ PUSH2 0x28C JUMPI PUSH1 0x0 DUP1 REVERT JUMPDEST DUP1 PUSH4 0xF747D74 EQ PUSH2 0x12F JUMPI DUP1 PUSH4 0x1DF47F80 EQ PUSH2 0x16C JUMPI DUP1 PUSH4 0x31E27E27 EQ PUSH2 0x18E JUMPI DUP1 PUSH4 0x4266581E EQ PUSH2 0x1BE JUMPI DUP1 PUSH4 0x45EA7231 EQ PUSH2 0x1F9 JUMPI JUMPDEST PUSH1 0x0 DUP1 REVERT JUMPDEST CALLVALUE DUP1 ISZERO PUSH2 0x13B JUMPI PUSH1 0x0 DUP1 REVERT JUMPDEST POP PUSH1 0x3 SLOAD PUSH2 0x14F SWAP1 PUSH1 0x1 PUSH1 0x1 PUSH1 0xA0 SHL SUB AND DUP2 JUMP JUMPDEST PUSH1 0x40 MLOAD PUSH1 0x1 PUSH1 0x1 PUSH1 0xA0 SHL SUB SWAP1 SWAP2 AND DUP2 MSTORE PUSH1 0x20 ADD JUMPDEST PUSH1 0x40 MLOAD DUP1 SWAP2 SUB SWAP1 RETURN JUMPDEST CALLVALUE DUP1 ISZERO PUSH2 0x178 JUMPI PUSH1 0x0 DUP1 REVERT JUMPDEST POP PUSH2 0x18C PUSH2 0x187 CALLDATASIZE PUSH1 0x4 PUSH2 0x2447 JUMP JUMPDEST PUSH2 0x413 JUMP JUMPDEST STOP JUMPDEST CALLVALUE DUP1 ISZERO PUSH2 0x19A JUMPI PUSH1 0x0 DUP1 REVERT JUMPDEST POP PUSH2 0x1AE PUSH2 0x1A9 CALLDATASIZE PUSH1 0x4 PUSH2 0x2464 JUMP JUMPDEST PUSH2 0x465 JUMP JUMPDEST PUSH1 0x40 MLOAD SWAP1 ISZERO ISZERO DUP2 MSTORE PUSH1 0x20 ADD PUSH2 0x163 JUMP JUMPDEST CALLVALUE DUP1 ISZERO PUSH2 0x1CA JUMPI PUSH1 0x0 DUP1 REVERT JUMPDEST POP PUSH2 0x1EB PUSH2 0x1D9 CALLDATASIZE PUSH1 0x4 PUSH2 0x2447 JUMP JUMPDEST PUSH1 0x7 PUSH1 0x20 MSTORE PUSH1 0x0 SWAP1 DUP2 MSTORE PUSH1 0x40 SWAP1 KECCAK256 SLOAD DUP2 JUMP JUMPDEST PUSH1 0x40 MLOAD SWAP1 DUP2 MSTORE PUSH1 0x20 ADD PUSH2 0x163 JUMP JUMPDEST CALLVALUE DUP1 ISZERO PUSH2 0x205 JUMPI PUSH1 0x0 DUP1 REVERT JUMPDEST POP PUSH2 0x18C PUSH2 0x214 CALLDATASIZE PUSH1 0x4 PUSH2 0x2490 JUMP JUMPDEST PUSH2 0x493 JUMP JUMPDEST CALLVALUE DUP1 ISZERO PUSH2 0x225 JUMPI PUSH1 0x0 DUP1 REVERT JUMPDEST POP PUSH1 0x4 SLOAD PUSH2 0x14F SWAP1 PUSH1 0x1 PUSH1 0x1 PUSH1 0xA0 SHL SUB AND DUP2 JUMP JUMPDEST PUSH2 0x18C PUSH2 0x247 CALLDATASIZE PUSH1 0x4 PUSH2 0x2490 JUMP JUMPDEST PUSH2 0x7CA JUMP JUMPDEST CALLVALUE DUP1 ISZERO PUSH2 0x258 JUMPI PUSH1 0x0 DUP1 REVERT JUMPDEST POP PUSH2 0x18C PUSH2 0x267 CALLDATASIZE PUSH1 0x4 PUSH2 0x2447 JUMP JUMPDEST PUSH2 0xB62 JUMP JUMPDEST CALLVALUE DUP1 ISZERO PUSH2 0x278 JUMPI PUSH1 0x0 DUP1 REVERT JUMPDEST POP PUSH1 0x6 SLOAD PUSH2 0x14F SWAP1 PUSH1 0x1 PUSH1 0x1 PUSH1 0xA0 SHL SUB AND DUP2 JUMP JUMPDEST CALLVALUE DUP1 ISZERO PUSH2 0x298 JUMPI PUSH1 0x0 DUP1 REVERT JUMPDEST POP PUSH2 0x18C PUSH2 0x2A7 CALLDATASIZE PUSH1 0x4 PUSH2 0x2490 JUMP JUMPDEST PUSH2 0xBDA JUMP JUMPDEST CALLVALUE DUP1 ISZERO PUSH2 0x2B8 JUMPI PUSH1 0x0 DUP1 REVERT JUMPDEST POP PUSH1 0x2 SLOAD PUSH2 0x14F SWAP1 PUSH1 0x1 PUSH1 0x1 PUSH1 0xA0 SHL SUB AND DUP2 JUMP JUMPDEST CALLVALUE DUP1 ISZERO PUSH2 0x2D8 JUMPI PUSH1 0x0 DUP1 REVERT JUMPDEST POP PUSH2 0x18C PUSH2 0xE9C JUMP JUMPDEST CALLVALUE DUP1 ISZERO PUSH2 0x2ED JUMPI PUSH1 0x0 DUP1 REVERT JUMPDEST POP PUSH1 0x5 SLOAD PUSH2 0x14F SWAP1 PUSH1 0x1 PUSH1 0x1 PUSH1 0xA0 SHL SUB AND DUP2 JUMP JUMPDEST CALLVALUE DUP1 ISZERO PUSH2 0x30D JUMPI PUSH1 0x0 DUP1 REVERT JUMPDEST POP PUSH1 0x1 SLOAD PUSH1 0x1 PUSH1 0x1 PUSH1 0xA0 SHL SUB AND PUSH2 0x14F JUMP JUMPDEST CALLVALUE DUP1 ISZERO PUSH2 0x32B JUMPI PUSH1 0x0 DUP1 REVERT JUMPDEST POP PUSH2 0x18C PUSH2 0x33A CALLDATASIZE PUSH1 0x4 PUSH2 0x2504 JUMP JUMPDEST PUSH2 0xEB0 JUMP JUMPDEST CALLVALUE DUP1 ISZERO PUSH2 0x34B JUMPI PUSH1 0x0 DUP1 REVERT JUMPDEST POP PUSH2 0x14F PUSH32 0x0 DUP2 JUMP JUMPDEST CALLVALUE DUP1 ISZERO PUSH2 0x37F JUMPI PUSH1 0x0 DUP1 REVERT JUMPDEST POP PUSH2 0x18C PUSH2 0x38E CALLDATASIZE PUSH1 0x4 PUSH2 0x2447 JUMP JUMPDEST PUSH2 0xFFA JUMP JUMPDEST CALLVALUE DUP1 ISZERO PUSH2 0x39F JUMPI PUSH1 0x0 DUP1 REVERT JUMPDEST POP PUSH2 0x18C PUSH2 0x3AE CALLDATASIZE PUSH1 0x4 PUSH2 0x2579 JUMP JUMPDEST PUSH2 0x1072 JUMP JUMPDEST CALLVALUE DUP1 ISZERO PUSH2 0x3BF JUMPI PUSH1 0x0 DUP1 REVERT JUMPDEST POP PUSH2 0x18C PUSH2 0x3CE CALLDATASIZE PUSH1 0x4 PUSH2 0x2447 JUMP JUMPDEST PUSH2 0x115A JUMP JUMPDEST CALLVALUE DUP1 ISZERO PUSH2 0x3DF JUMPI PUSH1 0x0 DUP1 REVERT JUMPDEST POP PUSH2 0x18C PUSH2 0x3EE CALLDATASIZE PUSH1 0x4 PUSH2 0x2447 JUMP JUMPDEST PUSH2 0x11D2 JUMP JUMPDEST CALLVALUE DUP1 ISZERO PUSH2 0x3FF JUMPI PUSH1 0x0 DUP1 REVERT JUMPDEST POP PUSH2 0x18C PUSH2 0x40E CALLDATASIZE PUSH1 0x4 PUSH2 0x2447 JUMP JUMPDEST PUSH2 0x124B JUMP JUMPDEST PUSH2 0x41B PUSH2 0x12C3 JUMP JUMPDEST PUSH1 0x2 DUP1 SLOAD PUSH1 0x1 PUSH1 0x1 PUSH1 0xA0 SHL SUB NOT AND PUSH1 0x1 PUSH1 0x1 PUSH1 0xA0 SHL SUB DUP4 AND SWAP1 DUP2 OR SWAP1 SWAP2 SSTORE PUSH1 0x40 MLOAD PUSH32 0x8CFFB07FAA2874440346743BDC0A86B06C3335CC47DC49B327D10E77B73CEB10 SWAP1 PUSH1 0x0 SWAP1 LOG2 POP JUMP JUMPDEST PUSH1 0x1 PUSH1 0x1 PUSH1 0xA0 SHL SUB DUP3 AND PUSH1 0x0 SWAP1 DUP2 MSTORE PUSH1 0x8 PUSH1 0x20 SWAP1 DUP2 MSTORE PUSH1 0x40 DUP1 DUP4 KECCAK256 DUP5 DUP5 MSTORE SWAP1 SWAP2 MSTORE SWAP1 KECCAK256 SLOAD PUSH1 0xFF AND JUMPDEST SWAP3 SWAP2 POP POP JUMP JUMPDEST PUSH1 0x2 PUSH1 0x0 SLOAD SUB PUSH2 0x4BE JUMPI PUSH1 0x40 MLOAD PUSH3 0x461BCD PUSH1 0xE5 SHL DUP2 MSTORE PUSH1 0x4 ADD PUSH2 0x4B5 SWAP1 PUSH2 0x2592 JUMP JUMPDEST PUSH1 0x40 MLOAD DUP1 SWAP2 SUB SWAP1 REVERT JUMPDEST PUSH1 0x2 PUSH1 0x0 SSTORE PUSH2 0x4D0 PUSH1 0x20 DUP3 ADD DUP3 PUSH2 0x25E2 JUMP JUMPDEST DUP1 ISZERO PUSH2 0x4E6 JUMPI POP PUSH2 0x4E4 PUSH1 0x20 DUP4 ADD DUP4 PUSH2 0x25E2 JUMP JUMPDEST ISZERO JUMPDEST PUSH2 0x502 JUMPI PUSH1 0x40 MLOAD PUSH3 0x461BCD PUSH1 0xE5 SHL DUP2 MSTORE PUSH1 0x4 ADD PUSH2 0x4B5 SWAP1 PUSH2 0x25FF JUMP JUMPDEST PUSH2 0x512 PUSH1 0x40 DUP4 ADD PUSH1 0x20 DUP5 ADD PUSH2 0x2447 JUMP JUMPDEST PUSH1 0x1 PUSH1 0x1 PUSH1 0xA0 SHL SUB AND CALLER PUSH1 0x1 PUSH1 0x1 PUSH1 0xA0 SHL SUB AND EQ PUSH2 0x542 JUMPI PUSH1 0x40 MLOAD PUSH3 0x461BCD PUSH1 0xE5 SHL DUP2 MSTORE PUSH1 0x4 ADD PUSH2 0x4B5 SWAP1 PUSH2 0x262F JUMP JUMPDEST PUSH1 0x0 PUSH2 0x555 PUSH2 0x550 DUP4 PUSH2 0x2744 JUMP JUMPDEST PUSH2 0x131D JUMP JUMPDEST SWAP1 POP PUSH2 0x561 DUP3 DUP3 PUSH2 0x13C4 JUMP JUMPDEST PUSH1 0x0 DUP1 DUP1 PUSH2 0x575 PUSH1 0xE0 DUP7 ADD PUSH1 0xC0 DUP8 ADD PUSH2 0x2447 JUMP JUMPDEST PUSH1 0x1 PUSH1 0x1 PUSH1 0xA0 SHL SUB AND PUSH4 0xD310677D DUP8 DUP8 PUSH1 0x40 MLOAD DUP4 PUSH4 0xFFFFFFFF AND PUSH1 0xE0 SHL DUP2 MSTORE PUSH1 0x4 ADD PUSH2 0x5A2 SWAP3 SWAP2 SWAP1 PUSH2 0x28CB JUMP JUMPDEST PUSH1 0x60 PUSH1 0x40 MLOAD DUP1 DUP4 SUB DUP2 DUP7 GAS STATICCALL ISZERO DUP1 ISZERO PUSH2 0x5BF JUMPI RETURNDATASIZE PUSH1 0x0 DUP1 RETURNDATACOPY RETURNDATASIZE PUSH1 0x0 REVERT JUMPDEST POP POP POP POP PUSH1 0x40 MLOAD RETURNDATASIZE PUSH1 0x1F NOT PUSH1 0x1F DUP3 ADD AND DUP3 ADD DUP1 PUSH1 0x40 MSTORE POP DUP2 ADD SWAP1 PUSH2 0x5E3 SWAP2 SWAP1 PUSH2 0x2A73 JUMP JUMPDEST SWAP3 POP SWAP3 POP SWAP3 POP DUP3 PUSH2 0x606 JUMPI PUSH1 0x40 MLOAD PUSH3 0x461BCD PUSH1 0xE5 SHL DUP2 MSTORE PUSH1 0x4 ADD PUSH2 0x4B5 SWAP1 PUSH2 0x2AAA JUMP JUMPDEST PUSH1 0x1 PUSH1 0x8 PUSH1 0x0 PUSH2 0x61C PUSH1 0x40 DUP10 ADD PUSH1 0x20 DUP11 ADD PUSH2 0x2447 JUMP JUMPDEST PUSH1 0x1 PUSH1 0x1 PUSH1 0xA0 SHL SUB AND DUP2 MSTORE PUSH1 0x20 DUP1 DUP3 ADD SWAP3 SWAP1 SWAP3 MSTORE PUSH1 0x40 SWAP1 DUP2 ADD PUSH1 0x0 SWAP1 DUP2 KECCAK256 PUSH2 0x100 DUP11 ADD CALLDATALOAD DUP3 MSTORE SWAP1 SWAP3 MSTORE SWAP1 KECCAK256 DUP1 SLOAD PUSH1 0xFF NOT AND SWAP2 ISZERO ISZERO SWAP2 SWAP1 SWAP2 OR SWAP1 SSTORE PUSH2 0x6AC PUSH2 0x669 PUSH1 0xE0 DUP8 ADD PUSH1 0xC0 DUP9 ADD PUSH2 0x2447 JUMP JUMPDEST PUSH2 0x679 PUSH1 0x60 DUP9 ADD PUSH1 0x40 DUP10 ADD PUSH2 0x2447 JUMP JUMPDEST DUP5 PUSH2 0x68B PUSH2 0x100 DUP11 ADD PUSH1 0xE0 DUP12 ADD PUSH2 0x2447 JUMP JUMPDEST CALLER PUSH2 0x69C PUSH1 0x40 DUP13 ADD PUSH1 0x20 DUP14 ADD PUSH2 0x2447 JUMP JUMPDEST DUP13 PUSH1 0x40 ADD CALLDATALOAD DUP13 PUSH2 0x160 ADD CALLDATALOAD PUSH2 0x1849 JUMP JUMPDEST PUSH2 0x6E6 PUSH2 0x6BF PUSH1 0x60 DUP8 ADD PUSH1 0x40 DUP9 ADD PUSH2 0x2447 JUMP JUMPDEST PUSH2 0x6CF PUSH1 0x40 DUP9 ADD PUSH1 0x20 DUP10 ADD PUSH2 0x2447 JUMP JUMPDEST PUSH2 0x6DF PUSH1 0x40 DUP11 ADD PUSH1 0x20 DUP12 ADD PUSH2 0x2447 JUMP JUMPDEST DUP6 DUP6 PUSH2 0x1A1B JUMP JUMPDEST PUSH2 0x6F6 PUSH1 0xE0 DUP7 ADD PUSH1 0xC0 DUP8 ADD PUSH2 0x2447 JUMP JUMPDEST PUSH1 0x1 PUSH1 0x1 PUSH1 0xA0 SHL SUB AND PUSH2 0x70F PUSH1 0x40 DUP8 ADD PUSH1 0x20 DUP9 ADD PUSH2 0x2447 JUMP JUMPDEST PUSH1 0x1 PUSH1 0x1 PUSH1 0xA0 SHL SUB AND PUSH2 0x728 PUSH1 0x40 DUP10 ADD PUSH1 0x20 DUP11 ADD PUSH2 0x2447 JUMP JUMPDEST PUSH1 0x1 PUSH1 0x1 PUSH1 0xA0 SHL SUB AND PUSH32 0x95FB6205E23FF6BDA16A2D1DBA56B9AD7C783F67C96FA149785052F47696F2BE DUP8 PUSH2 0x100 DUP11 ADD DUP1 CALLDATALOAD SWAP1 PUSH2 0x768 SWAP1 PUSH1 0xE0 DUP14 ADD PUSH2 0x2447 JUMP JUMPDEST PUSH2 0x778 PUSH1 0x60 DUP14 ADD PUSH1 0x40 DUP15 ADD PUSH2 0x2447 JUMP JUMPDEST PUSH1 0x40 DUP1 MLOAD SWAP5 DUP6 MSTORE PUSH1 0x20 DUP6 ADD SWAP4 SWAP1 SWAP4 MSTORE PUSH1 0x1 PUSH1 0x1 PUSH1 0xA0 SHL SUB SWAP2 DUP3 AND DUP5 DUP5 ADD MSTORE AND PUSH1 0x60 DUP4 ADD MSTORE PUSH1 0x80 DUP3 ADD DUP9 SWAP1 MSTORE PUSH1 0xA0 DUP3 ADD DUP8 SWAP1 MSTORE DUP12 ADD CALLDATALOAD PUSH1 0xC0 DUP3 ADD MSTORE PUSH1 0xE0 ADD PUSH1 0x40 MLOAD DUP1 SWAP2 SUB SWAP1 LOG4 POP POP PUSH1 0x1 PUSH1 0x0 SSTORE POP POP POP POP JUMP JUMPDEST PUSH1 0x2 PUSH1 0x0 SLOAD SUB PUSH2 0x7EC JUMPI PUSH1 0x40 MLOAD PUSH3 0x461BCD PUSH1 0xE5 SHL DUP2 MSTORE PUSH1 0x4 ADD PUSH2 0x4B5 SWAP1 PUSH2 0x2592 JUMP JUMPDEST PUSH1 0x2 PUSH1 0x0 SSTORE PUSH2 0x7FE PUSH1 0x20 DUP3 ADD DUP3 PUSH2 0x25E2 JUMP JUMPDEST DUP1 ISZERO PUSH2 0x814 JUMPI POP PUSH2 0x812 PUSH1 0x20 DUP4 ADD DUP4 PUSH2 0x25E2 JUMP JUMPDEST ISZERO JUMPDEST PUSH2 0x830 JUMPI PUSH1 0x40 MLOAD PUSH3 0x461BCD PUSH1 0xE5 SHL DUP2 MSTORE PUSH1 0x4 ADD PUSH2 0x4B5 SWAP1 PUSH2 0x25FF JUMP JUMPDEST PUSH1 0x1 PUSH1 0x1 PUSH1 0xA0 SHL SUB PUSH32 0x0 AND PUSH2 0x86B PUSH2 0x100 DUP4 ADD PUSH1 0xE0 DUP5 ADD PUSH2 0x2447 JUMP JUMPDEST PUSH1 0x1 PUSH1 0x1 PUSH1 0xA0 SHL SUB AND EQ PUSH2 0x8B9 JUMPI PUSH1 0x40 MLOAD PUSH3 0x461BCD PUSH1 0xE5 SHL DUP2 MSTORE PUSH1 0x20 PUSH1 0x4 DUP3 ADD MSTORE PUSH1 0x15 PUSH1 0x24 DUP3 ADD MSTORE PUSH21 0x86EAE4E4CADCC6F240DAEAE6E840C4CA40AE8AA89 PUSH1 0x5B SHL PUSH1 0x44 DUP3 ADD MSTORE PUSH1 0x64 ADD PUSH2 0x4B5 JUMP JUMPDEST PUSH2 0x8C9 PUSH1 0x40 DUP4 ADD PUSH1 0x20 DUP5 ADD PUSH2 0x2447 JUMP JUMPDEST PUSH1 0x1 PUSH1 0x1 PUSH1 0xA0 SHL SUB AND CALLER PUSH1 0x1 PUSH1 0x1 PUSH1 0xA0 SHL SUB AND EQ PUSH2 0x8F9 JUMPI PUSH1 0x40 MLOAD PUSH3 0x461BCD PUSH1 0xE5 SHL DUP2 MSTORE PUSH1 0x4 ADD PUSH2 0x4B5 SWAP1 PUSH2 0x262F JUMP JUMPDEST CALLVALUE DUP3 PUSH1 0x40 ADD CALLDATALOAD GT ISZERO PUSH2 0x94F JUMPI PUSH2 0x94A CALLER ADDRESS PUSH2 0x918 CALLVALUE PUSH1 0x40 DUP8 ADD CALLDATALOAD PUSH2 0x2AF7 JUMP JUMPDEST PUSH1 0x1 PUSH1 0x1 PUSH1 0xA0 SHL SUB PUSH32 0x0 AND SWAP3 SWAP2 SWAP1 PUSH2 0x1B63 JUMP JUMPDEST PUSH2 0x99A JUMP JUMPDEST CALLVALUE DUP3 PUSH1 0x40 ADD CALLDATALOAD EQ PUSH2 0x99A JUMPI PUSH1 0x40 MLOAD PUSH3 0x461BCD PUSH1 0xE5 SHL DUP2 MSTORE PUSH1 0x20 PUSH1 0x4 DUP3 ADD MSTORE PUSH1 0x15 PUSH1 0x24 DUP3 ADD MSTORE PUSH21 0x9AE6CE5CECC2D8EACA40D2E640E8DEDE40D0D2CED PUSH1 0x5B SHL PUSH1 0x44 DUP3 ADD MSTORE PUSH1 0x64 ADD PUSH2 0x4B5 JUMP JUMPDEST PUSH32 0x0 PUSH1 0x1 PUSH1 0x1 PUSH1 0xA0 SHL SUB AND PUSH4 0xD0E30DB0 CALLVALUE PUSH1 0x40 MLOAD DUP3 PUSH4 0xFFFFFFFF AND PUSH1 0xE0 SHL DUP2 MSTORE PUSH1 0x4 ADD PUSH1 0x0 PUSH1 0x40 MLOAD DUP1 DUP4 SUB DUP2 DUP6 DUP9 DUP1 EXTCODESIZE ISZERO DUP1 ISZERO PUSH2 0x9F5 JUMPI PUSH1 0x0 DUP1 REVERT JUMPDEST POP GAS CALL ISZERO DUP1 ISZERO PUSH2 0xA09 JUMPI RETURNDATASIZE PUSH1 0x0 DUP1 RETURNDATACOPY RETURNDATASIZE PUSH1 0x0 REVERT JUMPDEST POP POP POP POP POP PUSH1 0x0 PUSH2 0xA1D DUP3 PUSH2 0x550 SWAP1 PUSH2 0x2744 JUMP JUMPDEST SWAP1 POP PUSH2 0xA29 DUP3 DUP3 PUSH2 0x13C4 JUMP JUMPDEST PUSH1 0x0 DUP1 DUP1 PUSH2 0xA3D PUSH1 0xE0 DUP7 ADD PUSH1 0xC0 DUP8 ADD PUSH2 0x2447 JUMP JUMPDEST PUSH1 0x1 PUSH1 0x1 PUSH1 0xA0 SHL SUB AND PUSH4 0xD310677D DUP8 DUP8 PUSH1 0x40 MLOAD DUP4 PUSH4 0xFFFFFFFF AND PUSH1 0xE0 SHL DUP2 MSTORE PUSH1 0x4 ADD PUSH2 0xA6A SWAP3 SWAP2 SWAP1 PUSH2 0x28CB JUMP JUMPDEST PUSH1 0x60 PUSH1 0x40 MLOAD DUP1 DUP4 SUB DUP2 DUP7 GAS STATICCALL ISZERO DUP1 ISZERO PUSH2 0xA87 JUMPI RETURNDATASIZE PUSH1 0x0 DUP1 RETURNDATACOPY RETURNDATASIZE PUSH1 0x0 REVERT JUMPDEST POP POP POP POP PUSH1 0x40 MLOAD RETURNDATASIZE PUSH1 0x1F NOT PUSH1 0x1F DUP3 ADD AND DUP3 ADD DUP1 PUSH1 0x40 MSTORE POP DUP2 ADD SWAP1 PUSH2 0xAAB SWAP2 SWAP1 PUSH2 0x2A73 JUMP JUMPDEST SWAP3 POP SWAP3 POP SWAP3 POP DUP3 PUSH2 0xACE JUMPI PUSH1 0x40 MLOAD PUSH3 0x461BCD PUSH1 0xE5 SHL DUP2 MSTORE PUSH1 0x4 ADD PUSH2 0x4B5 SWAP1 PUSH2 0x2AAA JUMP JUMPDEST PUSH1 0x1 PUSH1 0x8 PUSH1 0x0 PUSH2 0xAE4 PUSH1 0x40 DUP10 ADD PUSH1 0x20 DUP11 ADD PUSH2 0x2447 JUMP JUMPDEST PUSH1 0x1 PUSH1 0x1 PUSH1 0xA0 SHL SUB AND DUP2 MSTORE PUSH1 0x20 DUP1 DUP3 ADD SWAP3 SWAP1 SWAP3 MSTORE PUSH1 0x40 SWAP1 DUP2 ADD PUSH1 0x0 SWAP1 DUP2 KECCAK256 PUSH2 0x100 DUP11 ADD CALLDATALOAD DUP3 MSTORE SWAP1 SWAP3 MSTORE SWAP1 KECCAK256 DUP1 SLOAD PUSH1 0xFF NOT AND SWAP2 ISZERO ISZERO SWAP2 SWAP1 SWAP2 OR SWAP1 SSTORE PUSH2 0x6AC PUSH2 0xB31 PUSH1 0xE0 DUP8 ADD PUSH1 0xC0 DUP9 ADD PUSH2 0x2447 JUMP JUMPDEST PUSH2 0xB41 PUSH1 0x60 DUP9 ADD PUSH1 0x40 DUP10 ADD PUSH2 0x2447 JUMP JUMPDEST DUP5 PUSH2 0xB52 PUSH1 0x40 DUP11 ADD PUSH1 0x20 DUP12 ADD PUSH2 0x2447 JUMP JUMPDEST DUP11 PUSH1 0x40 ADD CALLDATALOAD DUP11 PUSH2 0x160 ADD CALLDATALOAD PUSH2 0x1BD4 JUMP JUMPDEST PUSH2 0xB6A PUSH2 0x12C3 JUMP JUMPDEST PUSH1 0x1 PUSH1 0x1 PUSH1 0xA0 SHL SUB DUP2 AND PUSH2 0xB90 JUMPI PUSH1 0x40 MLOAD PUSH3 0x461BCD PUSH1 0xE5 SHL DUP2 MSTORE PUSH1 0x4 ADD PUSH2 0x4B5 SWAP1 PUSH2 0x2B0A JUMP JUMPDEST PUSH1 0x3 DUP1 SLOAD PUSH1 0x1 PUSH1 0x1 PUSH1 0xA0 SHL SUB NOT AND PUSH1 0x1 PUSH1 0x1 PUSH1 0xA0 SHL SUB DUP4 AND SWAP1 DUP2 OR SWAP1 SWAP2 SSTORE PUSH1 0x40 MLOAD PUSH32 0xB4F5DB40DF3ACED29E88A4BABBC3B46E305E07D34098525D18B1497056E63838 SWAP1 PUSH1 0x0 SWAP1 LOG2 POP JUMP JUMPDEST PUSH1 0x2 PUSH1 0x0 SLOAD SUB PUSH2 0xBFC JUMPI PUSH1 0x40 MLOAD PUSH3 0x461BCD PUSH1 0xE5 SHL DUP2 MSTORE PUSH1 0x4 ADD PUSH2 0x4B5 SWAP1 PUSH2 0x2592 JUMP JUMPDEST PUSH1 0x2 PUSH1 0x0 SSTORE PUSH2 0xC0E PUSH1 0x20 DUP3 ADD DUP3 PUSH2 0x25E2 JUMP JUMPDEST ISZERO DUP1 ISZERO PUSH2 0xC23 JUMPI POP PUSH2 0xC23 PUSH1 0x20 DUP4 ADD DUP4 PUSH2 0x25E2 JUMP JUMPDEST PUSH2 0xC3F JUMPI PUSH1 0x40 MLOAD PUSH3 0x461BCD PUSH1 0xE5 SHL DUP2 MSTORE PUSH1 0x4 ADD PUSH2 0x4B5 SWAP1 PUSH2 0x25FF JUMP JUMPDEST PUSH2 0xC4F PUSH1 0x40 DUP4 ADD PUSH1 0x20 DUP5 ADD PUSH2 0x2447 JUMP JUMPDEST PUSH1 0x1 PUSH1 0x1 PUSH1 0xA0 SHL SUB AND CALLER PUSH1 0x1 PUSH1 0x1 PUSH1 0xA0 SHL SUB AND EQ PUSH2 0xC7F JUMPI PUSH1 0x40 MLOAD PUSH3 0x461BCD PUSH1 0xE5 SHL DUP2 MSTORE PUSH1 0x4 ADD PUSH2 0x4B5 SWAP1 PUSH2 0x262F JUMP JUMPDEST PUSH1 0x0 PUSH2 0xC8D PUSH2 0x550 DUP4 PUSH2 0x2744 JUMP JUMPDEST SWAP1 POP PUSH2 0xC99 DUP3 DUP3 PUSH2 0x13C4 JUMP JUMPDEST PUSH1 0x0 DUP1 DUP1 PUSH2 0xCAD PUSH1 0xE0 DUP7 ADD PUSH1 0xC0 DUP8 ADD PUSH2 0x2447 JUMP JUMPDEST PUSH1 0x1 PUSH1 0x1 PUSH1 0xA0 SHL SUB AND PUSH4 0x2A75FFEE DUP8 DUP8 PUSH1 0x40 MLOAD DUP4 PUSH4 0xFFFFFFFF AND PUSH1 0xE0 SHL DUP2 MSTORE PUSH1 0x4 ADD PUSH2 0xCDA SWAP3 SWAP2 SWAP1 PUSH2 0x28CB JUMP JUMPDEST PUSH1 0x60 PUSH1 0x40 MLOAD DUP1 DUP4 SUB DUP2 DUP7 GAS STATICCALL ISZERO DUP1 ISZERO PUSH2 0xCF7 JUMPI RETURNDATASIZE PUSH1 0x0 DUP1 RETURNDATACOPY RETURNDATASIZE PUSH1 0x0 REVERT JUMPDEST POP POP POP POP PUSH1 0x40 MLOAD RETURNDATASIZE PUSH1 0x1F NOT PUSH1 0x1F DUP3 ADD AND DUP3 ADD DUP1 PUSH1 0x40 MSTORE POP DUP2 ADD SWAP1 PUSH2 0xD1B SWAP2 SWAP1 PUSH2 0x2A73 JUMP JUMPDEST SWAP3 POP SWAP3 POP SWAP3 POP DUP3 PUSH2 0xD3E JUMPI PUSH1 0x40 MLOAD PUSH3 0x461BCD PUSH1 0xE5 SHL DUP2 MSTORE PUSH1 0x4 ADD PUSH2 0x4B5 SWAP1 PUSH2 0x2AAA JUMP JUMPDEST PUSH1 0x1 PUSH1 0x8 PUSH1 0x0 PUSH2 0xD54 PUSH1 0x40 DUP10 ADD PUSH1 0x20 DUP11 ADD PUSH2 0x2447 JUMP JUMPDEST PUSH1 0x1 PUSH1 0x1 PUSH1 0xA0 SHL SUB AND DUP2 MSTORE PUSH1 0x20 DUP1 DUP3 ADD SWAP3 SWAP1 SWAP3 MSTORE PUSH1 0x40 SWAP1 DUP2 ADD PUSH1 0x0 SWAP1 DUP2 KECCAK256 PUSH2 0x100 DUP11 ADD CALLDATALOAD DUP3 MSTORE SWAP1 SWAP3 MSTORE SWAP1 DUP2 SWAP1 KECCAK256 DUP1 SLOAD PUSH1 0xFF NOT AND SWAP3 ISZERO ISZERO SWAP3 SWAP1 SWAP3 OR SWAP1 SWAP2 SSTORE PUSH2 0xDB6 SWAP1 PUSH2 0xDA5 SWAP1 PUSH1 0x60 DUP9 ADD SWAP1 DUP9 ADD PUSH2 0x2447 JUMP JUMPDEST CALLER PUSH2 0x6DF PUSH1 0x40 DUP10 ADD PUSH1 0x20 DUP11 ADD PUSH2 0x2447 JUMP JUMPDEST PUSH2 0xE1A PUSH2 0xDC9 PUSH1 0xE0 DUP8 ADD PUSH1 0xC0 DUP9 ADD PUSH2 0x2447 JUMP JUMPDEST PUSH2 0xDD9 PUSH1 0x60 DUP9 ADD PUSH1 0x40 DUP10 ADD PUSH2 0x2447 JUMP JUMPDEST DUP5 PUSH2 0xDEB PUSH2 0x100 DUP11 ADD PUSH1 0xE0 DUP12 ADD PUSH2 0x2447 JUMP JUMPDEST PUSH2 0xDFB PUSH1 0x40 DUP12 ADD PUSH1 0x20 DUP13 ADD PUSH2 0x2447 JUMP JUMPDEST PUSH2 0xE0B PUSH1 0x40 DUP14 ADD PUSH1 0x20 DUP15 ADD PUSH2 0x2447 JUMP JUMPDEST DUP13 PUSH1 0x40 ADD CALLDATALOAD DUP14 PUSH1 0x80 ADD CALLDATALOAD PUSH2 0x1849 JUMP JUMPDEST PUSH2 0xE2A PUSH1 0xE0 DUP7 ADD PUSH1 0xC0 DUP8 ADD PUSH2 0x2447 JUMP JUMPDEST PUSH1 0x1 PUSH1 0x1 PUSH1 0xA0 SHL SUB AND PUSH2 0xE43 PUSH1 0x40 DUP8 ADD PUSH1 0x20 DUP9 ADD PUSH2 0x2447 JUMP JUMPDEST PUSH1 0x1 PUSH1 0x1 PUSH1 0xA0 SHL SUB AND PUSH2 0xE5C PUSH1 0x40 DUP10 ADD PUSH1 0x20 DUP11 ADD PUSH2 0x2447 JUMP JUMPDEST PUSH1 0x1 PUSH1 0x1 PUSH1 0xA0 SHL SUB AND PUSH32 0x68CD251D4D267C6E2034FF0088B990352B97B2002C0476587D0C4DA889C11330 DUP8 PUSH2 0x100 DUP11 ADD DUP1 CALLDATALOAD SWAP1 PUSH2 0x768 SWAP1 PUSH1 0xE0 DUP14 ADD PUSH2 0x2447 JUMP JUMPDEST PUSH2 0xEA4 PUSH2 0x12C3 JUMP JUMPDEST PUSH2 0xEAE PUSH1 0x0 PUSH2 0x1E14 JUMP JUMPDEST JUMP JUMPDEST DUP1 PUSH2 0xEFD JUMPI PUSH1 0x40 MLOAD PUSH3 0x461BCD PUSH1 0xE5 SHL DUP2 MSTORE PUSH1 0x20 PUSH1 0x4 DUP3 ADD MSTORE PUSH1 0x1B PUSH1 0x24 DUP3 ADD MSTORE PUSH32 0x43616E6E6F7420626520656D7074792043616E63656C206C6973740000000000 PUSH1 0x44 DUP3 ADD MSTORE PUSH1 0x64 ADD PUSH2 0x4B5 JUMP JUMPDEST PUSH1 0x0 JUMPDEST DUP2 DUP2 LT ISZERO PUSH2 0xFB2 JUMPI CALLER PUSH1 0x0 SWAP1 DUP2 MSTORE PUSH1 0x7 PUSH1 0x20 MSTORE PUSH1 0x40 SWAP1 KECCAK256 SLOAD DUP4 DUP4 DUP4 DUP2 DUP2 LT PUSH2 0xF2A JUMPI PUSH2 0xF2A PUSH2 0x2B41 JUMP JUMPDEST SWAP1 POP PUSH1 0x20 MUL ADD CALLDATALOAD LT ISZERO PUSH2 0xF4F JUMPI PUSH1 0x40 MLOAD PUSH3 0x461BCD PUSH1 0xE5 SHL DUP2 MSTORE PUSH1 0x4 ADD PUSH2 0x4B5 SWAP1 PUSH2 0x2B57 JUMP JUMPDEST CALLER PUSH1 0x0 SWAP1 DUP2 MSTORE PUSH1 0x8 PUSH1 0x20 MSTORE PUSH1 0x40 DUP2 KECCAK256 PUSH1 0x1 SWAP2 DUP6 DUP6 DUP6 DUP2 DUP2 LT PUSH2 0xF73 JUMPI PUSH2 0xF73 PUSH2 0x2B41 JUMP JUMPDEST SWAP1 POP PUSH1 0x20 MUL ADD CALLDATALOAD DUP2 MSTORE PUSH1 0x20 ADD SWAP1 DUP2 MSTORE PUSH1 0x20 ADD PUSH1 0x0 KECCAK256 PUSH1 0x0 PUSH2 0x100 EXP DUP2 SLOAD DUP2 PUSH1 0xFF MUL NOT AND SWAP1 DUP4 ISZERO ISZERO MUL OR SWAP1 SSTORE POP DUP1 DUP1 PUSH2 0xFAA SWAP1 PUSH2 0x2BA3 JUMP JUMPDEST SWAP2 POP POP PUSH2 0xF00 JUMP JUMPDEST POP CALLER PUSH1 0x1 PUSH1 0x1 PUSH1 0xA0 SHL SUB AND PUSH32 0xFA0AE5D80FE3763C880A3839FAB0294171A6F730D1F82C4CD5392C6F67B41732 DUP4 DUP4 PUSH1 0x40 MLOAD PUSH2 0xFEE SWAP3 SWAP2 SWAP1 PUSH2 0x2BBC JUMP JUMPDEST PUSH1 0x40 MLOAD DUP1 SWAP2 SUB SWAP1 LOG2 POP POP JUMP JUMPDEST PUSH2 0x1002 PUSH2 0x12C3 JUMP JUMPDEST PUSH1 0x1 PUSH1 0x1 PUSH1 0xA0 SHL SUB DUP2 AND PUSH2 0x1028 JUMPI PUSH1 0x40 MLOAD PUSH3 0x461BCD PUSH1 0xE5 SHL DUP2 MSTORE PUSH1 0x4 ADD PUSH2 0x4B5 SWAP1 PUSH2 0x2B0A JUMP JUMPDEST PUSH1 0x5 DUP1 SLOAD PUSH1 0x1 PUSH1 0x1 PUSH1 0xA0 SHL SUB NOT AND PUSH1 0x1 PUSH1 0x1 PUSH1 0xA0 SHL SUB DUP4 AND SWAP1 DUP2 OR SWAP1 SWAP2 SSTORE PUSH1 0x40 MLOAD PUSH32 0x80E3874461EBBD918AC3E81DA0A92E5E51387D70F337237C9123E48D20E5A508 SWAP1 PUSH1 0x0 SWAP1 LOG2 POP JUMP JUMPDEST CALLER PUSH1 0x0 SWAP1 DUP2 MSTORE PUSH1 0x7 PUSH1 0x20 MSTORE PUSH1 0x40 SWAP1 KECCAK256 SLOAD DUP2 GT PUSH2 0x10A0 JUMPI PUSH1 0x40 MLOAD PUSH3 0x461BCD PUSH1 0xE5 SHL DUP2 MSTORE PUSH1 0x4 ADD PUSH2 0x4B5 SWAP1 PUSH2 0x2B57 JUMP JUMPDEST CALLER PUSH1 0x0 SWAP1 DUP2 MSTORE PUSH1 0x7 PUSH1 0x20 MSTORE PUSH1 0x40 SWAP1 KECCAK256 SLOAD PUSH2 0x10BD SWAP1 PUSH3 0x7A120 PUSH2 0x2BF5 JUMP JUMPDEST DUP2 LT PUSH2 0x110B JUMPI PUSH1 0x40 MLOAD PUSH3 0x461BCD PUSH1 0xE5 SHL DUP2 MSTORE PUSH1 0x20 PUSH1 0x4 DUP3 ADD MSTORE PUSH1 0x1D PUSH1 0x24 DUP3 ADD MSTORE PUSH32 0x43616E6E6F742063616E63656C20746F6F206D616E79206F7264657273000000 PUSH1 0x44 DUP3 ADD MSTORE PUSH1 0x64 ADD PUSH2 0x4B5 JUMP JUMPDEST CALLER PUSH1 0x0 DUP2 DUP2 MSTORE PUSH1 0x7 PUSH1 0x20 MSTORE PUSH1 0x40 SWAP1 DUP2 SWAP1 KECCAK256 DUP4 SWAP1 SSTORE MLOAD PUSH32 0x1E7178D84F0B0825C65795CD62E7972809AD3AAC6917843AAEC596161B2C0A97 SWAP1 PUSH2 0x114F SWAP1 DUP5 DUP2 MSTORE PUSH1 0x20 ADD SWAP1 JUMP JUMPDEST PUSH1 0x40 MLOAD DUP1 SWAP2 SUB SWAP1 LOG2 POP JUMP JUMPDEST PUSH2 0x1162 PUSH2 0x12C3 JUMP JUMPDEST PUSH1 0x1 PUSH1 0x1 PUSH1 0xA0 SHL SUB DUP2 AND PUSH2 0x1188 JUMPI PUSH1 0x40 MLOAD PUSH3 0x461BCD PUSH1 0xE5 SHL DUP2 MSTORE PUSH1 0x4 ADD PUSH2 0x4B5 SWAP1 PUSH2 0x2B0A JUMP JUMPDEST PUSH1 0x4 DUP1 SLOAD PUSH1 0x1 PUSH1 0x1 PUSH1 0xA0 SHL SUB NOT AND PUSH1 0x1 PUSH1 0x1 PUSH1 0xA0 SHL SUB DUP4 AND SWAP1 DUP2 OR SWAP1 SWAP2 SSTORE PUSH1 0x40 MLOAD PUSH32 0x36E2A376EABC3BC60CB88F29C288F53E36874A95A7F407330AB4F166B0905698 SWAP1 PUSH1 0x0 SWAP1 LOG2 POP JUMP JUMPDEST PUSH2 0x11DA PUSH2 0x12C3 JUMP JUMPDEST PUSH1 0x1 PUSH1 0x1 PUSH1 0xA0 SHL SUB DUP2 AND PUSH2 0x123F JUMPI PUSH1 0x40 MLOAD PUSH3 0x461BCD PUSH1 0xE5 SHL DUP2 MSTORE PUSH1 0x20 PUSH1 0x4 DUP3 ADD MSTORE PUSH1 0x26 PUSH1 0x24 DUP3 ADD MSTORE PUSH32 0x4F776E61626C653A206E6577206F776E657220697320746865207A65726F2061 PUSH1 0x44 DUP3 ADD MSTORE PUSH6 0x646472657373 PUSH1 0xD0 SHL PUSH1 0x64 DUP3 ADD MSTORE PUSH1 0x84 ADD PUSH2 0x4B5 JUMP JUMPDEST PUSH2 0x1248 DUP2 PUSH2 0x1E14 JUMP JUMPDEST POP JUMP JUMPDEST PUSH2 0x1253 PUSH2 0x12C3 JUMP JUMPDEST PUSH1 0x1 PUSH1 0x1 PUSH1 0xA0 SHL SUB DUP2 AND PUSH2 0x1279 JUMPI PUSH1 0x40 MLOAD PUSH3 0x461BCD PUSH1 0xE5 SHL DUP2 MSTORE PUSH1 0x4 ADD PUSH2 0x4B5 SWAP1 PUSH2 0x2B0A JUMP JUMPDEST PUSH1 0x6 DUP1 SLOAD PUSH1 0x1 PUSH1 0x1 PUSH1 0xA0 SHL SUB NOT AND PUSH1 0x1 PUSH1 0x1 PUSH1 0xA0 SHL SUB DUP4 AND SWAP1 DUP2 OR SWAP1 SWAP2 SSTORE PUSH1 0x40 MLOAD PUSH32 0x205D78AB41AFE80BD6B6AAA5D7599D5300FF8690DA3AB1302C1B552F7BAF7D8C SWAP1 PUSH1 0x0 SWAP1 LOG2 POP JUMP JUMPDEST PUSH1 0x1 SLOAD PUSH1 0x1 PUSH1 0x1 PUSH1 0xA0 SHL SUB AND CALLER EQ PUSH2 0xEAE JUMPI PUSH1 0x40 MLOAD PUSH3 0x461BCD PUSH1 0xE5 SHL DUP2 MSTORE PUSH1 0x20 PUSH1 0x4 DUP3 ADD DUP2 SWAP1 MSTORE PUSH1 0x24 DUP3 ADD MSTORE PUSH32 0x4F776E61626C653A2063616C6C6572206973206E6F7420746865206F776E6572 PUSH1 0x44 DUP3 ADD MSTORE PUSH1 0x64 ADD PUSH2 0x4B5 JUMP JUMPDEST DUP1 MLOAD PUSH1 0x20 DUP1 DUP4 ADD MLOAD PUSH1 0x40 DUP1 DUP6 ADD MLOAD PUSH1 0x60 DUP7 ADD MLOAD PUSH1 0x80 DUP8 ADD MLOAD PUSH1 0xA0 DUP9 ADD MLOAD PUSH1 0xC0 DUP10 ADD MLOAD PUSH1 0xE0 DUP11 ADD MLOAD PUSH2 0x100 DUP12 ADD MLOAD PUSH2 0x120 DUP13 ADD MLOAD PUSH2 0x140 DUP14 ADD MLOAD PUSH2 0x160 DUP15 ADD MLOAD PUSH2 0x180 DUP16 ADD MLOAD DUP1 MLOAD SWAP1 DUP15 ADD KECCAK256 SWAP11 MLOAD PUSH1 0x0 SWAP15 PUSH2 0x13A7 SWAP15 PUSH32 0x40261ADE532FA1D2C7293DF30AAADB9B3C616FAE525A0B56D3D411C841A85028 SWAP15 SWAP2 SWAP14 SWAP2 SWAP13 SWAP12 SWAP11 SWAP10 SWAP9 SWAP8 SWAP7 SWAP6 SWAP5 SWAP4 SWAP3 ADD PUSH2 0x2C08 JUMP JUMPDEST PUSH1 0x40 MLOAD PUSH1 0x20 DUP2 DUP4 SUB SUB DUP2 MSTORE SWAP1 PUSH1 0x40 MSTORE DUP1 MLOAD SWAP1 PUSH1 0x20 ADD KECCAK256 SWAP1 POP SWAP2 SWAP1 POP JUMP JUMPDEST PUSH1 0x8 PUSH1 0x0 PUSH2 0x13D8 PUSH1 0x40 DUP6 ADD PUSH1 0x20 DUP7 ADD PUSH2 0x2447 JUMP JUMPDEST PUSH1 0x1 PUSH1 0x1 PUSH1 0xA0 SHL SUB AND DUP2 MSTORE PUSH1 0x20 DUP1 DUP3 ADD SWAP3 SWAP1 SWAP3 MSTORE PUSH1 0x40 SWAP1 DUP2 ADD PUSH1 0x0 SWAP1 DUP2 KECCAK256 PUSH2 0x100 DUP7 ADD CALLDATALOAD DUP3 MSTORE SWAP1 SWAP3 MSTORE SWAP1 KECCAK256 SLOAD PUSH1 0xFF AND ISZERO DUP1 ISZERO PUSH2 0x144D JUMPI POP PUSH1 0x7 PUSH1 0x0 PUSH2 0x1423 PUSH1 0x40 DUP6 ADD PUSH1 0x20 DUP7 ADD PUSH2 0x2447 JUMP JUMPDEST PUSH1 0x1 PUSH1 0x1 PUSH1 0xA0 SHL SUB AND PUSH1 0x1 PUSH1 0x1 PUSH1 0xA0 SHL SUB AND DUP2 MSTORE PUSH1 0x20 ADD SWAP1 DUP2 MSTORE PUSH1 0x20 ADD PUSH1 0x0 KECCAK256 SLOAD DUP3 PUSH2 0x100 ADD CALLDATALOAD LT ISZERO JUMPDEST PUSH2 0x1499 JUMPI PUSH1 0x40 MLOAD PUSH3 0x461BCD PUSH1 0xE5 SHL DUP2 MSTORE PUSH1 0x20 PUSH1 0x4 DUP3 ADD MSTORE PUSH1 0x1D PUSH1 0x24 DUP3 ADD MSTORE PUSH32 0x4F726465723A204D61746368696E67206F726465722065787069726564000000 PUSH1 0x44 DUP3 ADD MSTORE PUSH1 0x64 ADD PUSH2 0x4B5 JUMP JUMPDEST PUSH1 0x0 PUSH2 0x14AB PUSH1 0x40 DUP5 ADD PUSH1 0x20 DUP6 ADD PUSH2 0x2447 JUMP JUMPDEST PUSH1 0x1 PUSH1 0x1 PUSH1 0xA0 SHL SUB AND SUB PUSH2 0x1515 JUMPI PUSH1 0x40 MLOAD PUSH3 0x461BCD PUSH1 0xE5 SHL DUP2 MSTORE PUSH1 0x20 PUSH1 0x4 DUP3 ADD MSTORE PUSH1 0x2B PUSH1 0x24 DUP3 ADD MSTORE PUSH32 0x546865204F72646572207369676E65722063616E6E6F7420626520746865207A PUSH1 0x44 DUP3 ADD MSTORE PUSH11 0x65726F2061646472657373 PUSH1 0xA8 SHL PUSH1 0x64 DUP3 ADD MSTORE PUSH1 0x84 ADD PUSH2 0x4B5 JUMP JUMPDEST PUSH1 0x0 DUP3 PUSH1 0xA0 ADD CALLDATALOAD GT PUSH2 0x157B JUMPI PUSH1 0x40 MLOAD PUSH3 0x461BCD PUSH1 0xE5 SHL DUP2 MSTORE PUSH1 0x20 PUSH1 0x4 DUP3 ADD MSTORE PUSH1 0x29 PUSH1 0x24 DUP3 ADD MSTORE PUSH32 0x546865206F7264657220616D6F756E742073686F756C64206265206772656174 PUSH1 0x44 DUP3 ADD MSTORE PUSH9 0x6572207468616E203 PUSH1 0xBC SHL PUSH1 0x64 DUP3 ADD MSTORE PUSH1 0x84 ADD PUSH2 0x4B5 JUMP JUMPDEST PUSH1 0x40 DUP1 MLOAD PUSH32 0x8B73C3C69BB8FE3D512ECC4CF759CC79239F7B179B0FFACAA9A75D522B39400F PUSH1 0x20 DUP3 ADD MSTORE PUSH32 0x2E3445393F211D11D7F88D325BC26CE78976B4DECD39029FEB202D9B409FC3C5 SWAP2 DUP2 ADD SWAP2 SWAP1 SWAP2 MSTORE PUSH32 0xC89EFDAA54C0F20C7ADF612882DF0950F5A951637E0307CDCB4C672F298B8BC6 PUSH1 0x60 DUP3 ADD MSTORE CHAINID PUSH1 0x80 DUP3 ADD MSTORE ADDRESS PUSH1 0xA0 DUP3 ADD MSTORE PUSH1 0x0 SWAP1 PUSH1 0xC0 ADD PUSH1 0x40 MLOAD PUSH1 0x20 DUP2 DUP4 SUB SUB DUP2 MSTORE SWAP1 PUSH1 0x40 MSTORE DUP1 MLOAD SWAP1 PUSH1 0x20 ADD KECCAK256 SWAP1 POP PUSH2 0x1658 DUP3 DUP5 PUSH1 0x20 ADD PUSH1 0x20 DUP2 ADD SWAP1 PUSH2 0x1634 SWAP2 SWAP1 PUSH2 0x2447 JUMP JUMPDEST PUSH2 0x1646 PUSH2 0x1C0 DUP8 ADD PUSH2 0x1A0 DUP9 ADD PUSH2 0x2C9B JUMP JUMPDEST DUP7 PUSH2 0x1C0 ADD CALLDATALOAD DUP8 PUSH2 0x1E0 ADD CALLDATALOAD DUP7 PUSH2 0x1E66 JUMP JUMPDEST PUSH2 0x1699 JUMPI PUSH1 0x40 MLOAD PUSH3 0x461BCD PUSH1 0xE5 SHL DUP2 MSTORE PUSH1 0x20 PUSH1 0x4 DUP3 ADD MSTORE PUSH1 0x12 PUSH1 0x24 DUP3 ADD MSTORE PUSH18 0x14DA59DB985D1D5C994E88125B9D985B1A59 PUSH1 0x72 SHL PUSH1 0x44 DUP3 ADD MSTORE PUSH1 0x64 ADD PUSH2 0x4B5 JUMP JUMPDEST PUSH1 0x3 SLOAD PUSH1 0x1 PUSH1 0x1 PUSH1 0xA0 SHL SUB AND PUSH4 0x43B938C5 PUSH2 0x16BB PUSH2 0x100 DUP7 ADD PUSH1 0xE0 DUP8 ADD PUSH2 0x2447 JUMP JUMPDEST PUSH1 0x40 MLOAD PUSH1 0x1 PUSH1 0x1 PUSH1 0xE0 SHL SUB NOT PUSH1 0xE0 DUP5 SWAP1 SHL AND DUP2 MSTORE PUSH1 0x1 PUSH1 0x1 PUSH1 0xA0 SHL SUB SWAP1 SWAP2 AND PUSH1 0x4 DUP3 ADD MSTORE PUSH1 0x24 ADD PUSH1 0x20 PUSH1 0x40 MLOAD DUP1 DUP4 SUB DUP2 DUP7 GAS STATICCALL ISZERO DUP1 ISZERO PUSH2 0x16FF JUMPI RETURNDATASIZE PUSH1 0x0 DUP1 RETURNDATACOPY RETURNDATASIZE PUSH1 0x0 REVERT JUMPDEST POP POP POP POP PUSH1 0x40 MLOAD RETURNDATASIZE PUSH1 0x1F NOT PUSH1 0x1F DUP3 ADD AND DUP3 ADD DUP1 PUSH1 0x40 MSTORE POP DUP2 ADD SWAP1 PUSH2 0x1723 SWAP2 SWAP1 PUSH2 0x2CB6 JUMP JUMPDEST PUSH2 0x176F JUMPI PUSH1 0x40 MLOAD PUSH3 0x461BCD PUSH1 0xE5 SHL DUP2 MSTORE PUSH1 0x20 PUSH1 0x4 DUP3 ADD MSTORE PUSH1 0x1A PUSH1 0x24 DUP3 ADD MSTORE PUSH32 0x204E6F7420696E2043757272656E63792077686974656C697374000000000000 PUSH1 0x44 DUP3 ADD MSTORE PUSH1 0x64 ADD PUSH2 0x4B5 JUMP JUMPDEST PUSH1 0x4 SLOAD PUSH1 0x1 PUSH1 0x1 PUSH1 0xA0 SHL SUB AND PUSH4 0x999BA27C PUSH2 0x1790 PUSH1 0xE0 DUP7 ADD PUSH1 0xC0 DUP8 ADD PUSH2 0x2447 JUMP JUMPDEST PUSH1 0x40 MLOAD PUSH1 0x1 PUSH1 0x1 PUSH1 0xE0 SHL SUB NOT PUSH1 0xE0 DUP5 SWAP1 SHL AND DUP2 MSTORE PUSH1 0x1 PUSH1 0x1 PUSH1 0xA0 SHL SUB SWAP1 SWAP2 AND PUSH1 0x4 DUP3 ADD MSTORE PUSH1 0x24 ADD PUSH1 0x20 PUSH1 0x40 MLOAD DUP1 DUP4 SUB DUP2 DUP7 GAS STATICCALL ISZERO DUP1 ISZERO PUSH2 0x17D4 JUMPI RETURNDATASIZE PUSH1 0x0 DUP1 RETURNDATACOPY RETURNDATASIZE PUSH1 0x0 REVERT JUMPDEST POP POP POP POP PUSH1 0x40 MLOAD RETURNDATASIZE PUSH1 0x1F NOT PUSH1 0x1F DUP3 ADD AND DUP3 ADD DUP1 PUSH1 0x40 MSTORE POP DUP2 ADD SWAP1 PUSH2 0x17F8 SWAP2 SWAP1 PUSH2 0x2CB6 JUMP JUMPDEST PUSH2 0x1844 JUMPI PUSH1 0x40 MLOAD PUSH3 0x461BCD PUSH1 0xE5 SHL DUP2 MSTORE PUSH1 0x20 PUSH1 0x4 DUP3 ADD MSTORE PUSH1 0x1A PUSH1 0x24 DUP3 ADD MSTORE PUSH32 0x204E6F7420696E2053747261746567792077686974656C697374000000000000 PUSH1 0x44 DUP3 ADD MSTORE PUSH1 0x64 ADD PUSH2 0x4B5 JUMP JUMPDEST POP POP POP JUMP JUMPDEST DUP2 PUSH1 0x0 PUSH2 0x1856 DUP11 DUP4 PUSH2 0x1FA5 JUMP JUMPDEST PUSH1 0x2 SLOAD SWAP1 SWAP2 POP PUSH1 0x1 PUSH1 0x1 PUSH1 0xA0 SHL SUB AND ISZERO DUP1 ISZERO SWAP1 PUSH2 0x1872 JUMPI POP DUP1 ISZERO ISZERO JUMPDEST ISZERO PUSH2 0x18A0 JUMPI PUSH1 0x2 SLOAD PUSH2 0x1893 SWAP1 PUSH1 0x1 PUSH1 0x1 PUSH1 0xA0 SHL SUB DUP10 DUP2 AND SWAP2 DUP10 SWAP2 AND DUP5 PUSH2 0x1B63 JUMP JUMPDEST PUSH2 0x189D DUP2 DUP4 PUSH2 0x2AF7 JUMP JUMPDEST SWAP2 POP JUMPDEST PUSH1 0x5 SLOAD PUSH1 0x40 MLOAD PUSH4 0x7A7B1AFD PUSH1 0xE1 SHL DUP2 MSTORE PUSH1 0x1 PUSH1 0x1 PUSH1 0xA0 SHL SUB DUP12 DUP2 AND PUSH1 0x4 DUP4 ADD MSTORE PUSH1 0x24 DUP3 ADD DUP12 SWAP1 MSTORE PUSH1 0x44 DUP3 ADD DUP8 SWAP1 MSTORE PUSH1 0x0 SWAP3 DUP4 SWAP3 SWAP2 AND SWAP1 PUSH4 0xF4F635FA SWAP1 PUSH1 0x64 ADD PUSH1 0x40 DUP1 MLOAD DUP1 DUP4 SUB DUP2 DUP7 GAS STATICCALL ISZERO DUP1 ISZERO PUSH2 0x18FB JUMPI RETURNDATASIZE PUSH1 0x0 DUP1 RETURNDATACOPY RETURNDATASIZE PUSH1 0x0 REVERT JUMPDEST POP POP POP POP PUSH1 0x40 MLOAD RETURNDATASIZE PUSH1 0x1F NOT PUSH1 0x1F DUP3 ADD AND DUP3 ADD DUP1 PUSH1 0x40 MSTORE POP DUP2 ADD SWAP1 PUSH2 0x191F SWAP2 SWAP1 PUSH2 0x2CD3 JUMP JUMPDEST SWAP1 SWAP3 POP SWAP1 POP PUSH1 0x1 PUSH1 0x1 PUSH1 0xA0 SHL SUB DUP3 AND ISZERO DUP1 ISZERO SWAP1 PUSH2 0x193B JUMPI POP DUP1 ISZERO ISZERO JUMPDEST ISZERO PUSH2 0x19C4 JUMPI PUSH2 0x1955 PUSH1 0x1 PUSH1 0x1 PUSH1 0xA0 SHL SUB DUP11 AND DUP10 DUP5 DUP5 PUSH2 0x1B63 JUMP JUMPDEST PUSH2 0x195F DUP2 DUP6 PUSH2 0x2AF7 JUMP JUMPDEST SWAP4 POP DUP2 PUSH1 0x1 PUSH1 0x1 PUSH1 0xA0 SHL SUB AND DUP11 DUP13 PUSH1 0x1 PUSH1 0x1 PUSH1 0xA0 SHL SUB AND PUSH32 0x27C4F0403323142B599832F26ACD21C74A9E5B809F2215726E244A4AC588CD7D DUP13 DUP6 PUSH1 0x40 MLOAD PUSH2 0x19BB SWAP3 SWAP2 SWAP1 PUSH1 0x1 PUSH1 0x1 PUSH1 0xA0 SHL SUB SWAP3 SWAP1 SWAP3 AND DUP3 MSTORE PUSH1 0x20 DUP3 ADD MSTORE PUSH1 0x40 ADD SWAP1 JUMP JUMPDEST PUSH1 0x40 MLOAD DUP1 SWAP2 SUB SWAP1 LOG4 JUMPDEST PUSH2 0x19CE DUP7 DUP7 PUSH2 0x2D01 JUMP JUMPDEST PUSH2 0x19DA DUP6 PUSH2 0x2710 PUSH2 0x2D01 JUMP JUMPDEST LT ISZERO PUSH2 0x19F8 JUMPI PUSH1 0x40 MLOAD PUSH3 0x461BCD PUSH1 0xE5 SHL DUP2 MSTORE PUSH1 0x4 ADD PUSH2 0x4B5 SWAP1 PUSH2 0x2D18 JUMP JUMPDEST PUSH2 0x1A0D PUSH1 0x1 PUSH1 0x1 PUSH1 0xA0 SHL SUB DUP11 AND DUP10 DUP10 DUP8 PUSH2 0x1B63 JUMP JUMPDEST POP POP POP POP POP POP POP POP POP POP POP POP JUMP JUMPDEST PUSH1 0x6 SLOAD PUSH1 0x40 MLOAD PUSH4 0xCC159493 PUSH1 0xE0 SHL DUP2 MSTORE PUSH1 0x1 PUSH1 0x1 PUSH1 0xA0 SHL SUB DUP8 DUP2 AND PUSH1 0x4 DUP4 ADD MSTORE PUSH1 0x0 SWAP3 AND SWAP1 PUSH4 0xCC159493 SWAP1 PUSH1 0x24 ADD PUSH1 0x20 PUSH1 0x40 MLOAD DUP1 DUP4 SUB DUP2 DUP7 GAS STATICCALL ISZERO DUP1 ISZERO PUSH2 0x1A66 JUMPI RETURNDATASIZE PUSH1 0x0 DUP1 RETURNDATACOPY RETURNDATASIZE PUSH1 0x0 REVERT JUMPDEST POP POP POP POP PUSH1 0x40 MLOAD RETURNDATASIZE PUSH1 0x1F NOT PUSH1 0x1F DUP3 ADD AND DUP3 ADD DUP1 PUSH1 0x40 MSTORE POP DUP2 ADD SWAP1 PUSH2 0x1A8A SWAP2 SWAP1 PUSH2 0x2D5A JUMP JUMPDEST SWAP1 POP PUSH1 0x1 PUSH1 0x1 PUSH1 0xA0 SHL SUB DUP2 AND PUSH2 0x1AE2 JUMPI PUSH1 0x40 MLOAD PUSH3 0x461BCD PUSH1 0xE5 SHL DUP2 MSTORE PUSH1 0x20 PUSH1 0x4 DUP3 ADD MSTORE PUSH1 0x1C PUSH1 0x24 DUP3 ADD MSTORE PUSH32 0x43616E277420666F756E74207472616E73666572206D616E6167657200000000 PUSH1 0x44 DUP3 ADD MSTORE PUSH1 0x64 ADD PUSH2 0x4B5 JUMP JUMPDEST PUSH1 0x40 MLOAD PUSH4 0x33F2FA9F PUSH1 0xE0 SHL DUP2 MSTORE PUSH1 0x1 PUSH1 0x1 PUSH1 0xA0 SHL SUB DUP8 DUP2 AND PUSH1 0x4 DUP4 ADD MSTORE DUP7 DUP2 AND PUSH1 0x24 DUP4 ADD MSTORE DUP6 DUP2 AND PUSH1 0x44 DUP4 ADD MSTORE PUSH1 0x64 DUP3 ADD DUP6 SWAP1 MSTORE PUSH1 0x84 DUP3 ADD DUP5 SWAP1 MSTORE DUP3 AND SWAP1 PUSH4 0x33F2FA9F SWAP1 PUSH1 0xA4 ADD PUSH1 0x0 PUSH1 0x40 MLOAD DUP1 DUP4 SUB DUP2 PUSH1 0x0 DUP8 DUP1 EXTCODESIZE ISZERO DUP1 ISZERO PUSH2 0x1B43 JUMPI PUSH1 0x0 DUP1 REVERT JUMPDEST POP GAS CALL ISZERO DUP1 ISZERO PUSH2 0x1B57 JUMPI RETURNDATASIZE PUSH1 0x0 DUP1 RETURNDATACOPY RETURNDATASIZE PUSH1 0x0 REVERT JUMPDEST POP POP POP POP POP POP POP POP POP POP JUMP JUMPDEST PUSH1 0x40 MLOAD PUSH1 0x1 PUSH1 0x1 PUSH1 0xA0 SHL SUB DUP1 DUP6 AND PUSH1 0x24 DUP4 ADD MSTORE DUP4 AND PUSH1 0x44 DUP3 ADD MSTORE PUSH1 0x64 DUP2 ADD DUP3 SWAP1 MSTORE PUSH2 0x1BCE SWAP1 DUP6 SWAP1 PUSH4 0x23B872DD PUSH1 0xE0 SHL SWAP1 PUSH1 0x84 ADD JUMPDEST PUSH1 0x40 DUP1 MLOAD PUSH1 0x1F NOT DUP2 DUP5 SUB ADD DUP2 MSTORE SWAP2 SWAP1 MSTORE PUSH1 0x20 DUP2 ADD DUP1 MLOAD PUSH1 0x1 PUSH1 0x1 PUSH1 0xE0 SHL SUB AND PUSH1 0x1 PUSH1 0x1 PUSH1 0xE0 SHL SUB NOT SWAP1 SWAP4 AND SWAP3 SWAP1 SWAP3 OR SWAP1 SWAP2 MSTORE PUSH2 0x202B JUMP JUMPDEST POP POP POP POP JUMP JUMPDEST DUP2 PUSH1 0x0 PUSH2 0x1BE1 DUP9 DUP4 PUSH2 0x1FA5 JUMP JUMPDEST PUSH1 0x2 SLOAD SWAP1 SWAP2 POP PUSH1 0x1 PUSH1 0x1 PUSH1 0xA0 SHL SUB AND ISZERO DUP1 ISZERO SWAP1 PUSH2 0x1BFD JUMPI POP DUP1 ISZERO ISZERO JUMPDEST ISZERO PUSH2 0x1C49 JUMPI PUSH1 0x2 SLOAD PUSH2 0x1C3C SWAP1 PUSH1 0x1 PUSH1 0x1 PUSH1 0xA0 SHL SUB PUSH32 0x0 DUP2 AND SWAP2 AND DUP4 PUSH2 0x20FD JUMP JUMPDEST PUSH2 0x1C46 DUP2 DUP4 PUSH2 0x2AF7 JUMP JUMPDEST SWAP2 POP JUMPDEST PUSH1 0x5 SLOAD PUSH1 0x40 MLOAD PUSH4 0x7A7B1AFD PUSH1 0xE1 SHL DUP2 MSTORE PUSH1 0x1 PUSH1 0x1 PUSH1 0xA0 SHL SUB DUP10 DUP2 AND PUSH1 0x4 DUP4 ADD MSTORE PUSH1 0x24 DUP3 ADD DUP10 SWAP1 MSTORE PUSH1 0x44 DUP3 ADD DUP8 SWAP1 MSTORE PUSH1 0x0 SWAP3 DUP4 SWAP3 SWAP2 AND SWAP1 PUSH4 0xF4F635FA SWAP1 PUSH1 0x64 ADD PUSH1 0x40 DUP1 MLOAD DUP1 DUP4 SUB DUP2 DUP7 GAS STATICCALL ISZERO DUP1 ISZERO PUSH2 0x1CA4 JUMPI RETURNDATASIZE PUSH1 0x0 DUP1 RETURNDATACOPY RETURNDATASIZE PUSH1 0x0 REVERT JUMPDEST POP POP POP POP PUSH1 0x40 MLOAD RETURNDATASIZE PUSH1 0x1F NOT PUSH1 0x1F DUP3 ADD AND DUP3 ADD DUP1 PUSH1 0x40 MSTORE POP DUP2 ADD SWAP1 PUSH2 0x1CC8 SWAP2 SWAP1 PUSH2 0x2CD3 JUMP JUMPDEST SWAP1 SWAP3 POP SWAP1 POP PUSH1 0x1 PUSH1 0x1 PUSH1 0xA0 SHL SUB DUP3 AND ISZERO DUP1 ISZERO SWAP1 PUSH2 0x1CE4 JUMPI POP DUP1 ISZERO ISZERO JUMPDEST ISZERO PUSH2 0x1DAC JUMPI PUSH2 0x1D1D PUSH1 0x1 PUSH1 0x1 PUSH1 0xA0 SHL SUB PUSH32 0x0 AND DUP4 DUP4 PUSH2 0x20FD JUMP JUMPDEST PUSH2 0x1D27 DUP2 DUP6 PUSH2 0x2AF7 JUMP JUMPDEST SWAP4 POP DUP2 PUSH1 0x1 PUSH1 0x1 PUSH1 0xA0 SHL SUB AND DUP9 DUP11 PUSH1 0x1 PUSH1 0x1 PUSH1 0xA0 SHL SUB AND PUSH32 0x27C4F0403323142B599832F26ACD21C74A9E5B809F2215726E244A4AC588CD7D PUSH32 0x0 DUP6 PUSH1 0x40 MLOAD PUSH2 0x1DA3 SWAP3 SWAP2 SWAP1 PUSH1 0x1 PUSH1 0x1 PUSH1 0xA0 SHL SUB SWAP3 SWAP1 SWAP3 AND DUP3 MSTORE PUSH1 0x20 DUP3 ADD MSTORE PUSH1 0x40 ADD SWAP1 JUMP JUMPDEST PUSH1 0x40 MLOAD DUP1 SWAP2 SUB SWAP1 LOG4 JUMPDEST PUSH2 0x1DB6 DUP7 DUP7 PUSH2 0x2D01 JUMP JUMPDEST PUSH2 0x1DC2 DUP6 PUSH2 0x2710 PUSH2 0x2D01 JUMP JUMPDEST LT ISZERO PUSH2 0x1DE0 JUMPI PUSH1 0x40 MLOAD PUSH3 0x461BCD PUSH1 0xE5 SHL DUP2 MSTORE PUSH1 0x4 ADD PUSH2 0x4B5 SWAP1 PUSH2 0x2D18 JUMP JUMPDEST PUSH2 0x1B57 PUSH1 0x1 PUSH1 0x1 PUSH1 0xA0 SHL SUB PUSH32 0x0 AND DUP9 DUP7 PUSH2 0x20FD JUMP JUMPDEST PUSH1 0x1 DUP1 SLOAD PUSH1 0x1 PUSH1 0x1 PUSH1 0xA0 SHL SUB DUP4 DUP2 AND PUSH1 0x1 PUSH1 0x1 PUSH1 0xA0 SHL SUB NOT DUP4 AND DUP2 OR SWAP1 SWAP4 SSTORE PUSH1 0x40 MLOAD SWAP2 AND SWAP2 SWAP1 DUP3 SWAP1 PUSH32 0x8BE0079C531659141344CD1FD0A4F28419497F9722A3DAAFE3B4186F6B6457E0 SWAP1 PUSH1 0x0 SWAP1 LOG3 POP POP JUMP JUMPDEST PUSH1 0x40 MLOAD PUSH2 0x1901 PUSH1 0xF0 SHL PUSH1 0x20 DUP3 ADD MSTORE PUSH1 0x22 DUP2 ADD DUP3 SWAP1 MSTORE PUSH1 0x42 DUP2 ADD DUP8 SWAP1 MSTORE PUSH1 0x0 SWAP1 DUP2 SWAP1 PUSH1 0x62 ADD PUSH1 0x40 MLOAD PUSH1 0x20 DUP2 DUP4 SUB SUB DUP2 MSTORE SWAP1 PUSH1 0x40 MSTORE DUP1 MLOAD SWAP1 PUSH1 0x20 ADD KECCAK256 SWAP1 POP PUSH2 0x1EB5 DUP8 PUSH1 0x1 PUSH1 0x1 PUSH1 0xA0 SHL SUB AND EXTCODESIZE ISZERO ISZERO SWAP1 JUMP JUMPDEST ISZERO PUSH2 0x1F77 JUMPI PUSH1 0x40 DUP1 MLOAD PUSH1 0x20 DUP2 ADD DUP8 SWAP1 MSTORE DUP1 DUP3 ADD DUP7 SWAP1 MSTORE PUSH1 0xF8 DUP9 SWAP1 SHL PUSH1 0x1 PUSH1 0x1 PUSH1 0xF8 SHL SUB NOT AND PUSH1 0x60 DUP3 ADD MSTORE DUP2 MLOAD PUSH1 0x41 DUP2 DUP4 SUB ADD DUP2 MSTORE PUSH1 0x61 DUP3 ADD SWAP3 DUP4 SWAP1 MSTORE PUSH4 0xB135D3F PUSH1 0xE1 SHL SWAP1 SWAP3 MSTORE PUSH1 0x1 PUSH1 0x1 PUSH1 0xA0 SHL SUB DUP10 AND SWAP2 PUSH4 0x1626BA7E SWAP2 PUSH2 0x1F1B SWAP2 DUP6 SWAP2 PUSH1 0x65 ADD PUSH2 0x2DC7 JUMP JUMPDEST PUSH1 0x20 PUSH1 0x40 MLOAD DUP1 DUP4 SUB DUP2 DUP7 GAS STATICCALL ISZERO DUP1 ISZERO PUSH2 0x1F38 JUMPI RETURNDATASIZE PUSH1 0x0 DUP1 RETURNDATACOPY RETURNDATASIZE PUSH1 0x0 REVERT JUMPDEST POP POP POP POP PUSH1 0x40 MLOAD RETURNDATASIZE PUSH1 0x1F NOT PUSH1 0x1F DUP3 ADD AND DUP3 ADD DUP1 PUSH1 0x40 MSTORE POP DUP2 ADD SWAP1 PUSH2 0x1F5C SWAP2 SWAP1 PUSH2 0x2DE0 JUMP JUMPDEST PUSH1 0x1 PUSH1 0x1 PUSH1 0xE0 SHL SUB NOT AND PUSH4 0x1626BA7E PUSH1 0xE0 SHL EQ SWAP2 POP POP PUSH2 0x1F9B JUMP JUMPDEST DUP7 PUSH1 0x1 PUSH1 0x1 PUSH1 0xA0 SHL SUB AND PUSH2 0x1F8D DUP3 DUP9 DUP9 DUP9 PUSH2 0x212D JUMP JUMPDEST PUSH1 0x1 PUSH1 0x1 PUSH1 0xA0 SHL SUB AND EQ SWAP2 POP POP JUMPDEST SWAP7 SWAP6 POP POP POP POP POP POP JUMP JUMPDEST PUSH1 0x0 DUP1 DUP4 PUSH1 0x1 PUSH1 0x1 PUSH1 0xA0 SHL SUB AND PUSH4 0x9DD1CDA6 PUSH1 0x40 MLOAD DUP2 PUSH4 0xFFFFFFFF AND PUSH1 0xE0 SHL DUP2 MSTORE PUSH1 0x4 ADD PUSH1 0x20 PUSH1 0x40 MLOAD DUP1 DUP4 SUB DUP2 DUP7 GAS STATICCALL ISZERO DUP1 ISZERO PUSH2 0x1FE6 JUMPI RETURNDATASIZE PUSH1 0x0 DUP1 RETURNDATACOPY RETURNDATASIZE PUSH1 0x0 REVERT JUMPDEST POP POP POP POP PUSH1 0x40 MLOAD RETURNDATASIZE PUSH1 0x1F NOT PUSH1 0x1F DUP3 ADD AND DUP3 ADD DUP1 PUSH1 0x40 MSTORE POP DUP2 ADD SWAP1 PUSH2 0x200A SWAP2 SWAP1 PUSH2 0x2E0A JUMP JUMPDEST SWAP1 POP PUSH2 0x2710 PUSH2 0x2019 DUP5 DUP4 PUSH2 0x2D01 JUMP JUMPDEST PUSH2 0x2023 SWAP2 SWAP1 PUSH2 0x2E23 JUMP JUMPDEST SWAP5 SWAP4 POP POP POP POP JUMP JUMPDEST PUSH1 0x0 PUSH2 0x2080 DUP3 PUSH1 0x40 MLOAD DUP1 PUSH1 0x40 ADD PUSH1 0x40 MSTORE DUP1 PUSH1 0x20 DUP2 MSTORE PUSH1 0x20 ADD PUSH32 0x5361666545524332303A206C6F772D6C6576656C2063616C6C206661696C6564 DUP2 MSTORE POP DUP6 PUSH1 0x1 PUSH1 0x1 PUSH1 0xA0 SHL SUB AND PUSH2 0x229F SWAP1 SWAP3 SWAP2 SWAP1 PUSH4 0xFFFFFFFF AND JUMP JUMPDEST DUP1 MLOAD SWAP1 SWAP2 POP ISZERO PUSH2 0x1844 JUMPI DUP1 DUP1 PUSH1 0x20 ADD SWAP1 MLOAD DUP2 ADD SWAP1 PUSH2 0x209E SWAP2 SWAP1 PUSH2 0x2CB6 JUMP JUMPDEST PUSH2 0x1844 JUMPI PUSH1 0x40 MLOAD PUSH3 0x461BCD PUSH1 0xE5 SHL DUP2 MSTORE PUSH1 0x20 PUSH1 0x4 DUP3 ADD MSTORE PUSH1 0x2A PUSH1 0x24 DUP3 ADD MSTORE PUSH32 0x5361666545524332303A204552433230206F7065726174696F6E20646964206E PUSH1 0x44 DUP3 ADD MSTORE PUSH10 0x1BDD081CDD58D8D95959 PUSH1 0xB2 SHL PUSH1 0x64 DUP3 ADD MSTORE PUSH1 0x84 ADD PUSH2 0x4B5 JUMP JUMPDEST PUSH1 0x40 MLOAD PUSH1 0x1 PUSH1 0x1 PUSH1 0xA0 SHL SUB DUP4 AND PUSH1 0x24 DUP3 ADD MSTORE PUSH1 0x44 DUP2 ADD DUP3 SWAP1 MSTORE PUSH2 0x1844 SWAP1 DUP5 SWAP1 PUSH4 0xA9059CBB PUSH1 0xE0 SHL SWAP1 PUSH1 0x64 ADD PUSH2 0x1B97 JUMP JUMPDEST PUSH1 0x0 PUSH32 0x7FFFFFFFFFFFFFFFFFFFFFFFFFFFFFFF5D576E7357A4501DDFE92F46681B20A0 DUP3 GT ISZERO PUSH2 0x2196 JUMPI PUSH1 0x40 MLOAD PUSH3 0x461BCD PUSH1 0xE5 SHL DUP2 MSTORE PUSH1 0x20 PUSH1 0x4 DUP3 ADD MSTORE PUSH1 0x14 PUSH1 0x24 DUP3 ADD MSTORE PUSH20 0x1024B73B30B634B21039903830B930B6B2BA32B9 PUSH1 0x61 SHL PUSH1 0x44 DUP3 ADD MSTORE PUSH1 0x64 ADD PUSH2 0x4B5 JUMP JUMPDEST DUP4 PUSH1 0xFF AND PUSH1 0x1B EQ DUP1 PUSH2 0x21AB JUMPI POP DUP4 PUSH1 0xFF AND PUSH1 0x1C EQ JUMPDEST PUSH2 0x21ED JUMPI PUSH1 0x40 MLOAD PUSH3 0x461BCD PUSH1 0xE5 SHL DUP2 MSTORE PUSH1 0x20 PUSH1 0x4 DUP3 ADD MSTORE PUSH1 0x13 PUSH1 0x24 DUP3 ADD MSTORE PUSH19 0x24B73B30B634B2103B103830B930B6B2BA32B9 PUSH1 0x69 SHL PUSH1 0x44 DUP3 ADD MSTORE PUSH1 0x64 ADD PUSH2 0x4B5 JUMP JUMPDEST PUSH1 0x40 DUP1 MLOAD PUSH1 0x0 DUP1 DUP3 MSTORE PUSH1 0x20 DUP3 ADD DUP1 DUP5 MSTORE DUP9 SWAP1 MSTORE PUSH1 0xFF DUP8 AND SWAP3 DUP3 ADD SWAP3 SWAP1 SWAP3 MSTORE PUSH1 0x60 DUP2 ADD DUP6 SWAP1 MSTORE PUSH1 0x80 DUP2 ADD DUP5 SWAP1 MSTORE PUSH1 0x1 SWAP1 PUSH1 0xA0 ADD PUSH1 0x20 PUSH1 0x40 MLOAD PUSH1 0x20 DUP2 SUB SWAP1 DUP1 DUP5 SUB SWAP1 DUP6 GAS STATICCALL ISZERO DUP1 ISZERO PUSH2 0x2241 JUMPI RETURNDATASIZE PUSH1 0x0 DUP1 RETURNDATACOPY RETURNDATASIZE PUSH1 0x0 REVERT JUMPDEST POP POP PUSH1 0x40 MLOAD PUSH1 0x1F NOT ADD MLOAD SWAP2 POP POP PUSH1 0x1 PUSH1 0x1 PUSH1 0xA0 SHL SUB DUP2 AND PUSH2 0x2296 JUMPI PUSH1 0x40 MLOAD PUSH3 0x461BCD PUSH1 0xE5 SHL DUP2 MSTORE PUSH1 0x20 PUSH1 0x4 DUP3 ADD MSTORE PUSH1 0xF PUSH1 0x24 DUP3 ADD MSTORE PUSH15 0x1024B73B30B634B21039B4B3B732B9 PUSH1 0x89 SHL PUSH1 0x44 DUP3 ADD MSTORE PUSH1 0x64 ADD PUSH2 0x4B5 JUMP JUMPDEST SWAP6 SWAP5 POP POP POP POP POP JUMP JUMPDEST PUSH1 0x60 PUSH2 0x22AE DUP5 DUP5 PUSH1 0x0 DUP6 PUSH2 0x22B8 JUMP JUMPDEST SWAP1 POP JUMPDEST SWAP4 SWAP3 POP POP POP JUMP JUMPDEST PUSH1 0x60 DUP3 SELFBALANCE LT ISZERO PUSH2 0x2319 JUMPI PUSH1 0x40 MLOAD PUSH3 0x461BCD PUSH1 0xE5 SHL DUP2 MSTORE PUSH1 0x20 PUSH1 0x4 DUP3 ADD MSTORE PUSH1 0x26 PUSH1 0x24 DUP3 ADD MSTORE PUSH32 0x416464726573733A20696E73756666696369656E742062616C616E636520666F PUSH1 0x44 DUP3 ADD MSTORE PUSH6 0x1C8818D85B1B PUSH1 0xD2 SHL PUSH1 0x64 DUP3 ADD MSTORE PUSH1 0x84 ADD PUSH2 0x4B5 JUMP JUMPDEST PUSH1 0x1 PUSH1 0x1 PUSH1 0xA0 SHL SUB DUP6 AND EXTCODESIZE PUSH2 0x2370 JUMPI PUSH1 0x40 MLOAD PUSH3 0x461BCD PUSH1 0xE5 SHL DUP2 MSTORE PUSH1 0x20 PUSH1 0x4 DUP3 ADD MSTORE PUSH1 0x1D PUSH1 0x24 DUP3 ADD MSTORE PUSH32 0x416464726573733A2063616C6C20746F206E6F6E2D636F6E7472616374000000 PUSH1 0x44 DUP3 ADD MSTORE PUSH1 0x64 ADD PUSH2 0x4B5 JUMP JUMPDEST PUSH1 0x0 DUP1 DUP7 PUSH1 0x1 PUSH1 0x1 PUSH1 0xA0 SHL SUB AND DUP6 DUP8 PUSH1 0x40 MLOAD PUSH2 0x238C SWAP2 SWAP1 PUSH2 0x2E45 JUMP JUMPDEST PUSH1 0x0 PUSH1 0x40 MLOAD DUP1 DUP4 SUB DUP2 DUP6 DUP8 GAS CALL SWAP3 POP POP POP RETURNDATASIZE DUP1 PUSH1 0x0 DUP2 EQ PUSH2 0x23C9 JUMPI PUSH1 0x40 MLOAD SWAP2 POP PUSH1 0x1F NOT PUSH1 0x3F RETURNDATASIZE ADD AND DUP3 ADD PUSH1 0x40 MSTORE RETURNDATASIZE DUP3 MSTORE RETURNDATASIZE PUSH1 0x0 PUSH1 0x20 DUP5 ADD RETURNDATACOPY PUSH2 0x23CE JUMP JUMPDEST PUSH1 0x60 SWAP2 POP JUMPDEST POP SWAP2 POP SWAP2 POP PUSH2 0x23DE DUP3 DUP3 DUP7 PUSH2 0x23E9 JUMP JUMPDEST SWAP8 SWAP7 POP POP POP POP POP POP POP JUMP JUMPDEST PUSH1 0x60 DUP4 ISZERO PUSH2 0x23F8 JUMPI POP DUP2 PUSH2 0x22B1 JUMP JUMPDEST DUP3 MLOAD ISZERO PUSH2 0x2408 JUMPI DUP3 MLOAD DUP1 DUP5 PUSH1 0x20 ADD REVERT JUMPDEST DUP2 PUSH1 0x40 MLOAD PUSH3 0x461BCD PUSH1 0xE5 SHL DUP2 MSTORE PUSH1 0x4 ADD PUSH2 0x4B5 SWAP2 SWAP1 PUSH2 0x2E61 JUMP JUMPDEST PUSH1 0x1 PUSH1 0x1 PUSH1 0xA0 SHL SUB DUP2 AND DUP2 EQ PUSH2 0x1248 JUMPI PUSH1 0x0 DUP1 REVERT JUMPDEST DUP1 CALLDATALOAD PUSH2 0x2442 DUP2 PUSH2 0x2422 JUMP JUMPDEST SWAP2 SWAP1 POP JUMP JUMPDEST PUSH1 0x0 PUSH1 0x20 DUP3 DUP5 SUB SLT ISZERO PUSH2 0x2459 JUMPI PUSH1 0x0 DUP1 REVERT JUMPDEST DUP2 CALLDATALOAD PUSH2 0x22B1 DUP2 PUSH2 0x2422 JUMP JUMPDEST PUSH1 0x0 DUP1 PUSH1 0x40 DUP4 DUP6 SUB SLT ISZERO PUSH2 0x2477 JUMPI PUSH1 0x0 DUP1 REVERT JUMPDEST DUP3 CALLDATALOAD PUSH2 0x2482 DUP2 PUSH2 0x2422 JUMP JUMPDEST SWAP5 PUSH1 0x20 SWAP4 SWAP1 SWAP4 ADD CALLDATALOAD SWAP4 POP POP POP JUMP JUMPDEST PUSH1 0x0 DUP1 PUSH1 0x40 DUP4 DUP6 SUB SLT ISZERO PUSH2 0x24A3 JUMPI PUSH1 0x0 DUP1 REVERT JUMPDEST DUP3 CALLDATALOAD PUSH8 0xFFFFFFFFFFFFFFFF DUP1 DUP3 GT ISZERO PUSH2 0x24BB JUMPI PUSH1 0x0 DUP1 REVERT JUMPDEST SWAP1 DUP5 ADD SWAP1 PUSH1 0xC0 DUP3 DUP8 SUB SLT ISZERO PUSH2 0x24CF JUMPI PUSH1 0x0 DUP1 REVERT JUMPDEST SWAP1 SWAP3 POP PUSH1 0x20 DUP5 ADD CALLDATALOAD SWAP1 DUP1 DUP3 GT ISZERO PUSH2 0x24E5 JUMPI PUSH1 0x0 DUP1 REVERT JUMPDEST POP DUP4 ADD PUSH2 0x200 DUP2 DUP7 SUB SLT ISZERO PUSH2 0x24F9 JUMPI PUSH1 0x0 DUP1 REVERT JUMPDEST DUP1 SWAP2 POP POP SWAP3 POP SWAP3 SWAP1 POP JUMP JUMPDEST PUSH1 0x0 DUP1 PUSH1 0x20 DUP4 DUP6 SUB SLT ISZERO PUSH2 0x2517 JUMPI PUSH1 0x0 DUP1 REVERT JUMPDEST DUP3 CALLDATALOAD PUSH8 0xFFFFFFFFFFFFFFFF DUP1 DUP3 GT ISZERO PUSH2 0x252F JUMPI PUSH1 0x0 DUP1 REVERT JUMPDEST DUP2 DUP6 ADD SWAP2 POP DUP6 PUSH1 0x1F DUP4 ADD SLT PUSH2 0x2543 JUMPI PUSH1 0x0 DUP1 REVERT JUMPDEST DUP2 CALLDATALOAD DUP2 DUP2 GT ISZERO PUSH2 0x2552 JUMPI PUSH1 0x0 DUP1 REVERT JUMPDEST DUP7 PUSH1 0x20 DUP3 PUSH1 0x5 SHL DUP6 ADD ADD GT ISZERO PUSH2 0x2567 JUMPI PUSH1 0x0 DUP1 REVERT JUMPDEST PUSH1 0x20 SWAP3 SWAP1 SWAP3 ADD SWAP7 SWAP2 SWAP6 POP SWAP1 SWAP4 POP POP POP POP JUMP JUMPDEST PUSH1 0x0 PUSH1 0x20 DUP3 DUP5 SUB SLT ISZERO PUSH2 0x258B JUMPI PUSH1 0x0 DUP1 REVERT JUMPDEST POP CALLDATALOAD SWAP2 SWAP1 POP JUMP JUMPDEST PUSH1 0x20 DUP1 DUP3 MSTORE PUSH1 0x1F SWAP1 DUP3 ADD MSTORE PUSH32 0x5265656E7472616E637947756172643A207265656E7472616E742063616C6C00 PUSH1 0x40 DUP3 ADD MSTORE PUSH1 0x60 ADD SWAP1 JUMP JUMPDEST DUP1 ISZERO ISZERO DUP2 EQ PUSH2 0x1248 JUMPI PUSH1 0x0 DUP1 REVERT JUMPDEST DUP1 CALLDATALOAD PUSH2 0x2442 DUP2 PUSH2 0x25C9 JUMP JUMPDEST PUSH1 0x0 PUSH1 0x20 DUP3 DUP5 SUB SLT ISZERO PUSH2 0x25F4 JUMPI PUSH1 0x0 DUP1 REVERT JUMPDEST DUP2 CALLDATALOAD PUSH2 0x22B1 DUP2 PUSH2 0x25C9 JUMP JUMPDEST PUSH1 0x20 DUP1 DUP3 MSTORE PUSH1 0x16 SWAP1 DUP3 ADD MSTORE PUSH22 0x4572726F722041626F7574204F726465722053696465 PUSH1 0x50 SHL PUSH1 0x40 DUP3 ADD MSTORE PUSH1 0x60 ADD SWAP1 JUMP JUMPDEST PUSH1 0x20 DUP1 DUP3 MSTORE PUSH1 0x18 SWAP1 DUP3 ADD MSTORE PUSH32 0x4F72646572206D757374206265207468652073656E6465720000000000000000 PUSH1 0x40 DUP3 ADD MSTORE PUSH1 0x60 ADD SWAP1 JUMP JUMPDEST PUSH4 0x4E487B71 PUSH1 0xE0 SHL PUSH1 0x0 MSTORE PUSH1 0x41 PUSH1 0x4 MSTORE PUSH1 0x24 PUSH1 0x0 REVERT JUMPDEST PUSH1 0x40 MLOAD PUSH2 0x200 DUP2 ADD PUSH8 0xFFFFFFFFFFFFFFFF DUP2 GT DUP3 DUP3 LT OR ISZERO PUSH2 0x26A0 JUMPI PUSH2 0x26A0 PUSH2 0x2666 JUMP JUMPDEST PUSH1 0x40 MSTORE SWAP1 JUMP JUMPDEST PUSH1 0x0 DUP3 PUSH1 0x1F DUP4 ADD SLT PUSH2 0x26B7 JUMPI PUSH1 0x0 DUP1 REVERT JUMPDEST DUP2 CALLDATALOAD PUSH8 0xFFFFFFFFFFFFFFFF DUP1 DUP3 GT ISZERO PUSH2 0x26D2 JUMPI PUSH2 0x26D2 PUSH2 0x2666 JUMP JUMPDEST PUSH1 0x40 MLOAD PUSH1 0x1F DUP4 ADD PUSH1 0x1F NOT SWAP1 DUP2 AND PUSH1 0x3F ADD AND DUP2 ADD SWAP1 DUP3 DUP3 GT DUP2 DUP4 LT OR ISZERO PUSH2 0x26FA JUMPI PUSH2 0x26FA PUSH2 0x2666 JUMP JUMPDEST DUP2 PUSH1 0x40 MSTORE DUP4 DUP2 MSTORE DUP7 PUSH1 0x20 DUP6 DUP9 ADD ADD GT ISZERO PUSH2 0x2713 JUMPI PUSH1 0x0 DUP1 REVERT JUMPDEST DUP4 PUSH1 0x20 DUP8 ADD PUSH1 0x20 DUP4 ADD CALLDATACOPY PUSH1 0x0 PUSH1 0x20 DUP6 DUP4 ADD ADD MSTORE DUP1 SWAP5 POP POP POP POP POP SWAP3 SWAP2 POP POP JUMP JUMPDEST DUP1 CALLDATALOAD PUSH1 0xFF DUP2 AND DUP2 EQ PUSH2 0x2442 JUMPI PUSH1 0x0 DUP1 REVERT JUMPDEST PUSH1 0x0 PUSH2 0x200 DUP3 CALLDATASIZE SUB SLT ISZERO PUSH2 0x2757 JUMPI PUSH1 0x0 DUP1 REVERT JUMPDEST PUSH2 0x275F PUSH2 0x267C JUMP JUMPDEST PUSH2 0x2768 DUP4 PUSH2 0x25D7 JUMP JUMPDEST DUP2 MSTORE PUSH2 0x2776 PUSH1 0x20 DUP5 ADD PUSH2 0x2437 JUMP JUMPDEST PUSH1 0x20 DUP3 ADD MSTORE PUSH2 0x2787 PUSH1 0x40 DUP5 ADD PUSH2 0x2437 JUMP JUMPDEST PUSH1 0x40 DUP3 ADD MSTORE PUSH1 0x60 DUP4 ADD CALLDATALOAD PUSH1 0x60 DUP3 ADD MSTORE PUSH1 0x80 DUP4 ADD CALLDATALOAD PUSH1 0x80 DUP3 ADD MSTORE PUSH1 0xA0 DUP4 ADD CALLDATALOAD PUSH1 0xA0 DUP3 ADD MSTORE PUSH2 0x27B6 PUSH1 0xC0 DUP5 ADD PUSH2 0x2437 JUMP JUMPDEST PUSH1 0xC0 DUP3 ADD MSTORE PUSH2 0x27C7 PUSH1 0xE0 DUP5 ADD PUSH2 0x2437 JUMP JUMPDEST PUSH1 0xE0 DUP3 ADD MSTORE PUSH2 0x100 DUP4 DUP2 ADD CALLDATALOAD SWAP1 DUP3 ADD MSTORE PUSH2 0x120 DUP1 DUP5 ADD CALLDATALOAD SWAP1 DUP3 ADD MSTORE PUSH2 0x140 DUP1 DUP5 ADD CALLDATALOAD SWAP1 DUP3 ADD MSTORE PUSH2 0x160 DUP1 DUP5 ADD CALLDATALOAD SWAP1 DUP3 ADD MSTORE PUSH2 0x180 DUP1 DUP5 ADD CALLDATALOAD PUSH8 0xFFFFFFFFFFFFFFFF DUP2 GT ISZERO PUSH2 0x2814 JUMPI PUSH1 0x0 DUP1 REVERT JUMPDEST PUSH2 0x2820 CALLDATASIZE DUP3 DUP8 ADD PUSH2 0x26A6 JUMP JUMPDEST DUP3 DUP5 ADD MSTORE POP POP PUSH2 0x1A0 PUSH2 0x2834 DUP2 DUP6 ADD PUSH2 0x2733 JUMP JUMPDEST SWAP1 DUP3 ADD MSTORE PUSH2 0x1C0 DUP4 DUP2 ADD CALLDATALOAD SWAP1 DUP3 ADD MSTORE PUSH2 0x1E0 SWAP3 DUP4 ADD CALLDATALOAD SWAP3 DUP2 ADD SWAP3 SWAP1 SWAP3 MSTORE POP SWAP1 JUMP JUMPDEST PUSH1 0x0 DUP1 DUP4 CALLDATALOAD PUSH1 0x1E NOT DUP5 CALLDATASIZE SUB ADD DUP2 SLT PUSH2 0x286C JUMPI PUSH1 0x0 DUP1 REVERT JUMPDEST DUP4 ADD PUSH1 0x20 DUP2 ADD SWAP3 POP CALLDATALOAD SWAP1 POP PUSH8 0xFFFFFFFFFFFFFFFF DUP2 GT ISZERO PUSH2 0x288C JUMPI PUSH1 0x0 DUP1 REVERT JUMPDEST DUP1 CALLDATASIZE SUB DUP3 SGT ISZERO PUSH2 0x289B JUMPI PUSH1 0x0 DUP1 REVERT JUMPDEST SWAP3 POP SWAP3 SWAP1 POP JUMP JUMPDEST DUP2 DUP4 MSTORE DUP2 DUP2 PUSH1 0x20 DUP6 ADD CALLDATACOPY POP PUSH1 0x0 DUP3 DUP3 ADD PUSH1 0x20 SWAP1 DUP2 ADD SWAP2 SWAP1 SWAP2 MSTORE PUSH1 0x1F SWAP1 SWAP2 ADD PUSH1 0x1F NOT AND SWAP1 SWAP2 ADD ADD SWAP1 JUMP JUMPDEST PUSH1 0x40 DUP2 MSTORE PUSH1 0x0 PUSH2 0x100 DUP5 CALLDATALOAD PUSH2 0x28DF DUP2 PUSH2 0x25C9 JUMP JUMPDEST ISZERO ISZERO PUSH1 0x40 DUP5 ADD MSTORE PUSH1 0x20 DUP6 ADD CALLDATALOAD PUSH2 0x28F4 DUP2 PUSH2 0x2422 JUMP JUMPDEST PUSH1 0x1 DUP1 PUSH1 0xA0 SHL SUB DUP2 AND PUSH1 0x60 DUP6 ADD MSTORE POP PUSH1 0x40 DUP6 ADD CALLDATALOAD PUSH1 0x80 DUP5 ADD MSTORE PUSH1 0x60 DUP6 ADD CALLDATALOAD PUSH1 0xA0 DUP5 ADD MSTORE PUSH1 0x80 DUP6 ADD CALLDATALOAD PUSH1 0xC0 DUP5 ADD MSTORE PUSH2 0x292E PUSH1 0xA0 DUP7 ADD DUP7 PUSH2 0x2855 JUMP JUMPDEST PUSH1 0xC0 PUSH1 0xE0 DUP7 ADD MSTORE PUSH2 0x2942 DUP4 DUP7 ADD DUP3 DUP5 PUSH2 0x28A2 JUMP JUMPDEST SWAP2 POP POP DUP4 DUP2 SUB PUSH1 0x20 DUP6 ADD MSTORE PUSH2 0x200 PUSH2 0x2963 DUP3 PUSH2 0x295D DUP9 PUSH2 0x25D7 JUMP JUMPDEST ISZERO ISZERO SWAP1 MSTORE JUMP JUMPDEST PUSH2 0x296F PUSH1 0x20 DUP8 ADD PUSH2 0x2437 JUMP JUMPDEST PUSH1 0x1 PUSH1 0x1 PUSH1 0xA0 SHL SUB AND PUSH1 0x20 DUP4 ADD MSTORE PUSH2 0x2989 PUSH1 0x40 DUP8 ADD PUSH2 0x2437 JUMP JUMPDEST PUSH1 0x1 PUSH1 0x1 PUSH1 0xA0 SHL SUB DUP2 AND PUSH1 0x40 DUP5 ADD MSTORE POP PUSH1 0x60 DUP7 ADD CALLDATALOAD PUSH1 0x60 DUP4 ADD MSTORE PUSH1 0x80 DUP7 ADD CALLDATALOAD PUSH1 0x80 DUP4 ADD MSTORE PUSH1 0xA0 DUP7 ADD CALLDATALOAD PUSH1 0xA0 DUP4 ADD MSTORE PUSH2 0x29C3 PUSH1 0xC0 DUP8 ADD PUSH2 0x2437 JUMP JUMPDEST PUSH1 0x1 PUSH1 0x1 PUSH1 0xA0 SHL SUB AND PUSH1 0xC0 DUP4 ADD MSTORE PUSH2 0x29DD PUSH1 0xE0 DUP8 ADD PUSH2 0x2437 JUMP JUMPDEST PUSH1 0x1 PUSH1 0x1 PUSH1 0xA0 SHL SUB AND PUSH1 0xE0 DUP4 ADD MSTORE DUP3 DUP7 ADD CALLDATALOAD SWAP3 DUP3 ADD SWAP3 SWAP1 SWAP3 MSTORE PUSH2 0x120 DUP1 DUP7 ADD CALLDATALOAD SWAP1 DUP3 ADD MSTORE PUSH2 0x140 DUP1 DUP7 ADD CALLDATALOAD SWAP1 DUP3 ADD MSTORE PUSH2 0x160 DUP1 DUP7 ADD CALLDATALOAD SWAP1 DUP3 ADD MSTORE PUSH2 0x180 SWAP2 PUSH2 0x2A27 DUP4 DUP8 ADD DUP8 PUSH2 0x2855 JUMP JUMPDEST DUP3 DUP6 DUP6 ADD MSTORE PUSH2 0x2A39 DUP4 DUP6 ADD DUP3 DUP5 PUSH2 0x28A2 JUMP JUMPDEST SWAP5 POP POP POP POP PUSH2 0x1A0 PUSH2 0x2A4C DUP2 DUP8 ADD PUSH2 0x2733 JUMP JUMPDEST PUSH1 0xFF AND SWAP1 DUP3 ADD MSTORE PUSH2 0x1C0 DUP6 DUP2 ADD CALLDATALOAD SWAP1 DUP3 ADD MSTORE PUSH2 0x1E0 SWAP5 DUP6 ADD CALLDATALOAD SWAP5 ADD SWAP4 SWAP1 SWAP4 MSTORE POP SWAP1 SWAP3 SWAP2 POP POP JUMP JUMPDEST PUSH1 0x0 DUP1 PUSH1 0x0 PUSH1 0x60 DUP5 DUP7 SUB SLT ISZERO PUSH2 0x2A88 JUMPI PUSH1 0x0 DUP1 REVERT JUMPDEST DUP4 MLOAD PUSH2 0x2A93 DUP2 PUSH2 0x25C9 JUMP JUMPDEST PUSH1 0x20 DUP6 ADD MLOAD PUSH1 0x40 SWAP1 SWAP6 ADD MLOAD SWAP1 SWAP7 SWAP5 SWAP6 POP SWAP4 SWAP3 POP POP POP JUMP JUMPDEST PUSH1 0x20 DUP1 DUP3 MSTORE PUSH1 0x18 SWAP1 DUP3 ADD MSTORE PUSH32 0x53747261746567792073686F756C642062652076616C69640000000000000000 PUSH1 0x40 DUP3 ADD MSTORE PUSH1 0x60 ADD SWAP1 JUMP JUMPDEST PUSH4 0x4E487B71 PUSH1 0xE0 SHL PUSH1 0x0 MSTORE PUSH1 0x11 PUSH1 0x4 MSTORE PUSH1 0x24 PUSH1 0x0 REVERT JUMPDEST DUP2 DUP2 SUB DUP2 DUP2 GT ISZERO PUSH2 0x48D JUMPI PUSH2 0x48D PUSH2 0x2AE1 JUMP JUMPDEST PUSH1 0x20 DUP1 DUP3 MSTORE PUSH1 0x1F SWAP1 DUP3 ADD MSTORE PUSH32 0x43616E6E6F742075706461746520746F2061206E756C6C206164647265737300 PUSH1 0x40 DUP3 ADD MSTORE PUSH1 0x60 ADD SWAP1 JUMP JUMPDEST PUSH4 0x4E487B71 PUSH1 0xE0 SHL PUSH1 0x0 MSTORE PUSH1 0x32 PUSH1 0x4 MSTORE PUSH1 0x24 PUSH1 0x0 REVERT JUMPDEST PUSH1 0x20 DUP1 DUP3 MSTORE PUSH1 0x2C SWAP1 DUP3 ADD MSTORE PUSH32 0x43616E63656C204F72646572206E6F6E63652063616E6E6F74206C6F77657220 PUSH1 0x40 DUP3 ADD MSTORE PUSH12 0x1D1A185B8818DD5C9C995B9D PUSH1 0xA2 SHL PUSH1 0x60 DUP3 ADD MSTORE PUSH1 0x80 ADD SWAP1 JUMP JUMPDEST PUSH1 0x0 PUSH1 0x1 DUP3 ADD PUSH2 0x2BB5 JUMPI PUSH2 0x2BB5 PUSH2 0x2AE1 JUMP JUMPDEST POP PUSH1 0x1 ADD SWAP1 JUMP JUMPDEST PUSH1 0x20 DUP1 DUP3 MSTORE DUP2 ADD DUP3 SWAP1 MSTORE PUSH1 0x0 PUSH1 0x1 PUSH1 0x1 PUSH1 0xFB SHL SUB DUP4 GT ISZERO PUSH2 0x2BDC JUMPI PUSH1 0x0 DUP1 REVERT JUMPDEST DUP3 PUSH1 0x5 SHL DUP1 DUP6 PUSH1 0x40 DUP6 ADD CALLDATACOPY SWAP2 SWAP1 SWAP2 ADD PUSH1 0x40 ADD SWAP4 SWAP3 POP POP POP JUMP JUMPDEST DUP1 DUP3 ADD DUP1 DUP3 GT ISZERO PUSH2 0x48D JUMPI PUSH2 0x48D PUSH2 0x2AE1 JUMP JUMPDEST DUP15 DUP2 MSTORE DUP14 ISZERO ISZERO PUSH1 0x20 DUP3 ADD MSTORE PUSH1 0x1 PUSH1 0x1 PUSH1 0xA0 SHL SUB DUP14 DUP2 AND PUSH1 0x40 DUP4 ADD MSTORE DUP13 AND PUSH1 0x60 DUP3 ADD MSTORE PUSH2 0x1C0 DUP2 ADD DUP12 PUSH1 0x80 DUP4 ADD MSTORE DUP11 PUSH1 0xA0 DUP4 ADD MSTORE DUP10 PUSH1 0xC0 DUP4 ADD MSTORE PUSH2 0x2C56 PUSH1 0xE0 DUP4 ADD DUP11 PUSH1 0x1 PUSH1 0x1 PUSH1 0xA0 SHL SUB AND SWAP1 MSTORE JUMP JUMPDEST PUSH1 0x1 PUSH1 0x1 PUSH1 0xA0 SHL SUB DUP9 AND PUSH2 0x100 DUP4 ADD MSTORE PUSH2 0x120 DUP3 ADD SWAP7 SWAP1 SWAP7 MSTORE PUSH2 0x140 DUP2 ADD SWAP5 SWAP1 SWAP5 MSTORE PUSH2 0x160 DUP5 ADD SWAP3 SWAP1 SWAP3 MSTORE PUSH2 0x180 DUP4 ADD MSTORE PUSH2 0x1A0 SWAP1 SWAP2 ADD MSTORE SWAP10 SWAP9 POP POP POP POP POP POP POP POP POP JUMP JUMPDEST PUSH1 0x0 PUSH1 0x20 DUP3 DUP5 SUB SLT ISZERO PUSH2 0x2CAD JUMPI PUSH1 0x0 DUP1 REVERT JUMPDEST PUSH2 0x22B1 DUP3 PUSH2 0x2733 JUMP JUMPDEST PUSH1 0x0 PUSH1 0x20 DUP3 DUP5 SUB SLT ISZERO PUSH2 0x2CC8 JUMPI PUSH1 0x0 DUP1 REVERT JUMPDEST DUP2 MLOAD PUSH2 0x22B1 DUP2 PUSH2 0x25C9 JUMP JUMPDEST PUSH1 0x0 DUP1 PUSH1 0x40 DUP4 DUP6 SUB SLT ISZERO PUSH2 0x2CE6 JUMPI PUSH1 0x0 DUP1 REVERT JUMPDEST DUP3 MLOAD PUSH2 0x2CF1 DUP2 PUSH2 0x2422 JUMP JUMPDEST PUSH1 0x20 SWAP4 SWAP1 SWAP4 ADD MLOAD SWAP3 SWAP5 SWAP3 SWAP4 POP POP POP JUMP JUMPDEST DUP1 DUP3 MUL DUP2 ISZERO DUP3 DUP3 DIV DUP5 EQ OR PUSH2 0x48D JUMPI PUSH2 0x48D PUSH2 0x2AE1 JUMP JUMPDEST PUSH1 0x20 DUP1 DUP3 MSTORE PUSH1 0x22 SWAP1 DUP3 ADD MSTORE PUSH32 0x5468652066656520697320746F6F206869676820666F72207468652073656C6C PUSH1 0x40 DUP3 ADD MSTORE PUSH2 0x32B9 PUSH1 0xF1 SHL PUSH1 0x60 DUP3 ADD MSTORE PUSH1 0x80 ADD SWAP1 JUMP JUMPDEST PUSH1 0x0 PUSH1 0x20 DUP3 DUP5 SUB SLT ISZERO PUSH2 0x2D6C JUMPI PUSH1 0x0 DUP1 REVERT JUMPDEST DUP2 MLOAD PUSH2 0x22B1 DUP2 PUSH2 0x2422 JUMP JUMPDEST PUSH1 0x0 JUMPDEST DUP4 DUP2 LT ISZERO PUSH2 0x2D92 JUMPI DUP2 DUP2 ADD MLOAD DUP4 DUP3 ADD MSTORE PUSH1 0x20 ADD PUSH2 0x2D7A JUMP JUMPDEST POP POP PUSH1 0x0 SWAP2 ADD MSTORE JUMP JUMPDEST PUSH1 0x0 DUP2 MLOAD DUP1 DUP5 MSTORE PUSH2 0x2DB3 DUP2 PUSH1 0x20 DUP7 ADD PUSH1 0x20 DUP7 ADD PUSH2 0x2D77 JUMP JUMPDEST PUSH1 0x1F ADD PUSH1 0x1F NOT AND SWAP3 SWAP1 SWAP3 ADD PUSH1 0x20 ADD SWAP3 SWAP2 POP POP JUMP JUMPDEST DUP3 DUP2 MSTORE PUSH1 0x40 PUSH1 0x20 DUP3 ADD MSTORE PUSH1 0x0 PUSH2 0x22AE PUSH1 0x40 DUP4 ADD DUP5 PUSH2 0x2D9B JUMP JUMPDEST PUSH1 0x0 PUSH1 0x20 DUP3 DUP5 SUB SLT ISZERO PUSH2 0x2DF2 JUMPI PUSH1 0x0 DUP1 REVERT JUMPDEST DUP2 MLOAD PUSH1 0x1 PUSH1 0x1 PUSH1 0xE0 SHL SUB NOT DUP2 AND DUP2 EQ PUSH2 0x22B1 JUMPI PUSH1 0x0 DUP1 REVERT JUMPDEST PUSH1 0x0 PUSH1 0x20 DUP3 DUP5 SUB SLT ISZERO PUSH2 0x2E1C JUMPI PUSH1 0x0 DUP1 REVERT JUMPDEST POP MLOAD SWAP2 SWAP1 POP JUMP JUMPDEST PUSH1 0x0 DUP3 PUSH2 0x2E40 JUMPI PUSH4 0x4E487B71 PUSH1 0xE0 SHL PUSH1 0x0 MSTORE PUSH1 0x12 PUSH1 0x4 MSTORE PUSH1 0x24 PUSH1 0x0 REVERT JUMPDEST POP DIV SWAP1 JUMP JUMPDEST PUSH1 0x0 DUP3 MLOAD PUSH2 0x2E57 DUP2 DUP5 PUSH1 0x20 DUP8 ADD PUSH2 0x2D77 JUMP JUMPDEST SWAP2 SWAP1 SWAP2 ADD SWAP3 SWAP2 POP POP JUMP JUMPDEST PUSH1 0x20 DUP2 MSTORE PUSH1 0x0 PUSH2 0x22B1 PUSH1 0x20 DUP4 ADD DUP5 PUSH2 0x2D9B JUMP INVALID LOG2 PUSH5 0x6970667358 0x22 SLT KECCAK256 0xB9 ADDRESS JUMP PUSH7 0x772370E093EE4C DUP15 0xE6 0xBD ISZERO SWAP8 EQ 0xDA MULMOD PUSH13 0x97BB98D5634B3E049397EC7864 PUSH20 0x6F6C634300081100330000000000000000000000 "
				},
				"gasEstimates": {
					"creation": {
						"codeDepositCost": "2389200",
						"executionCost": "infinite",
						"totalCost": "infinite"
					},
					"external": {
						"WETH()": "infinite",
						"cancelAllOrdersForSender(uint256)": "28376",
						"cancelMultipleMakerOrders(uint256[])": "infinite",
						"currencyManager()": "2350",
						"executionManager()": "2349",
						"isUserOrderNonceExecutedOrCancelled(address,uint256)": "2727",
						"matchSellerOrders((bool,address,uint256,uint256,uint256,bytes),(bool,address,address,uint256,uint256,uint256,address,address,uint256,uint256,uint256,uint256,bytes,uint8,bytes32,bytes32))": "infinite",
						"matchSellerOrdersWETH((bool,address,uint256,uint256,uint256,bytes),(bool,address,address,uint256,uint256,uint256,address,address,uint256,uint256,uint256,uint256,bytes,uint8,bytes32,bytes32))": "infinite",
						"matchesBuyerOrder((bool,address,uint256,uint256,uint256,bytes),(bool,address,address,uint256,uint256,uint256,address,address,uint256,uint256,uint256,uint256,bytes,uint8,bytes32,bytes32))": "infinite",
						"owner()": "2409",
						"protocolFeeRecipient()": "2349",
						"renounceOwnership()": "infinite",
						"royaltyFeeManager()": "2393",
						"transferOwnership(address)": "infinite",
						"transferSelectorNFT()": "2415",
						"updateCurrencyManager(address)": "27970",
						"updateExecutionManager(address)": "27991",
						"updateProtocolFeeRecipient(address)": "27914",
						"updateRoyaltyFeeManager(address)": "27947",
						"updateTransferSelectorNFT(address)": "28035",
						"userMinOrderNonce(address)": "2603"
					},
					"internal": {
						"_calculateProtocolFee(address,uint256)": "infinite",
						"_transferFeesAndFunds(address,address,uint256,address,address,address,uint256,uint256)": "infinite",
						"_transferFeesAndFundsWithWETH(address,address,uint256,address,uint256,uint256)": "infinite",
						"_transferNonFungibleToken(address,address,address,uint256,uint256)": "infinite",
						"_validateOrder(struct OrderTypes.MakerOrder calldata,bytes32)": "infinite"
					}
				},
				"methodIdentifiers": {
					"WETH()": "ad5c4648",
					"cancelAllOrdersForSender(uint256)": "cbd2ec65",
					"cancelMultipleMakerOrders(uint256[])": "9e53a69a",
					"currencyManager()": "0f747d74",
					"executionManager()": "483abb9f",
					"isUserOrderNonceExecutedOrCancelled(address,uint256)": "31e27e27",
					"matchSellerOrders((bool,address,uint256,uint256,uint256,bytes),(bool,address,address,uint256,uint256,uint256,address,address,uint256,uint256,uint256,uint256,bytes,uint8,bytes32,bytes32))": "45ea7231",
					"matchSellerOrdersWETH((bool,address,uint256,uint256,uint256,bytes),(bool,address,address,uint256,uint256,uint256,address,address,uint256,uint256,uint256,uint256,bytes,uint8,bytes32,bytes32))": "509a1a41",
					"matchesBuyerOrder((bool,address,uint256,uint256,uint256,bytes),(bool,address,address,uint256,uint256,uint256,address,address,uint256,uint256,uint256,uint256,bytes,uint8,bytes32,bytes32))": "63521def",
					"owner()": "8da5cb5b",
					"protocolFeeRecipient()": "64df049e",
					"renounceOwnership()": "715018a6",
					"royaltyFeeManager()": "87e4401f",
					"transferOwnership(address)": "f2fde38b",
					"transferSelectorNFT()": "5e14f68e",
					"updateCurrencyManager(address)": "5ce052d7",
					"updateExecutionManager(address)": "d4ff41dc",
					"updateProtocolFeeRecipient(address)": "1df47f80",
					"updateRoyaltyFeeManager(address)": "c5498769",
					"updateTransferSelectorNFT(address)": "f75ff53f",
					"userMinOrderNonce(address)": "4266581e"
				}
			},
			"storageLayout": {
				"storage": [
					{
						"astId": 137,
						"contract": "contracts/Manager/UnemetaMarket.sol:UnemetaMarket",
						"label": "_status",
						"offset": 0,
						"slot": "0",
						"type": "t_uint256"
					},
					{
						"astId": 7,
						"contract": "contracts/Manager/UnemetaMarket.sol:UnemetaMarket",
						"label": "_owner",
						"offset": 0,
						"slot": "1",
						"type": "t_address"
					},
					{
						"astId": 962,
						"contract": "contracts/Manager/UnemetaMarket.sol:UnemetaMarket",
						"label": "protocolFeeRecipient",
						"offset": 0,
						"slot": "2",
						"type": "t_address"
					},
					{
						"astId": 965,
						"contract": "contracts/Manager/UnemetaMarket.sol:UnemetaMarket",
						"label": "currencyManager",
						"offset": 0,
						"slot": "3",
						"type": "t_contract(TheCurrencyManager)2257"
					},
					{
						"astId": 968,
						"contract": "contracts/Manager/UnemetaMarket.sol:UnemetaMarket",
						"label": "executionManager",
						"offset": 0,
						"slot": "4",
						"type": "t_contract(TheExManager)2294"
					},
					{
						"astId": 971,
						"contract": "contracts/Manager/UnemetaMarket.sol:UnemetaMarket",
						"label": "royaltyFeeManager",
						"offset": 0,
						"slot": "5",
						"type": "t_contract(TheRoyaltyManager)2310"
					},
					{
						"astId": 974,
						"contract": "contracts/Manager/UnemetaMarket.sol:UnemetaMarket",
						"label": "transferSelectorNFT",
						"offset": 0,
						"slot": "6",
						"type": "t_contract(TheTransferSelector)2368"
					},
					{
						"astId": 978,
						"contract": "contracts/Manager/UnemetaMarket.sol:UnemetaMarket",
						"label": "userMinOrderNonce",
						"offset": 0,
						"slot": "7",
						"type": "t_mapping(t_address,t_uint256)"
					},
					{
						"astId": 984,
						"contract": "contracts/Manager/UnemetaMarket.sol:UnemetaMarket",
						"label": "_theUserOrderExecutedOrCancelled",
						"offset": 0,
						"slot": "8",
						"type": "t_mapping(t_address,t_mapping(t_uint256,t_bool))"
					}
				],
				"types": {
					"t_address": {
						"encoding": "inplace",
						"label": "address",
						"numberOfBytes": "20"
					},
					"t_bool": {
						"encoding": "inplace",
						"label": "bool",
						"numberOfBytes": "1"
					},
					"t_contract(TheCurrencyManager)2257": {
						"encoding": "inplace",
						"label": "contract TheCurrencyManager",
						"numberOfBytes": "20"
					},
					"t_contract(TheExManager)2294": {
						"encoding": "inplace",
						"label": "contract TheExManager",
						"numberOfBytes": "20"
					},
					"t_contract(TheRoyaltyManager)2310": {
						"encoding": "inplace",
						"label": "contract TheRoyaltyManager",
						"numberOfBytes": "20"
					},
					"t_contract(TheTransferSelector)2368": {
						"encoding": "inplace",
						"label": "contract TheTransferSelector",
						"numberOfBytes": "20"
					},
					"t_mapping(t_address,t_mapping(t_uint256,t_bool))": {
						"encoding": "mapping",
						"key": "t_address",
						"label": "mapping(address => mapping(uint256 => bool))",
						"numberOfBytes": "32",
						"value": "t_mapping(t_uint256,t_bool)"
					},
					"t_mapping(t_address,t_uint256)": {
						"encoding": "mapping",
						"key": "t_address",
						"label": "mapping(address => uint256)",
						"numberOfBytes": "32",
						"value": "t_uint256"
					},
					"t_mapping(t_uint256,t_bool)": {
						"encoding": "mapping",
						"key": "t_uint256",
						"label": "mapping(uint256 => bool)",
						"numberOfBytes": "32",
						"value": "t_bool"
					},
					"t_uint256": {
						"encoding": "inplace",
						"label": "uint256",
						"numberOfBytes": "32"
					}
				}
			},
			"userdoc": {
				"kind": "user",
				"methods": {},
				"version": 1
			}
		}
	}
}