{
	"contracts/Manager/execution/StrategyFixedPrice.sol": {
		"StrategyFixedPrice": {
			"abi": [
				{
					"inputs": [
						{
							"internalType": "uint256",
							"name": "_protocolFee",
							"type": "uint256"
						}
					],
					"stateMutability": "nonpayable",
					"type": "constructor"
				},
				{
					"inputs": [],
					"name": "PROTOCOL_FEE",
					"outputs": [
						{
							"internalType": "uint256",
							"name": "",
							"type": "uint256"
						}
					],
					"stateMutability": "view",
					"type": "function"
				},
				{
					"inputs": [
						{
							"components": [
								{
									"internalType": "bool",
									"name": "isOrderAsk",
									"type": "bool"
								},
								{
									"internalType": "address",
									"name": "taker",
									"type": "address"
								},
								{
									"internalType": "uint256",
									"name": "price",
									"type": "uint256"
								},
								{
									"internalType": "uint256",
									"name": "tokenId",
									"type": "uint256"
								},
								{
									"internalType": "uint256",
									"name": "minPercentageToAsk",
									"type": "uint256"
								},
								{
									"internalType": "bytes",
									"name": "params",
									"type": "bytes"
								}
							],
							"internalType": "struct OrderModel.TakerOrder",
							"name": "takerAsk",
							"type": "tuple"
						},
						{
							"components": [
								{
									"internalType": "bool",
									"name": "isOrderAsk",
									"type": "bool"
								},
								{
									"internalType": "address",
									"name": "signer",
									"type": "address"
								},
								{
									"internalType": "address",
									"name": "collection",
									"type": "address"
								},
								{
									"internalType": "uint256",
									"name": "price",
									"type": "uint256"
								},
								{
									"internalType": "uint256",
									"name": "tokenId",
									"type": "uint256"
								},
								{
									"internalType": "uint256",
									"name": "amount",
									"type": "uint256"
								},
								{
									"internalType": "address",
									"name": "strategy",
									"type": "address"
								},
								{
									"internalType": "address",
									"name": "currency",
									"type": "address"
								},
								{
									"internalType": "uint256",
									"name": "nonce",
									"type": "uint256"
								},
								{
									"internalType": "uint256",
									"name": "startTime",
									"type": "uint256"
								},
								{
									"internalType": "uint256",
									"name": "endTime",
									"type": "uint256"
								},
								{
									"internalType": "uint256",
									"name": "minPercentageToAsk",
									"type": "uint256"
								},
								{
									"internalType": "bytes",
									"name": "params",
									"type": "bytes"
								},
								{
									"internalType": "uint8",
									"name": "v",
									"type": "uint8"
								},
								{
									"internalType": "bytes32",
									"name": "r",
									"type": "bytes32"
								},
								{
									"internalType": "bytes32",
									"name": "s",
									"type": "bytes32"
								}
							],
							"internalType": "struct OrderModel.MakerOrder",
							"name": "makerBid",
							"type": "tuple"
						}
					],
					"name": "canExecuteBuy",
					"outputs": [
						{
							"internalType": "bool",
							"name": "",
							"type": "bool"
						},
						{
							"internalType": "uint256",
							"name": "",
							"type": "uint256"
						},
						{
							"internalType": "uint256",
							"name": "",
							"type": "uint256"
						}
					],
					"stateMutability": "view",
					"type": "function"
				},
				{
					"inputs": [
						{
							"components": [
								{
									"internalType": "bool",
									"name": "isOrderAsk",
									"type": "bool"
								},
								{
									"internalType": "address",
									"name": "taker",
									"type": "address"
								},
								{
									"internalType": "uint256",
									"name": "price",
									"type": "uint256"
								},
								{
									"internalType": "uint256",
									"name": "tokenId",
									"type": "uint256"
								},
								{
									"internalType": "uint256",
									"name": "minPercentageToAsk",
									"type": "uint256"
								},
								{
									"internalType": "bytes",
									"name": "params",
									"type": "bytes"
								}
							],
							"internalType": "struct OrderModel.TakerOrder",
							"name": "takerBid",
							"type": "tuple"
						},
						{
							"components": [
								{
									"internalType": "bool",
									"name": "isOrderAsk",
									"type": "bool"
								},
								{
									"internalType": "address",
									"name": "signer",
									"type": "address"
								},
								{
									"internalType": "address",
									"name": "collection",
									"type": "address"
								},
								{
									"internalType": "uint256",
									"name": "price",
									"type": "uint256"
								},
								{
									"internalType": "uint256",
									"name": "tokenId",
									"type": "uint256"
								},
								{
									"internalType": "uint256",
									"name": "amount",
									"type": "uint256"
								},
								{
									"internalType": "address",
									"name": "strategy",
									"type": "address"
								},
								{
									"internalType": "address",
									"name": "currency",
									"type": "address"
								},
								{
									"internalType": "uint256",
									"name": "nonce",
									"type": "uint256"
								},
								{
									"internalType": "uint256",
									"name": "startTime",
									"type": "uint256"
								},
								{
									"internalType": "uint256",
									"name": "endTime",
									"type": "uint256"
								},
								{
									"internalType": "uint256",
									"name": "minPercentageToAsk",
									"type": "uint256"
								},
								{
									"internalType": "bytes",
									"name": "params",
									"type": "bytes"
								},
								{
									"internalType": "uint8",
									"name": "v",
									"type": "uint8"
								},
								{
									"internalType": "bytes32",
									"name": "r",
									"type": "bytes32"
								},
								{
									"internalType": "bytes32",
									"name": "s",
									"type": "bytes32"
								}
							],
							"internalType": "struct OrderModel.MakerOrder",
							"name": "makerAsk",
							"type": "tuple"
						}
					],
					"name": "canExecuteSell",
					"outputs": [
						{
							"internalType": "bool",
							"name": "",
							"type": "bool"
						},
						{
							"internalType": "uint256",
							"name": "",
							"type": "uint256"
						},
						{
							"internalType": "uint256",
							"name": "",
							"type": "uint256"
						}
					],
					"stateMutability": "view",
					"type": "function"
				},
				{
					"inputs": [],
					"name": "viewProtocolFee",
					"outputs": [
						{
							"internalType": "uint256",
							"name": "",
							"type": "uint256"
						}
					],
					"stateMutability": "view",
					"type": "function"
				}
			],
			"devdoc": {
				"kind": "dev",
				"methods": {
					"constructor": {
						"params": {
							"_protocolFee": "protocol fee (200 --> 2%, 400 --> 4%)"
						}
					}
				},
				"title": "StrategyStandardSaleForFixedPrice",
				"version": 1
			},
			"evm": {
				"assembly": "    /* \"contracts/Manager/execution/StrategyFixedPrice.sol\":339:2555  contract StrategyFixedPrice is TheExStrategy {... */\n  mstore(0x40, 0xa0)\n    /* \"contracts/Manager/execution/StrategyFixedPrice.sol\":542:620  constructor(uint256 _protocolFee) {... */\n  callvalue\n  dup1\n  iszero\n  tag_1\n  jumpi\n  0x00\n  dup1\n  revert\ntag_1:\n  pop\n  mload(0x40)\n  sub(codesize, bytecodeSize)\n  dup1\n  bytecodeSize\n  dup4\n  codecopy\n  dup2\n  add\n  0x40\n  dup2\n  swap1\n  mstore\n  tag_2\n  swap2\n  tag_3\n  jump\t// in\ntag_2:\n    /* \"contracts/Manager/execution/StrategyFixedPrice.sol\":586:613  PROTOCOL_FEE = _protocolFee */\n  0x80\n  mstore\n    /* \"contracts/Manager/execution/StrategyFixedPrice.sol\":339:2555  contract StrategyFixedPrice is TheExStrategy {... */\n  jump(tag_7)\n    /* \"#utility.yul\":14:198   */\ntag_3:\n    /* \"#utility.yul\":84:90   */\n  0x00\n    /* \"#utility.yul\":137:139   */\n  0x20\n    /* \"#utility.yul\":125:134   */\n  dup3\n    /* \"#utility.yul\":116:123   */\n  dup5\n    /* \"#utility.yul\":112:135   */\n  sub\n    /* \"#utility.yul\":108:140   */\n  slt\n    /* \"#utility.yul\":105:157   */\n  iszero\n  tag_9\n  jumpi\n    /* \"#utility.yul\":153:154   */\n  0x00\n    /* \"#utility.yul\":150:151   */\n  dup1\n    /* \"#utility.yul\":143:155   */\n  revert\n    /* \"#utility.yul\":105:157   */\ntag_9:\n  pop\n    /* \"#utility.yul\":176:192   */\n  mload\n  swap2\n    /* \"#utility.yul\":14:198   */\n  swap1\n  pop\n  jump\t// out\ntag_7:\n    /* \"contracts/Manager/execution/StrategyFixedPrice.sol\":339:2555  contract StrategyFixedPrice is TheExStrategy {... */\n  mload(0x80)\n  codecopy(0x00, dataOffset(sub_0), dataSize(sub_0))\n  0x00\n  assignImmutable(\"0x1a192fabce13988b84994d4296e6cdc418d55e2f1d7f942188d4040b94fc57ac\")\n  return(0x00, dataSize(sub_0))\nstop\n\nsub_0: assembly {\n        /* \"contracts/Manager/execution/StrategyFixedPrice.sol\":339:2555  contract StrategyFixedPrice is TheExStrategy {... */\n      mstore(0x40, 0x80)\n      callvalue\n      dup1\n      iszero\n      tag_1\n      jumpi\n      0x00\n      dup1\n      revert\n    tag_1:\n      pop\n      jumpi(tag_2, lt(calldatasize, 0x04))\n      shr(0xe0, calldataload(0x00))\n      dup1\n      0x0b4501fd\n      eq\n      tag_3\n      jumpi\n      dup1\n      0x2a75ffee\n      eq\n      tag_4\n      jumpi\n      dup1\n      0x9dd1cda6\n      eq\n      tag_5\n      jumpi\n      dup1\n      0xd310677d\n      eq\n      tag_4\n      jumpi\n    tag_2:\n      0x00\n      dup1\n      revert\n        /* \"contracts/Manager/execution/StrategyFixedPrice.sol\":390:427  uint256 public immutable PROTOCOL_FEE */\n    tag_3:\n      tag_7\n      immutable(\"0x1a192fabce13988b84994d4296e6cdc418d55e2f1d7f942188d4040b94fc57ac\")\n      dup2\n      jump\n    tag_7:\n      mload(0x40)\n        /* \"#utility.yul\":160:185   */\n      swap1\n      dup2\n      mstore\n        /* \"#utility.yul\":148:150   */\n      0x20\n        /* \"#utility.yul\":133:151   */\n      add\n        /* \"contracts/Manager/execution/StrategyFixedPrice.sol\":390:427  uint256 public immutable PROTOCOL_FEE */\n    tag_9:\n      mload(0x40)\n      dup1\n      swap2\n      sub\n      swap1\n      return\n        /* \"contracts/Manager/execution/StrategyFixedPrice.sol\":816:1475  function canExecuteBuy(OrderModel.TakerOrder calldata takerAsk, OrderModel.MakerOrder calldata makerBid)... */\n    tag_4:\n      tag_11\n      tag_12\n      calldatasize\n      0x04\n      tag_13\n      jump\t// in\n    tag_12:\n      tag_14\n      jump\t// in\n    tag_11:\n      0x40\n      dup1\n      mload\n        /* \"#utility.yul\":1099:1113   */\n      swap4\n      iszero\n        /* \"#utility.yul\":1092:1114   */\n      iszero\n        /* \"#utility.yul\":1074:1115   */\n      dup5\n      mstore\n        /* \"#utility.yul\":1146:1148   */\n      0x20\n        /* \"#utility.yul\":1131:1149   */\n      dup5\n      add\n        /* \"#utility.yul\":1124:1158   */\n      swap3\n      swap1\n      swap3\n      mstore\n        /* \"#utility.yul\":1174:1192   */\n      swap1\n      dup3\n      add\n        /* \"#utility.yul\":1167:1201   */\n      mstore\n        /* \"#utility.yul\":1062:1064   */\n      0x60\n        /* \"#utility.yul\":1047:1065   */\n      add\n        /* \"contracts/Manager/execution/StrategyFixedPrice.sol\":816:1475  function canExecuteBuy(OrderModel.TakerOrder calldata takerAsk, OrderModel.MakerOrder calldata makerBid)... */\n      tag_9\n        /* \"#utility.yul\":878:1207   */\n      jump\n        /* \"contracts/Manager/execution/StrategyFixedPrice.sol\":2449:2553  function viewProtocolFee() external view override returns (uint256) {... */\n    tag_5:\n        /* \"contracts/Manager/execution/StrategyFixedPrice.sol\":2534:2546  PROTOCOL_FEE */\n      immutable(\"0x1a192fabce13988b84994d4296e6cdc418d55e2f1d7f942188d4040b94fc57ac\")\n        /* \"contracts/Manager/execution/StrategyFixedPrice.sol\":2449:2553  function viewProtocolFee() external view override returns (uint256) {... */\n      jump(tag_7)\n        /* \"contracts/Manager/execution/StrategyFixedPrice.sol\":816:1475  function canExecuteBuy(OrderModel.TakerOrder calldata takerAsk, OrderModel.MakerOrder calldata makerBid)... */\n    tag_14:\n        /* \"contracts/Manager/execution/StrategyFixedPrice.sol\":998:1002  bool */\n      0x00\n        /* \"contracts/Manager/execution/StrategyFixedPrice.sol\":1016:1023  uint256 */\n      dup1\n        /* \"contracts/Manager/execution/StrategyFixedPrice.sol\":1037:1044  uint256 */\n      0x00\n        /* \"contracts/Manager/execution/StrategyFixedPrice.sol\":1209:1217  takerAsk */\n      dup5\n        /* \"contracts/Manager/execution/StrategyFixedPrice.sol\":1209:1223  takerAsk.price */\n      0x40\n      add\n      calldataload\n        /* \"contracts/Manager/execution/StrategyFixedPrice.sol\":1191:1199  makerBid */\n      dup5\n        /* \"contracts/Manager/execution/StrategyFixedPrice.sol\":1191:1205  makerBid.price */\n      0x60\n      add\n      calldataload\n        /* \"contracts/Manager/execution/StrategyFixedPrice.sol\":1191:1223  makerBid.price == takerAsk.price */\n      eq\n        /* \"contracts/Manager/execution/StrategyFixedPrice.sol\":1190:1282  (makerBid.price == takerAsk.price) &&... */\n      dup1\n      iszero\n      tag_25\n      jumpi\n      pop\n        /* \"contracts/Manager/execution/StrategyFixedPrice.sol\":1265:1273  takerAsk */\n      dup5\n        /* \"contracts/Manager/execution/StrategyFixedPrice.sol\":1265:1281  takerAsk.tokenId */\n      0x60\n      add\n      calldataload\n        /* \"contracts/Manager/execution/StrategyFixedPrice.sol\":1245:1253  makerBid */\n      dup5\n        /* \"contracts/Manager/execution/StrategyFixedPrice.sol\":1245:1261  makerBid.tokenId */\n      0x80\n      add\n      calldataload\n        /* \"contracts/Manager/execution/StrategyFixedPrice.sol\":1245:1281  makerBid.tokenId == takerAsk.tokenId */\n      eq\n        /* \"contracts/Manager/execution/StrategyFixedPrice.sol\":1190:1282  (makerBid.price == takerAsk.price) &&... */\n    tag_25:\n        /* \"contracts/Manager/execution/StrategyFixedPrice.sol\":1190:1341  (makerBid.price == takerAsk.price) &&... */\n      dup1\n      iszero\n      tag_26\n      jumpi\n      pop\n        /* \"contracts/Manager/execution/StrategyFixedPrice.sol\":1325:1340  block.timestamp */\n      timestamp\n        /* \"contracts/Manager/execution/StrategyFixedPrice.sol\":1303:1311  makerBid */\n      dup5\n        /* \"contracts/Manager/execution/StrategyFixedPrice.sol\":1303:1321  makerBid.startTime */\n      0x0120\n      add\n      calldataload\n        /* \"contracts/Manager/execution/StrategyFixedPrice.sol\":1303:1340  makerBid.startTime <= block.timestamp */\n      gt\n      iszero\n        /* \"contracts/Manager/execution/StrategyFixedPrice.sol\":1190:1341  (makerBid.price == takerAsk.price) &&... */\n    tag_26:\n        /* \"contracts/Manager/execution/StrategyFixedPrice.sol\":1190:1398  (makerBid.price == takerAsk.price) &&... */\n      dup1\n      iszero\n      tag_27\n      jumpi\n      pop\n        /* \"contracts/Manager/execution/StrategyFixedPrice.sol\":1382:1397  block.timestamp */\n      timestamp\n        /* \"contracts/Manager/execution/StrategyFixedPrice.sol\":1362:1370  makerBid */\n      dup5\n        /* \"contracts/Manager/execution/StrategyFixedPrice.sol\":1362:1378  makerBid.endTime */\n      0x0140\n      add\n      calldataload\n        /* \"contracts/Manager/execution/StrategyFixedPrice.sol\":1362:1397  makerBid.endTime >= block.timestamp */\n      lt\n      iszero\n        /* \"contracts/Manager/execution/StrategyFixedPrice.sol\":1190:1398  (makerBid.price == takerAsk.price) &&... */\n    tag_27:\n        /* \"contracts/Manager/execution/StrategyFixedPrice.sol\":1181:1468  return (((makerBid.price == takerAsk.price) &&... */\n      swap3\n      pop\n      pop\n      pop\n        /* \"contracts/Manager/execution/StrategyFixedPrice.sol\":1413:1429  makerBid.tokenId */\n      0x80\n      dup3\n      add\n      calldataload\n        /* \"contracts/Manager/execution/StrategyFixedPrice.sol\":1443:1458  makerBid.amount */\n      0xa0\n      dup4\n      add\n      calldataload\n        /* \"contracts/Manager/execution/StrategyFixedPrice.sol\":816:1475  function canExecuteBuy(OrderModel.TakerOrder calldata takerAsk, OrderModel.MakerOrder calldata makerBid)... */\n      swap3\n      pop\n      swap3\n      pop\n      swap3\n      jump\t// out\n        /* \"#utility.yul\":196:873   */\n    tag_13:\n        /* \"#utility.yul\":322:328   */\n      0x00\n        /* \"#utility.yul\":330:336   */\n      dup1\n        /* \"#utility.yul\":383:385   */\n      0x40\n        /* \"#utility.yul\":371:380   */\n      dup4\n        /* \"#utility.yul\":362:369   */\n      dup6\n        /* \"#utility.yul\":358:381   */\n      sub\n        /* \"#utility.yul\":354:386   */\n      slt\n        /* \"#utility.yul\":351:403   */\n      iszero\n      tag_36\n      jumpi\n        /* \"#utility.yul\":399:400   */\n      0x00\n        /* \"#utility.yul\":396:397   */\n      dup1\n        /* \"#utility.yul\":389:401   */\n      revert\n        /* \"#utility.yul\":351:403   */\n    tag_36:\n        /* \"#utility.yul\":439:448   */\n      dup3\n        /* \"#utility.yul\":426:449   */\n      calldataload\n        /* \"#utility.yul\":468:486   */\n      0xffffffffffffffff\n        /* \"#utility.yul\":509:511   */\n      dup1\n        /* \"#utility.yul\":501:507   */\n      dup3\n        /* \"#utility.yul\":498:512   */\n      gt\n        /* \"#utility.yul\":495:529   */\n      iszero\n      tag_37\n      jumpi\n        /* \"#utility.yul\":525:526   */\n      0x00\n        /* \"#utility.yul\":522:523   */\n      dup1\n        /* \"#utility.yul\":515:527   */\n      revert\n        /* \"#utility.yul\":495:529   */\n    tag_37:\n        /* \"#utility.yul\":548:570   */\n      swap1\n      dup5\n      add\n      swap1\n        /* \"#utility.yul\":604:607   */\n      0xc0\n        /* \"#utility.yul\":586:602   */\n      dup3\n      dup8\n      sub\n        /* \"#utility.yul\":582:608   */\n      slt\n        /* \"#utility.yul\":579:625   */\n      iszero\n      tag_38\n      jumpi\n        /* \"#utility.yul\":621:622   */\n      0x00\n        /* \"#utility.yul\":618:619   */\n      dup1\n        /* \"#utility.yul\":611:623   */\n      revert\n        /* \"#utility.yul\":579:625   */\n    tag_38:\n        /* \"#utility.yul\":644:646   */\n      swap1\n      swap3\n      pop\n        /* \"#utility.yul\":699:701   */\n      0x20\n        /* \"#utility.yul\":684:702   */\n      dup5\n      add\n        /* \"#utility.yul\":671:703   */\n      calldataload\n      swap1\n        /* \"#utility.yul\":715:731   */\n      dup1\n      dup3\n      gt\n        /* \"#utility.yul\":712:748   */\n      iszero\n      tag_39\n      jumpi\n        /* \"#utility.yul\":744:745   */\n      0x00\n        /* \"#utility.yul\":741:742   */\n      dup1\n        /* \"#utility.yul\":734:746   */\n      revert\n        /* \"#utility.yul\":712:748   */\n    tag_39:\n      pop\n        /* \"#utility.yul\":767:791   */\n      dup4\n      add\n        /* \"#utility.yul\":825:828   */\n      0x0200\n        /* \"#utility.yul\":807:823   */\n      dup2\n      dup7\n      sub\n        /* \"#utility.yul\":803:829   */\n      slt\n        /* \"#utility.yul\":800:846   */\n      iszero\n      tag_40\n      jumpi\n        /* \"#utility.yul\":842:843   */\n      0x00\n        /* \"#utility.yul\":839:840   */\n      dup1\n        /* \"#utility.yul\":832:844   */\n      revert\n        /* \"#utility.yul\":800:846   */\n    tag_40:\n        /* \"#utility.yul\":865:867   */\n      dup1\n        /* \"#utility.yul\":855:867   */\n      swap2\n      pop\n      pop\n        /* \"#utility.yul\":196:873   */\n      swap3\n      pop\n      swap3\n      swap1\n      pop\n      jump\t// out\n\n    auxdata: 0xa2646970667358221220fc95ded34a5ba9088df79e5fd54ae3464d03da703e393e2748f2dd6e2eb9e12964736f6c63430008110033\n}\n",
				"bytecode": {
					"linkReferences": {},
					"object": "60a060405234801561001057600080fd5b5060405161025538038061025583398101604081905261002f91610037565b608052610050565b60006020828403121561004957600080fd5b5051919050565b6080516101e5610070600039600081816056015260bd01526101e56000f3fe608060405234801561001057600080fd5b506004361061004c5760003560e01c80630b4501fd146100515780632a75ffee1461008b5780639dd1cda6146100bb578063d310677d1461008b575b600080fd5b6100787f000000000000000000000000000000000000000000000000000000000000000081565b6040519081526020015b60405180910390f35b61009e61009936600461013b565b6100e1565b604080519315158452602084019290925290820152606001610082565b7f0000000000000000000000000000000000000000000000000000000000000000610078565b600080600084604001358460600135148015610104575084606001358460800135145b801561011557504284610120013511155b801561012657504284610140013510155b92505050608082013560a08301359250925092565b6000806040838503121561014e57600080fd5b823567ffffffffffffffff8082111561016657600080fd5b9084019060c0828703121561017a57600080fd5b9092506020840135908082111561019057600080fd5b50830161020081860312156101a457600080fd5b80915050925092905056fea2646970667358221220fc95ded34a5ba9088df79e5fd54ae3464d03da703e393e2748f2dd6e2eb9e12964736f6c63430008110033",
					"opcodes": "PUSH1 0xA0 PUSH1 0x40 MSTORE CALLVALUE DUP1 ISZERO PUSH2 0x10 JUMPI PUSH1 0x0 DUP1 REVERT JUMPDEST POP PUSH1 0x40 MLOAD PUSH2 0x255 CODESIZE SUB DUP1 PUSH2 0x255 DUP4 CODECOPY DUP2 ADD PUSH1 0x40 DUP2 SWAP1 MSTORE PUSH2 0x2F SWAP2 PUSH2 0x37 JUMP JUMPDEST PUSH1 0x80 MSTORE PUSH2 0x50 JUMP JUMPDEST PUSH1 0x0 PUSH1 0x20 DUP3 DUP5 SUB SLT ISZERO PUSH2 0x49 JUMPI PUSH1 0x0 DUP1 REVERT JUMPDEST POP MLOAD SWAP2 SWAP1 POP JUMP JUMPDEST PUSH1 0x80 MLOAD PUSH2 0x1E5 PUSH2 0x70 PUSH1 0x0 CODECOPY PUSH1 0x0 DUP2 DUP2 PUSH1 0x56 ADD MSTORE PUSH1 0xBD ADD MSTORE PUSH2 0x1E5 PUSH1 0x0 RETURN INVALID PUSH1 0x80 PUSH1 0x40 MSTORE CALLVALUE DUP1 ISZERO PUSH2 0x10 JUMPI PUSH1 0x0 DUP1 REVERT JUMPDEST POP PUSH1 0x4 CALLDATASIZE LT PUSH2 0x4C JUMPI PUSH1 0x0 CALLDATALOAD PUSH1 0xE0 SHR DUP1 PUSH4 0xB4501FD EQ PUSH2 0x51 JUMPI DUP1 PUSH4 0x2A75FFEE EQ PUSH2 0x8B JUMPI DUP1 PUSH4 0x9DD1CDA6 EQ PUSH2 0xBB JUMPI DUP1 PUSH4 0xD310677D EQ PUSH2 0x8B JUMPI JUMPDEST PUSH1 0x0 DUP1 REVERT JUMPDEST PUSH2 0x78 PUSH32 0x0 DUP2 JUMP JUMPDEST PUSH1 0x40 MLOAD SWAP1 DUP2 MSTORE PUSH1 0x20 ADD JUMPDEST PUSH1 0x40 MLOAD DUP1 SWAP2 SUB SWAP1 RETURN JUMPDEST PUSH2 0x9E PUSH2 0x99 CALLDATASIZE PUSH1 0x4 PUSH2 0x13B JUMP JUMPDEST PUSH2 0xE1 JUMP JUMPDEST PUSH1 0x40 DUP1 MLOAD SWAP4 ISZERO ISZERO DUP5 MSTORE PUSH1 0x20 DUP5 ADD SWAP3 SWAP1 SWAP3 MSTORE SWAP1 DUP3 ADD MSTORE PUSH1 0x60 ADD PUSH2 0x82 JUMP JUMPDEST PUSH32 0x0 PUSH2 0x78 JUMP JUMPDEST PUSH1 0x0 DUP1 PUSH1 0x0 DUP5 PUSH1 0x40 ADD CALLDATALOAD DUP5 PUSH1 0x60 ADD CALLDATALOAD EQ DUP1 ISZERO PUSH2 0x104 JUMPI POP DUP5 PUSH1 0x60 ADD CALLDATALOAD DUP5 PUSH1 0x80 ADD CALLDATALOAD EQ JUMPDEST DUP1 ISZERO PUSH2 0x115 JUMPI POP TIMESTAMP DUP5 PUSH2 0x120 ADD CALLDATALOAD GT ISZERO JUMPDEST DUP1 ISZERO PUSH2 0x126 JUMPI POP TIMESTAMP DUP5 PUSH2 0x140 ADD CALLDATALOAD LT ISZERO JUMPDEST SWAP3 POP POP POP PUSH1 0x80 DUP3 ADD CALLDATALOAD PUSH1 0xA0 DUP4 ADD CALLDATALOAD SWAP3 POP SWAP3 POP SWAP3 JUMP JUMPDEST PUSH1 0x0 DUP1 PUSH1 0x40 DUP4 DUP6 SUB SLT ISZERO PUSH2 0x14E JUMPI PUSH1 0x0 DUP1 REVERT JUMPDEST DUP3 CALLDATALOAD PUSH8 0xFFFFFFFFFFFFFFFF DUP1 DUP3 GT ISZERO PUSH2 0x166 JUMPI PUSH1 0x0 DUP1 REVERT JUMPDEST SWAP1 DUP5 ADD SWAP1 PUSH1 0xC0 DUP3 DUP8 SUB SLT ISZERO PUSH2 0x17A JUMPI PUSH1 0x0 DUP1 REVERT JUMPDEST SWAP1 SWAP3 POP PUSH1 0x20 DUP5 ADD CALLDATALOAD SWAP1 DUP1 DUP3 GT ISZERO PUSH2 0x190 JUMPI PUSH1 0x0 DUP1 REVERT JUMPDEST POP DUP4 ADD PUSH2 0x200 DUP2 DUP7 SUB SLT ISZERO PUSH2 0x1A4 JUMPI PUSH1 0x0 DUP1 REVERT JUMPDEST DUP1 SWAP2 POP POP SWAP3 POP SWAP3 SWAP1 POP JUMP INVALID LOG2 PUSH5 0x6970667358 0x22 SLT KECCAK256 0xFC SWAP6 0xDE 0xD3 0x4A JUMPDEST 0xA9 ADDMOD DUP14 0xF7 SWAP15 0x5F 0xD5 0x4A 0xE3 CHAINID 0x4D SUB 0xDA PUSH17 0x3E393E2748F2DD6E2EB9E12964736F6C63 NUMBER STOP ADDMOD GT STOP CALLER "
				},
				"gasEstimates": {
					"creation": {
						"codeDepositCost": "97000",
						"executionCost": "infinite",
						"totalCost": "infinite"
					},
					"external": {
						"PROTOCOL_FEE()": "infinite",
						"canExecuteBuy((bool,address,uint256,uint256,uint256,bytes),(bool,address,address,uint256,uint256,uint256,address,address,uint256,uint256,uint256,uint256,bytes,uint8,bytes32,bytes32))": "722",
						"canExecuteSell((bool,address,uint256,uint256,uint256,bytes),(bool,address,address,uint256,uint256,uint256,address,address,uint256,uint256,uint256,uint256,bytes,uint8,bytes32,bytes32))": "766",
						"viewProtocolFee()": "infinite"
					}
				},
				"methodIdentifiers": {
					"PROTOCOL_FEE()": "0b4501fd",
					"canExecuteBuy((bool,address,uint256,uint256,uint256,bytes),(bool,address,address,uint256,uint256,uint256,address,address,uint256,uint256,uint256,uint256,bytes,uint8,bytes32,bytes32))": "2a75ffee",
					"canExecuteSell((bool,address,uint256,uint256,uint256,bytes),(bool,address,address,uint256,uint256,uint256,address,address,uint256,uint256,uint256,uint256,bytes,uint8,bytes32,bytes32))": "d310677d",
					"viewProtocolFee()": "9dd1cda6"
				}
			},
			"storageLayout": {
				"storage": [],
				"types": null
			},
			"userdoc": {
				"kind": "user",
				"methods": {
					"constructor": {
						"notice": "Constructor"
					}
				},
				"notice": "Strategy that executes an order at a fixed price that can be taken either by a bid or an ask.",
				"version": 1
			}
		}
	}
}