{
	"contracts/Manager/execution/StrategyActivity.sol": {
		"StrategyFixedPrice": {
			"abi": [
				{
					"inputs": [
						{
							"internalType": "uint256",
							"name": "_protocolFee",
							"type": "uint256"
						}
					],
					"stateMutability": "nonpayable",
					"type": "constructor"
				},
				{
					"anonymous": false,
					"inputs": [
						{
							"indexed": true,
							"internalType": "address",
							"name": "previousOwner",
							"type": "address"
						},
						{
							"indexed": true,
							"internalType": "address",
							"name": "newOwner",
							"type": "address"
						}
					],
					"name": "OwnershipTransferred",
					"type": "event"
				},
				{
					"inputs": [],
					"name": "FREE_ADDRESS",
					"outputs": [
						{
							"internalType": "address",
							"name": "",
							"type": "address"
						}
					],
					"stateMutability": "view",
					"type": "function"
				},
				{
					"inputs": [],
					"name": "PROTOCOL_FEE",
					"outputs": [
						{
							"internalType": "uint256",
							"name": "",
							"type": "uint256"
						}
					],
					"stateMutability": "view",
					"type": "function"
				},
				{
					"inputs": [
						{
							"components": [
								{
									"internalType": "bool",
									"name": "isOrderAsk",
									"type": "bool"
								},
								{
									"internalType": "address",
									"name": "taker",
									"type": "address"
								},
								{
									"internalType": "uint256",
									"name": "price",
									"type": "uint256"
								},
								{
									"internalType": "uint256",
									"name": "tokenId",
									"type": "uint256"
								},
								{
									"internalType": "uint256",
									"name": "minPercentageToAsk",
									"type": "uint256"
								},
								{
									"internalType": "bytes",
									"name": "params",
									"type": "bytes"
								}
							],
							"internalType": "struct OrderTypes.TakerOrder",
							"name": "takerAsk",
							"type": "tuple"
						},
						{
							"components": [
								{
									"internalType": "bool",
									"name": "isOrderAsk",
									"type": "bool"
								},
								{
									"internalType": "address",
									"name": "signer",
									"type": "address"
								},
								{
									"internalType": "address",
									"name": "collection",
									"type": "address"
								},
								{
									"internalType": "uint256",
									"name": "price",
									"type": "uint256"
								},
								{
									"internalType": "uint256",
									"name": "tokenId",
									"type": "uint256"
								},
								{
									"internalType": "uint256",
									"name": "amount",
									"type": "uint256"
								},
								{
									"internalType": "address",
									"name": "strategy",
									"type": "address"
								},
								{
									"internalType": "address",
									"name": "currency",
									"type": "address"
								},
								{
									"internalType": "uint256",
									"name": "nonce",
									"type": "uint256"
								},
								{
									"internalType": "uint256",
									"name": "startTime",
									"type": "uint256"
								},
								{
									"internalType": "uint256",
									"name": "endTime",
									"type": "uint256"
								},
								{
									"internalType": "uint256",
									"name": "minPercentageToAsk",
									"type": "uint256"
								},
								{
									"internalType": "bytes",
									"name": "params",
									"type": "bytes"
								},
								{
									"internalType": "uint8",
									"name": "v",
									"type": "uint8"
								},
								{
									"internalType": "bytes32",
									"name": "r",
									"type": "bytes32"
								},
								{
									"internalType": "bytes32",
									"name": "s",
									"type": "bytes32"
								}
							],
							"internalType": "struct OrderTypes.MakerOrder",
							"name": "makerBid",
							"type": "tuple"
						}
					],
					"name": "canExecuteBuy",
					"outputs": [
						{
							"internalType": "bool",
							"name": "",
							"type": "bool"
						},
						{
							"internalType": "uint256",
							"name": "",
							"type": "uint256"
						},
						{
							"internalType": "uint256",
							"name": "",
							"type": "uint256"
						}
					],
					"stateMutability": "view",
					"type": "function"
				},
				{
					"inputs": [
						{
							"components": [
								{
									"internalType": "bool",
									"name": "isOrderAsk",
									"type": "bool"
								},
								{
									"internalType": "address",
									"name": "taker",
									"type": "address"
								},
								{
									"internalType": "uint256",
									"name": "price",
									"type": "uint256"
								},
								{
									"internalType": "uint256",
									"name": "tokenId",
									"type": "uint256"
								},
								{
									"internalType": "uint256",
									"name": "minPercentageToAsk",
									"type": "uint256"
								},
								{
									"internalType": "bytes",
									"name": "params",
									"type": "bytes"
								}
							],
							"internalType": "struct OrderTypes.TakerOrder",
							"name": "takerBid",
							"type": "tuple"
						},
						{
							"components": [
								{
									"internalType": "bool",
									"name": "isOrderAsk",
									"type": "bool"
								},
								{
									"internalType": "address",
									"name": "signer",
									"type": "address"
								},
								{
									"internalType": "address",
									"name": "collection",
									"type": "address"
								},
								{
									"internalType": "uint256",
									"name": "price",
									"type": "uint256"
								},
								{
									"internalType": "uint256",
									"name": "tokenId",
									"type": "uint256"
								},
								{
									"internalType": "uint256",
									"name": "amount",
									"type": "uint256"
								},
								{
									"internalType": "address",
									"name": "strategy",
									"type": "address"
								},
								{
									"internalType": "address",
									"name": "currency",
									"type": "address"
								},
								{
									"internalType": "uint256",
									"name": "nonce",
									"type": "uint256"
								},
								{
									"internalType": "uint256",
									"name": "startTime",
									"type": "uint256"
								},
								{
									"internalType": "uint256",
									"name": "endTime",
									"type": "uint256"
								},
								{
									"internalType": "uint256",
									"name": "minPercentageToAsk",
									"type": "uint256"
								},
								{
									"internalType": "bytes",
									"name": "params",
									"type": "bytes"
								},
								{
									"internalType": "uint8",
									"name": "v",
									"type": "uint8"
								},
								{
									"internalType": "bytes32",
									"name": "r",
									"type": "bytes32"
								},
								{
									"internalType": "bytes32",
									"name": "s",
									"type": "bytes32"
								}
							],
							"internalType": "struct OrderTypes.MakerOrder",
							"name": "makerAsk",
							"type": "tuple"
						}
					],
					"name": "canExecuteSell",
					"outputs": [
						{
							"internalType": "bool",
							"name": "",
							"type": "bool"
						},
						{
							"internalType": "uint256",
							"name": "",
							"type": "uint256"
						},
						{
							"internalType": "uint256",
							"name": "",
							"type": "uint256"
						}
					],
					"stateMutability": "view",
					"type": "function"
				},
				{
					"inputs": [],
					"name": "owner",
					"outputs": [
						{
							"internalType": "address",
							"name": "",
							"type": "address"
						}
					],
					"stateMutability": "view",
					"type": "function"
				},
				{
					"inputs": [],
					"name": "renounceOwnership",
					"outputs": [],
					"stateMutability": "nonpayable",
					"type": "function"
				},
				{
					"inputs": [
						{
							"internalType": "address",
							"name": "_freeAddress",
							"type": "address"
						}
					],
					"name": "setFreeAddress",
					"outputs": [],
					"stateMutability": "nonpayable",
					"type": "function"
				},
				{
					"inputs": [
						{
							"internalType": "address",
							"name": "newOwner",
							"type": "address"
						}
					],
					"name": "transferOwnership",
					"outputs": [],
					"stateMutability": "nonpayable",
					"type": "function"
				},
				{
					"inputs": [],
					"name": "viewProtocolFee",
					"outputs": [
						{
							"internalType": "uint256",
							"name": "",
							"type": "uint256"
						}
					],
					"stateMutability": "view",
					"type": "function"
				}
			],
			"devdoc": {
				"kind": "dev",
				"methods": {
					"constructor": {
						"params": {
							"_protocolFee": "protocol fee (200 --> 2%, 400 --> 4%)"
						}
					},
					"owner()": {
						"details": "Returns the address of the current owner."
					},
					"renounceOwnership()": {
						"details": "Leaves the contract without owner. It will not be possible to call `onlyOwner` functions anymore. Can only be called by the current owner. NOTE: Renouncing ownership will leave the contract without an owner, thereby removing any functionality that is only available to the owner."
					},
					"transferOwnership(address)": {
						"details": "Transfers ownership of the contract to a new account (`newOwner`). Can only be called by the current owner."
					}
				},
				"title": "StrategyStandardSaleForFixedPrice",
				"version": 1
			},
			"evm": {
				"assembly": "    /* \"contracts/Manager/execution/StrategyActivity.sol\":412:2836  contract StrategyFixedPrice is TheExStrategy ,Ownable{... */\n  mstore(0x40, 0xa0)\n    /* \"contracts/Manager/execution/StrategyActivity.sol\":656:734  constructor(uint256 _protocolFee) {... */\n  callvalue\n  dup1\n  iszero\n  tag_1\n  jumpi\n  0x00\n  dup1\n  revert\ntag_1:\n  pop\n  mload(0x40)\n  sub(codesize, bytecodeSize)\n  dup1\n  bytecodeSize\n  dup4\n  codecopy\n  dup2\n  add\n  0x40\n  dup2\n  swap1\n  mstore\n  tag_2\n  swap2\n  tag_3\n  jump\t// in\ntag_2:\n    /* \"@openzeppelin/contracts/access/Ownable.sol\":936:968  _transferOwnership(_msgSender()) */\n  tag_7\n    /* \"@openzeppelin/contracts/utils/Context.sol\":719:729  msg.sender */\n  caller\n    /* \"@openzeppelin/contracts/access/Ownable.sol\":936:954  _transferOwnership */\n  tag_10\n    /* \"@openzeppelin/contracts/access/Ownable.sol\":936:968  _transferOwnership(_msgSender()) */\n  jump\t// in\ntag_7:\n    /* \"contracts/Manager/execution/StrategyActivity.sol\":700:727  PROTOCOL_FEE = _protocolFee */\n  0x80\n  mstore\n    /* \"contracts/Manager/execution/StrategyActivity.sol\":412:2836  contract StrategyFixedPrice is TheExStrategy ,Ownable{... */\n  jump(tag_15)\n    /* \"@openzeppelin/contracts/access/Ownable.sol\":2433:2620  function _transferOwnership(address newOwner) internal virtual {... */\ntag_10:\n    /* \"@openzeppelin/contracts/access/Ownable.sol\":2506:2522  address oldOwner */\n  0x00\n    /* \"@openzeppelin/contracts/access/Ownable.sol\":2525:2531  _owner */\n  dup1\n  sload\n  sub(shl(0xa0, 0x01), 0x01)\n    /* \"@openzeppelin/contracts/access/Ownable.sol\":2541:2558  _owner = newOwner */\n  dup4\n  dup2\n  and\n  not(sub(shl(0xa0, 0x01), 0x01))\n  dup4\n  and\n  dup2\n  or\n  dup5\n  sstore\n    /* \"@openzeppelin/contracts/access/Ownable.sol\":2573:2613  OwnershipTransferred(oldOwner, newOwner) */\n  mload(0x40)\n    /* \"@openzeppelin/contracts/access/Ownable.sol\":2525:2531  _owner */\n  swap2\n  swap1\n  swap3\n  and\n  swap3\n  dup4\n  swap2\n    /* \"@openzeppelin/contracts/access/Ownable.sol\":2573:2613  OwnershipTransferred(oldOwner, newOwner) */\n  0x8be0079c531659141344cd1fd0a4f28419497f9722a3daafe3b4186f6b6457e0\n  swap2\n    /* \"@openzeppelin/contracts/access/Ownable.sol\":2506:2522  address oldOwner */\n  swap1\n    /* \"@openzeppelin/contracts/access/Ownable.sol\":2573:2613  OwnershipTransferred(oldOwner, newOwner) */\n  log3\n    /* \"@openzeppelin/contracts/access/Ownable.sol\":2496:2620  {... */\n  pop\n    /* \"@openzeppelin/contracts/access/Ownable.sol\":2433:2620  function _transferOwnership(address newOwner) internal virtual {... */\n  pop\n  jump\t// out\n    /* \"#utility.yul\":14:198   */\ntag_3:\n    /* \"#utility.yul\":84:90   */\n  0x00\n    /* \"#utility.yul\":137:139   */\n  0x20\n    /* \"#utility.yul\":125:134   */\n  dup3\n    /* \"#utility.yul\":116:123   */\n  dup5\n    /* \"#utility.yul\":112:135   */\n  sub\n    /* \"#utility.yul\":108:140   */\n  slt\n    /* \"#utility.yul\":105:157   */\n  iszero\n  tag_17\n  jumpi\n    /* \"#utility.yul\":153:154   */\n  0x00\n    /* \"#utility.yul\":150:151   */\n  dup1\n    /* \"#utility.yul\":143:155   */\n  revert\n    /* \"#utility.yul\":105:157   */\ntag_17:\n  pop\n    /* \"#utility.yul\":176:192   */\n  mload\n  swap2\n    /* \"#utility.yul\":14:198   */\n  swap1\n  pop\n  jump\t// out\ntag_15:\n    /* \"contracts/Manager/execution/StrategyActivity.sol\":412:2836  contract StrategyFixedPrice is TheExStrategy ,Ownable{... */\n  mload(0x80)\n  codecopy(0x00, dataOffset(sub_0), dataSize(sub_0))\n  0x00\n  assignImmutable(\"0xb004fbd84afb38927636fa378c0a62a86a02b00862b6ff80fef4d6e948c0571d\")\n  return(0x00, dataSize(sub_0))\nstop\n\nsub_0: assembly {\n        /* \"contracts/Manager/execution/StrategyActivity.sol\":412:2836  contract StrategyFixedPrice is TheExStrategy ,Ownable{... */\n      mstore(0x40, 0x80)\n      callvalue\n      dup1\n      iszero\n      tag_1\n      jumpi\n      0x00\n      dup1\n      revert\n    tag_1:\n      pop\n      jumpi(tag_2, lt(calldatasize, 0x04))\n      shr(0xe0, calldataload(0x00))\n      dup1\n      0x8da5cb5b\n      gt\n      tag_12\n      jumpi\n      dup1\n      0x8da5cb5b\n      eq\n      tag_7\n      jumpi\n      dup1\n      0x9dd1cda6\n      eq\n      tag_8\n      jumpi\n      dup1\n      0xb2d234fb\n      eq\n      tag_9\n      jumpi\n      dup1\n      0xd310677d\n      eq\n      tag_10\n      jumpi\n      dup1\n      0xf2fde38b\n      eq\n      tag_11\n      jumpi\n      0x00\n      dup1\n      revert\n    tag_12:\n      dup1\n      0x05362ef4\n      eq\n      tag_3\n      jumpi\n      dup1\n      0x0b4501fd\n      eq\n      tag_4\n      jumpi\n      dup1\n      0x2a75ffee\n      eq\n      tag_5\n      jumpi\n      dup1\n      0x715018a6\n      eq\n      tag_6\n      jumpi\n    tag_2:\n      0x00\n      dup1\n      revert\n        /* \"contracts/Manager/execution/StrategyActivity.sol\":514:541  address public FREE_ADDRESS */\n    tag_3:\n      sload(0x01)\n      tag_13\n      swap1\n      sub(shl(0xa0, 0x01), 0x01)\n      and\n      dup2\n      jump\n    tag_13:\n      mload(0x40)\n      sub(shl(0xa0, 0x01), 0x01)\n        /* \"#utility.yul\":178:210   */\n      swap1\n      swap2\n      and\n        /* \"#utility.yul\":160:211   */\n      dup2\n      mstore\n        /* \"#utility.yul\":148:150   */\n      0x20\n        /* \"#utility.yul\":133:151   */\n      add\n        /* \"contracts/Manager/execution/StrategyActivity.sol\":514:541  address public FREE_ADDRESS */\n    tag_15:\n      mload(0x40)\n      dup1\n      swap2\n      sub\n      swap1\n      return\n        /* \"contracts/Manager/execution/StrategyActivity.sol\":471:508  uint256 public immutable PROTOCOL_FEE */\n    tag_4:\n      tag_17\n      immutable(\"0xb004fbd84afb38927636fa378c0a62a86a02b00862b6ff80fef4d6e948c0571d\")\n      dup2\n      jump\n    tag_17:\n      mload(0x40)\n        /* \"#utility.yul\":368:393   */\n      swap1\n      dup2\n      mstore\n        /* \"#utility.yul\":356:358   */\n      0x20\n        /* \"#utility.yul\":341:359   */\n      add\n        /* \"contracts/Manager/execution/StrategyActivity.sol\":471:508  uint256 public immutable PROTOCOL_FEE */\n      tag_15\n        /* \"#utility.yul\":222:399   */\n      jump\n        /* \"contracts/Manager/execution/StrategyActivity.sol\":930:1643  function canExecuteBuy(OrderTypes.TakerOrder calldata takerAsk, OrderTypes.MakerOrder calldata makerBid)... */\n    tag_5:\n      tag_21\n      tag_22\n      calldatasize\n      0x04\n      tag_23\n      jump\t// in\n    tag_22:\n      tag_24\n      jump\t// in\n    tag_21:\n      0x40\n      dup1\n      mload\n        /* \"#utility.yul\":1307:1321   */\n      swap4\n      iszero\n        /* \"#utility.yul\":1300:1322   */\n      iszero\n        /* \"#utility.yul\":1282:1323   */\n      dup5\n      mstore\n        /* \"#utility.yul\":1354:1356   */\n      0x20\n        /* \"#utility.yul\":1339:1357   */\n      dup5\n      add\n        /* \"#utility.yul\":1332:1366   */\n      swap3\n      swap1\n      swap3\n      mstore\n        /* \"#utility.yul\":1382:1400   */\n      swap1\n      dup3\n      add\n        /* \"#utility.yul\":1375:1409   */\n      mstore\n        /* \"#utility.yul\":1270:1272   */\n      0x60\n        /* \"#utility.yul\":1255:1273   */\n      add\n        /* \"contracts/Manager/execution/StrategyActivity.sol\":930:1643  function canExecuteBuy(OrderTypes.TakerOrder calldata takerAsk, OrderTypes.MakerOrder calldata makerBid)... */\n      tag_15\n        /* \"#utility.yul\":1086:1415   */\n      jump\n        /* \"@openzeppelin/contracts/access/Ownable.sol\":1831:1932  function renounceOwnership() public virtual onlyOwner {... */\n    tag_6:\n      tag_27\n      tag_28\n      jump\t// in\n    tag_27:\n      stop\n        /* \"@openzeppelin/contracts/access/Ownable.sol\":1201:1286  function owner() public view virtual returns (address) {... */\n    tag_7:\n        /* \"@openzeppelin/contracts/access/Ownable.sol\":1247:1254  address */\n      0x00\n        /* \"@openzeppelin/contracts/access/Ownable.sol\":1273:1279  _owner */\n      sload\n      sub(shl(0xa0, 0x01), 0x01)\n      and\n        /* \"@openzeppelin/contracts/access/Ownable.sol\":1201:1286  function owner() public view virtual returns (address) {... */\n      jump(tag_13)\n        /* \"contracts/Manager/execution/StrategyActivity.sol\":2730:2834  function viewProtocolFee() external view override returns (uint256) {... */\n    tag_8:\n        /* \"contracts/Manager/execution/StrategyActivity.sol\":2815:2827  PROTOCOL_FEE */\n      immutable(\"0xb004fbd84afb38927636fa378c0a62a86a02b00862b6ff80fef4d6e948c0571d\")\n        /* \"contracts/Manager/execution/StrategyActivity.sol\":2730:2834  function viewProtocolFee() external view override returns (uint256) {... */\n      jump(tag_17)\n        /* \"contracts/Manager/execution/StrategyActivity.sol\":2491:2599  function setFreeAddress(address _freeAddress)external onlyOwner{... */\n    tag_9:\n      tag_27\n      tag_36\n      calldatasize\n      0x04\n      tag_37\n      jump\t// in\n    tag_36:\n      tag_38\n      jump\t// in\n        /* \"contracts/Manager/execution/StrategyActivity.sol\":1830:2486  function canExecuteSell(OrderTypes.TakerOrder calldata takerBid, OrderTypes.MakerOrder calldata makerAsk)... */\n    tag_10:\n      tag_21\n      tag_40\n      calldatasize\n      0x04\n      tag_23\n      jump\t// in\n    tag_40:\n      tag_41\n      jump\t// in\n        /* \"@openzeppelin/contracts/access/Ownable.sol\":2081:2279  function transferOwnership(address newOwner) public virtual onlyOwner {... */\n    tag_11:\n      tag_27\n      tag_44\n      calldatasize\n      0x04\n      tag_37\n      jump\t// in\n    tag_44:\n      tag_45\n      jump\t// in\n        /* \"contracts/Manager/execution/StrategyActivity.sol\":930:1643  function canExecuteBuy(OrderTypes.TakerOrder calldata takerAsk, OrderTypes.MakerOrder calldata makerBid)... */\n    tag_24:\n        /* \"contracts/Manager/execution/StrategyActivity.sol\":1112:1116  bool */\n      0x00\n        /* \"contracts/Manager/execution/StrategyActivity.sol\":1130:1137  uint256 */\n      dup1\n        /* \"contracts/Manager/execution/StrategyActivity.sol\":1151:1158  uint256 */\n      0x00\n        /* \"contracts/Manager/execution/StrategyActivity.sol\":1323:1331  takerAsk */\n      dup5\n        /* \"contracts/Manager/execution/StrategyActivity.sol\":1323:1337  takerAsk.price */\n      0x40\n      add\n      calldataload\n        /* \"contracts/Manager/execution/StrategyActivity.sol\":1305:1313  makerBid */\n      dup5\n        /* \"contracts/Manager/execution/StrategyActivity.sol\":1305:1319  makerBid.price */\n      0x60\n      add\n      calldataload\n        /* \"contracts/Manager/execution/StrategyActivity.sol\":1305:1337  makerBid.price == takerAsk.price */\n      eq\n        /* \"contracts/Manager/execution/StrategyActivity.sol\":1304:1396  (makerBid.price == takerAsk.price) &&... */\n      dup1\n      iszero\n      tag_47\n      jumpi\n      pop\n        /* \"contracts/Manager/execution/StrategyActivity.sol\":1379:1387  takerAsk */\n      dup5\n        /* \"contracts/Manager/execution/StrategyActivity.sol\":1379:1395  takerAsk.tokenId */\n      0x60\n      add\n      calldataload\n        /* \"contracts/Manager/execution/StrategyActivity.sol\":1359:1367  makerBid */\n      dup5\n        /* \"contracts/Manager/execution/StrategyActivity.sol\":1359:1375  makerBid.tokenId */\n      0x80\n      add\n      calldataload\n        /* \"contracts/Manager/execution/StrategyActivity.sol\":1359:1395  makerBid.tokenId == takerAsk.tokenId */\n      eq\n        /* \"contracts/Manager/execution/StrategyActivity.sol\":1304:1396  (makerBid.price == takerAsk.price) &&... */\n    tag_47:\n        /* \"contracts/Manager/execution/StrategyActivity.sol\":1304:1455  (makerBid.price == takerAsk.price) &&... */\n      dup1\n      iszero\n      tag_48\n      jumpi\n      pop\n        /* \"contracts/Manager/execution/StrategyActivity.sol\":1439:1454  block.timestamp */\n      timestamp\n        /* \"contracts/Manager/execution/StrategyActivity.sol\":1417:1425  makerBid */\n      dup5\n        /* \"contracts/Manager/execution/StrategyActivity.sol\":1417:1435  makerBid.startTime */\n      0x0120\n      add\n      calldataload\n        /* \"contracts/Manager/execution/StrategyActivity.sol\":1417:1454  makerBid.startTime <= block.timestamp */\n      gt\n      iszero\n        /* \"contracts/Manager/execution/StrategyActivity.sol\":1304:1455  (makerBid.price == takerAsk.price) &&... */\n    tag_48:\n        /* \"contracts/Manager/execution/StrategyActivity.sol\":1304:1512  (makerBid.price == takerAsk.price) &&... */\n      dup1\n      iszero\n      tag_49\n      jumpi\n      pop\n        /* \"contracts/Manager/execution/StrategyActivity.sol\":1496:1511  block.timestamp */\n      timestamp\n        /* \"contracts/Manager/execution/StrategyActivity.sol\":1476:1484  makerBid */\n      dup5\n        /* \"contracts/Manager/execution/StrategyActivity.sol\":1476:1492  makerBid.endTime */\n      0x0140\n      add\n      calldataload\n        /* \"contracts/Manager/execution/StrategyActivity.sol\":1476:1511  makerBid.endTime >= block.timestamp */\n      lt\n      iszero\n        /* \"contracts/Manager/execution/StrategyActivity.sol\":1304:1512  (makerBid.price == takerAsk.price) &&... */\n    tag_49:\n        /* \"contracts/Manager/execution/StrategyActivity.sol\":1304:1566  (makerBid.price == takerAsk.price) &&... */\n      dup1\n      iszero\n      tag_50\n      jumpi\n      pop\n        /* \"contracts/Manager/execution/StrategyActivity.sol\":1554:1566  FREE_ADDRESS */\n      and(sub(shl(0xa0, 0x01), 0x01), sload(0x01))\n        /* \"contracts/Manager/execution/StrategyActivity.sol\":1531:1550  makerBid.collection */\n      tag_51\n      0x60\n      dup7\n      add\n      0x40\n      dup8\n      add\n      tag_37\n      jump\t// in\n    tag_51:\n      sub(shl(0xa0, 0x01), 0x01)\n        /* \"contracts/Manager/execution/StrategyActivity.sol\":1531:1566  makerBid.collection == FREE_ADDRESS */\n      and\n      eq\n        /* \"contracts/Manager/execution/StrategyActivity.sol\":1304:1566  (makerBid.price == takerAsk.price) &&... */\n    tag_50:\n        /* \"contracts/Manager/execution/StrategyActivity.sol\":1295:1636  return (((makerBid.price == takerAsk.price) &&... */\n      swap3\n      pop\n      pop\n      pop\n        /* \"contracts/Manager/execution/StrategyActivity.sol\":1581:1597  makerBid.tokenId */\n      0x80\n      dup3\n      add\n      calldataload\n        /* \"contracts/Manager/execution/StrategyActivity.sol\":1611:1626  makerBid.amount */\n      0xa0\n      dup4\n      add\n      calldataload\n        /* \"contracts/Manager/execution/StrategyActivity.sol\":930:1643  function canExecuteBuy(OrderTypes.TakerOrder calldata takerAsk, OrderTypes.MakerOrder calldata makerBid)... */\n      swap3\n      pop\n      swap3\n      pop\n      swap3\n      jump\t// out\n        /* \"@openzeppelin/contracts/access/Ownable.sol\":1831:1932  function renounceOwnership() public virtual onlyOwner {... */\n    tag_28:\n        /* \"@openzeppelin/contracts/access/Ownable.sol\":1094:1107  _checkOwner() */\n      tag_53\n        /* \"@openzeppelin/contracts/access/Ownable.sol\":1094:1105  _checkOwner */\n      tag_54\n        /* \"@openzeppelin/contracts/access/Ownable.sol\":1094:1107  _checkOwner() */\n      jump\t// in\n    tag_53:\n        /* \"@openzeppelin/contracts/access/Ownable.sol\":1895:1925  _transferOwnership(address(0)) */\n      tag_56\n        /* \"@openzeppelin/contracts/access/Ownable.sol\":1922:1923  0 */\n      0x00\n        /* \"@openzeppelin/contracts/access/Ownable.sol\":1895:1913  _transferOwnership */\n      tag_57\n        /* \"@openzeppelin/contracts/access/Ownable.sol\":1895:1925  _transferOwnership(address(0)) */\n      jump\t// in\n    tag_56:\n        /* \"@openzeppelin/contracts/access/Ownable.sol\":1831:1932  function renounceOwnership() public virtual onlyOwner {... */\n      jump\t// out\n        /* \"contracts/Manager/execution/StrategyActivity.sol\":2491:2599  function setFreeAddress(address _freeAddress)external onlyOwner{... */\n    tag_38:\n        /* \"@openzeppelin/contracts/access/Ownable.sol\":1094:1107  _checkOwner() */\n      tag_61\n        /* \"@openzeppelin/contracts/access/Ownable.sol\":1094:1105  _checkOwner */\n      tag_54\n        /* \"@openzeppelin/contracts/access/Ownable.sol\":1094:1107  _checkOwner() */\n      jump\t// in\n    tag_61:\n        /* \"contracts/Manager/execution/StrategyActivity.sol\":2564:2576  FREE_ADDRESS */\n      0x01\n        /* \"contracts/Manager/execution/StrategyActivity.sol\":2564:2591  FREE_ADDRESS = _freeAddress */\n      dup1\n      sload\n      not(sub(shl(0xa0, 0x01), 0x01))\n      and\n      sub(shl(0xa0, 0x01), 0x01)\n      swap3\n      swap1\n      swap3\n      and\n      swap2\n      swap1\n      swap2\n      or\n      swap1\n      sstore\n        /* \"contracts/Manager/execution/StrategyActivity.sol\":2491:2599  function setFreeAddress(address _freeAddress)external onlyOwner{... */\n      jump\t// out\n        /* \"contracts/Manager/execution/StrategyActivity.sol\":1830:2486  function canExecuteSell(OrderTypes.TakerOrder calldata takerBid, OrderTypes.MakerOrder calldata makerAsk)... */\n    tag_41:\n        /* \"contracts/Manager/execution/StrategyActivity.sol\":2013:2017  bool */\n      0x00\n        /* \"contracts/Manager/execution/StrategyActivity.sol\":2031:2038  uint256 */\n      dup1\n        /* \"contracts/Manager/execution/StrategyActivity.sol\":2052:2059  uint256 */\n      0x00\n        /* \"contracts/Manager/execution/StrategyActivity.sol\":2220:2228  takerBid */\n      dup5\n        /* \"contracts/Manager/execution/StrategyActivity.sol\":2220:2234  takerBid.price */\n      0x40\n      add\n      calldataload\n        /* \"contracts/Manager/execution/StrategyActivity.sol\":2202:2210  makerAsk */\n      dup5\n        /* \"contracts/Manager/execution/StrategyActivity.sol\":2202:2216  makerAsk.price */\n      0x60\n      add\n      calldataload\n        /* \"contracts/Manager/execution/StrategyActivity.sol\":2202:2234  makerAsk.price == takerBid.price */\n      eq\n        /* \"contracts/Manager/execution/StrategyActivity.sol\":2201:2293  (makerAsk.price == takerBid.price) &&... */\n      dup1\n      iszero\n      tag_64\n      jumpi\n      pop\n        /* \"contracts/Manager/execution/StrategyActivity.sol\":2276:2284  takerBid */\n      dup5\n        /* \"contracts/Manager/execution/StrategyActivity.sol\":2276:2292  takerBid.tokenId */\n      0x60\n      add\n      calldataload\n        /* \"contracts/Manager/execution/StrategyActivity.sol\":2256:2264  makerAsk */\n      dup5\n        /* \"contracts/Manager/execution/StrategyActivity.sol\":2256:2272  makerAsk.tokenId */\n      0x80\n      add\n      calldataload\n        /* \"contracts/Manager/execution/StrategyActivity.sol\":2256:2292  makerAsk.tokenId == takerBid.tokenId */\n      eq\n        /* \"contracts/Manager/execution/StrategyActivity.sol\":2201:2293  (makerAsk.price == takerBid.price) &&... */\n    tag_64:\n        /* \"contracts/Manager/execution/StrategyActivity.sol\":2201:2352  (makerAsk.price == takerBid.price) &&... */\n      dup1\n      iszero\n      tag_65\n      jumpi\n      pop\n        /* \"contracts/Manager/execution/StrategyActivity.sol\":2336:2351  block.timestamp */\n      timestamp\n        /* \"contracts/Manager/execution/StrategyActivity.sol\":2314:2322  makerAsk */\n      dup5\n        /* \"contracts/Manager/execution/StrategyActivity.sol\":2314:2332  makerAsk.startTime */\n      0x0120\n      add\n      calldataload\n        /* \"contracts/Manager/execution/StrategyActivity.sol\":2314:2351  makerAsk.startTime <= block.timestamp */\n      gt\n      iszero\n        /* \"contracts/Manager/execution/StrategyActivity.sol\":2201:2352  (makerAsk.price == takerBid.price) &&... */\n    tag_65:\n        /* \"contracts/Manager/execution/StrategyActivity.sol\":2201:2409  (makerAsk.price == takerBid.price) &&... */\n      dup1\n      iszero\n      tag_50\n      jumpi\n      pop\n        /* \"contracts/Manager/execution/StrategyActivity.sol\":2393:2408  block.timestamp */\n      timestamp\n        /* \"contracts/Manager/execution/StrategyActivity.sol\":2373:2381  makerAsk */\n      dup5\n        /* \"contracts/Manager/execution/StrategyActivity.sol\":2373:2389  makerAsk.endTime */\n      0x0140\n      add\n      calldataload\n        /* \"contracts/Manager/execution/StrategyActivity.sol\":2373:2408  makerAsk.endTime >= block.timestamp */\n      lt\n      iszero\n        /* \"contracts/Manager/execution/StrategyActivity.sol\":2179:2479  return (... */\n      swap3\n      pop\n      pop\n      pop\n        /* \"contracts/Manager/execution/StrategyActivity.sol\":2424:2440  makerAsk.tokenId */\n      0x80\n      dup3\n      add\n      calldataload\n        /* \"contracts/Manager/execution/StrategyActivity.sol\":2454:2469  makerAsk.amount */\n      0xa0\n      dup4\n      add\n      calldataload\n        /* \"contracts/Manager/execution/StrategyActivity.sol\":1830:2486  function canExecuteSell(OrderTypes.TakerOrder calldata takerBid, OrderTypes.MakerOrder calldata makerAsk)... */\n      swap3\n      pop\n      swap3\n      pop\n      swap3\n      jump\t// out\n        /* \"@openzeppelin/contracts/access/Ownable.sol\":2081:2279  function transferOwnership(address newOwner) public virtual onlyOwner {... */\n    tag_45:\n        /* \"@openzeppelin/contracts/access/Ownable.sol\":1094:1107  _checkOwner() */\n      tag_68\n        /* \"@openzeppelin/contracts/access/Ownable.sol\":1094:1105  _checkOwner */\n      tag_54\n        /* \"@openzeppelin/contracts/access/Ownable.sol\":1094:1107  _checkOwner() */\n      jump\t// in\n    tag_68:\n      sub(shl(0xa0, 0x01), 0x01)\n        /* \"@openzeppelin/contracts/access/Ownable.sol\":2169:2191  newOwner != address(0) */\n      dup2\n      and\n        /* \"@openzeppelin/contracts/access/Ownable.sol\":2161:2234  require(newOwner != address(0), \"Ownable: new owner is the zero address\") */\n      tag_70\n      jumpi\n      mload(0x40)\n      shl(0xe5, 0x461bcd)\n      dup2\n      mstore\n        /* \"#utility.yul\":1913:1915   */\n      0x20\n        /* \"@openzeppelin/contracts/access/Ownable.sol\":2161:2234  require(newOwner != address(0), \"Ownable: new owner is the zero address\") */\n      0x04\n      dup3\n      add\n        /* \"#utility.yul\":1895:1916   */\n      mstore\n        /* \"#utility.yul\":1952:1954   */\n      0x26\n        /* \"#utility.yul\":1932:1950   */\n      0x24\n      dup3\n      add\n        /* \"#utility.yul\":1925:1955   */\n      mstore\n        /* \"#utility.yul\":1991:2025   */\n      0x4f776e61626c653a206e6577206f776e657220697320746865207a65726f2061\n        /* \"#utility.yul\":1971:1989   */\n      0x44\n      dup3\n      add\n        /* \"#utility.yul\":1964:2026   */\n      mstore\n      shl(0xd0, 0x646472657373)\n        /* \"#utility.yul\":2042:2060   */\n      0x64\n      dup3\n      add\n        /* \"#utility.yul\":2035:2071   */\n      mstore\n        /* \"#utility.yul\":2088:2107   */\n      0x84\n      add\n        /* \"@openzeppelin/contracts/access/Ownable.sol\":2161:2234  require(newOwner != address(0), \"Ownable: new owner is the zero address\") */\n    tag_71:\n      mload(0x40)\n      dup1\n      swap2\n      sub\n      swap1\n      revert\n    tag_70:\n        /* \"@openzeppelin/contracts/access/Ownable.sol\":2244:2272  _transferOwnership(newOwner) */\n      tag_73\n        /* \"@openzeppelin/contracts/access/Ownable.sol\":2263:2271  newOwner */\n      dup2\n        /* \"@openzeppelin/contracts/access/Ownable.sol\":2244:2262  _transferOwnership */\n      tag_57\n        /* \"@openzeppelin/contracts/access/Ownable.sol\":2244:2272  _transferOwnership(newOwner) */\n      jump\t// in\n    tag_73:\n        /* \"@openzeppelin/contracts/access/Ownable.sol\":2081:2279  function transferOwnership(address newOwner) public virtual onlyOwner {... */\n      pop\n      jump\t// out\n        /* \"@openzeppelin/contracts/access/Ownable.sol\":1359:1489  function _checkOwner() internal view virtual {... */\n    tag_54:\n        /* \"@openzeppelin/contracts/access/Ownable.sol\":1247:1254  address */\n      0x00\n        /* \"@openzeppelin/contracts/access/Ownable.sol\":1273:1279  _owner */\n      sload\n      sub(shl(0xa0, 0x01), 0x01)\n      and\n        /* \"@openzeppelin/contracts/utils/Context.sol\":719:729  msg.sender */\n      caller\n        /* \"@openzeppelin/contracts/access/Ownable.sol\":1422:1445  owner() == _msgSender() */\n      eq\n        /* \"@openzeppelin/contracts/access/Ownable.sol\":1414:1482  require(owner() == _msgSender(), \"Ownable: caller is not the owner\") */\n      tag_56\n      jumpi\n      mload(0x40)\n      shl(0xe5, 0x461bcd)\n      dup2\n      mstore\n        /* \"#utility.yul\":2320:2322   */\n      0x20\n        /* \"@openzeppelin/contracts/access/Ownable.sol\":1414:1482  require(owner() == _msgSender(), \"Ownable: caller is not the owner\") */\n      0x04\n      dup3\n      add\n        /* \"#utility.yul\":2302:2323   */\n      dup2\n      swap1\n      mstore\n        /* \"#utility.yul\":2339:2357   */\n      0x24\n      dup3\n      add\n        /* \"#utility.yul\":2332:2362   */\n      mstore\n        /* \"#utility.yul\":2398:2432   */\n      0x4f776e61626c653a2063616c6c6572206973206e6f7420746865206f776e6572\n        /* \"#utility.yul\":2378:2396   */\n      0x44\n      dup3\n      add\n        /* \"#utility.yul\":2371:2433   */\n      mstore\n        /* \"#utility.yul\":2450:2468   */\n      0x64\n      add\n        /* \"@openzeppelin/contracts/access/Ownable.sol\":1414:1482  require(owner() == _msgSender(), \"Ownable: caller is not the owner\") */\n      tag_71\n        /* \"#utility.yul\":2118:2474   */\n      jump\n        /* \"@openzeppelin/contracts/access/Ownable.sol\":2433:2620  function _transferOwnership(address newOwner) internal virtual {... */\n    tag_57:\n        /* \"@openzeppelin/contracts/access/Ownable.sol\":2506:2522  address oldOwner */\n      0x00\n        /* \"@openzeppelin/contracts/access/Ownable.sol\":2525:2531  _owner */\n      dup1\n      sload\n      sub(shl(0xa0, 0x01), 0x01)\n        /* \"@openzeppelin/contracts/access/Ownable.sol\":2541:2558  _owner = newOwner */\n      dup4\n      dup2\n      and\n      not(sub(shl(0xa0, 0x01), 0x01))\n      dup4\n      and\n      dup2\n      or\n      dup5\n      sstore\n        /* \"@openzeppelin/contracts/access/Ownable.sol\":2573:2613  OwnershipTransferred(oldOwner, newOwner) */\n      mload(0x40)\n        /* \"@openzeppelin/contracts/access/Ownable.sol\":2525:2531  _owner */\n      swap2\n      swap1\n      swap3\n      and\n      swap3\n      dup4\n      swap2\n        /* \"@openzeppelin/contracts/access/Ownable.sol\":2573:2613  OwnershipTransferred(oldOwner, newOwner) */\n      0x8be0079c531659141344cd1fd0a4f28419497f9722a3daafe3b4186f6b6457e0\n      swap2\n        /* \"@openzeppelin/contracts/access/Ownable.sol\":2506:2522  address oldOwner */\n      swap1\n        /* \"@openzeppelin/contracts/access/Ownable.sol\":2573:2613  OwnershipTransferred(oldOwner, newOwner) */\n      log3\n        /* \"@openzeppelin/contracts/access/Ownable.sol\":2496:2620  {... */\n      pop\n        /* \"@openzeppelin/contracts/access/Ownable.sol\":2433:2620  function _transferOwnership(address newOwner) internal virtual {... */\n      pop\n      jump\t// out\n        /* \"#utility.yul\":404:1081   */\n    tag_23:\n        /* \"#utility.yul\":530:536   */\n      0x00\n        /* \"#utility.yul\":538:544   */\n      dup1\n        /* \"#utility.yul\":591:593   */\n      0x40\n        /* \"#utility.yul\":579:588   */\n      dup4\n        /* \"#utility.yul\":570:577   */\n      dup6\n        /* \"#utility.yul\":566:589   */\n      sub\n        /* \"#utility.yul\":562:594   */\n      slt\n        /* \"#utility.yul\":559:611   */\n      iszero\n      tag_87\n      jumpi\n        /* \"#utility.yul\":607:608   */\n      0x00\n        /* \"#utility.yul\":604:605   */\n      dup1\n        /* \"#utility.yul\":597:609   */\n      revert\n        /* \"#utility.yul\":559:611   */\n    tag_87:\n        /* \"#utility.yul\":647:656   */\n      dup3\n        /* \"#utility.yul\":634:657   */\n      calldataload\n        /* \"#utility.yul\":676:694   */\n      0xffffffffffffffff\n        /* \"#utility.yul\":717:719   */\n      dup1\n        /* \"#utility.yul\":709:715   */\n      dup3\n        /* \"#utility.yul\":706:720   */\n      gt\n        /* \"#utility.yul\":703:737   */\n      iszero\n      tag_88\n      jumpi\n        /* \"#utility.yul\":733:734   */\n      0x00\n        /* \"#utility.yul\":730:731   */\n      dup1\n        /* \"#utility.yul\":723:735   */\n      revert\n        /* \"#utility.yul\":703:737   */\n    tag_88:\n        /* \"#utility.yul\":756:778   */\n      swap1\n      dup5\n      add\n      swap1\n        /* \"#utility.yul\":812:815   */\n      0xc0\n        /* \"#utility.yul\":794:810   */\n      dup3\n      dup8\n      sub\n        /* \"#utility.yul\":790:816   */\n      slt\n        /* \"#utility.yul\":787:833   */\n      iszero\n      tag_89\n      jumpi\n        /* \"#utility.yul\":829:830   */\n      0x00\n        /* \"#utility.yul\":826:827   */\n      dup1\n        /* \"#utility.yul\":819:831   */\n      revert\n        /* \"#utility.yul\":787:833   */\n    tag_89:\n        /* \"#utility.yul\":852:854   */\n      swap1\n      swap3\n      pop\n        /* \"#utility.yul\":907:909   */\n      0x20\n        /* \"#utility.yul\":892:910   */\n      dup5\n      add\n        /* \"#utility.yul\":879:911   */\n      calldataload\n      swap1\n        /* \"#utility.yul\":923:939   */\n      dup1\n      dup3\n      gt\n        /* \"#utility.yul\":920:956   */\n      iszero\n      tag_90\n      jumpi\n        /* \"#utility.yul\":952:953   */\n      0x00\n        /* \"#utility.yul\":949:950   */\n      dup1\n        /* \"#utility.yul\":942:954   */\n      revert\n        /* \"#utility.yul\":920:956   */\n    tag_90:\n      pop\n        /* \"#utility.yul\":975:999   */\n      dup4\n      add\n        /* \"#utility.yul\":1033:1036   */\n      0x0200\n        /* \"#utility.yul\":1015:1031   */\n      dup2\n      dup7\n      sub\n        /* \"#utility.yul\":1011:1037   */\n      slt\n        /* \"#utility.yul\":1008:1054   */\n      iszero\n      tag_91\n      jumpi\n        /* \"#utility.yul\":1050:1051   */\n      0x00\n        /* \"#utility.yul\":1047:1048   */\n      dup1\n        /* \"#utility.yul\":1040:1052   */\n      revert\n        /* \"#utility.yul\":1008:1054   */\n    tag_91:\n        /* \"#utility.yul\":1073:1075   */\n      dup1\n        /* \"#utility.yul\":1063:1075   */\n      swap2\n      pop\n      pop\n        /* \"#utility.yul\":404:1081   */\n      swap3\n      pop\n      swap3\n      swap1\n      pop\n      jump\t// out\n        /* \"#utility.yul\":1420:1706   */\n    tag_37:\n        /* \"#utility.yul\":1479:1485   */\n      0x00\n        /* \"#utility.yul\":1532:1534   */\n      0x20\n        /* \"#utility.yul\":1520:1529   */\n      dup3\n        /* \"#utility.yul\":1511:1518   */\n      dup5\n        /* \"#utility.yul\":1507:1530   */\n      sub\n        /* \"#utility.yul\":1503:1535   */\n      slt\n        /* \"#utility.yul\":1500:1552   */\n      iszero\n      tag_94\n      jumpi\n        /* \"#utility.yul\":1548:1549   */\n      0x00\n        /* \"#utility.yul\":1545:1546   */\n      dup1\n        /* \"#utility.yul\":1538:1550   */\n      revert\n        /* \"#utility.yul\":1500:1552   */\n    tag_94:\n        /* \"#utility.yul\":1574:1597   */\n      dup2\n      calldataload\n      sub(shl(0xa0, 0x01), 0x01)\n        /* \"#utility.yul\":1626:1657   */\n      dup2\n      and\n        /* \"#utility.yul\":1616:1658   */\n      dup2\n      eq\n        /* \"#utility.yul\":1606:1676   */\n      tag_95\n      jumpi\n        /* \"#utility.yul\":1672:1673   */\n      0x00\n        /* \"#utility.yul\":1669:1670   */\n      dup1\n        /* \"#utility.yul\":1662:1674   */\n      revert\n        /* \"#utility.yul\":1606:1676   */\n    tag_95:\n        /* \"#utility.yul\":1695:1700   */\n      swap4\n        /* \"#utility.yul\":1420:1706   */\n      swap3\n      pop\n      pop\n      pop\n      jump\t// out\n\n    auxdata: 0xa2646970667358221220b9bc6742e5a868ab6145be1f6299ce26a2ea1254ccec030dcdaa67a940ce56ca64736f6c63430008110033\n}\n",
				"bytecode": {
					"linkReferences": {},
					"object": "60a060405234801561001057600080fd5b5060405161059238038061059283398101604081905261002f91610090565b61003833610040565b6080526100a9565b600080546001600160a01b038381166001600160a01b0319831681178455604051919092169283917f8be0079c531659141344cd1fd0a4f28419497f9722a3daafe3b4186f6b6457e09190a35050565b6000602082840312156100a257600080fd5b5051919050565b6080516104c86100ca6000396000818160cd015261014a01526104c86000f3fe608060405234801561001057600080fd5b50600436106100935760003560e01c80638da5cb5b116100665780638da5cb5b146101375780639dd1cda614610148578063b2d234fb1461016e578063d310677d14610181578063f2fde38b1461019457600080fd5b806305362ef4146100985780630b4501fd146100c85780632a75ffee146100fd578063715018a61461012d575b600080fd5b6001546100ab906001600160a01b031681565b6040516001600160a01b0390911681526020015b60405180910390f35b6100ef7f000000000000000000000000000000000000000000000000000000000000000081565b6040519081526020016100bf565b61011061010b3660046103ee565b6101a7565b6040805193151584526020840192909252908201526060016100bf565b61013561022f565b005b6000546001600160a01b03166100ab565b7f00000000000000000000000000000000000000000000000000000000000000006100ef565b61013561017c366004610462565b610243565b61011061018f3660046103ee565b61026d565b6101356101a2366004610462565b6102c6565b6000806000846040013584606001351480156101ca575084606001358460800135145b80156101db57504284610120013511155b80156101ec57504284610140013510155b801561021a57506001546001600160a01b031661020f6060860160408701610462565b6001600160a01b0316145b92505050608082013560a08301359250925092565b610237610344565b610241600061039e565b565b61024b610344565b600180546001600160a01b0319166001600160a01b0392909216919091179055565b600080600084604001358460600135148015610290575084606001358460800135145b80156102a157504284610120013511155b801561021a575042846101400135101592505050608082013560a08301359250925092565b6102ce610344565b6001600160a01b0381166103385760405162461bcd60e51b815260206004820152602660248201527f4f776e61626c653a206e6577206f776e657220697320746865207a65726f206160448201526564647265737360d01b60648201526084015b60405180910390fd5b6103418161039e565b50565b6000546001600160a01b031633146102415760405162461bcd60e51b815260206004820181905260248201527f4f776e61626c653a2063616c6c6572206973206e6f7420746865206f776e6572604482015260640161032f565b600080546001600160a01b038381166001600160a01b0319831681178455604051919092169283917f8be0079c531659141344cd1fd0a4f28419497f9722a3daafe3b4186f6b6457e09190a35050565b6000806040838503121561040157600080fd5b823567ffffffffffffffff8082111561041957600080fd5b9084019060c0828703121561042d57600080fd5b9092506020840135908082111561044357600080fd5b508301610200818603121561045757600080fd5b809150509250929050565b60006020828403121561047457600080fd5b81356001600160a01b038116811461048b57600080fd5b939250505056fea2646970667358221220b9bc6742e5a868ab6145be1f6299ce26a2ea1254ccec030dcdaa67a940ce56ca64736f6c63430008110033",
					"opcodes": "PUSH1 0xA0 PUSH1 0x40 MSTORE CALLVALUE DUP1 ISZERO PUSH2 0x10 JUMPI PUSH1 0x0 DUP1 REVERT JUMPDEST POP PUSH1 0x40 MLOAD PUSH2 0x592 CODESIZE SUB DUP1 PUSH2 0x592 DUP4 CODECOPY DUP2 ADD PUSH1 0x40 DUP2 SWAP1 MSTORE PUSH2 0x2F SWAP2 PUSH2 0x90 JUMP JUMPDEST PUSH2 0x38 CALLER PUSH2 0x40 JUMP JUMPDEST PUSH1 0x80 MSTORE PUSH2 0xA9 JUMP JUMPDEST PUSH1 0x0 DUP1 SLOAD PUSH1 0x1 PUSH1 0x1 PUSH1 0xA0 SHL SUB DUP4 DUP2 AND PUSH1 0x1 PUSH1 0x1 PUSH1 0xA0 SHL SUB NOT DUP4 AND DUP2 OR DUP5 SSTORE PUSH1 0x40 MLOAD SWAP2 SWAP1 SWAP3 AND SWAP3 DUP4 SWAP2 PUSH32 0x8BE0079C531659141344CD1FD0A4F28419497F9722A3DAAFE3B4186F6B6457E0 SWAP2 SWAP1 LOG3 POP POP JUMP JUMPDEST PUSH1 0x0 PUSH1 0x20 DUP3 DUP5 SUB SLT ISZERO PUSH2 0xA2 JUMPI PUSH1 0x0 DUP1 REVERT JUMPDEST POP MLOAD SWAP2 SWAP1 POP JUMP JUMPDEST PUSH1 0x80 MLOAD PUSH2 0x4C8 PUSH2 0xCA PUSH1 0x0 CODECOPY PUSH1 0x0 DUP2 DUP2 PUSH1 0xCD ADD MSTORE PUSH2 0x14A ADD MSTORE PUSH2 0x4C8 PUSH1 0x0 RETURN INVALID PUSH1 0x80 PUSH1 0x40 MSTORE CALLVALUE DUP1 ISZERO PUSH2 0x10 JUMPI PUSH1 0x0 DUP1 REVERT JUMPDEST POP PUSH1 0x4 CALLDATASIZE LT PUSH2 0x93 JUMPI PUSH1 0x0 CALLDATALOAD PUSH1 0xE0 SHR DUP1 PUSH4 0x8DA5CB5B GT PUSH2 0x66 JUMPI DUP1 PUSH4 0x8DA5CB5B EQ PUSH2 0x137 JUMPI DUP1 PUSH4 0x9DD1CDA6 EQ PUSH2 0x148 JUMPI DUP1 PUSH4 0xB2D234FB EQ PUSH2 0x16E JUMPI DUP1 PUSH4 0xD310677D EQ PUSH2 0x181 JUMPI DUP1 PUSH4 0xF2FDE38B EQ PUSH2 0x194 JUMPI PUSH1 0x0 DUP1 REVERT JUMPDEST DUP1 PUSH4 0x5362EF4 EQ PUSH2 0x98 JUMPI DUP1 PUSH4 0xB4501FD EQ PUSH2 0xC8 JUMPI DUP1 PUSH4 0x2A75FFEE EQ PUSH2 0xFD JUMPI DUP1 PUSH4 0x715018A6 EQ PUSH2 0x12D JUMPI JUMPDEST PUSH1 0x0 DUP1 REVERT JUMPDEST PUSH1 0x1 SLOAD PUSH2 0xAB SWAP1 PUSH1 0x1 PUSH1 0x1 PUSH1 0xA0 SHL SUB AND DUP2 JUMP JUMPDEST PUSH1 0x40 MLOAD PUSH1 0x1 PUSH1 0x1 PUSH1 0xA0 SHL SUB SWAP1 SWAP2 AND DUP2 MSTORE PUSH1 0x20 ADD JUMPDEST PUSH1 0x40 MLOAD DUP1 SWAP2 SUB SWAP1 RETURN JUMPDEST PUSH2 0xEF PUSH32 0x0 DUP2 JUMP JUMPDEST PUSH1 0x40 MLOAD SWAP1 DUP2 MSTORE PUSH1 0x20 ADD PUSH2 0xBF JUMP JUMPDEST PUSH2 0x110 PUSH2 0x10B CALLDATASIZE PUSH1 0x4 PUSH2 0x3EE JUMP JUMPDEST PUSH2 0x1A7 JUMP JUMPDEST PUSH1 0x40 DUP1 MLOAD SWAP4 ISZERO ISZERO DUP5 MSTORE PUSH1 0x20 DUP5 ADD SWAP3 SWAP1 SWAP3 MSTORE SWAP1 DUP3 ADD MSTORE PUSH1 0x60 ADD PUSH2 0xBF JUMP JUMPDEST PUSH2 0x135 PUSH2 0x22F JUMP JUMPDEST STOP JUMPDEST PUSH1 0x0 SLOAD PUSH1 0x1 PUSH1 0x1 PUSH1 0xA0 SHL SUB AND PUSH2 0xAB JUMP JUMPDEST PUSH32 0x0 PUSH2 0xEF JUMP JUMPDEST PUSH2 0x135 PUSH2 0x17C CALLDATASIZE PUSH1 0x4 PUSH2 0x462 JUMP JUMPDEST PUSH2 0x243 JUMP JUMPDEST PUSH2 0x110 PUSH2 0x18F CALLDATASIZE PUSH1 0x4 PUSH2 0x3EE JUMP JUMPDEST PUSH2 0x26D JUMP JUMPDEST PUSH2 0x135 PUSH2 0x1A2 CALLDATASIZE PUSH1 0x4 PUSH2 0x462 JUMP JUMPDEST PUSH2 0x2C6 JUMP JUMPDEST PUSH1 0x0 DUP1 PUSH1 0x0 DUP5 PUSH1 0x40 ADD CALLDATALOAD DUP5 PUSH1 0x60 ADD CALLDATALOAD EQ DUP1 ISZERO PUSH2 0x1CA JUMPI POP DUP5 PUSH1 0x60 ADD CALLDATALOAD DUP5 PUSH1 0x80 ADD CALLDATALOAD EQ JUMPDEST DUP1 ISZERO PUSH2 0x1DB JUMPI POP TIMESTAMP DUP5 PUSH2 0x120 ADD CALLDATALOAD GT ISZERO JUMPDEST DUP1 ISZERO PUSH2 0x1EC JUMPI POP TIMESTAMP DUP5 PUSH2 0x140 ADD CALLDATALOAD LT ISZERO JUMPDEST DUP1 ISZERO PUSH2 0x21A JUMPI POP PUSH1 0x1 SLOAD PUSH1 0x1 PUSH1 0x1 PUSH1 0xA0 SHL SUB AND PUSH2 0x20F PUSH1 0x60 DUP7 ADD PUSH1 0x40 DUP8 ADD PUSH2 0x462 JUMP JUMPDEST PUSH1 0x1 PUSH1 0x1 PUSH1 0xA0 SHL SUB AND EQ JUMPDEST SWAP3 POP POP POP PUSH1 0x80 DUP3 ADD CALLDATALOAD PUSH1 0xA0 DUP4 ADD CALLDATALOAD SWAP3 POP SWAP3 POP SWAP3 JUMP JUMPDEST PUSH2 0x237 PUSH2 0x344 JUMP JUMPDEST PUSH2 0x241 PUSH1 0x0 PUSH2 0x39E JUMP JUMPDEST JUMP JUMPDEST PUSH2 0x24B PUSH2 0x344 JUMP JUMPDEST PUSH1 0x1 DUP1 SLOAD PUSH1 0x1 PUSH1 0x1 PUSH1 0xA0 SHL SUB NOT AND PUSH1 0x1 PUSH1 0x1 PUSH1 0xA0 SHL SUB SWAP3 SWAP1 SWAP3 AND SWAP2 SWAP1 SWAP2 OR SWAP1 SSTORE JUMP JUMPDEST PUSH1 0x0 DUP1 PUSH1 0x0 DUP5 PUSH1 0x40 ADD CALLDATALOAD DUP5 PUSH1 0x60 ADD CALLDATALOAD EQ DUP1 ISZERO PUSH2 0x290 JUMPI POP DUP5 PUSH1 0x60 ADD CALLDATALOAD DUP5 PUSH1 0x80 ADD CALLDATALOAD EQ JUMPDEST DUP1 ISZERO PUSH2 0x2A1 JUMPI POP TIMESTAMP DUP5 PUSH2 0x120 ADD CALLDATALOAD GT ISZERO JUMPDEST DUP1 ISZERO PUSH2 0x21A JUMPI POP TIMESTAMP DUP5 PUSH2 0x140 ADD CALLDATALOAD LT ISZERO SWAP3 POP POP POP PUSH1 0x80 DUP3 ADD CALLDATALOAD PUSH1 0xA0 DUP4 ADD CALLDATALOAD SWAP3 POP SWAP3 POP SWAP3 JUMP JUMPDEST PUSH2 0x2CE PUSH2 0x344 JUMP JUMPDEST PUSH1 0x1 PUSH1 0x1 PUSH1 0xA0 SHL SUB DUP2 AND PUSH2 0x338 JUMPI PUSH1 0x40 MLOAD PUSH3 0x461BCD PUSH1 0xE5 SHL DUP2 MSTORE PUSH1 0x20 PUSH1 0x4 DUP3 ADD MSTORE PUSH1 0x26 PUSH1 0x24 DUP3 ADD MSTORE PUSH32 0x4F776E61626C653A206E6577206F776E657220697320746865207A65726F2061 PUSH1 0x44 DUP3 ADD MSTORE PUSH6 0x646472657373 PUSH1 0xD0 SHL PUSH1 0x64 DUP3 ADD MSTORE PUSH1 0x84 ADD JUMPDEST PUSH1 0x40 MLOAD DUP1 SWAP2 SUB SWAP1 REVERT JUMPDEST PUSH2 0x341 DUP2 PUSH2 0x39E JUMP JUMPDEST POP JUMP JUMPDEST PUSH1 0x0 SLOAD PUSH1 0x1 PUSH1 0x1 PUSH1 0xA0 SHL SUB AND CALLER EQ PUSH2 0x241 JUMPI PUSH1 0x40 MLOAD PUSH3 0x461BCD PUSH1 0xE5 SHL DUP2 MSTORE PUSH1 0x20 PUSH1 0x4 DUP3 ADD DUP2 SWAP1 MSTORE PUSH1 0x24 DUP3 ADD MSTORE PUSH32 0x4F776E61626C653A2063616C6C6572206973206E6F7420746865206F776E6572 PUSH1 0x44 DUP3 ADD MSTORE PUSH1 0x64 ADD PUSH2 0x32F JUMP JUMPDEST PUSH1 0x0 DUP1 SLOAD PUSH1 0x1 PUSH1 0x1 PUSH1 0xA0 SHL SUB DUP4 DUP2 AND PUSH1 0x1 PUSH1 0x1 PUSH1 0xA0 SHL SUB NOT DUP4 AND DUP2 OR DUP5 SSTORE PUSH1 0x40 MLOAD SWAP2 SWAP1 SWAP3 AND SWAP3 DUP4 SWAP2 PUSH32 0x8BE0079C531659141344CD1FD0A4F28419497F9722A3DAAFE3B4186F6B6457E0 SWAP2 SWAP1 LOG3 POP POP JUMP JUMPDEST PUSH1 0x0 DUP1 PUSH1 0x40 DUP4 DUP6 SUB SLT ISZERO PUSH2 0x401 JUMPI PUSH1 0x0 DUP1 REVERT JUMPDEST DUP3 CALLDATALOAD PUSH8 0xFFFFFFFFFFFFFFFF DUP1 DUP3 GT ISZERO PUSH2 0x419 JUMPI PUSH1 0x0 DUP1 REVERT JUMPDEST SWAP1 DUP5 ADD SWAP1 PUSH1 0xC0 DUP3 DUP8 SUB SLT ISZERO PUSH2 0x42D JUMPI PUSH1 0x0 DUP1 REVERT JUMPDEST SWAP1 SWAP3 POP PUSH1 0x20 DUP5 ADD CALLDATALOAD SWAP1 DUP1 DUP3 GT ISZERO PUSH2 0x443 JUMPI PUSH1 0x0 DUP1 REVERT JUMPDEST POP DUP4 ADD PUSH2 0x200 DUP2 DUP7 SUB SLT ISZERO PUSH2 0x457 JUMPI PUSH1 0x0 DUP1 REVERT JUMPDEST DUP1 SWAP2 POP POP SWAP3 POP SWAP3 SWAP1 POP JUMP JUMPDEST PUSH1 0x0 PUSH1 0x20 DUP3 DUP5 SUB SLT ISZERO PUSH2 0x474 JUMPI PUSH1 0x0 DUP1 REVERT JUMPDEST DUP2 CALLDATALOAD PUSH1 0x1 PUSH1 0x1 PUSH1 0xA0 SHL SUB DUP2 AND DUP2 EQ PUSH2 0x48B JUMPI PUSH1 0x0 DUP1 REVERT JUMPDEST SWAP4 SWAP3 POP POP POP JUMP INVALID LOG2 PUSH5 0x6970667358 0x22 SLT KECCAK256 0xB9 0xBC PUSH8 0x42E5A868AB6145BE 0x1F PUSH3 0x99CE26 LOG2 0xEA SLT SLOAD 0xCC 0xEC SUB 0xD 0xCD 0xAA PUSH8 0xA940CE56CA64736F PUSH13 0x63430008110033000000000000 "
				},
				"gasEstimates": {
					"creation": {
						"codeDepositCost": "244800",
						"executionCost": "infinite",
						"totalCost": "infinite"
					},
					"external": {
						"FREE_ADDRESS()": "2327",
						"PROTOCOL_FEE()": "infinite",
						"canExecuteBuy((bool,address,uint256,uint256,uint256,bytes),(bool,address,address,uint256,uint256,uint256,address,address,uint256,uint256,uint256,uint256,bytes,uint8,bytes32,bytes32))": "3067",
						"canExecuteSell((bool,address,uint256,uint256,uint256,bytes),(bool,address,address,uint256,uint256,uint256,address,address,uint256,uint256,uint256,uint256,bytes,uint8,bytes32,bytes32))": "787",
						"owner()": "2320",
						"renounceOwnership()": "infinite",
						"setFreeAddress(address)": "26744",
						"transferOwnership(address)": "28386",
						"viewProtocolFee()": "infinite"
					}
				},
				"methodIdentifiers": {
					"FREE_ADDRESS()": "05362ef4",
					"PROTOCOL_FEE()": "0b4501fd",
					"canExecuteBuy((bool,address,uint256,uint256,uint256,bytes),(bool,address,address,uint256,uint256,uint256,address,address,uint256,uint256,uint256,uint256,bytes,uint8,bytes32,bytes32))": "2a75ffee",
					"canExecuteSell((bool,address,uint256,uint256,uint256,bytes),(bool,address,address,uint256,uint256,uint256,address,address,uint256,uint256,uint256,uint256,bytes,uint8,bytes32,bytes32))": "d310677d",
					"owner()": "8da5cb5b",
					"renounceOwnership()": "715018a6",
					"setFreeAddress(address)": "b2d234fb",
					"transferOwnership(address)": "f2fde38b",
					"viewProtocolFee()": "9dd1cda6"
				}
			},
			"storageLayout": {
				"storage": [
					{
						"astId": 7,
						"contract": "contracts/Manager/execution/StrategyActivity.sol:StrategyFixedPrice",
						"label": "_owner",
						"offset": 0,
						"slot": "0",
						"type": "t_address"
					},
					{
						"astId": 151,
						"contract": "contracts/Manager/execution/StrategyActivity.sol:StrategyFixedPrice",
						"label": "FREE_ADDRESS",
						"offset": 0,
						"slot": "1",
						"type": "t_address"
					}
				],
				"types": {
					"t_address": {
						"encoding": "inplace",
						"label": "address",
						"numberOfBytes": "20"
					}
				}
			},
			"userdoc": {
				"kind": "user",
				"methods": {
					"constructor": {
						"notice": "Constructor"
					}
				},
				"notice": "Strategy that executes an order at a fixed price that can be taken either by a bid or an ask.",
				"version": 1
			}
		}
	}
}