{
	"contracts/Manager/execution/StrategyActivity.sol": {
		"StrategyAct": {
			"abi": [
				{
					"inputs": [
						{
							"internalType": "uint256",
							"name": "_protocolFee",
							"type": "uint256"
						}
					],
					"stateMutability": "nonpayable",
					"type": "constructor"
				},
				{
					"anonymous": false,
					"inputs": [
						{
							"indexed": true,
							"internalType": "address",
							"name": "previousOwner",
							"type": "address"
						},
						{
							"indexed": true,
							"internalType": "address",
							"name": "newOwner",
							"type": "address"
						}
					],
					"name": "OwnershipTransferred",
					"type": "event"
				},
				{
					"anonymous": false,
					"inputs": [
						{
							"indexed": true,
							"internalType": "address",
							"name": "collection",
							"type": "address"
						}
					],
					"name": "UpdateActivity",
					"type": "event"
				},
				{
					"inputs": [],
					"name": "ACTIVITY_ADDRESS",
					"outputs": [
						{
							"internalType": "address",
							"name": "",
							"type": "address"
						}
					],
					"stateMutability": "view",
					"type": "function"
				},
				{
					"inputs": [],
					"name": "PROTOCOL_FEE",
					"outputs": [
						{
							"internalType": "uint256",
							"name": "",
							"type": "uint256"
						}
					],
					"stateMutability": "view",
					"type": "function"
				},
				{
					"inputs": [
						{
							"components": [
								{
									"internalType": "bool",
									"name": "isOrderAsk",
									"type": "bool"
								},
								{
									"internalType": "address",
									"name": "taker",
									"type": "address"
								},
								{
									"internalType": "uint256",
									"name": "price",
									"type": "uint256"
								},
								{
									"internalType": "uint256",
									"name": "tokenId",
									"type": "uint256"
								},
								{
									"internalType": "uint256",
									"name": "minPercentageToAsk",
									"type": "uint256"
								},
								{
									"internalType": "bytes",
									"name": "params",
									"type": "bytes"
								}
							],
							"internalType": "struct OrderTypes.TakerOrder",
							"name": "takerAsk",
							"type": "tuple"
						},
						{
							"components": [
								{
									"internalType": "bool",
									"name": "isOrderAsk",
									"type": "bool"
								},
								{
									"internalType": "address",
									"name": "signer",
									"type": "address"
								},
								{
									"internalType": "address",
									"name": "collection",
									"type": "address"
								},
								{
									"internalType": "uint256",
									"name": "price",
									"type": "uint256"
								},
								{
									"internalType": "uint256",
									"name": "tokenId",
									"type": "uint256"
								},
								{
									"internalType": "uint256",
									"name": "amount",
									"type": "uint256"
								},
								{
									"internalType": "address",
									"name": "strategy",
									"type": "address"
								},
								{
									"internalType": "address",
									"name": "currency",
									"type": "address"
								},
								{
									"internalType": "uint256",
									"name": "nonce",
									"type": "uint256"
								},
								{
									"internalType": "uint256",
									"name": "startTime",
									"type": "uint256"
								},
								{
									"internalType": "uint256",
									"name": "endTime",
									"type": "uint256"
								},
								{
									"internalType": "uint256",
									"name": "minPercentageToAsk",
									"type": "uint256"
								},
								{
									"internalType": "bytes",
									"name": "params",
									"type": "bytes"
								},
								{
									"internalType": "uint8",
									"name": "v",
									"type": "uint8"
								},
								{
									"internalType": "bytes32",
									"name": "r",
									"type": "bytes32"
								},
								{
									"internalType": "bytes32",
									"name": "s",
									"type": "bytes32"
								}
							],
							"internalType": "struct OrderTypes.MakerOrder",
							"name": "makerBid",
							"type": "tuple"
						}
					],
					"name": "canExecuteBuy",
					"outputs": [
						{
							"internalType": "bool",
							"name": "",
							"type": "bool"
						},
						{
							"internalType": "uint256",
							"name": "",
							"type": "uint256"
						},
						{
							"internalType": "uint256",
							"name": "",
							"type": "uint256"
						}
					],
					"stateMutability": "view",
					"type": "function"
				},
				{
					"inputs": [
						{
							"components": [
								{
									"internalType": "bool",
									"name": "isOrderAsk",
									"type": "bool"
								},
								{
									"internalType": "address",
									"name": "taker",
									"type": "address"
								},
								{
									"internalType": "uint256",
									"name": "price",
									"type": "uint256"
								},
								{
									"internalType": "uint256",
									"name": "tokenId",
									"type": "uint256"
								},
								{
									"internalType": "uint256",
									"name": "minPercentageToAsk",
									"type": "uint256"
								},
								{
									"internalType": "bytes",
									"name": "params",
									"type": "bytes"
								}
							],
							"internalType": "struct OrderTypes.TakerOrder",
							"name": "takerBid",
							"type": "tuple"
						},
						{
							"components": [
								{
									"internalType": "bool",
									"name": "isOrderAsk",
									"type": "bool"
								},
								{
									"internalType": "address",
									"name": "signer",
									"type": "address"
								},
								{
									"internalType": "address",
									"name": "collection",
									"type": "address"
								},
								{
									"internalType": "uint256",
									"name": "price",
									"type": "uint256"
								},
								{
									"internalType": "uint256",
									"name": "tokenId",
									"type": "uint256"
								},
								{
									"internalType": "uint256",
									"name": "amount",
									"type": "uint256"
								},
								{
									"internalType": "address",
									"name": "strategy",
									"type": "address"
								},
								{
									"internalType": "address",
									"name": "currency",
									"type": "address"
								},
								{
									"internalType": "uint256",
									"name": "nonce",
									"type": "uint256"
								},
								{
									"internalType": "uint256",
									"name": "startTime",
									"type": "uint256"
								},
								{
									"internalType": "uint256",
									"name": "endTime",
									"type": "uint256"
								},
								{
									"internalType": "uint256",
									"name": "minPercentageToAsk",
									"type": "uint256"
								},
								{
									"internalType": "bytes",
									"name": "params",
									"type": "bytes"
								},
								{
									"internalType": "uint8",
									"name": "v",
									"type": "uint8"
								},
								{
									"internalType": "bytes32",
									"name": "r",
									"type": "bytes32"
								},
								{
									"internalType": "bytes32",
									"name": "s",
									"type": "bytes32"
								}
							],
							"internalType": "struct OrderTypes.MakerOrder",
							"name": "makerAsk",
							"type": "tuple"
						}
					],
					"name": "canExecuteSell",
					"outputs": [
						{
							"internalType": "bool",
							"name": "",
							"type": "bool"
						},
						{
							"internalType": "uint256",
							"name": "",
							"type": "uint256"
						},
						{
							"internalType": "uint256",
							"name": "",
							"type": "uint256"
						}
					],
					"stateMutability": "view",
					"type": "function"
				},
				{
					"inputs": [],
					"name": "owner",
					"outputs": [
						{
							"internalType": "address",
							"name": "",
							"type": "address"
						}
					],
					"stateMutability": "view",
					"type": "function"
				},
				{
					"inputs": [],
					"name": "renounceOwnership",
					"outputs": [],
					"stateMutability": "nonpayable",
					"type": "function"
				},
				{
					"inputs": [
						{
							"internalType": "address",
							"name": "_freeAddress",
							"type": "address"
						}
					],
					"name": "setFreeAddress",
					"outputs": [],
					"stateMutability": "nonpayable",
					"type": "function"
				},
				{
					"inputs": [
						{
							"internalType": "address",
							"name": "newOwner",
							"type": "address"
						}
					],
					"name": "transferOwnership",
					"outputs": [],
					"stateMutability": "nonpayable",
					"type": "function"
				},
				{
					"inputs": [],
					"name": "viewProtocolFee",
					"outputs": [
						{
							"internalType": "uint256",
							"name": "",
							"type": "uint256"
						}
					],
					"stateMutability": "view",
					"type": "function"
				}
			],
			"devdoc": {
				"kind": "dev",
				"methods": {
					"constructor": {
						"params": {
							"_protocolFee": "protocol fee (200 --> 2%, 400 --> 4%)"
						}
					},
					"owner()": {
						"details": "Returns the address of the current owner."
					},
					"renounceOwnership()": {
						"details": "Leaves the contract without owner. It will not be possible to call `onlyOwner` functions anymore. Can only be called by the current owner. NOTE: Renouncing ownership will leave the contract without an owner, thereby removing any functionality that is only available to the owner."
					},
					"transferOwnership(address)": {
						"details": "Transfers ownership of the contract to a new account (`newOwner`). Can only be called by the current owner."
					}
				},
				"title": "StrategyStandardSaleForFixedPrice",
				"version": 1
			},
			"evm": {
				"assembly": "    /* \"contracts/Manager/execution/StrategyActivity.sol\":412:2937  contract StrategyAct is TheExStrategy ,Ownable{... */\n  mstore(0x40, 0xa0)\n    /* \"contracts/Manager/execution/StrategyActivity.sol\":707:785  constructor(uint256 _protocolFee) {... */\n  callvalue\n  dup1\n  iszero\n  tag_1\n  jumpi\n  0x00\n  dup1\n  revert\ntag_1:\n  pop\n  mload(0x40)\n  sub(codesize, bytecodeSize)\n  dup1\n  bytecodeSize\n  dup4\n  codecopy\n  dup2\n  add\n  0x40\n  dup2\n  swap1\n  mstore\n  tag_2\n  swap2\n  tag_3\n  jump\t// in\ntag_2:\n    /* \"@openzeppelin/contracts/access/Ownable.sol\":936:968  _transferOwnership(_msgSender()) */\n  tag_7\n    /* \"@openzeppelin/contracts/utils/Context.sol\":719:729  msg.sender */\n  caller\n    /* \"@openzeppelin/contracts/access/Ownable.sol\":936:954  _transferOwnership */\n  tag_10\n    /* \"@openzeppelin/contracts/access/Ownable.sol\":936:968  _transferOwnership(_msgSender()) */\n  jump\t// in\ntag_7:\n    /* \"contracts/Manager/execution/StrategyActivity.sol\":751:778  PROTOCOL_FEE = _protocolFee */\n  0x80\n  mstore\n    /* \"contracts/Manager/execution/StrategyActivity.sol\":412:2937  contract StrategyAct is TheExStrategy ,Ownable{... */\n  jump(tag_15)\n    /* \"@openzeppelin/contracts/access/Ownable.sol\":2433:2620  function _transferOwnership(address newOwner) internal virtual {... */\ntag_10:\n    /* \"@openzeppelin/contracts/access/Ownable.sol\":2506:2522  address oldOwner */\n  0x00\n    /* \"@openzeppelin/contracts/access/Ownable.sol\":2525:2531  _owner */\n  dup1\n  sload\n  sub(shl(0xa0, 0x01), 0x01)\n    /* \"@openzeppelin/contracts/access/Ownable.sol\":2541:2558  _owner = newOwner */\n  dup4\n  dup2\n  and\n  not(sub(shl(0xa0, 0x01), 0x01))\n  dup4\n  and\n  dup2\n  or\n  dup5\n  sstore\n    /* \"@openzeppelin/contracts/access/Ownable.sol\":2573:2613  OwnershipTransferred(oldOwner, newOwner) */\n  mload(0x40)\n    /* \"@openzeppelin/contracts/access/Ownable.sol\":2525:2531  _owner */\n  swap2\n  swap1\n  swap3\n  and\n  swap3\n  dup4\n  swap2\n    /* \"@openzeppelin/contracts/access/Ownable.sol\":2573:2613  OwnershipTransferred(oldOwner, newOwner) */\n  0x8be0079c531659141344cd1fd0a4f28419497f9722a3daafe3b4186f6b6457e0\n  swap2\n    /* \"@openzeppelin/contracts/access/Ownable.sol\":2506:2522  address oldOwner */\n  swap1\n    /* \"@openzeppelin/contracts/access/Ownable.sol\":2573:2613  OwnershipTransferred(oldOwner, newOwner) */\n  log3\n    /* \"@openzeppelin/contracts/access/Ownable.sol\":2496:2620  {... */\n  pop\n    /* \"@openzeppelin/contracts/access/Ownable.sol\":2433:2620  function _transferOwnership(address newOwner) internal virtual {... */\n  pop\n  jump\t// out\n    /* \"#utility.yul\":14:198   */\ntag_3:\n    /* \"#utility.yul\":84:90   */\n  0x00\n    /* \"#utility.yul\":137:139   */\n  0x20\n    /* \"#utility.yul\":125:134   */\n  dup3\n    /* \"#utility.yul\":116:123   */\n  dup5\n    /* \"#utility.yul\":112:135   */\n  sub\n    /* \"#utility.yul\":108:140   */\n  slt\n    /* \"#utility.yul\":105:157   */\n  iszero\n  tag_17\n  jumpi\n    /* \"#utility.yul\":153:154   */\n  0x00\n    /* \"#utility.yul\":150:151   */\n  dup1\n    /* \"#utility.yul\":143:155   */\n  revert\n    /* \"#utility.yul\":105:157   */\ntag_17:\n  pop\n    /* \"#utility.yul\":176:192   */\n  mload\n  swap2\n    /* \"#utility.yul\":14:198   */\n  swap1\n  pop\n  jump\t// out\ntag_15:\n    /* \"contracts/Manager/execution/StrategyActivity.sol\":412:2937  contract StrategyAct is TheExStrategy ,Ownable{... */\n  mload(0x80)\n  codecopy(0x00, dataOffset(sub_0), dataSize(sub_0))\n  0x00\n  assignImmutable(\"0xb004fbd84afb38927636fa378c0a62a86a02b00862b6ff80fef4d6e948c0571d\")\n  return(0x00, dataSize(sub_0))\nstop\n\nsub_0: assembly {\n        /* \"contracts/Manager/execution/StrategyActivity.sol\":412:2937  contract StrategyAct is TheExStrategy ,Ownable{... */\n      mstore(0x40, 0x80)\n      callvalue\n      dup1\n      iszero\n      tag_1\n      jumpi\n      0x00\n      dup1\n      revert\n    tag_1:\n      pop\n      jumpi(tag_2, lt(calldatasize, 0x04))\n      shr(0xe0, calldataload(0x00))\n      dup1\n      0x8da5cb5b\n      gt\n      tag_12\n      jumpi\n      dup1\n      0x8da5cb5b\n      eq\n      tag_7\n      jumpi\n      dup1\n      0x9dd1cda6\n      eq\n      tag_8\n      jumpi\n      dup1\n      0xb2d234fb\n      eq\n      tag_9\n      jumpi\n      dup1\n      0xd310677d\n      eq\n      tag_10\n      jumpi\n      dup1\n      0xf2fde38b\n      eq\n      tag_11\n      jumpi\n      0x00\n      dup1\n      revert\n    tag_12:\n      dup1\n      0x0b4501fd\n      eq\n      tag_3\n      jumpi\n      dup1\n      0x2a75ffee\n      eq\n      tag_4\n      jumpi\n      dup1\n      0x5ddcd564\n      eq\n      tag_5\n      jumpi\n      dup1\n      0x715018a6\n      eq\n      tag_6\n      jumpi\n    tag_2:\n      0x00\n      dup1\n      revert\n        /* \"contracts/Manager/execution/StrategyActivity.sol\":464:501  uint256 public immutable PROTOCOL_FEE */\n    tag_3:\n      tag_13\n      immutable(\"0xb004fbd84afb38927636fa378c0a62a86a02b00862b6ff80fef4d6e948c0571d\")\n      dup2\n      jump\n    tag_13:\n      mload(0x40)\n        /* \"#utility.yul\":160:185   */\n      swap1\n      dup2\n      mstore\n        /* \"#utility.yul\":148:150   */\n      0x20\n        /* \"#utility.yul\":133:151   */\n      add\n        /* \"contracts/Manager/execution/StrategyActivity.sol\":464:501  uint256 public immutable PROTOCOL_FEE */\n    tag_15:\n      mload(0x40)\n      dup1\n      swap2\n      sub\n      swap1\n      return\n        /* \"contracts/Manager/execution/StrategyActivity.sol\":981:1698  function canExecuteBuy(OrderTypes.TakerOrder calldata takerAsk, OrderTypes.MakerOrder calldata makerBid)... */\n    tag_4:\n      tag_17\n      tag_18\n      calldatasize\n      0x04\n      tag_19\n      jump\t// in\n    tag_18:\n      tag_20\n      jump\t// in\n    tag_17:\n      0x40\n      dup1\n      mload\n        /* \"#utility.yul\":1099:1113   */\n      swap4\n      iszero\n        /* \"#utility.yul\":1092:1114   */\n      iszero\n        /* \"#utility.yul\":1074:1115   */\n      dup5\n      mstore\n        /* \"#utility.yul\":1146:1148   */\n      0x20\n        /* \"#utility.yul\":1131:1149   */\n      dup5\n      add\n        /* \"#utility.yul\":1124:1158   */\n      swap3\n      swap1\n      swap3\n      mstore\n        /* \"#utility.yul\":1174:1192   */\n      swap1\n      dup3\n      add\n        /* \"#utility.yul\":1167:1201   */\n      mstore\n        /* \"#utility.yul\":1062:1064   */\n      0x60\n        /* \"#utility.yul\":1047:1065   */\n      add\n        /* \"contracts/Manager/execution/StrategyActivity.sol\":981:1698  function canExecuteBuy(OrderTypes.TakerOrder calldata takerAsk, OrderTypes.MakerOrder calldata makerBid)... */\n      tag_15\n        /* \"#utility.yul\":878:1207   */\n      jump\n        /* \"contracts/Manager/execution/StrategyActivity.sol\":507:538  address public ACTIVITY_ADDRESS */\n    tag_5:\n      sload(0x01)\n      tag_23\n      swap1\n      sub(shl(0xa0, 0x01), 0x01)\n      and\n      dup2\n      jump\n    tag_23:\n      mload(0x40)\n      sub(shl(0xa0, 0x01), 0x01)\n        /* \"#utility.yul\":1376:1408   */\n      swap1\n      swap2\n      and\n        /* \"#utility.yul\":1358:1409   */\n      dup2\n      mstore\n        /* \"#utility.yul\":1346:1348   */\n      0x20\n        /* \"#utility.yul\":1331:1349   */\n      add\n        /* \"contracts/Manager/execution/StrategyActivity.sol\":507:538  address public ACTIVITY_ADDRESS */\n      tag_15\n        /* \"#utility.yul\":1212:1415   */\n      jump\n        /* \"@openzeppelin/contracts/access/Ownable.sol\":1831:1932  function renounceOwnership() public virtual onlyOwner {... */\n    tag_6:\n      tag_27\n      tag_28\n      jump\t// in\n    tag_27:\n      stop\n        /* \"@openzeppelin/contracts/access/Ownable.sol\":1201:1286  function owner() public view virtual returns (address) {... */\n    tag_7:\n        /* \"@openzeppelin/contracts/access/Ownable.sol\":1247:1254  address */\n      0x00\n        /* \"@openzeppelin/contracts/access/Ownable.sol\":1273:1279  _owner */\n      sload\n      sub(shl(0xa0, 0x01), 0x01)\n      and\n        /* \"@openzeppelin/contracts/access/Ownable.sol\":1201:1286  function owner() public view virtual returns (address) {... */\n      jump(tag_23)\n        /* \"contracts/Manager/execution/StrategyActivity.sol\":2831:2935  function viewProtocolFee() external view override returns (uint256) {... */\n    tag_8:\n        /* \"contracts/Manager/execution/StrategyActivity.sol\":2916:2928  PROTOCOL_FEE */\n      immutable(\"0xb004fbd84afb38927636fa378c0a62a86a02b00862b6ff80fef4d6e948c0571d\")\n        /* \"contracts/Manager/execution/StrategyActivity.sol\":2831:2935  function viewProtocolFee() external view override returns (uint256) {... */\n      jump(tag_13)\n        /* \"contracts/Manager/execution/StrategyActivity.sol\":2546:2700  function setFreeAddress(address _freeAddress)external onlyOwner{... */\n    tag_9:\n      tag_27\n      tag_36\n      calldatasize\n      0x04\n      tag_37\n      jump\t// in\n    tag_36:\n      tag_38\n      jump\t// in\n        /* \"contracts/Manager/execution/StrategyActivity.sol\":1885:2541  function canExecuteSell(OrderTypes.TakerOrder calldata takerBid, OrderTypes.MakerOrder calldata makerAsk)... */\n    tag_10:\n      tag_17\n      tag_40\n      calldatasize\n      0x04\n      tag_19\n      jump\t// in\n    tag_40:\n      tag_41\n      jump\t// in\n        /* \"@openzeppelin/contracts/access/Ownable.sol\":2081:2279  function transferOwnership(address newOwner) public virtual onlyOwner {... */\n    tag_11:\n      tag_27\n      tag_44\n      calldatasize\n      0x04\n      tag_37\n      jump\t// in\n    tag_44:\n      tag_45\n      jump\t// in\n        /* \"contracts/Manager/execution/StrategyActivity.sol\":981:1698  function canExecuteBuy(OrderTypes.TakerOrder calldata takerAsk, OrderTypes.MakerOrder calldata makerBid)... */\n    tag_20:\n        /* \"contracts/Manager/execution/StrategyActivity.sol\":1163:1167  bool */\n      0x00\n        /* \"contracts/Manager/execution/StrategyActivity.sol\":1181:1188  uint256 */\n      dup1\n        /* \"contracts/Manager/execution/StrategyActivity.sol\":1202:1209  uint256 */\n      0x00\n        /* \"contracts/Manager/execution/StrategyActivity.sol\":1374:1382  takerAsk */\n      dup5\n        /* \"contracts/Manager/execution/StrategyActivity.sol\":1374:1388  takerAsk.price */\n      0x40\n      add\n      calldataload\n        /* \"contracts/Manager/execution/StrategyActivity.sol\":1356:1364  makerBid */\n      dup5\n        /* \"contracts/Manager/execution/StrategyActivity.sol\":1356:1370  makerBid.price */\n      0x60\n      add\n      calldataload\n        /* \"contracts/Manager/execution/StrategyActivity.sol\":1356:1388  makerBid.price == takerAsk.price */\n      eq\n        /* \"contracts/Manager/execution/StrategyActivity.sol\":1355:1447  (makerBid.price == takerAsk.price) &&... */\n      dup1\n      iszero\n      tag_47\n      jumpi\n      pop\n        /* \"contracts/Manager/execution/StrategyActivity.sol\":1430:1438  takerAsk */\n      dup5\n        /* \"contracts/Manager/execution/StrategyActivity.sol\":1430:1446  takerAsk.tokenId */\n      0x60\n      add\n      calldataload\n        /* \"contracts/Manager/execution/StrategyActivity.sol\":1410:1418  makerBid */\n      dup5\n        /* \"contracts/Manager/execution/StrategyActivity.sol\":1410:1426  makerBid.tokenId */\n      0x80\n      add\n      calldataload\n        /* \"contracts/Manager/execution/StrategyActivity.sol\":1410:1446  makerBid.tokenId == takerAsk.tokenId */\n      eq\n        /* \"contracts/Manager/execution/StrategyActivity.sol\":1355:1447  (makerBid.price == takerAsk.price) &&... */\n    tag_47:\n        /* \"contracts/Manager/execution/StrategyActivity.sol\":1355:1506  (makerBid.price == takerAsk.price) &&... */\n      dup1\n      iszero\n      tag_48\n      jumpi\n      pop\n        /* \"contracts/Manager/execution/StrategyActivity.sol\":1490:1505  block.timestamp */\n      timestamp\n        /* \"contracts/Manager/execution/StrategyActivity.sol\":1468:1476  makerBid */\n      dup5\n        /* \"contracts/Manager/execution/StrategyActivity.sol\":1468:1486  makerBid.startTime */\n      0x0120\n      add\n      calldataload\n        /* \"contracts/Manager/execution/StrategyActivity.sol\":1468:1505  makerBid.startTime <= block.timestamp */\n      gt\n      iszero\n        /* \"contracts/Manager/execution/StrategyActivity.sol\":1355:1506  (makerBid.price == takerAsk.price) &&... */\n    tag_48:\n        /* \"contracts/Manager/execution/StrategyActivity.sol\":1355:1563  (makerBid.price == takerAsk.price) &&... */\n      dup1\n      iszero\n      tag_49\n      jumpi\n      pop\n        /* \"contracts/Manager/execution/StrategyActivity.sol\":1547:1562  block.timestamp */\n      timestamp\n        /* \"contracts/Manager/execution/StrategyActivity.sol\":1527:1535  makerBid */\n      dup5\n        /* \"contracts/Manager/execution/StrategyActivity.sol\":1527:1543  makerBid.endTime */\n      0x0140\n      add\n      calldataload\n        /* \"contracts/Manager/execution/StrategyActivity.sol\":1527:1562  makerBid.endTime >= block.timestamp */\n      lt\n      iszero\n        /* \"contracts/Manager/execution/StrategyActivity.sol\":1355:1563  (makerBid.price == takerAsk.price) &&... */\n    tag_49:\n        /* \"contracts/Manager/execution/StrategyActivity.sol\":1355:1621  (makerBid.price == takerAsk.price) &&... */\n      dup1\n      iszero\n      tag_50\n      jumpi\n      pop\n        /* \"contracts/Manager/execution/StrategyActivity.sol\":1605:1621  ACTIVITY_ADDRESS */\n      and(sub(shl(0xa0, 0x01), 0x01), sload(0x01))\n        /* \"contracts/Manager/execution/StrategyActivity.sol\":1582:1601  makerBid.collection */\n      tag_51\n      0x60\n      dup7\n      add\n      0x40\n      dup8\n      add\n      tag_37\n      jump\t// in\n    tag_51:\n      sub(shl(0xa0, 0x01), 0x01)\n        /* \"contracts/Manager/execution/StrategyActivity.sol\":1582:1621  makerBid.collection == ACTIVITY_ADDRESS */\n      and\n      eq\n        /* \"contracts/Manager/execution/StrategyActivity.sol\":1355:1621  (makerBid.price == takerAsk.price) &&... */\n    tag_50:\n        /* \"contracts/Manager/execution/StrategyActivity.sol\":1346:1691  return (((makerBid.price == takerAsk.price) &&... */\n      swap3\n      pop\n      pop\n      pop\n        /* \"contracts/Manager/execution/StrategyActivity.sol\":1636:1652  makerBid.tokenId */\n      0x80\n      dup3\n      add\n      calldataload\n        /* \"contracts/Manager/execution/StrategyActivity.sol\":1666:1681  makerBid.amount */\n      0xa0\n      dup4\n      add\n      calldataload\n        /* \"contracts/Manager/execution/StrategyActivity.sol\":981:1698  function canExecuteBuy(OrderTypes.TakerOrder calldata takerAsk, OrderTypes.MakerOrder calldata makerBid)... */\n      swap3\n      pop\n      swap3\n      pop\n      swap3\n      jump\t// out\n        /* \"@openzeppelin/contracts/access/Ownable.sol\":1831:1932  function renounceOwnership() public virtual onlyOwner {... */\n    tag_28:\n        /* \"@openzeppelin/contracts/access/Ownable.sol\":1094:1107  _checkOwner() */\n      tag_53\n        /* \"@openzeppelin/contracts/access/Ownable.sol\":1094:1105  _checkOwner */\n      tag_54\n        /* \"@openzeppelin/contracts/access/Ownable.sol\":1094:1107  _checkOwner() */\n      jump\t// in\n    tag_53:\n        /* \"@openzeppelin/contracts/access/Ownable.sol\":1895:1925  _transferOwnership(address(0)) */\n      tag_56\n        /* \"@openzeppelin/contracts/access/Ownable.sol\":1922:1923  0 */\n      0x00\n        /* \"@openzeppelin/contracts/access/Ownable.sol\":1895:1913  _transferOwnership */\n      tag_57\n        /* \"@openzeppelin/contracts/access/Ownable.sol\":1895:1925  _transferOwnership(address(0)) */\n      jump\t// in\n    tag_56:\n        /* \"@openzeppelin/contracts/access/Ownable.sol\":1831:1932  function renounceOwnership() public virtual onlyOwner {... */\n      jump\t// out\n        /* \"contracts/Manager/execution/StrategyActivity.sol\":2546:2700  function setFreeAddress(address _freeAddress)external onlyOwner{... */\n    tag_38:\n        /* \"@openzeppelin/contracts/access/Ownable.sol\":1094:1107  _checkOwner() */\n      tag_61\n        /* \"@openzeppelin/contracts/access/Ownable.sol\":1094:1105  _checkOwner */\n      tag_54\n        /* \"@openzeppelin/contracts/access/Ownable.sol\":1094:1107  _checkOwner() */\n      jump\t// in\n    tag_61:\n        /* \"contracts/Manager/execution/StrategyActivity.sol\":2619:2635  ACTIVITY_ADDRESS */\n      0x01\n        /* \"contracts/Manager/execution/StrategyActivity.sol\":2619:2650  ACTIVITY_ADDRESS = _freeAddress */\n      dup1\n      sload\n      not(sub(shl(0xa0, 0x01), 0x01))\n      and\n      sub(shl(0xa0, 0x01), 0x01)\n      dup4\n      and\n      swap1\n      dup2\n      or\n      swap1\n      swap2\n      sstore\n        /* \"contracts/Manager/execution/StrategyActivity.sol\":2665:2693  UpdateActivity(_freeAddress) */\n      mload(0x40)\n      0xce1cbf52b22f02d931c3c4303058071609fa6632b75130966e8abe92ddc2c2e1\n      swap1\n      0x00\n      swap1\n      log2\n        /* \"contracts/Manager/execution/StrategyActivity.sol\":2546:2700  function setFreeAddress(address _freeAddress)external onlyOwner{... */\n      pop\n      jump\t// out\n        /* \"contracts/Manager/execution/StrategyActivity.sol\":1885:2541  function canExecuteSell(OrderTypes.TakerOrder calldata takerBid, OrderTypes.MakerOrder calldata makerAsk)... */\n    tag_41:\n        /* \"contracts/Manager/execution/StrategyActivity.sol\":2068:2072  bool */\n      0x00\n        /* \"contracts/Manager/execution/StrategyActivity.sol\":2086:2093  uint256 */\n      dup1\n        /* \"contracts/Manager/execution/StrategyActivity.sol\":2107:2114  uint256 */\n      0x00\n        /* \"contracts/Manager/execution/StrategyActivity.sol\":2275:2283  takerBid */\n      dup5\n        /* \"contracts/Manager/execution/StrategyActivity.sol\":2275:2289  takerBid.price */\n      0x40\n      add\n      calldataload\n        /* \"contracts/Manager/execution/StrategyActivity.sol\":2257:2265  makerAsk */\n      dup5\n        /* \"contracts/Manager/execution/StrategyActivity.sol\":2257:2271  makerAsk.price */\n      0x60\n      add\n      calldataload\n        /* \"contracts/Manager/execution/StrategyActivity.sol\":2257:2289  makerAsk.price == takerBid.price */\n      eq\n        /* \"contracts/Manager/execution/StrategyActivity.sol\":2256:2348  (makerAsk.price == takerBid.price) &&... */\n      dup1\n      iszero\n      tag_64\n      jumpi\n      pop\n        /* \"contracts/Manager/execution/StrategyActivity.sol\":2331:2339  takerBid */\n      dup5\n        /* \"contracts/Manager/execution/StrategyActivity.sol\":2331:2347  takerBid.tokenId */\n      0x60\n      add\n      calldataload\n        /* \"contracts/Manager/execution/StrategyActivity.sol\":2311:2319  makerAsk */\n      dup5\n        /* \"contracts/Manager/execution/StrategyActivity.sol\":2311:2327  makerAsk.tokenId */\n      0x80\n      add\n      calldataload\n        /* \"contracts/Manager/execution/StrategyActivity.sol\":2311:2347  makerAsk.tokenId == takerBid.tokenId */\n      eq\n        /* \"contracts/Manager/execution/StrategyActivity.sol\":2256:2348  (makerAsk.price == takerBid.price) &&... */\n    tag_64:\n        /* \"contracts/Manager/execution/StrategyActivity.sol\":2256:2407  (makerAsk.price == takerBid.price) &&... */\n      dup1\n      iszero\n      tag_65\n      jumpi\n      pop\n        /* \"contracts/Manager/execution/StrategyActivity.sol\":2391:2406  block.timestamp */\n      timestamp\n        /* \"contracts/Manager/execution/StrategyActivity.sol\":2369:2377  makerAsk */\n      dup5\n        /* \"contracts/Manager/execution/StrategyActivity.sol\":2369:2387  makerAsk.startTime */\n      0x0120\n      add\n      calldataload\n        /* \"contracts/Manager/execution/StrategyActivity.sol\":2369:2406  makerAsk.startTime <= block.timestamp */\n      gt\n      iszero\n        /* \"contracts/Manager/execution/StrategyActivity.sol\":2256:2407  (makerAsk.price == takerBid.price) &&... */\n    tag_65:\n        /* \"contracts/Manager/execution/StrategyActivity.sol\":2256:2464  (makerAsk.price == takerBid.price) &&... */\n      dup1\n      iszero\n      tag_50\n      jumpi\n      pop\n        /* \"contracts/Manager/execution/StrategyActivity.sol\":2448:2463  block.timestamp */\n      timestamp\n        /* \"contracts/Manager/execution/StrategyActivity.sol\":2428:2436  makerAsk */\n      dup5\n        /* \"contracts/Manager/execution/StrategyActivity.sol\":2428:2444  makerAsk.endTime */\n      0x0140\n      add\n      calldataload\n        /* \"contracts/Manager/execution/StrategyActivity.sol\":2428:2463  makerAsk.endTime >= block.timestamp */\n      lt\n      iszero\n        /* \"contracts/Manager/execution/StrategyActivity.sol\":2234:2534  return (... */\n      swap3\n      pop\n      pop\n      pop\n        /* \"contracts/Manager/execution/StrategyActivity.sol\":2479:2495  makerAsk.tokenId */\n      0x80\n      dup3\n      add\n      calldataload\n        /* \"contracts/Manager/execution/StrategyActivity.sol\":2509:2524  makerAsk.amount */\n      0xa0\n      dup4\n      add\n      calldataload\n        /* \"contracts/Manager/execution/StrategyActivity.sol\":1885:2541  function canExecuteSell(OrderTypes.TakerOrder calldata takerBid, OrderTypes.MakerOrder calldata makerAsk)... */\n      swap3\n      pop\n      swap3\n      pop\n      swap3\n      jump\t// out\n        /* \"@openzeppelin/contracts/access/Ownable.sol\":2081:2279  function transferOwnership(address newOwner) public virtual onlyOwner {... */\n    tag_45:\n        /* \"@openzeppelin/contracts/access/Ownable.sol\":1094:1107  _checkOwner() */\n      tag_68\n        /* \"@openzeppelin/contracts/access/Ownable.sol\":1094:1105  _checkOwner */\n      tag_54\n        /* \"@openzeppelin/contracts/access/Ownable.sol\":1094:1107  _checkOwner() */\n      jump\t// in\n    tag_68:\n      sub(shl(0xa0, 0x01), 0x01)\n        /* \"@openzeppelin/contracts/access/Ownable.sol\":2169:2191  newOwner != address(0) */\n      dup2\n      and\n        /* \"@openzeppelin/contracts/access/Ownable.sol\":2161:2234  require(newOwner != address(0), \"Ownable: new owner is the zero address\") */\n      tag_70\n      jumpi\n      mload(0x40)\n      shl(0xe5, 0x461bcd)\n      dup2\n      mstore\n        /* \"#utility.yul\":1913:1915   */\n      0x20\n        /* \"@openzeppelin/contracts/access/Ownable.sol\":2161:2234  require(newOwner != address(0), \"Ownable: new owner is the zero address\") */\n      0x04\n      dup3\n      add\n        /* \"#utility.yul\":1895:1916   */\n      mstore\n        /* \"#utility.yul\":1952:1954   */\n      0x26\n        /* \"#utility.yul\":1932:1950   */\n      0x24\n      dup3\n      add\n        /* \"#utility.yul\":1925:1955   */\n      mstore\n        /* \"#utility.yul\":1991:2025   */\n      0x4f776e61626c653a206e6577206f776e657220697320746865207a65726f2061\n        /* \"#utility.yul\":1971:1989   */\n      0x44\n      dup3\n      add\n        /* \"#utility.yul\":1964:2026   */\n      mstore\n      shl(0xd0, 0x646472657373)\n        /* \"#utility.yul\":2042:2060   */\n      0x64\n      dup3\n      add\n        /* \"#utility.yul\":2035:2071   */\n      mstore\n        /* \"#utility.yul\":2088:2107   */\n      0x84\n      add\n        /* \"@openzeppelin/contracts/access/Ownable.sol\":2161:2234  require(newOwner != address(0), \"Ownable: new owner is the zero address\") */\n    tag_71:\n      mload(0x40)\n      dup1\n      swap2\n      sub\n      swap1\n      revert\n    tag_70:\n        /* \"@openzeppelin/contracts/access/Ownable.sol\":2244:2272  _transferOwnership(newOwner) */\n      tag_73\n        /* \"@openzeppelin/contracts/access/Ownable.sol\":2263:2271  newOwner */\n      dup2\n        /* \"@openzeppelin/contracts/access/Ownable.sol\":2244:2262  _transferOwnership */\n      tag_57\n        /* \"@openzeppelin/contracts/access/Ownable.sol\":2244:2272  _transferOwnership(newOwner) */\n      jump\t// in\n    tag_73:\n        /* \"@openzeppelin/contracts/access/Ownable.sol\":2081:2279  function transferOwnership(address newOwner) public virtual onlyOwner {... */\n      pop\n      jump\t// out\n        /* \"@openzeppelin/contracts/access/Ownable.sol\":1359:1489  function _checkOwner() internal view virtual {... */\n    tag_54:\n        /* \"@openzeppelin/contracts/access/Ownable.sol\":1247:1254  address */\n      0x00\n        /* \"@openzeppelin/contracts/access/Ownable.sol\":1273:1279  _owner */\n      sload\n      sub(shl(0xa0, 0x01), 0x01)\n      and\n        /* \"@openzeppelin/contracts/utils/Context.sol\":719:729  msg.sender */\n      caller\n        /* \"@openzeppelin/contracts/access/Ownable.sol\":1422:1445  owner() == _msgSender() */\n      eq\n        /* \"@openzeppelin/contracts/access/Ownable.sol\":1414:1482  require(owner() == _msgSender(), \"Ownable: caller is not the owner\") */\n      tag_56\n      jumpi\n      mload(0x40)\n      shl(0xe5, 0x461bcd)\n      dup2\n      mstore\n        /* \"#utility.yul\":2320:2322   */\n      0x20\n        /* \"@openzeppelin/contracts/access/Ownable.sol\":1414:1482  require(owner() == _msgSender(), \"Ownable: caller is not the owner\") */\n      0x04\n      dup3\n      add\n        /* \"#utility.yul\":2302:2323   */\n      dup2\n      swap1\n      mstore\n        /* \"#utility.yul\":2339:2357   */\n      0x24\n      dup3\n      add\n        /* \"#utility.yul\":2332:2362   */\n      mstore\n        /* \"#utility.yul\":2398:2432   */\n      0x4f776e61626c653a2063616c6c6572206973206e6f7420746865206f776e6572\n        /* \"#utility.yul\":2378:2396   */\n      0x44\n      dup3\n      add\n        /* \"#utility.yul\":2371:2433   */\n      mstore\n        /* \"#utility.yul\":2450:2468   */\n      0x64\n      add\n        /* \"@openzeppelin/contracts/access/Ownable.sol\":1414:1482  require(owner() == _msgSender(), \"Ownable: caller is not the owner\") */\n      tag_71\n        /* \"#utility.yul\":2118:2474   */\n      jump\n        /* \"@openzeppelin/contracts/access/Ownable.sol\":2433:2620  function _transferOwnership(address newOwner) internal virtual {... */\n    tag_57:\n        /* \"@openzeppelin/contracts/access/Ownable.sol\":2506:2522  address oldOwner */\n      0x00\n        /* \"@openzeppelin/contracts/access/Ownable.sol\":2525:2531  _owner */\n      dup1\n      sload\n      sub(shl(0xa0, 0x01), 0x01)\n        /* \"@openzeppelin/contracts/access/Ownable.sol\":2541:2558  _owner = newOwner */\n      dup4\n      dup2\n      and\n      not(sub(shl(0xa0, 0x01), 0x01))\n      dup4\n      and\n      dup2\n      or\n      dup5\n      sstore\n        /* \"@openzeppelin/contracts/access/Ownable.sol\":2573:2613  OwnershipTransferred(oldOwner, newOwner) */\n      mload(0x40)\n        /* \"@openzeppelin/contracts/access/Ownable.sol\":2525:2531  _owner */\n      swap2\n      swap1\n      swap3\n      and\n      swap3\n      dup4\n      swap2\n        /* \"@openzeppelin/contracts/access/Ownable.sol\":2573:2613  OwnershipTransferred(oldOwner, newOwner) */\n      0x8be0079c531659141344cd1fd0a4f28419497f9722a3daafe3b4186f6b6457e0\n      swap2\n        /* \"@openzeppelin/contracts/access/Ownable.sol\":2506:2522  address oldOwner */\n      swap1\n        /* \"@openzeppelin/contracts/access/Ownable.sol\":2573:2613  OwnershipTransferred(oldOwner, newOwner) */\n      log3\n        /* \"@openzeppelin/contracts/access/Ownable.sol\":2496:2620  {... */\n      pop\n        /* \"@openzeppelin/contracts/access/Ownable.sol\":2433:2620  function _transferOwnership(address newOwner) internal virtual {... */\n      pop\n      jump\t// out\n        /* \"#utility.yul\":196:873   */\n    tag_19:\n        /* \"#utility.yul\":322:328   */\n      0x00\n        /* \"#utility.yul\":330:336   */\n      dup1\n        /* \"#utility.yul\":383:385   */\n      0x40\n        /* \"#utility.yul\":371:380   */\n      dup4\n        /* \"#utility.yul\":362:369   */\n      dup6\n        /* \"#utility.yul\":358:381   */\n      sub\n        /* \"#utility.yul\":354:386   */\n      slt\n        /* \"#utility.yul\":351:403   */\n      iszero\n      tag_86\n      jumpi\n        /* \"#utility.yul\":399:400   */\n      0x00\n        /* \"#utility.yul\":396:397   */\n      dup1\n        /* \"#utility.yul\":389:401   */\n      revert\n        /* \"#utility.yul\":351:403   */\n    tag_86:\n        /* \"#utility.yul\":439:448   */\n      dup3\n        /* \"#utility.yul\":426:449   */\n      calldataload\n        /* \"#utility.yul\":468:486   */\n      0xffffffffffffffff\n        /* \"#utility.yul\":509:511   */\n      dup1\n        /* \"#utility.yul\":501:507   */\n      dup3\n        /* \"#utility.yul\":498:512   */\n      gt\n        /* \"#utility.yul\":495:529   */\n      iszero\n      tag_87\n      jumpi\n        /* \"#utility.yul\":525:526   */\n      0x00\n        /* \"#utility.yul\":522:523   */\n      dup1\n        /* \"#utility.yul\":515:527   */\n      revert\n        /* \"#utility.yul\":495:529   */\n    tag_87:\n        /* \"#utility.yul\":548:570   */\n      swap1\n      dup5\n      add\n      swap1\n        /* \"#utility.yul\":604:607   */\n      0xc0\n        /* \"#utility.yul\":586:602   */\n      dup3\n      dup8\n      sub\n        /* \"#utility.yul\":582:608   */\n      slt\n        /* \"#utility.yul\":579:625   */\n      iszero\n      tag_88\n      jumpi\n        /* \"#utility.yul\":621:622   */\n      0x00\n        /* \"#utility.yul\":618:619   */\n      dup1\n        /* \"#utility.yul\":611:623   */\n      revert\n        /* \"#utility.yul\":579:625   */\n    tag_88:\n        /* \"#utility.yul\":644:646   */\n      swap1\n      swap3\n      pop\n        /* \"#utility.yul\":699:701   */\n      0x20\n        /* \"#utility.yul\":684:702   */\n      dup5\n      add\n        /* \"#utility.yul\":671:703   */\n      calldataload\n      swap1\n        /* \"#utility.yul\":715:731   */\n      dup1\n      dup3\n      gt\n        /* \"#utility.yul\":712:748   */\n      iszero\n      tag_89\n      jumpi\n        /* \"#utility.yul\":744:745   */\n      0x00\n        /* \"#utility.yul\":741:742   */\n      dup1\n        /* \"#utility.yul\":734:746   */\n      revert\n        /* \"#utility.yul\":712:748   */\n    tag_89:\n      pop\n        /* \"#utility.yul\":767:791   */\n      dup4\n      add\n        /* \"#utility.yul\":825:828   */\n      0x0200\n        /* \"#utility.yul\":807:823   */\n      dup2\n      dup7\n      sub\n        /* \"#utility.yul\":803:829   */\n      slt\n        /* \"#utility.yul\":800:846   */\n      iszero\n      tag_90\n      jumpi\n        /* \"#utility.yul\":842:843   */\n      0x00\n        /* \"#utility.yul\":839:840   */\n      dup1\n        /* \"#utility.yul\":832:844   */\n      revert\n        /* \"#utility.yul\":800:846   */\n    tag_90:\n        /* \"#utility.yul\":865:867   */\n      dup1\n        /* \"#utility.yul\":855:867   */\n      swap2\n      pop\n      pop\n        /* \"#utility.yul\":196:873   */\n      swap3\n      pop\n      swap3\n      swap1\n      pop\n      jump\t// out\n        /* \"#utility.yul\":1420:1706   */\n    tag_37:\n        /* \"#utility.yul\":1479:1485   */\n      0x00\n        /* \"#utility.yul\":1532:1534   */\n      0x20\n        /* \"#utility.yul\":1520:1529   */\n      dup3\n        /* \"#utility.yul\":1511:1518   */\n      dup5\n        /* \"#utility.yul\":1507:1530   */\n      sub\n        /* \"#utility.yul\":1503:1535   */\n      slt\n        /* \"#utility.yul\":1500:1552   */\n      iszero\n      tag_94\n      jumpi\n        /* \"#utility.yul\":1548:1549   */\n      0x00\n        /* \"#utility.yul\":1545:1546   */\n      dup1\n        /* \"#utility.yul\":1538:1550   */\n      revert\n        /* \"#utility.yul\":1500:1552   */\n    tag_94:\n        /* \"#utility.yul\":1574:1597   */\n      dup2\n      calldataload\n      sub(shl(0xa0, 0x01), 0x01)\n        /* \"#utility.yul\":1626:1657   */\n      dup2\n      and\n        /* \"#utility.yul\":1616:1658   */\n      dup2\n      eq\n        /* \"#utility.yul\":1606:1676   */\n      tag_95\n      jumpi\n        /* \"#utility.yul\":1672:1673   */\n      0x00\n        /* \"#utility.yul\":1669:1670   */\n      dup1\n        /* \"#utility.yul\":1662:1674   */\n      revert\n        /* \"#utility.yul\":1606:1676   */\n    tag_95:\n        /* \"#utility.yul\":1695:1700   */\n      swap4\n        /* \"#utility.yul\":1420:1706   */\n      swap3\n      pop\n      pop\n      pop\n      jump\t// out\n\n    auxdata: 0xa2646970667358221220a3df5b76f3299f9973784e839fe42236312f53315fcf58ff3c60ffee01cee6a364736f6c63430008110033\n}\n",
				"bytecode": {
					"linkReferences": {},
					"object": "60a060405234801561001057600080fd5b506040516105ba3803806105ba83398101604081905261002f91610090565b61003833610040565b6080526100a9565b600080546001600160a01b038381166001600160a01b0319831681178455604051919092169283917f8be0079c531659141344cd1fd0a4f28419497f9722a3daafe3b4186f6b6457e09190a35050565b6000602082840312156100a257600080fd5b5051919050565b6080516104f06100ca60003960008181609d015261014a01526104f06000f3fe608060405234801561001057600080fd5b50600436106100935760003560e01c80638da5cb5b116100665780638da5cb5b146101375780639dd1cda614610148578063b2d234fb1461016e578063d310677d14610181578063f2fde38b1461019457600080fd5b80630b4501fd146100985780632a75ffee146100d25780635ddcd56414610102578063715018a61461012d575b600080fd5b6100bf7f000000000000000000000000000000000000000000000000000000000000000081565b6040519081526020015b60405180910390f35b6100e56100e0366004610416565b6101a7565b6040805193151584526020840192909252908201526060016100c9565b600154610115906001600160a01b031681565b6040516001600160a01b0390911681526020016100c9565b61013561022f565b005b6000546001600160a01b0316610115565b7f00000000000000000000000000000000000000000000000000000000000000006100bf565b61013561017c36600461048a565b610243565b6100e561018f366004610416565b610295565b6101356101a236600461048a565b6102ee565b6000806000846040013584606001351480156101ca575084606001358460800135145b80156101db57504284610120013511155b80156101ec57504284610140013510155b801561021a57506001546001600160a01b031661020f606086016040870161048a565b6001600160a01b0316145b92505050608082013560a08301359250925092565b61023761036c565b61024160006103c6565b565b61024b61036c565b600180546001600160a01b0319166001600160a01b0383169081179091556040517fce1cbf52b22f02d931c3c4303058071609fa6632b75130966e8abe92ddc2c2e190600090a250565b6000806000846040013584606001351480156102b8575084606001358460800135145b80156102c957504284610120013511155b801561021a575042846101400135101592505050608082013560a08301359250925092565b6102f661036c565b6001600160a01b0381166103605760405162461bcd60e51b815260206004820152602660248201527f4f776e61626c653a206e6577206f776e657220697320746865207a65726f206160448201526564647265737360d01b60648201526084015b60405180910390fd5b610369816103c6565b50565b6000546001600160a01b031633146102415760405162461bcd60e51b815260206004820181905260248201527f4f776e61626c653a2063616c6c6572206973206e6f7420746865206f776e65726044820152606401610357565b600080546001600160a01b038381166001600160a01b0319831681178455604051919092169283917f8be0079c531659141344cd1fd0a4f28419497f9722a3daafe3b4186f6b6457e09190a35050565b6000806040838503121561042957600080fd5b823567ffffffffffffffff8082111561044157600080fd5b9084019060c0828703121561045557600080fd5b9092506020840135908082111561046b57600080fd5b508301610200818603121561047f57600080fd5b809150509250929050565b60006020828403121561049c57600080fd5b81356001600160a01b03811681146104b357600080fd5b939250505056fea2646970667358221220a3df5b76f3299f9973784e839fe42236312f53315fcf58ff3c60ffee01cee6a364736f6c63430008110033",
					"opcodes": "PUSH1 0xA0 PUSH1 0x40 MSTORE CALLVALUE DUP1 ISZERO PUSH2 0x10 JUMPI PUSH1 0x0 DUP1 REVERT JUMPDEST POP PUSH1 0x40 MLOAD PUSH2 0x5BA CODESIZE SUB DUP1 PUSH2 0x5BA DUP4 CODECOPY DUP2 ADD PUSH1 0x40 DUP2 SWAP1 MSTORE PUSH2 0x2F SWAP2 PUSH2 0x90 JUMP JUMPDEST PUSH2 0x38 CALLER PUSH2 0x40 JUMP JUMPDEST PUSH1 0x80 MSTORE PUSH2 0xA9 JUMP JUMPDEST PUSH1 0x0 DUP1 SLOAD PUSH1 0x1 PUSH1 0x1 PUSH1 0xA0 SHL SUB DUP4 DUP2 AND PUSH1 0x1 PUSH1 0x1 PUSH1 0xA0 SHL SUB NOT DUP4 AND DUP2 OR DUP5 SSTORE PUSH1 0x40 MLOAD SWAP2 SWAP1 SWAP3 AND SWAP3 DUP4 SWAP2 PUSH32 0x8BE0079C531659141344CD1FD0A4F28419497F9722A3DAAFE3B4186F6B6457E0 SWAP2 SWAP1 LOG3 POP POP JUMP JUMPDEST PUSH1 0x0 PUSH1 0x20 DUP3 DUP5 SUB SLT ISZERO PUSH2 0xA2 JUMPI PUSH1 0x0 DUP1 REVERT JUMPDEST POP MLOAD SWAP2 SWAP1 POP JUMP JUMPDEST PUSH1 0x80 MLOAD PUSH2 0x4F0 PUSH2 0xCA PUSH1 0x0 CODECOPY PUSH1 0x0 DUP2 DUP2 PUSH1 0x9D ADD MSTORE PUSH2 0x14A ADD MSTORE PUSH2 0x4F0 PUSH1 0x0 RETURN INVALID PUSH1 0x80 PUSH1 0x40 MSTORE CALLVALUE DUP1 ISZERO PUSH2 0x10 JUMPI PUSH1 0x0 DUP1 REVERT JUMPDEST POP PUSH1 0x4 CALLDATASIZE LT PUSH2 0x93 JUMPI PUSH1 0x0 CALLDATALOAD PUSH1 0xE0 SHR DUP1 PUSH4 0x8DA5CB5B GT PUSH2 0x66 JUMPI DUP1 PUSH4 0x8DA5CB5B EQ PUSH2 0x137 JUMPI DUP1 PUSH4 0x9DD1CDA6 EQ PUSH2 0x148 JUMPI DUP1 PUSH4 0xB2D234FB EQ PUSH2 0x16E JUMPI DUP1 PUSH4 0xD310677D EQ PUSH2 0x181 JUMPI DUP1 PUSH4 0xF2FDE38B EQ PUSH2 0x194 JUMPI PUSH1 0x0 DUP1 REVERT JUMPDEST DUP1 PUSH4 0xB4501FD EQ PUSH2 0x98 JUMPI DUP1 PUSH4 0x2A75FFEE EQ PUSH2 0xD2 JUMPI DUP1 PUSH4 0x5DDCD564 EQ PUSH2 0x102 JUMPI DUP1 PUSH4 0x715018A6 EQ PUSH2 0x12D JUMPI JUMPDEST PUSH1 0x0 DUP1 REVERT JUMPDEST PUSH2 0xBF PUSH32 0x0 DUP2 JUMP JUMPDEST PUSH1 0x40 MLOAD SWAP1 DUP2 MSTORE PUSH1 0x20 ADD JUMPDEST PUSH1 0x40 MLOAD DUP1 SWAP2 SUB SWAP1 RETURN JUMPDEST PUSH2 0xE5 PUSH2 0xE0 CALLDATASIZE PUSH1 0x4 PUSH2 0x416 JUMP JUMPDEST PUSH2 0x1A7 JUMP JUMPDEST PUSH1 0x40 DUP1 MLOAD SWAP4 ISZERO ISZERO DUP5 MSTORE PUSH1 0x20 DUP5 ADD SWAP3 SWAP1 SWAP3 MSTORE SWAP1 DUP3 ADD MSTORE PUSH1 0x60 ADD PUSH2 0xC9 JUMP JUMPDEST PUSH1 0x1 SLOAD PUSH2 0x115 SWAP1 PUSH1 0x1 PUSH1 0x1 PUSH1 0xA0 SHL SUB AND DUP2 JUMP JUMPDEST PUSH1 0x40 MLOAD PUSH1 0x1 PUSH1 0x1 PUSH1 0xA0 SHL SUB SWAP1 SWAP2 AND DUP2 MSTORE PUSH1 0x20 ADD PUSH2 0xC9 JUMP JUMPDEST PUSH2 0x135 PUSH2 0x22F JUMP JUMPDEST STOP JUMPDEST PUSH1 0x0 SLOAD PUSH1 0x1 PUSH1 0x1 PUSH1 0xA0 SHL SUB AND PUSH2 0x115 JUMP JUMPDEST PUSH32 0x0 PUSH2 0xBF JUMP JUMPDEST PUSH2 0x135 PUSH2 0x17C CALLDATASIZE PUSH1 0x4 PUSH2 0x48A JUMP JUMPDEST PUSH2 0x243 JUMP JUMPDEST PUSH2 0xE5 PUSH2 0x18F CALLDATASIZE PUSH1 0x4 PUSH2 0x416 JUMP JUMPDEST PUSH2 0x295 JUMP JUMPDEST PUSH2 0x135 PUSH2 0x1A2 CALLDATASIZE PUSH1 0x4 PUSH2 0x48A JUMP JUMPDEST PUSH2 0x2EE JUMP JUMPDEST PUSH1 0x0 DUP1 PUSH1 0x0 DUP5 PUSH1 0x40 ADD CALLDATALOAD DUP5 PUSH1 0x60 ADD CALLDATALOAD EQ DUP1 ISZERO PUSH2 0x1CA JUMPI POP DUP5 PUSH1 0x60 ADD CALLDATALOAD DUP5 PUSH1 0x80 ADD CALLDATALOAD EQ JUMPDEST DUP1 ISZERO PUSH2 0x1DB JUMPI POP TIMESTAMP DUP5 PUSH2 0x120 ADD CALLDATALOAD GT ISZERO JUMPDEST DUP1 ISZERO PUSH2 0x1EC JUMPI POP TIMESTAMP DUP5 PUSH2 0x140 ADD CALLDATALOAD LT ISZERO JUMPDEST DUP1 ISZERO PUSH2 0x21A JUMPI POP PUSH1 0x1 SLOAD PUSH1 0x1 PUSH1 0x1 PUSH1 0xA0 SHL SUB AND PUSH2 0x20F PUSH1 0x60 DUP7 ADD PUSH1 0x40 DUP8 ADD PUSH2 0x48A JUMP JUMPDEST PUSH1 0x1 PUSH1 0x1 PUSH1 0xA0 SHL SUB AND EQ JUMPDEST SWAP3 POP POP POP PUSH1 0x80 DUP3 ADD CALLDATALOAD PUSH1 0xA0 DUP4 ADD CALLDATALOAD SWAP3 POP SWAP3 POP SWAP3 JUMP JUMPDEST PUSH2 0x237 PUSH2 0x36C JUMP JUMPDEST PUSH2 0x241 PUSH1 0x0 PUSH2 0x3C6 JUMP JUMPDEST JUMP JUMPDEST PUSH2 0x24B PUSH2 0x36C JUMP JUMPDEST PUSH1 0x1 DUP1 SLOAD PUSH1 0x1 PUSH1 0x1 PUSH1 0xA0 SHL SUB NOT AND PUSH1 0x1 PUSH1 0x1 PUSH1 0xA0 SHL SUB DUP4 AND SWAP1 DUP2 OR SWAP1 SWAP2 SSTORE PUSH1 0x40 MLOAD PUSH32 0xCE1CBF52B22F02D931C3C4303058071609FA6632B75130966E8ABE92DDC2C2E1 SWAP1 PUSH1 0x0 SWAP1 LOG2 POP JUMP JUMPDEST PUSH1 0x0 DUP1 PUSH1 0x0 DUP5 PUSH1 0x40 ADD CALLDATALOAD DUP5 PUSH1 0x60 ADD CALLDATALOAD EQ DUP1 ISZERO PUSH2 0x2B8 JUMPI POP DUP5 PUSH1 0x60 ADD CALLDATALOAD DUP5 PUSH1 0x80 ADD CALLDATALOAD EQ JUMPDEST DUP1 ISZERO PUSH2 0x2C9 JUMPI POP TIMESTAMP DUP5 PUSH2 0x120 ADD CALLDATALOAD GT ISZERO JUMPDEST DUP1 ISZERO PUSH2 0x21A JUMPI POP TIMESTAMP DUP5 PUSH2 0x140 ADD CALLDATALOAD LT ISZERO SWAP3 POP POP POP PUSH1 0x80 DUP3 ADD CALLDATALOAD PUSH1 0xA0 DUP4 ADD CALLDATALOAD SWAP3 POP SWAP3 POP SWAP3 JUMP JUMPDEST PUSH2 0x2F6 PUSH2 0x36C JUMP JUMPDEST PUSH1 0x1 PUSH1 0x1 PUSH1 0xA0 SHL SUB DUP2 AND PUSH2 0x360 JUMPI PUSH1 0x40 MLOAD PUSH3 0x461BCD PUSH1 0xE5 SHL DUP2 MSTORE PUSH1 0x20 PUSH1 0x4 DUP3 ADD MSTORE PUSH1 0x26 PUSH1 0x24 DUP3 ADD MSTORE PUSH32 0x4F776E61626C653A206E6577206F776E657220697320746865207A65726F2061 PUSH1 0x44 DUP3 ADD MSTORE PUSH6 0x646472657373 PUSH1 0xD0 SHL PUSH1 0x64 DUP3 ADD MSTORE PUSH1 0x84 ADD JUMPDEST PUSH1 0x40 MLOAD DUP1 SWAP2 SUB SWAP1 REVERT JUMPDEST PUSH2 0x369 DUP2 PUSH2 0x3C6 JUMP JUMPDEST POP JUMP JUMPDEST PUSH1 0x0 SLOAD PUSH1 0x1 PUSH1 0x1 PUSH1 0xA0 SHL SUB AND CALLER EQ PUSH2 0x241 JUMPI PUSH1 0x40 MLOAD PUSH3 0x461BCD PUSH1 0xE5 SHL DUP2 MSTORE PUSH1 0x20 PUSH1 0x4 DUP3 ADD DUP2 SWAP1 MSTORE PUSH1 0x24 DUP3 ADD MSTORE PUSH32 0x4F776E61626C653A2063616C6C6572206973206E6F7420746865206F776E6572 PUSH1 0x44 DUP3 ADD MSTORE PUSH1 0x64 ADD PUSH2 0x357 JUMP JUMPDEST PUSH1 0x0 DUP1 SLOAD PUSH1 0x1 PUSH1 0x1 PUSH1 0xA0 SHL SUB DUP4 DUP2 AND PUSH1 0x1 PUSH1 0x1 PUSH1 0xA0 SHL SUB NOT DUP4 AND DUP2 OR DUP5 SSTORE PUSH1 0x40 MLOAD SWAP2 SWAP1 SWAP3 AND SWAP3 DUP4 SWAP2 PUSH32 0x8BE0079C531659141344CD1FD0A4F28419497F9722A3DAAFE3B4186F6B6457E0 SWAP2 SWAP1 LOG3 POP POP JUMP JUMPDEST PUSH1 0x0 DUP1 PUSH1 0x40 DUP4 DUP6 SUB SLT ISZERO PUSH2 0x429 JUMPI PUSH1 0x0 DUP1 REVERT JUMPDEST DUP3 CALLDATALOAD PUSH8 0xFFFFFFFFFFFFFFFF DUP1 DUP3 GT ISZERO PUSH2 0x441 JUMPI PUSH1 0x0 DUP1 REVERT JUMPDEST SWAP1 DUP5 ADD SWAP1 PUSH1 0xC0 DUP3 DUP8 SUB SLT ISZERO PUSH2 0x455 JUMPI PUSH1 0x0 DUP1 REVERT JUMPDEST SWAP1 SWAP3 POP PUSH1 0x20 DUP5 ADD CALLDATALOAD SWAP1 DUP1 DUP3 GT ISZERO PUSH2 0x46B JUMPI PUSH1 0x0 DUP1 REVERT JUMPDEST POP DUP4 ADD PUSH2 0x200 DUP2 DUP7 SUB SLT ISZERO PUSH2 0x47F JUMPI PUSH1 0x0 DUP1 REVERT JUMPDEST DUP1 SWAP2 POP POP SWAP3 POP SWAP3 SWAP1 POP JUMP JUMPDEST PUSH1 0x0 PUSH1 0x20 DUP3 DUP5 SUB SLT ISZERO PUSH2 0x49C JUMPI PUSH1 0x0 DUP1 REVERT JUMPDEST DUP2 CALLDATALOAD PUSH1 0x1 PUSH1 0x1 PUSH1 0xA0 SHL SUB DUP2 AND DUP2 EQ PUSH2 0x4B3 JUMPI PUSH1 0x0 DUP1 REVERT JUMPDEST SWAP4 SWAP3 POP POP POP JUMP INVALID LOG2 PUSH5 0x6970667358 0x22 SLT KECCAK256 LOG3 0xDF JUMPDEST PUSH23 0xF3299F9973784E839FE42236312F53315FCF58FF3C60FF 0xEE ADD 0xCE 0xE6 LOG3 PUSH5 0x736F6C6343 STOP ADDMOD GT STOP CALLER "
				},
				"gasEstimates": {
					"creation": {
						"codeDepositCost": "252800",
						"executionCost": "infinite",
						"totalCost": "infinite"
					},
					"external": {
						"ACTIVITY_ADDRESS()": "2382",
						"PROTOCOL_FEE()": "infinite",
						"canExecuteBuy((bool,address,uint256,uint256,uint256,bytes),(bool,address,address,uint256,uint256,uint256,address,address,uint256,uint256,uint256,uint256,bytes,uint8,bytes32,bytes32))": "3045",
						"canExecuteSell((bool,address,uint256,uint256,uint256,bytes),(bool,address,address,uint256,uint256,uint256,address,address,uint256,uint256,uint256,uint256,bytes,uint8,bytes32,bytes32))": "787",
						"owner()": "2331",
						"renounceOwnership()": "infinite",
						"setFreeAddress(address)": "27883",
						"transferOwnership(address)": "28386",
						"viewProtocolFee()": "infinite"
					}
				},
				"methodIdentifiers": {
					"ACTIVITY_ADDRESS()": "5ddcd564",
					"PROTOCOL_FEE()": "0b4501fd",
					"canExecuteBuy((bool,address,uint256,uint256,uint256,bytes),(bool,address,address,uint256,uint256,uint256,address,address,uint256,uint256,uint256,uint256,bytes,uint8,bytes32,bytes32))": "2a75ffee",
					"canExecuteSell((bool,address,uint256,uint256,uint256,bytes),(bool,address,address,uint256,uint256,uint256,address,address,uint256,uint256,uint256,uint256,bytes,uint8,bytes32,bytes32))": "d310677d",
					"owner()": "8da5cb5b",
					"renounceOwnership()": "715018a6",
					"setFreeAddress(address)": "b2d234fb",
					"transferOwnership(address)": "f2fde38b",
					"viewProtocolFee()": "9dd1cda6"
				}
			},
			"storageLayout": {
				"storage": [
					{
						"astId": 7,
						"contract": "contracts/Manager/execution/StrategyActivity.sol:StrategyAct",
						"label": "_owner",
						"offset": 0,
						"slot": "0",
						"type": "t_address"
					},
					{
						"astId": 151,
						"contract": "contracts/Manager/execution/StrategyActivity.sol:StrategyAct",
						"label": "ACTIVITY_ADDRESS",
						"offset": 0,
						"slot": "1",
						"type": "t_address"
					}
				],
				"types": {
					"t_address": {
						"encoding": "inplace",
						"label": "address",
						"numberOfBytes": "20"
					}
				}
			},
			"userdoc": {
				"kind": "user",
				"methods": {
					"constructor": {
						"notice": "Constructor"
					}
				},
				"notice": "Strategy that executes an order at a fixed price that can be taken either by a bid or an ask.",
				"version": 1
			}
		}
	}
}