{
	"contracts/Manager/execution/StrategySpriceHana.sol": {
		"StrategyFixedPrice": {
			"abi": [
				{
					"inputs": [
						{
							"internalType": "uint256",
							"name": "_protocolFee",
							"type": "uint256"
						}
					],
					"stateMutability": "nonpayable",
					"type": "constructor"
				},
				{
					"inputs": [],
					"name": "PROTOCOL_FEE",
					"outputs": [
						{
							"internalType": "uint256",
							"name": "",
							"type": "uint256"
						}
					],
					"stateMutability": "view",
					"type": "function"
				},
				{
					"inputs": [
						{
							"components": [
								{
									"internalType": "bool",
									"name": "isOrderAsk",
									"type": "bool"
								},
								{
									"internalType": "address",
									"name": "taker",
									"type": "address"
								},
								{
									"internalType": "uint256",
									"name": "price",
									"type": "uint256"
								},
								{
									"internalType": "uint256",
									"name": "tokenId",
									"type": "uint256"
								},
								{
									"internalType": "uint256",
									"name": "minPercentageToAsk",
									"type": "uint256"
								},
								{
									"internalType": "bytes",
									"name": "params",
									"type": "bytes"
								}
							],
							"internalType": "struct OrderTypes.TakerOrder",
							"name": "takerAsk",
							"type": "tuple"
						},
						{
							"components": [
								{
									"internalType": "bool",
									"name": "isOrderAsk",
									"type": "bool"
								},
								{
									"internalType": "address",
									"name": "signer",
									"type": "address"
								},
								{
									"internalType": "address",
									"name": "collection",
									"type": "address"
								},
								{
									"internalType": "uint256",
									"name": "price",
									"type": "uint256"
								},
								{
									"internalType": "uint256",
									"name": "tokenId",
									"type": "uint256"
								},
								{
									"internalType": "uint256",
									"name": "amount",
									"type": "uint256"
								},
								{
									"internalType": "address",
									"name": "strategy",
									"type": "address"
								},
								{
									"internalType": "address",
									"name": "currency",
									"type": "address"
								},
								{
									"internalType": "uint256",
									"name": "nonce",
									"type": "uint256"
								},
								{
									"internalType": "uint256",
									"name": "startTime",
									"type": "uint256"
								},
								{
									"internalType": "uint256",
									"name": "endTime",
									"type": "uint256"
								},
								{
									"internalType": "uint256",
									"name": "minPercentageToAsk",
									"type": "uint256"
								},
								{
									"internalType": "bytes",
									"name": "params",
									"type": "bytes"
								},
								{
									"internalType": "uint8",
									"name": "v",
									"type": "uint8"
								},
								{
									"internalType": "bytes32",
									"name": "r",
									"type": "bytes32"
								},
								{
									"internalType": "bytes32",
									"name": "s",
									"type": "bytes32"
								}
							],
							"internalType": "struct OrderTypes.MakerOrder",
							"name": "makerBid",
							"type": "tuple"
						}
					],
					"name": "canExecuteBuy",
					"outputs": [
						{
							"internalType": "bool",
							"name": "",
							"type": "bool"
						},
						{
							"internalType": "uint256",
							"name": "",
							"type": "uint256"
						},
						{
							"internalType": "uint256",
							"name": "",
							"type": "uint256"
						}
					],
					"stateMutability": "view",
					"type": "function"
				},
				{
					"inputs": [
						{
							"components": [
								{
									"internalType": "bool",
									"name": "isOrderAsk",
									"type": "bool"
								},
								{
									"internalType": "address",
									"name": "taker",
									"type": "address"
								},
								{
									"internalType": "uint256",
									"name": "price",
									"type": "uint256"
								},
								{
									"internalType": "uint256",
									"name": "tokenId",
									"type": "uint256"
								},
								{
									"internalType": "uint256",
									"name": "minPercentageToAsk",
									"type": "uint256"
								},
								{
									"internalType": "bytes",
									"name": "params",
									"type": "bytes"
								}
							],
							"internalType": "struct OrderTypes.TakerOrder",
							"name": "takerBid",
							"type": "tuple"
						},
						{
							"components": [
								{
									"internalType": "bool",
									"name": "isOrderAsk",
									"type": "bool"
								},
								{
									"internalType": "address",
									"name": "signer",
									"type": "address"
								},
								{
									"internalType": "address",
									"name": "collection",
									"type": "address"
								},
								{
									"internalType": "uint256",
									"name": "price",
									"type": "uint256"
								},
								{
									"internalType": "uint256",
									"name": "tokenId",
									"type": "uint256"
								},
								{
									"internalType": "uint256",
									"name": "amount",
									"type": "uint256"
								},
								{
									"internalType": "address",
									"name": "strategy",
									"type": "address"
								},
								{
									"internalType": "address",
									"name": "currency",
									"type": "address"
								},
								{
									"internalType": "uint256",
									"name": "nonce",
									"type": "uint256"
								},
								{
									"internalType": "uint256",
									"name": "startTime",
									"type": "uint256"
								},
								{
									"internalType": "uint256",
									"name": "endTime",
									"type": "uint256"
								},
								{
									"internalType": "uint256",
									"name": "minPercentageToAsk",
									"type": "uint256"
								},
								{
									"internalType": "bytes",
									"name": "params",
									"type": "bytes"
								},
								{
									"internalType": "uint8",
									"name": "v",
									"type": "uint8"
								},
								{
									"internalType": "bytes32",
									"name": "r",
									"type": "bytes32"
								},
								{
									"internalType": "bytes32",
									"name": "s",
									"type": "bytes32"
								}
							],
							"internalType": "struct OrderTypes.MakerOrder",
							"name": "makerAsk",
							"type": "tuple"
						}
					],
					"name": "canExecuteSell",
					"outputs": [
						{
							"internalType": "bool",
							"name": "",
							"type": "bool"
						},
						{
							"internalType": "uint256",
							"name": "",
							"type": "uint256"
						},
						{
							"internalType": "uint256",
							"name": "",
							"type": "uint256"
						}
					],
					"stateMutability": "view",
					"type": "function"
				},
				{
					"inputs": [],
					"name": "viewProtocolFee",
					"outputs": [
						{
							"internalType": "uint256",
							"name": "",
							"type": "uint256"
						}
					],
					"stateMutability": "view",
					"type": "function"
				}
			],
			"devdoc": {
				"kind": "dev",
				"methods": {
					"constructor": {
						"params": {
							"_protocolFee": "protocol fee (200 --> 2%, 400 --> 4%)"
						}
					}
				},
				"title": "StrategyStandardSaleForFixedPrice",
				"version": 1
			},
			"evm": {
				"assembly": "    /* \"contracts/Manager/execution/StrategySpriceHana.sol\":345:2612  contract StrategyFixedPrice is TheExStrategy {... */\n  mstore(0x40, 0xa0)\n    /* \"contracts/Manager/execution/StrategySpriceHana.sol\":548:626  constructor(uint256 _protocolFee) {... */\n  callvalue\n  dup1\n  iszero\n  tag_1\n  jumpi\n  0x00\n  dup1\n  revert\ntag_1:\n  pop\n  mload(0x40)\n  sub(codesize, bytecodeSize)\n  dup1\n  bytecodeSize\n  dup4\n  codecopy\n  dup2\n  add\n  0x40\n  dup2\n  swap1\n  mstore\n  tag_2\n  swap2\n  tag_3\n  jump\t// in\ntag_2:\n    /* \"contracts/Manager/execution/StrategySpriceHana.sol\":592:619  PROTOCOL_FEE = _protocolFee */\n  0x80\n  mstore\n    /* \"contracts/Manager/execution/StrategySpriceHana.sol\":345:2612  contract StrategyFixedPrice is TheExStrategy {... */\n  jump(tag_7)\n    /* \"#utility.yul\":14:198   */\ntag_3:\n    /* \"#utility.yul\":84:90   */\n  0x00\n    /* \"#utility.yul\":137:139   */\n  0x20\n    /* \"#utility.yul\":125:134   */\n  dup3\n    /* \"#utility.yul\":116:123   */\n  dup5\n    /* \"#utility.yul\":112:135   */\n  sub\n    /* \"#utility.yul\":108:140   */\n  slt\n    /* \"#utility.yul\":105:157   */\n  iszero\n  tag_9\n  jumpi\n    /* \"#utility.yul\":153:154   */\n  0x00\n    /* \"#utility.yul\":150:151   */\n  dup1\n    /* \"#utility.yul\":143:155   */\n  revert\n    /* \"#utility.yul\":105:157   */\ntag_9:\n  pop\n    /* \"#utility.yul\":176:192   */\n  mload\n  swap2\n    /* \"#utility.yul\":14:198   */\n  swap1\n  pop\n  jump\t// out\ntag_7:\n    /* \"contracts/Manager/execution/StrategySpriceHana.sol\":345:2612  contract StrategyFixedPrice is TheExStrategy {... */\n  mload(0x80)\n  codecopy(0x00, dataOffset(sub_0), dataSize(sub_0))\n  0x00\n  assignImmutable(\"0x1a192fabce13988b84994d4296e6cdc418d55e2f1d7f942188d4040b94fc57ac\")\n  return(0x00, dataSize(sub_0))\nstop\n\nsub_0: assembly {\n        /* \"contracts/Manager/execution/StrategySpriceHana.sol\":345:2612  contract StrategyFixedPrice is TheExStrategy {... */\n      mstore(0x40, 0x80)\n      callvalue\n      dup1\n      iszero\n      tag_1\n      jumpi\n      0x00\n      dup1\n      revert\n    tag_1:\n      pop\n      jumpi(tag_2, lt(calldatasize, 0x04))\n      shr(0xe0, calldataload(0x00))\n      dup1\n      0x0b4501fd\n      eq\n      tag_3\n      jumpi\n      dup1\n      0x2a75ffee\n      eq\n      tag_4\n      jumpi\n      dup1\n      0x9dd1cda6\n      eq\n      tag_5\n      jumpi\n      dup1\n      0xd310677d\n      eq\n      tag_6\n      jumpi\n    tag_2:\n      0x00\n      dup1\n      revert\n        /* \"contracts/Manager/execution/StrategySpriceHana.sol\":396:433  uint256 public immutable PROTOCOL_FEE */\n    tag_3:\n      tag_7\n      immutable(\"0x1a192fabce13988b84994d4296e6cdc418d55e2f1d7f942188d4040b94fc57ac\")\n      dup2\n      jump\n    tag_7:\n      mload(0x40)\n        /* \"#utility.yul\":160:185   */\n      swap1\n      dup2\n      mstore\n        /* \"#utility.yul\":148:150   */\n      0x20\n        /* \"#utility.yul\":133:151   */\n      add\n        /* \"contracts/Manager/execution/StrategySpriceHana.sol\":396:433  uint256 public immutable PROTOCOL_FEE */\n    tag_9:\n      mload(0x40)\n      dup1\n      swap2\n      sub\n      swap1\n      return\n        /* \"contracts/Manager/execution/StrategySpriceHana.sol\":822:1532  function canExecuteBuy(OrderTypes.TakerOrder calldata takerAsk, OrderTypes.MakerOrder calldata makerBid)... */\n    tag_4:\n      tag_11\n      tag_12\n      calldatasize\n      0x04\n      tag_13\n      jump\t// in\n    tag_12:\n      tag_14\n      jump\t// in\n    tag_11:\n      0x40\n      dup1\n      mload\n        /* \"#utility.yul\":1099:1113   */\n      swap4\n      iszero\n        /* \"#utility.yul\":1092:1114   */\n      iszero\n        /* \"#utility.yul\":1074:1115   */\n      dup5\n      mstore\n        /* \"#utility.yul\":1146:1148   */\n      0x20\n        /* \"#utility.yul\":1131:1149   */\n      dup5\n      add\n        /* \"#utility.yul\":1124:1158   */\n      swap3\n      swap1\n      swap3\n      mstore\n        /* \"#utility.yul\":1174:1192   */\n      swap1\n      dup3\n      add\n        /* \"#utility.yul\":1167:1201   */\n      mstore\n        /* \"#utility.yul\":1062:1064   */\n      0x60\n        /* \"#utility.yul\":1047:1065   */\n      add\n        /* \"contracts/Manager/execution/StrategySpriceHana.sol\":822:1532  function canExecuteBuy(OrderTypes.TakerOrder calldata takerAsk, OrderTypes.MakerOrder calldata makerBid)... */\n      tag_9\n        /* \"#utility.yul\":878:1207   */\n      jump\n        /* \"contracts/Manager/execution/StrategySpriceHana.sol\":2506:2610  function viewProtocolFee() external view override returns (uint256) {... */\n    tag_5:\n        /* \"contracts/Manager/execution/StrategySpriceHana.sol\":2591:2603  PROTOCOL_FEE */\n      immutable(\"0x1a192fabce13988b84994d4296e6cdc418d55e2f1d7f942188d4040b94fc57ac\")\n        /* \"contracts/Manager/execution/StrategySpriceHana.sol\":2506:2610  function viewProtocolFee() external view override returns (uint256) {... */\n      jump(tag_7)\n        /* \"contracts/Manager/execution/StrategySpriceHana.sol\":1719:2375  function canExecuteSell(OrderTypes.TakerOrder calldata takerBid, OrderTypes.MakerOrder calldata makerAsk)... */\n    tag_6:\n      tag_11\n      tag_21\n      calldatasize\n      0x04\n      tag_13\n      jump\t// in\n    tag_21:\n      tag_22\n      jump\t// in\n        /* \"contracts/Manager/execution/StrategySpriceHana.sol\":822:1532  function canExecuteBuy(OrderTypes.TakerOrder calldata takerAsk, OrderTypes.MakerOrder calldata makerBid)... */\n    tag_14:\n        /* \"contracts/Manager/execution/StrategySpriceHana.sol\":1004:1008  bool */\n      0x00\n        /* \"contracts/Manager/execution/StrategySpriceHana.sol\":1022:1029  uint256 */\n      dup1\n        /* \"contracts/Manager/execution/StrategySpriceHana.sol\":1043:1050  uint256 */\n      0x00\n        /* \"contracts/Manager/execution/StrategySpriceHana.sol\":1215:1223  takerAsk */\n      dup5\n        /* \"contracts/Manager/execution/StrategySpriceHana.sol\":1215:1229  takerAsk.price */\n      0x40\n      add\n      calldataload\n        /* \"contracts/Manager/execution/StrategySpriceHana.sol\":1197:1205  makerBid */\n      dup5\n        /* \"contracts/Manager/execution/StrategySpriceHana.sol\":1197:1211  makerBid.price */\n      0x60\n      add\n      calldataload\n        /* \"contracts/Manager/execution/StrategySpriceHana.sol\":1197:1229  makerBid.price == takerAsk.price */\n      eq\n        /* \"contracts/Manager/execution/StrategySpriceHana.sol\":1196:1288  (makerBid.price == takerAsk.price) &&... */\n      dup1\n      iszero\n      tag_25\n      jumpi\n      pop\n        /* \"contracts/Manager/execution/StrategySpriceHana.sol\":1271:1279  takerAsk */\n      dup5\n        /* \"contracts/Manager/execution/StrategySpriceHana.sol\":1271:1287  takerAsk.tokenId */\n      0x60\n      add\n      calldataload\n        /* \"contracts/Manager/execution/StrategySpriceHana.sol\":1251:1259  makerBid */\n      dup5\n        /* \"contracts/Manager/execution/StrategySpriceHana.sol\":1251:1267  makerBid.tokenId */\n      0x80\n      add\n      calldataload\n        /* \"contracts/Manager/execution/StrategySpriceHana.sol\":1251:1287  makerBid.tokenId == takerAsk.tokenId */\n      eq\n        /* \"contracts/Manager/execution/StrategySpriceHana.sol\":1196:1288  (makerBid.price == takerAsk.price) &&... */\n    tag_25:\n        /* \"contracts/Manager/execution/StrategySpriceHana.sol\":1196:1347  (makerBid.price == takerAsk.price) &&... */\n      dup1\n      iszero\n      tag_26\n      jumpi\n      pop\n        /* \"contracts/Manager/execution/StrategySpriceHana.sol\":1331:1346  block.timestamp */\n      timestamp\n        /* \"contracts/Manager/execution/StrategySpriceHana.sol\":1309:1317  makerBid */\n      dup5\n        /* \"contracts/Manager/execution/StrategySpriceHana.sol\":1309:1327  makerBid.startTime */\n      0x0120\n      add\n      calldataload\n        /* \"contracts/Manager/execution/StrategySpriceHana.sol\":1309:1346  makerBid.startTime <= block.timestamp */\n      gt\n      iszero\n        /* \"contracts/Manager/execution/StrategySpriceHana.sol\":1196:1347  (makerBid.price == takerAsk.price) &&... */\n    tag_26:\n        /* \"contracts/Manager/execution/StrategySpriceHana.sol\":1196:1404  (makerBid.price == takerAsk.price) &&... */\n      dup1\n      iszero\n      tag_27\n      jumpi\n      pop\n        /* \"contracts/Manager/execution/StrategySpriceHana.sol\":1388:1403  block.timestamp */\n      timestamp\n        /* \"contracts/Manager/execution/StrategySpriceHana.sol\":1368:1376  makerBid */\n      dup5\n        /* \"contracts/Manager/execution/StrategySpriceHana.sol\":1368:1384  makerBid.endTime */\n      0x0140\n      add\n      calldataload\n        /* \"contracts/Manager/execution/StrategySpriceHana.sol\":1368:1403  makerBid.endTime >= block.timestamp */\n      lt\n      iszero\n        /* \"contracts/Manager/execution/StrategySpriceHana.sol\":1196:1404  (makerBid.price == takerAsk.price) &&... */\n    tag_27:\n        /* \"contracts/Manager/execution/StrategySpriceHana.sol\":1196:1455  (makerBid.price == takerAsk.price) &&... */\n      dup1\n      iszero\n      tag_28\n      jumpi\n      pop\n        /* \"contracts/Manager/execution/StrategySpriceHana.sol\":1453:1454  9 */\n      0x09\n        /* \"contracts/Manager/execution/StrategySpriceHana.sol\":1423:1442  makerBid.collection */\n      tag_29\n      0x60\n      dup7\n      add\n      0x40\n      dup8\n      add\n      tag_30\n      jump\t// in\n    tag_29:\n      sub(shl(0xa0, 0x01), 0x01)\n        /* \"contracts/Manager/execution/StrategySpriceHana.sol\":1423:1455  makerBid.collection ==address(9) */\n      and\n      eq\n        /* \"contracts/Manager/execution/StrategySpriceHana.sol\":1196:1455  (makerBid.price == takerAsk.price) &&... */\n    tag_28:\n        /* \"contracts/Manager/execution/StrategySpriceHana.sol\":1187:1525  return (((makerBid.price == takerAsk.price) &&... */\n      swap3\n      pop\n      pop\n      pop\n        /* \"contracts/Manager/execution/StrategySpriceHana.sol\":1470:1486  makerBid.tokenId */\n      0x80\n      dup3\n      add\n      calldataload\n        /* \"contracts/Manager/execution/StrategySpriceHana.sol\":1500:1515  makerBid.amount */\n      0xa0\n      dup4\n      add\n      calldataload\n        /* \"contracts/Manager/execution/StrategySpriceHana.sol\":822:1532  function canExecuteBuy(OrderTypes.TakerOrder calldata takerAsk, OrderTypes.MakerOrder calldata makerBid)... */\n      swap3\n      pop\n      swap3\n      pop\n      swap3\n      jump\t// out\n        /* \"contracts/Manager/execution/StrategySpriceHana.sol\":1719:2375  function canExecuteSell(OrderTypes.TakerOrder calldata takerBid, OrderTypes.MakerOrder calldata makerAsk)... */\n    tag_22:\n        /* \"contracts/Manager/execution/StrategySpriceHana.sol\":1902:1906  bool */\n      0x00\n        /* \"contracts/Manager/execution/StrategySpriceHana.sol\":1920:1927  uint256 */\n      dup1\n        /* \"contracts/Manager/execution/StrategySpriceHana.sol\":1941:1948  uint256 */\n      0x00\n        /* \"contracts/Manager/execution/StrategySpriceHana.sol\":2109:2117  takerBid */\n      dup5\n        /* \"contracts/Manager/execution/StrategySpriceHana.sol\":2109:2123  takerBid.price */\n      0x40\n      add\n      calldataload\n        /* \"contracts/Manager/execution/StrategySpriceHana.sol\":2091:2099  makerAsk */\n      dup5\n        /* \"contracts/Manager/execution/StrategySpriceHana.sol\":2091:2105  makerAsk.price */\n      0x60\n      add\n      calldataload\n        /* \"contracts/Manager/execution/StrategySpriceHana.sol\":2091:2123  makerAsk.price == takerBid.price */\n      eq\n        /* \"contracts/Manager/execution/StrategySpriceHana.sol\":2090:2182  (makerAsk.price == takerBid.price) &&... */\n      dup1\n      iszero\n      tag_33\n      jumpi\n      pop\n        /* \"contracts/Manager/execution/StrategySpriceHana.sol\":2165:2173  takerBid */\n      dup5\n        /* \"contracts/Manager/execution/StrategySpriceHana.sol\":2165:2181  takerBid.tokenId */\n      0x60\n      add\n      calldataload\n        /* \"contracts/Manager/execution/StrategySpriceHana.sol\":2145:2153  makerAsk */\n      dup5\n        /* \"contracts/Manager/execution/StrategySpriceHana.sol\":2145:2161  makerAsk.tokenId */\n      0x80\n      add\n      calldataload\n        /* \"contracts/Manager/execution/StrategySpriceHana.sol\":2145:2181  makerAsk.tokenId == takerBid.tokenId */\n      eq\n        /* \"contracts/Manager/execution/StrategySpriceHana.sol\":2090:2182  (makerAsk.price == takerBid.price) &&... */\n    tag_33:\n        /* \"contracts/Manager/execution/StrategySpriceHana.sol\":2090:2241  (makerAsk.price == takerBid.price) &&... */\n      dup1\n      iszero\n      tag_34\n      jumpi\n      pop\n        /* \"contracts/Manager/execution/StrategySpriceHana.sol\":2225:2240  block.timestamp */\n      timestamp\n        /* \"contracts/Manager/execution/StrategySpriceHana.sol\":2203:2211  makerAsk */\n      dup5\n        /* \"contracts/Manager/execution/StrategySpriceHana.sol\":2203:2221  makerAsk.startTime */\n      0x0120\n      add\n      calldataload\n        /* \"contracts/Manager/execution/StrategySpriceHana.sol\":2203:2240  makerAsk.startTime <= block.timestamp */\n      gt\n      iszero\n        /* \"contracts/Manager/execution/StrategySpriceHana.sol\":2090:2241  (makerAsk.price == takerBid.price) &&... */\n    tag_34:\n        /* \"contracts/Manager/execution/StrategySpriceHana.sol\":2090:2298  (makerAsk.price == takerBid.price) &&... */\n      dup1\n      iszero\n      tag_28\n      jumpi\n      pop\n        /* \"contracts/Manager/execution/StrategySpriceHana.sol\":2282:2297  block.timestamp */\n      timestamp\n        /* \"contracts/Manager/execution/StrategySpriceHana.sol\":2262:2270  makerAsk */\n      dup5\n        /* \"contracts/Manager/execution/StrategySpriceHana.sol\":2262:2278  makerAsk.endTime */\n      0x0140\n      add\n      calldataload\n        /* \"contracts/Manager/execution/StrategySpriceHana.sol\":2262:2297  makerAsk.endTime >= block.timestamp */\n      lt\n      iszero\n        /* \"contracts/Manager/execution/StrategySpriceHana.sol\":2068:2368  return (... */\n      swap3\n      pop\n      pop\n      pop\n        /* \"contracts/Manager/execution/StrategySpriceHana.sol\":2313:2329  makerAsk.tokenId */\n      0x80\n      dup3\n      add\n      calldataload\n        /* \"contracts/Manager/execution/StrategySpriceHana.sol\":2343:2358  makerAsk.amount */\n      0xa0\n      dup4\n      add\n      calldataload\n        /* \"contracts/Manager/execution/StrategySpriceHana.sol\":1719:2375  function canExecuteSell(OrderTypes.TakerOrder calldata takerBid, OrderTypes.MakerOrder calldata makerAsk)... */\n      swap3\n      pop\n      swap3\n      pop\n      swap3\n      jump\t// out\n        /* \"#utility.yul\":196:873   */\n    tag_13:\n        /* \"#utility.yul\":322:328   */\n      0x00\n        /* \"#utility.yul\":330:336   */\n      dup1\n        /* \"#utility.yul\":383:385   */\n      0x40\n        /* \"#utility.yul\":371:380   */\n      dup4\n        /* \"#utility.yul\":362:369   */\n      dup6\n        /* \"#utility.yul\":358:381   */\n      sub\n        /* \"#utility.yul\":354:386   */\n      slt\n        /* \"#utility.yul\":351:403   */\n      iszero\n      tag_39\n      jumpi\n        /* \"#utility.yul\":399:400   */\n      0x00\n        /* \"#utility.yul\":396:397   */\n      dup1\n        /* \"#utility.yul\":389:401   */\n      revert\n        /* \"#utility.yul\":351:403   */\n    tag_39:\n        /* \"#utility.yul\":439:448   */\n      dup3\n        /* \"#utility.yul\":426:449   */\n      calldataload\n        /* \"#utility.yul\":468:486   */\n      0xffffffffffffffff\n        /* \"#utility.yul\":509:511   */\n      dup1\n        /* \"#utility.yul\":501:507   */\n      dup3\n        /* \"#utility.yul\":498:512   */\n      gt\n        /* \"#utility.yul\":495:529   */\n      iszero\n      tag_40\n      jumpi\n        /* \"#utility.yul\":525:526   */\n      0x00\n        /* \"#utility.yul\":522:523   */\n      dup1\n        /* \"#utility.yul\":515:527   */\n      revert\n        /* \"#utility.yul\":495:529   */\n    tag_40:\n        /* \"#utility.yul\":548:570   */\n      swap1\n      dup5\n      add\n      swap1\n        /* \"#utility.yul\":604:607   */\n      0xc0\n        /* \"#utility.yul\":586:602   */\n      dup3\n      dup8\n      sub\n        /* \"#utility.yul\":582:608   */\n      slt\n        /* \"#utility.yul\":579:625   */\n      iszero\n      tag_41\n      jumpi\n        /* \"#utility.yul\":621:622   */\n      0x00\n        /* \"#utility.yul\":618:619   */\n      dup1\n        /* \"#utility.yul\":611:623   */\n      revert\n        /* \"#utility.yul\":579:625   */\n    tag_41:\n        /* \"#utility.yul\":644:646   */\n      swap1\n      swap3\n      pop\n        /* \"#utility.yul\":699:701   */\n      0x20\n        /* \"#utility.yul\":684:702   */\n      dup5\n      add\n        /* \"#utility.yul\":671:703   */\n      calldataload\n      swap1\n        /* \"#utility.yul\":715:731   */\n      dup1\n      dup3\n      gt\n        /* \"#utility.yul\":712:748   */\n      iszero\n      tag_42\n      jumpi\n        /* \"#utility.yul\":744:745   */\n      0x00\n        /* \"#utility.yul\":741:742   */\n      dup1\n        /* \"#utility.yul\":734:746   */\n      revert\n        /* \"#utility.yul\":712:748   */\n    tag_42:\n      pop\n        /* \"#utility.yul\":767:791   */\n      dup4\n      add\n        /* \"#utility.yul\":825:828   */\n      0x0200\n        /* \"#utility.yul\":807:823   */\n      dup2\n      dup7\n      sub\n        /* \"#utility.yul\":803:829   */\n      slt\n        /* \"#utility.yul\":800:846   */\n      iszero\n      tag_43\n      jumpi\n        /* \"#utility.yul\":842:843   */\n      0x00\n        /* \"#utility.yul\":839:840   */\n      dup1\n        /* \"#utility.yul\":832:844   */\n      revert\n        /* \"#utility.yul\":800:846   */\n    tag_43:\n        /* \"#utility.yul\":865:867   */\n      dup1\n        /* \"#utility.yul\":855:867   */\n      swap2\n      pop\n      pop\n        /* \"#utility.yul\":196:873   */\n      swap3\n      pop\n      swap3\n      swap1\n      pop\n      jump\t// out\n        /* \"#utility.yul\":1212:1498   */\n    tag_30:\n        /* \"#utility.yul\":1271:1277   */\n      0x00\n        /* \"#utility.yul\":1324:1326   */\n      0x20\n        /* \"#utility.yul\":1312:1321   */\n      dup3\n        /* \"#utility.yul\":1303:1310   */\n      dup5\n        /* \"#utility.yul\":1299:1322   */\n      sub\n        /* \"#utility.yul\":1295:1327   */\n      slt\n        /* \"#utility.yul\":1292:1344   */\n      iszero\n      tag_46\n      jumpi\n        /* \"#utility.yul\":1340:1341   */\n      0x00\n        /* \"#utility.yul\":1337:1338   */\n      dup1\n        /* \"#utility.yul\":1330:1342   */\n      revert\n        /* \"#utility.yul\":1292:1344   */\n    tag_46:\n        /* \"#utility.yul\":1366:1389   */\n      dup2\n      calldataload\n      sub(shl(0xa0, 0x01), 0x01)\n        /* \"#utility.yul\":1418:1449   */\n      dup2\n      and\n        /* \"#utility.yul\":1408:1450   */\n      dup2\n      eq\n        /* \"#utility.yul\":1398:1468   */\n      tag_47\n      jumpi\n        /* \"#utility.yul\":1464:1465   */\n      0x00\n        /* \"#utility.yul\":1461:1462   */\n      dup1\n        /* \"#utility.yul\":1454:1466   */\n      revert\n        /* \"#utility.yul\":1398:1468   */\n    tag_47:\n        /* \"#utility.yul\":1487:1492   */\n      swap4\n        /* \"#utility.yul\":1212:1498   */\n      swap3\n      pop\n      pop\n      pop\n      jump\t// out\n\n    auxdata: 0xa2646970667358221220f513a645fa7449006acb18ddea0bf142440ec5aaa8cb8ddeeb697f80d0d9ac7664736f6c63430008110033\n}\n",
				"bytecode": {
					"linkReferences": {},
					"object": "60a060405234801561001057600080fd5b5060405161031538038061031583398101604081905261002f91610037565b608052610050565b60006020828403121561004957600080fd5b5051919050565b6080516102a5610070600039600081816056015260bd01526102a56000f3fe608060405234801561001057600080fd5b506004361061004c5760003560e01c80630b4501fd146100515780632a75ffee1461008b5780639dd1cda6146100bb578063d310677d146100e1575b600080fd5b6100787f000000000000000000000000000000000000000000000000000000000000000081565b6040519081526020015b60405180910390f35b61009e6100993660046101cb565b6100f4565b604080519315158452602084019290925290820152606001610082565b7f0000000000000000000000000000000000000000000000000000000000000000610078565b61009e6100ef3660046101cb565b610172565b600080600084604001358460600135148015610117575084606001358460800135145b801561012857504284610120013511155b801561013957504284610140013510155b801561015d57506009610152606086016040870161023f565b6001600160a01b0316145b92505050608082013560a08301359250925092565b600080600084604001358460600135148015610195575084606001358460800135145b80156101a657504284610120013511155b801561015d575042846101400135101592505050608082013560a08301359250925092565b600080604083850312156101de57600080fd5b823567ffffffffffffffff808211156101f657600080fd5b9084019060c0828703121561020a57600080fd5b9092506020840135908082111561022057600080fd5b508301610200818603121561023457600080fd5b809150509250929050565b60006020828403121561025157600080fd5b81356001600160a01b038116811461026857600080fd5b939250505056fea2646970667358221220f513a645fa7449006acb18ddea0bf142440ec5aaa8cb8ddeeb697f80d0d9ac7664736f6c63430008110033",
					"opcodes": "PUSH1 0xA0 PUSH1 0x40 MSTORE CALLVALUE DUP1 ISZERO PUSH2 0x10 JUMPI PUSH1 0x0 DUP1 REVERT JUMPDEST POP PUSH1 0x40 MLOAD PUSH2 0x315 CODESIZE SUB DUP1 PUSH2 0x315 DUP4 CODECOPY DUP2 ADD PUSH1 0x40 DUP2 SWAP1 MSTORE PUSH2 0x2F SWAP2 PUSH2 0x37 JUMP JUMPDEST PUSH1 0x80 MSTORE PUSH2 0x50 JUMP JUMPDEST PUSH1 0x0 PUSH1 0x20 DUP3 DUP5 SUB SLT ISZERO PUSH2 0x49 JUMPI PUSH1 0x0 DUP1 REVERT JUMPDEST POP MLOAD SWAP2 SWAP1 POP JUMP JUMPDEST PUSH1 0x80 MLOAD PUSH2 0x2A5 PUSH2 0x70 PUSH1 0x0 CODECOPY PUSH1 0x0 DUP2 DUP2 PUSH1 0x56 ADD MSTORE PUSH1 0xBD ADD MSTORE PUSH2 0x2A5 PUSH1 0x0 RETURN INVALID PUSH1 0x80 PUSH1 0x40 MSTORE CALLVALUE DUP1 ISZERO PUSH2 0x10 JUMPI PUSH1 0x0 DUP1 REVERT JUMPDEST POP PUSH1 0x4 CALLDATASIZE LT PUSH2 0x4C JUMPI PUSH1 0x0 CALLDATALOAD PUSH1 0xE0 SHR DUP1 PUSH4 0xB4501FD EQ PUSH2 0x51 JUMPI DUP1 PUSH4 0x2A75FFEE EQ PUSH2 0x8B JUMPI DUP1 PUSH4 0x9DD1CDA6 EQ PUSH2 0xBB JUMPI DUP1 PUSH4 0xD310677D EQ PUSH2 0xE1 JUMPI JUMPDEST PUSH1 0x0 DUP1 REVERT JUMPDEST PUSH2 0x78 PUSH32 0x0 DUP2 JUMP JUMPDEST PUSH1 0x40 MLOAD SWAP1 DUP2 MSTORE PUSH1 0x20 ADD JUMPDEST PUSH1 0x40 MLOAD DUP1 SWAP2 SUB SWAP1 RETURN JUMPDEST PUSH2 0x9E PUSH2 0x99 CALLDATASIZE PUSH1 0x4 PUSH2 0x1CB JUMP JUMPDEST PUSH2 0xF4 JUMP JUMPDEST PUSH1 0x40 DUP1 MLOAD SWAP4 ISZERO ISZERO DUP5 MSTORE PUSH1 0x20 DUP5 ADD SWAP3 SWAP1 SWAP3 MSTORE SWAP1 DUP3 ADD MSTORE PUSH1 0x60 ADD PUSH2 0x82 JUMP JUMPDEST PUSH32 0x0 PUSH2 0x78 JUMP JUMPDEST PUSH2 0x9E PUSH2 0xEF CALLDATASIZE PUSH1 0x4 PUSH2 0x1CB JUMP JUMPDEST PUSH2 0x172 JUMP JUMPDEST PUSH1 0x0 DUP1 PUSH1 0x0 DUP5 PUSH1 0x40 ADD CALLDATALOAD DUP5 PUSH1 0x60 ADD CALLDATALOAD EQ DUP1 ISZERO PUSH2 0x117 JUMPI POP DUP5 PUSH1 0x60 ADD CALLDATALOAD DUP5 PUSH1 0x80 ADD CALLDATALOAD EQ JUMPDEST DUP1 ISZERO PUSH2 0x128 JUMPI POP TIMESTAMP DUP5 PUSH2 0x120 ADD CALLDATALOAD GT ISZERO JUMPDEST DUP1 ISZERO PUSH2 0x139 JUMPI POP TIMESTAMP DUP5 PUSH2 0x140 ADD CALLDATALOAD LT ISZERO JUMPDEST DUP1 ISZERO PUSH2 0x15D JUMPI POP PUSH1 0x9 PUSH2 0x152 PUSH1 0x60 DUP7 ADD PUSH1 0x40 DUP8 ADD PUSH2 0x23F JUMP JUMPDEST PUSH1 0x1 PUSH1 0x1 PUSH1 0xA0 SHL SUB AND EQ JUMPDEST SWAP3 POP POP POP PUSH1 0x80 DUP3 ADD CALLDATALOAD PUSH1 0xA0 DUP4 ADD CALLDATALOAD SWAP3 POP SWAP3 POP SWAP3 JUMP JUMPDEST PUSH1 0x0 DUP1 PUSH1 0x0 DUP5 PUSH1 0x40 ADD CALLDATALOAD DUP5 PUSH1 0x60 ADD CALLDATALOAD EQ DUP1 ISZERO PUSH2 0x195 JUMPI POP DUP5 PUSH1 0x60 ADD CALLDATALOAD DUP5 PUSH1 0x80 ADD CALLDATALOAD EQ JUMPDEST DUP1 ISZERO PUSH2 0x1A6 JUMPI POP TIMESTAMP DUP5 PUSH2 0x120 ADD CALLDATALOAD GT ISZERO JUMPDEST DUP1 ISZERO PUSH2 0x15D JUMPI POP TIMESTAMP DUP5 PUSH2 0x140 ADD CALLDATALOAD LT ISZERO SWAP3 POP POP POP PUSH1 0x80 DUP3 ADD CALLDATALOAD PUSH1 0xA0 DUP4 ADD CALLDATALOAD SWAP3 POP SWAP3 POP SWAP3 JUMP JUMPDEST PUSH1 0x0 DUP1 PUSH1 0x40 DUP4 DUP6 SUB SLT ISZERO PUSH2 0x1DE JUMPI PUSH1 0x0 DUP1 REVERT JUMPDEST DUP3 CALLDATALOAD PUSH8 0xFFFFFFFFFFFFFFFF DUP1 DUP3 GT ISZERO PUSH2 0x1F6 JUMPI PUSH1 0x0 DUP1 REVERT JUMPDEST SWAP1 DUP5 ADD SWAP1 PUSH1 0xC0 DUP3 DUP8 SUB SLT ISZERO PUSH2 0x20A JUMPI PUSH1 0x0 DUP1 REVERT JUMPDEST SWAP1 SWAP3 POP PUSH1 0x20 DUP5 ADD CALLDATALOAD SWAP1 DUP1 DUP3 GT ISZERO PUSH2 0x220 JUMPI PUSH1 0x0 DUP1 REVERT JUMPDEST POP DUP4 ADD PUSH2 0x200 DUP2 DUP7 SUB SLT ISZERO PUSH2 0x234 JUMPI PUSH1 0x0 DUP1 REVERT JUMPDEST DUP1 SWAP2 POP POP SWAP3 POP SWAP3 SWAP1 POP JUMP JUMPDEST PUSH1 0x0 PUSH1 0x20 DUP3 DUP5 SUB SLT ISZERO PUSH2 0x251 JUMPI PUSH1 0x0 DUP1 REVERT JUMPDEST DUP2 CALLDATALOAD PUSH1 0x1 PUSH1 0x1 PUSH1 0xA0 SHL SUB DUP2 AND DUP2 EQ PUSH2 0x268 JUMPI PUSH1 0x0 DUP1 REVERT JUMPDEST SWAP4 SWAP3 POP POP POP JUMP INVALID LOG2 PUSH5 0x6970667358 0x22 SLT KECCAK256 CREATE2 SGT 0xA6 GASLIMIT STATICCALL PUSH21 0x49006ACB18DDEA0BF142440EC5AAA8CB8DDEEB697F DUP1 0xD0 0xD9 0xAC PUSH23 0x64736F6C63430008110033000000000000000000000000 "
				},
				"gasEstimates": {
					"creation": {
						"codeDepositCost": "135400",
						"executionCost": "infinite",
						"totalCost": "infinite"
					},
					"external": {
						"PROTOCOL_FEE()": "infinite",
						"canExecuteBuy((bool,address,uint256,uint256,uint256,bytes),(bool,address,address,uint256,uint256,uint256,address,address,uint256,uint256,uint256,uint256,bytes,uint8,bytes32,bytes32))": "904",
						"canExecuteSell((bool,address,uint256,uint256,uint256,bytes),(bool,address,address,uint256,uint256,uint256,address,address,uint256,uint256,uint256,uint256,bytes,uint8,bytes32,bytes32))": "765",
						"viewProtocolFee()": "infinite"
					}
				},
				"methodIdentifiers": {
					"PROTOCOL_FEE()": "0b4501fd",
					"canExecuteBuy((bool,address,uint256,uint256,uint256,bytes),(bool,address,address,uint256,uint256,uint256,address,address,uint256,uint256,uint256,uint256,bytes,uint8,bytes32,bytes32))": "2a75ffee",
					"canExecuteSell((bool,address,uint256,uint256,uint256,bytes),(bool,address,address,uint256,uint256,uint256,address,address,uint256,uint256,uint256,uint256,bytes,uint8,bytes32,bytes32))": "d310677d",
					"viewProtocolFee()": "9dd1cda6"
				}
			},
			"storageLayout": {
				"storage": [],
				"types": null
			},
			"userdoc": {
				"kind": "user",
				"methods": {
					"constructor": {
						"notice": "Constructor"
					}
				},
				"notice": "Strategy that executes an order at a fixed price that can be taken either by a bid or an ask.",
				"version": 1
			}
		}
	}
}