{
	"contracts/Manager/execution/StrategySpriceHana.sol": {
		"StrategyFixedPrice": {
			"abi": [
				{
					"inputs": [
						{
							"internalType": "uint256",
							"name": "_protocolFee",
							"type": "uint256"
						}
					],
					"stateMutability": "nonpayable",
					"type": "constructor"
				},
				{
					"inputs": [],
					"name": "FREE_ADDRESS",
					"outputs": [
						{
							"internalType": "address",
							"name": "",
							"type": "address"
						}
					],
					"stateMutability": "view",
					"type": "function"
				},
				{
					"inputs": [],
					"name": "PROTOCOL_FEE",
					"outputs": [
						{
							"internalType": "uint256",
							"name": "",
							"type": "uint256"
						}
					],
					"stateMutability": "view",
					"type": "function"
				},
				{
					"inputs": [
						{
							"components": [
								{
									"internalType": "bool",
									"name": "isOrderAsk",
									"type": "bool"
								},
								{
									"internalType": "address",
									"name": "taker",
									"type": "address"
								},
								{
									"internalType": "uint256",
									"name": "price",
									"type": "uint256"
								},
								{
									"internalType": "uint256",
									"name": "tokenId",
									"type": "uint256"
								},
								{
									"internalType": "uint256",
									"name": "minPercentageToAsk",
									"type": "uint256"
								},
								{
									"internalType": "bytes",
									"name": "params",
									"type": "bytes"
								}
							],
							"internalType": "struct OrderTypes.TakerOrder",
							"name": "takerAsk",
							"type": "tuple"
						},
						{
							"components": [
								{
									"internalType": "bool",
									"name": "isOrderAsk",
									"type": "bool"
								},
								{
									"internalType": "address",
									"name": "signer",
									"type": "address"
								},
								{
									"internalType": "address",
									"name": "collection",
									"type": "address"
								},
								{
									"internalType": "uint256",
									"name": "price",
									"type": "uint256"
								},
								{
									"internalType": "uint256",
									"name": "tokenId",
									"type": "uint256"
								},
								{
									"internalType": "uint256",
									"name": "amount",
									"type": "uint256"
								},
								{
									"internalType": "address",
									"name": "strategy",
									"type": "address"
								},
								{
									"internalType": "address",
									"name": "currency",
									"type": "address"
								},
								{
									"internalType": "uint256",
									"name": "nonce",
									"type": "uint256"
								},
								{
									"internalType": "uint256",
									"name": "startTime",
									"type": "uint256"
								},
								{
									"internalType": "uint256",
									"name": "endTime",
									"type": "uint256"
								},
								{
									"internalType": "uint256",
									"name": "minPercentageToAsk",
									"type": "uint256"
								},
								{
									"internalType": "bytes",
									"name": "params",
									"type": "bytes"
								},
								{
									"internalType": "uint8",
									"name": "v",
									"type": "uint8"
								},
								{
									"internalType": "bytes32",
									"name": "r",
									"type": "bytes32"
								},
								{
									"internalType": "bytes32",
									"name": "s",
									"type": "bytes32"
								}
							],
							"internalType": "struct OrderTypes.MakerOrder",
							"name": "makerBid",
							"type": "tuple"
						}
					],
					"name": "canExecuteBuy",
					"outputs": [
						{
							"internalType": "bool",
							"name": "",
							"type": "bool"
						},
						{
							"internalType": "uint256",
							"name": "",
							"type": "uint256"
						},
						{
							"internalType": "uint256",
							"name": "",
							"type": "uint256"
						}
					],
					"stateMutability": "view",
					"type": "function"
				},
				{
					"inputs": [
						{
							"components": [
								{
									"internalType": "bool",
									"name": "isOrderAsk",
									"type": "bool"
								},
								{
									"internalType": "address",
									"name": "taker",
									"type": "address"
								},
								{
									"internalType": "uint256",
									"name": "price",
									"type": "uint256"
								},
								{
									"internalType": "uint256",
									"name": "tokenId",
									"type": "uint256"
								},
								{
									"internalType": "uint256",
									"name": "minPercentageToAsk",
									"type": "uint256"
								},
								{
									"internalType": "bytes",
									"name": "params",
									"type": "bytes"
								}
							],
							"internalType": "struct OrderTypes.TakerOrder",
							"name": "takerBid",
							"type": "tuple"
						},
						{
							"components": [
								{
									"internalType": "bool",
									"name": "isOrderAsk",
									"type": "bool"
								},
								{
									"internalType": "address",
									"name": "signer",
									"type": "address"
								},
								{
									"internalType": "address",
									"name": "collection",
									"type": "address"
								},
								{
									"internalType": "uint256",
									"name": "price",
									"type": "uint256"
								},
								{
									"internalType": "uint256",
									"name": "tokenId",
									"type": "uint256"
								},
								{
									"internalType": "uint256",
									"name": "amount",
									"type": "uint256"
								},
								{
									"internalType": "address",
									"name": "strategy",
									"type": "address"
								},
								{
									"internalType": "address",
									"name": "currency",
									"type": "address"
								},
								{
									"internalType": "uint256",
									"name": "nonce",
									"type": "uint256"
								},
								{
									"internalType": "uint256",
									"name": "startTime",
									"type": "uint256"
								},
								{
									"internalType": "uint256",
									"name": "endTime",
									"type": "uint256"
								},
								{
									"internalType": "uint256",
									"name": "minPercentageToAsk",
									"type": "uint256"
								},
								{
									"internalType": "bytes",
									"name": "params",
									"type": "bytes"
								},
								{
									"internalType": "uint8",
									"name": "v",
									"type": "uint8"
								},
								{
									"internalType": "bytes32",
									"name": "r",
									"type": "bytes32"
								},
								{
									"internalType": "bytes32",
									"name": "s",
									"type": "bytes32"
								}
							],
							"internalType": "struct OrderTypes.MakerOrder",
							"name": "makerAsk",
							"type": "tuple"
						}
					],
					"name": "canExecuteSell",
					"outputs": [
						{
							"internalType": "bool",
							"name": "",
							"type": "bool"
						},
						{
							"internalType": "uint256",
							"name": "",
							"type": "uint256"
						},
						{
							"internalType": "uint256",
							"name": "",
							"type": "uint256"
						}
					],
					"stateMutability": "view",
					"type": "function"
				},
				{
					"inputs": [],
					"name": "viewProtocolFee",
					"outputs": [
						{
							"internalType": "uint256",
							"name": "",
							"type": "uint256"
						}
					],
					"stateMutability": "view",
					"type": "function"
				}
			],
			"devdoc": {
				"kind": "dev",
				"methods": {
					"constructor": {
						"params": {
							"_protocolFee": "protocol fee (200 --> 2%, 400 --> 4%)"
						}
					}
				},
				"title": "StrategyStandardSaleForFixedPrice",
				"version": 1
			},
			"evm": {
				"assembly": "    /* \"contracts/Manager/execution/StrategySpriceHana.sol\":345:2647  contract StrategyFixedPrice is TheExStrategy {... */\n  mstore(0x40, 0xa0)\n    /* \"contracts/Manager/execution/StrategySpriceHana.sol\":581:659  constructor(uint256 _protocolFee) {... */\n  callvalue\n  dup1\n  iszero\n  tag_1\n  jumpi\n  0x00\n  dup1\n  revert\ntag_1:\n  pop\n  mload(0x40)\n  sub(codesize, bytecodeSize)\n  dup1\n  bytecodeSize\n  dup4\n  codecopy\n  dup2\n  add\n  0x40\n  dup2\n  swap1\n  mstore\n  tag_2\n  swap2\n  tag_3\n  jump\t// in\ntag_2:\n    /* \"contracts/Manager/execution/StrategySpriceHana.sol\":625:652  PROTOCOL_FEE = _protocolFee */\n  0x80\n  mstore\n    /* \"contracts/Manager/execution/StrategySpriceHana.sol\":345:2647  contract StrategyFixedPrice is TheExStrategy {... */\n  jump(tag_7)\n    /* \"#utility.yul\":14:198   */\ntag_3:\n    /* \"#utility.yul\":84:90   */\n  0x00\n    /* \"#utility.yul\":137:139   */\n  0x20\n    /* \"#utility.yul\":125:134   */\n  dup3\n    /* \"#utility.yul\":116:123   */\n  dup5\n    /* \"#utility.yul\":112:135   */\n  sub\n    /* \"#utility.yul\":108:140   */\n  slt\n    /* \"#utility.yul\":105:157   */\n  iszero\n  tag_9\n  jumpi\n    /* \"#utility.yul\":153:154   */\n  0x00\n    /* \"#utility.yul\":150:151   */\n  dup1\n    /* \"#utility.yul\":143:155   */\n  revert\n    /* \"#utility.yul\":105:157   */\ntag_9:\n  pop\n    /* \"#utility.yul\":176:192   */\n  mload\n  swap2\n    /* \"#utility.yul\":14:198   */\n  swap1\n  pop\n  jump\t// out\ntag_7:\n    /* \"contracts/Manager/execution/StrategySpriceHana.sol\":345:2647  contract StrategyFixedPrice is TheExStrategy {... */\n  mload(0x80)\n  codecopy(0x00, dataOffset(sub_0), dataSize(sub_0))\n  0x00\n  assignImmutable(\"0x1a192fabce13988b84994d4296e6cdc418d55e2f1d7f942188d4040b94fc57ac\")\n  return(0x00, dataSize(sub_0))\nstop\n\nsub_0: assembly {\n        /* \"contracts/Manager/execution/StrategySpriceHana.sol\":345:2647  contract StrategyFixedPrice is TheExStrategy {... */\n      mstore(0x40, 0x80)\n      callvalue\n      dup1\n      iszero\n      tag_1\n      jumpi\n      0x00\n      dup1\n      revert\n    tag_1:\n      pop\n      jumpi(tag_2, lt(calldatasize, 0x04))\n      shr(0xe0, calldataload(0x00))\n      dup1\n      0x05362ef4\n      eq\n      tag_3\n      jumpi\n      dup1\n      0x0b4501fd\n      eq\n      tag_4\n      jumpi\n      dup1\n      0x2a75ffee\n      eq\n      tag_5\n      jumpi\n      dup1\n      0x9dd1cda6\n      eq\n      tag_6\n      jumpi\n      dup1\n      0xd310677d\n      eq\n      tag_7\n      jumpi\n    tag_2:\n      0x00\n      dup1\n      revert\n        /* \"contracts/Manager/execution/StrategySpriceHana.sol\":439:466  address public FREE_ADDRESS */\n    tag_3:\n      sload(0x00)\n      tag_8\n      swap1\n      sub(shl(0xa0, 0x01), 0x01)\n      and\n      dup2\n      jump\n    tag_8:\n      mload(0x40)\n      sub(shl(0xa0, 0x01), 0x01)\n        /* \"#utility.yul\":178:210   */\n      swap1\n      swap2\n      and\n        /* \"#utility.yul\":160:211   */\n      dup2\n      mstore\n        /* \"#utility.yul\":148:150   */\n      0x20\n        /* \"#utility.yul\":133:151   */\n      add\n        /* \"contracts/Manager/execution/StrategySpriceHana.sol\":439:466  address public FREE_ADDRESS */\n    tag_10:\n      mload(0x40)\n      dup1\n      swap2\n      sub\n      swap1\n      return\n        /* \"contracts/Manager/execution/StrategySpriceHana.sol\":396:433  uint256 public immutable PROTOCOL_FEE */\n    tag_4:\n      tag_12\n      immutable(\"0x1a192fabce13988b84994d4296e6cdc418d55e2f1d7f942188d4040b94fc57ac\")\n      dup2\n      jump\n    tag_12:\n      mload(0x40)\n        /* \"#utility.yul\":368:393   */\n      swap1\n      dup2\n      mstore\n        /* \"#utility.yul\":356:358   */\n      0x20\n        /* \"#utility.yul\":341:359   */\n      add\n        /* \"contracts/Manager/execution/StrategySpriceHana.sol\":396:433  uint256 public immutable PROTOCOL_FEE */\n      tag_10\n        /* \"#utility.yul\":222:399   */\n      jump\n        /* \"contracts/Manager/execution/StrategySpriceHana.sol\":855:1567  function canExecuteBuy(OrderTypes.TakerOrder calldata takerAsk, OrderTypes.MakerOrder calldata makerBid)... */\n    tag_5:\n      tag_16\n      tag_17\n      calldatasize\n      0x04\n      tag_18\n      jump\t// in\n    tag_17:\n      tag_19\n      jump\t// in\n    tag_16:\n      0x40\n      dup1\n      mload\n        /* \"#utility.yul\":1307:1321   */\n      swap4\n      iszero\n        /* \"#utility.yul\":1300:1322   */\n      iszero\n        /* \"#utility.yul\":1282:1323   */\n      dup5\n      mstore\n        /* \"#utility.yul\":1354:1356   */\n      0x20\n        /* \"#utility.yul\":1339:1357   */\n      dup5\n      add\n        /* \"#utility.yul\":1332:1366   */\n      swap3\n      swap1\n      swap3\n      mstore\n        /* \"#utility.yul\":1382:1400   */\n      swap1\n      dup3\n      add\n        /* \"#utility.yul\":1375:1409   */\n      mstore\n        /* \"#utility.yul\":1270:1272   */\n      0x60\n        /* \"#utility.yul\":1255:1273   */\n      add\n        /* \"contracts/Manager/execution/StrategySpriceHana.sol\":855:1567  function canExecuteBuy(OrderTypes.TakerOrder calldata takerAsk, OrderTypes.MakerOrder calldata makerBid)... */\n      tag_10\n        /* \"#utility.yul\":1086:1415   */\n      jump\n        /* \"contracts/Manager/execution/StrategySpriceHana.sol\":2541:2645  function viewProtocolFee() external view override returns (uint256) {... */\n    tag_6:\n        /* \"contracts/Manager/execution/StrategySpriceHana.sol\":2626:2638  PROTOCOL_FEE */\n      immutable(\"0x1a192fabce13988b84994d4296e6cdc418d55e2f1d7f942188d4040b94fc57ac\")\n        /* \"contracts/Manager/execution/StrategySpriceHana.sol\":2541:2645  function viewProtocolFee() external view override returns (uint256) {... */\n      jump(tag_12)\n        /* \"contracts/Manager/execution/StrategySpriceHana.sol\":1754:2410  function canExecuteSell(OrderTypes.TakerOrder calldata takerBid, OrderTypes.MakerOrder calldata makerAsk)... */\n    tag_7:\n      tag_16\n      tag_26\n      calldatasize\n      0x04\n      tag_18\n      jump\t// in\n    tag_26:\n      tag_27\n      jump\t// in\n        /* \"contracts/Manager/execution/StrategySpriceHana.sol\":855:1567  function canExecuteBuy(OrderTypes.TakerOrder calldata takerAsk, OrderTypes.MakerOrder calldata makerBid)... */\n    tag_19:\n        /* \"contracts/Manager/execution/StrategySpriceHana.sol\":1037:1041  bool */\n      0x00\n        /* \"contracts/Manager/execution/StrategySpriceHana.sol\":1055:1062  uint256 */\n      dup1\n        /* \"contracts/Manager/execution/StrategySpriceHana.sol\":1076:1083  uint256 */\n      0x00\n        /* \"contracts/Manager/execution/StrategySpriceHana.sol\":1248:1256  takerAsk */\n      dup5\n        /* \"contracts/Manager/execution/StrategySpriceHana.sol\":1248:1262  takerAsk.price */\n      0x40\n      add\n      calldataload\n        /* \"contracts/Manager/execution/StrategySpriceHana.sol\":1230:1238  makerBid */\n      dup5\n        /* \"contracts/Manager/execution/StrategySpriceHana.sol\":1230:1244  makerBid.price */\n      0x60\n      add\n      calldataload\n        /* \"contracts/Manager/execution/StrategySpriceHana.sol\":1230:1262  makerBid.price == takerAsk.price */\n      eq\n        /* \"contracts/Manager/execution/StrategySpriceHana.sol\":1229:1321  (makerBid.price == takerAsk.price) &&... */\n      dup1\n      iszero\n      tag_30\n      jumpi\n      pop\n        /* \"contracts/Manager/execution/StrategySpriceHana.sol\":1304:1312  takerAsk */\n      dup5\n        /* \"contracts/Manager/execution/StrategySpriceHana.sol\":1304:1320  takerAsk.tokenId */\n      0x60\n      add\n      calldataload\n        /* \"contracts/Manager/execution/StrategySpriceHana.sol\":1284:1292  makerBid */\n      dup5\n        /* \"contracts/Manager/execution/StrategySpriceHana.sol\":1284:1300  makerBid.tokenId */\n      0x80\n      add\n      calldataload\n        /* \"contracts/Manager/execution/StrategySpriceHana.sol\":1284:1320  makerBid.tokenId == takerAsk.tokenId */\n      eq\n        /* \"contracts/Manager/execution/StrategySpriceHana.sol\":1229:1321  (makerBid.price == takerAsk.price) &&... */\n    tag_30:\n        /* \"contracts/Manager/execution/StrategySpriceHana.sol\":1229:1380  (makerBid.price == takerAsk.price) &&... */\n      dup1\n      iszero\n      tag_31\n      jumpi\n      pop\n        /* \"contracts/Manager/execution/StrategySpriceHana.sol\":1364:1379  block.timestamp */\n      timestamp\n        /* \"contracts/Manager/execution/StrategySpriceHana.sol\":1342:1350  makerBid */\n      dup5\n        /* \"contracts/Manager/execution/StrategySpriceHana.sol\":1342:1360  makerBid.startTime */\n      0x0120\n      add\n      calldataload\n        /* \"contracts/Manager/execution/StrategySpriceHana.sol\":1342:1379  makerBid.startTime <= block.timestamp */\n      gt\n      iszero\n        /* \"contracts/Manager/execution/StrategySpriceHana.sol\":1229:1380  (makerBid.price == takerAsk.price) &&... */\n    tag_31:\n        /* \"contracts/Manager/execution/StrategySpriceHana.sol\":1229:1437  (makerBid.price == takerAsk.price) &&... */\n      dup1\n      iszero\n      tag_32\n      jumpi\n      pop\n        /* \"contracts/Manager/execution/StrategySpriceHana.sol\":1421:1436  block.timestamp */\n      timestamp\n        /* \"contracts/Manager/execution/StrategySpriceHana.sol\":1401:1409  makerBid */\n      dup5\n        /* \"contracts/Manager/execution/StrategySpriceHana.sol\":1401:1417  makerBid.endTime */\n      0x0140\n      add\n      calldataload\n        /* \"contracts/Manager/execution/StrategySpriceHana.sol\":1401:1436  makerBid.endTime >= block.timestamp */\n      lt\n      iszero\n        /* \"contracts/Manager/execution/StrategySpriceHana.sol\":1229:1437  (makerBid.price == takerAsk.price) &&... */\n    tag_32:\n        /* \"contracts/Manager/execution/StrategySpriceHana.sol\":1229:1490  (makerBid.price == takerAsk.price) &&... */\n      dup1\n      iszero\n      tag_33\n      jumpi\n      pop\n        /* \"contracts/Manager/execution/StrategySpriceHana.sol\":1478:1490  FREE_ADDRESS */\n      and(sub(shl(0xa0, 0x01), 0x01), sload(0x00))\n        /* \"contracts/Manager/execution/StrategySpriceHana.sol\":1456:1475  makerBid.collection */\n      tag_34\n      0x60\n      dup7\n      add\n      0x40\n      dup8\n      add\n      tag_35\n      jump\t// in\n    tag_34:\n      sub(shl(0xa0, 0x01), 0x01)\n        /* \"contracts/Manager/execution/StrategySpriceHana.sol\":1456:1490  makerBid.collection ==FREE_ADDRESS */\n      and\n      eq\n        /* \"contracts/Manager/execution/StrategySpriceHana.sol\":1229:1490  (makerBid.price == takerAsk.price) &&... */\n    tag_33:\n        /* \"contracts/Manager/execution/StrategySpriceHana.sol\":1220:1560  return (((makerBid.price == takerAsk.price) &&... */\n      swap3\n      pop\n      pop\n      pop\n        /* \"contracts/Manager/execution/StrategySpriceHana.sol\":1505:1521  makerBid.tokenId */\n      0x80\n      dup3\n      add\n      calldataload\n        /* \"contracts/Manager/execution/StrategySpriceHana.sol\":1535:1550  makerBid.amount */\n      0xa0\n      dup4\n      add\n      calldataload\n        /* \"contracts/Manager/execution/StrategySpriceHana.sol\":855:1567  function canExecuteBuy(OrderTypes.TakerOrder calldata takerAsk, OrderTypes.MakerOrder calldata makerBid)... */\n      swap3\n      pop\n      swap3\n      pop\n      swap3\n      jump\t// out\n        /* \"contracts/Manager/execution/StrategySpriceHana.sol\":1754:2410  function canExecuteSell(OrderTypes.TakerOrder calldata takerBid, OrderTypes.MakerOrder calldata makerAsk)... */\n    tag_27:\n        /* \"contracts/Manager/execution/StrategySpriceHana.sol\":1937:1941  bool */\n      0x00\n        /* \"contracts/Manager/execution/StrategySpriceHana.sol\":1955:1962  uint256 */\n      dup1\n        /* \"contracts/Manager/execution/StrategySpriceHana.sol\":1976:1983  uint256 */\n      0x00\n        /* \"contracts/Manager/execution/StrategySpriceHana.sol\":2144:2152  takerBid */\n      dup5\n        /* \"contracts/Manager/execution/StrategySpriceHana.sol\":2144:2158  takerBid.price */\n      0x40\n      add\n      calldataload\n        /* \"contracts/Manager/execution/StrategySpriceHana.sol\":2126:2134  makerAsk */\n      dup5\n        /* \"contracts/Manager/execution/StrategySpriceHana.sol\":2126:2140  makerAsk.price */\n      0x60\n      add\n      calldataload\n        /* \"contracts/Manager/execution/StrategySpriceHana.sol\":2126:2158  makerAsk.price == takerBid.price */\n      eq\n        /* \"contracts/Manager/execution/StrategySpriceHana.sol\":2125:2217  (makerAsk.price == takerBid.price) &&... */\n      dup1\n      iszero\n      tag_38\n      jumpi\n      pop\n        /* \"contracts/Manager/execution/StrategySpriceHana.sol\":2200:2208  takerBid */\n      dup5\n        /* \"contracts/Manager/execution/StrategySpriceHana.sol\":2200:2216  takerBid.tokenId */\n      0x60\n      add\n      calldataload\n        /* \"contracts/Manager/execution/StrategySpriceHana.sol\":2180:2188  makerAsk */\n      dup5\n        /* \"contracts/Manager/execution/StrategySpriceHana.sol\":2180:2196  makerAsk.tokenId */\n      0x80\n      add\n      calldataload\n        /* \"contracts/Manager/execution/StrategySpriceHana.sol\":2180:2216  makerAsk.tokenId == takerBid.tokenId */\n      eq\n        /* \"contracts/Manager/execution/StrategySpriceHana.sol\":2125:2217  (makerAsk.price == takerBid.price) &&... */\n    tag_38:\n        /* \"contracts/Manager/execution/StrategySpriceHana.sol\":2125:2276  (makerAsk.price == takerBid.price) &&... */\n      dup1\n      iszero\n      tag_39\n      jumpi\n      pop\n        /* \"contracts/Manager/execution/StrategySpriceHana.sol\":2260:2275  block.timestamp */\n      timestamp\n        /* \"contracts/Manager/execution/StrategySpriceHana.sol\":2238:2246  makerAsk */\n      dup5\n        /* \"contracts/Manager/execution/StrategySpriceHana.sol\":2238:2256  makerAsk.startTime */\n      0x0120\n      add\n      calldataload\n        /* \"contracts/Manager/execution/StrategySpriceHana.sol\":2238:2275  makerAsk.startTime <= block.timestamp */\n      gt\n      iszero\n        /* \"contracts/Manager/execution/StrategySpriceHana.sol\":2125:2276  (makerAsk.price == takerBid.price) &&... */\n    tag_39:\n        /* \"contracts/Manager/execution/StrategySpriceHana.sol\":2125:2333  (makerAsk.price == takerBid.price) &&... */\n      dup1\n      iszero\n      tag_33\n      jumpi\n      pop\n        /* \"contracts/Manager/execution/StrategySpriceHana.sol\":2317:2332  block.timestamp */\n      timestamp\n        /* \"contracts/Manager/execution/StrategySpriceHana.sol\":2297:2305  makerAsk */\n      dup5\n        /* \"contracts/Manager/execution/StrategySpriceHana.sol\":2297:2313  makerAsk.endTime */\n      0x0140\n      add\n      calldataload\n        /* \"contracts/Manager/execution/StrategySpriceHana.sol\":2297:2332  makerAsk.endTime >= block.timestamp */\n      lt\n      iszero\n        /* \"contracts/Manager/execution/StrategySpriceHana.sol\":2103:2403  return (... */\n      swap3\n      pop\n      pop\n      pop\n        /* \"contracts/Manager/execution/StrategySpriceHana.sol\":2348:2364  makerAsk.tokenId */\n      0x80\n      dup3\n      add\n      calldataload\n        /* \"contracts/Manager/execution/StrategySpriceHana.sol\":2378:2393  makerAsk.amount */\n      0xa0\n      dup4\n      add\n      calldataload\n        /* \"contracts/Manager/execution/StrategySpriceHana.sol\":1754:2410  function canExecuteSell(OrderTypes.TakerOrder calldata takerBid, OrderTypes.MakerOrder calldata makerAsk)... */\n      swap3\n      pop\n      swap3\n      pop\n      swap3\n      jump\t// out\n        /* \"#utility.yul\":404:1081   */\n    tag_18:\n        /* \"#utility.yul\":530:536   */\n      0x00\n        /* \"#utility.yul\":538:544   */\n      dup1\n        /* \"#utility.yul\":591:593   */\n      0x40\n        /* \"#utility.yul\":579:588   */\n      dup4\n        /* \"#utility.yul\":570:577   */\n      dup6\n        /* \"#utility.yul\":566:589   */\n      sub\n        /* \"#utility.yul\":562:594   */\n      slt\n        /* \"#utility.yul\":559:611   */\n      iszero\n      tag_45\n      jumpi\n        /* \"#utility.yul\":607:608   */\n      0x00\n        /* \"#utility.yul\":604:605   */\n      dup1\n        /* \"#utility.yul\":597:609   */\n      revert\n        /* \"#utility.yul\":559:611   */\n    tag_45:\n        /* \"#utility.yul\":647:656   */\n      dup3\n        /* \"#utility.yul\":634:657   */\n      calldataload\n        /* \"#utility.yul\":676:694   */\n      0xffffffffffffffff\n        /* \"#utility.yul\":717:719   */\n      dup1\n        /* \"#utility.yul\":709:715   */\n      dup3\n        /* \"#utility.yul\":706:720   */\n      gt\n        /* \"#utility.yul\":703:737   */\n      iszero\n      tag_46\n      jumpi\n        /* \"#utility.yul\":733:734   */\n      0x00\n        /* \"#utility.yul\":730:731   */\n      dup1\n        /* \"#utility.yul\":723:735   */\n      revert\n        /* \"#utility.yul\":703:737   */\n    tag_46:\n        /* \"#utility.yul\":756:778   */\n      swap1\n      dup5\n      add\n      swap1\n        /* \"#utility.yul\":812:815   */\n      0xc0\n        /* \"#utility.yul\":794:810   */\n      dup3\n      dup8\n      sub\n        /* \"#utility.yul\":790:816   */\n      slt\n        /* \"#utility.yul\":787:833   */\n      iszero\n      tag_47\n      jumpi\n        /* \"#utility.yul\":829:830   */\n      0x00\n        /* \"#utility.yul\":826:827   */\n      dup1\n        /* \"#utility.yul\":819:831   */\n      revert\n        /* \"#utility.yul\":787:833   */\n    tag_47:\n        /* \"#utility.yul\":852:854   */\n      swap1\n      swap3\n      pop\n        /* \"#utility.yul\":907:909   */\n      0x20\n        /* \"#utility.yul\":892:910   */\n      dup5\n      add\n        /* \"#utility.yul\":879:911   */\n      calldataload\n      swap1\n        /* \"#utility.yul\":923:939   */\n      dup1\n      dup3\n      gt\n        /* \"#utility.yul\":920:956   */\n      iszero\n      tag_48\n      jumpi\n        /* \"#utility.yul\":952:953   */\n      0x00\n        /* \"#utility.yul\":949:950   */\n      dup1\n        /* \"#utility.yul\":942:954   */\n      revert\n        /* \"#utility.yul\":920:956   */\n    tag_48:\n      pop\n        /* \"#utility.yul\":975:999   */\n      dup4\n      add\n        /* \"#utility.yul\":1033:1036   */\n      0x0200\n        /* \"#utility.yul\":1015:1031   */\n      dup2\n      dup7\n      sub\n        /* \"#utility.yul\":1011:1037   */\n      slt\n        /* \"#utility.yul\":1008:1054   */\n      iszero\n      tag_49\n      jumpi\n        /* \"#utility.yul\":1050:1051   */\n      0x00\n        /* \"#utility.yul\":1047:1048   */\n      dup1\n        /* \"#utility.yul\":1040:1052   */\n      revert\n        /* \"#utility.yul\":1008:1054   */\n    tag_49:\n        /* \"#utility.yul\":1073:1075   */\n      dup1\n        /* \"#utility.yul\":1063:1075   */\n      swap2\n      pop\n      pop\n        /* \"#utility.yul\":404:1081   */\n      swap3\n      pop\n      swap3\n      swap1\n      pop\n      jump\t// out\n        /* \"#utility.yul\":1420:1706   */\n    tag_35:\n        /* \"#utility.yul\":1479:1485   */\n      0x00\n        /* \"#utility.yul\":1532:1534   */\n      0x20\n        /* \"#utility.yul\":1520:1529   */\n      dup3\n        /* \"#utility.yul\":1511:1518   */\n      dup5\n        /* \"#utility.yul\":1507:1530   */\n      sub\n        /* \"#utility.yul\":1503:1535   */\n      slt\n        /* \"#utility.yul\":1500:1552   */\n      iszero\n      tag_52\n      jumpi\n        /* \"#utility.yul\":1548:1549   */\n      0x00\n        /* \"#utility.yul\":1545:1546   */\n      dup1\n        /* \"#utility.yul\":1538:1550   */\n      revert\n        /* \"#utility.yul\":1500:1552   */\n    tag_52:\n        /* \"#utility.yul\":1574:1597   */\n      dup2\n      calldataload\n      sub(shl(0xa0, 0x01), 0x01)\n        /* \"#utility.yul\":1626:1657   */\n      dup2\n      and\n        /* \"#utility.yul\":1616:1658   */\n      dup2\n      eq\n        /* \"#utility.yul\":1606:1676   */\n      tag_53\n      jumpi\n        /* \"#utility.yul\":1672:1673   */\n      0x00\n        /* \"#utility.yul\":1669:1670   */\n      dup1\n        /* \"#utility.yul\":1662:1674   */\n      revert\n        /* \"#utility.yul\":1606:1676   */\n    tag_53:\n        /* \"#utility.yul\":1695:1700   */\n      swap4\n        /* \"#utility.yul\":1420:1706   */\n      swap3\n      pop\n      pop\n      pop\n      jump\t// out\n\n    auxdata: 0xa2646970667358221220485b896a976e8053abb46cf83d525844ec88e3065f6826c3404d7b24643d6e3464736f6c63430008110033\n}\n",
				"bytecode": {
					"linkReferences": {},
					"object": "60a060405234801561001057600080fd5b5060405161035538038061035583398101604081905261002f91610037565b608052610050565b60006020828403121561004957600080fd5b5051919050565b6080516102e5610070600039600081816091015260f301526102e56000f3fe608060405234801561001057600080fd5b50600436106100575760003560e01c806305362ef41461005c5780630b4501fd1461008c5780632a75ffee146100c15780639dd1cda6146100f1578063d310677d14610117575b600080fd5b60005461006f906001600160a01b031681565b6040516001600160a01b0390911681526020015b60405180910390f35b6100b37f000000000000000000000000000000000000000000000000000000000000000081565b604051908152602001610083565b6100d46100cf36600461020b565b61012a565b604080519315158452602084019290925290820152606001610083565b7f00000000000000000000000000000000000000000000000000000000000000006100b3565b6100d461012536600461020b565b6101b2565b60008060008460400135846060013514801561014d575084606001358460800135145b801561015e57504284610120013511155b801561016f57504284610140013510155b801561019d57506000546001600160a01b0316610192606086016040870161027f565b6001600160a01b0316145b92505050608082013560a08301359250925092565b6000806000846040013584606001351480156101d5575084606001358460800135145b80156101e657504284610120013511155b801561019d575042846101400135101592505050608082013560a08301359250925092565b6000806040838503121561021e57600080fd5b823567ffffffffffffffff8082111561023657600080fd5b9084019060c0828703121561024a57600080fd5b9092506020840135908082111561026057600080fd5b508301610200818603121561027457600080fd5b809150509250929050565b60006020828403121561029157600080fd5b81356001600160a01b03811681146102a857600080fd5b939250505056fea2646970667358221220485b896a976e8053abb46cf83d525844ec88e3065f6826c3404d7b24643d6e3464736f6c63430008110033",
					"opcodes": "PUSH1 0xA0 PUSH1 0x40 MSTORE CALLVALUE DUP1 ISZERO PUSH2 0x10 JUMPI PUSH1 0x0 DUP1 REVERT JUMPDEST POP PUSH1 0x40 MLOAD PUSH2 0x355 CODESIZE SUB DUP1 PUSH2 0x355 DUP4 CODECOPY DUP2 ADD PUSH1 0x40 DUP2 SWAP1 MSTORE PUSH2 0x2F SWAP2 PUSH2 0x37 JUMP JUMPDEST PUSH1 0x80 MSTORE PUSH2 0x50 JUMP JUMPDEST PUSH1 0x0 PUSH1 0x20 DUP3 DUP5 SUB SLT ISZERO PUSH2 0x49 JUMPI PUSH1 0x0 DUP1 REVERT JUMPDEST POP MLOAD SWAP2 SWAP1 POP JUMP JUMPDEST PUSH1 0x80 MLOAD PUSH2 0x2E5 PUSH2 0x70 PUSH1 0x0 CODECOPY PUSH1 0x0 DUP2 DUP2 PUSH1 0x91 ADD MSTORE PUSH1 0xF3 ADD MSTORE PUSH2 0x2E5 PUSH1 0x0 RETURN INVALID PUSH1 0x80 PUSH1 0x40 MSTORE CALLVALUE DUP1 ISZERO PUSH2 0x10 JUMPI PUSH1 0x0 DUP1 REVERT JUMPDEST POP PUSH1 0x4 CALLDATASIZE LT PUSH2 0x57 JUMPI PUSH1 0x0 CALLDATALOAD PUSH1 0xE0 SHR DUP1 PUSH4 0x5362EF4 EQ PUSH2 0x5C JUMPI DUP1 PUSH4 0xB4501FD EQ PUSH2 0x8C JUMPI DUP1 PUSH4 0x2A75FFEE EQ PUSH2 0xC1 JUMPI DUP1 PUSH4 0x9DD1CDA6 EQ PUSH2 0xF1 JUMPI DUP1 PUSH4 0xD310677D EQ PUSH2 0x117 JUMPI JUMPDEST PUSH1 0x0 DUP1 REVERT JUMPDEST PUSH1 0x0 SLOAD PUSH2 0x6F SWAP1 PUSH1 0x1 PUSH1 0x1 PUSH1 0xA0 SHL SUB AND DUP2 JUMP JUMPDEST PUSH1 0x40 MLOAD PUSH1 0x1 PUSH1 0x1 PUSH1 0xA0 SHL SUB SWAP1 SWAP2 AND DUP2 MSTORE PUSH1 0x20 ADD JUMPDEST PUSH1 0x40 MLOAD DUP1 SWAP2 SUB SWAP1 RETURN JUMPDEST PUSH2 0xB3 PUSH32 0x0 DUP2 JUMP JUMPDEST PUSH1 0x40 MLOAD SWAP1 DUP2 MSTORE PUSH1 0x20 ADD PUSH2 0x83 JUMP JUMPDEST PUSH2 0xD4 PUSH2 0xCF CALLDATASIZE PUSH1 0x4 PUSH2 0x20B JUMP JUMPDEST PUSH2 0x12A JUMP JUMPDEST PUSH1 0x40 DUP1 MLOAD SWAP4 ISZERO ISZERO DUP5 MSTORE PUSH1 0x20 DUP5 ADD SWAP3 SWAP1 SWAP3 MSTORE SWAP1 DUP3 ADD MSTORE PUSH1 0x60 ADD PUSH2 0x83 JUMP JUMPDEST PUSH32 0x0 PUSH2 0xB3 JUMP JUMPDEST PUSH2 0xD4 PUSH2 0x125 CALLDATASIZE PUSH1 0x4 PUSH2 0x20B JUMP JUMPDEST PUSH2 0x1B2 JUMP JUMPDEST PUSH1 0x0 DUP1 PUSH1 0x0 DUP5 PUSH1 0x40 ADD CALLDATALOAD DUP5 PUSH1 0x60 ADD CALLDATALOAD EQ DUP1 ISZERO PUSH2 0x14D JUMPI POP DUP5 PUSH1 0x60 ADD CALLDATALOAD DUP5 PUSH1 0x80 ADD CALLDATALOAD EQ JUMPDEST DUP1 ISZERO PUSH2 0x15E JUMPI POP TIMESTAMP DUP5 PUSH2 0x120 ADD CALLDATALOAD GT ISZERO JUMPDEST DUP1 ISZERO PUSH2 0x16F JUMPI POP TIMESTAMP DUP5 PUSH2 0x140 ADD CALLDATALOAD LT ISZERO JUMPDEST DUP1 ISZERO PUSH2 0x19D JUMPI POP PUSH1 0x0 SLOAD PUSH1 0x1 PUSH1 0x1 PUSH1 0xA0 SHL SUB AND PUSH2 0x192 PUSH1 0x60 DUP7 ADD PUSH1 0x40 DUP8 ADD PUSH2 0x27F JUMP JUMPDEST PUSH1 0x1 PUSH1 0x1 PUSH1 0xA0 SHL SUB AND EQ JUMPDEST SWAP3 POP POP POP PUSH1 0x80 DUP3 ADD CALLDATALOAD PUSH1 0xA0 DUP4 ADD CALLDATALOAD SWAP3 POP SWAP3 POP SWAP3 JUMP JUMPDEST PUSH1 0x0 DUP1 PUSH1 0x0 DUP5 PUSH1 0x40 ADD CALLDATALOAD DUP5 PUSH1 0x60 ADD CALLDATALOAD EQ DUP1 ISZERO PUSH2 0x1D5 JUMPI POP DUP5 PUSH1 0x60 ADD CALLDATALOAD DUP5 PUSH1 0x80 ADD CALLDATALOAD EQ JUMPDEST DUP1 ISZERO PUSH2 0x1E6 JUMPI POP TIMESTAMP DUP5 PUSH2 0x120 ADD CALLDATALOAD GT ISZERO JUMPDEST DUP1 ISZERO PUSH2 0x19D JUMPI POP TIMESTAMP DUP5 PUSH2 0x140 ADD CALLDATALOAD LT ISZERO SWAP3 POP POP POP PUSH1 0x80 DUP3 ADD CALLDATALOAD PUSH1 0xA0 DUP4 ADD CALLDATALOAD SWAP3 POP SWAP3 POP SWAP3 JUMP JUMPDEST PUSH1 0x0 DUP1 PUSH1 0x40 DUP4 DUP6 SUB SLT ISZERO PUSH2 0x21E JUMPI PUSH1 0x0 DUP1 REVERT JUMPDEST DUP3 CALLDATALOAD PUSH8 0xFFFFFFFFFFFFFFFF DUP1 DUP3 GT ISZERO PUSH2 0x236 JUMPI PUSH1 0x0 DUP1 REVERT JUMPDEST SWAP1 DUP5 ADD SWAP1 PUSH1 0xC0 DUP3 DUP8 SUB SLT ISZERO PUSH2 0x24A JUMPI PUSH1 0x0 DUP1 REVERT JUMPDEST SWAP1 SWAP3 POP PUSH1 0x20 DUP5 ADD CALLDATALOAD SWAP1 DUP1 DUP3 GT ISZERO PUSH2 0x260 JUMPI PUSH1 0x0 DUP1 REVERT JUMPDEST POP DUP4 ADD PUSH2 0x200 DUP2 DUP7 SUB SLT ISZERO PUSH2 0x274 JUMPI PUSH1 0x0 DUP1 REVERT JUMPDEST DUP1 SWAP2 POP POP SWAP3 POP SWAP3 SWAP1 POP JUMP JUMPDEST PUSH1 0x0 PUSH1 0x20 DUP3 DUP5 SUB SLT ISZERO PUSH2 0x291 JUMPI PUSH1 0x0 DUP1 REVERT JUMPDEST DUP2 CALLDATALOAD PUSH1 0x1 PUSH1 0x1 PUSH1 0xA0 SHL SUB DUP2 AND DUP2 EQ PUSH2 0x2A8 JUMPI PUSH1 0x0 DUP1 REVERT JUMPDEST SWAP4 SWAP3 POP POP POP JUMP INVALID LOG2 PUSH5 0x6970667358 0x22 SLT KECCAK256 BASEFEE JUMPDEST DUP10 PUSH11 0x976E8053ABB46CF83D5258 DIFFICULTY 0xEC DUP9 0xE3 MOD 0x5F PUSH9 0x26C3404D7B24643D6E CALLVALUE PUSH5 0x736F6C6343 STOP ADDMOD GT STOP CALLER "
				},
				"gasEstimates": {
					"creation": {
						"codeDepositCost": "148200",
						"executionCost": "infinite",
						"totalCost": "infinite"
					},
					"external": {
						"FREE_ADDRESS()": "2304",
						"PROTOCOL_FEE()": "infinite",
						"canExecuteBuy((bool,address,uint256,uint256,uint256,bytes),(bool,address,address,uint256,uint256,uint256,address,address,uint256,uint256,uint256,uint256,bytes,uint8,bytes32,bytes32))": "3044",
						"canExecuteSell((bool,address,uint256,uint256,uint256,bytes),(bool,address,address,uint256,uint256,uint256,address,address,uint256,uint256,uint256,uint256,bytes,uint8,bytes32,bytes32))": "787",
						"viewProtocolFee()": "infinite"
					}
				},
				"methodIdentifiers": {
					"FREE_ADDRESS()": "05362ef4",
					"PROTOCOL_FEE()": "0b4501fd",
					"canExecuteBuy((bool,address,uint256,uint256,uint256,bytes),(bool,address,address,uint256,uint256,uint256,address,address,uint256,uint256,uint256,uint256,bytes,uint8,bytes32,bytes32))": "2a75ffee",
					"canExecuteSell((bool,address,uint256,uint256,uint256,bytes),(bool,address,address,uint256,uint256,uint256,address,address,uint256,uint256,uint256,uint256,bytes,uint8,bytes32,bytes32))": "d310677d",
					"viewProtocolFee()": "9dd1cda6"
				}
			},
			"storageLayout": {
				"storage": [
					{
						"astId": 12,
						"contract": "contracts/Manager/execution/StrategySpriceHana.sol:StrategyFixedPrice",
						"label": "FREE_ADDRESS",
						"offset": 0,
						"slot": "0",
						"type": "t_address"
					}
				],
				"types": {
					"t_address": {
						"encoding": "inplace",
						"label": "address",
						"numberOfBytes": "20"
					}
				}
			},
			"userdoc": {
				"kind": "user",
				"methods": {
					"constructor": {
						"notice": "Constructor"
					}
				},
				"notice": "Strategy that executes an order at a fixed price that can be taken either by a bid or an ask.",
				"version": 1
			}
		}
	}
}