{
	"contracts/Manager/royalty/RoyaltyFeeRegistry.sol": {
		"RoyaltyFeeRegistry": {
			"abi": [
				{
					"inputs": [
						{
							"internalType": "uint256",
							"name": "_royaltyFeeLimit",
							"type": "uint256"
						}
					],
					"stateMutability": "nonpayable",
					"type": "constructor"
				},
				{
					"anonymous": false,
					"inputs": [
						{
							"indexed": false,
							"internalType": "uint256",
							"name": "royaltyFeeLimit",
							"type": "uint256"
						}
					],
					"name": "NewRoyaltyFeeLimit",
					"type": "event"
				},
				{
					"anonymous": false,
					"inputs": [
						{
							"indexed": true,
							"internalType": "address",
							"name": "previousOwner",
							"type": "address"
						},
						{
							"indexed": true,
							"internalType": "address",
							"name": "newOwner",
							"type": "address"
						}
					],
					"name": "OwnershipTransferred",
					"type": "event"
				},
				{
					"anonymous": false,
					"inputs": [
						{
							"indexed": true,
							"internalType": "address",
							"name": "collection",
							"type": "address"
						},
						{
							"indexed": true,
							"internalType": "address",
							"name": "setter",
							"type": "address"
						},
						{
							"indexed": true,
							"internalType": "address",
							"name": "receiver",
							"type": "address"
						},
						{
							"indexed": false,
							"internalType": "uint256",
							"name": "fee",
							"type": "uint256"
						}
					],
					"name": "RoyaltyFeeUpdate",
					"type": "event"
				},
				{
					"inputs": [],
					"name": "INTERFACE_ID_ERC1155",
					"outputs": [
						{
							"internalType": "bytes4",
							"name": "",
							"type": "bytes4"
						}
					],
					"stateMutability": "view",
					"type": "function"
				},
				{
					"inputs": [],
					"name": "INTERFACE_ID_ERC2981",
					"outputs": [
						{
							"internalType": "bytes4",
							"name": "",
							"type": "bytes4"
						}
					],
					"stateMutability": "view",
					"type": "function"
				},
				{
					"inputs": [],
					"name": "INTERFACE_ID_ERC721",
					"outputs": [
						{
							"internalType": "bytes4",
							"name": "",
							"type": "bytes4"
						}
					],
					"stateMutability": "view",
					"type": "function"
				},
				{
					"inputs": [
						{
							"internalType": "address",
							"name": "collection",
							"type": "address"
						}
					],
					"name": "checkForCollectionSetter",
					"outputs": [
						{
							"internalType": "address",
							"name": "",
							"type": "address"
						},
						{
							"internalType": "uint8",
							"name": "",
							"type": "uint8"
						}
					],
					"stateMutability": "view",
					"type": "function"
				},
				{
					"inputs": [],
					"name": "owner",
					"outputs": [
						{
							"internalType": "address",
							"name": "",
							"type": "address"
						}
					],
					"stateMutability": "view",
					"type": "function"
				},
				{
					"inputs": [],
					"name": "renounceOwnership",
					"outputs": [],
					"stateMutability": "nonpayable",
					"type": "function"
				},
				{
					"inputs": [
						{
							"internalType": "address",
							"name": "collection",
							"type": "address"
						}
					],
					"name": "royaltyFeeInfoCollection",
					"outputs": [
						{
							"internalType": "address",
							"name": "",
							"type": "address"
						},
						{
							"internalType": "address",
							"name": "",
							"type": "address"
						},
						{
							"internalType": "uint256",
							"name": "",
							"type": "uint256"
						}
					],
					"stateMutability": "view",
					"type": "function"
				},
				{
					"inputs": [],
					"name": "royaltyFeeLimit",
					"outputs": [
						{
							"internalType": "uint256",
							"name": "",
							"type": "uint256"
						}
					],
					"stateMutability": "view",
					"type": "function"
				},
				{
					"inputs": [
						{
							"internalType": "address",
							"name": "collection",
							"type": "address"
						},
						{
							"internalType": "uint256",
							"name": "amount",
							"type": "uint256"
						}
					],
					"name": "royaltyInfo",
					"outputs": [
						{
							"internalType": "address",
							"name": "",
							"type": "address"
						},
						{
							"internalType": "uint256",
							"name": "",
							"type": "uint256"
						}
					],
					"stateMutability": "view",
					"type": "function"
				},
				{
					"inputs": [
						{
							"internalType": "address",
							"name": "newOwner",
							"type": "address"
						}
					],
					"name": "transferOwnership",
					"outputs": [],
					"stateMutability": "nonpayable",
					"type": "function"
				},
				{
					"inputs": [
						{
							"internalType": "uint256",
							"name": "_royaltyFeeLimit",
							"type": "uint256"
						}
					],
					"name": "updateRoyaltyFeeLimit",
					"outputs": [],
					"stateMutability": "nonpayable",
					"type": "function"
				},
				{
					"inputs": [
						{
							"internalType": "address",
							"name": "collection",
							"type": "address"
						},
						{
							"internalType": "address",
							"name": "setter",
							"type": "address"
						},
						{
							"internalType": "address",
							"name": "receiver",
							"type": "address"
						},
						{
							"internalType": "uint256",
							"name": "fee",
							"type": "uint256"
						}
					],
					"name": "updateRoyaltyInfoForCollectionIfAdmin",
					"outputs": [],
					"stateMutability": "nonpayable",
					"type": "function"
				},
				{
					"inputs": [
						{
							"internalType": "address",
							"name": "collection",
							"type": "address"
						},
						{
							"internalType": "address",
							"name": "setter",
							"type": "address"
						},
						{
							"internalType": "address",
							"name": "receiver",
							"type": "address"
						},
						{
							"internalType": "uint256",
							"name": "fee",
							"type": "uint256"
						}
					],
					"name": "updateRoyaltyInfoForCollectionIfOwner",
					"outputs": [],
					"stateMutability": "nonpayable",
					"type": "function"
				},
				{
					"inputs": [
						{
							"internalType": "address",
							"name": "collection",
							"type": "address"
						},
						{
							"internalType": "address",
							"name": "setter",
							"type": "address"
						},
						{
							"internalType": "address",
							"name": "receiver",
							"type": "address"
						},
						{
							"internalType": "uint256",
							"name": "fee",
							"type": "uint256"
						}
					],
					"name": "updateRoyaltyInfoForCollectionIfSetter",
					"outputs": [],
					"stateMutability": "nonpayable",
					"type": "function"
				}
			],
			"devdoc": {
				"kind": "dev",
				"methods": {
					"owner()": {
						"details": "Returns the address of the current owner."
					},
					"renounceOwnership()": {
						"details": "Leaves the contract without owner. It will not be possible to call `onlyOwner` functions anymore. Can only be called by the current owner. NOTE: Renouncing ownership will leave the contract without an owner, thereby removing any functionality that is only available to the owner."
					},
					"transferOwnership(address)": {
						"details": "Transfers ownership of the contract to a new account (`newOwner`). Can only be called by the current owner."
					}
				},
				"version": 1
			},
			"evm": {
				"assembly": "    /* \"contracts/Manager/royalty/RoyaltyFeeRegistry.sol\":357:6847  contract RoyaltyFeeRegistry is IRoyaltyFeeRegistry, Ownable {... */\n  mstore(0x40, 0x80)\n    /* \"contracts/Manager/royalty/RoyaltyFeeRegistry.sol\":1194:1398  constructor(uint256 _royaltyFeeLimit) {... */\n  callvalue\n  dup1\n  iszero\n  tag_1\n  jumpi\n  0x00\n  dup1\n  revert\ntag_1:\n  pop\n  mload(0x40)\n  sub(codesize, bytecodeSize)\n  dup1\n  bytecodeSize\n  dup4\n  codecopy\n  dup2\n  add\n  0x40\n  dup2\n  swap1\n  mstore\n  tag_2\n  swap2\n  tag_3\n  jump\t// in\ntag_2:\n    /* \"@openzeppelin/contracts/access/Ownable.sol\":936:968  _transferOwnership(_msgSender()) */\n  tag_7\n    /* \"@openzeppelin/contracts/utils/Context.sol\":719:729  msg.sender */\n  caller\n    /* \"@openzeppelin/contracts/access/Ownable.sol\":936:954  _transferOwnership */\n  tag_10\n    /* \"@openzeppelin/contracts/access/Ownable.sol\":936:968  _transferOwnership(_msgSender()) */\n  jump\t// in\ntag_7:\n    /* \"contracts/Manager/royalty/RoyaltyFeeRegistry.sol\":1312:1316  9500 */\n  0x251c\n    /* \"contracts/Manager/royalty/RoyaltyFeeRegistry.sol\":1292:1308  _royaltyFeeLimit */\n  dup2\n    /* \"contracts/Manager/royalty/RoyaltyFeeRegistry.sol\":1292:1316  _royaltyFeeLimit <= 9500 */\n  gt\n  iszero\n    /* \"contracts/Manager/royalty/RoyaltyFeeRegistry.sol\":1284:1347  require(_royaltyFeeLimit <= 9500, \"Royalty fee limit too high\") */\n  tag_12\n  jumpi\n  mload(0x40)\n  shl(0xe5, 0x461bcd)\n  dup2\n  mstore\n    /* \"#utility.yul\":405:407   */\n  0x20\n    /* \"contracts/Manager/royalty/RoyaltyFeeRegistry.sol\":1284:1347  require(_royaltyFeeLimit <= 9500, \"Royalty fee limit too high\") */\n  0x04\n  dup3\n  add\n    /* \"#utility.yul\":387:408   */\n  mstore\n    /* \"#utility.yul\":444:446   */\n  0x1a\n    /* \"#utility.yul\":424:442   */\n  0x24\n  dup3\n  add\n    /* \"#utility.yul\":417:447   */\n  mstore\n    /* \"#utility.yul\":483:511   */\n  0x526f79616c747920666565206c696d697420746f6f2068696768000000000000\n    /* \"#utility.yul\":463:481   */\n  0x44\n  dup3\n  add\n    /* \"#utility.yul\":456:512   */\n  mstore\n    /* \"#utility.yul\":529:547   */\n  0x64\n  add\n    /* \"contracts/Manager/royalty/RoyaltyFeeRegistry.sol\":1284:1347  require(_royaltyFeeLimit <= 9500, \"Royalty fee limit too high\") */\n  mload(0x40)\n  dup1\n  swap2\n  sub\n  swap1\n  revert\ntag_12:\n    /* \"contracts/Manager/royalty/RoyaltyFeeRegistry.sol\":1357:1372  royaltyFeeLimit */\n  0x01\n    /* \"contracts/Manager/royalty/RoyaltyFeeRegistry.sol\":1357:1391  royaltyFeeLimit = _royaltyFeeLimit */\n  sstore\n    /* \"contracts/Manager/royalty/RoyaltyFeeRegistry.sol\":357:6847  contract RoyaltyFeeRegistry is IRoyaltyFeeRegistry, Ownable {... */\n  jump(tag_18)\n    /* \"@openzeppelin/contracts/access/Ownable.sol\":2433:2620  function _transferOwnership(address newOwner) internal virtual {... */\ntag_10:\n    /* \"@openzeppelin/contracts/access/Ownable.sol\":2506:2522  address oldOwner */\n  0x00\n    /* \"@openzeppelin/contracts/access/Ownable.sol\":2525:2531  _owner */\n  dup1\n  sload\n  sub(shl(0xa0, 0x01), 0x01)\n    /* \"@openzeppelin/contracts/access/Ownable.sol\":2541:2558  _owner = newOwner */\n  dup4\n  dup2\n  and\n  not(sub(shl(0xa0, 0x01), 0x01))\n  dup4\n  and\n  dup2\n  or\n  dup5\n  sstore\n    /* \"@openzeppelin/contracts/access/Ownable.sol\":2573:2613  OwnershipTransferred(oldOwner, newOwner) */\n  mload(0x40)\n    /* \"@openzeppelin/contracts/access/Ownable.sol\":2525:2531  _owner */\n  swap2\n  swap1\n  swap3\n  and\n  swap3\n  dup4\n  swap2\n    /* \"@openzeppelin/contracts/access/Ownable.sol\":2573:2613  OwnershipTransferred(oldOwner, newOwner) */\n  0x8be0079c531659141344cd1fd0a4f28419497f9722a3daafe3b4186f6b6457e0\n  swap2\n    /* \"@openzeppelin/contracts/access/Ownable.sol\":2506:2522  address oldOwner */\n  swap1\n    /* \"@openzeppelin/contracts/access/Ownable.sol\":2573:2613  OwnershipTransferred(oldOwner, newOwner) */\n  log3\n    /* \"@openzeppelin/contracts/access/Ownable.sol\":2496:2620  {... */\n  pop\n    /* \"@openzeppelin/contracts/access/Ownable.sol\":2433:2620  function _transferOwnership(address newOwner) internal virtual {... */\n  pop\n  jump\t// out\n    /* \"#utility.yul\":14:198   */\ntag_3:\n    /* \"#utility.yul\":84:90   */\n  0x00\n    /* \"#utility.yul\":137:139   */\n  0x20\n    /* \"#utility.yul\":125:134   */\n  dup3\n    /* \"#utility.yul\":116:123   */\n  dup5\n    /* \"#utility.yul\":112:135   */\n  sub\n    /* \"#utility.yul\":108:140   */\n  slt\n    /* \"#utility.yul\":105:157   */\n  iszero\n  tag_20\n  jumpi\n    /* \"#utility.yul\":153:154   */\n  0x00\n    /* \"#utility.yul\":150:151   */\n  dup1\n    /* \"#utility.yul\":143:155   */\n  revert\n    /* \"#utility.yul\":105:157   */\ntag_20:\n  pop\n    /* \"#utility.yul\":176:192   */\n  mload\n  swap2\n    /* \"#utility.yul\":14:198   */\n  swap1\n  pop\n  jump\t// out\n    /* \"#utility.yul\":203:553   */\ntag_18:\n    /* \"contracts/Manager/royalty/RoyaltyFeeRegistry.sol\":357:6847  contract RoyaltyFeeRegistry is IRoyaltyFeeRegistry, Ownable {... */\n  dataSize(sub_0)\n  dup1\n  dataOffset(sub_0)\n  0x00\n  codecopy\n  0x00\n  return\nstop\n\nsub_0: assembly {\n        /* \"contracts/Manager/royalty/RoyaltyFeeRegistry.sol\":357:6847  contract RoyaltyFeeRegistry is IRoyaltyFeeRegistry, Ownable {... */\n      mstore(0x40, 0x80)\n      callvalue\n      dup1\n      iszero\n      tag_1\n      jumpi\n      0x00\n      dup1\n      revert\n    tag_1:\n      pop\n      jumpi(tag_2, lt(calldatasize, 0x04))\n      shr(0xe0, calldataload(0x00))\n      dup1\n      0xab016670\n      gt\n      tag_17\n      jumpi\n      dup1\n      0xbc6bc0cd\n      gt\n      tag_18\n      jumpi\n      dup1\n      0xbc6bc0cd\n      eq\n      tag_13\n      jumpi\n      dup1\n      0xc54e5497\n      eq\n      tag_14\n      jumpi\n      dup1\n      0xe31ef91c\n      eq\n      tag_15\n      jumpi\n      dup1\n      0xf2fde38b\n      eq\n      tag_16\n      jumpi\n      0x00\n      dup1\n      revert\n    tag_18:\n      dup1\n      0xab016670\n      eq\n      tag_10\n      jumpi\n      dup1\n      0xb060dd86\n      eq\n      tag_11\n      jumpi\n      dup1\n      0xb9223c9d\n      eq\n      tag_12\n      jumpi\n      0x00\n      dup1\n      revert\n    tag_17:\n      dup1\n      0x3755fa80\n      gt\n      tag_19\n      jumpi\n      dup1\n      0x3755fa80\n      eq\n      tag_6\n      jumpi\n      dup1\n      0x4fb7d3f9\n      eq\n      tag_7\n      jumpi\n      dup1\n      0x715018a6\n      eq\n      tag_8\n      jumpi\n      dup1\n      0x8da5cb5b\n      eq\n      tag_9\n      jumpi\n      0x00\n      dup1\n      revert\n    tag_19:\n      dup1\n      0x275da5ef\n      eq\n      tag_3\n      jumpi\n      dup1\n      0x2782d6c7\n      eq\n      tag_4\n      jumpi\n      dup1\n      0x33bf6156\n      eq\n      tag_5\n      jumpi\n    tag_2:\n      0x00\n      dup1\n      revert\n        /* \"contracts/Manager/royalty/RoyaltyFeeRegistry.sol\":3013:3408  function updateRoyaltyInfoForCollectionIfSetter(... */\n    tag_3:\n      tag_20\n      tag_21\n      calldatasize\n      0x04\n      tag_22\n      jump\t// in\n    tag_21:\n      tag_23\n      jump\t// in\n    tag_20:\n      stop\n        /* \"contracts/Manager/royalty/RoyaltyFeeRegistry.sol\":2340:2607  function royaltyInfo(address collection, uint256 amount) external view override returns (address, uint256) {... */\n    tag_4:\n      tag_24\n      tag_25\n      calldatasize\n      0x04\n      tag_26\n      jump\t// in\n    tag_25:\n      tag_27\n      jump\t// in\n    tag_24:\n      0x40\n      dup1\n      mload\n      sub(shl(0xa0, 0x01), 0x01)\n        /* \"#utility.yul\":1265:1297   */\n      swap1\n      swap4\n      and\n        /* \"#utility.yul\":1247:1298   */\n      dup4\n      mstore\n        /* \"#utility.yul\":1329:1331   */\n      0x20\n        /* \"#utility.yul\":1314:1332   */\n      dup4\n      add\n        /* \"#utility.yul\":1307:1341   */\n      swap2\n      swap1\n      swap2\n      mstore\n        /* \"#utility.yul\":1220:1238   */\n      add\n        /* \"contracts/Manager/royalty/RoyaltyFeeRegistry.sol\":2340:2607  function royaltyInfo(address collection, uint256 amount) external view override returns (address, uint256) {... */\n    tag_28:\n      mload(0x40)\n      dup1\n      swap2\n      sub\n      swap1\n      return\n        /* \"contracts/Manager/royalty/RoyaltyFeeRegistry.sol\":639:695  bytes4 public constant INTERFACE_ID_ERC1155 = 0xd9b67a26 */\n    tag_5:\n      tag_30\n      shl(0xe1, 0x6cdb3d13)\n      dup2\n      jump\n    tag_30:\n      mload(0x40)\n      tag_28\n      swap2\n      swap1\n      tag_33\n      jump\t// in\n        /* \"contracts/Manager/royalty/RoyaltyFeeRegistry.sol\":5546:5987  function updateRoyaltyInfoForCollectionIfOwner(... */\n    tag_6:\n      tag_20\n      tag_35\n      calldatasize\n      0x04\n      tag_22\n      jump\t// in\n    tag_35:\n      tag_36\n      jump\t// in\n        /* \"contracts/Manager/royalty/RoyaltyFeeRegistry.sol\":840:870  uint256 public royaltyFeeLimit */\n    tag_7:\n      tag_37\n      sload(0x01)\n      dup2\n      jump\n    tag_37:\n      mload(0x40)\n        /* \"#utility.yul\":1705:1730   */\n      swap1\n      dup2\n      mstore\n        /* \"#utility.yul\":1693:1695   */\n      0x20\n        /* \"#utility.yul\":1678:1696   */\n      add\n        /* \"contracts/Manager/royalty/RoyaltyFeeRegistry.sol\":840:870  uint256 public royaltyFeeLimit */\n      tag_28\n        /* \"#utility.yul\":1559:1736   */\n      jump\n        /* \"@openzeppelin/contracts/access/Ownable.sol\":1831:1932  function renounceOwnership() public virtual onlyOwner {... */\n    tag_8:\n      tag_20\n      tag_42\n      jump\t// in\n        /* \"@openzeppelin/contracts/access/Ownable.sol\":1201:1286  function owner() public view virtual returns (address) {... */\n    tag_9:\n        /* \"@openzeppelin/contracts/access/Ownable.sol\":1247:1254  address */\n      0x00\n        /* \"@openzeppelin/contracts/access/Ownable.sol\":1273:1279  _owner */\n      sload\n        /* \"@openzeppelin/contracts/access/Ownable.sol\":1201:1286  function owner() public view virtual returns (address) {... */\n      mload(0x40)\n      sub(shl(0xa0, 0x01), 0x01)\n        /* \"@openzeppelin/contracts/access/Ownable.sol\":1273:1279  _owner */\n      swap1\n      swap2\n      and\n        /* \"#utility.yul\":1887:1938   */\n      dup2\n      mstore\n        /* \"#utility.yul\":1875:1877   */\n      0x20\n        /* \"#utility.yul\":1860:1878   */\n      add\n        /* \"@openzeppelin/contracts/access/Ownable.sol\":1201:1286  function owner() public view virtual returns (address) {... */\n      tag_28\n        /* \"#utility.yul\":1741:1944   */\n      jump\n        /* \"contracts/Manager/royalty/RoyaltyFeeRegistry.sol\":4787:5278  function updateRoyaltyInfoForCollectionIfAdmin(... */\n    tag_10:\n      tag_20\n      tag_48\n      calldatasize\n      0x04\n      tag_22\n      jump\t// in\n    tag_48:\n      tag_49\n      jump\t// in\n        /* \"contracts/Manager/royalty/RoyaltyFeeRegistry.sol\":729:785  bytes4 public constant INTERFACE_ID_ERC2981 = 0x2a55205a */\n    tag_11:\n      tag_30\n      shl(0xe1, 0x152a902d)\n      dup2\n      jump\n        /* \"contracts/Manager/royalty/RoyaltyFeeRegistry.sol\":1460:1763  function updateRoyaltyFeeLimit(uint256 _royaltyFeeLimit) external override onlyOwner {... */\n    tag_12:\n      tag_20\n      tag_54\n      calldatasize\n      0x04\n      tag_55\n      jump\t// in\n    tag_54:\n      tag_56\n      jump\t// in\n        /* \"contracts/Manager/royalty/RoyaltyFeeRegistry.sol\":550:605  bytes4 public constant INTERFACE_ID_ERC721 = 0x80ac58cd */\n    tag_13:\n      tag_30\n      shl(0xe0, 0x80ac58cd)\n      dup2\n      jump\n        /* \"contracts/Manager/royalty/RoyaltyFeeRegistry.sol\":3627:4423  function checkForCollectionSetter(address collection) external view returns (address, uint8) {... */\n    tag_14:\n      tag_60\n      tag_61\n      calldatasize\n      0x04\n      tag_62\n      jump\t// in\n    tag_61:\n      tag_63\n      jump\t// in\n    tag_60:\n      0x40\n      dup1\n      mload\n      sub(shl(0xa0, 0x01), 0x01)\n        /* \"#utility.yul\":2574:2606   */\n      swap1\n      swap4\n      and\n        /* \"#utility.yul\":2556:2607   */\n      dup4\n      mstore\n        /* \"#utility.yul\":2655:2659   */\n      0xff\n        /* \"#utility.yul\":2643:2660   */\n      swap1\n      swap2\n      and\n        /* \"#utility.yul\":2638:2640   */\n      0x20\n        /* \"#utility.yul\":2623:2641   */\n      dup4\n      add\n        /* \"#utility.yul\":2616:2661   */\n      mstore\n        /* \"#utility.yul\":2529:2547   */\n      add\n        /* \"contracts/Manager/royalty/RoyaltyFeeRegistry.sol\":3627:4423  function checkForCollectionSetter(address collection) external view returns (address, uint8) {... */\n      tag_28\n        /* \"#utility.yul\":2386:2667   */\n      jump\n        /* \"contracts/Manager/royalty/RoyaltyFeeRegistry.sol\":2649:3007  function royaltyFeeInfoCollection(address collection)... */\n    tag_15:\n      tag_66\n      tag_67\n      calldatasize\n      0x04\n      tag_62\n      jump\t// in\n    tag_67:\n      sub(shl(0xa0, 0x01), 0x01)\n        /* \"contracts/Manager/royalty/RoyaltyFeeRegistry.sol\":2839:2876  _royaltyFeeInfoCollection[collection] */\n      swap1\n      dup2\n      and\n        /* \"contracts/Manager/royalty/RoyaltyFeeRegistry.sol\":2760:2767  address */\n      0x00\n        /* \"contracts/Manager/royalty/RoyaltyFeeRegistry.sol\":2839:2876  _royaltyFeeInfoCollection[collection] */\n      swap1\n      dup2\n      mstore\n        /* \"contracts/Manager/royalty/RoyaltyFeeRegistry.sol\":2839:2864  _royaltyFeeInfoCollection */\n      0x02\n        /* \"contracts/Manager/royalty/RoyaltyFeeRegistry.sol\":2839:2876  _royaltyFeeInfoCollection[collection] */\n      0x20\n      dup2\n      swap1\n      mstore\n      0x40\n      swap1\n      swap2\n      keccak256\n        /* \"contracts/Manager/royalty/RoyaltyFeeRegistry.sol\":2839:2883  _royaltyFeeInfoCollection[collection].setter */\n      dup1\n      sload\n      0x01\n        /* \"contracts/Manager/royalty/RoyaltyFeeRegistry.sol\":2893:2939  _royaltyFeeInfoCollection[collection].receiver */\n      dup3\n      add\n      sload\n        /* \"contracts/Manager/royalty/RoyaltyFeeRegistry.sol\":2949:2990  _royaltyFeeInfoCollection[collection].fee */\n      swap2\n      swap1\n      swap3\n      add\n      sload\n        /* \"contracts/Manager/royalty/RoyaltyFeeRegistry.sol\":2839:2883  _royaltyFeeInfoCollection[collection].setter */\n      swap2\n      dup4\n      and\n      swap4\n        /* \"contracts/Manager/royalty/RoyaltyFeeRegistry.sol\":2893:2939  _royaltyFeeInfoCollection[collection].receiver */\n      swap3\n      and\n      swap2\n        /* \"contracts/Manager/royalty/RoyaltyFeeRegistry.sol\":2649:3007  function royaltyFeeInfoCollection(address collection)... */\n      jump\n    tag_66:\n      0x40\n      dup1\n      mload\n      sub(shl(0xa0, 0x01), 0x01)\n        /* \"#utility.yul\":2930:2945   */\n      swap5\n      dup6\n      and\n        /* \"#utility.yul\":2912:2946   */\n      dup2\n      mstore\n        /* \"#utility.yul\":2982:2997   */\n      swap4\n      swap1\n      swap3\n      and\n        /* \"#utility.yul\":2977:2979   */\n      0x20\n        /* \"#utility.yul\":2962:2980   */\n      dup5\n      add\n        /* \"#utility.yul\":2955:2998   */\n      mstore\n        /* \"#utility.yul\":3014:3032   */\n      swap1\n      dup3\n      add\n        /* \"#utility.yul\":3007:3041   */\n      mstore\n        /* \"#utility.yul\":2862:2864   */\n      0x60\n        /* \"#utility.yul\":2847:2865   */\n      add\n        /* \"contracts/Manager/royalty/RoyaltyFeeRegistry.sol\":2649:3007  function royaltyFeeInfoCollection(address collection)... */\n      tag_28\n        /* \"#utility.yul\":2672:3047   */\n      jump\n        /* \"@openzeppelin/contracts/access/Ownable.sol\":2081:2279  function transferOwnership(address newOwner) public virtual onlyOwner {... */\n    tag_16:\n      tag_20\n      tag_72\n      calldatasize\n      0x04\n      tag_62\n      jump\t// in\n    tag_72:\n      tag_73\n      jump\t// in\n        /* \"contracts/Manager/royalty/RoyaltyFeeRegistry.sol\":3013:3408  function updateRoyaltyInfoForCollectionIfSetter(... */\n    tag_23:\n      sub(shl(0xa0, 0x01), 0x01)\n        /* \"contracts/Manager/royalty/RoyaltyFeeRegistry.sol\":3209:3246  _royaltyFeeInfoCollection[collection] */\n      dup1\n      dup6\n      and\n        /* \"contracts/Manager/royalty/RoyaltyFeeRegistry.sol\":3185:3206  address currentSetter */\n      0x00\n        /* \"contracts/Manager/royalty/RoyaltyFeeRegistry.sol\":3209:3246  _royaltyFeeInfoCollection[collection] */\n      swap1\n      dup2\n      mstore\n        /* \"contracts/Manager/royalty/RoyaltyFeeRegistry.sol\":3209:3234  _royaltyFeeInfoCollection */\n      0x02\n        /* \"contracts/Manager/royalty/RoyaltyFeeRegistry.sol\":3209:3246  _royaltyFeeInfoCollection[collection] */\n      0x20\n      mstore\n      0x40\n      swap1\n      keccak256\n        /* \"contracts/Manager/royalty/RoyaltyFeeRegistry.sol\":3209:3253  _royaltyFeeInfoCollection[collection].setter */\n      sload\n      and\n        /* \"contracts/Manager/royalty/RoyaltyFeeRegistry.sol\":3271:3281  msg.sender */\n      caller\n        /* \"contracts/Manager/royalty/RoyaltyFeeRegistry.sol\":3271:3298  msg.sender == currentSetter */\n      dup2\n      eq\n        /* \"contracts/Manager/royalty/RoyaltyFeeRegistry.sol\":3263:3325  require(msg.sender == currentSetter, \"Setter: Not the setter\") */\n      tag_75\n      jumpi\n      mload(0x40)\n      shl(0xe5, 0x461bcd)\n      dup2\n      mstore\n        /* \"#utility.yul\":3254:3256   */\n      0x20\n        /* \"contracts/Manager/royalty/RoyaltyFeeRegistry.sol\":3263:3325  require(msg.sender == currentSetter, \"Setter: Not the setter\") */\n      0x04\n      dup3\n      add\n        /* \"#utility.yul\":3236:3257   */\n      mstore\n        /* \"#utility.yul\":3293:3295   */\n      0x16\n        /* \"#utility.yul\":3273:3291   */\n      0x24\n      dup3\n      add\n        /* \"#utility.yul\":3266:3296   */\n      mstore\n      shl(0x51, 0x29b2ba3a32b91d102737ba103a34329039b2ba3a32b9)\n        /* \"#utility.yul\":3312:3330   */\n      0x44\n      dup3\n      add\n        /* \"#utility.yul\":3305:3357   */\n      mstore\n        /* \"#utility.yul\":3374:3392   */\n      0x64\n      add\n        /* \"contracts/Manager/royalty/RoyaltyFeeRegistry.sol\":3263:3325  require(msg.sender == currentSetter, \"Setter: Not the setter\") */\n    tag_76:\n      mload(0x40)\n      dup1\n      swap2\n      sub\n      swap1\n      revert\n    tag_75:\n        /* \"contracts/Manager/royalty/RoyaltyFeeRegistry.sol\":3336:3401  updateRoyaltyInfoForCollection(collection, setter, receiver, fee) */\n      tag_78\n        /* \"contracts/Manager/royalty/RoyaltyFeeRegistry.sol\":3367:3377  collection */\n      dup6\n        /* \"contracts/Manager/royalty/RoyaltyFeeRegistry.sol\":3379:3385  setter */\n      dup6\n        /* \"contracts/Manager/royalty/RoyaltyFeeRegistry.sol\":3387:3395  receiver */\n      dup6\n        /* \"contracts/Manager/royalty/RoyaltyFeeRegistry.sol\":3397:3400  fee */\n      dup6\n        /* \"contracts/Manager/royalty/RoyaltyFeeRegistry.sol\":3336:3366  updateRoyaltyInfoForCollection */\n      tag_79\n        /* \"contracts/Manager/royalty/RoyaltyFeeRegistry.sol\":3336:3401  updateRoyaltyInfoForCollection(collection, setter, receiver, fee) */\n      jump\t// in\n    tag_78:\n        /* \"contracts/Manager/royalty/RoyaltyFeeRegistry.sol\":3175:3408  {... */\n      pop\n        /* \"contracts/Manager/royalty/RoyaltyFeeRegistry.sol\":3013:3408  function updateRoyaltyInfoForCollectionIfSetter(... */\n      pop\n      pop\n      pop\n      pop\n      jump\t// out\n        /* \"contracts/Manager/royalty/RoyaltyFeeRegistry.sol\":2340:2607  function royaltyInfo(address collection, uint256 amount) external view override returns (address, uint256) {... */\n    tag_27:\n      sub(shl(0xa0, 0x01), 0x01)\n        /* \"contracts/Manager/royalty/RoyaltyFeeRegistry.sol\":2474:2511  _royaltyFeeInfoCollection[collection] */\n      dup1\n      dup4\n      and\n        /* \"contracts/Manager/royalty/RoyaltyFeeRegistry.sol\":2429:2436  address */\n      0x00\n        /* \"contracts/Manager/royalty/RoyaltyFeeRegistry.sol\":2474:2511  _royaltyFeeInfoCollection[collection] */\n      swap1\n      dup2\n      mstore\n        /* \"contracts/Manager/royalty/RoyaltyFeeRegistry.sol\":2474:2499  _royaltyFeeInfoCollection */\n      0x02\n        /* \"contracts/Manager/royalty/RoyaltyFeeRegistry.sol\":2474:2511  _royaltyFeeInfoCollection[collection] */\n      0x20\n      dup2\n      swap1\n      mstore\n      0x40\n      dup3\n      keccak256\n        /* \"contracts/Manager/royalty/RoyaltyFeeRegistry.sol\":2474:2520  _royaltyFeeInfoCollection[collection].receiver */\n      0x01\n      dup2\n      add\n      sload\n        /* \"contracts/Manager/royalty/RoyaltyFeeRegistry.sol\":2540:2581  _royaltyFeeInfoCollection[collection].fee */\n      swap2\n      add\n      sload\n        /* \"contracts/Manager/royalty/RoyaltyFeeRegistry.sol\":2429:2436  address */\n      swap2\n      swap3\n      dup4\n      swap3\n        /* \"contracts/Manager/royalty/RoyaltyFeeRegistry.sol\":2474:2520  _royaltyFeeInfoCollection[collection].receiver */\n      swap2\n      and\n      swap1\n        /* \"contracts/Manager/royalty/RoyaltyFeeRegistry.sol\":2585:2590  10000 */\n      0x2710\n      swap1\n        /* \"contracts/Manager/royalty/RoyaltyFeeRegistry.sol\":2531:2581  amount * _royaltyFeeInfoCollection[collection].fee */\n      tag_81\n      swap1\n        /* \"contracts/Manager/royalty/RoyaltyFeeRegistry.sol\":2531:2537  amount */\n      dup7\n        /* \"contracts/Manager/royalty/RoyaltyFeeRegistry.sol\":2531:2581  amount * _royaltyFeeInfoCollection[collection].fee */\n      tag_82\n      jump\t// in\n    tag_81:\n        /* \"contracts/Manager/royalty/RoyaltyFeeRegistry.sol\":2530:2590  (amount * _royaltyFeeInfoCollection[collection].fee) / 10000 */\n      tag_83\n      swap2\n      swap1\n      tag_84\n      jump\t// in\n    tag_83:\n        /* \"contracts/Manager/royalty/RoyaltyFeeRegistry.sol\":2457:2600  return (... */\n      swap2\n      pop\n      swap2\n      pop\n        /* \"contracts/Manager/royalty/RoyaltyFeeRegistry.sol\":2340:2607  function royaltyInfo(address collection, uint256 amount) external view override returns (address, uint256) {... */\n      swap3\n      pop\n      swap3\n      swap1\n      pop\n      jump\t// out\n        /* \"contracts/Manager/royalty/RoyaltyFeeRegistry.sol\":5546:5987  function updateRoyaltyInfoForCollectionIfOwner(... */\n    tag_36:\n        /* \"contracts/Manager/royalty/RoyaltyFeeRegistry.sol\":5726:5785  IERC165(collection).supportsInterface(INTERFACE_ID_ERC2981) */\n      mload(0x40)\n      shl(0xe0, 0x01ffc9a7)\n      dup2\n      mstore\n      sub(shl(0xa0, 0x01), 0x01)\n        /* \"contracts/Manager/royalty/RoyaltyFeeRegistry.sol\":5726:5763  IERC165(collection).supportsInterface */\n      dup6\n      and\n      swap1\n      0x01ffc9a7\n      swap1\n        /* \"contracts/Manager/royalty/RoyaltyFeeRegistry.sol\":5726:5785  IERC165(collection).supportsInterface(INTERFACE_ID_ERC2981) */\n      tag_86\n      swap1\n      shl(0xe1, 0x152a902d)\n        /* \"contracts/Manager/royalty/RoyaltyFeeRegistry.sol\":5764:5784  INTERFACE_ID_ERC2981 */\n      swap1\n        /* \"contracts/Manager/royalty/RoyaltyFeeRegistry.sol\":5726:5785  IERC165(collection).supportsInterface(INTERFACE_ID_ERC2981) */\n      0x04\n      add\n      tag_33\n      jump\t// in\n    tag_86:\n      0x20\n      mload(0x40)\n      dup1\n      dup4\n      sub\n      dup2\n      dup7\n      gas\n      staticcall\n      iszero\n      dup1\n      iszero\n      tag_88\n      jumpi\n      returndatasize\n      0x00\n      dup1\n      returndatacopy\n      revert(0x00, returndatasize)\n    tag_88:\n      pop\n      pop\n      pop\n      pop\n      mload(0x40)\n      returndatasize\n      not(0x1f)\n      0x1f\n      dup3\n      add\n      and\n      dup3\n      add\n      dup1\n      0x40\n      mstore\n      pop\n      dup2\n      add\n      swap1\n      tag_89\n      swap2\n      swap1\n      tag_90\n      jump\t// in\n    tag_89:\n        /* \"contracts/Manager/royalty/RoyaltyFeeRegistry.sol\":5725:5785  !IERC165(collection).supportsInterface(INTERFACE_ID_ERC2981) */\n      iszero\n        /* \"contracts/Manager/royalty/RoyaltyFeeRegistry.sol\":5717:5810  require(!IERC165(collection).supportsInterface(INTERFACE_ID_ERC2981), \" Must not be ERC2981\") */\n      tag_91\n      jumpi\n      mload(0x40)\n      shl(0xe5, 0x461bcd)\n      dup2\n      mstore\n        /* \"#utility.yul\":4379:4381   */\n      0x20\n        /* \"contracts/Manager/royalty/RoyaltyFeeRegistry.sol\":5717:5810  require(!IERC165(collection).supportsInterface(INTERFACE_ID_ERC2981), \" Must not be ERC2981\") */\n      0x04\n      dup3\n      add\n        /* \"#utility.yul\":4361:4382   */\n      mstore\n        /* \"#utility.yul\":4418:4420   */\n      0x14\n        /* \"#utility.yul\":4398:4416   */\n      0x24\n      dup3\n      add\n        /* \"#utility.yul\":4391:4421   */\n      mstore\n      shl(0x60, 0x204d757374206e6f742062652045524332393831)\n        /* \"#utility.yul\":4437:4455   */\n      0x44\n      dup3\n      add\n        /* \"#utility.yul\":4430:4480   */\n      mstore\n        /* \"#utility.yul\":4497:4515   */\n      0x64\n      add\n        /* \"contracts/Manager/royalty/RoyaltyFeeRegistry.sol\":5717:5810  require(!IERC165(collection).supportsInterface(INTERFACE_ID_ERC2981), \" Must not be ERC2981\") */\n      tag_76\n        /* \"#utility.yul\":4177:4521   */\n      jump\n        /* \"contracts/Manager/royalty/RoyaltyFeeRegistry.sol\":5717:5810  require(!IERC165(collection).supportsInterface(INTERFACE_ID_ERC2981), \" Must not be ERC2981\") */\n    tag_91:\n        /* \"contracts/Manager/royalty/RoyaltyFeeRegistry.sol\":5851:5861  collection */\n      dup4\n      sub(shl(0xa0, 0x01), 0x01)\n        /* \"contracts/Manager/royalty/RoyaltyFeeRegistry.sol\":5842:5868  IOwnable(collection).owner */\n      and\n      0x8da5cb5b\n        /* \"contracts/Manager/royalty/RoyaltyFeeRegistry.sol\":5842:5870  IOwnable(collection).owner() */\n      mload(0x40)\n      dup2\n      0xffffffff\n      and\n      0xe0\n      shl\n      dup2\n      mstore\n      0x04\n      add\n      0x20\n      mload(0x40)\n      dup1\n      dup4\n      sub\n      dup2\n      dup7\n      gas\n      staticcall\n      iszero\n      dup1\n      iszero\n      tag_95\n      jumpi\n      returndatasize\n      0x00\n      dup1\n      returndatacopy\n      revert(0x00, returndatasize)\n    tag_95:\n      pop\n      pop\n      pop\n      pop\n      mload(0x40)\n      returndatasize\n      not(0x1f)\n      0x1f\n      dup3\n      add\n      and\n      dup3\n      add\n      dup1\n      0x40\n      mstore\n      pop\n      dup2\n      add\n      swap1\n      tag_96\n      swap2\n      swap1\n      tag_97\n      jump\t// in\n    tag_96:\n      sub(shl(0xa0, 0x01), 0x01)\n        /* \"contracts/Manager/royalty/RoyaltyFeeRegistry.sol\":5828:5870  msg.sender == IOwnable(collection).owner() */\n      and\n        /* \"contracts/Manager/royalty/RoyaltyFeeRegistry.sol\":5828:5838  msg.sender */\n      caller\n      sub(shl(0xa0, 0x01), 0x01)\n        /* \"contracts/Manager/royalty/RoyaltyFeeRegistry.sol\":5828:5870  msg.sender == IOwnable(collection).owner() */\n      and\n      eq\n        /* \"contracts/Manager/royalty/RoyaltyFeeRegistry.sol\":5820:5889  require(msg.sender == IOwnable(collection).owner(), \" Not the owner\") */\n      tag_98\n      jumpi\n      mload(0x40)\n      shl(0xe5, 0x461bcd)\n      dup2\n      mstore\n        /* \"#utility.yul\":4984:4986   */\n      0x20\n        /* \"contracts/Manager/royalty/RoyaltyFeeRegistry.sol\":5820:5889  require(msg.sender == IOwnable(collection).owner(), \" Not the owner\") */\n      0x04\n      dup3\n      add\n        /* \"#utility.yul\":4966:4987   */\n      mstore\n        /* \"#utility.yul\":5023:5025   */\n      0x0e\n        /* \"#utility.yul\":5003:5021   */\n      0x24\n      dup3\n      add\n        /* \"#utility.yul\":4996:5026   */\n      mstore\n      shl(0x91, 0x102737ba103a34329037bbb732b9)\n        /* \"#utility.yul\":5042:5060   */\n      0x44\n      dup3\n      add\n        /* \"#utility.yul\":5035:5079   */\n      mstore\n        /* \"#utility.yul\":5096:5114   */\n      0x64\n      add\n        /* \"contracts/Manager/royalty/RoyaltyFeeRegistry.sol\":5820:5889  require(msg.sender == IOwnable(collection).owner(), \" Not the owner\") */\n      tag_76\n        /* \"#utility.yul\":4782:5120   */\n      jump\n        /* \"contracts/Manager/royalty/RoyaltyFeeRegistry.sol\":5820:5889  require(msg.sender == IOwnable(collection).owner(), \" Not the owner\") */\n    tag_98:\n        /* \"contracts/Manager/royalty/RoyaltyFeeRegistry.sol\":5900:5980  _updateRoyaltyInfoForCollectionIfOwnerOrAdmin(collection, setter, receiver, fee) */\n      tag_101\n        /* \"contracts/Manager/royalty/RoyaltyFeeRegistry.sol\":5946:5956  collection */\n      dup5\n        /* \"contracts/Manager/royalty/RoyaltyFeeRegistry.sol\":5958:5964  setter */\n      dup5\n        /* \"contracts/Manager/royalty/RoyaltyFeeRegistry.sol\":5966:5974  receiver */\n      dup5\n        /* \"contracts/Manager/royalty/RoyaltyFeeRegistry.sol\":5976:5979  fee */\n      dup5\n        /* \"contracts/Manager/royalty/RoyaltyFeeRegistry.sol\":5900:5945  _updateRoyaltyInfoForCollectionIfOwnerOrAdmin */\n      tag_102\n        /* \"contracts/Manager/royalty/RoyaltyFeeRegistry.sol\":5900:5980  _updateRoyaltyInfoForCollectionIfOwnerOrAdmin(collection, setter, receiver, fee) */\n      jump\t// in\n    tag_101:\n        /* \"contracts/Manager/royalty/RoyaltyFeeRegistry.sol\":5546:5987  function updateRoyaltyInfoForCollectionIfOwner(... */\n      pop\n      pop\n      pop\n      pop\n      jump\t// out\n        /* \"@openzeppelin/contracts/access/Ownable.sol\":1831:1932  function renounceOwnership() public virtual onlyOwner {... */\n    tag_42:\n        /* \"@openzeppelin/contracts/access/Ownable.sol\":1094:1107  _checkOwner() */\n      tag_104\n        /* \"@openzeppelin/contracts/access/Ownable.sol\":1094:1105  _checkOwner */\n      tag_105\n        /* \"@openzeppelin/contracts/access/Ownable.sol\":1094:1107  _checkOwner() */\n      jump\t// in\n    tag_104:\n        /* \"@openzeppelin/contracts/access/Ownable.sol\":1895:1925  _transferOwnership(address(0)) */\n      tag_107\n        /* \"@openzeppelin/contracts/access/Ownable.sol\":1922:1923  0 */\n      0x00\n        /* \"@openzeppelin/contracts/access/Ownable.sol\":1895:1913  _transferOwnership */\n      tag_108\n        /* \"@openzeppelin/contracts/access/Ownable.sol\":1895:1925  _transferOwnership(address(0)) */\n      jump\t// in\n    tag_107:\n        /* \"@openzeppelin/contracts/access/Ownable.sol\":1831:1932  function renounceOwnership() public virtual onlyOwner {... */\n      jump\t// out\n        /* \"contracts/Manager/royalty/RoyaltyFeeRegistry.sol\":4787:5278  function updateRoyaltyInfoForCollectionIfAdmin(... */\n    tag_49:\n        /* \"contracts/Manager/royalty/RoyaltyFeeRegistry.sol\":5017:5076  IERC165(collection).supportsInterface(INTERFACE_ID_ERC2981) */\n      mload(0x40)\n      shl(0xe0, 0x01ffc9a7)\n      dup2\n      mstore\n      sub(shl(0xa0, 0x01), 0x01)\n        /* \"contracts/Manager/royalty/RoyaltyFeeRegistry.sol\":5017:5054  IERC165(collection).supportsInterface */\n      dup6\n      and\n      swap1\n      0x01ffc9a7\n      swap1\n        /* \"contracts/Manager/royalty/RoyaltyFeeRegistry.sol\":5017:5076  IERC165(collection).supportsInterface(INTERFACE_ID_ERC2981) */\n      tag_111\n      swap1\n      shl(0xe1, 0x152a902d)\n        /* \"contracts/Manager/royalty/RoyaltyFeeRegistry.sol\":5055:5075  INTERFACE_ID_ERC2981 */\n      swap1\n        /* \"contracts/Manager/royalty/RoyaltyFeeRegistry.sol\":5017:5076  IERC165(collection).supportsInterface(INTERFACE_ID_ERC2981) */\n      0x04\n      add\n      tag_33\n      jump\t// in\n    tag_111:\n      0x20\n      mload(0x40)\n      dup1\n      dup4\n      sub\n      dup2\n      dup7\n      gas\n      staticcall\n      iszero\n      dup1\n      iszero\n      tag_113\n      jumpi\n      returndatasize\n      0x00\n      dup1\n      returndatacopy\n      revert(0x00, returndatasize)\n    tag_113:\n      pop\n      pop\n      pop\n      pop\n      mload(0x40)\n      returndatasize\n      not(0x1f)\n      0x1f\n      dup3\n      add\n      and\n      dup3\n      add\n      dup1\n      0x40\n      mstore\n      pop\n      dup2\n      add\n      swap1\n      tag_114\n      swap2\n      swap1\n      tag_90\n      jump\t// in\n    tag_114:\n        /* \"contracts/Manager/royalty/RoyaltyFeeRegistry.sol\":5016:5076  !IERC165(collection).supportsInterface(INTERFACE_ID_ERC2981) */\n      iszero\n        /* \"contracts/Manager/royalty/RoyaltyFeeRegistry.sol\":5008:5101  require(!IERC165(collection).supportsInterface(INTERFACE_ID_ERC2981), \" Must not be ERC2981\") */\n      tag_115\n      jumpi\n      mload(0x40)\n      shl(0xe5, 0x461bcd)\n      dup2\n      mstore\n        /* \"#utility.yul\":4379:4381   */\n      0x20\n        /* \"contracts/Manager/royalty/RoyaltyFeeRegistry.sol\":5008:5101  require(!IERC165(collection).supportsInterface(INTERFACE_ID_ERC2981), \" Must not be ERC2981\") */\n      0x04\n      dup3\n      add\n        /* \"#utility.yul\":4361:4382   */\n      mstore\n        /* \"#utility.yul\":4418:4420   */\n      0x14\n        /* \"#utility.yul\":4398:4416   */\n      0x24\n      dup3\n      add\n        /* \"#utility.yul\":4391:4421   */\n      mstore\n      shl(0x60, 0x204d757374206e6f742062652045524332393831)\n        /* \"#utility.yul\":4437:4455   */\n      0x44\n      dup3\n      add\n        /* \"#utility.yul\":4430:4480   */\n      mstore\n        /* \"#utility.yul\":4497:4515   */\n      0x64\n      add\n        /* \"contracts/Manager/royalty/RoyaltyFeeRegistry.sol\":5008:5101  require(!IERC165(collection).supportsInterface(INTERFACE_ID_ERC2981), \" Must not be ERC2981\") */\n      tag_76\n        /* \"#utility.yul\":4177:4521   */\n      jump\n        /* \"contracts/Manager/royalty/RoyaltyFeeRegistry.sol\":5008:5101  require(!IERC165(collection).supportsInterface(INTERFACE_ID_ERC2981), \" Must not be ERC2981\") */\n    tag_115:\n        /* \"contracts/Manager/royalty/RoyaltyFeeRegistry.sol\":5142:5152  collection */\n      dup4\n      sub(shl(0xa0, 0x01), 0x01)\n        /* \"contracts/Manager/royalty/RoyaltyFeeRegistry.sol\":5133:5159  IOwnable(collection).admin */\n      and\n      0xf851a440\n        /* \"contracts/Manager/royalty/RoyaltyFeeRegistry.sol\":5133:5161  IOwnable(collection).admin() */\n      mload(0x40)\n      dup2\n      0xffffffff\n      and\n      0xe0\n      shl\n      dup2\n      mstore\n      0x04\n      add\n      0x20\n      mload(0x40)\n      dup1\n      dup4\n      sub\n      dup2\n      dup7\n      gas\n      staticcall\n      iszero\n      dup1\n      iszero\n      tag_118\n      jumpi\n      returndatasize\n      0x00\n      dup1\n      returndatacopy\n      revert(0x00, returndatasize)\n    tag_118:\n      pop\n      pop\n      pop\n      pop\n      mload(0x40)\n      returndatasize\n      not(0x1f)\n      0x1f\n      dup3\n      add\n      and\n      dup3\n      add\n      dup1\n      0x40\n      mstore\n      pop\n      dup2\n      add\n      swap1\n      tag_119\n      swap2\n      swap1\n      tag_97\n      jump\t// in\n    tag_119:\n      sub(shl(0xa0, 0x01), 0x01)\n        /* \"contracts/Manager/royalty/RoyaltyFeeRegistry.sol\":5119:5161  msg.sender == IOwnable(collection).admin() */\n      and\n        /* \"contracts/Manager/royalty/RoyaltyFeeRegistry.sol\":5119:5129  msg.sender */\n      caller\n      sub(shl(0xa0, 0x01), 0x01)\n        /* \"contracts/Manager/royalty/RoyaltyFeeRegistry.sol\":5119:5161  msg.sender == IOwnable(collection).admin() */\n      and\n      eq\n        /* \"contracts/Manager/royalty/RoyaltyFeeRegistry.sol\":5111:5180  require(msg.sender == IOwnable(collection).admin(), \" Not the admin\") */\n      tag_98\n      jumpi\n      mload(0x40)\n      shl(0xe5, 0x461bcd)\n      dup2\n      mstore\n        /* \"#utility.yul\":5327:5329   */\n      0x20\n        /* \"contracts/Manager/royalty/RoyaltyFeeRegistry.sol\":5111:5180  require(msg.sender == IOwnable(collection).admin(), \" Not the admin\") */\n      0x04\n      dup3\n      add\n        /* \"#utility.yul\":5309:5330   */\n      mstore\n        /* \"#utility.yul\":5366:5368   */\n      0x0e\n        /* \"#utility.yul\":5346:5364   */\n      0x24\n      dup3\n      add\n        /* \"#utility.yul\":5339:5369   */\n      mstore\n      shl(0x91, 0x102737ba103a34329030b236b4b7)\n        /* \"#utility.yul\":5385:5403   */\n      0x44\n      dup3\n      add\n        /* \"#utility.yul\":5378:5422   */\n      mstore\n        /* \"#utility.yul\":5439:5457   */\n      0x64\n      add\n        /* \"contracts/Manager/royalty/RoyaltyFeeRegistry.sol\":5111:5180  require(msg.sender == IOwnable(collection).admin(), \" Not the admin\") */\n      tag_76\n        /* \"#utility.yul\":5125:5463   */\n      jump\n        /* \"contracts/Manager/royalty/RoyaltyFeeRegistry.sol\":1460:1763  function updateRoyaltyFeeLimit(uint256 _royaltyFeeLimit) external override onlyOwner {... */\n    tag_56:\n        /* \"@openzeppelin/contracts/access/Ownable.sol\":1094:1107  _checkOwner() */\n      tag_125\n        /* \"@openzeppelin/contracts/access/Ownable.sol\":1094:1105  _checkOwner */\n      tag_105\n        /* \"@openzeppelin/contracts/access/Ownable.sol\":1094:1107  _checkOwner() */\n      jump\t// in\n    tag_125:\n        /* \"contracts/Manager/royalty/RoyaltyFeeRegistry.sol\":1625:1629  9500 */\n      0x251c\n        /* \"contracts/Manager/royalty/RoyaltyFeeRegistry.sol\":1605:1621  _royaltyFeeLimit */\n      dup2\n        /* \"contracts/Manager/royalty/RoyaltyFeeRegistry.sol\":1605:1629  _royaltyFeeLimit <= 9500 */\n      gt\n      iszero\n        /* \"contracts/Manager/royalty/RoyaltyFeeRegistry.sol\":1597:1660  require(_royaltyFeeLimit <= 9500, \"Royalty fee limit too high\") */\n      tag_127\n      jumpi\n      mload(0x40)\n      shl(0xe5, 0x461bcd)\n      dup2\n      mstore\n        /* \"#utility.yul\":5670:5672   */\n      0x20\n        /* \"contracts/Manager/royalty/RoyaltyFeeRegistry.sol\":1597:1660  require(_royaltyFeeLimit <= 9500, \"Royalty fee limit too high\") */\n      0x04\n      dup3\n      add\n        /* \"#utility.yul\":5652:5673   */\n      mstore\n        /* \"#utility.yul\":5709:5711   */\n      0x1a\n        /* \"#utility.yul\":5689:5707   */\n      0x24\n      dup3\n      add\n        /* \"#utility.yul\":5682:5712   */\n      mstore\n        /* \"#utility.yul\":5748:5776   */\n      0x526f79616c747920666565206c696d697420746f6f2068696768000000000000\n        /* \"#utility.yul\":5728:5746   */\n      0x44\n      dup3\n      add\n        /* \"#utility.yul\":5721:5777   */\n      mstore\n        /* \"#utility.yul\":5794:5812   */\n      0x64\n      add\n        /* \"contracts/Manager/royalty/RoyaltyFeeRegistry.sol\":1597:1660  require(_royaltyFeeLimit <= 9500, \"Royalty fee limit too high\") */\n      tag_76\n        /* \"#utility.yul\":5468:5818   */\n      jump\n        /* \"contracts/Manager/royalty/RoyaltyFeeRegistry.sol\":1597:1660  require(_royaltyFeeLimit <= 9500, \"Royalty fee limit too high\") */\n    tag_127:\n        /* \"contracts/Manager/royalty/RoyaltyFeeRegistry.sol\":1670:1685  royaltyFeeLimit */\n      0x01\n        /* \"contracts/Manager/royalty/RoyaltyFeeRegistry.sol\":1670:1704  royaltyFeeLimit = _royaltyFeeLimit */\n      dup2\n      swap1\n      sstore\n        /* \"contracts/Manager/royalty/RoyaltyFeeRegistry.sol\":1720:1756  NewRoyaltyFeeLimit(_royaltyFeeLimit) */\n      mload(0x40)\n        /* \"#utility.yul\":1705:1730   */\n      dup2\n      dup2\n      mstore\n        /* \"contracts/Manager/royalty/RoyaltyFeeRegistry.sol\":1720:1756  NewRoyaltyFeeLimit(_royaltyFeeLimit) */\n      0x2da7166c72ef3860ef4fb2571105533c40615269a6dbc38ce0b264910df1c256\n      swap1\n        /* \"#utility.yul\":1693:1695   */\n      0x20\n        /* \"#utility.yul\":1678:1696   */\n      add\n        /* \"contracts/Manager/royalty/RoyaltyFeeRegistry.sol\":1720:1756  NewRoyaltyFeeLimit(_royaltyFeeLimit) */\n      mload(0x40)\n      dup1\n      swap2\n      sub\n      swap1\n      log1\n        /* \"contracts/Manager/royalty/RoyaltyFeeRegistry.sol\":1460:1763  function updateRoyaltyFeeLimit(uint256 _royaltyFeeLimit) external override onlyOwner {... */\n      pop\n      jump\t// out\n        /* \"contracts/Manager/royalty/RoyaltyFeeRegistry.sol\":3627:4423  function checkForCollectionSetter(address collection) external view returns (address, uint8) {... */\n    tag_63:\n      sub(shl(0xa0, 0x01), 0x01)\n        /* \"contracts/Manager/royalty/RoyaltyFeeRegistry.sol\":3754:3791  _royaltyFeeInfoCollection[collection] */\n      dup1\n      dup3\n      and\n        /* \"contracts/Manager/royalty/RoyaltyFeeRegistry.sol\":3704:3711  address */\n      0x00\n        /* \"contracts/Manager/royalty/RoyaltyFeeRegistry.sol\":3754:3791  _royaltyFeeInfoCollection[collection] */\n      swap1\n      dup2\n      mstore\n        /* \"contracts/Manager/royalty/RoyaltyFeeRegistry.sol\":3754:3779  _royaltyFeeInfoCollection */\n      0x02\n        /* \"contracts/Manager/royalty/RoyaltyFeeRegistry.sol\":3754:3791  _royaltyFeeInfoCollection[collection] */\n      0x20\n      mstore\n      0x40\n      dup2\n      keccak256\n        /* \"contracts/Manager/royalty/RoyaltyFeeRegistry.sol\":3754:3798  _royaltyFeeInfoCollection[collection].setter */\n      sload\n        /* \"contracts/Manager/royalty/RoyaltyFeeRegistry.sol\":3704:3711  address */\n      swap1\n      swap2\n      dup3\n      swap2\n        /* \"contracts/Manager/royalty/RoyaltyFeeRegistry.sol\":3754:3798  _royaltyFeeInfoCollection[collection].setter */\n      and\n        /* \"contracts/Manager/royalty/RoyaltyFeeRegistry.sol\":3812:3839  currentSetter != address(0) */\n      dup1\n      iszero\n        /* \"contracts/Manager/royalty/RoyaltyFeeRegistry.sol\":3808:3889  if (currentSetter != address(0)){... */\n      tag_132\n      jumpi\n        /* \"contracts/Manager/royalty/RoyaltyFeeRegistry.sol\":3862:3875  currentSetter */\n      swap4\n        /* \"contracts/Manager/royalty/RoyaltyFeeRegistry.sol\":3876:3877  0 */\n      0x00\n      swap4\n      pop\n        /* \"contracts/Manager/royalty/RoyaltyFeeRegistry.sol\":3627:4423  function checkForCollectionSetter(address collection) external view returns (address, uint8) {... */\n      swap2\n      pop\n      pop\n      jump\t// out\n        /* \"contracts/Manager/royalty/RoyaltyFeeRegistry.sol\":3808:3889  if (currentSetter != address(0)){... */\n    tag_132:\n        /* \"contracts/Manager/royalty/RoyaltyFeeRegistry.sol\":3902:3961  IERC165(collection).supportsInterface(INTERFACE_ID_ERC2981) */\n      mload(0x40)\n      shl(0xe0, 0x01ffc9a7)\n      dup2\n      mstore\n      sub(shl(0xa0, 0x01), 0x01)\n        /* \"contracts/Manager/royalty/RoyaltyFeeRegistry.sol\":3902:3939  IERC165(collection).supportsInterface */\n      dup6\n      and\n      swap1\n      0x01ffc9a7\n      swap1\n        /* \"contracts/Manager/royalty/RoyaltyFeeRegistry.sol\":3902:3961  IERC165(collection).supportsInterface(INTERFACE_ID_ERC2981) */\n      tag_133\n      swap1\n      shl(0xe1, 0x152a902d)\n        /* \"contracts/Manager/royalty/RoyaltyFeeRegistry.sol\":3940:3960  INTERFACE_ID_ERC2981 */\n      swap1\n        /* \"contracts/Manager/royalty/RoyaltyFeeRegistry.sol\":3902:3961  IERC165(collection).supportsInterface(INTERFACE_ID_ERC2981) */\n      0x04\n      add\n      tag_33\n      jump\t// in\n    tag_133:\n      0x20\n      mload(0x40)\n      dup1\n      dup4\n      sub\n      dup2\n      dup7\n      gas\n      staticcall\n      swap3\n      pop\n      pop\n      pop\n      dup1\n      iszero\n      tag_134\n      jumpi\n      pop\n      0x40\n      dup1\n      mload\n      0x1f\n      returndatasize\n      swap1\n      dup2\n      add\n      not(0x1f)\n      and\n      dup3\n      add\n      swap1\n      swap3\n      mstore\n      tag_135\n      swap2\n      dup2\n      add\n      swap1\n      tag_90\n      jump\t// in\n    tag_135:\n      0x01\n    tag_134:\n        /* \"contracts/Manager/royalty/RoyaltyFeeRegistry.sol\":3898:4104  try IERC165(collection).supportsInterface(INTERFACE_ID_ERC2981) returns (bool interfaceSupport) {... */\n      iszero\n      tag_140\n      jumpi\n        /* \"contracts/Manager/royalty/RoyaltyFeeRegistry.sol\":4012:4028  interfaceSupport */\n      dup1\n        /* \"contracts/Manager/royalty/RoyaltyFeeRegistry.sol\":4008:4085  if (interfaceSupport) {... */\n      iszero\n      tag_141\n      jumpi\n      pop\n        /* \"contracts/Manager/royalty/RoyaltyFeeRegistry.sol\":4064:4065  0 */\n      0x00\n      swap5\n        /* \"contracts/Manager/royalty/RoyaltyFeeRegistry.sol\":4068:4069  1 */\n      0x01\n      swap5\n      pop\n        /* \"contracts/Manager/royalty/RoyaltyFeeRegistry.sol\":3627:4423  function checkForCollectionSetter(address collection) external view returns (address, uint8) {... */\n      swap3\n      pop\n      pop\n      pop\n      jump\t// out\n        /* \"contracts/Manager/royalty/RoyaltyFeeRegistry.sol\":4008:4085  if (interfaceSupport) {... */\n    tag_141:\n        /* \"contracts/Manager/royalty/RoyaltyFeeRegistry.sol\":3962:4095  returns (bool interfaceSupport) {... */\n      pop\n        /* \"contracts/Manager/royalty/RoyaltyFeeRegistry.sol\":3898:4104  try IERC165(collection).supportsInterface(INTERFACE_ID_ERC2981) returns (bool interfaceSupport) {... */\n    tag_140:\n        /* \"contracts/Manager/royalty/RoyaltyFeeRegistry.sol\":4127:4137  collection */\n      dup4\n      sub(shl(0xa0, 0x01), 0x01)\n        /* \"contracts/Manager/royalty/RoyaltyFeeRegistry.sol\":4118:4144  IOwnable(collection).owner */\n      and\n      0x8da5cb5b\n        /* \"contracts/Manager/royalty/RoyaltyFeeRegistry.sol\":4118:4146  IOwnable(collection).owner() */\n      mload(0x40)\n      dup2\n      0xffffffff\n      and\n      0xe0\n      shl\n      dup2\n      mstore\n      0x04\n      add\n      0x20\n      mload(0x40)\n      dup1\n      dup4\n      sub\n      dup2\n      dup7\n      gas\n      staticcall\n      swap3\n      pop\n      pop\n      pop\n      dup1\n      iszero\n      tag_142\n      jumpi\n      pop\n      0x40\n      dup1\n      mload\n      0x1f\n      returndatasize\n      swap1\n      dup2\n      add\n      not(0x1f)\n      and\n      dup3\n      add\n      swap1\n      swap3\n      mstore\n      tag_143\n      swap2\n      dup2\n      add\n      swap1\n      tag_97\n      jump\t// in\n    tag_143:\n      0x01\n    tag_142:\n        /* \"contracts/Manager/royalty/RoyaltyFeeRegistry.sol\":4114:4417  try IOwnable(collection).owner() returns (address setter) {... */\n      tag_144\n      jumpi\n        /* \"contracts/Manager/royalty/RoyaltyFeeRegistry.sol\":4249:4259  collection */\n      dup4\n      sub(shl(0xa0, 0x01), 0x01)\n        /* \"contracts/Manager/royalty/RoyaltyFeeRegistry.sol\":4240:4266  IOwnable(collection).admin */\n      and\n      0xf851a440\n        /* \"contracts/Manager/royalty/RoyaltyFeeRegistry.sol\":4240:4268  IOwnable(collection).admin() */\n      mload(0x40)\n      dup2\n      0xffffffff\n      and\n      0xe0\n      shl\n      dup2\n      mstore\n      0x04\n      add\n      0x20\n      mload(0x40)\n      dup1\n      dup4\n      sub\n      dup2\n      dup7\n      gas\n      staticcall\n      swap3\n      pop\n      pop\n      pop\n      dup1\n      iszero\n      tag_148\n      jumpi\n      pop\n      0x40\n      dup1\n      mload\n      0x1f\n      returndatasize\n      swap1\n      dup2\n      add\n      not(0x1f)\n      and\n      dup3\n      add\n      swap1\n      swap3\n      mstore\n      tag_149\n      swap2\n      dup2\n      add\n      swap1\n      tag_97\n      jump\t// in\n    tag_149:\n      0x01\n    tag_148:\n        /* \"contracts/Manager/royalty/RoyaltyFeeRegistry.sol\":4236:4407  try IOwnable(collection).admin() returns (address setter) {... */\n      tag_150\n      jumpi\n      pop\n        /* \"contracts/Manager/royalty/RoyaltyFeeRegistry.sol\":4386:4387  0 */\n      0x00\n      swap4\n        /* \"contracts/Manager/royalty/RoyaltyFeeRegistry.sol\":4390:4391  4 */\n      0x04\n      swap4\n      pop\n        /* \"contracts/Manager/royalty/RoyaltyFeeRegistry.sol\":3627:4423  function checkForCollectionSetter(address collection) external view returns (address, uint8) {... */\n      swap2\n      pop\n      pop\n      jump\t// out\n        /* \"contracts/Manager/royalty/RoyaltyFeeRegistry.sol\":4236:4407  try IOwnable(collection).admin() returns (address setter) {... */\n    tag_150:\n        /* \"contracts/Manager/royalty/RoyaltyFeeRegistry.sol\":4320:4326  setter */\n      swap5\n        /* \"contracts/Manager/royalty/RoyaltyFeeRegistry.sol\":4328:4329  3 */\n      0x03\n      swap5\n      pop\n        /* \"contracts/Manager/royalty/RoyaltyFeeRegistry.sol\":3627:4423  function checkForCollectionSetter(address collection) external view returns (address, uint8) {... */\n      swap3\n      pop\n      pop\n      pop\n      jump\t// out\n        /* \"contracts/Manager/royalty/RoyaltyFeeRegistry.sol\":4114:4417  try IOwnable(collection).owner() returns (address setter) {... */\n    tag_144:\n        /* \"contracts/Manager/royalty/RoyaltyFeeRegistry.sol\":4194:4200  setter */\n      swap5\n        /* \"contracts/Manager/royalty/RoyaltyFeeRegistry.sol\":4202:4203  2 */\n      0x02\n      swap5\n      pop\n        /* \"contracts/Manager/royalty/RoyaltyFeeRegistry.sol\":3627:4423  function checkForCollectionSetter(address collection) external view returns (address, uint8) {... */\n      swap3\n      pop\n      pop\n      pop\n      jump\t// out\n        /* \"@openzeppelin/contracts/access/Ownable.sol\":2081:2279  function transferOwnership(address newOwner) public virtual onlyOwner {... */\n    tag_73:\n        /* \"@openzeppelin/contracts/access/Ownable.sol\":1094:1107  _checkOwner() */\n      tag_158\n        /* \"@openzeppelin/contracts/access/Ownable.sol\":1094:1105  _checkOwner */\n      tag_105\n        /* \"@openzeppelin/contracts/access/Ownable.sol\":1094:1107  _checkOwner() */\n      jump\t// in\n    tag_158:\n      sub(shl(0xa0, 0x01), 0x01)\n        /* \"@openzeppelin/contracts/access/Ownable.sol\":2169:2191  newOwner != address(0) */\n      dup2\n      and\n        /* \"@openzeppelin/contracts/access/Ownable.sol\":2161:2234  require(newOwner != address(0), \"Ownable: new owner is the zero address\") */\n      tag_160\n      jumpi\n      mload(0x40)\n      shl(0xe5, 0x461bcd)\n      dup2\n      mstore\n        /* \"#utility.yul\":6025:6027   */\n      0x20\n        /* \"@openzeppelin/contracts/access/Ownable.sol\":2161:2234  require(newOwner != address(0), \"Ownable: new owner is the zero address\") */\n      0x04\n      dup3\n      add\n        /* \"#utility.yul\":6007:6028   */\n      mstore\n        /* \"#utility.yul\":6064:6066   */\n      0x26\n        /* \"#utility.yul\":6044:6062   */\n      0x24\n      dup3\n      add\n        /* \"#utility.yul\":6037:6067   */\n      mstore\n        /* \"#utility.yul\":6103:6137   */\n      0x4f776e61626c653a206e6577206f776e657220697320746865207a65726f2061\n        /* \"#utility.yul\":6083:6101   */\n      0x44\n      dup3\n      add\n        /* \"#utility.yul\":6076:6138   */\n      mstore\n      shl(0xd0, 0x646472657373)\n        /* \"#utility.yul\":6154:6172   */\n      0x64\n      dup3\n      add\n        /* \"#utility.yul\":6147:6183   */\n      mstore\n        /* \"#utility.yul\":6200:6219   */\n      0x84\n      add\n        /* \"@openzeppelin/contracts/access/Ownable.sol\":2161:2234  require(newOwner != address(0), \"Ownable: new owner is the zero address\") */\n      tag_76\n        /* \"#utility.yul\":5823:6225   */\n      jump\n        /* \"@openzeppelin/contracts/access/Ownable.sol\":2161:2234  require(newOwner != address(0), \"Ownable: new owner is the zero address\") */\n    tag_160:\n        /* \"@openzeppelin/contracts/access/Ownable.sol\":2244:2272  _transferOwnership(newOwner) */\n      tag_163\n        /* \"@openzeppelin/contracts/access/Ownable.sol\":2263:2271  newOwner */\n      dup2\n        /* \"@openzeppelin/contracts/access/Ownable.sol\":2244:2262  _transferOwnership */\n      tag_108\n        /* \"@openzeppelin/contracts/access/Ownable.sol\":2244:2272  _transferOwnership(newOwner) */\n      jump\t// in\n    tag_163:\n        /* \"@openzeppelin/contracts/access/Ownable.sol\":2081:2279  function transferOwnership(address newOwner) public virtual onlyOwner {... */\n      pop\n      jump\t// out\n        /* \"contracts/Manager/royalty/RoyaltyFeeRegistry.sol\":1769:2177  function updateRoyaltyInfoForCollection(... */\n    tag_79:\n        /* \"contracts/Manager/royalty/RoyaltyFeeRegistry.sol\":1947:1962  royaltyFeeLimit */\n      sload(0x01)\n        /* \"contracts/Manager/royalty/RoyaltyFeeRegistry.sol\":1940:1943  fee */\n      dup2\n        /* \"contracts/Manager/royalty/RoyaltyFeeRegistry.sol\":1940:1962  fee <= royaltyFeeLimit */\n      gt\n      iszero\n        /* \"contracts/Manager/royalty/RoyaltyFeeRegistry.sol\":1932:1997  require(fee <= royaltyFeeLimit, \"Registry: Royalty fee too high\") */\n      tag_165\n      jumpi\n      mload(0x40)\n      shl(0xe5, 0x461bcd)\n      dup2\n      mstore\n        /* \"#utility.yul\":6432:6434   */\n      0x20\n        /* \"contracts/Manager/royalty/RoyaltyFeeRegistry.sol\":1932:1997  require(fee <= royaltyFeeLimit, \"Registry: Royalty fee too high\") */\n      0x04\n      dup3\n      add\n        /* \"#utility.yul\":6414:6435   */\n      mstore\n        /* \"#utility.yul\":6471:6473   */\n      0x1e\n        /* \"#utility.yul\":6451:6469   */\n      0x24\n      dup3\n      add\n        /* \"#utility.yul\":6444:6474   */\n      mstore\n        /* \"#utility.yul\":6510:6542   */\n      0x52656769737472793a20526f79616c74792066656520746f6f20686967680000\n        /* \"#utility.yul\":6490:6508   */\n      0x44\n      dup3\n      add\n        /* \"#utility.yul\":6483:6543   */\n      mstore\n        /* \"#utility.yul\":6560:6578   */\n      0x64\n      add\n        /* \"contracts/Manager/royalty/RoyaltyFeeRegistry.sol\":1932:1997  require(fee <= royaltyFeeLimit, \"Registry: Royalty fee too high\") */\n      tag_76\n        /* \"#utility.yul\":6230:6584   */\n      jump\n        /* \"contracts/Manager/royalty/RoyaltyFeeRegistry.sol\":1932:1997  require(fee <= royaltyFeeLimit, \"Registry: Royalty fee too high\") */\n    tag_165:\n        /* \"contracts/Manager/royalty/RoyaltyFeeRegistry.sol\":2048:2103  FeeInfo({setter: setter, receiver: receiver, fee: fee}) */\n      0x40\n      dup1\n      mload\n      0x60\n      dup2\n      add\n      dup3\n      mstore\n      sub(shl(0xa0, 0x01), 0x01)\n      dup6\n      dup2\n      and\n      dup1\n      dup4\n      mstore\n      dup6\n      dup3\n      and\n      0x20\n      dup1\n      dup6\n      add\n      dup3\n      dup2\n      mstore\n      dup6\n      dup8\n      add\n      dup9\n      dup2\n      mstore\n        /* \"contracts/Manager/royalty/RoyaltyFeeRegistry.sol\":2008:2045  _royaltyFeeInfoCollection[collection] */\n      dup12\n      dup7\n      and\n      0x00\n      dup2\n      dup2\n      mstore\n        /* \"contracts/Manager/royalty/RoyaltyFeeRegistry.sol\":2008:2033  _royaltyFeeInfoCollection */\n      0x02\n        /* \"contracts/Manager/royalty/RoyaltyFeeRegistry.sol\":2008:2045  _royaltyFeeInfoCollection[collection] */\n      dup1\n      dup7\n      mstore\n      swap1\n      dup11\n      swap1\n      keccak256\n        /* \"contracts/Manager/royalty/RoyaltyFeeRegistry.sol\":2008:2103  _royaltyFeeInfoCollection[collection] = FeeInfo({setter: setter, receiver: receiver, fee: fee}) */\n      swap9\n      mload\n      dup10\n      sload\n      swap1\n      dup10\n      and\n      not(sub(shl(0xa0, 0x01), 0x01))\n      swap2\n      dup3\n      and\n      or\n      dup11\n      sstore\n      swap4\n      mload\n      0x01\n      dup11\n      add\n      dup1\n      sload\n      swap2\n      swap1\n      swap10\n      and\n      swap5\n      and\n      swap4\n      swap1\n      swap4\n      or\n      swap1\n      swap7\n      sstore\n      mload\n      swap6\n      add\n      swap5\n      swap1\n      swap5\n      sstore\n        /* \"contracts/Manager/royalty/RoyaltyFeeRegistry.sol\":2119:2170  RoyaltyFeeUpdate(collection, setter, receiver, fee) */\n      swap4\n      mload\n        /* \"#utility.yul\":1705:1730   */\n      dup6\n      dup2\n      mstore\n        /* \"contracts/Manager/royalty/RoyaltyFeeRegistry.sol\":2048:2103  FeeInfo({setter: setter, receiver: receiver, fee: fee}) */\n      swap1\n      swap3\n        /* \"contracts/Manager/royalty/RoyaltyFeeRegistry.sol\":2119:2170  RoyaltyFeeUpdate(collection, setter, receiver, fee) */\n      0xd01984afa6e37420452e575e7d99dd7e632b3ec8ea2adec998475b76ca494d64\n      swap2\n        /* \"#utility.yul\":1678:1696   */\n      add\n        /* \"contracts/Manager/royalty/RoyaltyFeeRegistry.sol\":2119:2170  RoyaltyFeeUpdate(collection, setter, receiver, fee) */\n      mload(0x40)\n      dup1\n      swap2\n      sub\n      swap1\n      log4\n        /* \"contracts/Manager/royalty/RoyaltyFeeRegistry.sol\":1769:2177  function updateRoyaltyInfoForCollection(... */\n      pop\n      pop\n      pop\n      pop\n      jump\t// out\n        /* \"contracts/Manager/royalty/RoyaltyFeeRegistry.sol\":6239:6845  function _updateRoyaltyInfoForCollectionIfOwnerOrAdmin(... */\n    tag_102:\n      sub(shl(0xa0, 0x01), 0x01)\n        /* \"contracts/Manager/royalty/RoyaltyFeeRegistry.sol\":6442:6479  _royaltyFeeInfoCollection[collection] */\n      dup1\n      dup6\n      and\n        /* \"contracts/Manager/royalty/RoyaltyFeeRegistry.sol\":6418:6439  address currentSetter */\n      0x00\n        /* \"contracts/Manager/royalty/RoyaltyFeeRegistry.sol\":6442:6479  _royaltyFeeInfoCollection[collection] */\n      swap1\n      dup2\n      mstore\n        /* \"contracts/Manager/royalty/RoyaltyFeeRegistry.sol\":6442:6467  _royaltyFeeInfoCollection */\n      0x02\n        /* \"contracts/Manager/royalty/RoyaltyFeeRegistry.sol\":6442:6479  _royaltyFeeInfoCollection[collection] */\n      0x20\n      mstore\n      0x40\n      swap1\n      keccak256\n        /* \"contracts/Manager/royalty/RoyaltyFeeRegistry.sol\":6442:6486  _royaltyFeeInfoCollection[collection].setter */\n      sload\n      and\n        /* \"contracts/Manager/royalty/RoyaltyFeeRegistry.sol\":6504:6531  currentSetter == address(0) */\n      dup1\n      iszero\n        /* \"contracts/Manager/royalty/RoyaltyFeeRegistry.sol\":6496:6547  require(currentSetter == address(0), \"Already set\") */\n      tag_170\n      jumpi\n      mload(0x40)\n      shl(0xe5, 0x461bcd)\n      dup2\n      mstore\n        /* \"#utility.yul\":6791:6793   */\n      0x20\n        /* \"contracts/Manager/royalty/RoyaltyFeeRegistry.sol\":6496:6547  require(currentSetter == address(0), \"Already set\") */\n      0x04\n      dup3\n      add\n        /* \"#utility.yul\":6773:6794   */\n      mstore\n        /* \"#utility.yul\":6830:6832   */\n      0x0b\n        /* \"#utility.yul\":6810:6828   */\n      0x24\n      dup3\n      add\n        /* \"#utility.yul\":6803:6833   */\n      mstore\n      shl(0xaa, 0x105b1c9958591e481cd95d)\n        /* \"#utility.yul\":6849:6867   */\n      0x44\n      dup3\n      add\n        /* \"#utility.yul\":6842:6883   */\n      mstore\n        /* \"#utility.yul\":6900:6918   */\n      0x64\n      add\n        /* \"contracts/Manager/royalty/RoyaltyFeeRegistry.sol\":6496:6547  require(currentSetter == address(0), \"Already set\") */\n      tag_76\n        /* \"#utility.yul\":6589:6924   */\n      jump\n        /* \"contracts/Manager/royalty/RoyaltyFeeRegistry.sol\":6496:6547  require(currentSetter == address(0), \"Already set\") */\n    tag_170:\n        /* \"contracts/Manager/royalty/RoyaltyFeeRegistry.sol\":6580:6638  IERC165(collection).supportsInterface(INTERFACE_ID_ERC721) */\n      mload(0x40)\n      shl(0xe0, 0x01ffc9a7)\n      dup2\n      mstore\n      sub(shl(0xa0, 0x01), 0x01)\n        /* \"contracts/Manager/royalty/RoyaltyFeeRegistry.sol\":6580:6617  IERC165(collection).supportsInterface */\n      dup7\n      and\n      swap1\n      0x01ffc9a7\n      swap1\n        /* \"contracts/Manager/royalty/RoyaltyFeeRegistry.sol\":6580:6638  IERC165(collection).supportsInterface(INTERFACE_ID_ERC721) */\n      tag_173\n      swap1\n      shl(0xe0, 0x80ac58cd)\n        /* \"contracts/Manager/royalty/RoyaltyFeeRegistry.sol\":6618:6637  INTERFACE_ID_ERC721 */\n      swap1\n        /* \"contracts/Manager/royalty/RoyaltyFeeRegistry.sol\":6580:6638  IERC165(collection).supportsInterface(INTERFACE_ID_ERC721) */\n      0x04\n      add\n      tag_33\n      jump\t// in\n    tag_173:\n      0x20\n      mload(0x40)\n      dup1\n      dup4\n      sub\n      dup2\n      dup7\n      gas\n      staticcall\n      iszero\n      dup1\n      iszero\n      tag_175\n      jumpi\n      returndatasize\n      0x00\n      dup1\n      returndatacopy\n      revert(0x00, returndatasize)\n    tag_175:\n      pop\n      pop\n      pop\n      pop\n      mload(0x40)\n      returndatasize\n      not(0x1f)\n      0x1f\n      dup3\n      add\n      and\n      dup3\n      add\n      dup1\n      0x40\n      mstore\n      pop\n      dup2\n      add\n      swap1\n      tag_176\n      swap2\n      swap1\n      tag_90\n      jump\t// in\n    tag_176:\n        /* \"contracts/Manager/royalty/RoyaltyFeeRegistry.sol\":6580:6709  IERC165(collection).supportsInterface(INTERFACE_ID_ERC721) ||... */\n      dup1\n      tag_181\n      jumpi\n      pop\n        /* \"contracts/Manager/royalty/RoyaltyFeeRegistry.sol\":6650:6709  IERC165(collection).supportsInterface(INTERFACE_ID_ERC1155) */\n      mload(0x40)\n      shl(0xe0, 0x01ffc9a7)\n      dup2\n      mstore\n      sub(shl(0xa0, 0x01), 0x01)\n        /* \"contracts/Manager/royalty/RoyaltyFeeRegistry.sol\":6650:6687  IERC165(collection).supportsInterface */\n      dup7\n      and\n      swap1\n      0x01ffc9a7\n      swap1\n        /* \"contracts/Manager/royalty/RoyaltyFeeRegistry.sol\":6650:6709  IERC165(collection).supportsInterface(INTERFACE_ID_ERC1155) */\n      tag_178\n      swap1\n      shl(0xe1, 0x6cdb3d13)\n        /* \"contracts/Manager/royalty/RoyaltyFeeRegistry.sol\":6688:6708  INTERFACE_ID_ERC1155 */\n      swap1\n        /* \"contracts/Manager/royalty/RoyaltyFeeRegistry.sol\":6650:6709  IERC165(collection).supportsInterface(INTERFACE_ID_ERC1155) */\n      0x04\n      add\n      tag_33\n      jump\t// in\n    tag_178:\n      0x20\n      mload(0x40)\n      dup1\n      dup4\n      sub\n      dup2\n      dup7\n      gas\n      staticcall\n      iszero\n      dup1\n      iszero\n      tag_180\n      jumpi\n      returndatasize\n      0x00\n      dup1\n      returndatacopy\n      revert(0x00, returndatasize)\n    tag_180:\n      pop\n      pop\n      pop\n      pop\n      mload(0x40)\n      returndatasize\n      not(0x1f)\n      0x1f\n      dup3\n      add\n      and\n      dup3\n      add\n      dup1\n      0x40\n      mstore\n      pop\n      dup2\n      add\n      swap1\n      tag_181\n      swap2\n      swap1\n      tag_90\n      jump\t// in\n    tag_181:\n        /* \"contracts/Manager/royalty/RoyaltyFeeRegistry.sol\":6558:6762  require(... */\n      tag_75\n      jumpi\n      mload(0x40)\n      shl(0xe5, 0x461bcd)\n      dup2\n      mstore\n        /* \"#utility.yul\":7131:7133   */\n      0x20\n        /* \"contracts/Manager/royalty/RoyaltyFeeRegistry.sol\":6558:6762  require(... */\n      0x04\n      dup3\n      add\n        /* \"#utility.yul\":7113:7134   */\n      mstore\n        /* \"#utility.yul\":7170:7172   */\n      0x1a\n        /* \"#utility.yul\":7150:7168   */\n      0x24\n      dup3\n      add\n        /* \"#utility.yul\":7143:7173   */\n      mstore\n        /* \"#utility.yul\":7209:7237   */\n      0x204e6f7420536574206f66204552433732312f45524331313535000000000000\n        /* \"#utility.yul\":7189:7207   */\n      0x44\n      dup3\n      add\n        /* \"#utility.yul\":7182:7238   */\n      mstore\n        /* \"#utility.yul\":7255:7273   */\n      0x64\n      add\n        /* \"contracts/Manager/royalty/RoyaltyFeeRegistry.sol\":6558:6762  require(... */\n      tag_76\n        /* \"#utility.yul\":6929:7279   */\n      jump\n        /* \"@openzeppelin/contracts/access/Ownable.sol\":1359:1489  function _checkOwner() internal view virtual {... */\n    tag_105:\n        /* \"@openzeppelin/contracts/access/Ownable.sol\":1247:1254  address */\n      0x00\n        /* \"@openzeppelin/contracts/access/Ownable.sol\":1273:1279  _owner */\n      sload\n      sub(shl(0xa0, 0x01), 0x01)\n      and\n        /* \"@openzeppelin/contracts/utils/Context.sol\":719:729  msg.sender */\n      caller\n        /* \"@openzeppelin/contracts/access/Ownable.sol\":1422:1445  owner() == _msgSender() */\n      eq\n        /* \"@openzeppelin/contracts/access/Ownable.sol\":1414:1482  require(owner() == _msgSender(), \"Ownable: caller is not the owner\") */\n      tag_107\n      jumpi\n      mload(0x40)\n      shl(0xe5, 0x461bcd)\n      dup2\n      mstore\n        /* \"#utility.yul\":7486:7488   */\n      0x20\n        /* \"@openzeppelin/contracts/access/Ownable.sol\":1414:1482  require(owner() == _msgSender(), \"Ownable: caller is not the owner\") */\n      0x04\n      dup3\n      add\n        /* \"#utility.yul\":7468:7489   */\n      dup2\n      swap1\n      mstore\n        /* \"#utility.yul\":7505:7523   */\n      0x24\n      dup3\n      add\n        /* \"#utility.yul\":7498:7528   */\n      mstore\n        /* \"#utility.yul\":7564:7598   */\n      0x4f776e61626c653a2063616c6c6572206973206e6f7420746865206f776e6572\n        /* \"#utility.yul\":7544:7562   */\n      0x44\n      dup3\n      add\n        /* \"#utility.yul\":7537:7599   */\n      mstore\n        /* \"#utility.yul\":7616:7634   */\n      0x64\n      add\n        /* \"@openzeppelin/contracts/access/Ownable.sol\":1414:1482  require(owner() == _msgSender(), \"Ownable: caller is not the owner\") */\n      tag_76\n        /* \"#utility.yul\":7284:7640   */\n      jump\n        /* \"@openzeppelin/contracts/access/Ownable.sol\":2433:2620  function _transferOwnership(address newOwner) internal virtual {... */\n    tag_108:\n        /* \"@openzeppelin/contracts/access/Ownable.sol\":2506:2522  address oldOwner */\n      0x00\n        /* \"@openzeppelin/contracts/access/Ownable.sol\":2525:2531  _owner */\n      dup1\n      sload\n      sub(shl(0xa0, 0x01), 0x01)\n        /* \"@openzeppelin/contracts/access/Ownable.sol\":2541:2558  _owner = newOwner */\n      dup4\n      dup2\n      and\n      not(sub(shl(0xa0, 0x01), 0x01))\n      dup4\n      and\n      dup2\n      or\n      dup5\n      sstore\n        /* \"@openzeppelin/contracts/access/Ownable.sol\":2573:2613  OwnershipTransferred(oldOwner, newOwner) */\n      mload(0x40)\n        /* \"@openzeppelin/contracts/access/Ownable.sol\":2525:2531  _owner */\n      swap2\n      swap1\n      swap3\n      and\n      swap3\n      dup4\n      swap2\n        /* \"@openzeppelin/contracts/access/Ownable.sol\":2573:2613  OwnershipTransferred(oldOwner, newOwner) */\n      0x8be0079c531659141344cd1fd0a4f28419497f9722a3daafe3b4186f6b6457e0\n      swap2\n        /* \"@openzeppelin/contracts/access/Ownable.sol\":2506:2522  address oldOwner */\n      swap1\n        /* \"@openzeppelin/contracts/access/Ownable.sol\":2573:2613  OwnershipTransferred(oldOwner, newOwner) */\n      log3\n        /* \"@openzeppelin/contracts/access/Ownable.sol\":2496:2620  {... */\n      pop\n        /* \"@openzeppelin/contracts/access/Ownable.sol\":2433:2620  function _transferOwnership(address newOwner) internal virtual {... */\n      pop\n      jump\t// out\n        /* \"#utility.yul\":14:145   */\n    tag_195:\n      sub(shl(0xa0, 0x01), 0x01)\n        /* \"#utility.yul\":89:120   */\n      dup2\n      and\n        /* \"#utility.yul\":79:121   */\n      dup2\n      eq\n        /* \"#utility.yul\":69:139   */\n      tag_163\n      jumpi\n        /* \"#utility.yul\":135:136   */\n      0x00\n        /* \"#utility.yul\":132:133   */\n      dup1\n        /* \"#utility.yul\":125:137   */\n      revert\n        /* \"#utility.yul\":150:748   */\n    tag_22:\n        /* \"#utility.yul\":236:242   */\n      0x00\n        /* \"#utility.yul\":244:250   */\n      dup1\n        /* \"#utility.yul\":252:258   */\n      0x00\n        /* \"#utility.yul\":260:266   */\n      dup1\n        /* \"#utility.yul\":313:316   */\n      0x80\n        /* \"#utility.yul\":301:310   */\n      dup6\n        /* \"#utility.yul\":292:299   */\n      dup8\n        /* \"#utility.yul\":288:311   */\n      sub\n        /* \"#utility.yul\":284:317   */\n      slt\n        /* \"#utility.yul\":281:334   */\n      iszero\n      tag_200\n      jumpi\n        /* \"#utility.yul\":330:331   */\n      0x00\n        /* \"#utility.yul\":327:328   */\n      dup1\n        /* \"#utility.yul\":320:332   */\n      revert\n        /* \"#utility.yul\":281:334   */\n    tag_200:\n        /* \"#utility.yul\":369:378   */\n      dup5\n        /* \"#utility.yul\":356:379   */\n      calldataload\n        /* \"#utility.yul\":388:419   */\n      tag_201\n        /* \"#utility.yul\":413:418   */\n      dup2\n        /* \"#utility.yul\":388:419   */\n      tag_195\n      jump\t// in\n    tag_201:\n        /* \"#utility.yul\":438:443   */\n      swap4\n      pop\n        /* \"#utility.yul\":495:497   */\n      0x20\n        /* \"#utility.yul\":480:498   */\n      dup6\n      add\n        /* \"#utility.yul\":467:499   */\n      calldataload\n        /* \"#utility.yul\":508:541   */\n      tag_202\n        /* \"#utility.yul\":467:499   */\n      dup2\n        /* \"#utility.yul\":508:541   */\n      tag_195\n      jump\t// in\n    tag_202:\n        /* \"#utility.yul\":560:567   */\n      swap3\n      pop\n        /* \"#utility.yul\":619:621   */\n      0x40\n        /* \"#utility.yul\":604:622   */\n      dup6\n      add\n        /* \"#utility.yul\":591:623   */\n      calldataload\n        /* \"#utility.yul\":632:665   */\n      tag_203\n        /* \"#utility.yul\":591:623   */\n      dup2\n        /* \"#utility.yul\":632:665   */\n      tag_195\n      jump\t// in\n    tag_203:\n        /* \"#utility.yul\":150:748   */\n      swap4\n      swap7\n      swap3\n      swap6\n      pop\n        /* \"#utility.yul\":684:691   */\n      swap3\n      swap4\n        /* \"#utility.yul\":738:740   */\n      0x60\n        /* \"#utility.yul\":723:741   */\n      add\n        /* \"#utility.yul\":710:742   */\n      calldataload\n      swap3\n      pop\n      pop\n        /* \"#utility.yul\":150:748   */\n      jump\t// out\n        /* \"#utility.yul\":753:1068   */\n    tag_26:\n        /* \"#utility.yul\":821:827   */\n      0x00\n        /* \"#utility.yul\":829:835   */\n      dup1\n        /* \"#utility.yul\":882:884   */\n      0x40\n        /* \"#utility.yul\":870:879   */\n      dup4\n        /* \"#utility.yul\":861:868   */\n      dup6\n        /* \"#utility.yul\":857:880   */\n      sub\n        /* \"#utility.yul\":853:885   */\n      slt\n        /* \"#utility.yul\":850:902   */\n      iszero\n      tag_205\n      jumpi\n        /* \"#utility.yul\":898:899   */\n      0x00\n        /* \"#utility.yul\":895:896   */\n      dup1\n        /* \"#utility.yul\":888:900   */\n      revert\n        /* \"#utility.yul\":850:902   */\n    tag_205:\n        /* \"#utility.yul\":937:946   */\n      dup3\n        /* \"#utility.yul\":924:947   */\n      calldataload\n        /* \"#utility.yul\":956:987   */\n      tag_206\n        /* \"#utility.yul\":981:986   */\n      dup2\n        /* \"#utility.yul\":956:987   */\n      tag_195\n      jump\t// in\n    tag_206:\n        /* \"#utility.yul\":1006:1011   */\n      swap5\n        /* \"#utility.yul\":1058:1060   */\n      0x20\n        /* \"#utility.yul\":1043:1061   */\n      swap4\n      swap1\n      swap4\n      add\n        /* \"#utility.yul\":1030:1062   */\n      calldataload\n      swap4\n      pop\n      pop\n      pop\n        /* \"#utility.yul\":753:1068   */\n      jump\t// out\n        /* \"#utility.yul\":1352:1554   */\n    tag_33:\n      not(sub(shl(0xe0, 0x01), 0x01))\n        /* \"#utility.yul\":1514:1547   */\n      swap2\n      swap1\n      swap2\n      and\n        /* \"#utility.yul\":1496:1548   */\n      dup2\n      mstore\n        /* \"#utility.yul\":1484:1486   */\n      0x20\n        /* \"#utility.yul\":1469:1487   */\n      add\n      swap1\n        /* \"#utility.yul\":1352:1554   */\n      jump\t// out\n        /* \"#utility.yul\":1949:2129   */\n    tag_55:\n        /* \"#utility.yul\":2008:2014   */\n      0x00\n        /* \"#utility.yul\":2061:2063   */\n      0x20\n        /* \"#utility.yul\":2049:2058   */\n      dup3\n        /* \"#utility.yul\":2040:2047   */\n      dup5\n        /* \"#utility.yul\":2036:2059   */\n      sub\n        /* \"#utility.yul\":2032:2064   */\n      slt\n        /* \"#utility.yul\":2029:2081   */\n      iszero\n      tag_212\n      jumpi\n        /* \"#utility.yul\":2077:2078   */\n      0x00\n        /* \"#utility.yul\":2074:2075   */\n      dup1\n        /* \"#utility.yul\":2067:2079   */\n      revert\n        /* \"#utility.yul\":2029:2081   */\n    tag_212:\n      pop\n        /* \"#utility.yul\":2100:2123   */\n      calldataload\n      swap2\n        /* \"#utility.yul\":1949:2129   */\n      swap1\n      pop\n      jump\t// out\n        /* \"#utility.yul\":2134:2381   */\n    tag_62:\n        /* \"#utility.yul\":2193:2199   */\n      0x00\n        /* \"#utility.yul\":2246:2248   */\n      0x20\n        /* \"#utility.yul\":2234:2243   */\n      dup3\n        /* \"#utility.yul\":2225:2232   */\n      dup5\n        /* \"#utility.yul\":2221:2244   */\n      sub\n        /* \"#utility.yul\":2217:2249   */\n      slt\n        /* \"#utility.yul\":2214:2266   */\n      iszero\n      tag_214\n      jumpi\n        /* \"#utility.yul\":2262:2263   */\n      0x00\n        /* \"#utility.yul\":2259:2260   */\n      dup1\n        /* \"#utility.yul\":2252:2264   */\n      revert\n        /* \"#utility.yul\":2214:2266   */\n    tag_214:\n        /* \"#utility.yul\":2301:2310   */\n      dup2\n        /* \"#utility.yul\":2288:2311   */\n      calldataload\n        /* \"#utility.yul\":2320:2351   */\n      tag_215\n        /* \"#utility.yul\":2345:2350   */\n      dup2\n        /* \"#utility.yul\":2320:2351   */\n      tag_195\n      jump\t// in\n    tag_215:\n        /* \"#utility.yul\":2370:2375   */\n      swap4\n        /* \"#utility.yul\":2134:2381   */\n      swap3\n      pop\n      pop\n      pop\n      jump\t// out\n        /* \"#utility.yul\":3403:3668   */\n    tag_82:\n        /* \"#utility.yul\":3476:3485   */\n      dup1\n      dup3\n      mul\n        /* \"#utility.yul\":3507:3516   */\n      dup2\n      iszero\n        /* \"#utility.yul\":3524:3539   */\n      dup3\n      dup3\n      div\n        /* \"#utility.yul\":3518:3540   */\n      dup5\n      eq\n        /* \"#utility.yul\":3504:3541   */\n      or\n        /* \"#utility.yul\":3494:3662   */\n      tag_220\n      jumpi\n        /* \"#utility.yul\":3584:3594   */\n      0x4e487b71\n        /* \"#utility.yul\":3579:3582   */\n      0xe0\n        /* \"#utility.yul\":3575:3595   */\n      shl\n        /* \"#utility.yul\":3572:3573   */\n      0x00\n        /* \"#utility.yul\":3565:3596   */\n      mstore\n        /* \"#utility.yul\":3619:3623   */\n      0x11\n        /* \"#utility.yul\":3616:3617   */\n      0x04\n        /* \"#utility.yul\":3609:3624   */\n      mstore\n        /* \"#utility.yul\":3647:3651   */\n      0x24\n        /* \"#utility.yul\":3644:3645   */\n      0x00\n        /* \"#utility.yul\":3637:3652   */\n      revert\n        /* \"#utility.yul\":3494:3662   */\n    tag_220:\n        /* \"#utility.yul\":3403:3668   */\n      swap3\n      swap2\n      pop\n      pop\n      jump\t// out\n        /* \"#utility.yul\":3673:3890   */\n    tag_84:\n        /* \"#utility.yul\":3713:3714   */\n      0x00\n        /* \"#utility.yul\":3739:3740   */\n      dup3\n        /* \"#utility.yul\":3729:3861   */\n      tag_222\n      jumpi\n        /* \"#utility.yul\":3783:3793   */\n      0x4e487b71\n        /* \"#utility.yul\":3778:3781   */\n      0xe0\n        /* \"#utility.yul\":3774:3794   */\n      shl\n        /* \"#utility.yul\":3771:3772   */\n      0x00\n        /* \"#utility.yul\":3764:3795   */\n      mstore\n        /* \"#utility.yul\":3818:3822   */\n      0x12\n        /* \"#utility.yul\":3815:3816   */\n      0x04\n        /* \"#utility.yul\":3808:3823   */\n      mstore\n        /* \"#utility.yul\":3846:3850   */\n      0x24\n        /* \"#utility.yul\":3843:3844   */\n      0x00\n        /* \"#utility.yul\":3836:3851   */\n      revert\n        /* \"#utility.yul\":3729:3861   */\n    tag_222:\n      pop\n        /* \"#utility.yul\":3875:3884   */\n      div\n      swap1\n        /* \"#utility.yul\":3673:3890   */\n      jump\t// out\n        /* \"#utility.yul\":3895:4172   */\n    tag_90:\n        /* \"#utility.yul\":3962:3968   */\n      0x00\n        /* \"#utility.yul\":4015:4017   */\n      0x20\n        /* \"#utility.yul\":4003:4012   */\n      dup3\n        /* \"#utility.yul\":3994:4001   */\n      dup5\n        /* \"#utility.yul\":3990:4013   */\n      sub\n        /* \"#utility.yul\":3986:4018   */\n      slt\n        /* \"#utility.yul\":3983:4035   */\n      iszero\n      tag_224\n      jumpi\n        /* \"#utility.yul\":4031:4032   */\n      0x00\n        /* \"#utility.yul\":4028:4029   */\n      dup1\n        /* \"#utility.yul\":4021:4033   */\n      revert\n        /* \"#utility.yul\":3983:4035   */\n    tag_224:\n        /* \"#utility.yul\":4063:4072   */\n      dup2\n        /* \"#utility.yul\":4057:4073   */\n      mload\n        /* \"#utility.yul\":4116:4121   */\n      dup1\n        /* \"#utility.yul\":4109:4122   */\n      iszero\n        /* \"#utility.yul\":4102:4123   */\n      iszero\n        /* \"#utility.yul\":4095:4100   */\n      dup2\n        /* \"#utility.yul\":4092:4124   */\n      eq\n        /* \"#utility.yul\":4082:4142   */\n      tag_215\n      jumpi\n        /* \"#utility.yul\":4138:4139   */\n      0x00\n        /* \"#utility.yul\":4135:4136   */\n      dup1\n        /* \"#utility.yul\":4128:4140   */\n      revert\n        /* \"#utility.yul\":4526:4777   */\n    tag_97:\n        /* \"#utility.yul\":4596:4602   */\n      0x00\n        /* \"#utility.yul\":4649:4651   */\n      0x20\n        /* \"#utility.yul\":4637:4646   */\n      dup3\n        /* \"#utility.yul\":4628:4635   */\n      dup5\n        /* \"#utility.yul\":4624:4647   */\n      sub\n        /* \"#utility.yul\":4620:4652   */\n      slt\n        /* \"#utility.yul\":4617:4669   */\n      iszero\n      tag_228\n      jumpi\n        /* \"#utility.yul\":4665:4666   */\n      0x00\n        /* \"#utility.yul\":4662:4663   */\n      dup1\n        /* \"#utility.yul\":4655:4667   */\n      revert\n        /* \"#utility.yul\":4617:4669   */\n    tag_228:\n        /* \"#utility.yul\":4697:4706   */\n      dup2\n        /* \"#utility.yul\":4691:4707   */\n      mload\n        /* \"#utility.yul\":4716:4747   */\n      tag_215\n        /* \"#utility.yul\":4741:4746   */\n      dup2\n        /* \"#utility.yul\":4716:4747   */\n      tag_195\n      jump\t// in\n\n    auxdata: 0xa26469706673582212203a392c3cb5b983e8f58d8326a4b8581e04b484c3904e39ddd7a024faad3333cd64736f6c63430008110033\n}\n",
				"bytecode": {
					"linkReferences": {},
					"object": "608060405234801561001057600080fd5b50604051610edd380380610edd83398101604081905261002f916100e6565b61003833610096565b61251c81111561008e5760405162461bcd60e51b815260206004820152601a60248201527f526f79616c747920666565206c696d697420746f6f2068696768000000000000604482015260640160405180910390fd5b6001556100ff565b600080546001600160a01b038381166001600160a01b0319831681178455604051919092169283917f8be0079c531659141344cd1fd0a4f28419497f9722a3daafe3b4186f6b6457e09190a35050565b6000602082840312156100f857600080fd5b5051919050565b610dcf8061010e6000396000f3fe608060405234801561001057600080fd5b50600436106100ea5760003560e01c8063ab0166701161008c578063bc6bc0cd11610066578063bc6bc0cd146101d7578063c54e5497146101e5578063e31ef91c14610219578063f2fde38b1461027e57600080fd5b8063ab016670146101a3578063b060dd86146101b6578063b9223c9d146101c457600080fd5b80633755fa80116100c85780633755fa80146101565780634fb7d3f914610169578063715018a6146101805780638da5cb5b1461018857600080fd5b8063275da5ef146100ef5780632782d6c71461010457806333bf61561461013b575b600080fd5b6101026100fd366004610c3e565b610291565b005b610117610112366004610c8f565b61030c565b604080516001600160a01b0390931683526020830191909152015b60405180910390f35b610149636cdb3d1360e11b81565b6040516101329190610cbb565b610102610164366004610c3e565b610359565b61017260015481565b604051908152602001610132565b6101026104d6565b6000546040516001600160a01b039091168152602001610132565b6101026101b1366004610c3e565b6104ea565b61014963152a902d60e11b81565b6101026101d2366004610cd0565b610655565b6101496380ac58cd60e01b81565b6101f86101f3366004610ce9565b6106ea565b604080516001600160a01b03909316835260ff909116602083015201610132565b610258610227366004610ce9565b6001600160a01b03908116600090815260026020819052604090912080546001820154919092015491831693921691565b604080516001600160a01b03948516815293909216602084015290820152606001610132565b61010261028c366004610ce9565b61087f565b6001600160a01b03808516600090815260026020526040902054163381146102f95760405162461bcd60e51b815260206004820152601660248201527529b2ba3a32b91d102737ba103a34329039b2ba3a32b960511b60448201526064015b60405180910390fd5b610305858585856108f8565b5050505050565b6001600160a01b0380831660009081526002602081905260408220600181015491015491928392911690612710906103449086610d0d565b61034e9190610d38565b915091509250929050565b6040516301ffc9a760e01b81526001600160a01b038516906301ffc9a79061038c9063152a902d60e11b90600401610cbb565b602060405180830381865afa1580156103a9573d6000803e3d6000fd5b505050506040513d601f19601f820116820180604052508101906103cd9190610d5a565b156104115760405162461bcd60e51b8152602060048201526014602482015273204d757374206e6f74206265204552433239383160601b60448201526064016102f0565b836001600160a01b0316638da5cb5b6040518163ffffffff1660e01b8152600401602060405180830381865afa15801561044f573d6000803e3d6000fd5b505050506040513d601f19601f820116820180604052508101906104739190610d7c565b6001600160a01b0316336001600160a01b0316146104c45760405162461bcd60e51b815260206004820152600e60248201526d102737ba103a34329037bbb732b960911b60448201526064016102f0565b6104d0848484846109ee565b50505050565b6104de610b7f565b6104e86000610bd9565b565b6040516301ffc9a760e01b81526001600160a01b038516906301ffc9a79061051d9063152a902d60e11b90600401610cbb565b602060405180830381865afa15801561053a573d6000803e3d6000fd5b505050506040513d601f19601f8201168201806040525081019061055e9190610d5a565b156105a25760405162461bcd60e51b8152602060048201526014602482015273204d757374206e6f74206265204552433239383160601b60448201526064016102f0565b836001600160a01b031663f851a4406040518163ffffffff1660e01b8152600401602060405180830381865afa1580156105e0573d6000803e3d6000fd5b505050506040513d601f19601f820116820180604052508101906106049190610d7c565b6001600160a01b0316336001600160a01b0316146104c45760405162461bcd60e51b815260206004820152600e60248201526d102737ba103a34329030b236b4b760911b60448201526064016102f0565b61065d610b7f565b61251c8111156106af5760405162461bcd60e51b815260206004820152601a60248201527f526f79616c747920666565206c696d697420746f6f206869676800000000000060448201526064016102f0565b60018190556040518181527f2da7166c72ef3860ef4fb2571105533c40615269a6dbc38ce0b264910df1c2569060200160405180910390a150565b6001600160a01b0380821660009081526002602052604081205490918291168015610719579360009350915050565b6040516301ffc9a760e01b81526001600160a01b038516906301ffc9a79061074c9063152a902d60e11b90600401610cbb565b602060405180830381865afa925050508015610785575060408051601f3d908101601f1916820190925261078291810190610d5a565b60015b156107a057801561079e57506000946001945092505050565b505b836001600160a01b0316638da5cb5b6040518163ffffffff1660e01b8152600401602060405180830381865afa9250505080156107fa575060408051601f3d908101601f191682019092526107f791810190610d7c565b60015b61087457836001600160a01b031663f851a4406040518163ffffffff1660e01b8152600401602060405180830381865afa925050508015610858575060408051601f3d908101601f1916820190925261085591810190610d7c565b60015b610869575060009360049350915050565b946003945092505050565b946002945092505050565b610887610b7f565b6001600160a01b0381166108ec5760405162461bcd60e51b815260206004820152602660248201527f4f776e61626c653a206e6577206f776e657220697320746865207a65726f206160448201526564647265737360d01b60648201526084016102f0565b6108f581610bd9565b50565b60015481111561094a5760405162461bcd60e51b815260206004820152601e60248201527f52656769737472793a20526f79616c74792066656520746f6f2068696768000060448201526064016102f0565b604080516060810182526001600160a01b0385811680835285821660208085018281528587018881528b861660008181526002808652908a9020985189549089166001600160a01b0319918216178a55935160018a0180549190991694169390931790965551950194909455935185815290927fd01984afa6e37420452e575e7d99dd7e632b3ec8ea2adec998475b76ca494d64910160405180910390a450505050565b6001600160a01b03808516600090815260026020526040902054168015610a455760405162461bcd60e51b815260206004820152600b60248201526a105b1c9958591e481cd95d60aa1b60448201526064016102f0565b6040516301ffc9a760e01b81526001600160a01b038616906301ffc9a790610a78906380ac58cd60e01b90600401610cbb565b602060405180830381865afa158015610a95573d6000803e3d6000fd5b505050506040513d601f19601f82011682018060405250810190610ab99190610d5a565b80610b3357506040516301ffc9a760e01b81526001600160a01b038616906301ffc9a790610af290636cdb3d1360e11b90600401610cbb565b602060405180830381865afa158015610b0f573d6000803e3d6000fd5b505050506040513d601f19601f82011682018060405250810190610b339190610d5a565b6102f95760405162461bcd60e51b815260206004820152601a60248201527f204e6f7420536574206f66204552433732312f4552433131353500000000000060448201526064016102f0565b6000546001600160a01b031633146104e85760405162461bcd60e51b815260206004820181905260248201527f4f776e61626c653a2063616c6c6572206973206e6f7420746865206f776e657260448201526064016102f0565b600080546001600160a01b038381166001600160a01b0319831681178455604051919092169283917f8be0079c531659141344cd1fd0a4f28419497f9722a3daafe3b4186f6b6457e09190a35050565b6001600160a01b03811681146108f557600080fd5b60008060008060808587031215610c5457600080fd5b8435610c5f81610c29565b93506020850135610c6f81610c29565b92506040850135610c7f81610c29565b9396929550929360600135925050565b60008060408385031215610ca257600080fd5b8235610cad81610c29565b946020939093013593505050565b6001600160e01b031991909116815260200190565b600060208284031215610ce257600080fd5b5035919050565b600060208284031215610cfb57600080fd5b8135610d0681610c29565b9392505050565b8082028115828204841417610d3257634e487b7160e01b600052601160045260246000fd5b92915050565b600082610d5557634e487b7160e01b600052601260045260246000fd5b500490565b600060208284031215610d6c57600080fd5b81518015158114610d0657600080fd5b600060208284031215610d8e57600080fd5b8151610d0681610c2956fea26469706673582212203a392c3cb5b983e8f58d8326a4b8581e04b484c3904e39ddd7a024faad3333cd64736f6c63430008110033",
					"opcodes": "PUSH1 0x80 PUSH1 0x40 MSTORE CALLVALUE DUP1 ISZERO PUSH2 0x10 JUMPI PUSH1 0x0 DUP1 REVERT JUMPDEST POP PUSH1 0x40 MLOAD PUSH2 0xEDD CODESIZE SUB DUP1 PUSH2 0xEDD DUP4 CODECOPY DUP2 ADD PUSH1 0x40 DUP2 SWAP1 MSTORE PUSH2 0x2F SWAP2 PUSH2 0xE6 JUMP JUMPDEST PUSH2 0x38 CALLER PUSH2 0x96 JUMP JUMPDEST PUSH2 0x251C DUP2 GT ISZERO PUSH2 0x8E JUMPI PUSH1 0x40 MLOAD PUSH3 0x461BCD PUSH1 0xE5 SHL DUP2 MSTORE PUSH1 0x20 PUSH1 0x4 DUP3 ADD MSTORE PUSH1 0x1A PUSH1 0x24 DUP3 ADD MSTORE PUSH32 0x526F79616C747920666565206C696D697420746F6F2068696768000000000000 PUSH1 0x44 DUP3 ADD MSTORE PUSH1 0x64 ADD PUSH1 0x40 MLOAD DUP1 SWAP2 SUB SWAP1 REVERT JUMPDEST PUSH1 0x1 SSTORE PUSH2 0xFF JUMP JUMPDEST PUSH1 0x0 DUP1 SLOAD PUSH1 0x1 PUSH1 0x1 PUSH1 0xA0 SHL SUB DUP4 DUP2 AND PUSH1 0x1 PUSH1 0x1 PUSH1 0xA0 SHL SUB NOT DUP4 AND DUP2 OR DUP5 SSTORE PUSH1 0x40 MLOAD SWAP2 SWAP1 SWAP3 AND SWAP3 DUP4 SWAP2 PUSH32 0x8BE0079C531659141344CD1FD0A4F28419497F9722A3DAAFE3B4186F6B6457E0 SWAP2 SWAP1 LOG3 POP POP JUMP JUMPDEST PUSH1 0x0 PUSH1 0x20 DUP3 DUP5 SUB SLT ISZERO PUSH2 0xF8 JUMPI PUSH1 0x0 DUP1 REVERT JUMPDEST POP MLOAD SWAP2 SWAP1 POP JUMP JUMPDEST PUSH2 0xDCF DUP1 PUSH2 0x10E PUSH1 0x0 CODECOPY PUSH1 0x0 RETURN INVALID PUSH1 0x80 PUSH1 0x40 MSTORE CALLVALUE DUP1 ISZERO PUSH2 0x10 JUMPI PUSH1 0x0 DUP1 REVERT JUMPDEST POP PUSH1 0x4 CALLDATASIZE LT PUSH2 0xEA JUMPI PUSH1 0x0 CALLDATALOAD PUSH1 0xE0 SHR DUP1 PUSH4 0xAB016670 GT PUSH2 0x8C JUMPI DUP1 PUSH4 0xBC6BC0CD GT PUSH2 0x66 JUMPI DUP1 PUSH4 0xBC6BC0CD EQ PUSH2 0x1D7 JUMPI DUP1 PUSH4 0xC54E5497 EQ PUSH2 0x1E5 JUMPI DUP1 PUSH4 0xE31EF91C EQ PUSH2 0x219 JUMPI DUP1 PUSH4 0xF2FDE38B EQ PUSH2 0x27E JUMPI PUSH1 0x0 DUP1 REVERT JUMPDEST DUP1 PUSH4 0xAB016670 EQ PUSH2 0x1A3 JUMPI DUP1 PUSH4 0xB060DD86 EQ PUSH2 0x1B6 JUMPI DUP1 PUSH4 0xB9223C9D EQ PUSH2 0x1C4 JUMPI PUSH1 0x0 DUP1 REVERT JUMPDEST DUP1 PUSH4 0x3755FA80 GT PUSH2 0xC8 JUMPI DUP1 PUSH4 0x3755FA80 EQ PUSH2 0x156 JUMPI DUP1 PUSH4 0x4FB7D3F9 EQ PUSH2 0x169 JUMPI DUP1 PUSH4 0x715018A6 EQ PUSH2 0x180 JUMPI DUP1 PUSH4 0x8DA5CB5B EQ PUSH2 0x188 JUMPI PUSH1 0x0 DUP1 REVERT JUMPDEST DUP1 PUSH4 0x275DA5EF EQ PUSH2 0xEF JUMPI DUP1 PUSH4 0x2782D6C7 EQ PUSH2 0x104 JUMPI DUP1 PUSH4 0x33BF6156 EQ PUSH2 0x13B JUMPI JUMPDEST PUSH1 0x0 DUP1 REVERT JUMPDEST PUSH2 0x102 PUSH2 0xFD CALLDATASIZE PUSH1 0x4 PUSH2 0xC3E JUMP JUMPDEST PUSH2 0x291 JUMP JUMPDEST STOP JUMPDEST PUSH2 0x117 PUSH2 0x112 CALLDATASIZE PUSH1 0x4 PUSH2 0xC8F JUMP JUMPDEST PUSH2 0x30C JUMP JUMPDEST PUSH1 0x40 DUP1 MLOAD PUSH1 0x1 PUSH1 0x1 PUSH1 0xA0 SHL SUB SWAP1 SWAP4 AND DUP4 MSTORE PUSH1 0x20 DUP4 ADD SWAP2 SWAP1 SWAP2 MSTORE ADD JUMPDEST PUSH1 0x40 MLOAD DUP1 SWAP2 SUB SWAP1 RETURN JUMPDEST PUSH2 0x149 PUSH4 0x6CDB3D13 PUSH1 0xE1 SHL DUP2 JUMP JUMPDEST PUSH1 0x40 MLOAD PUSH2 0x132 SWAP2 SWAP1 PUSH2 0xCBB JUMP JUMPDEST PUSH2 0x102 PUSH2 0x164 CALLDATASIZE PUSH1 0x4 PUSH2 0xC3E JUMP JUMPDEST PUSH2 0x359 JUMP JUMPDEST PUSH2 0x172 PUSH1 0x1 SLOAD DUP2 JUMP JUMPDEST PUSH1 0x40 MLOAD SWAP1 DUP2 MSTORE PUSH1 0x20 ADD PUSH2 0x132 JUMP JUMPDEST PUSH2 0x102 PUSH2 0x4D6 JUMP JUMPDEST PUSH1 0x0 SLOAD PUSH1 0x40 MLOAD PUSH1 0x1 PUSH1 0x1 PUSH1 0xA0 SHL SUB SWAP1 SWAP2 AND DUP2 MSTORE PUSH1 0x20 ADD PUSH2 0x132 JUMP JUMPDEST PUSH2 0x102 PUSH2 0x1B1 CALLDATASIZE PUSH1 0x4 PUSH2 0xC3E JUMP JUMPDEST PUSH2 0x4EA JUMP JUMPDEST PUSH2 0x149 PUSH4 0x152A902D PUSH1 0xE1 SHL DUP2 JUMP JUMPDEST PUSH2 0x102 PUSH2 0x1D2 CALLDATASIZE PUSH1 0x4 PUSH2 0xCD0 JUMP JUMPDEST PUSH2 0x655 JUMP JUMPDEST PUSH2 0x149 PUSH4 0x80AC58CD PUSH1 0xE0 SHL DUP2 JUMP JUMPDEST PUSH2 0x1F8 PUSH2 0x1F3 CALLDATASIZE PUSH1 0x4 PUSH2 0xCE9 JUMP JUMPDEST PUSH2 0x6EA JUMP JUMPDEST PUSH1 0x40 DUP1 MLOAD PUSH1 0x1 PUSH1 0x1 PUSH1 0xA0 SHL SUB SWAP1 SWAP4 AND DUP4 MSTORE PUSH1 0xFF SWAP1 SWAP2 AND PUSH1 0x20 DUP4 ADD MSTORE ADD PUSH2 0x132 JUMP JUMPDEST PUSH2 0x258 PUSH2 0x227 CALLDATASIZE PUSH1 0x4 PUSH2 0xCE9 JUMP JUMPDEST PUSH1 0x1 PUSH1 0x1 PUSH1 0xA0 SHL SUB SWAP1 DUP2 AND PUSH1 0x0 SWAP1 DUP2 MSTORE PUSH1 0x2 PUSH1 0x20 DUP2 SWAP1 MSTORE PUSH1 0x40 SWAP1 SWAP2 KECCAK256 DUP1 SLOAD PUSH1 0x1 DUP3 ADD SLOAD SWAP2 SWAP1 SWAP3 ADD SLOAD SWAP2 DUP4 AND SWAP4 SWAP3 AND SWAP2 JUMP JUMPDEST PUSH1 0x40 DUP1 MLOAD PUSH1 0x1 PUSH1 0x1 PUSH1 0xA0 SHL SUB SWAP5 DUP6 AND DUP2 MSTORE SWAP4 SWAP1 SWAP3 AND PUSH1 0x20 DUP5 ADD MSTORE SWAP1 DUP3 ADD MSTORE PUSH1 0x60 ADD PUSH2 0x132 JUMP JUMPDEST PUSH2 0x102 PUSH2 0x28C CALLDATASIZE PUSH1 0x4 PUSH2 0xCE9 JUMP JUMPDEST PUSH2 0x87F JUMP JUMPDEST PUSH1 0x1 PUSH1 0x1 PUSH1 0xA0 SHL SUB DUP1 DUP6 AND PUSH1 0x0 SWAP1 DUP2 MSTORE PUSH1 0x2 PUSH1 0x20 MSTORE PUSH1 0x40 SWAP1 KECCAK256 SLOAD AND CALLER DUP2 EQ PUSH2 0x2F9 JUMPI PUSH1 0x40 MLOAD PUSH3 0x461BCD PUSH1 0xE5 SHL DUP2 MSTORE PUSH1 0x20 PUSH1 0x4 DUP3 ADD MSTORE PUSH1 0x16 PUSH1 0x24 DUP3 ADD MSTORE PUSH22 0x29B2BA3A32B91D102737BA103A34329039B2BA3A32B9 PUSH1 0x51 SHL PUSH1 0x44 DUP3 ADD MSTORE PUSH1 0x64 ADD JUMPDEST PUSH1 0x40 MLOAD DUP1 SWAP2 SUB SWAP1 REVERT JUMPDEST PUSH2 0x305 DUP6 DUP6 DUP6 DUP6 PUSH2 0x8F8 JUMP JUMPDEST POP POP POP POP POP JUMP JUMPDEST PUSH1 0x1 PUSH1 0x1 PUSH1 0xA0 SHL SUB DUP1 DUP4 AND PUSH1 0x0 SWAP1 DUP2 MSTORE PUSH1 0x2 PUSH1 0x20 DUP2 SWAP1 MSTORE PUSH1 0x40 DUP3 KECCAK256 PUSH1 0x1 DUP2 ADD SLOAD SWAP2 ADD SLOAD SWAP2 SWAP3 DUP4 SWAP3 SWAP2 AND SWAP1 PUSH2 0x2710 SWAP1 PUSH2 0x344 SWAP1 DUP7 PUSH2 0xD0D JUMP JUMPDEST PUSH2 0x34E SWAP2 SWAP1 PUSH2 0xD38 JUMP JUMPDEST SWAP2 POP SWAP2 POP SWAP3 POP SWAP3 SWAP1 POP JUMP JUMPDEST PUSH1 0x40 MLOAD PUSH4 0x1FFC9A7 PUSH1 0xE0 SHL DUP2 MSTORE PUSH1 0x1 PUSH1 0x1 PUSH1 0xA0 SHL SUB DUP6 AND SWAP1 PUSH4 0x1FFC9A7 SWAP1 PUSH2 0x38C SWAP1 PUSH4 0x152A902D PUSH1 0xE1 SHL SWAP1 PUSH1 0x4 ADD PUSH2 0xCBB JUMP JUMPDEST PUSH1 0x20 PUSH1 0x40 MLOAD DUP1 DUP4 SUB DUP2 DUP7 GAS STATICCALL ISZERO DUP1 ISZERO PUSH2 0x3A9 JUMPI RETURNDATASIZE PUSH1 0x0 DUP1 RETURNDATACOPY RETURNDATASIZE PUSH1 0x0 REVERT JUMPDEST POP POP POP POP PUSH1 0x40 MLOAD RETURNDATASIZE PUSH1 0x1F NOT PUSH1 0x1F DUP3 ADD AND DUP3 ADD DUP1 PUSH1 0x40 MSTORE POP DUP2 ADD SWAP1 PUSH2 0x3CD SWAP2 SWAP1 PUSH2 0xD5A JUMP JUMPDEST ISZERO PUSH2 0x411 JUMPI PUSH1 0x40 MLOAD PUSH3 0x461BCD PUSH1 0xE5 SHL DUP2 MSTORE PUSH1 0x20 PUSH1 0x4 DUP3 ADD MSTORE PUSH1 0x14 PUSH1 0x24 DUP3 ADD MSTORE PUSH20 0x204D757374206E6F742062652045524332393831 PUSH1 0x60 SHL PUSH1 0x44 DUP3 ADD MSTORE PUSH1 0x64 ADD PUSH2 0x2F0 JUMP JUMPDEST DUP4 PUSH1 0x1 PUSH1 0x1 PUSH1 0xA0 SHL SUB AND PUSH4 0x8DA5CB5B PUSH1 0x40 MLOAD DUP2 PUSH4 0xFFFFFFFF AND PUSH1 0xE0 SHL DUP2 MSTORE PUSH1 0x4 ADD PUSH1 0x20 PUSH1 0x40 MLOAD DUP1 DUP4 SUB DUP2 DUP7 GAS STATICCALL ISZERO DUP1 ISZERO PUSH2 0x44F JUMPI RETURNDATASIZE PUSH1 0x0 DUP1 RETURNDATACOPY RETURNDATASIZE PUSH1 0x0 REVERT JUMPDEST POP POP POP POP PUSH1 0x40 MLOAD RETURNDATASIZE PUSH1 0x1F NOT PUSH1 0x1F DUP3 ADD AND DUP3 ADD DUP1 PUSH1 0x40 MSTORE POP DUP2 ADD SWAP1 PUSH2 0x473 SWAP2 SWAP1 PUSH2 0xD7C JUMP JUMPDEST PUSH1 0x1 PUSH1 0x1 PUSH1 0xA0 SHL SUB AND CALLER PUSH1 0x1 PUSH1 0x1 PUSH1 0xA0 SHL SUB AND EQ PUSH2 0x4C4 JUMPI PUSH1 0x40 MLOAD PUSH3 0x461BCD PUSH1 0xE5 SHL DUP2 MSTORE PUSH1 0x20 PUSH1 0x4 DUP3 ADD MSTORE PUSH1 0xE PUSH1 0x24 DUP3 ADD MSTORE PUSH14 0x102737BA103A34329037BBB732B9 PUSH1 0x91 SHL PUSH1 0x44 DUP3 ADD MSTORE PUSH1 0x64 ADD PUSH2 0x2F0 JUMP JUMPDEST PUSH2 0x4D0 DUP5 DUP5 DUP5 DUP5 PUSH2 0x9EE JUMP JUMPDEST POP POP POP POP JUMP JUMPDEST PUSH2 0x4DE PUSH2 0xB7F JUMP JUMPDEST PUSH2 0x4E8 PUSH1 0x0 PUSH2 0xBD9 JUMP JUMPDEST JUMP JUMPDEST PUSH1 0x40 MLOAD PUSH4 0x1FFC9A7 PUSH1 0xE0 SHL DUP2 MSTORE PUSH1 0x1 PUSH1 0x1 PUSH1 0xA0 SHL SUB DUP6 AND SWAP1 PUSH4 0x1FFC9A7 SWAP1 PUSH2 0x51D SWAP1 PUSH4 0x152A902D PUSH1 0xE1 SHL SWAP1 PUSH1 0x4 ADD PUSH2 0xCBB JUMP JUMPDEST PUSH1 0x20 PUSH1 0x40 MLOAD DUP1 DUP4 SUB DUP2 DUP7 GAS STATICCALL ISZERO DUP1 ISZERO PUSH2 0x53A JUMPI RETURNDATASIZE PUSH1 0x0 DUP1 RETURNDATACOPY RETURNDATASIZE PUSH1 0x0 REVERT JUMPDEST POP POP POP POP PUSH1 0x40 MLOAD RETURNDATASIZE PUSH1 0x1F NOT PUSH1 0x1F DUP3 ADD AND DUP3 ADD DUP1 PUSH1 0x40 MSTORE POP DUP2 ADD SWAP1 PUSH2 0x55E SWAP2 SWAP1 PUSH2 0xD5A JUMP JUMPDEST ISZERO PUSH2 0x5A2 JUMPI PUSH1 0x40 MLOAD PUSH3 0x461BCD PUSH1 0xE5 SHL DUP2 MSTORE PUSH1 0x20 PUSH1 0x4 DUP3 ADD MSTORE PUSH1 0x14 PUSH1 0x24 DUP3 ADD MSTORE PUSH20 0x204D757374206E6F742062652045524332393831 PUSH1 0x60 SHL PUSH1 0x44 DUP3 ADD MSTORE PUSH1 0x64 ADD PUSH2 0x2F0 JUMP JUMPDEST DUP4 PUSH1 0x1 PUSH1 0x1 PUSH1 0xA0 SHL SUB AND PUSH4 0xF851A440 PUSH1 0x40 MLOAD DUP2 PUSH4 0xFFFFFFFF AND PUSH1 0xE0 SHL DUP2 MSTORE PUSH1 0x4 ADD PUSH1 0x20 PUSH1 0x40 MLOAD DUP1 DUP4 SUB DUP2 DUP7 GAS STATICCALL ISZERO DUP1 ISZERO PUSH2 0x5E0 JUMPI RETURNDATASIZE PUSH1 0x0 DUP1 RETURNDATACOPY RETURNDATASIZE PUSH1 0x0 REVERT JUMPDEST POP POP POP POP PUSH1 0x40 MLOAD RETURNDATASIZE PUSH1 0x1F NOT PUSH1 0x1F DUP3 ADD AND DUP3 ADD DUP1 PUSH1 0x40 MSTORE POP DUP2 ADD SWAP1 PUSH2 0x604 SWAP2 SWAP1 PUSH2 0xD7C JUMP JUMPDEST PUSH1 0x1 PUSH1 0x1 PUSH1 0xA0 SHL SUB AND CALLER PUSH1 0x1 PUSH1 0x1 PUSH1 0xA0 SHL SUB AND EQ PUSH2 0x4C4 JUMPI PUSH1 0x40 MLOAD PUSH3 0x461BCD PUSH1 0xE5 SHL DUP2 MSTORE PUSH1 0x20 PUSH1 0x4 DUP3 ADD MSTORE PUSH1 0xE PUSH1 0x24 DUP3 ADD MSTORE PUSH14 0x102737BA103A34329030B236B4B7 PUSH1 0x91 SHL PUSH1 0x44 DUP3 ADD MSTORE PUSH1 0x64 ADD PUSH2 0x2F0 JUMP JUMPDEST PUSH2 0x65D PUSH2 0xB7F JUMP JUMPDEST PUSH2 0x251C DUP2 GT ISZERO PUSH2 0x6AF JUMPI PUSH1 0x40 MLOAD PUSH3 0x461BCD PUSH1 0xE5 SHL DUP2 MSTORE PUSH1 0x20 PUSH1 0x4 DUP3 ADD MSTORE PUSH1 0x1A PUSH1 0x24 DUP3 ADD MSTORE PUSH32 0x526F79616C747920666565206C696D697420746F6F2068696768000000000000 PUSH1 0x44 DUP3 ADD MSTORE PUSH1 0x64 ADD PUSH2 0x2F0 JUMP JUMPDEST PUSH1 0x1 DUP2 SWAP1 SSTORE PUSH1 0x40 MLOAD DUP2 DUP2 MSTORE PUSH32 0x2DA7166C72EF3860EF4FB2571105533C40615269A6DBC38CE0B264910DF1C256 SWAP1 PUSH1 0x20 ADD PUSH1 0x40 MLOAD DUP1 SWAP2 SUB SWAP1 LOG1 POP JUMP JUMPDEST PUSH1 0x1 PUSH1 0x1 PUSH1 0xA0 SHL SUB DUP1 DUP3 AND PUSH1 0x0 SWAP1 DUP2 MSTORE PUSH1 0x2 PUSH1 0x20 MSTORE PUSH1 0x40 DUP2 KECCAK256 SLOAD SWAP1 SWAP2 DUP3 SWAP2 AND DUP1 ISZERO PUSH2 0x719 JUMPI SWAP4 PUSH1 0x0 SWAP4 POP SWAP2 POP POP JUMP JUMPDEST PUSH1 0x40 MLOAD PUSH4 0x1FFC9A7 PUSH1 0xE0 SHL DUP2 MSTORE PUSH1 0x1 PUSH1 0x1 PUSH1 0xA0 SHL SUB DUP6 AND SWAP1 PUSH4 0x1FFC9A7 SWAP1 PUSH2 0x74C SWAP1 PUSH4 0x152A902D PUSH1 0xE1 SHL SWAP1 PUSH1 0x4 ADD PUSH2 0xCBB JUMP JUMPDEST PUSH1 0x20 PUSH1 0x40 MLOAD DUP1 DUP4 SUB DUP2 DUP7 GAS STATICCALL SWAP3 POP POP POP DUP1 ISZERO PUSH2 0x785 JUMPI POP PUSH1 0x40 DUP1 MLOAD PUSH1 0x1F RETURNDATASIZE SWAP1 DUP2 ADD PUSH1 0x1F NOT AND DUP3 ADD SWAP1 SWAP3 MSTORE PUSH2 0x782 SWAP2 DUP2 ADD SWAP1 PUSH2 0xD5A JUMP JUMPDEST PUSH1 0x1 JUMPDEST ISZERO PUSH2 0x7A0 JUMPI DUP1 ISZERO PUSH2 0x79E JUMPI POP PUSH1 0x0 SWAP5 PUSH1 0x1 SWAP5 POP SWAP3 POP POP POP JUMP JUMPDEST POP JUMPDEST DUP4 PUSH1 0x1 PUSH1 0x1 PUSH1 0xA0 SHL SUB AND PUSH4 0x8DA5CB5B PUSH1 0x40 MLOAD DUP2 PUSH4 0xFFFFFFFF AND PUSH1 0xE0 SHL DUP2 MSTORE PUSH1 0x4 ADD PUSH1 0x20 PUSH1 0x40 MLOAD DUP1 DUP4 SUB DUP2 DUP7 GAS STATICCALL SWAP3 POP POP POP DUP1 ISZERO PUSH2 0x7FA JUMPI POP PUSH1 0x40 DUP1 MLOAD PUSH1 0x1F RETURNDATASIZE SWAP1 DUP2 ADD PUSH1 0x1F NOT AND DUP3 ADD SWAP1 SWAP3 MSTORE PUSH2 0x7F7 SWAP2 DUP2 ADD SWAP1 PUSH2 0xD7C JUMP JUMPDEST PUSH1 0x1 JUMPDEST PUSH2 0x874 JUMPI DUP4 PUSH1 0x1 PUSH1 0x1 PUSH1 0xA0 SHL SUB AND PUSH4 0xF851A440 PUSH1 0x40 MLOAD DUP2 PUSH4 0xFFFFFFFF AND PUSH1 0xE0 SHL DUP2 MSTORE PUSH1 0x4 ADD PUSH1 0x20 PUSH1 0x40 MLOAD DUP1 DUP4 SUB DUP2 DUP7 GAS STATICCALL SWAP3 POP POP POP DUP1 ISZERO PUSH2 0x858 JUMPI POP PUSH1 0x40 DUP1 MLOAD PUSH1 0x1F RETURNDATASIZE SWAP1 DUP2 ADD PUSH1 0x1F NOT AND DUP3 ADD SWAP1 SWAP3 MSTORE PUSH2 0x855 SWAP2 DUP2 ADD SWAP1 PUSH2 0xD7C JUMP JUMPDEST PUSH1 0x1 JUMPDEST PUSH2 0x869 JUMPI POP PUSH1 0x0 SWAP4 PUSH1 0x4 SWAP4 POP SWAP2 POP POP JUMP JUMPDEST SWAP5 PUSH1 0x3 SWAP5 POP SWAP3 POP POP POP JUMP JUMPDEST SWAP5 PUSH1 0x2 SWAP5 POP SWAP3 POP POP POP JUMP JUMPDEST PUSH2 0x887 PUSH2 0xB7F JUMP JUMPDEST PUSH1 0x1 PUSH1 0x1 PUSH1 0xA0 SHL SUB DUP2 AND PUSH2 0x8EC JUMPI PUSH1 0x40 MLOAD PUSH3 0x461BCD PUSH1 0xE5 SHL DUP2 MSTORE PUSH1 0x20 PUSH1 0x4 DUP3 ADD MSTORE PUSH1 0x26 PUSH1 0x24 DUP3 ADD MSTORE PUSH32 0x4F776E61626C653A206E6577206F776E657220697320746865207A65726F2061 PUSH1 0x44 DUP3 ADD MSTORE PUSH6 0x646472657373 PUSH1 0xD0 SHL PUSH1 0x64 DUP3 ADD MSTORE PUSH1 0x84 ADD PUSH2 0x2F0 JUMP JUMPDEST PUSH2 0x8F5 DUP2 PUSH2 0xBD9 JUMP JUMPDEST POP JUMP JUMPDEST PUSH1 0x1 SLOAD DUP2 GT ISZERO PUSH2 0x94A JUMPI PUSH1 0x40 MLOAD PUSH3 0x461BCD PUSH1 0xE5 SHL DUP2 MSTORE PUSH1 0x20 PUSH1 0x4 DUP3 ADD MSTORE PUSH1 0x1E PUSH1 0x24 DUP3 ADD MSTORE PUSH32 0x52656769737472793A20526F79616C74792066656520746F6F20686967680000 PUSH1 0x44 DUP3 ADD MSTORE PUSH1 0x64 ADD PUSH2 0x2F0 JUMP JUMPDEST PUSH1 0x40 DUP1 MLOAD PUSH1 0x60 DUP2 ADD DUP3 MSTORE PUSH1 0x1 PUSH1 0x1 PUSH1 0xA0 SHL SUB DUP6 DUP2 AND DUP1 DUP4 MSTORE DUP6 DUP3 AND PUSH1 0x20 DUP1 DUP6 ADD DUP3 DUP2 MSTORE DUP6 DUP8 ADD DUP9 DUP2 MSTORE DUP12 DUP7 AND PUSH1 0x0 DUP2 DUP2 MSTORE PUSH1 0x2 DUP1 DUP7 MSTORE SWAP1 DUP11 SWAP1 KECCAK256 SWAP9 MLOAD DUP10 SLOAD SWAP1 DUP10 AND PUSH1 0x1 PUSH1 0x1 PUSH1 0xA0 SHL SUB NOT SWAP2 DUP3 AND OR DUP11 SSTORE SWAP4 MLOAD PUSH1 0x1 DUP11 ADD DUP1 SLOAD SWAP2 SWAP1 SWAP10 AND SWAP5 AND SWAP4 SWAP1 SWAP4 OR SWAP1 SWAP7 SSTORE MLOAD SWAP6 ADD SWAP5 SWAP1 SWAP5 SSTORE SWAP4 MLOAD DUP6 DUP2 MSTORE SWAP1 SWAP3 PUSH32 0xD01984AFA6E37420452E575E7D99DD7E632B3EC8EA2ADEC998475B76CA494D64 SWAP2 ADD PUSH1 0x40 MLOAD DUP1 SWAP2 SUB SWAP1 LOG4 POP POP POP POP JUMP JUMPDEST PUSH1 0x1 PUSH1 0x1 PUSH1 0xA0 SHL SUB DUP1 DUP6 AND PUSH1 0x0 SWAP1 DUP2 MSTORE PUSH1 0x2 PUSH1 0x20 MSTORE PUSH1 0x40 SWAP1 KECCAK256 SLOAD AND DUP1 ISZERO PUSH2 0xA45 JUMPI PUSH1 0x40 MLOAD PUSH3 0x461BCD PUSH1 0xE5 SHL DUP2 MSTORE PUSH1 0x20 PUSH1 0x4 DUP3 ADD MSTORE PUSH1 0xB PUSH1 0x24 DUP3 ADD MSTORE PUSH11 0x105B1C9958591E481CD95D PUSH1 0xAA SHL PUSH1 0x44 DUP3 ADD MSTORE PUSH1 0x64 ADD PUSH2 0x2F0 JUMP JUMPDEST PUSH1 0x40 MLOAD PUSH4 0x1FFC9A7 PUSH1 0xE0 SHL DUP2 MSTORE PUSH1 0x1 PUSH1 0x1 PUSH1 0xA0 SHL SUB DUP7 AND SWAP1 PUSH4 0x1FFC9A7 SWAP1 PUSH2 0xA78 SWAP1 PUSH4 0x80AC58CD PUSH1 0xE0 SHL SWAP1 PUSH1 0x4 ADD PUSH2 0xCBB JUMP JUMPDEST PUSH1 0x20 PUSH1 0x40 MLOAD DUP1 DUP4 SUB DUP2 DUP7 GAS STATICCALL ISZERO DUP1 ISZERO PUSH2 0xA95 JUMPI RETURNDATASIZE PUSH1 0x0 DUP1 RETURNDATACOPY RETURNDATASIZE PUSH1 0x0 REVERT JUMPDEST POP POP POP POP PUSH1 0x40 MLOAD RETURNDATASIZE PUSH1 0x1F NOT PUSH1 0x1F DUP3 ADD AND DUP3 ADD DUP1 PUSH1 0x40 MSTORE POP DUP2 ADD SWAP1 PUSH2 0xAB9 SWAP2 SWAP1 PUSH2 0xD5A JUMP JUMPDEST DUP1 PUSH2 0xB33 JUMPI POP PUSH1 0x40 MLOAD PUSH4 0x1FFC9A7 PUSH1 0xE0 SHL DUP2 MSTORE PUSH1 0x1 PUSH1 0x1 PUSH1 0xA0 SHL SUB DUP7 AND SWAP1 PUSH4 0x1FFC9A7 SWAP1 PUSH2 0xAF2 SWAP1 PUSH4 0x6CDB3D13 PUSH1 0xE1 SHL SWAP1 PUSH1 0x4 ADD PUSH2 0xCBB JUMP JUMPDEST PUSH1 0x20 PUSH1 0x40 MLOAD DUP1 DUP4 SUB DUP2 DUP7 GAS STATICCALL ISZERO DUP1 ISZERO PUSH2 0xB0F JUMPI RETURNDATASIZE PUSH1 0x0 DUP1 RETURNDATACOPY RETURNDATASIZE PUSH1 0x0 REVERT JUMPDEST POP POP POP POP PUSH1 0x40 MLOAD RETURNDATASIZE PUSH1 0x1F NOT PUSH1 0x1F DUP3 ADD AND DUP3 ADD DUP1 PUSH1 0x40 MSTORE POP DUP2 ADD SWAP1 PUSH2 0xB33 SWAP2 SWAP1 PUSH2 0xD5A JUMP JUMPDEST PUSH2 0x2F9 JUMPI PUSH1 0x40 MLOAD PUSH3 0x461BCD PUSH1 0xE5 SHL DUP2 MSTORE PUSH1 0x20 PUSH1 0x4 DUP3 ADD MSTORE PUSH1 0x1A PUSH1 0x24 DUP3 ADD MSTORE PUSH32 0x204E6F7420536574206F66204552433732312F45524331313535000000000000 PUSH1 0x44 DUP3 ADD MSTORE PUSH1 0x64 ADD PUSH2 0x2F0 JUMP JUMPDEST PUSH1 0x0 SLOAD PUSH1 0x1 PUSH1 0x1 PUSH1 0xA0 SHL SUB AND CALLER EQ PUSH2 0x4E8 JUMPI PUSH1 0x40 MLOAD PUSH3 0x461BCD PUSH1 0xE5 SHL DUP2 MSTORE PUSH1 0x20 PUSH1 0x4 DUP3 ADD DUP2 SWAP1 MSTORE PUSH1 0x24 DUP3 ADD MSTORE PUSH32 0x4F776E61626C653A2063616C6C6572206973206E6F7420746865206F776E6572 PUSH1 0x44 DUP3 ADD MSTORE PUSH1 0x64 ADD PUSH2 0x2F0 JUMP JUMPDEST PUSH1 0x0 DUP1 SLOAD PUSH1 0x1 PUSH1 0x1 PUSH1 0xA0 SHL SUB DUP4 DUP2 AND PUSH1 0x1 PUSH1 0x1 PUSH1 0xA0 SHL SUB NOT DUP4 AND DUP2 OR DUP5 SSTORE PUSH1 0x40 MLOAD SWAP2 SWAP1 SWAP3 AND SWAP3 DUP4 SWAP2 PUSH32 0x8BE0079C531659141344CD1FD0A4F28419497F9722A3DAAFE3B4186F6B6457E0 SWAP2 SWAP1 LOG3 POP POP JUMP JUMPDEST PUSH1 0x1 PUSH1 0x1 PUSH1 0xA0 SHL SUB DUP2 AND DUP2 EQ PUSH2 0x8F5 JUMPI PUSH1 0x0 DUP1 REVERT JUMPDEST PUSH1 0x0 DUP1 PUSH1 0x0 DUP1 PUSH1 0x80 DUP6 DUP8 SUB SLT ISZERO PUSH2 0xC54 JUMPI PUSH1 0x0 DUP1 REVERT JUMPDEST DUP5 CALLDATALOAD PUSH2 0xC5F DUP2 PUSH2 0xC29 JUMP JUMPDEST SWAP4 POP PUSH1 0x20 DUP6 ADD CALLDATALOAD PUSH2 0xC6F DUP2 PUSH2 0xC29 JUMP JUMPDEST SWAP3 POP PUSH1 0x40 DUP6 ADD CALLDATALOAD PUSH2 0xC7F DUP2 PUSH2 0xC29 JUMP JUMPDEST SWAP4 SWAP7 SWAP3 SWAP6 POP SWAP3 SWAP4 PUSH1 0x60 ADD CALLDATALOAD SWAP3 POP POP JUMP JUMPDEST PUSH1 0x0 DUP1 PUSH1 0x40 DUP4 DUP6 SUB SLT ISZERO PUSH2 0xCA2 JUMPI PUSH1 0x0 DUP1 REVERT JUMPDEST DUP3 CALLDATALOAD PUSH2 0xCAD DUP2 PUSH2 0xC29 JUMP JUMPDEST SWAP5 PUSH1 0x20 SWAP4 SWAP1 SWAP4 ADD CALLDATALOAD SWAP4 POP POP POP JUMP JUMPDEST PUSH1 0x1 PUSH1 0x1 PUSH1 0xE0 SHL SUB NOT SWAP2 SWAP1 SWAP2 AND DUP2 MSTORE PUSH1 0x20 ADD SWAP1 JUMP JUMPDEST PUSH1 0x0 PUSH1 0x20 DUP3 DUP5 SUB SLT ISZERO PUSH2 0xCE2 JUMPI PUSH1 0x0 DUP1 REVERT JUMPDEST POP CALLDATALOAD SWAP2 SWAP1 POP JUMP JUMPDEST PUSH1 0x0 PUSH1 0x20 DUP3 DUP5 SUB SLT ISZERO PUSH2 0xCFB JUMPI PUSH1 0x0 DUP1 REVERT JUMPDEST DUP2 CALLDATALOAD PUSH2 0xD06 DUP2 PUSH2 0xC29 JUMP JUMPDEST SWAP4 SWAP3 POP POP POP JUMP JUMPDEST DUP1 DUP3 MUL DUP2 ISZERO DUP3 DUP3 DIV DUP5 EQ OR PUSH2 0xD32 JUMPI PUSH4 0x4E487B71 PUSH1 0xE0 SHL PUSH1 0x0 MSTORE PUSH1 0x11 PUSH1 0x4 MSTORE PUSH1 0x24 PUSH1 0x0 REVERT JUMPDEST SWAP3 SWAP2 POP POP JUMP JUMPDEST PUSH1 0x0 DUP3 PUSH2 0xD55 JUMPI PUSH4 0x4E487B71 PUSH1 0xE0 SHL PUSH1 0x0 MSTORE PUSH1 0x12 PUSH1 0x4 MSTORE PUSH1 0x24 PUSH1 0x0 REVERT JUMPDEST POP DIV SWAP1 JUMP JUMPDEST PUSH1 0x0 PUSH1 0x20 DUP3 DUP5 SUB SLT ISZERO PUSH2 0xD6C JUMPI PUSH1 0x0 DUP1 REVERT JUMPDEST DUP2 MLOAD DUP1 ISZERO ISZERO DUP2 EQ PUSH2 0xD06 JUMPI PUSH1 0x0 DUP1 REVERT JUMPDEST PUSH1 0x0 PUSH1 0x20 DUP3 DUP5 SUB SLT ISZERO PUSH2 0xD8E JUMPI PUSH1 0x0 DUP1 REVERT JUMPDEST DUP2 MLOAD PUSH2 0xD06 DUP2 PUSH2 0xC29 JUMP INVALID LOG2 PUSH5 0x6970667358 0x22 SLT KECCAK256 GASPRICE CODECOPY 0x2C EXTCODECOPY 0xB5 0xB9 DUP4 0xE8 CREATE2 DUP14 DUP4 0x26 LOG4 0xB8 PC 0x1E DIV 0xB4 DUP5 0xC3 SWAP1 0x4E CODECOPY 0xDD 0xD7 LOG0 0x24 STATICCALL 0xAD CALLER CALLER 0xCD PUSH5 0x736F6C6343 STOP ADDMOD GT STOP CALLER "
				},
				"gasEstimates": {
					"creation": {
						"codeDepositCost": "707000",
						"executionCost": "infinite",
						"totalCost": "infinite"
					},
					"external": {
						"INTERFACE_ID_ERC1155()": "317",
						"INTERFACE_ID_ERC2981()": "294",
						"INTERFACE_ID_ERC721()": "271",
						"checkForCollectionSetter(address)": "infinite",
						"owner()": "2390",
						"renounceOwnership()": "infinite",
						"royaltyFeeInfoCollection(address)": "6920",
						"royaltyFeeLimit()": "2340",
						"royaltyInfo(address,uint256)": "4969",
						"transferOwnership(address)": "infinite",
						"updateRoyaltyFeeLimit(uint256)": "25646",
						"updateRoyaltyInfoForCollectionIfAdmin(address,address,address,uint256)": "infinite",
						"updateRoyaltyInfoForCollectionIfOwner(address,address,address,uint256)": "infinite",
						"updateRoyaltyInfoForCollectionIfSetter(address,address,address,uint256)": "infinite"
					},
					"internal": {
						"_updateRoyaltyInfoForCollectionIfOwnerOrAdmin(address,address,address,uint256)": "infinite",
						"updateRoyaltyInfoForCollection(address,address,address,uint256)": "infinite"
					}
				},
				"methodIdentifiers": {
					"INTERFACE_ID_ERC1155()": "33bf6156",
					"INTERFACE_ID_ERC2981()": "b060dd86",
					"INTERFACE_ID_ERC721()": "bc6bc0cd",
					"checkForCollectionSetter(address)": "c54e5497",
					"owner()": "8da5cb5b",
					"renounceOwnership()": "715018a6",
					"royaltyFeeInfoCollection(address)": "e31ef91c",
					"royaltyFeeLimit()": "4fb7d3f9",
					"royaltyInfo(address,uint256)": "2782d6c7",
					"transferOwnership(address)": "f2fde38b",
					"updateRoyaltyFeeLimit(uint256)": "b9223c9d",
					"updateRoyaltyInfoForCollectionIfAdmin(address,address,address,uint256)": "ab016670",
					"updateRoyaltyInfoForCollectionIfOwner(address,address,address,uint256)": "3755fa80",
					"updateRoyaltyInfoForCollectionIfSetter(address,address,address,uint256)": "275da5ef"
				}
			},
			"storageLayout": {
				"storage": [
					{
						"astId": 7,
						"contract": "contracts/Manager/royalty/RoyaltyFeeRegistry.sol:RoyaltyFeeRegistry",
						"label": "_owner",
						"offset": 0,
						"slot": "0",
						"type": "t_address"
					},
					{
						"astId": 196,
						"contract": "contracts/Manager/royalty/RoyaltyFeeRegistry.sol:RoyaltyFeeRegistry",
						"label": "royaltyFeeLimit",
						"offset": 0,
						"slot": "1",
						"type": "t_uint256"
					},
					{
						"astId": 201,
						"contract": "contracts/Manager/royalty/RoyaltyFeeRegistry.sol:RoyaltyFeeRegistry",
						"label": "_royaltyFeeInfoCollection",
						"offset": 0,
						"slot": "2",
						"type": "t_mapping(t_address,t_struct(FeeInfo)185_storage)"
					}
				],
				"types": {
					"t_address": {
						"encoding": "inplace",
						"label": "address",
						"numberOfBytes": "20"
					},
					"t_mapping(t_address,t_struct(FeeInfo)185_storage)": {
						"encoding": "mapping",
						"key": "t_address",
						"label": "mapping(address => struct RoyaltyFeeRegistry.FeeInfo)",
						"numberOfBytes": "32",
						"value": "t_struct(FeeInfo)185_storage"
					},
					"t_struct(FeeInfo)185_storage": {
						"encoding": "inplace",
						"label": "struct RoyaltyFeeRegistry.FeeInfo",
						"members": [
							{
								"astId": 180,
								"contract": "contracts/Manager/royalty/RoyaltyFeeRegistry.sol:RoyaltyFeeRegistry",
								"label": "setter",
								"offset": 0,
								"slot": "0",
								"type": "t_address"
							},
							{
								"astId": 182,
								"contract": "contracts/Manager/royalty/RoyaltyFeeRegistry.sol:RoyaltyFeeRegistry",
								"label": "receiver",
								"offset": 0,
								"slot": "1",
								"type": "t_address"
							},
							{
								"astId": 184,
								"contract": "contracts/Manager/royalty/RoyaltyFeeRegistry.sol:RoyaltyFeeRegistry",
								"label": "fee",
								"offset": 0,
								"slot": "2",
								"type": "t_uint256"
							}
						],
						"numberOfBytes": "96"
					},
					"t_uint256": {
						"encoding": "inplace",
						"label": "uint256",
						"numberOfBytes": "32"
					}
				}
			},
			"userdoc": {
				"kind": "user",
				"methods": {},
				"version": 1
			}
		}
	}
}