{
	"contracts/Manager/royalty/RoyaltyFeeRegistry.sol": {
		"RoyaltyFeeRegistry": {
			"abi": [
				{
					"inputs": [
						{
							"internalType": "uint256",
							"name": "_royaltyFeeLimit",
							"type": "uint256"
						}
					],
					"stateMutability": "nonpayable",
					"type": "constructor"
				},
				{
					"anonymous": false,
					"inputs": [
						{
							"indexed": false,
							"internalType": "uint256",
							"name": "royaltyFeeLimit",
							"type": "uint256"
						}
					],
					"name": "NewRoyaltyFeeLimit",
					"type": "event"
				},
				{
					"anonymous": false,
					"inputs": [
						{
							"indexed": true,
							"internalType": "address",
							"name": "previousOwner",
							"type": "address"
						},
						{
							"indexed": true,
							"internalType": "address",
							"name": "newOwner",
							"type": "address"
						}
					],
					"name": "OwnershipTransferred",
					"type": "event"
				},
				{
					"anonymous": false,
					"inputs": [
						{
							"indexed": true,
							"internalType": "address",
							"name": "collection",
							"type": "address"
						},
						{
							"indexed": true,
							"internalType": "address",
							"name": "setter",
							"type": "address"
						},
						{
							"indexed": true,
							"internalType": "address",
							"name": "receiver",
							"type": "address"
						},
						{
							"indexed": false,
							"internalType": "uint256",
							"name": "fee",
							"type": "uint256"
						}
					],
					"name": "RoyaltyFeeUpdate",
					"type": "event"
				},
				{
					"inputs": [],
					"name": "owner",
					"outputs": [
						{
							"internalType": "address",
							"name": "",
							"type": "address"
						}
					],
					"stateMutability": "view",
					"type": "function"
				},
				{
					"inputs": [],
					"name": "renounceOwnership",
					"outputs": [],
					"stateMutability": "nonpayable",
					"type": "function"
				},
				{
					"inputs": [
						{
							"internalType": "address",
							"name": "collection",
							"type": "address"
						}
					],
					"name": "royaltyFeeInfoCollection",
					"outputs": [
						{
							"internalType": "address",
							"name": "",
							"type": "address"
						},
						{
							"internalType": "address",
							"name": "",
							"type": "address"
						},
						{
							"internalType": "uint256",
							"name": "",
							"type": "uint256"
						}
					],
					"stateMutability": "view",
					"type": "function"
				},
				{
					"inputs": [],
					"name": "royaltyFeeLimit",
					"outputs": [
						{
							"internalType": "uint256",
							"name": "",
							"type": "uint256"
						}
					],
					"stateMutability": "view",
					"type": "function"
				},
				{
					"inputs": [
						{
							"internalType": "address",
							"name": "collection",
							"type": "address"
						},
						{
							"internalType": "uint256",
							"name": "amount",
							"type": "uint256"
						}
					],
					"name": "royaltyInfo",
					"outputs": [
						{
							"internalType": "address",
							"name": "",
							"type": "address"
						},
						{
							"internalType": "uint256",
							"name": "",
							"type": "uint256"
						}
					],
					"stateMutability": "view",
					"type": "function"
				},
				{
					"inputs": [
						{
							"internalType": "address",
							"name": "newOwner",
							"type": "address"
						}
					],
					"name": "transferOwnership",
					"outputs": [],
					"stateMutability": "nonpayable",
					"type": "function"
				},
				{
					"inputs": [
						{
							"internalType": "uint256",
							"name": "_royaltyFeeLimit",
							"type": "uint256"
						}
					],
					"name": "updateRoyaltyFeeLimit",
					"outputs": [],
					"stateMutability": "nonpayable",
					"type": "function"
				},
				{
					"inputs": [
						{
							"internalType": "address",
							"name": "collection",
							"type": "address"
						},
						{
							"internalType": "address",
							"name": "setter",
							"type": "address"
						},
						{
							"internalType": "address",
							"name": "receiver",
							"type": "address"
						},
						{
							"internalType": "uint256",
							"name": "fee",
							"type": "uint256"
						}
					],
					"name": "updateRoyaltyInfoForCollection",
					"outputs": [],
					"stateMutability": "nonpayable",
					"type": "function"
				}
			],
			"devdoc": {
				"kind": "dev",
				"methods": {
					"owner()": {
						"details": "Returns the address of the current owner."
					},
					"renounceOwnership()": {
						"details": "Leaves the contract without owner. It will not be possible to call `onlyOwner` functions anymore. Can only be called by the current owner. NOTE: Renouncing ownership will leave the contract without an owner, thereby removing any functionality that is only available to the owner."
					},
					"transferOwnership(address)": {
						"details": "Transfers ownership of the contract to a new account (`newOwner`). Can only be called by the current owner."
					}
				},
				"version": 1
			},
			"evm": {
				"assembly": "    /* \"contracts/Manager/royalty/RoyaltyFeeRegistry.sol\":225:2628  contract RoyaltyFeeRegistry is IRoyaltyFeeRegistry, Ownable {... */\n  mstore(0x40, 0x80)\n    /* \"contracts/Manager/royalty/RoyaltyFeeRegistry.sol\":792:996  constructor(uint256 _royaltyFeeLimit) {... */\n  callvalue\n  dup1\n  iszero\n  tag_1\n  jumpi\n  0x00\n  dup1\n  revert\ntag_1:\n  pop\n  mload(0x40)\n  sub(codesize, bytecodeSize)\n  dup1\n  bytecodeSize\n  dup4\n  codecopy\n  dup2\n  add\n  0x40\n  dup2\n  swap1\n  mstore\n  tag_2\n  swap2\n  tag_3\n  jump\t// in\ntag_2:\n    /* \"@openzeppelin/contracts/access/Ownable.sol\":936:968  _transferOwnership(_msgSender()) */\n  tag_7\n    /* \"@openzeppelin/contracts/utils/Context.sol\":719:729  msg.sender */\n  caller\n    /* \"@openzeppelin/contracts/access/Ownable.sol\":936:954  _transferOwnership */\n  tag_10\n    /* \"@openzeppelin/contracts/access/Ownable.sol\":936:968  _transferOwnership(_msgSender()) */\n  jump\t// in\ntag_7:\n    /* \"contracts/Manager/royalty/RoyaltyFeeRegistry.sol\":910:914  9500 */\n  0x251c\n    /* \"contracts/Manager/royalty/RoyaltyFeeRegistry.sol\":890:906  _royaltyFeeLimit */\n  dup2\n    /* \"contracts/Manager/royalty/RoyaltyFeeRegistry.sol\":890:914  _royaltyFeeLimit <= 9500 */\n  gt\n  iszero\n    /* \"contracts/Manager/royalty/RoyaltyFeeRegistry.sol\":882:945  require(_royaltyFeeLimit <= 9500, \"Royalty fee limit too high\") */\n  tag_12\n  jumpi\n  mload(0x40)\n  shl(0xe5, 0x461bcd)\n  dup2\n  mstore\n    /* \"#utility.yul\":405:407   */\n  0x20\n    /* \"contracts/Manager/royalty/RoyaltyFeeRegistry.sol\":882:945  require(_royaltyFeeLimit <= 9500, \"Royalty fee limit too high\") */\n  0x04\n  dup3\n  add\n    /* \"#utility.yul\":387:408   */\n  mstore\n    /* \"#utility.yul\":444:446   */\n  0x1a\n    /* \"#utility.yul\":424:442   */\n  0x24\n  dup3\n  add\n    /* \"#utility.yul\":417:447   */\n  mstore\n    /* \"#utility.yul\":483:511   */\n  0x526f79616c747920666565206c696d697420746f6f2068696768000000000000\n    /* \"#utility.yul\":463:481   */\n  0x44\n  dup3\n  add\n    /* \"#utility.yul\":456:512   */\n  mstore\n    /* \"#utility.yul\":529:547   */\n  0x64\n  add\n    /* \"contracts/Manager/royalty/RoyaltyFeeRegistry.sol\":882:945  require(_royaltyFeeLimit <= 9500, \"Royalty fee limit too high\") */\n  mload(0x40)\n  dup1\n  swap2\n  sub\n  swap1\n  revert\ntag_12:\n    /* \"contracts/Manager/royalty/RoyaltyFeeRegistry.sol\":955:970  royaltyFeeLimit */\n  0x01\n    /* \"contracts/Manager/royalty/RoyaltyFeeRegistry.sol\":955:989  royaltyFeeLimit = _royaltyFeeLimit */\n  sstore\n    /* \"contracts/Manager/royalty/RoyaltyFeeRegistry.sol\":225:2628  contract RoyaltyFeeRegistry is IRoyaltyFeeRegistry, Ownable {... */\n  jump(tag_18)\n    /* \"@openzeppelin/contracts/access/Ownable.sol\":2433:2620  function _transferOwnership(address newOwner) internal virtual {... */\ntag_10:\n    /* \"@openzeppelin/contracts/access/Ownable.sol\":2506:2522  address oldOwner */\n  0x00\n    /* \"@openzeppelin/contracts/access/Ownable.sol\":2525:2531  _owner */\n  dup1\n  sload\n  sub(shl(0xa0, 0x01), 0x01)\n    /* \"@openzeppelin/contracts/access/Ownable.sol\":2541:2558  _owner = newOwner */\n  dup4\n  dup2\n  and\n  not(sub(shl(0xa0, 0x01), 0x01))\n  dup4\n  and\n  dup2\n  or\n  dup5\n  sstore\n    /* \"@openzeppelin/contracts/access/Ownable.sol\":2573:2613  OwnershipTransferred(oldOwner, newOwner) */\n  mload(0x40)\n    /* \"@openzeppelin/contracts/access/Ownable.sol\":2525:2531  _owner */\n  swap2\n  swap1\n  swap3\n  and\n  swap3\n  dup4\n  swap2\n    /* \"@openzeppelin/contracts/access/Ownable.sol\":2573:2613  OwnershipTransferred(oldOwner, newOwner) */\n  0x8be0079c531659141344cd1fd0a4f28419497f9722a3daafe3b4186f6b6457e0\n  swap2\n    /* \"@openzeppelin/contracts/access/Ownable.sol\":2506:2522  address oldOwner */\n  swap1\n    /* \"@openzeppelin/contracts/access/Ownable.sol\":2573:2613  OwnershipTransferred(oldOwner, newOwner) */\n  log3\n    /* \"@openzeppelin/contracts/access/Ownable.sol\":2496:2620  {... */\n  pop\n    /* \"@openzeppelin/contracts/access/Ownable.sol\":2433:2620  function _transferOwnership(address newOwner) internal virtual {... */\n  pop\n  jump\t// out\n    /* \"#utility.yul\":14:198   */\ntag_3:\n    /* \"#utility.yul\":84:90   */\n  0x00\n    /* \"#utility.yul\":137:139   */\n  0x20\n    /* \"#utility.yul\":125:134   */\n  dup3\n    /* \"#utility.yul\":116:123   */\n  dup5\n    /* \"#utility.yul\":112:135   */\n  sub\n    /* \"#utility.yul\":108:140   */\n  slt\n    /* \"#utility.yul\":105:157   */\n  iszero\n  tag_20\n  jumpi\n    /* \"#utility.yul\":153:154   */\n  0x00\n    /* \"#utility.yul\":150:151   */\n  dup1\n    /* \"#utility.yul\":143:155   */\n  revert\n    /* \"#utility.yul\":105:157   */\ntag_20:\n  pop\n    /* \"#utility.yul\":176:192   */\n  mload\n  swap2\n    /* \"#utility.yul\":14:198   */\n  swap1\n  pop\n  jump\t// out\n    /* \"#utility.yul\":203:553   */\ntag_18:\n    /* \"contracts/Manager/royalty/RoyaltyFeeRegistry.sol\":225:2628  contract RoyaltyFeeRegistry is IRoyaltyFeeRegistry, Ownable {... */\n  dataSize(sub_0)\n  dup1\n  dataOffset(sub_0)\n  0x00\n  codecopy\n  0x00\n  return\nstop\n\nsub_0: assembly {\n        /* \"contracts/Manager/royalty/RoyaltyFeeRegistry.sol\":225:2628  contract RoyaltyFeeRegistry is IRoyaltyFeeRegistry, Ownable {... */\n      mstore(0x40, 0x80)\n      callvalue\n      dup1\n      iszero\n      tag_1\n      jumpi\n      0x00\n      dup1\n      revert\n    tag_1:\n      pop\n      jumpi(tag_2, lt(calldatasize, 0x04))\n      shr(0xe0, calldataload(0x00))\n      dup1\n      0xb9223c9d\n      gt\n      tag_11\n      jumpi\n      dup1\n      0xb9223c9d\n      eq\n      tag_7\n      jumpi\n      dup1\n      0xbbdf9b68\n      eq\n      tag_8\n      jumpi\n      dup1\n      0xe31ef91c\n      eq\n      tag_9\n      jumpi\n      dup1\n      0xf2fde38b\n      eq\n      tag_10\n      jumpi\n      0x00\n      dup1\n      revert\n    tag_11:\n      dup1\n      0x2782d6c7\n      eq\n      tag_3\n      jumpi\n      dup1\n      0x4fb7d3f9\n      eq\n      tag_4\n      jumpi\n      dup1\n      0x715018a6\n      eq\n      tag_5\n      jumpi\n      dup1\n      0x8da5cb5b\n      eq\n      tag_6\n      jumpi\n    tag_2:\n      0x00\n      dup1\n      revert\n        /* \"contracts/Manager/royalty/RoyaltyFeeRegistry.sol\":1959:2226  function royaltyInfo(address collection, uint256 amount) external view override returns (address, uint256) {... */\n    tag_3:\n      tag_12\n      tag_13\n      calldatasize\n      0x04\n      tag_14\n      jump\t// in\n    tag_13:\n      tag_15\n      jump\t// in\n    tag_12:\n      0x40\n      dup1\n      mload\n      sub(shl(0xa0, 0x01), 0x01)\n        /* \"#utility.yul\":643:675   */\n      swap1\n      swap4\n      and\n        /* \"#utility.yul\":625:676   */\n      dup4\n      mstore\n        /* \"#utility.yul\":707:709   */\n      0x20\n        /* \"#utility.yul\":692:710   */\n      dup4\n      add\n        /* \"#utility.yul\":685:719   */\n      swap2\n      swap1\n      swap2\n      mstore\n        /* \"#utility.yul\":598:616   */\n      add\n        /* \"contracts/Manager/royalty/RoyaltyFeeRegistry.sol\":1959:2226  function royaltyInfo(address collection, uint256 amount) external view override returns (address, uint256) {... */\n    tag_16:\n      mload(0x40)\n      dup1\n      swap2\n      sub\n      swap1\n      return\n        /* \"contracts/Manager/royalty/RoyaltyFeeRegistry.sol\":438:468  uint256 public royaltyFeeLimit */\n    tag_4:\n      tag_18\n      sload(0x01)\n      dup2\n      jump\n    tag_18:\n      mload(0x40)\n        /* \"#utility.yul\":876:901   */\n      swap1\n      dup2\n      mstore\n        /* \"#utility.yul\":864:866   */\n      0x20\n        /* \"#utility.yul\":849:867   */\n      add\n        /* \"contracts/Manager/royalty/RoyaltyFeeRegistry.sol\":438:468  uint256 public royaltyFeeLimit */\n      tag_16\n        /* \"#utility.yul\":730:907   */\n      jump\n        /* \"@openzeppelin/contracts/access/Ownable.sol\":1831:1932  function renounceOwnership() public virtual onlyOwner {... */\n    tag_5:\n      tag_22\n      tag_23\n      jump\t// in\n    tag_22:\n      stop\n        /* \"@openzeppelin/contracts/access/Ownable.sol\":1201:1286  function owner() public view virtual returns (address) {... */\n    tag_6:\n        /* \"@openzeppelin/contracts/access/Ownable.sol\":1247:1254  address */\n      0x00\n        /* \"@openzeppelin/contracts/access/Ownable.sol\":1273:1279  _owner */\n      sload\n        /* \"@openzeppelin/contracts/access/Ownable.sol\":1201:1286  function owner() public view virtual returns (address) {... */\n      mload(0x40)\n      sub(shl(0xa0, 0x01), 0x01)\n        /* \"@openzeppelin/contracts/access/Ownable.sol\":1273:1279  _owner */\n      swap1\n      swap2\n      and\n        /* \"#utility.yul\":1058:1109   */\n      dup2\n      mstore\n        /* \"#utility.yul\":1046:1048   */\n      0x20\n        /* \"#utility.yul\":1031:1049   */\n      add\n        /* \"@openzeppelin/contracts/access/Ownable.sol\":1201:1286  function owner() public view virtual returns (address) {... */\n      tag_16\n        /* \"#utility.yul\":912:1115   */\n      jump\n        /* \"contracts/Manager/royalty/RoyaltyFeeRegistry.sol\":1058:1361  function updateRoyaltyFeeLimit(uint256 _royaltyFeeLimit) external override onlyOwner {... */\n    tag_7:\n      tag_22\n      tag_29\n      calldatasize\n      0x04\n      tag_30\n      jump\t// in\n    tag_29:\n      tag_31\n      jump\t// in\n        /* \"contracts/Manager/royalty/RoyaltyFeeRegistry.sol\":1369:1796  function updateRoyaltyInfoForCollection(... */\n    tag_8:\n      tag_22\n      tag_33\n      calldatasize\n      0x04\n      tag_34\n      jump\t// in\n    tag_33:\n      tag_35\n      jump\t// in\n        /* \"contracts/Manager/royalty/RoyaltyFeeRegistry.sol\":2268:2626  function royaltyFeeInfoCollection(address collection)... */\n    tag_9:\n      tag_36\n      tag_37\n      calldatasize\n      0x04\n      tag_38\n      jump\t// in\n    tag_37:\n      sub(shl(0xa0, 0x01), 0x01)\n        /* \"contracts/Manager/royalty/RoyaltyFeeRegistry.sol\":2458:2495  _royaltyFeeInfoCollection[collection] */\n      swap1\n      dup2\n      and\n        /* \"contracts/Manager/royalty/RoyaltyFeeRegistry.sol\":2379:2386  address */\n      0x00\n        /* \"contracts/Manager/royalty/RoyaltyFeeRegistry.sol\":2458:2495  _royaltyFeeInfoCollection[collection] */\n      swap1\n      dup2\n      mstore\n        /* \"contracts/Manager/royalty/RoyaltyFeeRegistry.sol\":2458:2483  _royaltyFeeInfoCollection */\n      0x02\n        /* \"contracts/Manager/royalty/RoyaltyFeeRegistry.sol\":2458:2495  _royaltyFeeInfoCollection[collection] */\n      0x20\n      dup2\n      swap1\n      mstore\n      0x40\n      swap1\n      swap2\n      keccak256\n        /* \"contracts/Manager/royalty/RoyaltyFeeRegistry.sol\":2458:2502  _royaltyFeeInfoCollection[collection].setter */\n      dup1\n      sload\n      0x01\n        /* \"contracts/Manager/royalty/RoyaltyFeeRegistry.sol\":2512:2558  _royaltyFeeInfoCollection[collection].receiver */\n      dup3\n      add\n      sload\n        /* \"contracts/Manager/royalty/RoyaltyFeeRegistry.sol\":2568:2609  _royaltyFeeInfoCollection[collection].fee */\n      swap2\n      swap1\n      swap3\n      add\n      sload\n        /* \"contracts/Manager/royalty/RoyaltyFeeRegistry.sol\":2458:2502  _royaltyFeeInfoCollection[collection].setter */\n      swap2\n      dup4\n      and\n      swap4\n        /* \"contracts/Manager/royalty/RoyaltyFeeRegistry.sol\":2512:2558  _royaltyFeeInfoCollection[collection].receiver */\n      swap3\n      and\n      swap2\n        /* \"contracts/Manager/royalty/RoyaltyFeeRegistry.sol\":2268:2626  function royaltyFeeInfoCollection(address collection)... */\n      jump\n    tag_36:\n      0x40\n      dup1\n      mload\n      sub(shl(0xa0, 0x01), 0x01)\n        /* \"#utility.yul\":2162:2177   */\n      swap5\n      dup6\n      and\n        /* \"#utility.yul\":2144:2178   */\n      dup2\n      mstore\n        /* \"#utility.yul\":2214:2229   */\n      swap4\n      swap1\n      swap3\n      and\n        /* \"#utility.yul\":2209:2211   */\n      0x20\n        /* \"#utility.yul\":2194:2212   */\n      dup5\n      add\n        /* \"#utility.yul\":2187:2230   */\n      mstore\n        /* \"#utility.yul\":2246:2264   */\n      swap1\n      dup3\n      add\n        /* \"#utility.yul\":2239:2273   */\n      mstore\n        /* \"#utility.yul\":2094:2096   */\n      0x60\n        /* \"#utility.yul\":2079:2097   */\n      add\n        /* \"contracts/Manager/royalty/RoyaltyFeeRegistry.sol\":2268:2626  function royaltyFeeInfoCollection(address collection)... */\n      tag_16\n        /* \"#utility.yul\":1904:2279   */\n      jump\n        /* \"@openzeppelin/contracts/access/Ownable.sol\":2081:2279  function transferOwnership(address newOwner) public virtual onlyOwner {... */\n    tag_10:\n      tag_22\n      tag_43\n      calldatasize\n      0x04\n      tag_38\n      jump\t// in\n    tag_43:\n      tag_44\n      jump\t// in\n        /* \"contracts/Manager/royalty/RoyaltyFeeRegistry.sol\":1959:2226  function royaltyInfo(address collection, uint256 amount) external view override returns (address, uint256) {... */\n    tag_15:\n      sub(shl(0xa0, 0x01), 0x01)\n        /* \"contracts/Manager/royalty/RoyaltyFeeRegistry.sol\":2093:2130  _royaltyFeeInfoCollection[collection] */\n      dup1\n      dup4\n      and\n        /* \"contracts/Manager/royalty/RoyaltyFeeRegistry.sol\":2048:2055  address */\n      0x00\n        /* \"contracts/Manager/royalty/RoyaltyFeeRegistry.sol\":2093:2130  _royaltyFeeInfoCollection[collection] */\n      swap1\n      dup2\n      mstore\n        /* \"contracts/Manager/royalty/RoyaltyFeeRegistry.sol\":2093:2118  _royaltyFeeInfoCollection */\n      0x02\n        /* \"contracts/Manager/royalty/RoyaltyFeeRegistry.sol\":2093:2130  _royaltyFeeInfoCollection[collection] */\n      0x20\n      dup2\n      swap1\n      mstore\n      0x40\n      dup3\n      keccak256\n        /* \"contracts/Manager/royalty/RoyaltyFeeRegistry.sol\":2093:2139  _royaltyFeeInfoCollection[collection].receiver */\n      0x01\n      dup2\n      add\n      sload\n        /* \"contracts/Manager/royalty/RoyaltyFeeRegistry.sol\":2159:2200  _royaltyFeeInfoCollection[collection].fee */\n      swap2\n      add\n      sload\n        /* \"contracts/Manager/royalty/RoyaltyFeeRegistry.sol\":2048:2055  address */\n      swap2\n      swap3\n      dup4\n      swap3\n        /* \"contracts/Manager/royalty/RoyaltyFeeRegistry.sol\":2093:2139  _royaltyFeeInfoCollection[collection].receiver */\n      swap2\n      and\n      swap1\n        /* \"contracts/Manager/royalty/RoyaltyFeeRegistry.sol\":2204:2209  10000 */\n      0x2710\n      swap1\n        /* \"contracts/Manager/royalty/RoyaltyFeeRegistry.sol\":2150:2200  amount * _royaltyFeeInfoCollection[collection].fee */\n      tag_46\n      swap1\n        /* \"contracts/Manager/royalty/RoyaltyFeeRegistry.sol\":2150:2156  amount */\n      dup7\n        /* \"contracts/Manager/royalty/RoyaltyFeeRegistry.sol\":2150:2200  amount * _royaltyFeeInfoCollection[collection].fee */\n      tag_47\n      jump\t// in\n    tag_46:\n        /* \"contracts/Manager/royalty/RoyaltyFeeRegistry.sol\":2149:2209  (amount * _royaltyFeeInfoCollection[collection].fee) / 10000 */\n      tag_48\n      swap2\n      swap1\n      tag_49\n      jump\t// in\n    tag_48:\n        /* \"contracts/Manager/royalty/RoyaltyFeeRegistry.sol\":2076:2219  return (... */\n      swap2\n      pop\n      swap2\n      pop\n        /* \"contracts/Manager/royalty/RoyaltyFeeRegistry.sol\":1959:2226  function royaltyInfo(address collection, uint256 amount) external view override returns (address, uint256) {... */\n      swap3\n      pop\n      swap3\n      swap1\n      pop\n      jump\t// out\n        /* \"@openzeppelin/contracts/access/Ownable.sol\":1831:1932  function renounceOwnership() public virtual onlyOwner {... */\n    tag_23:\n        /* \"@openzeppelin/contracts/access/Ownable.sol\":1094:1107  _checkOwner() */\n      tag_51\n        /* \"@openzeppelin/contracts/access/Ownable.sol\":1094:1105  _checkOwner */\n      tag_52\n        /* \"@openzeppelin/contracts/access/Ownable.sol\":1094:1107  _checkOwner() */\n      jump\t// in\n    tag_51:\n        /* \"@openzeppelin/contracts/access/Ownable.sol\":1895:1925  _transferOwnership(address(0)) */\n      tag_54\n        /* \"@openzeppelin/contracts/access/Ownable.sol\":1922:1923  0 */\n      0x00\n        /* \"@openzeppelin/contracts/access/Ownable.sol\":1895:1913  _transferOwnership */\n      tag_55\n        /* \"@openzeppelin/contracts/access/Ownable.sol\":1895:1925  _transferOwnership(address(0)) */\n      jump\t// in\n    tag_54:\n        /* \"@openzeppelin/contracts/access/Ownable.sol\":1831:1932  function renounceOwnership() public virtual onlyOwner {... */\n      jump\t// out\n        /* \"contracts/Manager/royalty/RoyaltyFeeRegistry.sol\":1058:1361  function updateRoyaltyFeeLimit(uint256 _royaltyFeeLimit) external override onlyOwner {... */\n    tag_31:\n        /* \"@openzeppelin/contracts/access/Ownable.sol\":1094:1107  _checkOwner() */\n      tag_58\n        /* \"@openzeppelin/contracts/access/Ownable.sol\":1094:1105  _checkOwner */\n      tag_52\n        /* \"@openzeppelin/contracts/access/Ownable.sol\":1094:1107  _checkOwner() */\n      jump\t// in\n    tag_58:\n        /* \"contracts/Manager/royalty/RoyaltyFeeRegistry.sol\":1223:1227  9500 */\n      0x251c\n        /* \"contracts/Manager/royalty/RoyaltyFeeRegistry.sol\":1203:1219  _royaltyFeeLimit */\n      dup2\n        /* \"contracts/Manager/royalty/RoyaltyFeeRegistry.sol\":1203:1227  _royaltyFeeLimit <= 9500 */\n      gt\n      iszero\n        /* \"contracts/Manager/royalty/RoyaltyFeeRegistry.sol\":1195:1258  require(_royaltyFeeLimit <= 9500, \"Royalty fee limit too high\") */\n      tag_60\n      jumpi\n      mload(0x40)\n      shl(0xe5, 0x461bcd)\n      dup2\n      mstore\n        /* \"#utility.yul\":2978:2980   */\n      0x20\n        /* \"contracts/Manager/royalty/RoyaltyFeeRegistry.sol\":1195:1258  require(_royaltyFeeLimit <= 9500, \"Royalty fee limit too high\") */\n      0x04\n      dup3\n      add\n        /* \"#utility.yul\":2960:2981   */\n      mstore\n        /* \"#utility.yul\":3017:3019   */\n      0x1a\n        /* \"#utility.yul\":2997:3015   */\n      0x24\n      dup3\n      add\n        /* \"#utility.yul\":2990:3020   */\n      mstore\n        /* \"#utility.yul\":3056:3084   */\n      0x526f79616c747920666565206c696d697420746f6f2068696768000000000000\n        /* \"#utility.yul\":3036:3054   */\n      0x44\n      dup3\n      add\n        /* \"#utility.yul\":3029:3085   */\n      mstore\n        /* \"#utility.yul\":3102:3120   */\n      0x64\n      add\n        /* \"contracts/Manager/royalty/RoyaltyFeeRegistry.sol\":1195:1258  require(_royaltyFeeLimit <= 9500, \"Royalty fee limit too high\") */\n    tag_61:\n      mload(0x40)\n      dup1\n      swap2\n      sub\n      swap1\n      revert\n    tag_60:\n        /* \"contracts/Manager/royalty/RoyaltyFeeRegistry.sol\":1268:1283  royaltyFeeLimit */\n      0x01\n        /* \"contracts/Manager/royalty/RoyaltyFeeRegistry.sol\":1268:1302  royaltyFeeLimit = _royaltyFeeLimit */\n      dup2\n      swap1\n      sstore\n        /* \"contracts/Manager/royalty/RoyaltyFeeRegistry.sol\":1318:1354  NewRoyaltyFeeLimit(_royaltyFeeLimit) */\n      mload(0x40)\n        /* \"#utility.yul\":876:901   */\n      dup2\n      dup2\n      mstore\n        /* \"contracts/Manager/royalty/RoyaltyFeeRegistry.sol\":1318:1354  NewRoyaltyFeeLimit(_royaltyFeeLimit) */\n      0x2da7166c72ef3860ef4fb2571105533c40615269a6dbc38ce0b264910df1c256\n      swap1\n        /* \"#utility.yul\":864:866   */\n      0x20\n        /* \"#utility.yul\":849:867   */\n      add\n        /* \"contracts/Manager/royalty/RoyaltyFeeRegistry.sol\":1318:1354  NewRoyaltyFeeLimit(_royaltyFeeLimit) */\n      mload(0x40)\n      dup1\n      swap2\n      sub\n      swap1\n      log1\n        /* \"contracts/Manager/royalty/RoyaltyFeeRegistry.sol\":1058:1361  function updateRoyaltyFeeLimit(uint256 _royaltyFeeLimit) external override onlyOwner {... */\n      pop\n      jump\t// out\n        /* \"contracts/Manager/royalty/RoyaltyFeeRegistry.sol\":1369:1796  function updateRoyaltyInfoForCollection(... */\n    tag_35:\n        /* \"@openzeppelin/contracts/access/Ownable.sol\":1094:1107  _checkOwner() */\n      tag_65\n        /* \"@openzeppelin/contracts/access/Ownable.sol\":1094:1105  _checkOwner */\n      tag_52\n        /* \"@openzeppelin/contracts/access/Ownable.sol\":1094:1107  _checkOwner() */\n      jump\t// in\n    tag_65:\n        /* \"contracts/Manager/royalty/RoyaltyFeeRegistry.sol\":1567:1582  royaltyFeeLimit */\n      sload(0x01)\n        /* \"contracts/Manager/royalty/RoyaltyFeeRegistry.sol\":1560:1563  fee */\n      dup2\n        /* \"contracts/Manager/royalty/RoyaltyFeeRegistry.sol\":1560:1582  fee <= royaltyFeeLimit */\n      gt\n      iszero\n        /* \"contracts/Manager/royalty/RoyaltyFeeRegistry.sol\":1552:1617  require(fee <= royaltyFeeLimit, \"Registry: Royalty fee too high\") */\n      tag_67\n      jumpi\n      mload(0x40)\n      shl(0xe5, 0x461bcd)\n      dup2\n      mstore\n        /* \"#utility.yul\":3333:3335   */\n      0x20\n        /* \"contracts/Manager/royalty/RoyaltyFeeRegistry.sol\":1552:1617  require(fee <= royaltyFeeLimit, \"Registry: Royalty fee too high\") */\n      0x04\n      dup3\n      add\n        /* \"#utility.yul\":3315:3336   */\n      mstore\n        /* \"#utility.yul\":3372:3374   */\n      0x1e\n        /* \"#utility.yul\":3352:3370   */\n      0x24\n      dup3\n      add\n        /* \"#utility.yul\":3345:3375   */\n      mstore\n        /* \"#utility.yul\":3411:3443   */\n      0x52656769737472793a20526f79616c74792066656520746f6f20686967680000\n        /* \"#utility.yul\":3391:3409   */\n      0x44\n      dup3\n      add\n        /* \"#utility.yul\":3384:3444   */\n      mstore\n        /* \"#utility.yul\":3461:3479   */\n      0x64\n      add\n        /* \"contracts/Manager/royalty/RoyaltyFeeRegistry.sol\":1552:1617  require(fee <= royaltyFeeLimit, \"Registry: Royalty fee too high\") */\n      tag_61\n        /* \"#utility.yul\":3131:3485   */\n      jump\n        /* \"contracts/Manager/royalty/RoyaltyFeeRegistry.sol\":1552:1617  require(fee <= royaltyFeeLimit, \"Registry: Royalty fee too high\") */\n    tag_67:\n        /* \"contracts/Manager/royalty/RoyaltyFeeRegistry.sol\":1667:1722  FeeInfo({setter: setter, receiver: receiver, fee: fee}) */\n      0x40\n      dup1\n      mload\n      0x60\n      dup2\n      add\n      dup3\n      mstore\n      sub(shl(0xa0, 0x01), 0x01)\n      dup6\n      dup2\n      and\n      dup1\n      dup4\n      mstore\n      dup6\n      dup3\n      and\n      0x20\n      dup1\n      dup6\n      add\n      dup3\n      dup2\n      mstore\n      dup6\n      dup8\n      add\n      dup9\n      dup2\n      mstore\n        /* \"contracts/Manager/royalty/RoyaltyFeeRegistry.sol\":1627:1664  _royaltyFeeInfoCollection[collection] */\n      dup12\n      dup7\n      and\n      0x00\n      dup2\n      dup2\n      mstore\n        /* \"contracts/Manager/royalty/RoyaltyFeeRegistry.sol\":1627:1652  _royaltyFeeInfoCollection */\n      0x02\n        /* \"contracts/Manager/royalty/RoyaltyFeeRegistry.sol\":1627:1664  _royaltyFeeInfoCollection[collection] */\n      dup1\n      dup7\n      mstore\n      swap1\n      dup11\n      swap1\n      keccak256\n        /* \"contracts/Manager/royalty/RoyaltyFeeRegistry.sol\":1627:1722  _royaltyFeeInfoCollection[collection] = FeeInfo({setter: setter, receiver: receiver, fee: fee}) */\n      swap9\n      mload\n      dup10\n      sload\n      swap1\n      dup10\n      and\n      not(sub(shl(0xa0, 0x01), 0x01))\n      swap2\n      dup3\n      and\n      or\n      dup11\n      sstore\n      swap4\n      mload\n      0x01\n      dup11\n      add\n      dup1\n      sload\n      swap2\n      swap1\n      swap10\n      and\n      swap5\n      and\n      swap4\n      swap1\n      swap4\n      or\n      swap1\n      swap7\n      sstore\n      mload\n      swap6\n      add\n      swap5\n      swap1\n      swap5\n      sstore\n        /* \"contracts/Manager/royalty/RoyaltyFeeRegistry.sol\":1738:1789  RoyaltyFeeUpdate(collection, setter, receiver, fee) */\n      swap4\n      mload\n        /* \"#utility.yul\":876:901   */\n      dup6\n      dup2\n      mstore\n        /* \"contracts/Manager/royalty/RoyaltyFeeRegistry.sol\":1667:1722  FeeInfo({setter: setter, receiver: receiver, fee: fee}) */\n      swap1\n      swap3\n        /* \"contracts/Manager/royalty/RoyaltyFeeRegistry.sol\":1738:1789  RoyaltyFeeUpdate(collection, setter, receiver, fee) */\n      0xd01984afa6e37420452e575e7d99dd7e632b3ec8ea2adec998475b76ca494d64\n      swap2\n        /* \"#utility.yul\":849:867   */\n      add\n        /* \"contracts/Manager/royalty/RoyaltyFeeRegistry.sol\":1738:1789  RoyaltyFeeUpdate(collection, setter, receiver, fee) */\n      mload(0x40)\n      dup1\n      swap2\n      sub\n      swap1\n      log4\n        /* \"contracts/Manager/royalty/RoyaltyFeeRegistry.sol\":1369:1796  function updateRoyaltyInfoForCollection(... */\n      pop\n      pop\n      pop\n      pop\n      jump\t// out\n        /* \"@openzeppelin/contracts/access/Ownable.sol\":2081:2279  function transferOwnership(address newOwner) public virtual onlyOwner {... */\n    tag_44:\n        /* \"@openzeppelin/contracts/access/Ownable.sol\":1094:1107  _checkOwner() */\n      tag_73\n        /* \"@openzeppelin/contracts/access/Ownable.sol\":1094:1105  _checkOwner */\n      tag_52\n        /* \"@openzeppelin/contracts/access/Ownable.sol\":1094:1107  _checkOwner() */\n      jump\t// in\n    tag_73:\n      sub(shl(0xa0, 0x01), 0x01)\n        /* \"@openzeppelin/contracts/access/Ownable.sol\":2169:2191  newOwner != address(0) */\n      dup2\n      and\n        /* \"@openzeppelin/contracts/access/Ownable.sol\":2161:2234  require(newOwner != address(0), \"Ownable: new owner is the zero address\") */\n      tag_75\n      jumpi\n      mload(0x40)\n      shl(0xe5, 0x461bcd)\n      dup2\n      mstore\n        /* \"#utility.yul\":3692:3694   */\n      0x20\n        /* \"@openzeppelin/contracts/access/Ownable.sol\":2161:2234  require(newOwner != address(0), \"Ownable: new owner is the zero address\") */\n      0x04\n      dup3\n      add\n        /* \"#utility.yul\":3674:3695   */\n      mstore\n        /* \"#utility.yul\":3731:3733   */\n      0x26\n        /* \"#utility.yul\":3711:3729   */\n      0x24\n      dup3\n      add\n        /* \"#utility.yul\":3704:3734   */\n      mstore\n        /* \"#utility.yul\":3770:3804   */\n      0x4f776e61626c653a206e6577206f776e657220697320746865207a65726f2061\n        /* \"#utility.yul\":3750:3768   */\n      0x44\n      dup3\n      add\n        /* \"#utility.yul\":3743:3805   */\n      mstore\n      shl(0xd0, 0x646472657373)\n        /* \"#utility.yul\":3821:3839   */\n      0x64\n      dup3\n      add\n        /* \"#utility.yul\":3814:3850   */\n      mstore\n        /* \"#utility.yul\":3867:3886   */\n      0x84\n      add\n        /* \"@openzeppelin/contracts/access/Ownable.sol\":2161:2234  require(newOwner != address(0), \"Ownable: new owner is the zero address\") */\n      tag_61\n        /* \"#utility.yul\":3490:3892   */\n      jump\n        /* \"@openzeppelin/contracts/access/Ownable.sol\":2161:2234  require(newOwner != address(0), \"Ownable: new owner is the zero address\") */\n    tag_75:\n        /* \"@openzeppelin/contracts/access/Ownable.sol\":2244:2272  _transferOwnership(newOwner) */\n      tag_78\n        /* \"@openzeppelin/contracts/access/Ownable.sol\":2263:2271  newOwner */\n      dup2\n        /* \"@openzeppelin/contracts/access/Ownable.sol\":2244:2262  _transferOwnership */\n      tag_55\n        /* \"@openzeppelin/contracts/access/Ownable.sol\":2244:2272  _transferOwnership(newOwner) */\n      jump\t// in\n    tag_78:\n        /* \"@openzeppelin/contracts/access/Ownable.sol\":2081:2279  function transferOwnership(address newOwner) public virtual onlyOwner {... */\n      pop\n      jump\t// out\n        /* \"@openzeppelin/contracts/access/Ownable.sol\":1359:1489  function _checkOwner() internal view virtual {... */\n    tag_52:\n        /* \"@openzeppelin/contracts/access/Ownable.sol\":1247:1254  address */\n      0x00\n        /* \"@openzeppelin/contracts/access/Ownable.sol\":1273:1279  _owner */\n      sload\n      sub(shl(0xa0, 0x01), 0x01)\n      and\n        /* \"@openzeppelin/contracts/utils/Context.sol\":719:729  msg.sender */\n      caller\n        /* \"@openzeppelin/contracts/access/Ownable.sol\":1422:1445  owner() == _msgSender() */\n      eq\n        /* \"@openzeppelin/contracts/access/Ownable.sol\":1414:1482  require(owner() == _msgSender(), \"Ownable: caller is not the owner\") */\n      tag_54\n      jumpi\n      mload(0x40)\n      shl(0xe5, 0x461bcd)\n      dup2\n      mstore\n        /* \"#utility.yul\":4099:4101   */\n      0x20\n        /* \"@openzeppelin/contracts/access/Ownable.sol\":1414:1482  require(owner() == _msgSender(), \"Ownable: caller is not the owner\") */\n      0x04\n      dup3\n      add\n        /* \"#utility.yul\":4081:4102   */\n      dup2\n      swap1\n      mstore\n        /* \"#utility.yul\":4118:4136   */\n      0x24\n      dup3\n      add\n        /* \"#utility.yul\":4111:4141   */\n      mstore\n        /* \"#utility.yul\":4177:4211   */\n      0x4f776e61626c653a2063616c6c6572206973206e6f7420746865206f776e6572\n        /* \"#utility.yul\":4157:4175   */\n      0x44\n      dup3\n      add\n        /* \"#utility.yul\":4150:4212   */\n      mstore\n        /* \"#utility.yul\":4229:4247   */\n      0x64\n      add\n        /* \"@openzeppelin/contracts/access/Ownable.sol\":1414:1482  require(owner() == _msgSender(), \"Ownable: caller is not the owner\") */\n      tag_61\n        /* \"#utility.yul\":3897:4253   */\n      jump\n        /* \"@openzeppelin/contracts/access/Ownable.sol\":2433:2620  function _transferOwnership(address newOwner) internal virtual {... */\n    tag_55:\n        /* \"@openzeppelin/contracts/access/Ownable.sol\":2506:2522  address oldOwner */\n      0x00\n        /* \"@openzeppelin/contracts/access/Ownable.sol\":2525:2531  _owner */\n      dup1\n      sload\n      sub(shl(0xa0, 0x01), 0x01)\n        /* \"@openzeppelin/contracts/access/Ownable.sol\":2541:2558  _owner = newOwner */\n      dup4\n      dup2\n      and\n      not(sub(shl(0xa0, 0x01), 0x01))\n      dup4\n      and\n      dup2\n      or\n      dup5\n      sstore\n        /* \"@openzeppelin/contracts/access/Ownable.sol\":2573:2613  OwnershipTransferred(oldOwner, newOwner) */\n      mload(0x40)\n        /* \"@openzeppelin/contracts/access/Ownable.sol\":2525:2531  _owner */\n      swap2\n      swap1\n      swap3\n      and\n      swap3\n      dup4\n      swap2\n        /* \"@openzeppelin/contracts/access/Ownable.sol\":2573:2613  OwnershipTransferred(oldOwner, newOwner) */\n      0x8be0079c531659141344cd1fd0a4f28419497f9722a3daafe3b4186f6b6457e0\n      swap2\n        /* \"@openzeppelin/contracts/access/Ownable.sol\":2506:2522  address oldOwner */\n      swap1\n        /* \"@openzeppelin/contracts/access/Ownable.sol\":2573:2613  OwnershipTransferred(oldOwner, newOwner) */\n      log3\n        /* \"@openzeppelin/contracts/access/Ownable.sol\":2496:2620  {... */\n      pop\n        /* \"@openzeppelin/contracts/access/Ownable.sol\":2433:2620  function _transferOwnership(address newOwner) internal virtual {... */\n      pop\n      jump\t// out\n        /* \"#utility.yul\":14:187   */\n    tag_88:\n        /* \"#utility.yul\":82:102   */\n      dup1\n      calldataload\n      sub(shl(0xa0, 0x01), 0x01)\n        /* \"#utility.yul\":131:162   */\n      dup2\n      and\n        /* \"#utility.yul\":121:163   */\n      dup2\n      eq\n        /* \"#utility.yul\":111:181   */\n      tag_91\n      jumpi\n        /* \"#utility.yul\":177:178   */\n      0x00\n        /* \"#utility.yul\":174:175   */\n      dup1\n        /* \"#utility.yul\":167:179   */\n      revert\n        /* \"#utility.yul\":111:181   */\n    tag_91:\n        /* \"#utility.yul\":14:187   */\n      swap2\n      swap1\n      pop\n      jump\t// out\n        /* \"#utility.yul\":192:446   */\n    tag_14:\n        /* \"#utility.yul\":260:266   */\n      0x00\n        /* \"#utility.yul\":268:274   */\n      dup1\n        /* \"#utility.yul\":321:323   */\n      0x40\n        /* \"#utility.yul\":309:318   */\n      dup4\n        /* \"#utility.yul\":300:307   */\n      dup6\n        /* \"#utility.yul\":296:319   */\n      sub\n        /* \"#utility.yul\":292:324   */\n      slt\n        /* \"#utility.yul\":289:341   */\n      iszero\n      tag_93\n      jumpi\n        /* \"#utility.yul\":337:338   */\n      0x00\n        /* \"#utility.yul\":334:335   */\n      dup1\n        /* \"#utility.yul\":327:339   */\n      revert\n        /* \"#utility.yul\":289:341   */\n    tag_93:\n        /* \"#utility.yul\":360:389   */\n      tag_94\n        /* \"#utility.yul\":379:388   */\n      dup4\n        /* \"#utility.yul\":360:389   */\n      tag_88\n      jump\t// in\n    tag_94:\n        /* \"#utility.yul\":350:389   */\n      swap5\n        /* \"#utility.yul\":436:438   */\n      0x20\n        /* \"#utility.yul\":421:439   */\n      swap4\n      swap1\n      swap4\n      add\n        /* \"#utility.yul\":408:440   */\n      calldataload\n      swap4\n      pop\n      pop\n      pop\n        /* \"#utility.yul\":192:446   */\n      jump\t// out\n        /* \"#utility.yul\":1120:1300   */\n    tag_30:\n        /* \"#utility.yul\":1179:1185   */\n      0x00\n        /* \"#utility.yul\":1232:1234   */\n      0x20\n        /* \"#utility.yul\":1220:1229   */\n      dup3\n        /* \"#utility.yul\":1211:1218   */\n      dup5\n        /* \"#utility.yul\":1207:1230   */\n      sub\n        /* \"#utility.yul\":1203:1235   */\n      slt\n        /* \"#utility.yul\":1200:1252   */\n      iszero\n      tag_99\n      jumpi\n        /* \"#utility.yul\":1248:1249   */\n      0x00\n        /* \"#utility.yul\":1245:1246   */\n      dup1\n        /* \"#utility.yul\":1238:1250   */\n      revert\n        /* \"#utility.yul\":1200:1252   */\n    tag_99:\n      pop\n        /* \"#utility.yul\":1271:1294   */\n      calldataload\n      swap2\n        /* \"#utility.yul\":1120:1300   */\n      swap1\n      pop\n      jump\t// out\n        /* \"#utility.yul\":1305:1708   */\n    tag_34:\n        /* \"#utility.yul\":1391:1397   */\n      0x00\n        /* \"#utility.yul\":1399:1405   */\n      dup1\n        /* \"#utility.yul\":1407:1413   */\n      0x00\n        /* \"#utility.yul\":1415:1421   */\n      dup1\n        /* \"#utility.yul\":1468:1471   */\n      0x80\n        /* \"#utility.yul\":1456:1465   */\n      dup6\n        /* \"#utility.yul\":1447:1454   */\n      dup8\n        /* \"#utility.yul\":1443:1466   */\n      sub\n        /* \"#utility.yul\":1439:1472   */\n      slt\n        /* \"#utility.yul\":1436:1489   */\n      iszero\n      tag_101\n      jumpi\n        /* \"#utility.yul\":1485:1486   */\n      0x00\n        /* \"#utility.yul\":1482:1483   */\n      dup1\n        /* \"#utility.yul\":1475:1487   */\n      revert\n        /* \"#utility.yul\":1436:1489   */\n    tag_101:\n        /* \"#utility.yul\":1508:1537   */\n      tag_102\n        /* \"#utility.yul\":1527:1536   */\n      dup6\n        /* \"#utility.yul\":1508:1537   */\n      tag_88\n      jump\t// in\n    tag_102:\n        /* \"#utility.yul\":1498:1537   */\n      swap4\n      pop\n        /* \"#utility.yul\":1556:1594   */\n      tag_103\n        /* \"#utility.yul\":1590:1592   */\n      0x20\n        /* \"#utility.yul\":1579:1588   */\n      dup7\n        /* \"#utility.yul\":1575:1593   */\n      add\n        /* \"#utility.yul\":1556:1594   */\n      tag_88\n      jump\t// in\n    tag_103:\n        /* \"#utility.yul\":1546:1594   */\n      swap3\n      pop\n        /* \"#utility.yul\":1613:1651   */\n      tag_104\n        /* \"#utility.yul\":1647:1649   */\n      0x40\n        /* \"#utility.yul\":1636:1645   */\n      dup7\n        /* \"#utility.yul\":1632:1650   */\n      add\n        /* \"#utility.yul\":1613:1651   */\n      tag_88\n      jump\t// in\n    tag_104:\n        /* \"#utility.yul\":1305:1708   */\n      swap4\n      swap7\n      swap3\n      swap6\n      pop\n        /* \"#utility.yul\":1603:1651   */\n      swap3\n      swap4\n        /* \"#utility.yul\":1698:1700   */\n      0x60\n        /* \"#utility.yul\":1683:1701   */\n      add\n        /* \"#utility.yul\":1670:1702   */\n      calldataload\n      swap3\n      pop\n      pop\n        /* \"#utility.yul\":1305:1708   */\n      jump\t// out\n        /* \"#utility.yul\":1713:1899   */\n    tag_38:\n        /* \"#utility.yul\":1772:1778   */\n      0x00\n        /* \"#utility.yul\":1825:1827   */\n      0x20\n        /* \"#utility.yul\":1813:1822   */\n      dup3\n        /* \"#utility.yul\":1804:1811   */\n      dup5\n        /* \"#utility.yul\":1800:1823   */\n      sub\n        /* \"#utility.yul\":1796:1828   */\n      slt\n        /* \"#utility.yul\":1793:1845   */\n      iszero\n      tag_106\n      jumpi\n        /* \"#utility.yul\":1841:1842   */\n      0x00\n        /* \"#utility.yul\":1838:1839   */\n      dup1\n        /* \"#utility.yul\":1831:1843   */\n      revert\n        /* \"#utility.yul\":1793:1845   */\n    tag_106:\n        /* \"#utility.yul\":1864:1893   */\n      tag_107\n        /* \"#utility.yul\":1883:1892   */\n      dup3\n        /* \"#utility.yul\":1864:1893   */\n      tag_88\n      jump\t// in\n    tag_107:\n        /* \"#utility.yul\":1854:1893   */\n      swap4\n        /* \"#utility.yul\":1713:1899   */\n      swap3\n      pop\n      pop\n      pop\n      jump\t// out\n        /* \"#utility.yul\":2284:2549   */\n    tag_47:\n        /* \"#utility.yul\":2357:2366   */\n      dup1\n      dup3\n      mul\n        /* \"#utility.yul\":2388:2397   */\n      dup2\n      iszero\n        /* \"#utility.yul\":2405:2420   */\n      dup3\n      dup3\n      div\n        /* \"#utility.yul\":2399:2421   */\n      dup5\n      eq\n        /* \"#utility.yul\":2385:2422   */\n      or\n        /* \"#utility.yul\":2375:2543   */\n      tag_110\n      jumpi\n        /* \"#utility.yul\":2465:2475   */\n      0x4e487b71\n        /* \"#utility.yul\":2460:2463   */\n      0xe0\n        /* \"#utility.yul\":2456:2476   */\n      shl\n        /* \"#utility.yul\":2453:2454   */\n      0x00\n        /* \"#utility.yul\":2446:2477   */\n      mstore\n        /* \"#utility.yul\":2500:2504   */\n      0x11\n        /* \"#utility.yul\":2497:2498   */\n      0x04\n        /* \"#utility.yul\":2490:2505   */\n      mstore\n        /* \"#utility.yul\":2528:2532   */\n      0x24\n        /* \"#utility.yul\":2525:2526   */\n      0x00\n        /* \"#utility.yul\":2518:2533   */\n      revert\n        /* \"#utility.yul\":2375:2543   */\n    tag_110:\n        /* \"#utility.yul\":2284:2549   */\n      swap3\n      swap2\n      pop\n      pop\n      jump\t// out\n        /* \"#utility.yul\":2554:2771   */\n    tag_49:\n        /* \"#utility.yul\":2594:2595   */\n      0x00\n        /* \"#utility.yul\":2620:2621   */\n      dup3\n        /* \"#utility.yul\":2610:2742   */\n      tag_112\n      jumpi\n        /* \"#utility.yul\":2664:2674   */\n      0x4e487b71\n        /* \"#utility.yul\":2659:2662   */\n      0xe0\n        /* \"#utility.yul\":2655:2675   */\n      shl\n        /* \"#utility.yul\":2652:2653   */\n      0x00\n        /* \"#utility.yul\":2645:2676   */\n      mstore\n        /* \"#utility.yul\":2699:2703   */\n      0x12\n        /* \"#utility.yul\":2696:2697   */\n      0x04\n        /* \"#utility.yul\":2689:2704   */\n      mstore\n        /* \"#utility.yul\":2727:2731   */\n      0x24\n        /* \"#utility.yul\":2724:2725   */\n      0x00\n        /* \"#utility.yul\":2717:2732   */\n      revert\n        /* \"#utility.yul\":2610:2742   */\n    tag_112:\n      pop\n        /* \"#utility.yul\":2756:2765   */\n      div\n      swap1\n        /* \"#utility.yul\":2554:2771   */\n      jump\t// out\n\n    auxdata: 0xa2646970667358221220d90e8579e589f31bfbd3ded27848978d29e87dc15042923228ae85258cd4531464736f6c63430008110033\n}\n",
				"bytecode": {
					"linkReferences": {},
					"object": "608060405234801561001057600080fd5b5060405161071738038061071783398101604081905261002f916100e6565b61003833610096565b61251c81111561008e5760405162461bcd60e51b815260206004820152601a60248201527f526f79616c747920666565206c696d697420746f6f2068696768000000000000604482015260640160405180910390fd5b6001556100ff565b600080546001600160a01b038381166001600160a01b0319831681178455604051919092169283917f8be0079c531659141344cd1fd0a4f28419497f9722a3daafe3b4186f6b6457e09190a35050565b6000602082840312156100f857600080fd5b5051919050565b6106098061010e6000396000f3fe608060405234801561001057600080fd5b50600436106100885760003560e01c8063b9223c9d1161005b578063b9223c9d14610100578063bbdf9b6814610113578063e31ef91c14610126578063f2fde38b1461018b57600080fd5b80632782d6c71461008d5780634fb7d3f9146100c4578063715018a6146100db5780638da5cb5b146100e5575b600080fd5b6100a061009b3660046104d6565b61019e565b604080516001600160a01b0390931683526020830191909152015b60405180910390f35b6100cd60015481565b6040519081526020016100bb565b6100e36101eb565b005b6000546040516001600160a01b0390911681526020016100bb565b6100e361010e366004610500565b6101ff565b6100e3610121366004610519565b610299565b610165610134366004610564565b6001600160a01b03908116600090815260026020819052604090912080546001820154919092015491831693921691565b604080516001600160a01b039485168152939092166020840152908201526060016100bb565b6100e3610199366004610564565b610397565b6001600160a01b0380831660009081526002602081905260408220600181015491015491928392911690612710906101d69086610586565b6101e091906105b1565b915091509250929050565b6101f3610410565b6101fd600061046a565b565b610207610410565b61251c81111561025e5760405162461bcd60e51b815260206004820152601a60248201527f526f79616c747920666565206c696d697420746f6f206869676800000000000060448201526064015b60405180910390fd5b60018190556040518181527f2da7166c72ef3860ef4fb2571105533c40615269a6dbc38ce0b264910df1c2569060200160405180910390a150565b6102a1610410565b6001548111156102f35760405162461bcd60e51b815260206004820152601e60248201527f52656769737472793a20526f79616c74792066656520746f6f206869676800006044820152606401610255565b604080516060810182526001600160a01b0385811680835285821660208085018281528587018881528b861660008181526002808652908a9020985189549089166001600160a01b0319918216178a55935160018a0180549190991694169390931790965551950194909455935185815290927fd01984afa6e37420452e575e7d99dd7e632b3ec8ea2adec998475b76ca494d64910160405180910390a450505050565b61039f610410565b6001600160a01b0381166104045760405162461bcd60e51b815260206004820152602660248201527f4f776e61626c653a206e6577206f776e657220697320746865207a65726f206160448201526564647265737360d01b6064820152608401610255565b61040d8161046a565b50565b6000546001600160a01b031633146101fd5760405162461bcd60e51b815260206004820181905260248201527f4f776e61626c653a2063616c6c6572206973206e6f7420746865206f776e65726044820152606401610255565b600080546001600160a01b038381166001600160a01b0319831681178455604051919092169283917f8be0079c531659141344cd1fd0a4f28419497f9722a3daafe3b4186f6b6457e09190a35050565b80356001600160a01b03811681146104d157600080fd5b919050565b600080604083850312156104e957600080fd5b6104f2836104ba565b946020939093013593505050565b60006020828403121561051257600080fd5b5035919050565b6000806000806080858703121561052f57600080fd5b610538856104ba565b9350610546602086016104ba565b9250610554604086016104ba565b9396929550929360600135925050565b60006020828403121561057657600080fd5b61057f826104ba565b9392505050565b80820281158282048414176105ab57634e487b7160e01b600052601160045260246000fd5b92915050565b6000826105ce57634e487b7160e01b600052601260045260246000fd5b50049056fea2646970667358221220d90e8579e589f31bfbd3ded27848978d29e87dc15042923228ae85258cd4531464736f6c63430008110033",
					"opcodes": "PUSH1 0x80 PUSH1 0x40 MSTORE CALLVALUE DUP1 ISZERO PUSH2 0x10 JUMPI PUSH1 0x0 DUP1 REVERT JUMPDEST POP PUSH1 0x40 MLOAD PUSH2 0x717 CODESIZE SUB DUP1 PUSH2 0x717 DUP4 CODECOPY DUP2 ADD PUSH1 0x40 DUP2 SWAP1 MSTORE PUSH2 0x2F SWAP2 PUSH2 0xE6 JUMP JUMPDEST PUSH2 0x38 CALLER PUSH2 0x96 JUMP JUMPDEST PUSH2 0x251C DUP2 GT ISZERO PUSH2 0x8E JUMPI PUSH1 0x40 MLOAD PUSH3 0x461BCD PUSH1 0xE5 SHL DUP2 MSTORE PUSH1 0x20 PUSH1 0x4 DUP3 ADD MSTORE PUSH1 0x1A PUSH1 0x24 DUP3 ADD MSTORE PUSH32 0x526F79616C747920666565206C696D697420746F6F2068696768000000000000 PUSH1 0x44 DUP3 ADD MSTORE PUSH1 0x64 ADD PUSH1 0x40 MLOAD DUP1 SWAP2 SUB SWAP1 REVERT JUMPDEST PUSH1 0x1 SSTORE PUSH2 0xFF JUMP JUMPDEST PUSH1 0x0 DUP1 SLOAD PUSH1 0x1 PUSH1 0x1 PUSH1 0xA0 SHL SUB DUP4 DUP2 AND PUSH1 0x1 PUSH1 0x1 PUSH1 0xA0 SHL SUB NOT DUP4 AND DUP2 OR DUP5 SSTORE PUSH1 0x40 MLOAD SWAP2 SWAP1 SWAP3 AND SWAP3 DUP4 SWAP2 PUSH32 0x8BE0079C531659141344CD1FD0A4F28419497F9722A3DAAFE3B4186F6B6457E0 SWAP2 SWAP1 LOG3 POP POP JUMP JUMPDEST PUSH1 0x0 PUSH1 0x20 DUP3 DUP5 SUB SLT ISZERO PUSH2 0xF8 JUMPI PUSH1 0x0 DUP1 REVERT JUMPDEST POP MLOAD SWAP2 SWAP1 POP JUMP JUMPDEST PUSH2 0x609 DUP1 PUSH2 0x10E PUSH1 0x0 CODECOPY PUSH1 0x0 RETURN INVALID PUSH1 0x80 PUSH1 0x40 MSTORE CALLVALUE DUP1 ISZERO PUSH2 0x10 JUMPI PUSH1 0x0 DUP1 REVERT JUMPDEST POP PUSH1 0x4 CALLDATASIZE LT PUSH2 0x88 JUMPI PUSH1 0x0 CALLDATALOAD PUSH1 0xE0 SHR DUP1 PUSH4 0xB9223C9D GT PUSH2 0x5B JUMPI DUP1 PUSH4 0xB9223C9D EQ PUSH2 0x100 JUMPI DUP1 PUSH4 0xBBDF9B68 EQ PUSH2 0x113 JUMPI DUP1 PUSH4 0xE31EF91C EQ PUSH2 0x126 JUMPI DUP1 PUSH4 0xF2FDE38B EQ PUSH2 0x18B JUMPI PUSH1 0x0 DUP1 REVERT JUMPDEST DUP1 PUSH4 0x2782D6C7 EQ PUSH2 0x8D JUMPI DUP1 PUSH4 0x4FB7D3F9 EQ PUSH2 0xC4 JUMPI DUP1 PUSH4 0x715018A6 EQ PUSH2 0xDB JUMPI DUP1 PUSH4 0x8DA5CB5B EQ PUSH2 0xE5 JUMPI JUMPDEST PUSH1 0x0 DUP1 REVERT JUMPDEST PUSH2 0xA0 PUSH2 0x9B CALLDATASIZE PUSH1 0x4 PUSH2 0x4D6 JUMP JUMPDEST PUSH2 0x19E JUMP JUMPDEST PUSH1 0x40 DUP1 MLOAD PUSH1 0x1 PUSH1 0x1 PUSH1 0xA0 SHL SUB SWAP1 SWAP4 AND DUP4 MSTORE PUSH1 0x20 DUP4 ADD SWAP2 SWAP1 SWAP2 MSTORE ADD JUMPDEST PUSH1 0x40 MLOAD DUP1 SWAP2 SUB SWAP1 RETURN JUMPDEST PUSH2 0xCD PUSH1 0x1 SLOAD DUP2 JUMP JUMPDEST PUSH1 0x40 MLOAD SWAP1 DUP2 MSTORE PUSH1 0x20 ADD PUSH2 0xBB JUMP JUMPDEST PUSH2 0xE3 PUSH2 0x1EB JUMP JUMPDEST STOP JUMPDEST PUSH1 0x0 SLOAD PUSH1 0x40 MLOAD PUSH1 0x1 PUSH1 0x1 PUSH1 0xA0 SHL SUB SWAP1 SWAP2 AND DUP2 MSTORE PUSH1 0x20 ADD PUSH2 0xBB JUMP JUMPDEST PUSH2 0xE3 PUSH2 0x10E CALLDATASIZE PUSH1 0x4 PUSH2 0x500 JUMP JUMPDEST PUSH2 0x1FF JUMP JUMPDEST PUSH2 0xE3 PUSH2 0x121 CALLDATASIZE PUSH1 0x4 PUSH2 0x519 JUMP JUMPDEST PUSH2 0x299 JUMP JUMPDEST PUSH2 0x165 PUSH2 0x134 CALLDATASIZE PUSH1 0x4 PUSH2 0x564 JUMP JUMPDEST PUSH1 0x1 PUSH1 0x1 PUSH1 0xA0 SHL SUB SWAP1 DUP2 AND PUSH1 0x0 SWAP1 DUP2 MSTORE PUSH1 0x2 PUSH1 0x20 DUP2 SWAP1 MSTORE PUSH1 0x40 SWAP1 SWAP2 KECCAK256 DUP1 SLOAD PUSH1 0x1 DUP3 ADD SLOAD SWAP2 SWAP1 SWAP3 ADD SLOAD SWAP2 DUP4 AND SWAP4 SWAP3 AND SWAP2 JUMP JUMPDEST PUSH1 0x40 DUP1 MLOAD PUSH1 0x1 PUSH1 0x1 PUSH1 0xA0 SHL SUB SWAP5 DUP6 AND DUP2 MSTORE SWAP4 SWAP1 SWAP3 AND PUSH1 0x20 DUP5 ADD MSTORE SWAP1 DUP3 ADD MSTORE PUSH1 0x60 ADD PUSH2 0xBB JUMP JUMPDEST PUSH2 0xE3 PUSH2 0x199 CALLDATASIZE PUSH1 0x4 PUSH2 0x564 JUMP JUMPDEST PUSH2 0x397 JUMP JUMPDEST PUSH1 0x1 PUSH1 0x1 PUSH1 0xA0 SHL SUB DUP1 DUP4 AND PUSH1 0x0 SWAP1 DUP2 MSTORE PUSH1 0x2 PUSH1 0x20 DUP2 SWAP1 MSTORE PUSH1 0x40 DUP3 KECCAK256 PUSH1 0x1 DUP2 ADD SLOAD SWAP2 ADD SLOAD SWAP2 SWAP3 DUP4 SWAP3 SWAP2 AND SWAP1 PUSH2 0x2710 SWAP1 PUSH2 0x1D6 SWAP1 DUP7 PUSH2 0x586 JUMP JUMPDEST PUSH2 0x1E0 SWAP2 SWAP1 PUSH2 0x5B1 JUMP JUMPDEST SWAP2 POP SWAP2 POP SWAP3 POP SWAP3 SWAP1 POP JUMP JUMPDEST PUSH2 0x1F3 PUSH2 0x410 JUMP JUMPDEST PUSH2 0x1FD PUSH1 0x0 PUSH2 0x46A JUMP JUMPDEST JUMP JUMPDEST PUSH2 0x207 PUSH2 0x410 JUMP JUMPDEST PUSH2 0x251C DUP2 GT ISZERO PUSH2 0x25E JUMPI PUSH1 0x40 MLOAD PUSH3 0x461BCD PUSH1 0xE5 SHL DUP2 MSTORE PUSH1 0x20 PUSH1 0x4 DUP3 ADD MSTORE PUSH1 0x1A PUSH1 0x24 DUP3 ADD MSTORE PUSH32 0x526F79616C747920666565206C696D697420746F6F2068696768000000000000 PUSH1 0x44 DUP3 ADD MSTORE PUSH1 0x64 ADD JUMPDEST PUSH1 0x40 MLOAD DUP1 SWAP2 SUB SWAP1 REVERT JUMPDEST PUSH1 0x1 DUP2 SWAP1 SSTORE PUSH1 0x40 MLOAD DUP2 DUP2 MSTORE PUSH32 0x2DA7166C72EF3860EF4FB2571105533C40615269A6DBC38CE0B264910DF1C256 SWAP1 PUSH1 0x20 ADD PUSH1 0x40 MLOAD DUP1 SWAP2 SUB SWAP1 LOG1 POP JUMP JUMPDEST PUSH2 0x2A1 PUSH2 0x410 JUMP JUMPDEST PUSH1 0x1 SLOAD DUP2 GT ISZERO PUSH2 0x2F3 JUMPI PUSH1 0x40 MLOAD PUSH3 0x461BCD PUSH1 0xE5 SHL DUP2 MSTORE PUSH1 0x20 PUSH1 0x4 DUP3 ADD MSTORE PUSH1 0x1E PUSH1 0x24 DUP3 ADD MSTORE PUSH32 0x52656769737472793A20526F79616C74792066656520746F6F20686967680000 PUSH1 0x44 DUP3 ADD MSTORE PUSH1 0x64 ADD PUSH2 0x255 JUMP JUMPDEST PUSH1 0x40 DUP1 MLOAD PUSH1 0x60 DUP2 ADD DUP3 MSTORE PUSH1 0x1 PUSH1 0x1 PUSH1 0xA0 SHL SUB DUP6 DUP2 AND DUP1 DUP4 MSTORE DUP6 DUP3 AND PUSH1 0x20 DUP1 DUP6 ADD DUP3 DUP2 MSTORE DUP6 DUP8 ADD DUP9 DUP2 MSTORE DUP12 DUP7 AND PUSH1 0x0 DUP2 DUP2 MSTORE PUSH1 0x2 DUP1 DUP7 MSTORE SWAP1 DUP11 SWAP1 KECCAK256 SWAP9 MLOAD DUP10 SLOAD SWAP1 DUP10 AND PUSH1 0x1 PUSH1 0x1 PUSH1 0xA0 SHL SUB NOT SWAP2 DUP3 AND OR DUP11 SSTORE SWAP4 MLOAD PUSH1 0x1 DUP11 ADD DUP1 SLOAD SWAP2 SWAP1 SWAP10 AND SWAP5 AND SWAP4 SWAP1 SWAP4 OR SWAP1 SWAP7 SSTORE MLOAD SWAP6 ADD SWAP5 SWAP1 SWAP5 SSTORE SWAP4 MLOAD DUP6 DUP2 MSTORE SWAP1 SWAP3 PUSH32 0xD01984AFA6E37420452E575E7D99DD7E632B3EC8EA2ADEC998475B76CA494D64 SWAP2 ADD PUSH1 0x40 MLOAD DUP1 SWAP2 SUB SWAP1 LOG4 POP POP POP POP JUMP JUMPDEST PUSH2 0x39F PUSH2 0x410 JUMP JUMPDEST PUSH1 0x1 PUSH1 0x1 PUSH1 0xA0 SHL SUB DUP2 AND PUSH2 0x404 JUMPI PUSH1 0x40 MLOAD PUSH3 0x461BCD PUSH1 0xE5 SHL DUP2 MSTORE PUSH1 0x20 PUSH1 0x4 DUP3 ADD MSTORE PUSH1 0x26 PUSH1 0x24 DUP3 ADD MSTORE PUSH32 0x4F776E61626C653A206E6577206F776E657220697320746865207A65726F2061 PUSH1 0x44 DUP3 ADD MSTORE PUSH6 0x646472657373 PUSH1 0xD0 SHL PUSH1 0x64 DUP3 ADD MSTORE PUSH1 0x84 ADD PUSH2 0x255 JUMP JUMPDEST PUSH2 0x40D DUP2 PUSH2 0x46A JUMP JUMPDEST POP JUMP JUMPDEST PUSH1 0x0 SLOAD PUSH1 0x1 PUSH1 0x1 PUSH1 0xA0 SHL SUB AND CALLER EQ PUSH2 0x1FD JUMPI PUSH1 0x40 MLOAD PUSH3 0x461BCD PUSH1 0xE5 SHL DUP2 MSTORE PUSH1 0x20 PUSH1 0x4 DUP3 ADD DUP2 SWAP1 MSTORE PUSH1 0x24 DUP3 ADD MSTORE PUSH32 0x4F776E61626C653A2063616C6C6572206973206E6F7420746865206F776E6572 PUSH1 0x44 DUP3 ADD MSTORE PUSH1 0x64 ADD PUSH2 0x255 JUMP JUMPDEST PUSH1 0x0 DUP1 SLOAD PUSH1 0x1 PUSH1 0x1 PUSH1 0xA0 SHL SUB DUP4 DUP2 AND PUSH1 0x1 PUSH1 0x1 PUSH1 0xA0 SHL SUB NOT DUP4 AND DUP2 OR DUP5 SSTORE PUSH1 0x40 MLOAD SWAP2 SWAP1 SWAP3 AND SWAP3 DUP4 SWAP2 PUSH32 0x8BE0079C531659141344CD1FD0A4F28419497F9722A3DAAFE3B4186F6B6457E0 SWAP2 SWAP1 LOG3 POP POP JUMP JUMPDEST DUP1 CALLDATALOAD PUSH1 0x1 PUSH1 0x1 PUSH1 0xA0 SHL SUB DUP2 AND DUP2 EQ PUSH2 0x4D1 JUMPI PUSH1 0x0 DUP1 REVERT JUMPDEST SWAP2 SWAP1 POP JUMP JUMPDEST PUSH1 0x0 DUP1 PUSH1 0x40 DUP4 DUP6 SUB SLT ISZERO PUSH2 0x4E9 JUMPI PUSH1 0x0 DUP1 REVERT JUMPDEST PUSH2 0x4F2 DUP4 PUSH2 0x4BA JUMP JUMPDEST SWAP5 PUSH1 0x20 SWAP4 SWAP1 SWAP4 ADD CALLDATALOAD SWAP4 POP POP POP JUMP JUMPDEST PUSH1 0x0 PUSH1 0x20 DUP3 DUP5 SUB SLT ISZERO PUSH2 0x512 JUMPI PUSH1 0x0 DUP1 REVERT JUMPDEST POP CALLDATALOAD SWAP2 SWAP1 POP JUMP JUMPDEST PUSH1 0x0 DUP1 PUSH1 0x0 DUP1 PUSH1 0x80 DUP6 DUP8 SUB SLT ISZERO PUSH2 0x52F JUMPI PUSH1 0x0 DUP1 REVERT JUMPDEST PUSH2 0x538 DUP6 PUSH2 0x4BA JUMP JUMPDEST SWAP4 POP PUSH2 0x546 PUSH1 0x20 DUP7 ADD PUSH2 0x4BA JUMP JUMPDEST SWAP3 POP PUSH2 0x554 PUSH1 0x40 DUP7 ADD PUSH2 0x4BA JUMP JUMPDEST SWAP4 SWAP7 SWAP3 SWAP6 POP SWAP3 SWAP4 PUSH1 0x60 ADD CALLDATALOAD SWAP3 POP POP JUMP JUMPDEST PUSH1 0x0 PUSH1 0x20 DUP3 DUP5 SUB SLT ISZERO PUSH2 0x576 JUMPI PUSH1 0x0 DUP1 REVERT JUMPDEST PUSH2 0x57F DUP3 PUSH2 0x4BA JUMP JUMPDEST SWAP4 SWAP3 POP POP POP JUMP JUMPDEST DUP1 DUP3 MUL DUP2 ISZERO DUP3 DUP3 DIV DUP5 EQ OR PUSH2 0x5AB JUMPI PUSH4 0x4E487B71 PUSH1 0xE0 SHL PUSH1 0x0 MSTORE PUSH1 0x11 PUSH1 0x4 MSTORE PUSH1 0x24 PUSH1 0x0 REVERT JUMPDEST SWAP3 SWAP2 POP POP JUMP JUMPDEST PUSH1 0x0 DUP3 PUSH2 0x5CE JUMPI PUSH4 0x4E487B71 PUSH1 0xE0 SHL PUSH1 0x0 MSTORE PUSH1 0x12 PUSH1 0x4 MSTORE PUSH1 0x24 PUSH1 0x0 REVERT JUMPDEST POP DIV SWAP1 JUMP INVALID LOG2 PUSH5 0x6970667358 0x22 SLT KECCAK256 0xD9 0xE DUP6 PUSH26 0xE589F31BFBD3DED27848978D29E87DC15042923228AE85258CD4 MSTORE8 EQ PUSH5 0x736F6C6343 STOP ADDMOD GT STOP CALLER "
				},
				"gasEstimates": {
					"creation": {
						"codeDepositCost": "309000",
						"executionCost": "infinite",
						"totalCost": "infinite"
					},
					"external": {
						"owner()": "2368",
						"renounceOwnership()": "infinite",
						"royaltyFeeInfoCollection(address)": "6904",
						"royaltyFeeLimit()": "2318",
						"royaltyInfo(address,uint256)": "4930",
						"transferOwnership(address)": "28399",
						"updateRoyaltyFeeLimit(uint256)": "25579",
						"updateRoyaltyInfoForCollection(address,address,address,uint256)": "infinite"
					}
				},
				"methodIdentifiers": {
					"owner()": "8da5cb5b",
					"renounceOwnership()": "715018a6",
					"royaltyFeeInfoCollection(address)": "e31ef91c",
					"royaltyFeeLimit()": "4fb7d3f9",
					"royaltyInfo(address,uint256)": "2782d6c7",
					"transferOwnership(address)": "f2fde38b",
					"updateRoyaltyFeeLimit(uint256)": "b9223c9d",
					"updateRoyaltyInfoForCollection(address,address,address,uint256)": "bbdf9b68"
				}
			},
			"storageLayout": {
				"storage": [
					{
						"astId": 7,
						"contract": "contracts/Manager/royalty/RoyaltyFeeRegistry.sol:RoyaltyFeeRegistry",
						"label": "_owner",
						"offset": 0,
						"slot": "0",
						"type": "t_address"
					},
					{
						"astId": 153,
						"contract": "contracts/Manager/royalty/RoyaltyFeeRegistry.sol:RoyaltyFeeRegistry",
						"label": "royaltyFeeLimit",
						"offset": 0,
						"slot": "1",
						"type": "t_uint256"
					},
					{
						"astId": 158,
						"contract": "contracts/Manager/royalty/RoyaltyFeeRegistry.sol:RoyaltyFeeRegistry",
						"label": "_royaltyFeeInfoCollection",
						"offset": 0,
						"slot": "2",
						"type": "t_mapping(t_address,t_struct(FeeInfo)151_storage)"
					}
				],
				"types": {
					"t_address": {
						"encoding": "inplace",
						"label": "address",
						"numberOfBytes": "20"
					},
					"t_mapping(t_address,t_struct(FeeInfo)151_storage)": {
						"encoding": "mapping",
						"key": "t_address",
						"label": "mapping(address => struct RoyaltyFeeRegistry.FeeInfo)",
						"numberOfBytes": "32",
						"value": "t_struct(FeeInfo)151_storage"
					},
					"t_struct(FeeInfo)151_storage": {
						"encoding": "inplace",
						"label": "struct RoyaltyFeeRegistry.FeeInfo",
						"members": [
							{
								"astId": 146,
								"contract": "contracts/Manager/royalty/RoyaltyFeeRegistry.sol:RoyaltyFeeRegistry",
								"label": "setter",
								"offset": 0,
								"slot": "0",
								"type": "t_address"
							},
							{
								"astId": 148,
								"contract": "contracts/Manager/royalty/RoyaltyFeeRegistry.sol:RoyaltyFeeRegistry",
								"label": "receiver",
								"offset": 0,
								"slot": "1",
								"type": "t_address"
							},
							{
								"astId": 150,
								"contract": "contracts/Manager/royalty/RoyaltyFeeRegistry.sol:RoyaltyFeeRegistry",
								"label": "fee",
								"offset": 0,
								"slot": "2",
								"type": "t_uint256"
							}
						],
						"numberOfBytes": "96"
					},
					"t_uint256": {
						"encoding": "inplace",
						"label": "uint256",
						"numberOfBytes": "32"
					}
				}
			},
			"userdoc": {
				"kind": "user",
				"methods": {},
				"version": 1
			}
		}
	}
}