{
	"contracts/Manager/royalty/RoyaltyFeeRegistry.sol": {
		"RoyaltyFeeRegistry": {
			"abi": [
				{
					"inputs": [
						{
							"internalType": "uint256",
							"name": "_royaltyFeeLimit",
							"type": "uint256"
						}
					],
					"stateMutability": "nonpayable",
					"type": "constructor"
				},
				{
					"anonymous": false,
					"inputs": [
						{
							"indexed": false,
							"internalType": "uint256",
							"name": "royaltyFeeLimit",
							"type": "uint256"
						}
					],
					"name": "NewRoyaltyFeeLimit",
					"type": "event"
				},
				{
					"anonymous": false,
					"inputs": [
						{
							"indexed": true,
							"internalType": "address",
							"name": "previousOwner",
							"type": "address"
						},
						{
							"indexed": true,
							"internalType": "address",
							"name": "newOwner",
							"type": "address"
						}
					],
					"name": "OwnershipTransferred",
					"type": "event"
				},
				{
					"anonymous": false,
					"inputs": [
						{
							"indexed": true,
							"internalType": "address",
							"name": "collection",
							"type": "address"
						},
						{
							"indexed": true,
							"internalType": "address",
							"name": "setter",
							"type": "address"
						},
						{
							"indexed": true,
							"internalType": "address",
							"name": "receiver",
							"type": "address"
						},
						{
							"indexed": false,
							"internalType": "uint256",
							"name": "fee",
							"type": "uint256"
						}
					],
					"name": "RoyaltyFeeUpdate",
					"type": "event"
				},
				{
					"inputs": [],
					"name": "INTERFACE_ID_ERC1155",
					"outputs": [
						{
							"internalType": "bytes4",
							"name": "",
							"type": "bytes4"
						}
					],
					"stateMutability": "view",
					"type": "function"
				},
				{
					"inputs": [],
					"name": "INTERFACE_ID_ERC2981",
					"outputs": [
						{
							"internalType": "bytes4",
							"name": "",
							"type": "bytes4"
						}
					],
					"stateMutability": "view",
					"type": "function"
				},
				{
					"inputs": [],
					"name": "INTERFACE_ID_ERC721",
					"outputs": [
						{
							"internalType": "bytes4",
							"name": "",
							"type": "bytes4"
						}
					],
					"stateMutability": "view",
					"type": "function"
				},
				{
					"inputs": [
						{
							"internalType": "address",
							"name": "collection",
							"type": "address"
						}
					],
					"name": "checkForCollectionSetter",
					"outputs": [
						{
							"internalType": "address",
							"name": "",
							"type": "address"
						},
						{
							"internalType": "uint8",
							"name": "",
							"type": "uint8"
						}
					],
					"stateMutability": "view",
					"type": "function"
				},
				{
					"inputs": [],
					"name": "owner",
					"outputs": [
						{
							"internalType": "address",
							"name": "",
							"type": "address"
						}
					],
					"stateMutability": "view",
					"type": "function"
				},
				{
					"inputs": [],
					"name": "renounceOwnership",
					"outputs": [],
					"stateMutability": "nonpayable",
					"type": "function"
				},
				{
					"inputs": [
						{
							"internalType": "address",
							"name": "collection",
							"type": "address"
						}
					],
					"name": "royaltyFeeInfoCollection",
					"outputs": [
						{
							"internalType": "address",
							"name": "",
							"type": "address"
						},
						{
							"internalType": "address",
							"name": "",
							"type": "address"
						},
						{
							"internalType": "uint256",
							"name": "",
							"type": "uint256"
						}
					],
					"stateMutability": "view",
					"type": "function"
				},
				{
					"inputs": [],
					"name": "royaltyFeeLimit",
					"outputs": [
						{
							"internalType": "uint256",
							"name": "",
							"type": "uint256"
						}
					],
					"stateMutability": "view",
					"type": "function"
				},
				{
					"inputs": [
						{
							"internalType": "address",
							"name": "collection",
							"type": "address"
						},
						{
							"internalType": "uint256",
							"name": "amount",
							"type": "uint256"
						}
					],
					"name": "royaltyInfo",
					"outputs": [
						{
							"internalType": "address",
							"name": "",
							"type": "address"
						},
						{
							"internalType": "uint256",
							"name": "",
							"type": "uint256"
						}
					],
					"stateMutability": "view",
					"type": "function"
				},
				{
					"inputs": [
						{
							"internalType": "address",
							"name": "newOwner",
							"type": "address"
						}
					],
					"name": "transferOwnership",
					"outputs": [],
					"stateMutability": "nonpayable",
					"type": "function"
				},
				{
					"inputs": [
						{
							"internalType": "uint256",
							"name": "_royaltyFeeLimit",
							"type": "uint256"
						}
					],
					"name": "updateRoyaltyFeeLimit",
					"outputs": [],
					"stateMutability": "nonpayable",
					"type": "function"
				},
				{
					"inputs": [
						{
							"internalType": "address",
							"name": "collection",
							"type": "address"
						},
						{
							"internalType": "address",
							"name": "setter",
							"type": "address"
						},
						{
							"internalType": "address",
							"name": "receiver",
							"type": "address"
						},
						{
							"internalType": "uint256",
							"name": "fee",
							"type": "uint256"
						}
					],
					"name": "updateRoyaltyInfoForCollection",
					"outputs": [],
					"stateMutability": "nonpayable",
					"type": "function"
				}
			],
			"devdoc": {
				"kind": "dev",
				"methods": {
					"owner()": {
						"details": "Returns the address of the current owner."
					},
					"renounceOwnership()": {
						"details": "Leaves the contract without owner. It will not be possible to call `onlyOwner` functions anymore. Can only be called by the current owner. NOTE: Renouncing ownership will leave the contract without an owner, thereby removing any functionality that is only available to the owner."
					},
					"transferOwnership(address)": {
						"details": "Transfers ownership of the contract to a new account (`newOwner`). Can only be called by the current owner."
					}
				},
				"version": 1
			},
			"evm": {
				"assembly": "    /* \"contracts/Manager/royalty/RoyaltyFeeRegistry.sol\":357:3874  contract RoyaltyFeeRegistry is IRoyaltyFeeRegistry, Ownable {... */\n  mstore(0x40, 0x80)\n    /* \"contracts/Manager/royalty/RoyaltyFeeRegistry.sol\":1194:1398  constructor(uint256 _royaltyFeeLimit) {... */\n  callvalue\n  dup1\n  iszero\n  tag_1\n  jumpi\n  0x00\n  dup1\n  revert\ntag_1:\n  pop\n  mload(0x40)\n  sub(codesize, bytecodeSize)\n  dup1\n  bytecodeSize\n  dup4\n  codecopy\n  dup2\n  add\n  0x40\n  dup2\n  swap1\n  mstore\n  tag_2\n  swap2\n  tag_3\n  jump\t// in\ntag_2:\n    /* \"@openzeppelin/contracts/access/Ownable.sol\":936:968  _transferOwnership(_msgSender()) */\n  tag_7\n    /* \"@openzeppelin/contracts/utils/Context.sol\":719:729  msg.sender */\n  caller\n    /* \"@openzeppelin/contracts/access/Ownable.sol\":936:954  _transferOwnership */\n  tag_10\n    /* \"@openzeppelin/contracts/access/Ownable.sol\":936:968  _transferOwnership(_msgSender()) */\n  jump\t// in\ntag_7:\n    /* \"contracts/Manager/royalty/RoyaltyFeeRegistry.sol\":1312:1316  9500 */\n  0x251c\n    /* \"contracts/Manager/royalty/RoyaltyFeeRegistry.sol\":1292:1308  _royaltyFeeLimit */\n  dup2\n    /* \"contracts/Manager/royalty/RoyaltyFeeRegistry.sol\":1292:1316  _royaltyFeeLimit <= 9500 */\n  gt\n  iszero\n    /* \"contracts/Manager/royalty/RoyaltyFeeRegistry.sol\":1284:1347  require(_royaltyFeeLimit <= 9500, \"Royalty fee limit too high\") */\n  tag_12\n  jumpi\n  mload(0x40)\n  shl(0xe5, 0x461bcd)\n  dup2\n  mstore\n    /* \"#utility.yul\":405:407   */\n  0x20\n    /* \"contracts/Manager/royalty/RoyaltyFeeRegistry.sol\":1284:1347  require(_royaltyFeeLimit <= 9500, \"Royalty fee limit too high\") */\n  0x04\n  dup3\n  add\n    /* \"#utility.yul\":387:408   */\n  mstore\n    /* \"#utility.yul\":444:446   */\n  0x1a\n    /* \"#utility.yul\":424:442   */\n  0x24\n  dup3\n  add\n    /* \"#utility.yul\":417:447   */\n  mstore\n    /* \"#utility.yul\":483:511   */\n  0x526f79616c747920666565206c696d697420746f6f2068696768000000000000\n    /* \"#utility.yul\":463:481   */\n  0x44\n  dup3\n  add\n    /* \"#utility.yul\":456:512   */\n  mstore\n    /* \"#utility.yul\":529:547   */\n  0x64\n  add\n    /* \"contracts/Manager/royalty/RoyaltyFeeRegistry.sol\":1284:1347  require(_royaltyFeeLimit <= 9500, \"Royalty fee limit too high\") */\n  mload(0x40)\n  dup1\n  swap2\n  sub\n  swap1\n  revert\ntag_12:\n    /* \"contracts/Manager/royalty/RoyaltyFeeRegistry.sol\":1357:1372  royaltyFeeLimit */\n  0x01\n    /* \"contracts/Manager/royalty/RoyaltyFeeRegistry.sol\":1357:1391  royaltyFeeLimit = _royaltyFeeLimit */\n  sstore\n    /* \"contracts/Manager/royalty/RoyaltyFeeRegistry.sol\":357:3874  contract RoyaltyFeeRegistry is IRoyaltyFeeRegistry, Ownable {... */\n  jump(tag_18)\n    /* \"@openzeppelin/contracts/access/Ownable.sol\":2433:2620  function _transferOwnership(address newOwner) internal virtual {... */\ntag_10:\n    /* \"@openzeppelin/contracts/access/Ownable.sol\":2506:2522  address oldOwner */\n  0x00\n    /* \"@openzeppelin/contracts/access/Ownable.sol\":2525:2531  _owner */\n  dup1\n  sload\n  sub(shl(0xa0, 0x01), 0x01)\n    /* \"@openzeppelin/contracts/access/Ownable.sol\":2541:2558  _owner = newOwner */\n  dup4\n  dup2\n  and\n  not(sub(shl(0xa0, 0x01), 0x01))\n  dup4\n  and\n  dup2\n  or\n  dup5\n  sstore\n    /* \"@openzeppelin/contracts/access/Ownable.sol\":2573:2613  OwnershipTransferred(oldOwner, newOwner) */\n  mload(0x40)\n    /* \"@openzeppelin/contracts/access/Ownable.sol\":2525:2531  _owner */\n  swap2\n  swap1\n  swap3\n  and\n  swap3\n  dup4\n  swap2\n    /* \"@openzeppelin/contracts/access/Ownable.sol\":2573:2613  OwnershipTransferred(oldOwner, newOwner) */\n  0x8be0079c531659141344cd1fd0a4f28419497f9722a3daafe3b4186f6b6457e0\n  swap2\n    /* \"@openzeppelin/contracts/access/Ownable.sol\":2506:2522  address oldOwner */\n  swap1\n    /* \"@openzeppelin/contracts/access/Ownable.sol\":2573:2613  OwnershipTransferred(oldOwner, newOwner) */\n  log3\n    /* \"@openzeppelin/contracts/access/Ownable.sol\":2496:2620  {... */\n  pop\n    /* \"@openzeppelin/contracts/access/Ownable.sol\":2433:2620  function _transferOwnership(address newOwner) internal virtual {... */\n  pop\n  jump\t// out\n    /* \"#utility.yul\":14:198   */\ntag_3:\n    /* \"#utility.yul\":84:90   */\n  0x00\n    /* \"#utility.yul\":137:139   */\n  0x20\n    /* \"#utility.yul\":125:134   */\n  dup3\n    /* \"#utility.yul\":116:123   */\n  dup5\n    /* \"#utility.yul\":112:135   */\n  sub\n    /* \"#utility.yul\":108:140   */\n  slt\n    /* \"#utility.yul\":105:157   */\n  iszero\n  tag_20\n  jumpi\n    /* \"#utility.yul\":153:154   */\n  0x00\n    /* \"#utility.yul\":150:151   */\n  dup1\n    /* \"#utility.yul\":143:155   */\n  revert\n    /* \"#utility.yul\":105:157   */\ntag_20:\n  pop\n    /* \"#utility.yul\":176:192   */\n  mload\n  swap2\n    /* \"#utility.yul\":14:198   */\n  swap1\n  pop\n  jump\t// out\n    /* \"#utility.yul\":203:553   */\ntag_18:\n    /* \"contracts/Manager/royalty/RoyaltyFeeRegistry.sol\":357:3874  contract RoyaltyFeeRegistry is IRoyaltyFeeRegistry, Ownable {... */\n  dataSize(sub_0)\n  dup1\n  dataOffset(sub_0)\n  0x00\n  codecopy\n  0x00\n  return\nstop\n\nsub_0: assembly {\n        /* \"contracts/Manager/royalty/RoyaltyFeeRegistry.sol\":357:3874  contract RoyaltyFeeRegistry is IRoyaltyFeeRegistry, Ownable {... */\n      mstore(0x40, 0x80)\n      callvalue\n      dup1\n      iszero\n      tag_1\n      jumpi\n      0x00\n      dup1\n      revert\n    tag_1:\n      pop\n      jumpi(tag_2, lt(calldatasize, 0x04))\n      shr(0xe0, calldataload(0x00))\n      dup1\n      0xb9223c9d\n      gt\n      tag_15\n      jumpi\n      dup1\n      0xc54e5497\n      gt\n      tag_16\n      jumpi\n      dup1\n      0xc54e5497\n      eq\n      tag_12\n      jumpi\n      dup1\n      0xe31ef91c\n      eq\n      tag_13\n      jumpi\n      dup1\n      0xf2fde38b\n      eq\n      tag_14\n      jumpi\n      0x00\n      dup1\n      revert\n    tag_16:\n      dup1\n      0xb9223c9d\n      eq\n      tag_9\n      jumpi\n      dup1\n      0xbbdf9b68\n      eq\n      tag_10\n      jumpi\n      dup1\n      0xbc6bc0cd\n      eq\n      tag_11\n      jumpi\n      0x00\n      dup1\n      revert\n    tag_15:\n      dup1\n      0x715018a6\n      gt\n      tag_17\n      jumpi\n      dup1\n      0x715018a6\n      eq\n      tag_6\n      jumpi\n      dup1\n      0x8da5cb5b\n      eq\n      tag_7\n      jumpi\n      dup1\n      0xb060dd86\n      eq\n      tag_8\n      jumpi\n      0x00\n      dup1\n      revert\n    tag_17:\n      dup1\n      0x2782d6c7\n      eq\n      tag_3\n      jumpi\n      dup1\n      0x33bf6156\n      eq\n      tag_4\n      jumpi\n      dup1\n      0x4fb7d3f9\n      eq\n      tag_5\n      jumpi\n    tag_2:\n      0x00\n      dup1\n      revert\n        /* \"contracts/Manager/royalty/RoyaltyFeeRegistry.sol\":2359:2626  function royaltyInfo(address collection, uint256 amount) external view override returns (address, uint256) {... */\n    tag_3:\n      tag_18\n      tag_19\n      calldatasize\n      0x04\n      tag_20\n      jump\t// in\n    tag_19:\n      tag_21\n      jump\t// in\n    tag_18:\n      0x40\n      dup1\n      mload\n        /* \"#utility.yul\":697:739   */\n      0xffffffffffffffffffffffffffffffffffffffff\n        /* \"#utility.yul\":685:740   */\n      swap1\n      swap4\n      and\n        /* \"#utility.yul\":667:741   */\n      dup4\n      mstore\n        /* \"#utility.yul\":772:774   */\n      0x20\n        /* \"#utility.yul\":757:775   */\n      dup4\n      add\n        /* \"#utility.yul\":750:784   */\n      swap2\n      swap1\n      swap2\n      mstore\n        /* \"#utility.yul\":640:658   */\n      add\n        /* \"contracts/Manager/royalty/RoyaltyFeeRegistry.sol\":2359:2626  function royaltyInfo(address collection, uint256 amount) external view override returns (address, uint256) {... */\n    tag_22:\n      mload(0x40)\n      dup1\n      swap2\n      sub\n      swap1\n      return\n        /* \"contracts/Manager/royalty/RoyaltyFeeRegistry.sol\":639:695  bytes4 public constant INTERFACE_ID_ERC1155 = 0xd9b67a26 */\n    tag_4:\n      tag_24\n      0xd9b67a2600000000000000000000000000000000000000000000000000000000\n      dup2\n      jump\n    tag_24:\n      mload(0x40)\n        /* \"#utility.yul\":969:1035   */\n      0xffffffff00000000000000000000000000000000000000000000000000000000\n        /* \"#utility.yul\":957:1036   */\n      swap1\n      swap2\n      and\n        /* \"#utility.yul\":939:1037   */\n      dup2\n      mstore\n        /* \"#utility.yul\":927:929   */\n      0x20\n        /* \"#utility.yul\":912:930   */\n      add\n        /* \"contracts/Manager/royalty/RoyaltyFeeRegistry.sol\":639:695  bytes4 public constant INTERFACE_ID_ERC1155 = 0xd9b67a26 */\n      tag_22\n        /* \"#utility.yul\":795:1043   */\n      jump\n        /* \"contracts/Manager/royalty/RoyaltyFeeRegistry.sol\":840:870  uint256 public royaltyFeeLimit */\n    tag_5:\n      tag_28\n      sload(0x01)\n      dup2\n      jump\n    tag_28:\n      mload(0x40)\n        /* \"#utility.yul\":1194:1219   */\n      swap1\n      dup2\n      mstore\n        /* \"#utility.yul\":1182:1184   */\n      0x20\n        /* \"#utility.yul\":1167:1185   */\n      add\n        /* \"contracts/Manager/royalty/RoyaltyFeeRegistry.sol\":840:870  uint256 public royaltyFeeLimit */\n      tag_22\n        /* \"#utility.yul\":1048:1225   */\n      jump\n        /* \"@openzeppelin/contracts/access/Ownable.sol\":1831:1932  function renounceOwnership() public virtual onlyOwner {... */\n    tag_6:\n      tag_32\n      tag_33\n      jump\t// in\n    tag_32:\n      stop\n        /* \"@openzeppelin/contracts/access/Ownable.sol\":1201:1286  function owner() public view virtual returns (address) {... */\n    tag_7:\n        /* \"@openzeppelin/contracts/access/Ownable.sol\":1247:1254  address */\n      0x00\n        /* \"@openzeppelin/contracts/access/Ownable.sol\":1273:1279  _owner */\n      sload\n        /* \"@openzeppelin/contracts/access/Ownable.sol\":1201:1286  function owner() public view virtual returns (address) {... */\n      mload(0x40)\n        /* \"@openzeppelin/contracts/access/Ownable.sol\":1273:1279  _owner */\n      0xffffffffffffffffffffffffffffffffffffffff\n      swap1\n      swap2\n      and\n        /* \"#utility.yul\":1376:1450   */\n      dup2\n      mstore\n        /* \"#utility.yul\":1364:1366   */\n      0x20\n        /* \"#utility.yul\":1349:1367   */\n      add\n        /* \"@openzeppelin/contracts/access/Ownable.sol\":1201:1286  function owner() public view virtual returns (address) {... */\n      tag_22\n        /* \"#utility.yul\":1230:1456   */\n      jump\n        /* \"contracts/Manager/royalty/RoyaltyFeeRegistry.sol\":729:785  bytes4 public constant INTERFACE_ID_ERC2981 = 0x2a55205a */\n    tag_8:\n      tag_24\n      0x2a55205a00000000000000000000000000000000000000000000000000000000\n      dup2\n      jump\n        /* \"contracts/Manager/royalty/RoyaltyFeeRegistry.sol\":1460:1763  function updateRoyaltyFeeLimit(uint256 _royaltyFeeLimit) external override onlyOwner {... */\n    tag_9:\n      tag_32\n      tag_42\n      calldatasize\n      0x04\n      tag_43\n      jump\t// in\n    tag_42:\n      tag_44\n      jump\t// in\n        /* \"contracts/Manager/royalty/RoyaltyFeeRegistry.sol\":1769:2196  function updateRoyaltyInfoForCollection(... */\n    tag_10:\n      tag_32\n      tag_46\n      calldatasize\n      0x04\n      tag_47\n      jump\t// in\n    tag_46:\n      tag_48\n      jump\t// in\n        /* \"contracts/Manager/royalty/RoyaltyFeeRegistry.sol\":550:605  bytes4 public constant INTERFACE_ID_ERC721 = 0x80ac58cd */\n    tag_11:\n      tag_24\n      0x80ac58cd00000000000000000000000000000000000000000000000000000000\n      dup2\n      jump\n        /* \"contracts/Manager/royalty/RoyaltyFeeRegistry.sol\":3244:3872  function checkForCollectionSetter(address collection) external view returns (address, uint8) {... */\n    tag_12:\n      tag_52\n      tag_53\n      calldatasize\n      0x04\n      tag_54\n      jump\t// in\n    tag_53:\n      tag_55\n      jump\t// in\n    tag_52:\n      0x40\n      dup1\n      mload\n        /* \"#utility.yul\":2701:2743   */\n      0xffffffffffffffffffffffffffffffffffffffff\n        /* \"#utility.yul\":2689:2744   */\n      swap1\n      swap4\n      and\n        /* \"#utility.yul\":2671:2745   */\n      dup4\n      mstore\n        /* \"#utility.yul\":2793:2797   */\n      0xff\n        /* \"#utility.yul\":2781:2798   */\n      swap1\n      swap2\n      and\n        /* \"#utility.yul\":2776:2778   */\n      0x20\n        /* \"#utility.yul\":2761:2779   */\n      dup4\n      add\n        /* \"#utility.yul\":2754:2799   */\n      mstore\n        /* \"#utility.yul\":2644:2662   */\n      add\n        /* \"contracts/Manager/royalty/RoyaltyFeeRegistry.sol\":3244:3872  function checkForCollectionSetter(address collection) external view returns (address, uint8) {... */\n      tag_22\n        /* \"#utility.yul\":2501:2805   */\n      jump\n        /* \"contracts/Manager/royalty/RoyaltyFeeRegistry.sol\":2668:3026  function royaltyFeeInfoCollection(address collection)... */\n    tag_13:\n      tag_58\n      tag_59\n      calldatasize\n      0x04\n      tag_54\n      jump\t// in\n    tag_59:\n        /* \"contracts/Manager/royalty/RoyaltyFeeRegistry.sol\":2858:2895  _royaltyFeeInfoCollection[collection] */\n      0xffffffffffffffffffffffffffffffffffffffff\n      swap1\n      dup2\n      and\n        /* \"contracts/Manager/royalty/RoyaltyFeeRegistry.sol\":2779:2786  address */\n      0x00\n        /* \"contracts/Manager/royalty/RoyaltyFeeRegistry.sol\":2858:2895  _royaltyFeeInfoCollection[collection] */\n      swap1\n      dup2\n      mstore\n        /* \"contracts/Manager/royalty/RoyaltyFeeRegistry.sol\":2858:2883  _royaltyFeeInfoCollection */\n      0x02\n        /* \"contracts/Manager/royalty/RoyaltyFeeRegistry.sol\":2858:2895  _royaltyFeeInfoCollection[collection] */\n      0x20\n      dup2\n      swap1\n      mstore\n      0x40\n      swap1\n      swap2\n      keccak256\n        /* \"contracts/Manager/royalty/RoyaltyFeeRegistry.sol\":2858:2902  _royaltyFeeInfoCollection[collection].setter */\n      dup1\n      sload\n      0x01\n        /* \"contracts/Manager/royalty/RoyaltyFeeRegistry.sol\":2912:2958  _royaltyFeeInfoCollection[collection].receiver */\n      dup3\n      add\n      sload\n        /* \"contracts/Manager/royalty/RoyaltyFeeRegistry.sol\":2968:3009  _royaltyFeeInfoCollection[collection].fee */\n      swap2\n      swap1\n      swap3\n      add\n      sload\n        /* \"contracts/Manager/royalty/RoyaltyFeeRegistry.sol\":2858:2902  _royaltyFeeInfoCollection[collection].setter */\n      swap2\n      dup4\n      and\n      swap4\n        /* \"contracts/Manager/royalty/RoyaltyFeeRegistry.sol\":2912:2958  _royaltyFeeInfoCollection[collection].receiver */\n      swap3\n      and\n      swap2\n        /* \"contracts/Manager/royalty/RoyaltyFeeRegistry.sol\":2668:3026  function royaltyFeeInfoCollection(address collection)... */\n      jump\n    tag_58:\n      0x40\n      dup1\n      mload\n        /* \"#utility.yul\":3022:3064   */\n      0xffffffffffffffffffffffffffffffffffffffff\n        /* \"#utility.yul\":3091:3106   */\n      swap5\n      dup6\n      and\n        /* \"#utility.yul\":3073:3107   */\n      dup2\n      mstore\n        /* \"#utility.yul\":3143:3158   */\n      swap4\n      swap1\n      swap3\n      and\n        /* \"#utility.yul\":3138:3140   */\n      0x20\n        /* \"#utility.yul\":3123:3141   */\n      dup5\n      add\n        /* \"#utility.yul\":3116:3159   */\n      mstore\n        /* \"#utility.yul\":3175:3193   */\n      swap1\n      dup3\n      add\n        /* \"#utility.yul\":3168:3202   */\n      mstore\n        /* \"#utility.yul\":3000:3002   */\n      0x60\n        /* \"#utility.yul\":2985:3003   */\n      add\n        /* \"contracts/Manager/royalty/RoyaltyFeeRegistry.sol\":2668:3026  function royaltyFeeInfoCollection(address collection)... */\n      tag_22\n        /* \"#utility.yul\":2810:3208   */\n      jump\n        /* \"@openzeppelin/contracts/access/Ownable.sol\":2081:2279  function transferOwnership(address newOwner) public virtual onlyOwner {... */\n    tag_14:\n      tag_32\n      tag_64\n      calldatasize\n      0x04\n      tag_54\n      jump\t// in\n    tag_64:\n      tag_65\n      jump\t// in\n        /* \"contracts/Manager/royalty/RoyaltyFeeRegistry.sol\":2359:2626  function royaltyInfo(address collection, uint256 amount) external view override returns (address, uint256) {... */\n    tag_21:\n        /* \"contracts/Manager/royalty/RoyaltyFeeRegistry.sol\":2493:2530  _royaltyFeeInfoCollection[collection] */\n      0xffffffffffffffffffffffffffffffffffffffff\n      dup1\n      dup4\n      and\n        /* \"contracts/Manager/royalty/RoyaltyFeeRegistry.sol\":2448:2455  address */\n      0x00\n        /* \"contracts/Manager/royalty/RoyaltyFeeRegistry.sol\":2493:2530  _royaltyFeeInfoCollection[collection] */\n      swap1\n      dup2\n      mstore\n        /* \"contracts/Manager/royalty/RoyaltyFeeRegistry.sol\":2493:2518  _royaltyFeeInfoCollection */\n      0x02\n        /* \"contracts/Manager/royalty/RoyaltyFeeRegistry.sol\":2493:2530  _royaltyFeeInfoCollection[collection] */\n      0x20\n      dup2\n      swap1\n      mstore\n      0x40\n      dup3\n      keccak256\n        /* \"contracts/Manager/royalty/RoyaltyFeeRegistry.sol\":2493:2539  _royaltyFeeInfoCollection[collection].receiver */\n      0x01\n      dup2\n      add\n      sload\n        /* \"contracts/Manager/royalty/RoyaltyFeeRegistry.sol\":2559:2600  _royaltyFeeInfoCollection[collection].fee */\n      swap2\n      add\n      sload\n        /* \"contracts/Manager/royalty/RoyaltyFeeRegistry.sol\":2448:2455  address */\n      swap2\n      swap3\n      dup4\n      swap3\n        /* \"contracts/Manager/royalty/RoyaltyFeeRegistry.sol\":2493:2539  _royaltyFeeInfoCollection[collection].receiver */\n      swap2\n      and\n      swap1\n        /* \"contracts/Manager/royalty/RoyaltyFeeRegistry.sol\":2604:2609  10000 */\n      0x2710\n      swap1\n        /* \"contracts/Manager/royalty/RoyaltyFeeRegistry.sol\":2550:2600  amount * _royaltyFeeInfoCollection[collection].fee */\n      tag_67\n      swap1\n        /* \"contracts/Manager/royalty/RoyaltyFeeRegistry.sol\":2550:2556  amount */\n      dup7\n        /* \"contracts/Manager/royalty/RoyaltyFeeRegistry.sol\":2550:2600  amount * _royaltyFeeInfoCollection[collection].fee */\n      tag_68\n      jump\t// in\n    tag_67:\n        /* \"contracts/Manager/royalty/RoyaltyFeeRegistry.sol\":2549:2609  (amount * _royaltyFeeInfoCollection[collection].fee) / 10000 */\n      tag_69\n      swap2\n      swap1\n      tag_70\n      jump\t// in\n    tag_69:\n        /* \"contracts/Manager/royalty/RoyaltyFeeRegistry.sol\":2476:2619  return (... */\n      swap2\n      pop\n      swap2\n      pop\n        /* \"contracts/Manager/royalty/RoyaltyFeeRegistry.sol\":2359:2626  function royaltyInfo(address collection, uint256 amount) external view override returns (address, uint256) {... */\n      swap3\n      pop\n      swap3\n      swap1\n      pop\n      jump\t// out\n        /* \"@openzeppelin/contracts/access/Ownable.sol\":1831:1932  function renounceOwnership() public virtual onlyOwner {... */\n    tag_33:\n        /* \"@openzeppelin/contracts/access/Ownable.sol\":1094:1107  _checkOwner() */\n      tag_72\n        /* \"@openzeppelin/contracts/access/Ownable.sol\":1094:1105  _checkOwner */\n      tag_73\n        /* \"@openzeppelin/contracts/access/Ownable.sol\":1094:1107  _checkOwner() */\n      jump\t// in\n    tag_72:\n        /* \"@openzeppelin/contracts/access/Ownable.sol\":1895:1925  _transferOwnership(address(0)) */\n      tag_75\n        /* \"@openzeppelin/contracts/access/Ownable.sol\":1922:1923  0 */\n      0x00\n        /* \"@openzeppelin/contracts/access/Ownable.sol\":1895:1913  _transferOwnership */\n      tag_76\n        /* \"@openzeppelin/contracts/access/Ownable.sol\":1895:1925  _transferOwnership(address(0)) */\n      jump\t// in\n    tag_75:\n        /* \"@openzeppelin/contracts/access/Ownable.sol\":1831:1932  function renounceOwnership() public virtual onlyOwner {... */\n      jump\t// out\n        /* \"contracts/Manager/royalty/RoyaltyFeeRegistry.sol\":1460:1763  function updateRoyaltyFeeLimit(uint256 _royaltyFeeLimit) external override onlyOwner {... */\n    tag_44:\n        /* \"@openzeppelin/contracts/access/Ownable.sol\":1094:1107  _checkOwner() */\n      tag_79\n        /* \"@openzeppelin/contracts/access/Ownable.sol\":1094:1105  _checkOwner */\n      tag_73\n        /* \"@openzeppelin/contracts/access/Ownable.sol\":1094:1107  _checkOwner() */\n      jump\t// in\n    tag_79:\n        /* \"contracts/Manager/royalty/RoyaltyFeeRegistry.sol\":1625:1629  9500 */\n      0x251c\n        /* \"contracts/Manager/royalty/RoyaltyFeeRegistry.sol\":1605:1621  _royaltyFeeLimit */\n      dup2\n        /* \"contracts/Manager/royalty/RoyaltyFeeRegistry.sol\":1605:1629  _royaltyFeeLimit <= 9500 */\n      gt\n      iszero\n        /* \"contracts/Manager/royalty/RoyaltyFeeRegistry.sol\":1597:1660  require(_royaltyFeeLimit <= 9500, \"Royalty fee limit too high\") */\n      tag_81\n      jumpi\n      mload(0x40)\n      0x08c379a000000000000000000000000000000000000000000000000000000000\n      dup2\n      mstore\n        /* \"#utility.yul\":4021:4023   */\n      0x20\n        /* \"contracts/Manager/royalty/RoyaltyFeeRegistry.sol\":1597:1660  require(_royaltyFeeLimit <= 9500, \"Royalty fee limit too high\") */\n      0x04\n      dup3\n      add\n        /* \"#utility.yul\":4003:4024   */\n      mstore\n        /* \"#utility.yul\":4060:4062   */\n      0x1a\n        /* \"#utility.yul\":4040:4058   */\n      0x24\n      dup3\n      add\n        /* \"#utility.yul\":4033:4063   */\n      mstore\n        /* \"#utility.yul\":4099:4127   */\n      0x526f79616c747920666565206c696d697420746f6f2068696768000000000000\n        /* \"#utility.yul\":4079:4097   */\n      0x44\n      dup3\n      add\n        /* \"#utility.yul\":4072:4128   */\n      mstore\n        /* \"#utility.yul\":4145:4163   */\n      0x64\n      add\n        /* \"contracts/Manager/royalty/RoyaltyFeeRegistry.sol\":1597:1660  require(_royaltyFeeLimit <= 9500, \"Royalty fee limit too high\") */\n    tag_82:\n      mload(0x40)\n      dup1\n      swap2\n      sub\n      swap1\n      revert\n    tag_81:\n        /* \"contracts/Manager/royalty/RoyaltyFeeRegistry.sol\":1670:1685  royaltyFeeLimit */\n      0x01\n        /* \"contracts/Manager/royalty/RoyaltyFeeRegistry.sol\":1670:1704  royaltyFeeLimit = _royaltyFeeLimit */\n      dup2\n      swap1\n      sstore\n        /* \"contracts/Manager/royalty/RoyaltyFeeRegistry.sol\":1720:1756  NewRoyaltyFeeLimit(_royaltyFeeLimit) */\n      mload(0x40)\n        /* \"#utility.yul\":1194:1219   */\n      dup2\n      dup2\n      mstore\n        /* \"contracts/Manager/royalty/RoyaltyFeeRegistry.sol\":1720:1756  NewRoyaltyFeeLimit(_royaltyFeeLimit) */\n      0x2da7166c72ef3860ef4fb2571105533c40615269a6dbc38ce0b264910df1c256\n      swap1\n        /* \"#utility.yul\":1182:1184   */\n      0x20\n        /* \"#utility.yul\":1167:1185   */\n      add\n        /* \"contracts/Manager/royalty/RoyaltyFeeRegistry.sol\":1720:1756  NewRoyaltyFeeLimit(_royaltyFeeLimit) */\n      mload(0x40)\n      dup1\n      swap2\n      sub\n      swap1\n      log1\n        /* \"contracts/Manager/royalty/RoyaltyFeeRegistry.sol\":1460:1763  function updateRoyaltyFeeLimit(uint256 _royaltyFeeLimit) external override onlyOwner {... */\n      pop\n      jump\t// out\n        /* \"contracts/Manager/royalty/RoyaltyFeeRegistry.sol\":1769:2196  function updateRoyaltyInfoForCollection(... */\n    tag_48:\n        /* \"@openzeppelin/contracts/access/Ownable.sol\":1094:1107  _checkOwner() */\n      tag_86\n        /* \"@openzeppelin/contracts/access/Ownable.sol\":1094:1105  _checkOwner */\n      tag_73\n        /* \"@openzeppelin/contracts/access/Ownable.sol\":1094:1107  _checkOwner() */\n      jump\t// in\n    tag_86:\n        /* \"contracts/Manager/royalty/RoyaltyFeeRegistry.sol\":1967:1982  royaltyFeeLimit */\n      sload(0x01)\n        /* \"contracts/Manager/royalty/RoyaltyFeeRegistry.sol\":1960:1963  fee */\n      dup2\n        /* \"contracts/Manager/royalty/RoyaltyFeeRegistry.sol\":1960:1982  fee <= royaltyFeeLimit */\n      gt\n      iszero\n        /* \"contracts/Manager/royalty/RoyaltyFeeRegistry.sol\":1952:2017  require(fee <= royaltyFeeLimit, \"Registry: Royalty fee too high\") */\n      tag_88\n      jumpi\n      mload(0x40)\n      0x08c379a000000000000000000000000000000000000000000000000000000000\n      dup2\n      mstore\n        /* \"#utility.yul\":4376:4378   */\n      0x20\n        /* \"contracts/Manager/royalty/RoyaltyFeeRegistry.sol\":1952:2017  require(fee <= royaltyFeeLimit, \"Registry: Royalty fee too high\") */\n      0x04\n      dup3\n      add\n        /* \"#utility.yul\":4358:4379   */\n      mstore\n        /* \"#utility.yul\":4415:4417   */\n      0x1e\n        /* \"#utility.yul\":4395:4413   */\n      0x24\n      dup3\n      add\n        /* \"#utility.yul\":4388:4418   */\n      mstore\n        /* \"#utility.yul\":4454:4486   */\n      0x52656769737472793a20526f79616c74792066656520746f6f20686967680000\n        /* \"#utility.yul\":4434:4452   */\n      0x44\n      dup3\n      add\n        /* \"#utility.yul\":4427:4487   */\n      mstore\n        /* \"#utility.yul\":4504:4522   */\n      0x64\n      add\n        /* \"contracts/Manager/royalty/RoyaltyFeeRegistry.sol\":1952:2017  require(fee <= royaltyFeeLimit, \"Registry: Royalty fee too high\") */\n      tag_82\n        /* \"#utility.yul\":4174:4528   */\n      jump\n        /* \"contracts/Manager/royalty/RoyaltyFeeRegistry.sol\":1952:2017  require(fee <= royaltyFeeLimit, \"Registry: Royalty fee too high\") */\n    tag_88:\n        /* \"contracts/Manager/royalty/RoyaltyFeeRegistry.sol\":2067:2122  FeeInfo({setter: setter, receiver: receiver, fee: fee}) */\n      0x40\n      dup1\n      mload\n      0x60\n      dup2\n      add\n      dup3\n      mstore\n      0xffffffffffffffffffffffffffffffffffffffff\n      dup6\n      dup2\n      and\n      dup1\n      dup4\n      mstore\n      dup6\n      dup3\n      and\n      0x20\n      dup1\n      dup6\n      add\n      dup3\n      dup2\n      mstore\n      dup6\n      dup8\n      add\n      dup9\n      dup2\n      mstore\n        /* \"contracts/Manager/royalty/RoyaltyFeeRegistry.sol\":2027:2064  _royaltyFeeInfoCollection[collection] */\n      dup12\n      dup7\n      and\n      0x00\n      dup2\n      dup2\n      mstore\n        /* \"contracts/Manager/royalty/RoyaltyFeeRegistry.sol\":2027:2052  _royaltyFeeInfoCollection */\n      0x02\n        /* \"contracts/Manager/royalty/RoyaltyFeeRegistry.sol\":2027:2064  _royaltyFeeInfoCollection[collection] */\n      dup1\n      dup7\n      mstore\n      swap1\n      dup11\n      swap1\n      keccak256\n        /* \"contracts/Manager/royalty/RoyaltyFeeRegistry.sol\":2027:2122  _royaltyFeeInfoCollection[collection] = FeeInfo({setter: setter, receiver: receiver, fee: fee}) */\n      swap9\n      mload\n      dup10\n      sload\n      swap1\n      dup10\n      and\n      0xffffffffffffffffffffffff0000000000000000000000000000000000000000\n      swap2\n      dup3\n      and\n      or\n      dup11\n      sstore\n      swap4\n      mload\n      0x01\n      dup11\n      add\n      dup1\n      sload\n      swap2\n      swap1\n      swap10\n      and\n      swap5\n      and\n      swap4\n      swap1\n      swap4\n      or\n      swap1\n      swap7\n      sstore\n      mload\n      swap6\n      add\n      swap5\n      swap1\n      swap5\n      sstore\n        /* \"contracts/Manager/royalty/RoyaltyFeeRegistry.sol\":2138:2189  RoyaltyFeeUpdate(collection, setter, receiver, fee) */\n      swap4\n      mload\n        /* \"#utility.yul\":1194:1219   */\n      dup6\n      dup2\n      mstore\n        /* \"contracts/Manager/royalty/RoyaltyFeeRegistry.sol\":2067:2122  FeeInfo({setter: setter, receiver: receiver, fee: fee}) */\n      swap1\n      swap3\n        /* \"contracts/Manager/royalty/RoyaltyFeeRegistry.sol\":2138:2189  RoyaltyFeeUpdate(collection, setter, receiver, fee) */\n      0xd01984afa6e37420452e575e7d99dd7e632b3ec8ea2adec998475b76ca494d64\n      swap2\n        /* \"#utility.yul\":1167:1185   */\n      add\n        /* \"contracts/Manager/royalty/RoyaltyFeeRegistry.sol\":2138:2189  RoyaltyFeeUpdate(collection, setter, receiver, fee) */\n      mload(0x40)\n      dup1\n      swap2\n      sub\n      swap1\n      log4\n        /* \"contracts/Manager/royalty/RoyaltyFeeRegistry.sol\":1769:2196  function updateRoyaltyInfoForCollection(... */\n      pop\n      pop\n      pop\n      pop\n      jump\t// out\n        /* \"contracts/Manager/royalty/RoyaltyFeeRegistry.sol\":3244:3872  function checkForCollectionSetter(address collection) external view returns (address, uint8) {... */\n    tag_55:\n        /* \"contracts/Manager/royalty/RoyaltyFeeRegistry.sol\":3351:3410  IERC165(collection).supportsInterface(INTERFACE_ID_ERC2981) */\n      mload(0x40)\n      0x01ffc9a700000000000000000000000000000000000000000000000000000000\n      dup2\n      mstore\n        /* \"contracts/Manager/royalty/RoyaltyFeeRegistry.sol\":3389:3409  INTERFACE_ID_ERC2981 */\n      0x2a55205a00000000000000000000000000000000000000000000000000000000\n        /* \"contracts/Manager/royalty/RoyaltyFeeRegistry.sol\":3351:3410  IERC165(collection).supportsInterface(INTERFACE_ID_ERC2981) */\n      0x04\n      dup3\n      add\n        /* \"#utility.yul\":939:1037   */\n      mstore\n        /* \"contracts/Manager/royalty/RoyaltyFeeRegistry.sol\":3321:3328  address */\n      0x00\n      swap1\n      dup2\n      swap1\n        /* \"contracts/Manager/royalty/RoyaltyFeeRegistry.sol\":3351:3388  IERC165(collection).supportsInterface */\n      0xffffffffffffffffffffffffffffffffffffffff\n      dup5\n      and\n      swap1\n      0x01ffc9a7\n      swap1\n        /* \"#utility.yul\":912:930   */\n      0x24\n      add\n        /* \"contracts/Manager/royalty/RoyaltyFeeRegistry.sol\":3351:3410  IERC165(collection).supportsInterface(INTERFACE_ID_ERC2981) */\n      0x20\n      mload(0x40)\n      dup1\n      dup4\n      sub\n      dup2\n      dup7\n      gas\n      staticcall\n      swap3\n      pop\n      pop\n      pop\n      dup1\n      iszero\n      tag_94\n      jumpi\n      pop\n      0x40\n      dup1\n      mload\n      0x1f\n      returndatasize\n      swap1\n      dup2\n      add\n      0xffffffffffffffffffffffffffffffffffffffffffffffffffffffffffffffe0\n      and\n      dup3\n      add\n      swap1\n      swap3\n      mstore\n      tag_95\n      swap2\n      dup2\n      add\n      swap1\n      tag_96\n      jump\t// in\n    tag_95:\n      0x01\n    tag_94:\n        /* \"contracts/Manager/royalty/RoyaltyFeeRegistry.sol\":3347:3553  try IERC165(collection).supportsInterface(INTERFACE_ID_ERC2981) returns (bool interfaceSupport) {... */\n      iszero\n      tag_101\n      jumpi\n        /* \"contracts/Manager/royalty/RoyaltyFeeRegistry.sol\":3461:3477  interfaceSupport */\n      dup1\n        /* \"contracts/Manager/royalty/RoyaltyFeeRegistry.sol\":3457:3534  if (interfaceSupport) {... */\n      iszero\n      tag_102\n      jumpi\n      pop\n        /* \"contracts/Manager/royalty/RoyaltyFeeRegistry.sol\":3513:3514  0 */\n      0x00\n      swap4\n        /* \"contracts/Manager/royalty/RoyaltyFeeRegistry.sol\":3517:3518  1 */\n      0x01\n      swap4\n      pop\n        /* \"contracts/Manager/royalty/RoyaltyFeeRegistry.sol\":3244:3872  function checkForCollectionSetter(address collection) external view returns (address, uint8) {... */\n      swap2\n      pop\n      pop\n      jump\t// out\n        /* \"contracts/Manager/royalty/RoyaltyFeeRegistry.sol\":3457:3534  if (interfaceSupport) {... */\n    tag_102:\n        /* \"contracts/Manager/royalty/RoyaltyFeeRegistry.sol\":3411:3544  returns (bool interfaceSupport) {... */\n      pop\n        /* \"contracts/Manager/royalty/RoyaltyFeeRegistry.sol\":3347:3553  try IERC165(collection).supportsInterface(INTERFACE_ID_ERC2981) returns (bool interfaceSupport) {... */\n    tag_101:\n        /* \"contracts/Manager/royalty/RoyaltyFeeRegistry.sol\":3576:3586  collection */\n      dup3\n        /* \"contracts/Manager/royalty/RoyaltyFeeRegistry.sol\":3567:3593  IOwnable(collection).owner */\n      0xffffffffffffffffffffffffffffffffffffffff\n      and\n      0x8da5cb5b\n        /* \"contracts/Manager/royalty/RoyaltyFeeRegistry.sol\":3567:3595  IOwnable(collection).owner() */\n      mload(0x40)\n      dup2\n      0xffffffff\n      and\n      0xe0\n      shl\n      dup2\n      mstore\n      0x04\n      add\n      0x20\n      mload(0x40)\n      dup1\n      dup4\n      sub\n      dup2\n      dup7\n      gas\n      staticcall\n      swap3\n      pop\n      pop\n      pop\n      dup1\n      iszero\n      tag_103\n      jumpi\n      pop\n      0x40\n      dup1\n      mload\n      0x1f\n      returndatasize\n      swap1\n      dup2\n      add\n      0xffffffffffffffffffffffffffffffffffffffffffffffffffffffffffffffe0\n      and\n      dup3\n      add\n      swap1\n      swap3\n      mstore\n      tag_104\n      swap2\n      dup2\n      add\n      swap1\n      tag_105\n      jump\t// in\n    tag_104:\n      0x01\n    tag_103:\n        /* \"contracts/Manager/royalty/RoyaltyFeeRegistry.sol\":3563:3866  try IOwnable(collection).owner() returns (address setter) {... */\n      tag_106\n      jumpi\n        /* \"contracts/Manager/royalty/RoyaltyFeeRegistry.sol\":3698:3708  collection */\n      dup3\n        /* \"contracts/Manager/royalty/RoyaltyFeeRegistry.sol\":3689:3715  IOwnable(collection).admin */\n      0xffffffffffffffffffffffffffffffffffffffff\n      and\n      0xf851a440\n        /* \"contracts/Manager/royalty/RoyaltyFeeRegistry.sol\":3689:3717  IOwnable(collection).admin() */\n      mload(0x40)\n      dup2\n      0xffffffff\n      and\n      0xe0\n      shl\n      dup2\n      mstore\n      0x04\n      add\n      0x20\n      mload(0x40)\n      dup1\n      dup4\n      sub\n      dup2\n      dup7\n      gas\n      staticcall\n      swap3\n      pop\n      pop\n      pop\n      dup1\n      iszero\n      tag_110\n      jumpi\n      pop\n      0x40\n      dup1\n      mload\n      0x1f\n      returndatasize\n      swap1\n      dup2\n      add\n      0xffffffffffffffffffffffffffffffffffffffffffffffffffffffffffffffe0\n      and\n      dup3\n      add\n      swap1\n      swap3\n      mstore\n      tag_111\n      swap2\n      dup2\n      add\n      swap1\n      tag_105\n      jump\t// in\n    tag_111:\n      0x01\n    tag_110:\n        /* \"contracts/Manager/royalty/RoyaltyFeeRegistry.sol\":3685:3856  try IOwnable(collection).admin() returns (address setter) {... */\n      tag_112\n      jumpi\n      pop\n        /* \"contracts/Manager/royalty/RoyaltyFeeRegistry.sol\":3835:3836  0 */\n      0x00\n      swap3\n        /* \"contracts/Manager/royalty/RoyaltyFeeRegistry.sol\":3839:3840  4 */\n      0x04\n      swap3\n      pop\n        /* \"contracts/Manager/royalty/RoyaltyFeeRegistry.sol\":3244:3872  function checkForCollectionSetter(address collection) external view returns (address, uint8) {... */\n      swap1\n      pop\n      jump\t// out\n        /* \"contracts/Manager/royalty/RoyaltyFeeRegistry.sol\":3685:3856  try IOwnable(collection).admin() returns (address setter) {... */\n    tag_112:\n        /* \"contracts/Manager/royalty/RoyaltyFeeRegistry.sol\":3769:3775  setter */\n      swap4\n        /* \"contracts/Manager/royalty/RoyaltyFeeRegistry.sol\":3777:3778  3 */\n      0x03\n      swap4\n      pop\n        /* \"contracts/Manager/royalty/RoyaltyFeeRegistry.sol\":3244:3872  function checkForCollectionSetter(address collection) external view returns (address, uint8) {... */\n      swap2\n      pop\n      pop\n      jump\t// out\n        /* \"contracts/Manager/royalty/RoyaltyFeeRegistry.sol\":3563:3866  try IOwnable(collection).owner() returns (address setter) {... */\n    tag_106:\n        /* \"contracts/Manager/royalty/RoyaltyFeeRegistry.sol\":3643:3649  setter */\n      swap4\n        /* \"contracts/Manager/royalty/RoyaltyFeeRegistry.sol\":3651:3652  2 */\n      0x02\n      swap4\n      pop\n        /* \"contracts/Manager/royalty/RoyaltyFeeRegistry.sol\":3244:3872  function checkForCollectionSetter(address collection) external view returns (address, uint8) {... */\n      swap2\n      pop\n      pop\n      jump\t// out\n        /* \"@openzeppelin/contracts/access/Ownable.sol\":2081:2279  function transferOwnership(address newOwner) public virtual onlyOwner {... */\n    tag_65:\n        /* \"@openzeppelin/contracts/access/Ownable.sol\":1094:1107  _checkOwner() */\n      tag_120\n        /* \"@openzeppelin/contracts/access/Ownable.sol\":1094:1105  _checkOwner */\n      tag_73\n        /* \"@openzeppelin/contracts/access/Ownable.sol\":1094:1107  _checkOwner() */\n      jump\t// in\n    tag_120:\n        /* \"@openzeppelin/contracts/access/Ownable.sol\":2169:2191  newOwner != address(0) */\n      0xffffffffffffffffffffffffffffffffffffffff\n      dup2\n      and\n        /* \"@openzeppelin/contracts/access/Ownable.sol\":2161:2234  require(newOwner != address(0), \"Ownable: new owner is the zero address\") */\n      tag_122\n      jumpi\n      mload(0x40)\n      0x08c379a000000000000000000000000000000000000000000000000000000000\n      dup2\n      mstore\n        /* \"#utility.yul\":5273:5275   */\n      0x20\n        /* \"@openzeppelin/contracts/access/Ownable.sol\":2161:2234  require(newOwner != address(0), \"Ownable: new owner is the zero address\") */\n      0x04\n      dup3\n      add\n        /* \"#utility.yul\":5255:5276   */\n      mstore\n        /* \"#utility.yul\":5312:5314   */\n      0x26\n        /* \"#utility.yul\":5292:5310   */\n      0x24\n      dup3\n      add\n        /* \"#utility.yul\":5285:5315   */\n      mstore\n        /* \"#utility.yul\":5351:5385   */\n      0x4f776e61626c653a206e6577206f776e657220697320746865207a65726f2061\n        /* \"#utility.yul\":5331:5349   */\n      0x44\n      dup3\n      add\n        /* \"#utility.yul\":5324:5386   */\n      mstore\n        /* \"#utility.yul\":5422:5430   */\n      0x6464726573730000000000000000000000000000000000000000000000000000\n        /* \"#utility.yul\":5402:5420   */\n      0x64\n      dup3\n      add\n        /* \"#utility.yul\":5395:5431   */\n      mstore\n        /* \"#utility.yul\":5448:5467   */\n      0x84\n      add\n        /* \"@openzeppelin/contracts/access/Ownable.sol\":2161:2234  require(newOwner != address(0), \"Ownable: new owner is the zero address\") */\n      tag_82\n        /* \"#utility.yul\":5071:5473   */\n      jump\n        /* \"@openzeppelin/contracts/access/Ownable.sol\":2161:2234  require(newOwner != address(0), \"Ownable: new owner is the zero address\") */\n    tag_122:\n        /* \"@openzeppelin/contracts/access/Ownable.sol\":2244:2272  _transferOwnership(newOwner) */\n      tag_125\n        /* \"@openzeppelin/contracts/access/Ownable.sol\":2263:2271  newOwner */\n      dup2\n        /* \"@openzeppelin/contracts/access/Ownable.sol\":2244:2262  _transferOwnership */\n      tag_76\n        /* \"@openzeppelin/contracts/access/Ownable.sol\":2244:2272  _transferOwnership(newOwner) */\n      jump\t// in\n    tag_125:\n        /* \"@openzeppelin/contracts/access/Ownable.sol\":2081:2279  function transferOwnership(address newOwner) public virtual onlyOwner {... */\n      pop\n      jump\t// out\n        /* \"@openzeppelin/contracts/access/Ownable.sol\":1359:1489  function _checkOwner() internal view virtual {... */\n    tag_73:\n        /* \"@openzeppelin/contracts/access/Ownable.sol\":1247:1254  address */\n      0x00\n        /* \"@openzeppelin/contracts/access/Ownable.sol\":1273:1279  _owner */\n      sload\n        /* \"@openzeppelin/contracts/access/Ownable.sol\":1422:1445  owner() == _msgSender() */\n      0xffffffffffffffffffffffffffffffffffffffff\n        /* \"@openzeppelin/contracts/access/Ownable.sol\":1273:1279  _owner */\n      and\n        /* \"@openzeppelin/contracts/utils/Context.sol\":719:729  msg.sender */\n      caller\n        /* \"@openzeppelin/contracts/access/Ownable.sol\":1422:1445  owner() == _msgSender() */\n      eq\n        /* \"@openzeppelin/contracts/access/Ownable.sol\":1414:1482  require(owner() == _msgSender(), \"Ownable: caller is not the owner\") */\n      tag_75\n      jumpi\n      mload(0x40)\n      0x08c379a000000000000000000000000000000000000000000000000000000000\n      dup2\n      mstore\n        /* \"#utility.yul\":5680:5682   */\n      0x20\n        /* \"@openzeppelin/contracts/access/Ownable.sol\":1414:1482  require(owner() == _msgSender(), \"Ownable: caller is not the owner\") */\n      0x04\n      dup3\n      add\n        /* \"#utility.yul\":5662:5683   */\n      dup2\n      swap1\n      mstore\n        /* \"#utility.yul\":5699:5717   */\n      0x24\n      dup3\n      add\n        /* \"#utility.yul\":5692:5722   */\n      mstore\n        /* \"#utility.yul\":5758:5792   */\n      0x4f776e61626c653a2063616c6c6572206973206e6f7420746865206f776e6572\n        /* \"#utility.yul\":5738:5756   */\n      0x44\n      dup3\n      add\n        /* \"#utility.yul\":5731:5793   */\n      mstore\n        /* \"#utility.yul\":5810:5828   */\n      0x64\n      add\n        /* \"@openzeppelin/contracts/access/Ownable.sol\":1414:1482  require(owner() == _msgSender(), \"Ownable: caller is not the owner\") */\n      tag_82\n        /* \"#utility.yul\":5478:5834   */\n      jump\n        /* \"@openzeppelin/contracts/access/Ownable.sol\":2433:2620  function _transferOwnership(address newOwner) internal virtual {... */\n    tag_76:\n        /* \"@openzeppelin/contracts/access/Ownable.sol\":2506:2522  address oldOwner */\n      0x00\n        /* \"@openzeppelin/contracts/access/Ownable.sol\":2525:2531  _owner */\n      dup1\n      sload\n      0xffffffffffffffffffffffffffffffffffffffff\n        /* \"@openzeppelin/contracts/access/Ownable.sol\":2541:2558  _owner = newOwner */\n      dup4\n      dup2\n      and\n      0xffffffffffffffffffffffff0000000000000000000000000000000000000000\n      dup4\n      and\n      dup2\n      or\n      dup5\n      sstore\n        /* \"@openzeppelin/contracts/access/Ownable.sol\":2573:2613  OwnershipTransferred(oldOwner, newOwner) */\n      mload(0x40)\n        /* \"@openzeppelin/contracts/access/Ownable.sol\":2525:2531  _owner */\n      swap2\n      swap1\n      swap3\n      and\n      swap3\n      dup4\n      swap2\n        /* \"@openzeppelin/contracts/access/Ownable.sol\":2573:2613  OwnershipTransferred(oldOwner, newOwner) */\n      0x8be0079c531659141344cd1fd0a4f28419497f9722a3daafe3b4186f6b6457e0\n      swap2\n        /* \"@openzeppelin/contracts/access/Ownable.sol\":2506:2522  address oldOwner */\n      swap1\n        /* \"@openzeppelin/contracts/access/Ownable.sol\":2573:2613  OwnershipTransferred(oldOwner, newOwner) */\n      log3\n        /* \"@openzeppelin/contracts/access/Ownable.sol\":2496:2620  {... */\n      pop\n        /* \"@openzeppelin/contracts/access/Ownable.sol\":2433:2620  function _transferOwnership(address newOwner) internal virtual {... */\n      pop\n      jump\t// out\n        /* \"#utility.yul\":14:168   */\n    tag_135:\n        /* \"#utility.yul\":100:142   */\n      0xffffffffffffffffffffffffffffffffffffffff\n        /* \"#utility.yul\":93:98   */\n      dup2\n        /* \"#utility.yul\":89:143   */\n      and\n        /* \"#utility.yul\":82:87   */\n      dup2\n        /* \"#utility.yul\":79:144   */\n      eq\n        /* \"#utility.yul\":69:162   */\n      tag_125\n      jumpi\n        /* \"#utility.yul\":158:159   */\n      0x00\n        /* \"#utility.yul\":155:156   */\n      dup1\n        /* \"#utility.yul\":148:160   */\n      revert\n        /* \"#utility.yul\":173:488   */\n    tag_20:\n        /* \"#utility.yul\":241:247   */\n      0x00\n        /* \"#utility.yul\":249:255   */\n      dup1\n        /* \"#utility.yul\":302:304   */\n      0x40\n        /* \"#utility.yul\":290:299   */\n      dup4\n        /* \"#utility.yul\":281:288   */\n      dup6\n        /* \"#utility.yul\":277:300   */\n      sub\n        /* \"#utility.yul\":273:305   */\n      slt\n        /* \"#utility.yul\":270:322   */\n      iszero\n      tag_140\n      jumpi\n        /* \"#utility.yul\":318:319   */\n      0x00\n        /* \"#utility.yul\":315:316   */\n      dup1\n        /* \"#utility.yul\":308:320   */\n      revert\n        /* \"#utility.yul\":270:322   */\n    tag_140:\n        /* \"#utility.yul\":357:366   */\n      dup3\n        /* \"#utility.yul\":344:367   */\n      calldataload\n        /* \"#utility.yul\":376:407   */\n      tag_141\n        /* \"#utility.yul\":401:406   */\n      dup2\n        /* \"#utility.yul\":376:407   */\n      tag_135\n      jump\t// in\n    tag_141:\n        /* \"#utility.yul\":426:431   */\n      swap5\n        /* \"#utility.yul\":478:480   */\n      0x20\n        /* \"#utility.yul\":463:481   */\n      swap4\n      swap1\n      swap4\n      add\n        /* \"#utility.yul\":450:482   */\n      calldataload\n      swap4\n      pop\n      pop\n      pop\n        /* \"#utility.yul\":173:488   */\n      jump\t// out\n        /* \"#utility.yul\":1461:1641   */\n    tag_43:\n        /* \"#utility.yul\":1520:1526   */\n      0x00\n        /* \"#utility.yul\":1573:1575   */\n      0x20\n        /* \"#utility.yul\":1561:1570   */\n      dup3\n        /* \"#utility.yul\":1552:1559   */\n      dup5\n        /* \"#utility.yul\":1548:1571   */\n      sub\n        /* \"#utility.yul\":1544:1576   */\n      slt\n        /* \"#utility.yul\":1541:1593   */\n      iszero\n      tag_147\n      jumpi\n        /* \"#utility.yul\":1589:1590   */\n      0x00\n        /* \"#utility.yul\":1586:1587   */\n      dup1\n        /* \"#utility.yul\":1579:1591   */\n      revert\n        /* \"#utility.yul\":1541:1593   */\n    tag_147:\n      pop\n        /* \"#utility.yul\":1612:1635   */\n      calldataload\n      swap2\n        /* \"#utility.yul\":1461:1641   */\n      swap1\n      pop\n      jump\t// out\n        /* \"#utility.yul\":1646:2244   */\n    tag_47:\n        /* \"#utility.yul\":1732:1738   */\n      0x00\n        /* \"#utility.yul\":1740:1746   */\n      dup1\n        /* \"#utility.yul\":1748:1754   */\n      0x00\n        /* \"#utility.yul\":1756:1762   */\n      dup1\n        /* \"#utility.yul\":1809:1812   */\n      0x80\n        /* \"#utility.yul\":1797:1806   */\n      dup6\n        /* \"#utility.yul\":1788:1795   */\n      dup8\n        /* \"#utility.yul\":1784:1807   */\n      sub\n        /* \"#utility.yul\":1780:1813   */\n      slt\n        /* \"#utility.yul\":1777:1830   */\n      iszero\n      tag_149\n      jumpi\n        /* \"#utility.yul\":1826:1827   */\n      0x00\n        /* \"#utility.yul\":1823:1824   */\n      dup1\n        /* \"#utility.yul\":1816:1828   */\n      revert\n        /* \"#utility.yul\":1777:1830   */\n    tag_149:\n        /* \"#utility.yul\":1865:1874   */\n      dup5\n        /* \"#utility.yul\":1852:1875   */\n      calldataload\n        /* \"#utility.yul\":1884:1915   */\n      tag_150\n        /* \"#utility.yul\":1909:1914   */\n      dup2\n        /* \"#utility.yul\":1884:1915   */\n      tag_135\n      jump\t// in\n    tag_150:\n        /* \"#utility.yul\":1934:1939   */\n      swap4\n      pop\n        /* \"#utility.yul\":1991:1993   */\n      0x20\n        /* \"#utility.yul\":1976:1994   */\n      dup6\n      add\n        /* \"#utility.yul\":1963:1995   */\n      calldataload\n        /* \"#utility.yul\":2004:2037   */\n      tag_151\n        /* \"#utility.yul\":1963:1995   */\n      dup2\n        /* \"#utility.yul\":2004:2037   */\n      tag_135\n      jump\t// in\n    tag_151:\n        /* \"#utility.yul\":2056:2063   */\n      swap3\n      pop\n        /* \"#utility.yul\":2115:2117   */\n      0x40\n        /* \"#utility.yul\":2100:2118   */\n      dup6\n      add\n        /* \"#utility.yul\":2087:2119   */\n      calldataload\n        /* \"#utility.yul\":2128:2161   */\n      tag_152\n        /* \"#utility.yul\":2087:2119   */\n      dup2\n        /* \"#utility.yul\":2128:2161   */\n      tag_135\n      jump\t// in\n    tag_152:\n        /* \"#utility.yul\":1646:2244   */\n      swap4\n      swap7\n      swap3\n      swap6\n      pop\n        /* \"#utility.yul\":2180:2187   */\n      swap3\n      swap4\n        /* \"#utility.yul\":2234:2236   */\n      0x60\n        /* \"#utility.yul\":2219:2237   */\n      add\n        /* \"#utility.yul\":2206:2238   */\n      calldataload\n      swap3\n      pop\n      pop\n        /* \"#utility.yul\":1646:2244   */\n      jump\t// out\n        /* \"#utility.yul\":2249:2496   */\n    tag_54:\n        /* \"#utility.yul\":2308:2314   */\n      0x00\n        /* \"#utility.yul\":2361:2363   */\n      0x20\n        /* \"#utility.yul\":2349:2358   */\n      dup3\n        /* \"#utility.yul\":2340:2347   */\n      dup5\n        /* \"#utility.yul\":2336:2359   */\n      sub\n        /* \"#utility.yul\":2332:2364   */\n      slt\n        /* \"#utility.yul\":2329:2381   */\n      iszero\n      tag_154\n      jumpi\n        /* \"#utility.yul\":2377:2378   */\n      0x00\n        /* \"#utility.yul\":2374:2375   */\n      dup1\n        /* \"#utility.yul\":2367:2379   */\n      revert\n        /* \"#utility.yul\":2329:2381   */\n    tag_154:\n        /* \"#utility.yul\":2416:2425   */\n      dup2\n        /* \"#utility.yul\":2403:2426   */\n      calldataload\n        /* \"#utility.yul\":2435:2466   */\n      tag_155\n        /* \"#utility.yul\":2460:2465   */\n      dup2\n        /* \"#utility.yul\":2435:2466   */\n      tag_135\n      jump\t// in\n    tag_155:\n        /* \"#utility.yul\":2485:2490   */\n      swap4\n        /* \"#utility.yul\":2249:2496   */\n      swap3\n      pop\n      pop\n      pop\n      jump\t// out\n        /* \"#utility.yul\":3213:3535   */\n    tag_68:\n        /* \"#utility.yul\":3286:3295   */\n      dup1\n      dup3\n      mul\n        /* \"#utility.yul\":3317:3326   */\n      dup2\n      iszero\n        /* \"#utility.yul\":3334:3349   */\n      dup3\n      dup3\n      div\n        /* \"#utility.yul\":3328:3350   */\n      dup5\n      eq\n        /* \"#utility.yul\":3314:3351   */\n      or\n        /* \"#utility.yul\":3304:3529   */\n      tag_159\n      jumpi\n        /* \"#utility.yul\":3385:3462   */\n      0x4e487b7100000000000000000000000000000000000000000000000000000000\n        /* \"#utility.yul\":3382:3383   */\n      0x00\n        /* \"#utility.yul\":3375:3463   */\n      mstore\n        /* \"#utility.yul\":3486:3490   */\n      0x11\n        /* \"#utility.yul\":3483:3484   */\n      0x04\n        /* \"#utility.yul\":3476:3491   */\n      mstore\n        /* \"#utility.yul\":3514:3518   */\n      0x24\n        /* \"#utility.yul\":3511:3512   */\n      0x00\n        /* \"#utility.yul\":3504:3519   */\n      revert\n        /* \"#utility.yul\":3304:3529   */\n    tag_159:\n        /* \"#utility.yul\":3213:3535   */\n      swap3\n      swap2\n      pop\n      pop\n      jump\t// out\n        /* \"#utility.yul\":3540:3814   */\n    tag_70:\n        /* \"#utility.yul\":3580:3581   */\n      0x00\n        /* \"#utility.yul\":3606:3607   */\n      dup3\n        /* \"#utility.yul\":3596:3785   */\n      tag_161\n      jumpi\n        /* \"#utility.yul\":3641:3718   */\n      0x4e487b7100000000000000000000000000000000000000000000000000000000\n        /* \"#utility.yul\":3638:3639   */\n      0x00\n        /* \"#utility.yul\":3631:3719   */\n      mstore\n        /* \"#utility.yul\":3742:3746   */\n      0x12\n        /* \"#utility.yul\":3739:3740   */\n      0x04\n        /* \"#utility.yul\":3732:3747   */\n      mstore\n        /* \"#utility.yul\":3770:3774   */\n      0x24\n        /* \"#utility.yul\":3767:3768   */\n      0x00\n        /* \"#utility.yul\":3760:3775   */\n      revert\n        /* \"#utility.yul\":3596:3785   */\n    tag_161:\n      pop\n        /* \"#utility.yul\":3799:3808   */\n      div\n      swap1\n        /* \"#utility.yul\":3540:3814   */\n      jump\t// out\n        /* \"#utility.yul\":4533:4810   */\n    tag_96:\n        /* \"#utility.yul\":4600:4606   */\n      0x00\n        /* \"#utility.yul\":4653:4655   */\n      0x20\n        /* \"#utility.yul\":4641:4650   */\n      dup3\n        /* \"#utility.yul\":4632:4639   */\n      dup5\n        /* \"#utility.yul\":4628:4651   */\n      sub\n        /* \"#utility.yul\":4624:4656   */\n      slt\n        /* \"#utility.yul\":4621:4673   */\n      iszero\n      tag_165\n      jumpi\n        /* \"#utility.yul\":4669:4670   */\n      0x00\n        /* \"#utility.yul\":4666:4667   */\n      dup1\n        /* \"#utility.yul\":4659:4671   */\n      revert\n        /* \"#utility.yul\":4621:4673   */\n    tag_165:\n        /* \"#utility.yul\":4701:4710   */\n      dup2\n        /* \"#utility.yul\":4695:4711   */\n      mload\n        /* \"#utility.yul\":4754:4759   */\n      dup1\n        /* \"#utility.yul\":4747:4760   */\n      iszero\n        /* \"#utility.yul\":4740:4761   */\n      iszero\n        /* \"#utility.yul\":4733:4738   */\n      dup2\n        /* \"#utility.yul\":4730:4762   */\n      eq\n        /* \"#utility.yul\":4720:4780   */\n      tag_155\n      jumpi\n        /* \"#utility.yul\":4776:4777   */\n      0x00\n        /* \"#utility.yul\":4773:4774   */\n      dup1\n        /* \"#utility.yul\":4766:4778   */\n      revert\n        /* \"#utility.yul\":4815:5066   */\n    tag_105:\n        /* \"#utility.yul\":4885:4891   */\n      0x00\n        /* \"#utility.yul\":4938:4940   */\n      0x20\n        /* \"#utility.yul\":4926:4935   */\n      dup3\n        /* \"#utility.yul\":4917:4924   */\n      dup5\n        /* \"#utility.yul\":4913:4936   */\n      sub\n        /* \"#utility.yul\":4909:4941   */\n      slt\n        /* \"#utility.yul\":4906:4958   */\n      iszero\n      tag_168\n      jumpi\n        /* \"#utility.yul\":4954:4955   */\n      0x00\n        /* \"#utility.yul\":4951:4952   */\n      dup1\n        /* \"#utility.yul\":4944:4956   */\n      revert\n        /* \"#utility.yul\":4906:4958   */\n    tag_168:\n        /* \"#utility.yul\":4986:4995   */\n      dup2\n        /* \"#utility.yul\":4980:4996   */\n      mload\n        /* \"#utility.yul\":5005:5036   */\n      tag_155\n        /* \"#utility.yul\":5030:5035   */\n      dup2\n        /* \"#utility.yul\":5005:5036   */\n      tag_135\n      jump\t// in\n\n    auxdata: 0xa264697066735822122051ba6c2292b24958b8751ef6037c06627dd0dc13e03dd05a39ad94e82bf63ebc64736f6c63430008110033\n}\n",
				"bytecode": {
					"linkReferences": {},
					"object": "608060405234801561001057600080fd5b50604051610c04380380610c0483398101604081905261002f916100e6565b61003833610096565b61251c81111561008e5760405162461bcd60e51b815260206004820152601a60248201527f526f79616c747920666565206c696d697420746f6f2068696768000000000000604482015260640160405180910390fd5b6001556100ff565b600080546001600160a01b038381166001600160a01b0319831681178455604051919092169283917f8be0079c531659141344cd1fd0a4f28419497f9722a3daafe3b4186f6b6457e09190a35050565b6000602082840312156100f857600080fd5b5051919050565b610af68061010e6000396000f3fe608060405234801561001057600080fd5b50600436106100d45760003560e01c8063b9223c9d11610081578063c54e54971161005b578063c54e549714610232578063e31ef91c14610273578063f2fde38b146102f257600080fd5b8063b9223c9d146101e5578063bbdf9b68146101f8578063bc6bc0cd1461020b57600080fd5b8063715018a6116100b2578063715018a61461018c5780638da5cb5b14610196578063b060dd86146101be57600080fd5b80632782d6c7146100d957806333bf61561461011d5780634fb7d3f914610175575b600080fd5b6100ec6100e7366004610948565b610305565b6040805173ffffffffffffffffffffffffffffffffffffffff90931683526020830191909152015b60405180910390f35b6101447fd9b67a260000000000000000000000000000000000000000000000000000000081565b6040517fffffffff000000000000000000000000000000000000000000000000000000009091168152602001610114565b61017e60015481565b604051908152602001610114565b61019461035f565b005b60005460405173ffffffffffffffffffffffffffffffffffffffff9091168152602001610114565b6101447f2a55205a0000000000000000000000000000000000000000000000000000000081565b6101946101f3366004610974565b610373565b61019461020636600461098d565b610427565b6101447f80ac58cd0000000000000000000000000000000000000000000000000000000081565b6102456102403660046109de565b610564565b6040805173ffffffffffffffffffffffffffffffffffffffff909316835260ff909116602083015201610114565b6102bf6102813660046109de565b73ffffffffffffffffffffffffffffffffffffffff908116600090815260026020819052604090912080546001820154919092015491831693921691565b6040805173ffffffffffffffffffffffffffffffffffffffff948516815293909216602084015290820152606001610114565b6101946103003660046109de565b610779565b73ffffffffffffffffffffffffffffffffffffffff808316600090815260026020819052604082206001810154910154919283929116906127109061034a9086610a02565b6103549190610a46565b915091509250929050565b610367610830565b61037160006108b1565b565b61037b610830565b61251c8111156103ec576040517f08c379a000000000000000000000000000000000000000000000000000000000815260206004820152601a60248201527f526f79616c747920666565206c696d697420746f6f206869676800000000000060448201526064015b60405180910390fd5b60018190556040518181527f2da7166c72ef3860ef4fb2571105533c40615269a6dbc38ce0b264910df1c2569060200160405180910390a150565b61042f610830565b60015481111561049b576040517f08c379a000000000000000000000000000000000000000000000000000000000815260206004820152601e60248201527f52656769737472793a20526f79616c74792066656520746f6f2068696768000060448201526064016103e3565b6040805160608101825273ffffffffffffffffffffffffffffffffffffffff85811680835285821660208085018281528587018881528b861660008181526002808652908a9020985189549089167fffffffffffffffffffffffff0000000000000000000000000000000000000000918216178a55935160018a0180549190991694169390931790965551950194909455935185815290927fd01984afa6e37420452e575e7d99dd7e632b3ec8ea2adec998475b76ca494d64910160405180910390a450505050565b6040517f01ffc9a70000000000000000000000000000000000000000000000000000000081527f2a55205a000000000000000000000000000000000000000000000000000000006004820152600090819073ffffffffffffffffffffffffffffffffffffffff8416906301ffc9a790602401602060405180830381865afa92505050801561062d575060408051601f3d9081017fffffffffffffffffffffffffffffffffffffffffffffffffffffffffffffffe016820190925261062a91810190610a81565b60015b15610647578015610645575060009360019350915050565b505b8273ffffffffffffffffffffffffffffffffffffffff16638da5cb5b6040518163ffffffff1660e01b8152600401602060405180830381865afa9250505080156106cc575060408051601f3d9081017fffffffffffffffffffffffffffffffffffffffffffffffffffffffffffffffe01682019092526106c991810190610aa3565b60015b61076f578273ffffffffffffffffffffffffffffffffffffffff1663f851a4406040518163ffffffff1660e01b8152600401602060405180830381865afa925050508015610755575060408051601f3d9081017fffffffffffffffffffffffffffffffffffffffffffffffffffffffffffffffe016820190925261075291810190610aa3565b60015b6107655750600092600492509050565b9360039350915050565b9360029350915050565b610781610830565b73ffffffffffffffffffffffffffffffffffffffff8116610824576040517f08c379a000000000000000000000000000000000000000000000000000000000815260206004820152602660248201527f4f776e61626c653a206e6577206f776e657220697320746865207a65726f206160448201527f646472657373000000000000000000000000000000000000000000000000000060648201526084016103e3565b61082d816108b1565b50565b60005473ffffffffffffffffffffffffffffffffffffffff163314610371576040517f08c379a000000000000000000000000000000000000000000000000000000000815260206004820181905260248201527f4f776e61626c653a2063616c6c6572206973206e6f7420746865206f776e657260448201526064016103e3565b6000805473ffffffffffffffffffffffffffffffffffffffff8381167fffffffffffffffffffffffff0000000000000000000000000000000000000000831681178455604051919092169283917f8be0079c531659141344cd1fd0a4f28419497f9722a3daafe3b4186f6b6457e09190a35050565b73ffffffffffffffffffffffffffffffffffffffff8116811461082d57600080fd5b6000806040838503121561095b57600080fd5b823561096681610926565b946020939093013593505050565b60006020828403121561098657600080fd5b5035919050565b600080600080608085870312156109a357600080fd5b84356109ae81610926565b935060208501356109be81610926565b925060408501356109ce81610926565b9396929550929360600135925050565b6000602082840312156109f057600080fd5b81356109fb81610926565b9392505050565b8082028115828204841417610a40577f4e487b7100000000000000000000000000000000000000000000000000000000600052601160045260246000fd5b92915050565b600082610a7c577f4e487b7100000000000000000000000000000000000000000000000000000000600052601260045260246000fd5b500490565b600060208284031215610a9357600080fd5b815180151581146109fb57600080fd5b600060208284031215610ab557600080fd5b81516109fb8161092656fea264697066735822122051ba6c2292b24958b8751ef6037c06627dd0dc13e03dd05a39ad94e82bf63ebc64736f6c63430008110033",
					"opcodes": "PUSH1 0x80 PUSH1 0x40 MSTORE CALLVALUE DUP1 ISZERO PUSH2 0x10 JUMPI PUSH1 0x0 DUP1 REVERT JUMPDEST POP PUSH1 0x40 MLOAD PUSH2 0xC04 CODESIZE SUB DUP1 PUSH2 0xC04 DUP4 CODECOPY DUP2 ADD PUSH1 0x40 DUP2 SWAP1 MSTORE PUSH2 0x2F SWAP2 PUSH2 0xE6 JUMP JUMPDEST PUSH2 0x38 CALLER PUSH2 0x96 JUMP JUMPDEST PUSH2 0x251C DUP2 GT ISZERO PUSH2 0x8E JUMPI PUSH1 0x40 MLOAD PUSH3 0x461BCD PUSH1 0xE5 SHL DUP2 MSTORE PUSH1 0x20 PUSH1 0x4 DUP3 ADD MSTORE PUSH1 0x1A PUSH1 0x24 DUP3 ADD MSTORE PUSH32 0x526F79616C747920666565206C696D697420746F6F2068696768000000000000 PUSH1 0x44 DUP3 ADD MSTORE PUSH1 0x64 ADD PUSH1 0x40 MLOAD DUP1 SWAP2 SUB SWAP1 REVERT JUMPDEST PUSH1 0x1 SSTORE PUSH2 0xFF JUMP JUMPDEST PUSH1 0x0 DUP1 SLOAD PUSH1 0x1 PUSH1 0x1 PUSH1 0xA0 SHL SUB DUP4 DUP2 AND PUSH1 0x1 PUSH1 0x1 PUSH1 0xA0 SHL SUB NOT DUP4 AND DUP2 OR DUP5 SSTORE PUSH1 0x40 MLOAD SWAP2 SWAP1 SWAP3 AND SWAP3 DUP4 SWAP2 PUSH32 0x8BE0079C531659141344CD1FD0A4F28419497F9722A3DAAFE3B4186F6B6457E0 SWAP2 SWAP1 LOG3 POP POP JUMP JUMPDEST PUSH1 0x0 PUSH1 0x20 DUP3 DUP5 SUB SLT ISZERO PUSH2 0xF8 JUMPI PUSH1 0x0 DUP1 REVERT JUMPDEST POP MLOAD SWAP2 SWAP1 POP JUMP JUMPDEST PUSH2 0xAF6 DUP1 PUSH2 0x10E PUSH1 0x0 CODECOPY PUSH1 0x0 RETURN INVALID PUSH1 0x80 PUSH1 0x40 MSTORE CALLVALUE DUP1 ISZERO PUSH2 0x10 JUMPI PUSH1 0x0 DUP1 REVERT JUMPDEST POP PUSH1 0x4 CALLDATASIZE LT PUSH2 0xD4 JUMPI PUSH1 0x0 CALLDATALOAD PUSH1 0xE0 SHR DUP1 PUSH4 0xB9223C9D GT PUSH2 0x81 JUMPI DUP1 PUSH4 0xC54E5497 GT PUSH2 0x5B JUMPI DUP1 PUSH4 0xC54E5497 EQ PUSH2 0x232 JUMPI DUP1 PUSH4 0xE31EF91C EQ PUSH2 0x273 JUMPI DUP1 PUSH4 0xF2FDE38B EQ PUSH2 0x2F2 JUMPI PUSH1 0x0 DUP1 REVERT JUMPDEST DUP1 PUSH4 0xB9223C9D EQ PUSH2 0x1E5 JUMPI DUP1 PUSH4 0xBBDF9B68 EQ PUSH2 0x1F8 JUMPI DUP1 PUSH4 0xBC6BC0CD EQ PUSH2 0x20B JUMPI PUSH1 0x0 DUP1 REVERT JUMPDEST DUP1 PUSH4 0x715018A6 GT PUSH2 0xB2 JUMPI DUP1 PUSH4 0x715018A6 EQ PUSH2 0x18C JUMPI DUP1 PUSH4 0x8DA5CB5B EQ PUSH2 0x196 JUMPI DUP1 PUSH4 0xB060DD86 EQ PUSH2 0x1BE JUMPI PUSH1 0x0 DUP1 REVERT JUMPDEST DUP1 PUSH4 0x2782D6C7 EQ PUSH2 0xD9 JUMPI DUP1 PUSH4 0x33BF6156 EQ PUSH2 0x11D JUMPI DUP1 PUSH4 0x4FB7D3F9 EQ PUSH2 0x175 JUMPI JUMPDEST PUSH1 0x0 DUP1 REVERT JUMPDEST PUSH2 0xEC PUSH2 0xE7 CALLDATASIZE PUSH1 0x4 PUSH2 0x948 JUMP JUMPDEST PUSH2 0x305 JUMP JUMPDEST PUSH1 0x40 DUP1 MLOAD PUSH20 0xFFFFFFFFFFFFFFFFFFFFFFFFFFFFFFFFFFFFFFFF SWAP1 SWAP4 AND DUP4 MSTORE PUSH1 0x20 DUP4 ADD SWAP2 SWAP1 SWAP2 MSTORE ADD JUMPDEST PUSH1 0x40 MLOAD DUP1 SWAP2 SUB SWAP1 RETURN JUMPDEST PUSH2 0x144 PUSH32 0xD9B67A2600000000000000000000000000000000000000000000000000000000 DUP2 JUMP JUMPDEST PUSH1 0x40 MLOAD PUSH32 0xFFFFFFFF00000000000000000000000000000000000000000000000000000000 SWAP1 SWAP2 AND DUP2 MSTORE PUSH1 0x20 ADD PUSH2 0x114 JUMP JUMPDEST PUSH2 0x17E PUSH1 0x1 SLOAD DUP2 JUMP JUMPDEST PUSH1 0x40 MLOAD SWAP1 DUP2 MSTORE PUSH1 0x20 ADD PUSH2 0x114 JUMP JUMPDEST PUSH2 0x194 PUSH2 0x35F JUMP JUMPDEST STOP JUMPDEST PUSH1 0x0 SLOAD PUSH1 0x40 MLOAD PUSH20 0xFFFFFFFFFFFFFFFFFFFFFFFFFFFFFFFFFFFFFFFF SWAP1 SWAP2 AND DUP2 MSTORE PUSH1 0x20 ADD PUSH2 0x114 JUMP JUMPDEST PUSH2 0x144 PUSH32 0x2A55205A00000000000000000000000000000000000000000000000000000000 DUP2 JUMP JUMPDEST PUSH2 0x194 PUSH2 0x1F3 CALLDATASIZE PUSH1 0x4 PUSH2 0x974 JUMP JUMPDEST PUSH2 0x373 JUMP JUMPDEST PUSH2 0x194 PUSH2 0x206 CALLDATASIZE PUSH1 0x4 PUSH2 0x98D JUMP JUMPDEST PUSH2 0x427 JUMP JUMPDEST PUSH2 0x144 PUSH32 0x80AC58CD00000000000000000000000000000000000000000000000000000000 DUP2 JUMP JUMPDEST PUSH2 0x245 PUSH2 0x240 CALLDATASIZE PUSH1 0x4 PUSH2 0x9DE JUMP JUMPDEST PUSH2 0x564 JUMP JUMPDEST PUSH1 0x40 DUP1 MLOAD PUSH20 0xFFFFFFFFFFFFFFFFFFFFFFFFFFFFFFFFFFFFFFFF SWAP1 SWAP4 AND DUP4 MSTORE PUSH1 0xFF SWAP1 SWAP2 AND PUSH1 0x20 DUP4 ADD MSTORE ADD PUSH2 0x114 JUMP JUMPDEST PUSH2 0x2BF PUSH2 0x281 CALLDATASIZE PUSH1 0x4 PUSH2 0x9DE JUMP JUMPDEST PUSH20 0xFFFFFFFFFFFFFFFFFFFFFFFFFFFFFFFFFFFFFFFF SWAP1 DUP2 AND PUSH1 0x0 SWAP1 DUP2 MSTORE PUSH1 0x2 PUSH1 0x20 DUP2 SWAP1 MSTORE PUSH1 0x40 SWAP1 SWAP2 KECCAK256 DUP1 SLOAD PUSH1 0x1 DUP3 ADD SLOAD SWAP2 SWAP1 SWAP3 ADD SLOAD SWAP2 DUP4 AND SWAP4 SWAP3 AND SWAP2 JUMP JUMPDEST PUSH1 0x40 DUP1 MLOAD PUSH20 0xFFFFFFFFFFFFFFFFFFFFFFFFFFFFFFFFFFFFFFFF SWAP5 DUP6 AND DUP2 MSTORE SWAP4 SWAP1 SWAP3 AND PUSH1 0x20 DUP5 ADD MSTORE SWAP1 DUP3 ADD MSTORE PUSH1 0x60 ADD PUSH2 0x114 JUMP JUMPDEST PUSH2 0x194 PUSH2 0x300 CALLDATASIZE PUSH1 0x4 PUSH2 0x9DE JUMP JUMPDEST PUSH2 0x779 JUMP JUMPDEST PUSH20 0xFFFFFFFFFFFFFFFFFFFFFFFFFFFFFFFFFFFFFFFF DUP1 DUP4 AND PUSH1 0x0 SWAP1 DUP2 MSTORE PUSH1 0x2 PUSH1 0x20 DUP2 SWAP1 MSTORE PUSH1 0x40 DUP3 KECCAK256 PUSH1 0x1 DUP2 ADD SLOAD SWAP2 ADD SLOAD SWAP2 SWAP3 DUP4 SWAP3 SWAP2 AND SWAP1 PUSH2 0x2710 SWAP1 PUSH2 0x34A SWAP1 DUP7 PUSH2 0xA02 JUMP JUMPDEST PUSH2 0x354 SWAP2 SWAP1 PUSH2 0xA46 JUMP JUMPDEST SWAP2 POP SWAP2 POP SWAP3 POP SWAP3 SWAP1 POP JUMP JUMPDEST PUSH2 0x367 PUSH2 0x830 JUMP JUMPDEST PUSH2 0x371 PUSH1 0x0 PUSH2 0x8B1 JUMP JUMPDEST JUMP JUMPDEST PUSH2 0x37B PUSH2 0x830 JUMP JUMPDEST PUSH2 0x251C DUP2 GT ISZERO PUSH2 0x3EC JUMPI PUSH1 0x40 MLOAD PUSH32 0x8C379A000000000000000000000000000000000000000000000000000000000 DUP2 MSTORE PUSH1 0x20 PUSH1 0x4 DUP3 ADD MSTORE PUSH1 0x1A PUSH1 0x24 DUP3 ADD MSTORE PUSH32 0x526F79616C747920666565206C696D697420746F6F2068696768000000000000 PUSH1 0x44 DUP3 ADD MSTORE PUSH1 0x64 ADD JUMPDEST PUSH1 0x40 MLOAD DUP1 SWAP2 SUB SWAP1 REVERT JUMPDEST PUSH1 0x1 DUP2 SWAP1 SSTORE PUSH1 0x40 MLOAD DUP2 DUP2 MSTORE PUSH32 0x2DA7166C72EF3860EF4FB2571105533C40615269A6DBC38CE0B264910DF1C256 SWAP1 PUSH1 0x20 ADD PUSH1 0x40 MLOAD DUP1 SWAP2 SUB SWAP1 LOG1 POP JUMP JUMPDEST PUSH2 0x42F PUSH2 0x830 JUMP JUMPDEST PUSH1 0x1 SLOAD DUP2 GT ISZERO PUSH2 0x49B JUMPI PUSH1 0x40 MLOAD PUSH32 0x8C379A000000000000000000000000000000000000000000000000000000000 DUP2 MSTORE PUSH1 0x20 PUSH1 0x4 DUP3 ADD MSTORE PUSH1 0x1E PUSH1 0x24 DUP3 ADD MSTORE PUSH32 0x52656769737472793A20526F79616C74792066656520746F6F20686967680000 PUSH1 0x44 DUP3 ADD MSTORE PUSH1 0x64 ADD PUSH2 0x3E3 JUMP JUMPDEST PUSH1 0x40 DUP1 MLOAD PUSH1 0x60 DUP2 ADD DUP3 MSTORE PUSH20 0xFFFFFFFFFFFFFFFFFFFFFFFFFFFFFFFFFFFFFFFF DUP6 DUP2 AND DUP1 DUP4 MSTORE DUP6 DUP3 AND PUSH1 0x20 DUP1 DUP6 ADD DUP3 DUP2 MSTORE DUP6 DUP8 ADD DUP9 DUP2 MSTORE DUP12 DUP7 AND PUSH1 0x0 DUP2 DUP2 MSTORE PUSH1 0x2 DUP1 DUP7 MSTORE SWAP1 DUP11 SWAP1 KECCAK256 SWAP9 MLOAD DUP10 SLOAD SWAP1 DUP10 AND PUSH32 0xFFFFFFFFFFFFFFFFFFFFFFFF0000000000000000000000000000000000000000 SWAP2 DUP3 AND OR DUP11 SSTORE SWAP4 MLOAD PUSH1 0x1 DUP11 ADD DUP1 SLOAD SWAP2 SWAP1 SWAP10 AND SWAP5 AND SWAP4 SWAP1 SWAP4 OR SWAP1 SWAP7 SSTORE MLOAD SWAP6 ADD SWAP5 SWAP1 SWAP5 SSTORE SWAP4 MLOAD DUP6 DUP2 MSTORE SWAP1 SWAP3 PUSH32 0xD01984AFA6E37420452E575E7D99DD7E632B3EC8EA2ADEC998475B76CA494D64 SWAP2 ADD PUSH1 0x40 MLOAD DUP1 SWAP2 SUB SWAP1 LOG4 POP POP POP POP JUMP JUMPDEST PUSH1 0x40 MLOAD PUSH32 0x1FFC9A700000000000000000000000000000000000000000000000000000000 DUP2 MSTORE PUSH32 0x2A55205A00000000000000000000000000000000000000000000000000000000 PUSH1 0x4 DUP3 ADD MSTORE PUSH1 0x0 SWAP1 DUP2 SWAP1 PUSH20 0xFFFFFFFFFFFFFFFFFFFFFFFFFFFFFFFFFFFFFFFF DUP5 AND SWAP1 PUSH4 0x1FFC9A7 SWAP1 PUSH1 0x24 ADD PUSH1 0x20 PUSH1 0x40 MLOAD DUP1 DUP4 SUB DUP2 DUP7 GAS STATICCALL SWAP3 POP POP POP DUP1 ISZERO PUSH2 0x62D JUMPI POP PUSH1 0x40 DUP1 MLOAD PUSH1 0x1F RETURNDATASIZE SWAP1 DUP2 ADD PUSH32 0xFFFFFFFFFFFFFFFFFFFFFFFFFFFFFFFFFFFFFFFFFFFFFFFFFFFFFFFFFFFFFFE0 AND DUP3 ADD SWAP1 SWAP3 MSTORE PUSH2 0x62A SWAP2 DUP2 ADD SWAP1 PUSH2 0xA81 JUMP JUMPDEST PUSH1 0x1 JUMPDEST ISZERO PUSH2 0x647 JUMPI DUP1 ISZERO PUSH2 0x645 JUMPI POP PUSH1 0x0 SWAP4 PUSH1 0x1 SWAP4 POP SWAP2 POP POP JUMP JUMPDEST POP JUMPDEST DUP3 PUSH20 0xFFFFFFFFFFFFFFFFFFFFFFFFFFFFFFFFFFFFFFFF AND PUSH4 0x8DA5CB5B PUSH1 0x40 MLOAD DUP2 PUSH4 0xFFFFFFFF AND PUSH1 0xE0 SHL DUP2 MSTORE PUSH1 0x4 ADD PUSH1 0x20 PUSH1 0x40 MLOAD DUP1 DUP4 SUB DUP2 DUP7 GAS STATICCALL SWAP3 POP POP POP DUP1 ISZERO PUSH2 0x6CC JUMPI POP PUSH1 0x40 DUP1 MLOAD PUSH1 0x1F RETURNDATASIZE SWAP1 DUP2 ADD PUSH32 0xFFFFFFFFFFFFFFFFFFFFFFFFFFFFFFFFFFFFFFFFFFFFFFFFFFFFFFFFFFFFFFE0 AND DUP3 ADD SWAP1 SWAP3 MSTORE PUSH2 0x6C9 SWAP2 DUP2 ADD SWAP1 PUSH2 0xAA3 JUMP JUMPDEST PUSH1 0x1 JUMPDEST PUSH2 0x76F JUMPI DUP3 PUSH20 0xFFFFFFFFFFFFFFFFFFFFFFFFFFFFFFFFFFFFFFFF AND PUSH4 0xF851A440 PUSH1 0x40 MLOAD DUP2 PUSH4 0xFFFFFFFF AND PUSH1 0xE0 SHL DUP2 MSTORE PUSH1 0x4 ADD PUSH1 0x20 PUSH1 0x40 MLOAD DUP1 DUP4 SUB DUP2 DUP7 GAS STATICCALL SWAP3 POP POP POP DUP1 ISZERO PUSH2 0x755 JUMPI POP PUSH1 0x40 DUP1 MLOAD PUSH1 0x1F RETURNDATASIZE SWAP1 DUP2 ADD PUSH32 0xFFFFFFFFFFFFFFFFFFFFFFFFFFFFFFFFFFFFFFFFFFFFFFFFFFFFFFFFFFFFFFE0 AND DUP3 ADD SWAP1 SWAP3 MSTORE PUSH2 0x752 SWAP2 DUP2 ADD SWAP1 PUSH2 0xAA3 JUMP JUMPDEST PUSH1 0x1 JUMPDEST PUSH2 0x765 JUMPI POP PUSH1 0x0 SWAP3 PUSH1 0x4 SWAP3 POP SWAP1 POP JUMP JUMPDEST SWAP4 PUSH1 0x3 SWAP4 POP SWAP2 POP POP JUMP JUMPDEST SWAP4 PUSH1 0x2 SWAP4 POP SWAP2 POP POP JUMP JUMPDEST PUSH2 0x781 PUSH2 0x830 JUMP JUMPDEST PUSH20 0xFFFFFFFFFFFFFFFFFFFFFFFFFFFFFFFFFFFFFFFF DUP2 AND PUSH2 0x824 JUMPI PUSH1 0x40 MLOAD PUSH32 0x8C379A000000000000000000000000000000000000000000000000000000000 DUP2 MSTORE PUSH1 0x20 PUSH1 0x4 DUP3 ADD MSTORE PUSH1 0x26 PUSH1 0x24 DUP3 ADD MSTORE PUSH32 0x4F776E61626C653A206E6577206F776E657220697320746865207A65726F2061 PUSH1 0x44 DUP3 ADD MSTORE PUSH32 0x6464726573730000000000000000000000000000000000000000000000000000 PUSH1 0x64 DUP3 ADD MSTORE PUSH1 0x84 ADD PUSH2 0x3E3 JUMP JUMPDEST PUSH2 0x82D DUP2 PUSH2 0x8B1 JUMP JUMPDEST POP JUMP JUMPDEST PUSH1 0x0 SLOAD PUSH20 0xFFFFFFFFFFFFFFFFFFFFFFFFFFFFFFFFFFFFFFFF AND CALLER EQ PUSH2 0x371 JUMPI PUSH1 0x40 MLOAD PUSH32 0x8C379A000000000000000000000000000000000000000000000000000000000 DUP2 MSTORE PUSH1 0x20 PUSH1 0x4 DUP3 ADD DUP2 SWAP1 MSTORE PUSH1 0x24 DUP3 ADD MSTORE PUSH32 0x4F776E61626C653A2063616C6C6572206973206E6F7420746865206F776E6572 PUSH1 0x44 DUP3 ADD MSTORE PUSH1 0x64 ADD PUSH2 0x3E3 JUMP JUMPDEST PUSH1 0x0 DUP1 SLOAD PUSH20 0xFFFFFFFFFFFFFFFFFFFFFFFFFFFFFFFFFFFFFFFF DUP4 DUP2 AND PUSH32 0xFFFFFFFFFFFFFFFFFFFFFFFF0000000000000000000000000000000000000000 DUP4 AND DUP2 OR DUP5 SSTORE PUSH1 0x40 MLOAD SWAP2 SWAP1 SWAP3 AND SWAP3 DUP4 SWAP2 PUSH32 0x8BE0079C531659141344CD1FD0A4F28419497F9722A3DAAFE3B4186F6B6457E0 SWAP2 SWAP1 LOG3 POP POP JUMP JUMPDEST PUSH20 0xFFFFFFFFFFFFFFFFFFFFFFFFFFFFFFFFFFFFFFFF DUP2 AND DUP2 EQ PUSH2 0x82D JUMPI PUSH1 0x0 DUP1 REVERT JUMPDEST PUSH1 0x0 DUP1 PUSH1 0x40 DUP4 DUP6 SUB SLT ISZERO PUSH2 0x95B JUMPI PUSH1 0x0 DUP1 REVERT JUMPDEST DUP3 CALLDATALOAD PUSH2 0x966 DUP2 PUSH2 0x926 JUMP JUMPDEST SWAP5 PUSH1 0x20 SWAP4 SWAP1 SWAP4 ADD CALLDATALOAD SWAP4 POP POP POP JUMP JUMPDEST PUSH1 0x0 PUSH1 0x20 DUP3 DUP5 SUB SLT ISZERO PUSH2 0x986 JUMPI PUSH1 0x0 DUP1 REVERT JUMPDEST POP CALLDATALOAD SWAP2 SWAP1 POP JUMP JUMPDEST PUSH1 0x0 DUP1 PUSH1 0x0 DUP1 PUSH1 0x80 DUP6 DUP8 SUB SLT ISZERO PUSH2 0x9A3 JUMPI PUSH1 0x0 DUP1 REVERT JUMPDEST DUP5 CALLDATALOAD PUSH2 0x9AE DUP2 PUSH2 0x926 JUMP JUMPDEST SWAP4 POP PUSH1 0x20 DUP6 ADD CALLDATALOAD PUSH2 0x9BE DUP2 PUSH2 0x926 JUMP JUMPDEST SWAP3 POP PUSH1 0x40 DUP6 ADD CALLDATALOAD PUSH2 0x9CE DUP2 PUSH2 0x926 JUMP JUMPDEST SWAP4 SWAP7 SWAP3 SWAP6 POP SWAP3 SWAP4 PUSH1 0x60 ADD CALLDATALOAD SWAP3 POP POP JUMP JUMPDEST PUSH1 0x0 PUSH1 0x20 DUP3 DUP5 SUB SLT ISZERO PUSH2 0x9F0 JUMPI PUSH1 0x0 DUP1 REVERT JUMPDEST DUP2 CALLDATALOAD PUSH2 0x9FB DUP2 PUSH2 0x926 JUMP JUMPDEST SWAP4 SWAP3 POP POP POP JUMP JUMPDEST DUP1 DUP3 MUL DUP2 ISZERO DUP3 DUP3 DIV DUP5 EQ OR PUSH2 0xA40 JUMPI PUSH32 0x4E487B7100000000000000000000000000000000000000000000000000000000 PUSH1 0x0 MSTORE PUSH1 0x11 PUSH1 0x4 MSTORE PUSH1 0x24 PUSH1 0x0 REVERT JUMPDEST SWAP3 SWAP2 POP POP JUMP JUMPDEST PUSH1 0x0 DUP3 PUSH2 0xA7C JUMPI PUSH32 0x4E487B7100000000000000000000000000000000000000000000000000000000 PUSH1 0x0 MSTORE PUSH1 0x12 PUSH1 0x4 MSTORE PUSH1 0x24 PUSH1 0x0 REVERT JUMPDEST POP DIV SWAP1 JUMP JUMPDEST PUSH1 0x0 PUSH1 0x20 DUP3 DUP5 SUB SLT ISZERO PUSH2 0xA93 JUMPI PUSH1 0x0 DUP1 REVERT JUMPDEST DUP2 MLOAD DUP1 ISZERO ISZERO DUP2 EQ PUSH2 0x9FB JUMPI PUSH1 0x0 DUP1 REVERT JUMPDEST PUSH1 0x0 PUSH1 0x20 DUP3 DUP5 SUB SLT ISZERO PUSH2 0xAB5 JUMPI PUSH1 0x0 DUP1 REVERT JUMPDEST DUP2 MLOAD PUSH2 0x9FB DUP2 PUSH2 0x926 JUMP INVALID LOG2 PUSH5 0x6970667358 0x22 SLT KECCAK256 MLOAD 0xBA PUSH13 0x2292B24958B8751EF6037C0662 PUSH30 0xD0DC13E03DD05A39AD94E82BF63EBC64736F6C6343000811003300000000 "
				},
				"gasEstimates": {
					"creation": {
						"codeDepositCost": "561200",
						"executionCost": "infinite",
						"totalCost": "infinite"
					},
					"external": {
						"INTERFACE_ID_ERC1155()": "250",
						"INTERFACE_ID_ERC2981()": "271",
						"INTERFACE_ID_ERC721()": "271",
						"checkForCollectionSetter(address)": "infinite",
						"owner()": "2334",
						"renounceOwnership()": "infinite",
						"royaltyFeeInfoCollection(address)": "6862",
						"royaltyFeeLimit()": "2363",
						"royaltyInfo(address,uint256)": "4911",
						"transferOwnership(address)": "infinite",
						"updateRoyaltyFeeLimit(uint256)": "25590",
						"updateRoyaltyInfoForCollection(address,address,address,uint256)": "infinite"
					}
				},
				"methodIdentifiers": {
					"INTERFACE_ID_ERC1155()": "33bf6156",
					"INTERFACE_ID_ERC2981()": "b060dd86",
					"INTERFACE_ID_ERC721()": "bc6bc0cd",
					"checkForCollectionSetter(address)": "c54e5497",
					"owner()": "8da5cb5b",
					"renounceOwnership()": "715018a6",
					"royaltyFeeInfoCollection(address)": "e31ef91c",
					"royaltyFeeLimit()": "4fb7d3f9",
					"royaltyInfo(address,uint256)": "2782d6c7",
					"transferOwnership(address)": "f2fde38b",
					"updateRoyaltyFeeLimit(uint256)": "b9223c9d",
					"updateRoyaltyInfoForCollection(address,address,address,uint256)": "bbdf9b68"
				}
			},
			"storageLayout": {
				"storage": [
					{
						"astId": 7,
						"contract": "contracts/Manager/royalty/RoyaltyFeeRegistry.sol:RoyaltyFeeRegistry",
						"label": "_owner",
						"offset": 0,
						"slot": "0",
						"type": "t_address"
					},
					{
						"astId": 196,
						"contract": "contracts/Manager/royalty/RoyaltyFeeRegistry.sol:RoyaltyFeeRegistry",
						"label": "royaltyFeeLimit",
						"offset": 0,
						"slot": "1",
						"type": "t_uint256"
					},
					{
						"astId": 201,
						"contract": "contracts/Manager/royalty/RoyaltyFeeRegistry.sol:RoyaltyFeeRegistry",
						"label": "_royaltyFeeInfoCollection",
						"offset": 0,
						"slot": "2",
						"type": "t_mapping(t_address,t_struct(FeeInfo)185_storage)"
					}
				],
				"types": {
					"t_address": {
						"encoding": "inplace",
						"label": "address",
						"numberOfBytes": "20"
					},
					"t_mapping(t_address,t_struct(FeeInfo)185_storage)": {
						"encoding": "mapping",
						"key": "t_address",
						"label": "mapping(address => struct RoyaltyFeeRegistry.FeeInfo)",
						"numberOfBytes": "32",
						"value": "t_struct(FeeInfo)185_storage"
					},
					"t_struct(FeeInfo)185_storage": {
						"encoding": "inplace",
						"label": "struct RoyaltyFeeRegistry.FeeInfo",
						"members": [
							{
								"astId": 180,
								"contract": "contracts/Manager/royalty/RoyaltyFeeRegistry.sol:RoyaltyFeeRegistry",
								"label": "setter",
								"offset": 0,
								"slot": "0",
								"type": "t_address"
							},
							{
								"astId": 182,
								"contract": "contracts/Manager/royalty/RoyaltyFeeRegistry.sol:RoyaltyFeeRegistry",
								"label": "receiver",
								"offset": 0,
								"slot": "1",
								"type": "t_address"
							},
							{
								"astId": 184,
								"contract": "contracts/Manager/royalty/RoyaltyFeeRegistry.sol:RoyaltyFeeRegistry",
								"label": "fee",
								"offset": 0,
								"slot": "2",
								"type": "t_uint256"
							}
						],
						"numberOfBytes": "96"
					},
					"t_uint256": {
						"encoding": "inplace",
						"label": "uint256",
						"numberOfBytes": "32"
					}
				}
			},
			"userdoc": {
				"kind": "user",
				"methods": {},
				"version": 1
			}
		}
	}
}