{
	"contracts/Manager/royalty/RoyaltyFeeSetter.sol": {
		"RoyaltyFeeSetter": {
			"abi": [
				{
					"inputs": [
						{
							"internalType": "address",
							"name": "_royaltyFeeRegistry",
							"type": "address"
						}
					],
					"stateMutability": "nonpayable",
					"type": "constructor"
				},
				{
					"anonymous": false,
					"inputs": [
						{
							"indexed": true,
							"internalType": "address",
							"name": "previousOwner",
							"type": "address"
						},
						{
							"indexed": true,
							"internalType": "address",
							"name": "newOwner",
							"type": "address"
						}
					],
					"name": "OwnershipTransferred",
					"type": "event"
				},
				{
					"inputs": [],
					"name": "INTERFACE_ID_ERC1155",
					"outputs": [
						{
							"internalType": "bytes4",
							"name": "",
							"type": "bytes4"
						}
					],
					"stateMutability": "view",
					"type": "function"
				},
				{
					"inputs": [],
					"name": "INTERFACE_ID_ERC2981",
					"outputs": [
						{
							"internalType": "bytes4",
							"name": "",
							"type": "bytes4"
						}
					],
					"stateMutability": "view",
					"type": "function"
				},
				{
					"inputs": [],
					"name": "INTERFACE_ID_ERC721",
					"outputs": [
						{
							"internalType": "bytes4",
							"name": "",
							"type": "bytes4"
						}
					],
					"stateMutability": "view",
					"type": "function"
				},
				{
					"inputs": [
						{
							"internalType": "address",
							"name": "collection",
							"type": "address"
						}
					],
					"name": "checkForCollectionSetter",
					"outputs": [
						{
							"internalType": "address",
							"name": "",
							"type": "address"
						},
						{
							"internalType": "uint8",
							"name": "",
							"type": "uint8"
						}
					],
					"stateMutability": "view",
					"type": "function"
				},
				{
					"inputs": [],
					"name": "owner",
					"outputs": [
						{
							"internalType": "address",
							"name": "",
							"type": "address"
						}
					],
					"stateMutability": "view",
					"type": "function"
				},
				{
					"inputs": [],
					"name": "renounceOwnership",
					"outputs": [],
					"stateMutability": "nonpayable",
					"type": "function"
				},
				{
					"inputs": [],
					"name": "royaltyFeeRegistry",
					"outputs": [
						{
							"internalType": "address",
							"name": "",
							"type": "address"
						}
					],
					"stateMutability": "view",
					"type": "function"
				},
				{
					"inputs": [
						{
							"internalType": "address",
							"name": "newOwner",
							"type": "address"
						}
					],
					"name": "transferOwnership",
					"outputs": [],
					"stateMutability": "nonpayable",
					"type": "function"
				},
				{
					"inputs": [
						{
							"internalType": "address",
							"name": "_owner",
							"type": "address"
						}
					],
					"name": "updateOwnerOfRoyaltyFeeRegistry",
					"outputs": [],
					"stateMutability": "nonpayable",
					"type": "function"
				},
				{
					"inputs": [
						{
							"internalType": "uint256",
							"name": "_royaltyFeeLimit",
							"type": "uint256"
						}
					],
					"name": "updateRoyaltyFeeLimit",
					"outputs": [],
					"stateMutability": "nonpayable",
					"type": "function"
				},
				{
					"inputs": [
						{
							"internalType": "address",
							"name": "collection",
							"type": "address"
						},
						{
							"internalType": "address",
							"name": "setter",
							"type": "address"
						},
						{
							"internalType": "address",
							"name": "receiver",
							"type": "address"
						},
						{
							"internalType": "uint256",
							"name": "fee",
							"type": "uint256"
						}
					],
					"name": "updateRoyaltyInfoForCollectionIfAdmin",
					"outputs": [],
					"stateMutability": "nonpayable",
					"type": "function"
				},
				{
					"inputs": [
						{
							"internalType": "address",
							"name": "collection",
							"type": "address"
						},
						{
							"internalType": "address",
							"name": "setter",
							"type": "address"
						},
						{
							"internalType": "address",
							"name": "receiver",
							"type": "address"
						},
						{
							"internalType": "uint256",
							"name": "fee",
							"type": "uint256"
						}
					],
					"name": "updateRoyaltyInfoForCollectionIfOwner",
					"outputs": [],
					"stateMutability": "nonpayable",
					"type": "function"
				}
			],
			"devdoc": {
				"kind": "dev",
				"methods": {
					"owner()": {
						"details": "Returns the address of the current owner."
					},
					"renounceOwnership()": {
						"details": "Leaves the contract without owner. It will not be possible to call `onlyOwner` functions anymore. Can only be called by the current owner. NOTE: Renouncing ownership will leave the contract without an owner, thereby removing any functionality that is only available to the owner."
					},
					"transferOwnership(address)": {
						"details": "Transfers ownership of the contract to a new account (`newOwner`). Can only be called by the current owner."
					}
				},
				"version": 1
			},
			"evm": {
				"assembly": "    /* \"contracts/Manager/royalty/RoyaltyFeeSetter.sol\":358:5083  contract RoyaltyFeeSetter is Ownable {... */\n  mstore(0x40, 0xa0)\n    /* \"contracts/Manager/royalty/RoyaltyFeeSetter.sol\":761:859  constructor(address _royaltyFeeRegistry) {... */\n  callvalue\n  dup1\n  iszero\n  tag_1\n  jumpi\n  0x00\n  dup1\n  revert\ntag_1:\n  pop\n  mload(0x40)\n  sub(codesize, bytecodeSize)\n  dup1\n  bytecodeSize\n  dup4\n  codecopy\n  dup2\n  add\n  0x40\n  dup2\n  swap1\n  mstore\n  tag_2\n  swap2\n  tag_3\n  jump\t// in\ntag_2:\n    /* \"@openzeppelin/contracts/access/Ownable.sol\":936:968  _transferOwnership(_msgSender()) */\n  tag_7\n    /* \"@openzeppelin/contracts/utils/Context.sol\":719:729  msg.sender */\n  caller\n    /* \"@openzeppelin/contracts/access/Ownable.sol\":936:954  _transferOwnership */\n  tag_10\n    /* \"@openzeppelin/contracts/access/Ownable.sol\":936:968  _transferOwnership(_msgSender()) */\n  jump\t// in\ntag_7:\n  sub(shl(0xa0, 0x01), 0x01)\n    /* \"contracts/Manager/royalty/RoyaltyFeeSetter.sol\":812:852  royaltyFeeRegistry = _royaltyFeeRegistry */\n  and\n  0x80\n  mstore\n    /* \"contracts/Manager/royalty/RoyaltyFeeSetter.sol\":358:5083  contract RoyaltyFeeSetter is Ownable {... */\n  jump(tag_15)\n    /* \"@openzeppelin/contracts/access/Ownable.sol\":2433:2620  function _transferOwnership(address newOwner) internal virtual {... */\ntag_10:\n    /* \"@openzeppelin/contracts/access/Ownable.sol\":2506:2522  address oldOwner */\n  0x00\n    /* \"@openzeppelin/contracts/access/Ownable.sol\":2525:2531  _owner */\n  dup1\n  sload\n  sub(shl(0xa0, 0x01), 0x01)\n    /* \"@openzeppelin/contracts/access/Ownable.sol\":2541:2558  _owner = newOwner */\n  dup4\n  dup2\n  and\n  not(sub(shl(0xa0, 0x01), 0x01))\n  dup4\n  and\n  dup2\n  or\n  dup5\n  sstore\n    /* \"@openzeppelin/contracts/access/Ownable.sol\":2573:2613  OwnershipTransferred(oldOwner, newOwner) */\n  mload(0x40)\n    /* \"@openzeppelin/contracts/access/Ownable.sol\":2525:2531  _owner */\n  swap2\n  swap1\n  swap3\n  and\n  swap3\n  dup4\n  swap2\n    /* \"@openzeppelin/contracts/access/Ownable.sol\":2573:2613  OwnershipTransferred(oldOwner, newOwner) */\n  0x8be0079c531659141344cd1fd0a4f28419497f9722a3daafe3b4186f6b6457e0\n  swap2\n    /* \"@openzeppelin/contracts/access/Ownable.sol\":2506:2522  address oldOwner */\n  swap1\n    /* \"@openzeppelin/contracts/access/Ownable.sol\":2573:2613  OwnershipTransferred(oldOwner, newOwner) */\n  log3\n    /* \"@openzeppelin/contracts/access/Ownable.sol\":2496:2620  {... */\n  pop\n    /* \"@openzeppelin/contracts/access/Ownable.sol\":2433:2620  function _transferOwnership(address newOwner) internal virtual {... */\n  pop\n  jump\t// out\n    /* \"#utility.yul\":14:304   */\ntag_3:\n    /* \"#utility.yul\":84:90   */\n  0x00\n    /* \"#utility.yul\":137:139   */\n  0x20\n    /* \"#utility.yul\":125:134   */\n  dup3\n    /* \"#utility.yul\":116:123   */\n  dup5\n    /* \"#utility.yul\":112:135   */\n  sub\n    /* \"#utility.yul\":108:140   */\n  slt\n    /* \"#utility.yul\":105:157   */\n  iszero\n  tag_17\n  jumpi\n    /* \"#utility.yul\":153:154   */\n  0x00\n    /* \"#utility.yul\":150:151   */\n  dup1\n    /* \"#utility.yul\":143:155   */\n  revert\n    /* \"#utility.yul\":105:157   */\ntag_17:\n    /* \"#utility.yul\":179:195   */\n  dup2\n  mload\n  sub(shl(0xa0, 0x01), 0x01)\n    /* \"#utility.yul\":224:255   */\n  dup2\n  and\n    /* \"#utility.yul\":214:256   */\n  dup2\n  eq\n    /* \"#utility.yul\":204:274   */\n  tag_18\n  jumpi\n    /* \"#utility.yul\":270:271   */\n  0x00\n    /* \"#utility.yul\":267:268   */\n  dup1\n    /* \"#utility.yul\":260:272   */\n  revert\n    /* \"#utility.yul\":204:274   */\ntag_18:\n    /* \"#utility.yul\":293:298   */\n  swap4\n    /* \"#utility.yul\":14:304   */\n  swap3\n  pop\n  pop\n  pop\n  jump\t// out\ntag_15:\n    /* \"contracts/Manager/royalty/RoyaltyFeeSetter.sol\":358:5083  contract RoyaltyFeeSetter is Ownable {... */\n  mload(0x80)\n  codecopy(0x00, dataOffset(sub_0), dataSize(sub_0))\n  0x00\n  assignImmutable(\"0x911a39fbf665a24ad3b6efc185d4b936bbda1900793ae2f7c00f4d18bdd96685\")\n  return(0x00, dataSize(sub_0))\nstop\n\nsub_0: assembly {\n        /* \"contracts/Manager/royalty/RoyaltyFeeSetter.sol\":358:5083  contract RoyaltyFeeSetter is Ownable {... */\n      mstore(0x40, 0x80)\n      callvalue\n      dup1\n      iszero\n      tag_1\n      jumpi\n      0x00\n      dup1\n      revert\n    tag_1:\n      pop\n      jumpi(tag_2, lt(calldatasize, 0x04))\n      shr(0xe0, calldataload(0x00))\n      dup1\n      0xb9223c9d\n      gt\n      tag_15\n      jumpi\n      dup1\n      0xb9223c9d\n      eq\n      tag_9\n      jumpi\n      dup1\n      0xbc6bc0cd\n      eq\n      tag_10\n      jumpi\n      dup1\n      0xc16f5156\n      eq\n      tag_11\n      jumpi\n      dup1\n      0xc54e5497\n      eq\n      tag_12\n      jumpi\n      dup1\n      0xe72ba456\n      eq\n      tag_13\n      jumpi\n      dup1\n      0xf2fde38b\n      eq\n      tag_14\n      jumpi\n      0x00\n      dup1\n      revert\n    tag_15:\n      dup1\n      0x33bf6156\n      eq\n      tag_3\n      jumpi\n      dup1\n      0x3755fa80\n      eq\n      tag_4\n      jumpi\n      dup1\n      0x715018a6\n      eq\n      tag_5\n      jumpi\n      dup1\n      0x8da5cb5b\n      eq\n      tag_6\n      jumpi\n      dup1\n      0xab016670\n      eq\n      tag_7\n      jumpi\n      dup1\n      0xb060dd86\n      eq\n      tag_8\n      jumpi\n    tag_2:\n      0x00\n      dup1\n      revert\n        /* \"contracts/Manager/royalty/RoyaltyFeeSetter.sol\":516:572  bytes4 public constant INTERFACE_ID_ERC1155 = 0xd9b67a26 */\n    tag_3:\n      tag_16\n      shl(0xe1, 0x6cdb3d13)\n      dup2\n      jump\n    tag_16:\n      mload(0x40)\n      tag_18\n      swap2\n      swap1\n      tag_19\n      jump\t// in\n    tag_18:\n      mload(0x40)\n      dup1\n      swap2\n      sub\n      swap1\n      return\n        /* \"contracts/Manager/royalty/RoyaltyFeeSetter.sol\":1983:2424  function updateRoyaltyInfoForCollectionIfOwner(... */\n    tag_4:\n      tag_20\n      tag_21\n      calldatasize\n      0x04\n      tag_22\n      jump\t// in\n    tag_21:\n      tag_23\n      jump\t// in\n    tag_20:\n      stop\n        /* \"@openzeppelin/contracts/access/Ownable.sol\":1831:1932  function renounceOwnership() public virtual onlyOwner {... */\n    tag_5:\n      tag_20\n      tag_25\n      jump\t// in\n        /* \"@openzeppelin/contracts/access/Ownable.sol\":1201:1286  function owner() public view virtual returns (address) {... */\n    tag_6:\n        /* \"@openzeppelin/contracts/access/Ownable.sol\":1247:1254  address */\n      0x00\n        /* \"@openzeppelin/contracts/access/Ownable.sol\":1273:1279  _owner */\n      sload\n      sub(shl(0xa0, 0x01), 0x01)\n      and\n        /* \"@openzeppelin/contracts/access/Ownable.sol\":1201:1286  function owner() public view virtual returns (address) {... */\n    tag_26:\n      mload(0x40)\n      sub(shl(0xa0, 0x01), 0x01)\n        /* \"#utility.yul\":1124:1156   */\n      swap1\n      swap2\n      and\n        /* \"#utility.yul\":1106:1157   */\n      dup2\n      mstore\n        /* \"#utility.yul\":1094:1096   */\n      0x20\n        /* \"#utility.yul\":1079:1097   */\n      add\n        /* \"@openzeppelin/contracts/access/Ownable.sol\":1201:1286  function owner() public view virtual returns (address) {... */\n      tag_18\n        /* \"#utility.yul\":960:1163   */\n      jump\n        /* \"contracts/Manager/royalty/RoyaltyFeeSetter.sol\":1224:1715  function updateRoyaltyInfoForCollectionIfAdmin(... */\n    tag_7:\n      tag_20\n      tag_31\n      calldatasize\n      0x04\n      tag_22\n      jump\t// in\n    tag_31:\n      tag_32\n      jump\t// in\n        /* \"contracts/Manager/royalty/RoyaltyFeeSetter.sol\":606:662  bytes4 public constant INTERFACE_ID_ERC2981 = 0x2a55205a */\n    tag_8:\n      tag_16\n      shl(0xe1, 0x152a902d)\n      dup2\n      jump\n        /* \"contracts/Manager/royalty/RoyaltyFeeSetter.sol\":2922:3094  function updateRoyaltyFeeLimit(uint256 _royaltyFeeLimit) external onlyOwner {... */\n    tag_9:\n      tag_20\n      tag_37\n      calldatasize\n      0x04\n      tag_38\n      jump\t// in\n    tag_37:\n      tag_39\n      jump\t// in\n        /* \"contracts/Manager/royalty/RoyaltyFeeSetter.sol\":427:482  bytes4 public constant INTERFACE_ID_ERC721 = 0x80ac58cd */\n    tag_10:\n      tag_16\n      shl(0xe0, 0x80ac58cd)\n      dup2\n      jump\n        /* \"contracts/Manager/royalty/RoyaltyFeeSetter.sol\":669:712  address public immutable royaltyFeeRegistry */\n    tag_11:\n      tag_26\n      immutable(\"0x911a39fbf665a24ad3b6efc185d4b936bbda1900793ae2f7c00f4d18bdd96685\")\n      dup2\n      jump\n        /* \"contracts/Manager/royalty/RoyaltyFeeSetter.sol\":3309:4146  function checkForCollectionSetter(address collection) external view returns (address, uint8) {... */\n    tag_12:\n      tag_46\n      tag_47\n      calldatasize\n      0x04\n      tag_48\n      jump\t// in\n    tag_47:\n      tag_49\n      jump\t// in\n    tag_46:\n      0x40\n      dup1\n      mload\n      sub(shl(0xa0, 0x01), 0x01)\n        /* \"#utility.yul\":1793:1825   */\n      swap1\n      swap4\n      and\n        /* \"#utility.yul\":1775:1826   */\n      dup4\n      mstore\n        /* \"#utility.yul\":1874:1878   */\n      0xff\n        /* \"#utility.yul\":1862:1879   */\n      swap1\n      swap2\n      and\n        /* \"#utility.yul\":1857:1859   */\n      0x20\n        /* \"#utility.yul\":1842:1860   */\n      dup4\n      add\n        /* \"#utility.yul\":1835:1880   */\n      mstore\n        /* \"#utility.yul\":1748:1766   */\n      add\n        /* \"contracts/Manager/royalty/RoyaltyFeeSetter.sol\":3309:4146  function checkForCollectionSetter(address collection) external view returns (address, uint8) {... */\n      tag_18\n        /* \"#utility.yul\":1605:1886   */\n      jump\n        /* \"contracts/Manager/royalty/RoyaltyFeeSetter.sol\":2604:2751  function updateOwnerOfRoyaltyFeeRegistry(address _owner) external onlyOwner {... */\n    tag_13:\n      tag_20\n      tag_53\n      calldatasize\n      0x04\n      tag_48\n      jump\t// in\n    tag_53:\n      tag_54\n      jump\t// in\n        /* \"@openzeppelin/contracts/access/Ownable.sol\":2081:2279  function transferOwnership(address newOwner) public virtual onlyOwner {... */\n    tag_14:\n      tag_20\n      tag_56\n      calldatasize\n      0x04\n      tag_48\n      jump\t// in\n    tag_56:\n      tag_57\n      jump\t// in\n        /* \"contracts/Manager/royalty/RoyaltyFeeSetter.sol\":1983:2424  function updateRoyaltyInfoForCollectionIfOwner(... */\n    tag_23:\n        /* \"contracts/Manager/royalty/RoyaltyFeeSetter.sol\":2163:2222  IERC165(collection).supportsInterface(INTERFACE_ID_ERC2981) */\n      mload(0x40)\n      shl(0xe0, 0x01ffc9a7)\n      dup2\n      mstore\n      sub(shl(0xa0, 0x01), 0x01)\n        /* \"contracts/Manager/royalty/RoyaltyFeeSetter.sol\":2163:2200  IERC165(collection).supportsInterface */\n      dup6\n      and\n      swap1\n      0x01ffc9a7\n      swap1\n        /* \"contracts/Manager/royalty/RoyaltyFeeSetter.sol\":2163:2222  IERC165(collection).supportsInterface(INTERFACE_ID_ERC2981) */\n      tag_59\n      swap1\n      shl(0xe1, 0x152a902d)\n        /* \"contracts/Manager/royalty/RoyaltyFeeSetter.sol\":2201:2221  INTERFACE_ID_ERC2981 */\n      swap1\n        /* \"contracts/Manager/royalty/RoyaltyFeeSetter.sol\":2163:2222  IERC165(collection).supportsInterface(INTERFACE_ID_ERC2981) */\n      0x04\n      add\n      tag_19\n      jump\t// in\n    tag_59:\n      0x20\n      mload(0x40)\n      dup1\n      dup4\n      sub\n      dup2\n      dup7\n      gas\n      staticcall\n      iszero\n      dup1\n      iszero\n      tag_61\n      jumpi\n      returndatasize\n      0x00\n      dup1\n      returndatacopy\n      revert(0x00, returndatasize)\n    tag_61:\n      pop\n      pop\n      pop\n      pop\n      mload(0x40)\n      returndatasize\n      not(0x1f)\n      0x1f\n      dup3\n      add\n      and\n      dup3\n      add\n      dup1\n      0x40\n      mstore\n      pop\n      dup2\n      add\n      swap1\n      tag_62\n      swap2\n      swap1\n      tag_63\n      jump\t// in\n    tag_62:\n        /* \"contracts/Manager/royalty/RoyaltyFeeSetter.sol\":2162:2222  !IERC165(collection).supportsInterface(INTERFACE_ID_ERC2981) */\n      iszero\n        /* \"contracts/Manager/royalty/RoyaltyFeeSetter.sol\":2154:2247  require(!IERC165(collection).supportsInterface(INTERFACE_ID_ERC2981), \" Must not be ERC2981\") */\n      tag_64\n      jumpi\n      mload(0x40)\n      shl(0xe5, 0x461bcd)\n      dup2\n      mstore\n        /* \"#utility.yul\":2375:2377   */\n      0x20\n        /* \"contracts/Manager/royalty/RoyaltyFeeSetter.sol\":2154:2247  require(!IERC165(collection).supportsInterface(INTERFACE_ID_ERC2981), \" Must not be ERC2981\") */\n      0x04\n      dup3\n      add\n        /* \"#utility.yul\":2357:2378   */\n      mstore\n        /* \"#utility.yul\":2414:2416   */\n      0x14\n        /* \"#utility.yul\":2394:2412   */\n      0x24\n      dup3\n      add\n        /* \"#utility.yul\":2387:2417   */\n      mstore\n      shl(0x60, 0x204d757374206e6f742062652045524332393831)\n        /* \"#utility.yul\":2433:2451   */\n      0x44\n      dup3\n      add\n        /* \"#utility.yul\":2426:2476   */\n      mstore\n        /* \"#utility.yul\":2493:2511   */\n      0x64\n      add\n        /* \"contracts/Manager/royalty/RoyaltyFeeSetter.sol\":2154:2247  require(!IERC165(collection).supportsInterface(INTERFACE_ID_ERC2981), \" Must not be ERC2981\") */\n    tag_65:\n      mload(0x40)\n      dup1\n      swap2\n      sub\n      swap1\n      revert\n    tag_64:\n        /* \"contracts/Manager/royalty/RoyaltyFeeSetter.sol\":2288:2298  collection */\n      dup4\n      sub(shl(0xa0, 0x01), 0x01)\n        /* \"contracts/Manager/royalty/RoyaltyFeeSetter.sol\":2279:2305  IOwnable(collection).owner */\n      and\n      0x8da5cb5b\n        /* \"contracts/Manager/royalty/RoyaltyFeeSetter.sol\":2279:2307  IOwnable(collection).owner() */\n      mload(0x40)\n      dup2\n      0xffffffff\n      and\n      0xe0\n      shl\n      dup2\n      mstore\n      0x04\n      add\n      0x20\n      mload(0x40)\n      dup1\n      dup4\n      sub\n      dup2\n      dup7\n      gas\n      staticcall\n      iszero\n      dup1\n      iszero\n      tag_68\n      jumpi\n      returndatasize\n      0x00\n      dup1\n      returndatacopy\n      revert(0x00, returndatasize)\n    tag_68:\n      pop\n      pop\n      pop\n      pop\n      mload(0x40)\n      returndatasize\n      not(0x1f)\n      0x1f\n      dup3\n      add\n      and\n      dup3\n      add\n      dup1\n      0x40\n      mstore\n      pop\n      dup2\n      add\n      swap1\n      tag_69\n      swap2\n      swap1\n      tag_70\n      jump\t// in\n    tag_69:\n      sub(shl(0xa0, 0x01), 0x01)\n        /* \"contracts/Manager/royalty/RoyaltyFeeSetter.sol\":2265:2307  msg.sender == IOwnable(collection).owner() */\n      and\n        /* \"contracts/Manager/royalty/RoyaltyFeeSetter.sol\":2265:2275  msg.sender */\n      caller\n      sub(shl(0xa0, 0x01), 0x01)\n        /* \"contracts/Manager/royalty/RoyaltyFeeSetter.sol\":2265:2307  msg.sender == IOwnable(collection).owner() */\n      and\n      eq\n        /* \"contracts/Manager/royalty/RoyaltyFeeSetter.sol\":2257:2326  require(msg.sender == IOwnable(collection).owner(), \" Not the owner\") */\n      tag_71\n      jumpi\n      mload(0x40)\n      shl(0xe5, 0x461bcd)\n      dup2\n      mstore\n        /* \"#utility.yul\":2980:2982   */\n      0x20\n        /* \"contracts/Manager/royalty/RoyaltyFeeSetter.sol\":2257:2326  require(msg.sender == IOwnable(collection).owner(), \" Not the owner\") */\n      0x04\n      dup3\n      add\n        /* \"#utility.yul\":2962:2983   */\n      mstore\n        /* \"#utility.yul\":3019:3021   */\n      0x0e\n        /* \"#utility.yul\":2999:3017   */\n      0x24\n      dup3\n      add\n        /* \"#utility.yul\":2992:3022   */\n      mstore\n      shl(0x91, 0x102737ba103a34329037bbb732b9)\n        /* \"#utility.yul\":3038:3056   */\n      0x44\n      dup3\n      add\n        /* \"#utility.yul\":3031:3075   */\n      mstore\n        /* \"#utility.yul\":3092:3110   */\n      0x64\n      add\n        /* \"contracts/Manager/royalty/RoyaltyFeeSetter.sol\":2257:2326  require(msg.sender == IOwnable(collection).owner(), \" Not the owner\") */\n      tag_65\n        /* \"#utility.yul\":2778:3116   */\n      jump\n        /* \"contracts/Manager/royalty/RoyaltyFeeSetter.sol\":2257:2326  require(msg.sender == IOwnable(collection).owner(), \" Not the owner\") */\n    tag_71:\n        /* \"contracts/Manager/royalty/RoyaltyFeeSetter.sol\":2337:2417  _updateRoyaltyInfoForCollectionIfOwnerOrAdmin(collection, setter, receiver, fee) */\n      tag_74\n        /* \"contracts/Manager/royalty/RoyaltyFeeSetter.sol\":2383:2393  collection */\n      dup5\n        /* \"contracts/Manager/royalty/RoyaltyFeeSetter.sol\":2395:2401  setter */\n      dup5\n        /* \"contracts/Manager/royalty/RoyaltyFeeSetter.sol\":2403:2411  receiver */\n      dup5\n        /* \"contracts/Manager/royalty/RoyaltyFeeSetter.sol\":2413:2416  fee */\n      dup5\n        /* \"contracts/Manager/royalty/RoyaltyFeeSetter.sol\":2337:2382  _updateRoyaltyInfoForCollectionIfOwnerOrAdmin */\n      tag_75\n        /* \"contracts/Manager/royalty/RoyaltyFeeSetter.sol\":2337:2417  _updateRoyaltyInfoForCollectionIfOwnerOrAdmin(collection, setter, receiver, fee) */\n      jump\t// in\n    tag_74:\n        /* \"contracts/Manager/royalty/RoyaltyFeeSetter.sol\":1983:2424  function updateRoyaltyInfoForCollectionIfOwner(... */\n      pop\n      pop\n      pop\n      pop\n      jump\t// out\n        /* \"@openzeppelin/contracts/access/Ownable.sol\":1831:1932  function renounceOwnership() public virtual onlyOwner {... */\n    tag_25:\n        /* \"@openzeppelin/contracts/access/Ownable.sol\":1094:1107  _checkOwner() */\n      tag_77\n        /* \"@openzeppelin/contracts/access/Ownable.sol\":1094:1105  _checkOwner */\n      tag_78\n        /* \"@openzeppelin/contracts/access/Ownable.sol\":1094:1107  _checkOwner() */\n      jump\t// in\n    tag_77:\n        /* \"@openzeppelin/contracts/access/Ownable.sol\":1895:1925  _transferOwnership(address(0)) */\n      tag_80\n        /* \"@openzeppelin/contracts/access/Ownable.sol\":1922:1923  0 */\n      0x00\n        /* \"@openzeppelin/contracts/access/Ownable.sol\":1895:1913  _transferOwnership */\n      tag_81\n        /* \"@openzeppelin/contracts/access/Ownable.sol\":1895:1925  _transferOwnership(address(0)) */\n      jump\t// in\n    tag_80:\n        /* \"@openzeppelin/contracts/access/Ownable.sol\":1831:1932  function renounceOwnership() public virtual onlyOwner {... */\n      jump\t// out\n        /* \"contracts/Manager/royalty/RoyaltyFeeSetter.sol\":1224:1715  function updateRoyaltyInfoForCollectionIfAdmin(... */\n    tag_32:\n        /* \"contracts/Manager/royalty/RoyaltyFeeSetter.sol\":1454:1513  IERC165(collection).supportsInterface(INTERFACE_ID_ERC2981) */\n      mload(0x40)\n      shl(0xe0, 0x01ffc9a7)\n      dup2\n      mstore\n      sub(shl(0xa0, 0x01), 0x01)\n        /* \"contracts/Manager/royalty/RoyaltyFeeSetter.sol\":1454:1491  IERC165(collection).supportsInterface */\n      dup6\n      and\n      swap1\n      0x01ffc9a7\n      swap1\n        /* \"contracts/Manager/royalty/RoyaltyFeeSetter.sol\":1454:1513  IERC165(collection).supportsInterface(INTERFACE_ID_ERC2981) */\n      tag_84\n      swap1\n      shl(0xe1, 0x152a902d)\n        /* \"contracts/Manager/royalty/RoyaltyFeeSetter.sol\":1492:1512  INTERFACE_ID_ERC2981 */\n      swap1\n        /* \"contracts/Manager/royalty/RoyaltyFeeSetter.sol\":1454:1513  IERC165(collection).supportsInterface(INTERFACE_ID_ERC2981) */\n      0x04\n      add\n      tag_19\n      jump\t// in\n    tag_84:\n      0x20\n      mload(0x40)\n      dup1\n      dup4\n      sub\n      dup2\n      dup7\n      gas\n      staticcall\n      iszero\n      dup1\n      iszero\n      tag_86\n      jumpi\n      returndatasize\n      0x00\n      dup1\n      returndatacopy\n      revert(0x00, returndatasize)\n    tag_86:\n      pop\n      pop\n      pop\n      pop\n      mload(0x40)\n      returndatasize\n      not(0x1f)\n      0x1f\n      dup3\n      add\n      and\n      dup3\n      add\n      dup1\n      0x40\n      mstore\n      pop\n      dup2\n      add\n      swap1\n      tag_87\n      swap2\n      swap1\n      tag_63\n      jump\t// in\n    tag_87:\n        /* \"contracts/Manager/royalty/RoyaltyFeeSetter.sol\":1453:1513  !IERC165(collection).supportsInterface(INTERFACE_ID_ERC2981) */\n      iszero\n        /* \"contracts/Manager/royalty/RoyaltyFeeSetter.sol\":1445:1538  require(!IERC165(collection).supportsInterface(INTERFACE_ID_ERC2981), \" Must not be ERC2981\") */\n      tag_88\n      jumpi\n      mload(0x40)\n      shl(0xe5, 0x461bcd)\n      dup2\n      mstore\n        /* \"#utility.yul\":2375:2377   */\n      0x20\n        /* \"contracts/Manager/royalty/RoyaltyFeeSetter.sol\":1445:1538  require(!IERC165(collection).supportsInterface(INTERFACE_ID_ERC2981), \" Must not be ERC2981\") */\n      0x04\n      dup3\n      add\n        /* \"#utility.yul\":2357:2378   */\n      mstore\n        /* \"#utility.yul\":2414:2416   */\n      0x14\n        /* \"#utility.yul\":2394:2412   */\n      0x24\n      dup3\n      add\n        /* \"#utility.yul\":2387:2417   */\n      mstore\n      shl(0x60, 0x204d757374206e6f742062652045524332393831)\n        /* \"#utility.yul\":2433:2451   */\n      0x44\n      dup3\n      add\n        /* \"#utility.yul\":2426:2476   */\n      mstore\n        /* \"#utility.yul\":2493:2511   */\n      0x64\n      add\n        /* \"contracts/Manager/royalty/RoyaltyFeeSetter.sol\":1445:1538  require(!IERC165(collection).supportsInterface(INTERFACE_ID_ERC2981), \" Must not be ERC2981\") */\n      tag_65\n        /* \"#utility.yul\":2173:2517   */\n      jump\n        /* \"contracts/Manager/royalty/RoyaltyFeeSetter.sol\":1445:1538  require(!IERC165(collection).supportsInterface(INTERFACE_ID_ERC2981), \" Must not be ERC2981\") */\n    tag_88:\n        /* \"contracts/Manager/royalty/RoyaltyFeeSetter.sol\":1579:1589  collection */\n      dup4\n      sub(shl(0xa0, 0x01), 0x01)\n        /* \"contracts/Manager/royalty/RoyaltyFeeSetter.sol\":1570:1596  IOwnable(collection).admin */\n      and\n      0xf851a440\n        /* \"contracts/Manager/royalty/RoyaltyFeeSetter.sol\":1570:1598  IOwnable(collection).admin() */\n      mload(0x40)\n      dup2\n      0xffffffff\n      and\n      0xe0\n      shl\n      dup2\n      mstore\n      0x04\n      add\n      0x20\n      mload(0x40)\n      dup1\n      dup4\n      sub\n      dup2\n      dup7\n      gas\n      staticcall\n      iszero\n      dup1\n      iszero\n      tag_91\n      jumpi\n      returndatasize\n      0x00\n      dup1\n      returndatacopy\n      revert(0x00, returndatasize)\n    tag_91:\n      pop\n      pop\n      pop\n      pop\n      mload(0x40)\n      returndatasize\n      not(0x1f)\n      0x1f\n      dup3\n      add\n      and\n      dup3\n      add\n      dup1\n      0x40\n      mstore\n      pop\n      dup2\n      add\n      swap1\n      tag_92\n      swap2\n      swap1\n      tag_70\n      jump\t// in\n    tag_92:\n      sub(shl(0xa0, 0x01), 0x01)\n        /* \"contracts/Manager/royalty/RoyaltyFeeSetter.sol\":1556:1598  msg.sender == IOwnable(collection).admin() */\n      and\n        /* \"contracts/Manager/royalty/RoyaltyFeeSetter.sol\":1556:1566  msg.sender */\n      caller\n      sub(shl(0xa0, 0x01), 0x01)\n        /* \"contracts/Manager/royalty/RoyaltyFeeSetter.sol\":1556:1598  msg.sender == IOwnable(collection).admin() */\n      and\n      eq\n        /* \"contracts/Manager/royalty/RoyaltyFeeSetter.sol\":1548:1617  require(msg.sender == IOwnable(collection).admin(), \" Not the admin\") */\n      tag_71\n      jumpi\n      mload(0x40)\n      shl(0xe5, 0x461bcd)\n      dup2\n      mstore\n        /* \"#utility.yul\":3323:3325   */\n      0x20\n        /* \"contracts/Manager/royalty/RoyaltyFeeSetter.sol\":1548:1617  require(msg.sender == IOwnable(collection).admin(), \" Not the admin\") */\n      0x04\n      dup3\n      add\n        /* \"#utility.yul\":3305:3326   */\n      mstore\n        /* \"#utility.yul\":3362:3364   */\n      0x0e\n        /* \"#utility.yul\":3342:3360   */\n      0x24\n      dup3\n      add\n        /* \"#utility.yul\":3335:3365   */\n      mstore\n      shl(0x91, 0x102737ba103a34329030b236b4b7)\n        /* \"#utility.yul\":3381:3399   */\n      0x44\n      dup3\n      add\n        /* \"#utility.yul\":3374:3418   */\n      mstore\n        /* \"#utility.yul\":3435:3453   */\n      0x64\n      add\n        /* \"contracts/Manager/royalty/RoyaltyFeeSetter.sol\":1548:1617  require(msg.sender == IOwnable(collection).admin(), \" Not the admin\") */\n      tag_65\n        /* \"#utility.yul\":3121:3459   */\n      jump\n        /* \"contracts/Manager/royalty/RoyaltyFeeSetter.sol\":2922:3094  function updateRoyaltyFeeLimit(uint256 _royaltyFeeLimit) external onlyOwner {... */\n    tag_39:\n        /* \"@openzeppelin/contracts/access/Ownable.sol\":1094:1107  _checkOwner() */\n      tag_98\n        /* \"@openzeppelin/contracts/access/Ownable.sol\":1094:1105  _checkOwner */\n      tag_78\n        /* \"@openzeppelin/contracts/access/Ownable.sol\":1094:1107  _checkOwner() */\n      jump\t// in\n    tag_98:\n        /* \"contracts/Manager/royalty/RoyaltyFeeSetter.sol\":3008:3087  IRoyaltyFeeRegistry(royaltyFeeRegistry).updateRoyaltyFeeLimit(_royaltyFeeLimit) */\n      mload(0x40)\n      shl(0xe0, 0xb9223c9d)\n      dup2\n      mstore\n      0x04\n      dup2\n      add\n        /* \"#utility.yul\":3610:3635   */\n      dup3\n      swap1\n      mstore\n        /* \"contracts/Manager/royalty/RoyaltyFeeSetter.sol\":3028:3046  royaltyFeeRegistry */\n      immutable(\"0x911a39fbf665a24ad3b6efc185d4b936bbda1900793ae2f7c00f4d18bdd96685\")\n      sub(shl(0xa0, 0x01), 0x01)\n        /* \"contracts/Manager/royalty/RoyaltyFeeSetter.sol\":3008:3069  IRoyaltyFeeRegistry(royaltyFeeRegistry).updateRoyaltyFeeLimit */\n      and\n      swap1\n      0xb9223c9d\n      swap1\n        /* \"#utility.yul\":3583:3601   */\n      0x24\n      add\n        /* \"contracts/Manager/royalty/RoyaltyFeeSetter.sol\":3008:3087  IRoyaltyFeeRegistry(royaltyFeeRegistry).updateRoyaltyFeeLimit(_royaltyFeeLimit) */\n    tag_100:\n      0x00\n      mload(0x40)\n      dup1\n      dup4\n      sub\n      dup2\n      0x00\n      dup8\n      dup1\n      extcodesize\n      iszero\n      dup1\n      iszero\n      tag_102\n      jumpi\n      0x00\n      dup1\n      revert\n    tag_102:\n      pop\n      gas\n      call\n      iszero\n      dup1\n      iszero\n      tag_104\n      jumpi\n      returndatasize\n      0x00\n      dup1\n      returndatacopy\n      revert(0x00, returndatasize)\n    tag_104:\n      pop\n      pop\n      pop\n      pop\n        /* \"contracts/Manager/royalty/RoyaltyFeeSetter.sol\":2922:3094  function updateRoyaltyFeeLimit(uint256 _royaltyFeeLimit) external onlyOwner {... */\n      pop\n      jump\t// out\n        /* \"contracts/Manager/royalty/RoyaltyFeeSetter.sol\":3309:4146  function checkForCollectionSetter(address collection) external view returns (address, uint8) {... */\n    tag_49:\n        /* \"contracts/Manager/royalty/RoyaltyFeeSetter.sol\":3441:3517  IRoyaltyFeeRegistry(royaltyFeeRegistry).royaltyFeeInfoCollection(collection) */\n      mload(0x40)\n      shl(0xe2, 0x38c7be47)\n      dup2\n      mstore\n      sub(shl(0xa0, 0x01), 0x01)\n        /* \"#utility.yul\":1124:1156   */\n      dup3\n      dup2\n      and\n        /* \"contracts/Manager/royalty/RoyaltyFeeSetter.sol\":3441:3517  IRoyaltyFeeRegistry(royaltyFeeRegistry).royaltyFeeInfoCollection(collection) */\n      0x04\n      dup4\n      add\n        /* \"#utility.yul\":1106:1157   */\n      mstore\n      0x00\n      swap2\n      dup3\n      swap2\n      dup3\n      swap2\n        /* \"contracts/Manager/royalty/RoyaltyFeeSetter.sol\":3461:3479  royaltyFeeRegistry */\n      immutable(\"0x911a39fbf665a24ad3b6efc185d4b936bbda1900793ae2f7c00f4d18bdd96685\")\n        /* \"contracts/Manager/royalty/RoyaltyFeeSetter.sol\":3441:3505  IRoyaltyFeeRegistry(royaltyFeeRegistry).royaltyFeeInfoCollection */\n      swap1\n      swap2\n      and\n      swap1\n      0xe31ef91c\n      swap1\n        /* \"#utility.yul\":1079:1097   */\n      0x24\n      add\n        /* \"contracts/Manager/royalty/RoyaltyFeeSetter.sol\":3441:3517  IRoyaltyFeeRegistry(royaltyFeeRegistry).royaltyFeeInfoCollection(collection) */\n      0x60\n      mload(0x40)\n      dup1\n      dup4\n      sub\n      dup2\n      dup7\n      gas\n      staticcall\n      iszero\n      dup1\n      iszero\n      tag_108\n      jumpi\n      returndatasize\n      0x00\n      dup1\n      returndatacopy\n      revert(0x00, returndatasize)\n    tag_108:\n      pop\n      pop\n      pop\n      pop\n      mload(0x40)\n      returndatasize\n      not(0x1f)\n      0x1f\n      dup3\n      add\n      and\n      dup3\n      add\n      dup1\n      0x40\n      mstore\n      pop\n      dup2\n      add\n      swap1\n      tag_109\n      swap2\n      swap1\n      tag_110\n      jump\t// in\n    tag_109:\n      pop\n        /* \"contracts/Manager/royalty/RoyaltyFeeSetter.sol\":3412:3517  (address currentSetter, ,) = IRoyaltyFeeRegistry(royaltyFeeRegistry).royaltyFeeInfoCollection(collection) */\n      swap1\n      swap2\n      pop\n      pop\n      sub(shl(0xa0, 0x01), 0x01)\n        /* \"contracts/Manager/royalty/RoyaltyFeeSetter.sol\":3532:3559  currentSetter != address(0) */\n      dup2\n      and\n      iszero\n        /* \"contracts/Manager/royalty/RoyaltyFeeSetter.sol\":3528:3611  if (currentSetter != address(0)) {... */\n      tag_111\n      jumpi\n        /* \"contracts/Manager/royalty/RoyaltyFeeSetter.sol\":3583:3596  currentSetter */\n      swap4\n        /* \"contracts/Manager/royalty/RoyaltyFeeSetter.sol\":3598:3599  0 */\n      0x00\n      swap4\n      pop\n        /* \"contracts/Manager/royalty/RoyaltyFeeSetter.sol\":3309:4146  function checkForCollectionSetter(address collection) external view returns (address, uint8) {... */\n      swap2\n      pop\n      pop\n      jump\t// out\n        /* \"contracts/Manager/royalty/RoyaltyFeeSetter.sol\":3528:3611  if (currentSetter != address(0)) {... */\n    tag_111:\n        /* \"contracts/Manager/royalty/RoyaltyFeeSetter.sol\":3625:3684  IERC165(collection).supportsInterface(INTERFACE_ID_ERC2981) */\n      mload(0x40)\n      shl(0xe0, 0x01ffc9a7)\n      dup2\n      mstore\n      sub(shl(0xa0, 0x01), 0x01)\n        /* \"contracts/Manager/royalty/RoyaltyFeeSetter.sol\":3625:3662  IERC165(collection).supportsInterface */\n      dup6\n      and\n      swap1\n      0x01ffc9a7\n      swap1\n        /* \"contracts/Manager/royalty/RoyaltyFeeSetter.sol\":3625:3684  IERC165(collection).supportsInterface(INTERFACE_ID_ERC2981) */\n      tag_112\n      swap1\n      shl(0xe1, 0x152a902d)\n        /* \"contracts/Manager/royalty/RoyaltyFeeSetter.sol\":3663:3683  INTERFACE_ID_ERC2981 */\n      swap1\n        /* \"contracts/Manager/royalty/RoyaltyFeeSetter.sol\":3625:3684  IERC165(collection).supportsInterface(INTERFACE_ID_ERC2981) */\n      0x04\n      add\n      tag_19\n      jump\t// in\n    tag_112:\n      0x20\n      mload(0x40)\n      dup1\n      dup4\n      sub\n      dup2\n      dup7\n      gas\n      staticcall\n      swap3\n      pop\n      pop\n      pop\n      dup1\n      iszero\n      tag_113\n      jumpi\n      pop\n      0x40\n      dup1\n      mload\n      0x1f\n      returndatasize\n      swap1\n      dup2\n      add\n      not(0x1f)\n      and\n      dup3\n      add\n      swap1\n      swap3\n      mstore\n      tag_114\n      swap2\n      dup2\n      add\n      swap1\n      tag_63\n      jump\t// in\n    tag_114:\n      0x01\n    tag_113:\n        /* \"contracts/Manager/royalty/RoyaltyFeeSetter.sol\":3621:3827  try IERC165(collection).supportsInterface(INTERFACE_ID_ERC2981) returns (bool interfaceSupport) {... */\n      iszero\n      tag_119\n      jumpi\n        /* \"contracts/Manager/royalty/RoyaltyFeeSetter.sol\":3735:3751  interfaceSupport */\n      dup1\n        /* \"contracts/Manager/royalty/RoyaltyFeeSetter.sol\":3731:3808  if (interfaceSupport) {... */\n      iszero\n      tag_120\n      jumpi\n      pop\n        /* \"contracts/Manager/royalty/RoyaltyFeeSetter.sol\":3787:3788  0 */\n      0x00\n      swap5\n        /* \"contracts/Manager/royalty/RoyaltyFeeSetter.sol\":3791:3792  1 */\n      0x01\n      swap5\n      pop\n        /* \"contracts/Manager/royalty/RoyaltyFeeSetter.sol\":3309:4146  function checkForCollectionSetter(address collection) external view returns (address, uint8) {... */\n      swap3\n      pop\n      pop\n      pop\n      jump\t// out\n        /* \"contracts/Manager/royalty/RoyaltyFeeSetter.sol\":3731:3808  if (interfaceSupport) {... */\n    tag_120:\n        /* \"contracts/Manager/royalty/RoyaltyFeeSetter.sol\":3685:3818  returns (bool interfaceSupport) {... */\n      pop\n        /* \"contracts/Manager/royalty/RoyaltyFeeSetter.sol\":3621:3827  try IERC165(collection).supportsInterface(INTERFACE_ID_ERC2981) returns (bool interfaceSupport) {... */\n    tag_119:\n        /* \"contracts/Manager/royalty/RoyaltyFeeSetter.sol\":3850:3860  collection */\n      dup4\n      sub(shl(0xa0, 0x01), 0x01)\n        /* \"contracts/Manager/royalty/RoyaltyFeeSetter.sol\":3841:3867  IOwnable(collection).owner */\n      and\n      0x8da5cb5b\n        /* \"contracts/Manager/royalty/RoyaltyFeeSetter.sol\":3841:3869  IOwnable(collection).owner() */\n      mload(0x40)\n      dup2\n      0xffffffff\n      and\n      0xe0\n      shl\n      dup2\n      mstore\n      0x04\n      add\n      0x20\n      mload(0x40)\n      dup1\n      dup4\n      sub\n      dup2\n      dup7\n      gas\n      staticcall\n      swap3\n      pop\n      pop\n      pop\n      dup1\n      iszero\n      tag_121\n      jumpi\n      pop\n      0x40\n      dup1\n      mload\n      0x1f\n      returndatasize\n      swap1\n      dup2\n      add\n      not(0x1f)\n      and\n      dup3\n      add\n      swap1\n      swap3\n      mstore\n      tag_122\n      swap2\n      dup2\n      add\n      swap1\n      tag_70\n      jump\t// in\n    tag_122:\n      0x01\n    tag_121:\n        /* \"contracts/Manager/royalty/RoyaltyFeeSetter.sol\":3837:4140  try IOwnable(collection).owner() returns (address setter) {... */\n      tag_123\n      jumpi\n        /* \"contracts/Manager/royalty/RoyaltyFeeSetter.sol\":3972:3982  collection */\n      dup4\n      sub(shl(0xa0, 0x01), 0x01)\n        /* \"contracts/Manager/royalty/RoyaltyFeeSetter.sol\":3963:3989  IOwnable(collection).admin */\n      and\n      0xf851a440\n        /* \"contracts/Manager/royalty/RoyaltyFeeSetter.sol\":3963:3991  IOwnable(collection).admin() */\n      mload(0x40)\n      dup2\n      0xffffffff\n      and\n      0xe0\n      shl\n      dup2\n      mstore\n      0x04\n      add\n      0x20\n      mload(0x40)\n      dup1\n      dup4\n      sub\n      dup2\n      dup7\n      gas\n      staticcall\n      swap3\n      pop\n      pop\n      pop\n      dup1\n      iszero\n      tag_127\n      jumpi\n      pop\n      0x40\n      dup1\n      mload\n      0x1f\n      returndatasize\n      swap1\n      dup2\n      add\n      not(0x1f)\n      and\n      dup3\n      add\n      swap1\n      swap3\n      mstore\n      tag_128\n      swap2\n      dup2\n      add\n      swap1\n      tag_70\n      jump\t// in\n    tag_128:\n      0x01\n    tag_127:\n        /* \"contracts/Manager/royalty/RoyaltyFeeSetter.sol\":3959:4130  try IOwnable(collection).admin() returns (address setter) {... */\n      tag_129\n      jumpi\n      pop\n        /* \"contracts/Manager/royalty/RoyaltyFeeSetter.sol\":4109:4110  0 */\n      0x00\n      swap4\n        /* \"contracts/Manager/royalty/RoyaltyFeeSetter.sol\":4113:4114  4 */\n      0x04\n      swap4\n      pop\n        /* \"contracts/Manager/royalty/RoyaltyFeeSetter.sol\":3309:4146  function checkForCollectionSetter(address collection) external view returns (address, uint8) {... */\n      swap2\n      pop\n      pop\n      jump\t// out\n        /* \"contracts/Manager/royalty/RoyaltyFeeSetter.sol\":3959:4130  try IOwnable(collection).admin() returns (address setter) {... */\n    tag_129:\n        /* \"contracts/Manager/royalty/RoyaltyFeeSetter.sol\":4043:4049  setter */\n      swap5\n        /* \"contracts/Manager/royalty/RoyaltyFeeSetter.sol\":4051:4052  3 */\n      0x03\n      swap5\n      pop\n        /* \"contracts/Manager/royalty/RoyaltyFeeSetter.sol\":3309:4146  function checkForCollectionSetter(address collection) external view returns (address, uint8) {... */\n      swap3\n      pop\n      pop\n      pop\n      jump\t// out\n        /* \"contracts/Manager/royalty/RoyaltyFeeSetter.sol\":3837:4140  try IOwnable(collection).owner() returns (address setter) {... */\n    tag_123:\n        /* \"contracts/Manager/royalty/RoyaltyFeeSetter.sol\":3917:3923  setter */\n      swap5\n        /* \"contracts/Manager/royalty/RoyaltyFeeSetter.sol\":3925:3926  2 */\n      0x02\n      swap5\n      pop\n        /* \"contracts/Manager/royalty/RoyaltyFeeSetter.sol\":3309:4146  function checkForCollectionSetter(address collection) external view returns (address, uint8) {... */\n      swap3\n      pop\n      pop\n      pop\n      jump\t// out\n        /* \"contracts/Manager/royalty/RoyaltyFeeSetter.sol\":2604:2751  function updateOwnerOfRoyaltyFeeRegistry(address _owner) external onlyOwner {... */\n    tag_54:\n        /* \"@openzeppelin/contracts/access/Ownable.sol\":1094:1107  _checkOwner() */\n      tag_136\n        /* \"@openzeppelin/contracts/access/Ownable.sol\":1094:1105  _checkOwner */\n      tag_78\n        /* \"@openzeppelin/contracts/access/Ownable.sol\":1094:1107  _checkOwner() */\n      jump\t// in\n    tag_136:\n        /* \"contracts/Manager/royalty/RoyaltyFeeSetter.sol\":2690:2744  IOwnable(royaltyFeeRegistry).transferOwnership(_owner) */\n      mload(0x40)\n      shl(0xe0, 0xf2fde38b)\n      dup2\n      mstore\n      sub(shl(0xa0, 0x01), 0x01)\n        /* \"#utility.yul\":1124:1156   */\n      dup3\n      dup2\n      and\n        /* \"contracts/Manager/royalty/RoyaltyFeeSetter.sol\":2690:2744  IOwnable(royaltyFeeRegistry).transferOwnership(_owner) */\n      0x04\n      dup4\n      add\n        /* \"#utility.yul\":1106:1157   */\n      mstore\n        /* \"contracts/Manager/royalty/RoyaltyFeeSetter.sol\":2699:2717  royaltyFeeRegistry */\n      immutable(\"0x911a39fbf665a24ad3b6efc185d4b936bbda1900793ae2f7c00f4d18bdd96685\")\n        /* \"contracts/Manager/royalty/RoyaltyFeeSetter.sol\":2690:2736  IOwnable(royaltyFeeRegistry).transferOwnership */\n      and\n      swap1\n      0xf2fde38b\n      swap1\n        /* \"#utility.yul\":1079:1097   */\n      0x24\n      add\n        /* \"contracts/Manager/royalty/RoyaltyFeeSetter.sol\":2690:2744  IOwnable(royaltyFeeRegistry).transferOwnership(_owner) */\n      tag_100\n        /* \"#utility.yul\":960:1163   */\n      jump\n        /* \"@openzeppelin/contracts/access/Ownable.sol\":2081:2279  function transferOwnership(address newOwner) public virtual onlyOwner {... */\n    tag_57:\n        /* \"@openzeppelin/contracts/access/Ownable.sol\":1094:1107  _checkOwner() */\n      tag_143\n        /* \"@openzeppelin/contracts/access/Ownable.sol\":1094:1105  _checkOwner */\n      tag_78\n        /* \"@openzeppelin/contracts/access/Ownable.sol\":1094:1107  _checkOwner() */\n      jump\t// in\n    tag_143:\n      sub(shl(0xa0, 0x01), 0x01)\n        /* \"@openzeppelin/contracts/access/Ownable.sol\":2169:2191  newOwner != address(0) */\n      dup2\n      and\n        /* \"@openzeppelin/contracts/access/Ownable.sol\":2161:2234  require(newOwner != address(0), \"Ownable: new owner is the zero address\") */\n      tag_145\n      jumpi\n      mload(0x40)\n      shl(0xe5, 0x461bcd)\n      dup2\n      mstore\n        /* \"#utility.yul\":4299:4301   */\n      0x20\n        /* \"@openzeppelin/contracts/access/Ownable.sol\":2161:2234  require(newOwner != address(0), \"Ownable: new owner is the zero address\") */\n      0x04\n      dup3\n      add\n        /* \"#utility.yul\":4281:4302   */\n      mstore\n        /* \"#utility.yul\":4338:4340   */\n      0x26\n        /* \"#utility.yul\":4318:4336   */\n      0x24\n      dup3\n      add\n        /* \"#utility.yul\":4311:4341   */\n      mstore\n        /* \"#utility.yul\":4377:4411   */\n      0x4f776e61626c653a206e6577206f776e657220697320746865207a65726f2061\n        /* \"#utility.yul\":4357:4375   */\n      0x44\n      dup3\n      add\n        /* \"#utility.yul\":4350:4412   */\n      mstore\n      shl(0xd0, 0x646472657373)\n        /* \"#utility.yul\":4428:4446   */\n      0x64\n      dup3\n      add\n        /* \"#utility.yul\":4421:4457   */\n      mstore\n        /* \"#utility.yul\":4474:4493   */\n      0x84\n      add\n        /* \"@openzeppelin/contracts/access/Ownable.sol\":2161:2234  require(newOwner != address(0), \"Ownable: new owner is the zero address\") */\n      tag_65\n        /* \"#utility.yul\":4097:4499   */\n      jump\n        /* \"@openzeppelin/contracts/access/Ownable.sol\":2161:2234  require(newOwner != address(0), \"Ownable: new owner is the zero address\") */\n    tag_145:\n        /* \"@openzeppelin/contracts/access/Ownable.sol\":2244:2272  _transferOwnership(newOwner) */\n      tag_148\n        /* \"@openzeppelin/contracts/access/Ownable.sol\":2263:2271  newOwner */\n      dup2\n        /* \"@openzeppelin/contracts/access/Ownable.sol\":2244:2262  _transferOwnership */\n      tag_81\n        /* \"@openzeppelin/contracts/access/Ownable.sol\":2244:2272  _transferOwnership(newOwner) */\n      jump\t// in\n    tag_148:\n        /* \"@openzeppelin/contracts/access/Ownable.sol\":2081:2279  function transferOwnership(address newOwner) public virtual onlyOwner {... */\n      pop\n      jump\t// out\n        /* \"contracts/Manager/royalty/RoyaltyFeeSetter.sol\":4398:5081  function _updateRoyaltyInfoForCollectionIfOwnerOrAdmin(... */\n    tag_75:\n        /* \"contracts/Manager/royalty/RoyaltyFeeSetter.sol\":4606:4682  IRoyaltyFeeRegistry(royaltyFeeRegistry).royaltyFeeInfoCollection(collection) */\n      mload(0x40)\n      shl(0xe2, 0x38c7be47)\n      dup2\n      mstore\n      sub(shl(0xa0, 0x01), 0x01)\n        /* \"#utility.yul\":1124:1156   */\n      dup6\n      dup2\n      and\n        /* \"contracts/Manager/royalty/RoyaltyFeeSetter.sol\":4606:4682  IRoyaltyFeeRegistry(royaltyFeeRegistry).royaltyFeeInfoCollection(collection) */\n      0x04\n      dup4\n      add\n        /* \"#utility.yul\":1106:1157   */\n      mstore\n        /* \"contracts/Manager/royalty/RoyaltyFeeSetter.sol\":4578:4599  address currentSetter */\n      0x00\n      swap2\n        /* \"contracts/Manager/royalty/RoyaltyFeeSetter.sol\":4626:4644  royaltyFeeRegistry */\n      immutable(\"0x911a39fbf665a24ad3b6efc185d4b936bbda1900793ae2f7c00f4d18bdd96685\")\n        /* \"contracts/Manager/royalty/RoyaltyFeeSetter.sol\":4606:4670  IRoyaltyFeeRegistry(royaltyFeeRegistry).royaltyFeeInfoCollection */\n      swap1\n      swap2\n      and\n      swap1\n      0xe31ef91c\n      swap1\n        /* \"#utility.yul\":1079:1097   */\n      0x24\n      add\n        /* \"contracts/Manager/royalty/RoyaltyFeeSetter.sol\":4606:4682  IRoyaltyFeeRegistry(royaltyFeeRegistry).royaltyFeeInfoCollection(collection) */\n      0x60\n      mload(0x40)\n      dup1\n      dup4\n      sub\n      dup2\n      dup7\n      gas\n      staticcall\n      iszero\n      dup1\n      iszero\n      tag_152\n      jumpi\n      returndatasize\n      0x00\n      dup1\n      returndatacopy\n      revert(0x00, returndatasize)\n    tag_152:\n      pop\n      pop\n      pop\n      pop\n      mload(0x40)\n      returndatasize\n      not(0x1f)\n      0x1f\n      dup3\n      add\n      and\n      dup3\n      add\n      dup1\n      0x40\n      mstore\n      pop\n      dup2\n      add\n      swap1\n      tag_153\n      swap2\n      swap1\n      tag_110\n      jump\t// in\n    tag_153:\n      pop\n        /* \"contracts/Manager/royalty/RoyaltyFeeSetter.sol\":4577:4682  (address currentSetter, ,) = IRoyaltyFeeRegistry(royaltyFeeRegistry).royaltyFeeInfoCollection(collection) */\n      swap1\n      swap2\n      pop\n      pop\n      sub(shl(0xa0, 0x01), 0x01)\n        /* \"contracts/Manager/royalty/RoyaltyFeeSetter.sol\":4700:4727  currentSetter == address(0) */\n      dup2\n      and\n      iszero\n        /* \"contracts/Manager/royalty/RoyaltyFeeSetter.sol\":4692:4743  require(currentSetter == address(0), \"Already set\") */\n      tag_154\n      jumpi\n      mload(0x40)\n      shl(0xe5, 0x461bcd)\n      dup2\n      mstore\n        /* \"#utility.yul\":4706:4708   */\n      0x20\n        /* \"contracts/Manager/royalty/RoyaltyFeeSetter.sol\":4692:4743  require(currentSetter == address(0), \"Already set\") */\n      0x04\n      dup3\n      add\n        /* \"#utility.yul\":4688:4709   */\n      mstore\n        /* \"#utility.yul\":4745:4747   */\n      0x0b\n        /* \"#utility.yul\":4725:4743   */\n      0x24\n      dup3\n      add\n        /* \"#utility.yul\":4718:4748   */\n      mstore\n      shl(0xaa, 0x105b1c9958591e481cd95d)\n        /* \"#utility.yul\":4764:4782   */\n      0x44\n      dup3\n      add\n        /* \"#utility.yul\":4757:4798   */\n      mstore\n        /* \"#utility.yul\":4815:4833   */\n      0x64\n      add\n        /* \"contracts/Manager/royalty/RoyaltyFeeSetter.sol\":4692:4743  require(currentSetter == address(0), \"Already set\") */\n      tag_65\n        /* \"#utility.yul\":4504:4839   */\n      jump\n        /* \"contracts/Manager/royalty/RoyaltyFeeSetter.sol\":4692:4743  require(currentSetter == address(0), \"Already set\") */\n    tag_154:\n        /* \"contracts/Manager/royalty/RoyaltyFeeSetter.sol\":4776:4834  IERC165(collection).supportsInterface(INTERFACE_ID_ERC721) */\n      mload(0x40)\n      shl(0xe0, 0x01ffc9a7)\n      dup2\n      mstore\n      sub(shl(0xa0, 0x01), 0x01)\n        /* \"contracts/Manager/royalty/RoyaltyFeeSetter.sol\":4776:4813  IERC165(collection).supportsInterface */\n      dup7\n      and\n      swap1\n      0x01ffc9a7\n      swap1\n        /* \"contracts/Manager/royalty/RoyaltyFeeSetter.sol\":4776:4834  IERC165(collection).supportsInterface(INTERFACE_ID_ERC721) */\n      tag_157\n      swap1\n      shl(0xe0, 0x80ac58cd)\n        /* \"contracts/Manager/royalty/RoyaltyFeeSetter.sol\":4814:4833  INTERFACE_ID_ERC721 */\n      swap1\n        /* \"contracts/Manager/royalty/RoyaltyFeeSetter.sol\":4776:4834  IERC165(collection).supportsInterface(INTERFACE_ID_ERC721) */\n      0x04\n      add\n      tag_19\n      jump\t// in\n    tag_157:\n      0x20\n      mload(0x40)\n      dup1\n      dup4\n      sub\n      dup2\n      dup7\n      gas\n      staticcall\n      iszero\n      dup1\n      iszero\n      tag_159\n      jumpi\n      returndatasize\n      0x00\n      dup1\n      returndatacopy\n      revert(0x00, returndatasize)\n    tag_159:\n      pop\n      pop\n      pop\n      pop\n      mload(0x40)\n      returndatasize\n      not(0x1f)\n      0x1f\n      dup3\n      add\n      and\n      dup3\n      add\n      dup1\n      0x40\n      mstore\n      pop\n      dup2\n      add\n      swap1\n      tag_160\n      swap2\n      swap1\n      tag_63\n      jump\t// in\n    tag_160:\n        /* \"contracts/Manager/royalty/RoyaltyFeeSetter.sol\":4776:4905  IERC165(collection).supportsInterface(INTERFACE_ID_ERC721) ||... */\n      dup1\n      tag_165\n      jumpi\n      pop\n        /* \"contracts/Manager/royalty/RoyaltyFeeSetter.sol\":4846:4905  IERC165(collection).supportsInterface(INTERFACE_ID_ERC1155) */\n      mload(0x40)\n      shl(0xe0, 0x01ffc9a7)\n      dup2\n      mstore\n      sub(shl(0xa0, 0x01), 0x01)\n        /* \"contracts/Manager/royalty/RoyaltyFeeSetter.sol\":4846:4883  IERC165(collection).supportsInterface */\n      dup7\n      and\n      swap1\n      0x01ffc9a7\n      swap1\n        /* \"contracts/Manager/royalty/RoyaltyFeeSetter.sol\":4846:4905  IERC165(collection).supportsInterface(INTERFACE_ID_ERC1155) */\n      tag_162\n      swap1\n      shl(0xe1, 0x6cdb3d13)\n        /* \"contracts/Manager/royalty/RoyaltyFeeSetter.sol\":4884:4904  INTERFACE_ID_ERC1155 */\n      swap1\n        /* \"contracts/Manager/royalty/RoyaltyFeeSetter.sol\":4846:4905  IERC165(collection).supportsInterface(INTERFACE_ID_ERC1155) */\n      0x04\n      add\n      tag_19\n      jump\t// in\n    tag_162:\n      0x20\n      mload(0x40)\n      dup1\n      dup4\n      sub\n      dup2\n      dup7\n      gas\n      staticcall\n      iszero\n      dup1\n      iszero\n      tag_164\n      jumpi\n      returndatasize\n      0x00\n      dup1\n      returndatacopy\n      revert(0x00, returndatasize)\n    tag_164:\n      pop\n      pop\n      pop\n      pop\n      mload(0x40)\n      returndatasize\n      not(0x1f)\n      0x1f\n      dup3\n      add\n      and\n      dup3\n      add\n      dup1\n      0x40\n      mstore\n      pop\n      dup2\n      add\n      swap1\n      tag_165\n      swap2\n      swap1\n      tag_63\n      jump\t// in\n    tag_165:\n        /* \"contracts/Manager/royalty/RoyaltyFeeSetter.sol\":4754:4958  require(... */\n      tag_166\n      jumpi\n      mload(0x40)\n      shl(0xe5, 0x461bcd)\n      dup2\n      mstore\n        /* \"#utility.yul\":5046:5048   */\n      0x20\n        /* \"contracts/Manager/royalty/RoyaltyFeeSetter.sol\":4754:4958  require(... */\n      0x04\n      dup3\n      add\n        /* \"#utility.yul\":5028:5049   */\n      mstore\n        /* \"#utility.yul\":5085:5087   */\n      0x1a\n        /* \"#utility.yul\":5065:5083   */\n      0x24\n      dup3\n      add\n        /* \"#utility.yul\":5058:5088   */\n      mstore\n        /* \"#utility.yul\":5124:5152   */\n      0x204e6f7420536574206f66204552433732312f45524331313535000000000000\n        /* \"#utility.yul\":5104:5122   */\n      0x44\n      dup3\n      add\n        /* \"#utility.yul\":5097:5153   */\n      mstore\n        /* \"#utility.yul\":5170:5188   */\n      0x64\n      add\n        /* \"contracts/Manager/royalty/RoyaltyFeeSetter.sol\":4754:4958  require(... */\n      tag_65\n        /* \"#utility.yul\":4844:5194   */\n      jump\n        /* \"contracts/Manager/royalty/RoyaltyFeeSetter.sol\":4754:4958  require(... */\n    tag_166:\n        /* \"contracts/Manager/royalty/RoyaltyFeeSetter.sol\":4969:5074  IRoyaltyFeeRegistry(royaltyFeeRegistry).updateRoyaltyInfoForCollection(collection, setter, receiver, fee) */\n      mload(0x40)\n      shl(0xe3, 0x177bf36d)\n      dup2\n      mstore\n      sub(shl(0xa0, 0x01), 0x01)\n        /* \"#utility.yul\":5486:5501   */\n      dup7\n      dup2\n      and\n        /* \"contracts/Manager/royalty/RoyaltyFeeSetter.sol\":4969:5074  IRoyaltyFeeRegistry(royaltyFeeRegistry).updateRoyaltyInfoForCollection(collection, setter, receiver, fee) */\n      0x04\n      dup4\n      add\n        /* \"#utility.yul\":5468:5502   */\n      mstore\n        /* \"#utility.yul\":5538:5553   */\n      dup6\n      dup2\n      and\n        /* \"#utility.yul\":5518:5536   */\n      0x24\n      dup4\n      add\n        /* \"#utility.yul\":5511:5554   */\n      mstore\n        /* \"#utility.yul\":5590:5605   */\n      dup5\n      dup2\n      and\n        /* \"#utility.yul\":5570:5588   */\n      0x44\n      dup4\n      add\n        /* \"#utility.yul\":5563:5606   */\n      mstore\n        /* \"#utility.yul\":5622:5640   */\n      0x64\n      dup3\n      add\n        /* \"#utility.yul\":5615:5649   */\n      dup5\n      swap1\n      mstore\n        /* \"contracts/Manager/royalty/RoyaltyFeeSetter.sol\":4989:5007  royaltyFeeRegistry */\n      immutable(\"0x911a39fbf665a24ad3b6efc185d4b936bbda1900793ae2f7c00f4d18bdd96685\")\n        /* \"contracts/Manager/royalty/RoyaltyFeeSetter.sol\":4969:5039  IRoyaltyFeeRegistry(royaltyFeeRegistry).updateRoyaltyInfoForCollection */\n      and\n      swap1\n      0xbbdf9b68\n      swap1\n        /* \"#utility.yul\":5402:5421   */\n      0x84\n      add\n        /* \"contracts/Manager/royalty/RoyaltyFeeSetter.sol\":4969:5074  IRoyaltyFeeRegistry(royaltyFeeRegistry).updateRoyaltyInfoForCollection(collection, setter, receiver, fee) */\n      0x00\n      mload(0x40)\n      dup1\n      dup4\n      sub\n      dup2\n      0x00\n      dup8\n      dup1\n      extcodesize\n      iszero\n      dup1\n      iszero\n      tag_171\n      jumpi\n      0x00\n      dup1\n      revert\n    tag_171:\n      pop\n      gas\n      call\n      iszero\n      dup1\n      iszero\n      tag_173\n      jumpi\n      returndatasize\n      0x00\n      dup1\n      returndatacopy\n      revert(0x00, returndatasize)\n    tag_173:\n      pop\n      pop\n      pop\n      pop\n        /* \"contracts/Manager/royalty/RoyaltyFeeSetter.sol\":4567:5081  {... */\n      pop\n        /* \"contracts/Manager/royalty/RoyaltyFeeSetter.sol\":4398:5081  function _updateRoyaltyInfoForCollectionIfOwnerOrAdmin(... */\n      pop\n      pop\n      pop\n      pop\n      jump\t// out\n        /* \"@openzeppelin/contracts/access/Ownable.sol\":1359:1489  function _checkOwner() internal view virtual {... */\n    tag_78:\n        /* \"@openzeppelin/contracts/access/Ownable.sol\":1247:1254  address */\n      0x00\n        /* \"@openzeppelin/contracts/access/Ownable.sol\":1273:1279  _owner */\n      sload\n      sub(shl(0xa0, 0x01), 0x01)\n      and\n        /* \"@openzeppelin/contracts/utils/Context.sol\":719:729  msg.sender */\n      caller\n        /* \"@openzeppelin/contracts/access/Ownable.sol\":1422:1445  owner() == _msgSender() */\n      eq\n        /* \"@openzeppelin/contracts/access/Ownable.sol\":1414:1482  require(owner() == _msgSender(), \"Ownable: caller is not the owner\") */\n      tag_80\n      jumpi\n      mload(0x40)\n      shl(0xe5, 0x461bcd)\n      dup2\n      mstore\n        /* \"#utility.yul\":5862:5864   */\n      0x20\n        /* \"@openzeppelin/contracts/access/Ownable.sol\":1414:1482  require(owner() == _msgSender(), \"Ownable: caller is not the owner\") */\n      0x04\n      dup3\n      add\n        /* \"#utility.yul\":5844:5865   */\n      dup2\n      swap1\n      mstore\n        /* \"#utility.yul\":5881:5899   */\n      0x24\n      dup3\n      add\n        /* \"#utility.yul\":5874:5904   */\n      mstore\n        /* \"#utility.yul\":5940:5974   */\n      0x4f776e61626c653a2063616c6c6572206973206e6f7420746865206f776e6572\n        /* \"#utility.yul\":5920:5938   */\n      0x44\n      dup3\n      add\n        /* \"#utility.yul\":5913:5975   */\n      mstore\n        /* \"#utility.yul\":5992:6010   */\n      0x64\n      add\n        /* \"@openzeppelin/contracts/access/Ownable.sol\":1414:1482  require(owner() == _msgSender(), \"Ownable: caller is not the owner\") */\n      tag_65\n        /* \"#utility.yul\":5660:6016   */\n      jump\n        /* \"@openzeppelin/contracts/access/Ownable.sol\":2433:2620  function _transferOwnership(address newOwner) internal virtual {... */\n    tag_81:\n        /* \"@openzeppelin/contracts/access/Ownable.sol\":2506:2522  address oldOwner */\n      0x00\n        /* \"@openzeppelin/contracts/access/Ownable.sol\":2525:2531  _owner */\n      dup1\n      sload\n      sub(shl(0xa0, 0x01), 0x01)\n        /* \"@openzeppelin/contracts/access/Ownable.sol\":2541:2558  _owner = newOwner */\n      dup4\n      dup2\n      and\n      not(sub(shl(0xa0, 0x01), 0x01))\n      dup4\n      and\n      dup2\n      or\n      dup5\n      sstore\n        /* \"@openzeppelin/contracts/access/Ownable.sol\":2573:2613  OwnershipTransferred(oldOwner, newOwner) */\n      mload(0x40)\n        /* \"@openzeppelin/contracts/access/Ownable.sol\":2525:2531  _owner */\n      swap2\n      swap1\n      swap3\n      and\n      swap3\n      dup4\n      swap2\n        /* \"@openzeppelin/contracts/access/Ownable.sol\":2573:2613  OwnershipTransferred(oldOwner, newOwner) */\n      0x8be0079c531659141344cd1fd0a4f28419497f9722a3daafe3b4186f6b6457e0\n      swap2\n        /* \"@openzeppelin/contracts/access/Ownable.sol\":2506:2522  address oldOwner */\n      swap1\n        /* \"@openzeppelin/contracts/access/Ownable.sol\":2573:2613  OwnershipTransferred(oldOwner, newOwner) */\n      log3\n        /* \"@openzeppelin/contracts/access/Ownable.sol\":2496:2620  {... */\n      pop\n        /* \"@openzeppelin/contracts/access/Ownable.sol\":2433:2620  function _transferOwnership(address newOwner) internal virtual {... */\n      pop\n      jump\t// out\n        /* \"#utility.yul\":14:216   */\n    tag_19:\n      not(sub(shl(0xe0, 0x01), 0x01))\n        /* \"#utility.yul\":176:209   */\n      swap2\n      swap1\n      swap2\n      and\n        /* \"#utility.yul\":158:210   */\n      dup2\n      mstore\n        /* \"#utility.yul\":146:148   */\n      0x20\n        /* \"#utility.yul\":131:149   */\n      add\n      swap1\n        /* \"#utility.yul\":14:216   */\n      jump\t// out\n        /* \"#utility.yul\":221:352   */\n    tag_183:\n      sub(shl(0xa0, 0x01), 0x01)\n        /* \"#utility.yul\":296:327   */\n      dup2\n      and\n        /* \"#utility.yul\":286:328   */\n      dup2\n      eq\n        /* \"#utility.yul\":276:346   */\n      tag_148\n      jumpi\n        /* \"#utility.yul\":342:343   */\n      0x00\n        /* \"#utility.yul\":339:340   */\n      dup1\n        /* \"#utility.yul\":332:344   */\n      revert\n        /* \"#utility.yul\":357:955   */\n    tag_22:\n        /* \"#utility.yul\":443:449   */\n      0x00\n        /* \"#utility.yul\":451:457   */\n      dup1\n        /* \"#utility.yul\":459:465   */\n      0x00\n        /* \"#utility.yul\":467:473   */\n      dup1\n        /* \"#utility.yul\":520:523   */\n      0x80\n        /* \"#utility.yul\":508:517   */\n      dup6\n        /* \"#utility.yul\":499:506   */\n      dup8\n        /* \"#utility.yul\":495:518   */\n      sub\n        /* \"#utility.yul\":491:524   */\n      slt\n        /* \"#utility.yul\":488:541   */\n      iszero\n      tag_189\n      jumpi\n        /* \"#utility.yul\":537:538   */\n      0x00\n        /* \"#utility.yul\":534:535   */\n      dup1\n        /* \"#utility.yul\":527:539   */\n      revert\n        /* \"#utility.yul\":488:541   */\n    tag_189:\n        /* \"#utility.yul\":576:585   */\n      dup5\n        /* \"#utility.yul\":563:586   */\n      calldataload\n        /* \"#utility.yul\":595:626   */\n      tag_190\n        /* \"#utility.yul\":620:625   */\n      dup2\n        /* \"#utility.yul\":595:626   */\n      tag_183\n      jump\t// in\n    tag_190:\n        /* \"#utility.yul\":645:650   */\n      swap4\n      pop\n        /* \"#utility.yul\":702:704   */\n      0x20\n        /* \"#utility.yul\":687:705   */\n      dup6\n      add\n        /* \"#utility.yul\":674:706   */\n      calldataload\n        /* \"#utility.yul\":715:748   */\n      tag_191\n        /* \"#utility.yul\":674:706   */\n      dup2\n        /* \"#utility.yul\":715:748   */\n      tag_183\n      jump\t// in\n    tag_191:\n        /* \"#utility.yul\":767:774   */\n      swap3\n      pop\n        /* \"#utility.yul\":826:828   */\n      0x40\n        /* \"#utility.yul\":811:829   */\n      dup6\n      add\n        /* \"#utility.yul\":798:830   */\n      calldataload\n        /* \"#utility.yul\":839:872   */\n      tag_192\n        /* \"#utility.yul\":798:830   */\n      dup2\n        /* \"#utility.yul\":839:872   */\n      tag_183\n      jump\t// in\n    tag_192:\n        /* \"#utility.yul\":357:955   */\n      swap4\n      swap7\n      swap3\n      swap6\n      pop\n        /* \"#utility.yul\":891:898   */\n      swap3\n      swap4\n        /* \"#utility.yul\":945:947   */\n      0x60\n        /* \"#utility.yul\":930:948   */\n      add\n        /* \"#utility.yul\":917:949   */\n      calldataload\n      swap3\n      pop\n      pop\n        /* \"#utility.yul\":357:955   */\n      jump\t// out\n        /* \"#utility.yul\":1168:1348   */\n    tag_38:\n        /* \"#utility.yul\":1227:1233   */\n      0x00\n        /* \"#utility.yul\":1280:1282   */\n      0x20\n        /* \"#utility.yul\":1268:1277   */\n      dup3\n        /* \"#utility.yul\":1259:1266   */\n      dup5\n        /* \"#utility.yul\":1255:1278   */\n      sub\n        /* \"#utility.yul\":1251:1283   */\n      slt\n        /* \"#utility.yul\":1248:1300   */\n      iszero\n      tag_195\n      jumpi\n        /* \"#utility.yul\":1296:1297   */\n      0x00\n        /* \"#utility.yul\":1293:1294   */\n      dup1\n        /* \"#utility.yul\":1286:1298   */\n      revert\n        /* \"#utility.yul\":1248:1300   */\n    tag_195:\n      pop\n        /* \"#utility.yul\":1319:1342   */\n      calldataload\n      swap2\n        /* \"#utility.yul\":1168:1348   */\n      swap1\n      pop\n      jump\t// out\n        /* \"#utility.yul\":1353:1600   */\n    tag_48:\n        /* \"#utility.yul\":1412:1418   */\n      0x00\n        /* \"#utility.yul\":1465:1467   */\n      0x20\n        /* \"#utility.yul\":1453:1462   */\n      dup3\n        /* \"#utility.yul\":1444:1451   */\n      dup5\n        /* \"#utility.yul\":1440:1463   */\n      sub\n        /* \"#utility.yul\":1436:1468   */\n      slt\n        /* \"#utility.yul\":1433:1485   */\n      iszero\n      tag_197\n      jumpi\n        /* \"#utility.yul\":1481:1482   */\n      0x00\n        /* \"#utility.yul\":1478:1479   */\n      dup1\n        /* \"#utility.yul\":1471:1483   */\n      revert\n        /* \"#utility.yul\":1433:1485   */\n    tag_197:\n        /* \"#utility.yul\":1520:1529   */\n      dup2\n        /* \"#utility.yul\":1507:1530   */\n      calldataload\n        /* \"#utility.yul\":1539:1570   */\n      tag_198\n        /* \"#utility.yul\":1564:1569   */\n      dup2\n        /* \"#utility.yul\":1539:1570   */\n      tag_183\n      jump\t// in\n    tag_198:\n        /* \"#utility.yul\":1589:1594   */\n      swap4\n        /* \"#utility.yul\":1353:1600   */\n      swap3\n      pop\n      pop\n      pop\n      jump\t// out\n        /* \"#utility.yul\":1891:2168   */\n    tag_63:\n        /* \"#utility.yul\":1958:1964   */\n      0x00\n        /* \"#utility.yul\":2011:2013   */\n      0x20\n        /* \"#utility.yul\":1999:2008   */\n      dup3\n        /* \"#utility.yul\":1990:1997   */\n      dup5\n        /* \"#utility.yul\":1986:2009   */\n      sub\n        /* \"#utility.yul\":1982:2014   */\n      slt\n        /* \"#utility.yul\":1979:2031   */\n      iszero\n      tag_201\n      jumpi\n        /* \"#utility.yul\":2027:2028   */\n      0x00\n        /* \"#utility.yul\":2024:2025   */\n      dup1\n        /* \"#utility.yul\":2017:2029   */\n      revert\n        /* \"#utility.yul\":1979:2031   */\n    tag_201:\n        /* \"#utility.yul\":2059:2068   */\n      dup2\n        /* \"#utility.yul\":2053:2069   */\n      mload\n        /* \"#utility.yul\":2112:2117   */\n      dup1\n        /* \"#utility.yul\":2105:2118   */\n      iszero\n        /* \"#utility.yul\":2098:2119   */\n      iszero\n        /* \"#utility.yul\":2091:2096   */\n      dup2\n        /* \"#utility.yul\":2088:2120   */\n      eq\n        /* \"#utility.yul\":2078:2138   */\n      tag_198\n      jumpi\n        /* \"#utility.yul\":2134:2135   */\n      0x00\n        /* \"#utility.yul\":2131:2132   */\n      dup1\n        /* \"#utility.yul\":2124:2136   */\n      revert\n        /* \"#utility.yul\":2522:2773   */\n    tag_70:\n        /* \"#utility.yul\":2592:2598   */\n      0x00\n        /* \"#utility.yul\":2645:2647   */\n      0x20\n        /* \"#utility.yul\":2633:2642   */\n      dup3\n        /* \"#utility.yul\":2624:2631   */\n      dup5\n        /* \"#utility.yul\":2620:2643   */\n      sub\n        /* \"#utility.yul\":2616:2648   */\n      slt\n        /* \"#utility.yul\":2613:2665   */\n      iszero\n      tag_205\n      jumpi\n        /* \"#utility.yul\":2661:2662   */\n      0x00\n        /* \"#utility.yul\":2658:2659   */\n      dup1\n        /* \"#utility.yul\":2651:2663   */\n      revert\n        /* \"#utility.yul\":2613:2665   */\n    tag_205:\n        /* \"#utility.yul\":2693:2702   */\n      dup2\n        /* \"#utility.yul\":2687:2703   */\n      mload\n        /* \"#utility.yul\":2712:2743   */\n      tag_198\n        /* \"#utility.yul\":2737:2742   */\n      dup2\n        /* \"#utility.yul\":2712:2743   */\n      tag_183\n      jump\t// in\n        /* \"#utility.yul\":3646:4092   */\n    tag_110:\n        /* \"#utility.yul\":3734:3740   */\n      0x00\n        /* \"#utility.yul\":3742:3748   */\n      dup1\n        /* \"#utility.yul\":3750:3756   */\n      0x00\n        /* \"#utility.yul\":3803:3805   */\n      0x60\n        /* \"#utility.yul\":3791:3800   */\n      dup5\n        /* \"#utility.yul\":3782:3789   */\n      dup7\n        /* \"#utility.yul\":3778:3801   */\n      sub\n        /* \"#utility.yul\":3774:3806   */\n      slt\n        /* \"#utility.yul\":3771:3823   */\n      iszero\n      tag_211\n      jumpi\n        /* \"#utility.yul\":3819:3820   */\n      0x00\n        /* \"#utility.yul\":3816:3817   */\n      dup1\n        /* \"#utility.yul\":3809:3821   */\n      revert\n        /* \"#utility.yul\":3771:3823   */\n    tag_211:\n        /* \"#utility.yul\":3851:3860   */\n      dup4\n        /* \"#utility.yul\":3845:3861   */\n      mload\n        /* \"#utility.yul\":3870:3901   */\n      tag_212\n        /* \"#utility.yul\":3895:3900   */\n      dup2\n        /* \"#utility.yul\":3870:3901   */\n      tag_183\n      jump\t// in\n    tag_212:\n        /* \"#utility.yul\":3970:3972   */\n      0x20\n        /* \"#utility.yul\":3955:3973   */\n      dup6\n      add\n        /* \"#utility.yul\":3949:3974   */\n      mload\n        /* \"#utility.yul\":3920:3925   */\n      swap1\n      swap4\n      pop\n        /* \"#utility.yul\":3983:4016   */\n      tag_213\n        /* \"#utility.yul\":3949:3974   */\n      dup2\n        /* \"#utility.yul\":3983:4016   */\n      tag_183\n      jump\t// in\n    tag_213:\n        /* \"#utility.yul\":4035:4042   */\n      dup1\n        /* \"#utility.yul\":4025:4042   */\n      swap3\n      pop\n      pop\n        /* \"#utility.yul\":4082:4084   */\n      0x40\n        /* \"#utility.yul\":4071:4080   */\n      dup5\n        /* \"#utility.yul\":4067:4085   */\n      add\n        /* \"#utility.yul\":4061:4086   */\n      mload\n        /* \"#utility.yul\":4051:4086   */\n      swap1\n      pop\n        /* \"#utility.yul\":3646:4092   */\n      swap3\n      pop\n      swap3\n      pop\n      swap3\n      jump\t// out\n\n    auxdata: 0xa2646970667358221220dc7dea71cf51dcbf56fa8faf47afd763ab9976adf2ce7651e9cfe0e80a9c57d764736f6c63430008110033\n}\n",
				"bytecode": {
					"linkReferences": {},
					"object": "60a060405234801561001057600080fd5b50604051610e1c380380610e1c83398101604081905261002f91610099565b61003833610049565b6001600160a01b03166080526100c9565b600080546001600160a01b038381166001600160a01b0319831681178455604051919092169283917f8be0079c531659141344cd1fd0a4f28419497f9722a3daafe3b4186f6b6457e09190a35050565b6000602082840312156100ab57600080fd5b81516001600160a01b03811681146100c257600080fd5b9392505050565b608051610d1561010760003960008181610166015281816105010152818161058f015281816107a7015281816108710152610a980152610d156000f3fe608060405234801561001057600080fd5b50600436106100b45760003560e01c8063b9223c9d11610071578063b9223c9d14610140578063bc6bc0cd14610153578063c16f515614610161578063c54e549714610188578063e72ba456146101bc578063f2fde38b146101cf57600080fd5b806333bf6156146100b95780633755fa80146100dd578063715018a6146100f25780638da5cb5b146100fa578063ab0166701461011f578063b060dd8614610132575b600080fd5b6100c7636cdb3d1360e11b81565b6040516100d49190610ba5565b60405180910390f35b6100f06100eb366004610bcf565b6101e2565b005b6100f0610364565b6000546001600160a01b03165b6040516001600160a01b0390911681526020016100d4565b6100f061012d366004610bcf565b610378565b6100c763152a902d60e11b81565b6100f061014e366004610c20565b6104e3565b6100c76380ac58cd60e01b81565b6101077f000000000000000000000000000000000000000000000000000000000000000081565b61019b610196366004610c39565b610569565b604080516001600160a01b03909316835260ff9091166020830152016100d4565b6100f06101ca366004610c39565b610780565b6100f06101dd366004610c39565b6107d6565b6040516301ffc9a760e01b81526001600160a01b038516906301ffc9a7906102159063152a902d60e11b90600401610ba5565b602060405180830381865afa158015610232573d6000803e3d6000fd5b505050506040513d601f19601f820116820180604052508101906102569190610c5d565b1561029f5760405162461bcd60e51b8152602060048201526014602482015273204d757374206e6f74206265204552433239383160601b60448201526064015b60405180910390fd5b836001600160a01b0316638da5cb5b6040518163ffffffff1660e01b8152600401602060405180830381865afa1580156102dd573d6000803e3d6000fd5b505050506040513d601f19601f820116820180604052508101906103019190610c7f565b6001600160a01b0316336001600160a01b0316146103525760405162461bcd60e51b815260206004820152600e60248201526d102737ba103a34329037bbb732b960911b6044820152606401610296565b61035e8484848461084f565b50505050565b61036c610afb565b6103766000610b55565b565b6040516301ffc9a760e01b81526001600160a01b038516906301ffc9a7906103ab9063152a902d60e11b90600401610ba5565b602060405180830381865afa1580156103c8573d6000803e3d6000fd5b505050506040513d601f19601f820116820180604052508101906103ec9190610c5d565b156104305760405162461bcd60e51b8152602060048201526014602482015273204d757374206e6f74206265204552433239383160601b6044820152606401610296565b836001600160a01b031663f851a4406040518163ffffffff1660e01b8152600401602060405180830381865afa15801561046e573d6000803e3d6000fd5b505050506040513d601f19601f820116820180604052508101906104929190610c7f565b6001600160a01b0316336001600160a01b0316146103525760405162461bcd60e51b815260206004820152600e60248201526d102737ba103a34329030b236b4b760911b6044820152606401610296565b6104eb610afb565b60405163b9223c9d60e01b8152600481018290527f00000000000000000000000000000000000000000000000000000000000000006001600160a01b03169063b9223c9d906024015b600060405180830381600087803b15801561054e57600080fd5b505af1158015610562573d6000803e3d6000fd5b5050505050565b6040516338c7be4760e21b81526001600160a01b038281166004830152600091829182917f00000000000000000000000000000000000000000000000000000000000000009091169063e31ef91c90602401606060405180830381865afa1580156105d8573d6000803e3d6000fd5b505050506040513d601f19601f820116820180604052508101906105fc9190610c9c565b50909150506001600160a01b0381161561061a579360009350915050565b6040516301ffc9a760e01b81526001600160a01b038516906301ffc9a79061064d9063152a902d60e11b90600401610ba5565b602060405180830381865afa925050508015610686575060408051601f3d908101601f1916820190925261068391810190610c5d565b60015b156106a157801561069f57506000946001945092505050565b505b836001600160a01b0316638da5cb5b6040518163ffffffff1660e01b8152600401602060405180830381865afa9250505080156106fb575060408051601f3d908101601f191682019092526106f891810190610c7f565b60015b61077557836001600160a01b031663f851a4406040518163ffffffff1660e01b8152600401602060405180830381865afa925050508015610759575060408051601f3d908101601f1916820190925261075691810190610c7f565b60015b61076a575060009360049350915050565b946003945092505050565b946002945092505050565b610788610afb565b60405163f2fde38b60e01b81526001600160a01b0382811660048301527f0000000000000000000000000000000000000000000000000000000000000000169063f2fde38b90602401610534565b6107de610afb565b6001600160a01b0381166108435760405162461bcd60e51b815260206004820152602660248201527f4f776e61626c653a206e6577206f776e657220697320746865207a65726f206160448201526564647265737360d01b6064820152608401610296565b61084c81610b55565b50565b6040516338c7be4760e21b81526001600160a01b0385811660048301526000917f00000000000000000000000000000000000000000000000000000000000000009091169063e31ef91c90602401606060405180830381865afa1580156108ba573d6000803e3d6000fd5b505050506040513d601f19601f820116820180604052508101906108de9190610c9c565b50909150506001600160a01b038116156109285760405162461bcd60e51b815260206004820152600b60248201526a105b1c9958591e481cd95d60aa1b6044820152606401610296565b6040516301ffc9a760e01b81526001600160a01b038616906301ffc9a79061095b906380ac58cd60e01b90600401610ba5565b602060405180830381865afa158015610978573d6000803e3d6000fd5b505050506040513d601f19601f8201168201806040525081019061099c9190610c5d565b80610a1657506040516301ffc9a760e01b81526001600160a01b038616906301ffc9a7906109d590636cdb3d1360e11b90600401610ba5565b602060405180830381865afa1580156109f2573d6000803e3d6000fd5b505050506040513d601f19601f82011682018060405250810190610a169190610c5d565b610a625760405162461bcd60e51b815260206004820152601a60248201527f204e6f7420536574206f66204552433732312f455243313135350000000000006044820152606401610296565b60405163177bf36d60e31b81526001600160a01b03868116600483015285811660248301528481166044830152606482018490527f0000000000000000000000000000000000000000000000000000000000000000169063bbdf9b6890608401600060405180830381600087803b158015610adc57600080fd5b505af1158015610af0573d6000803e3d6000fd5b505050505050505050565b6000546001600160a01b031633146103765760405162461bcd60e51b815260206004820181905260248201527f4f776e61626c653a2063616c6c6572206973206e6f7420746865206f776e65726044820152606401610296565b600080546001600160a01b038381166001600160a01b0319831681178455604051919092169283917f8be0079c531659141344cd1fd0a4f28419497f9722a3daafe3b4186f6b6457e09190a35050565b6001600160e01b031991909116815260200190565b6001600160a01b038116811461084c57600080fd5b60008060008060808587031215610be557600080fd5b8435610bf081610bba565b93506020850135610c0081610bba565b92506040850135610c1081610bba565b9396929550929360600135925050565b600060208284031215610c3257600080fd5b5035919050565b600060208284031215610c4b57600080fd5b8135610c5681610bba565b9392505050565b600060208284031215610c6f57600080fd5b81518015158114610c5657600080fd5b600060208284031215610c9157600080fd5b8151610c5681610bba565b600080600060608486031215610cb157600080fd5b8351610cbc81610bba565b6020850151909350610ccd81610bba565b8092505060408401519050925092509256fea2646970667358221220dc7dea71cf51dcbf56fa8faf47afd763ab9976adf2ce7651e9cfe0e80a9c57d764736f6c63430008110033",
					"opcodes": "PUSH1 0xA0 PUSH1 0x40 MSTORE CALLVALUE DUP1 ISZERO PUSH2 0x10 JUMPI PUSH1 0x0 DUP1 REVERT JUMPDEST POP PUSH1 0x40 MLOAD PUSH2 0xE1C CODESIZE SUB DUP1 PUSH2 0xE1C DUP4 CODECOPY DUP2 ADD PUSH1 0x40 DUP2 SWAP1 MSTORE PUSH2 0x2F SWAP2 PUSH2 0x99 JUMP JUMPDEST PUSH2 0x38 CALLER PUSH2 0x49 JUMP JUMPDEST PUSH1 0x1 PUSH1 0x1 PUSH1 0xA0 SHL SUB AND PUSH1 0x80 MSTORE PUSH2 0xC9 JUMP JUMPDEST PUSH1 0x0 DUP1 SLOAD PUSH1 0x1 PUSH1 0x1 PUSH1 0xA0 SHL SUB DUP4 DUP2 AND PUSH1 0x1 PUSH1 0x1 PUSH1 0xA0 SHL SUB NOT DUP4 AND DUP2 OR DUP5 SSTORE PUSH1 0x40 MLOAD SWAP2 SWAP1 SWAP3 AND SWAP3 DUP4 SWAP2 PUSH32 0x8BE0079C531659141344CD1FD0A4F28419497F9722A3DAAFE3B4186F6B6457E0 SWAP2 SWAP1 LOG3 POP POP JUMP JUMPDEST PUSH1 0x0 PUSH1 0x20 DUP3 DUP5 SUB SLT ISZERO PUSH2 0xAB JUMPI PUSH1 0x0 DUP1 REVERT JUMPDEST DUP2 MLOAD PUSH1 0x1 PUSH1 0x1 PUSH1 0xA0 SHL SUB DUP2 AND DUP2 EQ PUSH2 0xC2 JUMPI PUSH1 0x0 DUP1 REVERT JUMPDEST SWAP4 SWAP3 POP POP POP JUMP JUMPDEST PUSH1 0x80 MLOAD PUSH2 0xD15 PUSH2 0x107 PUSH1 0x0 CODECOPY PUSH1 0x0 DUP2 DUP2 PUSH2 0x166 ADD MSTORE DUP2 DUP2 PUSH2 0x501 ADD MSTORE DUP2 DUP2 PUSH2 0x58F ADD MSTORE DUP2 DUP2 PUSH2 0x7A7 ADD MSTORE DUP2 DUP2 PUSH2 0x871 ADD MSTORE PUSH2 0xA98 ADD MSTORE PUSH2 0xD15 PUSH1 0x0 RETURN INVALID PUSH1 0x80 PUSH1 0x40 MSTORE CALLVALUE DUP1 ISZERO PUSH2 0x10 JUMPI PUSH1 0x0 DUP1 REVERT JUMPDEST POP PUSH1 0x4 CALLDATASIZE LT PUSH2 0xB4 JUMPI PUSH1 0x0 CALLDATALOAD PUSH1 0xE0 SHR DUP1 PUSH4 0xB9223C9D GT PUSH2 0x71 JUMPI DUP1 PUSH4 0xB9223C9D EQ PUSH2 0x140 JUMPI DUP1 PUSH4 0xBC6BC0CD EQ PUSH2 0x153 JUMPI DUP1 PUSH4 0xC16F5156 EQ PUSH2 0x161 JUMPI DUP1 PUSH4 0xC54E5497 EQ PUSH2 0x188 JUMPI DUP1 PUSH4 0xE72BA456 EQ PUSH2 0x1BC JUMPI DUP1 PUSH4 0xF2FDE38B EQ PUSH2 0x1CF JUMPI PUSH1 0x0 DUP1 REVERT JUMPDEST DUP1 PUSH4 0x33BF6156 EQ PUSH2 0xB9 JUMPI DUP1 PUSH4 0x3755FA80 EQ PUSH2 0xDD JUMPI DUP1 PUSH4 0x715018A6 EQ PUSH2 0xF2 JUMPI DUP1 PUSH4 0x8DA5CB5B EQ PUSH2 0xFA JUMPI DUP1 PUSH4 0xAB016670 EQ PUSH2 0x11F JUMPI DUP1 PUSH4 0xB060DD86 EQ PUSH2 0x132 JUMPI JUMPDEST PUSH1 0x0 DUP1 REVERT JUMPDEST PUSH2 0xC7 PUSH4 0x6CDB3D13 PUSH1 0xE1 SHL DUP2 JUMP JUMPDEST PUSH1 0x40 MLOAD PUSH2 0xD4 SWAP2 SWAP1 PUSH2 0xBA5 JUMP JUMPDEST PUSH1 0x40 MLOAD DUP1 SWAP2 SUB SWAP1 RETURN JUMPDEST PUSH2 0xF0 PUSH2 0xEB CALLDATASIZE PUSH1 0x4 PUSH2 0xBCF JUMP JUMPDEST PUSH2 0x1E2 JUMP JUMPDEST STOP JUMPDEST PUSH2 0xF0 PUSH2 0x364 JUMP JUMPDEST PUSH1 0x0 SLOAD PUSH1 0x1 PUSH1 0x1 PUSH1 0xA0 SHL SUB AND JUMPDEST PUSH1 0x40 MLOAD PUSH1 0x1 PUSH1 0x1 PUSH1 0xA0 SHL SUB SWAP1 SWAP2 AND DUP2 MSTORE PUSH1 0x20 ADD PUSH2 0xD4 JUMP JUMPDEST PUSH2 0xF0 PUSH2 0x12D CALLDATASIZE PUSH1 0x4 PUSH2 0xBCF JUMP JUMPDEST PUSH2 0x378 JUMP JUMPDEST PUSH2 0xC7 PUSH4 0x152A902D PUSH1 0xE1 SHL DUP2 JUMP JUMPDEST PUSH2 0xF0 PUSH2 0x14E CALLDATASIZE PUSH1 0x4 PUSH2 0xC20 JUMP JUMPDEST PUSH2 0x4E3 JUMP JUMPDEST PUSH2 0xC7 PUSH4 0x80AC58CD PUSH1 0xE0 SHL DUP2 JUMP JUMPDEST PUSH2 0x107 PUSH32 0x0 DUP2 JUMP JUMPDEST PUSH2 0x19B PUSH2 0x196 CALLDATASIZE PUSH1 0x4 PUSH2 0xC39 JUMP JUMPDEST PUSH2 0x569 JUMP JUMPDEST PUSH1 0x40 DUP1 MLOAD PUSH1 0x1 PUSH1 0x1 PUSH1 0xA0 SHL SUB SWAP1 SWAP4 AND DUP4 MSTORE PUSH1 0xFF SWAP1 SWAP2 AND PUSH1 0x20 DUP4 ADD MSTORE ADD PUSH2 0xD4 JUMP JUMPDEST PUSH2 0xF0 PUSH2 0x1CA CALLDATASIZE PUSH1 0x4 PUSH2 0xC39 JUMP JUMPDEST PUSH2 0x780 JUMP JUMPDEST PUSH2 0xF0 PUSH2 0x1DD CALLDATASIZE PUSH1 0x4 PUSH2 0xC39 JUMP JUMPDEST PUSH2 0x7D6 JUMP JUMPDEST PUSH1 0x40 MLOAD PUSH4 0x1FFC9A7 PUSH1 0xE0 SHL DUP2 MSTORE PUSH1 0x1 PUSH1 0x1 PUSH1 0xA0 SHL SUB DUP6 AND SWAP1 PUSH4 0x1FFC9A7 SWAP1 PUSH2 0x215 SWAP1 PUSH4 0x152A902D PUSH1 0xE1 SHL SWAP1 PUSH1 0x4 ADD PUSH2 0xBA5 JUMP JUMPDEST PUSH1 0x20 PUSH1 0x40 MLOAD DUP1 DUP4 SUB DUP2 DUP7 GAS STATICCALL ISZERO DUP1 ISZERO PUSH2 0x232 JUMPI RETURNDATASIZE PUSH1 0x0 DUP1 RETURNDATACOPY RETURNDATASIZE PUSH1 0x0 REVERT JUMPDEST POP POP POP POP PUSH1 0x40 MLOAD RETURNDATASIZE PUSH1 0x1F NOT PUSH1 0x1F DUP3 ADD AND DUP3 ADD DUP1 PUSH1 0x40 MSTORE POP DUP2 ADD SWAP1 PUSH2 0x256 SWAP2 SWAP1 PUSH2 0xC5D JUMP JUMPDEST ISZERO PUSH2 0x29F JUMPI PUSH1 0x40 MLOAD PUSH3 0x461BCD PUSH1 0xE5 SHL DUP2 MSTORE PUSH1 0x20 PUSH1 0x4 DUP3 ADD MSTORE PUSH1 0x14 PUSH1 0x24 DUP3 ADD MSTORE PUSH20 0x204D757374206E6F742062652045524332393831 PUSH1 0x60 SHL PUSH1 0x44 DUP3 ADD MSTORE PUSH1 0x64 ADD JUMPDEST PUSH1 0x40 MLOAD DUP1 SWAP2 SUB SWAP1 REVERT JUMPDEST DUP4 PUSH1 0x1 PUSH1 0x1 PUSH1 0xA0 SHL SUB AND PUSH4 0x8DA5CB5B PUSH1 0x40 MLOAD DUP2 PUSH4 0xFFFFFFFF AND PUSH1 0xE0 SHL DUP2 MSTORE PUSH1 0x4 ADD PUSH1 0x20 PUSH1 0x40 MLOAD DUP1 DUP4 SUB DUP2 DUP7 GAS STATICCALL ISZERO DUP1 ISZERO PUSH2 0x2DD JUMPI RETURNDATASIZE PUSH1 0x0 DUP1 RETURNDATACOPY RETURNDATASIZE PUSH1 0x0 REVERT JUMPDEST POP POP POP POP PUSH1 0x40 MLOAD RETURNDATASIZE PUSH1 0x1F NOT PUSH1 0x1F DUP3 ADD AND DUP3 ADD DUP1 PUSH1 0x40 MSTORE POP DUP2 ADD SWAP1 PUSH2 0x301 SWAP2 SWAP1 PUSH2 0xC7F JUMP JUMPDEST PUSH1 0x1 PUSH1 0x1 PUSH1 0xA0 SHL SUB AND CALLER PUSH1 0x1 PUSH1 0x1 PUSH1 0xA0 SHL SUB AND EQ PUSH2 0x352 JUMPI PUSH1 0x40 MLOAD PUSH3 0x461BCD PUSH1 0xE5 SHL DUP2 MSTORE PUSH1 0x20 PUSH1 0x4 DUP3 ADD MSTORE PUSH1 0xE PUSH1 0x24 DUP3 ADD MSTORE PUSH14 0x102737BA103A34329037BBB732B9 PUSH1 0x91 SHL PUSH1 0x44 DUP3 ADD MSTORE PUSH1 0x64 ADD PUSH2 0x296 JUMP JUMPDEST PUSH2 0x35E DUP5 DUP5 DUP5 DUP5 PUSH2 0x84F JUMP JUMPDEST POP POP POP POP JUMP JUMPDEST PUSH2 0x36C PUSH2 0xAFB JUMP JUMPDEST PUSH2 0x376 PUSH1 0x0 PUSH2 0xB55 JUMP JUMPDEST JUMP JUMPDEST PUSH1 0x40 MLOAD PUSH4 0x1FFC9A7 PUSH1 0xE0 SHL DUP2 MSTORE PUSH1 0x1 PUSH1 0x1 PUSH1 0xA0 SHL SUB DUP6 AND SWAP1 PUSH4 0x1FFC9A7 SWAP1 PUSH2 0x3AB SWAP1 PUSH4 0x152A902D PUSH1 0xE1 SHL SWAP1 PUSH1 0x4 ADD PUSH2 0xBA5 JUMP JUMPDEST PUSH1 0x20 PUSH1 0x40 MLOAD DUP1 DUP4 SUB DUP2 DUP7 GAS STATICCALL ISZERO DUP1 ISZERO PUSH2 0x3C8 JUMPI RETURNDATASIZE PUSH1 0x0 DUP1 RETURNDATACOPY RETURNDATASIZE PUSH1 0x0 REVERT JUMPDEST POP POP POP POP PUSH1 0x40 MLOAD RETURNDATASIZE PUSH1 0x1F NOT PUSH1 0x1F DUP3 ADD AND DUP3 ADD DUP1 PUSH1 0x40 MSTORE POP DUP2 ADD SWAP1 PUSH2 0x3EC SWAP2 SWAP1 PUSH2 0xC5D JUMP JUMPDEST ISZERO PUSH2 0x430 JUMPI PUSH1 0x40 MLOAD PUSH3 0x461BCD PUSH1 0xE5 SHL DUP2 MSTORE PUSH1 0x20 PUSH1 0x4 DUP3 ADD MSTORE PUSH1 0x14 PUSH1 0x24 DUP3 ADD MSTORE PUSH20 0x204D757374206E6F742062652045524332393831 PUSH1 0x60 SHL PUSH1 0x44 DUP3 ADD MSTORE PUSH1 0x64 ADD PUSH2 0x296 JUMP JUMPDEST DUP4 PUSH1 0x1 PUSH1 0x1 PUSH1 0xA0 SHL SUB AND PUSH4 0xF851A440 PUSH1 0x40 MLOAD DUP2 PUSH4 0xFFFFFFFF AND PUSH1 0xE0 SHL DUP2 MSTORE PUSH1 0x4 ADD PUSH1 0x20 PUSH1 0x40 MLOAD DUP1 DUP4 SUB DUP2 DUP7 GAS STATICCALL ISZERO DUP1 ISZERO PUSH2 0x46E JUMPI RETURNDATASIZE PUSH1 0x0 DUP1 RETURNDATACOPY RETURNDATASIZE PUSH1 0x0 REVERT JUMPDEST POP POP POP POP PUSH1 0x40 MLOAD RETURNDATASIZE PUSH1 0x1F NOT PUSH1 0x1F DUP3 ADD AND DUP3 ADD DUP1 PUSH1 0x40 MSTORE POP DUP2 ADD SWAP1 PUSH2 0x492 SWAP2 SWAP1 PUSH2 0xC7F JUMP JUMPDEST PUSH1 0x1 PUSH1 0x1 PUSH1 0xA0 SHL SUB AND CALLER PUSH1 0x1 PUSH1 0x1 PUSH1 0xA0 SHL SUB AND EQ PUSH2 0x352 JUMPI PUSH1 0x40 MLOAD PUSH3 0x461BCD PUSH1 0xE5 SHL DUP2 MSTORE PUSH1 0x20 PUSH1 0x4 DUP3 ADD MSTORE PUSH1 0xE PUSH1 0x24 DUP3 ADD MSTORE PUSH14 0x102737BA103A34329030B236B4B7 PUSH1 0x91 SHL PUSH1 0x44 DUP3 ADD MSTORE PUSH1 0x64 ADD PUSH2 0x296 JUMP JUMPDEST PUSH2 0x4EB PUSH2 0xAFB JUMP JUMPDEST PUSH1 0x40 MLOAD PUSH4 0xB9223C9D PUSH1 0xE0 SHL DUP2 MSTORE PUSH1 0x4 DUP2 ADD DUP3 SWAP1 MSTORE PUSH32 0x0 PUSH1 0x1 PUSH1 0x1 PUSH1 0xA0 SHL SUB AND SWAP1 PUSH4 0xB9223C9D SWAP1 PUSH1 0x24 ADD JUMPDEST PUSH1 0x0 PUSH1 0x40 MLOAD DUP1 DUP4 SUB DUP2 PUSH1 0x0 DUP8 DUP1 EXTCODESIZE ISZERO DUP1 ISZERO PUSH2 0x54E JUMPI PUSH1 0x0 DUP1 REVERT JUMPDEST POP GAS CALL ISZERO DUP1 ISZERO PUSH2 0x562 JUMPI RETURNDATASIZE PUSH1 0x0 DUP1 RETURNDATACOPY RETURNDATASIZE PUSH1 0x0 REVERT JUMPDEST POP POP POP POP POP JUMP JUMPDEST PUSH1 0x40 MLOAD PUSH4 0x38C7BE47 PUSH1 0xE2 SHL DUP2 MSTORE PUSH1 0x1 PUSH1 0x1 PUSH1 0xA0 SHL SUB DUP3 DUP2 AND PUSH1 0x4 DUP4 ADD MSTORE PUSH1 0x0 SWAP2 DUP3 SWAP2 DUP3 SWAP2 PUSH32 0x0 SWAP1 SWAP2 AND SWAP1 PUSH4 0xE31EF91C SWAP1 PUSH1 0x24 ADD PUSH1 0x60 PUSH1 0x40 MLOAD DUP1 DUP4 SUB DUP2 DUP7 GAS STATICCALL ISZERO DUP1 ISZERO PUSH2 0x5D8 JUMPI RETURNDATASIZE PUSH1 0x0 DUP1 RETURNDATACOPY RETURNDATASIZE PUSH1 0x0 REVERT JUMPDEST POP POP POP POP PUSH1 0x40 MLOAD RETURNDATASIZE PUSH1 0x1F NOT PUSH1 0x1F DUP3 ADD AND DUP3 ADD DUP1 PUSH1 0x40 MSTORE POP DUP2 ADD SWAP1 PUSH2 0x5FC SWAP2 SWAP1 PUSH2 0xC9C JUMP JUMPDEST POP SWAP1 SWAP2 POP POP PUSH1 0x1 PUSH1 0x1 PUSH1 0xA0 SHL SUB DUP2 AND ISZERO PUSH2 0x61A JUMPI SWAP4 PUSH1 0x0 SWAP4 POP SWAP2 POP POP JUMP JUMPDEST PUSH1 0x40 MLOAD PUSH4 0x1FFC9A7 PUSH1 0xE0 SHL DUP2 MSTORE PUSH1 0x1 PUSH1 0x1 PUSH1 0xA0 SHL SUB DUP6 AND SWAP1 PUSH4 0x1FFC9A7 SWAP1 PUSH2 0x64D SWAP1 PUSH4 0x152A902D PUSH1 0xE1 SHL SWAP1 PUSH1 0x4 ADD PUSH2 0xBA5 JUMP JUMPDEST PUSH1 0x20 PUSH1 0x40 MLOAD DUP1 DUP4 SUB DUP2 DUP7 GAS STATICCALL SWAP3 POP POP POP DUP1 ISZERO PUSH2 0x686 JUMPI POP PUSH1 0x40 DUP1 MLOAD PUSH1 0x1F RETURNDATASIZE SWAP1 DUP2 ADD PUSH1 0x1F NOT AND DUP3 ADD SWAP1 SWAP3 MSTORE PUSH2 0x683 SWAP2 DUP2 ADD SWAP1 PUSH2 0xC5D JUMP JUMPDEST PUSH1 0x1 JUMPDEST ISZERO PUSH2 0x6A1 JUMPI DUP1 ISZERO PUSH2 0x69F JUMPI POP PUSH1 0x0 SWAP5 PUSH1 0x1 SWAP5 POP SWAP3 POP POP POP JUMP JUMPDEST POP JUMPDEST DUP4 PUSH1 0x1 PUSH1 0x1 PUSH1 0xA0 SHL SUB AND PUSH4 0x8DA5CB5B PUSH1 0x40 MLOAD DUP2 PUSH4 0xFFFFFFFF AND PUSH1 0xE0 SHL DUP2 MSTORE PUSH1 0x4 ADD PUSH1 0x20 PUSH1 0x40 MLOAD DUP1 DUP4 SUB DUP2 DUP7 GAS STATICCALL SWAP3 POP POP POP DUP1 ISZERO PUSH2 0x6FB JUMPI POP PUSH1 0x40 DUP1 MLOAD PUSH1 0x1F RETURNDATASIZE SWAP1 DUP2 ADD PUSH1 0x1F NOT AND DUP3 ADD SWAP1 SWAP3 MSTORE PUSH2 0x6F8 SWAP2 DUP2 ADD SWAP1 PUSH2 0xC7F JUMP JUMPDEST PUSH1 0x1 JUMPDEST PUSH2 0x775 JUMPI DUP4 PUSH1 0x1 PUSH1 0x1 PUSH1 0xA0 SHL SUB AND PUSH4 0xF851A440 PUSH1 0x40 MLOAD DUP2 PUSH4 0xFFFFFFFF AND PUSH1 0xE0 SHL DUP2 MSTORE PUSH1 0x4 ADD PUSH1 0x20 PUSH1 0x40 MLOAD DUP1 DUP4 SUB DUP2 DUP7 GAS STATICCALL SWAP3 POP POP POP DUP1 ISZERO PUSH2 0x759 JUMPI POP PUSH1 0x40 DUP1 MLOAD PUSH1 0x1F RETURNDATASIZE SWAP1 DUP2 ADD PUSH1 0x1F NOT AND DUP3 ADD SWAP1 SWAP3 MSTORE PUSH2 0x756 SWAP2 DUP2 ADD SWAP1 PUSH2 0xC7F JUMP JUMPDEST PUSH1 0x1 JUMPDEST PUSH2 0x76A JUMPI POP PUSH1 0x0 SWAP4 PUSH1 0x4 SWAP4 POP SWAP2 POP POP JUMP JUMPDEST SWAP5 PUSH1 0x3 SWAP5 POP SWAP3 POP POP POP JUMP JUMPDEST SWAP5 PUSH1 0x2 SWAP5 POP SWAP3 POP POP POP JUMP JUMPDEST PUSH2 0x788 PUSH2 0xAFB JUMP JUMPDEST PUSH1 0x40 MLOAD PUSH4 0xF2FDE38B PUSH1 0xE0 SHL DUP2 MSTORE PUSH1 0x1 PUSH1 0x1 PUSH1 0xA0 SHL SUB DUP3 DUP2 AND PUSH1 0x4 DUP4 ADD MSTORE PUSH32 0x0 AND SWAP1 PUSH4 0xF2FDE38B SWAP1 PUSH1 0x24 ADD PUSH2 0x534 JUMP JUMPDEST PUSH2 0x7DE PUSH2 0xAFB JUMP JUMPDEST PUSH1 0x1 PUSH1 0x1 PUSH1 0xA0 SHL SUB DUP2 AND PUSH2 0x843 JUMPI PUSH1 0x40 MLOAD PUSH3 0x461BCD PUSH1 0xE5 SHL DUP2 MSTORE PUSH1 0x20 PUSH1 0x4 DUP3 ADD MSTORE PUSH1 0x26 PUSH1 0x24 DUP3 ADD MSTORE PUSH32 0x4F776E61626C653A206E6577206F776E657220697320746865207A65726F2061 PUSH1 0x44 DUP3 ADD MSTORE PUSH6 0x646472657373 PUSH1 0xD0 SHL PUSH1 0x64 DUP3 ADD MSTORE PUSH1 0x84 ADD PUSH2 0x296 JUMP JUMPDEST PUSH2 0x84C DUP2 PUSH2 0xB55 JUMP JUMPDEST POP JUMP JUMPDEST PUSH1 0x40 MLOAD PUSH4 0x38C7BE47 PUSH1 0xE2 SHL DUP2 MSTORE PUSH1 0x1 PUSH1 0x1 PUSH1 0xA0 SHL SUB DUP6 DUP2 AND PUSH1 0x4 DUP4 ADD MSTORE PUSH1 0x0 SWAP2 PUSH32 0x0 SWAP1 SWAP2 AND SWAP1 PUSH4 0xE31EF91C SWAP1 PUSH1 0x24 ADD PUSH1 0x60 PUSH1 0x40 MLOAD DUP1 DUP4 SUB DUP2 DUP7 GAS STATICCALL ISZERO DUP1 ISZERO PUSH2 0x8BA JUMPI RETURNDATASIZE PUSH1 0x0 DUP1 RETURNDATACOPY RETURNDATASIZE PUSH1 0x0 REVERT JUMPDEST POP POP POP POP PUSH1 0x40 MLOAD RETURNDATASIZE PUSH1 0x1F NOT PUSH1 0x1F DUP3 ADD AND DUP3 ADD DUP1 PUSH1 0x40 MSTORE POP DUP2 ADD SWAP1 PUSH2 0x8DE SWAP2 SWAP1 PUSH2 0xC9C JUMP JUMPDEST POP SWAP1 SWAP2 POP POP PUSH1 0x1 PUSH1 0x1 PUSH1 0xA0 SHL SUB DUP2 AND ISZERO PUSH2 0x928 JUMPI PUSH1 0x40 MLOAD PUSH3 0x461BCD PUSH1 0xE5 SHL DUP2 MSTORE PUSH1 0x20 PUSH1 0x4 DUP3 ADD MSTORE PUSH1 0xB PUSH1 0x24 DUP3 ADD MSTORE PUSH11 0x105B1C9958591E481CD95D PUSH1 0xAA SHL PUSH1 0x44 DUP3 ADD MSTORE PUSH1 0x64 ADD PUSH2 0x296 JUMP JUMPDEST PUSH1 0x40 MLOAD PUSH4 0x1FFC9A7 PUSH1 0xE0 SHL DUP2 MSTORE PUSH1 0x1 PUSH1 0x1 PUSH1 0xA0 SHL SUB DUP7 AND SWAP1 PUSH4 0x1FFC9A7 SWAP1 PUSH2 0x95B SWAP1 PUSH4 0x80AC58CD PUSH1 0xE0 SHL SWAP1 PUSH1 0x4 ADD PUSH2 0xBA5 JUMP JUMPDEST PUSH1 0x20 PUSH1 0x40 MLOAD DUP1 DUP4 SUB DUP2 DUP7 GAS STATICCALL ISZERO DUP1 ISZERO PUSH2 0x978 JUMPI RETURNDATASIZE PUSH1 0x0 DUP1 RETURNDATACOPY RETURNDATASIZE PUSH1 0x0 REVERT JUMPDEST POP POP POP POP PUSH1 0x40 MLOAD RETURNDATASIZE PUSH1 0x1F NOT PUSH1 0x1F DUP3 ADD AND DUP3 ADD DUP1 PUSH1 0x40 MSTORE POP DUP2 ADD SWAP1 PUSH2 0x99C SWAP2 SWAP1 PUSH2 0xC5D JUMP JUMPDEST DUP1 PUSH2 0xA16 JUMPI POP PUSH1 0x40 MLOAD PUSH4 0x1FFC9A7 PUSH1 0xE0 SHL DUP2 MSTORE PUSH1 0x1 PUSH1 0x1 PUSH1 0xA0 SHL SUB DUP7 AND SWAP1 PUSH4 0x1FFC9A7 SWAP1 PUSH2 0x9D5 SWAP1 PUSH4 0x6CDB3D13 PUSH1 0xE1 SHL SWAP1 PUSH1 0x4 ADD PUSH2 0xBA5 JUMP JUMPDEST PUSH1 0x20 PUSH1 0x40 MLOAD DUP1 DUP4 SUB DUP2 DUP7 GAS STATICCALL ISZERO DUP1 ISZERO PUSH2 0x9F2 JUMPI RETURNDATASIZE PUSH1 0x0 DUP1 RETURNDATACOPY RETURNDATASIZE PUSH1 0x0 REVERT JUMPDEST POP POP POP POP PUSH1 0x40 MLOAD RETURNDATASIZE PUSH1 0x1F NOT PUSH1 0x1F DUP3 ADD AND DUP3 ADD DUP1 PUSH1 0x40 MSTORE POP DUP2 ADD SWAP1 PUSH2 0xA16 SWAP2 SWAP1 PUSH2 0xC5D JUMP JUMPDEST PUSH2 0xA62 JUMPI PUSH1 0x40 MLOAD PUSH3 0x461BCD PUSH1 0xE5 SHL DUP2 MSTORE PUSH1 0x20 PUSH1 0x4 DUP3 ADD MSTORE PUSH1 0x1A PUSH1 0x24 DUP3 ADD MSTORE PUSH32 0x204E6F7420536574206F66204552433732312F45524331313535000000000000 PUSH1 0x44 DUP3 ADD MSTORE PUSH1 0x64 ADD PUSH2 0x296 JUMP JUMPDEST PUSH1 0x40 MLOAD PUSH4 0x177BF36D PUSH1 0xE3 SHL DUP2 MSTORE PUSH1 0x1 PUSH1 0x1 PUSH1 0xA0 SHL SUB DUP7 DUP2 AND PUSH1 0x4 DUP4 ADD MSTORE DUP6 DUP2 AND PUSH1 0x24 DUP4 ADD MSTORE DUP5 DUP2 AND PUSH1 0x44 DUP4 ADD MSTORE PUSH1 0x64 DUP3 ADD DUP5 SWAP1 MSTORE PUSH32 0x0 AND SWAP1 PUSH4 0xBBDF9B68 SWAP1 PUSH1 0x84 ADD PUSH1 0x0 PUSH1 0x40 MLOAD DUP1 DUP4 SUB DUP2 PUSH1 0x0 DUP8 DUP1 EXTCODESIZE ISZERO DUP1 ISZERO PUSH2 0xADC JUMPI PUSH1 0x0 DUP1 REVERT JUMPDEST POP GAS CALL ISZERO DUP1 ISZERO PUSH2 0xAF0 JUMPI RETURNDATASIZE PUSH1 0x0 DUP1 RETURNDATACOPY RETURNDATASIZE PUSH1 0x0 REVERT JUMPDEST POP POP POP POP POP POP POP POP POP JUMP JUMPDEST PUSH1 0x0 SLOAD PUSH1 0x1 PUSH1 0x1 PUSH1 0xA0 SHL SUB AND CALLER EQ PUSH2 0x376 JUMPI PUSH1 0x40 MLOAD PUSH3 0x461BCD PUSH1 0xE5 SHL DUP2 MSTORE PUSH1 0x20 PUSH1 0x4 DUP3 ADD DUP2 SWAP1 MSTORE PUSH1 0x24 DUP3 ADD MSTORE PUSH32 0x4F776E61626C653A2063616C6C6572206973206E6F7420746865206F776E6572 PUSH1 0x44 DUP3 ADD MSTORE PUSH1 0x64 ADD PUSH2 0x296 JUMP JUMPDEST PUSH1 0x0 DUP1 SLOAD PUSH1 0x1 PUSH1 0x1 PUSH1 0xA0 SHL SUB DUP4 DUP2 AND PUSH1 0x1 PUSH1 0x1 PUSH1 0xA0 SHL SUB NOT DUP4 AND DUP2 OR DUP5 SSTORE PUSH1 0x40 MLOAD SWAP2 SWAP1 SWAP3 AND SWAP3 DUP4 SWAP2 PUSH32 0x8BE0079C531659141344CD1FD0A4F28419497F9722A3DAAFE3B4186F6B6457E0 SWAP2 SWAP1 LOG3 POP POP JUMP JUMPDEST PUSH1 0x1 PUSH1 0x1 PUSH1 0xE0 SHL SUB NOT SWAP2 SWAP1 SWAP2 AND DUP2 MSTORE PUSH1 0x20 ADD SWAP1 JUMP JUMPDEST PUSH1 0x1 PUSH1 0x1 PUSH1 0xA0 SHL SUB DUP2 AND DUP2 EQ PUSH2 0x84C JUMPI PUSH1 0x0 DUP1 REVERT JUMPDEST PUSH1 0x0 DUP1 PUSH1 0x0 DUP1 PUSH1 0x80 DUP6 DUP8 SUB SLT ISZERO PUSH2 0xBE5 JUMPI PUSH1 0x0 DUP1 REVERT JUMPDEST DUP5 CALLDATALOAD PUSH2 0xBF0 DUP2 PUSH2 0xBBA JUMP JUMPDEST SWAP4 POP PUSH1 0x20 DUP6 ADD CALLDATALOAD PUSH2 0xC00 DUP2 PUSH2 0xBBA JUMP JUMPDEST SWAP3 POP PUSH1 0x40 DUP6 ADD CALLDATALOAD PUSH2 0xC10 DUP2 PUSH2 0xBBA JUMP JUMPDEST SWAP4 SWAP7 SWAP3 SWAP6 POP SWAP3 SWAP4 PUSH1 0x60 ADD CALLDATALOAD SWAP3 POP POP JUMP JUMPDEST PUSH1 0x0 PUSH1 0x20 DUP3 DUP5 SUB SLT ISZERO PUSH2 0xC32 JUMPI PUSH1 0x0 DUP1 REVERT JUMPDEST POP CALLDATALOAD SWAP2 SWAP1 POP JUMP JUMPDEST PUSH1 0x0 PUSH1 0x20 DUP3 DUP5 SUB SLT ISZERO PUSH2 0xC4B JUMPI PUSH1 0x0 DUP1 REVERT JUMPDEST DUP2 CALLDATALOAD PUSH2 0xC56 DUP2 PUSH2 0xBBA JUMP JUMPDEST SWAP4 SWAP3 POP POP POP JUMP JUMPDEST PUSH1 0x0 PUSH1 0x20 DUP3 DUP5 SUB SLT ISZERO PUSH2 0xC6F JUMPI PUSH1 0x0 DUP1 REVERT JUMPDEST DUP2 MLOAD DUP1 ISZERO ISZERO DUP2 EQ PUSH2 0xC56 JUMPI PUSH1 0x0 DUP1 REVERT JUMPDEST PUSH1 0x0 PUSH1 0x20 DUP3 DUP5 SUB SLT ISZERO PUSH2 0xC91 JUMPI PUSH1 0x0 DUP1 REVERT JUMPDEST DUP2 MLOAD PUSH2 0xC56 DUP2 PUSH2 0xBBA JUMP JUMPDEST PUSH1 0x0 DUP1 PUSH1 0x0 PUSH1 0x60 DUP5 DUP7 SUB SLT ISZERO PUSH2 0xCB1 JUMPI PUSH1 0x0 DUP1 REVERT JUMPDEST DUP4 MLOAD PUSH2 0xCBC DUP2 PUSH2 0xBBA JUMP JUMPDEST PUSH1 0x20 DUP6 ADD MLOAD SWAP1 SWAP4 POP PUSH2 0xCCD DUP2 PUSH2 0xBBA JUMP JUMPDEST DUP1 SWAP3 POP POP PUSH1 0x40 DUP5 ADD MLOAD SWAP1 POP SWAP3 POP SWAP3 POP SWAP3 JUMP INVALID LOG2 PUSH5 0x6970667358 0x22 SLT KECCAK256 0xDC PUSH30 0xEA71CF51DCBF56FA8FAF47AFD763AB9976ADF2CE7651E9CFE0E80A9C57D7 PUSH5 0x736F6C6343 STOP ADDMOD GT STOP CALLER "
				},
				"gasEstimates": {
					"creation": {
						"codeDepositCost": "669800",
						"executionCost": "infinite",
						"totalCost": "infinite"
					},
					"external": {
						"INTERFACE_ID_ERC1155()": "250",
						"INTERFACE_ID_ERC2981()": "360",
						"INTERFACE_ID_ERC721()": "271",
						"checkForCollectionSetter(address)": "infinite",
						"owner()": "2387",
						"renounceOwnership()": "infinite",
						"royaltyFeeRegistry()": "infinite",
						"transferOwnership(address)": "infinite",
						"updateOwnerOfRoyaltyFeeRegistry(address)": "infinite",
						"updateRoyaltyFeeLimit(uint256)": "infinite",
						"updateRoyaltyInfoForCollectionIfAdmin(address,address,address,uint256)": "infinite",
						"updateRoyaltyInfoForCollectionIfOwner(address,address,address,uint256)": "infinite"
					},
					"internal": {
						"_updateRoyaltyInfoForCollectionIfOwnerOrAdmin(address,address,address,uint256)": "infinite"
					}
				},
				"methodIdentifiers": {
					"INTERFACE_ID_ERC1155()": "33bf6156",
					"INTERFACE_ID_ERC2981()": "b060dd86",
					"INTERFACE_ID_ERC721()": "bc6bc0cd",
					"checkForCollectionSetter(address)": "c54e5497",
					"owner()": "8da5cb5b",
					"renounceOwnership()": "715018a6",
					"royaltyFeeRegistry()": "c16f5156",
					"transferOwnership(address)": "f2fde38b",
					"updateOwnerOfRoyaltyFeeRegistry(address)": "e72ba456",
					"updateRoyaltyFeeLimit(uint256)": "b9223c9d",
					"updateRoyaltyInfoForCollectionIfAdmin(address,address,address,uint256)": "ab016670",
					"updateRoyaltyInfoForCollectionIfOwner(address,address,address,uint256)": "3755fa80"
				}
			},
			"storageLayout": {
				"storage": [
					{
						"astId": 7,
						"contract": "contracts/Manager/royalty/RoyaltyFeeSetter.sol:RoyaltyFeeSetter",
						"label": "_owner",
						"offset": 0,
						"slot": "0",
						"type": "t_address"
					}
				],
				"types": {
					"t_address": {
						"encoding": "inplace",
						"label": "address",
						"numberOfBytes": "20"
					}
				}
			},
			"userdoc": {
				"kind": "user",
				"methods": {},
				"version": 1
			}
		}
	}
}