{
	"contracts/Manager/royalty/RoyaltyFeeSetter.sol": {
		"RoyaltyFeeSetter": {
			"abi": [
				{
					"inputs": [
						{
							"internalType": "address",
							"name": "_royaltyFeeRegistry",
							"type": "address"
						}
					],
					"stateMutability": "nonpayable",
					"type": "constructor"
				},
				{
					"anonymous": false,
					"inputs": [
						{
							"indexed": true,
							"internalType": "address",
							"name": "previousOwner",
							"type": "address"
						},
						{
							"indexed": true,
							"internalType": "address",
							"name": "newOwner",
							"type": "address"
						}
					],
					"name": "OwnershipTransferred",
					"type": "event"
				},
				{
					"inputs": [],
					"name": "INTERFACE_ID_ERC1155",
					"outputs": [
						{
							"internalType": "bytes4",
							"name": "",
							"type": "bytes4"
						}
					],
					"stateMutability": "view",
					"type": "function"
				},
				{
					"inputs": [],
					"name": "INTERFACE_ID_ERC2981",
					"outputs": [
						{
							"internalType": "bytes4",
							"name": "",
							"type": "bytes4"
						}
					],
					"stateMutability": "view",
					"type": "function"
				},
				{
					"inputs": [],
					"name": "INTERFACE_ID_ERC721",
					"outputs": [
						{
							"internalType": "bytes4",
							"name": "",
							"type": "bytes4"
						}
					],
					"stateMutability": "view",
					"type": "function"
				},
				{
					"inputs": [
						{
							"internalType": "address",
							"name": "collection",
							"type": "address"
						}
					],
					"name": "checkForCollectionSetter",
					"outputs": [
						{
							"internalType": "address",
							"name": "",
							"type": "address"
						},
						{
							"internalType": "uint8",
							"name": "",
							"type": "uint8"
						}
					],
					"stateMutability": "view",
					"type": "function"
				},
				{
					"inputs": [],
					"name": "owner",
					"outputs": [
						{
							"internalType": "address",
							"name": "",
							"type": "address"
						}
					],
					"stateMutability": "view",
					"type": "function"
				},
				{
					"inputs": [],
					"name": "renounceOwnership",
					"outputs": [],
					"stateMutability": "nonpayable",
					"type": "function"
				},
				{
					"inputs": [],
					"name": "royaltyFeeRegistry",
					"outputs": [
						{
							"internalType": "address",
							"name": "",
							"type": "address"
						}
					],
					"stateMutability": "view",
					"type": "function"
				},
				{
					"inputs": [
						{
							"internalType": "address",
							"name": "newOwner",
							"type": "address"
						}
					],
					"name": "transferOwnership",
					"outputs": [],
					"stateMutability": "nonpayable",
					"type": "function"
				},
				{
					"inputs": [
						{
							"internalType": "address",
							"name": "_owner",
							"type": "address"
						}
					],
					"name": "updateOwnerOfRoyaltyFeeRegistry",
					"outputs": [],
					"stateMutability": "nonpayable",
					"type": "function"
				},
				{
					"inputs": [
						{
							"internalType": "uint256",
							"name": "_royaltyFeeLimit",
							"type": "uint256"
						}
					],
					"name": "updateRoyaltyFeeLimit",
					"outputs": [],
					"stateMutability": "nonpayable",
					"type": "function"
				},
				{
					"inputs": [
						{
							"internalType": "address",
							"name": "collection",
							"type": "address"
						},
						{
							"internalType": "address",
							"name": "setter",
							"type": "address"
						},
						{
							"internalType": "address",
							"name": "receiver",
							"type": "address"
						},
						{
							"internalType": "uint256",
							"name": "fee",
							"type": "uint256"
						}
					],
					"name": "updateRoyaltyInfoForCollectionIfAdmin",
					"outputs": [],
					"stateMutability": "nonpayable",
					"type": "function"
				},
				{
					"inputs": [
						{
							"internalType": "address",
							"name": "collection",
							"type": "address"
						},
						{
							"internalType": "address",
							"name": "setter",
							"type": "address"
						},
						{
							"internalType": "address",
							"name": "receiver",
							"type": "address"
						},
						{
							"internalType": "uint256",
							"name": "fee",
							"type": "uint256"
						}
					],
					"name": "updateRoyaltyInfoForCollectionIfOwner",
					"outputs": [],
					"stateMutability": "nonpayable",
					"type": "function"
				},
				{
					"inputs": [
						{
							"internalType": "address",
							"name": "collection",
							"type": "address"
						},
						{
							"internalType": "address",
							"name": "setter",
							"type": "address"
						},
						{
							"internalType": "address",
							"name": "receiver",
							"type": "address"
						},
						{
							"internalType": "uint256",
							"name": "fee",
							"type": "uint256"
						}
					],
					"name": "updateRoyaltyInfoForCollectionIfSetter",
					"outputs": [],
					"stateMutability": "nonpayable",
					"type": "function"
				}
			],
			"devdoc": {
				"kind": "dev",
				"methods": {
					"owner()": {
						"details": "Returns the address of the current owner."
					},
					"renounceOwnership()": {
						"details": "Leaves the contract without owner. It will not be possible to call `onlyOwner` functions anymore. Can only be called by the current owner. NOTE: Renouncing ownership will leave the contract without an owner, thereby removing any functionality that is only available to the owner."
					},
					"transferOwnership(address)": {
						"details": "Transfers ownership of the contract to a new account (`newOwner`). Can only be called by the current owner."
					}
				},
				"version": 1
			},
			"evm": {
				"assembly": "    /* \"contracts/Manager/royalty/RoyaltyFeeSetter.sol\":358:5830  contract RoyaltyFeeSetter is Ownable {... */\n  mstore(0x40, 0xa0)\n    /* \"contracts/Manager/royalty/RoyaltyFeeSetter.sol\":761:859  constructor(address _royaltyFeeRegistry) {... */\n  callvalue\n  dup1\n  iszero\n  tag_1\n  jumpi\n  0x00\n  dup1\n  revert\ntag_1:\n  pop\n  mload(0x40)\n  sub(codesize, bytecodeSize)\n  dup1\n  bytecodeSize\n  dup4\n  codecopy\n  dup2\n  add\n  0x40\n  dup2\n  swap1\n  mstore\n  tag_2\n  swap2\n  tag_3\n  jump\t// in\ntag_2:\n    /* \"@openzeppelin/contracts/access/Ownable.sol\":936:968  _transferOwnership(_msgSender()) */\n  tag_7\n    /* \"@openzeppelin/contracts/utils/Context.sol\":719:729  msg.sender */\n  caller\n    /* \"@openzeppelin/contracts/access/Ownable.sol\":936:954  _transferOwnership */\n  tag_10\n    /* \"@openzeppelin/contracts/access/Ownable.sol\":936:968  _transferOwnership(_msgSender()) */\n  jump\t// in\ntag_7:\n  sub(shl(0xa0, 0x01), 0x01)\n    /* \"contracts/Manager/royalty/RoyaltyFeeSetter.sol\":812:852  royaltyFeeRegistry = _royaltyFeeRegistry */\n  and\n  0x80\n  mstore\n    /* \"contracts/Manager/royalty/RoyaltyFeeSetter.sol\":358:5830  contract RoyaltyFeeSetter is Ownable {... */\n  jump(tag_15)\n    /* \"@openzeppelin/contracts/access/Ownable.sol\":2433:2620  function _transferOwnership(address newOwner) internal virtual {... */\ntag_10:\n    /* \"@openzeppelin/contracts/access/Ownable.sol\":2506:2522  address oldOwner */\n  0x00\n    /* \"@openzeppelin/contracts/access/Ownable.sol\":2525:2531  _owner */\n  dup1\n  sload\n  sub(shl(0xa0, 0x01), 0x01)\n    /* \"@openzeppelin/contracts/access/Ownable.sol\":2541:2558  _owner = newOwner */\n  dup4\n  dup2\n  and\n  not(sub(shl(0xa0, 0x01), 0x01))\n  dup4\n  and\n  dup2\n  or\n  dup5\n  sstore\n    /* \"@openzeppelin/contracts/access/Ownable.sol\":2573:2613  OwnershipTransferred(oldOwner, newOwner) */\n  mload(0x40)\n    /* \"@openzeppelin/contracts/access/Ownable.sol\":2525:2531  _owner */\n  swap2\n  swap1\n  swap3\n  and\n  swap3\n  dup4\n  swap2\n    /* \"@openzeppelin/contracts/access/Ownable.sol\":2573:2613  OwnershipTransferred(oldOwner, newOwner) */\n  0x8be0079c531659141344cd1fd0a4f28419497f9722a3daafe3b4186f6b6457e0\n  swap2\n    /* \"@openzeppelin/contracts/access/Ownable.sol\":2506:2522  address oldOwner */\n  swap1\n    /* \"@openzeppelin/contracts/access/Ownable.sol\":2573:2613  OwnershipTransferred(oldOwner, newOwner) */\n  log3\n    /* \"@openzeppelin/contracts/access/Ownable.sol\":2496:2620  {... */\n  pop\n    /* \"@openzeppelin/contracts/access/Ownable.sol\":2433:2620  function _transferOwnership(address newOwner) internal virtual {... */\n  pop\n  jump\t// out\n    /* \"#utility.yul\":14:304   */\ntag_3:\n    /* \"#utility.yul\":84:90   */\n  0x00\n    /* \"#utility.yul\":137:139   */\n  0x20\n    /* \"#utility.yul\":125:134   */\n  dup3\n    /* \"#utility.yul\":116:123   */\n  dup5\n    /* \"#utility.yul\":112:135   */\n  sub\n    /* \"#utility.yul\":108:140   */\n  slt\n    /* \"#utility.yul\":105:157   */\n  iszero\n  tag_17\n  jumpi\n    /* \"#utility.yul\":153:154   */\n  0x00\n    /* \"#utility.yul\":150:151   */\n  dup1\n    /* \"#utility.yul\":143:155   */\n  revert\n    /* \"#utility.yul\":105:157   */\ntag_17:\n    /* \"#utility.yul\":179:195   */\n  dup2\n  mload\n  sub(shl(0xa0, 0x01), 0x01)\n    /* \"#utility.yul\":224:255   */\n  dup2\n  and\n    /* \"#utility.yul\":214:256   */\n  dup2\n  eq\n    /* \"#utility.yul\":204:274   */\n  tag_18\n  jumpi\n    /* \"#utility.yul\":270:271   */\n  0x00\n    /* \"#utility.yul\":267:268   */\n  dup1\n    /* \"#utility.yul\":260:272   */\n  revert\n    /* \"#utility.yul\":204:274   */\ntag_18:\n    /* \"#utility.yul\":293:298   */\n  swap4\n    /* \"#utility.yul\":14:304   */\n  swap3\n  pop\n  pop\n  pop\n  jump\t// out\ntag_15:\n    /* \"contracts/Manager/royalty/RoyaltyFeeSetter.sol\":358:5830  contract RoyaltyFeeSetter is Ownable {... */\n  mload(0x80)\n  codecopy(0x00, dataOffset(sub_0), dataSize(sub_0))\n  0x00\n  assignImmutable(\"0x911a39fbf665a24ad3b6efc185d4b936bbda1900793ae2f7c00f4d18bdd96685\")\n  return(0x00, dataSize(sub_0))\nstop\n\nsub_0: assembly {\n        /* \"contracts/Manager/royalty/RoyaltyFeeSetter.sol\":358:5830  contract RoyaltyFeeSetter is Ownable {... */\n      mstore(0x40, 0x80)\n      callvalue\n      dup1\n      iszero\n      tag_1\n      jumpi\n      0x00\n      dup1\n      revert\n    tag_1:\n      pop\n      jumpi(tag_2, lt(calldatasize, 0x04))\n      shr(0xe0, calldataload(0x00))\n      dup1\n      0xb060dd86\n      gt\n      tag_16\n      jumpi\n      dup1\n      0xc16f5156\n      gt\n      tag_17\n      jumpi\n      dup1\n      0xc16f5156\n      eq\n      tag_12\n      jumpi\n      dup1\n      0xc54e5497\n      eq\n      tag_13\n      jumpi\n      dup1\n      0xe72ba456\n      eq\n      tag_14\n      jumpi\n      dup1\n      0xf2fde38b\n      eq\n      tag_15\n      jumpi\n      0x00\n      dup1\n      revert\n    tag_17:\n      dup1\n      0xb060dd86\n      eq\n      tag_9\n      jumpi\n      dup1\n      0xb9223c9d\n      eq\n      tag_10\n      jumpi\n      dup1\n      0xbc6bc0cd\n      eq\n      tag_11\n      jumpi\n      0x00\n      dup1\n      revert\n    tag_16:\n      dup1\n      0x275da5ef\n      eq\n      tag_3\n      jumpi\n      dup1\n      0x33bf6156\n      eq\n      tag_4\n      jumpi\n      dup1\n      0x3755fa80\n      eq\n      tag_5\n      jumpi\n      dup1\n      0x715018a6\n      eq\n      tag_6\n      jumpi\n      dup1\n      0x8da5cb5b\n      eq\n      tag_7\n      jumpi\n      dup1\n      0xab016670\n      eq\n      tag_8\n      jumpi\n    tag_2:\n      0x00\n      dup1\n      revert\n        /* \"contracts/Manager/royalty/RoyaltyFeeSetter.sol\":2699:3171  function updateRoyaltyInfoForCollectionIfSetter(... */\n    tag_3:\n      tag_18\n      tag_19\n      calldatasize\n      0x04\n      tag_20\n      jump\t// in\n    tag_19:\n      tag_21\n      jump\t// in\n    tag_18:\n      stop\n        /* \"contracts/Manager/royalty/RoyaltyFeeSetter.sol\":516:572  bytes4 public constant INTERFACE_ID_ERC1155 = 0xd9b67a26 */\n    tag_4:\n      tag_22\n      shl(0xe1, 0x6cdb3d13)\n      dup2\n      jump\n    tag_22:\n      mload(0x40)\n      tag_24\n      swap2\n      swap1\n      tag_25\n      jump\t// in\n    tag_24:\n      mload(0x40)\n      dup1\n      swap2\n      sub\n      swap1\n      return\n        /* \"contracts/Manager/royalty/RoyaltyFeeSetter.sol\":1983:2424  function updateRoyaltyInfoForCollectionIfOwner(... */\n    tag_5:\n      tag_18\n      tag_27\n      calldatasize\n      0x04\n      tag_20\n      jump\t// in\n    tag_27:\n      tag_28\n      jump\t// in\n        /* \"@openzeppelin/contracts/access/Ownable.sol\":1831:1932  function renounceOwnership() public virtual onlyOwner {... */\n    tag_6:\n      tag_18\n      tag_30\n      jump\t// in\n        /* \"@openzeppelin/contracts/access/Ownable.sol\":1201:1286  function owner() public view virtual returns (address) {... */\n    tag_7:\n        /* \"@openzeppelin/contracts/access/Ownable.sol\":1247:1254  address */\n      0x00\n        /* \"@openzeppelin/contracts/access/Ownable.sol\":1273:1279  _owner */\n      sload\n      sub(shl(0xa0, 0x01), 0x01)\n      and\n        /* \"@openzeppelin/contracts/access/Ownable.sol\":1201:1286  function owner() public view virtual returns (address) {... */\n    tag_31:\n      mload(0x40)\n      sub(shl(0xa0, 0x01), 0x01)\n        /* \"#utility.yul\":1124:1156   */\n      swap1\n      swap2\n      and\n        /* \"#utility.yul\":1106:1157   */\n      dup2\n      mstore\n        /* \"#utility.yul\":1094:1096   */\n      0x20\n        /* \"#utility.yul\":1079:1097   */\n      add\n        /* \"@openzeppelin/contracts/access/Ownable.sol\":1201:1286  function owner() public view virtual returns (address) {... */\n      tag_24\n        /* \"#utility.yul\":960:1163   */\n      jump\n        /* \"contracts/Manager/royalty/RoyaltyFeeSetter.sol\":1224:1715  function updateRoyaltyInfoForCollectionIfAdmin(... */\n    tag_8:\n      tag_18\n      tag_36\n      calldatasize\n      0x04\n      tag_20\n      jump\t// in\n    tag_36:\n      tag_37\n      jump\t// in\n        /* \"contracts/Manager/royalty/RoyaltyFeeSetter.sol\":606:662  bytes4 public constant INTERFACE_ID_ERC2981 = 0x2a55205a */\n    tag_9:\n      tag_22\n      shl(0xe1, 0x152a902d)\n      dup2\n      jump\n        /* \"contracts/Manager/royalty/RoyaltyFeeSetter.sol\":3669:3841  function updateRoyaltyFeeLimit(uint256 _royaltyFeeLimit) external onlyOwner {... */\n    tag_10:\n      tag_18\n      tag_42\n      calldatasize\n      0x04\n      tag_43\n      jump\t// in\n    tag_42:\n      tag_44\n      jump\t// in\n        /* \"contracts/Manager/royalty/RoyaltyFeeSetter.sol\":427:482  bytes4 public constant INTERFACE_ID_ERC721 = 0x80ac58cd */\n    tag_11:\n      tag_22\n      shl(0xe0, 0x80ac58cd)\n      dup2\n      jump\n        /* \"contracts/Manager/royalty/RoyaltyFeeSetter.sol\":669:712  address public immutable royaltyFeeRegistry */\n    tag_12:\n      tag_31\n      immutable(\"0x911a39fbf665a24ad3b6efc185d4b936bbda1900793ae2f7c00f4d18bdd96685\")\n      dup2\n      jump\n        /* \"contracts/Manager/royalty/RoyaltyFeeSetter.sol\":4056:4893  function checkForCollectionSetter(address collection) external view returns (address, uint8) {... */\n    tag_13:\n      tag_51\n      tag_52\n      calldatasize\n      0x04\n      tag_53\n      jump\t// in\n    tag_52:\n      tag_54\n      jump\t// in\n    tag_51:\n      0x40\n      dup1\n      mload\n      sub(shl(0xa0, 0x01), 0x01)\n        /* \"#utility.yul\":1793:1825   */\n      swap1\n      swap4\n      and\n        /* \"#utility.yul\":1775:1826   */\n      dup4\n      mstore\n        /* \"#utility.yul\":1874:1878   */\n      0xff\n        /* \"#utility.yul\":1862:1879   */\n      swap1\n      swap2\n      and\n        /* \"#utility.yul\":1857:1859   */\n      0x20\n        /* \"#utility.yul\":1842:1860   */\n      dup4\n      add\n        /* \"#utility.yul\":1835:1880   */\n      mstore\n        /* \"#utility.yul\":1748:1766   */\n      add\n        /* \"contracts/Manager/royalty/RoyaltyFeeSetter.sol\":4056:4893  function checkForCollectionSetter(address collection) external view returns (address, uint8) {... */\n      tag_24\n        /* \"#utility.yul\":1605:1886   */\n      jump\n        /* \"contracts/Manager/royalty/RoyaltyFeeSetter.sol\":3351:3498  function updateOwnerOfRoyaltyFeeRegistry(address _owner) external onlyOwner {... */\n    tag_14:\n      tag_18\n      tag_58\n      calldatasize\n      0x04\n      tag_53\n      jump\t// in\n    tag_58:\n      tag_59\n      jump\t// in\n        /* \"@openzeppelin/contracts/access/Ownable.sol\":2081:2279  function transferOwnership(address newOwner) public virtual onlyOwner {... */\n    tag_15:\n      tag_18\n      tag_61\n      calldatasize\n      0x04\n      tag_53\n      jump\t// in\n    tag_61:\n      tag_62\n      jump\t// in\n        /* \"contracts/Manager/royalty/RoyaltyFeeSetter.sol\":2699:3171  function updateRoyaltyInfoForCollectionIfSetter(... */\n    tag_21:\n        /* \"contracts/Manager/royalty/RoyaltyFeeSetter.sol\":2900:2976  IRoyaltyFeeRegistry(royaltyFeeRegistry).royaltyFeeInfoCollection(collection) */\n      mload(0x40)\n      shl(0xe2, 0x38c7be47)\n      dup2\n      mstore\n      sub(shl(0xa0, 0x01), 0x01)\n        /* \"#utility.yul\":1124:1156   */\n      dup6\n      dup2\n      and\n        /* \"contracts/Manager/royalty/RoyaltyFeeSetter.sol\":2900:2976  IRoyaltyFeeRegistry(royaltyFeeRegistry).royaltyFeeInfoCollection(collection) */\n      0x04\n      dup4\n      add\n        /* \"#utility.yul\":1106:1157   */\n      mstore\n        /* \"contracts/Manager/royalty/RoyaltyFeeSetter.sol\":2872:2893  address currentSetter */\n      0x00\n      swap2\n        /* \"contracts/Manager/royalty/RoyaltyFeeSetter.sol\":2920:2938  royaltyFeeRegistry */\n      immutable(\"0x911a39fbf665a24ad3b6efc185d4b936bbda1900793ae2f7c00f4d18bdd96685\")\n        /* \"contracts/Manager/royalty/RoyaltyFeeSetter.sol\":2900:2964  IRoyaltyFeeRegistry(royaltyFeeRegistry).royaltyFeeInfoCollection */\n      swap1\n      swap2\n      and\n      swap1\n      0xe31ef91c\n      swap1\n        /* \"#utility.yul\":1079:1097   */\n      0x24\n      add\n        /* \"contracts/Manager/royalty/RoyaltyFeeSetter.sol\":2900:2976  IRoyaltyFeeRegistry(royaltyFeeRegistry).royaltyFeeInfoCollection(collection) */\n      0x60\n      mload(0x40)\n      dup1\n      dup4\n      sub\n      dup2\n      dup7\n      gas\n      staticcall\n      iszero\n      dup1\n      iszero\n      tag_66\n      jumpi\n      returndatasize\n      0x00\n      dup1\n      returndatacopy\n      revert(0x00, returndatasize)\n    tag_66:\n      pop\n      pop\n      pop\n      pop\n      mload(0x40)\n      returndatasize\n      not(0x1f)\n      0x1f\n      dup3\n      add\n      and\n      dup3\n      add\n      dup1\n      0x40\n      mstore\n      pop\n      dup2\n      add\n      swap1\n      tag_67\n      swap2\n      swap1\n      tag_68\n      jump\t// in\n    tag_67:\n      pop\n        /* \"contracts/Manager/royalty/RoyaltyFeeSetter.sol\":2871:2976  (address currentSetter, ,) = IRoyaltyFeeRegistry(royaltyFeeRegistry).royaltyFeeInfoCollection(collection) */\n      swap1\n      swap2\n      pop\n      pop\n        /* \"contracts/Manager/royalty/RoyaltyFeeSetter.sol\":2994:3004  msg.sender */\n      caller\n      sub(shl(0xa0, 0x01), 0x01)\n        /* \"contracts/Manager/royalty/RoyaltyFeeSetter.sol\":2994:3021  msg.sender == currentSetter */\n      dup3\n      and\n      eq\n        /* \"contracts/Manager/royalty/RoyaltyFeeSetter.sol\":2986:3048  require(msg.sender == currentSetter, \"Setter: Not the setter\") */\n      tag_69\n      jumpi\n      mload(0x40)\n      shl(0xe5, 0x461bcd)\n      dup2\n      mstore\n        /* \"#utility.yul\":2544:2546   */\n      0x20\n        /* \"contracts/Manager/royalty/RoyaltyFeeSetter.sol\":2986:3048  require(msg.sender == currentSetter, \"Setter: Not the setter\") */\n      0x04\n      dup3\n      add\n        /* \"#utility.yul\":2526:2547   */\n      mstore\n        /* \"#utility.yul\":2583:2585   */\n      0x16\n        /* \"#utility.yul\":2563:2581   */\n      0x24\n      dup3\n      add\n        /* \"#utility.yul\":2556:2586   */\n      mstore\n      shl(0x51, 0x29b2ba3a32b91d102737ba103a34329039b2ba3a32b9)\n        /* \"#utility.yul\":2602:2620   */\n      0x44\n      dup3\n      add\n        /* \"#utility.yul\":2595:2647   */\n      mstore\n        /* \"#utility.yul\":2664:2682   */\n      0x64\n      add\n        /* \"contracts/Manager/royalty/RoyaltyFeeSetter.sol\":2986:3048  require(msg.sender == currentSetter, \"Setter: Not the setter\") */\n    tag_70:\n      mload(0x40)\n      dup1\n      swap2\n      sub\n      swap1\n      revert\n    tag_69:\n        /* \"contracts/Manager/royalty/RoyaltyFeeSetter.sol\":3059:3164  IRoyaltyFeeRegistry(royaltyFeeRegistry).updateRoyaltyInfoForCollection(collection, setter, receiver, fee) */\n      mload(0x40)\n      shl(0xe3, 0x177bf36d)\n      dup2\n      mstore\n      sub(shl(0xa0, 0x01), 0x01)\n        /* \"#utility.yul\":2980:2995   */\n      dup7\n      dup2\n      and\n        /* \"contracts/Manager/royalty/RoyaltyFeeSetter.sol\":3059:3164  IRoyaltyFeeRegistry(royaltyFeeRegistry).updateRoyaltyInfoForCollection(collection, setter, receiver, fee) */\n      0x04\n      dup4\n      add\n        /* \"#utility.yul\":2962:2996   */\n      mstore\n        /* \"#utility.yul\":3032:3047   */\n      dup6\n      dup2\n      and\n        /* \"#utility.yul\":3012:3030   */\n      0x24\n      dup4\n      add\n        /* \"#utility.yul\":3005:3048   */\n      mstore\n        /* \"#utility.yul\":3084:3099   */\n      dup5\n      dup2\n      and\n        /* \"#utility.yul\":3064:3082   */\n      0x44\n      dup4\n      add\n        /* \"#utility.yul\":3057:3100   */\n      mstore\n        /* \"#utility.yul\":3116:3134   */\n      0x64\n      dup3\n      add\n        /* \"#utility.yul\":3109:3143   */\n      dup5\n      swap1\n      mstore\n        /* \"contracts/Manager/royalty/RoyaltyFeeSetter.sol\":3079:3097  royaltyFeeRegistry */\n      immutable(\"0x911a39fbf665a24ad3b6efc185d4b936bbda1900793ae2f7c00f4d18bdd96685\")\n        /* \"contracts/Manager/royalty/RoyaltyFeeSetter.sol\":3059:3129  IRoyaltyFeeRegistry(royaltyFeeRegistry).updateRoyaltyInfoForCollection */\n      and\n      swap1\n      0xbbdf9b68\n      swap1\n        /* \"#utility.yul\":2896:2915   */\n      0x84\n      add\n        /* \"contracts/Manager/royalty/RoyaltyFeeSetter.sol\":3059:3164  IRoyaltyFeeRegistry(royaltyFeeRegistry).updateRoyaltyInfoForCollection(collection, setter, receiver, fee) */\n      0x00\n      mload(0x40)\n      dup1\n      dup4\n      sub\n      dup2\n      0x00\n      dup8\n      dup1\n      extcodesize\n      iszero\n      dup1\n      iszero\n      tag_74\n      jumpi\n      0x00\n      dup1\n      revert\n    tag_74:\n      pop\n      gas\n      call\n      iszero\n      dup1\n      iszero\n      tag_76\n      jumpi\n      returndatasize\n      0x00\n      dup1\n      returndatacopy\n      revert(0x00, returndatasize)\n    tag_76:\n      pop\n      pop\n      pop\n      pop\n        /* \"contracts/Manager/royalty/RoyaltyFeeSetter.sol\":2861:3171  {... */\n      pop\n        /* \"contracts/Manager/royalty/RoyaltyFeeSetter.sol\":2699:3171  function updateRoyaltyInfoForCollectionIfSetter(... */\n      pop\n      pop\n      pop\n      pop\n      jump\t// out\n        /* \"contracts/Manager/royalty/RoyaltyFeeSetter.sol\":1983:2424  function updateRoyaltyInfoForCollectionIfOwner(... */\n    tag_28:\n        /* \"contracts/Manager/royalty/RoyaltyFeeSetter.sol\":2163:2222  IERC165(collection).supportsInterface(INTERFACE_ID_ERC2981) */\n      mload(0x40)\n      shl(0xe0, 0x01ffc9a7)\n      dup2\n      mstore\n      sub(shl(0xa0, 0x01), 0x01)\n        /* \"contracts/Manager/royalty/RoyaltyFeeSetter.sol\":2163:2200  IERC165(collection).supportsInterface */\n      dup6\n      and\n      swap1\n      0x01ffc9a7\n      swap1\n        /* \"contracts/Manager/royalty/RoyaltyFeeSetter.sol\":2163:2222  IERC165(collection).supportsInterface(INTERFACE_ID_ERC2981) */\n      tag_78\n      swap1\n      shl(0xe1, 0x152a902d)\n        /* \"contracts/Manager/royalty/RoyaltyFeeSetter.sol\":2201:2221  INTERFACE_ID_ERC2981 */\n      swap1\n        /* \"contracts/Manager/royalty/RoyaltyFeeSetter.sol\":2163:2222  IERC165(collection).supportsInterface(INTERFACE_ID_ERC2981) */\n      0x04\n      add\n      tag_25\n      jump\t// in\n    tag_78:\n      0x20\n      mload(0x40)\n      dup1\n      dup4\n      sub\n      dup2\n      dup7\n      gas\n      staticcall\n      iszero\n      dup1\n      iszero\n      tag_80\n      jumpi\n      returndatasize\n      0x00\n      dup1\n      returndatacopy\n      revert(0x00, returndatasize)\n    tag_80:\n      pop\n      pop\n      pop\n      pop\n      mload(0x40)\n      returndatasize\n      not(0x1f)\n      0x1f\n      dup3\n      add\n      and\n      dup3\n      add\n      dup1\n      0x40\n      mstore\n      pop\n      dup2\n      add\n      swap1\n      tag_81\n      swap2\n      swap1\n      tag_82\n      jump\t// in\n    tag_81:\n        /* \"contracts/Manager/royalty/RoyaltyFeeSetter.sol\":2162:2222  !IERC165(collection).supportsInterface(INTERFACE_ID_ERC2981) */\n      iszero\n        /* \"contracts/Manager/royalty/RoyaltyFeeSetter.sol\":2154:2247  require(!IERC165(collection).supportsInterface(INTERFACE_ID_ERC2981), \" Must not be ERC2981\") */\n      tag_83\n      jumpi\n      mload(0x40)\n      shl(0xe5, 0x461bcd)\n      dup2\n      mstore\n        /* \"#utility.yul\":3638:3640   */\n      0x20\n        /* \"contracts/Manager/royalty/RoyaltyFeeSetter.sol\":2154:2247  require(!IERC165(collection).supportsInterface(INTERFACE_ID_ERC2981), \" Must not be ERC2981\") */\n      0x04\n      dup3\n      add\n        /* \"#utility.yul\":3620:3641   */\n      mstore\n        /* \"#utility.yul\":3677:3679   */\n      0x14\n        /* \"#utility.yul\":3657:3675   */\n      0x24\n      dup3\n      add\n        /* \"#utility.yul\":3650:3680   */\n      mstore\n      shl(0x60, 0x204d757374206e6f742062652045524332393831)\n        /* \"#utility.yul\":3696:3714   */\n      0x44\n      dup3\n      add\n        /* \"#utility.yul\":3689:3739   */\n      mstore\n        /* \"#utility.yul\":3756:3774   */\n      0x64\n      add\n        /* \"contracts/Manager/royalty/RoyaltyFeeSetter.sol\":2154:2247  require(!IERC165(collection).supportsInterface(INTERFACE_ID_ERC2981), \" Must not be ERC2981\") */\n      tag_70\n        /* \"#utility.yul\":3436:3780   */\n      jump\n        /* \"contracts/Manager/royalty/RoyaltyFeeSetter.sol\":2154:2247  require(!IERC165(collection).supportsInterface(INTERFACE_ID_ERC2981), \" Must not be ERC2981\") */\n    tag_83:\n        /* \"contracts/Manager/royalty/RoyaltyFeeSetter.sol\":2288:2298  collection */\n      dup4\n      sub(shl(0xa0, 0x01), 0x01)\n        /* \"contracts/Manager/royalty/RoyaltyFeeSetter.sol\":2279:2305  IOwnable(collection).owner */\n      and\n      0x8da5cb5b\n        /* \"contracts/Manager/royalty/RoyaltyFeeSetter.sol\":2279:2307  IOwnable(collection).owner() */\n      mload(0x40)\n      dup2\n      0xffffffff\n      and\n      0xe0\n      shl\n      dup2\n      mstore\n      0x04\n      add\n      0x20\n      mload(0x40)\n      dup1\n      dup4\n      sub\n      dup2\n      dup7\n      gas\n      staticcall\n      iszero\n      dup1\n      iszero\n      tag_87\n      jumpi\n      returndatasize\n      0x00\n      dup1\n      returndatacopy\n      revert(0x00, returndatasize)\n    tag_87:\n      pop\n      pop\n      pop\n      pop\n      mload(0x40)\n      returndatasize\n      not(0x1f)\n      0x1f\n      dup3\n      add\n      and\n      dup3\n      add\n      dup1\n      0x40\n      mstore\n      pop\n      dup2\n      add\n      swap1\n      tag_88\n      swap2\n      swap1\n      tag_89\n      jump\t// in\n    tag_88:\n      sub(shl(0xa0, 0x01), 0x01)\n        /* \"contracts/Manager/royalty/RoyaltyFeeSetter.sol\":2265:2307  msg.sender == IOwnable(collection).owner() */\n      and\n        /* \"contracts/Manager/royalty/RoyaltyFeeSetter.sol\":2265:2275  msg.sender */\n      caller\n      sub(shl(0xa0, 0x01), 0x01)\n        /* \"contracts/Manager/royalty/RoyaltyFeeSetter.sol\":2265:2307  msg.sender == IOwnable(collection).owner() */\n      and\n      eq\n        /* \"contracts/Manager/royalty/RoyaltyFeeSetter.sol\":2257:2326  require(msg.sender == IOwnable(collection).owner(), \" Not the owner\") */\n      tag_90\n      jumpi\n      mload(0x40)\n      shl(0xe5, 0x461bcd)\n      dup2\n      mstore\n        /* \"#utility.yul\":4243:4245   */\n      0x20\n        /* \"contracts/Manager/royalty/RoyaltyFeeSetter.sol\":2257:2326  require(msg.sender == IOwnable(collection).owner(), \" Not the owner\") */\n      0x04\n      dup3\n      add\n        /* \"#utility.yul\":4225:4246   */\n      mstore\n        /* \"#utility.yul\":4282:4284   */\n      0x0e\n        /* \"#utility.yul\":4262:4280   */\n      0x24\n      dup3\n      add\n        /* \"#utility.yul\":4255:4285   */\n      mstore\n      shl(0x91, 0x102737ba103a34329037bbb732b9)\n        /* \"#utility.yul\":4301:4319   */\n      0x44\n      dup3\n      add\n        /* \"#utility.yul\":4294:4338   */\n      mstore\n        /* \"#utility.yul\":4355:4373   */\n      0x64\n      add\n        /* \"contracts/Manager/royalty/RoyaltyFeeSetter.sol\":2257:2326  require(msg.sender == IOwnable(collection).owner(), \" Not the owner\") */\n      tag_70\n        /* \"#utility.yul\":4041:4379   */\n      jump\n        /* \"contracts/Manager/royalty/RoyaltyFeeSetter.sol\":2257:2326  require(msg.sender == IOwnable(collection).owner(), \" Not the owner\") */\n    tag_90:\n        /* \"contracts/Manager/royalty/RoyaltyFeeSetter.sol\":2337:2417  _updateRoyaltyInfoForCollectionIfOwnerOrAdmin(collection, setter, receiver, fee) */\n      tag_93\n        /* \"contracts/Manager/royalty/RoyaltyFeeSetter.sol\":2383:2393  collection */\n      dup5\n        /* \"contracts/Manager/royalty/RoyaltyFeeSetter.sol\":2395:2401  setter */\n      dup5\n        /* \"contracts/Manager/royalty/RoyaltyFeeSetter.sol\":2403:2411  receiver */\n      dup5\n        /* \"contracts/Manager/royalty/RoyaltyFeeSetter.sol\":2413:2416  fee */\n      dup5\n        /* \"contracts/Manager/royalty/RoyaltyFeeSetter.sol\":2337:2382  _updateRoyaltyInfoForCollectionIfOwnerOrAdmin */\n      tag_94\n        /* \"contracts/Manager/royalty/RoyaltyFeeSetter.sol\":2337:2417  _updateRoyaltyInfoForCollectionIfOwnerOrAdmin(collection, setter, receiver, fee) */\n      jump\t// in\n    tag_93:\n        /* \"contracts/Manager/royalty/RoyaltyFeeSetter.sol\":1983:2424  function updateRoyaltyInfoForCollectionIfOwner(... */\n      pop\n      pop\n      pop\n      pop\n      jump\t// out\n        /* \"@openzeppelin/contracts/access/Ownable.sol\":1831:1932  function renounceOwnership() public virtual onlyOwner {... */\n    tag_30:\n        /* \"@openzeppelin/contracts/access/Ownable.sol\":1094:1107  _checkOwner() */\n      tag_96\n        /* \"@openzeppelin/contracts/access/Ownable.sol\":1094:1105  _checkOwner */\n      tag_97\n        /* \"@openzeppelin/contracts/access/Ownable.sol\":1094:1107  _checkOwner() */\n      jump\t// in\n    tag_96:\n        /* \"@openzeppelin/contracts/access/Ownable.sol\":1895:1925  _transferOwnership(address(0)) */\n      tag_99\n        /* \"@openzeppelin/contracts/access/Ownable.sol\":1922:1923  0 */\n      0x00\n        /* \"@openzeppelin/contracts/access/Ownable.sol\":1895:1913  _transferOwnership */\n      tag_100\n        /* \"@openzeppelin/contracts/access/Ownable.sol\":1895:1925  _transferOwnership(address(0)) */\n      jump\t// in\n    tag_99:\n        /* \"@openzeppelin/contracts/access/Ownable.sol\":1831:1932  function renounceOwnership() public virtual onlyOwner {... */\n      jump\t// out\n        /* \"contracts/Manager/royalty/RoyaltyFeeSetter.sol\":1224:1715  function updateRoyaltyInfoForCollectionIfAdmin(... */\n    tag_37:\n        /* \"contracts/Manager/royalty/RoyaltyFeeSetter.sol\":1454:1513  IERC165(collection).supportsInterface(INTERFACE_ID_ERC2981) */\n      mload(0x40)\n      shl(0xe0, 0x01ffc9a7)\n      dup2\n      mstore\n      sub(shl(0xa0, 0x01), 0x01)\n        /* \"contracts/Manager/royalty/RoyaltyFeeSetter.sol\":1454:1491  IERC165(collection).supportsInterface */\n      dup6\n      and\n      swap1\n      0x01ffc9a7\n      swap1\n        /* \"contracts/Manager/royalty/RoyaltyFeeSetter.sol\":1454:1513  IERC165(collection).supportsInterface(INTERFACE_ID_ERC2981) */\n      tag_103\n      swap1\n      shl(0xe1, 0x152a902d)\n        /* \"contracts/Manager/royalty/RoyaltyFeeSetter.sol\":1492:1512  INTERFACE_ID_ERC2981 */\n      swap1\n        /* \"contracts/Manager/royalty/RoyaltyFeeSetter.sol\":1454:1513  IERC165(collection).supportsInterface(INTERFACE_ID_ERC2981) */\n      0x04\n      add\n      tag_25\n      jump\t// in\n    tag_103:\n      0x20\n      mload(0x40)\n      dup1\n      dup4\n      sub\n      dup2\n      dup7\n      gas\n      staticcall\n      iszero\n      dup1\n      iszero\n      tag_105\n      jumpi\n      returndatasize\n      0x00\n      dup1\n      returndatacopy\n      revert(0x00, returndatasize)\n    tag_105:\n      pop\n      pop\n      pop\n      pop\n      mload(0x40)\n      returndatasize\n      not(0x1f)\n      0x1f\n      dup3\n      add\n      and\n      dup3\n      add\n      dup1\n      0x40\n      mstore\n      pop\n      dup2\n      add\n      swap1\n      tag_106\n      swap2\n      swap1\n      tag_82\n      jump\t// in\n    tag_106:\n        /* \"contracts/Manager/royalty/RoyaltyFeeSetter.sol\":1453:1513  !IERC165(collection).supportsInterface(INTERFACE_ID_ERC2981) */\n      iszero\n        /* \"contracts/Manager/royalty/RoyaltyFeeSetter.sol\":1445:1538  require(!IERC165(collection).supportsInterface(INTERFACE_ID_ERC2981), \" Must not be ERC2981\") */\n      tag_107\n      jumpi\n      mload(0x40)\n      shl(0xe5, 0x461bcd)\n      dup2\n      mstore\n        /* \"#utility.yul\":3638:3640   */\n      0x20\n        /* \"contracts/Manager/royalty/RoyaltyFeeSetter.sol\":1445:1538  require(!IERC165(collection).supportsInterface(INTERFACE_ID_ERC2981), \" Must not be ERC2981\") */\n      0x04\n      dup3\n      add\n        /* \"#utility.yul\":3620:3641   */\n      mstore\n        /* \"#utility.yul\":3677:3679   */\n      0x14\n        /* \"#utility.yul\":3657:3675   */\n      0x24\n      dup3\n      add\n        /* \"#utility.yul\":3650:3680   */\n      mstore\n      shl(0x60, 0x204d757374206e6f742062652045524332393831)\n        /* \"#utility.yul\":3696:3714   */\n      0x44\n      dup3\n      add\n        /* \"#utility.yul\":3689:3739   */\n      mstore\n        /* \"#utility.yul\":3756:3774   */\n      0x64\n      add\n        /* \"contracts/Manager/royalty/RoyaltyFeeSetter.sol\":1445:1538  require(!IERC165(collection).supportsInterface(INTERFACE_ID_ERC2981), \" Must not be ERC2981\") */\n      tag_70\n        /* \"#utility.yul\":3436:3780   */\n      jump\n        /* \"contracts/Manager/royalty/RoyaltyFeeSetter.sol\":1445:1538  require(!IERC165(collection).supportsInterface(INTERFACE_ID_ERC2981), \" Must not be ERC2981\") */\n    tag_107:\n        /* \"contracts/Manager/royalty/RoyaltyFeeSetter.sol\":1579:1589  collection */\n      dup4\n      sub(shl(0xa0, 0x01), 0x01)\n        /* \"contracts/Manager/royalty/RoyaltyFeeSetter.sol\":1570:1596  IOwnable(collection).admin */\n      and\n      0xf851a440\n        /* \"contracts/Manager/royalty/RoyaltyFeeSetter.sol\":1570:1598  IOwnable(collection).admin() */\n      mload(0x40)\n      dup2\n      0xffffffff\n      and\n      0xe0\n      shl\n      dup2\n      mstore\n      0x04\n      add\n      0x20\n      mload(0x40)\n      dup1\n      dup4\n      sub\n      dup2\n      dup7\n      gas\n      staticcall\n      iszero\n      dup1\n      iszero\n      tag_110\n      jumpi\n      returndatasize\n      0x00\n      dup1\n      returndatacopy\n      revert(0x00, returndatasize)\n    tag_110:\n      pop\n      pop\n      pop\n      pop\n      mload(0x40)\n      returndatasize\n      not(0x1f)\n      0x1f\n      dup3\n      add\n      and\n      dup3\n      add\n      dup1\n      0x40\n      mstore\n      pop\n      dup2\n      add\n      swap1\n      tag_111\n      swap2\n      swap1\n      tag_89\n      jump\t// in\n    tag_111:\n      sub(shl(0xa0, 0x01), 0x01)\n        /* \"contracts/Manager/royalty/RoyaltyFeeSetter.sol\":1556:1598  msg.sender == IOwnable(collection).admin() */\n      and\n        /* \"contracts/Manager/royalty/RoyaltyFeeSetter.sol\":1556:1566  msg.sender */\n      caller\n      sub(shl(0xa0, 0x01), 0x01)\n        /* \"contracts/Manager/royalty/RoyaltyFeeSetter.sol\":1556:1598  msg.sender == IOwnable(collection).admin() */\n      and\n      eq\n        /* \"contracts/Manager/royalty/RoyaltyFeeSetter.sol\":1548:1617  require(msg.sender == IOwnable(collection).admin(), \" Not the admin\") */\n      tag_90\n      jumpi\n      mload(0x40)\n      shl(0xe5, 0x461bcd)\n      dup2\n      mstore\n        /* \"#utility.yul\":4586:4588   */\n      0x20\n        /* \"contracts/Manager/royalty/RoyaltyFeeSetter.sol\":1548:1617  require(msg.sender == IOwnable(collection).admin(), \" Not the admin\") */\n      0x04\n      dup3\n      add\n        /* \"#utility.yul\":4568:4589   */\n      mstore\n        /* \"#utility.yul\":4625:4627   */\n      0x0e\n        /* \"#utility.yul\":4605:4623   */\n      0x24\n      dup3\n      add\n        /* \"#utility.yul\":4598:4628   */\n      mstore\n      shl(0x91, 0x102737ba103a34329030b236b4b7)\n        /* \"#utility.yul\":4644:4662   */\n      0x44\n      dup3\n      add\n        /* \"#utility.yul\":4637:4681   */\n      mstore\n        /* \"#utility.yul\":4698:4716   */\n      0x64\n      add\n        /* \"contracts/Manager/royalty/RoyaltyFeeSetter.sol\":1548:1617  require(msg.sender == IOwnable(collection).admin(), \" Not the admin\") */\n      tag_70\n        /* \"#utility.yul\":4384:4722   */\n      jump\n        /* \"contracts/Manager/royalty/RoyaltyFeeSetter.sol\":3669:3841  function updateRoyaltyFeeLimit(uint256 _royaltyFeeLimit) external onlyOwner {... */\n    tag_44:\n        /* \"@openzeppelin/contracts/access/Ownable.sol\":1094:1107  _checkOwner() */\n      tag_117\n        /* \"@openzeppelin/contracts/access/Ownable.sol\":1094:1105  _checkOwner */\n      tag_97\n        /* \"@openzeppelin/contracts/access/Ownable.sol\":1094:1107  _checkOwner() */\n      jump\t// in\n    tag_117:\n        /* \"contracts/Manager/royalty/RoyaltyFeeSetter.sol\":3755:3834  IRoyaltyFeeRegistry(royaltyFeeRegistry).updateRoyaltyFeeLimit(_royaltyFeeLimit) */\n      mload(0x40)\n      shl(0xe0, 0xb9223c9d)\n      dup2\n      mstore\n      0x04\n      dup2\n      add\n        /* \"#utility.yul\":4873:4898   */\n      dup3\n      swap1\n      mstore\n        /* \"contracts/Manager/royalty/RoyaltyFeeSetter.sol\":3775:3793  royaltyFeeRegistry */\n      immutable(\"0x911a39fbf665a24ad3b6efc185d4b936bbda1900793ae2f7c00f4d18bdd96685\")\n      sub(shl(0xa0, 0x01), 0x01)\n        /* \"contracts/Manager/royalty/RoyaltyFeeSetter.sol\":3755:3816  IRoyaltyFeeRegistry(royaltyFeeRegistry).updateRoyaltyFeeLimit */\n      and\n      swap1\n      0xb9223c9d\n      swap1\n        /* \"#utility.yul\":4846:4864   */\n      0x24\n      add\n        /* \"contracts/Manager/royalty/RoyaltyFeeSetter.sol\":3755:3834  IRoyaltyFeeRegistry(royaltyFeeRegistry).updateRoyaltyFeeLimit(_royaltyFeeLimit) */\n    tag_119:\n      0x00\n      mload(0x40)\n      dup1\n      dup4\n      sub\n      dup2\n      0x00\n      dup8\n      dup1\n      extcodesize\n      iszero\n      dup1\n      iszero\n      tag_121\n      jumpi\n      0x00\n      dup1\n      revert\n    tag_121:\n      pop\n      gas\n      call\n      iszero\n      dup1\n      iszero\n      tag_123\n      jumpi\n      returndatasize\n      0x00\n      dup1\n      returndatacopy\n      revert(0x00, returndatasize)\n    tag_123:\n      pop\n      pop\n      pop\n      pop\n        /* \"contracts/Manager/royalty/RoyaltyFeeSetter.sol\":3669:3841  function updateRoyaltyFeeLimit(uint256 _royaltyFeeLimit) external onlyOwner {... */\n      pop\n      jump\t// out\n        /* \"contracts/Manager/royalty/RoyaltyFeeSetter.sol\":4056:4893  function checkForCollectionSetter(address collection) external view returns (address, uint8) {... */\n    tag_54:\n        /* \"contracts/Manager/royalty/RoyaltyFeeSetter.sol\":4188:4264  IRoyaltyFeeRegistry(royaltyFeeRegistry).royaltyFeeInfoCollection(collection) */\n      mload(0x40)\n      shl(0xe2, 0x38c7be47)\n      dup2\n      mstore\n      sub(shl(0xa0, 0x01), 0x01)\n        /* \"#utility.yul\":1124:1156   */\n      dup3\n      dup2\n      and\n        /* \"contracts/Manager/royalty/RoyaltyFeeSetter.sol\":4188:4264  IRoyaltyFeeRegistry(royaltyFeeRegistry).royaltyFeeInfoCollection(collection) */\n      0x04\n      dup4\n      add\n        /* \"#utility.yul\":1106:1157   */\n      mstore\n      0x00\n      swap2\n      dup3\n      swap2\n      dup3\n      swap2\n        /* \"contracts/Manager/royalty/RoyaltyFeeSetter.sol\":4208:4226  royaltyFeeRegistry */\n      immutable(\"0x911a39fbf665a24ad3b6efc185d4b936bbda1900793ae2f7c00f4d18bdd96685\")\n        /* \"contracts/Manager/royalty/RoyaltyFeeSetter.sol\":4188:4252  IRoyaltyFeeRegistry(royaltyFeeRegistry).royaltyFeeInfoCollection */\n      swap1\n      swap2\n      and\n      swap1\n      0xe31ef91c\n      swap1\n        /* \"#utility.yul\":1079:1097   */\n      0x24\n      add\n        /* \"contracts/Manager/royalty/RoyaltyFeeSetter.sol\":4188:4264  IRoyaltyFeeRegistry(royaltyFeeRegistry).royaltyFeeInfoCollection(collection) */\n      0x60\n      mload(0x40)\n      dup1\n      dup4\n      sub\n      dup2\n      dup7\n      gas\n      staticcall\n      iszero\n      dup1\n      iszero\n      tag_127\n      jumpi\n      returndatasize\n      0x00\n      dup1\n      returndatacopy\n      revert(0x00, returndatasize)\n    tag_127:\n      pop\n      pop\n      pop\n      pop\n      mload(0x40)\n      returndatasize\n      not(0x1f)\n      0x1f\n      dup3\n      add\n      and\n      dup3\n      add\n      dup1\n      0x40\n      mstore\n      pop\n      dup2\n      add\n      swap1\n      tag_128\n      swap2\n      swap1\n      tag_68\n      jump\t// in\n    tag_128:\n      pop\n        /* \"contracts/Manager/royalty/RoyaltyFeeSetter.sol\":4159:4264  (address currentSetter, ,) = IRoyaltyFeeRegistry(royaltyFeeRegistry).royaltyFeeInfoCollection(collection) */\n      swap1\n      swap2\n      pop\n      pop\n      sub(shl(0xa0, 0x01), 0x01)\n        /* \"contracts/Manager/royalty/RoyaltyFeeSetter.sol\":4279:4306  currentSetter != address(0) */\n      dup2\n      and\n      iszero\n        /* \"contracts/Manager/royalty/RoyaltyFeeSetter.sol\":4275:4358  if (currentSetter != address(0)) {... */\n      tag_129\n      jumpi\n        /* \"contracts/Manager/royalty/RoyaltyFeeSetter.sol\":4330:4343  currentSetter */\n      swap4\n        /* \"contracts/Manager/royalty/RoyaltyFeeSetter.sol\":4345:4346  0 */\n      0x00\n      swap4\n      pop\n        /* \"contracts/Manager/royalty/RoyaltyFeeSetter.sol\":4056:4893  function checkForCollectionSetter(address collection) external view returns (address, uint8) {... */\n      swap2\n      pop\n      pop\n      jump\t// out\n        /* \"contracts/Manager/royalty/RoyaltyFeeSetter.sol\":4275:4358  if (currentSetter != address(0)) {... */\n    tag_129:\n        /* \"contracts/Manager/royalty/RoyaltyFeeSetter.sol\":4372:4431  IERC165(collection).supportsInterface(INTERFACE_ID_ERC2981) */\n      mload(0x40)\n      shl(0xe0, 0x01ffc9a7)\n      dup2\n      mstore\n      sub(shl(0xa0, 0x01), 0x01)\n        /* \"contracts/Manager/royalty/RoyaltyFeeSetter.sol\":4372:4409  IERC165(collection).supportsInterface */\n      dup6\n      and\n      swap1\n      0x01ffc9a7\n      swap1\n        /* \"contracts/Manager/royalty/RoyaltyFeeSetter.sol\":4372:4431  IERC165(collection).supportsInterface(INTERFACE_ID_ERC2981) */\n      tag_130\n      swap1\n      shl(0xe1, 0x152a902d)\n        /* \"contracts/Manager/royalty/RoyaltyFeeSetter.sol\":4410:4430  INTERFACE_ID_ERC2981 */\n      swap1\n        /* \"contracts/Manager/royalty/RoyaltyFeeSetter.sol\":4372:4431  IERC165(collection).supportsInterface(INTERFACE_ID_ERC2981) */\n      0x04\n      add\n      tag_25\n      jump\t// in\n    tag_130:\n      0x20\n      mload(0x40)\n      dup1\n      dup4\n      sub\n      dup2\n      dup7\n      gas\n      staticcall\n      swap3\n      pop\n      pop\n      pop\n      dup1\n      iszero\n      tag_131\n      jumpi\n      pop\n      0x40\n      dup1\n      mload\n      0x1f\n      returndatasize\n      swap1\n      dup2\n      add\n      not(0x1f)\n      and\n      dup3\n      add\n      swap1\n      swap3\n      mstore\n      tag_132\n      swap2\n      dup2\n      add\n      swap1\n      tag_82\n      jump\t// in\n    tag_132:\n      0x01\n    tag_131:\n        /* \"contracts/Manager/royalty/RoyaltyFeeSetter.sol\":4368:4574  try IERC165(collection).supportsInterface(INTERFACE_ID_ERC2981) returns (bool interfaceSupport) {... */\n      iszero\n      tag_137\n      jumpi\n        /* \"contracts/Manager/royalty/RoyaltyFeeSetter.sol\":4482:4498  interfaceSupport */\n      dup1\n        /* \"contracts/Manager/royalty/RoyaltyFeeSetter.sol\":4478:4555  if (interfaceSupport) {... */\n      iszero\n      tag_138\n      jumpi\n      pop\n        /* \"contracts/Manager/royalty/RoyaltyFeeSetter.sol\":4534:4535  0 */\n      0x00\n      swap5\n        /* \"contracts/Manager/royalty/RoyaltyFeeSetter.sol\":4538:4539  1 */\n      0x01\n      swap5\n      pop\n        /* \"contracts/Manager/royalty/RoyaltyFeeSetter.sol\":4056:4893  function checkForCollectionSetter(address collection) external view returns (address, uint8) {... */\n      swap3\n      pop\n      pop\n      pop\n      jump\t// out\n        /* \"contracts/Manager/royalty/RoyaltyFeeSetter.sol\":4478:4555  if (interfaceSupport) {... */\n    tag_138:\n        /* \"contracts/Manager/royalty/RoyaltyFeeSetter.sol\":4432:4565  returns (bool interfaceSupport) {... */\n      pop\n        /* \"contracts/Manager/royalty/RoyaltyFeeSetter.sol\":4368:4574  try IERC165(collection).supportsInterface(INTERFACE_ID_ERC2981) returns (bool interfaceSupport) {... */\n    tag_137:\n        /* \"contracts/Manager/royalty/RoyaltyFeeSetter.sol\":4597:4607  collection */\n      dup4\n      sub(shl(0xa0, 0x01), 0x01)\n        /* \"contracts/Manager/royalty/RoyaltyFeeSetter.sol\":4588:4614  IOwnable(collection).owner */\n      and\n      0x8da5cb5b\n        /* \"contracts/Manager/royalty/RoyaltyFeeSetter.sol\":4588:4616  IOwnable(collection).owner() */\n      mload(0x40)\n      dup2\n      0xffffffff\n      and\n      0xe0\n      shl\n      dup2\n      mstore\n      0x04\n      add\n      0x20\n      mload(0x40)\n      dup1\n      dup4\n      sub\n      dup2\n      dup7\n      gas\n      staticcall\n      swap3\n      pop\n      pop\n      pop\n      dup1\n      iszero\n      tag_139\n      jumpi\n      pop\n      0x40\n      dup1\n      mload\n      0x1f\n      returndatasize\n      swap1\n      dup2\n      add\n      not(0x1f)\n      and\n      dup3\n      add\n      swap1\n      swap3\n      mstore\n      tag_140\n      swap2\n      dup2\n      add\n      swap1\n      tag_89\n      jump\t// in\n    tag_140:\n      0x01\n    tag_139:\n        /* \"contracts/Manager/royalty/RoyaltyFeeSetter.sol\":4584:4887  try IOwnable(collection).owner() returns (address setter) {... */\n      tag_141\n      jumpi\n        /* \"contracts/Manager/royalty/RoyaltyFeeSetter.sol\":4719:4729  collection */\n      dup4\n      sub(shl(0xa0, 0x01), 0x01)\n        /* \"contracts/Manager/royalty/RoyaltyFeeSetter.sol\":4710:4736  IOwnable(collection).admin */\n      and\n      0xf851a440\n        /* \"contracts/Manager/royalty/RoyaltyFeeSetter.sol\":4710:4738  IOwnable(collection).admin() */\n      mload(0x40)\n      dup2\n      0xffffffff\n      and\n      0xe0\n      shl\n      dup2\n      mstore\n      0x04\n      add\n      0x20\n      mload(0x40)\n      dup1\n      dup4\n      sub\n      dup2\n      dup7\n      gas\n      staticcall\n      swap3\n      pop\n      pop\n      pop\n      dup1\n      iszero\n      tag_145\n      jumpi\n      pop\n      0x40\n      dup1\n      mload\n      0x1f\n      returndatasize\n      swap1\n      dup2\n      add\n      not(0x1f)\n      and\n      dup3\n      add\n      swap1\n      swap3\n      mstore\n      tag_146\n      swap2\n      dup2\n      add\n      swap1\n      tag_89\n      jump\t// in\n    tag_146:\n      0x01\n    tag_145:\n        /* \"contracts/Manager/royalty/RoyaltyFeeSetter.sol\":4706:4877  try IOwnable(collection).admin() returns (address setter) {... */\n      tag_147\n      jumpi\n      pop\n        /* \"contracts/Manager/royalty/RoyaltyFeeSetter.sol\":4856:4857  0 */\n      0x00\n      swap4\n        /* \"contracts/Manager/royalty/RoyaltyFeeSetter.sol\":4860:4861  4 */\n      0x04\n      swap4\n      pop\n        /* \"contracts/Manager/royalty/RoyaltyFeeSetter.sol\":4056:4893  function checkForCollectionSetter(address collection) external view returns (address, uint8) {... */\n      swap2\n      pop\n      pop\n      jump\t// out\n        /* \"contracts/Manager/royalty/RoyaltyFeeSetter.sol\":4706:4877  try IOwnable(collection).admin() returns (address setter) {... */\n    tag_147:\n        /* \"contracts/Manager/royalty/RoyaltyFeeSetter.sol\":4790:4796  setter */\n      swap5\n        /* \"contracts/Manager/royalty/RoyaltyFeeSetter.sol\":4798:4799  3 */\n      0x03\n      swap5\n      pop\n        /* \"contracts/Manager/royalty/RoyaltyFeeSetter.sol\":4056:4893  function checkForCollectionSetter(address collection) external view returns (address, uint8) {... */\n      swap3\n      pop\n      pop\n      pop\n      jump\t// out\n        /* \"contracts/Manager/royalty/RoyaltyFeeSetter.sol\":4584:4887  try IOwnable(collection).owner() returns (address setter) {... */\n    tag_141:\n        /* \"contracts/Manager/royalty/RoyaltyFeeSetter.sol\":4664:4670  setter */\n      swap5\n        /* \"contracts/Manager/royalty/RoyaltyFeeSetter.sol\":4672:4673  2 */\n      0x02\n      swap5\n      pop\n        /* \"contracts/Manager/royalty/RoyaltyFeeSetter.sol\":4056:4893  function checkForCollectionSetter(address collection) external view returns (address, uint8) {... */\n      swap3\n      pop\n      pop\n      pop\n      jump\t// out\n        /* \"contracts/Manager/royalty/RoyaltyFeeSetter.sol\":3351:3498  function updateOwnerOfRoyaltyFeeRegistry(address _owner) external onlyOwner {... */\n    tag_59:\n        /* \"@openzeppelin/contracts/access/Ownable.sol\":1094:1107  _checkOwner() */\n      tag_154\n        /* \"@openzeppelin/contracts/access/Ownable.sol\":1094:1105  _checkOwner */\n      tag_97\n        /* \"@openzeppelin/contracts/access/Ownable.sol\":1094:1107  _checkOwner() */\n      jump\t// in\n    tag_154:\n        /* \"contracts/Manager/royalty/RoyaltyFeeSetter.sol\":3437:3491  IOwnable(royaltyFeeRegistry).transferOwnership(_owner) */\n      mload(0x40)\n      shl(0xe0, 0xf2fde38b)\n      dup2\n      mstore\n      sub(shl(0xa0, 0x01), 0x01)\n        /* \"#utility.yul\":1124:1156   */\n      dup3\n      dup2\n      and\n        /* \"contracts/Manager/royalty/RoyaltyFeeSetter.sol\":3437:3491  IOwnable(royaltyFeeRegistry).transferOwnership(_owner) */\n      0x04\n      dup4\n      add\n        /* \"#utility.yul\":1106:1157   */\n      mstore\n        /* \"contracts/Manager/royalty/RoyaltyFeeSetter.sol\":3446:3464  royaltyFeeRegistry */\n      immutable(\"0x911a39fbf665a24ad3b6efc185d4b936bbda1900793ae2f7c00f4d18bdd96685\")\n        /* \"contracts/Manager/royalty/RoyaltyFeeSetter.sol\":3437:3483  IOwnable(royaltyFeeRegistry).transferOwnership */\n      and\n      swap1\n      0xf2fde38b\n      swap1\n        /* \"#utility.yul\":1079:1097   */\n      0x24\n      add\n        /* \"contracts/Manager/royalty/RoyaltyFeeSetter.sol\":3437:3491  IOwnable(royaltyFeeRegistry).transferOwnership(_owner) */\n      tag_119\n        /* \"#utility.yul\":960:1163   */\n      jump\n        /* \"@openzeppelin/contracts/access/Ownable.sol\":2081:2279  function transferOwnership(address newOwner) public virtual onlyOwner {... */\n    tag_62:\n        /* \"@openzeppelin/contracts/access/Ownable.sol\":1094:1107  _checkOwner() */\n      tag_161\n        /* \"@openzeppelin/contracts/access/Ownable.sol\":1094:1105  _checkOwner */\n      tag_97\n        /* \"@openzeppelin/contracts/access/Ownable.sol\":1094:1107  _checkOwner() */\n      jump\t// in\n    tag_161:\n      sub(shl(0xa0, 0x01), 0x01)\n        /* \"@openzeppelin/contracts/access/Ownable.sol\":2169:2191  newOwner != address(0) */\n      dup2\n      and\n        /* \"@openzeppelin/contracts/access/Ownable.sol\":2161:2234  require(newOwner != address(0), \"Ownable: new owner is the zero address\") */\n      tag_163\n      jumpi\n      mload(0x40)\n      shl(0xe5, 0x461bcd)\n      dup2\n      mstore\n        /* \"#utility.yul\":5111:5113   */\n      0x20\n        /* \"@openzeppelin/contracts/access/Ownable.sol\":2161:2234  require(newOwner != address(0), \"Ownable: new owner is the zero address\") */\n      0x04\n      dup3\n      add\n        /* \"#utility.yul\":5093:5114   */\n      mstore\n        /* \"#utility.yul\":5150:5152   */\n      0x26\n        /* \"#utility.yul\":5130:5148   */\n      0x24\n      dup3\n      add\n        /* \"#utility.yul\":5123:5153   */\n      mstore\n        /* \"#utility.yul\":5189:5223   */\n      0x4f776e61626c653a206e6577206f776e657220697320746865207a65726f2061\n        /* \"#utility.yul\":5169:5187   */\n      0x44\n      dup3\n      add\n        /* \"#utility.yul\":5162:5224   */\n      mstore\n      shl(0xd0, 0x646472657373)\n        /* \"#utility.yul\":5240:5258   */\n      0x64\n      dup3\n      add\n        /* \"#utility.yul\":5233:5269   */\n      mstore\n        /* \"#utility.yul\":5286:5305   */\n      0x84\n      add\n        /* \"@openzeppelin/contracts/access/Ownable.sol\":2161:2234  require(newOwner != address(0), \"Ownable: new owner is the zero address\") */\n      tag_70\n        /* \"#utility.yul\":4909:5311   */\n      jump\n        /* \"@openzeppelin/contracts/access/Ownable.sol\":2161:2234  require(newOwner != address(0), \"Ownable: new owner is the zero address\") */\n    tag_163:\n        /* \"@openzeppelin/contracts/access/Ownable.sol\":2244:2272  _transferOwnership(newOwner) */\n      tag_166\n        /* \"@openzeppelin/contracts/access/Ownable.sol\":2263:2271  newOwner */\n      dup2\n        /* \"@openzeppelin/contracts/access/Ownable.sol\":2244:2262  _transferOwnership */\n      tag_100\n        /* \"@openzeppelin/contracts/access/Ownable.sol\":2244:2272  _transferOwnership(newOwner) */\n      jump\t// in\n    tag_166:\n        /* \"@openzeppelin/contracts/access/Ownable.sol\":2081:2279  function transferOwnership(address newOwner) public virtual onlyOwner {... */\n      pop\n      jump\t// out\n        /* \"contracts/Manager/royalty/RoyaltyFeeSetter.sol\":5145:5828  function _updateRoyaltyInfoForCollectionIfOwnerOrAdmin(... */\n    tag_94:\n        /* \"contracts/Manager/royalty/RoyaltyFeeSetter.sol\":5353:5429  IRoyaltyFeeRegistry(royaltyFeeRegistry).royaltyFeeInfoCollection(collection) */\n      mload(0x40)\n      shl(0xe2, 0x38c7be47)\n      dup2\n      mstore\n      sub(shl(0xa0, 0x01), 0x01)\n        /* \"#utility.yul\":1124:1156   */\n      dup6\n      dup2\n      and\n        /* \"contracts/Manager/royalty/RoyaltyFeeSetter.sol\":5353:5429  IRoyaltyFeeRegistry(royaltyFeeRegistry).royaltyFeeInfoCollection(collection) */\n      0x04\n      dup4\n      add\n        /* \"#utility.yul\":1106:1157   */\n      mstore\n        /* \"contracts/Manager/royalty/RoyaltyFeeSetter.sol\":5325:5346  address currentSetter */\n      0x00\n      swap2\n        /* \"contracts/Manager/royalty/RoyaltyFeeSetter.sol\":5373:5391  royaltyFeeRegistry */\n      immutable(\"0x911a39fbf665a24ad3b6efc185d4b936bbda1900793ae2f7c00f4d18bdd96685\")\n        /* \"contracts/Manager/royalty/RoyaltyFeeSetter.sol\":5353:5417  IRoyaltyFeeRegistry(royaltyFeeRegistry).royaltyFeeInfoCollection */\n      swap1\n      swap2\n      and\n      swap1\n      0xe31ef91c\n      swap1\n        /* \"#utility.yul\":1079:1097   */\n      0x24\n      add\n        /* \"contracts/Manager/royalty/RoyaltyFeeSetter.sol\":5353:5429  IRoyaltyFeeRegistry(royaltyFeeRegistry).royaltyFeeInfoCollection(collection) */\n      0x60\n      mload(0x40)\n      dup1\n      dup4\n      sub\n      dup2\n      dup7\n      gas\n      staticcall\n      iszero\n      dup1\n      iszero\n      tag_170\n      jumpi\n      returndatasize\n      0x00\n      dup1\n      returndatacopy\n      revert(0x00, returndatasize)\n    tag_170:\n      pop\n      pop\n      pop\n      pop\n      mload(0x40)\n      returndatasize\n      not(0x1f)\n      0x1f\n      dup3\n      add\n      and\n      dup3\n      add\n      dup1\n      0x40\n      mstore\n      pop\n      dup2\n      add\n      swap1\n      tag_171\n      swap2\n      swap1\n      tag_68\n      jump\t// in\n    tag_171:\n      pop\n        /* \"contracts/Manager/royalty/RoyaltyFeeSetter.sol\":5324:5429  (address currentSetter, ,) = IRoyaltyFeeRegistry(royaltyFeeRegistry).royaltyFeeInfoCollection(collection) */\n      swap1\n      swap2\n      pop\n      pop\n      sub(shl(0xa0, 0x01), 0x01)\n        /* \"contracts/Manager/royalty/RoyaltyFeeSetter.sol\":5447:5474  currentSetter == address(0) */\n      dup2\n      and\n      iszero\n        /* \"contracts/Manager/royalty/RoyaltyFeeSetter.sol\":5439:5490  require(currentSetter == address(0), \"Already set\") */\n      tag_172\n      jumpi\n      mload(0x40)\n      shl(0xe5, 0x461bcd)\n      dup2\n      mstore\n        /* \"#utility.yul\":5518:5520   */\n      0x20\n        /* \"contracts/Manager/royalty/RoyaltyFeeSetter.sol\":5439:5490  require(currentSetter == address(0), \"Already set\") */\n      0x04\n      dup3\n      add\n        /* \"#utility.yul\":5500:5521   */\n      mstore\n        /* \"#utility.yul\":5557:5559   */\n      0x0b\n        /* \"#utility.yul\":5537:5555   */\n      0x24\n      dup3\n      add\n        /* \"#utility.yul\":5530:5560   */\n      mstore\n      shl(0xaa, 0x105b1c9958591e481cd95d)\n        /* \"#utility.yul\":5576:5594   */\n      0x44\n      dup3\n      add\n        /* \"#utility.yul\":5569:5610   */\n      mstore\n        /* \"#utility.yul\":5627:5645   */\n      0x64\n      add\n        /* \"contracts/Manager/royalty/RoyaltyFeeSetter.sol\":5439:5490  require(currentSetter == address(0), \"Already set\") */\n      tag_70\n        /* \"#utility.yul\":5316:5651   */\n      jump\n        /* \"contracts/Manager/royalty/RoyaltyFeeSetter.sol\":5439:5490  require(currentSetter == address(0), \"Already set\") */\n    tag_172:\n        /* \"contracts/Manager/royalty/RoyaltyFeeSetter.sol\":5523:5581  IERC165(collection).supportsInterface(INTERFACE_ID_ERC721) */\n      mload(0x40)\n      shl(0xe0, 0x01ffc9a7)\n      dup2\n      mstore\n      sub(shl(0xa0, 0x01), 0x01)\n        /* \"contracts/Manager/royalty/RoyaltyFeeSetter.sol\":5523:5560  IERC165(collection).supportsInterface */\n      dup7\n      and\n      swap1\n      0x01ffc9a7\n      swap1\n        /* \"contracts/Manager/royalty/RoyaltyFeeSetter.sol\":5523:5581  IERC165(collection).supportsInterface(INTERFACE_ID_ERC721) */\n      tag_175\n      swap1\n      shl(0xe0, 0x80ac58cd)\n        /* \"contracts/Manager/royalty/RoyaltyFeeSetter.sol\":5561:5580  INTERFACE_ID_ERC721 */\n      swap1\n        /* \"contracts/Manager/royalty/RoyaltyFeeSetter.sol\":5523:5581  IERC165(collection).supportsInterface(INTERFACE_ID_ERC721) */\n      0x04\n      add\n      tag_25\n      jump\t// in\n    tag_175:\n      0x20\n      mload(0x40)\n      dup1\n      dup4\n      sub\n      dup2\n      dup7\n      gas\n      staticcall\n      iszero\n      dup1\n      iszero\n      tag_177\n      jumpi\n      returndatasize\n      0x00\n      dup1\n      returndatacopy\n      revert(0x00, returndatasize)\n    tag_177:\n      pop\n      pop\n      pop\n      pop\n      mload(0x40)\n      returndatasize\n      not(0x1f)\n      0x1f\n      dup3\n      add\n      and\n      dup3\n      add\n      dup1\n      0x40\n      mstore\n      pop\n      dup2\n      add\n      swap1\n      tag_178\n      swap2\n      swap1\n      tag_82\n      jump\t// in\n    tag_178:\n        /* \"contracts/Manager/royalty/RoyaltyFeeSetter.sol\":5523:5652  IERC165(collection).supportsInterface(INTERFACE_ID_ERC721) ||... */\n      dup1\n      tag_183\n      jumpi\n      pop\n        /* \"contracts/Manager/royalty/RoyaltyFeeSetter.sol\":5593:5652  IERC165(collection).supportsInterface(INTERFACE_ID_ERC1155) */\n      mload(0x40)\n      shl(0xe0, 0x01ffc9a7)\n      dup2\n      mstore\n      sub(shl(0xa0, 0x01), 0x01)\n        /* \"contracts/Manager/royalty/RoyaltyFeeSetter.sol\":5593:5630  IERC165(collection).supportsInterface */\n      dup7\n      and\n      swap1\n      0x01ffc9a7\n      swap1\n        /* \"contracts/Manager/royalty/RoyaltyFeeSetter.sol\":5593:5652  IERC165(collection).supportsInterface(INTERFACE_ID_ERC1155) */\n      tag_180\n      swap1\n      shl(0xe1, 0x6cdb3d13)\n        /* \"contracts/Manager/royalty/RoyaltyFeeSetter.sol\":5631:5651  INTERFACE_ID_ERC1155 */\n      swap1\n        /* \"contracts/Manager/royalty/RoyaltyFeeSetter.sol\":5593:5652  IERC165(collection).supportsInterface(INTERFACE_ID_ERC1155) */\n      0x04\n      add\n      tag_25\n      jump\t// in\n    tag_180:\n      0x20\n      mload(0x40)\n      dup1\n      dup4\n      sub\n      dup2\n      dup7\n      gas\n      staticcall\n      iszero\n      dup1\n      iszero\n      tag_182\n      jumpi\n      returndatasize\n      0x00\n      dup1\n      returndatacopy\n      revert(0x00, returndatasize)\n    tag_182:\n      pop\n      pop\n      pop\n      pop\n      mload(0x40)\n      returndatasize\n      not(0x1f)\n      0x1f\n      dup3\n      add\n      and\n      dup3\n      add\n      dup1\n      0x40\n      mstore\n      pop\n      dup2\n      add\n      swap1\n      tag_183\n      swap2\n      swap1\n      tag_82\n      jump\t// in\n    tag_183:\n        /* \"contracts/Manager/royalty/RoyaltyFeeSetter.sol\":5501:5705  require(... */\n      tag_69\n      jumpi\n      mload(0x40)\n      shl(0xe5, 0x461bcd)\n      dup2\n      mstore\n        /* \"#utility.yul\":5858:5860   */\n      0x20\n        /* \"contracts/Manager/royalty/RoyaltyFeeSetter.sol\":5501:5705  require(... */\n      0x04\n      dup3\n      add\n        /* \"#utility.yul\":5840:5861   */\n      mstore\n        /* \"#utility.yul\":5897:5899   */\n      0x1a\n        /* \"#utility.yul\":5877:5895   */\n      0x24\n      dup3\n      add\n        /* \"#utility.yul\":5870:5900   */\n      mstore\n        /* \"#utility.yul\":5936:5964   */\n      0x204e6f7420536574206f66204552433732312f45524331313535000000000000\n        /* \"#utility.yul\":5916:5934   */\n      0x44\n      dup3\n      add\n        /* \"#utility.yul\":5909:5965   */\n      mstore\n        /* \"#utility.yul\":5982:6000   */\n      0x64\n      add\n        /* \"contracts/Manager/royalty/RoyaltyFeeSetter.sol\":5501:5705  require(... */\n      tag_70\n        /* \"#utility.yul\":5656:6006   */\n      jump\n        /* \"@openzeppelin/contracts/access/Ownable.sol\":1359:1489  function _checkOwner() internal view virtual {... */\n    tag_97:\n        /* \"@openzeppelin/contracts/access/Ownable.sol\":1247:1254  address */\n      0x00\n        /* \"@openzeppelin/contracts/access/Ownable.sol\":1273:1279  _owner */\n      sload\n      sub(shl(0xa0, 0x01), 0x01)\n      and\n        /* \"@openzeppelin/contracts/utils/Context.sol\":719:729  msg.sender */\n      caller\n        /* \"@openzeppelin/contracts/access/Ownable.sol\":1422:1445  owner() == _msgSender() */\n      eq\n        /* \"@openzeppelin/contracts/access/Ownable.sol\":1414:1482  require(owner() == _msgSender(), \"Ownable: caller is not the owner\") */\n      tag_99\n      jumpi\n      mload(0x40)\n      shl(0xe5, 0x461bcd)\n      dup2\n      mstore\n        /* \"#utility.yul\":6213:6215   */\n      0x20\n        /* \"@openzeppelin/contracts/access/Ownable.sol\":1414:1482  require(owner() == _msgSender(), \"Ownable: caller is not the owner\") */\n      0x04\n      dup3\n      add\n        /* \"#utility.yul\":6195:6216   */\n      dup2\n      swap1\n      mstore\n        /* \"#utility.yul\":6232:6250   */\n      0x24\n      dup3\n      add\n        /* \"#utility.yul\":6225:6255   */\n      mstore\n        /* \"#utility.yul\":6291:6325   */\n      0x4f776e61626c653a2063616c6c6572206973206e6f7420746865206f776e6572\n        /* \"#utility.yul\":6271:6289   */\n      0x44\n      dup3\n      add\n        /* \"#utility.yul\":6264:6326   */\n      mstore\n        /* \"#utility.yul\":6343:6361   */\n      0x64\n      add\n        /* \"@openzeppelin/contracts/access/Ownable.sol\":1414:1482  require(owner() == _msgSender(), \"Ownable: caller is not the owner\") */\n      tag_70\n        /* \"#utility.yul\":6011:6367   */\n      jump\n        /* \"@openzeppelin/contracts/access/Ownable.sol\":2433:2620  function _transferOwnership(address newOwner) internal virtual {... */\n    tag_100:\n        /* \"@openzeppelin/contracts/access/Ownable.sol\":2506:2522  address oldOwner */\n      0x00\n        /* \"@openzeppelin/contracts/access/Ownable.sol\":2525:2531  _owner */\n      dup1\n      sload\n      sub(shl(0xa0, 0x01), 0x01)\n        /* \"@openzeppelin/contracts/access/Ownable.sol\":2541:2558  _owner = newOwner */\n      dup4\n      dup2\n      and\n      not(sub(shl(0xa0, 0x01), 0x01))\n      dup4\n      and\n      dup2\n      or\n      dup5\n      sstore\n        /* \"@openzeppelin/contracts/access/Ownable.sol\":2573:2613  OwnershipTransferred(oldOwner, newOwner) */\n      mload(0x40)\n        /* \"@openzeppelin/contracts/access/Ownable.sol\":2525:2531  _owner */\n      swap2\n      swap1\n      swap3\n      and\n      swap3\n      dup4\n      swap2\n        /* \"@openzeppelin/contracts/access/Ownable.sol\":2573:2613  OwnershipTransferred(oldOwner, newOwner) */\n      0x8be0079c531659141344cd1fd0a4f28419497f9722a3daafe3b4186f6b6457e0\n      swap2\n        /* \"@openzeppelin/contracts/access/Ownable.sol\":2506:2522  address oldOwner */\n      swap1\n        /* \"@openzeppelin/contracts/access/Ownable.sol\":2573:2613  OwnershipTransferred(oldOwner, newOwner) */\n      log3\n        /* \"@openzeppelin/contracts/access/Ownable.sol\":2496:2620  {... */\n      pop\n        /* \"@openzeppelin/contracts/access/Ownable.sol\":2433:2620  function _transferOwnership(address newOwner) internal virtual {... */\n      pop\n      jump\t// out\n        /* \"#utility.yul\":14:145   */\n    tag_200:\n      sub(shl(0xa0, 0x01), 0x01)\n        /* \"#utility.yul\":89:120   */\n      dup2\n      and\n        /* \"#utility.yul\":79:121   */\n      dup2\n      eq\n        /* \"#utility.yul\":69:139   */\n      tag_166\n      jumpi\n        /* \"#utility.yul\":135:136   */\n      0x00\n        /* \"#utility.yul\":132:133   */\n      dup1\n        /* \"#utility.yul\":125:137   */\n      revert\n        /* \"#utility.yul\":150:748   */\n    tag_20:\n        /* \"#utility.yul\":236:242   */\n      0x00\n        /* \"#utility.yul\":244:250   */\n      dup1\n        /* \"#utility.yul\":252:258   */\n      0x00\n        /* \"#utility.yul\":260:266   */\n      dup1\n        /* \"#utility.yul\":313:316   */\n      0x80\n        /* \"#utility.yul\":301:310   */\n      dup6\n        /* \"#utility.yul\":292:299   */\n      dup8\n        /* \"#utility.yul\":288:311   */\n      sub\n        /* \"#utility.yul\":284:317   */\n      slt\n        /* \"#utility.yul\":281:334   */\n      iszero\n      tag_205\n      jumpi\n        /* \"#utility.yul\":330:331   */\n      0x00\n        /* \"#utility.yul\":327:328   */\n      dup1\n        /* \"#utility.yul\":320:332   */\n      revert\n        /* \"#utility.yul\":281:334   */\n    tag_205:\n        /* \"#utility.yul\":369:378   */\n      dup5\n        /* \"#utility.yul\":356:379   */\n      calldataload\n        /* \"#utility.yul\":388:419   */\n      tag_206\n        /* \"#utility.yul\":413:418   */\n      dup2\n        /* \"#utility.yul\":388:419   */\n      tag_200\n      jump\t// in\n    tag_206:\n        /* \"#utility.yul\":438:443   */\n      swap4\n      pop\n        /* \"#utility.yul\":495:497   */\n      0x20\n        /* \"#utility.yul\":480:498   */\n      dup6\n      add\n        /* \"#utility.yul\":467:499   */\n      calldataload\n        /* \"#utility.yul\":508:541   */\n      tag_207\n        /* \"#utility.yul\":467:499   */\n      dup2\n        /* \"#utility.yul\":508:541   */\n      tag_200\n      jump\t// in\n    tag_207:\n        /* \"#utility.yul\":560:567   */\n      swap3\n      pop\n        /* \"#utility.yul\":619:621   */\n      0x40\n        /* \"#utility.yul\":604:622   */\n      dup6\n      add\n        /* \"#utility.yul\":591:623   */\n      calldataload\n        /* \"#utility.yul\":632:665   */\n      tag_208\n        /* \"#utility.yul\":591:623   */\n      dup2\n        /* \"#utility.yul\":632:665   */\n      tag_200\n      jump\t// in\n    tag_208:\n        /* \"#utility.yul\":150:748   */\n      swap4\n      swap7\n      swap3\n      swap6\n      pop\n        /* \"#utility.yul\":684:691   */\n      swap3\n      swap4\n        /* \"#utility.yul\":738:740   */\n      0x60\n        /* \"#utility.yul\":723:741   */\n      add\n        /* \"#utility.yul\":710:742   */\n      calldataload\n      swap3\n      pop\n      pop\n        /* \"#utility.yul\":150:748   */\n      jump\t// out\n        /* \"#utility.yul\":753:955   */\n    tag_25:\n      not(sub(shl(0xe0, 0x01), 0x01))\n        /* \"#utility.yul\":915:948   */\n      swap2\n      swap1\n      swap2\n      and\n        /* \"#utility.yul\":897:949   */\n      dup2\n      mstore\n        /* \"#utility.yul\":885:887   */\n      0x20\n        /* \"#utility.yul\":870:888   */\n      add\n      swap1\n        /* \"#utility.yul\":753:955   */\n      jump\t// out\n        /* \"#utility.yul\":1168:1348   */\n    tag_43:\n        /* \"#utility.yul\":1227:1233   */\n      0x00\n        /* \"#utility.yul\":1280:1282   */\n      0x20\n        /* \"#utility.yul\":1268:1277   */\n      dup3\n        /* \"#utility.yul\":1259:1266   */\n      dup5\n        /* \"#utility.yul\":1255:1278   */\n      sub\n        /* \"#utility.yul\":1251:1283   */\n      slt\n        /* \"#utility.yul\":1248:1300   */\n      iszero\n      tag_212\n      jumpi\n        /* \"#utility.yul\":1296:1297   */\n      0x00\n        /* \"#utility.yul\":1293:1294   */\n      dup1\n        /* \"#utility.yul\":1286:1298   */\n      revert\n        /* \"#utility.yul\":1248:1300   */\n    tag_212:\n      pop\n        /* \"#utility.yul\":1319:1342   */\n      calldataload\n      swap2\n        /* \"#utility.yul\":1168:1348   */\n      swap1\n      pop\n      jump\t// out\n        /* \"#utility.yul\":1353:1600   */\n    tag_53:\n        /* \"#utility.yul\":1412:1418   */\n      0x00\n        /* \"#utility.yul\":1465:1467   */\n      0x20\n        /* \"#utility.yul\":1453:1462   */\n      dup3\n        /* \"#utility.yul\":1444:1451   */\n      dup5\n        /* \"#utility.yul\":1440:1463   */\n      sub\n        /* \"#utility.yul\":1436:1468   */\n      slt\n        /* \"#utility.yul\":1433:1485   */\n      iszero\n      tag_214\n      jumpi\n        /* \"#utility.yul\":1481:1482   */\n      0x00\n        /* \"#utility.yul\":1478:1479   */\n      dup1\n        /* \"#utility.yul\":1471:1483   */\n      revert\n        /* \"#utility.yul\":1433:1485   */\n    tag_214:\n        /* \"#utility.yul\":1520:1529   */\n      dup2\n        /* \"#utility.yul\":1507:1530   */\n      calldataload\n        /* \"#utility.yul\":1539:1570   */\n      tag_215\n        /* \"#utility.yul\":1564:1569   */\n      dup2\n        /* \"#utility.yul\":1539:1570   */\n      tag_200\n      jump\t// in\n    tag_215:\n        /* \"#utility.yul\":1589:1594   */\n      swap4\n        /* \"#utility.yul\":1353:1600   */\n      swap3\n      pop\n      pop\n      pop\n      jump\t// out\n        /* \"#utility.yul\":1891:2337   */\n    tag_68:\n        /* \"#utility.yul\":1979:1985   */\n      0x00\n        /* \"#utility.yul\":1987:1993   */\n      dup1\n        /* \"#utility.yul\":1995:2001   */\n      0x00\n        /* \"#utility.yul\":2048:2050   */\n      0x60\n        /* \"#utility.yul\":2036:2045   */\n      dup5\n        /* \"#utility.yul\":2027:2034   */\n      dup7\n        /* \"#utility.yul\":2023:2046   */\n      sub\n        /* \"#utility.yul\":2019:2051   */\n      slt\n        /* \"#utility.yul\":2016:2068   */\n      iszero\n      tag_218\n      jumpi\n        /* \"#utility.yul\":2064:2065   */\n      0x00\n        /* \"#utility.yul\":2061:2062   */\n      dup1\n        /* \"#utility.yul\":2054:2066   */\n      revert\n        /* \"#utility.yul\":2016:2068   */\n    tag_218:\n        /* \"#utility.yul\":2096:2105   */\n      dup4\n        /* \"#utility.yul\":2090:2106   */\n      mload\n        /* \"#utility.yul\":2115:2146   */\n      tag_219\n        /* \"#utility.yul\":2140:2145   */\n      dup2\n        /* \"#utility.yul\":2115:2146   */\n      tag_200\n      jump\t// in\n    tag_219:\n        /* \"#utility.yul\":2215:2217   */\n      0x20\n        /* \"#utility.yul\":2200:2218   */\n      dup6\n      add\n        /* \"#utility.yul\":2194:2219   */\n      mload\n        /* \"#utility.yul\":2165:2170   */\n      swap1\n      swap4\n      pop\n        /* \"#utility.yul\":2228:2261   */\n      tag_220\n        /* \"#utility.yul\":2194:2219   */\n      dup2\n        /* \"#utility.yul\":2228:2261   */\n      tag_200\n      jump\t// in\n    tag_220:\n        /* \"#utility.yul\":2280:2287   */\n      dup1\n        /* \"#utility.yul\":2270:2287   */\n      swap3\n      pop\n      pop\n        /* \"#utility.yul\":2327:2329   */\n      0x40\n        /* \"#utility.yul\":2316:2325   */\n      dup5\n        /* \"#utility.yul\":2312:2330   */\n      add\n        /* \"#utility.yul\":2306:2331   */\n      mload\n        /* \"#utility.yul\":2296:2331   */\n      swap1\n      pop\n        /* \"#utility.yul\":1891:2337   */\n      swap3\n      pop\n      swap3\n      pop\n      swap3\n      jump\t// out\n        /* \"#utility.yul\":3154:3431   */\n    tag_82:\n        /* \"#utility.yul\":3221:3227   */\n      0x00\n        /* \"#utility.yul\":3274:3276   */\n      0x20\n        /* \"#utility.yul\":3262:3271   */\n      dup3\n        /* \"#utility.yul\":3253:3260   */\n      dup5\n        /* \"#utility.yul\":3249:3272   */\n      sub\n        /* \"#utility.yul\":3245:3277   */\n      slt\n        /* \"#utility.yul\":3242:3294   */\n      iszero\n      tag_224\n      jumpi\n        /* \"#utility.yul\":3290:3291   */\n      0x00\n        /* \"#utility.yul\":3287:3288   */\n      dup1\n        /* \"#utility.yul\":3280:3292   */\n      revert\n        /* \"#utility.yul\":3242:3294   */\n    tag_224:\n        /* \"#utility.yul\":3322:3331   */\n      dup2\n        /* \"#utility.yul\":3316:3332   */\n      mload\n        /* \"#utility.yul\":3375:3380   */\n      dup1\n        /* \"#utility.yul\":3368:3381   */\n      iszero\n        /* \"#utility.yul\":3361:3382   */\n      iszero\n        /* \"#utility.yul\":3354:3359   */\n      dup2\n        /* \"#utility.yul\":3351:3383   */\n      eq\n        /* \"#utility.yul\":3341:3401   */\n      tag_215\n      jumpi\n        /* \"#utility.yul\":3397:3398   */\n      0x00\n        /* \"#utility.yul\":3394:3395   */\n      dup1\n        /* \"#utility.yul\":3387:3399   */\n      revert\n        /* \"#utility.yul\":3785:4036   */\n    tag_89:\n        /* \"#utility.yul\":3855:3861   */\n      0x00\n        /* \"#utility.yul\":3908:3910   */\n      0x20\n        /* \"#utility.yul\":3896:3905   */\n      dup3\n        /* \"#utility.yul\":3887:3894   */\n      dup5\n        /* \"#utility.yul\":3883:3906   */\n      sub\n        /* \"#utility.yul\":3879:3911   */\n      slt\n        /* \"#utility.yul\":3876:3928   */\n      iszero\n      tag_228\n      jumpi\n        /* \"#utility.yul\":3924:3925   */\n      0x00\n        /* \"#utility.yul\":3921:3922   */\n      dup1\n        /* \"#utility.yul\":3914:3926   */\n      revert\n        /* \"#utility.yul\":3876:3928   */\n    tag_228:\n        /* \"#utility.yul\":3956:3965   */\n      dup2\n        /* \"#utility.yul\":3950:3966   */\n      mload\n        /* \"#utility.yul\":3975:4006   */\n      tag_215\n        /* \"#utility.yul\":4000:4005   */\n      dup2\n        /* \"#utility.yul\":3975:4006   */\n      tag_200\n      jump\t// in\n\n    auxdata: 0xa2646970667358221220c01075db0d351aa8e96f221b8c835050c05895fa9e620104f5ff50e19eb1783164736f6c63430008110033\n}\n",
				"bytecode": {
					"linkReferences": {},
					"object": "60a060405234801561001057600080fd5b50604051610f36380380610f3683398101604081905261002f91610099565b61003833610049565b6001600160a01b03166080526100c9565b600080546001600160a01b038381166001600160a01b0319831681178455604051919092169283917f8be0079c531659141344cd1fd0a4f28419497f9722a3daafe3b4186f6b6457e09190a35050565b6000602082840312156100ab57600080fd5b81516001600160a01b03811681146100c257600080fd5b9392505050565b608051610e2861010e600039600081816101940152818161023201528181610330015281816106ad0152818161073b015281816109530152610a1d0152610e286000f3fe608060405234801561001057600080fd5b50600436106100cf5760003560e01c8063b060dd861161008c578063c16f515611610066578063c16f51561461018f578063c54e5497146101b6578063e72ba456146101ea578063f2fde38b146101fd57600080fd5b8063b060dd8614610160578063b9223c9d1461016e578063bc6bc0cd1461018157600080fd5b8063275da5ef146100d457806333bf6156146100e95780633755fa801461010d578063715018a6146101205780638da5cb5b14610128578063ab0166701461014d575b600080fd5b6100e76100e2366004610ccd565b610210565b005b6100f7636cdb3d1360e11b81565b6040516101049190610d1e565b60405180910390f35b6100e761011b366004610ccd565b610393565b6100e7610510565b6000546001600160a01b03165b6040516001600160a01b039091168152602001610104565b6100e761015b366004610ccd565b610524565b6100f763152a902d60e11b81565b6100e761017c366004610d33565b61068f565b6100f76380ac58cd60e01b81565b6101357f000000000000000000000000000000000000000000000000000000000000000081565b6101c96101c4366004610d4c565b610715565b604080516001600160a01b03909316835260ff909116602083015201610104565b6100e76101f8366004610d4c565b61092c565b6100e761020b366004610d4c565b610982565b6040516338c7be4760e21b81526001600160a01b0385811660048301526000917f00000000000000000000000000000000000000000000000000000000000000009091169063e31ef91c90602401606060405180830381865afa15801561027b573d6000803e3d6000fd5b505050506040513d601f19601f8201168201806040525081019061029f9190610d70565b5090915050336001600160a01b038216146102fa5760405162461bcd60e51b815260206004820152601660248201527529b2ba3a32b91d102737ba103a34329039b2ba3a32b960511b60448201526064015b60405180910390fd5b60405163177bf36d60e31b81526001600160a01b03868116600483015285811660248301528481166044830152606482018490527f0000000000000000000000000000000000000000000000000000000000000000169063bbdf9b6890608401600060405180830381600087803b15801561037457600080fd5b505af1158015610388573d6000803e3d6000fd5b505050505050505050565b6040516301ffc9a760e01b81526001600160a01b038516906301ffc9a7906103c69063152a902d60e11b90600401610d1e565b602060405180830381865afa1580156103e3573d6000803e3d6000fd5b505050506040513d601f19601f820116820180604052508101906104079190610db3565b1561044b5760405162461bcd60e51b8152602060048201526014602482015273204d757374206e6f74206265204552433239383160601b60448201526064016102f1565b836001600160a01b0316638da5cb5b6040518163ffffffff1660e01b8152600401602060405180830381865afa158015610489573d6000803e3d6000fd5b505050506040513d601f19601f820116820180604052508101906104ad9190610dd5565b6001600160a01b0316336001600160a01b0316146104fe5760405162461bcd60e51b815260206004820152600e60248201526d102737ba103a34329037bbb732b960911b60448201526064016102f1565b61050a848484846109fb565b50505050565b610518610c0e565b6105226000610c68565b565b6040516301ffc9a760e01b81526001600160a01b038516906301ffc9a7906105579063152a902d60e11b90600401610d1e565b602060405180830381865afa158015610574573d6000803e3d6000fd5b505050506040513d601f19601f820116820180604052508101906105989190610db3565b156105dc5760405162461bcd60e51b8152602060048201526014602482015273204d757374206e6f74206265204552433239383160601b60448201526064016102f1565b836001600160a01b031663f851a4406040518163ffffffff1660e01b8152600401602060405180830381865afa15801561061a573d6000803e3d6000fd5b505050506040513d601f19601f8201168201806040525081019061063e9190610dd5565b6001600160a01b0316336001600160a01b0316146104fe5760405162461bcd60e51b815260206004820152600e60248201526d102737ba103a34329030b236b4b760911b60448201526064016102f1565b610697610c0e565b60405163b9223c9d60e01b8152600481018290527f00000000000000000000000000000000000000000000000000000000000000006001600160a01b03169063b9223c9d906024015b600060405180830381600087803b1580156106fa57600080fd5b505af115801561070e573d6000803e3d6000fd5b5050505050565b6040516338c7be4760e21b81526001600160a01b038281166004830152600091829182917f00000000000000000000000000000000000000000000000000000000000000009091169063e31ef91c90602401606060405180830381865afa158015610784573d6000803e3d6000fd5b505050506040513d601f19601f820116820180604052508101906107a89190610d70565b50909150506001600160a01b038116156107c6579360009350915050565b6040516301ffc9a760e01b81526001600160a01b038516906301ffc9a7906107f99063152a902d60e11b90600401610d1e565b602060405180830381865afa925050508015610832575060408051601f3d908101601f1916820190925261082f91810190610db3565b60015b1561084d57801561084b57506000946001945092505050565b505b836001600160a01b0316638da5cb5b6040518163ffffffff1660e01b8152600401602060405180830381865afa9250505080156108a7575060408051601f3d908101601f191682019092526108a491810190610dd5565b60015b61092157836001600160a01b031663f851a4406040518163ffffffff1660e01b8152600401602060405180830381865afa925050508015610905575060408051601f3d908101601f1916820190925261090291810190610dd5565b60015b610916575060009360049350915050565b946003945092505050565b946002945092505050565b610934610c0e565b60405163f2fde38b60e01b81526001600160a01b0382811660048301527f0000000000000000000000000000000000000000000000000000000000000000169063f2fde38b906024016106e0565b61098a610c0e565b6001600160a01b0381166109ef5760405162461bcd60e51b815260206004820152602660248201527f4f776e61626c653a206e6577206f776e657220697320746865207a65726f206160448201526564647265737360d01b60648201526084016102f1565b6109f881610c68565b50565b6040516338c7be4760e21b81526001600160a01b0385811660048301526000917f00000000000000000000000000000000000000000000000000000000000000009091169063e31ef91c90602401606060405180830381865afa158015610a66573d6000803e3d6000fd5b505050506040513d601f19601f82011682018060405250810190610a8a9190610d70565b50909150506001600160a01b03811615610ad45760405162461bcd60e51b815260206004820152600b60248201526a105b1c9958591e481cd95d60aa1b60448201526064016102f1565b6040516301ffc9a760e01b81526001600160a01b038616906301ffc9a790610b07906380ac58cd60e01b90600401610d1e565b602060405180830381865afa158015610b24573d6000803e3d6000fd5b505050506040513d601f19601f82011682018060405250810190610b489190610db3565b80610bc257506040516301ffc9a760e01b81526001600160a01b038616906301ffc9a790610b8190636cdb3d1360e11b90600401610d1e565b602060405180830381865afa158015610b9e573d6000803e3d6000fd5b505050506040513d601f19601f82011682018060405250810190610bc29190610db3565b6102fa5760405162461bcd60e51b815260206004820152601a60248201527f204e6f7420536574206f66204552433732312f4552433131353500000000000060448201526064016102f1565b6000546001600160a01b031633146105225760405162461bcd60e51b815260206004820181905260248201527f4f776e61626c653a2063616c6c6572206973206e6f7420746865206f776e657260448201526064016102f1565b600080546001600160a01b038381166001600160a01b0319831681178455604051919092169283917f8be0079c531659141344cd1fd0a4f28419497f9722a3daafe3b4186f6b6457e09190a35050565b6001600160a01b03811681146109f857600080fd5b60008060008060808587031215610ce357600080fd5b8435610cee81610cb8565b93506020850135610cfe81610cb8565b92506040850135610d0e81610cb8565b9396929550929360600135925050565b6001600160e01b031991909116815260200190565b600060208284031215610d4557600080fd5b5035919050565b600060208284031215610d5e57600080fd5b8135610d6981610cb8565b9392505050565b600080600060608486031215610d8557600080fd5b8351610d9081610cb8565b6020850151909350610da181610cb8565b80925050604084015190509250925092565b600060208284031215610dc557600080fd5b81518015158114610d6957600080fd5b600060208284031215610de757600080fd5b8151610d6981610cb856fea2646970667358221220c01075db0d351aa8e96f221b8c835050c05895fa9e620104f5ff50e19eb1783164736f6c63430008110033",
					"opcodes": "PUSH1 0xA0 PUSH1 0x40 MSTORE CALLVALUE DUP1 ISZERO PUSH2 0x10 JUMPI PUSH1 0x0 DUP1 REVERT JUMPDEST POP PUSH1 0x40 MLOAD PUSH2 0xF36 CODESIZE SUB DUP1 PUSH2 0xF36 DUP4 CODECOPY DUP2 ADD PUSH1 0x40 DUP2 SWAP1 MSTORE PUSH2 0x2F SWAP2 PUSH2 0x99 JUMP JUMPDEST PUSH2 0x38 CALLER PUSH2 0x49 JUMP JUMPDEST PUSH1 0x1 PUSH1 0x1 PUSH1 0xA0 SHL SUB AND PUSH1 0x80 MSTORE PUSH2 0xC9 JUMP JUMPDEST PUSH1 0x0 DUP1 SLOAD PUSH1 0x1 PUSH1 0x1 PUSH1 0xA0 SHL SUB DUP4 DUP2 AND PUSH1 0x1 PUSH1 0x1 PUSH1 0xA0 SHL SUB NOT DUP4 AND DUP2 OR DUP5 SSTORE PUSH1 0x40 MLOAD SWAP2 SWAP1 SWAP3 AND SWAP3 DUP4 SWAP2 PUSH32 0x8BE0079C531659141344CD1FD0A4F28419497F9722A3DAAFE3B4186F6B6457E0 SWAP2 SWAP1 LOG3 POP POP JUMP JUMPDEST PUSH1 0x0 PUSH1 0x20 DUP3 DUP5 SUB SLT ISZERO PUSH2 0xAB JUMPI PUSH1 0x0 DUP1 REVERT JUMPDEST DUP2 MLOAD PUSH1 0x1 PUSH1 0x1 PUSH1 0xA0 SHL SUB DUP2 AND DUP2 EQ PUSH2 0xC2 JUMPI PUSH1 0x0 DUP1 REVERT JUMPDEST SWAP4 SWAP3 POP POP POP JUMP JUMPDEST PUSH1 0x80 MLOAD PUSH2 0xE28 PUSH2 0x10E PUSH1 0x0 CODECOPY PUSH1 0x0 DUP2 DUP2 PUSH2 0x194 ADD MSTORE DUP2 DUP2 PUSH2 0x232 ADD MSTORE DUP2 DUP2 PUSH2 0x330 ADD MSTORE DUP2 DUP2 PUSH2 0x6AD ADD MSTORE DUP2 DUP2 PUSH2 0x73B ADD MSTORE DUP2 DUP2 PUSH2 0x953 ADD MSTORE PUSH2 0xA1D ADD MSTORE PUSH2 0xE28 PUSH1 0x0 RETURN INVALID PUSH1 0x80 PUSH1 0x40 MSTORE CALLVALUE DUP1 ISZERO PUSH2 0x10 JUMPI PUSH1 0x0 DUP1 REVERT JUMPDEST POP PUSH1 0x4 CALLDATASIZE LT PUSH2 0xCF JUMPI PUSH1 0x0 CALLDATALOAD PUSH1 0xE0 SHR DUP1 PUSH4 0xB060DD86 GT PUSH2 0x8C JUMPI DUP1 PUSH4 0xC16F5156 GT PUSH2 0x66 JUMPI DUP1 PUSH4 0xC16F5156 EQ PUSH2 0x18F JUMPI DUP1 PUSH4 0xC54E5497 EQ PUSH2 0x1B6 JUMPI DUP1 PUSH4 0xE72BA456 EQ PUSH2 0x1EA JUMPI DUP1 PUSH4 0xF2FDE38B EQ PUSH2 0x1FD JUMPI PUSH1 0x0 DUP1 REVERT JUMPDEST DUP1 PUSH4 0xB060DD86 EQ PUSH2 0x160 JUMPI DUP1 PUSH4 0xB9223C9D EQ PUSH2 0x16E JUMPI DUP1 PUSH4 0xBC6BC0CD EQ PUSH2 0x181 JUMPI PUSH1 0x0 DUP1 REVERT JUMPDEST DUP1 PUSH4 0x275DA5EF EQ PUSH2 0xD4 JUMPI DUP1 PUSH4 0x33BF6156 EQ PUSH2 0xE9 JUMPI DUP1 PUSH4 0x3755FA80 EQ PUSH2 0x10D JUMPI DUP1 PUSH4 0x715018A6 EQ PUSH2 0x120 JUMPI DUP1 PUSH4 0x8DA5CB5B EQ PUSH2 0x128 JUMPI DUP1 PUSH4 0xAB016670 EQ PUSH2 0x14D JUMPI JUMPDEST PUSH1 0x0 DUP1 REVERT JUMPDEST PUSH2 0xE7 PUSH2 0xE2 CALLDATASIZE PUSH1 0x4 PUSH2 0xCCD JUMP JUMPDEST PUSH2 0x210 JUMP JUMPDEST STOP JUMPDEST PUSH2 0xF7 PUSH4 0x6CDB3D13 PUSH1 0xE1 SHL DUP2 JUMP JUMPDEST PUSH1 0x40 MLOAD PUSH2 0x104 SWAP2 SWAP1 PUSH2 0xD1E JUMP JUMPDEST PUSH1 0x40 MLOAD DUP1 SWAP2 SUB SWAP1 RETURN JUMPDEST PUSH2 0xE7 PUSH2 0x11B CALLDATASIZE PUSH1 0x4 PUSH2 0xCCD JUMP JUMPDEST PUSH2 0x393 JUMP JUMPDEST PUSH2 0xE7 PUSH2 0x510 JUMP JUMPDEST PUSH1 0x0 SLOAD PUSH1 0x1 PUSH1 0x1 PUSH1 0xA0 SHL SUB AND JUMPDEST PUSH1 0x40 MLOAD PUSH1 0x1 PUSH1 0x1 PUSH1 0xA0 SHL SUB SWAP1 SWAP2 AND DUP2 MSTORE PUSH1 0x20 ADD PUSH2 0x104 JUMP JUMPDEST PUSH2 0xE7 PUSH2 0x15B CALLDATASIZE PUSH1 0x4 PUSH2 0xCCD JUMP JUMPDEST PUSH2 0x524 JUMP JUMPDEST PUSH2 0xF7 PUSH4 0x152A902D PUSH1 0xE1 SHL DUP2 JUMP JUMPDEST PUSH2 0xE7 PUSH2 0x17C CALLDATASIZE PUSH1 0x4 PUSH2 0xD33 JUMP JUMPDEST PUSH2 0x68F JUMP JUMPDEST PUSH2 0xF7 PUSH4 0x80AC58CD PUSH1 0xE0 SHL DUP2 JUMP JUMPDEST PUSH2 0x135 PUSH32 0x0 DUP2 JUMP JUMPDEST PUSH2 0x1C9 PUSH2 0x1C4 CALLDATASIZE PUSH1 0x4 PUSH2 0xD4C JUMP JUMPDEST PUSH2 0x715 JUMP JUMPDEST PUSH1 0x40 DUP1 MLOAD PUSH1 0x1 PUSH1 0x1 PUSH1 0xA0 SHL SUB SWAP1 SWAP4 AND DUP4 MSTORE PUSH1 0xFF SWAP1 SWAP2 AND PUSH1 0x20 DUP4 ADD MSTORE ADD PUSH2 0x104 JUMP JUMPDEST PUSH2 0xE7 PUSH2 0x1F8 CALLDATASIZE PUSH1 0x4 PUSH2 0xD4C JUMP JUMPDEST PUSH2 0x92C JUMP JUMPDEST PUSH2 0xE7 PUSH2 0x20B CALLDATASIZE PUSH1 0x4 PUSH2 0xD4C JUMP JUMPDEST PUSH2 0x982 JUMP JUMPDEST PUSH1 0x40 MLOAD PUSH4 0x38C7BE47 PUSH1 0xE2 SHL DUP2 MSTORE PUSH1 0x1 PUSH1 0x1 PUSH1 0xA0 SHL SUB DUP6 DUP2 AND PUSH1 0x4 DUP4 ADD MSTORE PUSH1 0x0 SWAP2 PUSH32 0x0 SWAP1 SWAP2 AND SWAP1 PUSH4 0xE31EF91C SWAP1 PUSH1 0x24 ADD PUSH1 0x60 PUSH1 0x40 MLOAD DUP1 DUP4 SUB DUP2 DUP7 GAS STATICCALL ISZERO DUP1 ISZERO PUSH2 0x27B JUMPI RETURNDATASIZE PUSH1 0x0 DUP1 RETURNDATACOPY RETURNDATASIZE PUSH1 0x0 REVERT JUMPDEST POP POP POP POP PUSH1 0x40 MLOAD RETURNDATASIZE PUSH1 0x1F NOT PUSH1 0x1F DUP3 ADD AND DUP3 ADD DUP1 PUSH1 0x40 MSTORE POP DUP2 ADD SWAP1 PUSH2 0x29F SWAP2 SWAP1 PUSH2 0xD70 JUMP JUMPDEST POP SWAP1 SWAP2 POP POP CALLER PUSH1 0x1 PUSH1 0x1 PUSH1 0xA0 SHL SUB DUP3 AND EQ PUSH2 0x2FA JUMPI PUSH1 0x40 MLOAD PUSH3 0x461BCD PUSH1 0xE5 SHL DUP2 MSTORE PUSH1 0x20 PUSH1 0x4 DUP3 ADD MSTORE PUSH1 0x16 PUSH1 0x24 DUP3 ADD MSTORE PUSH22 0x29B2BA3A32B91D102737BA103A34329039B2BA3A32B9 PUSH1 0x51 SHL PUSH1 0x44 DUP3 ADD MSTORE PUSH1 0x64 ADD JUMPDEST PUSH1 0x40 MLOAD DUP1 SWAP2 SUB SWAP1 REVERT JUMPDEST PUSH1 0x40 MLOAD PUSH4 0x177BF36D PUSH1 0xE3 SHL DUP2 MSTORE PUSH1 0x1 PUSH1 0x1 PUSH1 0xA0 SHL SUB DUP7 DUP2 AND PUSH1 0x4 DUP4 ADD MSTORE DUP6 DUP2 AND PUSH1 0x24 DUP4 ADD MSTORE DUP5 DUP2 AND PUSH1 0x44 DUP4 ADD MSTORE PUSH1 0x64 DUP3 ADD DUP5 SWAP1 MSTORE PUSH32 0x0 AND SWAP1 PUSH4 0xBBDF9B68 SWAP1 PUSH1 0x84 ADD PUSH1 0x0 PUSH1 0x40 MLOAD DUP1 DUP4 SUB DUP2 PUSH1 0x0 DUP8 DUP1 EXTCODESIZE ISZERO DUP1 ISZERO PUSH2 0x374 JUMPI PUSH1 0x0 DUP1 REVERT JUMPDEST POP GAS CALL ISZERO DUP1 ISZERO PUSH2 0x388 JUMPI RETURNDATASIZE PUSH1 0x0 DUP1 RETURNDATACOPY RETURNDATASIZE PUSH1 0x0 REVERT JUMPDEST POP POP POP POP POP POP POP POP POP JUMP JUMPDEST PUSH1 0x40 MLOAD PUSH4 0x1FFC9A7 PUSH1 0xE0 SHL DUP2 MSTORE PUSH1 0x1 PUSH1 0x1 PUSH1 0xA0 SHL SUB DUP6 AND SWAP1 PUSH4 0x1FFC9A7 SWAP1 PUSH2 0x3C6 SWAP1 PUSH4 0x152A902D PUSH1 0xE1 SHL SWAP1 PUSH1 0x4 ADD PUSH2 0xD1E JUMP JUMPDEST PUSH1 0x20 PUSH1 0x40 MLOAD DUP1 DUP4 SUB DUP2 DUP7 GAS STATICCALL ISZERO DUP1 ISZERO PUSH2 0x3E3 JUMPI RETURNDATASIZE PUSH1 0x0 DUP1 RETURNDATACOPY RETURNDATASIZE PUSH1 0x0 REVERT JUMPDEST POP POP POP POP PUSH1 0x40 MLOAD RETURNDATASIZE PUSH1 0x1F NOT PUSH1 0x1F DUP3 ADD AND DUP3 ADD DUP1 PUSH1 0x40 MSTORE POP DUP2 ADD SWAP1 PUSH2 0x407 SWAP2 SWAP1 PUSH2 0xDB3 JUMP JUMPDEST ISZERO PUSH2 0x44B JUMPI PUSH1 0x40 MLOAD PUSH3 0x461BCD PUSH1 0xE5 SHL DUP2 MSTORE PUSH1 0x20 PUSH1 0x4 DUP3 ADD MSTORE PUSH1 0x14 PUSH1 0x24 DUP3 ADD MSTORE PUSH20 0x204D757374206E6F742062652045524332393831 PUSH1 0x60 SHL PUSH1 0x44 DUP3 ADD MSTORE PUSH1 0x64 ADD PUSH2 0x2F1 JUMP JUMPDEST DUP4 PUSH1 0x1 PUSH1 0x1 PUSH1 0xA0 SHL SUB AND PUSH4 0x8DA5CB5B PUSH1 0x40 MLOAD DUP2 PUSH4 0xFFFFFFFF AND PUSH1 0xE0 SHL DUP2 MSTORE PUSH1 0x4 ADD PUSH1 0x20 PUSH1 0x40 MLOAD DUP1 DUP4 SUB DUP2 DUP7 GAS STATICCALL ISZERO DUP1 ISZERO PUSH2 0x489 JUMPI RETURNDATASIZE PUSH1 0x0 DUP1 RETURNDATACOPY RETURNDATASIZE PUSH1 0x0 REVERT JUMPDEST POP POP POP POP PUSH1 0x40 MLOAD RETURNDATASIZE PUSH1 0x1F NOT PUSH1 0x1F DUP3 ADD AND DUP3 ADD DUP1 PUSH1 0x40 MSTORE POP DUP2 ADD SWAP1 PUSH2 0x4AD SWAP2 SWAP1 PUSH2 0xDD5 JUMP JUMPDEST PUSH1 0x1 PUSH1 0x1 PUSH1 0xA0 SHL SUB AND CALLER PUSH1 0x1 PUSH1 0x1 PUSH1 0xA0 SHL SUB AND EQ PUSH2 0x4FE JUMPI PUSH1 0x40 MLOAD PUSH3 0x461BCD PUSH1 0xE5 SHL DUP2 MSTORE PUSH1 0x20 PUSH1 0x4 DUP3 ADD MSTORE PUSH1 0xE PUSH1 0x24 DUP3 ADD MSTORE PUSH14 0x102737BA103A34329037BBB732B9 PUSH1 0x91 SHL PUSH1 0x44 DUP3 ADD MSTORE PUSH1 0x64 ADD PUSH2 0x2F1 JUMP JUMPDEST PUSH2 0x50A DUP5 DUP5 DUP5 DUP5 PUSH2 0x9FB JUMP JUMPDEST POP POP POP POP JUMP JUMPDEST PUSH2 0x518 PUSH2 0xC0E JUMP JUMPDEST PUSH2 0x522 PUSH1 0x0 PUSH2 0xC68 JUMP JUMPDEST JUMP JUMPDEST PUSH1 0x40 MLOAD PUSH4 0x1FFC9A7 PUSH1 0xE0 SHL DUP2 MSTORE PUSH1 0x1 PUSH1 0x1 PUSH1 0xA0 SHL SUB DUP6 AND SWAP1 PUSH4 0x1FFC9A7 SWAP1 PUSH2 0x557 SWAP1 PUSH4 0x152A902D PUSH1 0xE1 SHL SWAP1 PUSH1 0x4 ADD PUSH2 0xD1E JUMP JUMPDEST PUSH1 0x20 PUSH1 0x40 MLOAD DUP1 DUP4 SUB DUP2 DUP7 GAS STATICCALL ISZERO DUP1 ISZERO PUSH2 0x574 JUMPI RETURNDATASIZE PUSH1 0x0 DUP1 RETURNDATACOPY RETURNDATASIZE PUSH1 0x0 REVERT JUMPDEST POP POP POP POP PUSH1 0x40 MLOAD RETURNDATASIZE PUSH1 0x1F NOT PUSH1 0x1F DUP3 ADD AND DUP3 ADD DUP1 PUSH1 0x40 MSTORE POP DUP2 ADD SWAP1 PUSH2 0x598 SWAP2 SWAP1 PUSH2 0xDB3 JUMP JUMPDEST ISZERO PUSH2 0x5DC JUMPI PUSH1 0x40 MLOAD PUSH3 0x461BCD PUSH1 0xE5 SHL DUP2 MSTORE PUSH1 0x20 PUSH1 0x4 DUP3 ADD MSTORE PUSH1 0x14 PUSH1 0x24 DUP3 ADD MSTORE PUSH20 0x204D757374206E6F742062652045524332393831 PUSH1 0x60 SHL PUSH1 0x44 DUP3 ADD MSTORE PUSH1 0x64 ADD PUSH2 0x2F1 JUMP JUMPDEST DUP4 PUSH1 0x1 PUSH1 0x1 PUSH1 0xA0 SHL SUB AND PUSH4 0xF851A440 PUSH1 0x40 MLOAD DUP2 PUSH4 0xFFFFFFFF AND PUSH1 0xE0 SHL DUP2 MSTORE PUSH1 0x4 ADD PUSH1 0x20 PUSH1 0x40 MLOAD DUP1 DUP4 SUB DUP2 DUP7 GAS STATICCALL ISZERO DUP1 ISZERO PUSH2 0x61A JUMPI RETURNDATASIZE PUSH1 0x0 DUP1 RETURNDATACOPY RETURNDATASIZE PUSH1 0x0 REVERT JUMPDEST POP POP POP POP PUSH1 0x40 MLOAD RETURNDATASIZE PUSH1 0x1F NOT PUSH1 0x1F DUP3 ADD AND DUP3 ADD DUP1 PUSH1 0x40 MSTORE POP DUP2 ADD SWAP1 PUSH2 0x63E SWAP2 SWAP1 PUSH2 0xDD5 JUMP JUMPDEST PUSH1 0x1 PUSH1 0x1 PUSH1 0xA0 SHL SUB AND CALLER PUSH1 0x1 PUSH1 0x1 PUSH1 0xA0 SHL SUB AND EQ PUSH2 0x4FE JUMPI PUSH1 0x40 MLOAD PUSH3 0x461BCD PUSH1 0xE5 SHL DUP2 MSTORE PUSH1 0x20 PUSH1 0x4 DUP3 ADD MSTORE PUSH1 0xE PUSH1 0x24 DUP3 ADD MSTORE PUSH14 0x102737BA103A34329030B236B4B7 PUSH1 0x91 SHL PUSH1 0x44 DUP3 ADD MSTORE PUSH1 0x64 ADD PUSH2 0x2F1 JUMP JUMPDEST PUSH2 0x697 PUSH2 0xC0E JUMP JUMPDEST PUSH1 0x40 MLOAD PUSH4 0xB9223C9D PUSH1 0xE0 SHL DUP2 MSTORE PUSH1 0x4 DUP2 ADD DUP3 SWAP1 MSTORE PUSH32 0x0 PUSH1 0x1 PUSH1 0x1 PUSH1 0xA0 SHL SUB AND SWAP1 PUSH4 0xB9223C9D SWAP1 PUSH1 0x24 ADD JUMPDEST PUSH1 0x0 PUSH1 0x40 MLOAD DUP1 DUP4 SUB DUP2 PUSH1 0x0 DUP8 DUP1 EXTCODESIZE ISZERO DUP1 ISZERO PUSH2 0x6FA JUMPI PUSH1 0x0 DUP1 REVERT JUMPDEST POP GAS CALL ISZERO DUP1 ISZERO PUSH2 0x70E JUMPI RETURNDATASIZE PUSH1 0x0 DUP1 RETURNDATACOPY RETURNDATASIZE PUSH1 0x0 REVERT JUMPDEST POP POP POP POP POP JUMP JUMPDEST PUSH1 0x40 MLOAD PUSH4 0x38C7BE47 PUSH1 0xE2 SHL DUP2 MSTORE PUSH1 0x1 PUSH1 0x1 PUSH1 0xA0 SHL SUB DUP3 DUP2 AND PUSH1 0x4 DUP4 ADD MSTORE PUSH1 0x0 SWAP2 DUP3 SWAP2 DUP3 SWAP2 PUSH32 0x0 SWAP1 SWAP2 AND SWAP1 PUSH4 0xE31EF91C SWAP1 PUSH1 0x24 ADD PUSH1 0x60 PUSH1 0x40 MLOAD DUP1 DUP4 SUB DUP2 DUP7 GAS STATICCALL ISZERO DUP1 ISZERO PUSH2 0x784 JUMPI RETURNDATASIZE PUSH1 0x0 DUP1 RETURNDATACOPY RETURNDATASIZE PUSH1 0x0 REVERT JUMPDEST POP POP POP POP PUSH1 0x40 MLOAD RETURNDATASIZE PUSH1 0x1F NOT PUSH1 0x1F DUP3 ADD AND DUP3 ADD DUP1 PUSH1 0x40 MSTORE POP DUP2 ADD SWAP1 PUSH2 0x7A8 SWAP2 SWAP1 PUSH2 0xD70 JUMP JUMPDEST POP SWAP1 SWAP2 POP POP PUSH1 0x1 PUSH1 0x1 PUSH1 0xA0 SHL SUB DUP2 AND ISZERO PUSH2 0x7C6 JUMPI SWAP4 PUSH1 0x0 SWAP4 POP SWAP2 POP POP JUMP JUMPDEST PUSH1 0x40 MLOAD PUSH4 0x1FFC9A7 PUSH1 0xE0 SHL DUP2 MSTORE PUSH1 0x1 PUSH1 0x1 PUSH1 0xA0 SHL SUB DUP6 AND SWAP1 PUSH4 0x1FFC9A7 SWAP1 PUSH2 0x7F9 SWAP1 PUSH4 0x152A902D PUSH1 0xE1 SHL SWAP1 PUSH1 0x4 ADD PUSH2 0xD1E JUMP JUMPDEST PUSH1 0x20 PUSH1 0x40 MLOAD DUP1 DUP4 SUB DUP2 DUP7 GAS STATICCALL SWAP3 POP POP POP DUP1 ISZERO PUSH2 0x832 JUMPI POP PUSH1 0x40 DUP1 MLOAD PUSH1 0x1F RETURNDATASIZE SWAP1 DUP2 ADD PUSH1 0x1F NOT AND DUP3 ADD SWAP1 SWAP3 MSTORE PUSH2 0x82F SWAP2 DUP2 ADD SWAP1 PUSH2 0xDB3 JUMP JUMPDEST PUSH1 0x1 JUMPDEST ISZERO PUSH2 0x84D JUMPI DUP1 ISZERO PUSH2 0x84B JUMPI POP PUSH1 0x0 SWAP5 PUSH1 0x1 SWAP5 POP SWAP3 POP POP POP JUMP JUMPDEST POP JUMPDEST DUP4 PUSH1 0x1 PUSH1 0x1 PUSH1 0xA0 SHL SUB AND PUSH4 0x8DA5CB5B PUSH1 0x40 MLOAD DUP2 PUSH4 0xFFFFFFFF AND PUSH1 0xE0 SHL DUP2 MSTORE PUSH1 0x4 ADD PUSH1 0x20 PUSH1 0x40 MLOAD DUP1 DUP4 SUB DUP2 DUP7 GAS STATICCALL SWAP3 POP POP POP DUP1 ISZERO PUSH2 0x8A7 JUMPI POP PUSH1 0x40 DUP1 MLOAD PUSH1 0x1F RETURNDATASIZE SWAP1 DUP2 ADD PUSH1 0x1F NOT AND DUP3 ADD SWAP1 SWAP3 MSTORE PUSH2 0x8A4 SWAP2 DUP2 ADD SWAP1 PUSH2 0xDD5 JUMP JUMPDEST PUSH1 0x1 JUMPDEST PUSH2 0x921 JUMPI DUP4 PUSH1 0x1 PUSH1 0x1 PUSH1 0xA0 SHL SUB AND PUSH4 0xF851A440 PUSH1 0x40 MLOAD DUP2 PUSH4 0xFFFFFFFF AND PUSH1 0xE0 SHL DUP2 MSTORE PUSH1 0x4 ADD PUSH1 0x20 PUSH1 0x40 MLOAD DUP1 DUP4 SUB DUP2 DUP7 GAS STATICCALL SWAP3 POP POP POP DUP1 ISZERO PUSH2 0x905 JUMPI POP PUSH1 0x40 DUP1 MLOAD PUSH1 0x1F RETURNDATASIZE SWAP1 DUP2 ADD PUSH1 0x1F NOT AND DUP3 ADD SWAP1 SWAP3 MSTORE PUSH2 0x902 SWAP2 DUP2 ADD SWAP1 PUSH2 0xDD5 JUMP JUMPDEST PUSH1 0x1 JUMPDEST PUSH2 0x916 JUMPI POP PUSH1 0x0 SWAP4 PUSH1 0x4 SWAP4 POP SWAP2 POP POP JUMP JUMPDEST SWAP5 PUSH1 0x3 SWAP5 POP SWAP3 POP POP POP JUMP JUMPDEST SWAP5 PUSH1 0x2 SWAP5 POP SWAP3 POP POP POP JUMP JUMPDEST PUSH2 0x934 PUSH2 0xC0E JUMP JUMPDEST PUSH1 0x40 MLOAD PUSH4 0xF2FDE38B PUSH1 0xE0 SHL DUP2 MSTORE PUSH1 0x1 PUSH1 0x1 PUSH1 0xA0 SHL SUB DUP3 DUP2 AND PUSH1 0x4 DUP4 ADD MSTORE PUSH32 0x0 AND SWAP1 PUSH4 0xF2FDE38B SWAP1 PUSH1 0x24 ADD PUSH2 0x6E0 JUMP JUMPDEST PUSH2 0x98A PUSH2 0xC0E JUMP JUMPDEST PUSH1 0x1 PUSH1 0x1 PUSH1 0xA0 SHL SUB DUP2 AND PUSH2 0x9EF JUMPI PUSH1 0x40 MLOAD PUSH3 0x461BCD PUSH1 0xE5 SHL DUP2 MSTORE PUSH1 0x20 PUSH1 0x4 DUP3 ADD MSTORE PUSH1 0x26 PUSH1 0x24 DUP3 ADD MSTORE PUSH32 0x4F776E61626C653A206E6577206F776E657220697320746865207A65726F2061 PUSH1 0x44 DUP3 ADD MSTORE PUSH6 0x646472657373 PUSH1 0xD0 SHL PUSH1 0x64 DUP3 ADD MSTORE PUSH1 0x84 ADD PUSH2 0x2F1 JUMP JUMPDEST PUSH2 0x9F8 DUP2 PUSH2 0xC68 JUMP JUMPDEST POP JUMP JUMPDEST PUSH1 0x40 MLOAD PUSH4 0x38C7BE47 PUSH1 0xE2 SHL DUP2 MSTORE PUSH1 0x1 PUSH1 0x1 PUSH1 0xA0 SHL SUB DUP6 DUP2 AND PUSH1 0x4 DUP4 ADD MSTORE PUSH1 0x0 SWAP2 PUSH32 0x0 SWAP1 SWAP2 AND SWAP1 PUSH4 0xE31EF91C SWAP1 PUSH1 0x24 ADD PUSH1 0x60 PUSH1 0x40 MLOAD DUP1 DUP4 SUB DUP2 DUP7 GAS STATICCALL ISZERO DUP1 ISZERO PUSH2 0xA66 JUMPI RETURNDATASIZE PUSH1 0x0 DUP1 RETURNDATACOPY RETURNDATASIZE PUSH1 0x0 REVERT JUMPDEST POP POP POP POP PUSH1 0x40 MLOAD RETURNDATASIZE PUSH1 0x1F NOT PUSH1 0x1F DUP3 ADD AND DUP3 ADD DUP1 PUSH1 0x40 MSTORE POP DUP2 ADD SWAP1 PUSH2 0xA8A SWAP2 SWAP1 PUSH2 0xD70 JUMP JUMPDEST POP SWAP1 SWAP2 POP POP PUSH1 0x1 PUSH1 0x1 PUSH1 0xA0 SHL SUB DUP2 AND ISZERO PUSH2 0xAD4 JUMPI PUSH1 0x40 MLOAD PUSH3 0x461BCD PUSH1 0xE5 SHL DUP2 MSTORE PUSH1 0x20 PUSH1 0x4 DUP3 ADD MSTORE PUSH1 0xB PUSH1 0x24 DUP3 ADD MSTORE PUSH11 0x105B1C9958591E481CD95D PUSH1 0xAA SHL PUSH1 0x44 DUP3 ADD MSTORE PUSH1 0x64 ADD PUSH2 0x2F1 JUMP JUMPDEST PUSH1 0x40 MLOAD PUSH4 0x1FFC9A7 PUSH1 0xE0 SHL DUP2 MSTORE PUSH1 0x1 PUSH1 0x1 PUSH1 0xA0 SHL SUB DUP7 AND SWAP1 PUSH4 0x1FFC9A7 SWAP1 PUSH2 0xB07 SWAP1 PUSH4 0x80AC58CD PUSH1 0xE0 SHL SWAP1 PUSH1 0x4 ADD PUSH2 0xD1E JUMP JUMPDEST PUSH1 0x20 PUSH1 0x40 MLOAD DUP1 DUP4 SUB DUP2 DUP7 GAS STATICCALL ISZERO DUP1 ISZERO PUSH2 0xB24 JUMPI RETURNDATASIZE PUSH1 0x0 DUP1 RETURNDATACOPY RETURNDATASIZE PUSH1 0x0 REVERT JUMPDEST POP POP POP POP PUSH1 0x40 MLOAD RETURNDATASIZE PUSH1 0x1F NOT PUSH1 0x1F DUP3 ADD AND DUP3 ADD DUP1 PUSH1 0x40 MSTORE POP DUP2 ADD SWAP1 PUSH2 0xB48 SWAP2 SWAP1 PUSH2 0xDB3 JUMP JUMPDEST DUP1 PUSH2 0xBC2 JUMPI POP PUSH1 0x40 MLOAD PUSH4 0x1FFC9A7 PUSH1 0xE0 SHL DUP2 MSTORE PUSH1 0x1 PUSH1 0x1 PUSH1 0xA0 SHL SUB DUP7 AND SWAP1 PUSH4 0x1FFC9A7 SWAP1 PUSH2 0xB81 SWAP1 PUSH4 0x6CDB3D13 PUSH1 0xE1 SHL SWAP1 PUSH1 0x4 ADD PUSH2 0xD1E JUMP JUMPDEST PUSH1 0x20 PUSH1 0x40 MLOAD DUP1 DUP4 SUB DUP2 DUP7 GAS STATICCALL ISZERO DUP1 ISZERO PUSH2 0xB9E JUMPI RETURNDATASIZE PUSH1 0x0 DUP1 RETURNDATACOPY RETURNDATASIZE PUSH1 0x0 REVERT JUMPDEST POP POP POP POP PUSH1 0x40 MLOAD RETURNDATASIZE PUSH1 0x1F NOT PUSH1 0x1F DUP3 ADD AND DUP3 ADD DUP1 PUSH1 0x40 MSTORE POP DUP2 ADD SWAP1 PUSH2 0xBC2 SWAP2 SWAP1 PUSH2 0xDB3 JUMP JUMPDEST PUSH2 0x2FA JUMPI PUSH1 0x40 MLOAD PUSH3 0x461BCD PUSH1 0xE5 SHL DUP2 MSTORE PUSH1 0x20 PUSH1 0x4 DUP3 ADD MSTORE PUSH1 0x1A PUSH1 0x24 DUP3 ADD MSTORE PUSH32 0x204E6F7420536574206F66204552433732312F45524331313535000000000000 PUSH1 0x44 DUP3 ADD MSTORE PUSH1 0x64 ADD PUSH2 0x2F1 JUMP JUMPDEST PUSH1 0x0 SLOAD PUSH1 0x1 PUSH1 0x1 PUSH1 0xA0 SHL SUB AND CALLER EQ PUSH2 0x522 JUMPI PUSH1 0x40 MLOAD PUSH3 0x461BCD PUSH1 0xE5 SHL DUP2 MSTORE PUSH1 0x20 PUSH1 0x4 DUP3 ADD DUP2 SWAP1 MSTORE PUSH1 0x24 DUP3 ADD MSTORE PUSH32 0x4F776E61626C653A2063616C6C6572206973206E6F7420746865206F776E6572 PUSH1 0x44 DUP3 ADD MSTORE PUSH1 0x64 ADD PUSH2 0x2F1 JUMP JUMPDEST PUSH1 0x0 DUP1 SLOAD PUSH1 0x1 PUSH1 0x1 PUSH1 0xA0 SHL SUB DUP4 DUP2 AND PUSH1 0x1 PUSH1 0x1 PUSH1 0xA0 SHL SUB NOT DUP4 AND DUP2 OR DUP5 SSTORE PUSH1 0x40 MLOAD SWAP2 SWAP1 SWAP3 AND SWAP3 DUP4 SWAP2 PUSH32 0x8BE0079C531659141344CD1FD0A4F28419497F9722A3DAAFE3B4186F6B6457E0 SWAP2 SWAP1 LOG3 POP POP JUMP JUMPDEST PUSH1 0x1 PUSH1 0x1 PUSH1 0xA0 SHL SUB DUP2 AND DUP2 EQ PUSH2 0x9F8 JUMPI PUSH1 0x0 DUP1 REVERT JUMPDEST PUSH1 0x0 DUP1 PUSH1 0x0 DUP1 PUSH1 0x80 DUP6 DUP8 SUB SLT ISZERO PUSH2 0xCE3 JUMPI PUSH1 0x0 DUP1 REVERT JUMPDEST DUP5 CALLDATALOAD PUSH2 0xCEE DUP2 PUSH2 0xCB8 JUMP JUMPDEST SWAP4 POP PUSH1 0x20 DUP6 ADD CALLDATALOAD PUSH2 0xCFE DUP2 PUSH2 0xCB8 JUMP JUMPDEST SWAP3 POP PUSH1 0x40 DUP6 ADD CALLDATALOAD PUSH2 0xD0E DUP2 PUSH2 0xCB8 JUMP JUMPDEST SWAP4 SWAP7 SWAP3 SWAP6 POP SWAP3 SWAP4 PUSH1 0x60 ADD CALLDATALOAD SWAP3 POP POP JUMP JUMPDEST PUSH1 0x1 PUSH1 0x1 PUSH1 0xE0 SHL SUB NOT SWAP2 SWAP1 SWAP2 AND DUP2 MSTORE PUSH1 0x20 ADD SWAP1 JUMP JUMPDEST PUSH1 0x0 PUSH1 0x20 DUP3 DUP5 SUB SLT ISZERO PUSH2 0xD45 JUMPI PUSH1 0x0 DUP1 REVERT JUMPDEST POP CALLDATALOAD SWAP2 SWAP1 POP JUMP JUMPDEST PUSH1 0x0 PUSH1 0x20 DUP3 DUP5 SUB SLT ISZERO PUSH2 0xD5E JUMPI PUSH1 0x0 DUP1 REVERT JUMPDEST DUP2 CALLDATALOAD PUSH2 0xD69 DUP2 PUSH2 0xCB8 JUMP JUMPDEST SWAP4 SWAP3 POP POP POP JUMP JUMPDEST PUSH1 0x0 DUP1 PUSH1 0x0 PUSH1 0x60 DUP5 DUP7 SUB SLT ISZERO PUSH2 0xD85 JUMPI PUSH1 0x0 DUP1 REVERT JUMPDEST DUP4 MLOAD PUSH2 0xD90 DUP2 PUSH2 0xCB8 JUMP JUMPDEST PUSH1 0x20 DUP6 ADD MLOAD SWAP1 SWAP4 POP PUSH2 0xDA1 DUP2 PUSH2 0xCB8 JUMP JUMPDEST DUP1 SWAP3 POP POP PUSH1 0x40 DUP5 ADD MLOAD SWAP1 POP SWAP3 POP SWAP3 POP SWAP3 JUMP JUMPDEST PUSH1 0x0 PUSH1 0x20 DUP3 DUP5 SUB SLT ISZERO PUSH2 0xDC5 JUMPI PUSH1 0x0 DUP1 REVERT JUMPDEST DUP2 MLOAD DUP1 ISZERO ISZERO DUP2 EQ PUSH2 0xD69 JUMPI PUSH1 0x0 DUP1 REVERT JUMPDEST PUSH1 0x0 PUSH1 0x20 DUP3 DUP5 SUB SLT ISZERO PUSH2 0xDE7 JUMPI PUSH1 0x0 DUP1 REVERT JUMPDEST DUP2 MLOAD PUSH2 0xD69 DUP2 PUSH2 0xCB8 JUMP INVALID LOG2 PUSH5 0x6970667358 0x22 SLT KECCAK256 0xC0 LT PUSH22 0xDB0D351AA8E96F221B8C835050C05895FA9E620104F5 SELFDESTRUCT POP 0xE1 SWAP15 0xB1 PUSH25 0x3164736F6C6343000811003300000000000000000000000000 "
				},
				"gasEstimates": {
					"creation": {
						"codeDepositCost": "724800",
						"executionCost": "infinite",
						"totalCost": "infinite"
					},
					"external": {
						"INTERFACE_ID_ERC1155()": "272",
						"INTERFACE_ID_ERC2981()": "272",
						"INTERFACE_ID_ERC721()": "316",
						"checkForCollectionSetter(address)": "infinite",
						"owner()": "2409",
						"renounceOwnership()": "infinite",
						"royaltyFeeRegistry()": "infinite",
						"transferOwnership(address)": "infinite",
						"updateOwnerOfRoyaltyFeeRegistry(address)": "infinite",
						"updateRoyaltyFeeLimit(uint256)": "infinite",
						"updateRoyaltyInfoForCollectionIfAdmin(address,address,address,uint256)": "infinite",
						"updateRoyaltyInfoForCollectionIfOwner(address,address,address,uint256)": "infinite",
						"updateRoyaltyInfoForCollectionIfSetter(address,address,address,uint256)": "infinite"
					},
					"internal": {
						"_updateRoyaltyInfoForCollectionIfOwnerOrAdmin(address,address,address,uint256)": "infinite"
					}
				},
				"methodIdentifiers": {
					"INTERFACE_ID_ERC1155()": "33bf6156",
					"INTERFACE_ID_ERC2981()": "b060dd86",
					"INTERFACE_ID_ERC721()": "bc6bc0cd",
					"checkForCollectionSetter(address)": "c54e5497",
					"owner()": "8da5cb5b",
					"renounceOwnership()": "715018a6",
					"royaltyFeeRegistry()": "c16f5156",
					"transferOwnership(address)": "f2fde38b",
					"updateOwnerOfRoyaltyFeeRegistry(address)": "e72ba456",
					"updateRoyaltyFeeLimit(uint256)": "b9223c9d",
					"updateRoyaltyInfoForCollectionIfAdmin(address,address,address,uint256)": "ab016670",
					"updateRoyaltyInfoForCollectionIfOwner(address,address,address,uint256)": "3755fa80",
					"updateRoyaltyInfoForCollectionIfSetter(address,address,address,uint256)": "275da5ef"
				}
			},
			"storageLayout": {
				"storage": [
					{
						"astId": 7,
						"contract": "contracts/Manager/royalty/RoyaltyFeeSetter.sol:RoyaltyFeeSetter",
						"label": "_owner",
						"offset": 0,
						"slot": "0",
						"type": "t_address"
					}
				],
				"types": {
					"t_address": {
						"encoding": "inplace",
						"label": "address",
						"numberOfBytes": "20"
					}
				}
			},
			"userdoc": {
				"kind": "user",
				"methods": {},
				"version": 1
			}
		}
	}
}