{
	"contracts/Manager/royalty/RoyaltyFeeSetter.sol": {
		"RoyaltyFeeSetter": {
			"abi": [
				{
					"inputs": [
						{
							"internalType": "address",
							"name": "_royaltyFeeRegistry",
							"type": "address"
						}
					],
					"stateMutability": "nonpayable",
					"type": "constructor"
				},
				{
					"anonymous": false,
					"inputs": [
						{
							"indexed": true,
							"internalType": "address",
							"name": "previousOwner",
							"type": "address"
						},
						{
							"indexed": true,
							"internalType": "address",
							"name": "newOwner",
							"type": "address"
						}
					],
					"name": "OwnershipTransferred",
					"type": "event"
				},
				{
					"inputs": [],
					"name": "INTERFACE_ID_ERC1155",
					"outputs": [
						{
							"internalType": "bytes4",
							"name": "",
							"type": "bytes4"
						}
					],
					"stateMutability": "view",
					"type": "function"
				},
				{
					"inputs": [],
					"name": "INTERFACE_ID_ERC2981",
					"outputs": [
						{
							"internalType": "bytes4",
							"name": "",
							"type": "bytes4"
						}
					],
					"stateMutability": "view",
					"type": "function"
				},
				{
					"inputs": [],
					"name": "INTERFACE_ID_ERC721",
					"outputs": [
						{
							"internalType": "bytes4",
							"name": "",
							"type": "bytes4"
						}
					],
					"stateMutability": "view",
					"type": "function"
				},
				{
					"inputs": [
						{
							"internalType": "address",
							"name": "collection",
							"type": "address"
						}
					],
					"name": "checkForCollectionSetter",
					"outputs": [
						{
							"internalType": "address",
							"name": "",
							"type": "address"
						},
						{
							"internalType": "uint8",
							"name": "",
							"type": "uint8"
						}
					],
					"stateMutability": "view",
					"type": "function"
				},
				{
					"inputs": [],
					"name": "owner",
					"outputs": [
						{
							"internalType": "address",
							"name": "",
							"type": "address"
						}
					],
					"stateMutability": "view",
					"type": "function"
				},
				{
					"inputs": [],
					"name": "renounceOwnership",
					"outputs": [],
					"stateMutability": "nonpayable",
					"type": "function"
				},
				{
					"inputs": [],
					"name": "royaltyFeeRegistry",
					"outputs": [
						{
							"internalType": "address",
							"name": "",
							"type": "address"
						}
					],
					"stateMutability": "view",
					"type": "function"
				},
				{
					"inputs": [
						{
							"internalType": "address",
							"name": "newOwner",
							"type": "address"
						}
					],
					"name": "transferOwnership",
					"outputs": [],
					"stateMutability": "nonpayable",
					"type": "function"
				},
				{
					"inputs": [
						{
							"internalType": "address",
							"name": "_owner",
							"type": "address"
						}
					],
					"name": "updateOwnerOfRoyaltyFeeRegistry",
					"outputs": [],
					"stateMutability": "nonpayable",
					"type": "function"
				},
				{
					"inputs": [
						{
							"internalType": "uint256",
							"name": "_royaltyFeeLimit",
							"type": "uint256"
						}
					],
					"name": "updateRoyaltyFeeLimit",
					"outputs": [],
					"stateMutability": "nonpayable",
					"type": "function"
				},
				{
					"inputs": [
						{
							"internalType": "address",
							"name": "collection",
							"type": "address"
						},
						{
							"internalType": "address",
							"name": "setter",
							"type": "address"
						},
						{
							"internalType": "address",
							"name": "receiver",
							"type": "address"
						},
						{
							"internalType": "uint256",
							"name": "fee",
							"type": "uint256"
						}
					],
					"name": "updateRoyaltyInfoForCollectionIfAdmin",
					"outputs": [],
					"stateMutability": "nonpayable",
					"type": "function"
				},
				{
					"inputs": [
						{
							"internalType": "address",
							"name": "collection",
							"type": "address"
						},
						{
							"internalType": "address",
							"name": "setter",
							"type": "address"
						},
						{
							"internalType": "address",
							"name": "receiver",
							"type": "address"
						},
						{
							"internalType": "uint256",
							"name": "fee",
							"type": "uint256"
						}
					],
					"name": "updateRoyaltyInfoForCollectionIfOwner",
					"outputs": [],
					"stateMutability": "nonpayable",
					"type": "function"
				}
			],
			"devdoc": {
				"kind": "dev",
				"methods": {
					"owner()": {
						"details": "Returns the address of the current owner."
					},
					"renounceOwnership()": {
						"details": "Leaves the contract without owner. It will not be possible to call `onlyOwner` functions anymore. Can only be called by the current owner. NOTE: Renouncing ownership will leave the contract without an owner, thereby removing any functionality that is only available to the owner."
					},
					"transferOwnership(address)": {
						"details": "Transfers ownership of the contract to a new account (`newOwner`). Can only be called by the current owner."
					}
				},
				"version": 1
			},
			"evm": {
				"assembly": "    /* \"contracts/Manager/royalty/RoyaltyFeeSetter.sol\":358:5083  contract RoyaltyFeeSetter is Ownable {... */\n  mstore(0x40, 0xa0)\n    /* \"contracts/Manager/royalty/RoyaltyFeeSetter.sol\":761:859  constructor(address _royaltyFeeRegistry) {... */\n  callvalue\n  dup1\n  iszero\n  tag_1\n  jumpi\n  0x00\n  dup1\n  revert\ntag_1:\n  pop\n  mload(0x40)\n  sub(codesize, bytecodeSize)\n  dup1\n  bytecodeSize\n  dup4\n  codecopy\n  dup2\n  add\n  0x40\n  dup2\n  swap1\n  mstore\n  tag_2\n  swap2\n  tag_3\n  jump\t// in\ntag_2:\n    /* \"@openzeppelin/contracts/access/Ownable.sol\":936:968  _transferOwnership(_msgSender()) */\n  tag_7\n    /* \"@openzeppelin/contracts/utils/Context.sol\":719:729  msg.sender */\n  caller\n    /* \"@openzeppelin/contracts/access/Ownable.sol\":936:954  _transferOwnership */\n  tag_10\n    /* \"@openzeppelin/contracts/access/Ownable.sol\":936:968  _transferOwnership(_msgSender()) */\n  jump\t// in\ntag_7:\n  sub(shl(0xa0, 0x01), 0x01)\n    /* \"contracts/Manager/royalty/RoyaltyFeeSetter.sol\":812:852  royaltyFeeRegistry = _royaltyFeeRegistry */\n  and\n  0x80\n  mstore\n    /* \"contracts/Manager/royalty/RoyaltyFeeSetter.sol\":358:5083  contract RoyaltyFeeSetter is Ownable {... */\n  jump(tag_15)\n    /* \"@openzeppelin/contracts/access/Ownable.sol\":2433:2620  function _transferOwnership(address newOwner) internal virtual {... */\ntag_10:\n    /* \"@openzeppelin/contracts/access/Ownable.sol\":2506:2522  address oldOwner */\n  0x00\n    /* \"@openzeppelin/contracts/access/Ownable.sol\":2525:2531  _owner */\n  dup1\n  sload\n  sub(shl(0xa0, 0x01), 0x01)\n    /* \"@openzeppelin/contracts/access/Ownable.sol\":2541:2558  _owner = newOwner */\n  dup4\n  dup2\n  and\n  not(sub(shl(0xa0, 0x01), 0x01))\n  dup4\n  and\n  dup2\n  or\n  dup5\n  sstore\n    /* \"@openzeppelin/contracts/access/Ownable.sol\":2573:2613  OwnershipTransferred(oldOwner, newOwner) */\n  mload(0x40)\n    /* \"@openzeppelin/contracts/access/Ownable.sol\":2525:2531  _owner */\n  swap2\n  swap1\n  swap3\n  and\n  swap3\n  dup4\n  swap2\n    /* \"@openzeppelin/contracts/access/Ownable.sol\":2573:2613  OwnershipTransferred(oldOwner, newOwner) */\n  0x8be0079c531659141344cd1fd0a4f28419497f9722a3daafe3b4186f6b6457e0\n  swap2\n    /* \"@openzeppelin/contracts/access/Ownable.sol\":2506:2522  address oldOwner */\n  swap1\n    /* \"@openzeppelin/contracts/access/Ownable.sol\":2573:2613  OwnershipTransferred(oldOwner, newOwner) */\n  log3\n    /* \"@openzeppelin/contracts/access/Ownable.sol\":2496:2620  {... */\n  pop\n    /* \"@openzeppelin/contracts/access/Ownable.sol\":2433:2620  function _transferOwnership(address newOwner) internal virtual {... */\n  pop\n  jump\t// out\n    /* \"#utility.yul\":14:304   */\ntag_3:\n    /* \"#utility.yul\":84:90   */\n  0x00\n    /* \"#utility.yul\":137:139   */\n  0x20\n    /* \"#utility.yul\":125:134   */\n  dup3\n    /* \"#utility.yul\":116:123   */\n  dup5\n    /* \"#utility.yul\":112:135   */\n  sub\n    /* \"#utility.yul\":108:140   */\n  slt\n    /* \"#utility.yul\":105:157   */\n  iszero\n  tag_17\n  jumpi\n    /* \"#utility.yul\":153:154   */\n  0x00\n    /* \"#utility.yul\":150:151   */\n  dup1\n    /* \"#utility.yul\":143:155   */\n  revert\n    /* \"#utility.yul\":105:157   */\ntag_17:\n    /* \"#utility.yul\":179:195   */\n  dup2\n  mload\n  sub(shl(0xa0, 0x01), 0x01)\n    /* \"#utility.yul\":224:255   */\n  dup2\n  and\n    /* \"#utility.yul\":214:256   */\n  dup2\n  eq\n    /* \"#utility.yul\":204:274   */\n  tag_18\n  jumpi\n    /* \"#utility.yul\":270:271   */\n  0x00\n    /* \"#utility.yul\":267:268   */\n  dup1\n    /* \"#utility.yul\":260:272   */\n  revert\n    /* \"#utility.yul\":204:274   */\ntag_18:\n    /* \"#utility.yul\":293:298   */\n  swap4\n    /* \"#utility.yul\":14:304   */\n  swap3\n  pop\n  pop\n  pop\n  jump\t// out\ntag_15:\n    /* \"contracts/Manager/royalty/RoyaltyFeeSetter.sol\":358:5083  contract RoyaltyFeeSetter is Ownable {... */\n  mload(0x80)\n  codecopy(0x00, dataOffset(sub_0), dataSize(sub_0))\n  0x00\n  assignImmutable(\"0x911a39fbf665a24ad3b6efc185d4b936bbda1900793ae2f7c00f4d18bdd96685\")\n  return(0x00, dataSize(sub_0))\nstop\n\nsub_0: assembly {\n        /* \"contracts/Manager/royalty/RoyaltyFeeSetter.sol\":358:5083  contract RoyaltyFeeSetter is Ownable {... */\n      mstore(0x40, 0x80)\n      callvalue\n      dup1\n      iszero\n      tag_1\n      jumpi\n      0x00\n      dup1\n      revert\n    tag_1:\n      pop\n      jumpi(tag_2, lt(calldatasize, 0x04))\n      shr(0xe0, calldataload(0x00))\n      dup1\n      0xb9223c9d\n      gt\n      tag_15\n      jumpi\n      dup1\n      0xc54e5497\n      gt\n      tag_16\n      jumpi\n      dup1\n      0xc54e5497\n      eq\n      tag_12\n      jumpi\n      dup1\n      0xe72ba456\n      eq\n      tag_13\n      jumpi\n      dup1\n      0xf2fde38b\n      eq\n      tag_14\n      jumpi\n      0x00\n      dup1\n      revert\n    tag_16:\n      dup1\n      0xb9223c9d\n      eq\n      tag_9\n      jumpi\n      dup1\n      0xbc6bc0cd\n      eq\n      tag_10\n      jumpi\n      dup1\n      0xc16f5156\n      eq\n      tag_11\n      jumpi\n      0x00\n      dup1\n      revert\n    tag_15:\n      dup1\n      0x8da5cb5b\n      gt\n      tag_17\n      jumpi\n      dup1\n      0x8da5cb5b\n      eq\n      tag_6\n      jumpi\n      dup1\n      0xab016670\n      eq\n      tag_7\n      jumpi\n      dup1\n      0xb060dd86\n      eq\n      tag_8\n      jumpi\n      0x00\n      dup1\n      revert\n    tag_17:\n      dup1\n      0x33bf6156\n      eq\n      tag_3\n      jumpi\n      dup1\n      0x3755fa80\n      eq\n      tag_4\n      jumpi\n      dup1\n      0x715018a6\n      eq\n      tag_5\n      jumpi\n    tag_2:\n      0x00\n      dup1\n      revert\n        /* \"contracts/Manager/royalty/RoyaltyFeeSetter.sol\":516:572  bytes4 public constant INTERFACE_ID_ERC1155 = 0xd9b67a26 */\n    tag_3:\n      tag_18\n      0xd9b67a2600000000000000000000000000000000000000000000000000000000\n      dup2\n      jump\n    tag_18:\n      mload(0x40)\n        /* \"#utility.yul\":188:254   */\n      0xffffffff00000000000000000000000000000000000000000000000000000000\n        /* \"#utility.yul\":176:255   */\n      swap1\n      swap2\n      and\n        /* \"#utility.yul\":158:256   */\n      dup2\n      mstore\n        /* \"#utility.yul\":146:148   */\n      0x20\n        /* \"#utility.yul\":131:149   */\n      add\n        /* \"contracts/Manager/royalty/RoyaltyFeeSetter.sol\":516:572  bytes4 public constant INTERFACE_ID_ERC1155 = 0xd9b67a26 */\n    tag_20:\n      mload(0x40)\n      dup1\n      swap2\n      sub\n      swap1\n      return\n        /* \"contracts/Manager/royalty/RoyaltyFeeSetter.sol\":1983:2424  function updateRoyaltyInfoForCollectionIfOwner(... */\n    tag_4:\n      tag_22\n      tag_23\n      calldatasize\n      0x04\n      tag_24\n      jump\t// in\n    tag_23:\n      tag_25\n      jump\t// in\n    tag_22:\n      stop\n        /* \"@openzeppelin/contracts/access/Ownable.sol\":1831:1932  function renounceOwnership() public virtual onlyOwner {... */\n    tag_5:\n      tag_22\n      tag_27\n      jump\t// in\n        /* \"@openzeppelin/contracts/access/Ownable.sol\":1201:1286  function owner() public view virtual returns (address) {... */\n    tag_6:\n        /* \"@openzeppelin/contracts/access/Ownable.sol\":1247:1254  address */\n      0x00\n        /* \"@openzeppelin/contracts/access/Ownable.sol\":1273:1279  _owner */\n      sload\n      0xffffffffffffffffffffffffffffffffffffffff\n      and\n        /* \"@openzeppelin/contracts/access/Ownable.sol\":1201:1286  function owner() public view virtual returns (address) {... */\n    tag_28:\n      mload(0x40)\n        /* \"#utility.yul\":1205:1247   */\n      0xffffffffffffffffffffffffffffffffffffffff\n        /* \"#utility.yul\":1193:1248   */\n      swap1\n      swap2\n      and\n        /* \"#utility.yul\":1175:1249   */\n      dup2\n      mstore\n        /* \"#utility.yul\":1163:1165   */\n      0x20\n        /* \"#utility.yul\":1148:1166   */\n      add\n        /* \"@openzeppelin/contracts/access/Ownable.sol\":1201:1286  function owner() public view virtual returns (address) {... */\n      tag_20\n        /* \"#utility.yul\":1029:1255   */\n      jump\n        /* \"contracts/Manager/royalty/RoyaltyFeeSetter.sol\":1224:1715  function updateRoyaltyInfoForCollectionIfAdmin(... */\n    tag_7:\n      tag_22\n      tag_33\n      calldatasize\n      0x04\n      tag_24\n      jump\t// in\n    tag_33:\n      tag_34\n      jump\t// in\n        /* \"contracts/Manager/royalty/RoyaltyFeeSetter.sol\":606:662  bytes4 public constant INTERFACE_ID_ERC2981 = 0x2a55205a */\n    tag_8:\n      tag_18\n      0x2a55205a00000000000000000000000000000000000000000000000000000000\n      dup2\n      jump\n        /* \"contracts/Manager/royalty/RoyaltyFeeSetter.sol\":2922:3094  function updateRoyaltyFeeLimit(uint256 _royaltyFeeLimit) external onlyOwner {... */\n    tag_9:\n      tag_22\n      tag_39\n      calldatasize\n      0x04\n      tag_40\n      jump\t// in\n    tag_39:\n      tag_41\n      jump\t// in\n        /* \"contracts/Manager/royalty/RoyaltyFeeSetter.sol\":427:482  bytes4 public constant INTERFACE_ID_ERC721 = 0x80ac58cd */\n    tag_10:\n      tag_18\n      0x80ac58cd00000000000000000000000000000000000000000000000000000000\n      dup2\n      jump\n        /* \"contracts/Manager/royalty/RoyaltyFeeSetter.sol\":669:712  address public immutable royaltyFeeRegistry */\n    tag_11:\n      tag_28\n      immutable(\"0x911a39fbf665a24ad3b6efc185d4b936bbda1900793ae2f7c00f4d18bdd96685\")\n      dup2\n      jump\n        /* \"contracts/Manager/royalty/RoyaltyFeeSetter.sol\":3309:4146  function checkForCollectionSetter(address collection) external view returns (address, uint8) {... */\n    tag_12:\n      tag_48\n      tag_49\n      calldatasize\n      0x04\n      tag_50\n      jump\t// in\n    tag_49:\n      tag_51\n      jump\t// in\n    tag_48:\n      0x40\n      dup1\n      mload\n        /* \"#utility.yul\":1897:1939   */\n      0xffffffffffffffffffffffffffffffffffffffff\n        /* \"#utility.yul\":1885:1940   */\n      swap1\n      swap4\n      and\n        /* \"#utility.yul\":1867:1941   */\n      dup4\n      mstore\n        /* \"#utility.yul\":1989:1993   */\n      0xff\n        /* \"#utility.yul\":1977:1994   */\n      swap1\n      swap2\n      and\n        /* \"#utility.yul\":1972:1974   */\n      0x20\n        /* \"#utility.yul\":1957:1975   */\n      dup4\n      add\n        /* \"#utility.yul\":1950:1995   */\n      mstore\n        /* \"#utility.yul\":1840:1858   */\n      add\n        /* \"contracts/Manager/royalty/RoyaltyFeeSetter.sol\":3309:4146  function checkForCollectionSetter(address collection) external view returns (address, uint8) {... */\n      tag_20\n        /* \"#utility.yul\":1697:2001   */\n      jump\n        /* \"contracts/Manager/royalty/RoyaltyFeeSetter.sol\":2604:2751  function updateOwnerOfRoyaltyFeeRegistry(address _owner) external onlyOwner {... */\n    tag_13:\n      tag_22\n      tag_55\n      calldatasize\n      0x04\n      tag_50\n      jump\t// in\n    tag_55:\n      tag_56\n      jump\t// in\n        /* \"@openzeppelin/contracts/access/Ownable.sol\":2081:2279  function transferOwnership(address newOwner) public virtual onlyOwner {... */\n    tag_14:\n      tag_22\n      tag_58\n      calldatasize\n      0x04\n      tag_50\n      jump\t// in\n    tag_58:\n      tag_59\n      jump\t// in\n        /* \"contracts/Manager/royalty/RoyaltyFeeSetter.sol\":1983:2424  function updateRoyaltyInfoForCollectionIfOwner(... */\n    tag_25:\n        /* \"contracts/Manager/royalty/RoyaltyFeeSetter.sol\":2163:2222  IERC165(collection).supportsInterface(INTERFACE_ID_ERC2981) */\n      mload(0x40)\n      0x01ffc9a700000000000000000000000000000000000000000000000000000000\n      dup2\n      mstore\n        /* \"contracts/Manager/royalty/RoyaltyFeeSetter.sol\":2201:2221  INTERFACE_ID_ERC2981 */\n      0x2a55205a00000000000000000000000000000000000000000000000000000000\n        /* \"contracts/Manager/royalty/RoyaltyFeeSetter.sol\":2163:2222  IERC165(collection).supportsInterface(INTERFACE_ID_ERC2981) */\n      0x04\n      dup3\n      add\n        /* \"#utility.yul\":158:256   */\n      mstore\n        /* \"contracts/Manager/royalty/RoyaltyFeeSetter.sol\":2163:2200  IERC165(collection).supportsInterface */\n      0xffffffffffffffffffffffffffffffffffffffff\n      dup6\n      and\n      swap1\n      0x01ffc9a7\n      swap1\n        /* \"#utility.yul\":131:149   */\n      0x24\n      add\n        /* \"contracts/Manager/royalty/RoyaltyFeeSetter.sol\":2163:2222  IERC165(collection).supportsInterface(INTERFACE_ID_ERC2981) */\n      0x20\n      mload(0x40)\n      dup1\n      dup4\n      sub\n      dup2\n      dup7\n      gas\n      staticcall\n      iszero\n      dup1\n      iszero\n      tag_63\n      jumpi\n      returndatasize\n      0x00\n      dup1\n      returndatacopy\n      revert(0x00, returndatasize)\n    tag_63:\n      pop\n      pop\n      pop\n      pop\n      mload(0x40)\n      returndatasize\n      not(0x1f)\n      0x1f\n      dup3\n      add\n      and\n      dup3\n      add\n      dup1\n      0x40\n      mstore\n      pop\n      dup2\n      add\n      swap1\n      tag_64\n      swap2\n      swap1\n      tag_65\n      jump\t// in\n    tag_64:\n        /* \"contracts/Manager/royalty/RoyaltyFeeSetter.sol\":2162:2222  !IERC165(collection).supportsInterface(INTERFACE_ID_ERC2981) */\n      iszero\n        /* \"contracts/Manager/royalty/RoyaltyFeeSetter.sol\":2154:2247  require(!IERC165(collection).supportsInterface(INTERFACE_ID_ERC2981), \" Must not be ERC2981\") */\n      tag_66\n      jumpi\n      mload(0x40)\n      0x08c379a000000000000000000000000000000000000000000000000000000000\n      dup2\n      mstore\n        /* \"#utility.yul\":2490:2492   */\n      0x20\n        /* \"contracts/Manager/royalty/RoyaltyFeeSetter.sol\":2154:2247  require(!IERC165(collection).supportsInterface(INTERFACE_ID_ERC2981), \" Must not be ERC2981\") */\n      0x04\n      dup3\n      add\n        /* \"#utility.yul\":2472:2493   */\n      mstore\n        /* \"#utility.yul\":2529:2531   */\n      0x14\n        /* \"#utility.yul\":2509:2527   */\n      0x24\n      dup3\n      add\n        /* \"#utility.yul\":2502:2532   */\n      mstore\n        /* \"#utility.yul\":2568:2590   */\n      0x204d757374206e6f742062652045524332393831000000000000000000000000\n        /* \"#utility.yul\":2548:2566   */\n      0x44\n      dup3\n      add\n        /* \"#utility.yul\":2541:2591   */\n      mstore\n        /* \"#utility.yul\":2608:2626   */\n      0x64\n      add\n        /* \"contracts/Manager/royalty/RoyaltyFeeSetter.sol\":2154:2247  require(!IERC165(collection).supportsInterface(INTERFACE_ID_ERC2981), \" Must not be ERC2981\") */\n    tag_67:\n      mload(0x40)\n      dup1\n      swap2\n      sub\n      swap1\n      revert\n    tag_66:\n        /* \"contracts/Manager/royalty/RoyaltyFeeSetter.sol\":2288:2298  collection */\n      dup4\n        /* \"contracts/Manager/royalty/RoyaltyFeeSetter.sol\":2279:2305  IOwnable(collection).owner */\n      0xffffffffffffffffffffffffffffffffffffffff\n      and\n      0x8da5cb5b\n        /* \"contracts/Manager/royalty/RoyaltyFeeSetter.sol\":2279:2307  IOwnable(collection).owner() */\n      mload(0x40)\n      dup2\n      0xffffffff\n      and\n      0xe0\n      shl\n      dup2\n      mstore\n      0x04\n      add\n      0x20\n      mload(0x40)\n      dup1\n      dup4\n      sub\n      dup2\n      dup7\n      gas\n      staticcall\n      iszero\n      dup1\n      iszero\n      tag_70\n      jumpi\n      returndatasize\n      0x00\n      dup1\n      returndatacopy\n      revert(0x00, returndatasize)\n    tag_70:\n      pop\n      pop\n      pop\n      pop\n      mload(0x40)\n      returndatasize\n      not(0x1f)\n      0x1f\n      dup3\n      add\n      and\n      dup3\n      add\n      dup1\n      0x40\n      mstore\n      pop\n      dup2\n      add\n      swap1\n      tag_71\n      swap2\n      swap1\n      tag_72\n      jump\t// in\n    tag_71:\n        /* \"contracts/Manager/royalty/RoyaltyFeeSetter.sol\":2265:2307  msg.sender == IOwnable(collection).owner() */\n      0xffffffffffffffffffffffffffffffffffffffff\n      and\n        /* \"contracts/Manager/royalty/RoyaltyFeeSetter.sol\":2265:2275  msg.sender */\n      caller\n        /* \"contracts/Manager/royalty/RoyaltyFeeSetter.sol\":2265:2307  msg.sender == IOwnable(collection).owner() */\n      0xffffffffffffffffffffffffffffffffffffffff\n      and\n      eq\n        /* \"contracts/Manager/royalty/RoyaltyFeeSetter.sol\":2257:2326  require(msg.sender == IOwnable(collection).owner(), \" Not the owner\") */\n      tag_73\n      jumpi\n      mload(0x40)\n      0x08c379a000000000000000000000000000000000000000000000000000000000\n      dup2\n      mstore\n        /* \"#utility.yul\":3095:3097   */\n      0x20\n        /* \"contracts/Manager/royalty/RoyaltyFeeSetter.sol\":2257:2326  require(msg.sender == IOwnable(collection).owner(), \" Not the owner\") */\n      0x04\n      dup3\n      add\n        /* \"#utility.yul\":3077:3098   */\n      mstore\n        /* \"#utility.yul\":3134:3136   */\n      0x0e\n        /* \"#utility.yul\":3114:3132   */\n      0x24\n      dup3\n      add\n        /* \"#utility.yul\":3107:3137   */\n      mstore\n        /* \"#utility.yul\":3173:3189   */\n      0x204e6f7420746865206f776e6572000000000000000000000000000000000000\n        /* \"#utility.yul\":3153:3171   */\n      0x44\n      dup3\n      add\n        /* \"#utility.yul\":3146:3190   */\n      mstore\n        /* \"#utility.yul\":3207:3225   */\n      0x64\n      add\n        /* \"contracts/Manager/royalty/RoyaltyFeeSetter.sol\":2257:2326  require(msg.sender == IOwnable(collection).owner(), \" Not the owner\") */\n      tag_67\n        /* \"#utility.yul\":2893:3231   */\n      jump\n        /* \"contracts/Manager/royalty/RoyaltyFeeSetter.sol\":2257:2326  require(msg.sender == IOwnable(collection).owner(), \" Not the owner\") */\n    tag_73:\n        /* \"contracts/Manager/royalty/RoyaltyFeeSetter.sol\":2337:2417  _updateRoyaltyInfoForCollectionIfOwnerOrAdmin(collection, setter, receiver, fee) */\n      tag_76\n        /* \"contracts/Manager/royalty/RoyaltyFeeSetter.sol\":2383:2393  collection */\n      dup5\n        /* \"contracts/Manager/royalty/RoyaltyFeeSetter.sol\":2395:2401  setter */\n      dup5\n        /* \"contracts/Manager/royalty/RoyaltyFeeSetter.sol\":2403:2411  receiver */\n      dup5\n        /* \"contracts/Manager/royalty/RoyaltyFeeSetter.sol\":2413:2416  fee */\n      dup5\n        /* \"contracts/Manager/royalty/RoyaltyFeeSetter.sol\":2337:2382  _updateRoyaltyInfoForCollectionIfOwnerOrAdmin */\n      tag_77\n        /* \"contracts/Manager/royalty/RoyaltyFeeSetter.sol\":2337:2417  _updateRoyaltyInfoForCollectionIfOwnerOrAdmin(collection, setter, receiver, fee) */\n      jump\t// in\n    tag_76:\n        /* \"contracts/Manager/royalty/RoyaltyFeeSetter.sol\":1983:2424  function updateRoyaltyInfoForCollectionIfOwner(... */\n      pop\n      pop\n      pop\n      pop\n      jump\t// out\n        /* \"@openzeppelin/contracts/access/Ownable.sol\":1831:1932  function renounceOwnership() public virtual onlyOwner {... */\n    tag_27:\n        /* \"@openzeppelin/contracts/access/Ownable.sol\":1094:1107  _checkOwner() */\n      tag_79\n        /* \"@openzeppelin/contracts/access/Ownable.sol\":1094:1105  _checkOwner */\n      tag_80\n        /* \"@openzeppelin/contracts/access/Ownable.sol\":1094:1107  _checkOwner() */\n      jump\t// in\n    tag_79:\n        /* \"@openzeppelin/contracts/access/Ownable.sol\":1895:1925  _transferOwnership(address(0)) */\n      tag_82\n        /* \"@openzeppelin/contracts/access/Ownable.sol\":1922:1923  0 */\n      0x00\n        /* \"@openzeppelin/contracts/access/Ownable.sol\":1895:1913  _transferOwnership */\n      tag_83\n        /* \"@openzeppelin/contracts/access/Ownable.sol\":1895:1925  _transferOwnership(address(0)) */\n      jump\t// in\n    tag_82:\n        /* \"@openzeppelin/contracts/access/Ownable.sol\":1831:1932  function renounceOwnership() public virtual onlyOwner {... */\n      jump\t// out\n        /* \"contracts/Manager/royalty/RoyaltyFeeSetter.sol\":1224:1715  function updateRoyaltyInfoForCollectionIfAdmin(... */\n    tag_34:\n        /* \"contracts/Manager/royalty/RoyaltyFeeSetter.sol\":1454:1513  IERC165(collection).supportsInterface(INTERFACE_ID_ERC2981) */\n      mload(0x40)\n      0x01ffc9a700000000000000000000000000000000000000000000000000000000\n      dup2\n      mstore\n        /* \"contracts/Manager/royalty/RoyaltyFeeSetter.sol\":1492:1512  INTERFACE_ID_ERC2981 */\n      0x2a55205a00000000000000000000000000000000000000000000000000000000\n        /* \"contracts/Manager/royalty/RoyaltyFeeSetter.sol\":1454:1513  IERC165(collection).supportsInterface(INTERFACE_ID_ERC2981) */\n      0x04\n      dup3\n      add\n        /* \"#utility.yul\":158:256   */\n      mstore\n        /* \"contracts/Manager/royalty/RoyaltyFeeSetter.sol\":1454:1491  IERC165(collection).supportsInterface */\n      0xffffffffffffffffffffffffffffffffffffffff\n      dup6\n      and\n      swap1\n      0x01ffc9a7\n      swap1\n        /* \"#utility.yul\":131:149   */\n      0x24\n      add\n        /* \"contracts/Manager/royalty/RoyaltyFeeSetter.sol\":1454:1513  IERC165(collection).supportsInterface(INTERFACE_ID_ERC2981) */\n      0x20\n      mload(0x40)\n      dup1\n      dup4\n      sub\n      dup2\n      dup7\n      gas\n      staticcall\n      iszero\n      dup1\n      iszero\n      tag_88\n      jumpi\n      returndatasize\n      0x00\n      dup1\n      returndatacopy\n      revert(0x00, returndatasize)\n    tag_88:\n      pop\n      pop\n      pop\n      pop\n      mload(0x40)\n      returndatasize\n      not(0x1f)\n      0x1f\n      dup3\n      add\n      and\n      dup3\n      add\n      dup1\n      0x40\n      mstore\n      pop\n      dup2\n      add\n      swap1\n      tag_89\n      swap2\n      swap1\n      tag_65\n      jump\t// in\n    tag_89:\n        /* \"contracts/Manager/royalty/RoyaltyFeeSetter.sol\":1453:1513  !IERC165(collection).supportsInterface(INTERFACE_ID_ERC2981) */\n      iszero\n        /* \"contracts/Manager/royalty/RoyaltyFeeSetter.sol\":1445:1538  require(!IERC165(collection).supportsInterface(INTERFACE_ID_ERC2981), \" Must not be ERC2981\") */\n      tag_90\n      jumpi\n      mload(0x40)\n      0x08c379a000000000000000000000000000000000000000000000000000000000\n      dup2\n      mstore\n        /* \"#utility.yul\":2490:2492   */\n      0x20\n        /* \"contracts/Manager/royalty/RoyaltyFeeSetter.sol\":1445:1538  require(!IERC165(collection).supportsInterface(INTERFACE_ID_ERC2981), \" Must not be ERC2981\") */\n      0x04\n      dup3\n      add\n        /* \"#utility.yul\":2472:2493   */\n      mstore\n        /* \"#utility.yul\":2529:2531   */\n      0x14\n        /* \"#utility.yul\":2509:2527   */\n      0x24\n      dup3\n      add\n        /* \"#utility.yul\":2502:2532   */\n      mstore\n        /* \"#utility.yul\":2568:2590   */\n      0x204d757374206e6f742062652045524332393831000000000000000000000000\n        /* \"#utility.yul\":2548:2566   */\n      0x44\n      dup3\n      add\n        /* \"#utility.yul\":2541:2591   */\n      mstore\n        /* \"#utility.yul\":2608:2626   */\n      0x64\n      add\n        /* \"contracts/Manager/royalty/RoyaltyFeeSetter.sol\":1445:1538  require(!IERC165(collection).supportsInterface(INTERFACE_ID_ERC2981), \" Must not be ERC2981\") */\n      tag_67\n        /* \"#utility.yul\":2288:2632   */\n      jump\n        /* \"contracts/Manager/royalty/RoyaltyFeeSetter.sol\":1445:1538  require(!IERC165(collection).supportsInterface(INTERFACE_ID_ERC2981), \" Must not be ERC2981\") */\n    tag_90:\n        /* \"contracts/Manager/royalty/RoyaltyFeeSetter.sol\":1579:1589  collection */\n      dup4\n        /* \"contracts/Manager/royalty/RoyaltyFeeSetter.sol\":1570:1596  IOwnable(collection).admin */\n      0xffffffffffffffffffffffffffffffffffffffff\n      and\n      0xf851a440\n        /* \"contracts/Manager/royalty/RoyaltyFeeSetter.sol\":1570:1598  IOwnable(collection).admin() */\n      mload(0x40)\n      dup2\n      0xffffffff\n      and\n      0xe0\n      shl\n      dup2\n      mstore\n      0x04\n      add\n      0x20\n      mload(0x40)\n      dup1\n      dup4\n      sub\n      dup2\n      dup7\n      gas\n      staticcall\n      iszero\n      dup1\n      iszero\n      tag_93\n      jumpi\n      returndatasize\n      0x00\n      dup1\n      returndatacopy\n      revert(0x00, returndatasize)\n    tag_93:\n      pop\n      pop\n      pop\n      pop\n      mload(0x40)\n      returndatasize\n      not(0x1f)\n      0x1f\n      dup3\n      add\n      and\n      dup3\n      add\n      dup1\n      0x40\n      mstore\n      pop\n      dup2\n      add\n      swap1\n      tag_94\n      swap2\n      swap1\n      tag_72\n      jump\t// in\n    tag_94:\n        /* \"contracts/Manager/royalty/RoyaltyFeeSetter.sol\":1556:1598  msg.sender == IOwnable(collection).admin() */\n      0xffffffffffffffffffffffffffffffffffffffff\n      and\n        /* \"contracts/Manager/royalty/RoyaltyFeeSetter.sol\":1556:1566  msg.sender */\n      caller\n        /* \"contracts/Manager/royalty/RoyaltyFeeSetter.sol\":1556:1598  msg.sender == IOwnable(collection).admin() */\n      0xffffffffffffffffffffffffffffffffffffffff\n      and\n      eq\n        /* \"contracts/Manager/royalty/RoyaltyFeeSetter.sol\":1548:1617  require(msg.sender == IOwnable(collection).admin(), \" Not the admin\") */\n      tag_73\n      jumpi\n      mload(0x40)\n      0x08c379a000000000000000000000000000000000000000000000000000000000\n      dup2\n      mstore\n        /* \"#utility.yul\":3438:3440   */\n      0x20\n        /* \"contracts/Manager/royalty/RoyaltyFeeSetter.sol\":1548:1617  require(msg.sender == IOwnable(collection).admin(), \" Not the admin\") */\n      0x04\n      dup3\n      add\n        /* \"#utility.yul\":3420:3441   */\n      mstore\n        /* \"#utility.yul\":3477:3479   */\n      0x0e\n        /* \"#utility.yul\":3457:3475   */\n      0x24\n      dup3\n      add\n        /* \"#utility.yul\":3450:3480   */\n      mstore\n        /* \"#utility.yul\":3516:3532   */\n      0x204e6f74207468652061646d696e000000000000000000000000000000000000\n        /* \"#utility.yul\":3496:3514   */\n      0x44\n      dup3\n      add\n        /* \"#utility.yul\":3489:3533   */\n      mstore\n        /* \"#utility.yul\":3550:3568   */\n      0x64\n      add\n        /* \"contracts/Manager/royalty/RoyaltyFeeSetter.sol\":1548:1617  require(msg.sender == IOwnable(collection).admin(), \" Not the admin\") */\n      tag_67\n        /* \"#utility.yul\":3236:3574   */\n      jump\n        /* \"contracts/Manager/royalty/RoyaltyFeeSetter.sol\":2922:3094  function updateRoyaltyFeeLimit(uint256 _royaltyFeeLimit) external onlyOwner {... */\n    tag_41:\n        /* \"@openzeppelin/contracts/access/Ownable.sol\":1094:1107  _checkOwner() */\n      tag_100\n        /* \"@openzeppelin/contracts/access/Ownable.sol\":1094:1105  _checkOwner */\n      tag_80\n        /* \"@openzeppelin/contracts/access/Ownable.sol\":1094:1107  _checkOwner() */\n      jump\t// in\n    tag_100:\n        /* \"contracts/Manager/royalty/RoyaltyFeeSetter.sol\":3008:3087  IRoyaltyFeeRegistry(royaltyFeeRegistry).updateRoyaltyFeeLimit(_royaltyFeeLimit) */\n      mload(0x40)\n      0xb9223c9d00000000000000000000000000000000000000000000000000000000\n      dup2\n      mstore\n      0x04\n      dup2\n      add\n        /* \"#utility.yul\":3725:3750   */\n      dup3\n      swap1\n      mstore\n        /* \"contracts/Manager/royalty/RoyaltyFeeSetter.sol\":3028:3046  royaltyFeeRegistry */\n      immutable(\"0x911a39fbf665a24ad3b6efc185d4b936bbda1900793ae2f7c00f4d18bdd96685\")\n        /* \"contracts/Manager/royalty/RoyaltyFeeSetter.sol\":3008:3069  IRoyaltyFeeRegistry(royaltyFeeRegistry).updateRoyaltyFeeLimit */\n      0xffffffffffffffffffffffffffffffffffffffff\n      and\n      swap1\n      0xb9223c9d\n      swap1\n        /* \"#utility.yul\":3698:3716   */\n      0x24\n      add\n        /* \"contracts/Manager/royalty/RoyaltyFeeSetter.sol\":3008:3087  IRoyaltyFeeRegistry(royaltyFeeRegistry).updateRoyaltyFeeLimit(_royaltyFeeLimit) */\n    tag_102:\n      0x00\n      mload(0x40)\n      dup1\n      dup4\n      sub\n      dup2\n      0x00\n      dup8\n      dup1\n      extcodesize\n      iszero\n      dup1\n      iszero\n      tag_104\n      jumpi\n      0x00\n      dup1\n      revert\n    tag_104:\n      pop\n      gas\n      call\n      iszero\n      dup1\n      iszero\n      tag_106\n      jumpi\n      returndatasize\n      0x00\n      dup1\n      returndatacopy\n      revert(0x00, returndatasize)\n    tag_106:\n      pop\n      pop\n      pop\n      pop\n        /* \"contracts/Manager/royalty/RoyaltyFeeSetter.sol\":2922:3094  function updateRoyaltyFeeLimit(uint256 _royaltyFeeLimit) external onlyOwner {... */\n      pop\n      jump\t// out\n        /* \"contracts/Manager/royalty/RoyaltyFeeSetter.sol\":3309:4146  function checkForCollectionSetter(address collection) external view returns (address, uint8) {... */\n    tag_51:\n        /* \"contracts/Manager/royalty/RoyaltyFeeSetter.sol\":3441:3517  IRoyaltyFeeRegistry(royaltyFeeRegistry).royaltyFeeInfoCollection(collection) */\n      mload(0x40)\n      0xe31ef91c00000000000000000000000000000000000000000000000000000000\n      dup2\n      mstore\n        /* \"contracts/Manager/royalty/RoyaltyFeeSetter.sol\":3441:3505  IRoyaltyFeeRegistry(royaltyFeeRegistry).royaltyFeeInfoCollection */\n      0xffffffffffffffffffffffffffffffffffffffff\n        /* \"#utility.yul\":1193:1248   */\n      dup3\n      dup2\n      and\n        /* \"contracts/Manager/royalty/RoyaltyFeeSetter.sol\":3441:3517  IRoyaltyFeeRegistry(royaltyFeeRegistry).royaltyFeeInfoCollection(collection) */\n      0x04\n      dup4\n      add\n        /* \"#utility.yul\":1175:1249   */\n      mstore\n      0x00\n      swap2\n      dup3\n      swap2\n      dup3\n      swap2\n        /* \"contracts/Manager/royalty/RoyaltyFeeSetter.sol\":3461:3479  royaltyFeeRegistry */\n      immutable(\"0x911a39fbf665a24ad3b6efc185d4b936bbda1900793ae2f7c00f4d18bdd96685\")\n        /* \"contracts/Manager/royalty/RoyaltyFeeSetter.sol\":3441:3505  IRoyaltyFeeRegistry(royaltyFeeRegistry).royaltyFeeInfoCollection */\n      swap1\n      swap2\n      and\n      swap1\n      0xe31ef91c\n      swap1\n        /* \"#utility.yul\":1148:1166   */\n      0x24\n      add\n        /* \"contracts/Manager/royalty/RoyaltyFeeSetter.sol\":3441:3517  IRoyaltyFeeRegistry(royaltyFeeRegistry).royaltyFeeInfoCollection(collection) */\n      0x60\n      mload(0x40)\n      dup1\n      dup4\n      sub\n      dup2\n      dup7\n      gas\n      staticcall\n      iszero\n      dup1\n      iszero\n      tag_110\n      jumpi\n      returndatasize\n      0x00\n      dup1\n      returndatacopy\n      revert(0x00, returndatasize)\n    tag_110:\n      pop\n      pop\n      pop\n      pop\n      mload(0x40)\n      returndatasize\n      not(0x1f)\n      0x1f\n      dup3\n      add\n      and\n      dup3\n      add\n      dup1\n      0x40\n      mstore\n      pop\n      dup2\n      add\n      swap1\n      tag_111\n      swap2\n      swap1\n      tag_112\n      jump\t// in\n    tag_111:\n      pop\n        /* \"contracts/Manager/royalty/RoyaltyFeeSetter.sol\":3412:3517  (address currentSetter, ,) = IRoyaltyFeeRegistry(royaltyFeeRegistry).royaltyFeeInfoCollection(collection) */\n      swap1\n      swap2\n      pop\n      pop\n        /* \"contracts/Manager/royalty/RoyaltyFeeSetter.sol\":3532:3559  currentSetter != address(0) */\n      0xffffffffffffffffffffffffffffffffffffffff\n      dup2\n      and\n      iszero\n        /* \"contracts/Manager/royalty/RoyaltyFeeSetter.sol\":3528:3611  if (currentSetter != address(0)) {... */\n      tag_113\n      jumpi\n        /* \"contracts/Manager/royalty/RoyaltyFeeSetter.sol\":3583:3596  currentSetter */\n      swap4\n        /* \"contracts/Manager/royalty/RoyaltyFeeSetter.sol\":3598:3599  0 */\n      0x00\n      swap4\n      pop\n        /* \"contracts/Manager/royalty/RoyaltyFeeSetter.sol\":3309:4146  function checkForCollectionSetter(address collection) external view returns (address, uint8) {... */\n      swap2\n      pop\n      pop\n      jump\t// out\n        /* \"contracts/Manager/royalty/RoyaltyFeeSetter.sol\":3528:3611  if (currentSetter != address(0)) {... */\n    tag_113:\n        /* \"contracts/Manager/royalty/RoyaltyFeeSetter.sol\":3625:3684  IERC165(collection).supportsInterface(INTERFACE_ID_ERC2981) */\n      mload(0x40)\n      0x01ffc9a700000000000000000000000000000000000000000000000000000000\n      dup2\n      mstore\n        /* \"contracts/Manager/royalty/RoyaltyFeeSetter.sol\":3663:3683  INTERFACE_ID_ERC2981 */\n      0x2a55205a00000000000000000000000000000000000000000000000000000000\n        /* \"contracts/Manager/royalty/RoyaltyFeeSetter.sol\":3625:3684  IERC165(collection).supportsInterface(INTERFACE_ID_ERC2981) */\n      0x04\n      dup3\n      add\n        /* \"#utility.yul\":158:256   */\n      mstore\n        /* \"contracts/Manager/royalty/RoyaltyFeeSetter.sol\":3625:3662  IERC165(collection).supportsInterface */\n      0xffffffffffffffffffffffffffffffffffffffff\n      dup6\n      and\n      swap1\n      0x01ffc9a7\n      swap1\n        /* \"#utility.yul\":131:149   */\n      0x24\n      add\n        /* \"contracts/Manager/royalty/RoyaltyFeeSetter.sol\":3625:3684  IERC165(collection).supportsInterface(INTERFACE_ID_ERC2981) */\n      0x20\n      mload(0x40)\n      dup1\n      dup4\n      sub\n      dup2\n      dup7\n      gas\n      staticcall\n      swap3\n      pop\n      pop\n      pop\n      dup1\n      iszero\n      tag_115\n      jumpi\n      pop\n      0x40\n      dup1\n      mload\n      0x1f\n      returndatasize\n      swap1\n      dup2\n      add\n      0xffffffffffffffffffffffffffffffffffffffffffffffffffffffffffffffe0\n      and\n      dup3\n      add\n      swap1\n      swap3\n      mstore\n      tag_116\n      swap2\n      dup2\n      add\n      swap1\n      tag_65\n      jump\t// in\n    tag_116:\n      0x01\n    tag_115:\n        /* \"contracts/Manager/royalty/RoyaltyFeeSetter.sol\":3621:3827  try IERC165(collection).supportsInterface(INTERFACE_ID_ERC2981) returns (bool interfaceSupport) {... */\n      iszero\n      tag_121\n      jumpi\n        /* \"contracts/Manager/royalty/RoyaltyFeeSetter.sol\":3735:3751  interfaceSupport */\n      dup1\n        /* \"contracts/Manager/royalty/RoyaltyFeeSetter.sol\":3731:3808  if (interfaceSupport) {... */\n      iszero\n      tag_122\n      jumpi\n      pop\n        /* \"contracts/Manager/royalty/RoyaltyFeeSetter.sol\":3787:3788  0 */\n      0x00\n      swap5\n        /* \"contracts/Manager/royalty/RoyaltyFeeSetter.sol\":3791:3792  1 */\n      0x01\n      swap5\n      pop\n        /* \"contracts/Manager/royalty/RoyaltyFeeSetter.sol\":3309:4146  function checkForCollectionSetter(address collection) external view returns (address, uint8) {... */\n      swap3\n      pop\n      pop\n      pop\n      jump\t// out\n        /* \"contracts/Manager/royalty/RoyaltyFeeSetter.sol\":3731:3808  if (interfaceSupport) {... */\n    tag_122:\n        /* \"contracts/Manager/royalty/RoyaltyFeeSetter.sol\":3685:3818  returns (bool interfaceSupport) {... */\n      pop\n        /* \"contracts/Manager/royalty/RoyaltyFeeSetter.sol\":3621:3827  try IERC165(collection).supportsInterface(INTERFACE_ID_ERC2981) returns (bool interfaceSupport) {... */\n    tag_121:\n        /* \"contracts/Manager/royalty/RoyaltyFeeSetter.sol\":3850:3860  collection */\n      dup4\n        /* \"contracts/Manager/royalty/RoyaltyFeeSetter.sol\":3841:3867  IOwnable(collection).owner */\n      0xffffffffffffffffffffffffffffffffffffffff\n      and\n      0x8da5cb5b\n        /* \"contracts/Manager/royalty/RoyaltyFeeSetter.sol\":3841:3869  IOwnable(collection).owner() */\n      mload(0x40)\n      dup2\n      0xffffffff\n      and\n      0xe0\n      shl\n      dup2\n      mstore\n      0x04\n      add\n      0x20\n      mload(0x40)\n      dup1\n      dup4\n      sub\n      dup2\n      dup7\n      gas\n      staticcall\n      swap3\n      pop\n      pop\n      pop\n      dup1\n      iszero\n      tag_123\n      jumpi\n      pop\n      0x40\n      dup1\n      mload\n      0x1f\n      returndatasize\n      swap1\n      dup2\n      add\n      0xffffffffffffffffffffffffffffffffffffffffffffffffffffffffffffffe0\n      and\n      dup3\n      add\n      swap1\n      swap3\n      mstore\n      tag_124\n      swap2\n      dup2\n      add\n      swap1\n      tag_72\n      jump\t// in\n    tag_124:\n      0x01\n    tag_123:\n        /* \"contracts/Manager/royalty/RoyaltyFeeSetter.sol\":3837:4140  try IOwnable(collection).owner() returns (address setter) {... */\n      tag_125\n      jumpi\n        /* \"contracts/Manager/royalty/RoyaltyFeeSetter.sol\":3972:3982  collection */\n      dup4\n        /* \"contracts/Manager/royalty/RoyaltyFeeSetter.sol\":3963:3989  IOwnable(collection).admin */\n      0xffffffffffffffffffffffffffffffffffffffff\n      and\n      0xf851a440\n        /* \"contracts/Manager/royalty/RoyaltyFeeSetter.sol\":3963:3991  IOwnable(collection).admin() */\n      mload(0x40)\n      dup2\n      0xffffffff\n      and\n      0xe0\n      shl\n      dup2\n      mstore\n      0x04\n      add\n      0x20\n      mload(0x40)\n      dup1\n      dup4\n      sub\n      dup2\n      dup7\n      gas\n      staticcall\n      swap3\n      pop\n      pop\n      pop\n      dup1\n      iszero\n      tag_129\n      jumpi\n      pop\n      0x40\n      dup1\n      mload\n      0x1f\n      returndatasize\n      swap1\n      dup2\n      add\n      0xffffffffffffffffffffffffffffffffffffffffffffffffffffffffffffffe0\n      and\n      dup3\n      add\n      swap1\n      swap3\n      mstore\n      tag_130\n      swap2\n      dup2\n      add\n      swap1\n      tag_72\n      jump\t// in\n    tag_130:\n      0x01\n    tag_129:\n        /* \"contracts/Manager/royalty/RoyaltyFeeSetter.sol\":3959:4130  try IOwnable(collection).admin() returns (address setter) {... */\n      tag_131\n      jumpi\n      pop\n        /* \"contracts/Manager/royalty/RoyaltyFeeSetter.sol\":4109:4110  0 */\n      0x00\n      swap4\n        /* \"contracts/Manager/royalty/RoyaltyFeeSetter.sol\":4113:4114  4 */\n      0x04\n      swap4\n      pop\n        /* \"contracts/Manager/royalty/RoyaltyFeeSetter.sol\":3309:4146  function checkForCollectionSetter(address collection) external view returns (address, uint8) {... */\n      swap2\n      pop\n      pop\n      jump\t// out\n        /* \"contracts/Manager/royalty/RoyaltyFeeSetter.sol\":3959:4130  try IOwnable(collection).admin() returns (address setter) {... */\n    tag_131:\n        /* \"contracts/Manager/royalty/RoyaltyFeeSetter.sol\":4043:4049  setter */\n      swap5\n        /* \"contracts/Manager/royalty/RoyaltyFeeSetter.sol\":4051:4052  3 */\n      0x03\n      swap5\n      pop\n        /* \"contracts/Manager/royalty/RoyaltyFeeSetter.sol\":3309:4146  function checkForCollectionSetter(address collection) external view returns (address, uint8) {... */\n      swap3\n      pop\n      pop\n      pop\n      jump\t// out\n        /* \"contracts/Manager/royalty/RoyaltyFeeSetter.sol\":3837:4140  try IOwnable(collection).owner() returns (address setter) {... */\n    tag_125:\n        /* \"contracts/Manager/royalty/RoyaltyFeeSetter.sol\":3917:3923  setter */\n      swap5\n        /* \"contracts/Manager/royalty/RoyaltyFeeSetter.sol\":3925:3926  2 */\n      0x02\n      swap5\n      pop\n        /* \"contracts/Manager/royalty/RoyaltyFeeSetter.sol\":3309:4146  function checkForCollectionSetter(address collection) external view returns (address, uint8) {... */\n      swap3\n      pop\n      pop\n      pop\n      jump\t// out\n        /* \"contracts/Manager/royalty/RoyaltyFeeSetter.sol\":2604:2751  function updateOwnerOfRoyaltyFeeRegistry(address _owner) external onlyOwner {... */\n    tag_56:\n        /* \"@openzeppelin/contracts/access/Ownable.sol\":1094:1107  _checkOwner() */\n      tag_138\n        /* \"@openzeppelin/contracts/access/Ownable.sol\":1094:1105  _checkOwner */\n      tag_80\n        /* \"@openzeppelin/contracts/access/Ownable.sol\":1094:1107  _checkOwner() */\n      jump\t// in\n    tag_138:\n        /* \"contracts/Manager/royalty/RoyaltyFeeSetter.sol\":2690:2744  IOwnable(royaltyFeeRegistry).transferOwnership(_owner) */\n      mload(0x40)\n      0xf2fde38b00000000000000000000000000000000000000000000000000000000\n      dup2\n      mstore\n        /* \"contracts/Manager/royalty/RoyaltyFeeSetter.sol\":2690:2736  IOwnable(royaltyFeeRegistry).transferOwnership */\n      0xffffffffffffffffffffffffffffffffffffffff\n        /* \"#utility.yul\":1193:1248   */\n      dup3\n      dup2\n      and\n        /* \"contracts/Manager/royalty/RoyaltyFeeSetter.sol\":2690:2744  IOwnable(royaltyFeeRegistry).transferOwnership(_owner) */\n      0x04\n      dup4\n      add\n        /* \"#utility.yul\":1175:1249   */\n      mstore\n        /* \"contracts/Manager/royalty/RoyaltyFeeSetter.sol\":2699:2717  royaltyFeeRegistry */\n      immutable(\"0x911a39fbf665a24ad3b6efc185d4b936bbda1900793ae2f7c00f4d18bdd96685\")\n        /* \"contracts/Manager/royalty/RoyaltyFeeSetter.sol\":2690:2736  IOwnable(royaltyFeeRegistry).transferOwnership */\n      and\n      swap1\n      0xf2fde38b\n      swap1\n        /* \"#utility.yul\":1148:1166   */\n      0x24\n      add\n        /* \"contracts/Manager/royalty/RoyaltyFeeSetter.sol\":2690:2744  IOwnable(royaltyFeeRegistry).transferOwnership(_owner) */\n      tag_102\n        /* \"#utility.yul\":1029:1255   */\n      jump\n        /* \"@openzeppelin/contracts/access/Ownable.sol\":2081:2279  function transferOwnership(address newOwner) public virtual onlyOwner {... */\n    tag_59:\n        /* \"@openzeppelin/contracts/access/Ownable.sol\":1094:1107  _checkOwner() */\n      tag_145\n        /* \"@openzeppelin/contracts/access/Ownable.sol\":1094:1105  _checkOwner */\n      tag_80\n        /* \"@openzeppelin/contracts/access/Ownable.sol\":1094:1107  _checkOwner() */\n      jump\t// in\n    tag_145:\n        /* \"@openzeppelin/contracts/access/Ownable.sol\":2169:2191  newOwner != address(0) */\n      0xffffffffffffffffffffffffffffffffffffffff\n      dup2\n      and\n        /* \"@openzeppelin/contracts/access/Ownable.sol\":2161:2234  require(newOwner != address(0), \"Ownable: new owner is the zero address\") */\n      tag_147\n      jumpi\n      mload(0x40)\n      0x08c379a000000000000000000000000000000000000000000000000000000000\n      dup2\n      mstore\n        /* \"#utility.yul\":4414:4416   */\n      0x20\n        /* \"@openzeppelin/contracts/access/Ownable.sol\":2161:2234  require(newOwner != address(0), \"Ownable: new owner is the zero address\") */\n      0x04\n      dup3\n      add\n        /* \"#utility.yul\":4396:4417   */\n      mstore\n        /* \"#utility.yul\":4453:4455   */\n      0x26\n        /* \"#utility.yul\":4433:4451   */\n      0x24\n      dup3\n      add\n        /* \"#utility.yul\":4426:4456   */\n      mstore\n        /* \"#utility.yul\":4492:4526   */\n      0x4f776e61626c653a206e6577206f776e657220697320746865207a65726f2061\n        /* \"#utility.yul\":4472:4490   */\n      0x44\n      dup3\n      add\n        /* \"#utility.yul\":4465:4527   */\n      mstore\n        /* \"#utility.yul\":4563:4571   */\n      0x6464726573730000000000000000000000000000000000000000000000000000\n        /* \"#utility.yul\":4543:4561   */\n      0x64\n      dup3\n      add\n        /* \"#utility.yul\":4536:4572   */\n      mstore\n        /* \"#utility.yul\":4589:4608   */\n      0x84\n      add\n        /* \"@openzeppelin/contracts/access/Ownable.sol\":2161:2234  require(newOwner != address(0), \"Ownable: new owner is the zero address\") */\n      tag_67\n        /* \"#utility.yul\":4212:4614   */\n      jump\n        /* \"@openzeppelin/contracts/access/Ownable.sol\":2161:2234  require(newOwner != address(0), \"Ownable: new owner is the zero address\") */\n    tag_147:\n        /* \"@openzeppelin/contracts/access/Ownable.sol\":2244:2272  _transferOwnership(newOwner) */\n      tag_150\n        /* \"@openzeppelin/contracts/access/Ownable.sol\":2263:2271  newOwner */\n      dup2\n        /* \"@openzeppelin/contracts/access/Ownable.sol\":2244:2262  _transferOwnership */\n      tag_83\n        /* \"@openzeppelin/contracts/access/Ownable.sol\":2244:2272  _transferOwnership(newOwner) */\n      jump\t// in\n    tag_150:\n        /* \"@openzeppelin/contracts/access/Ownable.sol\":2081:2279  function transferOwnership(address newOwner) public virtual onlyOwner {... */\n      pop\n      jump\t// out\n        /* \"contracts/Manager/royalty/RoyaltyFeeSetter.sol\":4398:5081  function _updateRoyaltyInfoForCollectionIfOwnerOrAdmin(... */\n    tag_77:\n        /* \"contracts/Manager/royalty/RoyaltyFeeSetter.sol\":4606:4682  IRoyaltyFeeRegistry(royaltyFeeRegistry).royaltyFeeInfoCollection(collection) */\n      mload(0x40)\n      0xe31ef91c00000000000000000000000000000000000000000000000000000000\n      dup2\n      mstore\n        /* \"contracts/Manager/royalty/RoyaltyFeeSetter.sol\":4606:4670  IRoyaltyFeeRegistry(royaltyFeeRegistry).royaltyFeeInfoCollection */\n      0xffffffffffffffffffffffffffffffffffffffff\n        /* \"#utility.yul\":1193:1248   */\n      dup6\n      dup2\n      and\n        /* \"contracts/Manager/royalty/RoyaltyFeeSetter.sol\":4606:4682  IRoyaltyFeeRegistry(royaltyFeeRegistry).royaltyFeeInfoCollection(collection) */\n      0x04\n      dup4\n      add\n        /* \"#utility.yul\":1175:1249   */\n      mstore\n        /* \"contracts/Manager/royalty/RoyaltyFeeSetter.sol\":4578:4599  address currentSetter */\n      0x00\n      swap2\n        /* \"contracts/Manager/royalty/RoyaltyFeeSetter.sol\":4626:4644  royaltyFeeRegistry */\n      immutable(\"0x911a39fbf665a24ad3b6efc185d4b936bbda1900793ae2f7c00f4d18bdd96685\")\n        /* \"contracts/Manager/royalty/RoyaltyFeeSetter.sol\":4606:4670  IRoyaltyFeeRegistry(royaltyFeeRegistry).royaltyFeeInfoCollection */\n      swap1\n      swap2\n      and\n      swap1\n      0xe31ef91c\n      swap1\n        /* \"#utility.yul\":1148:1166   */\n      0x24\n      add\n        /* \"contracts/Manager/royalty/RoyaltyFeeSetter.sol\":4606:4682  IRoyaltyFeeRegistry(royaltyFeeRegistry).royaltyFeeInfoCollection(collection) */\n      0x60\n      mload(0x40)\n      dup1\n      dup4\n      sub\n      dup2\n      dup7\n      gas\n      staticcall\n      iszero\n      dup1\n      iszero\n      tag_154\n      jumpi\n      returndatasize\n      0x00\n      dup1\n      returndatacopy\n      revert(0x00, returndatasize)\n    tag_154:\n      pop\n      pop\n      pop\n      pop\n      mload(0x40)\n      returndatasize\n      not(0x1f)\n      0x1f\n      dup3\n      add\n      and\n      dup3\n      add\n      dup1\n      0x40\n      mstore\n      pop\n      dup2\n      add\n      swap1\n      tag_155\n      swap2\n      swap1\n      tag_112\n      jump\t// in\n    tag_155:\n      pop\n        /* \"contracts/Manager/royalty/RoyaltyFeeSetter.sol\":4577:4682  (address currentSetter, ,) = IRoyaltyFeeRegistry(royaltyFeeRegistry).royaltyFeeInfoCollection(collection) */\n      swap1\n      swap2\n      pop\n      pop\n        /* \"contracts/Manager/royalty/RoyaltyFeeSetter.sol\":4700:4727  currentSetter == address(0) */\n      0xffffffffffffffffffffffffffffffffffffffff\n      dup2\n      and\n      iszero\n        /* \"contracts/Manager/royalty/RoyaltyFeeSetter.sol\":4692:4743  require(currentSetter == address(0), \"Already set\") */\n      tag_156\n      jumpi\n      mload(0x40)\n      0x08c379a000000000000000000000000000000000000000000000000000000000\n      dup2\n      mstore\n        /* \"#utility.yul\":4821:4823   */\n      0x20\n        /* \"contracts/Manager/royalty/RoyaltyFeeSetter.sol\":4692:4743  require(currentSetter == address(0), \"Already set\") */\n      0x04\n      dup3\n      add\n        /* \"#utility.yul\":4803:4824   */\n      mstore\n        /* \"#utility.yul\":4860:4862   */\n      0x0b\n        /* \"#utility.yul\":4840:4858   */\n      0x24\n      dup3\n      add\n        /* \"#utility.yul\":4833:4863   */\n      mstore\n        /* \"#utility.yul\":4899:4912   */\n      0x416c726561647920736574000000000000000000000000000000000000000000\n        /* \"#utility.yul\":4879:4897   */\n      0x44\n      dup3\n      add\n        /* \"#utility.yul\":4872:4913   */\n      mstore\n        /* \"#utility.yul\":4930:4948   */\n      0x64\n      add\n        /* \"contracts/Manager/royalty/RoyaltyFeeSetter.sol\":4692:4743  require(currentSetter == address(0), \"Already set\") */\n      tag_67\n        /* \"#utility.yul\":4619:4954   */\n      jump\n        /* \"contracts/Manager/royalty/RoyaltyFeeSetter.sol\":4692:4743  require(currentSetter == address(0), \"Already set\") */\n    tag_156:\n        /* \"contracts/Manager/royalty/RoyaltyFeeSetter.sol\":4776:4834  IERC165(collection).supportsInterface(INTERFACE_ID_ERC721) */\n      mload(0x40)\n      0x01ffc9a700000000000000000000000000000000000000000000000000000000\n      dup2\n      mstore\n        /* \"contracts/Manager/royalty/RoyaltyFeeSetter.sol\":4814:4833  INTERFACE_ID_ERC721 */\n      0x80ac58cd00000000000000000000000000000000000000000000000000000000\n        /* \"contracts/Manager/royalty/RoyaltyFeeSetter.sol\":4776:4834  IERC165(collection).supportsInterface(INTERFACE_ID_ERC721) */\n      0x04\n      dup3\n      add\n        /* \"#utility.yul\":158:256   */\n      mstore\n        /* \"contracts/Manager/royalty/RoyaltyFeeSetter.sol\":4776:4813  IERC165(collection).supportsInterface */\n      0xffffffffffffffffffffffffffffffffffffffff\n      dup7\n      and\n      swap1\n      0x01ffc9a7\n      swap1\n        /* \"#utility.yul\":131:149   */\n      0x24\n      add\n        /* \"contracts/Manager/royalty/RoyaltyFeeSetter.sol\":4776:4834  IERC165(collection).supportsInterface(INTERFACE_ID_ERC721) */\n      0x20\n      mload(0x40)\n      dup1\n      dup4\n      sub\n      dup2\n      dup7\n      gas\n      staticcall\n      iszero\n      dup1\n      iszero\n      tag_161\n      jumpi\n      returndatasize\n      0x00\n      dup1\n      returndatacopy\n      revert(0x00, returndatasize)\n    tag_161:\n      pop\n      pop\n      pop\n      pop\n      mload(0x40)\n      returndatasize\n      not(0x1f)\n      0x1f\n      dup3\n      add\n      and\n      dup3\n      add\n      dup1\n      0x40\n      mstore\n      pop\n      dup2\n      add\n      swap1\n      tag_162\n      swap2\n      swap1\n      tag_65\n      jump\t// in\n    tag_162:\n        /* \"contracts/Manager/royalty/RoyaltyFeeSetter.sol\":4776:4905  IERC165(collection).supportsInterface(INTERFACE_ID_ERC721) ||... */\n      dup1\n      tag_167\n      jumpi\n      pop\n        /* \"contracts/Manager/royalty/RoyaltyFeeSetter.sol\":4846:4905  IERC165(collection).supportsInterface(INTERFACE_ID_ERC1155) */\n      mload(0x40)\n      0x01ffc9a700000000000000000000000000000000000000000000000000000000\n      dup2\n      mstore\n        /* \"contracts/Manager/royalty/RoyaltyFeeSetter.sol\":4884:4904  INTERFACE_ID_ERC1155 */\n      0xd9b67a2600000000000000000000000000000000000000000000000000000000\n        /* \"contracts/Manager/royalty/RoyaltyFeeSetter.sol\":4846:4905  IERC165(collection).supportsInterface(INTERFACE_ID_ERC1155) */\n      0x04\n      dup3\n      add\n        /* \"#utility.yul\":158:256   */\n      mstore\n        /* \"contracts/Manager/royalty/RoyaltyFeeSetter.sol\":4846:4883  IERC165(collection).supportsInterface */\n      0xffffffffffffffffffffffffffffffffffffffff\n      dup7\n      and\n      swap1\n      0x01ffc9a7\n      swap1\n        /* \"#utility.yul\":131:149   */\n      0x24\n      add\n        /* \"contracts/Manager/royalty/RoyaltyFeeSetter.sol\":4846:4905  IERC165(collection).supportsInterface(INTERFACE_ID_ERC1155) */\n      0x20\n      mload(0x40)\n      dup1\n      dup4\n      sub\n      dup2\n      dup7\n      gas\n      staticcall\n      iszero\n      dup1\n      iszero\n      tag_166\n      jumpi\n      returndatasize\n      0x00\n      dup1\n      returndatacopy\n      revert(0x00, returndatasize)\n    tag_166:\n      pop\n      pop\n      pop\n      pop\n      mload(0x40)\n      returndatasize\n      not(0x1f)\n      0x1f\n      dup3\n      add\n      and\n      dup3\n      add\n      dup1\n      0x40\n      mstore\n      pop\n      dup2\n      add\n      swap1\n      tag_167\n      swap2\n      swap1\n      tag_65\n      jump\t// in\n    tag_167:\n        /* \"contracts/Manager/royalty/RoyaltyFeeSetter.sol\":4754:4958  require(... */\n      tag_168\n      jumpi\n      mload(0x40)\n      0x08c379a000000000000000000000000000000000000000000000000000000000\n      dup2\n      mstore\n        /* \"#utility.yul\":5161:5163   */\n      0x20\n        /* \"contracts/Manager/royalty/RoyaltyFeeSetter.sol\":4754:4958  require(... */\n      0x04\n      dup3\n      add\n        /* \"#utility.yul\":5143:5164   */\n      mstore\n        /* \"#utility.yul\":5200:5202   */\n      0x1a\n        /* \"#utility.yul\":5180:5198   */\n      0x24\n      dup3\n      add\n        /* \"#utility.yul\":5173:5203   */\n      mstore\n        /* \"#utility.yul\":5239:5267   */\n      0x204e6f7420536574206f66204552433732312f45524331313535000000000000\n        /* \"#utility.yul\":5219:5237   */\n      0x44\n      dup3\n      add\n        /* \"#utility.yul\":5212:5268   */\n      mstore\n        /* \"#utility.yul\":5285:5303   */\n      0x64\n      add\n        /* \"contracts/Manager/royalty/RoyaltyFeeSetter.sol\":4754:4958  require(... */\n      tag_67\n        /* \"#utility.yul\":4959:5309   */\n      jump\n        /* \"contracts/Manager/royalty/RoyaltyFeeSetter.sol\":4754:4958  require(... */\n    tag_168:\n        /* \"contracts/Manager/royalty/RoyaltyFeeSetter.sol\":4969:5074  IRoyaltyFeeRegistry(royaltyFeeRegistry).updateRoyaltyInfoForCollection(collection, setter, receiver, fee) */\n      mload(0x40)\n      0xbbdf9b6800000000000000000000000000000000000000000000000000000000\n      dup2\n      mstore\n        /* \"contracts/Manager/royalty/RoyaltyFeeSetter.sol\":4969:5039  IRoyaltyFeeRegistry(royaltyFeeRegistry).updateRoyaltyInfoForCollection */\n      0xffffffffffffffffffffffffffffffffffffffff\n        /* \"#utility.yul\":5624:5639   */\n      dup7\n      dup2\n      and\n        /* \"contracts/Manager/royalty/RoyaltyFeeSetter.sol\":4969:5074  IRoyaltyFeeRegistry(royaltyFeeRegistry).updateRoyaltyInfoForCollection(collection, setter, receiver, fee) */\n      0x04\n      dup4\n      add\n        /* \"#utility.yul\":5606:5640   */\n      mstore\n        /* \"#utility.yul\":5676:5691   */\n      dup6\n      dup2\n      and\n        /* \"#utility.yul\":5656:5674   */\n      0x24\n      dup4\n      add\n        /* \"#utility.yul\":5649:5692   */\n      mstore\n        /* \"#utility.yul\":5728:5743   */\n      dup5\n      dup2\n      and\n        /* \"#utility.yul\":5708:5726   */\n      0x44\n      dup4\n      add\n        /* \"#utility.yul\":5701:5744   */\n      mstore\n        /* \"#utility.yul\":5760:5778   */\n      0x64\n      dup3\n      add\n        /* \"#utility.yul\":5753:5787   */\n      dup5\n      swap1\n      mstore\n        /* \"contracts/Manager/royalty/RoyaltyFeeSetter.sol\":4989:5007  royaltyFeeRegistry */\n      immutable(\"0x911a39fbf665a24ad3b6efc185d4b936bbda1900793ae2f7c00f4d18bdd96685\")\n        /* \"contracts/Manager/royalty/RoyaltyFeeSetter.sol\":4969:5039  IRoyaltyFeeRegistry(royaltyFeeRegistry).updateRoyaltyInfoForCollection */\n      and\n      swap1\n      0xbbdf9b68\n      swap1\n        /* \"#utility.yul\":5517:5536   */\n      0x84\n      add\n        /* \"contracts/Manager/royalty/RoyaltyFeeSetter.sol\":4969:5074  IRoyaltyFeeRegistry(royaltyFeeRegistry).updateRoyaltyInfoForCollection(collection, setter, receiver, fee) */\n      0x00\n      mload(0x40)\n      dup1\n      dup4\n      sub\n      dup2\n      0x00\n      dup8\n      dup1\n      extcodesize\n      iszero\n      dup1\n      iszero\n      tag_173\n      jumpi\n      0x00\n      dup1\n      revert\n    tag_173:\n      pop\n      gas\n      call\n      iszero\n      dup1\n      iszero\n      tag_175\n      jumpi\n      returndatasize\n      0x00\n      dup1\n      returndatacopy\n      revert(0x00, returndatasize)\n    tag_175:\n      pop\n      pop\n      pop\n      pop\n        /* \"contracts/Manager/royalty/RoyaltyFeeSetter.sol\":4567:5081  {... */\n      pop\n        /* \"contracts/Manager/royalty/RoyaltyFeeSetter.sol\":4398:5081  function _updateRoyaltyInfoForCollectionIfOwnerOrAdmin(... */\n      pop\n      pop\n      pop\n      pop\n      jump\t// out\n        /* \"@openzeppelin/contracts/access/Ownable.sol\":1359:1489  function _checkOwner() internal view virtual {... */\n    tag_80:\n        /* \"@openzeppelin/contracts/access/Ownable.sol\":1247:1254  address */\n      0x00\n        /* \"@openzeppelin/contracts/access/Ownable.sol\":1273:1279  _owner */\n      sload\n        /* \"@openzeppelin/contracts/access/Ownable.sol\":1422:1445  owner() == _msgSender() */\n      0xffffffffffffffffffffffffffffffffffffffff\n        /* \"@openzeppelin/contracts/access/Ownable.sol\":1273:1279  _owner */\n      and\n        /* \"@openzeppelin/contracts/utils/Context.sol\":719:729  msg.sender */\n      caller\n        /* \"@openzeppelin/contracts/access/Ownable.sol\":1422:1445  owner() == _msgSender() */\n      eq\n        /* \"@openzeppelin/contracts/access/Ownable.sol\":1414:1482  require(owner() == _msgSender(), \"Ownable: caller is not the owner\") */\n      tag_82\n      jumpi\n      mload(0x40)\n      0x08c379a000000000000000000000000000000000000000000000000000000000\n      dup2\n      mstore\n        /* \"#utility.yul\":6000:6002   */\n      0x20\n        /* \"@openzeppelin/contracts/access/Ownable.sol\":1414:1482  require(owner() == _msgSender(), \"Ownable: caller is not the owner\") */\n      0x04\n      dup3\n      add\n        /* \"#utility.yul\":5982:6003   */\n      dup2\n      swap1\n      mstore\n        /* \"#utility.yul\":6019:6037   */\n      0x24\n      dup3\n      add\n        /* \"#utility.yul\":6012:6042   */\n      mstore\n        /* \"#utility.yul\":6078:6112   */\n      0x4f776e61626c653a2063616c6c6572206973206e6f7420746865206f776e6572\n        /* \"#utility.yul\":6058:6076   */\n      0x44\n      dup3\n      add\n        /* \"#utility.yul\":6051:6113   */\n      mstore\n        /* \"#utility.yul\":6130:6148   */\n      0x64\n      add\n        /* \"@openzeppelin/contracts/access/Ownable.sol\":1414:1482  require(owner() == _msgSender(), \"Ownable: caller is not the owner\") */\n      tag_67\n        /* \"#utility.yul\":5798:6154   */\n      jump\n        /* \"@openzeppelin/contracts/access/Ownable.sol\":2433:2620  function _transferOwnership(address newOwner) internal virtual {... */\n    tag_83:\n        /* \"@openzeppelin/contracts/access/Ownable.sol\":2506:2522  address oldOwner */\n      0x00\n        /* \"@openzeppelin/contracts/access/Ownable.sol\":2525:2531  _owner */\n      dup1\n      sload\n      0xffffffffffffffffffffffffffffffffffffffff\n        /* \"@openzeppelin/contracts/access/Ownable.sol\":2541:2558  _owner = newOwner */\n      dup4\n      dup2\n      and\n      0xffffffffffffffffffffffff0000000000000000000000000000000000000000\n      dup4\n      and\n      dup2\n      or\n      dup5\n      sstore\n        /* \"@openzeppelin/contracts/access/Ownable.sol\":2573:2613  OwnershipTransferred(oldOwner, newOwner) */\n      mload(0x40)\n        /* \"@openzeppelin/contracts/access/Ownable.sol\":2525:2531  _owner */\n      swap2\n      swap1\n      swap3\n      and\n      swap3\n      dup4\n      swap2\n        /* \"@openzeppelin/contracts/access/Ownable.sol\":2573:2613  OwnershipTransferred(oldOwner, newOwner) */\n      0x8be0079c531659141344cd1fd0a4f28419497f9722a3daafe3b4186f6b6457e0\n      swap2\n        /* \"@openzeppelin/contracts/access/Ownable.sol\":2506:2522  address oldOwner */\n      swap1\n        /* \"@openzeppelin/contracts/access/Ownable.sol\":2573:2613  OwnershipTransferred(oldOwner, newOwner) */\n      log3\n        /* \"@openzeppelin/contracts/access/Ownable.sol\":2496:2620  {... */\n      pop\n        /* \"@openzeppelin/contracts/access/Ownable.sol\":2433:2620  function _transferOwnership(address newOwner) internal virtual {... */\n      pop\n      jump\t// out\n        /* \"#utility.yul\":267:421   */\n    tag_185:\n        /* \"#utility.yul\":353:395   */\n      0xffffffffffffffffffffffffffffffffffffffff\n        /* \"#utility.yul\":346:351   */\n      dup2\n        /* \"#utility.yul\":342:396   */\n      and\n        /* \"#utility.yul\":335:340   */\n      dup2\n        /* \"#utility.yul\":332:397   */\n      eq\n        /* \"#utility.yul\":322:415   */\n      tag_150\n      jumpi\n        /* \"#utility.yul\":411:412   */\n      0x00\n        /* \"#utility.yul\":408:409   */\n      dup1\n        /* \"#utility.yul\":401:413   */\n      revert\n        /* \"#utility.yul\":426:1024   */\n    tag_24:\n        /* \"#utility.yul\":512:518   */\n      0x00\n        /* \"#utility.yul\":520:526   */\n      dup1\n        /* \"#utility.yul\":528:534   */\n      0x00\n        /* \"#utility.yul\":536:542   */\n      dup1\n        /* \"#utility.yul\":589:592   */\n      0x80\n        /* \"#utility.yul\":577:586   */\n      dup6\n        /* \"#utility.yul\":568:575   */\n      dup8\n        /* \"#utility.yul\":564:587   */\n      sub\n        /* \"#utility.yul\":560:593   */\n      slt\n        /* \"#utility.yul\":557:610   */\n      iszero\n      tag_191\n      jumpi\n        /* \"#utility.yul\":606:607   */\n      0x00\n        /* \"#utility.yul\":603:604   */\n      dup1\n        /* \"#utility.yul\":596:608   */\n      revert\n        /* \"#utility.yul\":557:610   */\n    tag_191:\n        /* \"#utility.yul\":645:654   */\n      dup5\n        /* \"#utility.yul\":632:655   */\n      calldataload\n        /* \"#utility.yul\":664:695   */\n      tag_192\n        /* \"#utility.yul\":689:694   */\n      dup2\n        /* \"#utility.yul\":664:695   */\n      tag_185\n      jump\t// in\n    tag_192:\n        /* \"#utility.yul\":714:719   */\n      swap4\n      pop\n        /* \"#utility.yul\":771:773   */\n      0x20\n        /* \"#utility.yul\":756:774   */\n      dup6\n      add\n        /* \"#utility.yul\":743:775   */\n      calldataload\n        /* \"#utility.yul\":784:817   */\n      tag_193\n        /* \"#utility.yul\":743:775   */\n      dup2\n        /* \"#utility.yul\":784:817   */\n      tag_185\n      jump\t// in\n    tag_193:\n        /* \"#utility.yul\":836:843   */\n      swap3\n      pop\n        /* \"#utility.yul\":895:897   */\n      0x40\n        /* \"#utility.yul\":880:898   */\n      dup6\n      add\n        /* \"#utility.yul\":867:899   */\n      calldataload\n        /* \"#utility.yul\":908:941   */\n      tag_194\n        /* \"#utility.yul\":867:899   */\n      dup2\n        /* \"#utility.yul\":908:941   */\n      tag_185\n      jump\t// in\n    tag_194:\n        /* \"#utility.yul\":426:1024   */\n      swap4\n      swap7\n      swap3\n      swap6\n      pop\n        /* \"#utility.yul\":960:967   */\n      swap3\n      swap4\n        /* \"#utility.yul\":1014:1016   */\n      0x60\n        /* \"#utility.yul\":999:1017   */\n      add\n        /* \"#utility.yul\":986:1018   */\n      calldataload\n      swap3\n      pop\n      pop\n        /* \"#utility.yul\":426:1024   */\n      jump\t// out\n        /* \"#utility.yul\":1260:1440   */\n    tag_40:\n        /* \"#utility.yul\":1319:1325   */\n      0x00\n        /* \"#utility.yul\":1372:1374   */\n      0x20\n        /* \"#utility.yul\":1360:1369   */\n      dup3\n        /* \"#utility.yul\":1351:1358   */\n      dup5\n        /* \"#utility.yul\":1347:1370   */\n      sub\n        /* \"#utility.yul\":1343:1375   */\n      slt\n        /* \"#utility.yul\":1340:1392   */\n      iszero\n      tag_197\n      jumpi\n        /* \"#utility.yul\":1388:1389   */\n      0x00\n        /* \"#utility.yul\":1385:1386   */\n      dup1\n        /* \"#utility.yul\":1378:1390   */\n      revert\n        /* \"#utility.yul\":1340:1392   */\n    tag_197:\n      pop\n        /* \"#utility.yul\":1411:1434   */\n      calldataload\n      swap2\n        /* \"#utility.yul\":1260:1440   */\n      swap1\n      pop\n      jump\t// out\n        /* \"#utility.yul\":1445:1692   */\n    tag_50:\n        /* \"#utility.yul\":1504:1510   */\n      0x00\n        /* \"#utility.yul\":1557:1559   */\n      0x20\n        /* \"#utility.yul\":1545:1554   */\n      dup3\n        /* \"#utility.yul\":1536:1543   */\n      dup5\n        /* \"#utility.yul\":1532:1555   */\n      sub\n        /* \"#utility.yul\":1528:1560   */\n      slt\n        /* \"#utility.yul\":1525:1577   */\n      iszero\n      tag_199\n      jumpi\n        /* \"#utility.yul\":1573:1574   */\n      0x00\n        /* \"#utility.yul\":1570:1571   */\n      dup1\n        /* \"#utility.yul\":1563:1575   */\n      revert\n        /* \"#utility.yul\":1525:1577   */\n    tag_199:\n        /* \"#utility.yul\":1612:1621   */\n      dup2\n        /* \"#utility.yul\":1599:1622   */\n      calldataload\n        /* \"#utility.yul\":1631:1662   */\n      tag_200\n        /* \"#utility.yul\":1656:1661   */\n      dup2\n        /* \"#utility.yul\":1631:1662   */\n      tag_185\n      jump\t// in\n    tag_200:\n        /* \"#utility.yul\":1681:1686   */\n      swap4\n        /* \"#utility.yul\":1445:1692   */\n      swap3\n      pop\n      pop\n      pop\n      jump\t// out\n        /* \"#utility.yul\":2006:2283   */\n    tag_65:\n        /* \"#utility.yul\":2073:2079   */\n      0x00\n        /* \"#utility.yul\":2126:2128   */\n      0x20\n        /* \"#utility.yul\":2114:2123   */\n      dup3\n        /* \"#utility.yul\":2105:2112   */\n      dup5\n        /* \"#utility.yul\":2101:2124   */\n      sub\n        /* \"#utility.yul\":2097:2129   */\n      slt\n        /* \"#utility.yul\":2094:2146   */\n      iszero\n      tag_203\n      jumpi\n        /* \"#utility.yul\":2142:2143   */\n      0x00\n        /* \"#utility.yul\":2139:2140   */\n      dup1\n        /* \"#utility.yul\":2132:2144   */\n      revert\n        /* \"#utility.yul\":2094:2146   */\n    tag_203:\n        /* \"#utility.yul\":2174:2183   */\n      dup2\n        /* \"#utility.yul\":2168:2184   */\n      mload\n        /* \"#utility.yul\":2227:2232   */\n      dup1\n        /* \"#utility.yul\":2220:2233   */\n      iszero\n        /* \"#utility.yul\":2213:2234   */\n      iszero\n        /* \"#utility.yul\":2206:2211   */\n      dup2\n        /* \"#utility.yul\":2203:2235   */\n      eq\n        /* \"#utility.yul\":2193:2253   */\n      tag_200\n      jumpi\n        /* \"#utility.yul\":2249:2250   */\n      0x00\n        /* \"#utility.yul\":2246:2247   */\n      dup1\n        /* \"#utility.yul\":2239:2251   */\n      revert\n        /* \"#utility.yul\":2637:2888   */\n    tag_72:\n        /* \"#utility.yul\":2707:2713   */\n      0x00\n        /* \"#utility.yul\":2760:2762   */\n      0x20\n        /* \"#utility.yul\":2748:2757   */\n      dup3\n        /* \"#utility.yul\":2739:2746   */\n      dup5\n        /* \"#utility.yul\":2735:2758   */\n      sub\n        /* \"#utility.yul\":2731:2763   */\n      slt\n        /* \"#utility.yul\":2728:2780   */\n      iszero\n      tag_207\n      jumpi\n        /* \"#utility.yul\":2776:2777   */\n      0x00\n        /* \"#utility.yul\":2773:2774   */\n      dup1\n        /* \"#utility.yul\":2766:2778   */\n      revert\n        /* \"#utility.yul\":2728:2780   */\n    tag_207:\n        /* \"#utility.yul\":2808:2817   */\n      dup2\n        /* \"#utility.yul\":2802:2818   */\n      mload\n        /* \"#utility.yul\":2827:2858   */\n      tag_200\n        /* \"#utility.yul\":2852:2857   */\n      dup2\n        /* \"#utility.yul\":2827:2858   */\n      tag_185\n      jump\t// in\n        /* \"#utility.yul\":3761:4207   */\n    tag_112:\n        /* \"#utility.yul\":3849:3855   */\n      0x00\n        /* \"#utility.yul\":3857:3863   */\n      dup1\n        /* \"#utility.yul\":3865:3871   */\n      0x00\n        /* \"#utility.yul\":3918:3920   */\n      0x60\n        /* \"#utility.yul\":3906:3915   */\n      dup5\n        /* \"#utility.yul\":3897:3904   */\n      dup7\n        /* \"#utility.yul\":3893:3916   */\n      sub\n        /* \"#utility.yul\":3889:3921   */\n      slt\n        /* \"#utility.yul\":3886:3938   */\n      iszero\n      tag_213\n      jumpi\n        /* \"#utility.yul\":3934:3935   */\n      0x00\n        /* \"#utility.yul\":3931:3932   */\n      dup1\n        /* \"#utility.yul\":3924:3936   */\n      revert\n        /* \"#utility.yul\":3886:3938   */\n    tag_213:\n        /* \"#utility.yul\":3966:3975   */\n      dup4\n        /* \"#utility.yul\":3960:3976   */\n      mload\n        /* \"#utility.yul\":3985:4016   */\n      tag_214\n        /* \"#utility.yul\":4010:4015   */\n      dup2\n        /* \"#utility.yul\":3985:4016   */\n      tag_185\n      jump\t// in\n    tag_214:\n        /* \"#utility.yul\":4085:4087   */\n      0x20\n        /* \"#utility.yul\":4070:4088   */\n      dup6\n      add\n        /* \"#utility.yul\":4064:4089   */\n      mload\n        /* \"#utility.yul\":4035:4040   */\n      swap1\n      swap4\n      pop\n        /* \"#utility.yul\":4098:4131   */\n      tag_215\n        /* \"#utility.yul\":4064:4089   */\n      dup2\n        /* \"#utility.yul\":4098:4131   */\n      tag_185\n      jump\t// in\n    tag_215:\n        /* \"#utility.yul\":4150:4157   */\n      dup1\n        /* \"#utility.yul\":4140:4157   */\n      swap3\n      pop\n      pop\n        /* \"#utility.yul\":4197:4199   */\n      0x40\n        /* \"#utility.yul\":4186:4195   */\n      dup5\n        /* \"#utility.yul\":4182:4200   */\n      add\n        /* \"#utility.yul\":4176:4201   */\n      mload\n        /* \"#utility.yul\":4166:4201   */\n      swap1\n      pop\n        /* \"#utility.yul\":3761:4207   */\n      swap3\n      pop\n      swap3\n      pop\n      swap3\n      jump\t// out\n\n    auxdata: 0xa2646970667358221220a8b9421b85c7eefcd3de0ba98fb2ef89bbf8db69237016ff2be792d8fb3137e164736f6c63430008110033\n}\n",
				"bytecode": {
					"linkReferences": {},
					"object": "60a060405234801561001057600080fd5b506040516112ea3803806112ea83398101604081905261002f91610099565b61003833610049565b6001600160a01b03166080526100c9565b600080546001600160a01b038381166001600160a01b0319831681178455604051919092169283917f8be0079c531659141344cd1fd0a4f28419497f9722a3daafe3b4186f6b6457e09190a35050565b6000602082840312156100ab57600080fd5b81516001600160a01b03811681146100c257600080fd5b9392505050565b6080516111e36101076000396000818161020b01528181610726015281816107e701528181610ae001528181610c0e0152610f2201526111e36000f3fe608060405234801561001057600080fd5b50600436106100d45760003560e01c8063b9223c9d11610081578063c54e54971161005b578063c54e54971461022d578063e72ba4561461026e578063f2fde38b1461028157600080fd5b8063b9223c9d146101cc578063bc6bc0cd146101df578063c16f51561461020657600080fd5b80638da5cb5b116100b25780638da5cb5b14610153578063ab01667014610192578063b060dd86146101a557600080fd5b806333bf6156146100d95780633755fa8014610136578063715018a61461014b575b600080fd5b6101007fd9b67a260000000000000000000000000000000000000000000000000000000081565b6040517fffffffff0000000000000000000000000000000000000000000000000000000090911681526020015b60405180910390f35b61014961014436600461109d565b610294565b005b6101496104c3565b60005473ffffffffffffffffffffffffffffffffffffffff165b60405173ffffffffffffffffffffffffffffffffffffffff909116815260200161012d565b6101496101a036600461109d565b6104d7565b6101007f2a55205a0000000000000000000000000000000000000000000000000000000081565b6101496101da3660046110ee565b6106ef565b6101007f80ac58cd0000000000000000000000000000000000000000000000000000000081565b61016d7f000000000000000000000000000000000000000000000000000000000000000081565b61024061023b366004611107565b61079b565b6040805173ffffffffffffffffffffffffffffffffffffffff909316835260ff90911660208301520161012d565b61014961027c366004611107565b610a93565b61014961028f366004611107565b610b0f565b6040517f01ffc9a70000000000000000000000000000000000000000000000000000000081527f2a55205a00000000000000000000000000000000000000000000000000000000600482015273ffffffffffffffffffffffffffffffffffffffff8516906301ffc9a790602401602060405180830381865afa15801561031e573d6000803e3d6000fd5b505050506040513d601f19601f82011682018060405250810190610342919061112b565b156103ae576040517f08c379a000000000000000000000000000000000000000000000000000000000815260206004820152601460248201527f204d757374206e6f74206265204552433239383100000000000000000000000060448201526064015b60405180910390fd5b8373ffffffffffffffffffffffffffffffffffffffff16638da5cb5b6040518163ffffffff1660e01b8152600401602060405180830381865afa1580156103f9573d6000803e3d6000fd5b505050506040513d601f19601f8201168201806040525081019061041d919061114d565b73ffffffffffffffffffffffffffffffffffffffff163373ffffffffffffffffffffffffffffffffffffffff16146104b1576040517f08c379a000000000000000000000000000000000000000000000000000000000815260206004820152600e60248201527f204e6f7420746865206f776e657200000000000000000000000000000000000060448201526064016103a5565b6104bd84848484610bc6565b50505050565b6104cb610f85565b6104d56000611006565b565b6040517f01ffc9a70000000000000000000000000000000000000000000000000000000081527f2a55205a00000000000000000000000000000000000000000000000000000000600482015273ffffffffffffffffffffffffffffffffffffffff8516906301ffc9a790602401602060405180830381865afa158015610561573d6000803e3d6000fd5b505050506040513d601f19601f82011682018060405250810190610585919061112b565b156105ec576040517f08c379a000000000000000000000000000000000000000000000000000000000815260206004820152601460248201527f204d757374206e6f74206265204552433239383100000000000000000000000060448201526064016103a5565b8373ffffffffffffffffffffffffffffffffffffffff1663f851a4406040518163ffffffff1660e01b8152600401602060405180830381865afa158015610637573d6000803e3d6000fd5b505050506040513d601f19601f8201168201806040525081019061065b919061114d565b73ffffffffffffffffffffffffffffffffffffffff163373ffffffffffffffffffffffffffffffffffffffff16146104b1576040517f08c379a000000000000000000000000000000000000000000000000000000000815260206004820152600e60248201527f204e6f74207468652061646d696e00000000000000000000000000000000000060448201526064016103a5565b6106f7610f85565b6040517fb9223c9d000000000000000000000000000000000000000000000000000000008152600481018290527f000000000000000000000000000000000000000000000000000000000000000073ffffffffffffffffffffffffffffffffffffffff169063b9223c9d906024015b600060405180830381600087803b15801561078057600080fd5b505af1158015610794573d6000803e3d6000fd5b5050505050565b6040517fe31ef91c00000000000000000000000000000000000000000000000000000000815273ffffffffffffffffffffffffffffffffffffffff8281166004830152600091829182917f00000000000000000000000000000000000000000000000000000000000000009091169063e31ef91c90602401606060405180830381865afa158015610830573d6000803e3d6000fd5b505050506040513d601f19601f82011682018060405250810190610854919061116a565b509091505073ffffffffffffffffffffffffffffffffffffffff81161561087f579360009350915050565b6040517f01ffc9a70000000000000000000000000000000000000000000000000000000081527f2a55205a00000000000000000000000000000000000000000000000000000000600482015273ffffffffffffffffffffffffffffffffffffffff8516906301ffc9a790602401602060405180830381865afa925050508015610943575060408051601f3d9081017fffffffffffffffffffffffffffffffffffffffffffffffffffffffffffffffe01682019092526109409181019061112b565b60015b1561095e57801561095c57506000946001945092505050565b505b8373ffffffffffffffffffffffffffffffffffffffff16638da5cb5b6040518163ffffffff1660e01b8152600401602060405180830381865afa9250505080156109e3575060408051601f3d9081017fffffffffffffffffffffffffffffffffffffffffffffffffffffffffffffffe01682019092526109e09181019061114d565b60015b610a88578373ffffffffffffffffffffffffffffffffffffffff1663f851a4406040518163ffffffff1660e01b8152600401602060405180830381865afa925050508015610a6c575060408051601f3d9081017fffffffffffffffffffffffffffffffffffffffffffffffffffffffffffffffe0168201909252610a699181019061114d565b60015b610a7d575060009360049350915050565b946003945092505050565b946002945092505050565b610a9b610f85565b6040517ff2fde38b00000000000000000000000000000000000000000000000000000000815273ffffffffffffffffffffffffffffffffffffffff82811660048301527f0000000000000000000000000000000000000000000000000000000000000000169063f2fde38b90602401610766565b610b17610f85565b73ffffffffffffffffffffffffffffffffffffffff8116610bba576040517f08c379a000000000000000000000000000000000000000000000000000000000815260206004820152602660248201527f4f776e61626c653a206e6577206f776e657220697320746865207a65726f206160448201527f646472657373000000000000000000000000000000000000000000000000000060648201526084016103a5565b610bc381611006565b50565b6040517fe31ef91c00000000000000000000000000000000000000000000000000000000815273ffffffffffffffffffffffffffffffffffffffff85811660048301526000917f00000000000000000000000000000000000000000000000000000000000000009091169063e31ef91c90602401606060405180830381865afa158015610c57573d6000803e3d6000fd5b505050506040513d601f19601f82011682018060405250810190610c7b919061116a565b509091505073ffffffffffffffffffffffffffffffffffffffff811615610cfe576040517f08c379a000000000000000000000000000000000000000000000000000000000815260206004820152600b60248201527f416c72656164792073657400000000000000000000000000000000000000000060448201526064016103a5565b6040517f01ffc9a70000000000000000000000000000000000000000000000000000000081527f80ac58cd00000000000000000000000000000000000000000000000000000000600482015273ffffffffffffffffffffffffffffffffffffffff8616906301ffc9a790602401602060405180830381865afa158015610d88573d6000803e3d6000fd5b505050506040513d601f19601f82011682018060405250810190610dac919061112b565b80610e6057506040517f01ffc9a70000000000000000000000000000000000000000000000000000000081527fd9b67a2600000000000000000000000000000000000000000000000000000000600482015273ffffffffffffffffffffffffffffffffffffffff8616906301ffc9a790602401602060405180830381865afa158015610e3c573d6000803e3d6000fd5b505050506040513d601f19601f82011682018060405250810190610e60919061112b565b610ec6576040517f08c379a000000000000000000000000000000000000000000000000000000000815260206004820152601a60248201527f204e6f7420536574206f66204552433732312f4552433131353500000000000060448201526064016103a5565b6040517fbbdf9b6800000000000000000000000000000000000000000000000000000000815273ffffffffffffffffffffffffffffffffffffffff868116600483015285811660248301528481166044830152606482018490527f0000000000000000000000000000000000000000000000000000000000000000169063bbdf9b6890608401600060405180830381600087803b158015610f6657600080fd5b505af1158015610f7a573d6000803e3d6000fd5b505050505050505050565b60005473ffffffffffffffffffffffffffffffffffffffff1633146104d5576040517f08c379a000000000000000000000000000000000000000000000000000000000815260206004820181905260248201527f4f776e61626c653a2063616c6c6572206973206e6f7420746865206f776e657260448201526064016103a5565b6000805473ffffffffffffffffffffffffffffffffffffffff8381167fffffffffffffffffffffffff0000000000000000000000000000000000000000831681178455604051919092169283917f8be0079c531659141344cd1fd0a4f28419497f9722a3daafe3b4186f6b6457e09190a35050565b73ffffffffffffffffffffffffffffffffffffffff81168114610bc357600080fd5b600080600080608085870312156110b357600080fd5b84356110be8161107b565b935060208501356110ce8161107b565b925060408501356110de8161107b565b9396929550929360600135925050565b60006020828403121561110057600080fd5b5035919050565b60006020828403121561111957600080fd5b81356111248161107b565b9392505050565b60006020828403121561113d57600080fd5b8151801515811461112457600080fd5b60006020828403121561115f57600080fd5b81516111248161107b565b60008060006060848603121561117f57600080fd5b835161118a8161107b565b602085015190935061119b8161107b565b8092505060408401519050925092509256fea2646970667358221220a8b9421b85c7eefcd3de0ba98fb2ef89bbf8db69237016ff2be792d8fb3137e164736f6c63430008110033",
					"opcodes": "PUSH1 0xA0 PUSH1 0x40 MSTORE CALLVALUE DUP1 ISZERO PUSH2 0x10 JUMPI PUSH1 0x0 DUP1 REVERT JUMPDEST POP PUSH1 0x40 MLOAD PUSH2 0x12EA CODESIZE SUB DUP1 PUSH2 0x12EA DUP4 CODECOPY DUP2 ADD PUSH1 0x40 DUP2 SWAP1 MSTORE PUSH2 0x2F SWAP2 PUSH2 0x99 JUMP JUMPDEST PUSH2 0x38 CALLER PUSH2 0x49 JUMP JUMPDEST PUSH1 0x1 PUSH1 0x1 PUSH1 0xA0 SHL SUB AND PUSH1 0x80 MSTORE PUSH2 0xC9 JUMP JUMPDEST PUSH1 0x0 DUP1 SLOAD PUSH1 0x1 PUSH1 0x1 PUSH1 0xA0 SHL SUB DUP4 DUP2 AND PUSH1 0x1 PUSH1 0x1 PUSH1 0xA0 SHL SUB NOT DUP4 AND DUP2 OR DUP5 SSTORE PUSH1 0x40 MLOAD SWAP2 SWAP1 SWAP3 AND SWAP3 DUP4 SWAP2 PUSH32 0x8BE0079C531659141344CD1FD0A4F28419497F9722A3DAAFE3B4186F6B6457E0 SWAP2 SWAP1 LOG3 POP POP JUMP JUMPDEST PUSH1 0x0 PUSH1 0x20 DUP3 DUP5 SUB SLT ISZERO PUSH2 0xAB JUMPI PUSH1 0x0 DUP1 REVERT JUMPDEST DUP2 MLOAD PUSH1 0x1 PUSH1 0x1 PUSH1 0xA0 SHL SUB DUP2 AND DUP2 EQ PUSH2 0xC2 JUMPI PUSH1 0x0 DUP1 REVERT JUMPDEST SWAP4 SWAP3 POP POP POP JUMP JUMPDEST PUSH1 0x80 MLOAD PUSH2 0x11E3 PUSH2 0x107 PUSH1 0x0 CODECOPY PUSH1 0x0 DUP2 DUP2 PUSH2 0x20B ADD MSTORE DUP2 DUP2 PUSH2 0x726 ADD MSTORE DUP2 DUP2 PUSH2 0x7E7 ADD MSTORE DUP2 DUP2 PUSH2 0xAE0 ADD MSTORE DUP2 DUP2 PUSH2 0xC0E ADD MSTORE PUSH2 0xF22 ADD MSTORE PUSH2 0x11E3 PUSH1 0x0 RETURN INVALID PUSH1 0x80 PUSH1 0x40 MSTORE CALLVALUE DUP1 ISZERO PUSH2 0x10 JUMPI PUSH1 0x0 DUP1 REVERT JUMPDEST POP PUSH1 0x4 CALLDATASIZE LT PUSH2 0xD4 JUMPI PUSH1 0x0 CALLDATALOAD PUSH1 0xE0 SHR DUP1 PUSH4 0xB9223C9D GT PUSH2 0x81 JUMPI DUP1 PUSH4 0xC54E5497 GT PUSH2 0x5B JUMPI DUP1 PUSH4 0xC54E5497 EQ PUSH2 0x22D JUMPI DUP1 PUSH4 0xE72BA456 EQ PUSH2 0x26E JUMPI DUP1 PUSH4 0xF2FDE38B EQ PUSH2 0x281 JUMPI PUSH1 0x0 DUP1 REVERT JUMPDEST DUP1 PUSH4 0xB9223C9D EQ PUSH2 0x1CC JUMPI DUP1 PUSH4 0xBC6BC0CD EQ PUSH2 0x1DF JUMPI DUP1 PUSH4 0xC16F5156 EQ PUSH2 0x206 JUMPI PUSH1 0x0 DUP1 REVERT JUMPDEST DUP1 PUSH4 0x8DA5CB5B GT PUSH2 0xB2 JUMPI DUP1 PUSH4 0x8DA5CB5B EQ PUSH2 0x153 JUMPI DUP1 PUSH4 0xAB016670 EQ PUSH2 0x192 JUMPI DUP1 PUSH4 0xB060DD86 EQ PUSH2 0x1A5 JUMPI PUSH1 0x0 DUP1 REVERT JUMPDEST DUP1 PUSH4 0x33BF6156 EQ PUSH2 0xD9 JUMPI DUP1 PUSH4 0x3755FA80 EQ PUSH2 0x136 JUMPI DUP1 PUSH4 0x715018A6 EQ PUSH2 0x14B JUMPI JUMPDEST PUSH1 0x0 DUP1 REVERT JUMPDEST PUSH2 0x100 PUSH32 0xD9B67A2600000000000000000000000000000000000000000000000000000000 DUP2 JUMP JUMPDEST PUSH1 0x40 MLOAD PUSH32 0xFFFFFFFF00000000000000000000000000000000000000000000000000000000 SWAP1 SWAP2 AND DUP2 MSTORE PUSH1 0x20 ADD JUMPDEST PUSH1 0x40 MLOAD DUP1 SWAP2 SUB SWAP1 RETURN JUMPDEST PUSH2 0x149 PUSH2 0x144 CALLDATASIZE PUSH1 0x4 PUSH2 0x109D JUMP JUMPDEST PUSH2 0x294 JUMP JUMPDEST STOP JUMPDEST PUSH2 0x149 PUSH2 0x4C3 JUMP JUMPDEST PUSH1 0x0 SLOAD PUSH20 0xFFFFFFFFFFFFFFFFFFFFFFFFFFFFFFFFFFFFFFFF AND JUMPDEST PUSH1 0x40 MLOAD PUSH20 0xFFFFFFFFFFFFFFFFFFFFFFFFFFFFFFFFFFFFFFFF SWAP1 SWAP2 AND DUP2 MSTORE PUSH1 0x20 ADD PUSH2 0x12D JUMP JUMPDEST PUSH2 0x149 PUSH2 0x1A0 CALLDATASIZE PUSH1 0x4 PUSH2 0x109D JUMP JUMPDEST PUSH2 0x4D7 JUMP JUMPDEST PUSH2 0x100 PUSH32 0x2A55205A00000000000000000000000000000000000000000000000000000000 DUP2 JUMP JUMPDEST PUSH2 0x149 PUSH2 0x1DA CALLDATASIZE PUSH1 0x4 PUSH2 0x10EE JUMP JUMPDEST PUSH2 0x6EF JUMP JUMPDEST PUSH2 0x100 PUSH32 0x80AC58CD00000000000000000000000000000000000000000000000000000000 DUP2 JUMP JUMPDEST PUSH2 0x16D PUSH32 0x0 DUP2 JUMP JUMPDEST PUSH2 0x240 PUSH2 0x23B CALLDATASIZE PUSH1 0x4 PUSH2 0x1107 JUMP JUMPDEST PUSH2 0x79B JUMP JUMPDEST PUSH1 0x40 DUP1 MLOAD PUSH20 0xFFFFFFFFFFFFFFFFFFFFFFFFFFFFFFFFFFFFFFFF SWAP1 SWAP4 AND DUP4 MSTORE PUSH1 0xFF SWAP1 SWAP2 AND PUSH1 0x20 DUP4 ADD MSTORE ADD PUSH2 0x12D JUMP JUMPDEST PUSH2 0x149 PUSH2 0x27C CALLDATASIZE PUSH1 0x4 PUSH2 0x1107 JUMP JUMPDEST PUSH2 0xA93 JUMP JUMPDEST PUSH2 0x149 PUSH2 0x28F CALLDATASIZE PUSH1 0x4 PUSH2 0x1107 JUMP JUMPDEST PUSH2 0xB0F JUMP JUMPDEST PUSH1 0x40 MLOAD PUSH32 0x1FFC9A700000000000000000000000000000000000000000000000000000000 DUP2 MSTORE PUSH32 0x2A55205A00000000000000000000000000000000000000000000000000000000 PUSH1 0x4 DUP3 ADD MSTORE PUSH20 0xFFFFFFFFFFFFFFFFFFFFFFFFFFFFFFFFFFFFFFFF DUP6 AND SWAP1 PUSH4 0x1FFC9A7 SWAP1 PUSH1 0x24 ADD PUSH1 0x20 PUSH1 0x40 MLOAD DUP1 DUP4 SUB DUP2 DUP7 GAS STATICCALL ISZERO DUP1 ISZERO PUSH2 0x31E JUMPI RETURNDATASIZE PUSH1 0x0 DUP1 RETURNDATACOPY RETURNDATASIZE PUSH1 0x0 REVERT JUMPDEST POP POP POP POP PUSH1 0x40 MLOAD RETURNDATASIZE PUSH1 0x1F NOT PUSH1 0x1F DUP3 ADD AND DUP3 ADD DUP1 PUSH1 0x40 MSTORE POP DUP2 ADD SWAP1 PUSH2 0x342 SWAP2 SWAP1 PUSH2 0x112B JUMP JUMPDEST ISZERO PUSH2 0x3AE JUMPI PUSH1 0x40 MLOAD PUSH32 0x8C379A000000000000000000000000000000000000000000000000000000000 DUP2 MSTORE PUSH1 0x20 PUSH1 0x4 DUP3 ADD MSTORE PUSH1 0x14 PUSH1 0x24 DUP3 ADD MSTORE PUSH32 0x204D757374206E6F742062652045524332393831000000000000000000000000 PUSH1 0x44 DUP3 ADD MSTORE PUSH1 0x64 ADD JUMPDEST PUSH1 0x40 MLOAD DUP1 SWAP2 SUB SWAP1 REVERT JUMPDEST DUP4 PUSH20 0xFFFFFFFFFFFFFFFFFFFFFFFFFFFFFFFFFFFFFFFF AND PUSH4 0x8DA5CB5B PUSH1 0x40 MLOAD DUP2 PUSH4 0xFFFFFFFF AND PUSH1 0xE0 SHL DUP2 MSTORE PUSH1 0x4 ADD PUSH1 0x20 PUSH1 0x40 MLOAD DUP1 DUP4 SUB DUP2 DUP7 GAS STATICCALL ISZERO DUP1 ISZERO PUSH2 0x3F9 JUMPI RETURNDATASIZE PUSH1 0x0 DUP1 RETURNDATACOPY RETURNDATASIZE PUSH1 0x0 REVERT JUMPDEST POP POP POP POP PUSH1 0x40 MLOAD RETURNDATASIZE PUSH1 0x1F NOT PUSH1 0x1F DUP3 ADD AND DUP3 ADD DUP1 PUSH1 0x40 MSTORE POP DUP2 ADD SWAP1 PUSH2 0x41D SWAP2 SWAP1 PUSH2 0x114D JUMP JUMPDEST PUSH20 0xFFFFFFFFFFFFFFFFFFFFFFFFFFFFFFFFFFFFFFFF AND CALLER PUSH20 0xFFFFFFFFFFFFFFFFFFFFFFFFFFFFFFFFFFFFFFFF AND EQ PUSH2 0x4B1 JUMPI PUSH1 0x40 MLOAD PUSH32 0x8C379A000000000000000000000000000000000000000000000000000000000 DUP2 MSTORE PUSH1 0x20 PUSH1 0x4 DUP3 ADD MSTORE PUSH1 0xE PUSH1 0x24 DUP3 ADD MSTORE PUSH32 0x204E6F7420746865206F776E6572000000000000000000000000000000000000 PUSH1 0x44 DUP3 ADD MSTORE PUSH1 0x64 ADD PUSH2 0x3A5 JUMP JUMPDEST PUSH2 0x4BD DUP5 DUP5 DUP5 DUP5 PUSH2 0xBC6 JUMP JUMPDEST POP POP POP POP JUMP JUMPDEST PUSH2 0x4CB PUSH2 0xF85 JUMP JUMPDEST PUSH2 0x4D5 PUSH1 0x0 PUSH2 0x1006 JUMP JUMPDEST JUMP JUMPDEST PUSH1 0x40 MLOAD PUSH32 0x1FFC9A700000000000000000000000000000000000000000000000000000000 DUP2 MSTORE PUSH32 0x2A55205A00000000000000000000000000000000000000000000000000000000 PUSH1 0x4 DUP3 ADD MSTORE PUSH20 0xFFFFFFFFFFFFFFFFFFFFFFFFFFFFFFFFFFFFFFFF DUP6 AND SWAP1 PUSH4 0x1FFC9A7 SWAP1 PUSH1 0x24 ADD PUSH1 0x20 PUSH1 0x40 MLOAD DUP1 DUP4 SUB DUP2 DUP7 GAS STATICCALL ISZERO DUP1 ISZERO PUSH2 0x561 JUMPI RETURNDATASIZE PUSH1 0x0 DUP1 RETURNDATACOPY RETURNDATASIZE PUSH1 0x0 REVERT JUMPDEST POP POP POP POP PUSH1 0x40 MLOAD RETURNDATASIZE PUSH1 0x1F NOT PUSH1 0x1F DUP3 ADD AND DUP3 ADD DUP1 PUSH1 0x40 MSTORE POP DUP2 ADD SWAP1 PUSH2 0x585 SWAP2 SWAP1 PUSH2 0x112B JUMP JUMPDEST ISZERO PUSH2 0x5EC JUMPI PUSH1 0x40 MLOAD PUSH32 0x8C379A000000000000000000000000000000000000000000000000000000000 DUP2 MSTORE PUSH1 0x20 PUSH1 0x4 DUP3 ADD MSTORE PUSH1 0x14 PUSH1 0x24 DUP3 ADD MSTORE PUSH32 0x204D757374206E6F742062652045524332393831000000000000000000000000 PUSH1 0x44 DUP3 ADD MSTORE PUSH1 0x64 ADD PUSH2 0x3A5 JUMP JUMPDEST DUP4 PUSH20 0xFFFFFFFFFFFFFFFFFFFFFFFFFFFFFFFFFFFFFFFF AND PUSH4 0xF851A440 PUSH1 0x40 MLOAD DUP2 PUSH4 0xFFFFFFFF AND PUSH1 0xE0 SHL DUP2 MSTORE PUSH1 0x4 ADD PUSH1 0x20 PUSH1 0x40 MLOAD DUP1 DUP4 SUB DUP2 DUP7 GAS STATICCALL ISZERO DUP1 ISZERO PUSH2 0x637 JUMPI RETURNDATASIZE PUSH1 0x0 DUP1 RETURNDATACOPY RETURNDATASIZE PUSH1 0x0 REVERT JUMPDEST POP POP POP POP PUSH1 0x40 MLOAD RETURNDATASIZE PUSH1 0x1F NOT PUSH1 0x1F DUP3 ADD AND DUP3 ADD DUP1 PUSH1 0x40 MSTORE POP DUP2 ADD SWAP1 PUSH2 0x65B SWAP2 SWAP1 PUSH2 0x114D JUMP JUMPDEST PUSH20 0xFFFFFFFFFFFFFFFFFFFFFFFFFFFFFFFFFFFFFFFF AND CALLER PUSH20 0xFFFFFFFFFFFFFFFFFFFFFFFFFFFFFFFFFFFFFFFF AND EQ PUSH2 0x4B1 JUMPI PUSH1 0x40 MLOAD PUSH32 0x8C379A000000000000000000000000000000000000000000000000000000000 DUP2 MSTORE PUSH1 0x20 PUSH1 0x4 DUP3 ADD MSTORE PUSH1 0xE PUSH1 0x24 DUP3 ADD MSTORE PUSH32 0x204E6F74207468652061646D696E000000000000000000000000000000000000 PUSH1 0x44 DUP3 ADD MSTORE PUSH1 0x64 ADD PUSH2 0x3A5 JUMP JUMPDEST PUSH2 0x6F7 PUSH2 0xF85 JUMP JUMPDEST PUSH1 0x40 MLOAD PUSH32 0xB9223C9D00000000000000000000000000000000000000000000000000000000 DUP2 MSTORE PUSH1 0x4 DUP2 ADD DUP3 SWAP1 MSTORE PUSH32 0x0 PUSH20 0xFFFFFFFFFFFFFFFFFFFFFFFFFFFFFFFFFFFFFFFF AND SWAP1 PUSH4 0xB9223C9D SWAP1 PUSH1 0x24 ADD JUMPDEST PUSH1 0x0 PUSH1 0x40 MLOAD DUP1 DUP4 SUB DUP2 PUSH1 0x0 DUP8 DUP1 EXTCODESIZE ISZERO DUP1 ISZERO PUSH2 0x780 JUMPI PUSH1 0x0 DUP1 REVERT JUMPDEST POP GAS CALL ISZERO DUP1 ISZERO PUSH2 0x794 JUMPI RETURNDATASIZE PUSH1 0x0 DUP1 RETURNDATACOPY RETURNDATASIZE PUSH1 0x0 REVERT JUMPDEST POP POP POP POP POP JUMP JUMPDEST PUSH1 0x40 MLOAD PUSH32 0xE31EF91C00000000000000000000000000000000000000000000000000000000 DUP2 MSTORE PUSH20 0xFFFFFFFFFFFFFFFFFFFFFFFFFFFFFFFFFFFFFFFF DUP3 DUP2 AND PUSH1 0x4 DUP4 ADD MSTORE PUSH1 0x0 SWAP2 DUP3 SWAP2 DUP3 SWAP2 PUSH32 0x0 SWAP1 SWAP2 AND SWAP1 PUSH4 0xE31EF91C SWAP1 PUSH1 0x24 ADD PUSH1 0x60 PUSH1 0x40 MLOAD DUP1 DUP4 SUB DUP2 DUP7 GAS STATICCALL ISZERO DUP1 ISZERO PUSH2 0x830 JUMPI RETURNDATASIZE PUSH1 0x0 DUP1 RETURNDATACOPY RETURNDATASIZE PUSH1 0x0 REVERT JUMPDEST POP POP POP POP PUSH1 0x40 MLOAD RETURNDATASIZE PUSH1 0x1F NOT PUSH1 0x1F DUP3 ADD AND DUP3 ADD DUP1 PUSH1 0x40 MSTORE POP DUP2 ADD SWAP1 PUSH2 0x854 SWAP2 SWAP1 PUSH2 0x116A JUMP JUMPDEST POP SWAP1 SWAP2 POP POP PUSH20 0xFFFFFFFFFFFFFFFFFFFFFFFFFFFFFFFFFFFFFFFF DUP2 AND ISZERO PUSH2 0x87F JUMPI SWAP4 PUSH1 0x0 SWAP4 POP SWAP2 POP POP JUMP JUMPDEST PUSH1 0x40 MLOAD PUSH32 0x1FFC9A700000000000000000000000000000000000000000000000000000000 DUP2 MSTORE PUSH32 0x2A55205A00000000000000000000000000000000000000000000000000000000 PUSH1 0x4 DUP3 ADD MSTORE PUSH20 0xFFFFFFFFFFFFFFFFFFFFFFFFFFFFFFFFFFFFFFFF DUP6 AND SWAP1 PUSH4 0x1FFC9A7 SWAP1 PUSH1 0x24 ADD PUSH1 0x20 PUSH1 0x40 MLOAD DUP1 DUP4 SUB DUP2 DUP7 GAS STATICCALL SWAP3 POP POP POP DUP1 ISZERO PUSH2 0x943 JUMPI POP PUSH1 0x40 DUP1 MLOAD PUSH1 0x1F RETURNDATASIZE SWAP1 DUP2 ADD PUSH32 0xFFFFFFFFFFFFFFFFFFFFFFFFFFFFFFFFFFFFFFFFFFFFFFFFFFFFFFFFFFFFFFE0 AND DUP3 ADD SWAP1 SWAP3 MSTORE PUSH2 0x940 SWAP2 DUP2 ADD SWAP1 PUSH2 0x112B JUMP JUMPDEST PUSH1 0x1 JUMPDEST ISZERO PUSH2 0x95E JUMPI DUP1 ISZERO PUSH2 0x95C JUMPI POP PUSH1 0x0 SWAP5 PUSH1 0x1 SWAP5 POP SWAP3 POP POP POP JUMP JUMPDEST POP JUMPDEST DUP4 PUSH20 0xFFFFFFFFFFFFFFFFFFFFFFFFFFFFFFFFFFFFFFFF AND PUSH4 0x8DA5CB5B PUSH1 0x40 MLOAD DUP2 PUSH4 0xFFFFFFFF AND PUSH1 0xE0 SHL DUP2 MSTORE PUSH1 0x4 ADD PUSH1 0x20 PUSH1 0x40 MLOAD DUP1 DUP4 SUB DUP2 DUP7 GAS STATICCALL SWAP3 POP POP POP DUP1 ISZERO PUSH2 0x9E3 JUMPI POP PUSH1 0x40 DUP1 MLOAD PUSH1 0x1F RETURNDATASIZE SWAP1 DUP2 ADD PUSH32 0xFFFFFFFFFFFFFFFFFFFFFFFFFFFFFFFFFFFFFFFFFFFFFFFFFFFFFFFFFFFFFFE0 AND DUP3 ADD SWAP1 SWAP3 MSTORE PUSH2 0x9E0 SWAP2 DUP2 ADD SWAP1 PUSH2 0x114D JUMP JUMPDEST PUSH1 0x1 JUMPDEST PUSH2 0xA88 JUMPI DUP4 PUSH20 0xFFFFFFFFFFFFFFFFFFFFFFFFFFFFFFFFFFFFFFFF AND PUSH4 0xF851A440 PUSH1 0x40 MLOAD DUP2 PUSH4 0xFFFFFFFF AND PUSH1 0xE0 SHL DUP2 MSTORE PUSH1 0x4 ADD PUSH1 0x20 PUSH1 0x40 MLOAD DUP1 DUP4 SUB DUP2 DUP7 GAS STATICCALL SWAP3 POP POP POP DUP1 ISZERO PUSH2 0xA6C JUMPI POP PUSH1 0x40 DUP1 MLOAD PUSH1 0x1F RETURNDATASIZE SWAP1 DUP2 ADD PUSH32 0xFFFFFFFFFFFFFFFFFFFFFFFFFFFFFFFFFFFFFFFFFFFFFFFFFFFFFFFFFFFFFFE0 AND DUP3 ADD SWAP1 SWAP3 MSTORE PUSH2 0xA69 SWAP2 DUP2 ADD SWAP1 PUSH2 0x114D JUMP JUMPDEST PUSH1 0x1 JUMPDEST PUSH2 0xA7D JUMPI POP PUSH1 0x0 SWAP4 PUSH1 0x4 SWAP4 POP SWAP2 POP POP JUMP JUMPDEST SWAP5 PUSH1 0x3 SWAP5 POP SWAP3 POP POP POP JUMP JUMPDEST SWAP5 PUSH1 0x2 SWAP5 POP SWAP3 POP POP POP JUMP JUMPDEST PUSH2 0xA9B PUSH2 0xF85 JUMP JUMPDEST PUSH1 0x40 MLOAD PUSH32 0xF2FDE38B00000000000000000000000000000000000000000000000000000000 DUP2 MSTORE PUSH20 0xFFFFFFFFFFFFFFFFFFFFFFFFFFFFFFFFFFFFFFFF DUP3 DUP2 AND PUSH1 0x4 DUP4 ADD MSTORE PUSH32 0x0 AND SWAP1 PUSH4 0xF2FDE38B SWAP1 PUSH1 0x24 ADD PUSH2 0x766 JUMP JUMPDEST PUSH2 0xB17 PUSH2 0xF85 JUMP JUMPDEST PUSH20 0xFFFFFFFFFFFFFFFFFFFFFFFFFFFFFFFFFFFFFFFF DUP2 AND PUSH2 0xBBA JUMPI PUSH1 0x40 MLOAD PUSH32 0x8C379A000000000000000000000000000000000000000000000000000000000 DUP2 MSTORE PUSH1 0x20 PUSH1 0x4 DUP3 ADD MSTORE PUSH1 0x26 PUSH1 0x24 DUP3 ADD MSTORE PUSH32 0x4F776E61626C653A206E6577206F776E657220697320746865207A65726F2061 PUSH1 0x44 DUP3 ADD MSTORE PUSH32 0x6464726573730000000000000000000000000000000000000000000000000000 PUSH1 0x64 DUP3 ADD MSTORE PUSH1 0x84 ADD PUSH2 0x3A5 JUMP JUMPDEST PUSH2 0xBC3 DUP2 PUSH2 0x1006 JUMP JUMPDEST POP JUMP JUMPDEST PUSH1 0x40 MLOAD PUSH32 0xE31EF91C00000000000000000000000000000000000000000000000000000000 DUP2 MSTORE PUSH20 0xFFFFFFFFFFFFFFFFFFFFFFFFFFFFFFFFFFFFFFFF DUP6 DUP2 AND PUSH1 0x4 DUP4 ADD MSTORE PUSH1 0x0 SWAP2 PUSH32 0x0 SWAP1 SWAP2 AND SWAP1 PUSH4 0xE31EF91C SWAP1 PUSH1 0x24 ADD PUSH1 0x60 PUSH1 0x40 MLOAD DUP1 DUP4 SUB DUP2 DUP7 GAS STATICCALL ISZERO DUP1 ISZERO PUSH2 0xC57 JUMPI RETURNDATASIZE PUSH1 0x0 DUP1 RETURNDATACOPY RETURNDATASIZE PUSH1 0x0 REVERT JUMPDEST POP POP POP POP PUSH1 0x40 MLOAD RETURNDATASIZE PUSH1 0x1F NOT PUSH1 0x1F DUP3 ADD AND DUP3 ADD DUP1 PUSH1 0x40 MSTORE POP DUP2 ADD SWAP1 PUSH2 0xC7B SWAP2 SWAP1 PUSH2 0x116A JUMP JUMPDEST POP SWAP1 SWAP2 POP POP PUSH20 0xFFFFFFFFFFFFFFFFFFFFFFFFFFFFFFFFFFFFFFFF DUP2 AND ISZERO PUSH2 0xCFE JUMPI PUSH1 0x40 MLOAD PUSH32 0x8C379A000000000000000000000000000000000000000000000000000000000 DUP2 MSTORE PUSH1 0x20 PUSH1 0x4 DUP3 ADD MSTORE PUSH1 0xB PUSH1 0x24 DUP3 ADD MSTORE PUSH32 0x416C726561647920736574000000000000000000000000000000000000000000 PUSH1 0x44 DUP3 ADD MSTORE PUSH1 0x64 ADD PUSH2 0x3A5 JUMP JUMPDEST PUSH1 0x40 MLOAD PUSH32 0x1FFC9A700000000000000000000000000000000000000000000000000000000 DUP2 MSTORE PUSH32 0x80AC58CD00000000000000000000000000000000000000000000000000000000 PUSH1 0x4 DUP3 ADD MSTORE PUSH20 0xFFFFFFFFFFFFFFFFFFFFFFFFFFFFFFFFFFFFFFFF DUP7 AND SWAP1 PUSH4 0x1FFC9A7 SWAP1 PUSH1 0x24 ADD PUSH1 0x20 PUSH1 0x40 MLOAD DUP1 DUP4 SUB DUP2 DUP7 GAS STATICCALL ISZERO DUP1 ISZERO PUSH2 0xD88 JUMPI RETURNDATASIZE PUSH1 0x0 DUP1 RETURNDATACOPY RETURNDATASIZE PUSH1 0x0 REVERT JUMPDEST POP POP POP POP PUSH1 0x40 MLOAD RETURNDATASIZE PUSH1 0x1F NOT PUSH1 0x1F DUP3 ADD AND DUP3 ADD DUP1 PUSH1 0x40 MSTORE POP DUP2 ADD SWAP1 PUSH2 0xDAC SWAP2 SWAP1 PUSH2 0x112B JUMP JUMPDEST DUP1 PUSH2 0xE60 JUMPI POP PUSH1 0x40 MLOAD PUSH32 0x1FFC9A700000000000000000000000000000000000000000000000000000000 DUP2 MSTORE PUSH32 0xD9B67A2600000000000000000000000000000000000000000000000000000000 PUSH1 0x4 DUP3 ADD MSTORE PUSH20 0xFFFFFFFFFFFFFFFFFFFFFFFFFFFFFFFFFFFFFFFF DUP7 AND SWAP1 PUSH4 0x1FFC9A7 SWAP1 PUSH1 0x24 ADD PUSH1 0x20 PUSH1 0x40 MLOAD DUP1 DUP4 SUB DUP2 DUP7 GAS STATICCALL ISZERO DUP1 ISZERO PUSH2 0xE3C JUMPI RETURNDATASIZE PUSH1 0x0 DUP1 RETURNDATACOPY RETURNDATASIZE PUSH1 0x0 REVERT JUMPDEST POP POP POP POP PUSH1 0x40 MLOAD RETURNDATASIZE PUSH1 0x1F NOT PUSH1 0x1F DUP3 ADD AND DUP3 ADD DUP1 PUSH1 0x40 MSTORE POP DUP2 ADD SWAP1 PUSH2 0xE60 SWAP2 SWAP1 PUSH2 0x112B JUMP JUMPDEST PUSH2 0xEC6 JUMPI PUSH1 0x40 MLOAD PUSH32 0x8C379A000000000000000000000000000000000000000000000000000000000 DUP2 MSTORE PUSH1 0x20 PUSH1 0x4 DUP3 ADD MSTORE PUSH1 0x1A PUSH1 0x24 DUP3 ADD MSTORE PUSH32 0x204E6F7420536574206F66204552433732312F45524331313535000000000000 PUSH1 0x44 DUP3 ADD MSTORE PUSH1 0x64 ADD PUSH2 0x3A5 JUMP JUMPDEST PUSH1 0x40 MLOAD PUSH32 0xBBDF9B6800000000000000000000000000000000000000000000000000000000 DUP2 MSTORE PUSH20 0xFFFFFFFFFFFFFFFFFFFFFFFFFFFFFFFFFFFFFFFF DUP7 DUP2 AND PUSH1 0x4 DUP4 ADD MSTORE DUP6 DUP2 AND PUSH1 0x24 DUP4 ADD MSTORE DUP5 DUP2 AND PUSH1 0x44 DUP4 ADD MSTORE PUSH1 0x64 DUP3 ADD DUP5 SWAP1 MSTORE PUSH32 0x0 AND SWAP1 PUSH4 0xBBDF9B68 SWAP1 PUSH1 0x84 ADD PUSH1 0x0 PUSH1 0x40 MLOAD DUP1 DUP4 SUB DUP2 PUSH1 0x0 DUP8 DUP1 EXTCODESIZE ISZERO DUP1 ISZERO PUSH2 0xF66 JUMPI PUSH1 0x0 DUP1 REVERT JUMPDEST POP GAS CALL ISZERO DUP1 ISZERO PUSH2 0xF7A JUMPI RETURNDATASIZE PUSH1 0x0 DUP1 RETURNDATACOPY RETURNDATASIZE PUSH1 0x0 REVERT JUMPDEST POP POP POP POP POP POP POP POP POP JUMP JUMPDEST PUSH1 0x0 SLOAD PUSH20 0xFFFFFFFFFFFFFFFFFFFFFFFFFFFFFFFFFFFFFFFF AND CALLER EQ PUSH2 0x4D5 JUMPI PUSH1 0x40 MLOAD PUSH32 0x8C379A000000000000000000000000000000000000000000000000000000000 DUP2 MSTORE PUSH1 0x20 PUSH1 0x4 DUP3 ADD DUP2 SWAP1 MSTORE PUSH1 0x24 DUP3 ADD MSTORE PUSH32 0x4F776E61626C653A2063616C6C6572206973206E6F7420746865206F776E6572 PUSH1 0x44 DUP3 ADD MSTORE PUSH1 0x64 ADD PUSH2 0x3A5 JUMP JUMPDEST PUSH1 0x0 DUP1 SLOAD PUSH20 0xFFFFFFFFFFFFFFFFFFFFFFFFFFFFFFFFFFFFFFFF DUP4 DUP2 AND PUSH32 0xFFFFFFFFFFFFFFFFFFFFFFFF0000000000000000000000000000000000000000 DUP4 AND DUP2 OR DUP5 SSTORE PUSH1 0x40 MLOAD SWAP2 SWAP1 SWAP3 AND SWAP3 DUP4 SWAP2 PUSH32 0x8BE0079C531659141344CD1FD0A4F28419497F9722A3DAAFE3B4186F6B6457E0 SWAP2 SWAP1 LOG3 POP POP JUMP JUMPDEST PUSH20 0xFFFFFFFFFFFFFFFFFFFFFFFFFFFFFFFFFFFFFFFF DUP2 AND DUP2 EQ PUSH2 0xBC3 JUMPI PUSH1 0x0 DUP1 REVERT JUMPDEST PUSH1 0x0 DUP1 PUSH1 0x0 DUP1 PUSH1 0x80 DUP6 DUP8 SUB SLT ISZERO PUSH2 0x10B3 JUMPI PUSH1 0x0 DUP1 REVERT JUMPDEST DUP5 CALLDATALOAD PUSH2 0x10BE DUP2 PUSH2 0x107B JUMP JUMPDEST SWAP4 POP PUSH1 0x20 DUP6 ADD CALLDATALOAD PUSH2 0x10CE DUP2 PUSH2 0x107B JUMP JUMPDEST SWAP3 POP PUSH1 0x40 DUP6 ADD CALLDATALOAD PUSH2 0x10DE DUP2 PUSH2 0x107B JUMP JUMPDEST SWAP4 SWAP7 SWAP3 SWAP6 POP SWAP3 SWAP4 PUSH1 0x60 ADD CALLDATALOAD SWAP3 POP POP JUMP JUMPDEST PUSH1 0x0 PUSH1 0x20 DUP3 DUP5 SUB SLT ISZERO PUSH2 0x1100 JUMPI PUSH1 0x0 DUP1 REVERT JUMPDEST POP CALLDATALOAD SWAP2 SWAP1 POP JUMP JUMPDEST PUSH1 0x0 PUSH1 0x20 DUP3 DUP5 SUB SLT ISZERO PUSH2 0x1119 JUMPI PUSH1 0x0 DUP1 REVERT JUMPDEST DUP2 CALLDATALOAD PUSH2 0x1124 DUP2 PUSH2 0x107B JUMP JUMPDEST SWAP4 SWAP3 POP POP POP JUMP JUMPDEST PUSH1 0x0 PUSH1 0x20 DUP3 DUP5 SUB SLT ISZERO PUSH2 0x113D JUMPI PUSH1 0x0 DUP1 REVERT JUMPDEST DUP2 MLOAD DUP1 ISZERO ISZERO DUP2 EQ PUSH2 0x1124 JUMPI PUSH1 0x0 DUP1 REVERT JUMPDEST PUSH1 0x0 PUSH1 0x20 DUP3 DUP5 SUB SLT ISZERO PUSH2 0x115F JUMPI PUSH1 0x0 DUP1 REVERT JUMPDEST DUP2 MLOAD PUSH2 0x1124 DUP2 PUSH2 0x107B JUMP JUMPDEST PUSH1 0x0 DUP1 PUSH1 0x0 PUSH1 0x60 DUP5 DUP7 SUB SLT ISZERO PUSH2 0x117F JUMPI PUSH1 0x0 DUP1 REVERT JUMPDEST DUP4 MLOAD PUSH2 0x118A DUP2 PUSH2 0x107B JUMP JUMPDEST PUSH1 0x20 DUP6 ADD MLOAD SWAP1 SWAP4 POP PUSH2 0x119B DUP2 PUSH2 0x107B JUMP JUMPDEST DUP1 SWAP3 POP POP PUSH1 0x40 DUP5 ADD MLOAD SWAP1 POP SWAP3 POP SWAP3 POP SWAP3 JUMP INVALID LOG2 PUSH5 0x6970667358 0x22 SLT KECCAK256 0xA8 0xB9 TIMESTAMP SHL DUP6 0xC7 0xEE 0xFC 0xD3 0xDE SIGNEXTEND 0xA9 DUP16 0xB2 0xEF DUP10 0xBB 0xF8 0xDB PUSH10 0x237016FF2BE792D8FB31 CALLDATACOPY 0xE1 PUSH5 0x736F6C6343 STOP ADDMOD GT STOP CALLER "
				},
				"gasEstimates": {
					"creation": {
						"codeDepositCost": "915800",
						"executionCost": "infinite",
						"totalCost": "infinite"
					},
					"external": {
						"INTERFACE_ID_ERC1155()": "217",
						"INTERFACE_ID_ERC2981()": "260",
						"INTERFACE_ID_ERC721()": "238",
						"checkForCollectionSetter(address)": "infinite",
						"owner()": "2319",
						"renounceOwnership()": "infinite",
						"royaltyFeeRegistry()": "infinite",
						"transferOwnership(address)": "infinite",
						"updateOwnerOfRoyaltyFeeRegistry(address)": "infinite",
						"updateRoyaltyFeeLimit(uint256)": "infinite",
						"updateRoyaltyInfoForCollectionIfAdmin(address,address,address,uint256)": "infinite",
						"updateRoyaltyInfoForCollectionIfOwner(address,address,address,uint256)": "infinite"
					},
					"internal": {
						"_updateRoyaltyInfoForCollectionIfOwnerOrAdmin(address,address,address,uint256)": "infinite"
					}
				},
				"methodIdentifiers": {
					"INTERFACE_ID_ERC1155()": "33bf6156",
					"INTERFACE_ID_ERC2981()": "b060dd86",
					"INTERFACE_ID_ERC721()": "bc6bc0cd",
					"checkForCollectionSetter(address)": "c54e5497",
					"owner()": "8da5cb5b",
					"renounceOwnership()": "715018a6",
					"royaltyFeeRegistry()": "c16f5156",
					"transferOwnership(address)": "f2fde38b",
					"updateOwnerOfRoyaltyFeeRegistry(address)": "e72ba456",
					"updateRoyaltyFeeLimit(uint256)": "b9223c9d",
					"updateRoyaltyInfoForCollectionIfAdmin(address,address,address,uint256)": "ab016670",
					"updateRoyaltyInfoForCollectionIfOwner(address,address,address,uint256)": "3755fa80"
				}
			},
			"storageLayout": {
				"storage": [
					{
						"astId": 7,
						"contract": "contracts/Manager/royalty/RoyaltyFeeSetter.sol:RoyaltyFeeSetter",
						"label": "_owner",
						"offset": 0,
						"slot": "0",
						"type": "t_address"
					}
				],
				"types": {
					"t_address": {
						"encoding": "inplace",
						"label": "address",
						"numberOfBytes": "20"
					}
				}
			},
			"userdoc": {
				"kind": "user",
				"methods": {},
				"version": 1
			}
		}
	}
}