{
	"contracts/Manager/royalty/RoyaltyFeeSetter.sol": {
		"RoyaltyFeeSetter": {
			"abi": [
				{
					"inputs": [
						{
							"internalType": "address",
							"name": "_royaltyFeeRegistry",
							"type": "address"
						}
					],
					"stateMutability": "nonpayable",
					"type": "constructor"
				},
				{
					"anonymous": false,
					"inputs": [
						{
							"indexed": true,
							"internalType": "address",
							"name": "previousOwner",
							"type": "address"
						},
						{
							"indexed": true,
							"internalType": "address",
							"name": "newOwner",
							"type": "address"
						}
					],
					"name": "OwnershipTransferred",
					"type": "event"
				},
				{
					"inputs": [],
					"name": "INTERFACE_ID_ERC1155",
					"outputs": [
						{
							"internalType": "bytes4",
							"name": "",
							"type": "bytes4"
						}
					],
					"stateMutability": "view",
					"type": "function"
				},
				{
					"inputs": [],
					"name": "INTERFACE_ID_ERC2981",
					"outputs": [
						{
							"internalType": "bytes4",
							"name": "",
							"type": "bytes4"
						}
					],
					"stateMutability": "view",
					"type": "function"
				},
				{
					"inputs": [],
					"name": "INTERFACE_ID_ERC721",
					"outputs": [
						{
							"internalType": "bytes4",
							"name": "",
							"type": "bytes4"
						}
					],
					"stateMutability": "view",
					"type": "function"
				},
				{
					"inputs": [],
					"name": "owner",
					"outputs": [
						{
							"internalType": "address",
							"name": "",
							"type": "address"
						}
					],
					"stateMutability": "view",
					"type": "function"
				},
				{
					"inputs": [],
					"name": "renounceOwnership",
					"outputs": [],
					"stateMutability": "nonpayable",
					"type": "function"
				},
				{
					"inputs": [],
					"name": "royaltyFeeRegistry",
					"outputs": [
						{
							"internalType": "address",
							"name": "",
							"type": "address"
						}
					],
					"stateMutability": "view",
					"type": "function"
				},
				{
					"inputs": [
						{
							"internalType": "address",
							"name": "newOwner",
							"type": "address"
						}
					],
					"name": "transferOwnership",
					"outputs": [],
					"stateMutability": "nonpayable",
					"type": "function"
				},
				{
					"inputs": [
						{
							"internalType": "address",
							"name": "_owner",
							"type": "address"
						}
					],
					"name": "updateOwnerOfRoyaltyFeeRegistry",
					"outputs": [],
					"stateMutability": "nonpayable",
					"type": "function"
				},
				{
					"inputs": [
						{
							"internalType": "uint256",
							"name": "_royaltyFeeLimit",
							"type": "uint256"
						}
					],
					"name": "updateRoyaltyFeeLimit",
					"outputs": [],
					"stateMutability": "nonpayable",
					"type": "function"
				},
				{
					"inputs": [
						{
							"internalType": "address",
							"name": "collection",
							"type": "address"
						},
						{
							"internalType": "address",
							"name": "setter",
							"type": "address"
						},
						{
							"internalType": "address",
							"name": "receiver",
							"type": "address"
						},
						{
							"internalType": "uint256",
							"name": "fee",
							"type": "uint256"
						}
					],
					"name": "updateRoyaltyInfoForCollectionIfAdmin",
					"outputs": [],
					"stateMutability": "nonpayable",
					"type": "function"
				},
				{
					"inputs": [
						{
							"internalType": "address",
							"name": "collection",
							"type": "address"
						},
						{
							"internalType": "address",
							"name": "setter",
							"type": "address"
						},
						{
							"internalType": "address",
							"name": "receiver",
							"type": "address"
						},
						{
							"internalType": "uint256",
							"name": "fee",
							"type": "uint256"
						}
					],
					"name": "updateRoyaltyInfoForCollectionIfOwner",
					"outputs": [],
					"stateMutability": "nonpayable",
					"type": "function"
				}
			],
			"devdoc": {
				"kind": "dev",
				"methods": {
					"owner()": {
						"details": "Returns the address of the current owner."
					},
					"renounceOwnership()": {
						"details": "Leaves the contract without owner. It will not be possible to call `onlyOwner` functions anymore. Can only be called by the current owner. NOTE: Renouncing ownership will leave the contract without an owner, thereby removing any functionality that is only available to the owner."
					},
					"transferOwnership(address)": {
						"details": "Transfers ownership of the contract to a new account (`newOwner`). Can only be called by the current owner."
					}
				},
				"version": 1
			},
			"evm": {
				"assembly": "    /* \"contracts/Manager/royalty/RoyaltyFeeSetter.sol\":358:4034  contract RoyaltyFeeSetter is Ownable {... */\n  mstore(0x40, 0xa0)\n    /* \"contracts/Manager/royalty/RoyaltyFeeSetter.sol\":761:859  constructor(address _royaltyFeeRegistry) {... */\n  callvalue\n  dup1\n  iszero\n  tag_1\n  jumpi\n  0x00\n  dup1\n  revert\ntag_1:\n  pop\n  mload(0x40)\n  sub(codesize, bytecodeSize)\n  dup1\n  bytecodeSize\n  dup4\n  codecopy\n  dup2\n  add\n  0x40\n  dup2\n  swap1\n  mstore\n  tag_2\n  swap2\n  tag_3\n  jump\t// in\ntag_2:\n    /* \"@openzeppelin/contracts/access/Ownable.sol\":936:968  _transferOwnership(_msgSender()) */\n  tag_7\n    /* \"@openzeppelin/contracts/utils/Context.sol\":719:729  msg.sender */\n  caller\n    /* \"@openzeppelin/contracts/access/Ownable.sol\":936:954  _transferOwnership */\n  tag_10\n    /* \"@openzeppelin/contracts/access/Ownable.sol\":936:968  _transferOwnership(_msgSender()) */\n  jump\t// in\ntag_7:\n  sub(shl(0xa0, 0x01), 0x01)\n    /* \"contracts/Manager/royalty/RoyaltyFeeSetter.sol\":812:852  royaltyFeeRegistry = _royaltyFeeRegistry */\n  and\n  0x80\n  mstore\n    /* \"contracts/Manager/royalty/RoyaltyFeeSetter.sol\":358:4034  contract RoyaltyFeeSetter is Ownable {... */\n  jump(tag_15)\n    /* \"@openzeppelin/contracts/access/Ownable.sol\":2433:2620  function _transferOwnership(address newOwner) internal virtual {... */\ntag_10:\n    /* \"@openzeppelin/contracts/access/Ownable.sol\":2506:2522  address oldOwner */\n  0x00\n    /* \"@openzeppelin/contracts/access/Ownable.sol\":2525:2531  _owner */\n  dup1\n  sload\n  sub(shl(0xa0, 0x01), 0x01)\n    /* \"@openzeppelin/contracts/access/Ownable.sol\":2541:2558  _owner = newOwner */\n  dup4\n  dup2\n  and\n  not(sub(shl(0xa0, 0x01), 0x01))\n  dup4\n  and\n  dup2\n  or\n  dup5\n  sstore\n    /* \"@openzeppelin/contracts/access/Ownable.sol\":2573:2613  OwnershipTransferred(oldOwner, newOwner) */\n  mload(0x40)\n    /* \"@openzeppelin/contracts/access/Ownable.sol\":2525:2531  _owner */\n  swap2\n  swap1\n  swap3\n  and\n  swap3\n  dup4\n  swap2\n    /* \"@openzeppelin/contracts/access/Ownable.sol\":2573:2613  OwnershipTransferred(oldOwner, newOwner) */\n  0x8be0079c531659141344cd1fd0a4f28419497f9722a3daafe3b4186f6b6457e0\n  swap2\n    /* \"@openzeppelin/contracts/access/Ownable.sol\":2506:2522  address oldOwner */\n  swap1\n    /* \"@openzeppelin/contracts/access/Ownable.sol\":2573:2613  OwnershipTransferred(oldOwner, newOwner) */\n  log3\n    /* \"@openzeppelin/contracts/access/Ownable.sol\":2496:2620  {... */\n  pop\n    /* \"@openzeppelin/contracts/access/Ownable.sol\":2433:2620  function _transferOwnership(address newOwner) internal virtual {... */\n  pop\n  jump\t// out\n    /* \"#utility.yul\":14:304   */\ntag_3:\n    /* \"#utility.yul\":84:90   */\n  0x00\n    /* \"#utility.yul\":137:139   */\n  0x20\n    /* \"#utility.yul\":125:134   */\n  dup3\n    /* \"#utility.yul\":116:123   */\n  dup5\n    /* \"#utility.yul\":112:135   */\n  sub\n    /* \"#utility.yul\":108:140   */\n  slt\n    /* \"#utility.yul\":105:157   */\n  iszero\n  tag_17\n  jumpi\n    /* \"#utility.yul\":153:154   */\n  0x00\n    /* \"#utility.yul\":150:151   */\n  dup1\n    /* \"#utility.yul\":143:155   */\n  revert\n    /* \"#utility.yul\":105:157   */\ntag_17:\n    /* \"#utility.yul\":179:195   */\n  dup2\n  mload\n  sub(shl(0xa0, 0x01), 0x01)\n    /* \"#utility.yul\":224:255   */\n  dup2\n  and\n    /* \"#utility.yul\":214:256   */\n  dup2\n  eq\n    /* \"#utility.yul\":204:274   */\n  tag_18\n  jumpi\n    /* \"#utility.yul\":270:271   */\n  0x00\n    /* \"#utility.yul\":267:268   */\n  dup1\n    /* \"#utility.yul\":260:272   */\n  revert\n    /* \"#utility.yul\":204:274   */\ntag_18:\n    /* \"#utility.yul\":293:298   */\n  swap4\n    /* \"#utility.yul\":14:304   */\n  swap3\n  pop\n  pop\n  pop\n  jump\t// out\ntag_15:\n    /* \"contracts/Manager/royalty/RoyaltyFeeSetter.sol\":358:4034  contract RoyaltyFeeSetter is Ownable {... */\n  mload(0x80)\n  codecopy(0x00, dataOffset(sub_0), dataSize(sub_0))\n  0x00\n  assignImmutable(\"0x911a39fbf665a24ad3b6efc185d4b936bbda1900793ae2f7c00f4d18bdd96685\")\n  return(0x00, dataSize(sub_0))\nstop\n\nsub_0: assembly {\n        /* \"contracts/Manager/royalty/RoyaltyFeeSetter.sol\":358:4034  contract RoyaltyFeeSetter is Ownable {... */\n      mstore(0x40, 0x80)\n      callvalue\n      dup1\n      iszero\n      tag_1\n      jumpi\n      0x00\n      dup1\n      revert\n    tag_1:\n      pop\n      jumpi(tag_2, lt(calldatasize, 0x04))\n      shr(0xe0, calldataload(0x00))\n      dup1\n      0xb060dd86\n      gt\n      tag_14\n      jumpi\n      dup1\n      0xc16f5156\n      gt\n      tag_15\n      jumpi\n      dup1\n      0xc16f5156\n      eq\n      tag_11\n      jumpi\n      dup1\n      0xe72ba456\n      eq\n      tag_12\n      jumpi\n      dup1\n      0xf2fde38b\n      eq\n      tag_13\n      jumpi\n      0x00\n      dup1\n      revert\n    tag_15:\n      dup1\n      0xb060dd86\n      eq\n      tag_8\n      jumpi\n      dup1\n      0xb9223c9d\n      eq\n      tag_9\n      jumpi\n      dup1\n      0xbc6bc0cd\n      eq\n      tag_10\n      jumpi\n      0x00\n      dup1\n      revert\n    tag_14:\n      dup1\n      0x715018a6\n      gt\n      tag_16\n      jumpi\n      dup1\n      0x715018a6\n      eq\n      tag_5\n      jumpi\n      dup1\n      0x8da5cb5b\n      eq\n      tag_6\n      jumpi\n      dup1\n      0xab016670\n      eq\n      tag_7\n      jumpi\n      0x00\n      dup1\n      revert\n    tag_16:\n      dup1\n      0x33bf6156\n      eq\n      tag_3\n      jumpi\n      dup1\n      0x3755fa80\n      eq\n      tag_4\n      jumpi\n    tag_2:\n      0x00\n      dup1\n      revert\n        /* \"contracts/Manager/royalty/RoyaltyFeeSetter.sol\":516:572  bytes4 public constant INTERFACE_ID_ERC1155 = 0xd9b67a26 */\n    tag_3:\n      tag_17\n      0xd9b67a2600000000000000000000000000000000000000000000000000000000\n      dup2\n      jump\n    tag_17:\n      mload(0x40)\n        /* \"#utility.yul\":188:254   */\n      0xffffffff00000000000000000000000000000000000000000000000000000000\n        /* \"#utility.yul\":176:255   */\n      swap1\n      swap2\n      and\n        /* \"#utility.yul\":158:256   */\n      dup2\n      mstore\n        /* \"#utility.yul\":146:148   */\n      0x20\n        /* \"#utility.yul\":131:149   */\n      add\n        /* \"contracts/Manager/royalty/RoyaltyFeeSetter.sol\":516:572  bytes4 public constant INTERFACE_ID_ERC1155 = 0xd9b67a26 */\n    tag_19:\n      mload(0x40)\n      dup1\n      swap2\n      sub\n      swap1\n      return\n        /* \"contracts/Manager/royalty/RoyaltyFeeSetter.sol\":1983:2424  function updateRoyaltyInfoForCollectionIfOwner(... */\n    tag_4:\n      tag_21\n      tag_22\n      calldatasize\n      0x04\n      tag_23\n      jump\t// in\n    tag_22:\n      tag_24\n      jump\t// in\n    tag_21:\n      stop\n        /* \"@openzeppelin/contracts/access/Ownable.sol\":1831:1932  function renounceOwnership() public virtual onlyOwner {... */\n    tag_5:\n      tag_21\n      tag_26\n      jump\t// in\n        /* \"@openzeppelin/contracts/access/Ownable.sol\":1201:1286  function owner() public view virtual returns (address) {... */\n    tag_6:\n        /* \"@openzeppelin/contracts/access/Ownable.sol\":1247:1254  address */\n      0x00\n        /* \"@openzeppelin/contracts/access/Ownable.sol\":1273:1279  _owner */\n      sload\n      0xffffffffffffffffffffffffffffffffffffffff\n      and\n        /* \"@openzeppelin/contracts/access/Ownable.sol\":1201:1286  function owner() public view virtual returns (address) {... */\n    tag_27:\n      mload(0x40)\n        /* \"#utility.yul\":1205:1247   */\n      0xffffffffffffffffffffffffffffffffffffffff\n        /* \"#utility.yul\":1193:1248   */\n      swap1\n      swap2\n      and\n        /* \"#utility.yul\":1175:1249   */\n      dup2\n      mstore\n        /* \"#utility.yul\":1163:1165   */\n      0x20\n        /* \"#utility.yul\":1148:1166   */\n      add\n        /* \"@openzeppelin/contracts/access/Ownable.sol\":1201:1286  function owner() public view virtual returns (address) {... */\n      tag_19\n        /* \"#utility.yul\":1029:1255   */\n      jump\n        /* \"contracts/Manager/royalty/RoyaltyFeeSetter.sol\":1224:1715  function updateRoyaltyInfoForCollectionIfAdmin(... */\n    tag_7:\n      tag_21\n      tag_32\n      calldatasize\n      0x04\n      tag_23\n      jump\t// in\n    tag_32:\n      tag_33\n      jump\t// in\n        /* \"contracts/Manager/royalty/RoyaltyFeeSetter.sol\":606:662  bytes4 public constant INTERFACE_ID_ERC2981 = 0x2a55205a */\n    tag_8:\n      tag_17\n      0x2a55205a00000000000000000000000000000000000000000000000000000000\n      dup2\n      jump\n        /* \"contracts/Manager/royalty/RoyaltyFeeSetter.sol\":2922:3094  function updateRoyaltyFeeLimit(uint256 _royaltyFeeLimit) external onlyOwner {... */\n    tag_9:\n      tag_21\n      tag_38\n      calldatasize\n      0x04\n      tag_39\n      jump\t// in\n    tag_38:\n      tag_40\n      jump\t// in\n        /* \"contracts/Manager/royalty/RoyaltyFeeSetter.sol\":427:482  bytes4 public constant INTERFACE_ID_ERC721 = 0x80ac58cd */\n    tag_10:\n      tag_17\n      0x80ac58cd00000000000000000000000000000000000000000000000000000000\n      dup2\n      jump\n        /* \"contracts/Manager/royalty/RoyaltyFeeSetter.sol\":669:712  address public immutable royaltyFeeRegistry */\n    tag_11:\n      tag_27\n      immutable(\"0x911a39fbf665a24ad3b6efc185d4b936bbda1900793ae2f7c00f4d18bdd96685\")\n      dup2\n      jump\n        /* \"contracts/Manager/royalty/RoyaltyFeeSetter.sol\":2604:2751  function updateOwnerOfRoyaltyFeeRegistry(address _owner) external onlyOwner {... */\n    tag_12:\n      tag_21\n      tag_48\n      calldatasize\n      0x04\n      tag_49\n      jump\t// in\n    tag_48:\n      tag_50\n      jump\t// in\n        /* \"@openzeppelin/contracts/access/Ownable.sol\":2081:2279  function transferOwnership(address newOwner) public virtual onlyOwner {... */\n    tag_13:\n      tag_21\n      tag_52\n      calldatasize\n      0x04\n      tag_49\n      jump\t// in\n    tag_52:\n      tag_53\n      jump\t// in\n        /* \"contracts/Manager/royalty/RoyaltyFeeSetter.sol\":1983:2424  function updateRoyaltyInfoForCollectionIfOwner(... */\n    tag_24:\n        /* \"contracts/Manager/royalty/RoyaltyFeeSetter.sol\":2163:2222  IERC165(collection).supportsInterface(INTERFACE_ID_ERC2981) */\n      mload(0x40)\n      0x01ffc9a700000000000000000000000000000000000000000000000000000000\n      dup2\n      mstore\n        /* \"contracts/Manager/royalty/RoyaltyFeeSetter.sol\":2201:2221  INTERFACE_ID_ERC2981 */\n      0x2a55205a00000000000000000000000000000000000000000000000000000000\n        /* \"contracts/Manager/royalty/RoyaltyFeeSetter.sol\":2163:2222  IERC165(collection).supportsInterface(INTERFACE_ID_ERC2981) */\n      0x04\n      dup3\n      add\n        /* \"#utility.yul\":158:256   */\n      mstore\n        /* \"contracts/Manager/royalty/RoyaltyFeeSetter.sol\":2163:2200  IERC165(collection).supportsInterface */\n      0xffffffffffffffffffffffffffffffffffffffff\n      dup6\n      and\n      swap1\n      0x01ffc9a7\n      swap1\n        /* \"#utility.yul\":131:149   */\n      0x24\n      add\n        /* \"contracts/Manager/royalty/RoyaltyFeeSetter.sol\":2163:2222  IERC165(collection).supportsInterface(INTERFACE_ID_ERC2981) */\n      0x20\n      mload(0x40)\n      dup1\n      dup4\n      sub\n      dup2\n      dup7\n      gas\n      staticcall\n      iszero\n      dup1\n      iszero\n      tag_57\n      jumpi\n      returndatasize\n      0x00\n      dup1\n      returndatacopy\n      revert(0x00, returndatasize)\n    tag_57:\n      pop\n      pop\n      pop\n      pop\n      mload(0x40)\n      returndatasize\n      not(0x1f)\n      0x1f\n      dup3\n      add\n      and\n      dup3\n      add\n      dup1\n      0x40\n      mstore\n      pop\n      dup2\n      add\n      swap1\n      tag_58\n      swap2\n      swap1\n      tag_59\n      jump\t// in\n    tag_58:\n        /* \"contracts/Manager/royalty/RoyaltyFeeSetter.sol\":2162:2222  !IERC165(collection).supportsInterface(INTERFACE_ID_ERC2981) */\n      iszero\n        /* \"contracts/Manager/royalty/RoyaltyFeeSetter.sol\":2154:2247  require(!IERC165(collection).supportsInterface(INTERFACE_ID_ERC2981), \" Must not be ERC2981\") */\n      tag_60\n      jumpi\n      mload(0x40)\n      0x08c379a000000000000000000000000000000000000000000000000000000000\n      dup2\n      mstore\n        /* \"#utility.yul\":2181:2183   */\n      0x20\n        /* \"contracts/Manager/royalty/RoyaltyFeeSetter.sol\":2154:2247  require(!IERC165(collection).supportsInterface(INTERFACE_ID_ERC2981), \" Must not be ERC2981\") */\n      0x04\n      dup3\n      add\n        /* \"#utility.yul\":2163:2184   */\n      mstore\n        /* \"#utility.yul\":2220:2222   */\n      0x14\n        /* \"#utility.yul\":2200:2218   */\n      0x24\n      dup3\n      add\n        /* \"#utility.yul\":2193:2223   */\n      mstore\n        /* \"#utility.yul\":2259:2281   */\n      0x204d757374206e6f742062652045524332393831000000000000000000000000\n        /* \"#utility.yul\":2239:2257   */\n      0x44\n      dup3\n      add\n        /* \"#utility.yul\":2232:2282   */\n      mstore\n        /* \"#utility.yul\":2299:2317   */\n      0x64\n      add\n        /* \"contracts/Manager/royalty/RoyaltyFeeSetter.sol\":2154:2247  require(!IERC165(collection).supportsInterface(INTERFACE_ID_ERC2981), \" Must not be ERC2981\") */\n    tag_61:\n      mload(0x40)\n      dup1\n      swap2\n      sub\n      swap1\n      revert\n    tag_60:\n        /* \"contracts/Manager/royalty/RoyaltyFeeSetter.sol\":2288:2298  collection */\n      dup4\n        /* \"contracts/Manager/royalty/RoyaltyFeeSetter.sol\":2279:2305  IOwnable(collection).owner */\n      0xffffffffffffffffffffffffffffffffffffffff\n      and\n      0x8da5cb5b\n        /* \"contracts/Manager/royalty/RoyaltyFeeSetter.sol\":2279:2307  IOwnable(collection).owner() */\n      mload(0x40)\n      dup2\n      0xffffffff\n      and\n      0xe0\n      shl\n      dup2\n      mstore\n      0x04\n      add\n      0x20\n      mload(0x40)\n      dup1\n      dup4\n      sub\n      dup2\n      dup7\n      gas\n      staticcall\n      iszero\n      dup1\n      iszero\n      tag_64\n      jumpi\n      returndatasize\n      0x00\n      dup1\n      returndatacopy\n      revert(0x00, returndatasize)\n    tag_64:\n      pop\n      pop\n      pop\n      pop\n      mload(0x40)\n      returndatasize\n      not(0x1f)\n      0x1f\n      dup3\n      add\n      and\n      dup3\n      add\n      dup1\n      0x40\n      mstore\n      pop\n      dup2\n      add\n      swap1\n      tag_65\n      swap2\n      swap1\n      tag_66\n      jump\t// in\n    tag_65:\n        /* \"contracts/Manager/royalty/RoyaltyFeeSetter.sol\":2265:2307  msg.sender == IOwnable(collection).owner() */\n      0xffffffffffffffffffffffffffffffffffffffff\n      and\n        /* \"contracts/Manager/royalty/RoyaltyFeeSetter.sol\":2265:2275  msg.sender */\n      caller\n        /* \"contracts/Manager/royalty/RoyaltyFeeSetter.sol\":2265:2307  msg.sender == IOwnable(collection).owner() */\n      0xffffffffffffffffffffffffffffffffffffffff\n      and\n      eq\n        /* \"contracts/Manager/royalty/RoyaltyFeeSetter.sol\":2257:2326  require(msg.sender == IOwnable(collection).owner(), \" Not the owner\") */\n      tag_67\n      jumpi\n      mload(0x40)\n      0x08c379a000000000000000000000000000000000000000000000000000000000\n      dup2\n      mstore\n        /* \"#utility.yul\":2786:2788   */\n      0x20\n        /* \"contracts/Manager/royalty/RoyaltyFeeSetter.sol\":2257:2326  require(msg.sender == IOwnable(collection).owner(), \" Not the owner\") */\n      0x04\n      dup3\n      add\n        /* \"#utility.yul\":2768:2789   */\n      mstore\n        /* \"#utility.yul\":2825:2827   */\n      0x0e\n        /* \"#utility.yul\":2805:2823   */\n      0x24\n      dup3\n      add\n        /* \"#utility.yul\":2798:2828   */\n      mstore\n        /* \"#utility.yul\":2864:2880   */\n      0x204e6f7420746865206f776e6572000000000000000000000000000000000000\n        /* \"#utility.yul\":2844:2862   */\n      0x44\n      dup3\n      add\n        /* \"#utility.yul\":2837:2881   */\n      mstore\n        /* \"#utility.yul\":2898:2916   */\n      0x64\n      add\n        /* \"contracts/Manager/royalty/RoyaltyFeeSetter.sol\":2257:2326  require(msg.sender == IOwnable(collection).owner(), \" Not the owner\") */\n      tag_61\n        /* \"#utility.yul\":2584:2922   */\n      jump\n        /* \"contracts/Manager/royalty/RoyaltyFeeSetter.sol\":2257:2326  require(msg.sender == IOwnable(collection).owner(), \" Not the owner\") */\n    tag_67:\n        /* \"contracts/Manager/royalty/RoyaltyFeeSetter.sol\":2337:2417  _updateRoyaltyInfoForCollectionIfOwnerOrAdmin(collection, setter, receiver, fee) */\n      tag_70\n        /* \"contracts/Manager/royalty/RoyaltyFeeSetter.sol\":2383:2393  collection */\n      dup5\n        /* \"contracts/Manager/royalty/RoyaltyFeeSetter.sol\":2395:2401  setter */\n      dup5\n        /* \"contracts/Manager/royalty/RoyaltyFeeSetter.sol\":2403:2411  receiver */\n      dup5\n        /* \"contracts/Manager/royalty/RoyaltyFeeSetter.sol\":2413:2416  fee */\n      dup5\n        /* \"contracts/Manager/royalty/RoyaltyFeeSetter.sol\":2337:2382  _updateRoyaltyInfoForCollectionIfOwnerOrAdmin */\n      tag_71\n        /* \"contracts/Manager/royalty/RoyaltyFeeSetter.sol\":2337:2417  _updateRoyaltyInfoForCollectionIfOwnerOrAdmin(collection, setter, receiver, fee) */\n      jump\t// in\n    tag_70:\n        /* \"contracts/Manager/royalty/RoyaltyFeeSetter.sol\":1983:2424  function updateRoyaltyInfoForCollectionIfOwner(... */\n      pop\n      pop\n      pop\n      pop\n      jump\t// out\n        /* \"@openzeppelin/contracts/access/Ownable.sol\":1831:1932  function renounceOwnership() public virtual onlyOwner {... */\n    tag_26:\n        /* \"@openzeppelin/contracts/access/Ownable.sol\":1094:1107  _checkOwner() */\n      tag_73\n        /* \"@openzeppelin/contracts/access/Ownable.sol\":1094:1105  _checkOwner */\n      tag_74\n        /* \"@openzeppelin/contracts/access/Ownable.sol\":1094:1107  _checkOwner() */\n      jump\t// in\n    tag_73:\n        /* \"@openzeppelin/contracts/access/Ownable.sol\":1895:1925  _transferOwnership(address(0)) */\n      tag_76\n        /* \"@openzeppelin/contracts/access/Ownable.sol\":1922:1923  0 */\n      0x00\n        /* \"@openzeppelin/contracts/access/Ownable.sol\":1895:1913  _transferOwnership */\n      tag_77\n        /* \"@openzeppelin/contracts/access/Ownable.sol\":1895:1925  _transferOwnership(address(0)) */\n      jump\t// in\n    tag_76:\n        /* \"@openzeppelin/contracts/access/Ownable.sol\":1831:1932  function renounceOwnership() public virtual onlyOwner {... */\n      jump\t// out\n        /* \"contracts/Manager/royalty/RoyaltyFeeSetter.sol\":1224:1715  function updateRoyaltyInfoForCollectionIfAdmin(... */\n    tag_33:\n        /* \"contracts/Manager/royalty/RoyaltyFeeSetter.sol\":1454:1513  IERC165(collection).supportsInterface(INTERFACE_ID_ERC2981) */\n      mload(0x40)\n      0x01ffc9a700000000000000000000000000000000000000000000000000000000\n      dup2\n      mstore\n        /* \"contracts/Manager/royalty/RoyaltyFeeSetter.sol\":1492:1512  INTERFACE_ID_ERC2981 */\n      0x2a55205a00000000000000000000000000000000000000000000000000000000\n        /* \"contracts/Manager/royalty/RoyaltyFeeSetter.sol\":1454:1513  IERC165(collection).supportsInterface(INTERFACE_ID_ERC2981) */\n      0x04\n      dup3\n      add\n        /* \"#utility.yul\":158:256   */\n      mstore\n        /* \"contracts/Manager/royalty/RoyaltyFeeSetter.sol\":1454:1491  IERC165(collection).supportsInterface */\n      0xffffffffffffffffffffffffffffffffffffffff\n      dup6\n      and\n      swap1\n      0x01ffc9a7\n      swap1\n        /* \"#utility.yul\":131:149   */\n      0x24\n      add\n        /* \"contracts/Manager/royalty/RoyaltyFeeSetter.sol\":1454:1513  IERC165(collection).supportsInterface(INTERFACE_ID_ERC2981) */\n      0x20\n      mload(0x40)\n      dup1\n      dup4\n      sub\n      dup2\n      dup7\n      gas\n      staticcall\n      iszero\n      dup1\n      iszero\n      tag_82\n      jumpi\n      returndatasize\n      0x00\n      dup1\n      returndatacopy\n      revert(0x00, returndatasize)\n    tag_82:\n      pop\n      pop\n      pop\n      pop\n      mload(0x40)\n      returndatasize\n      not(0x1f)\n      0x1f\n      dup3\n      add\n      and\n      dup3\n      add\n      dup1\n      0x40\n      mstore\n      pop\n      dup2\n      add\n      swap1\n      tag_83\n      swap2\n      swap1\n      tag_59\n      jump\t// in\n    tag_83:\n        /* \"contracts/Manager/royalty/RoyaltyFeeSetter.sol\":1453:1513  !IERC165(collection).supportsInterface(INTERFACE_ID_ERC2981) */\n      iszero\n        /* \"contracts/Manager/royalty/RoyaltyFeeSetter.sol\":1445:1538  require(!IERC165(collection).supportsInterface(INTERFACE_ID_ERC2981), \" Must not be ERC2981\") */\n      tag_84\n      jumpi\n      mload(0x40)\n      0x08c379a000000000000000000000000000000000000000000000000000000000\n      dup2\n      mstore\n        /* \"#utility.yul\":2181:2183   */\n      0x20\n        /* \"contracts/Manager/royalty/RoyaltyFeeSetter.sol\":1445:1538  require(!IERC165(collection).supportsInterface(INTERFACE_ID_ERC2981), \" Must not be ERC2981\") */\n      0x04\n      dup3\n      add\n        /* \"#utility.yul\":2163:2184   */\n      mstore\n        /* \"#utility.yul\":2220:2222   */\n      0x14\n        /* \"#utility.yul\":2200:2218   */\n      0x24\n      dup3\n      add\n        /* \"#utility.yul\":2193:2223   */\n      mstore\n        /* \"#utility.yul\":2259:2281   */\n      0x204d757374206e6f742062652045524332393831000000000000000000000000\n        /* \"#utility.yul\":2239:2257   */\n      0x44\n      dup3\n      add\n        /* \"#utility.yul\":2232:2282   */\n      mstore\n        /* \"#utility.yul\":2299:2317   */\n      0x64\n      add\n        /* \"contracts/Manager/royalty/RoyaltyFeeSetter.sol\":1445:1538  require(!IERC165(collection).supportsInterface(INTERFACE_ID_ERC2981), \" Must not be ERC2981\") */\n      tag_61\n        /* \"#utility.yul\":1979:2323   */\n      jump\n        /* \"contracts/Manager/royalty/RoyaltyFeeSetter.sol\":1445:1538  require(!IERC165(collection).supportsInterface(INTERFACE_ID_ERC2981), \" Must not be ERC2981\") */\n    tag_84:\n        /* \"contracts/Manager/royalty/RoyaltyFeeSetter.sol\":1579:1589  collection */\n      dup4\n        /* \"contracts/Manager/royalty/RoyaltyFeeSetter.sol\":1570:1596  IOwnable(collection).admin */\n      0xffffffffffffffffffffffffffffffffffffffff\n      and\n      0xf851a440\n        /* \"contracts/Manager/royalty/RoyaltyFeeSetter.sol\":1570:1598  IOwnable(collection).admin() */\n      mload(0x40)\n      dup2\n      0xffffffff\n      and\n      0xe0\n      shl\n      dup2\n      mstore\n      0x04\n      add\n      0x20\n      mload(0x40)\n      dup1\n      dup4\n      sub\n      dup2\n      dup7\n      gas\n      staticcall\n      iszero\n      dup1\n      iszero\n      tag_87\n      jumpi\n      returndatasize\n      0x00\n      dup1\n      returndatacopy\n      revert(0x00, returndatasize)\n    tag_87:\n      pop\n      pop\n      pop\n      pop\n      mload(0x40)\n      returndatasize\n      not(0x1f)\n      0x1f\n      dup3\n      add\n      and\n      dup3\n      add\n      dup1\n      0x40\n      mstore\n      pop\n      dup2\n      add\n      swap1\n      tag_88\n      swap2\n      swap1\n      tag_66\n      jump\t// in\n    tag_88:\n        /* \"contracts/Manager/royalty/RoyaltyFeeSetter.sol\":1556:1598  msg.sender == IOwnable(collection).admin() */\n      0xffffffffffffffffffffffffffffffffffffffff\n      and\n        /* \"contracts/Manager/royalty/RoyaltyFeeSetter.sol\":1556:1566  msg.sender */\n      caller\n        /* \"contracts/Manager/royalty/RoyaltyFeeSetter.sol\":1556:1598  msg.sender == IOwnable(collection).admin() */\n      0xffffffffffffffffffffffffffffffffffffffff\n      and\n      eq\n        /* \"contracts/Manager/royalty/RoyaltyFeeSetter.sol\":1548:1617  require(msg.sender == IOwnable(collection).admin(), \" Not the admin\") */\n      tag_67\n      jumpi\n      mload(0x40)\n      0x08c379a000000000000000000000000000000000000000000000000000000000\n      dup2\n      mstore\n        /* \"#utility.yul\":3129:3131   */\n      0x20\n        /* \"contracts/Manager/royalty/RoyaltyFeeSetter.sol\":1548:1617  require(msg.sender == IOwnable(collection).admin(), \" Not the admin\") */\n      0x04\n      dup3\n      add\n        /* \"#utility.yul\":3111:3132   */\n      mstore\n        /* \"#utility.yul\":3168:3170   */\n      0x0e\n        /* \"#utility.yul\":3148:3166   */\n      0x24\n      dup3\n      add\n        /* \"#utility.yul\":3141:3171   */\n      mstore\n        /* \"#utility.yul\":3207:3223   */\n      0x204e6f74207468652061646d696e000000000000000000000000000000000000\n        /* \"#utility.yul\":3187:3205   */\n      0x44\n      dup3\n      add\n        /* \"#utility.yul\":3180:3224   */\n      mstore\n        /* \"#utility.yul\":3241:3259   */\n      0x64\n      add\n        /* \"contracts/Manager/royalty/RoyaltyFeeSetter.sol\":1548:1617  require(msg.sender == IOwnable(collection).admin(), \" Not the admin\") */\n      tag_61\n        /* \"#utility.yul\":2927:3265   */\n      jump\n        /* \"contracts/Manager/royalty/RoyaltyFeeSetter.sol\":2922:3094  function updateRoyaltyFeeLimit(uint256 _royaltyFeeLimit) external onlyOwner {... */\n    tag_40:\n        /* \"@openzeppelin/contracts/access/Ownable.sol\":1094:1107  _checkOwner() */\n      tag_94\n        /* \"@openzeppelin/contracts/access/Ownable.sol\":1094:1105  _checkOwner */\n      tag_74\n        /* \"@openzeppelin/contracts/access/Ownable.sol\":1094:1107  _checkOwner() */\n      jump\t// in\n    tag_94:\n        /* \"contracts/Manager/royalty/RoyaltyFeeSetter.sol\":3008:3087  IRoyaltyFeeRegistry(royaltyFeeRegistry).updateRoyaltyFeeLimit(_royaltyFeeLimit) */\n      mload(0x40)\n      0xb9223c9d00000000000000000000000000000000000000000000000000000000\n      dup2\n      mstore\n      0x04\n      dup2\n      add\n        /* \"#utility.yul\":3416:3441   */\n      dup3\n      swap1\n      mstore\n        /* \"contracts/Manager/royalty/RoyaltyFeeSetter.sol\":3028:3046  royaltyFeeRegistry */\n      immutable(\"0x911a39fbf665a24ad3b6efc185d4b936bbda1900793ae2f7c00f4d18bdd96685\")\n        /* \"contracts/Manager/royalty/RoyaltyFeeSetter.sol\":3008:3069  IRoyaltyFeeRegistry(royaltyFeeRegistry).updateRoyaltyFeeLimit */\n      0xffffffffffffffffffffffffffffffffffffffff\n      and\n      swap1\n      0xb9223c9d\n      swap1\n        /* \"#utility.yul\":3389:3407   */\n      0x24\n      add\n        /* \"contracts/Manager/royalty/RoyaltyFeeSetter.sol\":3008:3087  IRoyaltyFeeRegistry(royaltyFeeRegistry).updateRoyaltyFeeLimit(_royaltyFeeLimit) */\n    tag_96:\n      0x00\n      mload(0x40)\n      dup1\n      dup4\n      sub\n      dup2\n      0x00\n      dup8\n      dup1\n      extcodesize\n      iszero\n      dup1\n      iszero\n      tag_98\n      jumpi\n      0x00\n      dup1\n      revert\n    tag_98:\n      pop\n      gas\n      call\n      iszero\n      dup1\n      iszero\n      tag_100\n      jumpi\n      returndatasize\n      0x00\n      dup1\n      returndatacopy\n      revert(0x00, returndatasize)\n    tag_100:\n      pop\n      pop\n      pop\n      pop\n        /* \"contracts/Manager/royalty/RoyaltyFeeSetter.sol\":2922:3094  function updateRoyaltyFeeLimit(uint256 _royaltyFeeLimit) external onlyOwner {... */\n      pop\n      jump\t// out\n        /* \"contracts/Manager/royalty/RoyaltyFeeSetter.sol\":2604:2751  function updateOwnerOfRoyaltyFeeRegistry(address _owner) external onlyOwner {... */\n    tag_50:\n        /* \"@openzeppelin/contracts/access/Ownable.sol\":1094:1107  _checkOwner() */\n      tag_102\n        /* \"@openzeppelin/contracts/access/Ownable.sol\":1094:1105  _checkOwner */\n      tag_74\n        /* \"@openzeppelin/contracts/access/Ownable.sol\":1094:1107  _checkOwner() */\n      jump\t// in\n    tag_102:\n        /* \"contracts/Manager/royalty/RoyaltyFeeSetter.sol\":2690:2744  IOwnable(royaltyFeeRegistry).transferOwnership(_owner) */\n      mload(0x40)\n      0xf2fde38b00000000000000000000000000000000000000000000000000000000\n      dup2\n      mstore\n        /* \"contracts/Manager/royalty/RoyaltyFeeSetter.sol\":2690:2736  IOwnable(royaltyFeeRegistry).transferOwnership */\n      0xffffffffffffffffffffffffffffffffffffffff\n        /* \"#utility.yul\":1193:1248   */\n      dup3\n      dup2\n      and\n        /* \"contracts/Manager/royalty/RoyaltyFeeSetter.sol\":2690:2744  IOwnable(royaltyFeeRegistry).transferOwnership(_owner) */\n      0x04\n      dup4\n      add\n        /* \"#utility.yul\":1175:1249   */\n      mstore\n        /* \"contracts/Manager/royalty/RoyaltyFeeSetter.sol\":2699:2717  royaltyFeeRegistry */\n      immutable(\"0x911a39fbf665a24ad3b6efc185d4b936bbda1900793ae2f7c00f4d18bdd96685\")\n        /* \"contracts/Manager/royalty/RoyaltyFeeSetter.sol\":2690:2736  IOwnable(royaltyFeeRegistry).transferOwnership */\n      and\n      swap1\n      0xf2fde38b\n      swap1\n        /* \"#utility.yul\":1148:1166   */\n      0x24\n      add\n        /* \"contracts/Manager/royalty/RoyaltyFeeSetter.sol\":2690:2744  IOwnable(royaltyFeeRegistry).transferOwnership(_owner) */\n      tag_96\n        /* \"#utility.yul\":1029:1255   */\n      jump\n        /* \"@openzeppelin/contracts/access/Ownable.sol\":2081:2279  function transferOwnership(address newOwner) public virtual onlyOwner {... */\n    tag_53:\n        /* \"@openzeppelin/contracts/access/Ownable.sol\":1094:1107  _checkOwner() */\n      tag_109\n        /* \"@openzeppelin/contracts/access/Ownable.sol\":1094:1105  _checkOwner */\n      tag_74\n        /* \"@openzeppelin/contracts/access/Ownable.sol\":1094:1107  _checkOwner() */\n      jump\t// in\n    tag_109:\n        /* \"@openzeppelin/contracts/access/Ownable.sol\":2169:2191  newOwner != address(0) */\n      0xffffffffffffffffffffffffffffffffffffffff\n      dup2\n      and\n        /* \"@openzeppelin/contracts/access/Ownable.sol\":2161:2234  require(newOwner != address(0), \"Ownable: new owner is the zero address\") */\n      tag_111\n      jumpi\n      mload(0x40)\n      0x08c379a000000000000000000000000000000000000000000000000000000000\n      dup2\n      mstore\n        /* \"#utility.yul\":3654:3656   */\n      0x20\n        /* \"@openzeppelin/contracts/access/Ownable.sol\":2161:2234  require(newOwner != address(0), \"Ownable: new owner is the zero address\") */\n      0x04\n      dup3\n      add\n        /* \"#utility.yul\":3636:3657   */\n      mstore\n        /* \"#utility.yul\":3693:3695   */\n      0x26\n        /* \"#utility.yul\":3673:3691   */\n      0x24\n      dup3\n      add\n        /* \"#utility.yul\":3666:3696   */\n      mstore\n        /* \"#utility.yul\":3732:3766   */\n      0x4f776e61626c653a206e6577206f776e657220697320746865207a65726f2061\n        /* \"#utility.yul\":3712:3730   */\n      0x44\n      dup3\n      add\n        /* \"#utility.yul\":3705:3767   */\n      mstore\n        /* \"#utility.yul\":3803:3811   */\n      0x6464726573730000000000000000000000000000000000000000000000000000\n        /* \"#utility.yul\":3783:3801   */\n      0x64\n      dup3\n      add\n        /* \"#utility.yul\":3776:3812   */\n      mstore\n        /* \"#utility.yul\":3829:3848   */\n      0x84\n      add\n        /* \"@openzeppelin/contracts/access/Ownable.sol\":2161:2234  require(newOwner != address(0), \"Ownable: new owner is the zero address\") */\n      tag_61\n        /* \"#utility.yul\":3452:3854   */\n      jump\n        /* \"@openzeppelin/contracts/access/Ownable.sol\":2161:2234  require(newOwner != address(0), \"Ownable: new owner is the zero address\") */\n    tag_111:\n        /* \"@openzeppelin/contracts/access/Ownable.sol\":2244:2272  _transferOwnership(newOwner) */\n      tag_114\n        /* \"@openzeppelin/contracts/access/Ownable.sol\":2263:2271  newOwner */\n      dup2\n        /* \"@openzeppelin/contracts/access/Ownable.sol\":2244:2262  _transferOwnership */\n      tag_77\n        /* \"@openzeppelin/contracts/access/Ownable.sol\":2244:2272  _transferOwnership(newOwner) */\n      jump\t// in\n    tag_114:\n        /* \"@openzeppelin/contracts/access/Ownable.sol\":2081:2279  function transferOwnership(address newOwner) public virtual onlyOwner {... */\n      pop\n      jump\t// out\n        /* \"contracts/Manager/royalty/RoyaltyFeeSetter.sol\":3349:4032  function _updateRoyaltyInfoForCollectionIfOwnerOrAdmin(... */\n    tag_71:\n        /* \"contracts/Manager/royalty/RoyaltyFeeSetter.sol\":3557:3633  IRoyaltyFeeRegistry(royaltyFeeRegistry).royaltyFeeInfoCollection(collection) */\n      mload(0x40)\n      0xe31ef91c00000000000000000000000000000000000000000000000000000000\n      dup2\n      mstore\n        /* \"contracts/Manager/royalty/RoyaltyFeeSetter.sol\":3557:3621  IRoyaltyFeeRegistry(royaltyFeeRegistry).royaltyFeeInfoCollection */\n      0xffffffffffffffffffffffffffffffffffffffff\n        /* \"#utility.yul\":1193:1248   */\n      dup6\n      dup2\n      and\n        /* \"contracts/Manager/royalty/RoyaltyFeeSetter.sol\":3557:3633  IRoyaltyFeeRegistry(royaltyFeeRegistry).royaltyFeeInfoCollection(collection) */\n      0x04\n      dup4\n      add\n        /* \"#utility.yul\":1175:1249   */\n      mstore\n        /* \"contracts/Manager/royalty/RoyaltyFeeSetter.sol\":3529:3550  address currentSetter */\n      0x00\n      swap2\n        /* \"contracts/Manager/royalty/RoyaltyFeeSetter.sol\":3577:3595  royaltyFeeRegistry */\n      immutable(\"0x911a39fbf665a24ad3b6efc185d4b936bbda1900793ae2f7c00f4d18bdd96685\")\n        /* \"contracts/Manager/royalty/RoyaltyFeeSetter.sol\":3557:3621  IRoyaltyFeeRegistry(royaltyFeeRegistry).royaltyFeeInfoCollection */\n      swap1\n      swap2\n      and\n      swap1\n      0xe31ef91c\n      swap1\n        /* \"#utility.yul\":1148:1166   */\n      0x24\n      add\n        /* \"contracts/Manager/royalty/RoyaltyFeeSetter.sol\":3557:3633  IRoyaltyFeeRegistry(royaltyFeeRegistry).royaltyFeeInfoCollection(collection) */\n      0x60\n      mload(0x40)\n      dup1\n      dup4\n      sub\n      dup2\n      dup7\n      gas\n      staticcall\n      iszero\n      dup1\n      iszero\n      tag_118\n      jumpi\n      returndatasize\n      0x00\n      dup1\n      returndatacopy\n      revert(0x00, returndatasize)\n    tag_118:\n      pop\n      pop\n      pop\n      pop\n      mload(0x40)\n      returndatasize\n      not(0x1f)\n      0x1f\n      dup3\n      add\n      and\n      dup3\n      add\n      dup1\n      0x40\n      mstore\n      pop\n      dup2\n      add\n      swap1\n      tag_119\n      swap2\n      swap1\n      tag_120\n      jump\t// in\n    tag_119:\n      pop\n        /* \"contracts/Manager/royalty/RoyaltyFeeSetter.sol\":3528:3633  (address currentSetter, ,) = IRoyaltyFeeRegistry(royaltyFeeRegistry).royaltyFeeInfoCollection(collection) */\n      swap1\n      swap2\n      pop\n      pop\n        /* \"contracts/Manager/royalty/RoyaltyFeeSetter.sol\":3651:3678  currentSetter == address(0) */\n      0xffffffffffffffffffffffffffffffffffffffff\n      dup2\n      and\n      iszero\n        /* \"contracts/Manager/royalty/RoyaltyFeeSetter.sol\":3643:3694  require(currentSetter == address(0), \"Already set\") */\n      tag_121\n      jumpi\n      mload(0x40)\n      0x08c379a000000000000000000000000000000000000000000000000000000000\n      dup2\n      mstore\n        /* \"#utility.yul\":4512:4514   */\n      0x20\n        /* \"contracts/Manager/royalty/RoyaltyFeeSetter.sol\":3643:3694  require(currentSetter == address(0), \"Already set\") */\n      0x04\n      dup3\n      add\n        /* \"#utility.yul\":4494:4515   */\n      mstore\n        /* \"#utility.yul\":4551:4553   */\n      0x0b\n        /* \"#utility.yul\":4531:4549   */\n      0x24\n      dup3\n      add\n        /* \"#utility.yul\":4524:4554   */\n      mstore\n        /* \"#utility.yul\":4590:4603   */\n      0x416c726561647920736574000000000000000000000000000000000000000000\n        /* \"#utility.yul\":4570:4588   */\n      0x44\n      dup3\n      add\n        /* \"#utility.yul\":4563:4604   */\n      mstore\n        /* \"#utility.yul\":4621:4639   */\n      0x64\n      add\n        /* \"contracts/Manager/royalty/RoyaltyFeeSetter.sol\":3643:3694  require(currentSetter == address(0), \"Already set\") */\n      tag_61\n        /* \"#utility.yul\":4310:4645   */\n      jump\n        /* \"contracts/Manager/royalty/RoyaltyFeeSetter.sol\":3643:3694  require(currentSetter == address(0), \"Already set\") */\n    tag_121:\n        /* \"contracts/Manager/royalty/RoyaltyFeeSetter.sol\":3727:3785  IERC165(collection).supportsInterface(INTERFACE_ID_ERC721) */\n      mload(0x40)\n      0x01ffc9a700000000000000000000000000000000000000000000000000000000\n      dup2\n      mstore\n        /* \"contracts/Manager/royalty/RoyaltyFeeSetter.sol\":3765:3784  INTERFACE_ID_ERC721 */\n      0x80ac58cd00000000000000000000000000000000000000000000000000000000\n        /* \"contracts/Manager/royalty/RoyaltyFeeSetter.sol\":3727:3785  IERC165(collection).supportsInterface(INTERFACE_ID_ERC721) */\n      0x04\n      dup3\n      add\n        /* \"#utility.yul\":158:256   */\n      mstore\n        /* \"contracts/Manager/royalty/RoyaltyFeeSetter.sol\":3727:3764  IERC165(collection).supportsInterface */\n      0xffffffffffffffffffffffffffffffffffffffff\n      dup7\n      and\n      swap1\n      0x01ffc9a7\n      swap1\n        /* \"#utility.yul\":131:149   */\n      0x24\n      add\n        /* \"contracts/Manager/royalty/RoyaltyFeeSetter.sol\":3727:3785  IERC165(collection).supportsInterface(INTERFACE_ID_ERC721) */\n      0x20\n      mload(0x40)\n      dup1\n      dup4\n      sub\n      dup2\n      dup7\n      gas\n      staticcall\n      iszero\n      dup1\n      iszero\n      tag_126\n      jumpi\n      returndatasize\n      0x00\n      dup1\n      returndatacopy\n      revert(0x00, returndatasize)\n    tag_126:\n      pop\n      pop\n      pop\n      pop\n      mload(0x40)\n      returndatasize\n      not(0x1f)\n      0x1f\n      dup3\n      add\n      and\n      dup3\n      add\n      dup1\n      0x40\n      mstore\n      pop\n      dup2\n      add\n      swap1\n      tag_127\n      swap2\n      swap1\n      tag_59\n      jump\t// in\n    tag_127:\n        /* \"contracts/Manager/royalty/RoyaltyFeeSetter.sol\":3727:3856  IERC165(collection).supportsInterface(INTERFACE_ID_ERC721) ||... */\n      dup1\n      tag_132\n      jumpi\n      pop\n        /* \"contracts/Manager/royalty/RoyaltyFeeSetter.sol\":3797:3856  IERC165(collection).supportsInterface(INTERFACE_ID_ERC1155) */\n      mload(0x40)\n      0x01ffc9a700000000000000000000000000000000000000000000000000000000\n      dup2\n      mstore\n        /* \"contracts/Manager/royalty/RoyaltyFeeSetter.sol\":3835:3855  INTERFACE_ID_ERC1155 */\n      0xd9b67a2600000000000000000000000000000000000000000000000000000000\n        /* \"contracts/Manager/royalty/RoyaltyFeeSetter.sol\":3797:3856  IERC165(collection).supportsInterface(INTERFACE_ID_ERC1155) */\n      0x04\n      dup3\n      add\n        /* \"#utility.yul\":158:256   */\n      mstore\n        /* \"contracts/Manager/royalty/RoyaltyFeeSetter.sol\":3797:3834  IERC165(collection).supportsInterface */\n      0xffffffffffffffffffffffffffffffffffffffff\n      dup7\n      and\n      swap1\n      0x01ffc9a7\n      swap1\n        /* \"#utility.yul\":131:149   */\n      0x24\n      add\n        /* \"contracts/Manager/royalty/RoyaltyFeeSetter.sol\":3797:3856  IERC165(collection).supportsInterface(INTERFACE_ID_ERC1155) */\n      0x20\n      mload(0x40)\n      dup1\n      dup4\n      sub\n      dup2\n      dup7\n      gas\n      staticcall\n      iszero\n      dup1\n      iszero\n      tag_131\n      jumpi\n      returndatasize\n      0x00\n      dup1\n      returndatacopy\n      revert(0x00, returndatasize)\n    tag_131:\n      pop\n      pop\n      pop\n      pop\n      mload(0x40)\n      returndatasize\n      not(0x1f)\n      0x1f\n      dup3\n      add\n      and\n      dup3\n      add\n      dup1\n      0x40\n      mstore\n      pop\n      dup2\n      add\n      swap1\n      tag_132\n      swap2\n      swap1\n      tag_59\n      jump\t// in\n    tag_132:\n        /* \"contracts/Manager/royalty/RoyaltyFeeSetter.sol\":3705:3909  require(... */\n      tag_133\n      jumpi\n      mload(0x40)\n      0x08c379a000000000000000000000000000000000000000000000000000000000\n      dup2\n      mstore\n        /* \"#utility.yul\":4852:4854   */\n      0x20\n        /* \"contracts/Manager/royalty/RoyaltyFeeSetter.sol\":3705:3909  require(... */\n      0x04\n      dup3\n      add\n        /* \"#utility.yul\":4834:4855   */\n      mstore\n        /* \"#utility.yul\":4891:4893   */\n      0x1a\n        /* \"#utility.yul\":4871:4889   */\n      0x24\n      dup3\n      add\n        /* \"#utility.yul\":4864:4894   */\n      mstore\n        /* \"#utility.yul\":4930:4958   */\n      0x204e6f7420536574206f66204552433732312f45524331313535000000000000\n        /* \"#utility.yul\":4910:4928   */\n      0x44\n      dup3\n      add\n        /* \"#utility.yul\":4903:4959   */\n      mstore\n        /* \"#utility.yul\":4976:4994   */\n      0x64\n      add\n        /* \"contracts/Manager/royalty/RoyaltyFeeSetter.sol\":3705:3909  require(... */\n      tag_61\n        /* \"#utility.yul\":4650:5000   */\n      jump\n        /* \"contracts/Manager/royalty/RoyaltyFeeSetter.sol\":3705:3909  require(... */\n    tag_133:\n        /* \"contracts/Manager/royalty/RoyaltyFeeSetter.sol\":3920:4025  IRoyaltyFeeRegistry(royaltyFeeRegistry).updateRoyaltyInfoForCollection(collection, setter, receiver, fee) */\n      mload(0x40)\n      0xbbdf9b6800000000000000000000000000000000000000000000000000000000\n      dup2\n      mstore\n        /* \"contracts/Manager/royalty/RoyaltyFeeSetter.sol\":3920:3990  IRoyaltyFeeRegistry(royaltyFeeRegistry).updateRoyaltyInfoForCollection */\n      0xffffffffffffffffffffffffffffffffffffffff\n        /* \"#utility.yul\":5315:5330   */\n      dup7\n      dup2\n      and\n        /* \"contracts/Manager/royalty/RoyaltyFeeSetter.sol\":3920:4025  IRoyaltyFeeRegistry(royaltyFeeRegistry).updateRoyaltyInfoForCollection(collection, setter, receiver, fee) */\n      0x04\n      dup4\n      add\n        /* \"#utility.yul\":5297:5331   */\n      mstore\n        /* \"#utility.yul\":5367:5382   */\n      dup6\n      dup2\n      and\n        /* \"#utility.yul\":5347:5365   */\n      0x24\n      dup4\n      add\n        /* \"#utility.yul\":5340:5383   */\n      mstore\n        /* \"#utility.yul\":5419:5434   */\n      dup5\n      dup2\n      and\n        /* \"#utility.yul\":5399:5417   */\n      0x44\n      dup4\n      add\n        /* \"#utility.yul\":5392:5435   */\n      mstore\n        /* \"#utility.yul\":5451:5469   */\n      0x64\n      dup3\n      add\n        /* \"#utility.yul\":5444:5478   */\n      dup5\n      swap1\n      mstore\n        /* \"contracts/Manager/royalty/RoyaltyFeeSetter.sol\":3940:3958  royaltyFeeRegistry */\n      immutable(\"0x911a39fbf665a24ad3b6efc185d4b936bbda1900793ae2f7c00f4d18bdd96685\")\n        /* \"contracts/Manager/royalty/RoyaltyFeeSetter.sol\":3920:3990  IRoyaltyFeeRegistry(royaltyFeeRegistry).updateRoyaltyInfoForCollection */\n      and\n      swap1\n      0xbbdf9b68\n      swap1\n        /* \"#utility.yul\":5208:5227   */\n      0x84\n      add\n        /* \"contracts/Manager/royalty/RoyaltyFeeSetter.sol\":3920:4025  IRoyaltyFeeRegistry(royaltyFeeRegistry).updateRoyaltyInfoForCollection(collection, setter, receiver, fee) */\n      0x00\n      mload(0x40)\n      dup1\n      dup4\n      sub\n      dup2\n      0x00\n      dup8\n      dup1\n      extcodesize\n      iszero\n      dup1\n      iszero\n      tag_138\n      jumpi\n      0x00\n      dup1\n      revert\n    tag_138:\n      pop\n      gas\n      call\n      iszero\n      dup1\n      iszero\n      tag_140\n      jumpi\n      returndatasize\n      0x00\n      dup1\n      returndatacopy\n      revert(0x00, returndatasize)\n    tag_140:\n      pop\n      pop\n      pop\n      pop\n        /* \"contracts/Manager/royalty/RoyaltyFeeSetter.sol\":3518:4032  {... */\n      pop\n        /* \"contracts/Manager/royalty/RoyaltyFeeSetter.sol\":3349:4032  function _updateRoyaltyInfoForCollectionIfOwnerOrAdmin(... */\n      pop\n      pop\n      pop\n      pop\n      jump\t// out\n        /* \"@openzeppelin/contracts/access/Ownable.sol\":1359:1489  function _checkOwner() internal view virtual {... */\n    tag_74:\n        /* \"@openzeppelin/contracts/access/Ownable.sol\":1247:1254  address */\n      0x00\n        /* \"@openzeppelin/contracts/access/Ownable.sol\":1273:1279  _owner */\n      sload\n        /* \"@openzeppelin/contracts/access/Ownable.sol\":1422:1445  owner() == _msgSender() */\n      0xffffffffffffffffffffffffffffffffffffffff\n        /* \"@openzeppelin/contracts/access/Ownable.sol\":1273:1279  _owner */\n      and\n        /* \"@openzeppelin/contracts/utils/Context.sol\":719:729  msg.sender */\n      caller\n        /* \"@openzeppelin/contracts/access/Ownable.sol\":1422:1445  owner() == _msgSender() */\n      eq\n        /* \"@openzeppelin/contracts/access/Ownable.sol\":1414:1482  require(owner() == _msgSender(), \"Ownable: caller is not the owner\") */\n      tag_76\n      jumpi\n      mload(0x40)\n      0x08c379a000000000000000000000000000000000000000000000000000000000\n      dup2\n      mstore\n        /* \"#utility.yul\":5691:5693   */\n      0x20\n        /* \"@openzeppelin/contracts/access/Ownable.sol\":1414:1482  require(owner() == _msgSender(), \"Ownable: caller is not the owner\") */\n      0x04\n      dup3\n      add\n        /* \"#utility.yul\":5673:5694   */\n      dup2\n      swap1\n      mstore\n        /* \"#utility.yul\":5710:5728   */\n      0x24\n      dup3\n      add\n        /* \"#utility.yul\":5703:5733   */\n      mstore\n        /* \"#utility.yul\":5769:5803   */\n      0x4f776e61626c653a2063616c6c6572206973206e6f7420746865206f776e6572\n        /* \"#utility.yul\":5749:5767   */\n      0x44\n      dup3\n      add\n        /* \"#utility.yul\":5742:5804   */\n      mstore\n        /* \"#utility.yul\":5821:5839   */\n      0x64\n      add\n        /* \"@openzeppelin/contracts/access/Ownable.sol\":1414:1482  require(owner() == _msgSender(), \"Ownable: caller is not the owner\") */\n      tag_61\n        /* \"#utility.yul\":5489:5845   */\n      jump\n        /* \"@openzeppelin/contracts/access/Ownable.sol\":2433:2620  function _transferOwnership(address newOwner) internal virtual {... */\n    tag_77:\n        /* \"@openzeppelin/contracts/access/Ownable.sol\":2506:2522  address oldOwner */\n      0x00\n        /* \"@openzeppelin/contracts/access/Ownable.sol\":2525:2531  _owner */\n      dup1\n      sload\n      0xffffffffffffffffffffffffffffffffffffffff\n        /* \"@openzeppelin/contracts/access/Ownable.sol\":2541:2558  _owner = newOwner */\n      dup4\n      dup2\n      and\n      0xffffffffffffffffffffffff0000000000000000000000000000000000000000\n      dup4\n      and\n      dup2\n      or\n      dup5\n      sstore\n        /* \"@openzeppelin/contracts/access/Ownable.sol\":2573:2613  OwnershipTransferred(oldOwner, newOwner) */\n      mload(0x40)\n        /* \"@openzeppelin/contracts/access/Ownable.sol\":2525:2531  _owner */\n      swap2\n      swap1\n      swap3\n      and\n      swap3\n      dup4\n      swap2\n        /* \"@openzeppelin/contracts/access/Ownable.sol\":2573:2613  OwnershipTransferred(oldOwner, newOwner) */\n      0x8be0079c531659141344cd1fd0a4f28419497f9722a3daafe3b4186f6b6457e0\n      swap2\n        /* \"@openzeppelin/contracts/access/Ownable.sol\":2506:2522  address oldOwner */\n      swap1\n        /* \"@openzeppelin/contracts/access/Ownable.sol\":2573:2613  OwnershipTransferred(oldOwner, newOwner) */\n      log3\n        /* \"@openzeppelin/contracts/access/Ownable.sol\":2496:2620  {... */\n      pop\n        /* \"@openzeppelin/contracts/access/Ownable.sol\":2433:2620  function _transferOwnership(address newOwner) internal virtual {... */\n      pop\n      jump\t// out\n        /* \"#utility.yul\":267:421   */\n    tag_150:\n        /* \"#utility.yul\":353:395   */\n      0xffffffffffffffffffffffffffffffffffffffff\n        /* \"#utility.yul\":346:351   */\n      dup2\n        /* \"#utility.yul\":342:396   */\n      and\n        /* \"#utility.yul\":335:340   */\n      dup2\n        /* \"#utility.yul\":332:397   */\n      eq\n        /* \"#utility.yul\":322:415   */\n      tag_114\n      jumpi\n        /* \"#utility.yul\":411:412   */\n      0x00\n        /* \"#utility.yul\":408:409   */\n      dup1\n        /* \"#utility.yul\":401:413   */\n      revert\n        /* \"#utility.yul\":426:1024   */\n    tag_23:\n        /* \"#utility.yul\":512:518   */\n      0x00\n        /* \"#utility.yul\":520:526   */\n      dup1\n        /* \"#utility.yul\":528:534   */\n      0x00\n        /* \"#utility.yul\":536:542   */\n      dup1\n        /* \"#utility.yul\":589:592   */\n      0x80\n        /* \"#utility.yul\":577:586   */\n      dup6\n        /* \"#utility.yul\":568:575   */\n      dup8\n        /* \"#utility.yul\":564:587   */\n      sub\n        /* \"#utility.yul\":560:593   */\n      slt\n        /* \"#utility.yul\":557:610   */\n      iszero\n      tag_156\n      jumpi\n        /* \"#utility.yul\":606:607   */\n      0x00\n        /* \"#utility.yul\":603:604   */\n      dup1\n        /* \"#utility.yul\":596:608   */\n      revert\n        /* \"#utility.yul\":557:610   */\n    tag_156:\n        /* \"#utility.yul\":645:654   */\n      dup5\n        /* \"#utility.yul\":632:655   */\n      calldataload\n        /* \"#utility.yul\":664:695   */\n      tag_157\n        /* \"#utility.yul\":689:694   */\n      dup2\n        /* \"#utility.yul\":664:695   */\n      tag_150\n      jump\t// in\n    tag_157:\n        /* \"#utility.yul\":714:719   */\n      swap4\n      pop\n        /* \"#utility.yul\":771:773   */\n      0x20\n        /* \"#utility.yul\":756:774   */\n      dup6\n      add\n        /* \"#utility.yul\":743:775   */\n      calldataload\n        /* \"#utility.yul\":784:817   */\n      tag_158\n        /* \"#utility.yul\":743:775   */\n      dup2\n        /* \"#utility.yul\":784:817   */\n      tag_150\n      jump\t// in\n    tag_158:\n        /* \"#utility.yul\":836:843   */\n      swap3\n      pop\n        /* \"#utility.yul\":895:897   */\n      0x40\n        /* \"#utility.yul\":880:898   */\n      dup6\n      add\n        /* \"#utility.yul\":867:899   */\n      calldataload\n        /* \"#utility.yul\":908:941   */\n      tag_159\n        /* \"#utility.yul\":867:899   */\n      dup2\n        /* \"#utility.yul\":908:941   */\n      tag_150\n      jump\t// in\n    tag_159:\n        /* \"#utility.yul\":426:1024   */\n      swap4\n      swap7\n      swap3\n      swap6\n      pop\n        /* \"#utility.yul\":960:967   */\n      swap3\n      swap4\n        /* \"#utility.yul\":1014:1016   */\n      0x60\n        /* \"#utility.yul\":999:1017   */\n      add\n        /* \"#utility.yul\":986:1018   */\n      calldataload\n      swap3\n      pop\n      pop\n        /* \"#utility.yul\":426:1024   */\n      jump\t// out\n        /* \"#utility.yul\":1260:1440   */\n    tag_39:\n        /* \"#utility.yul\":1319:1325   */\n      0x00\n        /* \"#utility.yul\":1372:1374   */\n      0x20\n        /* \"#utility.yul\":1360:1369   */\n      dup3\n        /* \"#utility.yul\":1351:1358   */\n      dup5\n        /* \"#utility.yul\":1347:1370   */\n      sub\n        /* \"#utility.yul\":1343:1375   */\n      slt\n        /* \"#utility.yul\":1340:1392   */\n      iszero\n      tag_162\n      jumpi\n        /* \"#utility.yul\":1388:1389   */\n      0x00\n        /* \"#utility.yul\":1385:1386   */\n      dup1\n        /* \"#utility.yul\":1378:1390   */\n      revert\n        /* \"#utility.yul\":1340:1392   */\n    tag_162:\n      pop\n        /* \"#utility.yul\":1411:1434   */\n      calldataload\n      swap2\n        /* \"#utility.yul\":1260:1440   */\n      swap1\n      pop\n      jump\t// out\n        /* \"#utility.yul\":1445:1692   */\n    tag_49:\n        /* \"#utility.yul\":1504:1510   */\n      0x00\n        /* \"#utility.yul\":1557:1559   */\n      0x20\n        /* \"#utility.yul\":1545:1554   */\n      dup3\n        /* \"#utility.yul\":1536:1543   */\n      dup5\n        /* \"#utility.yul\":1532:1555   */\n      sub\n        /* \"#utility.yul\":1528:1560   */\n      slt\n        /* \"#utility.yul\":1525:1577   */\n      iszero\n      tag_164\n      jumpi\n        /* \"#utility.yul\":1573:1574   */\n      0x00\n        /* \"#utility.yul\":1570:1571   */\n      dup1\n        /* \"#utility.yul\":1563:1575   */\n      revert\n        /* \"#utility.yul\":1525:1577   */\n    tag_164:\n        /* \"#utility.yul\":1612:1621   */\n      dup2\n        /* \"#utility.yul\":1599:1622   */\n      calldataload\n        /* \"#utility.yul\":1631:1662   */\n      tag_165\n        /* \"#utility.yul\":1656:1661   */\n      dup2\n        /* \"#utility.yul\":1631:1662   */\n      tag_150\n      jump\t// in\n    tag_165:\n        /* \"#utility.yul\":1681:1686   */\n      swap4\n        /* \"#utility.yul\":1445:1692   */\n      swap3\n      pop\n      pop\n      pop\n      jump\t// out\n        /* \"#utility.yul\":1697:1974   */\n    tag_59:\n        /* \"#utility.yul\":1764:1770   */\n      0x00\n        /* \"#utility.yul\":1817:1819   */\n      0x20\n        /* \"#utility.yul\":1805:1814   */\n      dup3\n        /* \"#utility.yul\":1796:1803   */\n      dup5\n        /* \"#utility.yul\":1792:1815   */\n      sub\n        /* \"#utility.yul\":1788:1820   */\n      slt\n        /* \"#utility.yul\":1785:1837   */\n      iszero\n      tag_167\n      jumpi\n        /* \"#utility.yul\":1833:1834   */\n      0x00\n        /* \"#utility.yul\":1830:1831   */\n      dup1\n        /* \"#utility.yul\":1823:1835   */\n      revert\n        /* \"#utility.yul\":1785:1837   */\n    tag_167:\n        /* \"#utility.yul\":1865:1874   */\n      dup2\n        /* \"#utility.yul\":1859:1875   */\n      mload\n        /* \"#utility.yul\":1918:1923   */\n      dup1\n        /* \"#utility.yul\":1911:1924   */\n      iszero\n        /* \"#utility.yul\":1904:1925   */\n      iszero\n        /* \"#utility.yul\":1897:1902   */\n      dup2\n        /* \"#utility.yul\":1894:1926   */\n      eq\n        /* \"#utility.yul\":1884:1944   */\n      tag_165\n      jumpi\n        /* \"#utility.yul\":1940:1941   */\n      0x00\n        /* \"#utility.yul\":1937:1938   */\n      dup1\n        /* \"#utility.yul\":1930:1942   */\n      revert\n        /* \"#utility.yul\":2328:2579   */\n    tag_66:\n        /* \"#utility.yul\":2398:2404   */\n      0x00\n        /* \"#utility.yul\":2451:2453   */\n      0x20\n        /* \"#utility.yul\":2439:2448   */\n      dup3\n        /* \"#utility.yul\":2430:2437   */\n      dup5\n        /* \"#utility.yul\":2426:2449   */\n      sub\n        /* \"#utility.yul\":2422:2454   */\n      slt\n        /* \"#utility.yul\":2419:2471   */\n      iszero\n      tag_171\n      jumpi\n        /* \"#utility.yul\":2467:2468   */\n      0x00\n        /* \"#utility.yul\":2464:2465   */\n      dup1\n        /* \"#utility.yul\":2457:2469   */\n      revert\n        /* \"#utility.yul\":2419:2471   */\n    tag_171:\n        /* \"#utility.yul\":2499:2508   */\n      dup2\n        /* \"#utility.yul\":2493:2509   */\n      mload\n        /* \"#utility.yul\":2518:2549   */\n      tag_165\n        /* \"#utility.yul\":2543:2548   */\n      dup2\n        /* \"#utility.yul\":2518:2549   */\n      tag_150\n      jump\t// in\n        /* \"#utility.yul\":3859:4305   */\n    tag_120:\n        /* \"#utility.yul\":3947:3953   */\n      0x00\n        /* \"#utility.yul\":3955:3961   */\n      dup1\n        /* \"#utility.yul\":3963:3969   */\n      0x00\n        /* \"#utility.yul\":4016:4018   */\n      0x60\n        /* \"#utility.yul\":4004:4013   */\n      dup5\n        /* \"#utility.yul\":3995:4002   */\n      dup7\n        /* \"#utility.yul\":3991:4014   */\n      sub\n        /* \"#utility.yul\":3987:4019   */\n      slt\n        /* \"#utility.yul\":3984:4036   */\n      iszero\n      tag_178\n      jumpi\n        /* \"#utility.yul\":4032:4033   */\n      0x00\n        /* \"#utility.yul\":4029:4030   */\n      dup1\n        /* \"#utility.yul\":4022:4034   */\n      revert\n        /* \"#utility.yul\":3984:4036   */\n    tag_178:\n        /* \"#utility.yul\":4064:4073   */\n      dup4\n        /* \"#utility.yul\":4058:4074   */\n      mload\n        /* \"#utility.yul\":4083:4114   */\n      tag_179\n        /* \"#utility.yul\":4108:4113   */\n      dup2\n        /* \"#utility.yul\":4083:4114   */\n      tag_150\n      jump\t// in\n    tag_179:\n        /* \"#utility.yul\":4183:4185   */\n      0x20\n        /* \"#utility.yul\":4168:4186   */\n      dup6\n      add\n        /* \"#utility.yul\":4162:4187   */\n      mload\n        /* \"#utility.yul\":4133:4138   */\n      swap1\n      swap4\n      pop\n        /* \"#utility.yul\":4196:4229   */\n      tag_180\n        /* \"#utility.yul\":4162:4187   */\n      dup2\n        /* \"#utility.yul\":4196:4229   */\n      tag_150\n      jump\t// in\n    tag_180:\n        /* \"#utility.yul\":4248:4255   */\n      dup1\n        /* \"#utility.yul\":4238:4255   */\n      swap3\n      pop\n      pop\n        /* \"#utility.yul\":4295:4297   */\n      0x40\n        /* \"#utility.yul\":4284:4293   */\n      dup5\n        /* \"#utility.yul\":4280:4298   */\n      add\n        /* \"#utility.yul\":4274:4299   */\n      mload\n        /* \"#utility.yul\":4264:4299   */\n      swap1\n      pop\n        /* \"#utility.yul\":3859:4305   */\n      swap3\n      pop\n      swap3\n      pop\n      swap3\n      jump\t// out\n\n    auxdata: 0xa264697066735822122035e060f446b0b6dcb532b69d8157f96d9269200815a55c6b43efabeef12185a964736f6c63430008110033\n}\n",
				"bytecode": {
					"linkReferences": {},
					"object": "60a060405234801561001057600080fd5b50604051610f9f380380610f9f83398101604081905261002f91610099565b61003833610049565b6001600160a01b03166080526100c9565b600080546001600160a01b038381166001600160a01b0319831681178455604051919092169283917f8be0079c531659141344cd1fd0a4f28419497f9722a3daafe3b4186f6b6457e09190a35050565b6000602082840312156100ab57600080fd5b81516001600160a01b03811681146100c257600080fd5b9392505050565b608051610e9f61010060003960008181610200015281816106da0152818161079c015281816108ca0152610bde0152610e9f6000f3fe608060405234801561001057600080fd5b50600436106100c95760003560e01c8063b060dd8611610081578063c16f51561161005b578063c16f5156146101fb578063e72ba45614610222578063f2fde38b1461023557600080fd5b8063b060dd861461019a578063b9223c9d146101c1578063bc6bc0cd146101d457600080fd5b8063715018a6116100b2578063715018a6146101405780638da5cb5b14610148578063ab0166701461018757600080fd5b806333bf6156146100ce5780633755fa801461012b575b600080fd5b6100f57fd9b67a260000000000000000000000000000000000000000000000000000000081565b6040517fffffffff0000000000000000000000000000000000000000000000000000000090911681526020015b60405180910390f35b61013e610139366004610d59565b610248565b005b61013e610477565b60005473ffffffffffffffffffffffffffffffffffffffff165b60405173ffffffffffffffffffffffffffffffffffffffff9091168152602001610122565b61013e610195366004610d59565b61048b565b6100f57f2a55205a0000000000000000000000000000000000000000000000000000000081565b61013e6101cf366004610daa565b6106a3565b6100f57f80ac58cd0000000000000000000000000000000000000000000000000000000081565b6101627f000000000000000000000000000000000000000000000000000000000000000081565b61013e610230366004610dc3565b61074f565b61013e610243366004610dc3565b6107cb565b6040517f01ffc9a70000000000000000000000000000000000000000000000000000000081527f2a55205a00000000000000000000000000000000000000000000000000000000600482015273ffffffffffffffffffffffffffffffffffffffff8516906301ffc9a790602401602060405180830381865afa1580156102d2573d6000803e3d6000fd5b505050506040513d601f19601f820116820180604052508101906102f69190610de7565b15610362576040517f08c379a000000000000000000000000000000000000000000000000000000000815260206004820152601460248201527f204d757374206e6f74206265204552433239383100000000000000000000000060448201526064015b60405180910390fd5b8373ffffffffffffffffffffffffffffffffffffffff16638da5cb5b6040518163ffffffff1660e01b8152600401602060405180830381865afa1580156103ad573d6000803e3d6000fd5b505050506040513d601f19601f820116820180604052508101906103d19190610e09565b73ffffffffffffffffffffffffffffffffffffffff163373ffffffffffffffffffffffffffffffffffffffff1614610465576040517f08c379a000000000000000000000000000000000000000000000000000000000815260206004820152600e60248201527f204e6f7420746865206f776e65720000000000000000000000000000000000006044820152606401610359565b61047184848484610882565b50505050565b61047f610c41565b6104896000610cc2565b565b6040517f01ffc9a70000000000000000000000000000000000000000000000000000000081527f2a55205a00000000000000000000000000000000000000000000000000000000600482015273ffffffffffffffffffffffffffffffffffffffff8516906301ffc9a790602401602060405180830381865afa158015610515573d6000803e3d6000fd5b505050506040513d601f19601f820116820180604052508101906105399190610de7565b156105a0576040517f08c379a000000000000000000000000000000000000000000000000000000000815260206004820152601460248201527f204d757374206e6f7420626520455243323938310000000000000000000000006044820152606401610359565b8373ffffffffffffffffffffffffffffffffffffffff1663f851a4406040518163ffffffff1660e01b8152600401602060405180830381865afa1580156105eb573d6000803e3d6000fd5b505050506040513d601f19601f8201168201806040525081019061060f9190610e09565b73ffffffffffffffffffffffffffffffffffffffff163373ffffffffffffffffffffffffffffffffffffffff1614610465576040517f08c379a000000000000000000000000000000000000000000000000000000000815260206004820152600e60248201527f204e6f74207468652061646d696e0000000000000000000000000000000000006044820152606401610359565b6106ab610c41565b6040517fb9223c9d000000000000000000000000000000000000000000000000000000008152600481018290527f000000000000000000000000000000000000000000000000000000000000000073ffffffffffffffffffffffffffffffffffffffff169063b9223c9d906024015b600060405180830381600087803b15801561073457600080fd5b505af1158015610748573d6000803e3d6000fd5b5050505050565b610757610c41565b6040517ff2fde38b00000000000000000000000000000000000000000000000000000000815273ffffffffffffffffffffffffffffffffffffffff82811660048301527f0000000000000000000000000000000000000000000000000000000000000000169063f2fde38b9060240161071a565b6107d3610c41565b73ffffffffffffffffffffffffffffffffffffffff8116610876576040517f08c379a000000000000000000000000000000000000000000000000000000000815260206004820152602660248201527f4f776e61626c653a206e6577206f776e657220697320746865207a65726f206160448201527f64647265737300000000000000000000000000000000000000000000000000006064820152608401610359565b61087f81610cc2565b50565b6040517fe31ef91c00000000000000000000000000000000000000000000000000000000815273ffffffffffffffffffffffffffffffffffffffff85811660048301526000917f00000000000000000000000000000000000000000000000000000000000000009091169063e31ef91c90602401606060405180830381865afa158015610913573d6000803e3d6000fd5b505050506040513d601f19601f820116820180604052508101906109379190610e26565b509091505073ffffffffffffffffffffffffffffffffffffffff8116156109ba576040517f08c379a000000000000000000000000000000000000000000000000000000000815260206004820152600b60248201527f416c7265616479207365740000000000000000000000000000000000000000006044820152606401610359565b6040517f01ffc9a70000000000000000000000000000000000000000000000000000000081527f80ac58cd00000000000000000000000000000000000000000000000000000000600482015273ffffffffffffffffffffffffffffffffffffffff8616906301ffc9a790602401602060405180830381865afa158015610a44573d6000803e3d6000fd5b505050506040513d601f19601f82011682018060405250810190610a689190610de7565b80610b1c57506040517f01ffc9a70000000000000000000000000000000000000000000000000000000081527fd9b67a2600000000000000000000000000000000000000000000000000000000600482015273ffffffffffffffffffffffffffffffffffffffff8616906301ffc9a790602401602060405180830381865afa158015610af8573d6000803e3d6000fd5b505050506040513d601f19601f82011682018060405250810190610b1c9190610de7565b610b82576040517f08c379a000000000000000000000000000000000000000000000000000000000815260206004820152601a60248201527f204e6f7420536574206f66204552433732312f455243313135350000000000006044820152606401610359565b6040517fbbdf9b6800000000000000000000000000000000000000000000000000000000815273ffffffffffffffffffffffffffffffffffffffff868116600483015285811660248301528481166044830152606482018490527f0000000000000000000000000000000000000000000000000000000000000000169063bbdf9b6890608401600060405180830381600087803b158015610c2257600080fd5b505af1158015610c36573d6000803e3d6000fd5b505050505050505050565b60005473ffffffffffffffffffffffffffffffffffffffff163314610489576040517f08c379a000000000000000000000000000000000000000000000000000000000815260206004820181905260248201527f4f776e61626c653a2063616c6c6572206973206e6f7420746865206f776e65726044820152606401610359565b6000805473ffffffffffffffffffffffffffffffffffffffff8381167fffffffffffffffffffffffff0000000000000000000000000000000000000000831681178455604051919092169283917f8be0079c531659141344cd1fd0a4f28419497f9722a3daafe3b4186f6b6457e09190a35050565b73ffffffffffffffffffffffffffffffffffffffff8116811461087f57600080fd5b60008060008060808587031215610d6f57600080fd5b8435610d7a81610d37565b93506020850135610d8a81610d37565b92506040850135610d9a81610d37565b9396929550929360600135925050565b600060208284031215610dbc57600080fd5b5035919050565b600060208284031215610dd557600080fd5b8135610de081610d37565b9392505050565b600060208284031215610df957600080fd5b81518015158114610de057600080fd5b600060208284031215610e1b57600080fd5b8151610de081610d37565b600080600060608486031215610e3b57600080fd5b8351610e4681610d37565b6020850151909350610e5781610d37565b8092505060408401519050925092509256fea264697066735822122035e060f446b0b6dcb532b69d8157f96d9269200815a55c6b43efabeef12185a964736f6c63430008110033",
					"opcodes": "PUSH1 0xA0 PUSH1 0x40 MSTORE CALLVALUE DUP1 ISZERO PUSH2 0x10 JUMPI PUSH1 0x0 DUP1 REVERT JUMPDEST POP PUSH1 0x40 MLOAD PUSH2 0xF9F CODESIZE SUB DUP1 PUSH2 0xF9F DUP4 CODECOPY DUP2 ADD PUSH1 0x40 DUP2 SWAP1 MSTORE PUSH2 0x2F SWAP2 PUSH2 0x99 JUMP JUMPDEST PUSH2 0x38 CALLER PUSH2 0x49 JUMP JUMPDEST PUSH1 0x1 PUSH1 0x1 PUSH1 0xA0 SHL SUB AND PUSH1 0x80 MSTORE PUSH2 0xC9 JUMP JUMPDEST PUSH1 0x0 DUP1 SLOAD PUSH1 0x1 PUSH1 0x1 PUSH1 0xA0 SHL SUB DUP4 DUP2 AND PUSH1 0x1 PUSH1 0x1 PUSH1 0xA0 SHL SUB NOT DUP4 AND DUP2 OR DUP5 SSTORE PUSH1 0x40 MLOAD SWAP2 SWAP1 SWAP3 AND SWAP3 DUP4 SWAP2 PUSH32 0x8BE0079C531659141344CD1FD0A4F28419497F9722A3DAAFE3B4186F6B6457E0 SWAP2 SWAP1 LOG3 POP POP JUMP JUMPDEST PUSH1 0x0 PUSH1 0x20 DUP3 DUP5 SUB SLT ISZERO PUSH2 0xAB JUMPI PUSH1 0x0 DUP1 REVERT JUMPDEST DUP2 MLOAD PUSH1 0x1 PUSH1 0x1 PUSH1 0xA0 SHL SUB DUP2 AND DUP2 EQ PUSH2 0xC2 JUMPI PUSH1 0x0 DUP1 REVERT JUMPDEST SWAP4 SWAP3 POP POP POP JUMP JUMPDEST PUSH1 0x80 MLOAD PUSH2 0xE9F PUSH2 0x100 PUSH1 0x0 CODECOPY PUSH1 0x0 DUP2 DUP2 PUSH2 0x200 ADD MSTORE DUP2 DUP2 PUSH2 0x6DA ADD MSTORE DUP2 DUP2 PUSH2 0x79C ADD MSTORE DUP2 DUP2 PUSH2 0x8CA ADD MSTORE PUSH2 0xBDE ADD MSTORE PUSH2 0xE9F PUSH1 0x0 RETURN INVALID PUSH1 0x80 PUSH1 0x40 MSTORE CALLVALUE DUP1 ISZERO PUSH2 0x10 JUMPI PUSH1 0x0 DUP1 REVERT JUMPDEST POP PUSH1 0x4 CALLDATASIZE LT PUSH2 0xC9 JUMPI PUSH1 0x0 CALLDATALOAD PUSH1 0xE0 SHR DUP1 PUSH4 0xB060DD86 GT PUSH2 0x81 JUMPI DUP1 PUSH4 0xC16F5156 GT PUSH2 0x5B JUMPI DUP1 PUSH4 0xC16F5156 EQ PUSH2 0x1FB JUMPI DUP1 PUSH4 0xE72BA456 EQ PUSH2 0x222 JUMPI DUP1 PUSH4 0xF2FDE38B EQ PUSH2 0x235 JUMPI PUSH1 0x0 DUP1 REVERT JUMPDEST DUP1 PUSH4 0xB060DD86 EQ PUSH2 0x19A JUMPI DUP1 PUSH4 0xB9223C9D EQ PUSH2 0x1C1 JUMPI DUP1 PUSH4 0xBC6BC0CD EQ PUSH2 0x1D4 JUMPI PUSH1 0x0 DUP1 REVERT JUMPDEST DUP1 PUSH4 0x715018A6 GT PUSH2 0xB2 JUMPI DUP1 PUSH4 0x715018A6 EQ PUSH2 0x140 JUMPI DUP1 PUSH4 0x8DA5CB5B EQ PUSH2 0x148 JUMPI DUP1 PUSH4 0xAB016670 EQ PUSH2 0x187 JUMPI PUSH1 0x0 DUP1 REVERT JUMPDEST DUP1 PUSH4 0x33BF6156 EQ PUSH2 0xCE JUMPI DUP1 PUSH4 0x3755FA80 EQ PUSH2 0x12B JUMPI JUMPDEST PUSH1 0x0 DUP1 REVERT JUMPDEST PUSH2 0xF5 PUSH32 0xD9B67A2600000000000000000000000000000000000000000000000000000000 DUP2 JUMP JUMPDEST PUSH1 0x40 MLOAD PUSH32 0xFFFFFFFF00000000000000000000000000000000000000000000000000000000 SWAP1 SWAP2 AND DUP2 MSTORE PUSH1 0x20 ADD JUMPDEST PUSH1 0x40 MLOAD DUP1 SWAP2 SUB SWAP1 RETURN JUMPDEST PUSH2 0x13E PUSH2 0x139 CALLDATASIZE PUSH1 0x4 PUSH2 0xD59 JUMP JUMPDEST PUSH2 0x248 JUMP JUMPDEST STOP JUMPDEST PUSH2 0x13E PUSH2 0x477 JUMP JUMPDEST PUSH1 0x0 SLOAD PUSH20 0xFFFFFFFFFFFFFFFFFFFFFFFFFFFFFFFFFFFFFFFF AND JUMPDEST PUSH1 0x40 MLOAD PUSH20 0xFFFFFFFFFFFFFFFFFFFFFFFFFFFFFFFFFFFFFFFF SWAP1 SWAP2 AND DUP2 MSTORE PUSH1 0x20 ADD PUSH2 0x122 JUMP JUMPDEST PUSH2 0x13E PUSH2 0x195 CALLDATASIZE PUSH1 0x4 PUSH2 0xD59 JUMP JUMPDEST PUSH2 0x48B JUMP JUMPDEST PUSH2 0xF5 PUSH32 0x2A55205A00000000000000000000000000000000000000000000000000000000 DUP2 JUMP JUMPDEST PUSH2 0x13E PUSH2 0x1CF CALLDATASIZE PUSH1 0x4 PUSH2 0xDAA JUMP JUMPDEST PUSH2 0x6A3 JUMP JUMPDEST PUSH2 0xF5 PUSH32 0x80AC58CD00000000000000000000000000000000000000000000000000000000 DUP2 JUMP JUMPDEST PUSH2 0x162 PUSH32 0x0 DUP2 JUMP JUMPDEST PUSH2 0x13E PUSH2 0x230 CALLDATASIZE PUSH1 0x4 PUSH2 0xDC3 JUMP JUMPDEST PUSH2 0x74F JUMP JUMPDEST PUSH2 0x13E PUSH2 0x243 CALLDATASIZE PUSH1 0x4 PUSH2 0xDC3 JUMP JUMPDEST PUSH2 0x7CB JUMP JUMPDEST PUSH1 0x40 MLOAD PUSH32 0x1FFC9A700000000000000000000000000000000000000000000000000000000 DUP2 MSTORE PUSH32 0x2A55205A00000000000000000000000000000000000000000000000000000000 PUSH1 0x4 DUP3 ADD MSTORE PUSH20 0xFFFFFFFFFFFFFFFFFFFFFFFFFFFFFFFFFFFFFFFF DUP6 AND SWAP1 PUSH4 0x1FFC9A7 SWAP1 PUSH1 0x24 ADD PUSH1 0x20 PUSH1 0x40 MLOAD DUP1 DUP4 SUB DUP2 DUP7 GAS STATICCALL ISZERO DUP1 ISZERO PUSH2 0x2D2 JUMPI RETURNDATASIZE PUSH1 0x0 DUP1 RETURNDATACOPY RETURNDATASIZE PUSH1 0x0 REVERT JUMPDEST POP POP POP POP PUSH1 0x40 MLOAD RETURNDATASIZE PUSH1 0x1F NOT PUSH1 0x1F DUP3 ADD AND DUP3 ADD DUP1 PUSH1 0x40 MSTORE POP DUP2 ADD SWAP1 PUSH2 0x2F6 SWAP2 SWAP1 PUSH2 0xDE7 JUMP JUMPDEST ISZERO PUSH2 0x362 JUMPI PUSH1 0x40 MLOAD PUSH32 0x8C379A000000000000000000000000000000000000000000000000000000000 DUP2 MSTORE PUSH1 0x20 PUSH1 0x4 DUP3 ADD MSTORE PUSH1 0x14 PUSH1 0x24 DUP3 ADD MSTORE PUSH32 0x204D757374206E6F742062652045524332393831000000000000000000000000 PUSH1 0x44 DUP3 ADD MSTORE PUSH1 0x64 ADD JUMPDEST PUSH1 0x40 MLOAD DUP1 SWAP2 SUB SWAP1 REVERT JUMPDEST DUP4 PUSH20 0xFFFFFFFFFFFFFFFFFFFFFFFFFFFFFFFFFFFFFFFF AND PUSH4 0x8DA5CB5B PUSH1 0x40 MLOAD DUP2 PUSH4 0xFFFFFFFF AND PUSH1 0xE0 SHL DUP2 MSTORE PUSH1 0x4 ADD PUSH1 0x20 PUSH1 0x40 MLOAD DUP1 DUP4 SUB DUP2 DUP7 GAS STATICCALL ISZERO DUP1 ISZERO PUSH2 0x3AD JUMPI RETURNDATASIZE PUSH1 0x0 DUP1 RETURNDATACOPY RETURNDATASIZE PUSH1 0x0 REVERT JUMPDEST POP POP POP POP PUSH1 0x40 MLOAD RETURNDATASIZE PUSH1 0x1F NOT PUSH1 0x1F DUP3 ADD AND DUP3 ADD DUP1 PUSH1 0x40 MSTORE POP DUP2 ADD SWAP1 PUSH2 0x3D1 SWAP2 SWAP1 PUSH2 0xE09 JUMP JUMPDEST PUSH20 0xFFFFFFFFFFFFFFFFFFFFFFFFFFFFFFFFFFFFFFFF AND CALLER PUSH20 0xFFFFFFFFFFFFFFFFFFFFFFFFFFFFFFFFFFFFFFFF AND EQ PUSH2 0x465 JUMPI PUSH1 0x40 MLOAD PUSH32 0x8C379A000000000000000000000000000000000000000000000000000000000 DUP2 MSTORE PUSH1 0x20 PUSH1 0x4 DUP3 ADD MSTORE PUSH1 0xE PUSH1 0x24 DUP3 ADD MSTORE PUSH32 0x204E6F7420746865206F776E6572000000000000000000000000000000000000 PUSH1 0x44 DUP3 ADD MSTORE PUSH1 0x64 ADD PUSH2 0x359 JUMP JUMPDEST PUSH2 0x471 DUP5 DUP5 DUP5 DUP5 PUSH2 0x882 JUMP JUMPDEST POP POP POP POP JUMP JUMPDEST PUSH2 0x47F PUSH2 0xC41 JUMP JUMPDEST PUSH2 0x489 PUSH1 0x0 PUSH2 0xCC2 JUMP JUMPDEST JUMP JUMPDEST PUSH1 0x40 MLOAD PUSH32 0x1FFC9A700000000000000000000000000000000000000000000000000000000 DUP2 MSTORE PUSH32 0x2A55205A00000000000000000000000000000000000000000000000000000000 PUSH1 0x4 DUP3 ADD MSTORE PUSH20 0xFFFFFFFFFFFFFFFFFFFFFFFFFFFFFFFFFFFFFFFF DUP6 AND SWAP1 PUSH4 0x1FFC9A7 SWAP1 PUSH1 0x24 ADD PUSH1 0x20 PUSH1 0x40 MLOAD DUP1 DUP4 SUB DUP2 DUP7 GAS STATICCALL ISZERO DUP1 ISZERO PUSH2 0x515 JUMPI RETURNDATASIZE PUSH1 0x0 DUP1 RETURNDATACOPY RETURNDATASIZE PUSH1 0x0 REVERT JUMPDEST POP POP POP POP PUSH1 0x40 MLOAD RETURNDATASIZE PUSH1 0x1F NOT PUSH1 0x1F DUP3 ADD AND DUP3 ADD DUP1 PUSH1 0x40 MSTORE POP DUP2 ADD SWAP1 PUSH2 0x539 SWAP2 SWAP1 PUSH2 0xDE7 JUMP JUMPDEST ISZERO PUSH2 0x5A0 JUMPI PUSH1 0x40 MLOAD PUSH32 0x8C379A000000000000000000000000000000000000000000000000000000000 DUP2 MSTORE PUSH1 0x20 PUSH1 0x4 DUP3 ADD MSTORE PUSH1 0x14 PUSH1 0x24 DUP3 ADD MSTORE PUSH32 0x204D757374206E6F742062652045524332393831000000000000000000000000 PUSH1 0x44 DUP3 ADD MSTORE PUSH1 0x64 ADD PUSH2 0x359 JUMP JUMPDEST DUP4 PUSH20 0xFFFFFFFFFFFFFFFFFFFFFFFFFFFFFFFFFFFFFFFF AND PUSH4 0xF851A440 PUSH1 0x40 MLOAD DUP2 PUSH4 0xFFFFFFFF AND PUSH1 0xE0 SHL DUP2 MSTORE PUSH1 0x4 ADD PUSH1 0x20 PUSH1 0x40 MLOAD DUP1 DUP4 SUB DUP2 DUP7 GAS STATICCALL ISZERO DUP1 ISZERO PUSH2 0x5EB JUMPI RETURNDATASIZE PUSH1 0x0 DUP1 RETURNDATACOPY RETURNDATASIZE PUSH1 0x0 REVERT JUMPDEST POP POP POP POP PUSH1 0x40 MLOAD RETURNDATASIZE PUSH1 0x1F NOT PUSH1 0x1F DUP3 ADD AND DUP3 ADD DUP1 PUSH1 0x40 MSTORE POP DUP2 ADD SWAP1 PUSH2 0x60F SWAP2 SWAP1 PUSH2 0xE09 JUMP JUMPDEST PUSH20 0xFFFFFFFFFFFFFFFFFFFFFFFFFFFFFFFFFFFFFFFF AND CALLER PUSH20 0xFFFFFFFFFFFFFFFFFFFFFFFFFFFFFFFFFFFFFFFF AND EQ PUSH2 0x465 JUMPI PUSH1 0x40 MLOAD PUSH32 0x8C379A000000000000000000000000000000000000000000000000000000000 DUP2 MSTORE PUSH1 0x20 PUSH1 0x4 DUP3 ADD MSTORE PUSH1 0xE PUSH1 0x24 DUP3 ADD MSTORE PUSH32 0x204E6F74207468652061646D696E000000000000000000000000000000000000 PUSH1 0x44 DUP3 ADD MSTORE PUSH1 0x64 ADD PUSH2 0x359 JUMP JUMPDEST PUSH2 0x6AB PUSH2 0xC41 JUMP JUMPDEST PUSH1 0x40 MLOAD PUSH32 0xB9223C9D00000000000000000000000000000000000000000000000000000000 DUP2 MSTORE PUSH1 0x4 DUP2 ADD DUP3 SWAP1 MSTORE PUSH32 0x0 PUSH20 0xFFFFFFFFFFFFFFFFFFFFFFFFFFFFFFFFFFFFFFFF AND SWAP1 PUSH4 0xB9223C9D SWAP1 PUSH1 0x24 ADD JUMPDEST PUSH1 0x0 PUSH1 0x40 MLOAD DUP1 DUP4 SUB DUP2 PUSH1 0x0 DUP8 DUP1 EXTCODESIZE ISZERO DUP1 ISZERO PUSH2 0x734 JUMPI PUSH1 0x0 DUP1 REVERT JUMPDEST POP GAS CALL ISZERO DUP1 ISZERO PUSH2 0x748 JUMPI RETURNDATASIZE PUSH1 0x0 DUP1 RETURNDATACOPY RETURNDATASIZE PUSH1 0x0 REVERT JUMPDEST POP POP POP POP POP JUMP JUMPDEST PUSH2 0x757 PUSH2 0xC41 JUMP JUMPDEST PUSH1 0x40 MLOAD PUSH32 0xF2FDE38B00000000000000000000000000000000000000000000000000000000 DUP2 MSTORE PUSH20 0xFFFFFFFFFFFFFFFFFFFFFFFFFFFFFFFFFFFFFFFF DUP3 DUP2 AND PUSH1 0x4 DUP4 ADD MSTORE PUSH32 0x0 AND SWAP1 PUSH4 0xF2FDE38B SWAP1 PUSH1 0x24 ADD PUSH2 0x71A JUMP JUMPDEST PUSH2 0x7D3 PUSH2 0xC41 JUMP JUMPDEST PUSH20 0xFFFFFFFFFFFFFFFFFFFFFFFFFFFFFFFFFFFFFFFF DUP2 AND PUSH2 0x876 JUMPI PUSH1 0x40 MLOAD PUSH32 0x8C379A000000000000000000000000000000000000000000000000000000000 DUP2 MSTORE PUSH1 0x20 PUSH1 0x4 DUP3 ADD MSTORE PUSH1 0x26 PUSH1 0x24 DUP3 ADD MSTORE PUSH32 0x4F776E61626C653A206E6577206F776E657220697320746865207A65726F2061 PUSH1 0x44 DUP3 ADD MSTORE PUSH32 0x6464726573730000000000000000000000000000000000000000000000000000 PUSH1 0x64 DUP3 ADD MSTORE PUSH1 0x84 ADD PUSH2 0x359 JUMP JUMPDEST PUSH2 0x87F DUP2 PUSH2 0xCC2 JUMP JUMPDEST POP JUMP JUMPDEST PUSH1 0x40 MLOAD PUSH32 0xE31EF91C00000000000000000000000000000000000000000000000000000000 DUP2 MSTORE PUSH20 0xFFFFFFFFFFFFFFFFFFFFFFFFFFFFFFFFFFFFFFFF DUP6 DUP2 AND PUSH1 0x4 DUP4 ADD MSTORE PUSH1 0x0 SWAP2 PUSH32 0x0 SWAP1 SWAP2 AND SWAP1 PUSH4 0xE31EF91C SWAP1 PUSH1 0x24 ADD PUSH1 0x60 PUSH1 0x40 MLOAD DUP1 DUP4 SUB DUP2 DUP7 GAS STATICCALL ISZERO DUP1 ISZERO PUSH2 0x913 JUMPI RETURNDATASIZE PUSH1 0x0 DUP1 RETURNDATACOPY RETURNDATASIZE PUSH1 0x0 REVERT JUMPDEST POP POP POP POP PUSH1 0x40 MLOAD RETURNDATASIZE PUSH1 0x1F NOT PUSH1 0x1F DUP3 ADD AND DUP3 ADD DUP1 PUSH1 0x40 MSTORE POP DUP2 ADD SWAP1 PUSH2 0x937 SWAP2 SWAP1 PUSH2 0xE26 JUMP JUMPDEST POP SWAP1 SWAP2 POP POP PUSH20 0xFFFFFFFFFFFFFFFFFFFFFFFFFFFFFFFFFFFFFFFF DUP2 AND ISZERO PUSH2 0x9BA JUMPI PUSH1 0x40 MLOAD PUSH32 0x8C379A000000000000000000000000000000000000000000000000000000000 DUP2 MSTORE PUSH1 0x20 PUSH1 0x4 DUP3 ADD MSTORE PUSH1 0xB PUSH1 0x24 DUP3 ADD MSTORE PUSH32 0x416C726561647920736574000000000000000000000000000000000000000000 PUSH1 0x44 DUP3 ADD MSTORE PUSH1 0x64 ADD PUSH2 0x359 JUMP JUMPDEST PUSH1 0x40 MLOAD PUSH32 0x1FFC9A700000000000000000000000000000000000000000000000000000000 DUP2 MSTORE PUSH32 0x80AC58CD00000000000000000000000000000000000000000000000000000000 PUSH1 0x4 DUP3 ADD MSTORE PUSH20 0xFFFFFFFFFFFFFFFFFFFFFFFFFFFFFFFFFFFFFFFF DUP7 AND SWAP1 PUSH4 0x1FFC9A7 SWAP1 PUSH1 0x24 ADD PUSH1 0x20 PUSH1 0x40 MLOAD DUP1 DUP4 SUB DUP2 DUP7 GAS STATICCALL ISZERO DUP1 ISZERO PUSH2 0xA44 JUMPI RETURNDATASIZE PUSH1 0x0 DUP1 RETURNDATACOPY RETURNDATASIZE PUSH1 0x0 REVERT JUMPDEST POP POP POP POP PUSH1 0x40 MLOAD RETURNDATASIZE PUSH1 0x1F NOT PUSH1 0x1F DUP3 ADD AND DUP3 ADD DUP1 PUSH1 0x40 MSTORE POP DUP2 ADD SWAP1 PUSH2 0xA68 SWAP2 SWAP1 PUSH2 0xDE7 JUMP JUMPDEST DUP1 PUSH2 0xB1C JUMPI POP PUSH1 0x40 MLOAD PUSH32 0x1FFC9A700000000000000000000000000000000000000000000000000000000 DUP2 MSTORE PUSH32 0xD9B67A2600000000000000000000000000000000000000000000000000000000 PUSH1 0x4 DUP3 ADD MSTORE PUSH20 0xFFFFFFFFFFFFFFFFFFFFFFFFFFFFFFFFFFFFFFFF DUP7 AND SWAP1 PUSH4 0x1FFC9A7 SWAP1 PUSH1 0x24 ADD PUSH1 0x20 PUSH1 0x40 MLOAD DUP1 DUP4 SUB DUP2 DUP7 GAS STATICCALL ISZERO DUP1 ISZERO PUSH2 0xAF8 JUMPI RETURNDATASIZE PUSH1 0x0 DUP1 RETURNDATACOPY RETURNDATASIZE PUSH1 0x0 REVERT JUMPDEST POP POP POP POP PUSH1 0x40 MLOAD RETURNDATASIZE PUSH1 0x1F NOT PUSH1 0x1F DUP3 ADD AND DUP3 ADD DUP1 PUSH1 0x40 MSTORE POP DUP2 ADD SWAP1 PUSH2 0xB1C SWAP2 SWAP1 PUSH2 0xDE7 JUMP JUMPDEST PUSH2 0xB82 JUMPI PUSH1 0x40 MLOAD PUSH32 0x8C379A000000000000000000000000000000000000000000000000000000000 DUP2 MSTORE PUSH1 0x20 PUSH1 0x4 DUP3 ADD MSTORE PUSH1 0x1A PUSH1 0x24 DUP3 ADD MSTORE PUSH32 0x204E6F7420536574206F66204552433732312F45524331313535000000000000 PUSH1 0x44 DUP3 ADD MSTORE PUSH1 0x64 ADD PUSH2 0x359 JUMP JUMPDEST PUSH1 0x40 MLOAD PUSH32 0xBBDF9B6800000000000000000000000000000000000000000000000000000000 DUP2 MSTORE PUSH20 0xFFFFFFFFFFFFFFFFFFFFFFFFFFFFFFFFFFFFFFFF DUP7 DUP2 AND PUSH1 0x4 DUP4 ADD MSTORE DUP6 DUP2 AND PUSH1 0x24 DUP4 ADD MSTORE DUP5 DUP2 AND PUSH1 0x44 DUP4 ADD MSTORE PUSH1 0x64 DUP3 ADD DUP5 SWAP1 MSTORE PUSH32 0x0 AND SWAP1 PUSH4 0xBBDF9B68 SWAP1 PUSH1 0x84 ADD PUSH1 0x0 PUSH1 0x40 MLOAD DUP1 DUP4 SUB DUP2 PUSH1 0x0 DUP8 DUP1 EXTCODESIZE ISZERO DUP1 ISZERO PUSH2 0xC22 JUMPI PUSH1 0x0 DUP1 REVERT JUMPDEST POP GAS CALL ISZERO DUP1 ISZERO PUSH2 0xC36 JUMPI RETURNDATASIZE PUSH1 0x0 DUP1 RETURNDATACOPY RETURNDATASIZE PUSH1 0x0 REVERT JUMPDEST POP POP POP POP POP POP POP POP POP JUMP JUMPDEST PUSH1 0x0 SLOAD PUSH20 0xFFFFFFFFFFFFFFFFFFFFFFFFFFFFFFFFFFFFFFFF AND CALLER EQ PUSH2 0x489 JUMPI PUSH1 0x40 MLOAD PUSH32 0x8C379A000000000000000000000000000000000000000000000000000000000 DUP2 MSTORE PUSH1 0x20 PUSH1 0x4 DUP3 ADD DUP2 SWAP1 MSTORE PUSH1 0x24 DUP3 ADD MSTORE PUSH32 0x4F776E61626C653A2063616C6C6572206973206E6F7420746865206F776E6572 PUSH1 0x44 DUP3 ADD MSTORE PUSH1 0x64 ADD PUSH2 0x359 JUMP JUMPDEST PUSH1 0x0 DUP1 SLOAD PUSH20 0xFFFFFFFFFFFFFFFFFFFFFFFFFFFFFFFFFFFFFFFF DUP4 DUP2 AND PUSH32 0xFFFFFFFFFFFFFFFFFFFFFFFF0000000000000000000000000000000000000000 DUP4 AND DUP2 OR DUP5 SSTORE PUSH1 0x40 MLOAD SWAP2 SWAP1 SWAP3 AND SWAP3 DUP4 SWAP2 PUSH32 0x8BE0079C531659141344CD1FD0A4F28419497F9722A3DAAFE3B4186F6B6457E0 SWAP2 SWAP1 LOG3 POP POP JUMP JUMPDEST PUSH20 0xFFFFFFFFFFFFFFFFFFFFFFFFFFFFFFFFFFFFFFFF DUP2 AND DUP2 EQ PUSH2 0x87F JUMPI PUSH1 0x0 DUP1 REVERT JUMPDEST PUSH1 0x0 DUP1 PUSH1 0x0 DUP1 PUSH1 0x80 DUP6 DUP8 SUB SLT ISZERO PUSH2 0xD6F JUMPI PUSH1 0x0 DUP1 REVERT JUMPDEST DUP5 CALLDATALOAD PUSH2 0xD7A DUP2 PUSH2 0xD37 JUMP JUMPDEST SWAP4 POP PUSH1 0x20 DUP6 ADD CALLDATALOAD PUSH2 0xD8A DUP2 PUSH2 0xD37 JUMP JUMPDEST SWAP3 POP PUSH1 0x40 DUP6 ADD CALLDATALOAD PUSH2 0xD9A DUP2 PUSH2 0xD37 JUMP JUMPDEST SWAP4 SWAP7 SWAP3 SWAP6 POP SWAP3 SWAP4 PUSH1 0x60 ADD CALLDATALOAD SWAP3 POP POP JUMP JUMPDEST PUSH1 0x0 PUSH1 0x20 DUP3 DUP5 SUB SLT ISZERO PUSH2 0xDBC JUMPI PUSH1 0x0 DUP1 REVERT JUMPDEST POP CALLDATALOAD SWAP2 SWAP1 POP JUMP JUMPDEST PUSH1 0x0 PUSH1 0x20 DUP3 DUP5 SUB SLT ISZERO PUSH2 0xDD5 JUMPI PUSH1 0x0 DUP1 REVERT JUMPDEST DUP2 CALLDATALOAD PUSH2 0xDE0 DUP2 PUSH2 0xD37 JUMP JUMPDEST SWAP4 SWAP3 POP POP POP JUMP JUMPDEST PUSH1 0x0 PUSH1 0x20 DUP3 DUP5 SUB SLT ISZERO PUSH2 0xDF9 JUMPI PUSH1 0x0 DUP1 REVERT JUMPDEST DUP2 MLOAD DUP1 ISZERO ISZERO DUP2 EQ PUSH2 0xDE0 JUMPI PUSH1 0x0 DUP1 REVERT JUMPDEST PUSH1 0x0 PUSH1 0x20 DUP3 DUP5 SUB SLT ISZERO PUSH2 0xE1B JUMPI PUSH1 0x0 DUP1 REVERT JUMPDEST DUP2 MLOAD PUSH2 0xDE0 DUP2 PUSH2 0xD37 JUMP JUMPDEST PUSH1 0x0 DUP1 PUSH1 0x0 PUSH1 0x60 DUP5 DUP7 SUB SLT ISZERO PUSH2 0xE3B JUMPI PUSH1 0x0 DUP1 REVERT JUMPDEST DUP4 MLOAD PUSH2 0xE46 DUP2 PUSH2 0xD37 JUMP JUMPDEST PUSH1 0x20 DUP6 ADD MLOAD SWAP1 SWAP4 POP PUSH2 0xE57 DUP2 PUSH2 0xD37 JUMP JUMPDEST DUP1 SWAP3 POP POP PUSH1 0x40 DUP5 ADD MLOAD SWAP1 POP SWAP3 POP SWAP3 POP SWAP3 JUMP INVALID LOG2 PUSH5 0x6970667358 0x22 SLT KECCAK256 CALLDATALOAD 0xE0 PUSH1 0xF4 CHAINID 0xB0 0xB6 0xDC 0xB5 ORIGIN 0xB6 SWAP14 DUP2 JUMPI 0xF9 PUSH14 0x9269200815A55C6B43EFABEEF121 DUP6 0xA9 PUSH5 0x736F6C6343 STOP ADDMOD GT STOP CALLER "
				},
				"gasEstimates": {
					"creation": {
						"codeDepositCost": "748600",
						"executionCost": "infinite",
						"totalCost": "infinite"
					},
					"external": {
						"INTERFACE_ID_ERC1155()": "217",
						"INTERFACE_ID_ERC2981()": "216",
						"INTERFACE_ID_ERC721()": "260",
						"owner()": "2341",
						"renounceOwnership()": "infinite",
						"royaltyFeeRegistry()": "infinite",
						"transferOwnership(address)": "infinite",
						"updateOwnerOfRoyaltyFeeRegistry(address)": "infinite",
						"updateRoyaltyFeeLimit(uint256)": "infinite",
						"updateRoyaltyInfoForCollectionIfAdmin(address,address,address,uint256)": "infinite",
						"updateRoyaltyInfoForCollectionIfOwner(address,address,address,uint256)": "infinite"
					},
					"internal": {
						"_updateRoyaltyInfoForCollectionIfOwnerOrAdmin(address,address,address,uint256)": "infinite"
					}
				},
				"methodIdentifiers": {
					"INTERFACE_ID_ERC1155()": "33bf6156",
					"INTERFACE_ID_ERC2981()": "b060dd86",
					"INTERFACE_ID_ERC721()": "bc6bc0cd",
					"owner()": "8da5cb5b",
					"renounceOwnership()": "715018a6",
					"royaltyFeeRegistry()": "c16f5156",
					"transferOwnership(address)": "f2fde38b",
					"updateOwnerOfRoyaltyFeeRegistry(address)": "e72ba456",
					"updateRoyaltyFeeLimit(uint256)": "b9223c9d",
					"updateRoyaltyInfoForCollectionIfAdmin(address,address,address,uint256)": "ab016670",
					"updateRoyaltyInfoForCollectionIfOwner(address,address,address,uint256)": "3755fa80"
				}
			},
			"storageLayout": {
				"storage": [
					{
						"astId": 7,
						"contract": "contracts/Manager/royalty/RoyaltyFeeSetter.sol:RoyaltyFeeSetter",
						"label": "_owner",
						"offset": 0,
						"slot": "0",
						"type": "t_address"
					}
				],
				"types": {
					"t_address": {
						"encoding": "inplace",
						"label": "address",
						"numberOfBytes": "20"
					}
				}
			},
			"userdoc": {
				"kind": "user",
				"methods": {},
				"version": 1
			}
		}
	}
}