{
	"contracts/Manager/royalty/RoyaltyFeeRegistry.sol": {
		"RoyaltyFeeRegistry": {
			"abi": [
				{
					"inputs": [
						{
							"internalType": "uint256",
							"name": "_royaltyFeeLimit",
							"type": "uint256"
						}
					],
					"stateMutability": "nonpayable",
					"type": "constructor"
				},
				{
					"anonymous": false,
					"inputs": [
						{
							"indexed": false,
							"internalType": "uint256",
							"name": "royaltyFeeLimit",
							"type": "uint256"
						}
					],
					"name": "NewRoyaltyFeeLimit",
					"type": "event"
				},
				{
					"anonymous": false,
					"inputs": [
						{
							"indexed": true,
							"internalType": "address",
							"name": "previousOwner",
							"type": "address"
						},
						{
							"indexed": true,
							"internalType": "address",
							"name": "newOwner",
							"type": "address"
						}
					],
					"name": "OwnershipTransferred",
					"type": "event"
				},
				{
					"anonymous": false,
					"inputs": [
						{
							"indexed": true,
							"internalType": "address",
							"name": "collection",
							"type": "address"
						},
						{
							"indexed": true,
							"internalType": "address",
							"name": "setter",
							"type": "address"
						},
						{
							"indexed": true,
							"internalType": "address",
							"name": "receiver",
							"type": "address"
						},
						{
							"indexed": false,
							"internalType": "uint256",
							"name": "fee",
							"type": "uint256"
						}
					],
					"name": "RoyaltyFeeUpdate",
					"type": "event"
				},
				{
					"inputs": [],
					"name": "INTERFACE_ID_ERC1155",
					"outputs": [
						{
							"internalType": "bytes4",
							"name": "",
							"type": "bytes4"
						}
					],
					"stateMutability": "view",
					"type": "function"
				},
				{
					"inputs": [],
					"name": "INTERFACE_ID_ERC2981",
					"outputs": [
						{
							"internalType": "bytes4",
							"name": "",
							"type": "bytes4"
						}
					],
					"stateMutability": "view",
					"type": "function"
				},
				{
					"inputs": [],
					"name": "INTERFACE_ID_ERC721",
					"outputs": [
						{
							"internalType": "bytes4",
							"name": "",
							"type": "bytes4"
						}
					],
					"stateMutability": "view",
					"type": "function"
				},
				{
					"inputs": [
						{
							"internalType": "address",
							"name": "collection",
							"type": "address"
						}
					],
					"name": "checkForCollectionSetter",
					"outputs": [
						{
							"internalType": "address",
							"name": "",
							"type": "address"
						},
						{
							"internalType": "uint8",
							"name": "",
							"type": "uint8"
						}
					],
					"stateMutability": "view",
					"type": "function"
				},
				{
					"inputs": [],
					"name": "owner",
					"outputs": [
						{
							"internalType": "address",
							"name": "",
							"type": "address"
						}
					],
					"stateMutability": "view",
					"type": "function"
				},
				{
					"inputs": [],
					"name": "renounceOwnership",
					"outputs": [],
					"stateMutability": "nonpayable",
					"type": "function"
				},
				{
					"inputs": [
						{
							"internalType": "address",
							"name": "collection",
							"type": "address"
						}
					],
					"name": "royaltyFeeInfoCollection",
					"outputs": [
						{
							"internalType": "address",
							"name": "",
							"type": "address"
						},
						{
							"internalType": "address",
							"name": "",
							"type": "address"
						},
						{
							"internalType": "uint256",
							"name": "",
							"type": "uint256"
						}
					],
					"stateMutability": "view",
					"type": "function"
				},
				{
					"inputs": [],
					"name": "royaltyFeeLimit",
					"outputs": [
						{
							"internalType": "uint256",
							"name": "",
							"type": "uint256"
						}
					],
					"stateMutability": "view",
					"type": "function"
				},
				{
					"inputs": [
						{
							"internalType": "address",
							"name": "collection",
							"type": "address"
						},
						{
							"internalType": "uint256",
							"name": "amount",
							"type": "uint256"
						}
					],
					"name": "royaltyInfo",
					"outputs": [
						{
							"internalType": "address",
							"name": "",
							"type": "address"
						},
						{
							"internalType": "uint256",
							"name": "",
							"type": "uint256"
						}
					],
					"stateMutability": "view",
					"type": "function"
				},
				{
					"inputs": [
						{
							"internalType": "address",
							"name": "newOwner",
							"type": "address"
						}
					],
					"name": "transferOwnership",
					"outputs": [],
					"stateMutability": "nonpayable",
					"type": "function"
				},
				{
					"inputs": [
						{
							"internalType": "uint256",
							"name": "_royaltyFeeLimit",
							"type": "uint256"
						}
					],
					"name": "updateRoyaltyFeeLimit",
					"outputs": [],
					"stateMutability": "nonpayable",
					"type": "function"
				}
			],
			"devdoc": {
				"kind": "dev",
				"methods": {
					"owner()": {
						"details": "Returns the address of the current owner."
					},
					"renounceOwnership()": {
						"details": "Leaves the contract without owner. It will not be possible to call `onlyOwner` functions anymore. Can only be called by the current owner. NOTE: Renouncing ownership will leave the contract without an owner, thereby removing any functionality that is only available to the owner."
					},
					"transferOwnership(address)": {
						"details": "Transfers ownership of the contract to a new account (`newOwner`). Can only be called by the current owner."
					}
				},
				"version": 1
			},
			"evm": {
				"assembly": "    /* \"contracts/Manager/royalty/RoyaltyFeeRegistry.sol\":357:3855  contract RoyaltyFeeRegistry is IRoyaltyFeeRegistry, Ownable {... */\n  mstore(0x40, 0x80)\n    /* \"contracts/Manager/royalty/RoyaltyFeeRegistry.sol\":1194:1398  constructor(uint256 _royaltyFeeLimit) {... */\n  callvalue\n  dup1\n  iszero\n  tag_1\n  jumpi\n  0x00\n  dup1\n  revert\ntag_1:\n  pop\n  mload(0x40)\n  sub(codesize, bytecodeSize)\n  dup1\n  bytecodeSize\n  dup4\n  codecopy\n  dup2\n  add\n  0x40\n  dup2\n  swap1\n  mstore\n  tag_2\n  swap2\n  tag_3\n  jump\t// in\ntag_2:\n    /* \"@openzeppelin/contracts/access/Ownable.sol\":936:968  _transferOwnership(_msgSender()) */\n  tag_7\n    /* \"@openzeppelin/contracts/utils/Context.sol\":719:729  msg.sender */\n  caller\n    /* \"@openzeppelin/contracts/access/Ownable.sol\":936:954  _transferOwnership */\n  tag_10\n    /* \"@openzeppelin/contracts/access/Ownable.sol\":936:968  _transferOwnership(_msgSender()) */\n  jump\t// in\ntag_7:\n    /* \"contracts/Manager/royalty/RoyaltyFeeRegistry.sol\":1312:1316  9500 */\n  0x251c\n    /* \"contracts/Manager/royalty/RoyaltyFeeRegistry.sol\":1292:1308  _royaltyFeeLimit */\n  dup2\n    /* \"contracts/Manager/royalty/RoyaltyFeeRegistry.sol\":1292:1316  _royaltyFeeLimit <= 9500 */\n  gt\n  iszero\n    /* \"contracts/Manager/royalty/RoyaltyFeeRegistry.sol\":1284:1347  require(_royaltyFeeLimit <= 9500, \"Royalty fee limit too high\") */\n  tag_12\n  jumpi\n  mload(0x40)\n  shl(0xe5, 0x461bcd)\n  dup2\n  mstore\n    /* \"#utility.yul\":405:407   */\n  0x20\n    /* \"contracts/Manager/royalty/RoyaltyFeeRegistry.sol\":1284:1347  require(_royaltyFeeLimit <= 9500, \"Royalty fee limit too high\") */\n  0x04\n  dup3\n  add\n    /* \"#utility.yul\":387:408   */\n  mstore\n    /* \"#utility.yul\":444:446   */\n  0x1a\n    /* \"#utility.yul\":424:442   */\n  0x24\n  dup3\n  add\n    /* \"#utility.yul\":417:447   */\n  mstore\n    /* \"#utility.yul\":483:511   */\n  0x526f79616c747920666565206c696d697420746f6f2068696768000000000000\n    /* \"#utility.yul\":463:481   */\n  0x44\n  dup3\n  add\n    /* \"#utility.yul\":456:512   */\n  mstore\n    /* \"#utility.yul\":529:547   */\n  0x64\n  add\n    /* \"contracts/Manager/royalty/RoyaltyFeeRegistry.sol\":1284:1347  require(_royaltyFeeLimit <= 9500, \"Royalty fee limit too high\") */\n  mload(0x40)\n  dup1\n  swap2\n  sub\n  swap1\n  revert\ntag_12:\n    /* \"contracts/Manager/royalty/RoyaltyFeeRegistry.sol\":1357:1372  royaltyFeeLimit */\n  0x01\n    /* \"contracts/Manager/royalty/RoyaltyFeeRegistry.sol\":1357:1391  royaltyFeeLimit = _royaltyFeeLimit */\n  sstore\n    /* \"contracts/Manager/royalty/RoyaltyFeeRegistry.sol\":357:3855  contract RoyaltyFeeRegistry is IRoyaltyFeeRegistry, Ownable {... */\n  jump(tag_18)\n    /* \"@openzeppelin/contracts/access/Ownable.sol\":2433:2620  function _transferOwnership(address newOwner) internal virtual {... */\ntag_10:\n    /* \"@openzeppelin/contracts/access/Ownable.sol\":2506:2522  address oldOwner */\n  0x00\n    /* \"@openzeppelin/contracts/access/Ownable.sol\":2525:2531  _owner */\n  dup1\n  sload\n  sub(shl(0xa0, 0x01), 0x01)\n    /* \"@openzeppelin/contracts/access/Ownable.sol\":2541:2558  _owner = newOwner */\n  dup4\n  dup2\n  and\n  not(sub(shl(0xa0, 0x01), 0x01))\n  dup4\n  and\n  dup2\n  or\n  dup5\n  sstore\n    /* \"@openzeppelin/contracts/access/Ownable.sol\":2573:2613  OwnershipTransferred(oldOwner, newOwner) */\n  mload(0x40)\n    /* \"@openzeppelin/contracts/access/Ownable.sol\":2525:2531  _owner */\n  swap2\n  swap1\n  swap3\n  and\n  swap3\n  dup4\n  swap2\n    /* \"@openzeppelin/contracts/access/Ownable.sol\":2573:2613  OwnershipTransferred(oldOwner, newOwner) */\n  0x8be0079c531659141344cd1fd0a4f28419497f9722a3daafe3b4186f6b6457e0\n  swap2\n    /* \"@openzeppelin/contracts/access/Ownable.sol\":2506:2522  address oldOwner */\n  swap1\n    /* \"@openzeppelin/contracts/access/Ownable.sol\":2573:2613  OwnershipTransferred(oldOwner, newOwner) */\n  log3\n    /* \"@openzeppelin/contracts/access/Ownable.sol\":2496:2620  {... */\n  pop\n    /* \"@openzeppelin/contracts/access/Ownable.sol\":2433:2620  function _transferOwnership(address newOwner) internal virtual {... */\n  pop\n  jump\t// out\n    /* \"#utility.yul\":14:198   */\ntag_3:\n    /* \"#utility.yul\":84:90   */\n  0x00\n    /* \"#utility.yul\":137:139   */\n  0x20\n    /* \"#utility.yul\":125:134   */\n  dup3\n    /* \"#utility.yul\":116:123   */\n  dup5\n    /* \"#utility.yul\":112:135   */\n  sub\n    /* \"#utility.yul\":108:140   */\n  slt\n    /* \"#utility.yul\":105:157   */\n  iszero\n  tag_20\n  jumpi\n    /* \"#utility.yul\":153:154   */\n  0x00\n    /* \"#utility.yul\":150:151   */\n  dup1\n    /* \"#utility.yul\":143:155   */\n  revert\n    /* \"#utility.yul\":105:157   */\ntag_20:\n  pop\n    /* \"#utility.yul\":176:192   */\n  mload\n  swap2\n    /* \"#utility.yul\":14:198   */\n  swap1\n  pop\n  jump\t// out\n    /* \"#utility.yul\":203:553   */\ntag_18:\n    /* \"contracts/Manager/royalty/RoyaltyFeeRegistry.sol\":357:3855  contract RoyaltyFeeRegistry is IRoyaltyFeeRegistry, Ownable {... */\n  dataSize(sub_0)\n  dup1\n  dataOffset(sub_0)\n  0x00\n  codecopy\n  0x00\n  return\nstop\n\nsub_0: assembly {\n        /* \"contracts/Manager/royalty/RoyaltyFeeRegistry.sol\":357:3855  contract RoyaltyFeeRegistry is IRoyaltyFeeRegistry, Ownable {... */\n      mstore(0x40, 0x80)\n      callvalue\n      dup1\n      iszero\n      tag_1\n      jumpi\n      0x00\n      dup1\n      revert\n    tag_1:\n      pop\n      jumpi(tag_2, lt(calldatasize, 0x04))\n      shr(0xe0, calldataload(0x00))\n      dup1\n      0xb060dd86\n      gt\n      tag_14\n      jumpi\n      dup1\n      0xc54e5497\n      gt\n      tag_15\n      jumpi\n      dup1\n      0xc54e5497\n      eq\n      tag_11\n      jumpi\n      dup1\n      0xe31ef91c\n      eq\n      tag_12\n      jumpi\n      dup1\n      0xf2fde38b\n      eq\n      tag_13\n      jumpi\n      0x00\n      dup1\n      revert\n    tag_15:\n      dup1\n      0xb060dd86\n      eq\n      tag_8\n      jumpi\n      dup1\n      0xb9223c9d\n      eq\n      tag_9\n      jumpi\n      dup1\n      0xbc6bc0cd\n      eq\n      tag_10\n      jumpi\n      0x00\n      dup1\n      revert\n    tag_14:\n      dup1\n      0x4fb7d3f9\n      gt\n      tag_16\n      jumpi\n      dup1\n      0x4fb7d3f9\n      eq\n      tag_5\n      jumpi\n      dup1\n      0x715018a6\n      eq\n      tag_6\n      jumpi\n      dup1\n      0x8da5cb5b\n      eq\n      tag_7\n      jumpi\n      0x00\n      dup1\n      revert\n    tag_16:\n      dup1\n      0x2782d6c7\n      eq\n      tag_3\n      jumpi\n      dup1\n      0x33bf6156\n      eq\n      tag_4\n      jumpi\n    tag_2:\n      0x00\n      dup1\n      revert\n        /* \"contracts/Manager/royalty/RoyaltyFeeRegistry.sol\":2340:2607  function royaltyInfo(address collection, uint256 amount) external view override returns (address, uint256) {... */\n    tag_3:\n      tag_17\n      tag_18\n      calldatasize\n      0x04\n      tag_19\n      jump\t// in\n    tag_18:\n      tag_20\n      jump\t// in\n    tag_17:\n      0x40\n      dup1\n      mload\n        /* \"#utility.yul\":697:739   */\n      0xffffffffffffffffffffffffffffffffffffffff\n        /* \"#utility.yul\":685:740   */\n      swap1\n      swap4\n      and\n        /* \"#utility.yul\":667:741   */\n      dup4\n      mstore\n        /* \"#utility.yul\":772:774   */\n      0x20\n        /* \"#utility.yul\":757:775   */\n      dup4\n      add\n        /* \"#utility.yul\":750:784   */\n      swap2\n      swap1\n      swap2\n      mstore\n        /* \"#utility.yul\":640:658   */\n      add\n        /* \"contracts/Manager/royalty/RoyaltyFeeRegistry.sol\":2340:2607  function royaltyInfo(address collection, uint256 amount) external view override returns (address, uint256) {... */\n    tag_21:\n      mload(0x40)\n      dup1\n      swap2\n      sub\n      swap1\n      return\n        /* \"contracts/Manager/royalty/RoyaltyFeeRegistry.sol\":639:695  bytes4 public constant INTERFACE_ID_ERC1155 = 0xd9b67a26 */\n    tag_4:\n      tag_23\n      0xd9b67a2600000000000000000000000000000000000000000000000000000000\n      dup2\n      jump\n    tag_23:\n      mload(0x40)\n        /* \"#utility.yul\":969:1035   */\n      0xffffffff00000000000000000000000000000000000000000000000000000000\n        /* \"#utility.yul\":957:1036   */\n      swap1\n      swap2\n      and\n        /* \"#utility.yul\":939:1037   */\n      dup2\n      mstore\n        /* \"#utility.yul\":927:929   */\n      0x20\n        /* \"#utility.yul\":912:930   */\n      add\n        /* \"contracts/Manager/royalty/RoyaltyFeeRegistry.sol\":639:695  bytes4 public constant INTERFACE_ID_ERC1155 = 0xd9b67a26 */\n      tag_21\n        /* \"#utility.yul\":795:1043   */\n      jump\n        /* \"contracts/Manager/royalty/RoyaltyFeeRegistry.sol\":840:870  uint256 public royaltyFeeLimit */\n    tag_5:\n      tag_27\n      sload(0x01)\n      dup2\n      jump\n    tag_27:\n      mload(0x40)\n        /* \"#utility.yul\":1194:1219   */\n      swap1\n      dup2\n      mstore\n        /* \"#utility.yul\":1182:1184   */\n      0x20\n        /* \"#utility.yul\":1167:1185   */\n      add\n        /* \"contracts/Manager/royalty/RoyaltyFeeRegistry.sol\":840:870  uint256 public royaltyFeeLimit */\n      tag_21\n        /* \"#utility.yul\":1048:1225   */\n      jump\n        /* \"@openzeppelin/contracts/access/Ownable.sol\":1831:1932  function renounceOwnership() public virtual onlyOwner {... */\n    tag_6:\n      tag_31\n      tag_32\n      jump\t// in\n    tag_31:\n      stop\n        /* \"@openzeppelin/contracts/access/Ownable.sol\":1201:1286  function owner() public view virtual returns (address) {... */\n    tag_7:\n        /* \"@openzeppelin/contracts/access/Ownable.sol\":1247:1254  address */\n      0x00\n        /* \"@openzeppelin/contracts/access/Ownable.sol\":1273:1279  _owner */\n      sload\n        /* \"@openzeppelin/contracts/access/Ownable.sol\":1201:1286  function owner() public view virtual returns (address) {... */\n      mload(0x40)\n        /* \"@openzeppelin/contracts/access/Ownable.sol\":1273:1279  _owner */\n      0xffffffffffffffffffffffffffffffffffffffff\n      swap1\n      swap2\n      and\n        /* \"#utility.yul\":1376:1450   */\n      dup2\n      mstore\n        /* \"#utility.yul\":1364:1366   */\n      0x20\n        /* \"#utility.yul\":1349:1367   */\n      add\n        /* \"@openzeppelin/contracts/access/Ownable.sol\":1201:1286  function owner() public view virtual returns (address) {... */\n      tag_21\n        /* \"#utility.yul\":1230:1456   */\n      jump\n        /* \"contracts/Manager/royalty/RoyaltyFeeRegistry.sol\":729:785  bytes4 public constant INTERFACE_ID_ERC2981 = 0x2a55205a */\n    tag_8:\n      tag_23\n      0x2a55205a00000000000000000000000000000000000000000000000000000000\n      dup2\n      jump\n        /* \"contracts/Manager/royalty/RoyaltyFeeRegistry.sol\":1460:1763  function updateRoyaltyFeeLimit(uint256 _royaltyFeeLimit) external override onlyOwner {... */\n    tag_9:\n      tag_31\n      tag_41\n      calldatasize\n      0x04\n      tag_42\n      jump\t// in\n    tag_41:\n      tag_43\n      jump\t// in\n        /* \"contracts/Manager/royalty/RoyaltyFeeRegistry.sol\":550:605  bytes4 public constant INTERFACE_ID_ERC721 = 0x80ac58cd */\n    tag_10:\n      tag_23\n      0x80ac58cd00000000000000000000000000000000000000000000000000000000\n      dup2\n      jump\n        /* \"contracts/Manager/royalty/RoyaltyFeeRegistry.sol\":3225:3853  function checkForCollectionSetter(address collection) external view returns (address, uint8) {... */\n    tag_11:\n      tag_47\n      tag_48\n      calldatasize\n      0x04\n      tag_49\n      jump\t// in\n    tag_48:\n      tag_50\n      jump\t// in\n    tag_47:\n      0x40\n      dup1\n      mload\n        /* \"#utility.yul\":2098:2140   */\n      0xffffffffffffffffffffffffffffffffffffffff\n        /* \"#utility.yul\":2086:2141   */\n      swap1\n      swap4\n      and\n        /* \"#utility.yul\":2068:2142   */\n      dup4\n      mstore\n        /* \"#utility.yul\":2190:2194   */\n      0xff\n        /* \"#utility.yul\":2178:2195   */\n      swap1\n      swap2\n      and\n        /* \"#utility.yul\":2173:2175   */\n      0x20\n        /* \"#utility.yul\":2158:2176   */\n      dup4\n      add\n        /* \"#utility.yul\":2151:2196   */\n      mstore\n        /* \"#utility.yul\":2041:2059   */\n      add\n        /* \"contracts/Manager/royalty/RoyaltyFeeRegistry.sol\":3225:3853  function checkForCollectionSetter(address collection) external view returns (address, uint8) {... */\n      tag_21\n        /* \"#utility.yul\":1898:2202   */\n      jump\n        /* \"contracts/Manager/royalty/RoyaltyFeeRegistry.sol\":2649:3007  function royaltyFeeInfoCollection(address collection)... */\n    tag_12:\n      tag_53\n      tag_54\n      calldatasize\n      0x04\n      tag_49\n      jump\t// in\n    tag_54:\n        /* \"contracts/Manager/royalty/RoyaltyFeeRegistry.sol\":2839:2876  _royaltyFeeInfoCollection[collection] */\n      0xffffffffffffffffffffffffffffffffffffffff\n      swap1\n      dup2\n      and\n        /* \"contracts/Manager/royalty/RoyaltyFeeRegistry.sol\":2760:2767  address */\n      0x00\n        /* \"contracts/Manager/royalty/RoyaltyFeeRegistry.sol\":2839:2876  _royaltyFeeInfoCollection[collection] */\n      swap1\n      dup2\n      mstore\n        /* \"contracts/Manager/royalty/RoyaltyFeeRegistry.sol\":2839:2864  _royaltyFeeInfoCollection */\n      0x02\n        /* \"contracts/Manager/royalty/RoyaltyFeeRegistry.sol\":2839:2876  _royaltyFeeInfoCollection[collection] */\n      0x20\n      dup2\n      swap1\n      mstore\n      0x40\n      swap1\n      swap2\n      keccak256\n        /* \"contracts/Manager/royalty/RoyaltyFeeRegistry.sol\":2839:2883  _royaltyFeeInfoCollection[collection].setter */\n      dup1\n      sload\n      0x01\n        /* \"contracts/Manager/royalty/RoyaltyFeeRegistry.sol\":2893:2939  _royaltyFeeInfoCollection[collection].receiver */\n      dup3\n      add\n      sload\n        /* \"contracts/Manager/royalty/RoyaltyFeeRegistry.sol\":2949:2990  _royaltyFeeInfoCollection[collection].fee */\n      swap2\n      swap1\n      swap3\n      add\n      sload\n        /* \"contracts/Manager/royalty/RoyaltyFeeRegistry.sol\":2839:2883  _royaltyFeeInfoCollection[collection].setter */\n      swap2\n      dup4\n      and\n      swap4\n        /* \"contracts/Manager/royalty/RoyaltyFeeRegistry.sol\":2893:2939  _royaltyFeeInfoCollection[collection].receiver */\n      swap3\n      and\n      swap2\n        /* \"contracts/Manager/royalty/RoyaltyFeeRegistry.sol\":2649:3007  function royaltyFeeInfoCollection(address collection)... */\n      jump\n    tag_53:\n      0x40\n      dup1\n      mload\n        /* \"#utility.yul\":2419:2461   */\n      0xffffffffffffffffffffffffffffffffffffffff\n        /* \"#utility.yul\":2488:2503   */\n      swap5\n      dup6\n      and\n        /* \"#utility.yul\":2470:2504   */\n      dup2\n      mstore\n        /* \"#utility.yul\":2540:2555   */\n      swap4\n      swap1\n      swap3\n      and\n        /* \"#utility.yul\":2535:2537   */\n      0x20\n        /* \"#utility.yul\":2520:2538   */\n      dup5\n      add\n        /* \"#utility.yul\":2513:2556   */\n      mstore\n        /* \"#utility.yul\":2572:2590   */\n      swap1\n      dup3\n      add\n        /* \"#utility.yul\":2565:2599   */\n      mstore\n        /* \"#utility.yul\":2397:2399   */\n      0x60\n        /* \"#utility.yul\":2382:2400   */\n      add\n        /* \"contracts/Manager/royalty/RoyaltyFeeRegistry.sol\":2649:3007  function royaltyFeeInfoCollection(address collection)... */\n      tag_21\n        /* \"#utility.yul\":2207:2605   */\n      jump\n        /* \"@openzeppelin/contracts/access/Ownable.sol\":2081:2279  function transferOwnership(address newOwner) public virtual onlyOwner {... */\n    tag_13:\n      tag_31\n      tag_59\n      calldatasize\n      0x04\n      tag_49\n      jump\t// in\n    tag_59:\n      tag_60\n      jump\t// in\n        /* \"contracts/Manager/royalty/RoyaltyFeeRegistry.sol\":2340:2607  function royaltyInfo(address collection, uint256 amount) external view override returns (address, uint256) {... */\n    tag_20:\n        /* \"contracts/Manager/royalty/RoyaltyFeeRegistry.sol\":2474:2511  _royaltyFeeInfoCollection[collection] */\n      0xffffffffffffffffffffffffffffffffffffffff\n      dup1\n      dup4\n      and\n        /* \"contracts/Manager/royalty/RoyaltyFeeRegistry.sol\":2429:2436  address */\n      0x00\n        /* \"contracts/Manager/royalty/RoyaltyFeeRegistry.sol\":2474:2511  _royaltyFeeInfoCollection[collection] */\n      swap1\n      dup2\n      mstore\n        /* \"contracts/Manager/royalty/RoyaltyFeeRegistry.sol\":2474:2499  _royaltyFeeInfoCollection */\n      0x02\n        /* \"contracts/Manager/royalty/RoyaltyFeeRegistry.sol\":2474:2511  _royaltyFeeInfoCollection[collection] */\n      0x20\n      dup2\n      swap1\n      mstore\n      0x40\n      dup3\n      keccak256\n        /* \"contracts/Manager/royalty/RoyaltyFeeRegistry.sol\":2474:2520  _royaltyFeeInfoCollection[collection].receiver */\n      0x01\n      dup2\n      add\n      sload\n        /* \"contracts/Manager/royalty/RoyaltyFeeRegistry.sol\":2540:2581  _royaltyFeeInfoCollection[collection].fee */\n      swap2\n      add\n      sload\n        /* \"contracts/Manager/royalty/RoyaltyFeeRegistry.sol\":2429:2436  address */\n      swap2\n      swap3\n      dup4\n      swap3\n        /* \"contracts/Manager/royalty/RoyaltyFeeRegistry.sol\":2474:2520  _royaltyFeeInfoCollection[collection].receiver */\n      swap2\n      and\n      swap1\n        /* \"contracts/Manager/royalty/RoyaltyFeeRegistry.sol\":2585:2590  10000 */\n      0x2710\n      swap1\n        /* \"contracts/Manager/royalty/RoyaltyFeeRegistry.sol\":2531:2581  amount * _royaltyFeeInfoCollection[collection].fee */\n      tag_62\n      swap1\n        /* \"contracts/Manager/royalty/RoyaltyFeeRegistry.sol\":2531:2537  amount */\n      dup7\n        /* \"contracts/Manager/royalty/RoyaltyFeeRegistry.sol\":2531:2581  amount * _royaltyFeeInfoCollection[collection].fee */\n      tag_63\n      jump\t// in\n    tag_62:\n        /* \"contracts/Manager/royalty/RoyaltyFeeRegistry.sol\":2530:2590  (amount * _royaltyFeeInfoCollection[collection].fee) / 10000 */\n      tag_64\n      swap2\n      swap1\n      tag_65\n      jump\t// in\n    tag_64:\n        /* \"contracts/Manager/royalty/RoyaltyFeeRegistry.sol\":2457:2600  return (... */\n      swap2\n      pop\n      swap2\n      pop\n        /* \"contracts/Manager/royalty/RoyaltyFeeRegistry.sol\":2340:2607  function royaltyInfo(address collection, uint256 amount) external view override returns (address, uint256) {... */\n      swap3\n      pop\n      swap3\n      swap1\n      pop\n      jump\t// out\n        /* \"@openzeppelin/contracts/access/Ownable.sol\":1831:1932  function renounceOwnership() public virtual onlyOwner {... */\n    tag_32:\n        /* \"@openzeppelin/contracts/access/Ownable.sol\":1094:1107  _checkOwner() */\n      tag_67\n        /* \"@openzeppelin/contracts/access/Ownable.sol\":1094:1105  _checkOwner */\n      tag_68\n        /* \"@openzeppelin/contracts/access/Ownable.sol\":1094:1107  _checkOwner() */\n      jump\t// in\n    tag_67:\n        /* \"@openzeppelin/contracts/access/Ownable.sol\":1895:1925  _transferOwnership(address(0)) */\n      tag_70\n        /* \"@openzeppelin/contracts/access/Ownable.sol\":1922:1923  0 */\n      0x00\n        /* \"@openzeppelin/contracts/access/Ownable.sol\":1895:1913  _transferOwnership */\n      tag_71\n        /* \"@openzeppelin/contracts/access/Ownable.sol\":1895:1925  _transferOwnership(address(0)) */\n      jump\t// in\n    tag_70:\n        /* \"@openzeppelin/contracts/access/Ownable.sol\":1831:1932  function renounceOwnership() public virtual onlyOwner {... */\n      jump\t// out\n        /* \"contracts/Manager/royalty/RoyaltyFeeRegistry.sol\":1460:1763  function updateRoyaltyFeeLimit(uint256 _royaltyFeeLimit) external override onlyOwner {... */\n    tag_43:\n        /* \"@openzeppelin/contracts/access/Ownable.sol\":1094:1107  _checkOwner() */\n      tag_74\n        /* \"@openzeppelin/contracts/access/Ownable.sol\":1094:1105  _checkOwner */\n      tag_68\n        /* \"@openzeppelin/contracts/access/Ownable.sol\":1094:1107  _checkOwner() */\n      jump\t// in\n    tag_74:\n        /* \"contracts/Manager/royalty/RoyaltyFeeRegistry.sol\":1625:1629  9500 */\n      0x251c\n        /* \"contracts/Manager/royalty/RoyaltyFeeRegistry.sol\":1605:1621  _royaltyFeeLimit */\n      dup2\n        /* \"contracts/Manager/royalty/RoyaltyFeeRegistry.sol\":1605:1629  _royaltyFeeLimit <= 9500 */\n      gt\n      iszero\n        /* \"contracts/Manager/royalty/RoyaltyFeeRegistry.sol\":1597:1660  require(_royaltyFeeLimit <= 9500, \"Royalty fee limit too high\") */\n      tag_76\n      jumpi\n      mload(0x40)\n      0x08c379a000000000000000000000000000000000000000000000000000000000\n      dup2\n      mstore\n        /* \"#utility.yul\":3418:3420   */\n      0x20\n        /* \"contracts/Manager/royalty/RoyaltyFeeRegistry.sol\":1597:1660  require(_royaltyFeeLimit <= 9500, \"Royalty fee limit too high\") */\n      0x04\n      dup3\n      add\n        /* \"#utility.yul\":3400:3421   */\n      mstore\n        /* \"#utility.yul\":3457:3459   */\n      0x1a\n        /* \"#utility.yul\":3437:3455   */\n      0x24\n      dup3\n      add\n        /* \"#utility.yul\":3430:3460   */\n      mstore\n        /* \"#utility.yul\":3496:3524   */\n      0x526f79616c747920666565206c696d697420746f6f2068696768000000000000\n        /* \"#utility.yul\":3476:3494   */\n      0x44\n      dup3\n      add\n        /* \"#utility.yul\":3469:3525   */\n      mstore\n        /* \"#utility.yul\":3542:3560   */\n      0x64\n      add\n        /* \"contracts/Manager/royalty/RoyaltyFeeRegistry.sol\":1597:1660  require(_royaltyFeeLimit <= 9500, \"Royalty fee limit too high\") */\n    tag_77:\n      mload(0x40)\n      dup1\n      swap2\n      sub\n      swap1\n      revert\n    tag_76:\n        /* \"contracts/Manager/royalty/RoyaltyFeeRegistry.sol\":1670:1685  royaltyFeeLimit */\n      0x01\n        /* \"contracts/Manager/royalty/RoyaltyFeeRegistry.sol\":1670:1704  royaltyFeeLimit = _royaltyFeeLimit */\n      dup2\n      swap1\n      sstore\n        /* \"contracts/Manager/royalty/RoyaltyFeeRegistry.sol\":1720:1756  NewRoyaltyFeeLimit(_royaltyFeeLimit) */\n      mload(0x40)\n        /* \"#utility.yul\":1194:1219   */\n      dup2\n      dup2\n      mstore\n        /* \"contracts/Manager/royalty/RoyaltyFeeRegistry.sol\":1720:1756  NewRoyaltyFeeLimit(_royaltyFeeLimit) */\n      0x2da7166c72ef3860ef4fb2571105533c40615269a6dbc38ce0b264910df1c256\n      swap1\n        /* \"#utility.yul\":1182:1184   */\n      0x20\n        /* \"#utility.yul\":1167:1185   */\n      add\n        /* \"contracts/Manager/royalty/RoyaltyFeeRegistry.sol\":1720:1756  NewRoyaltyFeeLimit(_royaltyFeeLimit) */\n      mload(0x40)\n      dup1\n      swap2\n      sub\n      swap1\n      log1\n        /* \"contracts/Manager/royalty/RoyaltyFeeRegistry.sol\":1460:1763  function updateRoyaltyFeeLimit(uint256 _royaltyFeeLimit) external override onlyOwner {... */\n      pop\n      jump\t// out\n        /* \"contracts/Manager/royalty/RoyaltyFeeRegistry.sol\":3225:3853  function checkForCollectionSetter(address collection) external view returns (address, uint8) {... */\n    tag_50:\n        /* \"contracts/Manager/royalty/RoyaltyFeeRegistry.sol\":3332:3391  IERC165(collection).supportsInterface(INTERFACE_ID_ERC2981) */\n      mload(0x40)\n      0x01ffc9a700000000000000000000000000000000000000000000000000000000\n      dup2\n      mstore\n        /* \"contracts/Manager/royalty/RoyaltyFeeRegistry.sol\":3370:3390  INTERFACE_ID_ERC2981 */\n      0x2a55205a00000000000000000000000000000000000000000000000000000000\n        /* \"contracts/Manager/royalty/RoyaltyFeeRegistry.sol\":3332:3391  IERC165(collection).supportsInterface(INTERFACE_ID_ERC2981) */\n      0x04\n      dup3\n      add\n        /* \"#utility.yul\":939:1037   */\n      mstore\n        /* \"contracts/Manager/royalty/RoyaltyFeeRegistry.sol\":3302:3309  address */\n      0x00\n      swap1\n      dup2\n      swap1\n        /* \"contracts/Manager/royalty/RoyaltyFeeRegistry.sol\":3332:3369  IERC165(collection).supportsInterface */\n      0xffffffffffffffffffffffffffffffffffffffff\n      dup5\n      and\n      swap1\n      0x01ffc9a7\n      swap1\n        /* \"#utility.yul\":912:930   */\n      0x24\n      add\n        /* \"contracts/Manager/royalty/RoyaltyFeeRegistry.sol\":3332:3391  IERC165(collection).supportsInterface(INTERFACE_ID_ERC2981) */\n      0x20\n      mload(0x40)\n      dup1\n      dup4\n      sub\n      dup2\n      dup7\n      gas\n      staticcall\n      swap3\n      pop\n      pop\n      pop\n      dup1\n      iszero\n      tag_82\n      jumpi\n      pop\n      0x40\n      dup1\n      mload\n      0x1f\n      returndatasize\n      swap1\n      dup2\n      add\n      0xffffffffffffffffffffffffffffffffffffffffffffffffffffffffffffffe0\n      and\n      dup3\n      add\n      swap1\n      swap3\n      mstore\n      tag_83\n      swap2\n      dup2\n      add\n      swap1\n      tag_84\n      jump\t// in\n    tag_83:\n      0x01\n    tag_82:\n        /* \"contracts/Manager/royalty/RoyaltyFeeRegistry.sol\":3328:3534  try IERC165(collection).supportsInterface(INTERFACE_ID_ERC2981) returns (bool interfaceSupport) {... */\n      iszero\n      tag_89\n      jumpi\n        /* \"contracts/Manager/royalty/RoyaltyFeeRegistry.sol\":3442:3458  interfaceSupport */\n      dup1\n        /* \"contracts/Manager/royalty/RoyaltyFeeRegistry.sol\":3438:3515  if (interfaceSupport) {... */\n      iszero\n      tag_90\n      jumpi\n      pop\n        /* \"contracts/Manager/royalty/RoyaltyFeeRegistry.sol\":3494:3495  0 */\n      0x00\n      swap4\n        /* \"contracts/Manager/royalty/RoyaltyFeeRegistry.sol\":3498:3499  1 */\n      0x01\n      swap4\n      pop\n        /* \"contracts/Manager/royalty/RoyaltyFeeRegistry.sol\":3225:3853  function checkForCollectionSetter(address collection) external view returns (address, uint8) {... */\n      swap2\n      pop\n      pop\n      jump\t// out\n        /* \"contracts/Manager/royalty/RoyaltyFeeRegistry.sol\":3438:3515  if (interfaceSupport) {... */\n    tag_90:\n        /* \"contracts/Manager/royalty/RoyaltyFeeRegistry.sol\":3392:3525  returns (bool interfaceSupport) {... */\n      pop\n        /* \"contracts/Manager/royalty/RoyaltyFeeRegistry.sol\":3328:3534  try IERC165(collection).supportsInterface(INTERFACE_ID_ERC2981) returns (bool interfaceSupport) {... */\n    tag_89:\n        /* \"contracts/Manager/royalty/RoyaltyFeeRegistry.sol\":3557:3567  collection */\n      dup3\n        /* \"contracts/Manager/royalty/RoyaltyFeeRegistry.sol\":3548:3574  IOwnable(collection).owner */\n      0xffffffffffffffffffffffffffffffffffffffff\n      and\n      0x8da5cb5b\n        /* \"contracts/Manager/royalty/RoyaltyFeeRegistry.sol\":3548:3576  IOwnable(collection).owner() */\n      mload(0x40)\n      dup2\n      0xffffffff\n      and\n      0xe0\n      shl\n      dup2\n      mstore\n      0x04\n      add\n      0x20\n      mload(0x40)\n      dup1\n      dup4\n      sub\n      dup2\n      dup7\n      gas\n      staticcall\n      swap3\n      pop\n      pop\n      pop\n      dup1\n      iszero\n      tag_91\n      jumpi\n      pop\n      0x40\n      dup1\n      mload\n      0x1f\n      returndatasize\n      swap1\n      dup2\n      add\n      0xffffffffffffffffffffffffffffffffffffffffffffffffffffffffffffffe0\n      and\n      dup3\n      add\n      swap1\n      swap3\n      mstore\n      tag_92\n      swap2\n      dup2\n      add\n      swap1\n      tag_93\n      jump\t// in\n    tag_92:\n      0x01\n    tag_91:\n        /* \"contracts/Manager/royalty/RoyaltyFeeRegistry.sol\":3544:3847  try IOwnable(collection).owner() returns (address setter) {... */\n      tag_94\n      jumpi\n        /* \"contracts/Manager/royalty/RoyaltyFeeRegistry.sol\":3679:3689  collection */\n      dup3\n        /* \"contracts/Manager/royalty/RoyaltyFeeRegistry.sol\":3670:3696  IOwnable(collection).admin */\n      0xffffffffffffffffffffffffffffffffffffffff\n      and\n      0xf851a440\n        /* \"contracts/Manager/royalty/RoyaltyFeeRegistry.sol\":3670:3698  IOwnable(collection).admin() */\n      mload(0x40)\n      dup2\n      0xffffffff\n      and\n      0xe0\n      shl\n      dup2\n      mstore\n      0x04\n      add\n      0x20\n      mload(0x40)\n      dup1\n      dup4\n      sub\n      dup2\n      dup7\n      gas\n      staticcall\n      swap3\n      pop\n      pop\n      pop\n      dup1\n      iszero\n      tag_98\n      jumpi\n      pop\n      0x40\n      dup1\n      mload\n      0x1f\n      returndatasize\n      swap1\n      dup2\n      add\n      0xffffffffffffffffffffffffffffffffffffffffffffffffffffffffffffffe0\n      and\n      dup3\n      add\n      swap1\n      swap3\n      mstore\n      tag_99\n      swap2\n      dup2\n      add\n      swap1\n      tag_93\n      jump\t// in\n    tag_99:\n      0x01\n    tag_98:\n        /* \"contracts/Manager/royalty/RoyaltyFeeRegistry.sol\":3666:3837  try IOwnable(collection).admin() returns (address setter) {... */\n      tag_100\n      jumpi\n      pop\n        /* \"contracts/Manager/royalty/RoyaltyFeeRegistry.sol\":3816:3817  0 */\n      0x00\n      swap3\n        /* \"contracts/Manager/royalty/RoyaltyFeeRegistry.sol\":3820:3821  4 */\n      0x04\n      swap3\n      pop\n        /* \"contracts/Manager/royalty/RoyaltyFeeRegistry.sol\":3225:3853  function checkForCollectionSetter(address collection) external view returns (address, uint8) {... */\n      swap1\n      pop\n      jump\t// out\n        /* \"contracts/Manager/royalty/RoyaltyFeeRegistry.sol\":3666:3837  try IOwnable(collection).admin() returns (address setter) {... */\n    tag_100:\n        /* \"contracts/Manager/royalty/RoyaltyFeeRegistry.sol\":3750:3756  setter */\n      swap4\n        /* \"contracts/Manager/royalty/RoyaltyFeeRegistry.sol\":3758:3759  3 */\n      0x03\n      swap4\n      pop\n        /* \"contracts/Manager/royalty/RoyaltyFeeRegistry.sol\":3225:3853  function checkForCollectionSetter(address collection) external view returns (address, uint8) {... */\n      swap2\n      pop\n      pop\n      jump\t// out\n        /* \"contracts/Manager/royalty/RoyaltyFeeRegistry.sol\":3544:3847  try IOwnable(collection).owner() returns (address setter) {... */\n    tag_94:\n        /* \"contracts/Manager/royalty/RoyaltyFeeRegistry.sol\":3624:3630  setter */\n      swap4\n        /* \"contracts/Manager/royalty/RoyaltyFeeRegistry.sol\":3632:3633  2 */\n      0x02\n      swap4\n      pop\n        /* \"contracts/Manager/royalty/RoyaltyFeeRegistry.sol\":3225:3853  function checkForCollectionSetter(address collection) external view returns (address, uint8) {... */\n      swap2\n      pop\n      pop\n      jump\t// out\n        /* \"@openzeppelin/contracts/access/Ownable.sol\":2081:2279  function transferOwnership(address newOwner) public virtual onlyOwner {... */\n    tag_60:\n        /* \"@openzeppelin/contracts/access/Ownable.sol\":1094:1107  _checkOwner() */\n      tag_108\n        /* \"@openzeppelin/contracts/access/Ownable.sol\":1094:1105  _checkOwner */\n      tag_68\n        /* \"@openzeppelin/contracts/access/Ownable.sol\":1094:1107  _checkOwner() */\n      jump\t// in\n    tag_108:\n        /* \"@openzeppelin/contracts/access/Ownable.sol\":2169:2191  newOwner != address(0) */\n      0xffffffffffffffffffffffffffffffffffffffff\n      dup2\n      and\n        /* \"@openzeppelin/contracts/access/Ownable.sol\":2161:2234  require(newOwner != address(0), \"Ownable: new owner is the zero address\") */\n      tag_110\n      jumpi\n      mload(0x40)\n      0x08c379a000000000000000000000000000000000000000000000000000000000\n      dup2\n      mstore\n        /* \"#utility.yul\":4311:4313   */\n      0x20\n        /* \"@openzeppelin/contracts/access/Ownable.sol\":2161:2234  require(newOwner != address(0), \"Ownable: new owner is the zero address\") */\n      0x04\n      dup3\n      add\n        /* \"#utility.yul\":4293:4314   */\n      mstore\n        /* \"#utility.yul\":4350:4352   */\n      0x26\n        /* \"#utility.yul\":4330:4348   */\n      0x24\n      dup3\n      add\n        /* \"#utility.yul\":4323:4353   */\n      mstore\n        /* \"#utility.yul\":4389:4423   */\n      0x4f776e61626c653a206e6577206f776e657220697320746865207a65726f2061\n        /* \"#utility.yul\":4369:4387   */\n      0x44\n      dup3\n      add\n        /* \"#utility.yul\":4362:4424   */\n      mstore\n        /* \"#utility.yul\":4460:4468   */\n      0x6464726573730000000000000000000000000000000000000000000000000000\n        /* \"#utility.yul\":4440:4458   */\n      0x64\n      dup3\n      add\n        /* \"#utility.yul\":4433:4469   */\n      mstore\n        /* \"#utility.yul\":4486:4505   */\n      0x84\n      add\n        /* \"@openzeppelin/contracts/access/Ownable.sol\":2161:2234  require(newOwner != address(0), \"Ownable: new owner is the zero address\") */\n      tag_77\n        /* \"#utility.yul\":4109:4511   */\n      jump\n        /* \"@openzeppelin/contracts/access/Ownable.sol\":2161:2234  require(newOwner != address(0), \"Ownable: new owner is the zero address\") */\n    tag_110:\n        /* \"@openzeppelin/contracts/access/Ownable.sol\":2244:2272  _transferOwnership(newOwner) */\n      tag_113\n        /* \"@openzeppelin/contracts/access/Ownable.sol\":2263:2271  newOwner */\n      dup2\n        /* \"@openzeppelin/contracts/access/Ownable.sol\":2244:2262  _transferOwnership */\n      tag_71\n        /* \"@openzeppelin/contracts/access/Ownable.sol\":2244:2272  _transferOwnership(newOwner) */\n      jump\t// in\n    tag_113:\n        /* \"@openzeppelin/contracts/access/Ownable.sol\":2081:2279  function transferOwnership(address newOwner) public virtual onlyOwner {... */\n      pop\n      jump\t// out\n        /* \"@openzeppelin/contracts/access/Ownable.sol\":1359:1489  function _checkOwner() internal view virtual {... */\n    tag_68:\n        /* \"@openzeppelin/contracts/access/Ownable.sol\":1247:1254  address */\n      0x00\n        /* \"@openzeppelin/contracts/access/Ownable.sol\":1273:1279  _owner */\n      sload\n        /* \"@openzeppelin/contracts/access/Ownable.sol\":1422:1445  owner() == _msgSender() */\n      0xffffffffffffffffffffffffffffffffffffffff\n        /* \"@openzeppelin/contracts/access/Ownable.sol\":1273:1279  _owner */\n      and\n        /* \"@openzeppelin/contracts/utils/Context.sol\":719:729  msg.sender */\n      caller\n        /* \"@openzeppelin/contracts/access/Ownable.sol\":1422:1445  owner() == _msgSender() */\n      eq\n        /* \"@openzeppelin/contracts/access/Ownable.sol\":1414:1482  require(owner() == _msgSender(), \"Ownable: caller is not the owner\") */\n      tag_70\n      jumpi\n      mload(0x40)\n      0x08c379a000000000000000000000000000000000000000000000000000000000\n      dup2\n      mstore\n        /* \"#utility.yul\":4718:4720   */\n      0x20\n        /* \"@openzeppelin/contracts/access/Ownable.sol\":1414:1482  require(owner() == _msgSender(), \"Ownable: caller is not the owner\") */\n      0x04\n      dup3\n      add\n        /* \"#utility.yul\":4700:4721   */\n      dup2\n      swap1\n      mstore\n        /* \"#utility.yul\":4737:4755   */\n      0x24\n      dup3\n      add\n        /* \"#utility.yul\":4730:4760   */\n      mstore\n        /* \"#utility.yul\":4796:4830   */\n      0x4f776e61626c653a2063616c6c6572206973206e6f7420746865206f776e6572\n        /* \"#utility.yul\":4776:4794   */\n      0x44\n      dup3\n      add\n        /* \"#utility.yul\":4769:4831   */\n      mstore\n        /* \"#utility.yul\":4848:4866   */\n      0x64\n      add\n        /* \"@openzeppelin/contracts/access/Ownable.sol\":1414:1482  require(owner() == _msgSender(), \"Ownable: caller is not the owner\") */\n      tag_77\n        /* \"#utility.yul\":4516:4872   */\n      jump\n        /* \"@openzeppelin/contracts/access/Ownable.sol\":2433:2620  function _transferOwnership(address newOwner) internal virtual {... */\n    tag_71:\n        /* \"@openzeppelin/contracts/access/Ownable.sol\":2506:2522  address oldOwner */\n      0x00\n        /* \"@openzeppelin/contracts/access/Ownable.sol\":2525:2531  _owner */\n      dup1\n      sload\n      0xffffffffffffffffffffffffffffffffffffffff\n        /* \"@openzeppelin/contracts/access/Ownable.sol\":2541:2558  _owner = newOwner */\n      dup4\n      dup2\n      and\n      0xffffffffffffffffffffffff0000000000000000000000000000000000000000\n      dup4\n      and\n      dup2\n      or\n      dup5\n      sstore\n        /* \"@openzeppelin/contracts/access/Ownable.sol\":2573:2613  OwnershipTransferred(oldOwner, newOwner) */\n      mload(0x40)\n        /* \"@openzeppelin/contracts/access/Ownable.sol\":2525:2531  _owner */\n      swap2\n      swap1\n      swap3\n      and\n      swap3\n      dup4\n      swap2\n        /* \"@openzeppelin/contracts/access/Ownable.sol\":2573:2613  OwnershipTransferred(oldOwner, newOwner) */\n      0x8be0079c531659141344cd1fd0a4f28419497f9722a3daafe3b4186f6b6457e0\n      swap2\n        /* \"@openzeppelin/contracts/access/Ownable.sol\":2506:2522  address oldOwner */\n      swap1\n        /* \"@openzeppelin/contracts/access/Ownable.sol\":2573:2613  OwnershipTransferred(oldOwner, newOwner) */\n      log3\n        /* \"@openzeppelin/contracts/access/Ownable.sol\":2496:2620  {... */\n      pop\n        /* \"@openzeppelin/contracts/access/Ownable.sol\":2433:2620  function _transferOwnership(address newOwner) internal virtual {... */\n      pop\n      jump\t// out\n        /* \"#utility.yul\":14:168   */\n    tag_123:\n        /* \"#utility.yul\":100:142   */\n      0xffffffffffffffffffffffffffffffffffffffff\n        /* \"#utility.yul\":93:98   */\n      dup2\n        /* \"#utility.yul\":89:143   */\n      and\n        /* \"#utility.yul\":82:87   */\n      dup2\n        /* \"#utility.yul\":79:144   */\n      eq\n        /* \"#utility.yul\":69:162   */\n      tag_113\n      jumpi\n        /* \"#utility.yul\":158:159   */\n      0x00\n        /* \"#utility.yul\":155:156   */\n      dup1\n        /* \"#utility.yul\":148:160   */\n      revert\n        /* \"#utility.yul\":173:488   */\n    tag_19:\n        /* \"#utility.yul\":241:247   */\n      0x00\n        /* \"#utility.yul\":249:255   */\n      dup1\n        /* \"#utility.yul\":302:304   */\n      0x40\n        /* \"#utility.yul\":290:299   */\n      dup4\n        /* \"#utility.yul\":281:288   */\n      dup6\n        /* \"#utility.yul\":277:300   */\n      sub\n        /* \"#utility.yul\":273:305   */\n      slt\n        /* \"#utility.yul\":270:322   */\n      iszero\n      tag_128\n      jumpi\n        /* \"#utility.yul\":318:319   */\n      0x00\n        /* \"#utility.yul\":315:316   */\n      dup1\n        /* \"#utility.yul\":308:320   */\n      revert\n        /* \"#utility.yul\":270:322   */\n    tag_128:\n        /* \"#utility.yul\":357:366   */\n      dup3\n        /* \"#utility.yul\":344:367   */\n      calldataload\n        /* \"#utility.yul\":376:407   */\n      tag_129\n        /* \"#utility.yul\":401:406   */\n      dup2\n        /* \"#utility.yul\":376:407   */\n      tag_123\n      jump\t// in\n    tag_129:\n        /* \"#utility.yul\":426:431   */\n      swap5\n        /* \"#utility.yul\":478:480   */\n      0x20\n        /* \"#utility.yul\":463:481   */\n      swap4\n      swap1\n      swap4\n      add\n        /* \"#utility.yul\":450:482   */\n      calldataload\n      swap4\n      pop\n      pop\n      pop\n        /* \"#utility.yul\":173:488   */\n      jump\t// out\n        /* \"#utility.yul\":1461:1641   */\n    tag_42:\n        /* \"#utility.yul\":1520:1526   */\n      0x00\n        /* \"#utility.yul\":1573:1575   */\n      0x20\n        /* \"#utility.yul\":1561:1570   */\n      dup3\n        /* \"#utility.yul\":1552:1559   */\n      dup5\n        /* \"#utility.yul\":1548:1571   */\n      sub\n        /* \"#utility.yul\":1544:1576   */\n      slt\n        /* \"#utility.yul\":1541:1593   */\n      iszero\n      tag_135\n      jumpi\n        /* \"#utility.yul\":1589:1590   */\n      0x00\n        /* \"#utility.yul\":1586:1587   */\n      dup1\n        /* \"#utility.yul\":1579:1591   */\n      revert\n        /* \"#utility.yul\":1541:1593   */\n    tag_135:\n      pop\n        /* \"#utility.yul\":1612:1635   */\n      calldataload\n      swap2\n        /* \"#utility.yul\":1461:1641   */\n      swap1\n      pop\n      jump\t// out\n        /* \"#utility.yul\":1646:1893   */\n    tag_49:\n        /* \"#utility.yul\":1705:1711   */\n      0x00\n        /* \"#utility.yul\":1758:1760   */\n      0x20\n        /* \"#utility.yul\":1746:1755   */\n      dup3\n        /* \"#utility.yul\":1737:1744   */\n      dup5\n        /* \"#utility.yul\":1733:1756   */\n      sub\n        /* \"#utility.yul\":1729:1761   */\n      slt\n        /* \"#utility.yul\":1726:1778   */\n      iszero\n      tag_137\n      jumpi\n        /* \"#utility.yul\":1774:1775   */\n      0x00\n        /* \"#utility.yul\":1771:1772   */\n      dup1\n        /* \"#utility.yul\":1764:1776   */\n      revert\n        /* \"#utility.yul\":1726:1778   */\n    tag_137:\n        /* \"#utility.yul\":1813:1822   */\n      dup2\n        /* \"#utility.yul\":1800:1823   */\n      calldataload\n        /* \"#utility.yul\":1832:1863   */\n      tag_138\n        /* \"#utility.yul\":1857:1862   */\n      dup2\n        /* \"#utility.yul\":1832:1863   */\n      tag_123\n      jump\t// in\n    tag_138:\n        /* \"#utility.yul\":1882:1887   */\n      swap4\n        /* \"#utility.yul\":1646:1893   */\n      swap3\n      pop\n      pop\n      pop\n      jump\t// out\n        /* \"#utility.yul\":2610:2932   */\n    tag_63:\n        /* \"#utility.yul\":2683:2692   */\n      dup1\n      dup3\n      mul\n        /* \"#utility.yul\":2714:2723   */\n      dup2\n      iszero\n        /* \"#utility.yul\":2731:2746   */\n      dup3\n      dup3\n      div\n        /* \"#utility.yul\":2725:2747   */\n      dup5\n      eq\n        /* \"#utility.yul\":2711:2748   */\n      or\n        /* \"#utility.yul\":2701:2926   */\n      tag_142\n      jumpi\n        /* \"#utility.yul\":2782:2859   */\n      0x4e487b7100000000000000000000000000000000000000000000000000000000\n        /* \"#utility.yul\":2779:2780   */\n      0x00\n        /* \"#utility.yul\":2772:2860   */\n      mstore\n        /* \"#utility.yul\":2883:2887   */\n      0x11\n        /* \"#utility.yul\":2880:2881   */\n      0x04\n        /* \"#utility.yul\":2873:2888   */\n      mstore\n        /* \"#utility.yul\":2911:2915   */\n      0x24\n        /* \"#utility.yul\":2908:2909   */\n      0x00\n        /* \"#utility.yul\":2901:2916   */\n      revert\n        /* \"#utility.yul\":2701:2926   */\n    tag_142:\n        /* \"#utility.yul\":2610:2932   */\n      swap3\n      swap2\n      pop\n      pop\n      jump\t// out\n        /* \"#utility.yul\":2937:3211   */\n    tag_65:\n        /* \"#utility.yul\":2977:2978   */\n      0x00\n        /* \"#utility.yul\":3003:3004   */\n      dup3\n        /* \"#utility.yul\":2993:3182   */\n      tag_144\n      jumpi\n        /* \"#utility.yul\":3038:3115   */\n      0x4e487b7100000000000000000000000000000000000000000000000000000000\n        /* \"#utility.yul\":3035:3036   */\n      0x00\n        /* \"#utility.yul\":3028:3116   */\n      mstore\n        /* \"#utility.yul\":3139:3143   */\n      0x12\n        /* \"#utility.yul\":3136:3137   */\n      0x04\n        /* \"#utility.yul\":3129:3144   */\n      mstore\n        /* \"#utility.yul\":3167:3171   */\n      0x24\n        /* \"#utility.yul\":3164:3165   */\n      0x00\n        /* \"#utility.yul\":3157:3172   */\n      revert\n        /* \"#utility.yul\":2993:3182   */\n    tag_144:\n      pop\n        /* \"#utility.yul\":3196:3205   */\n      div\n      swap1\n        /* \"#utility.yul\":2937:3211   */\n      jump\t// out\n        /* \"#utility.yul\":3571:3848   */\n    tag_84:\n        /* \"#utility.yul\":3638:3644   */\n      0x00\n        /* \"#utility.yul\":3691:3693   */\n      0x20\n        /* \"#utility.yul\":3679:3688   */\n      dup3\n        /* \"#utility.yul\":3670:3677   */\n      dup5\n        /* \"#utility.yul\":3666:3689   */\n      sub\n        /* \"#utility.yul\":3662:3694   */\n      slt\n        /* \"#utility.yul\":3659:3711   */\n      iszero\n      tag_147\n      jumpi\n        /* \"#utility.yul\":3707:3708   */\n      0x00\n        /* \"#utility.yul\":3704:3705   */\n      dup1\n        /* \"#utility.yul\":3697:3709   */\n      revert\n        /* \"#utility.yul\":3659:3711   */\n    tag_147:\n        /* \"#utility.yul\":3739:3748   */\n      dup2\n        /* \"#utility.yul\":3733:3749   */\n      mload\n        /* \"#utility.yul\":3792:3797   */\n      dup1\n        /* \"#utility.yul\":3785:3798   */\n      iszero\n        /* \"#utility.yul\":3778:3799   */\n      iszero\n        /* \"#utility.yul\":3771:3776   */\n      dup2\n        /* \"#utility.yul\":3768:3800   */\n      eq\n        /* \"#utility.yul\":3758:3818   */\n      tag_138\n      jumpi\n        /* \"#utility.yul\":3814:3815   */\n      0x00\n        /* \"#utility.yul\":3811:3812   */\n      dup1\n        /* \"#utility.yul\":3804:3816   */\n      revert\n        /* \"#utility.yul\":3853:4104   */\n    tag_93:\n        /* \"#utility.yul\":3923:3929   */\n      0x00\n        /* \"#utility.yul\":3976:3978   */\n      0x20\n        /* \"#utility.yul\":3964:3973   */\n      dup3\n        /* \"#utility.yul\":3955:3962   */\n      dup5\n        /* \"#utility.yul\":3951:3974   */\n      sub\n        /* \"#utility.yul\":3947:3979   */\n      slt\n        /* \"#utility.yul\":3944:3996   */\n      iszero\n      tag_150\n      jumpi\n        /* \"#utility.yul\":3992:3993   */\n      0x00\n        /* \"#utility.yul\":3989:3990   */\n      dup1\n        /* \"#utility.yul\":3982:3994   */\n      revert\n        /* \"#utility.yul\":3944:3996   */\n    tag_150:\n        /* \"#utility.yul\":4024:4033   */\n      dup2\n        /* \"#utility.yul\":4018:4034   */\n      mload\n        /* \"#utility.yul\":4043:4074   */\n      tag_138\n        /* \"#utility.yul\":4068:4073   */\n      dup2\n        /* \"#utility.yul\":4043:4074   */\n      tag_123\n      jump\t// in\n\n    auxdata: 0xa264697066735822122075793ee5819af4034a35c1bec2a8eb3e46425f1a9c8d99df86865a431e65604d64736f6c63430008110033\n}\n",
				"bytecode": {
					"linkReferences": {},
					"object": "608060405234801561001057600080fd5b50604051610a58380380610a5883398101604081905261002f916100e6565b61003833610096565b61251c81111561008e5760405162461bcd60e51b815260206004820152601a60248201527f526f79616c747920666565206c696d697420746f6f2068696768000000000000604482015260640160405180910390fd5b6001556100ff565b600080546001600160a01b038381166001600160a01b0319831681178455604051919092169283917f8be0079c531659141344cd1fd0a4f28419497f9722a3daafe3b4186f6b6457e09190a35050565b6000602082840312156100f857600080fd5b5051919050565b61094a8061010e6000396000f3fe608060405234801561001057600080fd5b50600436106100c95760003560e01c8063b060dd8611610081578063c54e54971161005b578063c54e549714610214578063e31ef91c14610255578063f2fde38b146102d457600080fd5b8063b060dd86146101b3578063b9223c9d146101da578063bc6bc0cd146101ed57600080fd5b80634fb7d3f9116100b25780634fb7d3f91461016a578063715018a6146101815780638da5cb5b1461018b57600080fd5b80632782d6c7146100ce57806333bf615614610112575b600080fd5b6100e16100dc3660046107ed565b6102e7565b6040805173ffffffffffffffffffffffffffffffffffffffff90931683526020830191909152015b60405180910390f35b6101397fd9b67a260000000000000000000000000000000000000000000000000000000081565b6040517fffffffff000000000000000000000000000000000000000000000000000000009091168152602001610109565b61017360015481565b604051908152602001610109565b610189610341565b005b60005460405173ffffffffffffffffffffffffffffffffffffffff9091168152602001610109565b6101397f2a55205a0000000000000000000000000000000000000000000000000000000081565b6101896101e8366004610819565b610355565b6101397f80ac58cd0000000000000000000000000000000000000000000000000000000081565b610227610222366004610832565b610409565b6040805173ffffffffffffffffffffffffffffffffffffffff909316835260ff909116602083015201610109565b6102a1610263366004610832565b73ffffffffffffffffffffffffffffffffffffffff908116600090815260026020819052604090912080546001820154919092015491831693921691565b6040805173ffffffffffffffffffffffffffffffffffffffff948516815293909216602084015290820152606001610109565b6101896102e2366004610832565b61061e565b73ffffffffffffffffffffffffffffffffffffffff808316600090815260026020819052604082206001810154910154919283929116906127109061032c9086610856565b610336919061089a565b915091509250929050565b6103496106d5565b6103536000610756565b565b61035d6106d5565b61251c8111156103ce576040517f08c379a000000000000000000000000000000000000000000000000000000000815260206004820152601a60248201527f526f79616c747920666565206c696d697420746f6f206869676800000000000060448201526064015b60405180910390fd5b60018190556040518181527f2da7166c72ef3860ef4fb2571105533c40615269a6dbc38ce0b264910df1c2569060200160405180910390a150565b6040517f01ffc9a70000000000000000000000000000000000000000000000000000000081527f2a55205a000000000000000000000000000000000000000000000000000000006004820152600090819073ffffffffffffffffffffffffffffffffffffffff8416906301ffc9a790602401602060405180830381865afa9250505080156104d2575060408051601f3d9081017fffffffffffffffffffffffffffffffffffffffffffffffffffffffffffffffe01682019092526104cf918101906108d5565b60015b156104ec5780156104ea575060009360019350915050565b505b8273ffffffffffffffffffffffffffffffffffffffff16638da5cb5b6040518163ffffffff1660e01b8152600401602060405180830381865afa925050508015610571575060408051601f3d9081017fffffffffffffffffffffffffffffffffffffffffffffffffffffffffffffffe016820190925261056e918101906108f7565b60015b610614578273ffffffffffffffffffffffffffffffffffffffff1663f851a4406040518163ffffffff1660e01b8152600401602060405180830381865afa9250505080156105fa575060408051601f3d9081017fffffffffffffffffffffffffffffffffffffffffffffffffffffffffffffffe01682019092526105f7918101906108f7565b60015b61060a5750600092600492509050565b9360039350915050565b9360029350915050565b6106266106d5565b73ffffffffffffffffffffffffffffffffffffffff81166106c9576040517f08c379a000000000000000000000000000000000000000000000000000000000815260206004820152602660248201527f4f776e61626c653a206e6577206f776e657220697320746865207a65726f206160448201527f646472657373000000000000000000000000000000000000000000000000000060648201526084016103c5565b6106d281610756565b50565b60005473ffffffffffffffffffffffffffffffffffffffff163314610353576040517f08c379a000000000000000000000000000000000000000000000000000000000815260206004820181905260248201527f4f776e61626c653a2063616c6c6572206973206e6f7420746865206f776e657260448201526064016103c5565b6000805473ffffffffffffffffffffffffffffffffffffffff8381167fffffffffffffffffffffffff0000000000000000000000000000000000000000831681178455604051919092169283917f8be0079c531659141344cd1fd0a4f28419497f9722a3daafe3b4186f6b6457e09190a35050565b73ffffffffffffffffffffffffffffffffffffffff811681146106d257600080fd5b6000806040838503121561080057600080fd5b823561080b816107cb565b946020939093013593505050565b60006020828403121561082b57600080fd5b5035919050565b60006020828403121561084457600080fd5b813561084f816107cb565b9392505050565b8082028115828204841417610894577f4e487b7100000000000000000000000000000000000000000000000000000000600052601160045260246000fd5b92915050565b6000826108d0577f4e487b7100000000000000000000000000000000000000000000000000000000600052601260045260246000fd5b500490565b6000602082840312156108e757600080fd5b8151801515811461084f57600080fd5b60006020828403121561090957600080fd5b815161084f816107cb56fea264697066735822122075793ee5819af4034a35c1bec2a8eb3e46425f1a9c8d99df86865a431e65604d64736f6c63430008110033",
					"opcodes": "PUSH1 0x80 PUSH1 0x40 MSTORE CALLVALUE DUP1 ISZERO PUSH2 0x10 JUMPI PUSH1 0x0 DUP1 REVERT JUMPDEST POP PUSH1 0x40 MLOAD PUSH2 0xA58 CODESIZE SUB DUP1 PUSH2 0xA58 DUP4 CODECOPY DUP2 ADD PUSH1 0x40 DUP2 SWAP1 MSTORE PUSH2 0x2F SWAP2 PUSH2 0xE6 JUMP JUMPDEST PUSH2 0x38 CALLER PUSH2 0x96 JUMP JUMPDEST PUSH2 0x251C DUP2 GT ISZERO PUSH2 0x8E JUMPI PUSH1 0x40 MLOAD PUSH3 0x461BCD PUSH1 0xE5 SHL DUP2 MSTORE PUSH1 0x20 PUSH1 0x4 DUP3 ADD MSTORE PUSH1 0x1A PUSH1 0x24 DUP3 ADD MSTORE PUSH32 0x526F79616C747920666565206C696D697420746F6F2068696768000000000000 PUSH1 0x44 DUP3 ADD MSTORE PUSH1 0x64 ADD PUSH1 0x40 MLOAD DUP1 SWAP2 SUB SWAP1 REVERT JUMPDEST PUSH1 0x1 SSTORE PUSH2 0xFF JUMP JUMPDEST PUSH1 0x0 DUP1 SLOAD PUSH1 0x1 PUSH1 0x1 PUSH1 0xA0 SHL SUB DUP4 DUP2 AND PUSH1 0x1 PUSH1 0x1 PUSH1 0xA0 SHL SUB NOT DUP4 AND DUP2 OR DUP5 SSTORE PUSH1 0x40 MLOAD SWAP2 SWAP1 SWAP3 AND SWAP3 DUP4 SWAP2 PUSH32 0x8BE0079C531659141344CD1FD0A4F28419497F9722A3DAAFE3B4186F6B6457E0 SWAP2 SWAP1 LOG3 POP POP JUMP JUMPDEST PUSH1 0x0 PUSH1 0x20 DUP3 DUP5 SUB SLT ISZERO PUSH2 0xF8 JUMPI PUSH1 0x0 DUP1 REVERT JUMPDEST POP MLOAD SWAP2 SWAP1 POP JUMP JUMPDEST PUSH2 0x94A DUP1 PUSH2 0x10E PUSH1 0x0 CODECOPY PUSH1 0x0 RETURN INVALID PUSH1 0x80 PUSH1 0x40 MSTORE CALLVALUE DUP1 ISZERO PUSH2 0x10 JUMPI PUSH1 0x0 DUP1 REVERT JUMPDEST POP PUSH1 0x4 CALLDATASIZE LT PUSH2 0xC9 JUMPI PUSH1 0x0 CALLDATALOAD PUSH1 0xE0 SHR DUP1 PUSH4 0xB060DD86 GT PUSH2 0x81 JUMPI DUP1 PUSH4 0xC54E5497 GT PUSH2 0x5B JUMPI DUP1 PUSH4 0xC54E5497 EQ PUSH2 0x214 JUMPI DUP1 PUSH4 0xE31EF91C EQ PUSH2 0x255 JUMPI DUP1 PUSH4 0xF2FDE38B EQ PUSH2 0x2D4 JUMPI PUSH1 0x0 DUP1 REVERT JUMPDEST DUP1 PUSH4 0xB060DD86 EQ PUSH2 0x1B3 JUMPI DUP1 PUSH4 0xB9223C9D EQ PUSH2 0x1DA JUMPI DUP1 PUSH4 0xBC6BC0CD EQ PUSH2 0x1ED JUMPI PUSH1 0x0 DUP1 REVERT JUMPDEST DUP1 PUSH4 0x4FB7D3F9 GT PUSH2 0xB2 JUMPI DUP1 PUSH4 0x4FB7D3F9 EQ PUSH2 0x16A JUMPI DUP1 PUSH4 0x715018A6 EQ PUSH2 0x181 JUMPI DUP1 PUSH4 0x8DA5CB5B EQ PUSH2 0x18B JUMPI PUSH1 0x0 DUP1 REVERT JUMPDEST DUP1 PUSH4 0x2782D6C7 EQ PUSH2 0xCE JUMPI DUP1 PUSH4 0x33BF6156 EQ PUSH2 0x112 JUMPI JUMPDEST PUSH1 0x0 DUP1 REVERT JUMPDEST PUSH2 0xE1 PUSH2 0xDC CALLDATASIZE PUSH1 0x4 PUSH2 0x7ED JUMP JUMPDEST PUSH2 0x2E7 JUMP JUMPDEST PUSH1 0x40 DUP1 MLOAD PUSH20 0xFFFFFFFFFFFFFFFFFFFFFFFFFFFFFFFFFFFFFFFF SWAP1 SWAP4 AND DUP4 MSTORE PUSH1 0x20 DUP4 ADD SWAP2 SWAP1 SWAP2 MSTORE ADD JUMPDEST PUSH1 0x40 MLOAD DUP1 SWAP2 SUB SWAP1 RETURN JUMPDEST PUSH2 0x139 PUSH32 0xD9B67A2600000000000000000000000000000000000000000000000000000000 DUP2 JUMP JUMPDEST PUSH1 0x40 MLOAD PUSH32 0xFFFFFFFF00000000000000000000000000000000000000000000000000000000 SWAP1 SWAP2 AND DUP2 MSTORE PUSH1 0x20 ADD PUSH2 0x109 JUMP JUMPDEST PUSH2 0x173 PUSH1 0x1 SLOAD DUP2 JUMP JUMPDEST PUSH1 0x40 MLOAD SWAP1 DUP2 MSTORE PUSH1 0x20 ADD PUSH2 0x109 JUMP JUMPDEST PUSH2 0x189 PUSH2 0x341 JUMP JUMPDEST STOP JUMPDEST PUSH1 0x0 SLOAD PUSH1 0x40 MLOAD PUSH20 0xFFFFFFFFFFFFFFFFFFFFFFFFFFFFFFFFFFFFFFFF SWAP1 SWAP2 AND DUP2 MSTORE PUSH1 0x20 ADD PUSH2 0x109 JUMP JUMPDEST PUSH2 0x139 PUSH32 0x2A55205A00000000000000000000000000000000000000000000000000000000 DUP2 JUMP JUMPDEST PUSH2 0x189 PUSH2 0x1E8 CALLDATASIZE PUSH1 0x4 PUSH2 0x819 JUMP JUMPDEST PUSH2 0x355 JUMP JUMPDEST PUSH2 0x139 PUSH32 0x80AC58CD00000000000000000000000000000000000000000000000000000000 DUP2 JUMP JUMPDEST PUSH2 0x227 PUSH2 0x222 CALLDATASIZE PUSH1 0x4 PUSH2 0x832 JUMP JUMPDEST PUSH2 0x409 JUMP JUMPDEST PUSH1 0x40 DUP1 MLOAD PUSH20 0xFFFFFFFFFFFFFFFFFFFFFFFFFFFFFFFFFFFFFFFF SWAP1 SWAP4 AND DUP4 MSTORE PUSH1 0xFF SWAP1 SWAP2 AND PUSH1 0x20 DUP4 ADD MSTORE ADD PUSH2 0x109 JUMP JUMPDEST PUSH2 0x2A1 PUSH2 0x263 CALLDATASIZE PUSH1 0x4 PUSH2 0x832 JUMP JUMPDEST PUSH20 0xFFFFFFFFFFFFFFFFFFFFFFFFFFFFFFFFFFFFFFFF SWAP1 DUP2 AND PUSH1 0x0 SWAP1 DUP2 MSTORE PUSH1 0x2 PUSH1 0x20 DUP2 SWAP1 MSTORE PUSH1 0x40 SWAP1 SWAP2 KECCAK256 DUP1 SLOAD PUSH1 0x1 DUP3 ADD SLOAD SWAP2 SWAP1 SWAP3 ADD SLOAD SWAP2 DUP4 AND SWAP4 SWAP3 AND SWAP2 JUMP JUMPDEST PUSH1 0x40 DUP1 MLOAD PUSH20 0xFFFFFFFFFFFFFFFFFFFFFFFFFFFFFFFFFFFFFFFF SWAP5 DUP6 AND DUP2 MSTORE SWAP4 SWAP1 SWAP3 AND PUSH1 0x20 DUP5 ADD MSTORE SWAP1 DUP3 ADD MSTORE PUSH1 0x60 ADD PUSH2 0x109 JUMP JUMPDEST PUSH2 0x189 PUSH2 0x2E2 CALLDATASIZE PUSH1 0x4 PUSH2 0x832 JUMP JUMPDEST PUSH2 0x61E JUMP JUMPDEST PUSH20 0xFFFFFFFFFFFFFFFFFFFFFFFFFFFFFFFFFFFFFFFF DUP1 DUP4 AND PUSH1 0x0 SWAP1 DUP2 MSTORE PUSH1 0x2 PUSH1 0x20 DUP2 SWAP1 MSTORE PUSH1 0x40 DUP3 KECCAK256 PUSH1 0x1 DUP2 ADD SLOAD SWAP2 ADD SLOAD SWAP2 SWAP3 DUP4 SWAP3 SWAP2 AND SWAP1 PUSH2 0x2710 SWAP1 PUSH2 0x32C SWAP1 DUP7 PUSH2 0x856 JUMP JUMPDEST PUSH2 0x336 SWAP2 SWAP1 PUSH2 0x89A JUMP JUMPDEST SWAP2 POP SWAP2 POP SWAP3 POP SWAP3 SWAP1 POP JUMP JUMPDEST PUSH2 0x349 PUSH2 0x6D5 JUMP JUMPDEST PUSH2 0x353 PUSH1 0x0 PUSH2 0x756 JUMP JUMPDEST JUMP JUMPDEST PUSH2 0x35D PUSH2 0x6D5 JUMP JUMPDEST PUSH2 0x251C DUP2 GT ISZERO PUSH2 0x3CE JUMPI PUSH1 0x40 MLOAD PUSH32 0x8C379A000000000000000000000000000000000000000000000000000000000 DUP2 MSTORE PUSH1 0x20 PUSH1 0x4 DUP3 ADD MSTORE PUSH1 0x1A PUSH1 0x24 DUP3 ADD MSTORE PUSH32 0x526F79616C747920666565206C696D697420746F6F2068696768000000000000 PUSH1 0x44 DUP3 ADD MSTORE PUSH1 0x64 ADD JUMPDEST PUSH1 0x40 MLOAD DUP1 SWAP2 SUB SWAP1 REVERT JUMPDEST PUSH1 0x1 DUP2 SWAP1 SSTORE PUSH1 0x40 MLOAD DUP2 DUP2 MSTORE PUSH32 0x2DA7166C72EF3860EF4FB2571105533C40615269A6DBC38CE0B264910DF1C256 SWAP1 PUSH1 0x20 ADD PUSH1 0x40 MLOAD DUP1 SWAP2 SUB SWAP1 LOG1 POP JUMP JUMPDEST PUSH1 0x40 MLOAD PUSH32 0x1FFC9A700000000000000000000000000000000000000000000000000000000 DUP2 MSTORE PUSH32 0x2A55205A00000000000000000000000000000000000000000000000000000000 PUSH1 0x4 DUP3 ADD MSTORE PUSH1 0x0 SWAP1 DUP2 SWAP1 PUSH20 0xFFFFFFFFFFFFFFFFFFFFFFFFFFFFFFFFFFFFFFFF DUP5 AND SWAP1 PUSH4 0x1FFC9A7 SWAP1 PUSH1 0x24 ADD PUSH1 0x20 PUSH1 0x40 MLOAD DUP1 DUP4 SUB DUP2 DUP7 GAS STATICCALL SWAP3 POP POP POP DUP1 ISZERO PUSH2 0x4D2 JUMPI POP PUSH1 0x40 DUP1 MLOAD PUSH1 0x1F RETURNDATASIZE SWAP1 DUP2 ADD PUSH32 0xFFFFFFFFFFFFFFFFFFFFFFFFFFFFFFFFFFFFFFFFFFFFFFFFFFFFFFFFFFFFFFE0 AND DUP3 ADD SWAP1 SWAP3 MSTORE PUSH2 0x4CF SWAP2 DUP2 ADD SWAP1 PUSH2 0x8D5 JUMP JUMPDEST PUSH1 0x1 JUMPDEST ISZERO PUSH2 0x4EC JUMPI DUP1 ISZERO PUSH2 0x4EA JUMPI POP PUSH1 0x0 SWAP4 PUSH1 0x1 SWAP4 POP SWAP2 POP POP JUMP JUMPDEST POP JUMPDEST DUP3 PUSH20 0xFFFFFFFFFFFFFFFFFFFFFFFFFFFFFFFFFFFFFFFF AND PUSH4 0x8DA5CB5B PUSH1 0x40 MLOAD DUP2 PUSH4 0xFFFFFFFF AND PUSH1 0xE0 SHL DUP2 MSTORE PUSH1 0x4 ADD PUSH1 0x20 PUSH1 0x40 MLOAD DUP1 DUP4 SUB DUP2 DUP7 GAS STATICCALL SWAP3 POP POP POP DUP1 ISZERO PUSH2 0x571 JUMPI POP PUSH1 0x40 DUP1 MLOAD PUSH1 0x1F RETURNDATASIZE SWAP1 DUP2 ADD PUSH32 0xFFFFFFFFFFFFFFFFFFFFFFFFFFFFFFFFFFFFFFFFFFFFFFFFFFFFFFFFFFFFFFE0 AND DUP3 ADD SWAP1 SWAP3 MSTORE PUSH2 0x56E SWAP2 DUP2 ADD SWAP1 PUSH2 0x8F7 JUMP JUMPDEST PUSH1 0x1 JUMPDEST PUSH2 0x614 JUMPI DUP3 PUSH20 0xFFFFFFFFFFFFFFFFFFFFFFFFFFFFFFFFFFFFFFFF AND PUSH4 0xF851A440 PUSH1 0x40 MLOAD DUP2 PUSH4 0xFFFFFFFF AND PUSH1 0xE0 SHL DUP2 MSTORE PUSH1 0x4 ADD PUSH1 0x20 PUSH1 0x40 MLOAD DUP1 DUP4 SUB DUP2 DUP7 GAS STATICCALL SWAP3 POP POP POP DUP1 ISZERO PUSH2 0x5FA JUMPI POP PUSH1 0x40 DUP1 MLOAD PUSH1 0x1F RETURNDATASIZE SWAP1 DUP2 ADD PUSH32 0xFFFFFFFFFFFFFFFFFFFFFFFFFFFFFFFFFFFFFFFFFFFFFFFFFFFFFFFFFFFFFFE0 AND DUP3 ADD SWAP1 SWAP3 MSTORE PUSH2 0x5F7 SWAP2 DUP2 ADD SWAP1 PUSH2 0x8F7 JUMP JUMPDEST PUSH1 0x1 JUMPDEST PUSH2 0x60A JUMPI POP PUSH1 0x0 SWAP3 PUSH1 0x4 SWAP3 POP SWAP1 POP JUMP JUMPDEST SWAP4 PUSH1 0x3 SWAP4 POP SWAP2 POP POP JUMP JUMPDEST SWAP4 PUSH1 0x2 SWAP4 POP SWAP2 POP POP JUMP JUMPDEST PUSH2 0x626 PUSH2 0x6D5 JUMP JUMPDEST PUSH20 0xFFFFFFFFFFFFFFFFFFFFFFFFFFFFFFFFFFFFFFFF DUP2 AND PUSH2 0x6C9 JUMPI PUSH1 0x40 MLOAD PUSH32 0x8C379A000000000000000000000000000000000000000000000000000000000 DUP2 MSTORE PUSH1 0x20 PUSH1 0x4 DUP3 ADD MSTORE PUSH1 0x26 PUSH1 0x24 DUP3 ADD MSTORE PUSH32 0x4F776E61626C653A206E6577206F776E657220697320746865207A65726F2061 PUSH1 0x44 DUP3 ADD MSTORE PUSH32 0x6464726573730000000000000000000000000000000000000000000000000000 PUSH1 0x64 DUP3 ADD MSTORE PUSH1 0x84 ADD PUSH2 0x3C5 JUMP JUMPDEST PUSH2 0x6D2 DUP2 PUSH2 0x756 JUMP JUMPDEST POP JUMP JUMPDEST PUSH1 0x0 SLOAD PUSH20 0xFFFFFFFFFFFFFFFFFFFFFFFFFFFFFFFFFFFFFFFF AND CALLER EQ PUSH2 0x353 JUMPI PUSH1 0x40 MLOAD PUSH32 0x8C379A000000000000000000000000000000000000000000000000000000000 DUP2 MSTORE PUSH1 0x20 PUSH1 0x4 DUP3 ADD DUP2 SWAP1 MSTORE PUSH1 0x24 DUP3 ADD MSTORE PUSH32 0x4F776E61626C653A2063616C6C6572206973206E6F7420746865206F776E6572 PUSH1 0x44 DUP3 ADD MSTORE PUSH1 0x64 ADD PUSH2 0x3C5 JUMP JUMPDEST PUSH1 0x0 DUP1 SLOAD PUSH20 0xFFFFFFFFFFFFFFFFFFFFFFFFFFFFFFFFFFFFFFFF DUP4 DUP2 AND PUSH32 0xFFFFFFFFFFFFFFFFFFFFFFFF0000000000000000000000000000000000000000 DUP4 AND DUP2 OR DUP5 SSTORE PUSH1 0x40 MLOAD SWAP2 SWAP1 SWAP3 AND SWAP3 DUP4 SWAP2 PUSH32 0x8BE0079C531659141344CD1FD0A4F28419497F9722A3DAAFE3B4186F6B6457E0 SWAP2 SWAP1 LOG3 POP POP JUMP JUMPDEST PUSH20 0xFFFFFFFFFFFFFFFFFFFFFFFFFFFFFFFFFFFFFFFF DUP2 AND DUP2 EQ PUSH2 0x6D2 JUMPI PUSH1 0x0 DUP1 REVERT JUMPDEST PUSH1 0x0 DUP1 PUSH1 0x40 DUP4 DUP6 SUB SLT ISZERO PUSH2 0x800 JUMPI PUSH1 0x0 DUP1 REVERT JUMPDEST DUP3 CALLDATALOAD PUSH2 0x80B DUP2 PUSH2 0x7CB JUMP JUMPDEST SWAP5 PUSH1 0x20 SWAP4 SWAP1 SWAP4 ADD CALLDATALOAD SWAP4 POP POP POP JUMP JUMPDEST PUSH1 0x0 PUSH1 0x20 DUP3 DUP5 SUB SLT ISZERO PUSH2 0x82B JUMPI PUSH1 0x0 DUP1 REVERT JUMPDEST POP CALLDATALOAD SWAP2 SWAP1 POP JUMP JUMPDEST PUSH1 0x0 PUSH1 0x20 DUP3 DUP5 SUB SLT ISZERO PUSH2 0x844 JUMPI PUSH1 0x0 DUP1 REVERT JUMPDEST DUP2 CALLDATALOAD PUSH2 0x84F DUP2 PUSH2 0x7CB JUMP JUMPDEST SWAP4 SWAP3 POP POP POP JUMP JUMPDEST DUP1 DUP3 MUL DUP2 ISZERO DUP3 DUP3 DIV DUP5 EQ OR PUSH2 0x894 JUMPI PUSH32 0x4E487B7100000000000000000000000000000000000000000000000000000000 PUSH1 0x0 MSTORE PUSH1 0x11 PUSH1 0x4 MSTORE PUSH1 0x24 PUSH1 0x0 REVERT JUMPDEST SWAP3 SWAP2 POP POP JUMP JUMPDEST PUSH1 0x0 DUP3 PUSH2 0x8D0 JUMPI PUSH32 0x4E487B7100000000000000000000000000000000000000000000000000000000 PUSH1 0x0 MSTORE PUSH1 0x12 PUSH1 0x4 MSTORE PUSH1 0x24 PUSH1 0x0 REVERT JUMPDEST POP DIV SWAP1 JUMP JUMPDEST PUSH1 0x0 PUSH1 0x20 DUP3 DUP5 SUB SLT ISZERO PUSH2 0x8E7 JUMPI PUSH1 0x0 DUP1 REVERT JUMPDEST DUP2 MLOAD DUP1 ISZERO ISZERO DUP2 EQ PUSH2 0x84F JUMPI PUSH1 0x0 DUP1 REVERT JUMPDEST PUSH1 0x0 PUSH1 0x20 DUP3 DUP5 SUB SLT ISZERO PUSH2 0x909 JUMPI PUSH1 0x0 DUP1 REVERT JUMPDEST DUP2 MLOAD PUSH2 0x84F DUP2 PUSH2 0x7CB JUMP INVALID LOG2 PUSH5 0x6970667358 0x22 SLT KECCAK256 PUSH22 0x793EE5819AF4034A35C1BEC2A8EB3E46425F1A9C8D99 0xDF DUP7 DUP7 GAS NUMBER 0x1E PUSH6 0x604D64736F6C PUSH4 0x43000811 STOP CALLER "
				},
				"gasEstimates": {
					"creation": {
						"codeDepositCost": "475600",
						"executionCost": "infinite",
						"totalCost": "infinite"
					},
					"external": {
						"INTERFACE_ID_ERC1155()": "250",
						"INTERFACE_ID_ERC2981()": "227",
						"INTERFACE_ID_ERC721()": "271",
						"checkForCollectionSetter(address)": "infinite",
						"owner()": "2356",
						"renounceOwnership()": "infinite",
						"royaltyFeeInfoCollection(address)": "6862",
						"royaltyFeeLimit()": "2318",
						"royaltyInfo(address,uint256)": "4911",
						"transferOwnership(address)": "infinite",
						"updateRoyaltyFeeLimit(uint256)": "25612"
					},
					"internal": {
						"updateRoyaltyInfoForCollection(address,address,address,uint256)": "infinite"
					}
				},
				"methodIdentifiers": {
					"INTERFACE_ID_ERC1155()": "33bf6156",
					"INTERFACE_ID_ERC2981()": "b060dd86",
					"INTERFACE_ID_ERC721()": "bc6bc0cd",
					"checkForCollectionSetter(address)": "c54e5497",
					"owner()": "8da5cb5b",
					"renounceOwnership()": "715018a6",
					"royaltyFeeInfoCollection(address)": "e31ef91c",
					"royaltyFeeLimit()": "4fb7d3f9",
					"royaltyInfo(address,uint256)": "2782d6c7",
					"transferOwnership(address)": "f2fde38b",
					"updateRoyaltyFeeLimit(uint256)": "b9223c9d"
				}
			},
			"storageLayout": {
				"storage": [
					{
						"astId": 7,
						"contract": "contracts/Manager/royalty/RoyaltyFeeRegistry.sol:RoyaltyFeeRegistry",
						"label": "_owner",
						"offset": 0,
						"slot": "0",
						"type": "t_address"
					},
					{
						"astId": 196,
						"contract": "contracts/Manager/royalty/RoyaltyFeeRegistry.sol:RoyaltyFeeRegistry",
						"label": "royaltyFeeLimit",
						"offset": 0,
						"slot": "1",
						"type": "t_uint256"
					},
					{
						"astId": 201,
						"contract": "contracts/Manager/royalty/RoyaltyFeeRegistry.sol:RoyaltyFeeRegistry",
						"label": "_royaltyFeeInfoCollection",
						"offset": 0,
						"slot": "2",
						"type": "t_mapping(t_address,t_struct(FeeInfo)185_storage)"
					}
				],
				"types": {
					"t_address": {
						"encoding": "inplace",
						"label": "address",
						"numberOfBytes": "20"
					},
					"t_mapping(t_address,t_struct(FeeInfo)185_storage)": {
						"encoding": "mapping",
						"key": "t_address",
						"label": "mapping(address => struct RoyaltyFeeRegistry.FeeInfo)",
						"numberOfBytes": "32",
						"value": "t_struct(FeeInfo)185_storage"
					},
					"t_struct(FeeInfo)185_storage": {
						"encoding": "inplace",
						"label": "struct RoyaltyFeeRegistry.FeeInfo",
						"members": [
							{
								"astId": 180,
								"contract": "contracts/Manager/royalty/RoyaltyFeeRegistry.sol:RoyaltyFeeRegistry",
								"label": "setter",
								"offset": 0,
								"slot": "0",
								"type": "t_address"
							},
							{
								"astId": 182,
								"contract": "contracts/Manager/royalty/RoyaltyFeeRegistry.sol:RoyaltyFeeRegistry",
								"label": "receiver",
								"offset": 0,
								"slot": "1",
								"type": "t_address"
							},
							{
								"astId": 184,
								"contract": "contracts/Manager/royalty/RoyaltyFeeRegistry.sol:RoyaltyFeeRegistry",
								"label": "fee",
								"offset": 0,
								"slot": "2",
								"type": "t_uint256"
							}
						],
						"numberOfBytes": "96"
					},
					"t_uint256": {
						"encoding": "inplace",
						"label": "uint256",
						"numberOfBytes": "32"
					}
				}
			},
			"userdoc": {
				"kind": "user",
				"methods": {},
				"version": 1
			}
		}
	}
}