{
	"contracts/Manager/royalty/RoyaltyFeeRegistry.sol": {
		"RoyaltyFeeRegistry": {
			"abi": [
				{
					"inputs": [
						{
							"internalType": "uint256",
							"name": "_royaltyFeeLimit",
							"type": "uint256"
						}
					],
					"stateMutability": "nonpayable",
					"type": "constructor"
				},
				{
					"anonymous": false,
					"inputs": [
						{
							"indexed": false,
							"internalType": "uint256",
							"name": "royaltyFeeLimit",
							"type": "uint256"
						}
					],
					"name": "NewRoyaltyFeeLimit",
					"type": "event"
				},
				{
					"anonymous": false,
					"inputs": [
						{
							"indexed": true,
							"internalType": "address",
							"name": "previousOwner",
							"type": "address"
						},
						{
							"indexed": true,
							"internalType": "address",
							"name": "newOwner",
							"type": "address"
						}
					],
					"name": "OwnershipTransferred",
					"type": "event"
				},
				{
					"anonymous": false,
					"inputs": [
						{
							"indexed": true,
							"internalType": "address",
							"name": "collection",
							"type": "address"
						},
						{
							"indexed": true,
							"internalType": "address",
							"name": "setter",
							"type": "address"
						},
						{
							"indexed": true,
							"internalType": "address",
							"name": "receiver",
							"type": "address"
						},
						{
							"indexed": false,
							"internalType": "uint256",
							"name": "fee",
							"type": "uint256"
						}
					],
					"name": "RoyaltyFeeUpdate",
					"type": "event"
				},
				{
					"inputs": [],
					"name": "INTERFACE_ID_ERC1155",
					"outputs": [
						{
							"internalType": "bytes4",
							"name": "",
							"type": "bytes4"
						}
					],
					"stateMutability": "view",
					"type": "function"
				},
				{
					"inputs": [],
					"name": "INTERFACE_ID_ERC2981",
					"outputs": [
						{
							"internalType": "bytes4",
							"name": "",
							"type": "bytes4"
						}
					],
					"stateMutability": "view",
					"type": "function"
				},
				{
					"inputs": [],
					"name": "INTERFACE_ID_ERC721",
					"outputs": [
						{
							"internalType": "bytes4",
							"name": "",
							"type": "bytes4"
						}
					],
					"stateMutability": "view",
					"type": "function"
				},
				{
					"inputs": [
						{
							"internalType": "address",
							"name": "collection",
							"type": "address"
						}
					],
					"name": "checkForCollectionSetter",
					"outputs": [
						{
							"internalType": "address",
							"name": "",
							"type": "address"
						},
						{
							"internalType": "uint8",
							"name": "",
							"type": "uint8"
						}
					],
					"stateMutability": "view",
					"type": "function"
				},
				{
					"inputs": [],
					"name": "owner",
					"outputs": [
						{
							"internalType": "address",
							"name": "",
							"type": "address"
						}
					],
					"stateMutability": "view",
					"type": "function"
				},
				{
					"inputs": [],
					"name": "renounceOwnership",
					"outputs": [],
					"stateMutability": "nonpayable",
					"type": "function"
				},
				{
					"inputs": [
						{
							"internalType": "address",
							"name": "collection",
							"type": "address"
						}
					],
					"name": "royaltyFeeInfoCollection",
					"outputs": [
						{
							"internalType": "address",
							"name": "",
							"type": "address"
						},
						{
							"internalType": "address",
							"name": "",
							"type": "address"
						},
						{
							"internalType": "uint256",
							"name": "",
							"type": "uint256"
						}
					],
					"stateMutability": "view",
					"type": "function"
				},
				{
					"inputs": [],
					"name": "royaltyFeeLimit",
					"outputs": [
						{
							"internalType": "uint256",
							"name": "",
							"type": "uint256"
						}
					],
					"stateMutability": "view",
					"type": "function"
				},
				{
					"inputs": [
						{
							"internalType": "address",
							"name": "collection",
							"type": "address"
						},
						{
							"internalType": "uint256",
							"name": "amount",
							"type": "uint256"
						}
					],
					"name": "royaltyInfo",
					"outputs": [
						{
							"internalType": "address",
							"name": "",
							"type": "address"
						},
						{
							"internalType": "uint256",
							"name": "",
							"type": "uint256"
						}
					],
					"stateMutability": "view",
					"type": "function"
				},
				{
					"inputs": [
						{
							"internalType": "address",
							"name": "newOwner",
							"type": "address"
						}
					],
					"name": "transferOwnership",
					"outputs": [],
					"stateMutability": "nonpayable",
					"type": "function"
				},
				{
					"inputs": [
						{
							"internalType": "uint256",
							"name": "_royaltyFeeLimit",
							"type": "uint256"
						}
					],
					"name": "updateRoyaltyFeeLimit",
					"outputs": [],
					"stateMutability": "nonpayable",
					"type": "function"
				},
				{
					"inputs": [
						{
							"internalType": "address",
							"name": "collection",
							"type": "address"
						},
						{
							"internalType": "address",
							"name": "setter",
							"type": "address"
						},
						{
							"internalType": "address",
							"name": "receiver",
							"type": "address"
						},
						{
							"internalType": "uint256",
							"name": "fee",
							"type": "uint256"
						}
					],
					"name": "updateRoyaltyInfoForCollectionIfAdmin",
					"outputs": [],
					"stateMutability": "nonpayable",
					"type": "function"
				},
				{
					"inputs": [
						{
							"internalType": "address",
							"name": "collection",
							"type": "address"
						},
						{
							"internalType": "address",
							"name": "setter",
							"type": "address"
						},
						{
							"internalType": "address",
							"name": "receiver",
							"type": "address"
						},
						{
							"internalType": "uint256",
							"name": "fee",
							"type": "uint256"
						}
					],
					"name": "updateRoyaltyInfoForCollectionIfOwner",
					"outputs": [],
					"stateMutability": "nonpayable",
					"type": "function"
				}
			],
			"devdoc": {
				"kind": "dev",
				"methods": {
					"owner()": {
						"details": "Returns the address of the current owner."
					},
					"renounceOwnership()": {
						"details": "Leaves the contract without owner. It will not be possible to call `onlyOwner` functions anymore. Can only be called by the current owner. NOTE: Renouncing ownership will leave the contract without an owner, thereby removing any functionality that is only available to the owner."
					},
					"transferOwnership(address)": {
						"details": "Transfers ownership of the contract to a new account (`newOwner`). Can only be called by the current owner."
					}
				},
				"version": 1
			},
			"evm": {
				"assembly": "    /* \"contracts/Manager/royalty/RoyaltyFeeRegistry.sol\":357:6277  contract RoyaltyFeeRegistry is IRoyaltyFeeRegistry, Ownable {... */\n  mstore(0x40, 0x80)\n    /* \"contracts/Manager/royalty/RoyaltyFeeRegistry.sol\":1194:1398  constructor(uint256 _royaltyFeeLimit) {... */\n  callvalue\n  dup1\n  iszero\n  tag_1\n  jumpi\n  0x00\n  dup1\n  revert\ntag_1:\n  pop\n  mload(0x40)\n  sub(codesize, bytecodeSize)\n  dup1\n  bytecodeSize\n  dup4\n  codecopy\n  dup2\n  add\n  0x40\n  dup2\n  swap1\n  mstore\n  tag_2\n  swap2\n  tag_3\n  jump\t// in\ntag_2:\n    /* \"@openzeppelin/contracts/access/Ownable.sol\":936:968  _transferOwnership(_msgSender()) */\n  tag_7\n    /* \"@openzeppelin/contracts/utils/Context.sol\":719:729  msg.sender */\n  caller\n    /* \"@openzeppelin/contracts/access/Ownable.sol\":936:954  _transferOwnership */\n  tag_10\n    /* \"@openzeppelin/contracts/access/Ownable.sol\":936:968  _transferOwnership(_msgSender()) */\n  jump\t// in\ntag_7:\n    /* \"contracts/Manager/royalty/RoyaltyFeeRegistry.sol\":1312:1316  9500 */\n  0x251c\n    /* \"contracts/Manager/royalty/RoyaltyFeeRegistry.sol\":1292:1308  _royaltyFeeLimit */\n  dup2\n    /* \"contracts/Manager/royalty/RoyaltyFeeRegistry.sol\":1292:1316  _royaltyFeeLimit <= 9500 */\n  gt\n  iszero\n    /* \"contracts/Manager/royalty/RoyaltyFeeRegistry.sol\":1284:1347  require(_royaltyFeeLimit <= 9500, \"Royalty fee limit too high\") */\n  tag_12\n  jumpi\n  mload(0x40)\n  shl(0xe5, 0x461bcd)\n  dup2\n  mstore\n    /* \"#utility.yul\":405:407   */\n  0x20\n    /* \"contracts/Manager/royalty/RoyaltyFeeRegistry.sol\":1284:1347  require(_royaltyFeeLimit <= 9500, \"Royalty fee limit too high\") */\n  0x04\n  dup3\n  add\n    /* \"#utility.yul\":387:408   */\n  mstore\n    /* \"#utility.yul\":444:446   */\n  0x1a\n    /* \"#utility.yul\":424:442   */\n  0x24\n  dup3\n  add\n    /* \"#utility.yul\":417:447   */\n  mstore\n    /* \"#utility.yul\":483:511   */\n  0x526f79616c747920666565206c696d697420746f6f2068696768000000000000\n    /* \"#utility.yul\":463:481   */\n  0x44\n  dup3\n  add\n    /* \"#utility.yul\":456:512   */\n  mstore\n    /* \"#utility.yul\":529:547   */\n  0x64\n  add\n    /* \"contracts/Manager/royalty/RoyaltyFeeRegistry.sol\":1284:1347  require(_royaltyFeeLimit <= 9500, \"Royalty fee limit too high\") */\n  mload(0x40)\n  dup1\n  swap2\n  sub\n  swap1\n  revert\ntag_12:\n    /* \"contracts/Manager/royalty/RoyaltyFeeRegistry.sol\":1357:1372  royaltyFeeLimit */\n  0x01\n    /* \"contracts/Manager/royalty/RoyaltyFeeRegistry.sol\":1357:1391  royaltyFeeLimit = _royaltyFeeLimit */\n  sstore\n    /* \"contracts/Manager/royalty/RoyaltyFeeRegistry.sol\":357:6277  contract RoyaltyFeeRegistry is IRoyaltyFeeRegistry, Ownable {... */\n  jump(tag_18)\n    /* \"@openzeppelin/contracts/access/Ownable.sol\":2433:2620  function _transferOwnership(address newOwner) internal virtual {... */\ntag_10:\n    /* \"@openzeppelin/contracts/access/Ownable.sol\":2506:2522  address oldOwner */\n  0x00\n    /* \"@openzeppelin/contracts/access/Ownable.sol\":2525:2531  _owner */\n  dup1\n  sload\n  sub(shl(0xa0, 0x01), 0x01)\n    /* \"@openzeppelin/contracts/access/Ownable.sol\":2541:2558  _owner = newOwner */\n  dup4\n  dup2\n  and\n  not(sub(shl(0xa0, 0x01), 0x01))\n  dup4\n  and\n  dup2\n  or\n  dup5\n  sstore\n    /* \"@openzeppelin/contracts/access/Ownable.sol\":2573:2613  OwnershipTransferred(oldOwner, newOwner) */\n  mload(0x40)\n    /* \"@openzeppelin/contracts/access/Ownable.sol\":2525:2531  _owner */\n  swap2\n  swap1\n  swap3\n  and\n  swap3\n  dup4\n  swap2\n    /* \"@openzeppelin/contracts/access/Ownable.sol\":2573:2613  OwnershipTransferred(oldOwner, newOwner) */\n  0x8be0079c531659141344cd1fd0a4f28419497f9722a3daafe3b4186f6b6457e0\n  swap2\n    /* \"@openzeppelin/contracts/access/Ownable.sol\":2506:2522  address oldOwner */\n  swap1\n    /* \"@openzeppelin/contracts/access/Ownable.sol\":2573:2613  OwnershipTransferred(oldOwner, newOwner) */\n  log3\n    /* \"@openzeppelin/contracts/access/Ownable.sol\":2496:2620  {... */\n  pop\n    /* \"@openzeppelin/contracts/access/Ownable.sol\":2433:2620  function _transferOwnership(address newOwner) internal virtual {... */\n  pop\n  jump\t// out\n    /* \"#utility.yul\":14:198   */\ntag_3:\n    /* \"#utility.yul\":84:90   */\n  0x00\n    /* \"#utility.yul\":137:139   */\n  0x20\n    /* \"#utility.yul\":125:134   */\n  dup3\n    /* \"#utility.yul\":116:123   */\n  dup5\n    /* \"#utility.yul\":112:135   */\n  sub\n    /* \"#utility.yul\":108:140   */\n  slt\n    /* \"#utility.yul\":105:157   */\n  iszero\n  tag_20\n  jumpi\n    /* \"#utility.yul\":153:154   */\n  0x00\n    /* \"#utility.yul\":150:151   */\n  dup1\n    /* \"#utility.yul\":143:155   */\n  revert\n    /* \"#utility.yul\":105:157   */\ntag_20:\n  pop\n    /* \"#utility.yul\":176:192   */\n  mload\n  swap2\n    /* \"#utility.yul\":14:198   */\n  swap1\n  pop\n  jump\t// out\n    /* \"#utility.yul\":203:553   */\ntag_18:\n    /* \"contracts/Manager/royalty/RoyaltyFeeRegistry.sol\":357:6277  contract RoyaltyFeeRegistry is IRoyaltyFeeRegistry, Ownable {... */\n  dataSize(sub_0)\n  dup1\n  dataOffset(sub_0)\n  0x00\n  codecopy\n  0x00\n  return\nstop\n\nsub_0: assembly {\n        /* \"contracts/Manager/royalty/RoyaltyFeeRegistry.sol\":357:6277  contract RoyaltyFeeRegistry is IRoyaltyFeeRegistry, Ownable {... */\n      mstore(0x40, 0x80)\n      callvalue\n      dup1\n      iszero\n      tag_1\n      jumpi\n      0x00\n      dup1\n      revert\n    tag_1:\n      pop\n      jumpi(tag_2, lt(calldatasize, 0x04))\n      shr(0xe0, calldataload(0x00))\n      dup1\n      0xab016670\n      gt\n      tag_16\n      jumpi\n      dup1\n      0xbc6bc0cd\n      gt\n      tag_17\n      jumpi\n      dup1\n      0xbc6bc0cd\n      eq\n      tag_12\n      jumpi\n      dup1\n      0xc54e5497\n      eq\n      tag_13\n      jumpi\n      dup1\n      0xe31ef91c\n      eq\n      tag_14\n      jumpi\n      dup1\n      0xf2fde38b\n      eq\n      tag_15\n      jumpi\n      0x00\n      dup1\n      revert\n    tag_17:\n      dup1\n      0xab016670\n      eq\n      tag_9\n      jumpi\n      dup1\n      0xb060dd86\n      eq\n      tag_10\n      jumpi\n      dup1\n      0xb9223c9d\n      eq\n      tag_11\n      jumpi\n      0x00\n      dup1\n      revert\n    tag_16:\n      dup1\n      0x4fb7d3f9\n      gt\n      tag_18\n      jumpi\n      dup1\n      0x4fb7d3f9\n      eq\n      tag_6\n      jumpi\n      dup1\n      0x715018a6\n      eq\n      tag_7\n      jumpi\n      dup1\n      0x8da5cb5b\n      eq\n      tag_8\n      jumpi\n      0x00\n      dup1\n      revert\n    tag_18:\n      dup1\n      0x2782d6c7\n      eq\n      tag_3\n      jumpi\n      dup1\n      0x33bf6156\n      eq\n      tag_4\n      jumpi\n      dup1\n      0x3755fa80\n      eq\n      tag_5\n      jumpi\n    tag_2:\n      0x00\n      dup1\n      revert\n        /* \"contracts/Manager/royalty/RoyaltyFeeRegistry.sol\":2340:2607  function royaltyInfo(address collection, uint256 amount) external view override returns (address, uint256) {... */\n    tag_3:\n      tag_19\n      tag_20\n      calldatasize\n      0x04\n      tag_21\n      jump\t// in\n    tag_20:\n      tag_22\n      jump\t// in\n    tag_19:\n      0x40\n      dup1\n      mload\n        /* \"#utility.yul\":697:739   */\n      0xffffffffffffffffffffffffffffffffffffffff\n        /* \"#utility.yul\":685:740   */\n      swap1\n      swap4\n      and\n        /* \"#utility.yul\":667:741   */\n      dup4\n      mstore\n        /* \"#utility.yul\":772:774   */\n      0x20\n        /* \"#utility.yul\":757:775   */\n      dup4\n      add\n        /* \"#utility.yul\":750:784   */\n      swap2\n      swap1\n      swap2\n      mstore\n        /* \"#utility.yul\":640:658   */\n      add\n        /* \"contracts/Manager/royalty/RoyaltyFeeRegistry.sol\":2340:2607  function royaltyInfo(address collection, uint256 amount) external view override returns (address, uint256) {... */\n    tag_23:\n      mload(0x40)\n      dup1\n      swap2\n      sub\n      swap1\n      return\n        /* \"contracts/Manager/royalty/RoyaltyFeeRegistry.sol\":639:695  bytes4 public constant INTERFACE_ID_ERC1155 = 0xd9b67a26 */\n    tag_4:\n      tag_25\n      0xd9b67a2600000000000000000000000000000000000000000000000000000000\n      dup2\n      jump\n    tag_25:\n      mload(0x40)\n        /* \"#utility.yul\":969:1035   */\n      0xffffffff00000000000000000000000000000000000000000000000000000000\n        /* \"#utility.yul\":957:1036   */\n      swap1\n      swap2\n      and\n        /* \"#utility.yul\":939:1037   */\n      dup2\n      mstore\n        /* \"#utility.yul\":927:929   */\n      0x20\n        /* \"#utility.yul\":912:930   */\n      add\n        /* \"contracts/Manager/royalty/RoyaltyFeeRegistry.sol\":639:695  bytes4 public constant INTERFACE_ID_ERC1155 = 0xd9b67a26 */\n      tag_23\n        /* \"#utility.yul\":795:1043   */\n      jump\n        /* \"contracts/Manager/royalty/RoyaltyFeeRegistry.sol\":4976:5417  function updateRoyaltyInfoForCollectionIfOwner(... */\n    tag_5:\n      tag_29\n      tag_30\n      calldatasize\n      0x04\n      tag_31\n      jump\t// in\n    tag_30:\n      tag_32\n      jump\t// in\n    tag_29:\n      stop\n        /* \"contracts/Manager/royalty/RoyaltyFeeRegistry.sol\":840:870  uint256 public royaltyFeeLimit */\n    tag_6:\n      tag_33\n      sload(0x01)\n      dup2\n      jump\n    tag_33:\n      mload(0x40)\n        /* \"#utility.yul\":1797:1822   */\n      swap1\n      dup2\n      mstore\n        /* \"#utility.yul\":1785:1787   */\n      0x20\n        /* \"#utility.yul\":1770:1788   */\n      add\n        /* \"contracts/Manager/royalty/RoyaltyFeeRegistry.sol\":840:870  uint256 public royaltyFeeLimit */\n      tag_23\n        /* \"#utility.yul\":1651:1828   */\n      jump\n        /* \"@openzeppelin/contracts/access/Ownable.sol\":1831:1932  function renounceOwnership() public virtual onlyOwner {... */\n    tag_7:\n      tag_29\n      tag_38\n      jump\t// in\n        /* \"@openzeppelin/contracts/access/Ownable.sol\":1201:1286  function owner() public view virtual returns (address) {... */\n    tag_8:\n        /* \"@openzeppelin/contracts/access/Ownable.sol\":1247:1254  address */\n      0x00\n        /* \"@openzeppelin/contracts/access/Ownable.sol\":1273:1279  _owner */\n      sload\n        /* \"@openzeppelin/contracts/access/Ownable.sol\":1201:1286  function owner() public view virtual returns (address) {... */\n      mload(0x40)\n        /* \"@openzeppelin/contracts/access/Ownable.sol\":1273:1279  _owner */\n      0xffffffffffffffffffffffffffffffffffffffff\n      swap1\n      swap2\n      and\n        /* \"#utility.yul\":1979:2053   */\n      dup2\n      mstore\n        /* \"#utility.yul\":1967:1969   */\n      0x20\n        /* \"#utility.yul\":1952:1970   */\n      add\n        /* \"@openzeppelin/contracts/access/Ownable.sol\":1201:1286  function owner() public view virtual returns (address) {... */\n      tag_23\n        /* \"#utility.yul\":1833:2059   */\n      jump\n        /* \"contracts/Manager/royalty/RoyaltyFeeRegistry.sol\":4217:4708  function updateRoyaltyInfoForCollectionIfAdmin(... */\n    tag_9:\n      tag_29\n      tag_44\n      calldatasize\n      0x04\n      tag_31\n      jump\t// in\n    tag_44:\n      tag_45\n      jump\t// in\n        /* \"contracts/Manager/royalty/RoyaltyFeeRegistry.sol\":729:785  bytes4 public constant INTERFACE_ID_ERC2981 = 0x2a55205a */\n    tag_10:\n      tag_25\n      0x2a55205a00000000000000000000000000000000000000000000000000000000\n      dup2\n      jump\n        /* \"contracts/Manager/royalty/RoyaltyFeeRegistry.sol\":1460:1763  function updateRoyaltyFeeLimit(uint256 _royaltyFeeLimit) external override onlyOwner {... */\n    tag_11:\n      tag_29\n      tag_50\n      calldatasize\n      0x04\n      tag_51\n      jump\t// in\n    tag_50:\n      tag_52\n      jump\t// in\n        /* \"contracts/Manager/royalty/RoyaltyFeeRegistry.sol\":550:605  bytes4 public constant INTERFACE_ID_ERC721 = 0x80ac58cd */\n    tag_12:\n      tag_25\n      0x80ac58cd00000000000000000000000000000000000000000000000000000000\n      dup2\n      jump\n        /* \"contracts/Manager/royalty/RoyaltyFeeRegistry.sol\":3225:3853  function checkForCollectionSetter(address collection) external view returns (address, uint8) {... */\n    tag_13:\n      tag_56\n      tag_57\n      calldatasize\n      0x04\n      tag_58\n      jump\t// in\n    tag_57:\n      tag_59\n      jump\t// in\n    tag_56:\n      0x40\n      dup1\n      mload\n        /* \"#utility.yul\":2701:2743   */\n      0xffffffffffffffffffffffffffffffffffffffff\n        /* \"#utility.yul\":2689:2744   */\n      swap1\n      swap4\n      and\n        /* \"#utility.yul\":2671:2745   */\n      dup4\n      mstore\n        /* \"#utility.yul\":2793:2797   */\n      0xff\n        /* \"#utility.yul\":2781:2798   */\n      swap1\n      swap2\n      and\n        /* \"#utility.yul\":2776:2778   */\n      0x20\n        /* \"#utility.yul\":2761:2779   */\n      dup4\n      add\n        /* \"#utility.yul\":2754:2799   */\n      mstore\n        /* \"#utility.yul\":2644:2662   */\n      add\n        /* \"contracts/Manager/royalty/RoyaltyFeeRegistry.sol\":3225:3853  function checkForCollectionSetter(address collection) external view returns (address, uint8) {... */\n      tag_23\n        /* \"#utility.yul\":2501:2805   */\n      jump\n        /* \"contracts/Manager/royalty/RoyaltyFeeRegistry.sol\":2649:3007  function royaltyFeeInfoCollection(address collection)... */\n    tag_14:\n      tag_62\n      tag_63\n      calldatasize\n      0x04\n      tag_58\n      jump\t// in\n    tag_63:\n        /* \"contracts/Manager/royalty/RoyaltyFeeRegistry.sol\":2839:2876  _royaltyFeeInfoCollection[collection] */\n      0xffffffffffffffffffffffffffffffffffffffff\n      swap1\n      dup2\n      and\n        /* \"contracts/Manager/royalty/RoyaltyFeeRegistry.sol\":2760:2767  address */\n      0x00\n        /* \"contracts/Manager/royalty/RoyaltyFeeRegistry.sol\":2839:2876  _royaltyFeeInfoCollection[collection] */\n      swap1\n      dup2\n      mstore\n        /* \"contracts/Manager/royalty/RoyaltyFeeRegistry.sol\":2839:2864  _royaltyFeeInfoCollection */\n      0x02\n        /* \"contracts/Manager/royalty/RoyaltyFeeRegistry.sol\":2839:2876  _royaltyFeeInfoCollection[collection] */\n      0x20\n      dup2\n      swap1\n      mstore\n      0x40\n      swap1\n      swap2\n      keccak256\n        /* \"contracts/Manager/royalty/RoyaltyFeeRegistry.sol\":2839:2883  _royaltyFeeInfoCollection[collection].setter */\n      dup1\n      sload\n      0x01\n        /* \"contracts/Manager/royalty/RoyaltyFeeRegistry.sol\":2893:2939  _royaltyFeeInfoCollection[collection].receiver */\n      dup3\n      add\n      sload\n        /* \"contracts/Manager/royalty/RoyaltyFeeRegistry.sol\":2949:2990  _royaltyFeeInfoCollection[collection].fee */\n      swap2\n      swap1\n      swap3\n      add\n      sload\n        /* \"contracts/Manager/royalty/RoyaltyFeeRegistry.sol\":2839:2883  _royaltyFeeInfoCollection[collection].setter */\n      swap2\n      dup4\n      and\n      swap4\n        /* \"contracts/Manager/royalty/RoyaltyFeeRegistry.sol\":2893:2939  _royaltyFeeInfoCollection[collection].receiver */\n      swap3\n      and\n      swap2\n        /* \"contracts/Manager/royalty/RoyaltyFeeRegistry.sol\":2649:3007  function royaltyFeeInfoCollection(address collection)... */\n      jump\n    tag_62:\n      0x40\n      dup1\n      mload\n        /* \"#utility.yul\":3022:3064   */\n      0xffffffffffffffffffffffffffffffffffffffff\n        /* \"#utility.yul\":3091:3106   */\n      swap5\n      dup6\n      and\n        /* \"#utility.yul\":3073:3107   */\n      dup2\n      mstore\n        /* \"#utility.yul\":3143:3158   */\n      swap4\n      swap1\n      swap3\n      and\n        /* \"#utility.yul\":3138:3140   */\n      0x20\n        /* \"#utility.yul\":3123:3141   */\n      dup5\n      add\n        /* \"#utility.yul\":3116:3159   */\n      mstore\n        /* \"#utility.yul\":3175:3193   */\n      swap1\n      dup3\n      add\n        /* \"#utility.yul\":3168:3202   */\n      mstore\n        /* \"#utility.yul\":3000:3002   */\n      0x60\n        /* \"#utility.yul\":2985:3003   */\n      add\n        /* \"contracts/Manager/royalty/RoyaltyFeeRegistry.sol\":2649:3007  function royaltyFeeInfoCollection(address collection)... */\n      tag_23\n        /* \"#utility.yul\":2810:3208   */\n      jump\n        /* \"@openzeppelin/contracts/access/Ownable.sol\":2081:2279  function transferOwnership(address newOwner) public virtual onlyOwner {... */\n    tag_15:\n      tag_29\n      tag_68\n      calldatasize\n      0x04\n      tag_58\n      jump\t// in\n    tag_68:\n      tag_69\n      jump\t// in\n        /* \"contracts/Manager/royalty/RoyaltyFeeRegistry.sol\":2340:2607  function royaltyInfo(address collection, uint256 amount) external view override returns (address, uint256) {... */\n    tag_22:\n        /* \"contracts/Manager/royalty/RoyaltyFeeRegistry.sol\":2474:2511  _royaltyFeeInfoCollection[collection] */\n      0xffffffffffffffffffffffffffffffffffffffff\n      dup1\n      dup4\n      and\n        /* \"contracts/Manager/royalty/RoyaltyFeeRegistry.sol\":2429:2436  address */\n      0x00\n        /* \"contracts/Manager/royalty/RoyaltyFeeRegistry.sol\":2474:2511  _royaltyFeeInfoCollection[collection] */\n      swap1\n      dup2\n      mstore\n        /* \"contracts/Manager/royalty/RoyaltyFeeRegistry.sol\":2474:2499  _royaltyFeeInfoCollection */\n      0x02\n        /* \"contracts/Manager/royalty/RoyaltyFeeRegistry.sol\":2474:2511  _royaltyFeeInfoCollection[collection] */\n      0x20\n      dup2\n      swap1\n      mstore\n      0x40\n      dup3\n      keccak256\n        /* \"contracts/Manager/royalty/RoyaltyFeeRegistry.sol\":2474:2520  _royaltyFeeInfoCollection[collection].receiver */\n      0x01\n      dup2\n      add\n      sload\n        /* \"contracts/Manager/royalty/RoyaltyFeeRegistry.sol\":2540:2581  _royaltyFeeInfoCollection[collection].fee */\n      swap2\n      add\n      sload\n        /* \"contracts/Manager/royalty/RoyaltyFeeRegistry.sol\":2429:2436  address */\n      swap2\n      swap3\n      dup4\n      swap3\n        /* \"contracts/Manager/royalty/RoyaltyFeeRegistry.sol\":2474:2520  _royaltyFeeInfoCollection[collection].receiver */\n      swap2\n      and\n      swap1\n        /* \"contracts/Manager/royalty/RoyaltyFeeRegistry.sol\":2585:2590  10000 */\n      0x2710\n      swap1\n        /* \"contracts/Manager/royalty/RoyaltyFeeRegistry.sol\":2531:2581  amount * _royaltyFeeInfoCollection[collection].fee */\n      tag_71\n      swap1\n        /* \"contracts/Manager/royalty/RoyaltyFeeRegistry.sol\":2531:2537  amount */\n      dup7\n        /* \"contracts/Manager/royalty/RoyaltyFeeRegistry.sol\":2531:2581  amount * _royaltyFeeInfoCollection[collection].fee */\n      tag_72\n      jump\t// in\n    tag_71:\n        /* \"contracts/Manager/royalty/RoyaltyFeeRegistry.sol\":2530:2590  (amount * _royaltyFeeInfoCollection[collection].fee) / 10000 */\n      tag_73\n      swap2\n      swap1\n      tag_74\n      jump\t// in\n    tag_73:\n        /* \"contracts/Manager/royalty/RoyaltyFeeRegistry.sol\":2457:2600  return (... */\n      swap2\n      pop\n      swap2\n      pop\n        /* \"contracts/Manager/royalty/RoyaltyFeeRegistry.sol\":2340:2607  function royaltyInfo(address collection, uint256 amount) external view override returns (address, uint256) {... */\n      swap3\n      pop\n      swap3\n      swap1\n      pop\n      jump\t// out\n        /* \"contracts/Manager/royalty/RoyaltyFeeRegistry.sol\":4976:5417  function updateRoyaltyInfoForCollectionIfOwner(... */\n    tag_32:\n        /* \"contracts/Manager/royalty/RoyaltyFeeRegistry.sol\":5156:5215  IERC165(collection).supportsInterface(INTERFACE_ID_ERC2981) */\n      mload(0x40)\n      0x01ffc9a700000000000000000000000000000000000000000000000000000000\n      dup2\n      mstore\n        /* \"contracts/Manager/royalty/RoyaltyFeeRegistry.sol\":5194:5214  INTERFACE_ID_ERC2981 */\n      0x2a55205a00000000000000000000000000000000000000000000000000000000\n        /* \"contracts/Manager/royalty/RoyaltyFeeRegistry.sol\":5156:5215  IERC165(collection).supportsInterface(INTERFACE_ID_ERC2981) */\n      0x04\n      dup3\n      add\n        /* \"#utility.yul\":939:1037   */\n      mstore\n        /* \"contracts/Manager/royalty/RoyaltyFeeRegistry.sol\":5156:5193  IERC165(collection).supportsInterface */\n      0xffffffffffffffffffffffffffffffffffffffff\n      dup6\n      and\n      swap1\n      0x01ffc9a7\n      swap1\n        /* \"#utility.yul\":912:930   */\n      0x24\n      add\n        /* \"contracts/Manager/royalty/RoyaltyFeeRegistry.sol\":5156:5215  IERC165(collection).supportsInterface(INTERFACE_ID_ERC2981) */\n      0x20\n      mload(0x40)\n      dup1\n      dup4\n      sub\n      dup2\n      dup7\n      gas\n      staticcall\n      iszero\n      dup1\n      iszero\n      tag_78\n      jumpi\n      returndatasize\n      0x00\n      dup1\n      returndatacopy\n      revert(0x00, returndatasize)\n    tag_78:\n      pop\n      pop\n      pop\n      pop\n      mload(0x40)\n      returndatasize\n      not(0x1f)\n      0x1f\n      dup3\n      add\n      and\n      dup3\n      add\n      dup1\n      0x40\n      mstore\n      pop\n      dup2\n      add\n      swap1\n      tag_79\n      swap2\n      swap1\n      tag_80\n      jump\t// in\n    tag_79:\n        /* \"contracts/Manager/royalty/RoyaltyFeeRegistry.sol\":5155:5215  !IERC165(collection).supportsInterface(INTERFACE_ID_ERC2981) */\n      iszero\n        /* \"contracts/Manager/royalty/RoyaltyFeeRegistry.sol\":5147:5240  require(!IERC165(collection).supportsInterface(INTERFACE_ID_ERC2981), \" Must not be ERC2981\") */\n      tag_81\n      jumpi\n      mload(0x40)\n      0x08c379a000000000000000000000000000000000000000000000000000000000\n      dup2\n      mstore\n        /* \"#utility.yul\":4303:4305   */\n      0x20\n        /* \"contracts/Manager/royalty/RoyaltyFeeRegistry.sol\":5147:5240  require(!IERC165(collection).supportsInterface(INTERFACE_ID_ERC2981), \" Must not be ERC2981\") */\n      0x04\n      dup3\n      add\n        /* \"#utility.yul\":4285:4306   */\n      mstore\n        /* \"#utility.yul\":4342:4344   */\n      0x14\n        /* \"#utility.yul\":4322:4340   */\n      0x24\n      dup3\n      add\n        /* \"#utility.yul\":4315:4345   */\n      mstore\n        /* \"#utility.yul\":4381:4403   */\n      0x204d757374206e6f742062652045524332393831000000000000000000000000\n        /* \"#utility.yul\":4361:4379   */\n      0x44\n      dup3\n      add\n        /* \"#utility.yul\":4354:4404   */\n      mstore\n        /* \"#utility.yul\":4421:4439   */\n      0x64\n      add\n        /* \"contracts/Manager/royalty/RoyaltyFeeRegistry.sol\":5147:5240  require(!IERC165(collection).supportsInterface(INTERFACE_ID_ERC2981), \" Must not be ERC2981\") */\n    tag_82:\n      mload(0x40)\n      dup1\n      swap2\n      sub\n      swap1\n      revert\n    tag_81:\n        /* \"contracts/Manager/royalty/RoyaltyFeeRegistry.sol\":5281:5291  collection */\n      dup4\n        /* \"contracts/Manager/royalty/RoyaltyFeeRegistry.sol\":5272:5298  IOwnable(collection).owner */\n      0xffffffffffffffffffffffffffffffffffffffff\n      and\n      0x8da5cb5b\n        /* \"contracts/Manager/royalty/RoyaltyFeeRegistry.sol\":5272:5300  IOwnable(collection).owner() */\n      mload(0x40)\n      dup2\n      0xffffffff\n      and\n      0xe0\n      shl\n      dup2\n      mstore\n      0x04\n      add\n      0x20\n      mload(0x40)\n      dup1\n      dup4\n      sub\n      dup2\n      dup7\n      gas\n      staticcall\n      iszero\n      dup1\n      iszero\n      tag_85\n      jumpi\n      returndatasize\n      0x00\n      dup1\n      returndatacopy\n      revert(0x00, returndatasize)\n    tag_85:\n      pop\n      pop\n      pop\n      pop\n      mload(0x40)\n      returndatasize\n      not(0x1f)\n      0x1f\n      dup3\n      add\n      and\n      dup3\n      add\n      dup1\n      0x40\n      mstore\n      pop\n      dup2\n      add\n      swap1\n      tag_86\n      swap2\n      swap1\n      tag_87\n      jump\t// in\n    tag_86:\n        /* \"contracts/Manager/royalty/RoyaltyFeeRegistry.sol\":5258:5300  msg.sender == IOwnable(collection).owner() */\n      0xffffffffffffffffffffffffffffffffffffffff\n      and\n        /* \"contracts/Manager/royalty/RoyaltyFeeRegistry.sol\":5258:5268  msg.sender */\n      caller\n        /* \"contracts/Manager/royalty/RoyaltyFeeRegistry.sol\":5258:5300  msg.sender == IOwnable(collection).owner() */\n      0xffffffffffffffffffffffffffffffffffffffff\n      and\n      eq\n        /* \"contracts/Manager/royalty/RoyaltyFeeRegistry.sol\":5250:5319  require(msg.sender == IOwnable(collection).owner(), \" Not the owner\") */\n      tag_88\n      jumpi\n      mload(0x40)\n      0x08c379a000000000000000000000000000000000000000000000000000000000\n      dup2\n      mstore\n        /* \"#utility.yul\":4908:4910   */\n      0x20\n        /* \"contracts/Manager/royalty/RoyaltyFeeRegistry.sol\":5250:5319  require(msg.sender == IOwnable(collection).owner(), \" Not the owner\") */\n      0x04\n      dup3\n      add\n        /* \"#utility.yul\":4890:4911   */\n      mstore\n        /* \"#utility.yul\":4947:4949   */\n      0x0e\n        /* \"#utility.yul\":4927:4945   */\n      0x24\n      dup3\n      add\n        /* \"#utility.yul\":4920:4950   */\n      mstore\n        /* \"#utility.yul\":4986:5002   */\n      0x204e6f7420746865206f776e6572000000000000000000000000000000000000\n        /* \"#utility.yul\":4966:4984   */\n      0x44\n      dup3\n      add\n        /* \"#utility.yul\":4959:5003   */\n      mstore\n        /* \"#utility.yul\":5020:5038   */\n      0x64\n      add\n        /* \"contracts/Manager/royalty/RoyaltyFeeRegistry.sol\":5250:5319  require(msg.sender == IOwnable(collection).owner(), \" Not the owner\") */\n      tag_82\n        /* \"#utility.yul\":4706:5044   */\n      jump\n        /* \"contracts/Manager/royalty/RoyaltyFeeRegistry.sol\":5250:5319  require(msg.sender == IOwnable(collection).owner(), \" Not the owner\") */\n    tag_88:\n        /* \"contracts/Manager/royalty/RoyaltyFeeRegistry.sol\":5330:5410  _updateRoyaltyInfoForCollectionIfOwnerOrAdmin(collection, setter, receiver, fee) */\n      tag_91\n        /* \"contracts/Manager/royalty/RoyaltyFeeRegistry.sol\":5376:5386  collection */\n      dup5\n        /* \"contracts/Manager/royalty/RoyaltyFeeRegistry.sol\":5388:5394  setter */\n      dup5\n        /* \"contracts/Manager/royalty/RoyaltyFeeRegistry.sol\":5396:5404  receiver */\n      dup5\n        /* \"contracts/Manager/royalty/RoyaltyFeeRegistry.sol\":5406:5409  fee */\n      dup5\n        /* \"contracts/Manager/royalty/RoyaltyFeeRegistry.sol\":5330:5375  _updateRoyaltyInfoForCollectionIfOwnerOrAdmin */\n      tag_92\n        /* \"contracts/Manager/royalty/RoyaltyFeeRegistry.sol\":5330:5410  _updateRoyaltyInfoForCollectionIfOwnerOrAdmin(collection, setter, receiver, fee) */\n      jump\t// in\n    tag_91:\n        /* \"contracts/Manager/royalty/RoyaltyFeeRegistry.sol\":4976:5417  function updateRoyaltyInfoForCollectionIfOwner(... */\n      pop\n      pop\n      pop\n      pop\n      jump\t// out\n        /* \"@openzeppelin/contracts/access/Ownable.sol\":1831:1932  function renounceOwnership() public virtual onlyOwner {... */\n    tag_38:\n        /* \"@openzeppelin/contracts/access/Ownable.sol\":1094:1107  _checkOwner() */\n      tag_94\n        /* \"@openzeppelin/contracts/access/Ownable.sol\":1094:1105  _checkOwner */\n      tag_95\n        /* \"@openzeppelin/contracts/access/Ownable.sol\":1094:1107  _checkOwner() */\n      jump\t// in\n    tag_94:\n        /* \"@openzeppelin/contracts/access/Ownable.sol\":1895:1925  _transferOwnership(address(0)) */\n      tag_97\n        /* \"@openzeppelin/contracts/access/Ownable.sol\":1922:1923  0 */\n      0x00\n        /* \"@openzeppelin/contracts/access/Ownable.sol\":1895:1913  _transferOwnership */\n      tag_98\n        /* \"@openzeppelin/contracts/access/Ownable.sol\":1895:1925  _transferOwnership(address(0)) */\n      jump\t// in\n    tag_97:\n        /* \"@openzeppelin/contracts/access/Ownable.sol\":1831:1932  function renounceOwnership() public virtual onlyOwner {... */\n      jump\t// out\n        /* \"contracts/Manager/royalty/RoyaltyFeeRegistry.sol\":4217:4708  function updateRoyaltyInfoForCollectionIfAdmin(... */\n    tag_45:\n        /* \"contracts/Manager/royalty/RoyaltyFeeRegistry.sol\":4447:4506  IERC165(collection).supportsInterface(INTERFACE_ID_ERC2981) */\n      mload(0x40)\n      0x01ffc9a700000000000000000000000000000000000000000000000000000000\n      dup2\n      mstore\n        /* \"contracts/Manager/royalty/RoyaltyFeeRegistry.sol\":4485:4505  INTERFACE_ID_ERC2981 */\n      0x2a55205a00000000000000000000000000000000000000000000000000000000\n        /* \"contracts/Manager/royalty/RoyaltyFeeRegistry.sol\":4447:4506  IERC165(collection).supportsInterface(INTERFACE_ID_ERC2981) */\n      0x04\n      dup3\n      add\n        /* \"#utility.yul\":939:1037   */\n      mstore\n        /* \"contracts/Manager/royalty/RoyaltyFeeRegistry.sol\":4447:4484  IERC165(collection).supportsInterface */\n      0xffffffffffffffffffffffffffffffffffffffff\n      dup6\n      and\n      swap1\n      0x01ffc9a7\n      swap1\n        /* \"#utility.yul\":912:930   */\n      0x24\n      add\n        /* \"contracts/Manager/royalty/RoyaltyFeeRegistry.sol\":4447:4506  IERC165(collection).supportsInterface(INTERFACE_ID_ERC2981) */\n      0x20\n      mload(0x40)\n      dup1\n      dup4\n      sub\n      dup2\n      dup7\n      gas\n      staticcall\n      iszero\n      dup1\n      iszero\n      tag_103\n      jumpi\n      returndatasize\n      0x00\n      dup1\n      returndatacopy\n      revert(0x00, returndatasize)\n    tag_103:\n      pop\n      pop\n      pop\n      pop\n      mload(0x40)\n      returndatasize\n      not(0x1f)\n      0x1f\n      dup3\n      add\n      and\n      dup3\n      add\n      dup1\n      0x40\n      mstore\n      pop\n      dup2\n      add\n      swap1\n      tag_104\n      swap2\n      swap1\n      tag_80\n      jump\t// in\n    tag_104:\n        /* \"contracts/Manager/royalty/RoyaltyFeeRegistry.sol\":4446:4506  !IERC165(collection).supportsInterface(INTERFACE_ID_ERC2981) */\n      iszero\n        /* \"contracts/Manager/royalty/RoyaltyFeeRegistry.sol\":4438:4531  require(!IERC165(collection).supportsInterface(INTERFACE_ID_ERC2981), \" Must not be ERC2981\") */\n      tag_105\n      jumpi\n      mload(0x40)\n      0x08c379a000000000000000000000000000000000000000000000000000000000\n      dup2\n      mstore\n        /* \"#utility.yul\":4303:4305   */\n      0x20\n        /* \"contracts/Manager/royalty/RoyaltyFeeRegistry.sol\":4438:4531  require(!IERC165(collection).supportsInterface(INTERFACE_ID_ERC2981), \" Must not be ERC2981\") */\n      0x04\n      dup3\n      add\n        /* \"#utility.yul\":4285:4306   */\n      mstore\n        /* \"#utility.yul\":4342:4344   */\n      0x14\n        /* \"#utility.yul\":4322:4340   */\n      0x24\n      dup3\n      add\n        /* \"#utility.yul\":4315:4345   */\n      mstore\n        /* \"#utility.yul\":4381:4403   */\n      0x204d757374206e6f742062652045524332393831000000000000000000000000\n        /* \"#utility.yul\":4361:4379   */\n      0x44\n      dup3\n      add\n        /* \"#utility.yul\":4354:4404   */\n      mstore\n        /* \"#utility.yul\":4421:4439   */\n      0x64\n      add\n        /* \"contracts/Manager/royalty/RoyaltyFeeRegistry.sol\":4438:4531  require(!IERC165(collection).supportsInterface(INTERFACE_ID_ERC2981), \" Must not be ERC2981\") */\n      tag_82\n        /* \"#utility.yul\":4101:4445   */\n      jump\n        /* \"contracts/Manager/royalty/RoyaltyFeeRegistry.sol\":4438:4531  require(!IERC165(collection).supportsInterface(INTERFACE_ID_ERC2981), \" Must not be ERC2981\") */\n    tag_105:\n        /* \"contracts/Manager/royalty/RoyaltyFeeRegistry.sol\":4572:4582  collection */\n      dup4\n        /* \"contracts/Manager/royalty/RoyaltyFeeRegistry.sol\":4563:4589  IOwnable(collection).admin */\n      0xffffffffffffffffffffffffffffffffffffffff\n      and\n      0xf851a440\n        /* \"contracts/Manager/royalty/RoyaltyFeeRegistry.sol\":4563:4591  IOwnable(collection).admin() */\n      mload(0x40)\n      dup2\n      0xffffffff\n      and\n      0xe0\n      shl\n      dup2\n      mstore\n      0x04\n      add\n      0x20\n      mload(0x40)\n      dup1\n      dup4\n      sub\n      dup2\n      dup7\n      gas\n      staticcall\n      iszero\n      dup1\n      iszero\n      tag_108\n      jumpi\n      returndatasize\n      0x00\n      dup1\n      returndatacopy\n      revert(0x00, returndatasize)\n    tag_108:\n      pop\n      pop\n      pop\n      pop\n      mload(0x40)\n      returndatasize\n      not(0x1f)\n      0x1f\n      dup3\n      add\n      and\n      dup3\n      add\n      dup1\n      0x40\n      mstore\n      pop\n      dup2\n      add\n      swap1\n      tag_109\n      swap2\n      swap1\n      tag_87\n      jump\t// in\n    tag_109:\n        /* \"contracts/Manager/royalty/RoyaltyFeeRegistry.sol\":4549:4591  msg.sender == IOwnable(collection).admin() */\n      0xffffffffffffffffffffffffffffffffffffffff\n      and\n        /* \"contracts/Manager/royalty/RoyaltyFeeRegistry.sol\":4549:4559  msg.sender */\n      caller\n        /* \"contracts/Manager/royalty/RoyaltyFeeRegistry.sol\":4549:4591  msg.sender == IOwnable(collection).admin() */\n      0xffffffffffffffffffffffffffffffffffffffff\n      and\n      eq\n        /* \"contracts/Manager/royalty/RoyaltyFeeRegistry.sol\":4541:4610  require(msg.sender == IOwnable(collection).admin(), \" Not the admin\") */\n      tag_88\n      jumpi\n      mload(0x40)\n      0x08c379a000000000000000000000000000000000000000000000000000000000\n      dup2\n      mstore\n        /* \"#utility.yul\":5251:5253   */\n      0x20\n        /* \"contracts/Manager/royalty/RoyaltyFeeRegistry.sol\":4541:4610  require(msg.sender == IOwnable(collection).admin(), \" Not the admin\") */\n      0x04\n      dup3\n      add\n        /* \"#utility.yul\":5233:5254   */\n      mstore\n        /* \"#utility.yul\":5290:5292   */\n      0x0e\n        /* \"#utility.yul\":5270:5288   */\n      0x24\n      dup3\n      add\n        /* \"#utility.yul\":5263:5293   */\n      mstore\n        /* \"#utility.yul\":5329:5345   */\n      0x204e6f74207468652061646d696e000000000000000000000000000000000000\n        /* \"#utility.yul\":5309:5327   */\n      0x44\n      dup3\n      add\n        /* \"#utility.yul\":5302:5346   */\n      mstore\n        /* \"#utility.yul\":5363:5381   */\n      0x64\n      add\n        /* \"contracts/Manager/royalty/RoyaltyFeeRegistry.sol\":4541:4610  require(msg.sender == IOwnable(collection).admin(), \" Not the admin\") */\n      tag_82\n        /* \"#utility.yul\":5049:5387   */\n      jump\n        /* \"contracts/Manager/royalty/RoyaltyFeeRegistry.sol\":1460:1763  function updateRoyaltyFeeLimit(uint256 _royaltyFeeLimit) external override onlyOwner {... */\n    tag_52:\n        /* \"@openzeppelin/contracts/access/Ownable.sol\":1094:1107  _checkOwner() */\n      tag_115\n        /* \"@openzeppelin/contracts/access/Ownable.sol\":1094:1105  _checkOwner */\n      tag_95\n        /* \"@openzeppelin/contracts/access/Ownable.sol\":1094:1107  _checkOwner() */\n      jump\t// in\n    tag_115:\n        /* \"contracts/Manager/royalty/RoyaltyFeeRegistry.sol\":1625:1629  9500 */\n      0x251c\n        /* \"contracts/Manager/royalty/RoyaltyFeeRegistry.sol\":1605:1621  _royaltyFeeLimit */\n      dup2\n        /* \"contracts/Manager/royalty/RoyaltyFeeRegistry.sol\":1605:1629  _royaltyFeeLimit <= 9500 */\n      gt\n      iszero\n        /* \"contracts/Manager/royalty/RoyaltyFeeRegistry.sol\":1597:1660  require(_royaltyFeeLimit <= 9500, \"Royalty fee limit too high\") */\n      tag_117\n      jumpi\n      mload(0x40)\n      0x08c379a000000000000000000000000000000000000000000000000000000000\n      dup2\n      mstore\n        /* \"#utility.yul\":5594:5596   */\n      0x20\n        /* \"contracts/Manager/royalty/RoyaltyFeeRegistry.sol\":1597:1660  require(_royaltyFeeLimit <= 9500, \"Royalty fee limit too high\") */\n      0x04\n      dup3\n      add\n        /* \"#utility.yul\":5576:5597   */\n      mstore\n        /* \"#utility.yul\":5633:5635   */\n      0x1a\n        /* \"#utility.yul\":5613:5631   */\n      0x24\n      dup3\n      add\n        /* \"#utility.yul\":5606:5636   */\n      mstore\n        /* \"#utility.yul\":5672:5700   */\n      0x526f79616c747920666565206c696d697420746f6f2068696768000000000000\n        /* \"#utility.yul\":5652:5670   */\n      0x44\n      dup3\n      add\n        /* \"#utility.yul\":5645:5701   */\n      mstore\n        /* \"#utility.yul\":5718:5736   */\n      0x64\n      add\n        /* \"contracts/Manager/royalty/RoyaltyFeeRegistry.sol\":1597:1660  require(_royaltyFeeLimit <= 9500, \"Royalty fee limit too high\") */\n      tag_82\n        /* \"#utility.yul\":5392:5742   */\n      jump\n        /* \"contracts/Manager/royalty/RoyaltyFeeRegistry.sol\":1597:1660  require(_royaltyFeeLimit <= 9500, \"Royalty fee limit too high\") */\n    tag_117:\n        /* \"contracts/Manager/royalty/RoyaltyFeeRegistry.sol\":1670:1685  royaltyFeeLimit */\n      0x01\n        /* \"contracts/Manager/royalty/RoyaltyFeeRegistry.sol\":1670:1704  royaltyFeeLimit = _royaltyFeeLimit */\n      dup2\n      swap1\n      sstore\n        /* \"contracts/Manager/royalty/RoyaltyFeeRegistry.sol\":1720:1756  NewRoyaltyFeeLimit(_royaltyFeeLimit) */\n      mload(0x40)\n        /* \"#utility.yul\":1797:1822   */\n      dup2\n      dup2\n      mstore\n        /* \"contracts/Manager/royalty/RoyaltyFeeRegistry.sol\":1720:1756  NewRoyaltyFeeLimit(_royaltyFeeLimit) */\n      0x2da7166c72ef3860ef4fb2571105533c40615269a6dbc38ce0b264910df1c256\n      swap1\n        /* \"#utility.yul\":1785:1787   */\n      0x20\n        /* \"#utility.yul\":1770:1788   */\n      add\n        /* \"contracts/Manager/royalty/RoyaltyFeeRegistry.sol\":1720:1756  NewRoyaltyFeeLimit(_royaltyFeeLimit) */\n      mload(0x40)\n      dup1\n      swap2\n      sub\n      swap1\n      log1\n        /* \"contracts/Manager/royalty/RoyaltyFeeRegistry.sol\":1460:1763  function updateRoyaltyFeeLimit(uint256 _royaltyFeeLimit) external override onlyOwner {... */\n      pop\n      jump\t// out\n        /* \"contracts/Manager/royalty/RoyaltyFeeRegistry.sol\":3225:3853  function checkForCollectionSetter(address collection) external view returns (address, uint8) {... */\n    tag_59:\n        /* \"contracts/Manager/royalty/RoyaltyFeeRegistry.sol\":3332:3391  IERC165(collection).supportsInterface(INTERFACE_ID_ERC2981) */\n      mload(0x40)\n      0x01ffc9a700000000000000000000000000000000000000000000000000000000\n      dup2\n      mstore\n        /* \"contracts/Manager/royalty/RoyaltyFeeRegistry.sol\":3370:3390  INTERFACE_ID_ERC2981 */\n      0x2a55205a00000000000000000000000000000000000000000000000000000000\n        /* \"contracts/Manager/royalty/RoyaltyFeeRegistry.sol\":3332:3391  IERC165(collection).supportsInterface(INTERFACE_ID_ERC2981) */\n      0x04\n      dup3\n      add\n        /* \"#utility.yul\":939:1037   */\n      mstore\n        /* \"contracts/Manager/royalty/RoyaltyFeeRegistry.sol\":3302:3309  address */\n      0x00\n      swap1\n      dup2\n      swap1\n        /* \"contracts/Manager/royalty/RoyaltyFeeRegistry.sol\":3332:3369  IERC165(collection).supportsInterface */\n      0xffffffffffffffffffffffffffffffffffffffff\n      dup5\n      and\n      swap1\n      0x01ffc9a7\n      swap1\n        /* \"#utility.yul\":912:930   */\n      0x24\n      add\n        /* \"contracts/Manager/royalty/RoyaltyFeeRegistry.sol\":3332:3391  IERC165(collection).supportsInterface(INTERFACE_ID_ERC2981) */\n      0x20\n      mload(0x40)\n      dup1\n      dup4\n      sub\n      dup2\n      dup7\n      gas\n      staticcall\n      swap3\n      pop\n      pop\n      pop\n      dup1\n      iszero\n      tag_123\n      jumpi\n      pop\n      0x40\n      dup1\n      mload\n      0x1f\n      returndatasize\n      swap1\n      dup2\n      add\n      0xffffffffffffffffffffffffffffffffffffffffffffffffffffffffffffffe0\n      and\n      dup3\n      add\n      swap1\n      swap3\n      mstore\n      tag_124\n      swap2\n      dup2\n      add\n      swap1\n      tag_80\n      jump\t// in\n    tag_124:\n      0x01\n    tag_123:\n        /* \"contracts/Manager/royalty/RoyaltyFeeRegistry.sol\":3328:3534  try IERC165(collection).supportsInterface(INTERFACE_ID_ERC2981) returns (bool interfaceSupport) {... */\n      iszero\n      tag_129\n      jumpi\n        /* \"contracts/Manager/royalty/RoyaltyFeeRegistry.sol\":3442:3458  interfaceSupport */\n      dup1\n        /* \"contracts/Manager/royalty/RoyaltyFeeRegistry.sol\":3438:3515  if (interfaceSupport) {... */\n      iszero\n      tag_130\n      jumpi\n      pop\n        /* \"contracts/Manager/royalty/RoyaltyFeeRegistry.sol\":3494:3495  0 */\n      0x00\n      swap4\n        /* \"contracts/Manager/royalty/RoyaltyFeeRegistry.sol\":3498:3499  1 */\n      0x01\n      swap4\n      pop\n        /* \"contracts/Manager/royalty/RoyaltyFeeRegistry.sol\":3225:3853  function checkForCollectionSetter(address collection) external view returns (address, uint8) {... */\n      swap2\n      pop\n      pop\n      jump\t// out\n        /* \"contracts/Manager/royalty/RoyaltyFeeRegistry.sol\":3438:3515  if (interfaceSupport) {... */\n    tag_130:\n        /* \"contracts/Manager/royalty/RoyaltyFeeRegistry.sol\":3392:3525  returns (bool interfaceSupport) {... */\n      pop\n        /* \"contracts/Manager/royalty/RoyaltyFeeRegistry.sol\":3328:3534  try IERC165(collection).supportsInterface(INTERFACE_ID_ERC2981) returns (bool interfaceSupport) {... */\n    tag_129:\n        /* \"contracts/Manager/royalty/RoyaltyFeeRegistry.sol\":3557:3567  collection */\n      dup3\n        /* \"contracts/Manager/royalty/RoyaltyFeeRegistry.sol\":3548:3574  IOwnable(collection).owner */\n      0xffffffffffffffffffffffffffffffffffffffff\n      and\n      0x8da5cb5b\n        /* \"contracts/Manager/royalty/RoyaltyFeeRegistry.sol\":3548:3576  IOwnable(collection).owner() */\n      mload(0x40)\n      dup2\n      0xffffffff\n      and\n      0xe0\n      shl\n      dup2\n      mstore\n      0x04\n      add\n      0x20\n      mload(0x40)\n      dup1\n      dup4\n      sub\n      dup2\n      dup7\n      gas\n      staticcall\n      swap3\n      pop\n      pop\n      pop\n      dup1\n      iszero\n      tag_131\n      jumpi\n      pop\n      0x40\n      dup1\n      mload\n      0x1f\n      returndatasize\n      swap1\n      dup2\n      add\n      0xffffffffffffffffffffffffffffffffffffffffffffffffffffffffffffffe0\n      and\n      dup3\n      add\n      swap1\n      swap3\n      mstore\n      tag_132\n      swap2\n      dup2\n      add\n      swap1\n      tag_87\n      jump\t// in\n    tag_132:\n      0x01\n    tag_131:\n        /* \"contracts/Manager/royalty/RoyaltyFeeRegistry.sol\":3544:3847  try IOwnable(collection).owner() returns (address setter) {... */\n      tag_133\n      jumpi\n        /* \"contracts/Manager/royalty/RoyaltyFeeRegistry.sol\":3679:3689  collection */\n      dup3\n        /* \"contracts/Manager/royalty/RoyaltyFeeRegistry.sol\":3670:3696  IOwnable(collection).admin */\n      0xffffffffffffffffffffffffffffffffffffffff\n      and\n      0xf851a440\n        /* \"contracts/Manager/royalty/RoyaltyFeeRegistry.sol\":3670:3698  IOwnable(collection).admin() */\n      mload(0x40)\n      dup2\n      0xffffffff\n      and\n      0xe0\n      shl\n      dup2\n      mstore\n      0x04\n      add\n      0x20\n      mload(0x40)\n      dup1\n      dup4\n      sub\n      dup2\n      dup7\n      gas\n      staticcall\n      swap3\n      pop\n      pop\n      pop\n      dup1\n      iszero\n      tag_137\n      jumpi\n      pop\n      0x40\n      dup1\n      mload\n      0x1f\n      returndatasize\n      swap1\n      dup2\n      add\n      0xffffffffffffffffffffffffffffffffffffffffffffffffffffffffffffffe0\n      and\n      dup3\n      add\n      swap1\n      swap3\n      mstore\n      tag_138\n      swap2\n      dup2\n      add\n      swap1\n      tag_87\n      jump\t// in\n    tag_138:\n      0x01\n    tag_137:\n        /* \"contracts/Manager/royalty/RoyaltyFeeRegistry.sol\":3666:3837  try IOwnable(collection).admin() returns (address setter) {... */\n      tag_139\n      jumpi\n      pop\n        /* \"contracts/Manager/royalty/RoyaltyFeeRegistry.sol\":3816:3817  0 */\n      0x00\n      swap3\n        /* \"contracts/Manager/royalty/RoyaltyFeeRegistry.sol\":3820:3821  4 */\n      0x04\n      swap3\n      pop\n        /* \"contracts/Manager/royalty/RoyaltyFeeRegistry.sol\":3225:3853  function checkForCollectionSetter(address collection) external view returns (address, uint8) {... */\n      swap1\n      pop\n      jump\t// out\n        /* \"contracts/Manager/royalty/RoyaltyFeeRegistry.sol\":3666:3837  try IOwnable(collection).admin() returns (address setter) {... */\n    tag_139:\n        /* \"contracts/Manager/royalty/RoyaltyFeeRegistry.sol\":3750:3756  setter */\n      swap4\n        /* \"contracts/Manager/royalty/RoyaltyFeeRegistry.sol\":3758:3759  3 */\n      0x03\n      swap4\n      pop\n        /* \"contracts/Manager/royalty/RoyaltyFeeRegistry.sol\":3225:3853  function checkForCollectionSetter(address collection) external view returns (address, uint8) {... */\n      swap2\n      pop\n      pop\n      jump\t// out\n        /* \"contracts/Manager/royalty/RoyaltyFeeRegistry.sol\":3544:3847  try IOwnable(collection).owner() returns (address setter) {... */\n    tag_133:\n        /* \"contracts/Manager/royalty/RoyaltyFeeRegistry.sol\":3624:3630  setter */\n      swap4\n        /* \"contracts/Manager/royalty/RoyaltyFeeRegistry.sol\":3632:3633  2 */\n      0x02\n      swap4\n      pop\n        /* \"contracts/Manager/royalty/RoyaltyFeeRegistry.sol\":3225:3853  function checkForCollectionSetter(address collection) external view returns (address, uint8) {... */\n      swap2\n      pop\n      pop\n      jump\t// out\n        /* \"@openzeppelin/contracts/access/Ownable.sol\":2081:2279  function transferOwnership(address newOwner) public virtual onlyOwner {... */\n    tag_69:\n        /* \"@openzeppelin/contracts/access/Ownable.sol\":1094:1107  _checkOwner() */\n      tag_147\n        /* \"@openzeppelin/contracts/access/Ownable.sol\":1094:1105  _checkOwner */\n      tag_95\n        /* \"@openzeppelin/contracts/access/Ownable.sol\":1094:1107  _checkOwner() */\n      jump\t// in\n    tag_147:\n        /* \"@openzeppelin/contracts/access/Ownable.sol\":2169:2191  newOwner != address(0) */\n      0xffffffffffffffffffffffffffffffffffffffff\n      dup2\n      and\n        /* \"@openzeppelin/contracts/access/Ownable.sol\":2161:2234  require(newOwner != address(0), \"Ownable: new owner is the zero address\") */\n      tag_149\n      jumpi\n      mload(0x40)\n      0x08c379a000000000000000000000000000000000000000000000000000000000\n      dup2\n      mstore\n        /* \"#utility.yul\":5949:5951   */\n      0x20\n        /* \"@openzeppelin/contracts/access/Ownable.sol\":2161:2234  require(newOwner != address(0), \"Ownable: new owner is the zero address\") */\n      0x04\n      dup3\n      add\n        /* \"#utility.yul\":5931:5952   */\n      mstore\n        /* \"#utility.yul\":5988:5990   */\n      0x26\n        /* \"#utility.yul\":5968:5986   */\n      0x24\n      dup3\n      add\n        /* \"#utility.yul\":5961:5991   */\n      mstore\n        /* \"#utility.yul\":6027:6061   */\n      0x4f776e61626c653a206e6577206f776e657220697320746865207a65726f2061\n        /* \"#utility.yul\":6007:6025   */\n      0x44\n      dup3\n      add\n        /* \"#utility.yul\":6000:6062   */\n      mstore\n        /* \"#utility.yul\":6098:6106   */\n      0x6464726573730000000000000000000000000000000000000000000000000000\n        /* \"#utility.yul\":6078:6096   */\n      0x64\n      dup3\n      add\n        /* \"#utility.yul\":6071:6107   */\n      mstore\n        /* \"#utility.yul\":6124:6143   */\n      0x84\n      add\n        /* \"@openzeppelin/contracts/access/Ownable.sol\":2161:2234  require(newOwner != address(0), \"Ownable: new owner is the zero address\") */\n      tag_82\n        /* \"#utility.yul\":5747:6149   */\n      jump\n        /* \"@openzeppelin/contracts/access/Ownable.sol\":2161:2234  require(newOwner != address(0), \"Ownable: new owner is the zero address\") */\n    tag_149:\n        /* \"@openzeppelin/contracts/access/Ownable.sol\":2244:2272  _transferOwnership(newOwner) */\n      tag_152\n        /* \"@openzeppelin/contracts/access/Ownable.sol\":2263:2271  newOwner */\n      dup2\n        /* \"@openzeppelin/contracts/access/Ownable.sol\":2244:2262  _transferOwnership */\n      tag_98\n        /* \"@openzeppelin/contracts/access/Ownable.sol\":2244:2272  _transferOwnership(newOwner) */\n      jump\t// in\n    tag_152:\n        /* \"@openzeppelin/contracts/access/Ownable.sol\":2081:2279  function transferOwnership(address newOwner) public virtual onlyOwner {... */\n      pop\n      jump\t// out\n        /* \"contracts/Manager/royalty/RoyaltyFeeRegistry.sol\":5669:6275  function _updateRoyaltyInfoForCollectionIfOwnerOrAdmin(... */\n    tag_92:\n        /* \"contracts/Manager/royalty/RoyaltyFeeRegistry.sol\":5872:5909  _royaltyFeeInfoCollection[collection] */\n      0xffffffffffffffffffffffffffffffffffffffff\n      dup1\n      dup6\n      and\n        /* \"contracts/Manager/royalty/RoyaltyFeeRegistry.sol\":5848:5869  address currentSetter */\n      0x00\n        /* \"contracts/Manager/royalty/RoyaltyFeeRegistry.sol\":5872:5909  _royaltyFeeInfoCollection[collection] */\n      swap1\n      dup2\n      mstore\n        /* \"contracts/Manager/royalty/RoyaltyFeeRegistry.sol\":5872:5897  _royaltyFeeInfoCollection */\n      0x02\n        /* \"contracts/Manager/royalty/RoyaltyFeeRegistry.sol\":5872:5909  _royaltyFeeInfoCollection[collection] */\n      0x20\n      mstore\n      0x40\n      swap1\n      keccak256\n        /* \"contracts/Manager/royalty/RoyaltyFeeRegistry.sol\":5872:5916  _royaltyFeeInfoCollection[collection].setter */\n      sload\n      and\n        /* \"contracts/Manager/royalty/RoyaltyFeeRegistry.sol\":5934:5961  currentSetter == address(0) */\n      dup1\n      iszero\n        /* \"contracts/Manager/royalty/RoyaltyFeeRegistry.sol\":5926:5977  require(currentSetter == address(0), \"Already set\") */\n      tag_154\n      jumpi\n      mload(0x40)\n      0x08c379a000000000000000000000000000000000000000000000000000000000\n      dup2\n      mstore\n        /* \"#utility.yul\":6356:6358   */\n      0x20\n        /* \"contracts/Manager/royalty/RoyaltyFeeRegistry.sol\":5926:5977  require(currentSetter == address(0), \"Already set\") */\n      0x04\n      dup3\n      add\n        /* \"#utility.yul\":6338:6359   */\n      mstore\n        /* \"#utility.yul\":6395:6397   */\n      0x0b\n        /* \"#utility.yul\":6375:6393   */\n      0x24\n      dup3\n      add\n        /* \"#utility.yul\":6368:6398   */\n      mstore\n        /* \"#utility.yul\":6434:6447   */\n      0x416c726561647920736574000000000000000000000000000000000000000000\n        /* \"#utility.yul\":6414:6432   */\n      0x44\n      dup3\n      add\n        /* \"#utility.yul\":6407:6448   */\n      mstore\n        /* \"#utility.yul\":6465:6483   */\n      0x64\n      add\n        /* \"contracts/Manager/royalty/RoyaltyFeeRegistry.sol\":5926:5977  require(currentSetter == address(0), \"Already set\") */\n      tag_82\n        /* \"#utility.yul\":6154:6489   */\n      jump\n        /* \"contracts/Manager/royalty/RoyaltyFeeRegistry.sol\":5926:5977  require(currentSetter == address(0), \"Already set\") */\n    tag_154:\n        /* \"contracts/Manager/royalty/RoyaltyFeeRegistry.sol\":6010:6068  IERC165(collection).supportsInterface(INTERFACE_ID_ERC721) */\n      mload(0x40)\n      0x01ffc9a700000000000000000000000000000000000000000000000000000000\n      dup2\n      mstore\n        /* \"contracts/Manager/royalty/RoyaltyFeeRegistry.sol\":6048:6067  INTERFACE_ID_ERC721 */\n      0x80ac58cd00000000000000000000000000000000000000000000000000000000\n        /* \"contracts/Manager/royalty/RoyaltyFeeRegistry.sol\":6010:6068  IERC165(collection).supportsInterface(INTERFACE_ID_ERC721) */\n      0x04\n      dup3\n      add\n        /* \"#utility.yul\":939:1037   */\n      mstore\n        /* \"contracts/Manager/royalty/RoyaltyFeeRegistry.sol\":6010:6047  IERC165(collection).supportsInterface */\n      0xffffffffffffffffffffffffffffffffffffffff\n      dup7\n      and\n      swap1\n      0x01ffc9a7\n      swap1\n        /* \"#utility.yul\":912:930   */\n      0x24\n      add\n        /* \"contracts/Manager/royalty/RoyaltyFeeRegistry.sol\":6010:6068  IERC165(collection).supportsInterface(INTERFACE_ID_ERC721) */\n      0x20\n      mload(0x40)\n      dup1\n      dup4\n      sub\n      dup2\n      dup7\n      gas\n      staticcall\n      iszero\n      dup1\n      iszero\n      tag_159\n      jumpi\n      returndatasize\n      0x00\n      dup1\n      returndatacopy\n      revert(0x00, returndatasize)\n    tag_159:\n      pop\n      pop\n      pop\n      pop\n      mload(0x40)\n      returndatasize\n      not(0x1f)\n      0x1f\n      dup3\n      add\n      and\n      dup3\n      add\n      dup1\n      0x40\n      mstore\n      pop\n      dup2\n      add\n      swap1\n      tag_160\n      swap2\n      swap1\n      tag_80\n      jump\t// in\n    tag_160:\n        /* \"contracts/Manager/royalty/RoyaltyFeeRegistry.sol\":6010:6139  IERC165(collection).supportsInterface(INTERFACE_ID_ERC721) ||... */\n      dup1\n      tag_165\n      jumpi\n      pop\n        /* \"contracts/Manager/royalty/RoyaltyFeeRegistry.sol\":6080:6139  IERC165(collection).supportsInterface(INTERFACE_ID_ERC1155) */\n      mload(0x40)\n      0x01ffc9a700000000000000000000000000000000000000000000000000000000\n      dup2\n      mstore\n        /* \"contracts/Manager/royalty/RoyaltyFeeRegistry.sol\":6118:6138  INTERFACE_ID_ERC1155 */\n      0xd9b67a2600000000000000000000000000000000000000000000000000000000\n        /* \"contracts/Manager/royalty/RoyaltyFeeRegistry.sol\":6080:6139  IERC165(collection).supportsInterface(INTERFACE_ID_ERC1155) */\n      0x04\n      dup3\n      add\n        /* \"#utility.yul\":939:1037   */\n      mstore\n        /* \"contracts/Manager/royalty/RoyaltyFeeRegistry.sol\":6080:6117  IERC165(collection).supportsInterface */\n      0xffffffffffffffffffffffffffffffffffffffff\n      dup7\n      and\n      swap1\n      0x01ffc9a7\n      swap1\n        /* \"#utility.yul\":912:930   */\n      0x24\n      add\n        /* \"contracts/Manager/royalty/RoyaltyFeeRegistry.sol\":6080:6139  IERC165(collection).supportsInterface(INTERFACE_ID_ERC1155) */\n      0x20\n      mload(0x40)\n      dup1\n      dup4\n      sub\n      dup2\n      dup7\n      gas\n      staticcall\n      iszero\n      dup1\n      iszero\n      tag_164\n      jumpi\n      returndatasize\n      0x00\n      dup1\n      returndatacopy\n      revert(0x00, returndatasize)\n    tag_164:\n      pop\n      pop\n      pop\n      pop\n      mload(0x40)\n      returndatasize\n      not(0x1f)\n      0x1f\n      dup3\n      add\n      and\n      dup3\n      add\n      dup1\n      0x40\n      mstore\n      pop\n      dup2\n      add\n      swap1\n      tag_165\n      swap2\n      swap1\n      tag_80\n      jump\t// in\n    tag_165:\n        /* \"contracts/Manager/royalty/RoyaltyFeeRegistry.sol\":5988:6192  require(... */\n      tag_166\n      jumpi\n      mload(0x40)\n      0x08c379a000000000000000000000000000000000000000000000000000000000\n      dup2\n      mstore\n        /* \"#utility.yul\":6696:6698   */\n      0x20\n        /* \"contracts/Manager/royalty/RoyaltyFeeRegistry.sol\":5988:6192  require(... */\n      0x04\n      dup3\n      add\n        /* \"#utility.yul\":6678:6699   */\n      mstore\n        /* \"#utility.yul\":6735:6737   */\n      0x1a\n        /* \"#utility.yul\":6715:6733   */\n      0x24\n      dup3\n      add\n        /* \"#utility.yul\":6708:6738   */\n      mstore\n        /* \"#utility.yul\":6774:6802   */\n      0x204e6f7420536574206f66204552433732312f45524331313535000000000000\n        /* \"#utility.yul\":6754:6772   */\n      0x44\n      dup3\n      add\n        /* \"#utility.yul\":6747:6803   */\n      mstore\n        /* \"#utility.yul\":6820:6838   */\n      0x64\n      add\n        /* \"contracts/Manager/royalty/RoyaltyFeeRegistry.sol\":5988:6192  require(... */\n      tag_82\n        /* \"#utility.yul\":6494:6844   */\n      jump\n        /* \"contracts/Manager/royalty/RoyaltyFeeRegistry.sol\":5988:6192  require(... */\n    tag_166:\n        /* \"contracts/Manager/royalty/RoyaltyFeeRegistry.sol\":6203:6268  updateRoyaltyInfoForCollection(collection, setter, receiver, fee) */\n      tag_169\n        /* \"contracts/Manager/royalty/RoyaltyFeeRegistry.sol\":6234:6244  collection */\n      dup6\n        /* \"contracts/Manager/royalty/RoyaltyFeeRegistry.sol\":6246:6252  setter */\n      dup6\n        /* \"contracts/Manager/royalty/RoyaltyFeeRegistry.sol\":6254:6262  receiver */\n      dup6\n        /* \"contracts/Manager/royalty/RoyaltyFeeRegistry.sol\":6264:6267  fee */\n      dup6\n        /* \"contracts/Manager/royalty/RoyaltyFeeRegistry.sol\":6203:6233  updateRoyaltyInfoForCollection */\n      tag_170\n        /* \"contracts/Manager/royalty/RoyaltyFeeRegistry.sol\":6203:6268  updateRoyaltyInfoForCollection(collection, setter, receiver, fee) */\n      jump\t// in\n    tag_169:\n        /* \"contracts/Manager/royalty/RoyaltyFeeRegistry.sol\":5838:6275  {... */\n      pop\n        /* \"contracts/Manager/royalty/RoyaltyFeeRegistry.sol\":5669:6275  function _updateRoyaltyInfoForCollectionIfOwnerOrAdmin(... */\n      pop\n      pop\n      pop\n      pop\n      jump\t// out\n        /* \"@openzeppelin/contracts/access/Ownable.sol\":1359:1489  function _checkOwner() internal view virtual {... */\n    tag_95:\n        /* \"@openzeppelin/contracts/access/Ownable.sol\":1247:1254  address */\n      0x00\n        /* \"@openzeppelin/contracts/access/Ownable.sol\":1273:1279  _owner */\n      sload\n        /* \"@openzeppelin/contracts/access/Ownable.sol\":1422:1445  owner() == _msgSender() */\n      0xffffffffffffffffffffffffffffffffffffffff\n        /* \"@openzeppelin/contracts/access/Ownable.sol\":1273:1279  _owner */\n      and\n        /* \"@openzeppelin/contracts/utils/Context.sol\":719:729  msg.sender */\n      caller\n        /* \"@openzeppelin/contracts/access/Ownable.sol\":1422:1445  owner() == _msgSender() */\n      eq\n        /* \"@openzeppelin/contracts/access/Ownable.sol\":1414:1482  require(owner() == _msgSender(), \"Ownable: caller is not the owner\") */\n      tag_97\n      jumpi\n      mload(0x40)\n      0x08c379a000000000000000000000000000000000000000000000000000000000\n      dup2\n      mstore\n        /* \"#utility.yul\":7051:7053   */\n      0x20\n        /* \"@openzeppelin/contracts/access/Ownable.sol\":1414:1482  require(owner() == _msgSender(), \"Ownable: caller is not the owner\") */\n      0x04\n      dup3\n      add\n        /* \"#utility.yul\":7033:7054   */\n      dup2\n      swap1\n      mstore\n        /* \"#utility.yul\":7070:7088   */\n      0x24\n      dup3\n      add\n        /* \"#utility.yul\":7063:7093   */\n      mstore\n        /* \"#utility.yul\":7129:7163   */\n      0x4f776e61626c653a2063616c6c6572206973206e6f7420746865206f776e6572\n        /* \"#utility.yul\":7109:7127   */\n      0x44\n      dup3\n      add\n        /* \"#utility.yul\":7102:7164   */\n      mstore\n        /* \"#utility.yul\":7181:7199   */\n      0x64\n      add\n        /* \"@openzeppelin/contracts/access/Ownable.sol\":1414:1482  require(owner() == _msgSender(), \"Ownable: caller is not the owner\") */\n      tag_82\n        /* \"#utility.yul\":6849:7205   */\n      jump\n        /* \"@openzeppelin/contracts/access/Ownable.sol\":2433:2620  function _transferOwnership(address newOwner) internal virtual {... */\n    tag_98:\n        /* \"@openzeppelin/contracts/access/Ownable.sol\":2506:2522  address oldOwner */\n      0x00\n        /* \"@openzeppelin/contracts/access/Ownable.sol\":2525:2531  _owner */\n      dup1\n      sload\n      0xffffffffffffffffffffffffffffffffffffffff\n        /* \"@openzeppelin/contracts/access/Ownable.sol\":2541:2558  _owner = newOwner */\n      dup4\n      dup2\n      and\n      0xffffffffffffffffffffffff0000000000000000000000000000000000000000\n      dup4\n      and\n      dup2\n      or\n      dup5\n      sstore\n        /* \"@openzeppelin/contracts/access/Ownable.sol\":2573:2613  OwnershipTransferred(oldOwner, newOwner) */\n      mload(0x40)\n        /* \"@openzeppelin/contracts/access/Ownable.sol\":2525:2531  _owner */\n      swap2\n      swap1\n      swap3\n      and\n      swap3\n      dup4\n      swap2\n        /* \"@openzeppelin/contracts/access/Ownable.sol\":2573:2613  OwnershipTransferred(oldOwner, newOwner) */\n      0x8be0079c531659141344cd1fd0a4f28419497f9722a3daafe3b4186f6b6457e0\n      swap2\n        /* \"@openzeppelin/contracts/access/Ownable.sol\":2506:2522  address oldOwner */\n      swap1\n        /* \"@openzeppelin/contracts/access/Ownable.sol\":2573:2613  OwnershipTransferred(oldOwner, newOwner) */\n      log3\n        /* \"@openzeppelin/contracts/access/Ownable.sol\":2496:2620  {... */\n      pop\n        /* \"@openzeppelin/contracts/access/Ownable.sol\":2433:2620  function _transferOwnership(address newOwner) internal virtual {... */\n      pop\n      jump\t// out\n        /* \"contracts/Manager/royalty/RoyaltyFeeRegistry.sol\":1769:2177  function updateRoyaltyInfoForCollection(... */\n    tag_170:\n        /* \"contracts/Manager/royalty/RoyaltyFeeRegistry.sol\":1947:1962  royaltyFeeLimit */\n      sload(0x01)\n        /* \"contracts/Manager/royalty/RoyaltyFeeRegistry.sol\":1940:1943  fee */\n      dup2\n        /* \"contracts/Manager/royalty/RoyaltyFeeRegistry.sol\":1940:1962  fee <= royaltyFeeLimit */\n      gt\n      iszero\n        /* \"contracts/Manager/royalty/RoyaltyFeeRegistry.sol\":1932:1997  require(fee <= royaltyFeeLimit, \"Registry: Royalty fee too high\") */\n      tag_180\n      jumpi\n      mload(0x40)\n      0x08c379a000000000000000000000000000000000000000000000000000000000\n      dup2\n      mstore\n        /* \"#utility.yul\":7412:7414   */\n      0x20\n        /* \"contracts/Manager/royalty/RoyaltyFeeRegistry.sol\":1932:1997  require(fee <= royaltyFeeLimit, \"Registry: Royalty fee too high\") */\n      0x04\n      dup3\n      add\n        /* \"#utility.yul\":7394:7415   */\n      mstore\n        /* \"#utility.yul\":7451:7453   */\n      0x1e\n        /* \"#utility.yul\":7431:7449   */\n      0x24\n      dup3\n      add\n        /* \"#utility.yul\":7424:7454   */\n      mstore\n        /* \"#utility.yul\":7490:7522   */\n      0x52656769737472793a20526f79616c74792066656520746f6f20686967680000\n        /* \"#utility.yul\":7470:7488   */\n      0x44\n      dup3\n      add\n        /* \"#utility.yul\":7463:7523   */\n      mstore\n        /* \"#utility.yul\":7540:7558   */\n      0x64\n      add\n        /* \"contracts/Manager/royalty/RoyaltyFeeRegistry.sol\":1932:1997  require(fee <= royaltyFeeLimit, \"Registry: Royalty fee too high\") */\n      tag_82\n        /* \"#utility.yul\":7210:7564   */\n      jump\n        /* \"contracts/Manager/royalty/RoyaltyFeeRegistry.sol\":1932:1997  require(fee <= royaltyFeeLimit, \"Registry: Royalty fee too high\") */\n    tag_180:\n        /* \"contracts/Manager/royalty/RoyaltyFeeRegistry.sol\":2048:2103  FeeInfo({setter: setter, receiver: receiver, fee: fee}) */\n      0x40\n      dup1\n      mload\n      0x60\n      dup2\n      add\n      dup3\n      mstore\n      0xffffffffffffffffffffffffffffffffffffffff\n      dup6\n      dup2\n      and\n      dup1\n      dup4\n      mstore\n      dup6\n      dup3\n      and\n      0x20\n      dup1\n      dup6\n      add\n      dup3\n      dup2\n      mstore\n      dup6\n      dup8\n      add\n      dup9\n      dup2\n      mstore\n        /* \"contracts/Manager/royalty/RoyaltyFeeRegistry.sol\":2008:2045  _royaltyFeeInfoCollection[collection] */\n      dup12\n      dup7\n      and\n      0x00\n      dup2\n      dup2\n      mstore\n        /* \"contracts/Manager/royalty/RoyaltyFeeRegistry.sol\":2008:2033  _royaltyFeeInfoCollection */\n      0x02\n        /* \"contracts/Manager/royalty/RoyaltyFeeRegistry.sol\":2008:2045  _royaltyFeeInfoCollection[collection] */\n      dup1\n      dup7\n      mstore\n      swap1\n      dup11\n      swap1\n      keccak256\n        /* \"contracts/Manager/royalty/RoyaltyFeeRegistry.sol\":2008:2103  _royaltyFeeInfoCollection[collection] = FeeInfo({setter: setter, receiver: receiver, fee: fee}) */\n      swap9\n      mload\n      dup10\n      sload\n      swap1\n      dup10\n      and\n      0xffffffffffffffffffffffff0000000000000000000000000000000000000000\n      swap2\n      dup3\n      and\n      or\n      dup11\n      sstore\n      swap4\n      mload\n      0x01\n      dup11\n      add\n      dup1\n      sload\n      swap2\n      swap1\n      swap10\n      and\n      swap5\n      and\n      swap4\n      swap1\n      swap4\n      or\n      swap1\n      swap7\n      sstore\n      mload\n      swap6\n      add\n      swap5\n      swap1\n      swap5\n      sstore\n        /* \"contracts/Manager/royalty/RoyaltyFeeRegistry.sol\":2119:2170  RoyaltyFeeUpdate(collection, setter, receiver, fee) */\n      swap4\n      mload\n        /* \"#utility.yul\":1797:1822   */\n      dup6\n      dup2\n      mstore\n        /* \"contracts/Manager/royalty/RoyaltyFeeRegistry.sol\":2048:2103  FeeInfo({setter: setter, receiver: receiver, fee: fee}) */\n      swap1\n      swap3\n        /* \"contracts/Manager/royalty/RoyaltyFeeRegistry.sol\":2119:2170  RoyaltyFeeUpdate(collection, setter, receiver, fee) */\n      0xd01984afa6e37420452e575e7d99dd7e632b3ec8ea2adec998475b76ca494d64\n      swap2\n        /* \"#utility.yul\":1770:1788   */\n      add\n        /* \"contracts/Manager/royalty/RoyaltyFeeRegistry.sol\":2119:2170  RoyaltyFeeUpdate(collection, setter, receiver, fee) */\n      mload(0x40)\n      dup1\n      swap2\n      sub\n      swap1\n      log4\n        /* \"contracts/Manager/royalty/RoyaltyFeeRegistry.sol\":1769:2177  function updateRoyaltyInfoForCollection(... */\n      pop\n      pop\n      pop\n      pop\n      jump\t// out\n        /* \"#utility.yul\":14:168   */\n    tag_185:\n        /* \"#utility.yul\":100:142   */\n      0xffffffffffffffffffffffffffffffffffffffff\n        /* \"#utility.yul\":93:98   */\n      dup2\n        /* \"#utility.yul\":89:143   */\n      and\n        /* \"#utility.yul\":82:87   */\n      dup2\n        /* \"#utility.yul\":79:144   */\n      eq\n        /* \"#utility.yul\":69:162   */\n      tag_152\n      jumpi\n        /* \"#utility.yul\":158:159   */\n      0x00\n        /* \"#utility.yul\":155:156   */\n      dup1\n        /* \"#utility.yul\":148:160   */\n      revert\n        /* \"#utility.yul\":173:488   */\n    tag_21:\n        /* \"#utility.yul\":241:247   */\n      0x00\n        /* \"#utility.yul\":249:255   */\n      dup1\n        /* \"#utility.yul\":302:304   */\n      0x40\n        /* \"#utility.yul\":290:299   */\n      dup4\n        /* \"#utility.yul\":281:288   */\n      dup6\n        /* \"#utility.yul\":277:300   */\n      sub\n        /* \"#utility.yul\":273:305   */\n      slt\n        /* \"#utility.yul\":270:322   */\n      iszero\n      tag_190\n      jumpi\n        /* \"#utility.yul\":318:319   */\n      0x00\n        /* \"#utility.yul\":315:316   */\n      dup1\n        /* \"#utility.yul\":308:320   */\n      revert\n        /* \"#utility.yul\":270:322   */\n    tag_190:\n        /* \"#utility.yul\":357:366   */\n      dup3\n        /* \"#utility.yul\":344:367   */\n      calldataload\n        /* \"#utility.yul\":376:407   */\n      tag_191\n        /* \"#utility.yul\":401:406   */\n      dup2\n        /* \"#utility.yul\":376:407   */\n      tag_185\n      jump\t// in\n    tag_191:\n        /* \"#utility.yul\":426:431   */\n      swap5\n        /* \"#utility.yul\":478:480   */\n      0x20\n        /* \"#utility.yul\":463:481   */\n      swap4\n      swap1\n      swap4\n      add\n        /* \"#utility.yul\":450:482   */\n      calldataload\n      swap4\n      pop\n      pop\n      pop\n        /* \"#utility.yul\":173:488   */\n      jump\t// out\n        /* \"#utility.yul\":1048:1646   */\n    tag_31:\n        /* \"#utility.yul\":1134:1140   */\n      0x00\n        /* \"#utility.yul\":1142:1148   */\n      dup1\n        /* \"#utility.yul\":1150:1156   */\n      0x00\n        /* \"#utility.yul\":1158:1164   */\n      dup1\n        /* \"#utility.yul\":1211:1214   */\n      0x80\n        /* \"#utility.yul\":1199:1208   */\n      dup6\n        /* \"#utility.yul\":1190:1197   */\n      dup8\n        /* \"#utility.yul\":1186:1209   */\n      sub\n        /* \"#utility.yul\":1182:1215   */\n      slt\n        /* \"#utility.yul\":1179:1232   */\n      iszero\n      tag_195\n      jumpi\n        /* \"#utility.yul\":1228:1229   */\n      0x00\n        /* \"#utility.yul\":1225:1226   */\n      dup1\n        /* \"#utility.yul\":1218:1230   */\n      revert\n        /* \"#utility.yul\":1179:1232   */\n    tag_195:\n        /* \"#utility.yul\":1267:1276   */\n      dup5\n        /* \"#utility.yul\":1254:1277   */\n      calldataload\n        /* \"#utility.yul\":1286:1317   */\n      tag_196\n        /* \"#utility.yul\":1311:1316   */\n      dup2\n        /* \"#utility.yul\":1286:1317   */\n      tag_185\n      jump\t// in\n    tag_196:\n        /* \"#utility.yul\":1336:1341   */\n      swap4\n      pop\n        /* \"#utility.yul\":1393:1395   */\n      0x20\n        /* \"#utility.yul\":1378:1396   */\n      dup6\n      add\n        /* \"#utility.yul\":1365:1397   */\n      calldataload\n        /* \"#utility.yul\":1406:1439   */\n      tag_197\n        /* \"#utility.yul\":1365:1397   */\n      dup2\n        /* \"#utility.yul\":1406:1439   */\n      tag_185\n      jump\t// in\n    tag_197:\n        /* \"#utility.yul\":1458:1465   */\n      swap3\n      pop\n        /* \"#utility.yul\":1517:1519   */\n      0x40\n        /* \"#utility.yul\":1502:1520   */\n      dup6\n      add\n        /* \"#utility.yul\":1489:1521   */\n      calldataload\n        /* \"#utility.yul\":1530:1563   */\n      tag_198\n        /* \"#utility.yul\":1489:1521   */\n      dup2\n        /* \"#utility.yul\":1530:1563   */\n      tag_185\n      jump\t// in\n    tag_198:\n        /* \"#utility.yul\":1048:1646   */\n      swap4\n      swap7\n      swap3\n      swap6\n      pop\n        /* \"#utility.yul\":1582:1589   */\n      swap3\n      swap4\n        /* \"#utility.yul\":1636:1638   */\n      0x60\n        /* \"#utility.yul\":1621:1639   */\n      add\n        /* \"#utility.yul\":1608:1640   */\n      calldataload\n      swap3\n      pop\n      pop\n        /* \"#utility.yul\":1048:1646   */\n      jump\t// out\n        /* \"#utility.yul\":2064:2244   */\n    tag_51:\n        /* \"#utility.yul\":2123:2129   */\n      0x00\n        /* \"#utility.yul\":2176:2178   */\n      0x20\n        /* \"#utility.yul\":2164:2173   */\n      dup3\n        /* \"#utility.yul\":2155:2162   */\n      dup5\n        /* \"#utility.yul\":2151:2174   */\n      sub\n        /* \"#utility.yul\":2147:2179   */\n      slt\n        /* \"#utility.yul\":2144:2196   */\n      iszero\n      tag_202\n      jumpi\n        /* \"#utility.yul\":2192:2193   */\n      0x00\n        /* \"#utility.yul\":2189:2190   */\n      dup1\n        /* \"#utility.yul\":2182:2194   */\n      revert\n        /* \"#utility.yul\":2144:2196   */\n    tag_202:\n      pop\n        /* \"#utility.yul\":2215:2238   */\n      calldataload\n      swap2\n        /* \"#utility.yul\":2064:2244   */\n      swap1\n      pop\n      jump\t// out\n        /* \"#utility.yul\":2249:2496   */\n    tag_58:\n        /* \"#utility.yul\":2308:2314   */\n      0x00\n        /* \"#utility.yul\":2361:2363   */\n      0x20\n        /* \"#utility.yul\":2349:2358   */\n      dup3\n        /* \"#utility.yul\":2340:2347   */\n      dup5\n        /* \"#utility.yul\":2336:2359   */\n      sub\n        /* \"#utility.yul\":2332:2364   */\n      slt\n        /* \"#utility.yul\":2329:2381   */\n      iszero\n      tag_204\n      jumpi\n        /* \"#utility.yul\":2377:2378   */\n      0x00\n        /* \"#utility.yul\":2374:2375   */\n      dup1\n        /* \"#utility.yul\":2367:2379   */\n      revert\n        /* \"#utility.yul\":2329:2381   */\n    tag_204:\n        /* \"#utility.yul\":2416:2425   */\n      dup2\n        /* \"#utility.yul\":2403:2426   */\n      calldataload\n        /* \"#utility.yul\":2435:2466   */\n      tag_205\n        /* \"#utility.yul\":2460:2465   */\n      dup2\n        /* \"#utility.yul\":2435:2466   */\n      tag_185\n      jump\t// in\n    tag_205:\n        /* \"#utility.yul\":2485:2490   */\n      swap4\n        /* \"#utility.yul\":2249:2496   */\n      swap3\n      pop\n      pop\n      pop\n      jump\t// out\n        /* \"#utility.yul\":3213:3535   */\n    tag_72:\n        /* \"#utility.yul\":3286:3295   */\n      dup1\n      dup3\n      mul\n        /* \"#utility.yul\":3317:3326   */\n      dup2\n      iszero\n        /* \"#utility.yul\":3334:3349   */\n      dup3\n      dup3\n      div\n        /* \"#utility.yul\":3328:3350   */\n      dup5\n      eq\n        /* \"#utility.yul\":3314:3351   */\n      or\n        /* \"#utility.yul\":3304:3529   */\n      tag_209\n      jumpi\n        /* \"#utility.yul\":3385:3462   */\n      0x4e487b7100000000000000000000000000000000000000000000000000000000\n        /* \"#utility.yul\":3382:3383   */\n      0x00\n        /* \"#utility.yul\":3375:3463   */\n      mstore\n        /* \"#utility.yul\":3486:3490   */\n      0x11\n        /* \"#utility.yul\":3483:3484   */\n      0x04\n        /* \"#utility.yul\":3476:3491   */\n      mstore\n        /* \"#utility.yul\":3514:3518   */\n      0x24\n        /* \"#utility.yul\":3511:3512   */\n      0x00\n        /* \"#utility.yul\":3504:3519   */\n      revert\n        /* \"#utility.yul\":3304:3529   */\n    tag_209:\n        /* \"#utility.yul\":3213:3535   */\n      swap3\n      swap2\n      pop\n      pop\n      jump\t// out\n        /* \"#utility.yul\":3540:3814   */\n    tag_74:\n        /* \"#utility.yul\":3580:3581   */\n      0x00\n        /* \"#utility.yul\":3606:3607   */\n      dup3\n        /* \"#utility.yul\":3596:3785   */\n      tag_211\n      jumpi\n        /* \"#utility.yul\":3641:3718   */\n      0x4e487b7100000000000000000000000000000000000000000000000000000000\n        /* \"#utility.yul\":3638:3639   */\n      0x00\n        /* \"#utility.yul\":3631:3719   */\n      mstore\n        /* \"#utility.yul\":3742:3746   */\n      0x12\n        /* \"#utility.yul\":3739:3740   */\n      0x04\n        /* \"#utility.yul\":3732:3747   */\n      mstore\n        /* \"#utility.yul\":3770:3774   */\n      0x24\n        /* \"#utility.yul\":3767:3768   */\n      0x00\n        /* \"#utility.yul\":3760:3775   */\n      revert\n        /* \"#utility.yul\":3596:3785   */\n    tag_211:\n      pop\n        /* \"#utility.yul\":3799:3808   */\n      div\n      swap1\n        /* \"#utility.yul\":3540:3814   */\n      jump\t// out\n        /* \"#utility.yul\":3819:4096   */\n    tag_80:\n        /* \"#utility.yul\":3886:3892   */\n      0x00\n        /* \"#utility.yul\":3939:3941   */\n      0x20\n        /* \"#utility.yul\":3927:3936   */\n      dup3\n        /* \"#utility.yul\":3918:3925   */\n      dup5\n        /* \"#utility.yul\":3914:3937   */\n      sub\n        /* \"#utility.yul\":3910:3942   */\n      slt\n        /* \"#utility.yul\":3907:3959   */\n      iszero\n      tag_213\n      jumpi\n        /* \"#utility.yul\":3955:3956   */\n      0x00\n        /* \"#utility.yul\":3952:3953   */\n      dup1\n        /* \"#utility.yul\":3945:3957   */\n      revert\n        /* \"#utility.yul\":3907:3959   */\n    tag_213:\n        /* \"#utility.yul\":3987:3996   */\n      dup2\n        /* \"#utility.yul\":3981:3997   */\n      mload\n        /* \"#utility.yul\":4040:4045   */\n      dup1\n        /* \"#utility.yul\":4033:4046   */\n      iszero\n        /* \"#utility.yul\":4026:4047   */\n      iszero\n        /* \"#utility.yul\":4019:4024   */\n      dup2\n        /* \"#utility.yul\":4016:4048   */\n      eq\n        /* \"#utility.yul\":4006:4066   */\n      tag_205\n      jumpi\n        /* \"#utility.yul\":4062:4063   */\n      0x00\n        /* \"#utility.yul\":4059:4060   */\n      dup1\n        /* \"#utility.yul\":4052:4064   */\n      revert\n        /* \"#utility.yul\":4450:4701   */\n    tag_87:\n        /* \"#utility.yul\":4520:4526   */\n      0x00\n        /* \"#utility.yul\":4573:4575   */\n      0x20\n        /* \"#utility.yul\":4561:4570   */\n      dup3\n        /* \"#utility.yul\":4552:4559   */\n      dup5\n        /* \"#utility.yul\":4548:4571   */\n      sub\n        /* \"#utility.yul\":4544:4576   */\n      slt\n        /* \"#utility.yul\":4541:4593   */\n      iszero\n      tag_217\n      jumpi\n        /* \"#utility.yul\":4589:4590   */\n      0x00\n        /* \"#utility.yul\":4586:4587   */\n      dup1\n        /* \"#utility.yul\":4579:4591   */\n      revert\n        /* \"#utility.yul\":4541:4593   */\n    tag_217:\n        /* \"#utility.yul\":4621:4630   */\n      dup2\n        /* \"#utility.yul\":4615:4631   */\n      mload\n        /* \"#utility.yul\":4640:4671   */\n      tag_205\n        /* \"#utility.yul\":4665:4670   */\n      dup2\n        /* \"#utility.yul\":4640:4671   */\n      tag_185\n      jump\t// in\n\n    auxdata: 0xa26469706673582212205edca1c15cc2ea512a704df208b56bf72e70d55244176a05205aa6b711d89fcd64736f6c63430008110033\n}\n",
				"bytecode": {
					"linkReferences": {},
					"object": "608060405234801561001057600080fd5b506040516112c73803806112c783398101604081905261002f916100e6565b61003833610096565b61251c81111561008e5760405162461bcd60e51b815260206004820152601a60248201527f526f79616c747920666565206c696d697420746f6f2068696768000000000000604482015260640160405180910390fd5b6001556100ff565b600080546001600160a01b038381166001600160a01b0319831681178455604051919092169283917f8be0079c531659141344cd1fd0a4f28419497f9722a3daafe3b4186f6b6457e09190a35050565b6000602082840312156100f857600080fd5b5051919050565b6111b98061010e6000396000f3fe608060405234801561001057600080fd5b50600436106100df5760003560e01c8063ab0166701161008c578063bc6bc0cd11610066578063bc6bc0cd14610229578063c54e549714610250578063e31ef91c14610291578063f2fde38b1461031057600080fd5b8063ab016670146101dc578063b060dd86146101ef578063b9223c9d1461021657600080fd5b80634fb7d3f9116100bd5780634fb7d3f914610195578063715018a6146101ac5780638da5cb5b146101b457600080fd5b80632782d6c7146100e457806333bf6156146101285780633755fa8014610180575b600080fd5b6100f76100f236600461100b565b610323565b6040805173ffffffffffffffffffffffffffffffffffffffff90931683526020830191909152015b60405180910390f35b61014f7fd9b67a260000000000000000000000000000000000000000000000000000000081565b6040517fffffffff00000000000000000000000000000000000000000000000000000000909116815260200161011f565b61019361018e366004611037565b61037d565b005b61019e60015481565b60405190815260200161011f565b6101936105ac565b60005460405173ffffffffffffffffffffffffffffffffffffffff909116815260200161011f565b6101936101ea366004611037565b6105c0565b61014f7f2a55205a0000000000000000000000000000000000000000000000000000000081565b610193610224366004611088565b6107d8565b61014f7f80ac58cd0000000000000000000000000000000000000000000000000000000081565b61026361025e3660046110a1565b610887565b6040805173ffffffffffffffffffffffffffffffffffffffff909316835260ff90911660208301520161011f565b6102dd61029f3660046110a1565b73ffffffffffffffffffffffffffffffffffffffff908116600090815260026020819052604090912080546001820154919092015491831693921691565b6040805173ffffffffffffffffffffffffffffffffffffffff94851681529390921660208401529082015260600161011f565b61019361031e3660046110a1565b610a9c565b73ffffffffffffffffffffffffffffffffffffffff808316600090815260026020819052604082206001810154910154919283929116906127109061036890866110c5565b6103729190611109565b915091509250929050565b6040517f01ffc9a70000000000000000000000000000000000000000000000000000000081527f2a55205a00000000000000000000000000000000000000000000000000000000600482015273ffffffffffffffffffffffffffffffffffffffff8516906301ffc9a790602401602060405180830381865afa158015610407573d6000803e3d6000fd5b505050506040513d601f19601f8201168201806040525081019061042b9190611144565b15610497576040517f08c379a000000000000000000000000000000000000000000000000000000000815260206004820152601460248201527f204d757374206e6f74206265204552433239383100000000000000000000000060448201526064015b60405180910390fd5b8373ffffffffffffffffffffffffffffffffffffffff16638da5cb5b6040518163ffffffff1660e01b8152600401602060405180830381865afa1580156104e2573d6000803e3d6000fd5b505050506040513d601f19601f820116820180604052508101906105069190611166565b73ffffffffffffffffffffffffffffffffffffffff163373ffffffffffffffffffffffffffffffffffffffff161461059a576040517f08c379a000000000000000000000000000000000000000000000000000000000815260206004820152600e60248201527f204e6f7420746865206f776e6572000000000000000000000000000000000000604482015260640161048e565b6105a684848484610b53565b50505050565b6105b4610dbe565b6105be6000610e3f565b565b6040517f01ffc9a70000000000000000000000000000000000000000000000000000000081527f2a55205a00000000000000000000000000000000000000000000000000000000600482015273ffffffffffffffffffffffffffffffffffffffff8516906301ffc9a790602401602060405180830381865afa15801561064a573d6000803e3d6000fd5b505050506040513d601f19601f8201168201806040525081019061066e9190611144565b156106d5576040517f08c379a000000000000000000000000000000000000000000000000000000000815260206004820152601460248201527f204d757374206e6f742062652045524332393831000000000000000000000000604482015260640161048e565b8373ffffffffffffffffffffffffffffffffffffffff1663f851a4406040518163ffffffff1660e01b8152600401602060405180830381865afa158015610720573d6000803e3d6000fd5b505050506040513d601f19601f820116820180604052508101906107449190611166565b73ffffffffffffffffffffffffffffffffffffffff163373ffffffffffffffffffffffffffffffffffffffff161461059a576040517f08c379a000000000000000000000000000000000000000000000000000000000815260206004820152600e60248201527f204e6f74207468652061646d696e000000000000000000000000000000000000604482015260640161048e565b6107e0610dbe565b61251c81111561084c576040517f08c379a000000000000000000000000000000000000000000000000000000000815260206004820152601a60248201527f526f79616c747920666565206c696d697420746f6f2068696768000000000000604482015260640161048e565b60018190556040518181527f2da7166c72ef3860ef4fb2571105533c40615269a6dbc38ce0b264910df1c2569060200160405180910390a150565b6040517f01ffc9a70000000000000000000000000000000000000000000000000000000081527f2a55205a000000000000000000000000000000000000000000000000000000006004820152600090819073ffffffffffffffffffffffffffffffffffffffff8416906301ffc9a790602401602060405180830381865afa925050508015610950575060408051601f3d9081017fffffffffffffffffffffffffffffffffffffffffffffffffffffffffffffffe016820190925261094d91810190611144565b60015b1561096a578015610968575060009360019350915050565b505b8273ffffffffffffffffffffffffffffffffffffffff16638da5cb5b6040518163ffffffff1660e01b8152600401602060405180830381865afa9250505080156109ef575060408051601f3d9081017fffffffffffffffffffffffffffffffffffffffffffffffffffffffffffffffe01682019092526109ec91810190611166565b60015b610a92578273ffffffffffffffffffffffffffffffffffffffff1663f851a4406040518163ffffffff1660e01b8152600401602060405180830381865afa925050508015610a78575060408051601f3d9081017fffffffffffffffffffffffffffffffffffffffffffffffffffffffffffffffe0168201909252610a7591810190611166565b60015b610a885750600092600492509050565b9360039350915050565b9360029350915050565b610aa4610dbe565b73ffffffffffffffffffffffffffffffffffffffff8116610b47576040517f08c379a000000000000000000000000000000000000000000000000000000000815260206004820152602660248201527f4f776e61626c653a206e6577206f776e657220697320746865207a65726f206160448201527f6464726573730000000000000000000000000000000000000000000000000000606482015260840161048e565b610b5081610e3f565b50565b73ffffffffffffffffffffffffffffffffffffffff808516600090815260026020526040902054168015610be3576040517f08c379a000000000000000000000000000000000000000000000000000000000815260206004820152600b60248201527f416c726561647920736574000000000000000000000000000000000000000000604482015260640161048e565b6040517f01ffc9a70000000000000000000000000000000000000000000000000000000081527f80ac58cd00000000000000000000000000000000000000000000000000000000600482015273ffffffffffffffffffffffffffffffffffffffff8616906301ffc9a790602401602060405180830381865afa158015610c6d573d6000803e3d6000fd5b505050506040513d601f19601f82011682018060405250810190610c919190611144565b80610d4557506040517f01ffc9a70000000000000000000000000000000000000000000000000000000081527fd9b67a2600000000000000000000000000000000000000000000000000000000600482015273ffffffffffffffffffffffffffffffffffffffff8616906301ffc9a790602401602060405180830381865afa158015610d21573d6000803e3d6000fd5b505050506040513d601f19601f82011682018060405250810190610d459190611144565b610dab576040517f08c379a000000000000000000000000000000000000000000000000000000000815260206004820152601a60248201527f204e6f7420536574206f66204552433732312f45524331313535000000000000604482015260640161048e565b610db785858585610eb4565b5050505050565b60005473ffffffffffffffffffffffffffffffffffffffff1633146105be576040517f08c379a000000000000000000000000000000000000000000000000000000000815260206004820181905260248201527f4f776e61626c653a2063616c6c6572206973206e6f7420746865206f776e6572604482015260640161048e565b6000805473ffffffffffffffffffffffffffffffffffffffff8381167fffffffffffffffffffffffff0000000000000000000000000000000000000000831681178455604051919092169283917f8be0079c531659141344cd1fd0a4f28419497f9722a3daafe3b4186f6b6457e09190a35050565b600154811115610f20576040517f08c379a000000000000000000000000000000000000000000000000000000000815260206004820152601e60248201527f52656769737472793a20526f79616c74792066656520746f6f20686967680000604482015260640161048e565b6040805160608101825273ffffffffffffffffffffffffffffffffffffffff85811680835285821660208085018281528587018881528b861660008181526002808652908a9020985189549089167fffffffffffffffffffffffff0000000000000000000000000000000000000000918216178a55935160018a0180549190991694169390931790965551950194909455935185815290927fd01984afa6e37420452e575e7d99dd7e632b3ec8ea2adec998475b76ca494d64910160405180910390a450505050565b73ffffffffffffffffffffffffffffffffffffffff81168114610b5057600080fd5b6000806040838503121561101e57600080fd5b823561102981610fe9565b946020939093013593505050565b6000806000806080858703121561104d57600080fd5b843561105881610fe9565b9350602085013561106881610fe9565b9250604085013561107881610fe9565b9396929550929360600135925050565b60006020828403121561109a57600080fd5b5035919050565b6000602082840312156110b357600080fd5b81356110be81610fe9565b9392505050565b8082028115828204841417611103577f4e487b7100000000000000000000000000000000000000000000000000000000600052601160045260246000fd5b92915050565b60008261113f577f4e487b7100000000000000000000000000000000000000000000000000000000600052601260045260246000fd5b500490565b60006020828403121561115657600080fd5b815180151581146110be57600080fd5b60006020828403121561117857600080fd5b81516110be81610fe956fea26469706673582212205edca1c15cc2ea512a704df208b56bf72e70d55244176a05205aa6b711d89fcd64736f6c63430008110033",
					"opcodes": "PUSH1 0x80 PUSH1 0x40 MSTORE CALLVALUE DUP1 ISZERO PUSH2 0x10 JUMPI PUSH1 0x0 DUP1 REVERT JUMPDEST POP PUSH1 0x40 MLOAD PUSH2 0x12C7 CODESIZE SUB DUP1 PUSH2 0x12C7 DUP4 CODECOPY DUP2 ADD PUSH1 0x40 DUP2 SWAP1 MSTORE PUSH2 0x2F SWAP2 PUSH2 0xE6 JUMP JUMPDEST PUSH2 0x38 CALLER PUSH2 0x96 JUMP JUMPDEST PUSH2 0x251C DUP2 GT ISZERO PUSH2 0x8E JUMPI PUSH1 0x40 MLOAD PUSH3 0x461BCD PUSH1 0xE5 SHL DUP2 MSTORE PUSH1 0x20 PUSH1 0x4 DUP3 ADD MSTORE PUSH1 0x1A PUSH1 0x24 DUP3 ADD MSTORE PUSH32 0x526F79616C747920666565206C696D697420746F6F2068696768000000000000 PUSH1 0x44 DUP3 ADD MSTORE PUSH1 0x64 ADD PUSH1 0x40 MLOAD DUP1 SWAP2 SUB SWAP1 REVERT JUMPDEST PUSH1 0x1 SSTORE PUSH2 0xFF JUMP JUMPDEST PUSH1 0x0 DUP1 SLOAD PUSH1 0x1 PUSH1 0x1 PUSH1 0xA0 SHL SUB DUP4 DUP2 AND PUSH1 0x1 PUSH1 0x1 PUSH1 0xA0 SHL SUB NOT DUP4 AND DUP2 OR DUP5 SSTORE PUSH1 0x40 MLOAD SWAP2 SWAP1 SWAP3 AND SWAP3 DUP4 SWAP2 PUSH32 0x8BE0079C531659141344CD1FD0A4F28419497F9722A3DAAFE3B4186F6B6457E0 SWAP2 SWAP1 LOG3 POP POP JUMP JUMPDEST PUSH1 0x0 PUSH1 0x20 DUP3 DUP5 SUB SLT ISZERO PUSH2 0xF8 JUMPI PUSH1 0x0 DUP1 REVERT JUMPDEST POP MLOAD SWAP2 SWAP1 POP JUMP JUMPDEST PUSH2 0x11B9 DUP1 PUSH2 0x10E PUSH1 0x0 CODECOPY PUSH1 0x0 RETURN INVALID PUSH1 0x80 PUSH1 0x40 MSTORE CALLVALUE DUP1 ISZERO PUSH2 0x10 JUMPI PUSH1 0x0 DUP1 REVERT JUMPDEST POP PUSH1 0x4 CALLDATASIZE LT PUSH2 0xDF JUMPI PUSH1 0x0 CALLDATALOAD PUSH1 0xE0 SHR DUP1 PUSH4 0xAB016670 GT PUSH2 0x8C JUMPI DUP1 PUSH4 0xBC6BC0CD GT PUSH2 0x66 JUMPI DUP1 PUSH4 0xBC6BC0CD EQ PUSH2 0x229 JUMPI DUP1 PUSH4 0xC54E5497 EQ PUSH2 0x250 JUMPI DUP1 PUSH4 0xE31EF91C EQ PUSH2 0x291 JUMPI DUP1 PUSH4 0xF2FDE38B EQ PUSH2 0x310 JUMPI PUSH1 0x0 DUP1 REVERT JUMPDEST DUP1 PUSH4 0xAB016670 EQ PUSH2 0x1DC JUMPI DUP1 PUSH4 0xB060DD86 EQ PUSH2 0x1EF JUMPI DUP1 PUSH4 0xB9223C9D EQ PUSH2 0x216 JUMPI PUSH1 0x0 DUP1 REVERT JUMPDEST DUP1 PUSH4 0x4FB7D3F9 GT PUSH2 0xBD JUMPI DUP1 PUSH4 0x4FB7D3F9 EQ PUSH2 0x195 JUMPI DUP1 PUSH4 0x715018A6 EQ PUSH2 0x1AC JUMPI DUP1 PUSH4 0x8DA5CB5B EQ PUSH2 0x1B4 JUMPI PUSH1 0x0 DUP1 REVERT JUMPDEST DUP1 PUSH4 0x2782D6C7 EQ PUSH2 0xE4 JUMPI DUP1 PUSH4 0x33BF6156 EQ PUSH2 0x128 JUMPI DUP1 PUSH4 0x3755FA80 EQ PUSH2 0x180 JUMPI JUMPDEST PUSH1 0x0 DUP1 REVERT JUMPDEST PUSH2 0xF7 PUSH2 0xF2 CALLDATASIZE PUSH1 0x4 PUSH2 0x100B JUMP JUMPDEST PUSH2 0x323 JUMP JUMPDEST PUSH1 0x40 DUP1 MLOAD PUSH20 0xFFFFFFFFFFFFFFFFFFFFFFFFFFFFFFFFFFFFFFFF SWAP1 SWAP4 AND DUP4 MSTORE PUSH1 0x20 DUP4 ADD SWAP2 SWAP1 SWAP2 MSTORE ADD JUMPDEST PUSH1 0x40 MLOAD DUP1 SWAP2 SUB SWAP1 RETURN JUMPDEST PUSH2 0x14F PUSH32 0xD9B67A2600000000000000000000000000000000000000000000000000000000 DUP2 JUMP JUMPDEST PUSH1 0x40 MLOAD PUSH32 0xFFFFFFFF00000000000000000000000000000000000000000000000000000000 SWAP1 SWAP2 AND DUP2 MSTORE PUSH1 0x20 ADD PUSH2 0x11F JUMP JUMPDEST PUSH2 0x193 PUSH2 0x18E CALLDATASIZE PUSH1 0x4 PUSH2 0x1037 JUMP JUMPDEST PUSH2 0x37D JUMP JUMPDEST STOP JUMPDEST PUSH2 0x19E PUSH1 0x1 SLOAD DUP2 JUMP JUMPDEST PUSH1 0x40 MLOAD SWAP1 DUP2 MSTORE PUSH1 0x20 ADD PUSH2 0x11F JUMP JUMPDEST PUSH2 0x193 PUSH2 0x5AC JUMP JUMPDEST PUSH1 0x0 SLOAD PUSH1 0x40 MLOAD PUSH20 0xFFFFFFFFFFFFFFFFFFFFFFFFFFFFFFFFFFFFFFFF SWAP1 SWAP2 AND DUP2 MSTORE PUSH1 0x20 ADD PUSH2 0x11F JUMP JUMPDEST PUSH2 0x193 PUSH2 0x1EA CALLDATASIZE PUSH1 0x4 PUSH2 0x1037 JUMP JUMPDEST PUSH2 0x5C0 JUMP JUMPDEST PUSH2 0x14F PUSH32 0x2A55205A00000000000000000000000000000000000000000000000000000000 DUP2 JUMP JUMPDEST PUSH2 0x193 PUSH2 0x224 CALLDATASIZE PUSH1 0x4 PUSH2 0x1088 JUMP JUMPDEST PUSH2 0x7D8 JUMP JUMPDEST PUSH2 0x14F PUSH32 0x80AC58CD00000000000000000000000000000000000000000000000000000000 DUP2 JUMP JUMPDEST PUSH2 0x263 PUSH2 0x25E CALLDATASIZE PUSH1 0x4 PUSH2 0x10A1 JUMP JUMPDEST PUSH2 0x887 JUMP JUMPDEST PUSH1 0x40 DUP1 MLOAD PUSH20 0xFFFFFFFFFFFFFFFFFFFFFFFFFFFFFFFFFFFFFFFF SWAP1 SWAP4 AND DUP4 MSTORE PUSH1 0xFF SWAP1 SWAP2 AND PUSH1 0x20 DUP4 ADD MSTORE ADD PUSH2 0x11F JUMP JUMPDEST PUSH2 0x2DD PUSH2 0x29F CALLDATASIZE PUSH1 0x4 PUSH2 0x10A1 JUMP JUMPDEST PUSH20 0xFFFFFFFFFFFFFFFFFFFFFFFFFFFFFFFFFFFFFFFF SWAP1 DUP2 AND PUSH1 0x0 SWAP1 DUP2 MSTORE PUSH1 0x2 PUSH1 0x20 DUP2 SWAP1 MSTORE PUSH1 0x40 SWAP1 SWAP2 KECCAK256 DUP1 SLOAD PUSH1 0x1 DUP3 ADD SLOAD SWAP2 SWAP1 SWAP3 ADD SLOAD SWAP2 DUP4 AND SWAP4 SWAP3 AND SWAP2 JUMP JUMPDEST PUSH1 0x40 DUP1 MLOAD PUSH20 0xFFFFFFFFFFFFFFFFFFFFFFFFFFFFFFFFFFFFFFFF SWAP5 DUP6 AND DUP2 MSTORE SWAP4 SWAP1 SWAP3 AND PUSH1 0x20 DUP5 ADD MSTORE SWAP1 DUP3 ADD MSTORE PUSH1 0x60 ADD PUSH2 0x11F JUMP JUMPDEST PUSH2 0x193 PUSH2 0x31E CALLDATASIZE PUSH1 0x4 PUSH2 0x10A1 JUMP JUMPDEST PUSH2 0xA9C JUMP JUMPDEST PUSH20 0xFFFFFFFFFFFFFFFFFFFFFFFFFFFFFFFFFFFFFFFF DUP1 DUP4 AND PUSH1 0x0 SWAP1 DUP2 MSTORE PUSH1 0x2 PUSH1 0x20 DUP2 SWAP1 MSTORE PUSH1 0x40 DUP3 KECCAK256 PUSH1 0x1 DUP2 ADD SLOAD SWAP2 ADD SLOAD SWAP2 SWAP3 DUP4 SWAP3 SWAP2 AND SWAP1 PUSH2 0x2710 SWAP1 PUSH2 0x368 SWAP1 DUP7 PUSH2 0x10C5 JUMP JUMPDEST PUSH2 0x372 SWAP2 SWAP1 PUSH2 0x1109 JUMP JUMPDEST SWAP2 POP SWAP2 POP SWAP3 POP SWAP3 SWAP1 POP JUMP JUMPDEST PUSH1 0x40 MLOAD PUSH32 0x1FFC9A700000000000000000000000000000000000000000000000000000000 DUP2 MSTORE PUSH32 0x2A55205A00000000000000000000000000000000000000000000000000000000 PUSH1 0x4 DUP3 ADD MSTORE PUSH20 0xFFFFFFFFFFFFFFFFFFFFFFFFFFFFFFFFFFFFFFFF DUP6 AND SWAP1 PUSH4 0x1FFC9A7 SWAP1 PUSH1 0x24 ADD PUSH1 0x20 PUSH1 0x40 MLOAD DUP1 DUP4 SUB DUP2 DUP7 GAS STATICCALL ISZERO DUP1 ISZERO PUSH2 0x407 JUMPI RETURNDATASIZE PUSH1 0x0 DUP1 RETURNDATACOPY RETURNDATASIZE PUSH1 0x0 REVERT JUMPDEST POP POP POP POP PUSH1 0x40 MLOAD RETURNDATASIZE PUSH1 0x1F NOT PUSH1 0x1F DUP3 ADD AND DUP3 ADD DUP1 PUSH1 0x40 MSTORE POP DUP2 ADD SWAP1 PUSH2 0x42B SWAP2 SWAP1 PUSH2 0x1144 JUMP JUMPDEST ISZERO PUSH2 0x497 JUMPI PUSH1 0x40 MLOAD PUSH32 0x8C379A000000000000000000000000000000000000000000000000000000000 DUP2 MSTORE PUSH1 0x20 PUSH1 0x4 DUP3 ADD MSTORE PUSH1 0x14 PUSH1 0x24 DUP3 ADD MSTORE PUSH32 0x204D757374206E6F742062652045524332393831000000000000000000000000 PUSH1 0x44 DUP3 ADD MSTORE PUSH1 0x64 ADD JUMPDEST PUSH1 0x40 MLOAD DUP1 SWAP2 SUB SWAP1 REVERT JUMPDEST DUP4 PUSH20 0xFFFFFFFFFFFFFFFFFFFFFFFFFFFFFFFFFFFFFFFF AND PUSH4 0x8DA5CB5B PUSH1 0x40 MLOAD DUP2 PUSH4 0xFFFFFFFF AND PUSH1 0xE0 SHL DUP2 MSTORE PUSH1 0x4 ADD PUSH1 0x20 PUSH1 0x40 MLOAD DUP1 DUP4 SUB DUP2 DUP7 GAS STATICCALL ISZERO DUP1 ISZERO PUSH2 0x4E2 JUMPI RETURNDATASIZE PUSH1 0x0 DUP1 RETURNDATACOPY RETURNDATASIZE PUSH1 0x0 REVERT JUMPDEST POP POP POP POP PUSH1 0x40 MLOAD RETURNDATASIZE PUSH1 0x1F NOT PUSH1 0x1F DUP3 ADD AND DUP3 ADD DUP1 PUSH1 0x40 MSTORE POP DUP2 ADD SWAP1 PUSH2 0x506 SWAP2 SWAP1 PUSH2 0x1166 JUMP JUMPDEST PUSH20 0xFFFFFFFFFFFFFFFFFFFFFFFFFFFFFFFFFFFFFFFF AND CALLER PUSH20 0xFFFFFFFFFFFFFFFFFFFFFFFFFFFFFFFFFFFFFFFF AND EQ PUSH2 0x59A JUMPI PUSH1 0x40 MLOAD PUSH32 0x8C379A000000000000000000000000000000000000000000000000000000000 DUP2 MSTORE PUSH1 0x20 PUSH1 0x4 DUP3 ADD MSTORE PUSH1 0xE PUSH1 0x24 DUP3 ADD MSTORE PUSH32 0x204E6F7420746865206F776E6572000000000000000000000000000000000000 PUSH1 0x44 DUP3 ADD MSTORE PUSH1 0x64 ADD PUSH2 0x48E JUMP JUMPDEST PUSH2 0x5A6 DUP5 DUP5 DUP5 DUP5 PUSH2 0xB53 JUMP JUMPDEST POP POP POP POP JUMP JUMPDEST PUSH2 0x5B4 PUSH2 0xDBE JUMP JUMPDEST PUSH2 0x5BE PUSH1 0x0 PUSH2 0xE3F JUMP JUMPDEST JUMP JUMPDEST PUSH1 0x40 MLOAD PUSH32 0x1FFC9A700000000000000000000000000000000000000000000000000000000 DUP2 MSTORE PUSH32 0x2A55205A00000000000000000000000000000000000000000000000000000000 PUSH1 0x4 DUP3 ADD MSTORE PUSH20 0xFFFFFFFFFFFFFFFFFFFFFFFFFFFFFFFFFFFFFFFF DUP6 AND SWAP1 PUSH4 0x1FFC9A7 SWAP1 PUSH1 0x24 ADD PUSH1 0x20 PUSH1 0x40 MLOAD DUP1 DUP4 SUB DUP2 DUP7 GAS STATICCALL ISZERO DUP1 ISZERO PUSH2 0x64A JUMPI RETURNDATASIZE PUSH1 0x0 DUP1 RETURNDATACOPY RETURNDATASIZE PUSH1 0x0 REVERT JUMPDEST POP POP POP POP PUSH1 0x40 MLOAD RETURNDATASIZE PUSH1 0x1F NOT PUSH1 0x1F DUP3 ADD AND DUP3 ADD DUP1 PUSH1 0x40 MSTORE POP DUP2 ADD SWAP1 PUSH2 0x66E SWAP2 SWAP1 PUSH2 0x1144 JUMP JUMPDEST ISZERO PUSH2 0x6D5 JUMPI PUSH1 0x40 MLOAD PUSH32 0x8C379A000000000000000000000000000000000000000000000000000000000 DUP2 MSTORE PUSH1 0x20 PUSH1 0x4 DUP3 ADD MSTORE PUSH1 0x14 PUSH1 0x24 DUP3 ADD MSTORE PUSH32 0x204D757374206E6F742062652045524332393831000000000000000000000000 PUSH1 0x44 DUP3 ADD MSTORE PUSH1 0x64 ADD PUSH2 0x48E JUMP JUMPDEST DUP4 PUSH20 0xFFFFFFFFFFFFFFFFFFFFFFFFFFFFFFFFFFFFFFFF AND PUSH4 0xF851A440 PUSH1 0x40 MLOAD DUP2 PUSH4 0xFFFFFFFF AND PUSH1 0xE0 SHL DUP2 MSTORE PUSH1 0x4 ADD PUSH1 0x20 PUSH1 0x40 MLOAD DUP1 DUP4 SUB DUP2 DUP7 GAS STATICCALL ISZERO DUP1 ISZERO PUSH2 0x720 JUMPI RETURNDATASIZE PUSH1 0x0 DUP1 RETURNDATACOPY RETURNDATASIZE PUSH1 0x0 REVERT JUMPDEST POP POP POP POP PUSH1 0x40 MLOAD RETURNDATASIZE PUSH1 0x1F NOT PUSH1 0x1F DUP3 ADD AND DUP3 ADD DUP1 PUSH1 0x40 MSTORE POP DUP2 ADD SWAP1 PUSH2 0x744 SWAP2 SWAP1 PUSH2 0x1166 JUMP JUMPDEST PUSH20 0xFFFFFFFFFFFFFFFFFFFFFFFFFFFFFFFFFFFFFFFF AND CALLER PUSH20 0xFFFFFFFFFFFFFFFFFFFFFFFFFFFFFFFFFFFFFFFF AND EQ PUSH2 0x59A JUMPI PUSH1 0x40 MLOAD PUSH32 0x8C379A000000000000000000000000000000000000000000000000000000000 DUP2 MSTORE PUSH1 0x20 PUSH1 0x4 DUP3 ADD MSTORE PUSH1 0xE PUSH1 0x24 DUP3 ADD MSTORE PUSH32 0x204E6F74207468652061646D696E000000000000000000000000000000000000 PUSH1 0x44 DUP3 ADD MSTORE PUSH1 0x64 ADD PUSH2 0x48E JUMP JUMPDEST PUSH2 0x7E0 PUSH2 0xDBE JUMP JUMPDEST PUSH2 0x251C DUP2 GT ISZERO PUSH2 0x84C JUMPI PUSH1 0x40 MLOAD PUSH32 0x8C379A000000000000000000000000000000000000000000000000000000000 DUP2 MSTORE PUSH1 0x20 PUSH1 0x4 DUP3 ADD MSTORE PUSH1 0x1A PUSH1 0x24 DUP3 ADD MSTORE PUSH32 0x526F79616C747920666565206C696D697420746F6F2068696768000000000000 PUSH1 0x44 DUP3 ADD MSTORE PUSH1 0x64 ADD PUSH2 0x48E JUMP JUMPDEST PUSH1 0x1 DUP2 SWAP1 SSTORE PUSH1 0x40 MLOAD DUP2 DUP2 MSTORE PUSH32 0x2DA7166C72EF3860EF4FB2571105533C40615269A6DBC38CE0B264910DF1C256 SWAP1 PUSH1 0x20 ADD PUSH1 0x40 MLOAD DUP1 SWAP2 SUB SWAP1 LOG1 POP JUMP JUMPDEST PUSH1 0x40 MLOAD PUSH32 0x1FFC9A700000000000000000000000000000000000000000000000000000000 DUP2 MSTORE PUSH32 0x2A55205A00000000000000000000000000000000000000000000000000000000 PUSH1 0x4 DUP3 ADD MSTORE PUSH1 0x0 SWAP1 DUP2 SWAP1 PUSH20 0xFFFFFFFFFFFFFFFFFFFFFFFFFFFFFFFFFFFFFFFF DUP5 AND SWAP1 PUSH4 0x1FFC9A7 SWAP1 PUSH1 0x24 ADD PUSH1 0x20 PUSH1 0x40 MLOAD DUP1 DUP4 SUB DUP2 DUP7 GAS STATICCALL SWAP3 POP POP POP DUP1 ISZERO PUSH2 0x950 JUMPI POP PUSH1 0x40 DUP1 MLOAD PUSH1 0x1F RETURNDATASIZE SWAP1 DUP2 ADD PUSH32 0xFFFFFFFFFFFFFFFFFFFFFFFFFFFFFFFFFFFFFFFFFFFFFFFFFFFFFFFFFFFFFFE0 AND DUP3 ADD SWAP1 SWAP3 MSTORE PUSH2 0x94D SWAP2 DUP2 ADD SWAP1 PUSH2 0x1144 JUMP JUMPDEST PUSH1 0x1 JUMPDEST ISZERO PUSH2 0x96A JUMPI DUP1 ISZERO PUSH2 0x968 JUMPI POP PUSH1 0x0 SWAP4 PUSH1 0x1 SWAP4 POP SWAP2 POP POP JUMP JUMPDEST POP JUMPDEST DUP3 PUSH20 0xFFFFFFFFFFFFFFFFFFFFFFFFFFFFFFFFFFFFFFFF AND PUSH4 0x8DA5CB5B PUSH1 0x40 MLOAD DUP2 PUSH4 0xFFFFFFFF AND PUSH1 0xE0 SHL DUP2 MSTORE PUSH1 0x4 ADD PUSH1 0x20 PUSH1 0x40 MLOAD DUP1 DUP4 SUB DUP2 DUP7 GAS STATICCALL SWAP3 POP POP POP DUP1 ISZERO PUSH2 0x9EF JUMPI POP PUSH1 0x40 DUP1 MLOAD PUSH1 0x1F RETURNDATASIZE SWAP1 DUP2 ADD PUSH32 0xFFFFFFFFFFFFFFFFFFFFFFFFFFFFFFFFFFFFFFFFFFFFFFFFFFFFFFFFFFFFFFE0 AND DUP3 ADD SWAP1 SWAP3 MSTORE PUSH2 0x9EC SWAP2 DUP2 ADD SWAP1 PUSH2 0x1166 JUMP JUMPDEST PUSH1 0x1 JUMPDEST PUSH2 0xA92 JUMPI DUP3 PUSH20 0xFFFFFFFFFFFFFFFFFFFFFFFFFFFFFFFFFFFFFFFF AND PUSH4 0xF851A440 PUSH1 0x40 MLOAD DUP2 PUSH4 0xFFFFFFFF AND PUSH1 0xE0 SHL DUP2 MSTORE PUSH1 0x4 ADD PUSH1 0x20 PUSH1 0x40 MLOAD DUP1 DUP4 SUB DUP2 DUP7 GAS STATICCALL SWAP3 POP POP POP DUP1 ISZERO PUSH2 0xA78 JUMPI POP PUSH1 0x40 DUP1 MLOAD PUSH1 0x1F RETURNDATASIZE SWAP1 DUP2 ADD PUSH32 0xFFFFFFFFFFFFFFFFFFFFFFFFFFFFFFFFFFFFFFFFFFFFFFFFFFFFFFFFFFFFFFE0 AND DUP3 ADD SWAP1 SWAP3 MSTORE PUSH2 0xA75 SWAP2 DUP2 ADD SWAP1 PUSH2 0x1166 JUMP JUMPDEST PUSH1 0x1 JUMPDEST PUSH2 0xA88 JUMPI POP PUSH1 0x0 SWAP3 PUSH1 0x4 SWAP3 POP SWAP1 POP JUMP JUMPDEST SWAP4 PUSH1 0x3 SWAP4 POP SWAP2 POP POP JUMP JUMPDEST SWAP4 PUSH1 0x2 SWAP4 POP SWAP2 POP POP JUMP JUMPDEST PUSH2 0xAA4 PUSH2 0xDBE JUMP JUMPDEST PUSH20 0xFFFFFFFFFFFFFFFFFFFFFFFFFFFFFFFFFFFFFFFF DUP2 AND PUSH2 0xB47 JUMPI PUSH1 0x40 MLOAD PUSH32 0x8C379A000000000000000000000000000000000000000000000000000000000 DUP2 MSTORE PUSH1 0x20 PUSH1 0x4 DUP3 ADD MSTORE PUSH1 0x26 PUSH1 0x24 DUP3 ADD MSTORE PUSH32 0x4F776E61626C653A206E6577206F776E657220697320746865207A65726F2061 PUSH1 0x44 DUP3 ADD MSTORE PUSH32 0x6464726573730000000000000000000000000000000000000000000000000000 PUSH1 0x64 DUP3 ADD MSTORE PUSH1 0x84 ADD PUSH2 0x48E JUMP JUMPDEST PUSH2 0xB50 DUP2 PUSH2 0xE3F JUMP JUMPDEST POP JUMP JUMPDEST PUSH20 0xFFFFFFFFFFFFFFFFFFFFFFFFFFFFFFFFFFFFFFFF DUP1 DUP6 AND PUSH1 0x0 SWAP1 DUP2 MSTORE PUSH1 0x2 PUSH1 0x20 MSTORE PUSH1 0x40 SWAP1 KECCAK256 SLOAD AND DUP1 ISZERO PUSH2 0xBE3 JUMPI PUSH1 0x40 MLOAD PUSH32 0x8C379A000000000000000000000000000000000000000000000000000000000 DUP2 MSTORE PUSH1 0x20 PUSH1 0x4 DUP3 ADD MSTORE PUSH1 0xB PUSH1 0x24 DUP3 ADD MSTORE PUSH32 0x416C726561647920736574000000000000000000000000000000000000000000 PUSH1 0x44 DUP3 ADD MSTORE PUSH1 0x64 ADD PUSH2 0x48E JUMP JUMPDEST PUSH1 0x40 MLOAD PUSH32 0x1FFC9A700000000000000000000000000000000000000000000000000000000 DUP2 MSTORE PUSH32 0x80AC58CD00000000000000000000000000000000000000000000000000000000 PUSH1 0x4 DUP3 ADD MSTORE PUSH20 0xFFFFFFFFFFFFFFFFFFFFFFFFFFFFFFFFFFFFFFFF DUP7 AND SWAP1 PUSH4 0x1FFC9A7 SWAP1 PUSH1 0x24 ADD PUSH1 0x20 PUSH1 0x40 MLOAD DUP1 DUP4 SUB DUP2 DUP7 GAS STATICCALL ISZERO DUP1 ISZERO PUSH2 0xC6D JUMPI RETURNDATASIZE PUSH1 0x0 DUP1 RETURNDATACOPY RETURNDATASIZE PUSH1 0x0 REVERT JUMPDEST POP POP POP POP PUSH1 0x40 MLOAD RETURNDATASIZE PUSH1 0x1F NOT PUSH1 0x1F DUP3 ADD AND DUP3 ADD DUP1 PUSH1 0x40 MSTORE POP DUP2 ADD SWAP1 PUSH2 0xC91 SWAP2 SWAP1 PUSH2 0x1144 JUMP JUMPDEST DUP1 PUSH2 0xD45 JUMPI POP PUSH1 0x40 MLOAD PUSH32 0x1FFC9A700000000000000000000000000000000000000000000000000000000 DUP2 MSTORE PUSH32 0xD9B67A2600000000000000000000000000000000000000000000000000000000 PUSH1 0x4 DUP3 ADD MSTORE PUSH20 0xFFFFFFFFFFFFFFFFFFFFFFFFFFFFFFFFFFFFFFFF DUP7 AND SWAP1 PUSH4 0x1FFC9A7 SWAP1 PUSH1 0x24 ADD PUSH1 0x20 PUSH1 0x40 MLOAD DUP1 DUP4 SUB DUP2 DUP7 GAS STATICCALL ISZERO DUP1 ISZERO PUSH2 0xD21 JUMPI RETURNDATASIZE PUSH1 0x0 DUP1 RETURNDATACOPY RETURNDATASIZE PUSH1 0x0 REVERT JUMPDEST POP POP POP POP PUSH1 0x40 MLOAD RETURNDATASIZE PUSH1 0x1F NOT PUSH1 0x1F DUP3 ADD AND DUP3 ADD DUP1 PUSH1 0x40 MSTORE POP DUP2 ADD SWAP1 PUSH2 0xD45 SWAP2 SWAP1 PUSH2 0x1144 JUMP JUMPDEST PUSH2 0xDAB JUMPI PUSH1 0x40 MLOAD PUSH32 0x8C379A000000000000000000000000000000000000000000000000000000000 DUP2 MSTORE PUSH1 0x20 PUSH1 0x4 DUP3 ADD MSTORE PUSH1 0x1A PUSH1 0x24 DUP3 ADD MSTORE PUSH32 0x204E6F7420536574206F66204552433732312F45524331313535000000000000 PUSH1 0x44 DUP3 ADD MSTORE PUSH1 0x64 ADD PUSH2 0x48E JUMP JUMPDEST PUSH2 0xDB7 DUP6 DUP6 DUP6 DUP6 PUSH2 0xEB4 JUMP JUMPDEST POP POP POP POP POP JUMP JUMPDEST PUSH1 0x0 SLOAD PUSH20 0xFFFFFFFFFFFFFFFFFFFFFFFFFFFFFFFFFFFFFFFF AND CALLER EQ PUSH2 0x5BE JUMPI PUSH1 0x40 MLOAD PUSH32 0x8C379A000000000000000000000000000000000000000000000000000000000 DUP2 MSTORE PUSH1 0x20 PUSH1 0x4 DUP3 ADD DUP2 SWAP1 MSTORE PUSH1 0x24 DUP3 ADD MSTORE PUSH32 0x4F776E61626C653A2063616C6C6572206973206E6F7420746865206F776E6572 PUSH1 0x44 DUP3 ADD MSTORE PUSH1 0x64 ADD PUSH2 0x48E JUMP JUMPDEST PUSH1 0x0 DUP1 SLOAD PUSH20 0xFFFFFFFFFFFFFFFFFFFFFFFFFFFFFFFFFFFFFFFF DUP4 DUP2 AND PUSH32 0xFFFFFFFFFFFFFFFFFFFFFFFF0000000000000000000000000000000000000000 DUP4 AND DUP2 OR DUP5 SSTORE PUSH1 0x40 MLOAD SWAP2 SWAP1 SWAP3 AND SWAP3 DUP4 SWAP2 PUSH32 0x8BE0079C531659141344CD1FD0A4F28419497F9722A3DAAFE3B4186F6B6457E0 SWAP2 SWAP1 LOG3 POP POP JUMP JUMPDEST PUSH1 0x1 SLOAD DUP2 GT ISZERO PUSH2 0xF20 JUMPI PUSH1 0x40 MLOAD PUSH32 0x8C379A000000000000000000000000000000000000000000000000000000000 DUP2 MSTORE PUSH1 0x20 PUSH1 0x4 DUP3 ADD MSTORE PUSH1 0x1E PUSH1 0x24 DUP3 ADD MSTORE PUSH32 0x52656769737472793A20526F79616C74792066656520746F6F20686967680000 PUSH1 0x44 DUP3 ADD MSTORE PUSH1 0x64 ADD PUSH2 0x48E JUMP JUMPDEST PUSH1 0x40 DUP1 MLOAD PUSH1 0x60 DUP2 ADD DUP3 MSTORE PUSH20 0xFFFFFFFFFFFFFFFFFFFFFFFFFFFFFFFFFFFFFFFF DUP6 DUP2 AND DUP1 DUP4 MSTORE DUP6 DUP3 AND PUSH1 0x20 DUP1 DUP6 ADD DUP3 DUP2 MSTORE DUP6 DUP8 ADD DUP9 DUP2 MSTORE DUP12 DUP7 AND PUSH1 0x0 DUP2 DUP2 MSTORE PUSH1 0x2 DUP1 DUP7 MSTORE SWAP1 DUP11 SWAP1 KECCAK256 SWAP9 MLOAD DUP10 SLOAD SWAP1 DUP10 AND PUSH32 0xFFFFFFFFFFFFFFFFFFFFFFFF0000000000000000000000000000000000000000 SWAP2 DUP3 AND OR DUP11 SSTORE SWAP4 MLOAD PUSH1 0x1 DUP11 ADD DUP1 SLOAD SWAP2 SWAP1 SWAP10 AND SWAP5 AND SWAP4 SWAP1 SWAP4 OR SWAP1 SWAP7 SSTORE MLOAD SWAP6 ADD SWAP5 SWAP1 SWAP5 SSTORE SWAP4 MLOAD DUP6 DUP2 MSTORE SWAP1 SWAP3 PUSH32 0xD01984AFA6E37420452E575E7D99DD7E632B3EC8EA2ADEC998475B76CA494D64 SWAP2 ADD PUSH1 0x40 MLOAD DUP1 SWAP2 SUB SWAP1 LOG4 POP POP POP POP JUMP JUMPDEST PUSH20 0xFFFFFFFFFFFFFFFFFFFFFFFFFFFFFFFFFFFFFFFF DUP2 AND DUP2 EQ PUSH2 0xB50 JUMPI PUSH1 0x0 DUP1 REVERT JUMPDEST PUSH1 0x0 DUP1 PUSH1 0x40 DUP4 DUP6 SUB SLT ISZERO PUSH2 0x101E JUMPI PUSH1 0x0 DUP1 REVERT JUMPDEST DUP3 CALLDATALOAD PUSH2 0x1029 DUP2 PUSH2 0xFE9 JUMP JUMPDEST SWAP5 PUSH1 0x20 SWAP4 SWAP1 SWAP4 ADD CALLDATALOAD SWAP4 POP POP POP JUMP JUMPDEST PUSH1 0x0 DUP1 PUSH1 0x0 DUP1 PUSH1 0x80 DUP6 DUP8 SUB SLT ISZERO PUSH2 0x104D JUMPI PUSH1 0x0 DUP1 REVERT JUMPDEST DUP5 CALLDATALOAD PUSH2 0x1058 DUP2 PUSH2 0xFE9 JUMP JUMPDEST SWAP4 POP PUSH1 0x20 DUP6 ADD CALLDATALOAD PUSH2 0x1068 DUP2 PUSH2 0xFE9 JUMP JUMPDEST SWAP3 POP PUSH1 0x40 DUP6 ADD CALLDATALOAD PUSH2 0x1078 DUP2 PUSH2 0xFE9 JUMP JUMPDEST SWAP4 SWAP7 SWAP3 SWAP6 POP SWAP3 SWAP4 PUSH1 0x60 ADD CALLDATALOAD SWAP3 POP POP JUMP JUMPDEST PUSH1 0x0 PUSH1 0x20 DUP3 DUP5 SUB SLT ISZERO PUSH2 0x109A JUMPI PUSH1 0x0 DUP1 REVERT JUMPDEST POP CALLDATALOAD SWAP2 SWAP1 POP JUMP JUMPDEST PUSH1 0x0 PUSH1 0x20 DUP3 DUP5 SUB SLT ISZERO PUSH2 0x10B3 JUMPI PUSH1 0x0 DUP1 REVERT JUMPDEST DUP2 CALLDATALOAD PUSH2 0x10BE DUP2 PUSH2 0xFE9 JUMP JUMPDEST SWAP4 SWAP3 POP POP POP JUMP JUMPDEST DUP1 DUP3 MUL DUP2 ISZERO DUP3 DUP3 DIV DUP5 EQ OR PUSH2 0x1103 JUMPI PUSH32 0x4E487B7100000000000000000000000000000000000000000000000000000000 PUSH1 0x0 MSTORE PUSH1 0x11 PUSH1 0x4 MSTORE PUSH1 0x24 PUSH1 0x0 REVERT JUMPDEST SWAP3 SWAP2 POP POP JUMP JUMPDEST PUSH1 0x0 DUP3 PUSH2 0x113F JUMPI PUSH32 0x4E487B7100000000000000000000000000000000000000000000000000000000 PUSH1 0x0 MSTORE PUSH1 0x12 PUSH1 0x4 MSTORE PUSH1 0x24 PUSH1 0x0 REVERT JUMPDEST POP DIV SWAP1 JUMP JUMPDEST PUSH1 0x0 PUSH1 0x20 DUP3 DUP5 SUB SLT ISZERO PUSH2 0x1156 JUMPI PUSH1 0x0 DUP1 REVERT JUMPDEST DUP2 MLOAD DUP1 ISZERO ISZERO DUP2 EQ PUSH2 0x10BE JUMPI PUSH1 0x0 DUP1 REVERT JUMPDEST PUSH1 0x0 PUSH1 0x20 DUP3 DUP5 SUB SLT ISZERO PUSH2 0x1178 JUMPI PUSH1 0x0 DUP1 REVERT JUMPDEST DUP2 MLOAD PUSH2 0x10BE DUP2 PUSH2 0xFE9 JUMP INVALID LOG2 PUSH5 0x6970667358 0x22 SLT KECCAK256 0x5E 0xDC LOG1 0xC1 0x5C 0xC2 0xEA MLOAD 0x2A PUSH17 0x4DF208B56BF72E70D55244176A05205AA6 0xB7 GT 0xD8 SWAP16 0xCD PUSH5 0x736F6C6343 STOP ADDMOD GT STOP CALLER "
				},
				"gasEstimates": {
					"creation": {
						"codeDepositCost": "907400",
						"executionCost": "infinite",
						"totalCost": "infinite"
					},
					"external": {
						"INTERFACE_ID_ERC1155()": "250",
						"INTERFACE_ID_ERC2981()": "249",
						"INTERFACE_ID_ERC721()": "226",
						"checkForCollectionSetter(address)": "infinite",
						"owner()": "2356",
						"renounceOwnership()": "infinite",
						"royaltyFeeInfoCollection(address)": "6884",
						"royaltyFeeLimit()": "2318",
						"royaltyInfo(address,uint256)": "4911",
						"transferOwnership(address)": "infinite",
						"updateRoyaltyFeeLimit(uint256)": "25634",
						"updateRoyaltyInfoForCollectionIfAdmin(address,address,address,uint256)": "infinite",
						"updateRoyaltyInfoForCollectionIfOwner(address,address,address,uint256)": "infinite"
					},
					"internal": {
						"_updateRoyaltyInfoForCollectionIfOwnerOrAdmin(address,address,address,uint256)": "infinite",
						"updateRoyaltyInfoForCollection(address,address,address,uint256)": "infinite"
					}
				},
				"methodIdentifiers": {
					"INTERFACE_ID_ERC1155()": "33bf6156",
					"INTERFACE_ID_ERC2981()": "b060dd86",
					"INTERFACE_ID_ERC721()": "bc6bc0cd",
					"checkForCollectionSetter(address)": "c54e5497",
					"owner()": "8da5cb5b",
					"renounceOwnership()": "715018a6",
					"royaltyFeeInfoCollection(address)": "e31ef91c",
					"royaltyFeeLimit()": "4fb7d3f9",
					"royaltyInfo(address,uint256)": "2782d6c7",
					"transferOwnership(address)": "f2fde38b",
					"updateRoyaltyFeeLimit(uint256)": "b9223c9d",
					"updateRoyaltyInfoForCollectionIfAdmin(address,address,address,uint256)": "ab016670",
					"updateRoyaltyInfoForCollectionIfOwner(address,address,address,uint256)": "3755fa80"
				}
			},
			"storageLayout": {
				"storage": [
					{
						"astId": 7,
						"contract": "contracts/Manager/royalty/RoyaltyFeeRegistry.sol:RoyaltyFeeRegistry",
						"label": "_owner",
						"offset": 0,
						"slot": "0",
						"type": "t_address"
					},
					{
						"astId": 196,
						"contract": "contracts/Manager/royalty/RoyaltyFeeRegistry.sol:RoyaltyFeeRegistry",
						"label": "royaltyFeeLimit",
						"offset": 0,
						"slot": "1",
						"type": "t_uint256"
					},
					{
						"astId": 201,
						"contract": "contracts/Manager/royalty/RoyaltyFeeRegistry.sol:RoyaltyFeeRegistry",
						"label": "_royaltyFeeInfoCollection",
						"offset": 0,
						"slot": "2",
						"type": "t_mapping(t_address,t_struct(FeeInfo)185_storage)"
					}
				],
				"types": {
					"t_address": {
						"encoding": "inplace",
						"label": "address",
						"numberOfBytes": "20"
					},
					"t_mapping(t_address,t_struct(FeeInfo)185_storage)": {
						"encoding": "mapping",
						"key": "t_address",
						"label": "mapping(address => struct RoyaltyFeeRegistry.FeeInfo)",
						"numberOfBytes": "32",
						"value": "t_struct(FeeInfo)185_storage"
					},
					"t_struct(FeeInfo)185_storage": {
						"encoding": "inplace",
						"label": "struct RoyaltyFeeRegistry.FeeInfo",
						"members": [
							{
								"astId": 180,
								"contract": "contracts/Manager/royalty/RoyaltyFeeRegistry.sol:RoyaltyFeeRegistry",
								"label": "setter",
								"offset": 0,
								"slot": "0",
								"type": "t_address"
							},
							{
								"astId": 182,
								"contract": "contracts/Manager/royalty/RoyaltyFeeRegistry.sol:RoyaltyFeeRegistry",
								"label": "receiver",
								"offset": 0,
								"slot": "1",
								"type": "t_address"
							},
							{
								"astId": 184,
								"contract": "contracts/Manager/royalty/RoyaltyFeeRegistry.sol:RoyaltyFeeRegistry",
								"label": "fee",
								"offset": 0,
								"slot": "2",
								"type": "t_uint256"
							}
						],
						"numberOfBytes": "96"
					},
					"t_uint256": {
						"encoding": "inplace",
						"label": "uint256",
						"numberOfBytes": "32"
					}
				}
			},
			"userdoc": {
				"kind": "user",
				"methods": {},
				"version": 1
			}
		}
	}
}