{
	"data": {
		"bytecode": {
			"linkReferences": {},
			"object": "608060405234801561001057600080fd5b5061001a3361001f565b61006f565b600080546001600160a01b038381166001600160a01b0319831681178455604051919092169283917f8be0079c531659141344cd1fd0a4f28419497f9722a3daafe3b4186f6b6457e09190a35050565b6108088061007e6000396000f3fe608060405234801561001057600080fd5b50600436106100885760003560e01c80638ab234b61161005b5780638ab234b6146100f65780638da5cb5b14610109578063c5d3a10714610124578063f2fde38b1461013757600080fd5b80631facfd9c1461008d57806343b938c5146100a8578063715018a6146100cb57806385f39b0a146100d5575b600080fd5b61009561014a565b6040519081526020015b60405180910390f35b6100bb6100b636600461069f565b61015b565b604051901515815260200161009f565b6100d361016e565b005b6100e86100e33660046106c8565b610182565b60405161009f9291906106ea565b6100d361010436600461069f565b610277565b6000546040516001600160a01b03909116815260200161009f565b6100d361013236600461069f565b610316565b6100d361014536600461069f565b6103ab565b60006101566001610424565b905090565b600061016860018361042e565b92915050565b610176610453565b61018060006104ad565b565b6060600082846101926001610424565b61019c9190610751565b8111156101bb57846101ae6001610424565b6101b89190610751565b90505b60008167ffffffffffffffff8111156101d6576101d6610764565b6040519080825280602002602001820160405280156101ff578160200160208202803683370190505b50905060005b8281101561025e5761022261021a828961077a565b6001906104fd565b8282815181106102345761023461078d565b6001600160a01b039092166020928302919091019091015280610256816107a3565b915050610205565b508061026a838861077a565b9350935050509250929050565b61027f610453565b61028a60018261042e565b156102d35760405162461bcd60e51b815260206004820152601460248201527308105b1c9958591e481dda1a5d195b1a5cdd195960621b60448201526064015b60405180910390fd5b6102de600182610509565b506040516001600160a01b038216907f3cbf62b327efb2d06d36e16c10a2f5c00cf0568e2b805bd56969b15d2736107890600090a250565b61031e610453565b61032960018261042e565b6103685760405162461bcd60e51b815260206004820152601060248201526f08139bdd081dda1a5d195b1a5cdd195960821b60448201526064016102ca565b61037360018261051e565b506040516001600160a01b038216907fa40d69111be14f29022626d38310e47cc2d7f4cb728961509c2f65a4bee08c5b90600090a250565b6103b3610453565b6001600160a01b0381166104185760405162461bcd60e51b815260206004820152602660248201527f4f776e61626c653a206e6577206f776e657220697320746865207a65726f206160448201526564647265737360d01b60648201526084016102ca565b610421816104ad565b50565b6000610168825490565b6001600160a01b038116600090815260018301602052604081205415155b9392505050565b6000546001600160a01b031633146101805760405162461bcd60e51b815260206004820181905260248201527f4f776e61626c653a2063616c6c6572206973206e6f7420746865206f776e657260448201526064016102ca565b600080546001600160a01b038381166001600160a01b0319831681178455604051919092169283917f8be0079c531659141344cd1fd0a4f28419497f9722a3daafe3b4186f6b6457e09190a35050565b600061044c8383610533565b600061044c836001600160a01b03841661055d565b600061044c836001600160a01b0384166105ac565b600082600001828154811061054a5761054a61078d565b9060005260206000200154905092915050565b60008181526001830160205260408120546105a457508154600181810184556000848152602080822090930184905584548482528286019093526040902091909155610168565b506000610168565b600081815260018301602052604081205480156106955760006105d0600183610751565b85549091506000906105e490600190610751565b90508181146106495760008660000182815481106106045761060461078d565b90600052602060002001549050808760000184815481106106275761062761078d565b6000918252602080832090910192909255918252600188019052604090208390555b855486908061065a5761065a6107bc565b600190038181906000526020600020016000905590558560010160008681526020019081526020016000206000905560019350505050610168565b6000915050610168565b6000602082840312156106b157600080fd5b81356001600160a01b038116811461044c57600080fd5b600080604083850312156106db57600080fd5b50508035926020909101359150565b604080825283519082018190526000906020906060840190828701845b8281101561072c5781516001600160a01b031684529284019290840190600101610707565b50505092019290925292915050565b634e487b7160e01b600052601160045260246000fd5b818103818111156101685761016861073b565b634e487b7160e01b600052604160045260246000fd5b808201808211156101685761016861073b565b634e487b7160e01b600052603260045260246000fd5b6000600182016107b5576107b561073b565b5060010190565b634e487b7160e01b600052603160045260246000fdfea26469706673582212201a412638f4575da427a071e5f27815ca51dc831c1f61bcfa8d3a7f8d5ef5179f64736f6c63430008110033",
			"opcodes": "PUSH1 0x80 PUSH1 0x40 MSTORE CALLVALUE DUP1 ISZERO PUSH2 0x10 JUMPI PUSH1 0x0 DUP1 REVERT JUMPDEST POP PUSH2 0x1A CALLER PUSH2 0x1F JUMP JUMPDEST PUSH2 0x6F JUMP JUMPDEST PUSH1 0x0 DUP1 SLOAD PUSH1 0x1 PUSH1 0x1 PUSH1 0xA0 SHL SUB DUP4 DUP2 AND PUSH1 0x1 PUSH1 0x1 PUSH1 0xA0 SHL SUB NOT DUP4 AND DUP2 OR DUP5 SSTORE PUSH1 0x40 MLOAD SWAP2 SWAP1 SWAP3 AND SWAP3 DUP4 SWAP2 PUSH32 0x8BE0079C531659141344CD1FD0A4F28419497F9722A3DAAFE3B4186F6B6457E0 SWAP2 SWAP1 LOG3 POP POP JUMP JUMPDEST PUSH2 0x808 DUP1 PUSH2 0x7E PUSH1 0x0 CODECOPY PUSH1 0x0 RETURN INVALID PUSH1 0x80 PUSH1 0x40 MSTORE CALLVALUE DUP1 ISZERO PUSH2 0x10 JUMPI PUSH1 0x0 DUP1 REVERT JUMPDEST POP PUSH1 0x4 CALLDATASIZE LT PUSH2 0x88 JUMPI PUSH1 0x0 CALLDATALOAD PUSH1 0xE0 SHR DUP1 PUSH4 0x8AB234B6 GT PUSH2 0x5B JUMPI DUP1 PUSH4 0x8AB234B6 EQ PUSH2 0xF6 JUMPI DUP1 PUSH4 0x8DA5CB5B EQ PUSH2 0x109 JUMPI DUP1 PUSH4 0xC5D3A107 EQ PUSH2 0x124 JUMPI DUP1 PUSH4 0xF2FDE38B EQ PUSH2 0x137 JUMPI PUSH1 0x0 DUP1 REVERT JUMPDEST DUP1 PUSH4 0x1FACFD9C EQ PUSH2 0x8D JUMPI DUP1 PUSH4 0x43B938C5 EQ PUSH2 0xA8 JUMPI DUP1 PUSH4 0x715018A6 EQ PUSH2 0xCB JUMPI DUP1 PUSH4 0x85F39B0A EQ PUSH2 0xD5 JUMPI JUMPDEST PUSH1 0x0 DUP1 REVERT JUMPDEST PUSH2 0x95 PUSH2 0x14A JUMP JUMPDEST PUSH1 0x40 MLOAD SWAP1 DUP2 MSTORE PUSH1 0x20 ADD JUMPDEST PUSH1 0x40 MLOAD DUP1 SWAP2 SUB SWAP1 RETURN JUMPDEST PUSH2 0xBB PUSH2 0xB6 CALLDATASIZE PUSH1 0x4 PUSH2 0x69F JUMP JUMPDEST PUSH2 0x15B JUMP JUMPDEST PUSH1 0x40 MLOAD SWAP1 ISZERO ISZERO DUP2 MSTORE PUSH1 0x20 ADD PUSH2 0x9F JUMP JUMPDEST PUSH2 0xD3 PUSH2 0x16E JUMP JUMPDEST STOP JUMPDEST PUSH2 0xE8 PUSH2 0xE3 CALLDATASIZE PUSH1 0x4 PUSH2 0x6C8 JUMP JUMPDEST PUSH2 0x182 JUMP JUMPDEST PUSH1 0x40 MLOAD PUSH2 0x9F SWAP3 SWAP2 SWAP1 PUSH2 0x6EA JUMP JUMPDEST PUSH2 0xD3 PUSH2 0x104 CALLDATASIZE PUSH1 0x4 PUSH2 0x69F JUMP JUMPDEST PUSH2 0x277 JUMP JUMPDEST PUSH1 0x0 SLOAD PUSH1 0x40 MLOAD PUSH1 0x1 PUSH1 0x1 PUSH1 0xA0 SHL SUB SWAP1 SWAP2 AND DUP2 MSTORE PUSH1 0x20 ADD PUSH2 0x9F JUMP JUMPDEST PUSH2 0xD3 PUSH2 0x132 CALLDATASIZE PUSH1 0x4 PUSH2 0x69F JUMP JUMPDEST PUSH2 0x316 JUMP JUMPDEST PUSH2 0xD3 PUSH2 0x145 CALLDATASIZE PUSH1 0x4 PUSH2 0x69F JUMP JUMPDEST PUSH2 0x3AB JUMP JUMPDEST PUSH1 0x0 PUSH2 0x156 PUSH1 0x1 PUSH2 0x424 JUMP JUMPDEST SWAP1 POP SWAP1 JUMP JUMPDEST PUSH1 0x0 PUSH2 0x168 PUSH1 0x1 DUP4 PUSH2 0x42E JUMP JUMPDEST SWAP3 SWAP2 POP POP JUMP JUMPDEST PUSH2 0x176 PUSH2 0x453 JUMP JUMPDEST PUSH2 0x180 PUSH1 0x0 PUSH2 0x4AD JUMP JUMPDEST JUMP JUMPDEST PUSH1 0x60 PUSH1 0x0 DUP3 DUP5 PUSH2 0x192 PUSH1 0x1 PUSH2 0x424 JUMP JUMPDEST PUSH2 0x19C SWAP2 SWAP1 PUSH2 0x751 JUMP JUMPDEST DUP2 GT ISZERO PUSH2 0x1BB JUMPI DUP5 PUSH2 0x1AE PUSH1 0x1 PUSH2 0x424 JUMP JUMPDEST PUSH2 0x1B8 SWAP2 SWAP1 PUSH2 0x751 JUMP JUMPDEST SWAP1 POP JUMPDEST PUSH1 0x0 DUP2 PUSH8 0xFFFFFFFFFFFFFFFF DUP2 GT ISZERO PUSH2 0x1D6 JUMPI PUSH2 0x1D6 PUSH2 0x764 JUMP JUMPDEST PUSH1 0x40 MLOAD SWAP1 DUP1 DUP3 MSTORE DUP1 PUSH1 0x20 MUL PUSH1 0x20 ADD DUP3 ADD PUSH1 0x40 MSTORE DUP1 ISZERO PUSH2 0x1FF JUMPI DUP2 PUSH1 0x20 ADD PUSH1 0x20 DUP3 MUL DUP1 CALLDATASIZE DUP4 CALLDATACOPY ADD SWAP1 POP JUMPDEST POP SWAP1 POP PUSH1 0x0 JUMPDEST DUP3 DUP2 LT ISZERO PUSH2 0x25E JUMPI PUSH2 0x222 PUSH2 0x21A DUP3 DUP10 PUSH2 0x77A JUMP JUMPDEST PUSH1 0x1 SWAP1 PUSH2 0x4FD JUMP JUMPDEST DUP3 DUP3 DUP2 MLOAD DUP2 LT PUSH2 0x234 JUMPI PUSH2 0x234 PUSH2 0x78D JUMP JUMPDEST PUSH1 0x1 PUSH1 0x1 PUSH1 0xA0 SHL SUB SWAP1 SWAP3 AND PUSH1 0x20 SWAP3 DUP4 MUL SWAP2 SWAP1 SWAP2 ADD SWAP1 SWAP2 ADD MSTORE DUP1 PUSH2 0x256 DUP2 PUSH2 0x7A3 JUMP JUMPDEST SWAP2 POP POP PUSH2 0x205 JUMP JUMPDEST POP DUP1 PUSH2 0x26A DUP4 DUP9 PUSH2 0x77A JUMP JUMPDEST SWAP4 POP SWAP4 POP POP POP SWAP3 POP SWAP3 SWAP1 POP JUMP JUMPDEST PUSH2 0x27F PUSH2 0x453 JUMP JUMPDEST PUSH2 0x28A PUSH1 0x1 DUP3 PUSH2 0x42E JUMP JUMPDEST ISZERO PUSH2 0x2D3 JUMPI PUSH1 0x40 MLOAD PUSH3 0x461BCD PUSH1 0xE5 SHL DUP2 MSTORE PUSH1 0x20 PUSH1 0x4 DUP3 ADD MSTORE PUSH1 0x14 PUSH1 0x24 DUP3 ADD MSTORE PUSH20 0x8105B1C9958591E481DDA1A5D195B1A5CDD1959 PUSH1 0x62 SHL PUSH1 0x44 DUP3 ADD MSTORE PUSH1 0x64 ADD JUMPDEST PUSH1 0x40 MLOAD DUP1 SWAP2 SUB SWAP1 REVERT JUMPDEST PUSH2 0x2DE PUSH1 0x1 DUP3 PUSH2 0x509 JUMP JUMPDEST POP PUSH1 0x40 MLOAD PUSH1 0x1 PUSH1 0x1 PUSH1 0xA0 SHL SUB DUP3 AND SWAP1 PUSH32 0x3CBF62B327EFB2D06D36E16C10A2F5C00CF0568E2B805BD56969B15D27361078 SWAP1 PUSH1 0x0 SWAP1 LOG2 POP JUMP JUMPDEST PUSH2 0x31E PUSH2 0x453 JUMP JUMPDEST PUSH2 0x329 PUSH1 0x1 DUP3 PUSH2 0x42E JUMP JUMPDEST PUSH2 0x368 JUMPI PUSH1 0x40 MLOAD PUSH3 0x461BCD PUSH1 0xE5 SHL DUP2 MSTORE PUSH1 0x20 PUSH1 0x4 DUP3 ADD MSTORE PUSH1 0x10 PUSH1 0x24 DUP3 ADD MSTORE PUSH16 0x8139BDD081DDA1A5D195B1A5CDD1959 PUSH1 0x82 SHL PUSH1 0x44 DUP3 ADD MSTORE PUSH1 0x64 ADD PUSH2 0x2CA JUMP JUMPDEST PUSH2 0x373 PUSH1 0x1 DUP3 PUSH2 0x51E JUMP JUMPDEST POP PUSH1 0x40 MLOAD PUSH1 0x1 PUSH1 0x1 PUSH1 0xA0 SHL SUB DUP3 AND SWAP1 PUSH32 0xA40D69111BE14F29022626D38310E47CC2D7F4CB728961509C2F65A4BEE08C5B SWAP1 PUSH1 0x0 SWAP1 LOG2 POP JUMP JUMPDEST PUSH2 0x3B3 PUSH2 0x453 JUMP JUMPDEST PUSH1 0x1 PUSH1 0x1 PUSH1 0xA0 SHL SUB DUP2 AND PUSH2 0x418 JUMPI PUSH1 0x40 MLOAD PUSH3 0x461BCD PUSH1 0xE5 SHL DUP2 MSTORE PUSH1 0x20 PUSH1 0x4 DUP3 ADD MSTORE PUSH1 0x26 PUSH1 0x24 DUP3 ADD MSTORE PUSH32 0x4F776E61626C653A206E6577206F776E657220697320746865207A65726F2061 PUSH1 0x44 DUP3 ADD MSTORE PUSH6 0x646472657373 PUSH1 0xD0 SHL PUSH1 0x64 DUP3 ADD MSTORE PUSH1 0x84 ADD PUSH2 0x2CA JUMP JUMPDEST PUSH2 0x421 DUP2 PUSH2 0x4AD JUMP JUMPDEST POP JUMP JUMPDEST PUSH1 0x0 PUSH2 0x168 DUP3 SLOAD SWAP1 JUMP JUMPDEST PUSH1 0x1 PUSH1 0x1 PUSH1 0xA0 SHL SUB DUP2 AND PUSH1 0x0 SWAP1 DUP2 MSTORE PUSH1 0x1 DUP4 ADD PUSH1 0x20 MSTORE PUSH1 0x40 DUP2 KECCAK256 SLOAD ISZERO ISZERO JUMPDEST SWAP4 SWAP3 POP POP POP JUMP JUMPDEST PUSH1 0x0 SLOAD PUSH1 0x1 PUSH1 0x1 PUSH1 0xA0 SHL SUB AND CALLER EQ PUSH2 0x180 JUMPI PUSH1 0x40 MLOAD PUSH3 0x461BCD PUSH1 0xE5 SHL DUP2 MSTORE PUSH1 0x20 PUSH1 0x4 DUP3 ADD DUP2 SWAP1 MSTORE PUSH1 0x24 DUP3 ADD MSTORE PUSH32 0x4F776E61626C653A2063616C6C6572206973206E6F7420746865206F776E6572 PUSH1 0x44 DUP3 ADD MSTORE PUSH1 0x64 ADD PUSH2 0x2CA JUMP JUMPDEST PUSH1 0x0 DUP1 SLOAD PUSH1 0x1 PUSH1 0x1 PUSH1 0xA0 SHL SUB DUP4 DUP2 AND PUSH1 0x1 PUSH1 0x1 PUSH1 0xA0 SHL SUB NOT DUP4 AND DUP2 OR DUP5 SSTORE PUSH1 0x40 MLOAD SWAP2 SWAP1 SWAP3 AND SWAP3 DUP4 SWAP2 PUSH32 0x8BE0079C531659141344CD1FD0A4F28419497F9722A3DAAFE3B4186F6B6457E0 SWAP2 SWAP1 LOG3 POP POP JUMP JUMPDEST PUSH1 0x0 PUSH2 0x44C DUP4 DUP4 PUSH2 0x533 JUMP JUMPDEST PUSH1 0x0 PUSH2 0x44C DUP4 PUSH1 0x1 PUSH1 0x1 PUSH1 0xA0 SHL SUB DUP5 AND PUSH2 0x55D JUMP JUMPDEST PUSH1 0x0 PUSH2 0x44C DUP4 PUSH1 0x1 PUSH1 0x1 PUSH1 0xA0 SHL SUB DUP5 AND PUSH2 0x5AC JUMP JUMPDEST PUSH1 0x0 DUP3 PUSH1 0x0 ADD DUP3 DUP2 SLOAD DUP2 LT PUSH2 0x54A JUMPI PUSH2 0x54A PUSH2 0x78D JUMP JUMPDEST SWAP1 PUSH1 0x0 MSTORE PUSH1 0x20 PUSH1 0x0 KECCAK256 ADD SLOAD SWAP1 POP SWAP3 SWAP2 POP POP JUMP JUMPDEST PUSH1 0x0 DUP2 DUP2 MSTORE PUSH1 0x1 DUP4 ADD PUSH1 0x20 MSTORE PUSH1 0x40 DUP2 KECCAK256 SLOAD PUSH2 0x5A4 JUMPI POP DUP2 SLOAD PUSH1 0x1 DUP2 DUP2 ADD DUP5 SSTORE PUSH1 0x0 DUP5 DUP2 MSTORE PUSH1 0x20 DUP1 DUP3 KECCAK256 SWAP1 SWAP4 ADD DUP5 SWAP1 SSTORE DUP5 SLOAD DUP5 DUP3 MSTORE DUP3 DUP7 ADD SWAP1 SWAP4 MSTORE PUSH1 0x40 SWAP1 KECCAK256 SWAP2 SWAP1 SWAP2 SSTORE PUSH2 0x168 JUMP JUMPDEST POP PUSH1 0x0 PUSH2 0x168 JUMP JUMPDEST PUSH1 0x0 DUP2 DUP2 MSTORE PUSH1 0x1 DUP4 ADD PUSH1 0x20 MSTORE PUSH1 0x40 DUP2 KECCAK256 SLOAD DUP1 ISZERO PUSH2 0x695 JUMPI PUSH1 0x0 PUSH2 0x5D0 PUSH1 0x1 DUP4 PUSH2 0x751 JUMP JUMPDEST DUP6 SLOAD SWAP1 SWAP2 POP PUSH1 0x0 SWAP1 PUSH2 0x5E4 SWAP1 PUSH1 0x1 SWAP1 PUSH2 0x751 JUMP JUMPDEST SWAP1 POP DUP2 DUP2 EQ PUSH2 0x649 JUMPI PUSH1 0x0 DUP7 PUSH1 0x0 ADD DUP3 DUP2 SLOAD DUP2 LT PUSH2 0x604 JUMPI PUSH2 0x604 PUSH2 0x78D JUMP JUMPDEST SWAP1 PUSH1 0x0 MSTORE PUSH1 0x20 PUSH1 0x0 KECCAK256 ADD SLOAD SWAP1 POP DUP1 DUP8 PUSH1 0x0 ADD DUP5 DUP2 SLOAD DUP2 LT PUSH2 0x627 JUMPI PUSH2 0x627 PUSH2 0x78D JUMP JUMPDEST PUSH1 0x0 SWAP2 DUP3 MSTORE PUSH1 0x20 DUP1 DUP4 KECCAK256 SWAP1 SWAP2 ADD SWAP3 SWAP1 SWAP3 SSTORE SWAP2 DUP3 MSTORE PUSH1 0x1 DUP9 ADD SWAP1 MSTORE PUSH1 0x40 SWAP1 KECCAK256 DUP4 SWAP1 SSTORE JUMPDEST DUP6 SLOAD DUP7 SWAP1 DUP1 PUSH2 0x65A JUMPI PUSH2 0x65A PUSH2 0x7BC JUMP JUMPDEST PUSH1 0x1 SWAP1 SUB DUP2 DUP2 SWAP1 PUSH1 0x0 MSTORE PUSH1 0x20 PUSH1 0x0 KECCAK256 ADD PUSH1 0x0 SWAP1 SSTORE SWAP1 SSTORE DUP6 PUSH1 0x1 ADD PUSH1 0x0 DUP7 DUP2 MSTORE PUSH1 0x20 ADD SWAP1 DUP2 MSTORE PUSH1 0x20 ADD PUSH1 0x0 KECCAK256 PUSH1 0x0 SWAP1 SSTORE PUSH1 0x1 SWAP4 POP POP POP POP PUSH2 0x168 JUMP JUMPDEST PUSH1 0x0 SWAP2 POP POP PUSH2 0x168 JUMP JUMPDEST PUSH1 0x0 PUSH1 0x20 DUP3 DUP5 SUB SLT ISZERO PUSH2 0x6B1 JUMPI PUSH1 0x0 DUP1 REVERT JUMPDEST DUP2 CALLDATALOAD PUSH1 0x1 PUSH1 0x1 PUSH1 0xA0 SHL SUB DUP2 AND DUP2 EQ PUSH2 0x44C JUMPI PUSH1 0x0 DUP1 REVERT JUMPDEST PUSH1 0x0 DUP1 PUSH1 0x40 DUP4 DUP6 SUB SLT ISZERO PUSH2 0x6DB JUMPI PUSH1 0x0 DUP1 REVERT JUMPDEST POP POP DUP1 CALLDATALOAD SWAP3 PUSH1 0x20 SWAP1 SWAP2 ADD CALLDATALOAD SWAP2 POP JUMP JUMPDEST PUSH1 0x40 DUP1 DUP3 MSTORE DUP4 MLOAD SWAP1 DUP3 ADD DUP2 SWAP1 MSTORE PUSH1 0x0 SWAP1 PUSH1 0x20 SWAP1 PUSH1 0x60 DUP5 ADD SWAP1 DUP3 DUP8 ADD DUP5 JUMPDEST DUP3 DUP2 LT ISZERO PUSH2 0x72C JUMPI DUP2 MLOAD PUSH1 0x1 PUSH1 0x1 PUSH1 0xA0 SHL SUB AND DUP5 MSTORE SWAP3 DUP5 ADD SWAP3 SWAP1 DUP5 ADD SWAP1 PUSH1 0x1 ADD PUSH2 0x707 JUMP JUMPDEST POP POP POP SWAP3 ADD SWAP3 SWAP1 SWAP3 MSTORE SWAP3 SWAP2 POP POP JUMP JUMPDEST PUSH4 0x4E487B71 PUSH1 0xE0 SHL PUSH1 0x0 MSTORE PUSH1 0x11 PUSH1 0x4 MSTORE PUSH1 0x24 PUSH1 0x0 REVERT JUMPDEST DUP2 DUP2 SUB DUP2 DUP2 GT ISZERO PUSH2 0x168 JUMPI PUSH2 0x168 PUSH2 0x73B JUMP JUMPDEST PUSH4 0x4E487B71 PUSH1 0xE0 SHL PUSH1 0x0 MSTORE PUSH1 0x41 PUSH1 0x4 MSTORE PUSH1 0x24 PUSH1 0x0 REVERT JUMPDEST DUP1 DUP3 ADD DUP1 DUP3 GT ISZERO PUSH2 0x168 JUMPI PUSH2 0x168 PUSH2 0x73B JUMP JUMPDEST PUSH4 0x4E487B71 PUSH1 0xE0 SHL PUSH1 0x0 MSTORE PUSH1 0x32 PUSH1 0x4 MSTORE PUSH1 0x24 PUSH1 0x0 REVERT JUMPDEST PUSH1 0x0 PUSH1 0x1 DUP3 ADD PUSH2 0x7B5 JUMPI PUSH2 0x7B5 PUSH2 0x73B JUMP JUMPDEST POP PUSH1 0x1 ADD SWAP1 JUMP JUMPDEST PUSH4 0x4E487B71 PUSH1 0xE0 SHL PUSH1 0x0 MSTORE PUSH1 0x31 PUSH1 0x4 MSTORE PUSH1 0x24 PUSH1 0x0 REVERT INVALID LOG2 PUSH5 0x6970667358 0x22 SLT KECCAK256 BYTE COINBASE 0x26 CODESIZE DELEGATECALL JUMPI 0x5D LOG4 0x27 LOG0 PUSH18 0xE5F27815CA51DC831C1F61BCFA8D3A7F8D5E CREATE2 OR SWAP16 PUSH5 0x736F6C6343 STOP ADDMOD GT STOP CALLER "
		},
		"gasEstimates": {
			"creation": {
				"codeDepositCost": "411200",
				"executionCost": "26290",
				"totalCost": "437490"
			},
			"external": {
				"addCurrency(address)": "infinite",
				"isCurrencyWhitelisted(address)": "infinite",
				"owner()": "2323",
				"removeCurrency(address)": "infinite",
				"renounceOwnership()": "infinite",
				"transferOwnership(address)": "28364",
				"viewCountWhitelistedCurrencies()": "2360",
				"viewWhitelistedCurrencies(uint256,uint256)": "infinite"
			}
		},
		"methodIdentifiers": {
			"addCurrency(address)": "8ab234b6",
			"isCurrencyWhitelisted(address)": "43b938c5",
			"owner()": "8da5cb5b",
			"removeCurrency(address)": "c5d3a107",
			"renounceOwnership()": "715018a6",
			"transferOwnership(address)": "f2fde38b",
			"viewCountWhitelistedCurrencies()": "1facfd9c",
			"viewWhitelistedCurrencies(uint256,uint256)": "85f39b0a"
		}
	},
	"abi": [
		{
			"anonymous": false,
			"inputs": [
				{
					"indexed": true,
					"internalType": "address",
					"name": "currency",
					"type": "address"
				}
			],
			"name": "CurrencyRemoved",
			"type": "event"
		},
		{
			"anonymous": false,
			"inputs": [
				{
					"indexed": true,
					"internalType": "address",
					"name": "currency",
					"type": "address"
				}
			],
			"name": "CurrencyWhitelisted",
			"type": "event"
		},
		{
			"anonymous": false,
			"inputs": [
				{
					"indexed": true,
					"internalType": "address",
					"name": "previousOwner",
					"type": "address"
				},
				{
					"indexed": true,
					"internalType": "address",
					"name": "newOwner",
					"type": "address"
				}
			],
			"name": "OwnershipTransferred",
			"type": "event"
		},
		{
			"inputs": [
				{
					"internalType": "address",
					"name": "currency",
					"type": "address"
				}
			],
			"name": "addCurrency",
			"outputs": [],
			"stateMutability": "nonpayable",
			"type": "function"
		},
		{
			"inputs": [
				{
					"internalType": "address",
					"name": "currency",
					"type": "address"
				}
			],
			"name": "isCurrencyWhitelisted",
			"outputs": [
				{
					"internalType": "bool",
					"name": "",
					"type": "bool"
				}
			],
			"stateMutability": "view",
			"type": "function"
		},
		{
			"inputs": [],
			"name": "owner",
			"outputs": [
				{
					"internalType": "address",
					"name": "",
					"type": "address"
				}
			],
			"stateMutability": "view",
			"type": "function"
		},
		{
			"inputs": [
				{
					"internalType": "address",
					"name": "currency",
					"type": "address"
				}
			],
			"name": "removeCurrency",
			"outputs": [],
			"stateMutability": "nonpayable",
			"type": "function"
		},
		{
			"inputs": [],
			"name": "renounceOwnership",
			"outputs": [],
			"stateMutability": "nonpayable",
			"type": "function"
		},
		{
			"inputs": [
				{
					"internalType": "address",
					"name": "newOwner",
					"type": "address"
				}
			],
			"name": "transferOwnership",
			"outputs": [],
			"stateMutability": "nonpayable",
			"type": "function"
		},
		{
			"inputs": [],
			"name": "viewCountWhitelistedCurrencies",
			"outputs": [
				{
					"internalType": "uint256",
					"name": "",
					"type": "uint256"
				}
			],
			"stateMutability": "view",
			"type": "function"
		},
		{
			"inputs": [
				{
					"internalType": "uint256",
					"name": "cursor",
					"type": "uint256"
				},
				{
					"internalType": "uint256",
					"name": "size",
					"type": "uint256"
				}
			],
			"name": "viewWhitelistedCurrencies",
			"outputs": [
				{
					"internalType": "address[]",
					"name": "",
					"type": "address[]"
				},
				{
					"internalType": "uint256",
					"name": "",
					"type": "uint256"
				}
			],
			"stateMutability": "view",
			"type": "function"
		}
	]
}