{
	"data": {
		"bytecode": {
			"linkReferences": {},
			"object": "60c060405234801561001057600080fd5b5060405161084338038061084383398101604081905261002f916100bb565b6100383361004f565b6001600160a01b039182166080521660a0526100ee565b600080546001600160a01b038381166001600160a01b0319831681178455604051919092169283917f8be0079c531659141344cd1fd0a4f28419497f9722a3daafe3b4186f6b6457e09190a35050565b80516001600160a01b03811681146100b657600080fd5b919050565b600080604083850312156100ce57600080fd5b6100d78361009f565b91506100e56020840161009f565b90509250929050565b60805160a0516107236101206000396000818160f40152610517015260008181610188015261047c01526107236000f3fe608060405234801561001057600080fd5b50600436106100a95760003560e01c8063715018a611610071578063715018a61461016a5780638da5cb5b14610172578063b1357ddd14610183578063bc6bc0cd146101aa578063cc159493146101b8578063f2fde38b146101cb57600080fd5b806325c6a895146100ae57806333bf6156146100c357806338928956146100ef5780634216a7531461012e5780637053fb7914610157575b600080fd5b6100c16100bc366004610676565b6101de565b005b6100d1636cdb3d1360e11b81565b6040516001600160e01b031990911681526020015b60405180910390f35b6101167f000000000000000000000000000000000000000000000000000000000000000081565b6040516001600160a01b0390911681526020016100e6565b61011661013c3660046106a9565b6001602052600090815260409020546001600160a01b031681565b6100c16101653660046106a9565b610308565b6100c16103d1565b6000546001600160a01b0316610116565b6101167f000000000000000000000000000000000000000000000000000000000000000081565b6100d16380ac58cd60e01b81565b6101166101c63660046106a9565b6103e5565b6100c16101d93660046106a9565b61053c565b6101e66105b5565b6001600160a01b03821661024c5760405162461bcd60e51b815260206004820152602260248201527f20436f6c6c656374696f6e2063616e6e6f74206265206e756c6c206164647265604482015261737360f01b60648201526084015b60405180910390fd5b6001600160a01b0381166102b15760405162461bcd60e51b815260206004820152602660248201527f5472616e736665724d616e616765722063616e6e6f74206265206e756c6c206160448201526564647265737360d01b6064820152608401610243565b6001600160a01b0382811660008181526001602052604080822080546001600160a01b0319169486169485179055517fda166be6ba0ebb71be3f83e7d669765de552ea08978bfe3e3e42d54174111b629190a35050565b6103106105b5565b6001600160a01b03818116600090815260016020526040902054166103825760405162461bcd60e51b815260206004820152602260248201527f436f6c6c656374696f6e20686173206e6f207472616e73666572206d616e616760448201526132b960f11b6064820152608401610243565b6001600160a01b03811660008181526001602052604080822080546001600160a01b0319169055517f8c3bf4babc197f3db0e7ec65aaf23fc0efb0e689436aeea8514c3f01fd97841f9190a250565b6103d96105b5565b6103e3600061060f565b565b6001600160a01b038082166000908152600160205260409020541680610537576040516301ffc9a760e01b81526380ac58cd60e01b60048201526001600160a01b038316906301ffc9a790602401602060405180830381865afa158015610450573d6000803e3d6000fd5b505050506040513d601f19601f8201168201806040525081019061047491906106cb565b156104a057507f0000000000000000000000000000000000000000000000000000000000000000919050565b6040516301ffc9a760e01b8152636cdb3d1360e11b60048201526001600160a01b038316906301ffc9a790602401602060405180830381865afa1580156104eb573d6000803e3d6000fd5b505050506040513d601f19601f8201168201806040525081019061050f91906106cb565b1561053757507f00000000000000000000000000000000000000000000000000000000000000005b919050565b6105446105b5565b6001600160a01b0381166105a95760405162461bcd60e51b815260206004820152602660248201527f4f776e61626c653a206e6577206f776e657220697320746865207a65726f206160448201526564647265737360d01b6064820152608401610243565b6105b28161060f565b50565b6000546001600160a01b031633146103e35760405162461bcd60e51b815260206004820181905260248201527f4f776e61626c653a2063616c6c6572206973206e6f7420746865206f776e65726044820152606401610243565b600080546001600160a01b038381166001600160a01b0319831681178455604051919092169283917f8be0079c531659141344cd1fd0a4f28419497f9722a3daafe3b4186f6b6457e09190a35050565b80356001600160a01b038116811461053757600080fd5b6000806040838503121561068957600080fd5b6106928361065f565b91506106a06020840161065f565b90509250929050565b6000602082840312156106bb57600080fd5b6106c48261065f565b9392505050565b6000602082840312156106dd57600080fd5b815180151581146106c457600080fdfea2646970667358221220ad70df44b03ec2bf2e028d7c43376ff8fbd7ec2c21820befd5633166a13a2d0a64736f6c63430008110033",
			"opcodes": "PUSH1 0xC0 PUSH1 0x40 MSTORE CALLVALUE DUP1 ISZERO PUSH2 0x10 JUMPI PUSH1 0x0 DUP1 REVERT JUMPDEST POP PUSH1 0x40 MLOAD PUSH2 0x843 CODESIZE SUB DUP1 PUSH2 0x843 DUP4 CODECOPY DUP2 ADD PUSH1 0x40 DUP2 SWAP1 MSTORE PUSH2 0x2F SWAP2 PUSH2 0xBB JUMP JUMPDEST PUSH2 0x38 CALLER PUSH2 0x4F JUMP JUMPDEST PUSH1 0x1 PUSH1 0x1 PUSH1 0xA0 SHL SUB SWAP2 DUP3 AND PUSH1 0x80 MSTORE AND PUSH1 0xA0 MSTORE PUSH2 0xEE JUMP JUMPDEST PUSH1 0x0 DUP1 SLOAD PUSH1 0x1 PUSH1 0x1 PUSH1 0xA0 SHL SUB DUP4 DUP2 AND PUSH1 0x1 PUSH1 0x1 PUSH1 0xA0 SHL SUB NOT DUP4 AND DUP2 OR DUP5 SSTORE PUSH1 0x40 MLOAD SWAP2 SWAP1 SWAP3 AND SWAP3 DUP4 SWAP2 PUSH32 0x8BE0079C531659141344CD1FD0A4F28419497F9722A3DAAFE3B4186F6B6457E0 SWAP2 SWAP1 LOG3 POP POP JUMP JUMPDEST DUP1 MLOAD PUSH1 0x1 PUSH1 0x1 PUSH1 0xA0 SHL SUB DUP2 AND DUP2 EQ PUSH2 0xB6 JUMPI PUSH1 0x0 DUP1 REVERT JUMPDEST SWAP2 SWAP1 POP JUMP JUMPDEST PUSH1 0x0 DUP1 PUSH1 0x40 DUP4 DUP6 SUB SLT ISZERO PUSH2 0xCE JUMPI PUSH1 0x0 DUP1 REVERT JUMPDEST PUSH2 0xD7 DUP4 PUSH2 0x9F JUMP JUMPDEST SWAP2 POP PUSH2 0xE5 PUSH1 0x20 DUP5 ADD PUSH2 0x9F JUMP JUMPDEST SWAP1 POP SWAP3 POP SWAP3 SWAP1 POP JUMP JUMPDEST PUSH1 0x80 MLOAD PUSH1 0xA0 MLOAD PUSH2 0x723 PUSH2 0x120 PUSH1 0x0 CODECOPY PUSH1 0x0 DUP2 DUP2 PUSH1 0xF4 ADD MSTORE PUSH2 0x517 ADD MSTORE PUSH1 0x0 DUP2 DUP2 PUSH2 0x188 ADD MSTORE PUSH2 0x47C ADD MSTORE PUSH2 0x723 PUSH1 0x0 RETURN INVALID PUSH1 0x80 PUSH1 0x40 MSTORE CALLVALUE DUP1 ISZERO PUSH2 0x10 JUMPI PUSH1 0x0 DUP1 REVERT JUMPDEST POP PUSH1 0x4 CALLDATASIZE LT PUSH2 0xA9 JUMPI PUSH1 0x0 CALLDATALOAD PUSH1 0xE0 SHR DUP1 PUSH4 0x715018A6 GT PUSH2 0x71 JUMPI DUP1 PUSH4 0x715018A6 EQ PUSH2 0x16A JUMPI DUP1 PUSH4 0x8DA5CB5B EQ PUSH2 0x172 JUMPI DUP1 PUSH4 0xB1357DDD EQ PUSH2 0x183 JUMPI DUP1 PUSH4 0xBC6BC0CD EQ PUSH2 0x1AA JUMPI DUP1 PUSH4 0xCC159493 EQ PUSH2 0x1B8 JUMPI DUP1 PUSH4 0xF2FDE38B EQ PUSH2 0x1CB JUMPI PUSH1 0x0 DUP1 REVERT JUMPDEST DUP1 PUSH4 0x25C6A895 EQ PUSH2 0xAE JUMPI DUP1 PUSH4 0x33BF6156 EQ PUSH2 0xC3 JUMPI DUP1 PUSH4 0x38928956 EQ PUSH2 0xEF JUMPI DUP1 PUSH4 0x4216A753 EQ PUSH2 0x12E JUMPI DUP1 PUSH4 0x7053FB79 EQ PUSH2 0x157 JUMPI JUMPDEST PUSH1 0x0 DUP1 REVERT JUMPDEST PUSH2 0xC1 PUSH2 0xBC CALLDATASIZE PUSH1 0x4 PUSH2 0x676 JUMP JUMPDEST PUSH2 0x1DE JUMP JUMPDEST STOP JUMPDEST PUSH2 0xD1 PUSH4 0x6CDB3D13 PUSH1 0xE1 SHL DUP2 JUMP JUMPDEST PUSH1 0x40 MLOAD PUSH1 0x1 PUSH1 0x1 PUSH1 0xE0 SHL SUB NOT SWAP1 SWAP2 AND DUP2 MSTORE PUSH1 0x20 ADD JUMPDEST PUSH1 0x40 MLOAD DUP1 SWAP2 SUB SWAP1 RETURN JUMPDEST PUSH2 0x116 PUSH32 0x0 DUP2 JUMP JUMPDEST PUSH1 0x40 MLOAD PUSH1 0x1 PUSH1 0x1 PUSH1 0xA0 SHL SUB SWAP1 SWAP2 AND DUP2 MSTORE PUSH1 0x20 ADD PUSH2 0xE6 JUMP JUMPDEST PUSH2 0x116 PUSH2 0x13C CALLDATASIZE PUSH1 0x4 PUSH2 0x6A9 JUMP JUMPDEST PUSH1 0x1 PUSH1 0x20 MSTORE PUSH1 0x0 SWAP1 DUP2 MSTORE PUSH1 0x40 SWAP1 KECCAK256 SLOAD PUSH1 0x1 PUSH1 0x1 PUSH1 0xA0 SHL SUB AND DUP2 JUMP JUMPDEST PUSH2 0xC1 PUSH2 0x165 CALLDATASIZE PUSH1 0x4 PUSH2 0x6A9 JUMP JUMPDEST PUSH2 0x308 JUMP JUMPDEST PUSH2 0xC1 PUSH2 0x3D1 JUMP JUMPDEST PUSH1 0x0 SLOAD PUSH1 0x1 PUSH1 0x1 PUSH1 0xA0 SHL SUB AND PUSH2 0x116 JUMP JUMPDEST PUSH2 0x116 PUSH32 0x0 DUP2 JUMP JUMPDEST PUSH2 0xD1 PUSH4 0x80AC58CD PUSH1 0xE0 SHL DUP2 JUMP JUMPDEST PUSH2 0x116 PUSH2 0x1C6 CALLDATASIZE PUSH1 0x4 PUSH2 0x6A9 JUMP JUMPDEST PUSH2 0x3E5 JUMP JUMPDEST PUSH2 0xC1 PUSH2 0x1D9 CALLDATASIZE PUSH1 0x4 PUSH2 0x6A9 JUMP JUMPDEST PUSH2 0x53C JUMP JUMPDEST PUSH2 0x1E6 PUSH2 0x5B5 JUMP JUMPDEST PUSH1 0x1 PUSH1 0x1 PUSH1 0xA0 SHL SUB DUP3 AND PUSH2 0x24C JUMPI PUSH1 0x40 MLOAD PUSH3 0x461BCD PUSH1 0xE5 SHL DUP2 MSTORE PUSH1 0x20 PUSH1 0x4 DUP3 ADD MSTORE PUSH1 0x22 PUSH1 0x24 DUP3 ADD MSTORE PUSH32 0x20436F6C6C656374696F6E2063616E6E6F74206265206E756C6C206164647265 PUSH1 0x44 DUP3 ADD MSTORE PUSH2 0x7373 PUSH1 0xF0 SHL PUSH1 0x64 DUP3 ADD MSTORE PUSH1 0x84 ADD JUMPDEST PUSH1 0x40 MLOAD DUP1 SWAP2 SUB SWAP1 REVERT JUMPDEST PUSH1 0x1 PUSH1 0x1 PUSH1 0xA0 SHL SUB DUP2 AND PUSH2 0x2B1 JUMPI PUSH1 0x40 MLOAD PUSH3 0x461BCD PUSH1 0xE5 SHL DUP2 MSTORE PUSH1 0x20 PUSH1 0x4 DUP3 ADD MSTORE PUSH1 0x26 PUSH1 0x24 DUP3 ADD MSTORE PUSH32 0x5472616E736665724D616E616765722063616E6E6F74206265206E756C6C2061 PUSH1 0x44 DUP3 ADD MSTORE PUSH6 0x646472657373 PUSH1 0xD0 SHL PUSH1 0x64 DUP3 ADD MSTORE PUSH1 0x84 ADD PUSH2 0x243 JUMP JUMPDEST PUSH1 0x1 PUSH1 0x1 PUSH1 0xA0 SHL SUB DUP3 DUP2 AND PUSH1 0x0 DUP2 DUP2 MSTORE PUSH1 0x1 PUSH1 0x20 MSTORE PUSH1 0x40 DUP1 DUP3 KECCAK256 DUP1 SLOAD PUSH1 0x1 PUSH1 0x1 PUSH1 0xA0 SHL SUB NOT AND SWAP5 DUP7 AND SWAP5 DUP6 OR SWAP1 SSTORE MLOAD PUSH32 0xDA166BE6BA0EBB71BE3F83E7D669765DE552EA08978BFE3E3E42D54174111B62 SWAP2 SWAP1 LOG3 POP POP JUMP JUMPDEST PUSH2 0x310 PUSH2 0x5B5 JUMP JUMPDEST PUSH1 0x1 PUSH1 0x1 PUSH1 0xA0 SHL SUB DUP2 DUP2 AND PUSH1 0x0 SWAP1 DUP2 MSTORE PUSH1 0x1 PUSH1 0x20 MSTORE PUSH1 0x40 SWAP1 KECCAK256 SLOAD AND PUSH2 0x382 JUMPI PUSH1 0x40 MLOAD PUSH3 0x461BCD PUSH1 0xE5 SHL DUP2 MSTORE PUSH1 0x20 PUSH1 0x4 DUP3 ADD MSTORE PUSH1 0x22 PUSH1 0x24 DUP3 ADD MSTORE PUSH32 0x436F6C6C656374696F6E20686173206E6F207472616E73666572206D616E6167 PUSH1 0x44 DUP3 ADD MSTORE PUSH2 0x32B9 PUSH1 0xF1 SHL PUSH1 0x64 DUP3 ADD MSTORE PUSH1 0x84 ADD PUSH2 0x243 JUMP JUMPDEST PUSH1 0x1 PUSH1 0x1 PUSH1 0xA0 SHL SUB DUP2 AND PUSH1 0x0 DUP2 DUP2 MSTORE PUSH1 0x1 PUSH1 0x20 MSTORE PUSH1 0x40 DUP1 DUP3 KECCAK256 DUP1 SLOAD PUSH1 0x1 PUSH1 0x1 PUSH1 0xA0 SHL SUB NOT AND SWAP1 SSTORE MLOAD PUSH32 0x8C3BF4BABC197F3DB0E7EC65AAF23FC0EFB0E689436AEEA8514C3F01FD97841F SWAP2 SWAP1 LOG2 POP JUMP JUMPDEST PUSH2 0x3D9 PUSH2 0x5B5 JUMP JUMPDEST PUSH2 0x3E3 PUSH1 0x0 PUSH2 0x60F JUMP JUMPDEST JUMP JUMPDEST PUSH1 0x1 PUSH1 0x1 PUSH1 0xA0 SHL SUB DUP1 DUP3 AND PUSH1 0x0 SWAP1 DUP2 MSTORE PUSH1 0x1 PUSH1 0x20 MSTORE PUSH1 0x40 SWAP1 KECCAK256 SLOAD AND DUP1 PUSH2 0x537 JUMPI PUSH1 0x40 MLOAD PUSH4 0x1FFC9A7 PUSH1 0xE0 SHL DUP2 MSTORE PUSH4 0x80AC58CD PUSH1 0xE0 SHL PUSH1 0x4 DUP3 ADD MSTORE PUSH1 0x1 PUSH1 0x1 PUSH1 0xA0 SHL SUB DUP4 AND SWAP1 PUSH4 0x1FFC9A7 SWAP1 PUSH1 0x24 ADD PUSH1 0x20 PUSH1 0x40 MLOAD DUP1 DUP4 SUB DUP2 DUP7 GAS STATICCALL ISZERO DUP1 ISZERO PUSH2 0x450 JUMPI RETURNDATASIZE PUSH1 0x0 DUP1 RETURNDATACOPY RETURNDATASIZE PUSH1 0x0 REVERT JUMPDEST POP POP POP POP PUSH1 0x40 MLOAD RETURNDATASIZE PUSH1 0x1F NOT PUSH1 0x1F DUP3 ADD AND DUP3 ADD DUP1 PUSH1 0x40 MSTORE POP DUP2 ADD SWAP1 PUSH2 0x474 SWAP2 SWAP1 PUSH2 0x6CB JUMP JUMPDEST ISZERO PUSH2 0x4A0 JUMPI POP PUSH32 0x0 SWAP2 SWAP1 POP JUMP JUMPDEST PUSH1 0x40 MLOAD PUSH4 0x1FFC9A7 PUSH1 0xE0 SHL DUP2 MSTORE PUSH4 0x6CDB3D13 PUSH1 0xE1 SHL PUSH1 0x4 DUP3 ADD MSTORE PUSH1 0x1 PUSH1 0x1 PUSH1 0xA0 SHL SUB DUP4 AND SWAP1 PUSH4 0x1FFC9A7 SWAP1 PUSH1 0x24 ADD PUSH1 0x20 PUSH1 0x40 MLOAD DUP1 DUP4 SUB DUP2 DUP7 GAS STATICCALL ISZERO DUP1 ISZERO PUSH2 0x4EB JUMPI RETURNDATASIZE PUSH1 0x0 DUP1 RETURNDATACOPY RETURNDATASIZE PUSH1 0x0 REVERT JUMPDEST POP POP POP POP PUSH1 0x40 MLOAD RETURNDATASIZE PUSH1 0x1F NOT PUSH1 0x1F DUP3 ADD AND DUP3 ADD DUP1 PUSH1 0x40 MSTORE POP DUP2 ADD SWAP1 PUSH2 0x50F SWAP2 SWAP1 PUSH2 0x6CB JUMP JUMPDEST ISZERO PUSH2 0x537 JUMPI POP PUSH32 0x0 JUMPDEST SWAP2 SWAP1 POP JUMP JUMPDEST PUSH2 0x544 PUSH2 0x5B5 JUMP JUMPDEST PUSH1 0x1 PUSH1 0x1 PUSH1 0xA0 SHL SUB DUP2 AND PUSH2 0x5A9 JUMPI PUSH1 0x40 MLOAD PUSH3 0x461BCD PUSH1 0xE5 SHL DUP2 MSTORE PUSH1 0x20 PUSH1 0x4 DUP3 ADD MSTORE PUSH1 0x26 PUSH1 0x24 DUP3 ADD MSTORE PUSH32 0x4F776E61626C653A206E6577206F776E657220697320746865207A65726F2061 PUSH1 0x44 DUP3 ADD MSTORE PUSH6 0x646472657373 PUSH1 0xD0 SHL PUSH1 0x64 DUP3 ADD MSTORE PUSH1 0x84 ADD PUSH2 0x243 JUMP JUMPDEST PUSH2 0x5B2 DUP2 PUSH2 0x60F JUMP JUMPDEST POP JUMP JUMPDEST PUSH1 0x0 SLOAD PUSH1 0x1 PUSH1 0x1 PUSH1 0xA0 SHL SUB AND CALLER EQ PUSH2 0x3E3 JUMPI PUSH1 0x40 MLOAD PUSH3 0x461BCD PUSH1 0xE5 SHL DUP2 MSTORE PUSH1 0x20 PUSH1 0x4 DUP3 ADD DUP2 SWAP1 MSTORE PUSH1 0x24 DUP3 ADD MSTORE PUSH32 0x4F776E61626C653A2063616C6C6572206973206E6F7420746865206F776E6572 PUSH1 0x44 DUP3 ADD MSTORE PUSH1 0x64 ADD PUSH2 0x243 JUMP JUMPDEST PUSH1 0x0 DUP1 SLOAD PUSH1 0x1 PUSH1 0x1 PUSH1 0xA0 SHL SUB DUP4 DUP2 AND PUSH1 0x1 PUSH1 0x1 PUSH1 0xA0 SHL SUB NOT DUP4 AND DUP2 OR DUP5 SSTORE PUSH1 0x40 MLOAD SWAP2 SWAP1 SWAP3 AND SWAP3 DUP4 SWAP2 PUSH32 0x8BE0079C531659141344CD1FD0A4F28419497F9722A3DAAFE3B4186F6B6457E0 SWAP2 SWAP1 LOG3 POP POP JUMP JUMPDEST DUP1 CALLDATALOAD PUSH1 0x1 PUSH1 0x1 PUSH1 0xA0 SHL SUB DUP2 AND DUP2 EQ PUSH2 0x537 JUMPI PUSH1 0x0 DUP1 REVERT JUMPDEST PUSH1 0x0 DUP1 PUSH1 0x40 DUP4 DUP6 SUB SLT ISZERO PUSH2 0x689 JUMPI PUSH1 0x0 DUP1 REVERT JUMPDEST PUSH2 0x692 DUP4 PUSH2 0x65F JUMP JUMPDEST SWAP2 POP PUSH2 0x6A0 PUSH1 0x20 DUP5 ADD PUSH2 0x65F JUMP JUMPDEST SWAP1 POP SWAP3 POP SWAP3 SWAP1 POP JUMP JUMPDEST PUSH1 0x0 PUSH1 0x20 DUP3 DUP5 SUB SLT ISZERO PUSH2 0x6BB JUMPI PUSH1 0x0 DUP1 REVERT JUMPDEST PUSH2 0x6C4 DUP3 PUSH2 0x65F JUMP JUMPDEST SWAP4 SWAP3 POP POP POP JUMP JUMPDEST PUSH1 0x0 PUSH1 0x20 DUP3 DUP5 SUB SLT ISZERO PUSH2 0x6DD JUMPI PUSH1 0x0 DUP1 REVERT JUMPDEST DUP2 MLOAD DUP1 ISZERO ISZERO DUP2 EQ PUSH2 0x6C4 JUMPI PUSH1 0x0 DUP1 REVERT INVALID LOG2 PUSH5 0x6970667358 0x22 SLT KECCAK256 0xAD PUSH17 0xDF44B03EC2BF2E028D7C43376FF8FBD7EC 0x2C 0x21 DUP3 SIGNEXTEND 0xEF 0xD5 PUSH4 0x3166A13A 0x2D EXP PUSH5 0x736F6C6343 STOP ADDMOD GT STOP CALLER "
		},
		"gasEstimates": {
			"creation": {
				"codeDepositCost": "365400",
				"executionCost": "infinite",
				"totalCost": "infinite"
			},
			"external": {
				"INTERFACE_ID_ERC1155()": "237",
				"INTERFACE_ID_ERC721()": "280",
				"TRANSFER_MANAGER_ERC1155()": "infinite",
				"TRANSFER_MANAGER_ERC721()": "infinite",
				"addCollectionTransferManager(address,address)": "infinite",
				"checkTransferManagerForToken(address)": "infinite",
				"owner()": "2353",
				"removeCollectionTransferManager(address)": "30224",
				"renounceOwnership()": "infinite",
				"transferManagerSelectorForCollection(address)": "2625",
				"transferOwnership(address)": "28443"
			}
		},
		"methodIdentifiers": {
			"INTERFACE_ID_ERC1155()": "33bf6156",
			"INTERFACE_ID_ERC721()": "bc6bc0cd",
			"TRANSFER_MANAGER_ERC1155()": "38928956",
			"TRANSFER_MANAGER_ERC721()": "b1357ddd",
			"addCollectionTransferManager(address,address)": "25c6a895",
			"checkTransferManagerForToken(address)": "cc159493",
			"owner()": "8da5cb5b",
			"removeCollectionTransferManager(address)": "7053fb79",
			"renounceOwnership()": "715018a6",
			"transferManagerSelectorForCollection(address)": "4216a753",
			"transferOwnership(address)": "f2fde38b"
		}
	},
	"abi": [
		{
			"inputs": [
				{
					"internalType": "address",
					"name": "_transferManagerERC721",
					"type": "address"
				},
				{
					"internalType": "address",
					"name": "_transferManagerERC1155",
					"type": "address"
				}
			],
			"stateMutability": "nonpayable",
			"type": "constructor"
		},
		{
			"anonymous": false,
			"inputs": [
				{
					"indexed": true,
					"internalType": "address",
					"name": "collection",
					"type": "address"
				},
				{
					"indexed": true,
					"internalType": "address",
					"name": "transferManager",
					"type": "address"
				}
			],
			"name": "CollectionTransferManagerAdded",
			"type": "event"
		},
		{
			"anonymous": false,
			"inputs": [
				{
					"indexed": true,
					"internalType": "address",
					"name": "collection",
					"type": "address"
				}
			],
			"name": "CollectionTransferManagerRemoved",
			"type": "event"
		},
		{
			"anonymous": false,
			"inputs": [
				{
					"indexed": true,
					"internalType": "address",
					"name": "previousOwner",
					"type": "address"
				},
				{
					"indexed": true,
					"internalType": "address",
					"name": "newOwner",
					"type": "address"
				}
			],
			"name": "OwnershipTransferred",
			"type": "event"
		},
		{
			"inputs": [],
			"name": "INTERFACE_ID_ERC1155",
			"outputs": [
				{
					"internalType": "bytes4",
					"name": "",
					"type": "bytes4"
				}
			],
			"stateMutability": "view",
			"type": "function"
		},
		{
			"inputs": [],
			"name": "INTERFACE_ID_ERC721",
			"outputs": [
				{
					"internalType": "bytes4",
					"name": "",
					"type": "bytes4"
				}
			],
			"stateMutability": "view",
			"type": "function"
		},
		{
			"inputs": [],
			"name": "TRANSFER_MANAGER_ERC1155",
			"outputs": [
				{
					"internalType": "address",
					"name": "",
					"type": "address"
				}
			],
			"stateMutability": "view",
			"type": "function"
		},
		{
			"inputs": [],
			"name": "TRANSFER_MANAGER_ERC721",
			"outputs": [
				{
					"internalType": "address",
					"name": "",
					"type": "address"
				}
			],
			"stateMutability": "view",
			"type": "function"
		},
		{
			"inputs": [
				{
					"internalType": "address",
					"name": "collection",
					"type": "address"
				},
				{
					"internalType": "address",
					"name": "transferManager",
					"type": "address"
				}
			],
			"name": "addCollectionTransferManager",
			"outputs": [],
			"stateMutability": "nonpayable",
			"type": "function"
		},
		{
			"inputs": [
				{
					"internalType": "address",
					"name": "collection",
					"type": "address"
				}
			],
			"name": "checkTransferManagerForToken",
			"outputs": [
				{
					"internalType": "address",
					"name": "transferManager",
					"type": "address"
				}
			],
			"stateMutability": "view",
			"type": "function"
		},
		{
			"inputs": [],
			"name": "owner",
			"outputs": [
				{
					"internalType": "address",
					"name": "",
					"type": "address"
				}
			],
			"stateMutability": "view",
			"type": "function"
		},
		{
			"inputs": [
				{
					"internalType": "address",
					"name": "collection",
					"type": "address"
				}
			],
			"name": "removeCollectionTransferManager",
			"outputs": [],
			"stateMutability": "nonpayable",
			"type": "function"
		},
		{
			"inputs": [],
			"name": "renounceOwnership",
			"outputs": [],
			"stateMutability": "nonpayable",
			"type": "function"
		},
		{
			"inputs": [
				{
					"internalType": "address",
					"name": "",
					"type": "address"
				}
			],
			"name": "transferManagerSelectorForCollection",
			"outputs": [
				{
					"internalType": "address",
					"name": "",
					"type": "address"
				}
			],
			"stateMutability": "view",
			"type": "function"
		},
		{
			"inputs": [
				{
					"internalType": "address",
					"name": "newOwner",
					"type": "address"
				}
			],
			"name": "transferOwnership",
			"outputs": [],
			"stateMutability": "nonpayable",
			"type": "function"
		}
	]
}